{
  "_format": "hh-sol-artifact-1",
  "contractName": "TurboShareToken",
  "sourceName": "contracts/turbo/TurboShareToken.sol",
  "abi": [
    {
      "inputs": [
        {
          "internalType": "string",
          "name": "_symbol",
          "type": "string"
        },
        {
          "internalType": "bytes32",
          "name": "_name",
          "type": "bytes32"
        },
        {
          "internalType": "contract ITurboHatchery",
          "name": "_hatchery",
          "type": "address"
        }
      ],
      "stateMutability": "nonpayable",
      "type": "constructor"
    },
    {
      "anonymous": false,
      "inputs": [
        {
          "indexed": true,
          "internalType": "address",
          "name": "owner",
          "type": "address"
        },
        {
          "indexed": true,
          "internalType": "address",
          "name": "spender",
          "type": "address"
        },
        {
          "indexed": false,
          "internalType": "uint256",
          "name": "value",
          "type": "uint256"
        }
      ],
      "name": "Approval",
      "type": "event"
    },
    {
      "anonymous": false,
      "inputs": [
        {
          "indexed": true,
          "internalType": "address",
          "name": "from",
          "type": "address"
        },
        {
          "indexed": true,
          "internalType": "address",
          "name": "to",
          "type": "address"
        },
        {
          "indexed": false,
          "internalType": "uint256",
          "name": "value",
          "type": "uint256"
        }
      ],
      "name": "Transfer",
      "type": "event"
    },
    {
      "inputs": [
        {
          "internalType": "address",
          "name": "_owner",
          "type": "address"
        },
        {
          "internalType": "address",
          "name": "_spender",
          "type": "address"
        }
      ],
      "name": "allowance",
      "outputs": [
        {
          "internalType": "uint256",
          "name": "",
          "type": "uint256"
        }
      ],
      "stateMutability": "view",
      "type": "function"
    },
    {
      "inputs": [
        {
          "internalType": "address",
          "name": "",
          "type": "address"
        },
        {
          "internalType": "address",
          "name": "",
          "type": "address"
        }
      ],
      "name": "allowances",
      "outputs": [
        {
          "internalType": "uint256",
          "name": "",
          "type": "uint256"
        }
      ],
      "stateMutability": "view",
      "type": "function"
    },
    {
      "inputs": [
        {
          "internalType": "address",
          "name": "_spender",
          "type": "address"
        },
        {
          "internalType": "uint256",
          "name": "_amount",
          "type": "uint256"
        }
      ],
      "name": "approve",
      "outputs": [
        {
          "internalType": "bool",
          "name": "",
          "type": "bool"
        }
      ],
      "stateMutability": "nonpayable",
      "type": "function"
    },
    {
      "inputs": [
        {
          "internalType": "address",
          "name": "_account",
          "type": "address"
        }
      ],
      "name": "balanceOf",
      "outputs": [
        {
          "internalType": "uint256",
          "name": "",
          "type": "uint256"
        }
      ],
      "stateMutability": "view",
      "type": "function"
    },
    {
      "inputs": [
        {
          "internalType": "address",
          "name": "",
          "type": "address"
        }
      ],
      "name": "balances",
      "outputs": [
        {
          "internalType": "uint256",
          "name": "",
          "type": "uint256"
        }
      ],
      "stateMutability": "view",
      "type": "function"
    },
    {
      "inputs": [],
      "name": "decimals",
      "outputs": [
        {
          "internalType": "uint8",
          "name": "",
          "type": "uint8"
        }
      ],
      "stateMutability": "view",
      "type": "function"
    },
    {
      "inputs": [
        {
          "internalType": "address",
          "name": "_spender",
          "type": "address"
        },
        {
          "internalType": "uint256",
          "name": "_subtractedValue",
          "type": "uint256"
        }
      ],
      "name": "decreaseAllowance",
      "outputs": [
        {
          "internalType": "bool",
          "name": "",
          "type": "bool"
        }
      ],
      "stateMutability": "nonpayable",
      "type": "function"
    },
    {
      "inputs": [],
      "name": "getOwner",
      "outputs": [
        {
          "internalType": "address",
          "name": "",
          "type": "address"
        }
      ],
      "stateMutability": "view",
      "type": "function"
    },
    {
      "inputs": [
        {
          "internalType": "address",
          "name": "_spender",
          "type": "address"
        },
        {
          "internalType": "uint256",
          "name": "_addedValue",
          "type": "uint256"
        }
      ],
      "name": "increaseAllowance",
      "outputs": [
        {
          "internalType": "bool",
          "name": "",
          "type": "bool"
        }
      ],
      "stateMutability": "nonpayable",
      "type": "function"
    },
    {
      "inputs": [],
      "name": "name",
      "outputs": [
        {
          "internalType": "bytes32",
          "name": "",
          "type": "bytes32"
        }
      ],
      "stateMutability": "view",
      "type": "function"
    },
    {
      "inputs": [],
      "name": "symbol",
      "outputs": [
        {
          "internalType": "string",
          "name": "",
          "type": "string"
        }
      ],
      "stateMutability": "view",
      "type": "function"
    },
    {
      "inputs": [],
      "name": "totalSupply",
      "outputs": [
        {
          "internalType": "uint256",
          "name": "",
          "type": "uint256"
        }
      ],
      "stateMutability": "view",
      "type": "function"
    },
    {
      "inputs": [
        {
          "internalType": "address",
          "name": "_recipient",
          "type": "address"
        },
        {
          "internalType": "uint256",
          "name": "_amount",
          "type": "uint256"
        }
      ],
      "name": "transfer",
      "outputs": [
        {
          "internalType": "bool",
          "name": "",
          "type": "bool"
        }
      ],
      "stateMutability": "nonpayable",
      "type": "function"
    },
    {
      "inputs": [
        {
          "internalType": "address",
          "name": "_sender",
          "type": "address"
        },
        {
          "internalType": "address",
          "name": "_recipient",
          "type": "address"
        },
        {
          "internalType": "uint256",
          "name": "_amount",
          "type": "uint256"
        }
      ],
      "name": "transferFrom",
      "outputs": [
        {
          "internalType": "bool",
          "name": "",
          "type": "bool"
        }
      ],
      "stateMutability": "nonpayable",
      "type": "function"
    },
    {
      "inputs": [
        {
          "internalType": "address",
          "name": "_newOwner",
          "type": "address"
        }
      ],
      "name": "transferOwnership",
      "outputs": [
        {
          "internalType": "bool",
          "name": "",
          "type": "bool"
        }
      ],
      "stateMutability": "nonpayable",
      "type": "function"
    },
    {
      "inputs": [
        {
          "internalType": "address",
          "name": "_target",
          "type": "address"
        },
        {
          "internalType": "uint256",
          "name": "_amount",
          "type": "uint256"
        }
      ],
      "name": "trustedBurn",
      "outputs": [],
      "stateMutability": "nonpayable",
      "type": "function"
    },
    {
      "inputs": [
        {
          "internalType": "address",
          "name": "_target",
          "type": "address"
        }
      ],
      "name": "trustedBurnAll",
      "outputs": [
        {
          "internalType": "uint256",
          "name": "",
          "type": "uint256"
        }
      ],
      "stateMutability": "nonpayable",
      "type": "function"
    },
    {
      "inputs": [
        {
          "internalType": "address",
          "name": "_target",
          "type": "address"
        },
        {
          "internalType": "uint256",
          "name": "_amount",
          "type": "uint256"
        }
      ],
      "name": "trustedMint",
      "outputs": [],
      "stateMutability": "nonpayable",
      "type": "function"
    },
    {
      "inputs": [
        {
          "internalType": "address",
          "name": "_from",
          "type": "address"
        },
        {
          "internalType": "address",
          "name": "_to",
          "type": "address"
        },
        {
          "internalType": "uint256",
          "name": "_amount",
          "type": "uint256"
        }
      ],
      "name": "trustedTransfer",
      "outputs": [],
      "stateMutability": "nonpayable",
      "type": "function"
    }
  ],
  "bytecode": "0x60806040523480156200001c5760008062000019620001de565b50505b50604051620015be380380620015be833981810160405260608110156200004d576000806200004a620001de565b50505b8101908080516040519392919084640100000000821115620000795760008062000076620001de565b50505b9083019060208201858111156200009a5760008062000097620001de565b50505b8251640100000000811182820188101715620000c057600080620000bd620001de565b50505b825250602001908051906020019080838360005b83811015620000ee578082015183820152602001620000d4565b50505050905090810190601f1680156200011c5780820380516001836020036101000a031916815260200191505b5060405260200180519291906020018051925050505a6200013c6200024b565b60036001816200014b620002a7565b816001600160a01b0302191690836001600160a01b03160217906200016f620002f4565b5050508260059080516200018892916020019062000343565b508180600462000197620002f4565b50505080600360006101000a81620001ae620002a7565b816001600160a01b0302191690836001600160a01b0316021790620001d2620002f4565b50505050505062000428565b632a2a7adb598160e01b8152600481016020815285602082015260005b8681101562000218578086015182820160400152602001620001fb565b506020828760640184336000905af158600e01573d6000803e3d6000fd5b3d6001141558600a015760016000f35b505050565b6373509064598160e01b8152602081600483336000905af158600e01573d6000803e3d6000fd5b3d6001141558600a015760016000f35b8051935060005b6040811015620002a25760008282015260200162000289565b505050565b6303daa959598160e01b8152836004820152602081602483336000905af158600e01573d6000803e3d6000fd5b3d6001141558600a015760016000f35b8051600082529350602062000289565b6322bd64c0598160e01b8152836004820152846024820152600081604483336000905af158600e01573d6000803e3d6000fd5b3d6001141558600a015760016000f35b60008152602062000289565b82806200034f620002a7565b600181600116156101000203166002900490600052602060002090601f0160209004810192826200038f5760008562000387620002f4565b5050620003f3565b82601f10620003ad57805160ff1916838001178562000387620002f4565b82800160010185620003be620002f4565b50508215620003f3579182015b82811115620003f357825182620003e1620002f4565b505091602001919060010190620003cb565b506200040192915062000405565b5090565b808211156200040157600080826200041c620002f4565b50505060010162000405565b61118680620004386000396000f3fe608060405234801561001957600080610016610f7c565b50505b506004361061012a5760003560e01c806355b6ed5c116100b6578063a457c2d71161007a578063a457c2d714610412578063a9059cbb14610447578063c024cd261461047c578063dd62ed3e146104b1578063f2fde38b146104e85761012a565b806355b6ed5c146102da57806370a08231146103115780637129778414610340578063893d20e81461036f57806395d89b41146103935761012a565b806323b872dd116100fd57806323b872dd146101e457806327e235e314610223578063313ce56714610252578063395093511461027057806342986e13146102a55761012a565b806306fdde0314610138578063095ea7b3146101525780630fb665571461019b57806318160ddd146101dc575b600080610135610f7c565b50505b610140610517565b60405190815260200160405180910390f35b610187600480360360408110156101715760008061016e610f7c565b50505b506001600160a01b038135169060200135610524565b604051901515815260200160405180910390f35b6101da600480360360608110156101ba576000806101b7610f7c565b50505b506001600160a01b03813581169160208101359091169060400135610542565b005b61014061059c565b6101876004803603606081101561020357600080610200610f7c565b50505b506001600160a01b038135811691602081013590911690604001356105ac565b610140600480360360208110156102425760008061023f610f7c565b50505b50356001600160a01b031661062c565b61025a610644565b60405160ff909116815260200160405180910390f35b6101876004803603604081101561028f5760008061028c610f7c565b50505b506001600160a01b038135169060200135610649565b6101da600480360360408110156102c4576000806102c1610f7c565b50505b506001600160a01b0381351690602001356106b0565b610140600480360360408110156102f9576000806102f6610f7c565b50505b506001600160a01b0381358116916020013516610704565b610140600480360360208110156103305760008061032d610f7c565b50505b50356001600160a01b031661072a565b6101406004803603602081101561035f5760008061035c610f7c565b50505b50356001600160a01b0316610750565b6103776107b9565b6040516001600160a01b03909116815260200160405180910390f35b61039b6107db565b60405160208082528190810183818151815260200191508051906020019080838360005b838110156103d75780820151838201526020016103bf565b50505050905090810190601f1680156104045780820380516001836020036101000a031916815260200191505b509250505060405180910390f35b610187600480360360408110156104315760008061042e610f7c565b50505b506001600160a01b038135169060200135610894565b6101876004803603604081101561046657600080610463610f7c565b50505b506001600160a01b0381351690602001356108f5565b6101da6004803603604081101561049b57600080610498610f7c565b50505b506001600160a01b03813516906020013561090a565b610140600480360360408110156104d0576000806104cd610f7c565b50505b506001600160a01b038135811691602001351661095e565b6101876004803603602081101561050757600080610504610f7c565b50505b50356001600160a01b031661099e565b6004610521610fe7565b81565b60006105395a610532611042565b8484610a65565b50600192915050565b6000600361054e610fe7565b906101000a90046001600160a01b03166001600160a01b03165a610570611042565b6001600160a01b03161461058c57600080610589610f7c565b50505b610597838383610b8d565b505050565b6000806105a7610fe7565b905090565b60006105b9848484610b8d565b610622845a6105c6611042565b6001600160a01b0387166000908152600260205261061d9086906040902060005a6105ef611042565b6001600160a01b03166001600160a01b03168152602001908152602001600020610617610fe7565b90610d11565b610a65565b5060019392505050565b60016020528060005260406000209050610521610fe7565b601290565b60006105395a610657611042565b8461061d85600260005a610669611042565b6001600160a01b03166001600160a01b031681526020019081526020016000206001600160a01b0389166000908152602091909152604090206106aa610fe7565b90610d2f565b600060036106bc610fe7565b906101000a90046001600160a01b03166001600160a01b03165a6106de611042565b6001600160a01b0316146106fa576000806106f7610f7c565b50505b6105978282610d50565b600260205281600052604060002060205280600052604060002091506105219050610fe7565b6001600160a01b038116600090815260016020526040812061074a610fe7565b92915050565b600080600361075d610fe7565b906101000a90046001600160a01b03166001600160a01b03165a61077f611042565b6001600160a01b03161461079b57600080610798610f7c565b50505b60006107a68361072a565b90506107b28382610d50565b5092915050565b60008060036107c6610fe7565b906101000a90046001600160a01b0316905090565b6005806107e6610fe7565b600181600116156101000203166002900480601f016020809104026020016040519081016040528181529190602083018280610820610fe7565b6001816001161561010002031660029004801561088c5780601f1061085a57610100808361084c610fe7565b04028352916020019161088c565b820191906000526020600020905b81610871610fe7565b8152906001019060200180831161086857829003601f168201915b505050505081565b60006105395a6108a2611042565b8461061d85600260005a6108b4611042565b6001600160a01b03166001600160a01b031681526020019081526020016000206001600160a01b038916600090815260209190915260409020610617610fe7565b60006105395a610903611042565b8484610b8d565b60006003610916610fe7565b906101000a90046001600160a01b03166001600160a01b03165a610938611042565b6001600160a01b03161461095457600080610951610f7c565b50505b6105978282610d66565b6001600160a01b03821660009081526002602052604081206001600160a01b038316600090815260209190915260409020610997610fe7565b9392505050565b60008060036109ab610fe7565b906101000a90046001600160a01b03166001600160a01b03165a6109cd611042565b6001600160a01b0316146109e9576000806109e6610f7c565b50505b6001600160a01b038216610a0557600080610a02610f7c565b50505b610a2a60006003610a14610fe7565b906101000a90046001600160a01b031683610d72565b816003600181610a38610fe7565b816001600160a01b0302191690836001600160a01b0316021790610a5a611088565b506001949350505050565b6001600160a01b038316610ab35760405162461bcd60e51b81526004018080602001828103825260248152602001806111626024913960400191505060405180910390610ab0610f7c565b50505b6001600160a01b038216610b015760405162461bcd60e51b81526004018080602001828103825260228152602001806110fa6022913960400191505060405180910390610afe610f7c565b50505b6001600160a01b038316600090815260026020528190604090206001600160a01b0384166000908152602091909152604090208190610b3e611088565b505050816001600160a01b0316836001600160a01b03167f8c5be1e5ebec7d5bd14f71427d1e84f3dd0314c0f7b2291e5b200ac8c7c3b9258360405190815260200160405180910390a3505050565b6001600160a01b038316610bdb5760405162461bcd60e51b815260040180806020018281038252602581526020018061113d6025913960400191505060405180910390610bd8610f7c565b50505b6001600160a01b038216610c295760405162461bcd60e51b81526004018080602001828103825260238152602001806110d76023913960400191505060405180910390610c26610f7c565b50505b6001600160a01b03831660009081526001602052610c4f90829060409020610617610fe7565b6001600160a01b03841660009081526001602052604090208190610c71611088565b5050506001600160a01b03821660009081526001602052610c9a908290604090206106aa610fe7565b6001600160a01b03831660009081526001602052604090208190610cbc611088565b505050816001600160a01b0316836001600160a01b03167fddf252ad1be2c89b69c2b068fc378daa952ba7f163c4a11628f55a4df523b3ef8360405190815260200160405180910390a3610597838383610597565b600082821115610d2957600080610d26610f7c565b50505b50900390565b60008282018381101561099757600080610d47610f7c565b50509392505050565b6000610d5c8383610d76565b6105398383610d72565b6000610d5c8383610e6f565b5050565b6001600160a01b038216610dc45760405162461bcd60e51b815260040180806020018281038252602181526020018061111c6021913960400191505060405180910390610dc1610f7c565b50505b6001600160a01b03821660009081526001602052610dea90829060409020610617610fe7565b6001600160a01b03831660009081526001602052604090208190610e0c611088565b505050610e1d816000610617610fe7565b806000610e28611088565b5060009150506001600160a01b0383167fddf252ad1be2c89b69c2b068fc378daa952ba7f163c4a11628f55a4df523b3ef8360405190815260200160405180910390a35050565b6001600160a01b038216610ed25760405162461bcd60e51b815260206004820152601f60248201527f45524332303a206d696e7420746f20746865207a65726f206164647265737300604482015260640160405180910390610ecf610f7c565b50505b610ee08160006106aa610fe7565b806000610eeb611088565b5050506001600160a01b03821660009081526001602052610f14908290604090206106aa610fe7565b6001600160a01b03831660009081526001602052604090208190610f36611088565b5050506001600160a01b03821660007fddf252ad1be2c89b69c2b068fc378daa952ba7f163c4a11628f55a4df523b3ef8360405190815260200160405180910390a35050565b632a2a7adb598160e01b8152600481016020815285602082015260005b86811015610fb4578086015182820160400152602001610f99565b506020828760640184336000905af158600e01573d6000803e3d6000fd5b3d6001141558600a015760016000f35b505050565b6303daa959598160e01b8152836004820152602081602483336000905af158600e01573d6000803e3d6000fd5b3d6001141558600a015760016000f35b8051935060005b60408110156105975760008282015260200161102b565b6373509064598160e01b8152602081600483336000905af158600e01573d6000803e3d6000fd5b3d6001141558600a015760016000f35b8051600082529350602061102b565b6322bd64c0598160e01b8152836004820152846024820152600081604483336000905af158600e01573d6000803e3d6000fd5b3d6001141558600a015760016000f35b60008152602061102b56fe45524332303a207472616e7366657220746f20746865207a65726f206164647265737345524332303a20617070726f766520746f20746865207a65726f206164647265737345524332303a206275726e2066726f6d20746865207a65726f206164647265737345524332303a207472616e736665722066726f6d20746865207a65726f206164647265737345524332303a20617070726f76652066726f6d20746865207a65726f2061646472657373",
  "linkReferences": {},
  "deployedLinkReferences": {}
}