{
  "_format": "hh-sol-artifact-1",
  "contractName": "TurboShareToken",
  "sourceName": "contracts/turbo/TurboShareToken.sol",
  "abi": [
    {
      "inputs": [
        {
          "internalType": "string",
          "name": "_symbol",
          "type": "string"
        },
        {
          "internalType": "bytes32",
          "name": "_name",
          "type": "bytes32"
        },
        {
          "internalType": "contract ITurboHatchery",
          "name": "_hatchery",
          "type": "address"
        }
      ],
      "stateMutability": "nonpayable",
      "type": "constructor"
    },
    {
      "anonymous": false,
      "inputs": [
        {
          "indexed": true,
          "internalType": "address",
          "name": "owner",
          "type": "address"
        },
        {
          "indexed": true,
          "internalType": "address",
          "name": "spender",
          "type": "address"
        },
        {
          "indexed": false,
          "internalType": "uint256",
          "name": "value",
          "type": "uint256"
        }
      ],
      "name": "Approval",
      "type": "event"
    },
    {
      "anonymous": false,
      "inputs": [
        {
          "indexed": true,
          "internalType": "address",
          "name": "from",
          "type": "address"
        },
        {
          "indexed": true,
          "internalType": "address",
          "name": "to",
          "type": "address"
        },
        {
          "indexed": false,
          "internalType": "uint256",
          "name": "value",
          "type": "uint256"
        }
      ],
      "name": "Transfer",
      "type": "event"
    },
    {
      "inputs": [
        {
          "internalType": "address",
          "name": "_owner",
          "type": "address"
        },
        {
          "internalType": "address",
          "name": "_spender",
          "type": "address"
        }
      ],
      "name": "allowance",
      "outputs": [
        {
          "internalType": "uint256",
          "name": "",
          "type": "uint256"
        }
      ],
      "stateMutability": "view",
      "type": "function"
    },
    {
      "inputs": [
        {
          "internalType": "address",
          "name": "",
          "type": "address"
        },
        {
          "internalType": "address",
          "name": "",
          "type": "address"
        }
      ],
      "name": "allowances",
      "outputs": [
        {
          "internalType": "uint256",
          "name": "",
          "type": "uint256"
        }
      ],
      "stateMutability": "view",
      "type": "function"
    },
    {
      "inputs": [
        {
          "internalType": "address",
          "name": "_spender",
          "type": "address"
        },
        {
          "internalType": "uint256",
          "name": "_amount",
          "type": "uint256"
        }
      ],
      "name": "approve",
      "outputs": [
        {
          "internalType": "bool",
          "name": "",
          "type": "bool"
        }
      ],
      "stateMutability": "nonpayable",
      "type": "function"
    },
    {
      "inputs": [
        {
          "internalType": "address",
          "name": "_account",
          "type": "address"
        }
      ],
      "name": "balanceOf",
      "outputs": [
        {
          "internalType": "uint256",
          "name": "",
          "type": "uint256"
        }
      ],
      "stateMutability": "view",
      "type": "function"
    },
    {
      "inputs": [
        {
          "internalType": "address",
          "name": "",
          "type": "address"
        }
      ],
      "name": "balances",
      "outputs": [
        {
          "internalType": "uint256",
          "name": "",
          "type": "uint256"
        }
      ],
      "stateMutability": "view",
      "type": "function"
    },
    {
      "inputs": [],
      "name": "decimals",
      "outputs": [
        {
          "internalType": "uint8",
          "name": "",
          "type": "uint8"
        }
      ],
      "stateMutability": "view",
      "type": "function"
    },
    {
      "inputs": [
        {
          "internalType": "address",
          "name": "_spender",
          "type": "address"
        },
        {
          "internalType": "uint256",
          "name": "_subtractedValue",
          "type": "uint256"
        }
      ],
      "name": "decreaseAllowance",
      "outputs": [
        {
          "internalType": "bool",
          "name": "",
          "type": "bool"
        }
      ],
      "stateMutability": "nonpayable",
      "type": "function"
    },
    {
      "inputs": [],
      "name": "getOwner",
      "outputs": [
        {
          "internalType": "address",
          "name": "",
          "type": "address"
        }
      ],
      "stateMutability": "view",
      "type": "function"
    },
    {
      "inputs": [
        {
          "internalType": "address",
          "name": "_spender",
          "type": "address"
        },
        {
          "internalType": "uint256",
          "name": "_addedValue",
          "type": "uint256"
        }
      ],
      "name": "increaseAllowance",
      "outputs": [
        {
          "internalType": "bool",
          "name": "",
          "type": "bool"
        }
      ],
      "stateMutability": "nonpayable",
      "type": "function"
    },
    {
      "inputs": [],
      "name": "name",
      "outputs": [
        {
          "internalType": "bytes32",
          "name": "",
          "type": "bytes32"
        }
      ],
      "stateMutability": "view",
      "type": "function"
    },
    {
      "inputs": [],
      "name": "symbol",
      "outputs": [
        {
          "internalType": "string",
          "name": "",
          "type": "string"
        }
      ],
      "stateMutability": "view",
      "type": "function"
    },
    {
      "inputs": [],
      "name": "totalSupply",
      "outputs": [
        {
          "internalType": "uint256",
          "name": "",
          "type": "uint256"
        }
      ],
      "stateMutability": "view",
      "type": "function"
    },
    {
      "inputs": [
        {
          "internalType": "address",
          "name": "_recipient",
          "type": "address"
        },
        {
          "internalType": "uint256",
          "name": "_amount",
          "type": "uint256"
        }
      ],
      "name": "transfer",
      "outputs": [
        {
          "internalType": "bool",
          "name": "",
          "type": "bool"
        }
      ],
      "stateMutability": "nonpayable",
      "type": "function"
    },
    {
      "inputs": [
        {
          "internalType": "address",
          "name": "_sender",
          "type": "address"
        },
        {
          "internalType": "address",
          "name": "_recipient",
          "type": "address"
        },
        {
          "internalType": "uint256",
          "name": "_amount",
          "type": "uint256"
        }
      ],
      "name": "transferFrom",
      "outputs": [
        {
          "internalType": "bool",
          "name": "",
          "type": "bool"
        }
      ],
      "stateMutability": "nonpayable",
      "type": "function"
    },
    {
      "inputs": [
        {
          "internalType": "address",
          "name": "_newOwner",
          "type": "address"
        }
      ],
      "name": "transferOwnership",
      "outputs": [
        {
          "internalType": "bool",
          "name": "",
          "type": "bool"
        }
      ],
      "stateMutability": "nonpayable",
      "type": "function"
    },
    {
      "inputs": [
        {
          "internalType": "address",
          "name": "_target",
          "type": "address"
        },
        {
          "internalType": "uint256",
          "name": "_amount",
          "type": "uint256"
        }
      ],
      "name": "trustedBurn",
      "outputs": [],
      "stateMutability": "nonpayable",
      "type": "function"
    },
    {
      "inputs": [
        {
          "internalType": "address",
          "name": "_target",
          "type": "address"
        }
      ],
      "name": "trustedBurnAll",
      "outputs": [
        {
          "internalType": "uint256",
          "name": "",
          "type": "uint256"
        }
      ],
      "stateMutability": "nonpayable",
      "type": "function"
    },
    {
      "inputs": [
        {
          "internalType": "address",
          "name": "_target",
          "type": "address"
        },
        {
          "internalType": "uint256",
          "name": "_amount",
          "type": "uint256"
        }
      ],
      "name": "trustedMint",
      "outputs": [],
      "stateMutability": "nonpayable",
      "type": "function"
    },
    {
      "inputs": [
        {
          "internalType": "address",
          "name": "_from",
          "type": "address"
        },
        {
          "internalType": "address",
          "name": "_to",
          "type": "address"
        },
        {
          "internalType": "uint256",
          "name": "_amount",
          "type": "uint256"
        }
      ],
      "name": "trustedTransfer",
      "outputs": [],
      "stateMutability": "nonpayable",
      "type": "function"
    }
  ],
  "bytecode": "0x60806040523480156200001157600080fd5b5060405162000eba38038062000eba833981810160405260608110156200003757600080fd5b81019080805160405193929190846401000000008211156200005857600080fd5b9083019060208201858111156200006e57600080fd5b82516401000000008111828201881017156200008957600080fd5b82525081516020918201929091019080838360005b83811015620000b85781810151838201526020016200009e565b50505050905090810190601f168015620000e65780820380516001836020036101000a031916815260200191505b5060409081526020828101519290910151600380546001600160a01b031916331790558551929450925062000121916005918601906200014e565b50600491909155600380546001600160a01b0319166001600160a01b0390921691909117905550620001fa565b828054600181600116156101000203166002900490600052602060002090601f016020900481019282620001865760008555620001d1565b82601f10620001a157805160ff1916838001178555620001d1565b82800160010185558215620001d1579182015b82811115620001d1578251825591602001919060010190620001b4565b50620001df929150620001e3565b5090565b5b80821115620001df5760008155600101620001e4565b610cb0806200020a6000396000f3fe608060405234801561001057600080fd5b50600436106101215760003560e01c806355b6ed5c116100ad578063a457c2d711610071578063a457c2d7146103ad578063a9059cbb146103d9578063c024cd2614610405578063dd62ed3e14610431578063f2fde38b1461045f57610121565b806355b6ed5c1461029257806370a08231146102c057806371297784146102e6578063893d20e81461030c57806395d89b411461033057610121565b806323b872dd116100f457806323b872dd146101c057806327e235e3146101f6578063313ce5671461021c578063395093511461023a57806342986e131461026657610121565b806306fdde0314610126578063095ea7b3146101405780630fb665571461018057806318160ddd146101b8575b600080fd5b61012e610485565b60408051918252519081900360200190f35b61016c6004803603604081101561015657600080fd5b506001600160a01b03813516906020013561048b565b604080519115158252519081900360200190f35b6101b66004803603606081101561019657600080fd5b506001600160a01b038135811691602081013590911690604001356104a1565b005b61012e6104c8565b61016c600480360360608110156101d657600080fd5b506001600160a01b038135811691602081013590911690604001356104ce565b61012e6004803603602081101561020c57600080fd5b50356001600160a01b031661051f565b610224610531565b6040805160ff9092168252519081900360200190f35b61016c6004803603604081101561025057600080fd5b506001600160a01b038135169060200135610536565b6101b66004803603604081101561027c57600080fd5b506001600160a01b03813516906020013561056c565b61012e600480360360408110156102a857600080fd5b506001600160a01b038135811691602001351661058d565b61012e600480360360208110156102d657600080fd5b50356001600160a01b03166105aa565b61012e600480360360208110156102fc57600080fd5b50356001600160a01b03166105c5565b6103146105fd565b604080516001600160a01b039092168252519081900360200190f35b61033861060c565b6040805160208082528351818301528351919283929083019185019080838360005b8381101561037257818101518382015260200161035a565b50505050905090810190601f16801561039f5780820380516001836020036101000a031916815260200191505b509250505060405180910390f35b61016c600480360360408110156103c357600080fd5b506001600160a01b03813516906020013561069a565b61016c600480360360408110156103ef57600080fd5b506001600160a01b0381351690602001356106d0565b6101b66004803603604081101561041b57600080fd5b506001600160a01b0381351690602001356106dd565b61012e6004803603604081101561044757600080fd5b506001600160a01b03813581169160200135166106fe565b61016c6004803603602081101561047557600080fd5b50356001600160a01b0316610729565b60045481565b6000610498338484610791565b50600192915050565b6003546001600160a01b031633146104b857600080fd5b6104c383838361087d565b505050565b60005490565b60006104db84848461087d565b6001600160a01b03841660009081526002602090815260408083203380855292529091205461051591869161051090866109bb565b610791565b5060019392505050565b60016020526000908152604090205481565b601290565b3360008181526002602090815260408083206001600160a01b0387168452909152812054909161049891859061051090866109d0565b6003546001600160a01b0316331461058357600080fd5b6104c382826109e9565b600260209081526000928352604080842090915290825290205481565b6001600160a01b031660009081526001602052604090205490565b6003546000906001600160a01b031633146105df57600080fd5b60006105ea836105aa565b90506105f683826109e9565b5092915050565b6003546001600160a01b031690565b6005805460408051602060026001851615610100026000190190941693909304601f810184900484028201840190925281815292918301828280156106925780601f1061066757610100808354040283529160200191610692565b820191906000526020600020905b81548152906001019060200180831161067557829003601f168201915b505050505081565b3360008181526002602090815260408083206001600160a01b0387168452909152812054909161049891859061051090866109bb565b600061049833848461087d565b6003546001600160a01b031633146106f457600080fd5b6104c382826109ff565b6001600160a01b03918216600090815260026020908152604080832093909416825291909152205490565b6003546000906001600160a01b0316331461074357600080fd5b6001600160a01b03821661075657600080fd5b60035461076c906001600160a01b031683610a0b565b50600380546001600160a01b0383166001600160a01b03199091161790556001919050565b6001600160a01b0383166107d65760405162461bcd60e51b8152600401808060200182810382526024815260200180610c576024913960400191505060405180910390fd5b6001600160a01b03821661081b5760405162461bcd60e51b8152600401808060200182810382526022815260200180610bef6022913960400191505060405180910390fd5b6001600160a01b03808416600081815260026020908152604080832094871680845294825291829020859055815185815291517f8c5be1e5ebec7d5bd14f71427d1e84f3dd0314c0f7b2291e5b200ac8c7c3b9259281900390910190a3505050565b6001600160a01b0383166108c25760405162461bcd60e51b8152600401808060200182810382526025815260200180610c326025913960400191505060405180910390fd5b6001600160a01b0382166109075760405162461bcd60e51b8152600401808060200182810382526023815260200180610bcc6023913960400191505060405180910390fd5b6001600160a01b03831660009081526001602052604090205461092a90826109bb565b6001600160a01b03808516600090815260016020526040808220939093559084168152205461095990826109d0565b6001600160a01b0380841660008181526001602090815260409182902094909455805185815290519193928716927fddf252ad1be2c89b69c2b068fc378daa952ba7f163c4a11628f55a4df523b3ef92918290030190a36104c38383836104c3565b6000828211156109ca57600080fd5b50900390565b6000828201838110156109e257600080fd5b9392505050565b60006109f58383610a0f565b6104988383610a0b565b60006109f58383610ae6565b5050565b6001600160a01b038216610a545760405162461bcd60e51b8152600401808060200182810382526021815260200180610c116021913960400191505060405180910390fd5b6001600160a01b038216600090815260016020526040902054610a7790826109bb565b6001600160a01b03831660009081526001602052604081209190915554610a9e90826109bb565b60009081556040805183815290516001600160a01b038516917fddf252ad1be2c89b69c2b068fc378daa952ba7f163c4a11628f55a4df523b3ef919081900360200190a35050565b6001600160a01b038216610b41576040805162461bcd60e51b815260206004820152601f60248201527f45524332303a206d696e7420746f20746865207a65726f206164647265737300604482015290519081900360640190fd5b600054610b4e90826109d0565b60009081556001600160a01b038316815260016020526040902054610b7390826109d0565b6001600160a01b03831660008181526001602090815260408083209490945583518581529351929391927fddf252ad1be2c89b69c2b068fc378daa952ba7f163c4a11628f55a4df523b3ef9281900390910190a3505056fe45524332303a207472616e7366657220746f20746865207a65726f206164647265737345524332303a20617070726f766520746f20746865207a65726f206164647265737345524332303a206275726e2066726f6d20746865207a65726f206164647265737345524332303a207472616e736665722066726f6d20746865207a65726f206164647265737345524332303a20617070726f76652066726f6d20746865207a65726f2061646472657373a2646970667358221220eb929d23537dd9a25e92d2072f1e0204f2fef88b7a1839b20df60730811a00b664736f6c63430007060033",
  "linkReferences": {},
  "deployedLinkReferences": {}
}