{
  "_format": "hh-sol-artifact-1",
  "contractName": "HatcheryRegistry",
  "sourceName": "contracts/turbo/HatcheryRegistry.sol",
  "abi": [
    {
      "inputs": [
        {
          "internalType": "address",
          "name": "_owner",
          "type": "address"
        },
        {
          "internalType": "contract IERC20DynamicSymbol",
          "name": "_reputationToken",
          "type": "address"
        }
      ],
      "stateMutability": "nonpayable",
      "type": "constructor"
    },
    {
      "anonymous": false,
      "inputs": [
        {
          "indexed": false,
          "internalType": "address",
          "name": "id",
          "type": "address"
        },
        {
          "indexed": true,
          "internalType": "address",
          "name": "collateral",
          "type": "address"
        },
        {
          "indexed": false,
          "internalType": "address",
          "name": "shareTokenFactory",
          "type": "address"
        },
        {
          "indexed": false,
          "internalType": "address",
          "name": "feePot",
          "type": "address"
        }
      ],
      "name": "NewHatchery",
      "type": "event"
    },
    {
      "inputs": [
        {
          "internalType": "contract IERC20",
          "name": "_collateral",
          "type": "address"
        }
      ],
      "name": "createHatchery",
      "outputs": [
        {
          "internalType": "contract TurboHatchery",
          "name": "",
          "type": "address"
        }
      ],
      "stateMutability": "nonpayable",
      "type": "function"
    },
    {
      "inputs": [
        {
          "internalType": "address",
          "name": "",
          "type": "address"
        }
      ],
      "name": "getHatchery",
      "outputs": [
        {
          "internalType": "contract TurboHatchery",
          "name": "",
          "type": "address"
        }
      ],
      "stateMutability": "view",
      "type": "function"
    },
    {
      "inputs": [],
      "name": "getOwner",
      "outputs": [
        {
          "internalType": "address",
          "name": "",
          "type": "address"
        }
      ],
      "stateMutability": "view",
      "type": "function"
    },
    {
      "inputs": [
        {
          "internalType": "uint256",
          "name": "",
          "type": "uint256"
        }
      ],
      "name": "hatcheries",
      "outputs": [
        {
          "internalType": "address",
          "name": "",
          "type": "address"
        }
      ],
      "stateMutability": "view",
      "type": "function"
    },
    {
      "inputs": [],
      "name": "reputationToken",
      "outputs": [
        {
          "internalType": "contract IERC20DynamicSymbol",
          "name": "",
          "type": "address"
        }
      ],
      "stateMutability": "view",
      "type": "function"
    },
    {
      "inputs": [
        {
          "internalType": "address",
          "name": "_newOwner",
          "type": "address"
        }
      ],
      "name": "transferOwnership",
      "outputs": [
        {
          "internalType": "bool",
          "name": "",
          "type": "bool"
        }
      ],
      "stateMutability": "nonpayable",
      "type": "function"
    }
  ],
  "bytecode": "0x60806040523480156200001c57600080620000196200011d565b50505b506040516200766a3803806200766a833981810160405260408110156200004d576000806200004a6200011d565b50505b8101908080519291906020018051925050505a6200006a6200018a565b600060018162000079620001e6565b816001600160a01b0302191690836001600160a01b03160217906200009d62000233565b505050816000806101000a81620000b3620001e6565b816001600160a01b0302191690836001600160a01b0316021790620000d762000233565b50505080600160006101000a81620000ee620001e6565b816001600160a01b0302191690836001600160a01b03160217906200011262000233565b505050505062000282565b632a2a7adb598160e01b8152600481016020815285602082015260005b86811015620001575780860151828201604001526020016200013a565b506020828760640184336000905af158600e01573d6000803e3d6000fd5b3d6001141558600a015760016000f35b505050565b6373509064598160e01b8152602081600483336000905af158600e01573d6000803e3d6000fd5b3d6001141558600a015760016000f35b8051935060005b6040811015620001e157600082820152602001620001c8565b505050565b6303daa959598160e01b8152836004820152602081602483336000905af158600e01573d6000803e3d6000fd5b3d6001141558600a015760016000f35b80516000825293506020620001c8565b6322bd64c0598160e01b8152836004820152846024820152600081604483336000905af158600e01573d6000803e3d6000fd5b3d6001141558600a015760016000f35b600081526020620001c8565b6173d880620002926000396000f3fe60806040523480156200001c576000806200001962000700565b50505b5060043610620000755760003560e01c80631ee5b7761462000085578063275bbe9b14620000d5578063893d20e814620000df578063cbec31aa14620000e9578063e15542561462000114578063f2fde38b1462000148575b6000806200008262000700565b50505b620000b960048036036020811015620000a857600080620000a562000700565b50505b50356001600160a01b031662000190565b6040516001600160a01b03909116815260200160405180910390f35b620000b9620001bf565b620000b9620001cd565b620000b9600480360360208110156200010c576000806200010962000700565b50505b5035620001f0565b620000b96004803603602081101562000137576000806200013462000700565b50505b50356001600160a01b03166200022d565b6200017c600480360360208110156200016b576000806200016862000700565b50505b50356001600160a01b031662000625565b604051901515815260200160405180910390f35b600360205280600052604060002060009150620001ac6200076d565b906101000a90046001600160a01b031681565b60006001620001ac6200076d565b60008080620001db6200076d565b906101000a90046001600160a01b0316905090565b60028181620001fe6200076d565b811062000215576000806200021262000700565b50505b9060005260206000200160009150620001ac6200076d565b600080806200023b6200076d565b906101000a90046001600160a01b03166001600160a01b03165a6200025f620007cf565b6001600160a01b0316146200027e576000806200027b62000700565b50505b6001600160a01b0382166000908152600360205260408120600090620002a36200076d565b906101000a90046001600160a01b03166001600160a01b031614620003195760405162461bcd60e51b815260206004820181905260248201527f4f6e6c79206f6e652068617463686572792070657220636f6c6c61746572616c6044820152606401604051809103906200031662000700565b50505b6000604051620003299062000816565b6040518091039060006200033c62000824565b5050801580156200035c573d6000803e3d60006200035962000700565b50505b5090506000838160016200036f6200076d565b906101000a90046001600160a01b03166040516200038d90620008b0565b6001600160a01b0392831681529116602082015260409081019051809103906000620003b862000824565b505080158015620003d8573d6000803e3d6000620003d562000700565b50505b50905060008282604051620003ed90620008be565b6001600160a01b03928316815291166020820152604090810190518091039060006200041862000824565b50508015801562000438573d6000803e3d60006200043562000700565b50505b509050826001600160a01b031663c4d66de8826040516001600160e01b031960e084901b1681526001600160a01b0390911660048201526024016020604051808303816000878062000489620008cc565b158015620004a1576000806200049e62000700565b50505b505a620004ad62000919565b505050505050158015620004d0573d6000803e3d6000620004cd62000700565b50505b505050506040513d6020811015620004f257600080620004ef62000700565b50505b8101908080515083925060029150819050600181620005106200076d565b0180826200051d62000a11565b5050600092835260001901916020915020016001816200053c6200076d565b816001600160a01b0302191690836001600160a01b03160217906200056062000a11565b5050506001600160a01b038516600090815260036020528190604090206001816200058a6200076d565b816001600160a01b0302191690836001600160a01b0316021790620005ae62000a11565b505050846001600160a01b03167f08afdadd49d632c11dbde177a7ab47701b5adaac8f633beedd892c8da8d4393f82858560405180846001600160a01b03168152602001836001600160a01b03168152602001826001600160a01b03168152602001935050505060405180910390a2949350505050565b60008080620006336200076d565b906101000a90046001600160a01b03166001600160a01b03165a62000657620007cf565b6001600160a01b03161462000676576000806200067362000700565b50505b6001600160a01b03821662000695576000806200069262000700565b50505b620006bd600080620006a66200076d565b906101000a90046001600160a01b031683620006fc565b816000600181620006cd6200076d565b816001600160a01b0302191690836001600160a01b0316021790620006f162000a11565b506001949350505050565b5050565b632a2a7adb598160e01b8152600481016020815285602082015260005b868110156200073a5780860151828201604001526020016200071d565b506020828760640184336000905af158600e01573d6000803e3d6000fd5b3d6001141558600a015760016000f35b505050565b6303daa959598160e01b8152836004820152602081602483336000905af158600e01573d6000803e3d6000fd5b3d6001141558600a015760016000f35b8051935060005b6040811015620007ca57600082820152602001620007b1565b505050565b6373509064598160e01b8152602081600483336000905af158600e01573d6000803e3d6000fd5b3d6001141558600a015760016000f35b80516000825293506020620007b1565b6121638062000a6183390190565b6314aa2ff7598160e01b8152600481016020815286602082015260005b878110156200085e57808701518282016040015260200162000841565b506020828860640184336000905af158600e01573d6000803e3d6000fd5b3d6001141558600a015760016000f35b8151965059825b81811015620008a9576000815260200162000893565b5050505050565b611d638062002bc483390190565b612ab1806200492783390190565b638435035b598160e01b8152836004820152602081602483336000905af158600e01573d6000803e3d6000fd5b3d6001141558600a015760016000f35b80516000825293506020620007b1565b6385979f76598160e01b81526200094f565b8080831115620009385750815b92915050565b808083101562000938575090919050565b836004820152846024820152606060448201528760648201526084810160005b89811015620009895780890151828201526020016200096f565b506060828a60a40184336000905af158600e01573d6000803e3d6000fd5b3d6001141558600a015760016000f35b815160408301513d6000853e8c8c82606087013350600060045af15059620009e08e3d6200093e565b8d01620009ee81876200092b565b5b8281101562000a055760008152602001620009ef565b50929d50505050505050565b6322bd64c0598160e01b8152836004820152846024820152600081604483336000905af158600e01573d6000803e3d6000fd5b3d6001141558600a015760016000f35b600081526020620007b156fe6080604052600080600181610012610045565b8160ff021916908315150217906100276100a5565b50505034801561003f5760008061003c6100f3565b50505b5061015e565b6303daa959598160e01b8152836004820152602081602483336000905af158600e01573d6000803e3d6000fd5b3d6001141558600a015760016000f35b8051935060005b60408110156100a057600082820152602001610089565b505050565b6322bd64c0598160e01b8152836004820152846024820152600081604483336000905af158600e01573d6000803e3d6000fd5b3d6001141558600a015760016000f35b600081526020610089565b632a2a7adb598160e01b8152600481016020815285602082015260005b8681101561012b578086015182820160400152602001610110565b506020828760640184336000905af158600e01573d6000803e3d6000fd5b3d6001141558600a015760016000f35b505050565b611ff68061016d6000396000f3fe60806040523480156200001c5760008062000019620004ee565b50505b5060043610620000755760003560e01c80630a0b23b0146200008557806348b164d214620000a757806355e1e8b614620000c05780639cd7ff8d14620000e6578063c4d66de814620000ff578063ee89dab41462000125575b60008062000082620004ee565b50505b6200008f6200012f565b6040516200009e91906200093e565b60405180910390f35b620000b162000150565b6040516200009e9190620008e1565b620000d7620000d136600462000755565b62000171565b6040516200009e91906200087d565b620000f0620003ec565b6040516200009e9190620008d8565b6200011662000110366004620007e6565b62000400565b6040516200009e9190620008cd565b6200011662000478565b6040516040808201905260078152661253959053125160ca1b602082015281565b600160006200015e6200055b565b906101000a90046001600160a01b031681565b606060016000620001816200055b565b906101000a90046001600160a01b03166001600160a01b03165a620001a5620005b8565b6001600160a01b031614620001e25760405162461bcd60e51b8152600401620001ce9062000988565b60405180910390620001df620004ee565b50505b6001840160008167ffffffffffffffff811180156200020b5760008062000208620004ee565b50505b5060405190808252806020026020018201604052801562000236578160200160208202803683370190505b5090506040516040808201905260078152661253959053125160ca1b60208201526c494e56414c494420534841524560981b60016000620002766200055b565b906101000a90046001600160a01b03166040516200029490620005ff565b620002a29392919062000953565b604051809103906000620002b56200060d565b505080158015620002d5573d6000803e3d6000620002d2620004ee565b50505b5081600081518110620002e457fe5b6001600160a01b039092166020928302919091019091015260015b82811015620003e1578585600183038181106200031857fe5b90506020028101906200032c9190620009d1565b8989600185038181106200033c57fe5b905060200201356000600190620003526200055b565b906101000a90046001600160a01b03166040516200037090620005ff565b6200037f9493929190620008f5565b604051809103906000620003926200060d565b505080158015620003b2573d6000803e3d6000620003af620004ee565b50505b50828281518110620003c057fe5b6001600160a01b0390921660209283029190910190910152600101620002ff565b509695505050505050565b6c494e56414c494420534841524560981b81565b600080806200040e6200055b565b906101000a900460ff16156200042e576000806200042b620004ee565b50505b6200043862000495565b81600061010081620004496200055b565b816001600160a01b0302191690836001600160a01b03160217906200046d62000699565b506001949350505050565b60008080620004866200055b565b906101000a900460ff16905090565b600080620004a26200055b565b906101000a900460ff1615620004c257600080620004bf620004ee565b50505b600160008181620004d26200055b565b8160ff02191690831515021790620004e962000699565b505050565b632a2a7adb598160e01b8152600481016020815285602082015260005b86811015620005285780860151828201604001526020016200050b565b506020828760640184336000905af158600e01573d6000803e3d6000fd5b3d6001141558600a015760016000f35b505050565b6303daa959598160e01b8152836004820152602081602483336000905af158600e01573d6000803e3d6000fd5b3d6001141558600a015760016000f35b8051935060005b6040811015620004e9576000828201526020016200059f565b6373509064598160e01b8152602081600483336000905af158600e01573d6000803e3d6000fd5b3d6001141558600a015760016000f35b805160008252935060206200059f565b6115be8062000a3883390190565b6314aa2ff7598160e01b8152600481016020815286602082015260005b87811015620006475780870151828201604001526020016200062a565b506020828860640184336000905af158600e01573d6000803e3d6000fd5b3d6001141558600a015760016000f35b8151965059825b818110156200069257600081526020016200067c565b5050505050565b6322bd64c0598160e01b8152836004820152846024820152600081604483336000905af158600e01573d6000803e3d6000fd5b3d6001141558600a015760016000f35b6000815260206200059f565b60008083601f8401126200070557818262000702620004ee565b50505b50813567ffffffffffffffff8111156200072857818262000725620004ee565b50505b60208301915083602080830285010111156200074e576000806200074b620004ee565b50505b9250929050565b600080600080604085870312156200077657838462000773620004ee565b50505b843567ffffffffffffffff808211156200079957858662000796620004ee565b50505b620007a788838901620006e8565b90965094506020870135915080821115620007cb578384620007c8620004ee565b50505b50620007da87828801620006e8565b95989497509550505050565b6000602082840312156200080357808162000800620004ee565b50505b81356001600160a01b03811681146200082557818262000822620004ee565b50505b9392505050565b60008151808452815b81811015620008565760208082860101518683019091015260200162000835565b81811115620008685782602083870101525b50601f01601f19169290920160200192915050565b600060208083018184528085518083526040860191508387019250845b81811015620008c1576001600160a01b03845116835292840192918401916001016200089a565b50909695505050505050565b901515815260200190565b90815260200190565b6001600160a01b0391909116815260200190565b60006060825284606083015284866080840137608085830181019190915260208201939093526001600160a01b03919091166040820152601f909201601f191690910101919050565b6000602082526200082560208301846200082c565b6000606082526200096860608301866200082c565b6020830194909452506001600160a01b0391909116604090910152919050565b60208082526029908201527f4f6e6c79206861746368657279206d617920637265617465206e657720736861604082015268726520746f6b656e7360b81b606082015260800190565b6000808335601e19843603018112620009f3578283620009f0620004ee565b50505b83018035915067ffffffffffffffff82111562000a1957828362000a16620004ee565b50505b6020019150368190038213156200074e576000806200074b620004ee56fe60806040523480156200001c5760008062000019620001de565b50505b50604051620015be380380620015be833981810160405260608110156200004d576000806200004a620001de565b50505b8101908080516040519392919084640100000000821115620000795760008062000076620001de565b50505b9083019060208201858111156200009a5760008062000097620001de565b50505b8251640100000000811182820188101715620000c057600080620000bd620001de565b50505b825250602001908051906020019080838360005b83811015620000ee578082015183820152602001620000d4565b50505050905090810190601f1680156200011c5780820380516001836020036101000a031916815260200191505b5060405260200180519291906020018051925050505a6200013c6200024b565b60036001816200014b620002a7565b816001600160a01b0302191690836001600160a01b03160217906200016f620002f4565b5050508260059080516200018892916020019062000343565b508180600462000197620002f4565b50505080600360006101000a81620001ae620002a7565b816001600160a01b0302191690836001600160a01b0316021790620001d2620002f4565b50505050505062000428565b632a2a7adb598160e01b8152600481016020815285602082015260005b8681101562000218578086015182820160400152602001620001fb565b506020828760640184336000905af158600e01573d6000803e3d6000fd5b3d6001141558600a015760016000f35b505050565b6373509064598160e01b8152602081600483336000905af158600e01573d6000803e3d6000fd5b3d6001141558600a015760016000f35b8051935060005b6040811015620002a25760008282015260200162000289565b505050565b6303daa959598160e01b8152836004820152602081602483336000905af158600e01573d6000803e3d6000fd5b3d6001141558600a015760016000f35b8051600082529350602062000289565b6322bd64c0598160e01b8152836004820152846024820152600081604483336000905af158600e01573d6000803e3d6000fd5b3d6001141558600a015760016000f35b60008152602062000289565b82806200034f620002a7565b600181600116156101000203166002900490600052602060002090601f0160209004810192826200038f5760008562000387620002f4565b5050620003f3565b82601f10620003ad57805160ff1916838001178562000387620002f4565b82800160010185620003be620002f4565b50508215620003f3579182015b82811115620003f357825182620003e1620002f4565b505091602001919060010190620003cb565b506200040192915062000405565b5090565b808211156200040157600080826200041c620002f4565b50505060010162000405565b61118680620004386000396000f3fe608060405234801561001957600080610016610f7c565b50505b506004361061012a5760003560e01c806355b6ed5c116100b6578063a457c2d71161007a578063a457c2d714610412578063a9059cbb14610447578063c024cd261461047c578063dd62ed3e146104b1578063f2fde38b146104e85761012a565b806355b6ed5c146102da57806370a08231146103115780637129778414610340578063893d20e81461036f57806395d89b41146103935761012a565b806323b872dd116100fd57806323b872dd146101e457806327e235e314610223578063313ce56714610252578063395093511461027057806342986e13146102a55761012a565b806306fdde0314610138578063095ea7b3146101525780630fb665571461019b57806318160ddd146101dc575b600080610135610f7c565b50505b610140610517565b60405190815260200160405180910390f35b610187600480360360408110156101715760008061016e610f7c565b50505b506001600160a01b038135169060200135610524565b604051901515815260200160405180910390f35b6101da600480360360608110156101ba576000806101b7610f7c565b50505b506001600160a01b03813581169160208101359091169060400135610542565b005b61014061059c565b6101876004803603606081101561020357600080610200610f7c565b50505b506001600160a01b038135811691602081013590911690604001356105ac565b610140600480360360208110156102425760008061023f610f7c565b50505b50356001600160a01b031661062c565b61025a610644565b60405160ff909116815260200160405180910390f35b6101876004803603604081101561028f5760008061028c610f7c565b50505b506001600160a01b038135169060200135610649565b6101da600480360360408110156102c4576000806102c1610f7c565b50505b506001600160a01b0381351690602001356106b0565b610140600480360360408110156102f9576000806102f6610f7c565b50505b506001600160a01b0381358116916020013516610704565b610140600480360360208110156103305760008061032d610f7c565b50505b50356001600160a01b031661072a565b6101406004803603602081101561035f5760008061035c610f7c565b50505b50356001600160a01b0316610750565b6103776107b9565b6040516001600160a01b03909116815260200160405180910390f35b61039b6107db565b60405160208082528190810183818151815260200191508051906020019080838360005b838110156103d75780820151838201526020016103bf565b50505050905090810190601f1680156104045780820380516001836020036101000a031916815260200191505b509250505060405180910390f35b610187600480360360408110156104315760008061042e610f7c565b50505b506001600160a01b038135169060200135610894565b6101876004803603604081101561046657600080610463610f7c565b50505b506001600160a01b0381351690602001356108f5565b6101da6004803603604081101561049b57600080610498610f7c565b50505b506001600160a01b03813516906020013561090a565b610140600480360360408110156104d0576000806104cd610f7c565b50505b506001600160a01b038135811691602001351661095e565b6101876004803603602081101561050757600080610504610f7c565b50505b50356001600160a01b031661099e565b6004610521610fe7565b81565b60006105395a610532611042565b8484610a65565b50600192915050565b6000600361054e610fe7565b906101000a90046001600160a01b03166001600160a01b03165a610570611042565b6001600160a01b03161461058c57600080610589610f7c565b50505b610597838383610b8d565b505050565b6000806105a7610fe7565b905090565b60006105b9848484610b8d565b610622845a6105c6611042565b6001600160a01b0387166000908152600260205261061d9086906040902060005a6105ef611042565b6001600160a01b03166001600160a01b03168152602001908152602001600020610617610fe7565b90610d11565b610a65565b5060019392505050565b60016020528060005260406000209050610521610fe7565b601290565b60006105395a610657611042565b8461061d85600260005a610669611042565b6001600160a01b03166001600160a01b031681526020019081526020016000206001600160a01b0389166000908152602091909152604090206106aa610fe7565b90610d2f565b600060036106bc610fe7565b906101000a90046001600160a01b03166001600160a01b03165a6106de611042565b6001600160a01b0316146106fa576000806106f7610f7c565b50505b6105978282610d50565b600260205281600052604060002060205280600052604060002091506105219050610fe7565b6001600160a01b038116600090815260016020526040812061074a610fe7565b92915050565b600080600361075d610fe7565b906101000a90046001600160a01b03166001600160a01b03165a61077f611042565b6001600160a01b03161461079b57600080610798610f7c565b50505b60006107a68361072a565b90506107b28382610d50565b5092915050565b60008060036107c6610fe7565b906101000a90046001600160a01b0316905090565b6005806107e6610fe7565b600181600116156101000203166002900480601f016020809104026020016040519081016040528181529190602083018280610820610fe7565b6001816001161561010002031660029004801561088c5780601f1061085a57610100808361084c610fe7565b04028352916020019161088c565b820191906000526020600020905b81610871610fe7565b8152906001019060200180831161086857829003601f168201915b505050505081565b60006105395a6108a2611042565b8461061d85600260005a6108b4611042565b6001600160a01b03166001600160a01b031681526020019081526020016000206001600160a01b038916600090815260209190915260409020610617610fe7565b60006105395a610903611042565b8484610b8d565b60006003610916610fe7565b906101000a90046001600160a01b03166001600160a01b03165a610938611042565b6001600160a01b03161461095457600080610951610f7c565b50505b6105978282610d66565b6001600160a01b03821660009081526002602052604081206001600160a01b038316600090815260209190915260409020610997610fe7565b9392505050565b60008060036109ab610fe7565b906101000a90046001600160a01b03166001600160a01b03165a6109cd611042565b6001600160a01b0316146109e9576000806109e6610f7c565b50505b6001600160a01b038216610a0557600080610a02610f7c565b50505b610a2a60006003610a14610fe7565b906101000a90046001600160a01b031683610d72565b816003600181610a38610fe7565b816001600160a01b0302191690836001600160a01b0316021790610a5a611088565b506001949350505050565b6001600160a01b038316610ab35760405162461bcd60e51b81526004018080602001828103825260248152602001806111626024913960400191505060405180910390610ab0610f7c565b50505b6001600160a01b038216610b015760405162461bcd60e51b81526004018080602001828103825260228152602001806110fa6022913960400191505060405180910390610afe610f7c565b50505b6001600160a01b038316600090815260026020528190604090206001600160a01b0384166000908152602091909152604090208190610b3e611088565b505050816001600160a01b0316836001600160a01b03167f8c5be1e5ebec7d5bd14f71427d1e84f3dd0314c0f7b2291e5b200ac8c7c3b9258360405190815260200160405180910390a3505050565b6001600160a01b038316610bdb5760405162461bcd60e51b815260040180806020018281038252602581526020018061113d6025913960400191505060405180910390610bd8610f7c565b50505b6001600160a01b038216610c295760405162461bcd60e51b81526004018080602001828103825260238152602001806110d76023913960400191505060405180910390610c26610f7c565b50505b6001600160a01b03831660009081526001602052610c4f90829060409020610617610fe7565b6001600160a01b03841660009081526001602052604090208190610c71611088565b5050506001600160a01b03821660009081526001602052610c9a908290604090206106aa610fe7565b6001600160a01b03831660009081526001602052604090208190610cbc611088565b505050816001600160a01b0316836001600160a01b03167fddf252ad1be2c89b69c2b068fc378daa952ba7f163c4a11628f55a4df523b3ef8360405190815260200160405180910390a3610597838383610597565b600082821115610d2957600080610d26610f7c565b50505b50900390565b60008282018381101561099757600080610d47610f7c565b50509392505050565b6000610d5c8383610d76565b6105398383610d72565b6000610d5c8383610e6f565b5050565b6001600160a01b038216610dc45760405162461bcd60e51b815260040180806020018281038252602181526020018061111c6021913960400191505060405180910390610dc1610f7c565b50505b6001600160a01b03821660009081526001602052610dea90829060409020610617610fe7565b6001600160a01b03831660009081526001602052604090208190610e0c611088565b505050610e1d816000610617610fe7565b806000610e28611088565b5060009150506001600160a01b0383167fddf252ad1be2c89b69c2b068fc378daa952ba7f163c4a11628f55a4df523b3ef8360405190815260200160405180910390a35050565b6001600160a01b038216610ed25760405162461bcd60e51b815260206004820152601f60248201527f45524332303a206d696e7420746f20746865207a65726f206164647265737300604482015260640160405180910390610ecf610f7c565b50505b610ee08160006106aa610fe7565b806000610eeb611088565b5050506001600160a01b03821660009081526001602052610f14908290604090206106aa610fe7565b6001600160a01b03831660009081526001602052604090208190610f36611088565b5050506001600160a01b03821660007fddf252ad1be2c89b69c2b068fc378daa952ba7f163c4a11628f55a4df523b3ef8360405190815260200160405180910390a35050565b632a2a7adb598160e01b8152600481016020815285602082015260005b86811015610fb4578086015182820160400152602001610f99565b506020828760640184336000905af158600e01573d6000803e3d6000fd5b3d6001141558600a015760016000f35b505050565b6303daa959598160e01b8152836004820152602081602483336000905af158600e01573d6000803e3d6000fd5b3d6001141558600a015760016000f35b8051935060005b60408110156105975760008282015260200161102b565b6373509064598160e01b8152602081600483336000905af158600e01573d6000803e3d6000fd5b3d6001141558600a015760016000f35b8051600082529350602061102b565b6322bd64c0598160e01b8152836004820152846024820152600081604483336000905af158600e01573d6000803e3d6000fd5b3d6001141558600a015760016000f35b60008152602061102b56fe45524332303a207472616e7366657220746f20746865207a65726f206164647265737345524332303a20617070726f766520746f20746865207a65726f206164647265737345524332303a206275726e2066726f6d20746865207a65726f206164647265737345524332303a207472616e736665722066726f6d20746865207a65726f206164647265737345524332303a20617070726f76652066726f6d20746865207a65726f206164647265737360806040523480156200001c5760008062000019620000fa565b50505b5060405162001d6338038062001d63833981810160405260408110156200004d576000806200004a620000fa565b50505b81019080805192919060200180519250839150600390506001816200007162000167565b816001600160a01b0302191690836001600160a01b031602179062000095620001c9565b50505080600460006101000a81620000ac62000167565b816001600160a01b0302191690836001600160a01b0316021790620000d0620001c9565b5050506001600160a01b038216620000f257600080620000ef620000fa565b50505b505062000218565b632a2a7adb598160e01b8152600481016020815285602082015260005b868110156200013457808601518282016040015260200162000117565b506020828760640184336000905af158600e01573d6000803e3d6000fd5b3d6001141558600a015760016000f35b505050565b6303daa959598160e01b8152836004820152602081602483336000905af158600e01573d6000803e3d6000fd5b3d6001141558600a015760016000f35b8051935060005b6040811015620001c457600082820152602001620001ab565b505050565b6322bd64c0598160e01b8152836004820152846024820152600081604483336000905af158600e01573d6000803e3d6000fd5b3d6001141558600a015760016000f35b600081526020620001ab565b611b3b80620002286000396000f3fe608060405234801561001957600080610016611734565b50505b50600436106101615760003560e01c8063789ff0e1116100cc578063a9059cbb11610085578063a9059cbb146104ba578063be040fb0146104ef578063d083a7a9146104f7578063d8dfeb4514610526578063dd62ed3e1461052e578063ebdac0901461056557610161565b8063789ff0e1146103835780637f8661a11461038b57806382005d86146103b157806395d89b41146103e0578063a457c2d71461045f578063a694fc3a1461049457610161565b8063313ce5671161011e578063313ce56714610293578063341d302f146102b157806339509351146102b957806349d2a4e6146102ee57806355b6ed5c1461031d57806370a082311461035457610161565b8063095ea7b31461016f578063125c1204146101b857806318160ddd146101f957806323b872dd14610201578063275bbe9b1461024057806327e235e314610264575b60008061016c611734565b50505b6101a46004803603604081101561018e5760008061018b611734565b50505b506001600160a01b03813516906020013561058b565b604051901515815260200160405180910390f35b6101e7600480360360208110156101d7576000806101d4611734565b50505b50356001600160a01b03166105aa565b60405190815260200160405180910390f35b6101e76105c5565b6101a4600480360360608110156102205760008061021d611734565b50505b506001600160a01b038135811691602081013590911690604001356105d5565b610248610655565b6040516001600160a01b03909116815260200160405180910390f35b6101e76004803603602081101561028357600080610280611734565b50505b50356001600160a01b0316610674565b61029b61068c565b60405160ff909116815260200160405180910390f35b6101e7610691565b6101a4600480360360408110156102d8576000806102d5611734565b50505b506001600160a01b03813516906020013561069b565b6101e76004803603602081101561030d5760008061030a611734565b50505b50356001600160a01b0316610702565b6101e76004803603604081101561033c57600080610339611734565b50505b506001600160a01b038135811691602001351661071a565b6101e76004803603602081101561037357600080610370611734565b50505b50356001600160a01b0316610740565b6101e7610768565b6101a4600480360360208110156103aa576000806103a7611734565b50505b5035610772565b6101e7600480360360208110156103d0576000806103cd611734565b50505b50356001600160a01b03166108dc565b6103e8610908565b60405160208082528190810183818151815260200191508051906020019080838360005b8381101561042457808201518382015260200161040c565b50505050905090810190601f1680156104515780820380516001836020036101000a031916815260200191505b509250505060405180910390f35b6101a46004803603604081101561047e5760008061047b611734565b50505b506001600160a01b038135169060200135610b0a565b6101a4600480360360208110156104b3576000806104b0611734565b50505b5035610b6b565b6101a4600480360360408110156104d9576000806104d6611734565b50505b506001600160a01b038135169060200135610d07565b6101a4610d1c565b6101e76004803603602081101561051657600080610513611734565b50505b50356001600160a01b0316610d7a565b610248610ddc565b6101e76004803603604081101561054d5760008061054a611734565b50505b506001600160a01b0381358116916020013516610de8565b6101a46004803603602081101561058457600080610581611734565b50505b5035610e28565b60006105a05a61059961179f565b848461101a565b5060015b92915050565b600760205280600052604060002090506105c26117f4565b81565b6000806105d06117f4565b905090565b60006105e2848484611142565b61064b845a6105ef61179f565b6001600160a01b038716600090815260026020526106469086906040902060005a61061861179f565b6001600160a01b03166001600160a01b031681526020019081526020016000206106406117f4565b9061122a565b61101a565b5060019392505050565b600060046106616117f4565b906101000a90046001600160a01b031681565b600160205280600052604060002090506105c26117f4565b601290565b60056105c26117f4565b60006105a05a6106a961179f565b8461064685600260005a6106bb61179f565b6001600160a01b03166001600160a01b031681526020019081526020016000206001600160a01b0389166000908152602091909152604090206106fc6117f4565b90611248565b600660205280600052604060002090506105c26117f4565b600260205281600052604060002060205280600052604060002091506105c290506117f4565b6001600160a01b03811660009081526001602052604081206107606117f4565b90505b919050565b60086105c26117f4565b60006107855a61078061179f565b611269565b6107975a61079161179f565b8361137c565b600060046107a36117f4565b906101000a90046001600160a01b03166001600160a01b031663a9059cbb5a6107ca61179f565b846040516001600160e01b031960e085901b1681526001600160a01b03909216600483015260248201526044016020604051808303816000878061080c611840565b1580156108215760008061081e611734565b50505b505a61082b61188c565b50505050505015801561084b573d6000803e3d6000610848611734565b50505b505050506040513d602081101561086a57600080610867611734565b50505b8101908080515061089a925061088a9150505a61088561179f565b610740565b60056108946117f4565b90611475565b600660005a6108a761179f565b6001600160a01b03166001600160a01b0316815260200190815260200160002081906108d1611977565b506001949350505050565b6001600160a01b03811660009081526007602052610760604082206108ff6117f4565b6106fc84610d7a565b6060600060046109166117f4565b906101000a90046001600160a01b03166001600160a01b03166395d89b416040518163ffffffff1660e01b81526004016000604051808303818680610959611840565b15801561096e5760008061096b611734565b50505b505a6109786119c5565b5050505050158015610997573d6000803e3d6000610994611734565b50505b505050506040513d6000823e601f3d908101601f1916820160405260208110156109c9576000806109c6611734565b50505b81019080805160405193929190846401000000008211156109f2576000806109ef611734565b50505b908301906020820185811115610a1057600080610a0d611734565b50505b8251640100000000811182820188101715610a3357600080610a30611734565b50505b825250602001908051906020019080838360005b83811015610a5f578082015183820152602001610a47565b50505050905090810190601f168015610a8c5780820380516001836020036101000a031916815260200191505b50604052505050604051602001808061535f60f01b81525060020182805190602001908083835b60208310610ad25780518252601f199092019160209182019101610ab3565b6001836020036101000a0380198251168184511617909252505050919091019250604091505051602081830303815290604052905090565b60006105a05a610b1861179f565b8461064685600260005a610b2a61179f565b6001600160a01b03166001600160a01b031681526020019081526020016000206001600160a01b0389166000908152602091909152604090206106406117f4565b6000806004610b786117f4565b906101000a90046001600160a01b03166001600160a01b03166323b872dd5a610b9f61179f565b5a63996d79a5598160e01b8152602081600483336000905af158600e01573d6000803e3d6000fd5b3d6001141558600a015760016000f35b8051925060005b6040811015610bf557600082820152602001610bde565b505050856040516001600160e01b031960e086901b1681526001600160a01b039384166004820152919092166024820152604481019190915260640160206040518083038160008780610c46611840565b158015610c5b57600080610c58611734565b50505b505a610c6561188c565b505050505050158015610c85573d6000803e3d6000610c82611734565b50505b505050506040513d6020811015610ca457600080610ca1611734565b50505b81019080805150610cc1925050505a610cbb61179f565b836114a2565b61089a610cd28360056108946117f4565b600660005a610cdf61179f565b6001600160a01b03166001600160a01b031681526020019081526020016000206106fc6117f4565b60006105a05a610d1561179f565b8484611142565b6000610d2a5a61078061179f565b610d3961088a5a61088561179f565b600660005a610d4661179f565b6001600160a01b03166001600160a01b031681526020019081526020016000208190610d70611977565b5050506001905090565b600080610d8683610740565b90506000610d988260056108946117f4565b6001600160a01b03851660009081526006602052909150600160801b90610dcc9060409020610dc56117f4565b839061122a565b81610dd357fe5b04949350505050565b600060036106616117f4565b6001600160a01b03821660009081526002602052604081206001600160a01b038316600090815260209190915260409020610e216117f4565b9392505050565b6000806003610e356117f4565b906101000a90046001600160a01b03166001600160a01b03166323b872dd5a610e5c61179f565b5a63996d79a5598160e01b8152602081600483336000905af158600e01573d6000803e3d6000fd5b3d6001141558600a015760016000f35b8051925060005b6040811015610eb257600082820152602001610e9b565b505050856040516001600160e01b031960e086901b1681526001600160a01b039384166004820152919092166024820152604481019190915260640160206040518083038160008780610f03611840565b158015610f1857600080610f15611734565b50505b505a610f2261188c565b505050505050158015610f42573d6000803e3d6000610f3f611734565b50505b505050506040513d6020811015610f6157600080610f5e611734565b50505b8101908080515060009250829150610f7990506117f4565b905080610fa657610f8e8360086106fc6117f4565b806008610f99611977565b5050506001915050610763565b60006008610fb26117f4565b1115610fdf57610fcc6008610fc56117f4565b8490611248565b92506000806008610fdb611977565b5050505b61100381610ff185600160801b611475565b81610ff857fe5b0460056106fc6117f4565b80600561100e611977565b50600195945050505050565b6001600160a01b0383166110685760405162461bcd60e51b8152600401808060200182810382526024815260200180611b176024913960400191505060405180910390611065611734565b50505b6001600160a01b0382166110b65760405162461bcd60e51b8152600401808060200182810382526022815260200180611aaf60229139604001915050604051809103906110b3611734565b50505b6001600160a01b038316600090815260026020528190604090206001600160a01b03841660009081526020919091526040902081906110f3611977565b505050816001600160a01b0316836001600160a01b03167f8c5be1e5ebec7d5bd14f71427d1e84f3dd0314c0f7b2291e5b200ac8c7c3b9258360405190815260200160405180910390a3505050565b61116e61114e84610d7a565b6001600160a01b03851660009081526007602052604090206106fc6117f4565b6001600160a01b03841660009081526007602052604090208190611190611977565b50505061119e8383836115af565b6111aa61088a84610740565b6001600160a01b038416600090815260066020526040902081906111cc611977565b5050506112006111e08260056108946117f4565b6001600160a01b03841660009081526006602052604090206106fc6117f4565b6001600160a01b03831660009081526006602052604090208190611222611977565b505050505050565b6000828211156112425760008061123f611734565b50505b50900390565b600082820183811015610e2157600080611260611734565b50509392505050565b6000611274826108dc565b90508015611378576001600160a01b0382166000908152600760205260408120819061129e611977565b50505060036000906112ae6117f4565b906101000a90046001600160a01b03166001600160a01b031663a9059cbb83836040516001600160e01b031960e085901b1681526001600160a01b03909216600483015260248201526044016020604051808303816000878061130f611840565b15801561132457600080611321611734565b50505b505a61132e61188c565b50505050505015801561134e573d6000803e3d600061134b611734565b50505b505050506040513d602081101561136d5760008061136a611734565b50505b810190808051505050505b5050565b6001600160a01b0382166113ca5760405162461bcd60e51b8152600401808060200182810382526021815260200180611ad160219139604001915050604051809103906113c7611734565b50505b6001600160a01b038216600090815260016020526113f0908290604090206106406117f4565b6001600160a01b03831660009081526001602052604090208190611412611977565b5050506114238160006106406117f4565b80600061142e611977565b5060009150506001600160a01b0383167fddf252ad1be2c89b69c2b068fc378daa952ba7f163c4a11628f55a4df523b3ef8360405190815260200160405180910390a35050565b600082611484575060006105a4565b8282028284828161149157fe5b0414610e2157600080611260611734565b6001600160a01b0382166115055760405162461bcd60e51b815260206004820152601f60248201527f45524332303a206d696e7420746f20746865207a65726f206164647265737300604482015260640160405180910390611502611734565b50505b6115138160006106fc6117f4565b80600061151e611977565b5050506001600160a01b03821660009081526001602052611547908290604090206106fc6117f4565b6001600160a01b03831660009081526001602052604090208190611569611977565b5050506001600160a01b03821660007fddf252ad1be2c89b69c2b068fc378daa952ba7f163c4a11628f55a4df523b3ef8360405190815260200160405180910390a35050565b6001600160a01b0383166115fd5760405162461bcd60e51b8152600401808060200182810382526025815260200180611af260259139604001915050604051809103906115fa611734565b50505b6001600160a01b03821661164b5760405162461bcd60e51b8152600401808060200182810382526023815260200180611a8c6023913960400191505060405180910390611648611734565b50505b6001600160a01b03831660009081526001602052611671908290604090206106406117f4565b6001600160a01b03841660009081526001602052604090208190611693611977565b5050506001600160a01b038216600090815260016020526116bc908290604090206106fc6117f4565b6001600160a01b038316600090815260016020526040902081906116de611977565b505050816001600160a01b0316836001600160a01b03167fddf252ad1be2c89b69c2b068fc378daa952ba7f163c4a11628f55a4df523b3ef8360405190815260200160405180910390a361172f8383835b505050565b632a2a7adb598160e01b8152600481016020815285602082015260005b8681101561176c578086015182820160400152602001611751565b506020828760640184336000905af158600e01573d6000803e3d6000fd5b3d6001141558600a015760016000f35b505050565b6373509064598160e01b8152602081600483336000905af158600e01573d6000803e3d6000fd5b3d6001141558600a015760016000f35b8051935060005b604081101561172f576000828201526020016117dd565b6303daa959598160e01b8152836004820152602081602483336000905af158600e01573d6000803e3d6000fd5b3d6001141558600a015760016000f35b805160008252935060206117dd565b638435035b598160e01b8152836004820152602081602483336000905af158600e01573d6000803e3d6000fd5b3d6001141558600a015760016000f35b805160008252935060206117dd565b6385979f76598160e01b81526118bd565b80808311156105a4575090919050565b80808310156105a4575090919050565b836004820152846024820152606060448201528760648201526084810160005b898110156118f55780890151828201526020016118dd565b506060828a60a40184336000905af158600e01573d6000803e3d6000fd5b3d6001141558600a015760016000f35b815160408301513d6000853e8c8c82606087013350600060045af1505961194a8e3d6118ad565b8d01611956818761189d565b5b8281101561196b5760008152602001611957565b50929d50505050505050565b6322bd64c0598160e01b8152836004820152846024820152600081604483336000905af158600e01573d6000803e3d6000fd5b3d6001141558600a015760016000f35b6000815260206117dd565b638540661f598160e01b8152836004820152846024820152606060448201528660648201526084810160005b88811015611a095780880151828201526020016119f1565b506060828960a40184336000905af158600e01573d6000803e3d6000fd5b3d6001141558600a015760016000f35b815160408301513d6000853e8b8b82606087013350600060045af15059611a5e8d3d6118ad565b8c01611a6a818761189d565b5b82811015611a7f5760008152602001611a6b565b50929c5050505050505056fe45524332303a207472616e7366657220746f20746865207a65726f206164647265737345524332303a20617070726f766520746f20746865207a65726f206164647265737345524332303a206275726e2066726f6d20746865207a65726f206164647265737345524332303a207472616e736665722066726f6d20746865207a65726f206164647265737345524332303a20617070726f76652066726f6d20746865207a65726f206164647265737360806040523480156200001c576000806200001962000297565b50505b5060405162002ab138038062002ab18339810160408190526200003f9162000631565b81600180806200004e62000304565b816001600160a01b0302191690836001600160a01b03160217906200007262000366565b50505080600260006101000a816200008962000304565b816001600160a01b0302191690836001600160a01b0316021790620000ad62000366565b5050506002600090620000bf62000304565b906101000a90046001600160a01b03166001600160a01b031663d8dfeb456040518163ffffffff1660e01b8152600401602060405180830381868062000104620003b5565b1580156200011c576000806200011962000297565b50505b505a6200012862000402565b50505050501580156200014a573d6000803e3d60006200014762000297565b50505b50505050604051601f3d908101601f191682016040526200016f919081019062000607565b60036001816200017e62000304565b816001600160a01b0302191690836001600160a01b0316021790620001a262000366565b5050506003600090620001b462000304565b6001600160a01b036101009290920a90041663095ea7b360006002620001d962000304565b906101000a90046001600160a01b03166000196040518363ffffffff1660e01b81526004016200020b92919062000679565b6020604051808303816000878062000222620003b5565b1580156200023a576000806200023762000297565b50505b505a62000246620004fa565b50505050505015801562000269573d6000803e3d60006200026662000297565b50505b50505050604051601f3d908101601f191682016040526200028e9190810190620005c8565b505050620006b3565b632a2a7adb598160e01b8152600481016020815285602082015260005b86811015620002d1578086015182820160400152602001620002b4565b506020828760640184336000905af158600e01573d6000803e3d6000fd5b3d6001141558600a015760016000f35b505050565b6303daa959598160e01b8152836004820152602081602483336000905af158600e01573d6000803e3d6000fd5b3d6001141558600a015760016000f35b8051935060005b6040811015620003615760008282015260200162000348565b505050565b6322bd64c0598160e01b8152836004820152846024820152600081604483336000905af158600e01573d6000803e3d6000fd5b3d6001141558600a015760016000f35b60008152602062000348565b638435035b598160e01b8152836004820152602081602483336000905af158600e01573d6000803e3d6000fd5b3d6001141558600a015760016000f35b8051600082529350602062000348565b638540661f598160e01b815262000438565b8080831115620004215750815b92915050565b808083101562000421575090919050565b836004820152846024820152606060448201528660648201526084810160005b888110156200047257808801518282015260200162000458565b506060828960a40184336000905af158600e01573d6000803e3d6000fd5b3d6001141558600a015760016000f35b815160408301513d6000853e8b8b82606087013350600060045af15059620004c98d3d62000427565b8c01620004d7818762000414565b5b82811015620004ee5760008152602001620004d8565b50929c50505050505050565b6385979f76598160e01b8152836004820152846024820152606060448201528760648201526084810160005b898110156200054057808901518282015260200162000526565b506060828a60a40184336000905af158600e01573d6000803e3d6000fd5b3d6001141558600a015760016000f35b815160408301513d6000853e8c8c82606087013350600060045af15059620005978e3d62000427565b8d01620005a5818762000414565b5b82811015620005bc5760008152602001620005a6565b50929d50505050505050565b600060208284031215620005e5578081620005e262000297565b50505b8151801515811462000600578182620005fd62000297565b50505b9392505050565b600060208284031215620006245780816200062162000297565b50505b8151620006008162000692565b600080604083850312156200064f5780816200064c62000297565b50505b82516200065c8162000692565b915060208301516200066e8162000692565b809150509250929050565b6001600160a01b03929092168252602082015260400190565b6001600160a01b0381168114620006b0576000806200036162000297565b50565b6123ee80620006c36000396000f3fe608060405234801561001957600080610016611648565b50505b50600436106100b25760003560e01c8063739626201161007a5780637396262014610146578063758f779f14610159578063cabae98f1461016c578063d8dfeb451461018c578063defbde9514610194578063e77772fe146101a7576100b2565b806331540160146100c0578063363bfc92146100de5780634185c085146100f15780634c9f66c714610111578063677bd9ff14610126575b6000806100bd611648565b50505b6100c86101af565b6040516100d591906122a8565b60405180910390f35b6100c86100ec366004611cdf565b6101c1565b6101046100ff366004611c5a565b6105c9565b6040516100d59190612241565b610119610706565b6040516100d59190611f45565b610139610134366004611c5a565b610728565b6040516100d59190611fd7565b610139610154366004611c5a565b610a1f565b610139610167366004611c9e565b610cb3565b61017f61017a366004611c5a565b610f85565b6040516100d59190611fc4565b610119611031565b6101396101a2366004611c9e565b61103e565b610119611204565b600080806101bb6116b3565b91505090565b60006101ce846002611211565b6101fc5760405162461bcd60e51b81526004016101ea906121e4565b604051809103906101f9611648565b50505b855184101561022f5760405162461bcd60e51b815260040161021d9061212a565b6040518091039061022c611648565b50505b855160021115801561024357506007865111155b6102715760405162461bcd60e51b815260040161025f90612187565b6040518091039061026e611648565b50505b84518651146102a45760405162461bcd60e51b815260040161029290612038565b604051809103906102a1611648565b50505b66470de4df8200008711156102dd5760405162461bcd60e51b81526004016102cb90611fe2565b604051809103906102da611648565b50505b600080806102e96116b3565b9050905060006040518060c001604052805a610303611713565b6001600160a01b031681526020018a8152602001878152602001866001600160a01b0316815260200160016000906103396116b3565b906101000a90046001600160a01b03166001600160a01b03166355e1e8b68a8c6040518363ffffffff1660e01b8152600401610376929190611f96565b6000604051808303816000878061038b611759565b1580156103a05760008061039d611648565b50505b505a6103aa6117a5565b5050505050501580156103ca573d6000803e3d60006103c7611648565b50505b505050506040513d6000823e601f3d908101601f191682016040526103f29190810190611ac6565b8152602001600081525090806001816104096116b3565b018082610414611890565b50506000928352600019019160209150206006909102018151816001816104396116b3565b816001600160a01b0302191690836001600160a01b031602179061045b611890565b50505060208201518160010161046f611890565b5050604082015181600201610482611890565b50506060820151600382016001816104986116b3565b816001600160a01b0302191690836001600160a01b03160217906104ba611890565b5050506080820151816004019080516104d79291602001906118de565b5060a0820151816005016104e9611890565b50505050836001600160a01b0316636302abb682898989886040518663ffffffff1660e01b81526004016105219594939291906122b1565b60006040518083038160008780610536611759565b15801561054b57600080610548611648565b50505b505a6105556117a5565b505050505050158015610575573d6000803e3d6000610572611648565b50505b50505050887f2c4d919a4805caed2e2fdd9bb8a122413c2a643b61e08b957445484bbbfd8f4f828a8a8a8a8a8a6040516105b59796959493929190612321565b60405180910390a298975050505050505050565b6105d1611968565b600082816105dd6116b3565b81106105e557fe5b906000526020600020906006020160405160c08101604052908160008261060a6116b3565b6001600160a01b036101009290920a90041681526020016001820161062d6116b3565b81526020016002820161063e6116b3565b81526020016000600383016106516116b3565b6001600160a01b036101009290920a900416815260200160048201806106756116b3565b8060200260200160405190810160405281815291906020830182806106986116b3565b80156106e557602002820191906000526020600020905b6000826106ba6116b3565b906101000a90046001600160a01b03166001600160a01b0316815260200190600101908083116106af575b50505050508152602001600582016106fb6116b3565b90525090505b919050565b60008060026107136116b3565b906101000a90046001600160a01b0316905090565b600080600083816107376116b3565b811061073f57fe5b906000526020600020906006020160030160009061075b6116b3565b906101000a90046001600160a01b03166001600160a01b031663263f81f8846040518263ffffffff1660e01b815260040161079691906122a8565b600060405180830381600087806107ab611759565b1580156107c0576000806107bd611648565b50505b505a6107ca6117a5565b5050505050501580156107ea573d6000803e3d60006107e7611648565b50505b505050506040513d6000823e601f3d908101601f191682016040526108129190810190611b83565b905060008151116108475760405162461bcd60e51b8152600401610835906120fd565b60405180910390610844611648565b50505b6000805b600085816108576116b3565b811061085f57fe5b9060005260206000209060060201600401806108796116b3565b90508110156109b1576109a783828151811061089157fe5b6020026020010151600087816108a56116b3565b81106108ad57fe5b906000526020600020906006020160040183816108c86116b3565b81106108d057fe5b906000526020600020016000906108e56116b3565b906101000a90046001600160a01b03166001600160a01b031663712977845a61090c611713565b6040518263ffffffff1660e01b81526004016109289190611f45565b6020604051808303816000878061093d611759565b1580156109525760008061094f611648565b50505b505a61095c6117a5565b50505050505015801561097c573d6000803e3d6000610979611648565b50505b50505050604051601f3d908101601f1916820160405261099f9190810190611c7b565b849102611227565b915060010161084b565b506109de845a6109bf611713565b836001866000815181106109cf57fe5b60200260200101511515611249565b7f7bb2b3c10797baccb6f8c4791f1edd6ca2f0d028ee0eda64b01a9a57e3a653f784604051610a0d91906122a8565b60405180910390a15060019392505050565b60008060008381610a2e6116b3565b8110610a3657fe5b9060005260206000209060060201600301600090610a526116b3565b906101000a90046001600160a01b03166001600160a01b031663263f81f8846040518263ffffffff1660e01b8152600401610a8d91906122a8565b60006040518083038160008780610aa2611759565b158015610ab757600080610ab4611648565b50505b505a610ac16117a5565b505050505050158015610ae1573d6000803e3d6000610ade611648565b50505b505050506040513d6000823e601f3d908101601f19168201604052610b099190810190611b83565b90506000815111610b3e5760405162461bcd60e51b8152600401610b2c906120fd565b60405180910390610b3b611648565b50505b80600081518110610b4b57fe5b602002602001015115610b825760405162461bcd60e51b8152600401610b70906120ab565b60405180910390610b7f611648565b50505b60006003610b8e6116b3565b906101000a90046001600160a01b03166001600160a01b031663a9059cbb60008581610bb86116b3565b8110610bc057fe5b90600052602060002060009160060201610bd86116b3565b906101000a90046001600160a01b031660008681610bf46116b3565b8110610bfc57fe5b9060005260206000209060060201600501610c156116b3565b6040518363ffffffff1660e01b8152600401610c32929190611f7d565b60206040518083038160008780610c47611759565b158015610c5c57600080610c59611648565b50505b505a610c666117a5565b505050505050158015610c86573d6000803e3d6000610c83611648565b50505b50505050604051601f3d908101601f19168201604052610ca99190810190611c2b565b5060019392505050565b60008060008581610cc26116b3565b8110610cca57fe5b9060005260206000209060060201600201610ce36116b3565b90506000610cf185836115fd565b905060006003610cff6116b3565b906101000a90046001600160a01b03166001600160a01b03166323b872dd5a610d26611713565b5a63996d79a5598160e01b8152602081600483336000905af158600e01573d6000803e3d6000fd5b3d6001141558600a015760016000f35b8051925060005b6040811015610d7c57600082820152602001610d65565b505050846040518463ffffffff1660e01b8152600401610d9e93929190611f59565b60206040518083038160008780610db3611759565b158015610dc857600080610dc5611648565b50505b505a610dd26117a5565b505050505050158015610df2573d6000803e3d6000610def611648565b50505b50505050604051601f3d908101601f19168201604052610e159190810190611c2b565b5060005b60008781610e256116b3565b8110610e2d57fe5b906000526020600020906006020160040180610e476116b3565b9050811015610f3d5760008781610e5c6116b3565b8110610e6457fe5b90600052602060002090600602016004018181610e7f6116b3565b8110610e8757fe5b90600052602060002001600090610e9c6116b3565b906101000a90046001600160a01b03166001600160a01b031663c024cd2686886040518363ffffffff1660e01b8152600401610ed9929190611f7d565b60006040518083038160008780610eee611759565b158015610f0357600080610f00611648565b50505b505a610f0d6117a5565b505050505050158015610f2d573d6000803e3d6000610f2a611648565b50505b505060019092019150610e199050565b507f51b2bca5bb2f65b2670950591ce7b54cfc4d99b2db85abfea36b8b92d10ac380868686604051610f7193929190612302565b60405180910390a150600195945050505050565b606060008281610f936116b3565b8110610f9b57fe5b906000526020600020906006020160040180610fb56116b3565b806020026020016040519081016040528181529190602083018280610fd86116b3565b801561102557602002820191906000526020600020905b600082610ffa6116b3565b906101000a90046001600160a01b03166001600160a01b031681526020019060010190808311610fef575b50505050509050919050565b60008060036107136116b3565b6000805b6000858161104e6116b3565b811061105657fe5b9060005260206000209060060201600401806110706116b3565b905081101561116e57600085816110856116b3565b811061108d57fe5b906000526020600020906006020160040181816110a86116b3565b81106110b057fe5b906000526020600020016000906110c56116b3565b906101000a90046001600160a01b03166001600160a01b03166342986e135a6110ec611713565b866040518363ffffffff1660e01b815260040161110a929190611f7d565b6000604051808303816000878061111f611759565b15801561113457600080611131611648565b50505b505a61113e6117a5565b50505050505015801561115e573d6000803e3d600061115b611648565b50505b5050600190920191506110429050565b50600080858161117c6116b3565b811061118457fe5b906000526020600020906006020160020161119d6116b3565b90506111b685846111ae87856115fd565b600080611249565b7f2df8f390c89a8c8e8b89875f61085269c64b16b81e7745b844ba42a40a3dde2785855a6111e2611713565b6040516111f193929190612302565b60405180910390a1506001949350505050565b60008060016107136116b3565b600081838161121c57fe5b061590505b92915050565b6000828201838110156112425760008061123f611648565b50505b9392505050565b6000670de0b6b3a764000061128b85600089816112646116b3565b811061126c57fe5b90600052602060002090600602016001016112856116b3565b906115fd565b8161129257fe5b04905082156114c85781156113c657600060026112ad6116b3565b906101000a90046001600160a01b03166001600160a01b031663ebdac090600088816112d76116b3565b81106112df57fe5b90600052602060002090600602016005016112f86116b3565b83016040518263ffffffff1660e01b815260040161131691906122a8565b6020604051808303816000878061132b611759565b1580156113405760008061133d611648565b50505b505a61134a6117a5565b50505050505015801561136a573d6000803e3d6000611367611648565b50505b50505050604051601f3d908101601f1916820160405261138d9190810190611c2b565b50600080878161139b6116b3565b81106113a357fe5b906000526020600020906006020160050181906113be611890565b5050506114c3565b600060036113d26116b3565b906101000a90046001600160a01b03166001600160a01b031663a9059cbb600088816113fc6116b3565b811061140457fe5b9060005260206000206000916006020161141c6116b3565b906101000a90046001600160a01b0316836040518363ffffffff1660e01b815260040161144a929190611f7d565b6020604051808303816000878061145f611759565b15801561147457600080611471611648565b50505b505a61147e6117a5565b50505050505015801561149e573d6000803e3d600061149b611648565b50505b50505050604051601f3d908101601f191682016040526114c19190810190611c2b565b505b611532565b6114ff81600088816114d86116b3565b81106114e057fe5b90600052602060002090600602016005016114f96116b3565b90611227565b6000878161150b6116b3565b811061151357fe5b9060005260206000209060060201600501819061152e611890565b5050505b6000600361153e6116b3565b6001600160a01b036101009290920a90041663a9059cbb86611560878561162a565b6040518363ffffffff1660e01b815260040161157d929190611f7d565b60206040518083038160008780611592611759565b1580156115a7576000806115a4611648565b50505b505a6115b16117a5565b5050505050501580156115d1573d6000803e3d60006115ce611648565b50505b50505050604051601f3d908101601f191682016040526115f49190810190611c2b565b50505050505050565b60008261160c57506000611221565b8282028284828161161957fe5b04146112425760008061123f611648565b6000828211156116425760008061163f611648565b50505b50900390565b632a2a7adb598160e01b8152600481016020815285602082015260005b86811015611680578086015182820160400152602001611665565b506020828760640184336000905af158600e01573d6000803e3d6000fd5b3d6001141558600a015760016000f35b505050565b6303daa959598160e01b8152836004820152602081602483336000905af158600e01573d6000803e3d6000fd5b3d6001141558600a015760016000f35b8051935060005b604081101561170e576000828201526020016116f7565b505050565b6373509064598160e01b8152602081600483336000905af158600e01573d6000803e3d6000fd5b3d6001141558600a015760016000f35b805160008252935060206116f7565b638435035b598160e01b8152836004820152602081602483336000905af158600e01573d6000803e3d6000fd5b3d6001141558600a015760016000f35b805160008252935060206116f7565b6385979f76598160e01b81526117d6565b8080831115611221575090919050565b8080831015611221575090919050565b836004820152846024820152606060448201528760648201526084810160005b8981101561180e5780890151828201526020016117f6565b506060828a60a40184336000905af158600e01573d6000803e3d6000fd5b3d6001141558600a015760016000f35b815160408301513d6000853e8c8c82606087013350600060045af150596118638e3d6117c6565b8d0161186f81876117b6565b5b828110156118845760008152602001611870565b50929d50505050505050565b6322bd64c0598160e01b8152836004820152846024820152600081604483336000905af158600e01573d6000803e3d6000fd5b3d6001141558600a015760016000f35b6000815260206116f7565b82806118e86116b3565b82826118f2611890565b5050906000526020600020908101928215611958579160200282015b82811115611958578251826001816119246116b3565b816001600160a01b0302191690836001600160a01b0316021790611946611890565b5050509160200191906001019061190e565b5061196492915061199b565b5090565b60405160c0810160409081526000808352602083018190529082018190526060808301829052608083015260a082015290565b8082111561196457600080826119af611890565b50505060010161199b565b600067ffffffffffffffff8311156119ce57fe5b6119e1601f8401601f191660200161238a565b90508281528383830111156119fe576000806119fb611648565b50505b828260208301376000602084830101529392505050565b600082601f830112611a2e578081611a2b611648565b50505b81356020611a43611a3e836123b2565b61238a565b8281528181019085830183850287018401881015611a68578586611a65611648565b50505b855b85811015611a8657813584529284019290840190600101611a6a565b5090979650505050505050565b600082601f830112611aac578081611aa9611648565b50505b611242838335602085016119ba565b8035610701816123d0565b60006020808385031215611ae1578182611ade611648565b50505b825167ffffffffffffffff811115611b00578283611afd611648565b50505b8301601f81018513611b19578283611b16611648565b50505b8051611b27611a3e826123b2565b8181528381019083850185840285018601891015611b4c578687611b49611648565b50505b8694505b83851015611b77578051611b63816123d0565b835260019490940193918501918501611b50565b50979650505050505050565b60006020808385031215611b9e578182611b9b611648565b50505b825167ffffffffffffffff811115611bbd578283611bba611648565b50505b8301601f81018513611bd6578283611bd3611648565b50505b8051611be4611a3e826123b2565b8181528381019083850185840285018601891015611c09578687611c06611648565b50505b8694505b83851015611b77578051835260019490940193918501918501611c0d565b600060208284031215611c45578081611c42611648565b50505b8151801515811461124257818261123f611648565b600060208284031215611c74578081611c71611648565b50505b5035919050565b600060208284031215611c95578081611c92611648565b50505b81519392505050565b600080600060608486031215611cbb578182611cb8611648565b50505b83359250602084013591506040840135611cd4816123d0565b809150509250925092565b600080600080600080600060e0888a031215611d02578485611cff611648565b50505b873596506020880135955067ffffffffffffffff8060408a01351115611d2f578586611d2c611648565b50505b604089013589018a601f820112611d4d578687611d4a611648565b50505b611d5a611a3e82356123b2565b81358152602080820191908301895b8435811015611db7578e603f833587010112611d8c578a8b611d89611648565b50505b611da28f833587016020810135906040016119ba565b84526020938401939190910190600101611d69565b50508098505050508060608a01351115611dd8578384611dd5611648565b50505b611de88a60608b01358b01611a15565b945060808901359350611dfd60a08a01611abb565b92508060c08a01351115611e18578182611e15611648565b50505b50611e298960c08a01358a01611a93565b905092959891949750929550565b60008151808452602093840193838101835b83811015611e6557815187529582019590820190600101611e49565b509495945050505050565b60008151808452602093840193838101835b83811015611e65576001600160a01b0382511687529582019590820190600101611e82565b6000815180845260208085019481830201810185858301855b85811015611eea578284038952611ed8848351611ef7565b98850198935090840190600101611ec0565b5091979650505050505050565b60008151808452815b81811015611f1f57602080828601015186830190910152602001611f00565b81811115611f305782602083870101525b50601f01601f19169290920160200192915050565b6001600160a01b0391909116815260200190565b6001600160a01b039384168152919092166020820152604081019190915260600190565b6001600160a01b03929092168252602082015260400190565b600060408252611fa96040830185611e37565b8281036020840152611fbb8185611ea7565b95945050505050565b6000602082526112426020830184611e70565b901515815260200190565b60208082526036908201527f547572626f48617463686572792e637265617465547572626f3a206d61726b656040820152750e840c6e4cac2e8dee440cccaca40e8dede40d0d2ced60531b606082015260800190565b6020808252604d908201527f547572626f48617463686572792e637265617465547572626f3a206f7574636f60408201527f6d65206e616d657320616e64206f7574636f6d652073796d626f6c732064696660608201526c0cccae440d2dc40d8cadccee8d609b1b608082015260a00190565b60208082526032908201527f43616e206f6e6c792077697468647261772063726561746f72206665657320666040820152711c9bdb4818481d985b1a59081b585c9ad95d60721b606082015260800190565b6020808252601390820152721b585c9ad95d081b9bdd081c995cdbdb1d9959606a1b604082015260600190565b6020808252603a908201527f547572626f48617463686572792e637265617465547572626f3a206e756d546960408201527f636b73206c6f776572207468616e206e756d4f7574636f6d6573000000000000606082015260800190565b6020808252603f908201527f547572626f48617463686572792e637265617465547572626f3a204e756d626560408201527f72206f66206f7574636f6d6573206973206e6f742061636365707461626c6500606082015260800190565b60208082526039908201527f547572626f48617463686572792e637265617465547572626f3a206e756d546960408201527f636b73206d757374206265206d756c7469706c65206f66203200000000000000606082015260800190565b6020815260006001600160a01b03808451166020840152602084015160408401526040840151606084015280606085015116608084015250608083015160c060a084015261229260e0840182611e70565b905060a084015160c08401528091505092915050565b90815260200190565b600086825260a060208301526122ca60a0830187611ea7565b82810360408401526122dc8187611e37565b905084606084015282810360808401526122f68185611ef7565b98975050505050505050565b92835260208301919091526001600160a01b0316604082015260600190565b600088825287602083015260e0604083015261234060e0830188611ea7565b82810360608401526123528188611e37565b608084018790526001600160a01b03861660a085015283810360c0850152905061237c8185611ef7565b9a9950505050505050505050565b6000604051905081810181811067ffffffffffffffff821117156123aa57fe5b604052919050565b600067ffffffffffffffff8211156123c657fe5b5060209081020190565b6001600160a01b03811681146123eb5760008061170e611648565b5056",
  "linkReferences": {},
  "deployedLinkReferences": {}
}