{
  "_format": "hh-sol-artifact-1",
  "contractName": "HatcheryRegistry",
  "sourceName": "contracts/turbo/HatcheryRegistry.sol",
  "abi": [
    {
      "inputs": [
        {
          "internalType": "address",
          "name": "_owner",
          "type": "address"
        },
        {
          "internalType": "contract IERC20DynamicSymbol",
          "name": "_reputationToken",
          "type": "address"
        }
      ],
      "stateMutability": "nonpayable",
      "type": "constructor"
    },
    {
      "anonymous": false,
      "inputs": [
        {
          "indexed": false,
          "internalType": "address",
          "name": "id",
          "type": "address"
        },
        {
          "indexed": true,
          "internalType": "address",
          "name": "collateral",
          "type": "address"
        },
        {
          "indexed": false,
          "internalType": "address",
          "name": "shareTokenFactory",
          "type": "address"
        },
        {
          "indexed": false,
          "internalType": "address",
          "name": "feePot",
          "type": "address"
        }
      ],
      "name": "NewHatchery",
      "type": "event"
    },
    {
      "inputs": [
        {
          "internalType": "contract IERC20",
          "name": "_collateral",
          "type": "address"
        }
      ],
      "name": "createHatchery",
      "outputs": [
        {
          "internalType": "contract TurboHatchery",
          "name": "",
          "type": "address"
        }
      ],
      "stateMutability": "nonpayable",
      "type": "function"
    },
    {
      "inputs": [
        {
          "internalType": "address",
          "name": "",
          "type": "address"
        }
      ],
      "name": "getHatchery",
      "outputs": [
        {
          "internalType": "contract TurboHatchery",
          "name": "",
          "type": "address"
        }
      ],
      "stateMutability": "view",
      "type": "function"
    },
    {
      "inputs": [],
      "name": "getOwner",
      "outputs": [
        {
          "internalType": "address",
          "name": "",
          "type": "address"
        }
      ],
      "stateMutability": "view",
      "type": "function"
    },
    {
      "inputs": [
        {
          "internalType": "uint256",
          "name": "",
          "type": "uint256"
        }
      ],
      "name": "hatcheries",
      "outputs": [
        {
          "internalType": "address",
          "name": "",
          "type": "address"
        }
      ],
      "stateMutability": "view",
      "type": "function"
    },
    {
      "inputs": [],
      "name": "reputationToken",
      "outputs": [
        {
          "internalType": "contract IERC20DynamicSymbol",
          "name": "",
          "type": "address"
        }
      ],
      "stateMutability": "view",
      "type": "function"
    },
    {
      "inputs": [
        {
          "internalType": "address",
          "name": "_newOwner",
          "type": "address"
        }
      ],
      "name": "transferOwnership",
      "outputs": [
        {
          "internalType": "bool",
          "name": "",
          "type": "bool"
        }
      ],
      "stateMutability": "nonpayable",
      "type": "function"
    }
  ],
  "bytecode": "0x608060405234801561001057600080fd5b50604051614a5e380380614a5e8339818101604052604081101561003357600080fd5b508051602090910151600080546001600160a01b039384166001600160a01b03199182163317821617909155600180549390921692169190911790556149e08061007e6000396000f3fe608060405234801561001057600080fd5b50600436106100625760003560e01c80631ee5b77614610067578063275bbe9b146100a9578063893d20e8146100b1578063cbec31aa146100b9578063e1554256146100d6578063f2fde38b146100fc575b600080fd5b61008d6004803603602081101561007d57600080fd5b50356001600160a01b0316610136565b604080516001600160a01b039092168252519081900360200190f35b61008d610151565b61008d610160565b61008d600480360360208110156100cf57600080fd5b503561016f565b61008d600480360360208110156100ec57600080fd5b50356001600160a01b0316610199565b6101226004803603602081101561011257600080fd5b50356001600160a01b0316610417565b604080519115158252519081900360200190f35b6003602052600090815260409020546001600160a01b031681565b6001546001600160a01b031681565b6000546001600160a01b031690565b6002818154811061017f57600080fd5b6000918252602090912001546001600160a01b0316905081565b600080546001600160a01b031633146101b157600080fd5b6001600160a01b03828116600090815260036020526040902054161561021e576040805162461bcd60e51b815260206004820181905260248201527f4f6e6c79206f6e652068617463686572792070657220636f6c6c61746572616c604482015290519081900360640190fd5b600060405161022c90610481565b604051809103906000f080158015610248573d6000803e3d6000fd5b5060015460405191925060009185916001600160a01b03169061026a9061048e565b6001600160a01b03928316815291166020820152604080519182900301906000f08015801561029d573d6000803e3d6000fd5b509050600082826040516102b09061049b565b6001600160a01b03928316815291166020820152604080519182900301906000f0801580156102e3573d6000803e3d6000fd5b509050826001600160a01b031663c4d66de8826040518263ffffffff1660e01b815260040180826001600160a01b03168152602001915050602060405180830381600087803b15801561033557600080fd5b505af1158015610349573d6000803e3d6000fd5b505050506040513d602081101561035f57600080fd5b505060028054600181019091557f405787fa12a823e0f2b7631cc41b3ba8828b3321ca811111fa75cd3aa3bb5ace0180546001600160a01b03199081166001600160a01b03848116918217909355878316600081815260036020908152604091829020805490951684179094558051928352878516938301939093529285168183015290517f08afdadd49d632c11dbde177a7ab47701b5adaac8f633beedd892c8da8d4393f916060908290030190a2949350505050565b600080546001600160a01b0316331461042f57600080fd5b6001600160a01b03821661044257600080fd5b600054610458906001600160a01b03168361047d565b50600080546001600160a01b0383166001600160a01b03199091161790556001919050565b5050565b61157c806104a983390190565b61129180611a2583390190565b611cf580612cb68339019056fe60806040526000805460ff1916905534801561001a57600080fd5b506115528061002a6000396000f3fe608060405234801561001057600080fd5b50600436106100625760003560e01c80630a0b23b01461006757806348b164d21461008557806355e1e8b61461009a5780639cd7ff8d146100ba578063c4d66de8146100cf578063ee89dab4146100ef575b600080fd5b61006f6100f7565b60405161007c919061058e565b60405180910390f35b61008d61011a565b60405161007c9190610531565b6100ad6100a83660046103ee565b61012e565b60405161007c91906104d0565b6100c2610319565b60405161007c9190610528565b6100e26100dd366004610457565b61032d565b60405161007c919061051d565b6100e2610370565b604051806040016040528060078152602001661253959053125160ca1b81525081565b60005461010090046001600160a01b031681565b60005460609061010090046001600160a01b031633146101695760405162461bcd60e51b8152600401610160906105d4565b60405180910390fd5b6001840160008167ffffffffffffffff8111801561018657600080fd5b506040519080825280602002602001820160405280156101b0578160200160208202803683370190505b509050604051806040016040528060078152602001661253959053125160ca1b8152506c494e56414c494420534841524560981b600060019054906101000a90046001600160a01b031660405161020690610398565b610212939291906105a1565b604051809103906000f08015801561022e573d6000803e3d6000fd5b508160008151811061023c57fe5b6001600160a01b039092166020928302919091019091015260015b8281101561030e5785856001830381811061026e57fe5b9050602002810190610280919061061d565b89896001850381811061028f57fe5b90506020020135600060019054906101000a90046001600160a01b03166040516102b890610398565b6102c59493929190610545565b604051809103906000f0801580156102e1573d6000803e3d6000fd5b508282815181106102ee57fe5b6001600160a01b0390921660209283029190910190910152600101610257565b509695505050505050565b6c494e56414c494420534841524560981b81565b6000805460ff161561033e57600080fd5b610346610379565b50600080546001600160a01b03831661010002610100600160a81b03199091161790556001919050565b60005460ff1690565b60005460ff161561038957600080fd5b6000805460ff19166001179055565b610eba8061066383390190565b60008083601f8401126103b6578182fd5b50813567ffffffffffffffff8111156103cd578182fd5b60208301915083602080830285010111156103e757600080fd5b9250929050565b60008060008060408587031215610403578384fd5b843567ffffffffffffffff8082111561041a578586fd5b610426888389016103a5565b9096509450602087013591508082111561043e578384fd5b5061044b878288016103a5565b95989497509550505050565b600060208284031215610468578081fd5b81356001600160a01b038116811461047e578182fd5b9392505050565b60008151808452815b818110156104aa5760208185018101518683018201520161048e565b818111156104bb5782602083870101525b50601f01601f19169290920160200192915050565b6020808252825182820181905260009190848201906040850190845b818110156105115783516001600160a01b0316835292840192918401916001016104ec565b50909695505050505050565b901515815260200190565b90815260200190565b6001600160a01b0391909116815260200190565b60006060825284606083015284866080840137608085830181019190915260208201939093526001600160a01b03919091166040820152601f909201601f191690910101919050565b60006020825261047e6020830184610485565b6000606082526105b46060830186610485565b6020830194909452506001600160a01b0391909116604090910152919050565b60208082526029908201527f4f6e6c79206861746368657279206d617920637265617465206e657720736861604082015268726520746f6b656e7360b81b606082015260800190565b6000808335601e19843603018112610633578283fd5b83018035915067ffffffffffffffff82111561064d578283fd5b6020019150368190038213156103e757600080fdfe60806040523480156200001157600080fd5b5060405162000eba38038062000eba833981810160405260608110156200003757600080fd5b81019080805160405193929190846401000000008211156200005857600080fd5b9083019060208201858111156200006e57600080fd5b82516401000000008111828201881017156200008957600080fd5b82525081516020918201929091019080838360005b83811015620000b85781810151838201526020016200009e565b50505050905090810190601f168015620000e65780820380516001836020036101000a031916815260200191505b5060409081526020828101519290910151600380546001600160a01b031916331790558551929450925062000121916005918601906200014e565b50600491909155600380546001600160a01b0319166001600160a01b0390921691909117905550620001fa565b828054600181600116156101000203166002900490600052602060002090601f016020900481019282620001865760008555620001d1565b82601f10620001a157805160ff1916838001178555620001d1565b82800160010185558215620001d1579182015b82811115620001d1578251825591602001919060010190620001b4565b50620001df929150620001e3565b5090565b5b80821115620001df5760008155600101620001e4565b610cb0806200020a6000396000f3fe608060405234801561001057600080fd5b50600436106101215760003560e01c806355b6ed5c116100ad578063a457c2d711610071578063a457c2d7146103ad578063a9059cbb146103d9578063c024cd2614610405578063dd62ed3e14610431578063f2fde38b1461045f57610121565b806355b6ed5c1461029257806370a08231146102c057806371297784146102e6578063893d20e81461030c57806395d89b411461033057610121565b806323b872dd116100f457806323b872dd146101c057806327e235e3146101f6578063313ce5671461021c578063395093511461023a57806342986e131461026657610121565b806306fdde0314610126578063095ea7b3146101405780630fb665571461018057806318160ddd146101b8575b600080fd5b61012e610485565b60408051918252519081900360200190f35b61016c6004803603604081101561015657600080fd5b506001600160a01b03813516906020013561048b565b604080519115158252519081900360200190f35b6101b66004803603606081101561019657600080fd5b506001600160a01b038135811691602081013590911690604001356104a1565b005b61012e6104c8565b61016c600480360360608110156101d657600080fd5b506001600160a01b038135811691602081013590911690604001356104ce565b61012e6004803603602081101561020c57600080fd5b50356001600160a01b031661051f565b610224610531565b6040805160ff9092168252519081900360200190f35b61016c6004803603604081101561025057600080fd5b506001600160a01b038135169060200135610536565b6101b66004803603604081101561027c57600080fd5b506001600160a01b03813516906020013561056c565b61012e600480360360408110156102a857600080fd5b506001600160a01b038135811691602001351661058d565b61012e600480360360208110156102d657600080fd5b50356001600160a01b03166105aa565b61012e600480360360208110156102fc57600080fd5b50356001600160a01b03166105c5565b6103146105fd565b604080516001600160a01b039092168252519081900360200190f35b61033861060c565b6040805160208082528351818301528351919283929083019185019080838360005b8381101561037257818101518382015260200161035a565b50505050905090810190601f16801561039f5780820380516001836020036101000a031916815260200191505b509250505060405180910390f35b61016c600480360360408110156103c357600080fd5b506001600160a01b03813516906020013561069a565b61016c600480360360408110156103ef57600080fd5b506001600160a01b0381351690602001356106d0565b6101b66004803603604081101561041b57600080fd5b506001600160a01b0381351690602001356106dd565b61012e6004803603604081101561044757600080fd5b506001600160a01b03813581169160200135166106fe565b61016c6004803603602081101561047557600080fd5b50356001600160a01b0316610729565b60045481565b6000610498338484610791565b50600192915050565b6003546001600160a01b031633146104b857600080fd5b6104c383838361087d565b505050565b60005490565b60006104db84848461087d565b6001600160a01b03841660009081526002602090815260408083203380855292529091205461051591869161051090866109bb565b610791565b5060019392505050565b60016020526000908152604090205481565b601290565b3360008181526002602090815260408083206001600160a01b0387168452909152812054909161049891859061051090866109d0565b6003546001600160a01b0316331461058357600080fd5b6104c382826109e9565b600260209081526000928352604080842090915290825290205481565b6001600160a01b031660009081526001602052604090205490565b6003546000906001600160a01b031633146105df57600080fd5b60006105ea836105aa565b90506105f683826109e9565b5092915050565b6003546001600160a01b031690565b6005805460408051602060026001851615610100026000190190941693909304601f810184900484028201840190925281815292918301828280156106925780601f1061066757610100808354040283529160200191610692565b820191906000526020600020905b81548152906001019060200180831161067557829003601f168201915b505050505081565b3360008181526002602090815260408083206001600160a01b0387168452909152812054909161049891859061051090866109bb565b600061049833848461087d565b6003546001600160a01b031633146106f457600080fd5b6104c382826109ff565b6001600160a01b03918216600090815260026020908152604080832093909416825291909152205490565b6003546000906001600160a01b0316331461074357600080fd5b6001600160a01b03821661075657600080fd5b60035461076c906001600160a01b031683610a0b565b50600380546001600160a01b0383166001600160a01b03199091161790556001919050565b6001600160a01b0383166107d65760405162461bcd60e51b8152600401808060200182810382526024815260200180610c576024913960400191505060405180910390fd5b6001600160a01b03821661081b5760405162461bcd60e51b8152600401808060200182810382526022815260200180610bef6022913960400191505060405180910390fd5b6001600160a01b03808416600081815260026020908152604080832094871680845294825291829020859055815185815291517f8c5be1e5ebec7d5bd14f71427d1e84f3dd0314c0f7b2291e5b200ac8c7c3b9259281900390910190a3505050565b6001600160a01b0383166108c25760405162461bcd60e51b8152600401808060200182810382526025815260200180610c326025913960400191505060405180910390fd5b6001600160a01b0382166109075760405162461bcd60e51b8152600401808060200182810382526023815260200180610bcc6023913960400191505060405180910390fd5b6001600160a01b03831660009081526001602052604090205461092a90826109bb565b6001600160a01b03808516600090815260016020526040808220939093559084168152205461095990826109d0565b6001600160a01b0380841660008181526001602090815260409182902094909455805185815290519193928716927fddf252ad1be2c89b69c2b068fc378daa952ba7f163c4a11628f55a4df523b3ef92918290030190a36104c38383836104c3565b6000828211156109ca57600080fd5b50900390565b6000828201838110156109e257600080fd5b9392505050565b60006109f58383610a0f565b6104988383610a0b565b60006109f58383610ae6565b5050565b6001600160a01b038216610a545760405162461bcd60e51b8152600401808060200182810382526021815260200180610c116021913960400191505060405180910390fd5b6001600160a01b038216600090815260016020526040902054610a7790826109bb565b6001600160a01b03831660009081526001602052604081209190915554610a9e90826109bb565b60009081556040805183815290516001600160a01b038516917fddf252ad1be2c89b69c2b068fc378daa952ba7f163c4a11628f55a4df523b3ef919081900360200190a35050565b6001600160a01b038216610b41576040805162461bcd60e51b815260206004820152601f60248201527f45524332303a206d696e7420746f20746865207a65726f206164647265737300604482015290519081900360640190fd5b600054610b4e90826109d0565b60009081556001600160a01b038316815260016020526040902054610b7390826109d0565b6001600160a01b03831660008181526001602090815260408083209490945583518581529351929391927fddf252ad1be2c89b69c2b068fc378daa952ba7f163c4a11628f55a4df523b3ef9281900390910190a3505056fe45524332303a207472616e7366657220746f20746865207a65726f206164647265737345524332303a20617070726f766520746f20746865207a65726f206164647265737345524332303a206275726e2066726f6d20746865207a65726f206164647265737345524332303a207472616e736665722066726f6d20746865207a65726f206164647265737345524332303a20617070726f76652066726f6d20746865207a65726f2061646472657373a2646970667358221220eb929d23537dd9a25e92d2072f1e0204f2fef88b7a1839b20df60730811a00b664736f6c63430007060033a2646970667358221220b866e7179ebbe2ddd84142e3414ab62db8c35cb9c5af8df177d38e7d094464e864736f6c63430007060033608060405234801561001057600080fd5b506040516112913803806112918339818101604052604081101561003357600080fd5b508051602090910151600380546001600160a01b038085166001600160a01b03199283168117909355600480549185169190921617905561007357600080fd5b505061120d806100846000396000f3fe608060405234801561001057600080fd5b50600436106101585760003560e01c8063789ff0e1116100c3578063a9059cbb1161007c578063a9059cbb1461043a578063be040fb014610466578063d083a7a91461046e578063d8dfeb4514610494578063dd62ed3e1461049c578063ebdac090146104ca57610158565b8063789ff0e1146103295780637f8661a11461033157806382005d861461034e57806395d89b4114610374578063a457c2d7146103f1578063a694fc3a1461041d57610158565b8063313ce56711610115578063313ce5671461025d578063341d302f1461027b578063395093511461028357806349d2a4e6146102af57806355b6ed5c146102d557806370a082311461030357610158565b8063095ea7b31461015d578063125c12041461019d57806318160ddd146101d557806323b872dd146101dd578063275bbe9b1461021357806327e235e314610237575b600080fd5b6101896004803603604081101561017357600080fd5b506001600160a01b0381351690602001356104e7565b604080519115158252519081900360200190f35b6101c3600480360360208110156101b357600080fd5b50356001600160a01b03166104fe565b60408051918252519081900360200190f35b6101c3610510565b610189600480360360608110156101f357600080fd5b506001600160a01b03813581169160208101359091169060400135610516565b61021b610567565b604080516001600160a01b039092168252519081900360200190f35b6101c36004803603602081101561024d57600080fd5b50356001600160a01b0316610576565b610265610588565b6040805160ff9092168252519081900360200190f35b6101c361058d565b6101896004803603604081101561029957600080fd5b506001600160a01b038135169060200135610593565b6101c3600480360360208110156102c557600080fd5b50356001600160a01b03166105c9565b6101c3600480360360408110156102eb57600080fd5b506001600160a01b03813581169160200135166105db565b6101c36004803603602081101561031957600080fd5b50356001600160a01b03166105f8565b6101c3610617565b6101896004803603602081101561034757600080fd5b503561061d565b6101c36004803603602081101561036457600080fd5b50356001600160a01b03166106e1565b61037c61070d565b6040805160208082528351818301528351919283929083019185019080838360005b838110156103b657818101518382015260200161039e565b50505050905090810190601f1680156103e35780820380516001836020036101000a031916815260200191505b509250505060405180910390f35b6101896004803603604081101561040757600080fd5b506001600160a01b0381351690602001356108c2565b6101896004803603602081101561043357600080fd5b50356108f8565b6101896004803603604081101561045057600080fd5b506001600160a01b0381351690602001356109b3565b6101896109c0565b6101c36004803603602081101561048457600080fd5b50356001600160a01b03166109ed565b61021b610a4f565b6101c3600480360360408110156104b257600080fd5b506001600160a01b0381358116916020013516610a5e565b610189600480360360208110156104e057600080fd5b5035610a89565b60006104f4338484610b7e565b5060015b92915050565b60076020526000908152604090205481565b60005490565b6000610523848484610c6a565b6001600160a01b03841660009081526002602090815260408083203380855292529091205461055d9186916105589086610d2f565b610b7e565b5060019392505050565b6004546001600160a01b031681565b60016020526000908152604090205481565b601290565b60055481565b3360008181526002602090815260408083206001600160a01b038716845290915281205490916104f49185906105589086610d44565b60066020526000908152604090205481565b600260209081526000928352604080842090915290825290205481565b6001600160a01b0381166000908152600160205260409020545b919050565b60085481565b600061062833610d5d565b6106323383610e06565b600480546040805163a9059cbb60e01b8152339381019390935260248301859052516001600160a01b039091169163a9059cbb9160448083019260209291908290030181600087803b15801561068757600080fd5b505af115801561069b573d6000803e3d6000fd5b505050506040513d60208110156106b157600080fd5b506106c990506106c0336105f8565b60055490610edd565b33600090815260066020526040902055506001919050565b6001600160a01b0381166000908152600760205260408120546104f890610707846109ed565b90610d44565b6060600460009054906101000a90046001600160a01b03166001600160a01b03166395d89b416040518163ffffffff1660e01b815260040160006040518083038186803b15801561075d57600080fd5b505afa158015610771573d6000803e3d6000fd5b505050506040513d6000823e601f3d908101601f19168201604052602081101561079a57600080fd5b81019080805160405193929190846401000000008211156107ba57600080fd5b9083019060208201858111156107cf57600080fd5b82516401000000008111828201881017156107e957600080fd5b82525081516020918201929091019080838360005b838110156108165781810151838201526020016107fe565b50505050905090810190601f1680156108435780820380516001836020036101000a031916815260200191505b50604052505050604051602001808061535f60f01b81525060020182805190602001908083835b602083106108895780518252601f19909201916020918201910161086a565b6001836020036101000a038019825116818451168082178552505050505050905001915050604051602081830303815290604052905090565b3360008181526002602090815260408083206001600160a01b038716845290915281205490916104f49185906105589086610d2f565b60048054604080516323b872dd60e01b8152339381019390935230602484015260448301849052516000926001600160a01b03909216916323b872dd91606480830192602092919082900301818787803b15801561095557600080fd5b505af1158015610969573d6000803e3d6000fd5b505050506040513d602081101561097f57600080fd5b5061098c90503383610f04565b6005546106c99061099d9084610edd565b3360009081526006602052604090205490610d44565b60006104f4338484610c6a565b60006109cb33610d5d565b6109d76106c0336105f8565b3360009081526006602052604090205550600190565b6000806109f9836105f8565b90506000610a1282600554610edd90919063ffffffff16565b6001600160a01b038516600090815260066020526040902054909150600160801b90610a3f908390610d2f565b81610a4657fe5b04949350505050565b6003546001600160a01b031681565b6001600160a01b03918216600090815260026020908152604080832093909416825291909152205490565b600354604080516323b872dd60e01b81523360048201523060248201526044810184905290516000926001600160a01b0316916323b872dd91606480830192602092919082900301818787803b158015610ae257600080fd5b505af1158015610af6573d6000803e3d6000fd5b505050506040513d6020811015610b0c57600080fd5b505060005480610b3057600854610b239084610d44565b6008555060019050610612565b60085415610b4e57600854610b46908490610d44565b600060085592505b610b7281610b6085600160801b610edd565b81610b6757fe5b600554919004610d44565b60055550600192915050565b6001600160a01b038316610bc35760405162461bcd60e51b81526004018080602001828103825260248152602001806111b46024913960400191505060405180910390fd5b6001600160a01b038216610c085760405162461bcd60e51b815260040180806020018281038252602281526020018061114c6022913960400191505060405180910390fd5b6001600160a01b03808416600081815260026020908152604080832094871680845294825291829020859055815185815291517f8c5be1e5ebec7d5bd14f71427d1e84f3dd0314c0f7b2291e5b200ac8c7c3b9259281900390910190a3505050565b610c95610c76846109ed565b6001600160a01b03851660009081526007602052604090205490610d44565b6001600160a01b038416600090815260076020526040902055610cb9838383610fe9565b610cc56106c0846105f8565b6001600160a01b038416600090815260066020526040902055600554610d0e90610cef9083610edd565b6001600160a01b03841660009081526006602052604090205490610d44565b6001600160a01b039092166000908152600660205260409020919091555050565b600082821115610d3e57600080fd5b50900390565b600082820183811015610d5657600080fd5b9392505050565b6000610d68826106e1565b90508015610e02576001600160a01b038083166000818152600760209081526040808320839055600354815163a9059cbb60e01b8152600481019590955260248501879052905194169363a9059cbb93604480820194918390030190829087803b158015610dd557600080fd5b505af1158015610de9573d6000803e3d6000fd5b505050506040513d6020811015610dff57600080fd5b50505b5050565b6001600160a01b038216610e4b5760405162461bcd60e51b815260040180806020018281038252602181526020018061116e6021913960400191505060405180910390fd5b6001600160a01b038216600090815260016020526040902054610e6e9082610d2f565b6001600160a01b03831660009081526001602052604081209190915554610e959082610d2f565b60009081556040805183815290516001600160a01b038516917fddf252ad1be2c89b69c2b068fc378daa952ba7f163c4a11628f55a4df523b3ef919081900360200190a35050565b600082610eec575060006104f8565b82820282848281610ef957fe5b0414610d5657600080fd5b6001600160a01b038216610f5f576040805162461bcd60e51b815260206004820152601f60248201527f45524332303a206d696e7420746f20746865207a65726f206164647265737300604482015290519081900360640190fd5b600054610f6c9082610d44565b60009081556001600160a01b038316815260016020526040902054610f919082610d44565b6001600160a01b03831660008181526001602090815260408083209490945583518581529351929391927fddf252ad1be2c89b69c2b068fc378daa952ba7f163c4a11628f55a4df523b3ef9281900390910190a35050565b6001600160a01b03831661102e5760405162461bcd60e51b815260040180806020018281038252602581526020018061118f6025913960400191505060405180910390fd5b6001600160a01b0382166110735760405162461bcd60e51b81526004018080602001828103825260238152602001806111296023913960400191505060405180910390fd5b6001600160a01b0383166000908152600160205260409020546110969082610d2f565b6001600160a01b0380851660009081526001602052604080822093909355908416815220546110c59082610d44565b6001600160a01b0380841660008181526001602090815260409182902094909455805185815290519193928716927fddf252ad1be2c89b69c2b068fc378daa952ba7f163c4a11628f55a4df523b3ef92918290030190a36111238383835b50505056fe45524332303a207472616e7366657220746f20746865207a65726f206164647265737345524332303a20617070726f766520746f20746865207a65726f206164647265737345524332303a206275726e2066726f6d20746865207a65726f206164647265737345524332303a207472616e736665722066726f6d20746865207a65726f206164647265737345524332303a20617070726f76652066726f6d20746865207a65726f2061646472657373a2646970667358221220fb26f835d8094ddfe3de1f54d9260b3a9e8d6461c93056206a23a6cb89c4db0464736f6c6343000706003360806040523480156200001157600080fd5b5060405162001cf538038062001cf58339810160408190526200003491620001cf565b600180546001600160a01b038085166001600160a01b03199283161790925560028054848416921691909117908190556040805163d8dfeb4560e01b81529051919092169163d8dfeb45916004808301926020929190829003018186803b1580156200009f57600080fd5b505afa158015620000b4573d6000803e3d6000fd5b505050506040513d601f19601f82011682018060405250810190620000da9190620001b0565b600380546001600160a01b0319166001600160a01b03928316179081905560025460405163095ea7b360e01b81529183169263095ea7b392620001289290911690600019906004016200020d565b602060405180830381600087803b1580156200014357600080fd5b505af115801562000158573d6000803e3d6000fd5b505050506040513d601f19601f820116820180604052508101906200017e919062000187565b5050506200023f565b60006020828403121562000199578081fd5b81518015158114620001a9578182fd5b9392505050565b600060208284031215620001c2578081fd5b8151620001a98162000226565b60008060408385031215620001e2578081fd5b8251620001ef8162000226565b6020840151909250620002028162000226565b809150509250929050565b6001600160a01b03929092168252602082015260400190565b6001600160a01b03811681146200023c57600080fd5b50565b611aa6806200024f6000396000f3fe608060405234801561001057600080fd5b50600436106100a95760003560e01c806373962620116100715780637396262014610134578063758f779f14610147578063cabae98f1461015a578063d8dfeb451461017a578063defbde9514610182578063e77772fe14610195576100a9565b806331540160146100ae578063363bfc92146100cc5780634185c085146100df5780634c9f66c7146100ff578063677bd9ff14610114575b600080fd5b6100b661019d565b6040516100c39190611934565b60405180910390f35b6100b66100da3660046113a0565b6101a3565b6100f26100ed366004611338565b61046e565b6040516100c391906118ce565b61010761053f565b6040516100c391906115d2565b610127610122366004611338565b61054e565b6040516100c39190611664565b610127610142366004611338565b61078a565b610127610155366004611368565b610960565b61016d610168366004611338565b610b2d565b6040516100c39190611651565b610107610bad565b610127610190366004611368565b610bbc565b610107610d14565b60005490565b60006101b0846002610d23565b6101d55760405162461bcd60e51b81526004016101cc90611871565b60405180910390fd5b85518410156101f65760405162461bcd60e51b81526004016101cc906117b7565b855160021115801561020a57506007865111155b6102265760405162461bcd60e51b81526004016101cc90611814565b84518651146102475760405162461bcd60e51b81526004016101cc906116c5565b66470de4df82000087111561026e5760405162461bcd60e51b81526004016101cc9061166f565b600080546040805160c081018252338152602081018b90528082018890526001600160a01b0387811660608301526001549251632af0f45b60e11b8152939493919260808401929116906355e1e8b6906102ce908c908e90600401611623565b600060405180830381600087803b1580156102e857600080fd5b505af11580156102fc573d6000803e3d6000fd5b505050506040513d6000823e601f3d908101601f1916820160405261032491908101906111fb565b81526000602091820181905283546001818101865594825290829020835160069092020180546001600160a01b039283166001600160a01b03199182161782558484015195820195909555604084015160028201556060840151600382018054919093169516949094179055608082015180519293926103aa9260048501920190611051565b5060a0919091015160059091015560405163318155db60e11b81526001600160a01b03851690636302abb6906103ec9084908b908b908b908a9060040161193d565b600060405180830381600087803b15801561040657600080fd5b505af115801561041a573d6000803e3d6000fd5b50505050887f2c4d919a4805caed2e2fdd9bb8a122413c2a643b61e08b957445484bbbfd8f4f828a8a8a8a8a8a60405161045a97969594939291906119ad565b60405180910390a298975050505050505050565b6104766110b6565b6000828154811061048357fe5b60009182526020918290206040805160c081018252600690930290910180546001600160a01b03908116845260018201548486015260028201548484015260038201541660608401526004810180548351818702810187019094528084529394919360808601939283018282801561052457602002820191906000526020600020905b81546001600160a01b03168152600190910190602001808311610506575b5050505050815260200160058201548152505090505b919050565b6002546001600160a01b031690565b6000806000838154811061055e57fe5b60009182526020909120600360069092020101546040516304c7f03f60e31b81526001600160a01b039091169063263f81f89061059f908690600401611934565b600060405180830381600087803b1580156105b957600080fd5b505af11580156105cd573d6000803e3d6000fd5b505050506040513d6000823e601f3d908101601f191682016040526105f59190810190611294565b905060008151116106185760405162461bcd60e51b81526004016101cc9061178a565b6000805b6000858154811061062957fe5b9060005260206000209060060201600401805490508110156107225761071883828151811061065457fe5b60200260200101516000878154811061066957fe5b9060005260206000209060060201600401838154811061068557fe5b600091825260209091200154604051631c4a5de160e21b81526001600160a01b03909116906371297784906106be9033906004016115d2565b602060405180830381600087803b1580156106d857600080fd5b505af11580156106ec573d6000803e3d6000fd5b505050506040513d601f19601f820116820180604052508101906107109190611350565b849102610d39565b915060010161061c565b5061074984338360018660008151811061073857fe5b602002602001015160001415610d52565b7f7bb2b3c10797baccb6f8c4791f1edd6ca2f0d028ee0eda64b01a9a57e3a653f7846040516107789190611934565b60405180910390a15060019392505050565b6000806000838154811061079a57fe5b60009182526020909120600360069092020101546040516304c7f03f60e31b81526001600160a01b039091169063263f81f8906107db908690600401611934565b600060405180830381600087803b1580156107f557600080fd5b505af1158015610809573d6000803e3d6000fd5b505050506040513d6000823e601f3d908101601f191682016040526108319190810190611294565b905060008151116108545760405162461bcd60e51b81526004016101cc9061178a565b8060008151811061086157fe5b60200260200101516000146108885760405162461bcd60e51b81526004016101cc90611738565b600354600080546001600160a01b039092169163a9059cbb9190869081106108ac57fe5b6000918252602082206006909102015481546001600160a01b039091169190879081106108d557fe5b9060005260206000209060060201600501546040518363ffffffff1660e01b815260040161090492919061160a565b602060405180830381600087803b15801561091e57600080fd5b505af1158015610932573d6000803e3d6000fd5b505050506040513d601f19601f820116820180604052508101906109569190611318565b5060019392505050565b6000806000858154811061097057fe5b60009182526020822060026006909202010154915061098f8583611015565b6003546040516323b872dd60e01b81529192506001600160a01b0316906323b872dd906109c4903390309086906004016115e6565b602060405180830381600087803b1580156109de57600080fd5b505af11580156109f2573d6000803e3d6000fd5b505050506040513d601f19601f82011682018060405250810190610a169190611318565b5060005b60008781548110610a2757fe5b906000526020600020906006020160040180549050811015610ae55760008781548110610a5057fe5b90600052602060002090600602016004018181548110610a6c57fe5b600091825260209091200154604051636012669360e11b81526001600160a01b039091169063c024cd2690610aa79088908a9060040161160a565b600060405180830381600087803b158015610ac157600080fd5b505af1158015610ad5573d6000803e3d6000fd5b505060019092019150610a1a9050565b507f51b2bca5bb2f65b2670950591ce7b54cfc4d99b2db85abfea36b8b92d10ac380868686604051610b199392919061198e565b60405180910390a150600195945050505050565b606060008281548110610b3c57fe5b9060005260206000209060060201600401805480602002602001604051908101604052809291908181526020018280548015610ba157602002820191906000526020600020905b81546001600160a01b03168152600190910190602001808311610b83575b50505050509050919050565b6003546001600160a01b031690565b6000805b60008581548110610bcd57fe5b906000526020600020906006020160040180549050811015610c8b5760008581548110610bf657fe5b90600052602060002090600602016004018181548110610c1257fe5b6000918252602090912001546040516342986e1360e01b81526001600160a01b03909116906342986e1390610c4d903390889060040161160a565b600060405180830381600087803b158015610c6757600080fd5b505af1158015610c7b573d6000803e3d6000fd5b505060019092019150610bc09050565b506000808581548110610c9a57fe5b9060005260206000209060060201600201549050610cce8584610cc6848861101590919063ffffffff16565b600080610d52565b7f2df8f390c89a8c8e8b89875f61085269c64b16b81e7745b844ba42a40a3dde27858533604051610d019392919061198e565b60405180910390a1506001949350505050565b6001546001600160a01b031690565b6000818381610d2e57fe5b061590505b92915050565b600082820183811015610d4b57600080fd5b9392505050565b6000670de0b6b3a7640000610d8e8560008981548110610d6e57fe5b90600052602060002090600602016001015461101590919063ffffffff16565b81610d9557fe5b0490508215610f2d578115610e7357600254600080546001600160a01b039092169163ebdac090919089908110610dc857fe5b90600052602060002090600602016005015483016040518263ffffffff1660e01b8152600401610df89190611934565b602060405180830381600087803b158015610e1257600080fd5b505af1158015610e26573d6000803e3d6000fd5b505050506040513d601f19601f82011682018060405250810190610e4a9190611318565b506000808781548110610e5957fe5b906000526020600020906006020160050181905550610f28565b600354600080546001600160a01b039092169163a9059cbb919089908110610e9757fe5b60009182526020909120600690910201546040516001600160e01b031960e084901b168152610ed4916001600160a01b031690859060040161160a565b602060405180830381600087803b158015610eee57600080fd5b505af1158015610f02573d6000803e3d6000fd5b505050506040513d601f19601f82011682018060405250810190610f269190611318565b505b610f81565b610f5e8160008881548110610f3e57fe5b906000526020600020906006020160050154610d3990919063ffffffff16565b60008781548110610f6b57fe5b9060005260206000209060060201600501819055505b6003546001600160a01b031663a9059cbb86610f9d878561103c565b6040518363ffffffff1660e01b8152600401610fba92919061160a565b602060405180830381600087803b158015610fd457600080fd5b505af1158015610fe8573d6000803e3d6000fd5b505050506040513d601f19601f8201168201806040525081019061100c9190611318565b50505050505050565b60008261102457506000610d33565b8282028284828161103157fe5b0414610d4b57600080fd5b60008282111561104b57600080fd5b50900390565b8280548282559060005260206000209081019282156110a6579160200282015b828111156110a657825182546001600160a01b0319166001600160a01b03909116178255602090920191600190910190611071565b506110b29291506110fe565b5090565b6040518060c0016040528060006001600160a01b03168152602001600081526020016000815260200160006001600160a01b0316815260200160608152602001600081525090565b5b808211156110b257600081556001016110ff565b600067ffffffffffffffff83111561112757fe5b61113a601f8401601f1916602001611a16565b905082815283838301111561114e57600080fd5b828260208301376000602084830101529392505050565b600082601f830112611175578081fd5b8135602061118a61118583611a3a565b611a16565b82815281810190858301838502870184018810156111a6578586fd5b855b858110156111c4578135845292840192908401906001016111a8565b5090979650505050505050565b600082601f8301126111e1578081fd5b610d4b83833560208501611113565b803561053a81611a58565b6000602080838503121561120d578182fd5b825167ffffffffffffffff811115611223578283fd5b8301601f81018513611233578283fd5b805161124161118582611a3a565b818152838101908385018584028501860189101561125d578687fd5b8694505b8385101561128857805161127481611a58565b835260019490940193918501918501611261565b50979650505050505050565b600060208083850312156112a6578182fd5b825167ffffffffffffffff8111156112bc578283fd5b8301601f810185136112cc578283fd5b80516112da61118582611a3a565b81815283810190838501858402850186018910156112f6578687fd5b8694505b838510156112885780518352600194909401939185019185016112fa565b600060208284031215611329578081fd5b81518015158114610d4b578182fd5b600060208284031215611349578081fd5b5035919050565b600060208284031215611361578081fd5b5051919050565b60008060006060848603121561137c578182fd5b8335925060208401359150604084013561139581611a58565b809150509250925092565b600080600080600080600060e0888a0312156113ba578485fd5b873596506020880135955067ffffffffffffffff8060408a013511156113de578586fd5b604089013589018a601f8201126113f3578687fd5b6114006111858235611a3a565b81358152602080820191908301895b8435811015611454578e603f833587010112611429578a8bfd5b61143f8f83358701602081013590604001611113565b8452602093840193919091019060010161140f565b50508098505050508060608a0135111561146c578384fd5b61147c8a60608b01358b01611165565b94506080890135935061149160a08a016111f0565b92508060c08a013511156114a3578182fd5b506114b48960c08a01358a016111d1565b905092959891949750929550565b6000815180845260208085019450808401835b838110156114f1578151875295820195908201906001016114d5565b509495945050505050565b6000815180845260208085019450808401835b838110156114f15781516001600160a01b03168752958201959082019060010161150f565b6000815180845260208085018081965082840281019150828601855b8581101561157a578284038952611568848351611587565b98850198935090840190600101611550565b5091979650505050505050565b60008151808452815b818110156115ac57602081850181015186830182015201611590565b818111156115bd5782602083870101525b50601f01601f19169290920160200192915050565b6001600160a01b0391909116815260200190565b6001600160a01b039384168152919092166020820152604081019190915260600190565b6001600160a01b03929092168252602082015260400190565b60006040825261163660408301856114c2565b82810360208401526116488185611534565b95945050505050565b600060208252610d4b60208301846114fc565b901515815260200190565b60208082526036908201527f547572626f48617463686572792e637265617465547572626f3a206d61726b656040820152750e840c6e4cac2e8dee440cccaca40e8dede40d0d2ced60531b606082015260800190565b6020808252604d908201527f547572626f48617463686572792e637265617465547572626f3a206f7574636f60408201527f6d65206e616d657320616e64206f7574636f6d652073796d626f6c732064696660608201526c0cccae440d2dc40d8cadccee8d609b1b608082015260a00190565b60208082526032908201527f43616e206f6e6c792077697468647261772063726561746f72206665657320666040820152711c9bdb4818481d985b1a59081b585c9ad95d60721b606082015260800190565b6020808252601390820152721b585c9ad95d081b9bdd081c995cdbdb1d9959606a1b604082015260600190565b6020808252603a908201527f547572626f48617463686572792e637265617465547572626f3a206e756d546960408201527f636b73206c6f776572207468616e206e756d4f7574636f6d6573000000000000606082015260800190565b6020808252603f908201527f547572626f48617463686572792e637265617465547572626f3a204e756d626560408201527f72206f66206f7574636f6d6573206973206e6f742061636365707461626c6500606082015260800190565b60208082526039908201527f547572626f48617463686572792e637265617465547572626f3a206e756d546960408201527f636b73206d757374206265206d756c7469706c65206f66203200000000000000606082015260800190565b60006020825260018060a01b03808451166020840152602084015160408401526040840151606084015280606085015116608084015250608083015160c060a084015261191e60e08401826114fc565b905060a084015160c08401528091505092915050565b90815260200190565b600086825260a0602083015261195660a0830187611534565b828103604084015261196881876114c2565b905084606084015282810360808401526119828185611587565b98975050505050505050565b92835260208301919091526001600160a01b0316604082015260600190565b600088825287602083015260e060408301526119cc60e0830188611534565b82810360608401526119de81886114c2565b608084018790526001600160a01b03861660a085015283810360c08501529050611a088185611587565b9a9950505050505050505050565b60405181810167ffffffffffffffff81118282101715611a3257fe5b604052919050565b600067ffffffffffffffff821115611a4e57fe5b5060209081020190565b6001600160a01b0381168114611a6d57600080fd5b5056fea264697066735822122001cbfdd2495b7334f6b7e02f7b65cad3627c5355a17a699ffd3455fa789d1fcc64736f6c63430007060033a26469706673582212206b72a54387da9d394cf2d0ac10db42572d4813f3e6334bc65c478ea28e22e29564736f6c63430007060033",
  "linkReferences": {},
  "deployedLinkReferences": {}
}