{
  "address": "0x50dDC14AcA80Cf613c323c25d5f3DEF2c546f0da",
  "abi": [
    {
      "inputs": [
        {
          "internalType": "address",
          "name": "_owner",
          "type": "address"
        },
        {
          "internalType": "contract IERC20Full",
          "name": "_collateral",
          "type": "address"
        },
        {
          "internalType": "uint256",
          "name": "_shareFactor",
          "type": "uint256"
        },
        {
          "internalType": "contract FeePot",
          "name": "_feePot",
          "type": "address"
        },
        {
          "internalType": "uint256",
          "name": "_stakerFee",
          "type": "uint256"
        },
        {
          "internalType": "uint256",
          "name": "_settlementFee",
          "type": "uint256"
        },
        {
          "internalType": "address",
          "name": "_protocol",
          "type": "address"
        },
        {
          "internalType": "uint256",
          "name": "_protocolFee",
          "type": "uint256"
        },
        {
          "internalType": "address",
          "name": "_linkNode",
          "type": "address"
        },
        {
          "internalType": "uint256",
          "name": "_firstResolutionTime",
          "type": "uint256"
        }
      ],
      "stateMutability": "nonpayable",
      "type": "constructor"
    },
    {
      "anonymous": false,
      "inputs": [
        {
          "indexed": false,
          "internalType": "uint256",
          "name": "id",
          "type": "uint256"
        },
        {
          "indexed": false,
          "internalType": "address",
          "name": "creator",
          "type": "address"
        },
        {
          "indexed": true,
          "internalType": "uint256",
          "name": "endTime",
          "type": "uint256"
        },
        {
          "indexed": false,
          "internalType": "enum CryptoMarketFactory.MarketType",
          "name": "marketType",
          "type": "uint8"
        },
        {
          "indexed": true,
          "internalType": "uint256",
          "name": "coinIndex",
          "type": "uint256"
        },
        {
          "indexed": false,
          "internalType": "uint256",
          "name": "price",
          "type": "uint256"
        }
      ],
      "name": "MarketCreated",
      "type": "event"
    },
    {
      "anonymous": false,
      "inputs": [
        {
          "indexed": false,
          "internalType": "uint256",
          "name": "id",
          "type": "uint256"
        },
        {
          "indexed": false,
          "internalType": "address",
          "name": "winner",
          "type": "address"
        }
      ],
      "name": "MarketResolved",
      "type": "event"
    },
    {
      "anonymous": false,
      "inputs": [
        {
          "indexed": false,
          "internalType": "address",
          "name": "protocol",
          "type": "address"
        }
      ],
      "name": "ProtocolChanged",
      "type": "event"
    },
    {
      "anonymous": false,
      "inputs": [
        {
          "indexed": false,
          "internalType": "uint256",
          "name": "fee",
          "type": "uint256"
        }
      ],
      "name": "ProtocolFeeChanged",
      "type": "event"
    },
    {
      "anonymous": false,
      "inputs": [
        {
          "indexed": false,
          "internalType": "address",
          "name": "protocol",
          "type": "address"
        },
        {
          "indexed": false,
          "internalType": "uint256",
          "name": "amount",
          "type": "uint256"
        }
      ],
      "name": "ProtocolFeeClaimed",
      "type": "event"
    },
    {
      "anonymous": false,
      "inputs": [
        {
          "indexed": false,
          "internalType": "uint256",
          "name": "fee",
          "type": "uint256"
        }
      ],
      "name": "SettlementFeeChanged",
      "type": "event"
    },
    {
      "anonymous": false,
      "inputs": [
        {
          "indexed": false,
          "internalType": "address",
          "name": "settlementAddress",
          "type": "address"
        },
        {
          "indexed": false,
          "internalType": "uint256",
          "name": "amount",
          "type": "uint256"
        },
        {
          "indexed": true,
          "internalType": "address",
          "name": "receiver",
          "type": "address"
        }
      ],
      "name": "SettlementFeeClaimed",
      "type": "event"
    },
    {
      "anonymous": false,
      "inputs": [
        {
          "indexed": false,
          "internalType": "uint256",
          "name": "id",
          "type": "uint256"
        },
        {
          "indexed": false,
          "internalType": "uint256",
          "name": "amount",
          "type": "uint256"
        },
        {
          "indexed": false,
          "internalType": "address",
          "name": "receiver",
          "type": "address"
        }
      ],
      "name": "SharesBurned",
      "type": "event"
    },
    {
      "anonymous": false,
      "inputs": [
        {
          "indexed": false,
          "internalType": "uint256",
          "name": "id",
          "type": "uint256"
        },
        {
          "indexed": false,
          "internalType": "uint256",
          "name": "amount",
          "type": "uint256"
        },
        {
          "indexed": false,
          "internalType": "address",
          "name": "receiver",
          "type": "address"
        }
      ],
      "name": "SharesMinted",
      "type": "event"
    },
    {
      "anonymous": false,
      "inputs": [
        {
          "indexed": false,
          "internalType": "uint256",
          "name": "fee",
          "type": "uint256"
        }
      ],
      "name": "StakerFeeChanged",
      "type": "event"
    },
    {
      "anonymous": false,
      "inputs": [
        {
          "indexed": false,
          "internalType": "uint256",
          "name": "id",
          "type": "uint256"
        },
        {
          "indexed": false,
          "internalType": "address",
          "name": "winningOutcome",
          "type": "address"
        },
        {
          "indexed": false,
          "internalType": "uint256",
          "name": "amount",
          "type": "uint256"
        },
        {
          "indexed": false,
          "internalType": "uint256",
          "name": "settlementFee",
          "type": "uint256"
        },
        {
          "indexed": false,
          "internalType": "uint256",
          "name": "payout",
          "type": "uint256"
        },
        {
          "indexed": true,
          "internalType": "address",
          "name": "receiver",
          "type": "address"
        }
      ],
      "name": "WinningsClaimed",
      "type": "event"
    },
    {
      "inputs": [],
      "name": "accumulatedProtocolFee",
      "outputs": [
        {
          "internalType": "uint256",
          "name": "",
          "type": "uint256"
        }
      ],
      "stateMutability": "view",
      "type": "function"
    },
    {
      "inputs": [
        {
          "internalType": "address",
          "name": "",
          "type": "address"
        }
      ],
      "name": "accumulatedSettlementFees",
      "outputs": [
        {
          "internalType": "uint256",
          "name": "",
          "type": "uint256"
        }
      ],
      "stateMutability": "view",
      "type": "function"
    },
    {
      "inputs": [
        {
          "internalType": "string",
          "name": "_name",
          "type": "string"
        },
        {
          "internalType": "contract AggregatorV3Interface",
          "name": "_priceFeed",
          "type": "address"
        },
        {
          "internalType": "uint8",
          "name": "_imprecision",
          "type": "uint8"
        }
      ],
      "name": "addCoin",
      "outputs": [
        {
          "internalType": "uint256",
          "name": "_coinIndex",
          "type": "uint256"
        }
      ],
      "stateMutability": "nonpayable",
      "type": "function"
    },
    {
      "inputs": [
        {
          "internalType": "uint256",
          "name": "_id",
          "type": "uint256"
        },
        {
          "internalType": "uint256",
          "name": "_sharesToBurn",
          "type": "uint256"
        },
        {
          "internalType": "address",
          "name": "_receiver",
          "type": "address"
        }
      ],
      "name": "burnShares",
      "outputs": [
        {
          "internalType": "uint256",
          "name": "",
          "type": "uint256"
        }
      ],
      "stateMutability": "nonpayable",
      "type": "function"
    },
    {
      "inputs": [
        {
          "internalType": "uint256",
          "name": "_shares",
          "type": "uint256"
        }
      ],
      "name": "calcCost",
      "outputs": [
        {
          "internalType": "uint256",
          "name": "",
          "type": "uint256"
        }
      ],
      "stateMutability": "view",
      "type": "function"
    },
    {
      "inputs": [
        {
          "internalType": "uint256",
          "name": "_collateralIn",
          "type": "uint256"
        }
      ],
      "name": "calcShares",
      "outputs": [
        {
          "internalType": "uint256",
          "name": "",
          "type": "uint256"
        }
      ],
      "stateMutability": "view",
      "type": "function"
    },
    {
      "inputs": [
        {
          "internalType": "uint256[]",
          "name": "_ids",
          "type": "uint256[]"
        },
        {
          "internalType": "address",
          "name": "_receiver",
          "type": "address"
        }
      ],
      "name": "claimManyWinnings",
      "outputs": [
        {
          "internalType": "uint256",
          "name": "",
          "type": "uint256"
        }
      ],
      "stateMutability": "nonpayable",
      "type": "function"
    },
    {
      "inputs": [],
      "name": "claimProtocolFees",
      "outputs": [
        {
          "internalType": "uint256",
          "name": "",
          "type": "uint256"
        }
      ],
      "stateMutability": "nonpayable",
      "type": "function"
    },
    {
      "inputs": [
        {
          "internalType": "address",
          "name": "_receiver",
          "type": "address"
        }
      ],
      "name": "claimSettlementFees",
      "outputs": [
        {
          "internalType": "uint256",
          "name": "",
          "type": "uint256"
        }
      ],
      "stateMutability": "nonpayable",
      "type": "function"
    },
    {
      "inputs": [
        {
          "internalType": "uint256",
          "name": "_id",
          "type": "uint256"
        },
        {
          "internalType": "address",
          "name": "_receiver",
          "type": "address"
        }
      ],
      "name": "claimWinnings",
      "outputs": [
        {
          "internalType": "uint256",
          "name": "",
          "type": "uint256"
        }
      ],
      "stateMutability": "nonpayable",
      "type": "function"
    },
    {
      "inputs": [
        {
          "internalType": "uint256",
          "name": "",
          "type": "uint256"
        }
      ],
      "name": "coins",
      "outputs": [
        {
          "internalType": "string",
          "name": "name",
          "type": "string"
        },
        {
          "internalType": "contract AggregatorV3Interface",
          "name": "priceFeed",
          "type": "address"
        },
        {
          "internalType": "uint256",
          "name": "price",
          "type": "uint256"
        },
        {
          "internalType": "uint8",
          "name": "imprecision",
          "type": "uint8"
        }
      ],
      "stateMutability": "view",
      "type": "function"
    },
    {
      "inputs": [],
      "name": "collateral",
      "outputs": [
        {
          "internalType": "contract IERC20Full",
          "name": "",
          "type": "address"
        }
      ],
      "stateMutability": "view",
      "type": "function"
    },
    {
      "inputs": [
        {
          "internalType": "uint256",
          "name": "_nextResolutionTime",
          "type": "uint256"
        }
      ],
      "name": "createAndResolveMarkets",
      "outputs": [],
      "stateMutability": "nonpayable",
      "type": "function"
    },
    {
      "inputs": [],
      "name": "feePot",
      "outputs": [
        {
          "internalType": "contract FeePot",
          "name": "",
          "type": "address"
        }
      ],
      "stateMutability": "view",
      "type": "function"
    },
    {
      "inputs": [
        {
          "internalType": "uint256",
          "name": "_coinIndex",
          "type": "uint256"
        }
      ],
      "name": "getCoin",
      "outputs": [
        {
          "components": [
            {
              "internalType": "string",
              "name": "name",
              "type": "string"
            },
            {
              "internalType": "contract AggregatorV3Interface",
              "name": "priceFeed",
              "type": "address"
            },
            {
              "internalType": "uint256",
              "name": "price",
              "type": "uint256"
            },
            {
              "internalType": "uint8",
              "name": "imprecision",
              "type": "uint8"
            },
            {
              "internalType": "uint256[1]",
              "name": "currentMarkets",
              "type": "uint256[1]"
            }
          ],
          "internalType": "struct CryptoMarketFactory.Coin",
          "name": "_coin",
          "type": "tuple"
        }
      ],
      "stateMutability": "view",
      "type": "function"
    },
    {
      "inputs": [],
      "name": "getCoins",
      "outputs": [
        {
          "components": [
            {
              "internalType": "string",
              "name": "name",
              "type": "string"
            },
            {
              "internalType": "contract AggregatorV3Interface",
              "name": "priceFeed",
              "type": "address"
            },
            {
              "internalType": "uint256",
              "name": "price",
              "type": "uint256"
            },
            {
              "internalType": "uint8",
              "name": "imprecision",
              "type": "uint8"
            },
            {
              "internalType": "uint256[1]",
              "name": "currentMarkets",
              "type": "uint256[1]"
            }
          ],
          "internalType": "struct CryptoMarketFactory.Coin[]",
          "name": "_coins",
          "type": "tuple[]"
        }
      ],
      "stateMutability": "view",
      "type": "function"
    },
    {
      "inputs": [
        {
          "internalType": "uint256",
          "name": "_id",
          "type": "uint256"
        }
      ],
      "name": "getMarket",
      "outputs": [
        {
          "components": [
            {
              "internalType": "address",
              "name": "settlementAddress",
              "type": "address"
            },
            {
              "internalType": "contract OwnedERC20[]",
              "name": "shareTokens",
              "type": "address[]"
            },
            {
              "internalType": "uint256",
              "name": "endTime",
              "type": "uint256"
            },
            {
              "internalType": "contract OwnedERC20",
              "name": "winner",
              "type": "address"
            },
            {
              "internalType": "uint256",
              "name": "settlementFee",
              "type": "uint256"
            },
            {
              "internalType": "uint256",
              "name": "protocolFee",
              "type": "uint256"
            },
            {
              "internalType": "uint256",
              "name": "stakerFee",
              "type": "uint256"
            },
            {
              "internalType": "uint256",
              "name": "creationTimestamp",
              "type": "uint256"
            },
            {
              "internalType": "uint256[]",
              "name": "initialOdds",
              "type": "uint256[]"
            }
          ],
          "internalType": "struct AbstractMarketFactoryV2.Market",
          "name": "",
          "type": "tuple"
        }
      ],
      "stateMutability": "view",
      "type": "function"
    },
    {
      "inputs": [
        {
          "internalType": "uint256",
          "name": "_marketId",
          "type": "uint256"
        }
      ],
      "name": "getMarketDetails",
      "outputs": [
        {
          "components": [
            {
              "internalType": "enum CryptoMarketFactory.MarketType",
              "name": "marketType",
              "type": "uint8"
            },
            {
              "internalType": "uint256",
              "name": "coinIndex",
              "type": "uint256"
            },
            {
              "internalType": "uint256",
              "name": "creationPrice",
              "type": "uint256"
            },
            {
              "internalType": "uint256",
              "name": "resolutionPrice",
              "type": "uint256"
            }
          ],
          "internalType": "struct CryptoMarketFactory.MarketDetails",
          "name": "",
          "type": "tuple"
        }
      ],
      "stateMutability": "view",
      "type": "function"
    },
    {
      "inputs": [],
      "name": "getOwner",
      "outputs": [
        {
          "internalType": "address",
          "name": "",
          "type": "address"
        }
      ],
      "stateMutability": "view",
      "type": "function"
    },
    {
      "inputs": [
        {
          "internalType": "uint256",
          "name": "_id",
          "type": "uint256"
        }
      ],
      "name": "isMarketResolved",
      "outputs": [
        {
          "internalType": "bool",
          "name": "",
          "type": "bool"
        }
      ],
      "stateMutability": "view",
      "type": "function"
    },
    {
      "inputs": [],
      "name": "linkNode",
      "outputs": [
        {
          "internalType": "address",
          "name": "",
          "type": "address"
        }
      ],
      "stateMutability": "view",
      "type": "function"
    },
    {
      "inputs": [],
      "name": "listUnresolvedMarkets",
      "outputs": [
        {
          "internalType": "uint256[]",
          "name": "",
          "type": "uint256[]"
        }
      ],
      "stateMutability": "view",
      "type": "function"
    },
    {
      "inputs": [],
      "name": "marketCount",
      "outputs": [
        {
          "internalType": "uint256",
          "name": "",
          "type": "uint256"
        }
      ],
      "stateMutability": "view",
      "type": "function"
    },
    {
      "inputs": [
        {
          "internalType": "uint256",
          "name": "_id",
          "type": "uint256"
        },
        {
          "internalType": "uint256",
          "name": "_shareToMint",
          "type": "uint256"
        },
        {
          "internalType": "address",
          "name": "_receiver",
          "type": "address"
        }
      ],
      "name": "mintShares",
      "outputs": [],
      "stateMutability": "nonpayable",
      "type": "function"
    },
    {
      "inputs": [],
      "name": "nextResolutionTime",
      "outputs": [
        {
          "internalType": "uint256",
          "name": "",
          "type": "uint256"
        }
      ],
      "stateMutability": "view",
      "type": "function"
    },
    {
      "inputs": [],
      "name": "protocol",
      "outputs": [
        {
          "internalType": "address",
          "name": "",
          "type": "address"
        }
      ],
      "stateMutability": "view",
      "type": "function"
    },
    {
      "inputs": [],
      "name": "protocolFee",
      "outputs": [
        {
          "internalType": "uint256",
          "name": "",
          "type": "uint256"
        }
      ],
      "stateMutability": "view",
      "type": "function"
    },
    {
      "inputs": [
        {
          "internalType": "uint256",
          "name": "",
          "type": "uint256"
        }
      ],
      "name": "resolveMarket",
      "outputs": [],
      "stateMutability": "pure",
      "type": "function"
    },
    {
      "inputs": [
        {
          "internalType": "address",
          "name": "_newProtocol",
          "type": "address"
        },
        {
          "internalType": "bool",
          "name": "_claimFirst",
          "type": "bool"
        }
      ],
      "name": "setProtocol",
      "outputs": [],
      "stateMutability": "nonpayable",
      "type": "function"
    },
    {
      "inputs": [
        {
          "internalType": "uint256",
          "name": "_newFee",
          "type": "uint256"
        }
      ],
      "name": "setProtocolFee",
      "outputs": [],
      "stateMutability": "nonpayable",
      "type": "function"
    },
    {
      "inputs": [
        {
          "internalType": "uint256",
          "name": "_newFee",
          "type": "uint256"
        }
      ],
      "name": "setSettlementFee",
      "outputs": [],
      "stateMutability": "nonpayable",
      "type": "function"
    },
    {
      "inputs": [
        {
          "internalType": "uint256",
          "name": "_newFee",
          "type": "uint256"
        }
      ],
      "name": "setStakerFee",
      "outputs": [],
      "stateMutability": "nonpayable",
      "type": "function"
    },
    {
      "inputs": [],
      "name": "settlementFee",
      "outputs": [
        {
          "internalType": "uint256",
          "name": "",
          "type": "uint256"
        }
      ],
      "stateMutability": "view",
      "type": "function"
    },
    {
      "inputs": [],
      "name": "shareFactor",
      "outputs": [
        {
          "internalType": "uint256",
          "name": "",
          "type": "uint256"
        }
      ],
      "stateMutability": "view",
      "type": "function"
    },
    {
      "inputs": [],
      "name": "stakerFee",
      "outputs": [
        {
          "internalType": "uint256",
          "name": "",
          "type": "uint256"
        }
      ],
      "stateMutability": "view",
      "type": "function"
    },
    {
      "inputs": [
        {
          "internalType": "address",
          "name": "_newOwner",
          "type": "address"
        }
      ],
      "name": "transferOwnership",
      "outputs": [
        {
          "internalType": "bool",
          "name": "",
          "type": "bool"
        }
      ],
      "stateMutability": "nonpayable",
      "type": "function"
    }
  ],
  "transactionHash": "0xc2e6ab6de457e57b05842c72b9606bb7447c3e98d90226d3ec14f33532ca5c35",
  "args": [
    "0xDb61C1457e838c08ebd57AC60834628c1c5B902A",
    "0x2791Bca1f2de4661ED88A30C99A7a9449Aa84174",
    "1000000000000",
    "0x7E9614DF620da5351b36465a7C5D06263a2e1716",
    0,
    "500000000000000",
    "0x0000000000000000000000000000000000000000",
    0,
    "0x6FBD37365bac1fC61EAb2b35ba4024B32b136be6",
    1628280000000
  ],
  "solcInputHash": "f49cb27a798ab781a7f4a911c950e5fd",
  "bytecode": "0x608060405260006007553480156200001657600080fd5b506040516200630338038062006303833981016040819052620000399162000747565b600080546001600160a01b03808d166001600160a01b0319928316331783161790925560018054838d16908316811790915560098b905560028054848c1690841617905560038990556004888155600680549489169490931693909317909155600585905560405163095ea7b360e01b81528c928c928c928c928c928c928c928c929163095ea7b391620000d4918991600019910162000870565b602060405180830381600087803b158015620000ef57600080fd5b505af115801562000104573d6000803e3d6000fd5b505050506040513d601f19601f820116820180604052508101906200012a9190620007f9565b506200013562000228565b5050600d80546001600160a01b0319166001600160a01b038a16179055505050600e849055505060408051602081019091526000808252909150600b90620001809083908062000351565b81546001810183556000928352602092839020825180519394600590930290910192620001b192849201906200050a565b506020820151600182810180546001600160a01b0319166001600160a01b039093169290921790915560408301516002830155606083015160038301805460ff191660ff909216919091179055608083015162000214916004840191906200059f565b5050505050505050505050505050620008e4565b604080516000808252602082019092528162000255565b60608152602001906001900390816200023f5790505b506040805160008082526020820190925291925050600a6200027c6000848082866200039d565b8154600180820184556000938452602093849020835160099093020180546001600160a01b0319166001600160a01b0390931692909217825582840151805193949293620002d393928501929190910190620005cf565b506040820151600282015560608201516003820180546001600160a01b0319166001600160a01b039092169190911790556080820151600482015560a0820151600582015560c0820151600682015560e0820151600782015561010082015180516200034a91600884019160209091019062000627565b5050505050565b6200035b62000664565b5060408051602080820183526000808352835160a0810185529687526001600160a01b03909516908601529084019290925260ff166060830152608082015290565b620003a7620006a6565b604051806101200160405280876001600160a01b03168152602001620003d58787306200041560201b60201c565b81526020810194909452600060408501526004546060850152600554608085015260035460a08501524260c085015260e090930191909152509392505050565b82516060906000816001600160401b03811180156200043357600080fd5b506040519080825280602002602001820160405280156200045e578160200160208202803683370190505b50905060005b8281101562000500578681815181106200047a57fe5b60200260200101518682815181106200048f57fe5b602002602001015186604051620004a69062000704565b620004b49392919062000889565b604051809103906000f080158015620004d1573d6000803e3d6000fd5b50828281518110620004df57fe5b6001600160a01b039092166020928302919091019091015260010162000464565b5095945050505050565b828054600181600116156101000203166002900490600052602060002090601f0160209004810192826200054257600085556200058d565b82601f106200055d57805160ff19168380011785556200058d565b828001600101855582156200058d579182015b828111156200058d57825182559160200191906001019062000570565b506200059b92915062000712565b5090565b82600181019282156200058d57916020028201828111156200058d57825182559160200191906001019062000570565b8280548282559060005260206000209081019282156200058d579160200282015b828111156200058d57825182546001600160a01b0319166001600160a01b03909116178255602090920191600190910190620005f0565b8280548282559060005260206000209081019282156200058d57916020028201828111156200058d57825182559160200191906001019062000570565b6040518060a001604052806060815260200160006001600160a01b0316815260200160008152602001600060ff168152602001620006a162000729565b905290565b60405180610120016040528060006001600160a01b03168152602001606081526020016000815260200160006001600160a01b0316815260200160008152602001600081526020016000815260200160008152602001606081525090565b6111f3806200511083390190565b5b808211156200059b576000815560010162000713565b60405180602001604052806001906020820280368337509192915050565b6000806000806000806000806000806101408b8d03121562000767578586fd5b8a516200077481620008cb565b60208c0151909a506200078781620008cb565b60408c015160608d0151919a509850620007a181620008cb565b8097505060808b0151955060a08b0151945060c08b0151620007c381620008cb565b60e08c01516101008d01519195509350620007de81620008cb565b809250506101208b015190509295989b9194979a5092959850565b6000602082840312156200080b578081fd5b815180151581146200081b578182fd5b9392505050565b60008151808452815b8181101562000849576020818501810151868301820152016200082b565b818111156200085b5782602083870101525b50601f01601f19169290920160200192915050565b6001600160a01b03929092168252602082015260400190565b6000606082526200089e606083018662000822565b8281036020840152620008b2818662000822565b91505060018060a01b0383166040830152949350505050565b6001600160a01b0381168114620008e157600080fd5b50565b61481c80620008f46000396000f3fe60806040523480156200001157600080fd5b5060043610620002505760003560e01c806390cb4dce1162000141578063d5da4f1d11620000bd578063da4d6eff1162000087578063da4d6eff14620004ee578063e5678dfa1462000505578063eb44fdd3146200051c578063ec9790821462000542578063f2fde38b146200054c5762000250565b8063d5da4f1d146200048e578063d8dfeb4514620004a5578063d9113f0d14620004af578063da31158814620004c85762000250565b8063b06c1ba3116200010b578063b06c1ba31462000414578063b0e21e8a146200043a578063c66106571462000444578063cc87adea146200046d578063d4b6838e14620004845762000250565b806390cb4dce14620003d257806397eef18714620003dc578063992c907914620003f3578063a544a62c146200040a5762000250565b80634c9f66c711620001d1578063787dce3d116200019b578063787dce3d14620003865780637d1d7fb8146200039d578063893d20e814620003a75780638ce7442614620003b15780638e0ed19314620003bb5762000250565b80634c9f66c7146200032657806353ac55f5146200033f5780636399d03d14620003655780637641ab01146200037c5762000250565b806335a9cdad116200021f57806335a9cdad14620002cd578063473a6d5214620002e457806349a4d93414620002fb5780634a7d036914620003125780634b2d9ffc146200031c5762000250565b806313c390ef1462000255578063221fff8114620002775780632cfcfa3a146200029057806332ecabe914620002b6575b600080fd5b6200025f62000563565b6040516200026e9190620030d7565b60405180910390f35b6200028e6200028836600462002e80565b6200071a565b005b620002a7620002a136600462002d8f565b62000a46565b6040516200026e91906200351f565b6200028e620002c736600462002c69565b62000b76565b620002a7620002de36600462002e80565b62000bfa565b620002a7620002f536600462002e27565b62001029565b620002a76200030c36600462002c4a565b6200107c565b620002a76200108e565b620002a7620011b6565b62000330620011bc565b6040516200026e919062003086565b620003566200035036600462002e27565b620011cb565b6040516200026e919062003150565b6200028e6200037636600462002e27565b6200133b565b620002a762001358565b6200028e6200039736600462002e27565b6200135e565b620002a7620013b8565b62000330620013be565b62000330620013cd565b620002a7620003cc36600462002c4a565b620013dc565b620002a7620014dd565b6200028e620003ed36600462002e27565b620014e3565b620002a76200040436600462002e59565b62001532565b620002a76200188c565b6200042b6200042536600462002e27565b62001892565b6040516200026e91906200343e565b620002a7620018f6565b6200045b6200045536600462002e27565b620018fc565b6040516200026e94939291906200315b565b620002a76200047e36600462002e27565b620019d5565b62000330620019dc565b6200028e6200049f36600462002e27565b620019eb565b6200033062001a3a565b620004b962001a49565b6040516200026e91906200313b565b620004df620004d936600462002e27565b62001b22565b6040516200026e919062003429565b6200028e620004ff36600462002e27565b62001c59565b620002a76200051636600462002ca6565b62001ce2565b620005336200052d36600462002e27565b62001d30565b6040516200026e919062003477565b620002a762001f08565b620003566200055d36600462002c4a565b62001f0e565b600b5460609067ffffffffffffffff811180156200058057600080fd5b50604051908082528060200260200182016040528015620005be57816020015b620005aa620029c0565b815260200190600190039081620005a05790505b50905060015b600b548110156200071657600b8181548110620005dd57fe5b600091825260209182902060408051600593909302909101805460026001821615610100026000190190911604601f8101859004909402830160c090810190925260a0830184815292939092849290918491840182828015620006845780601f10620006585761010080835404028352916020019162000684565b820191906000526020600020905b8154815290600101906020018083116200066657829003601f168201915b50505091835250506001828101546001600160a01b03166020808401919091526002840154604080850191909152600385015460ff1660608501528051918201908190526080909301929091600485019182845b815481526020019060010190808311620006d8575050505050815250508282815181106200070257fe5b6020908102919091010152600101620005c4565b5090565b600a548310620007475760405162461bcd60e51b81526004016200073e9062003307565b60405180910390fd5b6200075283620011cb565b15620007725760405162461bcd60e51b81526004016200073e9062003366565b60006200077f8362001029565b6001546040516323b872dd60e01b81529192506001600160a01b0316906323b872dd90620007b6903390309086906004016200309a565b602060405180830381600087803b158015620007d157600080fd5b505af1158015620007e6573d6000803e3d6000fd5b505050506040513d601f19601f820116820180604052508101906200080c919062002d70565b506000600a85815481106200081d57fe5b60009182526020918290206040805161012081018252600990930290910180546001600160a01b03168352600181018054835181870281018701909452808452939491938583019392830182828015620008a157602002820191906000526020600020905b81546001600160a01b0316815260019091019060200180831162000882575b50505050508152602001600282015481526020016003820160009054906101000a90046001600160a01b03166001600160a01b03166001600160a01b0316815260200160048201548152602001600582015481526020016006820154815260200160078201548152602001600882018054806020026020016040519081016040528092919081815260200182805480156200095c57602002820191906000526020600020905b81548152602001906001019080831162000947575b505050505081525050905060005b81602001515181101562000a0157816020015181815181106200098957fe5b60200260200101516001600160a01b031663c024cd2685876040518363ffffffff1660e01b8152600401620009c0929190620030be565b600060405180830381600087803b158015620009db57600080fd5b505af1158015620009f0573d6000803e3d6000fd5b5050600190920191506200096a9050565b507fd81c0442e10068a9818f3aa093c9ccb804584690df572d7df3da2d892a6973f285858560405162000a37939291906200359f565b60405180910390a15050505050565b600080546001600160a01b0316331462000a5f57600080fd5b600062000aa686868080601f01602080910402602001604051908101604052809392919081815260200183838082843760009201919091525088925087915062001f789050565b600b80546001810182556000919091528151805191945091925082917f0175b7a638427703f0dbe7bb9bbf987a2551717b34e79f33b5b1008d1fa01db960058602019162000afc91839160209091019062002a02565b506020820151600182810180546001600160a01b0319166001600160a01b039093169290921790915560408301516002830155606083015160038301805460ff191660ff909216919091179055608083015162000b5f9160048401919062002a93565b50505062000b6d8262001fc4565b50949350505050565b6000546001600160a01b0316331462000b8e57600080fd5b801562000ba15762000b9f6200108e565b505b600680546001600160a01b0319166001600160a01b0384161790556040517f15b84596b3c567ae2998116949ae5f2d47f3055c12d9053db4d6e50f4c794dd99062000bee90849062003086565b60405180910390a15050565b600a54600090841062000c215760405162461bcd60e51b81526004016200073e9062003307565b62000c2c84620011cb565b1562000c4c5760405162461bcd60e51b81526004016200073e90620033e3565b6000600a858154811062000c5c57fe5b60009182526020918290206040805161012081018252600990930290910180546001600160a01b0316835260018101805483518187028101870190945280845293949193858301939283018282801562000ce057602002820191906000526020600020905b81546001600160a01b0316815260019091019060200180831162000cc1575b50505050508152602001600282015481526020016003820160009054906101000a90046001600160a01b03166001600160a01b03166001600160a01b03168152602001600482015481526020016005820154815260200160068201548152602001600782015481526020016008820180548060200260200160405190810160405280929190818152602001828054801562000d9b57602002820191906000526020600020905b81548152602001906001019080831162000d86575b505050505081525050905060005b81602001515181101562000e40578160200151818151811062000dc857fe5b60200260200101516001600160a01b03166342986e1333876040518363ffffffff1660e01b815260040162000dff929190620030be565b600060405180830381600087803b15801562000e1a57600080fd5b505af115801562000e2f573d6000803e3d6000fd5b50506001909201915062000da99050565b50600062000e4e8562001029565b9050600062000e7f670de0b6b3a764000062000e788560a00151856200219190919063ffffffff16565b90620021c3565b9050600062000ea9670de0b6b3a764000062000e788660c00151866200219190919063ffffffff16565b905062000ec38162000ebc8585620021d9565b90620021d9565b600780548401905560015460405163a9059cbb60e01b81529194506001600160a01b03169063a9059cbb9062000f009089908790600401620030be565b602060405180830381600087803b15801562000f1b57600080fd5b505af115801562000f30573d6000803e3d6000fd5b505050506040513d601f19601f8201168201806040525081019062000f56919062002d70565b50600254604051630ebdac0960e41b81526001600160a01b039091169063ebdac0909062000f899084906004016200351f565b602060405180830381600087803b15801562000fa457600080fd5b505af115801562000fb9573d6000803e3d6000fd5b505050506040513d601f19601f8201168201806040525081019062000fdf919062002d70565b507fb6fdb729b2ed801daf629f0ab713e4a7a73619505790f6f27fd92d6f2c9688d788883360405162001015939291906200359f565b60405180910390a150909695505050505050565b6000600954821015801562001048575060095482816200104557fe5b06155b620010675760405162461bcd60e51b81526004016200073e906200321e565b60095482816200107357fe5b0490505b919050565b60086020526000908152604090205481565b6006546000906001600160a01b0316331480620010aa57503330145b620010c95760405162461bcd60e51b81526004016200073e90620031da565b6007548015620011b157600060075560015460065460405163a9059cbb60e01b81526001600160a01b039283169263a9059cbb9262001110929116908590600401620030be565b602060405180830381600087803b1580156200112b57600080fd5b505af115801562001140573d6000803e3d6000fd5b505050506040513d601f19601f8201168201806040525081019062001166919062002d70565b506006546040517f0f7f5b155b0b0ac6890709a2c7bf1b8bb3f675fff1e7840b4dd3c9acde59048b91620011a8916001600160a01b03909116908490620030be565b60405180910390a15b905090565b60035481565b6002546001600160a01b031681565b600080600a8381548110620011dc57fe5b60009182526020918290206040805161012081018252600990930290910180546001600160a01b031683526001810180548351818702810187019094528084529394919385830193928301828280156200126057602002820191906000526020600020905b81546001600160a01b0316815260019091019060200180831162001241575b50505050508152602001600282015481526020016003820160009054906101000a90046001600160a01b03166001600160a01b03166001600160a01b0316815260200160048201548152602001600582015481526020016006820154815260200160078201548152602001600882018054806020026020016040519081016040528092919081815260200182805480156200131b57602002820191906000526020600020905b81548152602001906001019080831162001306575b50505091909252505050606001516001600160a01b031615159392505050565b60405162461bcd60e51b81526004016200073e90620033ac565b50565b60095481565b6000546001600160a01b031633146200137657600080fd5b60058190556040517fada2cde3c4a561f5c23e2fdbfb223e1f0d1ec7109b9811b32644e6e974d6631f90620013ad9083906200351f565b60405180910390a150565b60045481565b6000546001600160a01b031690565b6006546001600160a01b031681565b336000908152600860205260408120548015620014d7573360009081526008602052604080822091909155600154905163a9059cbb60e01b81526001600160a01b039091169063a9059cbb906200143a9086908590600401620030be565b602060405180830381600087803b1580156200145557600080fd5b505af11580156200146a573d6000803e3d6000fd5b505050506040513d601f19601f8201168201806040525081019062001490919062002d70565b50826001600160a01b03167fc9985ad824d943d66367ce5feea26e18979b3e1c9273742926d87e2b0d7473873383604051620014ce929190620030be565b60405180910390a25b92915050565b600e5481565b6000546001600160a01b03163314620014fb57600080fd5b60038190556040517fcc4df50442ac32f0142ba4853f617661e0823be0e92148e7e5f36ce56c13982590620013ad9083906200351f565b60006200153f83620011cb565b6200154f576200154f836200133b565b6000600a84815481106200155f57fe5b60009182526020918290206040805161012081018252600990930290910180546001600160a01b03168352600181018054835181870281018701909452808452939491938583019392830182828015620015e357602002820191906000526020600020905b81546001600160a01b03168152600190910190602001808311620015c4575b50505050508152602001600282015481526020016003820160009054906101000a90046001600160a01b03166001600160a01b03166001600160a01b0316815260200160048201548152602001600582015481526020016006820154815260200160078201548152602001600882018054806020026020016040519081016040528092919081815260200182805480156200169e57602002820191906000526020600020905b81548152602001906001019080831162001689575b5050505050815250509050600081606001516001600160a01b03166371297784336040518263ffffffff1660e01b8152600401620016dd919062003086565b602060405180830381600087803b158015620016f857600080fd5b505af11580156200170d573d6000803e3d6000fd5b505050506040513d601f19601f8201168201806040525081019062001733919062002e40565b905060095460095482816200174457fe5b040290506000620017558262001029565b905060006200177f670de0b6b3a764000062000e788660800151856200219190919063ffffffff16565b90506200178d8282620021d9565b84516001600160a01b0390811660009081526008602052604090819020805485019055600154905163a9059cbb60e01b8152929450169063a9059cbb90620017dc9089908690600401620030be565b602060405180830381600087803b158015620017f757600080fd5b505af11580156200180c573d6000803e3d6000fd5b505050506040513d601f19601f8201168201806040525081019062001832919062002d70565b50856001600160a01b03167fe67bd0100cd3289557430d36098901ba18161e6279c9711d8650b8af105521048886606001518685876040516200187a95949392919062003573565b60405180910390a25095945050505050565b60075481565b6200189c62002ac3565b6000828152600c6020526040908190208151608081019092528054829060ff168015620018c557fe5b8015620018ce57fe5b8152600182015460208201526002820154604082015260039091015460609091015292915050565b60055481565b600b81815481106200190d57600080fd5b60009182526020918290206005919091020180546040805160026001841615610100026000190190931692909204601f810185900485028301850190915280825291935091839190830182828015620019aa5780601f106200197e57610100808354040283529160200191620019aa565b820191906000526020600020905b8154815290600101906020018083116200198c57829003601f168201915b505050506001830154600284015460039094015492936001600160a01b039091169290915060ff1684565b6009540290565b600d546001600160a01b031681565b6000546001600160a01b0316331462001a0357600080fd5b60048190556040517f92d395c429898992f8532ee7145901513e524c2085fd7fd1da39b8badcd6df3190620013ad9083906200351f565b6001546001600160a01b031681565b60606000805b600a5481101562001a7a5762001a6581620011cb565b62001a71576001909101905b60010162001a4f565b5060008167ffffffffffffffff8111801562001a9557600080fd5b5060405190808252806020026020018201604052801562001ac0578160200160208202803683370190505b5090506000805b600a5481101562001b195783821062001ae05762001b19565b62001aeb81620011cb565b62001b10578083838151811062001afe57fe5b60209081029190910101526001909101905b60010162001ac7565b50909250505090565b62001b2c620029c0565b600b828154811062001b3a57fe5b600091825260209182902060408051600593909302909101805460026001821615610100026000190190911604601f8101859004909402830160c090810190925260a083018481529293909284929091849184018282801562001be15780601f1062001bb55761010080835404028352916020019162001be1565b820191906000526020600020905b81548152906001019060200180831162001bc357829003601f168201915b50505091835250506001828101546001600160a01b03166020808401919091526002840154604080850191909152600385015460ff1660608501528051918201908190526080909301929091600485019182845b81548152602001906001019080831162001c35575050505050815250509050919050565b600d546001600160a01b0316331462001c865760405162461bcd60e51b81526004016200073e90620032c6565b600e54158062001c985750600e544210155b62001cb75760405162461bcd60e51b81526004016200073e906200328f565b600e81905560015b600b5481101562001cde5762001cd58162001fc4565b60010162001cbf565b5050565b600080805b845181101562001d285762001d1d62001d1586838151811062001d0657fe5b60200260200101518662001532565b8390620021ef565b915060010162001ce7565b509392505050565b62001d3a62002aec565b600a54821062001daa57506040805161012081018252600080825282518181526020808201855280840191909152828401829052606083018290526080830182905260a0830182905260c0830182905260e083018290528351918252810190925261010081019190915262001077565b600a828154811062001db857fe5b60009182526020918290206040805161012081018252600990930290910180546001600160a01b0316835260018101805483518187028101870190945280845293949193858301939283018282801562001e3c57602002820191906000526020600020905b81546001600160a01b0316815260019091019060200180831162001e1d575b50505050508152602001600282015481526020016003820160009054906101000a90046001600160a01b03166001600160a01b03166001600160a01b03168152602001600482015481526020016005820154815260200160068201548152602001600782015481526020016008820180548060200260200160405190810160405280929190818152602001828054801562001ef757602002820191906000526020600020905b81548152602001906001019080831162001ee2575b505050505081525050905062001077565b600a5490565b600080546001600160a01b0316331462001f2757600080fd5b6001600160a01b03821662001f3b57600080fd5b60005462001f53906001600160a01b03168362001cde565b50600080546001600160a01b0383166001600160a01b03199091161790556001919050565b62001f82620029c0565b5060408051602080820183526000808352835160a0810185529687526001600160a01b03909516908601529084019290925260ff166060830152608082015290565b6000600b828154811062001fd457fe5b600091825260209182902060408051600593909302909101805460026001821615610100026000190190911604601f8101859004909402830160c090810190925260a08301848152929390928492909184918401828280156200207b5780601f106200204f576101008083540402835291602001916200207b565b820191906000526020600020905b8154815290600101906020018083116200205d57829003601f168201915b50505091835250506001828101546001600160a01b03166020808401919091526002840154604080850191909152600385015460ff1660608501528051918201908190526080909301929091600485019182845b815481526020019060010190808311620020cf575050505050815250509050600080620020fc8362002202565b6080850151519193509150156200211a576200211a838284620023a3565b80600b85815481106200212957fe5b6000918252602090912060026005909202010155600e546200214e5750505062001355565b600d54620021689085906001600160a01b031683620024e3565b600b85815481106200217657fe5b60009182526020822060059190910201600401015550505050565b600082620021a257506000620014d7565b82820282848281620021b057fe5b0414620021bc57600080fd5b9392505050565b600080828481620021d057fe5b04949350505050565b600082821115620021e957600080fd5b50900390565b600082820183811015620021bc57600080fd5b600080600083602001516001600160a01b031663feaf968c6040518163ffffffff1660e01b815260040160a06040518083038186803b1580156200224557600080fd5b505afa1580156200225a573d6000803e3d6000fd5b505050506040513d601f19601f8201168201806040525081019062002280919062002ebb565b5050509150506000811215620022aa5760405162461bcd60e51b81526004016200073e906200332f565b809250600084602001516001600160a01b031663313ce5676040518163ffffffff1660e01b815260040160206040518083038186803b158015620022ed57600080fd5b505afa15801562002302573d6000803e3d6000fd5b505050506040513d601f19601f8201168201806040525081019062002328919062002f0f565b9050846060015160ff168160ff1611156200235e576060850151810360ff8116600a0a85816200235457fe5b049350506200238d565b846060015160ff168160ff1610156200238957606085015181900360ff16600a0a840292506200238d565b8392505b8383146200239c576001830192505b5050915091565b60808301515160408401516000908411156200240257600a8281548110620023c757fe5b6000918252602082206001600990920201019081548110620023e557fe5b6000918252602090912001546001600160a01b0316905062002451565b600a82815481106200241057fe5b90600052602060002090600902016001016001808111156200242e57fe5b815481106200243957fe5b6000918252602090912001546001600160a01b031690505b80600a83815481106200246057fe5b906000526020600020906009020160030160006101000a8154816001600160a01b0302191690836001600160a01b0316021790555082600c6000848152602001908152602001600020600301819055507fc68d106ea6e4bec784925cfd91767212c71ced92adbac107dc364435321113f6828260405162000a3792919062003528565b60408051600280825260608201909252600091829190816020015b6060815260200190600190039081620024fe5790505060408051808201909152600581526441626f766560d81b6020820152909150816000815181106200254157fe5b6020026020010181905250604051806040016040528060098152602001684e6f742041626f766560b81b815250816001808111156200257c57fe5b815181106200258757fe5b6020908102919091010152600e54600a80549350620025b786848085620025b16000600262002744565b62002858565b8154600180820184556000938452602093849020835160099093020180546001600160a01b0319166001600160a01b03909316929092178255828401518051939492936200260e9392850192919091019062002b4a565b506040820151600282015560608201516003820180546001600160a01b0319166001600160a01b039092169190911790556080820151600482015560a0820151600582015560c0820151600682015560e0820151600782015561010082015180516200268591600884019160209091019062002ba2565b50506040805160808101909152905080600081526020808201899052604080830188905260006060909301839052868352600c909152902081518154829060ff19166001838015620026d357fe5b021790555060208201518160010155604082015181600201556060820151816003015590505085817ffa965940dabe32040cc7aa9ae52951f1264ab07b31a958ed03ea7072f8c6921885886000896040516200273394939291906200353f565b60405180910390a350509392505050565b60606000836200275657600062002759565b60015b60ff16830190508067ffffffffffffffff811180156200277857600080fd5b50604051908082528060200260200182016040528015620027a3578160200160208202803683370190505b5091508315620027d157670de0b6b3a764000082600081518110620027c457fe5b6020026020010181815250505b60008385620027ea576802b5e3af16b1880000620027f5565b6802a802f8630a2400005b68ffffffffffffffffff16816200280857fe5b0490506000856200281b5760006200281e565b60015b60ff1690505b828110156200284f57818482815181106200283b57fe5b602090810291909101015260010162002824565b50505092915050565b6200286262002aec565b604051806101200160405280876001600160a01b031681526020016200288a878730620028ca565b81526020810194909452600060408501526004546060850152600554608085015260035460a08501524260c085015260e090930191909152509392505050565b825160609060008167ffffffffffffffff81118015620028e957600080fd5b5060405190808252806020026020018201604052801562002914578160200160208202803683370190505b50905060005b82811015620029b6578681815181106200293057fe5b60200260200101518682815181106200294557fe5b6020026020010151866040516200295c9062002bdf565b6200296a9392919062003198565b604051809103906000f08015801562002987573d6000803e3d6000fd5b508282815181106200299557fe5b6001600160a01b03909216602092830291909101909101526001016200291a565b5095945050505050565b6040518060a001604052806060815260200160006001600160a01b0316815260200160008152602001600060ff168152602001620029fd62002bed565b905290565b828054600181600116156101000203166002900490600052602060002090601f01602090048101928262002a3a576000855562002a85565b82601f1062002a5557805160ff191683800117855562002a85565b8280016001018555821562002a85579182015b8281111562002a8557825182559160200191906001019062002a68565b506200071692915062002c0b565b826001810192821562002a85579160200282018281111562002a8557825182559160200191906001019062002a68565b604080516080810190915280600081526020016000815260200160008152602001600081525090565b60405180610120016040528060006001600160a01b03168152602001606081526020016000815260200160006001600160a01b0316815260200160008152602001600081526020016000815260200160008152602001606081525090565b82805482825590600052602060002090810192821562002a85579160200282015b8281111562002a8557825182546001600160a01b0319166001600160a01b0390911617825560209092019160019091019062002b6b565b82805482825590600052602060002090810192821562002a85579160200282018281111562002a8557825182559160200191906001019062002a68565b6111f380620035f483390190565b60405180602001604052806001906020820280368337509192915050565b5b8082111562000716576000815560010162002c0c565b80356200107781620035be565b805169ffffffffffffffffffff811681146200107757600080fd5b60006020828403121562002c5c578081fd5b8135620021bc81620035be565b6000806040838503121562002c7c578081fd5b823562002c8981620035be565b9150602083013562002c9b81620035d4565b809150509250929050565b6000806040838503121562002cb9578182fd5b823567ffffffffffffffff8082111562002cd1578384fd5b818501915085601f83011262002ce5578384fd5b813560208282111562002cf457fe5b8082026040518282820101818110868211171562002d0e57fe5b604052838152828101945085830182870184018b101562002d2d578889fd5b8896505b8487101562002d5157803586526001969096019594830194830162002d31565b50965062002d63905087820162002c22565b9450505050509250929050565b60006020828403121562002d82578081fd5b8151620021bc81620035d4565b6000806000806060858703121562002da5578182fd5b843567ffffffffffffffff8082111562002dbd578384fd5b818701915087601f83011262002dd1578384fd5b81358181111562002de0578485fd5b88602082850101111562002df2578485fd5b6020928301965094505085013562002e0a81620035be565b9150604085013562002e1c81620035e3565b939692955090935050565b60006020828403121562002e39578081fd5b5035919050565b60006020828403121562002e52578081fd5b5051919050565b6000806040838503121562002e6c578182fd5b82359150602083013562002c9b81620035be565b60008060006060848603121562002e95578283fd5b8335925060208401359150604084013562002eb081620035be565b809150509250925092565b600080600080600060a0868803121562002ed3578081fd5b62002ede8662002c2f565b945060208601519350604086015192506060860151915062002f036080870162002c2f565b90509295509295909350565b60006020828403121562002f21578081fd5b8151620021bc81620035e3565b6001600160a01b03169052565b6000815180845260208085019450808401835b8381101562002f755781516001600160a01b03168752958201959082019060010162002f4e565b509495945050505050565b6000815180845260208085019450808401835b8381101562002f755781518752958201959082019060010162002f93565b6001811062002fbc57fe5b9052565b60008151808452815b8181101562002fe75760208185018101518683018201520162002fc9565b8181111562002ff95782602083870101525b50601f01601f19169290920160200192915050565b6000815160a084526200302560a085018262002fc0565b9050602060018060a01b038185015116818601526040840151604086015260ff6060850151166060860152608084015160808601845b60018110156200307a578251825291830191908301906001016200305b565b50929695505050505050565b6001600160a01b0391909116815260200190565b6001600160a01b039384168152919092166020820152604081019190915260600190565b6001600160a01b03929092168252602082015260400190565b6000602080830181845280855180835260408601915060408482028701019250838701855b828110156200312e57603f198886030184526200311b8583516200300e565b94509285019290850190600101620030fc565b5092979650505050505050565b600060208252620021bc602083018462002f80565b901515815260200190565b60006080825262003170608083018762002fc0565b6001600160a01b0395909516602083015250604081019290925260ff16606090910152919050565b600060608252620031ad606083018662002fc0565b8281036020840152620031c1818662002fc0565b91505060018060a01b0383166040830152949350505050565b60208082526024908201527f4f6e6c792070726f746f636f6c2063616e20636c61696d2070726f746f636f6c6040820152632066656560e01b606082015260800190565b6020808252604b908201527f536861726573206d75737420626520626f74682067726561746572207468616e60408201527f20286f7220657175616c20746f2920616e6420646976697369626c652062792060608201526a39b430b932a330b1ba37b960a91b608082015260a00190565b6020808252601f908201527f4d757374207761697420666f72206d61726b6574207265736f6c7574696f6e00604082015260600190565b60208082526021908201527f4f6e6c79206c696e6b206e6f64652063616e20637265617465206d61726b65746040820152607360f81b606082015260800190565b6020808252600e908201526d139bc81cdd58da081b585c9ad95d60921b604082015260600190565b6020808252601b908201527f50726963652066726f6d2066656564206973206e656761746976650000000000604082015260600190565b60208082526026908201527f43616e6e6f74206d696e742073686172657320666f72207265736f6c766564206040820152651b585c9ad95d60d21b606082015260800190565b6020808252601b908201527f55736520637265617465416e645265736f6c76654d61726b6574730000000000604082015260600190565b60208082526026908201527f43616e6e6f74206275726e2073686172657320666f72207265736f6c766564206040820152651b585c9ad95d60d21b606082015260800190565b600060208252620021bc60208301846200300e565b60006080820190506200345382845162002fb1565b60208301516020830152604083015160408301526060830151606083015292915050565b6000602082526200348d60208301845162002f2e565b6020830151610120806040850152620034ab61014085018362002f3b565b9150604085015160608501526060850151620034cb608086018262002f2e565b50608085015160a085015260a085015160c085015260c085015160e085015260e0850151610100818187015280870151915050601f19858403018286015262003515838262002f80565b9695505050505050565b90815260200190565b9182526001600160a01b0316602082015260400190565b8481526001600160a01b03841660208201526080810162003564604083018562002fb1565b82606083015295945050505050565b9485526001600160a01b0393909316602085015260408401919091526060830152608082015260a00190565b92835260208301919091526001600160a01b0316604082015260600190565b6001600160a01b03811681146200135557600080fd5b80151581146200135557600080fd5b60ff811681146200135557600080fdfe60806040523480156200001157600080fd5b50604051620011f3380380620011f3833981810160405260608110156200003757600080fd5b81019080805160405193929190846401000000008211156200005857600080fd5b9083019060208201858111156200006e57600080fd5b82516401000000008111828201881017156200008957600080fd5b82525081516020918201929091019080838360005b83811015620000b85781810151838201526020016200009e565b50505050905090810190601f168015620000e65780820380516001836020036101000a031916815260200191505b50604052602001805160405193929190846401000000008211156200010a57600080fd5b9083019060208201858111156200012057600080fd5b82516401000000008111828201881017156200013b57600080fd5b82525081516020918201929091019080838360005b838110156200016a57818101518382015260200162000150565b50505050905090810190601f168015620001985780820380516001836020036101000a031916815260200191505b5060405260209081015185519093508592508491620001bd9160039185019062000219565b508051620001d390600490602084019062000219565b5050600580546001600160a01b039390931661010090810233909102610100600160a81b031960ff199095166012178516179093169290921790915550620002c5915050565b828054600181600116156101000203166002900490600052602060002090601f0160209004810192826200025157600085556200029c565b82601f106200026c57805160ff19168380011785556200029c565b828001600101855582156200029c579182015b828111156200029c5782518255916020019190600101906200027f565b50620002aa929150620002ae565b5090565b5b80821115620002aa5760008155600101620002af565b610f1e80620002d56000396000f3fe608060405234801561001057600080fd5b506004361061010b5760003560e01c806370a08231116100a2578063a457c2d711610071578063a457c2d714610343578063a9059cbb1461036f578063c024cd261461039b578063dd62ed3e146103c7578063f2fde38b146103f55761010b565b806370a08231146102cb57806371297784146102f1578063893d20e81461031757806395d89b411461033b5761010b565b806323b872dd116100de57806323b872dd1461021f578063313ce56714610255578063395093511461027357806342986e131461029f5761010b565b806306fdde0314610110578063095ea7b31461018d5780630fb66557146101cd57806318160ddd14610205575b600080fd5b61011861041b565b6040805160208082528351818301528351919283929083019185019080838360005b8381101561015257818101518382015260200161013a565b50505050905090810190601f16801561017f5780820380516001836020036101000a031916815260200191505b509250505060405180910390f35b6101b9600480360360408110156101a357600080fd5b506001600160a01b0381351690602001356104b1565b604080519115158252519081900360200190f35b610203600480360360608110156101e357600080fd5b506001600160a01b038135811691602081013590911690604001356104ce565b005b61020d6104fa565b60408051918252519081900360200190f35b6101b96004803603606081101561023557600080fd5b506001600160a01b03813581169160208101359091169060400135610500565b61025d610587565b6040805160ff9092168252519081900360200190f35b6101b96004803603604081101561028957600080fd5b506001600160a01b038135169060200135610590565b610203600480360360408110156102b557600080fd5b506001600160a01b0381351690602001356105de565b61020d600480360360208110156102e157600080fd5b50356001600160a01b0316610608565b61020d6004803603602081101561030757600080fd5b50356001600160a01b0316610623565b61031f61065f565b604080516001600160a01b039092168252519081900360200190f35b610118610673565b6101b96004803603604081101561035957600080fd5b506001600160a01b0381351690602001356106d4565b6101b96004803603604081101561038557600080fd5b506001600160a01b03813516906020013561073c565b610203600480360360408110156103b157600080fd5b506001600160a01b038135169060200135610750565b61020d600480360360408110156103dd57600080fd5b506001600160a01b0381358116916020013516610776565b6101b96004803603602081101561040b57600080fd5b50356001600160a01b03166107a1565b60038054604080516020601f60026000196101006001881615020190951694909404938401819004810282018101909252828152606093909290918301828280156104a75780601f1061047c576101008083540402835291602001916104a7565b820191906000526020600020905b81548152906001019060200180831161048a57829003601f168201915b5050505050905090565b60006104c56104be610818565b848461081c565b50600192915050565b60055461010090046001600160a01b031633146104ea57600080fd5b6104f5838383610908565b505050565b60025490565b600061050d848484610908565b61057d84610519610818565b61057885604051806060016040528060288152602001610e32602891396001600160a01b038a16600090815260016020526040812090610557610818565b6001600160a01b031681526020810191909152604001600020549190610a63565b61081c565b5060019392505050565b60055460ff1690565b60006104c561059d610818565b8461057885600160006105ae610818565b6001600160a01b03908116825260208083019390935260409182016000908120918c168152925290205490610afa565b60055461010090046001600160a01b031633146105fa57600080fd5b6106048282610b5b565b5050565b6001600160a01b031660009081526020819052604090205490565b60055460009061010090046001600160a01b0316331461064257600080fd5b600061064d83610608565b90506106598382610b5b565b92915050565b60055461010090046001600160a01b031690565b60048054604080516020601f60026000196101006001881615020190951694909404938401819004810282018101909252828152606093909290918301828280156104a75780601f1061047c576101008083540402835291602001916104a7565b60006104c56106e1610818565b8461057885604051806060016040528060258152602001610ec4602591396001600061070b610818565b6001600160a01b03908116825260208083019390935260409182016000908120918d16815292529020549190610a63565b60006104c5610749610818565b8484610908565b60055461010090046001600160a01b0316331461076c57600080fd5b6106048282610c57565b6001600160a01b03918216600090815260016020908152604080832093909416825291909152205490565b60055460009061010090046001600160a01b031633146107c057600080fd5b6001600160a01b0382166107d357600080fd5b6005546107ee9061010090046001600160a01b031683610604565b50600580546001600160a01b03831661010002610100600160a81b03199091161790556001919050565b3390565b6001600160a01b0383166108615760405162461bcd60e51b8152600401808060200182810382526024815260200180610ea06024913960400191505060405180910390fd5b6001600160a01b0382166108a65760405162461bcd60e51b8152600401808060200182810382526022815260200180610dea6022913960400191505060405180910390fd5b6001600160a01b03808416600081815260016020908152604080832094871680845294825291829020859055815185815291517f8c5be1e5ebec7d5bd14f71427d1e84f3dd0314c0f7b2291e5b200ac8c7c3b9259281900390910190a3505050565b6001600160a01b03831661094d5760405162461bcd60e51b8152600401808060200182810382526025815260200180610e7b6025913960400191505060405180910390fd5b6001600160a01b0382166109925760405162461bcd60e51b8152600401808060200182810382526023815260200180610da56023913960400191505060405180910390fd5b61099d8383836104f5565b6109da81604051806060016040528060268152602001610e0c602691396001600160a01b0386166000908152602081905260409020549190610a63565b6001600160a01b038085166000908152602081905260408082209390935590841681522054610a099082610afa565b6001600160a01b038084166000818152602081815260409182902094909455805185815290519193928716927fddf252ad1be2c89b69c2b068fc378daa952ba7f163c4a11628f55a4df523b3ef92918290030190a3505050565b60008184841115610af25760405162461bcd60e51b81526004018080602001828103825283818151815260200191508051906020019080838360005b83811015610ab7578181015183820152602001610a9f565b50505050905090810190601f168015610ae45780820380516001836020036101000a031916815260200191505b509250505060405180910390fd5b505050900390565b600082820183811015610b54576040805162461bcd60e51b815260206004820152601b60248201527f536166654d6174683a206164646974696f6e206f766572666c6f770000000000604482015290519081900360640190fd5b9392505050565b6001600160a01b038216610ba05760405162461bcd60e51b8152600401808060200182810382526021815260200180610e5a6021913960400191505060405180910390fd5b610bac826000836104f5565b610be981604051806060016040528060228152602001610dc8602291396001600160a01b0385166000908152602081905260409020549190610a63565b6001600160a01b038316600090815260208190526040902055600254610c0f9082610d47565b6002556040805182815290516000916001600160a01b038516917fddf252ad1be2c89b69c2b068fc378daa952ba7f163c4a11628f55a4df523b3ef9181900360200190a35050565b6001600160a01b038216610cb2576040805162461bcd60e51b815260206004820152601f60248201527f45524332303a206d696e7420746f20746865207a65726f206164647265737300604482015290519081900360640190fd5b610cbe600083836104f5565b600254610ccb9082610afa565b6002556001600160a01b038216600090815260208190526040902054610cf19082610afa565b6001600160a01b0383166000818152602081815260408083209490945583518581529351929391927fddf252ad1be2c89b69c2b068fc378daa952ba7f163c4a11628f55a4df523b3ef9281900390910190a35050565b600082821115610d9e576040805162461bcd60e51b815260206004820152601e60248201527f536166654d6174683a207375627472616374696f6e206f766572666c6f770000604482015290519081900360640190fd5b5090039056fe45524332303a207472616e7366657220746f20746865207a65726f206164647265737345524332303a206275726e20616d6f756e7420657863656564732062616c616e636545524332303a20617070726f766520746f20746865207a65726f206164647265737345524332303a207472616e7366657220616d6f756e7420657863656564732062616c616e636545524332303a207472616e7366657220616d6f756e74206578636565647320616c6c6f77616e636545524332303a206275726e2066726f6d20746865207a65726f206164647265737345524332303a207472616e736665722066726f6d20746865207a65726f206164647265737345524332303a20617070726f76652066726f6d20746865207a65726f206164647265737345524332303a2064656372656173656420616c6c6f77616e63652062656c6f77207a65726fa2646970667358221220c881513fca5a75d47e02fc1c04920461b43ce001b23b37bd2a0244cb5b4737ce64736f6c63430007060033a2646970667358221220d5e433473f0f8bda83b7818a84aa6998a75e48758d2e0b02582986a4c60f2ae164736f6c6343000706003360806040523480156200001157600080fd5b50604051620011f3380380620011f3833981810160405260608110156200003757600080fd5b81019080805160405193929190846401000000008211156200005857600080fd5b9083019060208201858111156200006e57600080fd5b82516401000000008111828201881017156200008957600080fd5b82525081516020918201929091019080838360005b83811015620000b85781810151838201526020016200009e565b50505050905090810190601f168015620000e65780820380516001836020036101000a031916815260200191505b50604052602001805160405193929190846401000000008211156200010a57600080fd5b9083019060208201858111156200012057600080fd5b82516401000000008111828201881017156200013b57600080fd5b82525081516020918201929091019080838360005b838110156200016a57818101518382015260200162000150565b50505050905090810190601f168015620001985780820380516001836020036101000a031916815260200191505b5060405260209081015185519093508592508491620001bd9160039185019062000219565b508051620001d390600490602084019062000219565b5050600580546001600160a01b039390931661010090810233909102610100600160a81b031960ff199095166012178516179093169290921790915550620002c5915050565b828054600181600116156101000203166002900490600052602060002090601f0160209004810192826200025157600085556200029c565b82601f106200026c57805160ff19168380011785556200029c565b828001600101855582156200029c579182015b828111156200029c5782518255916020019190600101906200027f565b50620002aa929150620002ae565b5090565b5b80821115620002aa5760008155600101620002af565b610f1e80620002d56000396000f3fe608060405234801561001057600080fd5b506004361061010b5760003560e01c806370a08231116100a2578063a457c2d711610071578063a457c2d714610343578063a9059cbb1461036f578063c024cd261461039b578063dd62ed3e146103c7578063f2fde38b146103f55761010b565b806370a08231146102cb57806371297784146102f1578063893d20e81461031757806395d89b411461033b5761010b565b806323b872dd116100de57806323b872dd1461021f578063313ce56714610255578063395093511461027357806342986e131461029f5761010b565b806306fdde0314610110578063095ea7b31461018d5780630fb66557146101cd57806318160ddd14610205575b600080fd5b61011861041b565b6040805160208082528351818301528351919283929083019185019080838360005b8381101561015257818101518382015260200161013a565b50505050905090810190601f16801561017f5780820380516001836020036101000a031916815260200191505b509250505060405180910390f35b6101b9600480360360408110156101a357600080fd5b506001600160a01b0381351690602001356104b1565b604080519115158252519081900360200190f35b610203600480360360608110156101e357600080fd5b506001600160a01b038135811691602081013590911690604001356104ce565b005b61020d6104fa565b60408051918252519081900360200190f35b6101b96004803603606081101561023557600080fd5b506001600160a01b03813581169160208101359091169060400135610500565b61025d610587565b6040805160ff9092168252519081900360200190f35b6101b96004803603604081101561028957600080fd5b506001600160a01b038135169060200135610590565b610203600480360360408110156102b557600080fd5b506001600160a01b0381351690602001356105de565b61020d600480360360208110156102e157600080fd5b50356001600160a01b0316610608565b61020d6004803603602081101561030757600080fd5b50356001600160a01b0316610623565b61031f61065f565b604080516001600160a01b039092168252519081900360200190f35b610118610673565b6101b96004803603604081101561035957600080fd5b506001600160a01b0381351690602001356106d4565b6101b96004803603604081101561038557600080fd5b506001600160a01b03813516906020013561073c565b610203600480360360408110156103b157600080fd5b506001600160a01b038135169060200135610750565b61020d600480360360408110156103dd57600080fd5b506001600160a01b0381358116916020013516610776565b6101b96004803603602081101561040b57600080fd5b50356001600160a01b03166107a1565b60038054604080516020601f60026000196101006001881615020190951694909404938401819004810282018101909252828152606093909290918301828280156104a75780601f1061047c576101008083540402835291602001916104a7565b820191906000526020600020905b81548152906001019060200180831161048a57829003601f168201915b5050505050905090565b60006104c56104be610818565b848461081c565b50600192915050565b60055461010090046001600160a01b031633146104ea57600080fd5b6104f5838383610908565b505050565b60025490565b600061050d848484610908565b61057d84610519610818565b61057885604051806060016040528060288152602001610e32602891396001600160a01b038a16600090815260016020526040812090610557610818565b6001600160a01b031681526020810191909152604001600020549190610a63565b61081c565b5060019392505050565b60055460ff1690565b60006104c561059d610818565b8461057885600160006105ae610818565b6001600160a01b03908116825260208083019390935260409182016000908120918c168152925290205490610afa565b60055461010090046001600160a01b031633146105fa57600080fd5b6106048282610b5b565b5050565b6001600160a01b031660009081526020819052604090205490565b60055460009061010090046001600160a01b0316331461064257600080fd5b600061064d83610608565b90506106598382610b5b565b92915050565b60055461010090046001600160a01b031690565b60048054604080516020601f60026000196101006001881615020190951694909404938401819004810282018101909252828152606093909290918301828280156104a75780601f1061047c576101008083540402835291602001916104a7565b60006104c56106e1610818565b8461057885604051806060016040528060258152602001610ec4602591396001600061070b610818565b6001600160a01b03908116825260208083019390935260409182016000908120918d16815292529020549190610a63565b60006104c5610749610818565b8484610908565b60055461010090046001600160a01b0316331461076c57600080fd5b6106048282610c57565b6001600160a01b03918216600090815260016020908152604080832093909416825291909152205490565b60055460009061010090046001600160a01b031633146107c057600080fd5b6001600160a01b0382166107d357600080fd5b6005546107ee9061010090046001600160a01b031683610604565b50600580546001600160a01b03831661010002610100600160a81b03199091161790556001919050565b3390565b6001600160a01b0383166108615760405162461bcd60e51b8152600401808060200182810382526024815260200180610ea06024913960400191505060405180910390fd5b6001600160a01b0382166108a65760405162461bcd60e51b8152600401808060200182810382526022815260200180610dea6022913960400191505060405180910390fd5b6001600160a01b03808416600081815260016020908152604080832094871680845294825291829020859055815185815291517f8c5be1e5ebec7d5bd14f71427d1e84f3dd0314c0f7b2291e5b200ac8c7c3b9259281900390910190a3505050565b6001600160a01b03831661094d5760405162461bcd60e51b8152600401808060200182810382526025815260200180610e7b6025913960400191505060405180910390fd5b6001600160a01b0382166109925760405162461bcd60e51b8152600401808060200182810382526023815260200180610da56023913960400191505060405180910390fd5b61099d8383836104f5565b6109da81604051806060016040528060268152602001610e0c602691396001600160a01b0386166000908152602081905260409020549190610a63565b6001600160a01b038085166000908152602081905260408082209390935590841681522054610a099082610afa565b6001600160a01b038084166000818152602081815260409182902094909455805185815290519193928716927fddf252ad1be2c89b69c2b068fc378daa952ba7f163c4a11628f55a4df523b3ef92918290030190a3505050565b60008184841115610af25760405162461bcd60e51b81526004018080602001828103825283818151815260200191508051906020019080838360005b83811015610ab7578181015183820152602001610a9f565b50505050905090810190601f168015610ae45780820380516001836020036101000a031916815260200191505b509250505060405180910390fd5b505050900390565b600082820183811015610b54576040805162461bcd60e51b815260206004820152601b60248201527f536166654d6174683a206164646974696f6e206f766572666c6f770000000000604482015290519081900360640190fd5b9392505050565b6001600160a01b038216610ba05760405162461bcd60e51b8152600401808060200182810382526021815260200180610e5a6021913960400191505060405180910390fd5b610bac826000836104f5565b610be981604051806060016040528060228152602001610dc8602291396001600160a01b0385166000908152602081905260409020549190610a63565b6001600160a01b038316600090815260208190526040902055600254610c0f9082610d47565b6002556040805182815290516000916001600160a01b038516917fddf252ad1be2c89b69c2b068fc378daa952ba7f163c4a11628f55a4df523b3ef9181900360200190a35050565b6001600160a01b038216610cb2576040805162461bcd60e51b815260206004820152601f60248201527f45524332303a206d696e7420746f20746865207a65726f206164647265737300604482015290519081900360640190fd5b610cbe600083836104f5565b600254610ccb9082610afa565b6002556001600160a01b038216600090815260208190526040902054610cf19082610afa565b6001600160a01b0383166000818152602081815260408083209490945583518581529351929391927fddf252ad1be2c89b69c2b068fc378daa952ba7f163c4a11628f55a4df523b3ef9281900390910190a35050565b600082821115610d9e576040805162461bcd60e51b815260206004820152601e60248201527f536166654d6174683a207375627472616374696f6e206f766572666c6f770000604482015290519081900360640190fd5b5090039056fe45524332303a207472616e7366657220746f20746865207a65726f206164647265737345524332303a206275726e20616d6f756e7420657863656564732062616c616e636545524332303a20617070726f766520746f20746865207a65726f206164647265737345524332303a207472616e7366657220616d6f756e7420657863656564732062616c616e636545524332303a207472616e7366657220616d6f756e74206578636565647320616c6c6f77616e636545524332303a206275726e2066726f6d20746865207a65726f206164647265737345524332303a207472616e736665722066726f6d20746865207a65726f206164647265737345524332303a20617070726f76652066726f6d20746865207a65726f206164647265737345524332303a2064656372656173656420616c6c6f77616e63652062656c6f77207a65726fa2646970667358221220c881513fca5a75d47e02fc1c04920461b43ce001b23b37bd2a0244cb5b4737ce64736f6c63430007060033",
  "devdoc": {
    "kind": "dev",
    "methods": {
      "transferOwnership(address)": {
        "details": "Allows the current owner to transfer control of the contract to a newOwner.",
        "params": {
          "_newOwner": "The address to transfer ownership to."
        }
      }
    },
    "version": 1
  },
  "userdoc": {
    "kind": "user",
    "methods": {},
    "version": 1
  },
  "storageLayout": {
    "storage": [
      {
        "astId": 5793,
        "contract": "contracts/turbo/CryptoMarketFactory.sol:CryptoMarketFactory",
        "label": "owner",
        "offset": 0,
        "slot": "0",
        "type": "t_address"
      },
      {
        "astId": 9268,
        "contract": "contracts/turbo/CryptoMarketFactory.sol:CryptoMarketFactory",
        "label": "collateral",
        "offset": 0,
        "slot": "1",
        "type": "t_contract(IERC20Full)5770"
      },
      {
        "astId": 9270,
        "contract": "contracts/turbo/CryptoMarketFactory.sol:CryptoMarketFactory",
        "label": "feePot",
        "offset": 0,
        "slot": "2",
        "type": "t_contract(FeePot)11244"
      },
      {
        "astId": 9272,
        "contract": "contracts/turbo/CryptoMarketFactory.sol:CryptoMarketFactory",
        "label": "stakerFee",
        "offset": 0,
        "slot": "3",
        "type": "t_uint256"
      },
      {
        "astId": 9274,
        "contract": "contracts/turbo/CryptoMarketFactory.sol:CryptoMarketFactory",
        "label": "settlementFee",
        "offset": 0,
        "slot": "4",
        "type": "t_uint256"
      },
      {
        "astId": 9276,
        "contract": "contracts/turbo/CryptoMarketFactory.sol:CryptoMarketFactory",
        "label": "protocolFee",
        "offset": 0,
        "slot": "5",
        "type": "t_uint256"
      },
      {
        "astId": 9278,
        "contract": "contracts/turbo/CryptoMarketFactory.sol:CryptoMarketFactory",
        "label": "protocol",
        "offset": 0,
        "slot": "6",
        "type": "t_address"
      },
      {
        "astId": 9281,
        "contract": "contracts/turbo/CryptoMarketFactory.sol:CryptoMarketFactory",
        "label": "accumulatedProtocolFee",
        "offset": 0,
        "slot": "7",
        "type": "t_uint256"
      },
      {
        "astId": 9285,
        "contract": "contracts/turbo/CryptoMarketFactory.sol:CryptoMarketFactory",
        "label": "accumulatedSettlementFees",
        "offset": 0,
        "slot": "8",
        "type": "t_mapping(t_address,t_uint256)"
      },
      {
        "astId": 9287,
        "contract": "contracts/turbo/CryptoMarketFactory.sol:CryptoMarketFactory",
        "label": "shareFactor",
        "offset": 0,
        "slot": "9",
        "type": "t_uint256"
      },
      {
        "astId": 9311,
        "contract": "contracts/turbo/CryptoMarketFactory.sol:CryptoMarketFactory",
        "label": "markets",
        "offset": 0,
        "slot": "10",
        "type": "t_array(t_struct(Market)9308_storage)dyn_storage"
      },
      {
        "astId": 10244,
        "contract": "contracts/turbo/CryptoMarketFactory.sol:CryptoMarketFactory",
        "label": "coins",
        "offset": 0,
        "slot": "11",
        "type": "t_array(t_struct(Coin)10241_storage)dyn_storage"
      },
      {
        "astId": 10262,
        "contract": "contracts/turbo/CryptoMarketFactory.sol:CryptoMarketFactory",
        "label": "marketDetails",
        "offset": 0,
        "slot": "12",
        "type": "t_mapping(t_uint256,t_struct(MarketDetails)10258_storage)"
      },
      {
        "astId": 10264,
        "contract": "contracts/turbo/CryptoMarketFactory.sol:CryptoMarketFactory",
        "label": "linkNode",
        "offset": 0,
        "slot": "13",
        "type": "t_address"
      },
      {
        "astId": 10266,
        "contract": "contracts/turbo/CryptoMarketFactory.sol:CryptoMarketFactory",
        "label": "nextResolutionTime",
        "offset": 0,
        "slot": "14",
        "type": "t_uint256"
      }
    ],
    "types": {
      "t_address": {
        "encoding": "inplace",
        "label": "address",
        "numberOfBytes": "20"
      },
      "t_array(t_contract(OwnedERC20)13734)dyn_storage": {
        "base": "t_contract(OwnedERC20)13734",
        "encoding": "dynamic_array",
        "label": "contract OwnedERC20[]",
        "numberOfBytes": "32"
      },
      "t_array(t_struct(Coin)10241_storage)dyn_storage": {
        "base": "t_struct(Coin)10241_storage",
        "encoding": "dynamic_array",
        "label": "struct CryptoMarketFactory.Coin[]",
        "numberOfBytes": "32"
      },
      "t_array(t_struct(Market)9308_storage)dyn_storage": {
        "base": "t_struct(Market)9308_storage",
        "encoding": "dynamic_array",
        "label": "struct AbstractMarketFactoryV2.Market[]",
        "numberOfBytes": "32"
      },
      "t_array(t_uint256)1_storage": {
        "base": "t_uint256",
        "encoding": "inplace",
        "label": "uint256[1]",
        "numberOfBytes": "32"
      },
      "t_array(t_uint256)dyn_storage": {
        "base": "t_uint256",
        "encoding": "dynamic_array",
        "label": "uint256[]",
        "numberOfBytes": "32"
      },
      "t_contract(AggregatorV3Interface)45": {
        "encoding": "inplace",
        "label": "contract AggregatorV3Interface",
        "numberOfBytes": "20"
      },
      "t_contract(FeePot)11244": {
        "encoding": "inplace",
        "label": "contract FeePot",
        "numberOfBytes": "20"
      },
      "t_contract(IERC20Full)5770": {
        "encoding": "inplace",
        "label": "contract IERC20Full",
        "numberOfBytes": "20"
      },
      "t_contract(OwnedERC20)13734": {
        "encoding": "inplace",
        "label": "contract OwnedERC20",
        "numberOfBytes": "20"
      },
      "t_enum(MarketType)10246": {
        "encoding": "inplace",
        "label": "enum CryptoMarketFactory.MarketType",
        "numberOfBytes": "1"
      },
      "t_mapping(t_address,t_uint256)": {
        "encoding": "mapping",
        "key": "t_address",
        "label": "mapping(address => uint256)",
        "numberOfBytes": "32",
        "value": "t_uint256"
      },
      "t_mapping(t_uint256,t_struct(MarketDetails)10258_storage)": {
        "encoding": "mapping",
        "key": "t_uint256",
        "label": "mapping(uint256 => struct CryptoMarketFactory.MarketDetails)",
        "numberOfBytes": "32",
        "value": "t_struct(MarketDetails)10258_storage"
      },
      "t_string_storage": {
        "encoding": "bytes",
        "label": "string",
        "numberOfBytes": "32"
      },
      "t_struct(Coin)10241_storage": {
        "encoding": "inplace",
        "label": "struct CryptoMarketFactory.Coin",
        "members": [
          {
            "astId": 10230,
            "contract": "contracts/turbo/CryptoMarketFactory.sol:CryptoMarketFactory",
            "label": "name",
            "offset": 0,
            "slot": "0",
            "type": "t_string_storage"
          },
          {
            "astId": 10232,
            "contract": "contracts/turbo/CryptoMarketFactory.sol:CryptoMarketFactory",
            "label": "priceFeed",
            "offset": 0,
            "slot": "1",
            "type": "t_contract(AggregatorV3Interface)45"
          },
          {
            "astId": 10234,
            "contract": "contracts/turbo/CryptoMarketFactory.sol:CryptoMarketFactory",
            "label": "price",
            "offset": 0,
            "slot": "2",
            "type": "t_uint256"
          },
          {
            "astId": 10236,
            "contract": "contracts/turbo/CryptoMarketFactory.sol:CryptoMarketFactory",
            "label": "imprecision",
            "offset": 0,
            "slot": "3",
            "type": "t_uint8"
          },
          {
            "astId": 10240,
            "contract": "contracts/turbo/CryptoMarketFactory.sol:CryptoMarketFactory",
            "label": "currentMarkets",
            "offset": 0,
            "slot": "4",
            "type": "t_array(t_uint256)1_storage"
          }
        ],
        "numberOfBytes": "160"
      },
      "t_struct(Market)9308_storage": {
        "encoding": "inplace",
        "label": "struct AbstractMarketFactoryV2.Market",
        "members": [
          {
            "astId": 9289,
            "contract": "contracts/turbo/CryptoMarketFactory.sol:CryptoMarketFactory",
            "label": "settlementAddress",
            "offset": 0,
            "slot": "0",
            "type": "t_address"
          },
          {
            "astId": 9292,
            "contract": "contracts/turbo/CryptoMarketFactory.sol:CryptoMarketFactory",
            "label": "shareTokens",
            "offset": 0,
            "slot": "1",
            "type": "t_array(t_contract(OwnedERC20)13734)dyn_storage"
          },
          {
            "astId": 9294,
            "contract": "contracts/turbo/CryptoMarketFactory.sol:CryptoMarketFactory",
            "label": "endTime",
            "offset": 0,
            "slot": "2",
            "type": "t_uint256"
          },
          {
            "astId": 9296,
            "contract": "contracts/turbo/CryptoMarketFactory.sol:CryptoMarketFactory",
            "label": "winner",
            "offset": 0,
            "slot": "3",
            "type": "t_contract(OwnedERC20)13734"
          },
          {
            "astId": 9298,
            "contract": "contracts/turbo/CryptoMarketFactory.sol:CryptoMarketFactory",
            "label": "settlementFee",
            "offset": 0,
            "slot": "4",
            "type": "t_uint256"
          },
          {
            "astId": 9300,
            "contract": "contracts/turbo/CryptoMarketFactory.sol:CryptoMarketFactory",
            "label": "protocolFee",
            "offset": 0,
            "slot": "5",
            "type": "t_uint256"
          },
          {
            "astId": 9302,
            "contract": "contracts/turbo/CryptoMarketFactory.sol:CryptoMarketFactory",
            "label": "stakerFee",
            "offset": 0,
            "slot": "6",
            "type": "t_uint256"
          },
          {
            "astId": 9304,
            "contract": "contracts/turbo/CryptoMarketFactory.sol:CryptoMarketFactory",
            "label": "creationTimestamp",
            "offset": 0,
            "slot": "7",
            "type": "t_uint256"
          },
          {
            "astId": 9307,
            "contract": "contracts/turbo/CryptoMarketFactory.sol:CryptoMarketFactory",
            "label": "initialOdds",
            "offset": 0,
            "slot": "8",
            "type": "t_array(t_uint256)dyn_storage"
          }
        ],
        "numberOfBytes": "288"
      },
      "t_struct(MarketDetails)10258_storage": {
        "encoding": "inplace",
        "label": "struct CryptoMarketFactory.MarketDetails",
        "members": [
          {
            "astId": 10251,
            "contract": "contracts/turbo/CryptoMarketFactory.sol:CryptoMarketFactory",
            "label": "marketType",
            "offset": 0,
            "slot": "0",
            "type": "t_enum(MarketType)10246"
          },
          {
            "astId": 10253,
            "contract": "contracts/turbo/CryptoMarketFactory.sol:CryptoMarketFactory",
            "label": "coinIndex",
            "offset": 0,
            "slot": "1",
            "type": "t_uint256"
          },
          {
            "astId": 10255,
            "contract": "contracts/turbo/CryptoMarketFactory.sol:CryptoMarketFactory",
            "label": "creationPrice",
            "offset": 0,
            "slot": "2",
            "type": "t_uint256"
          },
          {
            "astId": 10257,
            "contract": "contracts/turbo/CryptoMarketFactory.sol:CryptoMarketFactory",
            "label": "resolutionPrice",
            "offset": 0,
            "slot": "3",
            "type": "t_uint256"
          }
        ],
        "numberOfBytes": "128"
      },
      "t_uint256": {
        "encoding": "inplace",
        "label": "uint256",
        "numberOfBytes": "32"
      },
      "t_uint8": {
        "encoding": "inplace",
        "label": "uint8",
        "numberOfBytes": "1"
      }
    }
  }
}