{
  "address": "0x7E9614DF620da5351b36465a7C5D06263a2e1716",
  "abi": [
    {
      "inputs": [
        {
          "internalType": "contract IERC20Full",
          "name": "_collateral",
          "type": "address"
        },
        {
          "internalType": "contract IERC20Full",
          "name": "_reputationToken",
          "type": "address"
        }
      ],
      "stateMutability": "nonpayable",
      "type": "constructor"
    },
    {
      "anonymous": false,
      "inputs": [
        {
          "indexed": true,
          "internalType": "address",
          "name": "owner",
          "type": "address"
        },
        {
          "indexed": true,
          "internalType": "address",
          "name": "spender",
          "type": "address"
        },
        {
          "indexed": false,
          "internalType": "uint256",
          "name": "value",
          "type": "uint256"
        }
      ],
      "name": "Approval",
      "type": "event"
    },
    {
      "anonymous": false,
      "inputs": [
        {
          "indexed": true,
          "internalType": "address",
          "name": "from",
          "type": "address"
        },
        {
          "indexed": true,
          "internalType": "address",
          "name": "to",
          "type": "address"
        },
        {
          "indexed": false,
          "internalType": "uint256",
          "name": "value",
          "type": "uint256"
        }
      ],
      "name": "Transfer",
      "type": "event"
    },
    {
      "inputs": [
        {
          "internalType": "address",
          "name": "owner",
          "type": "address"
        },
        {
          "internalType": "address",
          "name": "spender",
          "type": "address"
        }
      ],
      "name": "allowance",
      "outputs": [
        {
          "internalType": "uint256",
          "name": "",
          "type": "uint256"
        }
      ],
      "stateMutability": "view",
      "type": "function"
    },
    {
      "inputs": [
        {
          "internalType": "address",
          "name": "spender",
          "type": "address"
        },
        {
          "internalType": "uint256",
          "name": "amount",
          "type": "uint256"
        }
      ],
      "name": "approve",
      "outputs": [
        {
          "internalType": "bool",
          "name": "",
          "type": "bool"
        }
      ],
      "stateMutability": "nonpayable",
      "type": "function"
    },
    {
      "inputs": [
        {
          "internalType": "address",
          "name": "account",
          "type": "address"
        }
      ],
      "name": "balanceOf",
      "outputs": [
        {
          "internalType": "uint256",
          "name": "",
          "type": "uint256"
        }
      ],
      "stateMutability": "view",
      "type": "function"
    },
    {
      "inputs": [],
      "name": "collateral",
      "outputs": [
        {
          "internalType": "contract IERC20Full",
          "name": "",
          "type": "address"
        }
      ],
      "stateMutability": "view",
      "type": "function"
    },
    {
      "inputs": [],
      "name": "decimals",
      "outputs": [
        {
          "internalType": "uint8",
          "name": "",
          "type": "uint8"
        }
      ],
      "stateMutability": "view",
      "type": "function"
    },
    {
      "inputs": [
        {
          "internalType": "address",
          "name": "spender",
          "type": "address"
        },
        {
          "internalType": "uint256",
          "name": "subtractedValue",
          "type": "uint256"
        }
      ],
      "name": "decreaseAllowance",
      "outputs": [
        {
          "internalType": "bool",
          "name": "",
          "type": "bool"
        }
      ],
      "stateMutability": "nonpayable",
      "type": "function"
    },
    {
      "inputs": [
        {
          "internalType": "uint256",
          "name": "_amount",
          "type": "uint256"
        }
      ],
      "name": "depositFees",
      "outputs": [
        {
          "internalType": "bool",
          "name": "",
          "type": "bool"
        }
      ],
      "stateMutability": "nonpayable",
      "type": "function"
    },
    {
      "inputs": [
        {
          "internalType": "address",
          "name": "_owner",
          "type": "address"
        }
      ],
      "name": "earnedFeesOf",
      "outputs": [
        {
          "internalType": "uint256",
          "name": "",
          "type": "uint256"
        }
      ],
      "stateMutability": "view",
      "type": "function"
    },
    {
      "inputs": [
        {
          "internalType": "uint256",
          "name": "_amount",
          "type": "uint256"
        }
      ],
      "name": "exit",
      "outputs": [
        {
          "internalType": "bool",
          "name": "",
          "type": "bool"
        }
      ],
      "stateMutability": "nonpayable",
      "type": "function"
    },
    {
      "inputs": [],
      "name": "feeReserve",
      "outputs": [
        {
          "internalType": "uint256",
          "name": "",
          "type": "uint256"
        }
      ],
      "stateMutability": "view",
      "type": "function"
    },
    {
      "inputs": [
        {
          "internalType": "address",
          "name": "spender",
          "type": "address"
        },
        {
          "internalType": "uint256",
          "name": "addedValue",
          "type": "uint256"
        }
      ],
      "name": "increaseAllowance",
      "outputs": [
        {
          "internalType": "bool",
          "name": "",
          "type": "bool"
        }
      ],
      "stateMutability": "nonpayable",
      "type": "function"
    },
    {
      "inputs": [
        {
          "internalType": "address",
          "name": "",
          "type": "address"
        }
      ],
      "name": "magnifiedFeesCorrections",
      "outputs": [
        {
          "internalType": "uint256",
          "name": "",
          "type": "uint256"
        }
      ],
      "stateMutability": "view",
      "type": "function"
    },
    {
      "inputs": [],
      "name": "magnifiedFeesPerShare",
      "outputs": [
        {
          "internalType": "uint256",
          "name": "",
          "type": "uint256"
        }
      ],
      "stateMutability": "view",
      "type": "function"
    },
    {
      "inputs": [],
      "name": "name",
      "outputs": [
        {
          "internalType": "string",
          "name": "",
          "type": "string"
        }
      ],
      "stateMutability": "view",
      "type": "function"
    },
    {
      "inputs": [],
      "name": "redeem",
      "outputs": [
        {
          "internalType": "bool",
          "name": "",
          "type": "bool"
        }
      ],
      "stateMutability": "nonpayable",
      "type": "function"
    },
    {
      "inputs": [],
      "name": "reputationToken",
      "outputs": [
        {
          "internalType": "contract IERC20Full",
          "name": "",
          "type": "address"
        }
      ],
      "stateMutability": "view",
      "type": "function"
    },
    {
      "inputs": [
        {
          "internalType": "uint256",
          "name": "_amount",
          "type": "uint256"
        }
      ],
      "name": "stake",
      "outputs": [
        {
          "internalType": "bool",
          "name": "",
          "type": "bool"
        }
      ],
      "stateMutability": "nonpayable",
      "type": "function"
    },
    {
      "inputs": [
        {
          "internalType": "address",
          "name": "",
          "type": "address"
        }
      ],
      "name": "storedFees",
      "outputs": [
        {
          "internalType": "uint256",
          "name": "",
          "type": "uint256"
        }
      ],
      "stateMutability": "view",
      "type": "function"
    },
    {
      "inputs": [],
      "name": "symbol",
      "outputs": [
        {
          "internalType": "string",
          "name": "",
          "type": "string"
        }
      ],
      "stateMutability": "view",
      "type": "function"
    },
    {
      "inputs": [],
      "name": "totalSupply",
      "outputs": [
        {
          "internalType": "uint256",
          "name": "",
          "type": "uint256"
        }
      ],
      "stateMutability": "view",
      "type": "function"
    },
    {
      "inputs": [
        {
          "internalType": "address",
          "name": "recipient",
          "type": "address"
        },
        {
          "internalType": "uint256",
          "name": "amount",
          "type": "uint256"
        }
      ],
      "name": "transfer",
      "outputs": [
        {
          "internalType": "bool",
          "name": "",
          "type": "bool"
        }
      ],
      "stateMutability": "nonpayable",
      "type": "function"
    },
    {
      "inputs": [
        {
          "internalType": "address",
          "name": "sender",
          "type": "address"
        },
        {
          "internalType": "address",
          "name": "recipient",
          "type": "address"
        },
        {
          "internalType": "uint256",
          "name": "amount",
          "type": "uint256"
        }
      ],
      "name": "transferFrom",
      "outputs": [
        {
          "internalType": "bool",
          "name": "",
          "type": "bool"
        }
      ],
      "stateMutability": "nonpayable",
      "type": "function"
    },
    {
      "inputs": [
        {
          "internalType": "address",
          "name": "_owner",
          "type": "address"
        }
      ],
      "name": "withdrawableFeesOf",
      "outputs": [
        {
          "internalType": "uint256",
          "name": "",
          "type": "uint256"
        }
      ],
      "stateMutability": "view",
      "type": "function"
    }
  ],
  "transactionHash": "0x0c1aed841097187600a4c182964e1edcea5dcad2f751029ec0249b8a213146f3",
  "args": [
    "0x2791Bca1f2de4661ED88A30C99A7a9449Aa84174",
    "0x435C88888388D73BD97dab3B3EE1773B084E0cdd"
  ],
  "solcInputHash": "109a45c324f932d68075a796e3bac957",
  "bytecode": "0x60806040523480156200001157600080fd5b506040516200187b3803806200187b833981810160405260408110156200003757600080fd5b508051602090910151604080516395d89b4160e01b815290516001600160a01b038316916395d89b41916004808301926000929190829003018186803b1580156200008157600080fd5b505afa15801562000096573d6000803e3d6000fd5b505050506040513d6000823e601f3d908101601f191682016040526020811015620000c057600080fd5b8101908080516040519392919084640100000000821115620000e157600080fd5b908301906020820185811115620000f757600080fd5b82516401000000008111828201881017156200011257600080fd5b82525081516020918201929091019080838360005b838110156200014157818101518382015260200162000127565b50505050905090810190601f1680156200016f5780820380516001836020036101000a031916815260200191505b50604052505050604051602001808061535f60f01b81525060020182805190602001908083835b60208310620001b75780518252601f19909201916020918201910162000196565b6001836020036101000a038019825116818451168082178552505050505050905001915050604051602081830303815290604052816001600160a01b03166395d89b416040518163ffffffff1660e01b815260040160006040518083038186803b1580156200022557600080fd5b505afa1580156200023a573d6000803e3d6000fd5b505050506040513d6000823e601f3d908101601f1916820160405260208110156200026457600080fd5b81019080805160405193929190846401000000008211156200028557600080fd5b9083019060208201858111156200029b57600080fd5b8251640100000000811182820188101715620002b657600080fd5b82525081516020918201929091019080838360005b83811015620002e5578181015183820152602001620002cb565b50505050905090810190601f168015620003135780820380516001836020036101000a031916815260200191505b50604052505050604051602001808061535f60f01b81525060020182805190602001908083835b602083106200035b5780518252601f1990920191602091820191016200033a565b6001836020036101000a0380198251168184511680821785525050505050509050019150506040516020818303038152906040528160039080519060200190620003a79291906200041c565b508051620003bd9060049060208401906200041c565b505060058054601260ff1990911617610100600160a81b0319166101006001600160a01b0386811691820292909217909255600680546001600160a01b031916918516919091179055151590506200041457600080fd5b5050620004c8565b828054600181600116156101000203166002900490600052602060002090601f0160209004810192826200045457600085556200049f565b82601f106200046f57805160ff19168380011785556200049f565b828001600101855582156200049f579182015b828111156200049f57825182559160200191906001019062000482565b50620004ad929150620004b1565b5090565b5b80821115620004ad5760008155600101620004b2565b6113a380620004d86000396000f3fe608060405234801561001057600080fd5b506004361061014d5760003560e01c8063789ff0e1116100c3578063a9059cbb1161007c578063a9059cbb146103e3578063be040fb01461040f578063d083a7a914610417578063d8dfeb451461043d578063dd62ed3e14610445578063ebdac090146104735761014d565b8063789ff0e1146103475780637f8661a11461034f57806382005d861461036c57806395d89b4114610392578063a457c2d71461039a578063a694fc3a146103c65761014d565b8063275bbe9b11610115578063275bbe9b14610285578063313ce567146102a9578063341d302f146102c757806339509351146102cf57806349d2a4e6146102fb57806370a08231146103215761014d565b806306fdde0314610152578063095ea7b3146101cf578063125c12041461020f57806318160ddd1461024757806323b872dd1461024f575b600080fd5b61015a610490565b6040805160208082528351818301528351919283929083019185019080838360005b8381101561019457818101518382015260200161017c565b50505050905090810190601f1680156101c15780820380516001836020036101000a031916815260200191505b509250505060405180910390f35b6101fb600480360360408110156101e557600080fd5b506001600160a01b038135169060200135610526565b604080519115158252519081900360200190f35b6102356004803603602081101561022557600080fd5b50356001600160a01b0316610544565b60408051918252519081900360200190f35b610235610556565b6101fb6004803603606081101561026557600080fd5b506001600160a01b0381358116916020810135909116906040013561055c565b61028d6105e3565b604080516001600160a01b039092168252519081900360200190f35b6102b16105f2565b6040805160ff9092168252519081900360200190f35b6102356105fb565b6101fb600480360360408110156102e557600080fd5b506001600160a01b038135169060200135610601565b6102356004803603602081101561031157600080fd5b50356001600160a01b031661064f565b6102356004803603602081101561033757600080fd5b50356001600160a01b0316610661565b610235610680565b6101fb6004803603602081101561036557600080fd5b5035610686565b6102356004803603602081101561038257600080fd5b50356001600160a01b0316610749565b61015a610775565b6101fb600480360360408110156103b057600080fd5b506001600160a01b0381351690602001356107d6565b6101fb600480360360208110156103dc57600080fd5b503561083e565b6101fb600480360360408110156103f957600080fd5b506001600160a01b0381351690602001356108f5565b6101fb610909565b6102356004803603602081101561042d57600080fd5b50356001600160a01b0316610936565b61028d610998565b6102356004803603604081101561045b57600080fd5b506001600160a01b03813581169160200135166109ac565b6101fb6004803603602081101561048957600080fd5b50356109d7565b60038054604080516020601f600260001961010060018816150201909516949094049384018190048102820181019092528281526060939092909183018282801561051c5780601f106104f15761010080835404028352916020019161051c565b820191906000526020600020905b8154815290600101906020018083116104ff57829003601f168201915b5050505050905090565b600061053a610533610adb565b8484610adf565b5060015b92915050565b60096020526000908152604090205481565b60025490565b6000610569848484610bcb565b6105d984610575610adb565b6105d4856040518060600160405280602881526020016112b7602891396001600160a01b038a166000908152600160205260408120906105b3610adb565b6001600160a01b031681526020810191909152604001600020549190610c90565b610adf565b5060019392505050565b6006546001600160a01b031681565b60055460ff1690565b60075481565b600061053a61060e610adb565b846105d4856001600061061f610adb565b6001600160a01b03908116825260208083019390935260409182016000908120918c168152925290205490610d27565b60086020526000908152604090205481565b6001600160a01b0381166000908152602081905260409020545b919050565b600a5481565b600061069133610d88565b61069b3383610e38565b6006546040805163a9059cbb60e01b81523360048201526024810185905290516001600160a01b039092169163a9059cbb916044808201926020929091908290030181600087803b1580156106ef57600080fd5b505af1158015610703573d6000803e3d6000fd5b505050506040513d602081101561071957600080fd5b50610731905061072833610661565b60075490610f34565b33600090815260086020526040902055506001919050565b6001600160a01b03811660009081526009602052604081205461053e9061076f84610936565b90610f5b565b60048054604080516020601f600260001961010060018816150201909516949094049384018190048102820181019092528281526060939092909183018282801561051c5780601f106104f15761010080835404028352916020019161051c565b600061053a6107e3610adb565b846105d485604051806060016040528060258152602001611349602591396001600061080d610adb565b6001600160a01b03908116825260208083019390935260409182016000908120918d16815292529020549190610c90565b600654604080516323b872dd60e01b81523360048201523060248201526044810184905290516000926001600160a01b0316916323b872dd91606480830192602092919082900301818787803b15801561089757600080fd5b505af11580156108ab573d6000803e3d6000fd5b505050506040513d60208110156108c157600080fd5b506108ce90503383610f6d565b600754610731906108df9084610f34565b3360009081526008602052604090205490610f5b565b600061053a610902610adb565b8484610bcb565b600061091433610d88565b61092061072833610661565b3360009081526008602052604090205550600190565b60008061094283610661565b9050600061095b82600754610f3490919063ffffffff16565b6001600160a01b038516600090815260086020526040902054909150600160801b9061098890839061105d565b8161098f57fe5b04949350505050565b60055461010090046001600160a01b031681565b6001600160a01b03918216600090815260016020908152604080832093909416825291909152205490565b600554604080516323b872dd60e01b815233600482015230602482015260448101849052905160009261010090046001600160a01b0316916323b872dd91606480830192602092919082900301818787803b158015610a3557600080fd5b505af1158015610a49573d6000803e3d6000fd5b505050506040513d6020811015610a5f57600080fd5b5060009050610a6c610556565b905080610a8d57600a54610a809084610f5b565b600a55506001905061067b565b600a5415610aab57600a54610aa3908490610f5b565b6000600a5592505b610acf81610abd85600160801b610f34565b81610ac457fe5b600754919004610f5b565b60075550600192915050565b3390565b6001600160a01b038316610b245760405162461bcd60e51b81526004018080602001828103825260248152602001806113256024913960400191505060405180910390fd5b6001600160a01b038216610b695760405162461bcd60e51b815260040180806020018281038252602281526020018061126f6022913960400191505060405180910390fd5b6001600160a01b03808416600081815260016020908152604080832094871680845294825291829020859055815185815291517f8c5be1e5ebec7d5bd14f71427d1e84f3dd0314c0f7b2291e5b200ac8c7c3b9259281900390910190a3505050565b610bf6610bd784610936565b6001600160a01b03851660009081526009602052604090205490610f5b565b6001600160a01b038416600090815260096020526040902055610c1a838383611072565b610c2661072884610661565b6001600160a01b038416600090815260086020526040902055600754610c6f90610c509083610f34565b6001600160a01b03841660009081526008602052604090205490610f5b565b6001600160a01b039092166000908152600860205260409020919091555050565b60008184841115610d1f5760405162461bcd60e51b81526004018080602001828103825283818151815260200191508051906020019080838360005b83811015610ce4578181015183820152602001610ccc565b50505050905090810190601f168015610d115780820380516001836020036101000a031916815260200191505b509250505060405180910390fd5b505050900390565b600082820183811015610d81576040805162461bcd60e51b815260206004820152601b60248201527f536166654d6174683a206164646974696f6e206f766572666c6f770000000000604482015290519081900360640190fd5b9392505050565b6000610d9382610749565b90508015610e34576001600160a01b038083166000818152600960209081526040808320839055600554815163a9059cbb60e01b815260048101959095526024850187905290516101009091049094169363a9059cbb93604480820194918390030190829087803b158015610e0757600080fd5b505af1158015610e1b573d6000803e3d6000fd5b505050506040513d6020811015610e3157600080fd5b50505b5050565b6001600160a01b038216610e7d5760405162461bcd60e51b81526004018080602001828103825260218152602001806112df6021913960400191505060405180910390fd5b610e89826000836111cd565b610ec68160405180606001604052806022815260200161124d602291396001600160a01b0385166000908152602081905260409020549190610c90565b6001600160a01b038316600090815260208190526040902055600254610eec90826111d2565b6002556040805182815290516000916001600160a01b038516917fddf252ad1be2c89b69c2b068fc378daa952ba7f163c4a11628f55a4df523b3ef9181900360200190a35050565b600082610f435750600061053e565b82820282848281610f5057fe5b0414610d8157600080fd5b600082820183811015610d8157600080fd5b6001600160a01b038216610fc8576040805162461bcd60e51b815260206004820152601f60248201527f45524332303a206d696e7420746f20746865207a65726f206164647265737300604482015290519081900360640190fd5b610fd4600083836111cd565b600254610fe19082610d27565b6002556001600160a01b0382166000908152602081905260409020546110079082610d27565b6001600160a01b0383166000818152602081815260408083209490945583518581529351929391927fddf252ad1be2c89b69c2b068fc378daa952ba7f163c4a11628f55a4df523b3ef9281900390910190a35050565b60008282111561106c57600080fd5b50900390565b6001600160a01b0383166110b75760405162461bcd60e51b81526004018080602001828103825260258152602001806113006025913960400191505060405180910390fd5b6001600160a01b0382166110fc5760405162461bcd60e51b815260040180806020018281038252602381526020018061122a6023913960400191505060405180910390fd5b6111078383836111cd565b61114481604051806060016040528060268152602001611291602691396001600160a01b0386166000908152602081905260409020549190610c90565b6001600160a01b0380851660009081526020819052604080822093909355908416815220546111739082610d27565b6001600160a01b038084166000818152602081815260409182902094909455805185815290519193928716927fddf252ad1be2c89b69c2b068fc378daa952ba7f163c4a11628f55a4df523b3ef92918290030190a3505050565b505050565b60008282111561106c576040805162461bcd60e51b815260206004820152601e60248201527f536166654d6174683a207375627472616374696f6e206f766572666c6f770000604482015290519081900360640190fdfe45524332303a207472616e7366657220746f20746865207a65726f206164647265737345524332303a206275726e20616d6f756e7420657863656564732062616c616e636545524332303a20617070726f766520746f20746865207a65726f206164647265737345524332303a207472616e7366657220616d6f756e7420657863656564732062616c616e636545524332303a207472616e7366657220616d6f756e74206578636565647320616c6c6f77616e636545524332303a206275726e2066726f6d20746865207a65726f206164647265737345524332303a207472616e736665722066726f6d20746865207a65726f206164647265737345524332303a20617070726f76652066726f6d20746865207a65726f206164647265737345524332303a2064656372656173656420616c6c6f77616e63652062656c6f77207a65726fa264697066735822122061b3a288d27695cc00b1ccfc92e8144e42ee34825533b5b7790074078c20cb6964736f6c63430007060033",
  "devdoc": {
    "kind": "dev",
    "methods": {
      "allowance(address,address)": {
        "details": "See {IERC20-allowance}."
      },
      "approve(address,uint256)": {
        "details": "See {IERC20-approve}. Requirements: - `spender` cannot be the zero address."
      },
      "balanceOf(address)": {
        "details": "See {IERC20-balanceOf}."
      },
      "decimals()": {
        "details": "Returns the number of decimals used to get its user representation. For example, if `decimals` equals `2`, a balance of `505` tokens should be displayed to a user as `5,05` (`505 / 10 ** 2`). Tokens usually opt for a value of 18, imitating the relationship between Ether and Wei. This is the value {ERC20} uses, unless {_setupDecimals} is called. NOTE: This information is only used for _display_ purposes: it in no way affects any of the arithmetic of the contract, including {IERC20-balanceOf} and {IERC20-transfer}."
      },
      "decreaseAllowance(address,uint256)": {
        "details": "Atomically decreases the allowance granted to `spender` by the caller. This is an alternative to {approve} that can be used as a mitigation for problems described in {IERC20-approve}. Emits an {Approval} event indicating the updated allowance. Requirements: - `spender` cannot be the zero address. - `spender` must have allowance for the caller of at least `subtractedValue`."
      },
      "increaseAllowance(address,uint256)": {
        "details": "Atomically increases the allowance granted to `spender` by the caller. This is an alternative to {approve} that can be used as a mitigation for problems described in {IERC20-approve}. Emits an {Approval} event indicating the updated allowance. Requirements: - `spender` cannot be the zero address."
      },
      "name()": {
        "details": "Returns the name of the token."
      },
      "symbol()": {
        "details": "Returns the symbol of the token, usually a shorter version of the name."
      },
      "totalSupply()": {
        "details": "See {IERC20-totalSupply}."
      },
      "transfer(address,uint256)": {
        "details": "See {IERC20-transfer}. Requirements: - `recipient` cannot be the zero address. - the caller must have a balance of at least `amount`."
      },
      "transferFrom(address,address,uint256)": {
        "details": "See {IERC20-transferFrom}. Emits an {Approval} event indicating the updated allowance. This is not required by the EIP. See the note at the beginning of {ERC20}. Requirements: - `sender` and `recipient` cannot be the zero address. - `sender` must have a balance of at least `amount`. - the caller must have allowance for ``sender``'s tokens of at least `amount`."
      }
    },
    "version": 1
  },
  "userdoc": {
    "kind": "user",
    "methods": {},
    "version": 1
  },
  "storageLayout": {
    "storage": [
      {
        "astId": 371,
        "contract": "contracts/turbo/FeePot.sol:FeePot",
        "label": "_balances",
        "offset": 0,
        "slot": "0",
        "type": "t_mapping(t_address,t_uint256)"
      },
      {
        "astId": 377,
        "contract": "contracts/turbo/FeePot.sol:FeePot",
        "label": "_allowances",
        "offset": 0,
        "slot": "1",
        "type": "t_mapping(t_address,t_mapping(t_address,t_uint256))"
      },
      {
        "astId": 379,
        "contract": "contracts/turbo/FeePot.sol:FeePot",
        "label": "_totalSupply",
        "offset": 0,
        "slot": "2",
        "type": "t_uint256"
      },
      {
        "astId": 381,
        "contract": "contracts/turbo/FeePot.sol:FeePot",
        "label": "_name",
        "offset": 0,
        "slot": "3",
        "type": "t_string_storage"
      },
      {
        "astId": 383,
        "contract": "contracts/turbo/FeePot.sol:FeePot",
        "label": "_symbol",
        "offset": 0,
        "slot": "4",
        "type": "t_string_storage"
      },
      {
        "astId": 385,
        "contract": "contracts/turbo/FeePot.sol:FeePot",
        "label": "_decimals",
        "offset": 0,
        "slot": "5",
        "type": "t_uint8"
      },
      {
        "astId": 8734,
        "contract": "contracts/turbo/FeePot.sol:FeePot",
        "label": "collateral",
        "offset": 1,
        "slot": "5",
        "type": "t_contract(IERC20Full)5328"
      },
      {
        "astId": 8736,
        "contract": "contracts/turbo/FeePot.sol:FeePot",
        "label": "reputationToken",
        "offset": 0,
        "slot": "6",
        "type": "t_contract(IERC20Full)5328"
      },
      {
        "astId": 8738,
        "contract": "contracts/turbo/FeePot.sol:FeePot",
        "label": "magnifiedFeesPerShare",
        "offset": 0,
        "slot": "7",
        "type": "t_uint256"
      },
      {
        "astId": 8742,
        "contract": "contracts/turbo/FeePot.sol:FeePot",
        "label": "magnifiedFeesCorrections",
        "offset": 0,
        "slot": "8",
        "type": "t_mapping(t_address,t_uint256)"
      },
      {
        "astId": 8746,
        "contract": "contracts/turbo/FeePot.sol:FeePot",
        "label": "storedFees",
        "offset": 0,
        "slot": "9",
        "type": "t_mapping(t_address,t_uint256)"
      },
      {
        "astId": 8748,
        "contract": "contracts/turbo/FeePot.sol:FeePot",
        "label": "feeReserve",
        "offset": 0,
        "slot": "10",
        "type": "t_uint256"
      }
    ],
    "types": {
      "t_address": {
        "encoding": "inplace",
        "label": "address",
        "numberOfBytes": "20"
      },
      "t_contract(IERC20Full)5328": {
        "encoding": "inplace",
        "label": "contract IERC20Full",
        "numberOfBytes": "20"
      },
      "t_mapping(t_address,t_mapping(t_address,t_uint256))": {
        "encoding": "mapping",
        "key": "t_address",
        "label": "mapping(address => mapping(address => uint256))",
        "numberOfBytes": "32",
        "value": "t_mapping(t_address,t_uint256)"
      },
      "t_mapping(t_address,t_uint256)": {
        "encoding": "mapping",
        "key": "t_address",
        "label": "mapping(address => uint256)",
        "numberOfBytes": "32",
        "value": "t_uint256"
      },
      "t_string_storage": {
        "encoding": "bytes",
        "label": "string",
        "numberOfBytes": "32"
      },
      "t_uint256": {
        "encoding": "inplace",
        "label": "uint256",
        "numberOfBytes": "32"
      },
      "t_uint8": {
        "encoding": "inplace",
        "label": "uint8",
        "numberOfBytes": "1"
      }
    }
  }
}