{
  "address": "0xe296e39b44911a7fd4C741daa4eFDd345bF5a076",
  "abi": [
    {
      "inputs": [
        {
          "internalType": "address",
          "name": "_owner",
          "type": "address"
        },
        {
          "internalType": "contract IERC20Full",
          "name": "_collateral",
          "type": "address"
        },
        {
          "internalType": "uint256",
          "name": "_shareFactor",
          "type": "uint256"
        },
        {
          "internalType": "contract FeePot",
          "name": "_feePot",
          "type": "address"
        },
        {
          "internalType": "uint256",
          "name": "_stakerFee",
          "type": "uint256"
        },
        {
          "internalType": "uint256",
          "name": "_settlementFee",
          "type": "uint256"
        },
        {
          "internalType": "address",
          "name": "_protocol",
          "type": "address"
        },
        {
          "internalType": "uint256",
          "name": "_protocolFee",
          "type": "uint256"
        },
        {
          "internalType": "address",
          "name": "_linkNode",
          "type": "address"
        },
        {
          "internalType": "uint256",
          "name": "_sportId",
          "type": "uint256"
        }
      ],
      "stateMutability": "nonpayable",
      "type": "constructor"
    },
    {
      "anonymous": false,
      "inputs": [
        {
          "indexed": false,
          "internalType": "address",
          "name": "newLinkNode",
          "type": "address"
        }
      ],
      "name": "LinkNodeChanged",
      "type": "event"
    },
    {
      "anonymous": false,
      "inputs": [
        {
          "indexed": false,
          "internalType": "uint256",
          "name": "id",
          "type": "uint256"
        },
        {
          "indexed": false,
          "internalType": "address",
          "name": "creator",
          "type": "address"
        },
        {
          "indexed": false,
          "internalType": "uint256",
          "name": "endTime",
          "type": "uint256"
        },
        {
          "indexed": false,
          "internalType": "enum MMALinkMarketFactory.MarketType",
          "name": "marketType",
          "type": "uint8"
        },
        {
          "indexed": true,
          "internalType": "uint256",
          "name": "eventId",
          "type": "uint256"
        },
        {
          "indexed": false,
          "internalType": "string",
          "name": "homeFighterName",
          "type": "string"
        },
        {
          "indexed": false,
          "internalType": "uint256",
          "name": "homeFighterId",
          "type": "uint256"
        },
        {
          "indexed": false,
          "internalType": "string",
          "name": "awayFighterName",
          "type": "string"
        },
        {
          "indexed": false,
          "internalType": "uint256",
          "name": "awayFighterId",
          "type": "uint256"
        },
        {
          "indexed": false,
          "internalType": "uint256",
          "name": "estimatedStartTime",
          "type": "uint256"
        }
      ],
      "name": "MarketCreated",
      "type": "event"
    },
    {
      "anonymous": false,
      "inputs": [
        {
          "indexed": false,
          "internalType": "uint256",
          "name": "id",
          "type": "uint256"
        },
        {
          "indexed": false,
          "internalType": "address",
          "name": "winner",
          "type": "address"
        }
      ],
      "name": "MarketResolved",
      "type": "event"
    },
    {
      "anonymous": false,
      "inputs": [
        {
          "indexed": false,
          "internalType": "address",
          "name": "protocol",
          "type": "address"
        }
      ],
      "name": "ProtocolChanged",
      "type": "event"
    },
    {
      "anonymous": false,
      "inputs": [
        {
          "indexed": false,
          "internalType": "uint256",
          "name": "fee",
          "type": "uint256"
        }
      ],
      "name": "ProtocolFeeChanged",
      "type": "event"
    },
    {
      "anonymous": false,
      "inputs": [
        {
          "indexed": false,
          "internalType": "address",
          "name": "protocol",
          "type": "address"
        },
        {
          "indexed": false,
          "internalType": "uint256",
          "name": "amount",
          "type": "uint256"
        }
      ],
      "name": "ProtocolFeeClaimed",
      "type": "event"
    },
    {
      "anonymous": false,
      "inputs": [
        {
          "indexed": false,
          "internalType": "uint256",
          "name": "fee",
          "type": "uint256"
        }
      ],
      "name": "SettlementFeeChanged",
      "type": "event"
    },
    {
      "anonymous": false,
      "inputs": [
        {
          "indexed": false,
          "internalType": "address",
          "name": "settlementAddress",
          "type": "address"
        },
        {
          "indexed": false,
          "internalType": "uint256",
          "name": "amount",
          "type": "uint256"
        },
        {
          "indexed": true,
          "internalType": "address",
          "name": "receiver",
          "type": "address"
        }
      ],
      "name": "SettlementFeeClaimed",
      "type": "event"
    },
    {
      "anonymous": false,
      "inputs": [
        {
          "indexed": false,
          "internalType": "uint256",
          "name": "id",
          "type": "uint256"
        },
        {
          "indexed": false,
          "internalType": "uint256",
          "name": "amount",
          "type": "uint256"
        },
        {
          "indexed": false,
          "internalType": "address",
          "name": "receiver",
          "type": "address"
        }
      ],
      "name": "SharesBurned",
      "type": "event"
    },
    {
      "anonymous": false,
      "inputs": [
        {
          "indexed": false,
          "internalType": "uint256",
          "name": "id",
          "type": "uint256"
        },
        {
          "indexed": false,
          "internalType": "uint256",
          "name": "amount",
          "type": "uint256"
        },
        {
          "indexed": false,
          "internalType": "address",
          "name": "receiver",
          "type": "address"
        }
      ],
      "name": "SharesMinted",
      "type": "event"
    },
    {
      "anonymous": false,
      "inputs": [
        {
          "indexed": false,
          "internalType": "uint256",
          "name": "fee",
          "type": "uint256"
        }
      ],
      "name": "StakerFeeChanged",
      "type": "event"
    },
    {
      "anonymous": false,
      "inputs": [
        {
          "indexed": false,
          "internalType": "uint256",
          "name": "id",
          "type": "uint256"
        },
        {
          "indexed": false,
          "internalType": "address",
          "name": "winningOutcome",
          "type": "address"
        },
        {
          "indexed": false,
          "internalType": "uint256",
          "name": "amount",
          "type": "uint256"
        },
        {
          "indexed": false,
          "internalType": "uint256",
          "name": "settlementFee",
          "type": "uint256"
        },
        {
          "indexed": false,
          "internalType": "uint256",
          "name": "payout",
          "type": "uint256"
        },
        {
          "indexed": true,
          "internalType": "address",
          "name": "receiver",
          "type": "address"
        }
      ],
      "name": "WinningsClaimed",
      "type": "event"
    },
    {
      "inputs": [],
      "name": "accumulatedProtocolFee",
      "outputs": [
        {
          "internalType": "uint256",
          "name": "",
          "type": "uint256"
        }
      ],
      "stateMutability": "view",
      "type": "function"
    },
    {
      "inputs": [
        {
          "internalType": "address",
          "name": "",
          "type": "address"
        }
      ],
      "name": "accumulatedSettlementFees",
      "outputs": [
        {
          "internalType": "uint256",
          "name": "",
          "type": "uint256"
        }
      ],
      "stateMutability": "view",
      "type": "function"
    },
    {
      "inputs": [
        {
          "internalType": "uint256",
          "name": "_id",
          "type": "uint256"
        },
        {
          "internalType": "uint256",
          "name": "_sharesToBurn",
          "type": "uint256"
        },
        {
          "internalType": "address",
          "name": "_receiver",
          "type": "address"
        }
      ],
      "name": "burnShares",
      "outputs": [
        {
          "internalType": "uint256",
          "name": "",
          "type": "uint256"
        }
      ],
      "stateMutability": "nonpayable",
      "type": "function"
    },
    {
      "inputs": [
        {
          "internalType": "uint256",
          "name": "_shares",
          "type": "uint256"
        }
      ],
      "name": "calcCost",
      "outputs": [
        {
          "internalType": "uint256",
          "name": "",
          "type": "uint256"
        }
      ],
      "stateMutability": "view",
      "type": "function"
    },
    {
      "inputs": [
        {
          "internalType": "uint256",
          "name": "_collateralIn",
          "type": "uint256"
        }
      ],
      "name": "calcShares",
      "outputs": [
        {
          "internalType": "uint256",
          "name": "",
          "type": "uint256"
        }
      ],
      "stateMutability": "view",
      "type": "function"
    },
    {
      "inputs": [
        {
          "internalType": "uint256[]",
          "name": "_ids",
          "type": "uint256[]"
        },
        {
          "internalType": "address",
          "name": "_receiver",
          "type": "address"
        }
      ],
      "name": "claimManyWinnings",
      "outputs": [
        {
          "internalType": "uint256",
          "name": "",
          "type": "uint256"
        }
      ],
      "stateMutability": "nonpayable",
      "type": "function"
    },
    {
      "inputs": [],
      "name": "claimProtocolFees",
      "outputs": [
        {
          "internalType": "uint256",
          "name": "",
          "type": "uint256"
        }
      ],
      "stateMutability": "nonpayable",
      "type": "function"
    },
    {
      "inputs": [
        {
          "internalType": "address",
          "name": "_receiver",
          "type": "address"
        }
      ],
      "name": "claimSettlementFees",
      "outputs": [
        {
          "internalType": "uint256",
          "name": "",
          "type": "uint256"
        }
      ],
      "stateMutability": "nonpayable",
      "type": "function"
    },
    {
      "inputs": [
        {
          "internalType": "uint256",
          "name": "_id",
          "type": "uint256"
        },
        {
          "internalType": "address",
          "name": "_receiver",
          "type": "address"
        }
      ],
      "name": "claimWinnings",
      "outputs": [
        {
          "internalType": "uint256",
          "name": "",
          "type": "uint256"
        }
      ],
      "stateMutability": "nonpayable",
      "type": "function"
    },
    {
      "inputs": [],
      "name": "collateral",
      "outputs": [
        {
          "internalType": "contract IERC20Full",
          "name": "",
          "type": "address"
        }
      ],
      "stateMutability": "view",
      "type": "function"
    },
    {
      "inputs": [
        {
          "internalType": "uint256",
          "name": "_eventId",
          "type": "uint256"
        },
        {
          "internalType": "string",
          "name": "_homeFighterName",
          "type": "string"
        },
        {
          "internalType": "uint256",
          "name": "_homeFighterId",
          "type": "uint256"
        },
        {
          "internalType": "string",
          "name": "_awayFighterName",
          "type": "string"
        },
        {
          "internalType": "uint256",
          "name": "_awayFighterId",
          "type": "uint256"
        },
        {
          "internalType": "uint256",
          "name": "_startTimestamp",
          "type": "uint256"
        },
        {
          "internalType": "int256[2]",
          "name": "_moneylines",
          "type": "int256[2]"
        }
      ],
      "name": "createMarket",
      "outputs": [],
      "stateMutability": "nonpayable",
      "type": "function"
    },
    {
      "inputs": [
        {
          "internalType": "uint256",
          "name": "",
          "type": "uint256"
        }
      ],
      "name": "events",
      "outputs": [
        {
          "internalType": "uint256",
          "name": "homeFighterId",
          "type": "uint256"
        },
        {
          "internalType": "uint256",
          "name": "awayFighterId",
          "type": "uint256"
        },
        {
          "internalType": "uint256",
          "name": "startTime",
          "type": "uint256"
        },
        {
          "internalType": "enum MMALinkMarketFactory.EventStatus",
          "name": "eventStatus",
          "type": "uint8"
        }
      ],
      "stateMutability": "view",
      "type": "function"
    },
    {
      "inputs": [],
      "name": "feePot",
      "outputs": [
        {
          "internalType": "contract FeePot",
          "name": "",
          "type": "address"
        }
      ],
      "stateMutability": "view",
      "type": "function"
    },
    {
      "inputs": [
        {
          "internalType": "uint256",
          "name": "_eventId",
          "type": "uint256"
        }
      ],
      "name": "getEvent",
      "outputs": [
        {
          "components": [
            {
              "internalType": "uint256[1]",
              "name": "markets",
              "type": "uint256[1]"
            },
            {
              "internalType": "uint256",
              "name": "homeFighterId",
              "type": "uint256"
            },
            {
              "internalType": "uint256",
              "name": "awayFighterId",
              "type": "uint256"
            },
            {
              "internalType": "uint256",
              "name": "startTime",
              "type": "uint256"
            },
            {
              "internalType": "enum MMALinkMarketFactory.EventStatus",
              "name": "eventStatus",
              "type": "uint8"
            }
          ],
          "internalType": "struct MMALinkMarketFactory.EventDetails",
          "name": "_event",
          "type": "tuple"
        }
      ],
      "stateMutability": "view",
      "type": "function"
    },
    {
      "inputs": [
        {
          "internalType": "uint256",
          "name": "_id",
          "type": "uint256"
        }
      ],
      "name": "getMarket",
      "outputs": [
        {
          "components": [
            {
              "internalType": "address",
              "name": "settlementAddress",
              "type": "address"
            },
            {
              "internalType": "contract OwnedERC20[]",
              "name": "shareTokens",
              "type": "address[]"
            },
            {
              "internalType": "uint256",
              "name": "endTime",
              "type": "uint256"
            },
            {
              "internalType": "contract OwnedERC20",
              "name": "winner",
              "type": "address"
            },
            {
              "internalType": "uint256",
              "name": "settlementFee",
              "type": "uint256"
            },
            {
              "internalType": "uint256",
              "name": "protocolFee",
              "type": "uint256"
            },
            {
              "internalType": "uint256",
              "name": "stakerFee",
              "type": "uint256"
            },
            {
              "internalType": "uint256",
              "name": "creationTimestamp",
              "type": "uint256"
            },
            {
              "internalType": "uint256[]",
              "name": "initialOdds",
              "type": "uint256[]"
            }
          ],
          "internalType": "struct AbstractMarketFactoryV2.Market",
          "name": "",
          "type": "tuple"
        }
      ],
      "stateMutability": "view",
      "type": "function"
    },
    {
      "inputs": [
        {
          "internalType": "uint256",
          "name": "_marketId",
          "type": "uint256"
        }
      ],
      "name": "getMarketDetails",
      "outputs": [
        {
          "components": [
            {
              "internalType": "uint256",
              "name": "eventId",
              "type": "uint256"
            },
            {
              "internalType": "string",
              "name": "homeFighterName",
              "type": "string"
            },
            {
              "internalType": "uint256",
              "name": "homeFighterId",
              "type": "uint256"
            },
            {
              "internalType": "string",
              "name": "awayFighterName",
              "type": "string"
            },
            {
              "internalType": "uint256",
              "name": "awayFighterId",
              "type": "uint256"
            },
            {
              "internalType": "uint256",
              "name": "estimatedStartTime",
              "type": "uint256"
            },
            {
              "internalType": "enum MMALinkMarketFactory.MarketType",
              "name": "marketType",
              "type": "uint8"
            },
            {
              "internalType": "enum MMALinkMarketFactory.EventStatus",
              "name": "eventStatus",
              "type": "uint8"
            }
          ],
          "internalType": "struct MMALinkMarketFactory.MarketDetails",
          "name": "",
          "type": "tuple"
        }
      ],
      "stateMutability": "view",
      "type": "function"
    },
    {
      "inputs": [],
      "name": "getOwner",
      "outputs": [
        {
          "internalType": "address",
          "name": "",
          "type": "address"
        }
      ],
      "stateMutability": "view",
      "type": "function"
    },
    {
      "inputs": [
        {
          "internalType": "uint256",
          "name": "_id",
          "type": "uint256"
        }
      ],
      "name": "isMarketResolved",
      "outputs": [
        {
          "internalType": "bool",
          "name": "",
          "type": "bool"
        }
      ],
      "stateMutability": "view",
      "type": "function"
    },
    {
      "inputs": [],
      "name": "linkNode",
      "outputs": [
        {
          "internalType": "address",
          "name": "",
          "type": "address"
        }
      ],
      "stateMutability": "view",
      "type": "function"
    },
    {
      "inputs": [
        {
          "internalType": "uint256",
          "name": "",
          "type": "uint256"
        }
      ],
      "name": "listOfEvents",
      "outputs": [
        {
          "internalType": "uint256",
          "name": "",
          "type": "uint256"
        }
      ],
      "stateMutability": "view",
      "type": "function"
    },
    {
      "inputs": [],
      "name": "listResolvableEvents",
      "outputs": [
        {
          "internalType": "uint256[]",
          "name": "",
          "type": "uint256[]"
        }
      ],
      "stateMutability": "view",
      "type": "function"
    },
    {
      "inputs": [],
      "name": "listUnresolvedMarkets",
      "outputs": [
        {
          "internalType": "uint256[]",
          "name": "",
          "type": "uint256[]"
        }
      ],
      "stateMutability": "view",
      "type": "function"
    },
    {
      "inputs": [],
      "name": "marketCount",
      "outputs": [
        {
          "internalType": "uint256",
          "name": "",
          "type": "uint256"
        }
      ],
      "stateMutability": "view",
      "type": "function"
    },
    {
      "inputs": [
        {
          "internalType": "uint256",
          "name": "_id",
          "type": "uint256"
        },
        {
          "internalType": "uint256",
          "name": "_shareToMint",
          "type": "uint256"
        },
        {
          "internalType": "address",
          "name": "_receiver",
          "type": "address"
        }
      ],
      "name": "mintShares",
      "outputs": [],
      "stateMutability": "nonpayable",
      "type": "function"
    },
    {
      "inputs": [],
      "name": "protocol",
      "outputs": [
        {
          "internalType": "address",
          "name": "",
          "type": "address"
        }
      ],
      "stateMutability": "view",
      "type": "function"
    },
    {
      "inputs": [],
      "name": "protocolFee",
      "outputs": [
        {
          "internalType": "uint256",
          "name": "",
          "type": "uint256"
        }
      ],
      "stateMutability": "view",
      "type": "function"
    },
    {
      "inputs": [
        {
          "internalType": "uint256",
          "name": "",
          "type": "uint256"
        }
      ],
      "name": "resolveMarket",
      "outputs": [],
      "stateMutability": "pure",
      "type": "function"
    },
    {
      "inputs": [
        {
          "internalType": "address",
          "name": "_newLinkNode",
          "type": "address"
        }
      ],
      "name": "setLinkNode",
      "outputs": [],
      "stateMutability": "nonpayable",
      "type": "function"
    },
    {
      "inputs": [
        {
          "internalType": "address",
          "name": "_newProtocol",
          "type": "address"
        },
        {
          "internalType": "bool",
          "name": "_claimFirst",
          "type": "bool"
        }
      ],
      "name": "setProtocol",
      "outputs": [],
      "stateMutability": "nonpayable",
      "type": "function"
    },
    {
      "inputs": [
        {
          "internalType": "uint256",
          "name": "_newFee",
          "type": "uint256"
        }
      ],
      "name": "setProtocolFee",
      "outputs": [],
      "stateMutability": "nonpayable",
      "type": "function"
    },
    {
      "inputs": [
        {
          "internalType": "uint256",
          "name": "_newFee",
          "type": "uint256"
        }
      ],
      "name": "setSettlementFee",
      "outputs": [],
      "stateMutability": "nonpayable",
      "type": "function"
    },
    {
      "inputs": [
        {
          "internalType": "uint256",
          "name": "_newFee",
          "type": "uint256"
        }
      ],
      "name": "setStakerFee",
      "outputs": [],
      "stateMutability": "nonpayable",
      "type": "function"
    },
    {
      "inputs": [],
      "name": "settlementFee",
      "outputs": [
        {
          "internalType": "uint256",
          "name": "",
          "type": "uint256"
        }
      ],
      "stateMutability": "view",
      "type": "function"
    },
    {
      "inputs": [],
      "name": "shareFactor",
      "outputs": [
        {
          "internalType": "uint256",
          "name": "",
          "type": "uint256"
        }
      ],
      "stateMutability": "view",
      "type": "function"
    },
    {
      "inputs": [],
      "name": "sportId",
      "outputs": [
        {
          "internalType": "uint256",
          "name": "",
          "type": "uint256"
        }
      ],
      "stateMutability": "view",
      "type": "function"
    },
    {
      "inputs": [],
      "name": "stakerFee",
      "outputs": [
        {
          "internalType": "uint256",
          "name": "",
          "type": "uint256"
        }
      ],
      "stateMutability": "view",
      "type": "function"
    },
    {
      "inputs": [
        {
          "internalType": "address",
          "name": "_newOwner",
          "type": "address"
        }
      ],
      "name": "transferOwnership",
      "outputs": [
        {
          "internalType": "bool",
          "name": "",
          "type": "bool"
        }
      ],
      "stateMutability": "nonpayable",
      "type": "function"
    },
    {
      "inputs": [
        {
          "internalType": "uint256",
          "name": "_eventId",
          "type": "uint256"
        },
        {
          "internalType": "enum MMALinkMarketFactory.EventStatus",
          "name": "_eventStatus",
          "type": "uint8"
        },
        {
          "internalType": "uint256",
          "name": "_homeFighterId",
          "type": "uint256"
        },
        {
          "internalType": "uint256",
          "name": "_awayFighterId",
          "type": "uint256"
        },
        {
          "internalType": "enum MMALinkMarketFactory.WhoWon",
          "name": "_whoWon",
          "type": "uint8"
        }
      ],
      "name": "trustedResolveMarkets",
      "outputs": [],
      "stateMutability": "nonpayable",
      "type": "function"
    }
  ],
  "transactionHash": "0xb7ee59d2f7ddf6a7ec9ce2a554491b10bdcff8b948f2e88fe8b9ba85bb3b87da",
  "args": [
    "0x0000000000000000000000000000000000000000",
    "0x2791Bca1f2de4661ED88A30C99A7a9449Aa84174",
    "1000000000000",
    "0x7E9614DF620da5351b36465a7C5D06263a2e1716",
    0,
    "500000000000000",
    "0x0000000000000000000000000000000000000000",
    0,
    "0x6FBD37365bac1fC61EAb2b35ba4024B32b136be6",
    7
  ],
  "solcInputHash": "f49cb27a798ab781a7f4a911c950e5fd",
  "bytecode": "0x608060405260006007553480156200001657600080fd5b506040516200642138038062006421833981016040819052620000399162000534565b600080546001600160a01b03808d166001600160a01b0319928316331783161790925560018054838d16908316811790915560098b905560028054848c1690841617905560038990556004888155600680549489169490931693909317909155600585905560405163095ea7b360e01b81528c928c928c928c928c928c928c928c929163095ea7b391620000d491899160001991016200065d565b602060405180830381600087803b158015620000ef57600080fd5b505af115801562000104573d6000803e3d6000fd5b505050506040513d601f19601f820116820180604052508101906200012a9190620005e6565b506200013562000173565b5050600e80546001600160a01b0319166001600160a01b039990991698909817909755505050600f9290925550620006d19950505050505050505050565b6040805160008082526020820190925281620001a0565b60608152602001906001900390816200018a5790505b506040805160008082526020820190925291925050600a620001c76000848082866200029c565b8154600180820184556000938452602093849020835160099093020180546001600160a01b0319166001600160a01b03909316929092178255828401518051939492936200021e9392850192919091019062000409565b506040820151600282015560608201516003820180546001600160a01b0319166001600160a01b039092169190911790556080820151600482015560a0820151600582015560c0820151600682015560e0820151600782015561010082015180516200029591600884019160209091019062000473565b5050505050565b620002a6620004b1565b604051806101200160405280876001600160a01b03168152602001620002d48787306200031460201b60201c565b81526020810194909452600060408501526004546060850152600554608085015260035460a08501524260c085015260e090930191909152509392505050565b82516060906000816001600160401b03811180156200033257600080fd5b506040519080825280602002602001820160405280156200035d578160200160208202803683370190505b50905060005b82811015620003ff578681815181106200037957fe5b60200260200101518682815181106200038e57fe5b602002602001015186604051620003a5906200050f565b620003b39392919062000676565b604051809103906000f080158015620003d0573d6000803e3d6000fd5b50828281518110620003de57fe5b6001600160a01b039092166020928302919091019091015260010162000363565b5095945050505050565b82805482825590600052602060002090810192821562000461579160200282015b828111156200046157825182546001600160a01b0319166001600160a01b039091161782556020909201916001909101906200042a565b506200046f9291506200051d565b5090565b82805482825590600052602060002090810192821562000461579160200282015b828111156200046157825182559160200191906001019062000494565b60405180610120016040528060006001600160a01b03168152602001606081526020016000815260200160006001600160a01b0316815260200160008152602001600081526020016000815260200160008152602001606081525090565b6111f3806200522e83390190565b5b808211156200046f57600081556001016200051e565b6000806000806000806000806000806101408b8d03121562000554578586fd5b8a516200056181620006b8565b60208c0151909a506200057481620006b8565b60408c015160608d0151919a5098506200058e81620006b8565b8097505060808b0151955060a08b0151945060c08b0151620005b081620006b8565b60e08c01516101008d01519195509350620005cb81620006b8565b809250506101208b015190509295989b9194979a5092959850565b600060208284031215620005f8578081fd5b8151801515811462000608578182fd5b9392505050565b60008151808452815b81811015620006365760208185018101518683018201520162000618565b81811115620006485782602083870101525b50601f01601f19169290920160200192915050565b6001600160a01b03929092168252602082015260400190565b6000606082526200068b60608301866200060f565b82810360208401526200069f81866200060f565b91505060018060a01b0383166040830152949350505050565b6001600160a01b0381168114620006ce57600080fd5b50565b614b4d80620006e16000396000f3fe60806040523480156200001157600080fd5b5060043610620002685760003560e01c80638ce74426116200014d578063d5da4f1d11620000c9578063e5678dfa1162000087578063e5678dfa1462000525578063eb44fdd3146200053c578063ec9790821462000562578063f23311e4146200056c578063f2fde38b14620005835762000268565b8063d5da4f1d14620004d9578063d5db3efb14620004f0578063d8dfeb4514620004fa578063d9113f0d1462000504578063e2c30b15146200050e5762000268565b8063a544a62c1162000117578063a544a62c146200047e578063b06c1ba31462000488578063b0e21e8a14620004ae578063cc87adea14620004b8578063d4b6838e14620004cf5762000268565b80638ce74426146200042f5780638e0ed193146200043957806397eef1871462000450578063992c907914620004675762000268565b80634b2d9ffc11620001e957806371ba269611620001a757806371ba269614620003e35780637641ab0114620003fa578063787dce3d14620004045780637d1d7fb8146200041b578063893d20e814620004255762000268565b80634b2d9ffc146200035d5780634c9f66c7146200036757806353ac55f514620003805780636399d03d14620003a65780636d1884e014620003bd5762000268565b806335a9cdad116200023757806335a9cdad14620002e6578063473a6d52146200030c57806349a4d93414620003235780634a7d0369146200033a5780634a875e0b14620003445762000268565b80630b791430146200026d5780631dc1f9e2146200029f578063221fff8114620002b857806332ecabe914620002cf575b600080fd5b620002846200027e36600462002f66565b6200059a565b60405162000296949392919062003895565b60405180910390f35b620002b6620002b036600462002fc6565b620005c7565b005b620002b6620002c936600462003122565b6200074e565b620002b6620002e036600462002e4e565b62000a71565b620002fd620002f736600462003122565b62000af5565b604051620002969190620037b3565b620002fd6200031d36600462002f66565b62000f24565b620002fd6200033436600462002e31565b62000f77565b620002fd62000f89565b6200034e620010b1565b60405162000296919062003295565b620002fd62001188565b620003716200118e565b60405162000296919062003244565b620003976200039136600462002f66565b6200119d565b604051620002969190620032aa565b620002b6620003b736600462002f66565b6200130d565b620003d4620003ce36600462002f66565b6200132a565b60405162000296919062003606565b620002fd620003f436600462002f66565b620013c8565b620002fd620013ea565b620002b66200041536600462002f66565b620013f0565b620002fd6200144a565b6200037162001450565b620003716200145f565b620002fd6200044a36600462002e31565b6200146e565b620002b66200046136600462002f66565b6200156f565b620002fd6200047836600462002f98565b620015be565b620002fd62001918565b6200049f6200049936600462002f66565b6200191e565b6040516200029691906200366e565b620002fd62001ad9565b620002fd620004c936600462002f66565b62001adf565b6200037162001ae6565b620002b6620004ea36600462002f66565b62001af5565b620002fd62001b44565b6200037162001b4a565b6200034e62001b59565b620002b66200051f36600462002e31565b62001c29565b620002fd6200053636600462002e89565b62001c8e565b620005536200054d36600462002f66565b62001cdc565b6040516200029691906200370b565b620002fd62001eb4565b620002b66200057d36600462003024565b62001eba565b620003976200059436600462002e31565b62001fdb565b600c6020526000908152604090206001810154600282015460038301546004909301549192909160ff1684565b600e546001600160a01b03163314620005fd5760405162461bcd60e51b8152600401620005f49062003538565b60405180910390fd5b6000858152600c6020526040808220815160c081019092528160a081018260018282826020028201915b8154815260200190600101908083116200062757505050918352505060018201546020820152600282015460408201526003820154606082015260048083015460809092019160ff16908111156200067b57fe5b60048111156200068757fe5b905250805151909150620006af5760405162461bcd60e51b8152600401620005f490620032f7565b6001856004811115620006be57fe5b1415620006df5760405162461bcd60e51b8152600401620005f490620034db565b620006ee818686868662002045565b156200070557620006ff86620020af565b62000714565b805151620007149083620021f4565b6000868152600c6020526040902060049081018054879260ff199091169060019084908111156200074157fe5b0217905550505050505050565b600a548310620007725760405162461bcd60e51b8152600401620005f49062003510565b6200077d836200119d565b156200079d5760405162461bcd60e51b8152600401620005f4906200357a565b6000620007aa8362000f24565b6001546040516323b872dd60e01b81529192506001600160a01b0316906323b872dd90620007e19033903090869060040162003258565b602060405180830381600087803b158015620007fc57600080fd5b505af115801562000811573d6000803e3d6000fd5b505050506040513d601f19601f8201168201806040525081019062000837919062002f47565b506000600a85815481106200084857fe5b60009182526020918290206040805161012081018252600990930290910180546001600160a01b03168352600181018054835181870281018701909452808452939491938583019392830182828015620008cc57602002820191906000526020600020905b81546001600160a01b03168152600190910190602001808311620008ad575b50505050508152602001600282015481526020016003820160009054906101000a90046001600160a01b03166001600160a01b03166001600160a01b0316815260200160048201548152602001600582015481526020016006820154815260200160078201548152602001600882018054806020026020016040519081016040528092919081815260200182805480156200098757602002820191906000526020600020905b81548152602001906001019080831162000972575b505050505081525050905060005b81602001515181101562000a2c5781602001518181518110620009b457fe5b60200260200101516001600160a01b031663c024cd2685876040518363ffffffff1660e01b8152600401620009eb9291906200327c565b600060405180830381600087803b15801562000a0657600080fd5b505af115801562000a1b573d6000803e3d6000fd5b505060019092019150620009959050565b507fd81c0442e10068a9818f3aa093c9ccb804584690df572d7df3da2d892a6973f285858560405162000a629392919062003876565b60405180910390a15050505050565b6000546001600160a01b0316331462000a8957600080fd5b801562000a9c5762000a9a62000f89565b505b600680546001600160a01b0319166001600160a01b0384161790556040517f15b84596b3c567ae2998116949ae5f2d47f3055c12d9053db4d6e50f4c794dd99062000ae990849062003244565b60405180910390a15050565b600a54600090841062000b1c5760405162461bcd60e51b8152600401620005f49062003510565b62000b27846200119d565b1562000b475760405162461bcd60e51b8152600401620005f490620035c0565b6000600a858154811062000b5757fe5b60009182526020918290206040805161012081018252600990930290910180546001600160a01b0316835260018101805483518187028101870190945280845293949193858301939283018282801562000bdb57602002820191906000526020600020905b81546001600160a01b0316815260019091019060200180831162000bbc575b50505050508152602001600282015481526020016003820160009054906101000a90046001600160a01b03166001600160a01b03166001600160a01b03168152602001600482015481526020016005820154815260200160068201548152602001600782015481526020016008820180548060200260200160405190810160405280929190818152602001828054801562000c9657602002820191906000526020600020905b81548152602001906001019080831162000c81575b505050505081525050905060005b81602001515181101562000d3b578160200151818151811062000cc357fe5b60200260200101516001600160a01b03166342986e1333876040518363ffffffff1660e01b815260040162000cfa9291906200327c565b600060405180830381600087803b15801562000d1557600080fd5b505af115801562000d2a573d6000803e3d6000fd5b50506001909201915062000ca49050565b50600062000d498562000f24565b9050600062000d7a670de0b6b3a764000062000d738560a00151856200233990919063ffffffff16565b906200236b565b9050600062000da4670de0b6b3a764000062000d738660c00151866200233990919063ffffffff16565b905062000dbe8162000db7858562002381565b9062002381565b600780548401905560015460405163a9059cbb60e01b81529194506001600160a01b03169063a9059cbb9062000dfb90899087906004016200327c565b602060405180830381600087803b15801562000e1657600080fd5b505af115801562000e2b573d6000803e3d6000fd5b505050506040513d601f19601f8201168201806040525081019062000e51919062002f47565b50600254604051630ebdac0960e41b81526001600160a01b039091169063ebdac0909062000e84908490600401620037b3565b602060405180830381600087803b15801562000e9f57600080fd5b505af115801562000eb4573d6000803e3d6000fd5b505050506040513d601f19601f8201168201806040525081019062000eda919062002f47565b507fb6fdb729b2ed801daf629f0ab713e4a7a73619505790f6f27fd92d6f2c9688d788883360405162000f109392919062003876565b60405180910390a150909695505050505050565b6000600954821015801562000f435750600954828162000f4057fe5b06155b62000f625760405162461bcd60e51b8152600401620005f490620033f2565b600954828162000f6e57fe5b0490505b919050565b60086020526000908152604090205481565b6006546000906001600160a01b031633148062000fa557503330145b62000fc45760405162461bcd60e51b8152600401620005f49062003342565b6007548015620010ac57600060075560015460065460405163a9059cbb60e01b81526001600160a01b039283169263a9059cbb926200100b9291169085906004016200327c565b602060405180830381600087803b1580156200102657600080fd5b505af11580156200103b573d6000803e3d6000fd5b505050506040513d601f19601f8201168201806040525081019062001061919062002f47565b506006546040517f0f7f5b155b0b0ac6890709a2c7bf1b8bb3f675fff1e7840b4dd3c9acde59048b91620010a3916001600160a01b039091169084906200327c565b60405180910390a15b905090565b60606000620010bf62002397565b905060008167ffffffffffffffff81118015620010db57600080fd5b5060405190808252806020026020018201604052801562001106578160200160208202803683370190505b5090506000805b600d548110156200117f578382111562001127576200117f565b6000600d82815481106200113757fe5b906000526020600020015490506200114f81620023ec565b156200117557808484815181106200116357fe5b60209081029190910101526001909201915b506001016200110d565b50909250505090565b60035481565b6002546001600160a01b031681565b600080600a8381548110620011ae57fe5b60009182526020918290206040805161012081018252600990930290910180546001600160a01b031683526001810180548351818702810187019094528084529394919385830193928301828280156200123257602002820191906000526020600020905b81546001600160a01b0316815260019091019060200180831162001213575b50505050508152602001600282015481526020016003820160009054906101000a90046001600160a01b03166001600160a01b03166001600160a01b031681526020016004820154815260200160058201548152602001600682015481526020016007820154815260200160088201805480602002602001604051908101604052809291908181526020018280548015620012ed57602002820191906000526020600020905b815481526020019060010190808311620012d8575b50505091909252505050606001516001600160a01b031615159392505050565b60405162461bcd60e51b8152600401620005f49062003386565b50565b6200133462002b22565b6000828152600c602052604090819020815160c081019092528160a081018260018282826020028201915b8154815260200190600101908083116200135f57505050918352505060018201546020820152600282015460408201526003820154606082015260048083015460809092019160ff1690811115620013b357fe5b6004811115620013bf57fe5b90525092915050565b600d8181548110620013d957600080fd5b600091825260209091200154905081565b60095481565b6000546001600160a01b031633146200140857600080fd5b60058190556040517fada2cde3c4a561f5c23e2fdbfb223e1f0d1ec7109b9811b32644e6e974d6631f906200143f908390620037b3565b60405180910390a150565b60045481565b6000546001600160a01b031690565b6006546001600160a01b031681565b33600090815260086020526040812054801562001569573360009081526008602052604080822091909155600154905163a9059cbb60e01b81526001600160a01b039091169063a9059cbb90620014cc90869085906004016200327c565b602060405180830381600087803b158015620014e757600080fd5b505af1158015620014fc573d6000803e3d6000fd5b505050506040513d601f19601f8201168201806040525081019062001522919062002f47565b50826001600160a01b03167fc9985ad824d943d66367ce5feea26e18979b3e1c9273742926d87e2b0d7473873383604051620015609291906200327c565b60405180910390a25b92915050565b6000546001600160a01b031633146200158757600080fd5b60038190556040517fcc4df50442ac32f0142ba4853f617661e0823be0e92148e7e5f36ce56c139825906200143f908390620037b3565b6000620015cb836200119d565b620015db57620015db836200130d565b6000600a8481548110620015eb57fe5b60009182526020918290206040805161012081018252600990930290910180546001600160a01b031683526001810180548351818702810187019094528084529394919385830193928301828280156200166f57602002820191906000526020600020905b81546001600160a01b0316815260019091019060200180831162001650575b50505050508152602001600282015481526020016003820160009054906101000a90046001600160a01b03166001600160a01b03166001600160a01b0316815260200160048201548152602001600582015481526020016006820154815260200160078201548152602001600882018054806020026020016040519081016040528092919081815260200182805480156200172a57602002820191906000526020600020905b81548152602001906001019080831162001715575b5050505050815250509050600081606001516001600160a01b03166371297784336040518263ffffffff1660e01b815260040162001769919062003244565b602060405180830381600087803b1580156200178457600080fd5b505af115801562001799573d6000803e3d6000fd5b505050506040513d601f19601f82011682018060405250810190620017bf919062002f7f565b90506009546009548281620017d057fe5b040290506000620017e18262000f24565b905060006200180b670de0b6b3a764000062000d738660800151856200233990919063ffffffff16565b905062001819828262002381565b84516001600160a01b0390811660009081526008602052604090819020805485019055600154905163a9059cbb60e01b8152929450169063a9059cbb906200186890899086906004016200327c565b602060405180830381600087803b1580156200188357600080fd5b505af115801562001898573d6000803e3d6000fd5b505050506040513d601f19601f82011682018060405250810190620018be919062002f47565b50856001600160a01b03167fe67bd0100cd3289557430d36098901ba18161e6279c9711d8650b8af10552104888660600151868587604051620019069594939291906200384a565b60405180910390a25095945050505050565b60075481565b6200192862002b64565b6000828152600b60209081526040918290208251610100808201855282548252600180840180548751600293821615909402600019011691909104601f8101869004860283018601909652858252919492938581019391929190830182828015620019d75780601f10620019ab57610100808354040283529160200191620019d7565b820191906000526020600020905b815481529060010190602001808311620019b957829003601f168201915b505050918352505060028281015460208084019190915260038401805460408051601f6000196101006001861615020190931695909504918201849004840285018401815281855290940193909183018282801562001a7a5780601f1062001a4e5761010080835404028352916020019162001a7a565b820191906000526020600020905b81548152906001019060200180831162001a5c57829003601f168201915b50505091835250506004820154602082015260058201546040820152600682015460609091019060ff16801562001aad57fe5b801562001ab657fe5b81526020016006820160019054906101000a900460ff166004811115620013b357fe5b60055481565b6009540290565b600e546001600160a01b031681565b6000546001600160a01b0316331462001b0d57600080fd5b60048190556040517f92d395c429898992f8532ee7145901513e524c2085fd7fd1da39b8badcd6df31906200143f908390620037b3565b600f5481565b6001546001600160a01b031681565b60606000805b600a5481101562001b8a5762001b75816200119d565b62001b81576001909101905b60010162001b5f565b5060008167ffffffffffffffff8111801562001ba557600080fd5b5060405190808252806020026020018201604052801562001bd0578160200160208202803683370190505b5090506000805b600a548110156200117f5783821062001bf0576200117f565b62001bfb816200119d565b62001c20578083838151811062001c0e57fe5b60209081029190910101526001909101905b60010162001bd7565b6000546001600160a01b0316331462001c4157600080fd5b600e80546001600160a01b0319166001600160a01b0383161790556040517f6b7517523482c8d89ffbc530829d5decd506cf6dc60874b11fa26c8a53bb9fa9906200143f90839062003244565b600080805b845181101562001cd45762001cc962001cc186838151811062001cb257fe5b602002602001015186620015be565b8390620024d7565b915060010162001c93565b509392505050565b62001ce662002bb4565b600a54821062001d5657506040805161012081018252600080825282518181526020808201855280840191909152828401829052606083018290526080830182905260a0830182905260c0830182905260e083018290528351918252810190925261010081019190915262000f72565b600a828154811062001d6457fe5b60009182526020918290206040805161012081018252600990930290910180546001600160a01b0316835260018101805483518187028101870190945280845293949193858301939283018282801562001de857602002820191906000526020600020905b81546001600160a01b0316815260019091019060200180831162001dc9575b50505050508152602001600282015481526020016003820160009054906101000a90046001600160a01b03166001600160a01b03166001600160a01b03168152602001600482015481526020016005820154815260200160068201548152602001600782015481526020016008820180548060200260200160405190810160405280929190818152602001828054801562001ea357602002820191906000526020600020905b81548152602001906001019080831162001e8e575b505050505081525050905062000f72565b600a5490565b600e546001600160a01b0316331462001ee75760405162461bcd60e51b8152600401620005f4906200349a565b33600062001ef8846101e0620024d7565b60008a8152600c602090815260408083208151928301918290529394509192909160019082845b81548152602001906001019080831162001f1f575050505050905062001f4d83838c8c8c8c8c8c8c620024ea565b815260008a8152600c6020526040902062001f6b9082600162002c12565b5050506000888152600c602052604081206001808201989098556002810195909555600385019390935550506004909101805460ff191684179055600d805493840181559052507fd7b6990105719101dabeb77144f2a3385c8033acd3af97e9423a695e81ad1eb5019190915550565b600080546001600160a01b0316331462001ff457600080fd5b6001600160a01b0382166200200857600080fd5b60005462002020906001600160a01b031683620027dc565b50600080546001600160a01b0383166001600160a01b03199091161790556001919050565b60008060038360038111156200205757fe5b149050600060028760048111156200206b57fe5b60208a015160408b0151929091141592508714159086141583806200208d5750825b80620020965750815b806200209f5750805b9450505050505b95945050505050565b6000818152600c602090815260408083208151928301918290529060019082845b815481526020019060010190808311620020d0575050505050905060005b6001811015620021ef5760008282600181106200210757fe5b60200201519050806200211b5750620021e6565b6000600a82815481106200212b57fe5b90600052602060002090600902016001016000815481106200214957fe5b600091825260209091200154600a80546001600160a01b0390921692508291849081106200217357fe5b906000526020600020906009020160030160006101000a8154816001600160a01b0302191690836001600160a01b031602179055507fc68d106ea6e4bec784925cfd91767212c71ced92adbac107dc364435321113f68282604051620021db929190620037bc565b60405180910390a150505b600101620020ee565b505050565b60008160038111156200220357fe5b600114156200225857600a83815481106200221a57fe5b6000918252602090912060016009909202010160025b815481106200223b57fe5b6000918252602090912001546001600160a01b03169050620022b5565b8160038111156200226557fe5b600214156200229b57600a83815481106200227c57fe5b9060005260206000209060090201600101600160028111156200223057fe5b60405162461bcd60e51b8152600401620005f49062003463565b80600a8481548110620022c457fe5b906000526020600020906009020160030160006101000a8154816001600160a01b0302191690836001600160a01b031602179055507fc68d106ea6e4bec784925cfd91767212c71ced92adbac107dc364435321113f683826040516200232c929190620037bc565b60405180910390a1505050565b6000826200234a5750600062001569565b828202828482816200235857fe5b04146200236457600080fd5b9392505050565b6000808284816200237857fe5b04949350505050565b6000828211156200239157600080fd5b50900390565b600080805b600d54811015620023e6576000600d8281548110620023b757fe5b90600052602060002001549050620023cf81620023ec565b15620023dc576001909201915b506001016200239c565b50905090565b6000818152600c6020526040808220815160c081019092528291908160a081018260018282826020028201915b8154815260200190600101908083116200241957505050918352505060018201546020820152600282015460408201526003820154606082015260048083015460809092019160ff16908111156200246d57fe5b60048111156200247957fe5b90525090506000805b600181101562001cd457825160009082600181106200249d57fe5b602002015190508015801590620024bc5750620024ba816200119d565b155b15620024cd57600192505062001cd4565b5060010162002482565b6000828201838110156200236457600080fd5b60408051600380825260808201909252600091829190816020015b6060815260200190600190039081620025055790505060408051808201909152600a815269139bc810dbdb9d195cdd60b21b6020820152909150816000815181106200254d57fe5b602090810291909101015285816001815181106200256757fe5b602090810291909101015287816002815181106200258157fe5b6020908102919091010152600a805490620025b98d84808f620025b38a600160200201518b60006020020151620027e0565b62002950565b8154600180820184556000938452602093849020835160099093020180546001600160a01b0319166001600160a01b0390931692909217825582840151805193949293620026109392850192919091019062002c55565b506040820151600282015560608201516003820180546001600160a01b0319166001600160a01b039092169190911790556080820151600482015560a0820151600582015560c0820151600682015560e0820151600782015561010082015180516200268791600884019160209091019062002cad565b5050506040518061010001604052808b81526020018a8152602001898152602001888152602001878152602001868152602001600080811115620026c757fe5b8152600160209182018190526000848152600b835260409020835181558383015180519193620026fd9385019291019062002cea565b5060408201516002820155606082015180516200272591600384019160209091019062002cea565b506080820151600482015560a0820151600582015560c082015160068201805460ff191660018380156200275557fe5b021790555060e082015160068201805461ff0019166101008360048111156200277a57fe5b0217905550905050897fdd33268f1f074f3438fb67ef0cc66f069a975721ffebbe44f59b8616262ce5d4828e8e60008e8e8e8e8e604051620027c599989796959493929190620037d3565b60405180910390a29b9a5050505050505050505050565b5050565b60606000620027ef84620029c2565b90506000620027fe84620029c2565b90508181016200281d8162000d736802a802f8630a2400008662002339565b9250620028398162000d736802a802f8630a2400008562002339565b9150670de0b6b3a7640000831015620028845760405162461bcd60e51b815260040180806020018281038252603781526020018062004ae16037913960400191505060405180910390fd5b670de0b6b3a7640000821015620028cd5760405162461bcd60e51b815260040180806020018281038252603781526020018062004ae16037913960400191505060405180910390fd5b604080516003808252608082019092529060208201606080368337019050509350670de0b6b3a7640000846000815181106200290557fe5b60200260200101818152505082846001815181106200292057fe5b60200260200101818152505081846002815181106200293b57fe5b60200260200101818152505050505092915050565b6200295a62002bb4565b604051806101200160405280876001600160a01b031681526020016200298287873062002a2c565b81526020810194909452600060408501526004546060850152600554608085015260035460a08501524260c085015260e090930191909152509392505050565b60008082121562002a01576000829003620029f8620029e3826064620024d7565b62000d73836802a802f8630a24000062002339565b91505062000f72565b62002a2462002a12836064620024d7565b690109a12906aff6100000906200236b565b905062000f72565b825160609060008167ffffffffffffffff8111801562002a4b57600080fd5b5060405190808252806020026020018201604052801562002a76578160200160208202803683370190505b50905060005b8281101562002b185786818151811062002a9257fe5b602002602001015186828151811062002aa757fe5b60200260200101518660405162002abe9062002d6c565b62002acc93929190620032b5565b604051809103906000f08015801562002ae9573d6000803e3d6000fd5b5082828151811062002af757fe5b6001600160a01b039092166020928302919091019091015260010162002a7c565b5095945050505050565b6040518060a0016040528062002b3762002d7a565b81526020016000815260200160008152602001600081526020016000600481111562002b5f57fe5b905290565b60405180610100016040528060008152602001606081526020016000815260200160608152602001600081526020016000815260200160008081111562002ba757fe5b8152602001600062002b5f565b60405180610120016040528060006001600160a01b03168152602001606081526020016000815260200160006001600160a01b0316815260200160008152602001600081526020016000815260200160008152602001606081525090565b826001810192821562002c43579160200282015b8281111562002c4357825182559160200191906001019062002c26565b5062002c5192915062002d98565b5090565b82805482825590600052602060002090810192821562002c43579160200282015b8281111562002c4357825182546001600160a01b0319166001600160a01b0390911617825560209092019160019091019062002c76565b82805482825590600052602060002090810192821562002c43579160200282018281111562002c4357825182559160200191906001019062002c26565b828054600181600116156101000203166002900490600052602060002090601f01602090048101928262002d22576000855562002c43565b82601f1062002d3d57805160ff191683800117855562002c43565b8280016001018555821562002c43579182018281111562002c4357825182559160200191906001019062002c26565b6111f380620038ee83390190565b60405180602001604052806001906020820280368337509192915050565b5b8082111562002c51576000815560010162002d99565b80356001600160a01b038116811462000f7257600080fd5b600082601f83011262002dd8578081fd5b813567ffffffffffffffff81111562002ded57fe5b62002e02601f8201601f1916602001620038b9565b81815284602083860101111562002e17578283fd5b816020850160208301379081016020019190915292915050565b60006020828403121562002e43578081fd5b620023648262002daf565b6000806040838503121562002e61578081fd5b62002e6c8362002daf565b9150602083013562002e7e81620038de565b809150509250929050565b6000806040838503121562002e9c578182fd5b823567ffffffffffffffff8082111562002eb4578384fd5b818501915085601f83011262002ec8578384fd5b813560208282111562002ed757fe5b808202925062002ee9818401620038b9565b8281528181019085830185870184018b101562002f04578889fd5b8896505b8487101562002f2857803583526001969096019591830191830162002f08565b50965062002f3a905087820162002daf565b9450505050509250929050565b60006020828403121562002f59578081fd5b81516200236481620038de565b60006020828403121562002f78578081fd5b5035919050565b60006020828403121562002f91578081fd5b5051919050565b6000806040838503121562002fab578182fd5b8235915062002fbd6020840162002daf565b90509250929050565b600080600080600060a0868803121562002fde578081fd5b8535945060208601356005811062002ff4578182fd5b9350604086013592506060860135915060808601356004811062003016578182fd5b809150509295509295909350565b600080600080600080600061010080898b03121562003041578283fd5b883597506020808a013567ffffffffffffffff8082111562003061578586fd5b6200306f8d838e0162002dc7565b995060408c0135985060608c01359150808211156200308c578586fd5b6200309a8d838e0162002dc7565b975060808c0135965060a08c013595508c60df8d0112620030b9578485fd5b6040519150604082018281108282111715620030d157fe5b604052508060c08c01848d018e1015620030e9578586fd5b8594505b60028510156200310e578035825260019490940193908301908301620030ed565b505080935050505092959891949750929550565b60008060006060848603121562003137578081fd5b8335925060208401359150620031506040850162002daf565b90509250925092565b6001600160a01b03169052565b6000815180845260208085019450808401835b83811015620031a05781516001600160a01b03168752958201959082019060010162003179565b509495945050505050565b6000815180845260208085019450808401835b83811015620031a057815187529582019590820190600101620031be565b60058110620031e757fe5b9052565b60018110620031e757fe5b60008151808452815b818110156200321d57602081850181015186830182015201620031ff565b818111156200322f5782602083870101525b50601f01601f19169290920160200192915050565b6001600160a01b0391909116815260200190565b6001600160a01b039384168152919092166020820152604081019190915260600190565b6001600160a01b03929092168252602082015260400190565b600060208252620023646020830184620031ab565b901515815260200190565b600060608252620032ca6060830186620031f6565b8281036020840152620032de8186620031f6565b91505060018060a01b0383166040830152949350505050565b6020808252602b908201527f43616e6e6f74207265736f6c7665206d61726b6574732074686174207765726560408201526a1b89dd0818dc99585d195960aa1b606082015260800190565b60208082526024908201527f4f6e6c792070726f746f636f6c2063616e20636c61696d2070726f746f636f6c6040820152632066656560e01b606082015260800190565b60208082526046908201527f4f6e6c7920746865206c696e6b206e6f64652063616e207265736f6c7665207460408201527f6865206d61726b65742c207573696e6720747275737465645265736f6c76654d60608201526561726b65747360d01b608082015260a00190565b6020808252604b908201527f536861726573206d75737420626520626f74682067726561746572207468616e60408201527f20286f7220657175616c20746f2920616e6420646976697369626c652062792060608201526a39b430b932a330b1ba37b960a91b608082015260a00190565b6020808252601c908201527f426164206d61726b6574207265736f6c7574696f6e2063686f69636500000000604082015260600190565b60208082526021908201527f4f6e6c79206c696e6b206e6f64652063616e20637265617465206d61726b65746040820152607360f81b606082015260800190565b6020808252818101527f43616e6e6f74207265736f6c7665205343484544554c4544206d61726b657473604082015260600190565b6020808252600e908201526d139bc81cdd58da081b585c9ad95d60921b604082015260600190565b60208082526022908201527f4f6e6c79206c696e6b206e6f64652063616e207265736f6c7665206d61726b65604082015261747360f01b606082015260800190565b60208082526026908201527f43616e6e6f74206d696e742073686172657320666f72207265736f6c766564206040820152651b585c9ad95d60d21b606082015260800190565b60208082526026908201527f43616e6e6f74206275726e2073686172657320666f72207265736f6c766564206040820152651b585c9ad95d60d21b606082015260800190565b815160a08201908260005b60018110156200363257825182526020928301929091019060010162003611565b5050506020830151602083015260408301516040830152606083015160608301526080830151620036676080840182620031dc565b5092915050565b60006020825282516020830152602083015161010080604085015262003699610120850183620031f6565b9150604085015160608501526060850151601f19858403016080860152620036c28382620031f6565b925050608085015160a085015260a085015160c085015260c0850151620036ed60e0860182620031eb565b5060e08501516200370182860182620031dc565b5090949350505050565b6000602082526200372160208301845162003159565b60208301516101208060408501526200373f61014085018362003166565b91506040850151606085015260608501516200375f608086018262003159565b50608085015160a085015260a085015160c085015260c085015160e085015260e0850151610100818187015280870151915050601f198584030182860152620037a98382620031ab565b9695505050505050565b90815260200190565b9182526001600160a01b0316602082015260400190565b8981526001600160a01b038916602082015260408101889052600061012062003800606084018a620031eb565b8060808401526200381481840189620031f6565b90508660a084015282810360c0840152620038308187620031f6565b60e084019590955250506101000152979650505050505050565b9485526001600160a01b0393909316602085015260408401919091526060830152608082015260a00190565b92835260208301919091526001600160a01b0316604082015260600190565b848152602081018490526040810183905260808101620020a66060830184620031dc565b60405181810167ffffffffffffffff81118282101715620038d657fe5b604052919050565b80151581146200132757600080fdfe60806040523480156200001157600080fd5b50604051620011f3380380620011f3833981810160405260608110156200003757600080fd5b81019080805160405193929190846401000000008211156200005857600080fd5b9083019060208201858111156200006e57600080fd5b82516401000000008111828201881017156200008957600080fd5b82525081516020918201929091019080838360005b83811015620000b85781810151838201526020016200009e565b50505050905090810190601f168015620000e65780820380516001836020036101000a031916815260200191505b50604052602001805160405193929190846401000000008211156200010a57600080fd5b9083019060208201858111156200012057600080fd5b82516401000000008111828201881017156200013b57600080fd5b82525081516020918201929091019080838360005b838110156200016a57818101518382015260200162000150565b50505050905090810190601f168015620001985780820380516001836020036101000a031916815260200191505b5060405260209081015185519093508592508491620001bd9160039185019062000219565b508051620001d390600490602084019062000219565b5050600580546001600160a01b039390931661010090810233909102610100600160a81b031960ff199095166012178516179093169290921790915550620002c5915050565b828054600181600116156101000203166002900490600052602060002090601f0160209004810192826200025157600085556200029c565b82601f106200026c57805160ff19168380011785556200029c565b828001600101855582156200029c579182015b828111156200029c5782518255916020019190600101906200027f565b50620002aa929150620002ae565b5090565b5b80821115620002aa5760008155600101620002af565b610f1e80620002d56000396000f3fe608060405234801561001057600080fd5b506004361061010b5760003560e01c806370a08231116100a2578063a457c2d711610071578063a457c2d714610343578063a9059cbb1461036f578063c024cd261461039b578063dd62ed3e146103c7578063f2fde38b146103f55761010b565b806370a08231146102cb57806371297784146102f1578063893d20e81461031757806395d89b411461033b5761010b565b806323b872dd116100de57806323b872dd1461021f578063313ce56714610255578063395093511461027357806342986e131461029f5761010b565b806306fdde0314610110578063095ea7b31461018d5780630fb66557146101cd57806318160ddd14610205575b600080fd5b61011861041b565b6040805160208082528351818301528351919283929083019185019080838360005b8381101561015257818101518382015260200161013a565b50505050905090810190601f16801561017f5780820380516001836020036101000a031916815260200191505b509250505060405180910390f35b6101b9600480360360408110156101a357600080fd5b506001600160a01b0381351690602001356104b1565b604080519115158252519081900360200190f35b610203600480360360608110156101e357600080fd5b506001600160a01b038135811691602081013590911690604001356104ce565b005b61020d6104fa565b60408051918252519081900360200190f35b6101b96004803603606081101561023557600080fd5b506001600160a01b03813581169160208101359091169060400135610500565b61025d610587565b6040805160ff9092168252519081900360200190f35b6101b96004803603604081101561028957600080fd5b506001600160a01b038135169060200135610590565b610203600480360360408110156102b557600080fd5b506001600160a01b0381351690602001356105de565b61020d600480360360208110156102e157600080fd5b50356001600160a01b0316610608565b61020d6004803603602081101561030757600080fd5b50356001600160a01b0316610623565b61031f61065f565b604080516001600160a01b039092168252519081900360200190f35b610118610673565b6101b96004803603604081101561035957600080fd5b506001600160a01b0381351690602001356106d4565b6101b96004803603604081101561038557600080fd5b506001600160a01b03813516906020013561073c565b610203600480360360408110156103b157600080fd5b506001600160a01b038135169060200135610750565b61020d600480360360408110156103dd57600080fd5b506001600160a01b0381358116916020013516610776565b6101b96004803603602081101561040b57600080fd5b50356001600160a01b03166107a1565b60038054604080516020601f60026000196101006001881615020190951694909404938401819004810282018101909252828152606093909290918301828280156104a75780601f1061047c576101008083540402835291602001916104a7565b820191906000526020600020905b81548152906001019060200180831161048a57829003601f168201915b5050505050905090565b60006104c56104be610818565b848461081c565b50600192915050565b60055461010090046001600160a01b031633146104ea57600080fd5b6104f5838383610908565b505050565b60025490565b600061050d848484610908565b61057d84610519610818565b61057885604051806060016040528060288152602001610e32602891396001600160a01b038a16600090815260016020526040812090610557610818565b6001600160a01b031681526020810191909152604001600020549190610a63565b61081c565b5060019392505050565b60055460ff1690565b60006104c561059d610818565b8461057885600160006105ae610818565b6001600160a01b03908116825260208083019390935260409182016000908120918c168152925290205490610afa565b60055461010090046001600160a01b031633146105fa57600080fd5b6106048282610b5b565b5050565b6001600160a01b031660009081526020819052604090205490565b60055460009061010090046001600160a01b0316331461064257600080fd5b600061064d83610608565b90506106598382610b5b565b92915050565b60055461010090046001600160a01b031690565b60048054604080516020601f60026000196101006001881615020190951694909404938401819004810282018101909252828152606093909290918301828280156104a75780601f1061047c576101008083540402835291602001916104a7565b60006104c56106e1610818565b8461057885604051806060016040528060258152602001610ec4602591396001600061070b610818565b6001600160a01b03908116825260208083019390935260409182016000908120918d16815292529020549190610a63565b60006104c5610749610818565b8484610908565b60055461010090046001600160a01b0316331461076c57600080fd5b6106048282610c57565b6001600160a01b03918216600090815260016020908152604080832093909416825291909152205490565b60055460009061010090046001600160a01b031633146107c057600080fd5b6001600160a01b0382166107d357600080fd5b6005546107ee9061010090046001600160a01b031683610604565b50600580546001600160a01b03831661010002610100600160a81b03199091161790556001919050565b3390565b6001600160a01b0383166108615760405162461bcd60e51b8152600401808060200182810382526024815260200180610ea06024913960400191505060405180910390fd5b6001600160a01b0382166108a65760405162461bcd60e51b8152600401808060200182810382526022815260200180610dea6022913960400191505060405180910390fd5b6001600160a01b03808416600081815260016020908152604080832094871680845294825291829020859055815185815291517f8c5be1e5ebec7d5bd14f71427d1e84f3dd0314c0f7b2291e5b200ac8c7c3b9259281900390910190a3505050565b6001600160a01b03831661094d5760405162461bcd60e51b8152600401808060200182810382526025815260200180610e7b6025913960400191505060405180910390fd5b6001600160a01b0382166109925760405162461bcd60e51b8152600401808060200182810382526023815260200180610da56023913960400191505060405180910390fd5b61099d8383836104f5565b6109da81604051806060016040528060268152602001610e0c602691396001600160a01b0386166000908152602081905260409020549190610a63565b6001600160a01b038085166000908152602081905260408082209390935590841681522054610a099082610afa565b6001600160a01b038084166000818152602081815260409182902094909455805185815290519193928716927fddf252ad1be2c89b69c2b068fc378daa952ba7f163c4a11628f55a4df523b3ef92918290030190a3505050565b60008184841115610af25760405162461bcd60e51b81526004018080602001828103825283818151815260200191508051906020019080838360005b83811015610ab7578181015183820152602001610a9f565b50505050905090810190601f168015610ae45780820380516001836020036101000a031916815260200191505b509250505060405180910390fd5b505050900390565b600082820183811015610b54576040805162461bcd60e51b815260206004820152601b60248201527f536166654d6174683a206164646974696f6e206f766572666c6f770000000000604482015290519081900360640190fd5b9392505050565b6001600160a01b038216610ba05760405162461bcd60e51b8152600401808060200182810382526021815260200180610e5a6021913960400191505060405180910390fd5b610bac826000836104f5565b610be981604051806060016040528060228152602001610dc8602291396001600160a01b0385166000908152602081905260409020549190610a63565b6001600160a01b038316600090815260208190526040902055600254610c0f9082610d47565b6002556040805182815290516000916001600160a01b038516917fddf252ad1be2c89b69c2b068fc378daa952ba7f163c4a11628f55a4df523b3ef9181900360200190a35050565b6001600160a01b038216610cb2576040805162461bcd60e51b815260206004820152601f60248201527f45524332303a206d696e7420746f20746865207a65726f206164647265737300604482015290519081900360640190fd5b610cbe600083836104f5565b600254610ccb9082610afa565b6002556001600160a01b038216600090815260208190526040902054610cf19082610afa565b6001600160a01b0383166000818152602081815260408083209490945583518581529351929391927fddf252ad1be2c89b69c2b068fc378daa952ba7f163c4a11628f55a4df523b3ef9281900390910190a35050565b600082821115610d9e576040805162461bcd60e51b815260206004820152601e60248201527f536166654d6174683a207375627472616374696f6e206f766572666c6f770000604482015290519081900360640190fd5b5090039056fe45524332303a207472616e7366657220746f20746865207a65726f206164647265737345524332303a206275726e20616d6f756e7420657863656564732062616c616e636545524332303a20617070726f766520746f20746865207a65726f206164647265737345524332303a207472616e7366657220616d6f756e7420657863656564732062616c616e636545524332303a207472616e7366657220616d6f756e74206578636565647320616c6c6f77616e636545524332303a206275726e2066726f6d20746865207a65726f206164647265737345524332303a207472616e736665722066726f6d20746865207a65726f206164647265737345524332303a20617070726f76652066726f6d20746865207a65726f206164647265737345524332303a2064656372656173656420616c6c6f77616e63652062656c6f77207a65726fa2646970667358221220c881513fca5a75d47e02fc1c04920461b43ce001b23b37bd2a0244cb5b4737ce64736f6c634300070600334d6f6e65796c696e65206f6464732061726520746f6f20736b657765643a20776f756c64206861766520756e646572203225206f646473a2646970667358221220ed07f3e0bc9d8cb2d705064cacb6784842a3599be86ddbc82e6afed9d7fa7d3b64736f6c6343000706003360806040523480156200001157600080fd5b50604051620011f3380380620011f3833981810160405260608110156200003757600080fd5b81019080805160405193929190846401000000008211156200005857600080fd5b9083019060208201858111156200006e57600080fd5b82516401000000008111828201881017156200008957600080fd5b82525081516020918201929091019080838360005b83811015620000b85781810151838201526020016200009e565b50505050905090810190601f168015620000e65780820380516001836020036101000a031916815260200191505b50604052602001805160405193929190846401000000008211156200010a57600080fd5b9083019060208201858111156200012057600080fd5b82516401000000008111828201881017156200013b57600080fd5b82525081516020918201929091019080838360005b838110156200016a57818101518382015260200162000150565b50505050905090810190601f168015620001985780820380516001836020036101000a031916815260200191505b5060405260209081015185519093508592508491620001bd9160039185019062000219565b508051620001d390600490602084019062000219565b5050600580546001600160a01b039390931661010090810233909102610100600160a81b031960ff199095166012178516179093169290921790915550620002c5915050565b828054600181600116156101000203166002900490600052602060002090601f0160209004810192826200025157600085556200029c565b82601f106200026c57805160ff19168380011785556200029c565b828001600101855582156200029c579182015b828111156200029c5782518255916020019190600101906200027f565b50620002aa929150620002ae565b5090565b5b80821115620002aa5760008155600101620002af565b610f1e80620002d56000396000f3fe608060405234801561001057600080fd5b506004361061010b5760003560e01c806370a08231116100a2578063a457c2d711610071578063a457c2d714610343578063a9059cbb1461036f578063c024cd261461039b578063dd62ed3e146103c7578063f2fde38b146103f55761010b565b806370a08231146102cb57806371297784146102f1578063893d20e81461031757806395d89b411461033b5761010b565b806323b872dd116100de57806323b872dd1461021f578063313ce56714610255578063395093511461027357806342986e131461029f5761010b565b806306fdde0314610110578063095ea7b31461018d5780630fb66557146101cd57806318160ddd14610205575b600080fd5b61011861041b565b6040805160208082528351818301528351919283929083019185019080838360005b8381101561015257818101518382015260200161013a565b50505050905090810190601f16801561017f5780820380516001836020036101000a031916815260200191505b509250505060405180910390f35b6101b9600480360360408110156101a357600080fd5b506001600160a01b0381351690602001356104b1565b604080519115158252519081900360200190f35b610203600480360360608110156101e357600080fd5b506001600160a01b038135811691602081013590911690604001356104ce565b005b61020d6104fa565b60408051918252519081900360200190f35b6101b96004803603606081101561023557600080fd5b506001600160a01b03813581169160208101359091169060400135610500565b61025d610587565b6040805160ff9092168252519081900360200190f35b6101b96004803603604081101561028957600080fd5b506001600160a01b038135169060200135610590565b610203600480360360408110156102b557600080fd5b506001600160a01b0381351690602001356105de565b61020d600480360360208110156102e157600080fd5b50356001600160a01b0316610608565b61020d6004803603602081101561030757600080fd5b50356001600160a01b0316610623565b61031f61065f565b604080516001600160a01b039092168252519081900360200190f35b610118610673565b6101b96004803603604081101561035957600080fd5b506001600160a01b0381351690602001356106d4565b6101b96004803603604081101561038557600080fd5b506001600160a01b03813516906020013561073c565b610203600480360360408110156103b157600080fd5b506001600160a01b038135169060200135610750565b61020d600480360360408110156103dd57600080fd5b506001600160a01b0381358116916020013516610776565b6101b96004803603602081101561040b57600080fd5b50356001600160a01b03166107a1565b60038054604080516020601f60026000196101006001881615020190951694909404938401819004810282018101909252828152606093909290918301828280156104a75780601f1061047c576101008083540402835291602001916104a7565b820191906000526020600020905b81548152906001019060200180831161048a57829003601f168201915b5050505050905090565b60006104c56104be610818565b848461081c565b50600192915050565b60055461010090046001600160a01b031633146104ea57600080fd5b6104f5838383610908565b505050565b60025490565b600061050d848484610908565b61057d84610519610818565b61057885604051806060016040528060288152602001610e32602891396001600160a01b038a16600090815260016020526040812090610557610818565b6001600160a01b031681526020810191909152604001600020549190610a63565b61081c565b5060019392505050565b60055460ff1690565b60006104c561059d610818565b8461057885600160006105ae610818565b6001600160a01b03908116825260208083019390935260409182016000908120918c168152925290205490610afa565b60055461010090046001600160a01b031633146105fa57600080fd5b6106048282610b5b565b5050565b6001600160a01b031660009081526020819052604090205490565b60055460009061010090046001600160a01b0316331461064257600080fd5b600061064d83610608565b90506106598382610b5b565b92915050565b60055461010090046001600160a01b031690565b60048054604080516020601f60026000196101006001881615020190951694909404938401819004810282018101909252828152606093909290918301828280156104a75780601f1061047c576101008083540402835291602001916104a7565b60006104c56106e1610818565b8461057885604051806060016040528060258152602001610ec4602591396001600061070b610818565b6001600160a01b03908116825260208083019390935260409182016000908120918d16815292529020549190610a63565b60006104c5610749610818565b8484610908565b60055461010090046001600160a01b0316331461076c57600080fd5b6106048282610c57565b6001600160a01b03918216600090815260016020908152604080832093909416825291909152205490565b60055460009061010090046001600160a01b031633146107c057600080fd5b6001600160a01b0382166107d357600080fd5b6005546107ee9061010090046001600160a01b031683610604565b50600580546001600160a01b03831661010002610100600160a81b03199091161790556001919050565b3390565b6001600160a01b0383166108615760405162461bcd60e51b8152600401808060200182810382526024815260200180610ea06024913960400191505060405180910390fd5b6001600160a01b0382166108a65760405162461bcd60e51b8152600401808060200182810382526022815260200180610dea6022913960400191505060405180910390fd5b6001600160a01b03808416600081815260016020908152604080832094871680845294825291829020859055815185815291517f8c5be1e5ebec7d5bd14f71427d1e84f3dd0314c0f7b2291e5b200ac8c7c3b9259281900390910190a3505050565b6001600160a01b03831661094d5760405162461bcd60e51b8152600401808060200182810382526025815260200180610e7b6025913960400191505060405180910390fd5b6001600160a01b0382166109925760405162461bcd60e51b8152600401808060200182810382526023815260200180610da56023913960400191505060405180910390fd5b61099d8383836104f5565b6109da81604051806060016040528060268152602001610e0c602691396001600160a01b0386166000908152602081905260409020549190610a63565b6001600160a01b038085166000908152602081905260408082209390935590841681522054610a099082610afa565b6001600160a01b038084166000818152602081815260409182902094909455805185815290519193928716927fddf252ad1be2c89b69c2b068fc378daa952ba7f163c4a11628f55a4df523b3ef92918290030190a3505050565b60008184841115610af25760405162461bcd60e51b81526004018080602001828103825283818151815260200191508051906020019080838360005b83811015610ab7578181015183820152602001610a9f565b50505050905090810190601f168015610ae45780820380516001836020036101000a031916815260200191505b509250505060405180910390fd5b505050900390565b600082820183811015610b54576040805162461bcd60e51b815260206004820152601b60248201527f536166654d6174683a206164646974696f6e206f766572666c6f770000000000604482015290519081900360640190fd5b9392505050565b6001600160a01b038216610ba05760405162461bcd60e51b8152600401808060200182810382526021815260200180610e5a6021913960400191505060405180910390fd5b610bac826000836104f5565b610be981604051806060016040528060228152602001610dc8602291396001600160a01b0385166000908152602081905260409020549190610a63565b6001600160a01b038316600090815260208190526040902055600254610c0f9082610d47565b6002556040805182815290516000916001600160a01b038516917fddf252ad1be2c89b69c2b068fc378daa952ba7f163c4a11628f55a4df523b3ef9181900360200190a35050565b6001600160a01b038216610cb2576040805162461bcd60e51b815260206004820152601f60248201527f45524332303a206d696e7420746f20746865207a65726f206164647265737300604482015290519081900360640190fd5b610cbe600083836104f5565b600254610ccb9082610afa565b6002556001600160a01b038216600090815260208190526040902054610cf19082610afa565b6001600160a01b0383166000818152602081815260408083209490945583518581529351929391927fddf252ad1be2c89b69c2b068fc378daa952ba7f163c4a11628f55a4df523b3ef9281900390910190a35050565b600082821115610d9e576040805162461bcd60e51b815260206004820152601e60248201527f536166654d6174683a207375627472616374696f6e206f766572666c6f770000604482015290519081900360640190fd5b5090039056fe45524332303a207472616e7366657220746f20746865207a65726f206164647265737345524332303a206275726e20616d6f756e7420657863656564732062616c616e636545524332303a20617070726f766520746f20746865207a65726f206164647265737345524332303a207472616e7366657220616d6f756e7420657863656564732062616c616e636545524332303a207472616e7366657220616d6f756e74206578636565647320616c6c6f77616e636545524332303a206275726e2066726f6d20746865207a65726f206164647265737345524332303a207472616e736665722066726f6d20746865207a65726f206164647265737345524332303a20617070726f76652066726f6d20746865207a65726f206164647265737345524332303a2064656372656173656420616c6c6f77616e63652062656c6f77207a65726fa2646970667358221220c881513fca5a75d47e02fc1c04920461b43ce001b23b37bd2a0244cb5b4737ce64736f6c63430007060033",
  "devdoc": {
    "kind": "dev",
    "methods": {
      "transferOwnership(address)": {
        "details": "Allows the current owner to transfer control of the contract to a newOwner.",
        "params": {
          "_newOwner": "The address to transfer ownership to."
        }
      }
    },
    "version": 1
  },
  "userdoc": {
    "kind": "user",
    "methods": {},
    "version": 1
  },
  "storageLayout": {
    "storage": [
      {
        "astId": 5793,
        "contract": "contracts/turbo/MMALinkMarketFactory.sol:MMALinkMarketFactory",
        "label": "owner",
        "offset": 0,
        "slot": "0",
        "type": "t_address"
      },
      {
        "astId": 9268,
        "contract": "contracts/turbo/MMALinkMarketFactory.sol:MMALinkMarketFactory",
        "label": "collateral",
        "offset": 0,
        "slot": "1",
        "type": "t_contract(IERC20Full)5770"
      },
      {
        "astId": 9270,
        "contract": "contracts/turbo/MMALinkMarketFactory.sol:MMALinkMarketFactory",
        "label": "feePot",
        "offset": 0,
        "slot": "2",
        "type": "t_contract(FeePot)11244"
      },
      {
        "astId": 9272,
        "contract": "contracts/turbo/MMALinkMarketFactory.sol:MMALinkMarketFactory",
        "label": "stakerFee",
        "offset": 0,
        "slot": "3",
        "type": "t_uint256"
      },
      {
        "astId": 9274,
        "contract": "contracts/turbo/MMALinkMarketFactory.sol:MMALinkMarketFactory",
        "label": "settlementFee",
        "offset": 0,
        "slot": "4",
        "type": "t_uint256"
      },
      {
        "astId": 9276,
        "contract": "contracts/turbo/MMALinkMarketFactory.sol:MMALinkMarketFactory",
        "label": "protocolFee",
        "offset": 0,
        "slot": "5",
        "type": "t_uint256"
      },
      {
        "astId": 9278,
        "contract": "contracts/turbo/MMALinkMarketFactory.sol:MMALinkMarketFactory",
        "label": "protocol",
        "offset": 0,
        "slot": "6",
        "type": "t_address"
      },
      {
        "astId": 9281,
        "contract": "contracts/turbo/MMALinkMarketFactory.sol:MMALinkMarketFactory",
        "label": "accumulatedProtocolFee",
        "offset": 0,
        "slot": "7",
        "type": "t_uint256"
      },
      {
        "astId": 9285,
        "contract": "contracts/turbo/MMALinkMarketFactory.sol:MMALinkMarketFactory",
        "label": "accumulatedSettlementFees",
        "offset": 0,
        "slot": "8",
        "type": "t_mapping(t_address,t_uint256)"
      },
      {
        "astId": 9287,
        "contract": "contracts/turbo/MMALinkMarketFactory.sol:MMALinkMarketFactory",
        "label": "shareFactor",
        "offset": 0,
        "slot": "9",
        "type": "t_uint256"
      },
      {
        "astId": 9311,
        "contract": "contracts/turbo/MMALinkMarketFactory.sol:MMALinkMarketFactory",
        "label": "markets",
        "offset": 0,
        "slot": "10",
        "type": "t_array(t_struct(Market)9308_storage)dyn_storage"
      },
      {
        "astId": 12834,
        "contract": "contracts/turbo/MMALinkMarketFactory.sol:MMALinkMarketFactory",
        "label": "marketDetails",
        "offset": 0,
        "slot": "11",
        "type": "t_mapping(t_uint256,t_struct(MarketDetails)12830_storage)"
      },
      {
        "astId": 12857,
        "contract": "contracts/turbo/MMALinkMarketFactory.sol:MMALinkMarketFactory",
        "label": "events",
        "offset": 0,
        "slot": "12",
        "type": "t_mapping(t_uint256,t_struct(EventDetails)12853_storage)"
      },
      {
        "astId": 12860,
        "contract": "contracts/turbo/MMALinkMarketFactory.sol:MMALinkMarketFactory",
        "label": "listOfEvents",
        "offset": 0,
        "slot": "13",
        "type": "t_array(t_uint256)dyn_storage"
      },
      {
        "astId": 12862,
        "contract": "contracts/turbo/MMALinkMarketFactory.sol:MMALinkMarketFactory",
        "label": "linkNode",
        "offset": 0,
        "slot": "14",
        "type": "t_address"
      },
      {
        "astId": 12864,
        "contract": "contracts/turbo/MMALinkMarketFactory.sol:MMALinkMarketFactory",
        "label": "sportId",
        "offset": 0,
        "slot": "15",
        "type": "t_uint256"
      }
    ],
    "types": {
      "t_address": {
        "encoding": "inplace",
        "label": "address",
        "numberOfBytes": "20"
      },
      "t_array(t_contract(OwnedERC20)13734)dyn_storage": {
        "base": "t_contract(OwnedERC20)13734",
        "encoding": "dynamic_array",
        "label": "contract OwnedERC20[]",
        "numberOfBytes": "32"
      },
      "t_array(t_struct(Market)9308_storage)dyn_storage": {
        "base": "t_struct(Market)9308_storage",
        "encoding": "dynamic_array",
        "label": "struct AbstractMarketFactoryV2.Market[]",
        "numberOfBytes": "32"
      },
      "t_array(t_uint256)1_storage": {
        "base": "t_uint256",
        "encoding": "inplace",
        "label": "uint256[1]",
        "numberOfBytes": "32"
      },
      "t_array(t_uint256)dyn_storage": {
        "base": "t_uint256",
        "encoding": "dynamic_array",
        "label": "uint256[]",
        "numberOfBytes": "32"
      },
      "t_contract(FeePot)11244": {
        "encoding": "inplace",
        "label": "contract FeePot",
        "numberOfBytes": "20"
      },
      "t_contract(IERC20Full)5770": {
        "encoding": "inplace",
        "label": "contract IERC20Full",
        "numberOfBytes": "20"
      },
      "t_contract(OwnedERC20)13734": {
        "encoding": "inplace",
        "label": "contract OwnedERC20",
        "numberOfBytes": "20"
      },
      "t_enum(EventStatus)12840": {
        "encoding": "inplace",
        "label": "enum MMALinkMarketFactory.EventStatus",
        "numberOfBytes": "1"
      },
      "t_enum(MarketType)12809": {
        "encoding": "inplace",
        "label": "enum MMALinkMarketFactory.MarketType",
        "numberOfBytes": "1"
      },
      "t_mapping(t_address,t_uint256)": {
        "encoding": "mapping",
        "key": "t_address",
        "label": "mapping(address => uint256)",
        "numberOfBytes": "32",
        "value": "t_uint256"
      },
      "t_mapping(t_uint256,t_struct(EventDetails)12853_storage)": {
        "encoding": "mapping",
        "key": "t_uint256",
        "label": "mapping(uint256 => struct MMALinkMarketFactory.EventDetails)",
        "numberOfBytes": "32",
        "value": "t_struct(EventDetails)12853_storage"
      },
      "t_mapping(t_uint256,t_struct(MarketDetails)12830_storage)": {
        "encoding": "mapping",
        "key": "t_uint256",
        "label": "mapping(uint256 => struct MMALinkMarketFactory.MarketDetails)",
        "numberOfBytes": "32",
        "value": "t_struct(MarketDetails)12830_storage"
      },
      "t_string_storage": {
        "encoding": "bytes",
        "label": "string",
        "numberOfBytes": "32"
      },
      "t_struct(EventDetails)12853_storage": {
        "encoding": "inplace",
        "label": "struct MMALinkMarketFactory.EventDetails",
        "members": [
          {
            "astId": 12844,
            "contract": "contracts/turbo/MMALinkMarketFactory.sol:MMALinkMarketFactory",
            "label": "markets",
            "offset": 0,
            "slot": "0",
            "type": "t_array(t_uint256)1_storage"
          },
          {
            "astId": 12846,
            "contract": "contracts/turbo/MMALinkMarketFactory.sol:MMALinkMarketFactory",
            "label": "homeFighterId",
            "offset": 0,
            "slot": "1",
            "type": "t_uint256"
          },
          {
            "astId": 12848,
            "contract": "contracts/turbo/MMALinkMarketFactory.sol:MMALinkMarketFactory",
            "label": "awayFighterId",
            "offset": 0,
            "slot": "2",
            "type": "t_uint256"
          },
          {
            "astId": 12850,
            "contract": "contracts/turbo/MMALinkMarketFactory.sol:MMALinkMarketFactory",
            "label": "startTime",
            "offset": 0,
            "slot": "3",
            "type": "t_uint256"
          },
          {
            "astId": 12852,
            "contract": "contracts/turbo/MMALinkMarketFactory.sol:MMALinkMarketFactory",
            "label": "eventStatus",
            "offset": 0,
            "slot": "4",
            "type": "t_enum(EventStatus)12840"
          }
        ],
        "numberOfBytes": "160"
      },
      "t_struct(Market)9308_storage": {
        "encoding": "inplace",
        "label": "struct AbstractMarketFactoryV2.Market",
        "members": [
          {
            "astId": 9289,
            "contract": "contracts/turbo/MMALinkMarketFactory.sol:MMALinkMarketFactory",
            "label": "settlementAddress",
            "offset": 0,
            "slot": "0",
            "type": "t_address"
          },
          {
            "astId": 9292,
            "contract": "contracts/turbo/MMALinkMarketFactory.sol:MMALinkMarketFactory",
            "label": "shareTokens",
            "offset": 0,
            "slot": "1",
            "type": "t_array(t_contract(OwnedERC20)13734)dyn_storage"
          },
          {
            "astId": 9294,
            "contract": "contracts/turbo/MMALinkMarketFactory.sol:MMALinkMarketFactory",
            "label": "endTime",
            "offset": 0,
            "slot": "2",
            "type": "t_uint256"
          },
          {
            "astId": 9296,
            "contract": "contracts/turbo/MMALinkMarketFactory.sol:MMALinkMarketFactory",
            "label": "winner",
            "offset": 0,
            "slot": "3",
            "type": "t_contract(OwnedERC20)13734"
          },
          {
            "astId": 9298,
            "contract": "contracts/turbo/MMALinkMarketFactory.sol:MMALinkMarketFactory",
            "label": "settlementFee",
            "offset": 0,
            "slot": "4",
            "type": "t_uint256"
          },
          {
            "astId": 9300,
            "contract": "contracts/turbo/MMALinkMarketFactory.sol:MMALinkMarketFactory",
            "label": "protocolFee",
            "offset": 0,
            "slot": "5",
            "type": "t_uint256"
          },
          {
            "astId": 9302,
            "contract": "contracts/turbo/MMALinkMarketFactory.sol:MMALinkMarketFactory",
            "label": "stakerFee",
            "offset": 0,
            "slot": "6",
            "type": "t_uint256"
          },
          {
            "astId": 9304,
            "contract": "contracts/turbo/MMALinkMarketFactory.sol:MMALinkMarketFactory",
            "label": "creationTimestamp",
            "offset": 0,
            "slot": "7",
            "type": "t_uint256"
          },
          {
            "astId": 9307,
            "contract": "contracts/turbo/MMALinkMarketFactory.sol:MMALinkMarketFactory",
            "label": "initialOdds",
            "offset": 0,
            "slot": "8",
            "type": "t_array(t_uint256)dyn_storage"
          }
        ],
        "numberOfBytes": "288"
      },
      "t_struct(MarketDetails)12830_storage": {
        "encoding": "inplace",
        "label": "struct MMALinkMarketFactory.MarketDetails",
        "members": [
          {
            "astId": 12815,
            "contract": "contracts/turbo/MMALinkMarketFactory.sol:MMALinkMarketFactory",
            "label": "eventId",
            "offset": 0,
            "slot": "0",
            "type": "t_uint256"
          },
          {
            "astId": 12817,
            "contract": "contracts/turbo/MMALinkMarketFactory.sol:MMALinkMarketFactory",
            "label": "homeFighterName",
            "offset": 0,
            "slot": "1",
            "type": "t_string_storage"
          },
          {
            "astId": 12819,
            "contract": "contracts/turbo/MMALinkMarketFactory.sol:MMALinkMarketFactory",
            "label": "homeFighterId",
            "offset": 0,
            "slot": "2",
            "type": "t_uint256"
          },
          {
            "astId": 12821,
            "contract": "contracts/turbo/MMALinkMarketFactory.sol:MMALinkMarketFactory",
            "label": "awayFighterName",
            "offset": 0,
            "slot": "3",
            "type": "t_string_storage"
          },
          {
            "astId": 12823,
            "contract": "contracts/turbo/MMALinkMarketFactory.sol:MMALinkMarketFactory",
            "label": "awayFighterId",
            "offset": 0,
            "slot": "4",
            "type": "t_uint256"
          },
          {
            "astId": 12825,
            "contract": "contracts/turbo/MMALinkMarketFactory.sol:MMALinkMarketFactory",
            "label": "estimatedStartTime",
            "offset": 0,
            "slot": "5",
            "type": "t_uint256"
          },
          {
            "astId": 12827,
            "contract": "contracts/turbo/MMALinkMarketFactory.sol:MMALinkMarketFactory",
            "label": "marketType",
            "offset": 0,
            "slot": "6",
            "type": "t_enum(MarketType)12809"
          },
          {
            "astId": 12829,
            "contract": "contracts/turbo/MMALinkMarketFactory.sol:MMALinkMarketFactory",
            "label": "eventStatus",
            "offset": 1,
            "slot": "6",
            "type": "t_enum(EventStatus)12840"
          }
        ],
        "numberOfBytes": "224"
      },
      "t_uint256": {
        "encoding": "inplace",
        "label": "uint256",
        "numberOfBytes": "32"
      }
    }
  }
}