{
  "address": "0x3796549604479729d68b235dA7cd3cA569A14ed5",
  "abi": [
    {
      "inputs": [
        {
          "internalType": "address",
          "name": "_marketFactory",
          "type": "address"
        },
        {
          "internalType": "contract AMMFactory",
          "name": "_ammFactory",
          "type": "address"
        },
        {
          "internalType": "uint256",
          "name": "_offset",
          "type": "uint256"
        },
        {
          "internalType": "uint256",
          "name": "_total",
          "type": "uint256"
        }
      ],
      "name": "fetchDynamic",
      "outputs": [
        {
          "components": [
            {
              "components": [
                {
                  "internalType": "contract AbstractMarketFactoryV2",
                  "name": "factory",
                  "type": "address"
                },
                {
                  "internalType": "uint256",
                  "name": "marketId",
                  "type": "uint256"
                },
                {
                  "components": [
                    {
                      "internalType": "address",
                      "name": "addr",
                      "type": "address"
                    },
                    {
                      "internalType": "uint256[]",
                      "name": "tokenRatios",
                      "type": "uint256[]"
                    },
                    {
                      "internalType": "uint256[]",
                      "name": "balances",
                      "type": "uint256[]"
                    },
                    {
                      "internalType": "uint256[]",
                      "name": "weights",
                      "type": "uint256[]"
                    },
                    {
                      "internalType": "uint256",
                      "name": "swapFee",
                      "type": "uint256"
                    },
                    {
                      "internalType": "uint256",
                      "name": "totalSupply",
                      "type": "uint256"
                    }
                  ],
                  "internalType": "struct Fetcher.PoolBundle",
                  "name": "pool",
                  "type": "tuple"
                },
                {
                  "internalType": "contract OwnedERC20",
                  "name": "winner",
                  "type": "address"
                }
              ],
              "internalType": "struct Fetcher.DynamicMarketBundle",
              "name": "super",
              "type": "tuple"
            },
            {
              "internalType": "enum SportsLinkMarketFactoryV2.EventStatus",
              "name": "eventStatus",
              "type": "uint8"
            }
          ],
          "internalType": "struct NBAFetcher.SpecificDynamicMarketBundle[]",
          "name": "_bundles",
          "type": "tuple[]"
        }
      ],
      "stateMutability": "view",
      "type": "function"
    },
    {
      "inputs": [
        {
          "internalType": "address",
          "name": "_marketFactory",
          "type": "address"
        },
        {
          "internalType": "contract AMMFactory",
          "name": "_ammFactory",
          "type": "address"
        },
        {
          "internalType": "uint256",
          "name": "_offset",
          "type": "uint256"
        },
        {
          "internalType": "uint256",
          "name": "_total",
          "type": "uint256"
        }
      ],
      "name": "fetchInitial",
      "outputs": [
        {
          "components": [
            {
              "components": [
                {
                  "internalType": "uint256",
                  "name": "shareFactor",
                  "type": "uint256"
                },
                {
                  "internalType": "uint256",
                  "name": "stakerFee",
                  "type": "uint256"
                },
                {
                  "internalType": "uint256",
                  "name": "settlementFee",
                  "type": "uint256"
                },
                {
                  "internalType": "uint256",
                  "name": "protocolFee",
                  "type": "uint256"
                },
                {
                  "internalType": "contract FeePot",
                  "name": "feePot",
                  "type": "address"
                },
                {
                  "components": [
                    {
                      "internalType": "address",
                      "name": "addr",
                      "type": "address"
                    },
                    {
                      "internalType": "string",
                      "name": "symbol",
                      "type": "string"
                    },
                    {
                      "internalType": "uint256",
                      "name": "decimals",
                      "type": "uint256"
                    }
                  ],
                  "internalType": "struct Fetcher.CollateralBundle",
                  "name": "collateral",
                  "type": "tuple"
                },
                {
                  "internalType": "uint256",
                  "name": "marketCount",
                  "type": "uint256"
                }
              ],
              "internalType": "struct Fetcher.MarketFactoryBundle",
              "name": "super",
              "type": "tuple"
            },
            {
              "internalType": "uint256",
              "name": "sportId",
              "type": "uint256"
            }
          ],
          "internalType": "struct NBAFetcher.SpecificMarketFactoryBundle",
          "name": "_marketFactoryBundle",
          "type": "tuple"
        },
        {
          "components": [
            {
              "components": [
                {
                  "internalType": "contract AbstractMarketFactoryV2",
                  "name": "factory",
                  "type": "address"
                },
                {
                  "internalType": "uint256",
                  "name": "marketId",
                  "type": "uint256"
                },
                {
                  "components": [
                    {
                      "internalType": "address",
                      "name": "addr",
                      "type": "address"
                    },
                    {
                      "internalType": "uint256[]",
                      "name": "tokenRatios",
                      "type": "uint256[]"
                    },
                    {
                      "internalType": "uint256[]",
                      "name": "balances",
                      "type": "uint256[]"
                    },
                    {
                      "internalType": "uint256[]",
                      "name": "weights",
                      "type": "uint256[]"
                    },
                    {
                      "internalType": "uint256",
                      "name": "swapFee",
                      "type": "uint256"
                    },
                    {
                      "internalType": "uint256",
                      "name": "totalSupply",
                      "type": "uint256"
                    }
                  ],
                  "internalType": "struct Fetcher.PoolBundle",
                  "name": "pool",
                  "type": "tuple"
                },
                {
                  "internalType": "contract OwnedERC20[]",
                  "name": "shareTokens",
                  "type": "address[]"
                },
                {
                  "internalType": "uint256",
                  "name": "creationTimestamp",
                  "type": "uint256"
                },
                {
                  "internalType": "uint256",
                  "name": "endTime",
                  "type": "uint256"
                },
                {
                  "internalType": "contract OwnedERC20",
                  "name": "winner",
                  "type": "address"
                },
                {
                  "internalType": "uint256[]",
                  "name": "initialOdds",
                  "type": "uint256[]"
                }
              ],
              "internalType": "struct Fetcher.StaticMarketBundle",
              "name": "super",
              "type": "tuple"
            },
            {
              "internalType": "uint256",
              "name": "eventId",
              "type": "uint256"
            },
            {
              "internalType": "uint256",
              "name": "homeTeamId",
              "type": "uint256"
            },
            {
              "internalType": "uint256",
              "name": "awayTeamId",
              "type": "uint256"
            },
            {
              "internalType": "uint256",
              "name": "estimatedStartTime",
              "type": "uint256"
            },
            {
              "internalType": "enum SportsLinkMarketFactoryV2.MarketType",
              "name": "marketType",
              "type": "uint8"
            },
            {
              "internalType": "int256",
              "name": "value0",
              "type": "int256"
            },
            {
              "internalType": "enum SportsLinkMarketFactoryV2.EventStatus",
              "name": "eventStatus",
              "type": "uint8"
            }
          ],
          "internalType": "struct NBAFetcher.SpecificStaticMarketBundle[]",
          "name": "_marketBundles",
          "type": "tuple[]"
        }
      ],
      "stateMutability": "view",
      "type": "function"
    },
    {
      "inputs": [],
      "name": "marketType",
      "outputs": [
        {
          "internalType": "string",
          "name": "",
          "type": "string"
        }
      ],
      "stateMutability": "pure",
      "type": "function"
    },
    {
      "inputs": [],
      "name": "version",
      "outputs": [
        {
          "internalType": "string",
          "name": "",
          "type": "string"
        }
      ],
      "stateMutability": "pure",
      "type": "function"
    }
  ],
  "transactionHash": "0x51cbd63b1e04699539df7efd9d2d44884f46f2b2f00bc688696c6e9ccf0293be",
  "args": [],
  "solcInputHash": "f49cb27a798ab781a7f4a911c950e5fd",
  "bytecode": "0x608060405234801561001057600080fd5b50611b3c806100206000396000f3fe608060405234801561001057600080fd5b506004361061004c5760003560e01c80631e179eff146100515780632dd489091461007b57806354fd4d501461009057806356d2749114610098575b600080fd5b61006461005f36600461137d565b6100b8565b6040516100729291906119b7565b60405180910390f35b610083610187565b60405161007291906119a4565b6100836101a4565b6100ab6100a636600461137d565b6101c1565b60405161007291906118d8565b6100c06110bb565b60606100cb8661027c565b915060006100da878686610310565b9050805193508367ffffffffffffffff811180156100f757600080fd5b5060405190808252806020026020018201604052801561013157816020015b61011e6110db565b8152602001906001900390816101165790505b50915060005b8481101561017c5761015d888884848151811061015057fe5b6020026020010151610452565b83828151811061016957fe5b6020908102919091010152600101610137565b505094509492505050565b6040805180820190915260038152624e424160e81b602082015290565b60408051808201909152600381526215109160ea1b602082015290565b606060006101d0868585610310565b9050805192508267ffffffffffffffff811180156101ed57600080fd5b5060405190808252806020026020018201604052801561022757816020015b61021461113b565b81526020019060019003908161020c5790505b50915060005b8381101561027257610253878784848151811061024657fe5b6020026020010151610572565b83828151811061025f57fe5b602090810291909101015260010161022d565b5050949350505050565b6102846110bb565b61028d8261061d565b8160000181905250816001600160a01b031663d5db3efb6040518163ffffffff1660e01b815260040160206040518083038186803b1580156102ce57600080fd5b505afa1580156102e2573d6000803e3d6000fd5b505050506040513d601f19601f820116820180604052508101906103069190611618565b6020820152919050565b60608167ffffffffffffffff8111801561032957600080fd5b50604051908082528060200260200182016040528015610353578160200160208202803683370190505b50905060006001856001600160a01b031663ec9790826040518163ffffffff1660e01b815260040160206040518083038186803b15801561039357600080fd5b505afa1580156103a7573d6000803e3d6000fd5b505050506040513d601f19601f820116820180604052508101906103cb9190611618565b039050808411156103ec57505060408051600081526020810190915261044b565b60008482035b801561043b578482106104045761043b565b61040e8782610997565b15610432578084838151811061042057fe5b60209081029190910101526001909101905b600019016103f2565b5080841115610448578083525b50505b9392505050565b61045a6110db565b60405163b06c1ba360e01b81526000906001600160a01b0386169063b06c1ba390610489908690600401611a73565b60e06040518083038186803b1580156104a157600080fd5b505afa1580156104b5573d6000803e3d6000fd5b505050506040513d601f19601f820116820180604052508101906104d991906114a3565b90506104e6858585610abb565b8252805160208084019190915281015160408084019190915281015160608084019190915281015160808084019190915281015160a0830190600281111561052a57fe5b9081600281111561053757fe5b90525060c0808201519083015260a081015160e0830190600481111561055957fe5b9081600481111561056657fe5b81525050509392505050565b61057a61113b565b60405163b06c1ba360e01b81526000906001600160a01b0386169063b06c1ba3906105a9908690600401611a73565b60e06040518083038186803b1580156105c157600080fd5b505afa1580156105d5573d6000803e3d6000fd5b505050506040513d601f19601f820116820180604052508101906105f991906114a3565b9050610606858585610ba7565b825260a08101516020830190600481111561055957fe5b61062561115a565b816001600160a01b0316637641ab016040518163ffffffff1660e01b815260040160206040518083038186803b15801561065e57600080fd5b505afa158015610672573d6000803e3d6000fd5b505050506040513d601f19601f820116820180604052508101906106969190611618565b816000018181525050816001600160a01b0316634b2d9ffc6040518163ffffffff1660e01b815260040160206040518083038186803b1580156106d857600080fd5b505afa1580156106ec573d6000803e3d6000fd5b505050506040513d601f19601f820116820180604052508101906107109190611618565b816020018181525050816001600160a01b0316637d1d7fb86040518163ffffffff1660e01b815260040160206040518083038186803b15801561075257600080fd5b505afa158015610766573d6000803e3d6000fd5b505050506040513d601f19601f8201168201806040525081019061078a9190611618565b816040018181525050816001600160a01b031663b0e21e8a6040518163ffffffff1660e01b815260040160206040518083038186803b1580156107cc57600080fd5b505afa1580156107e0573d6000803e3d6000fd5b505050506040513d601f19601f820116820180604052508101906108049190611618565b816060018181525050816001600160a01b0316634c9f66c76040518163ffffffff1660e01b815260040160206040518083038186803b15801561084657600080fd5b505afa15801561085a573d6000803e3d6000fd5b505050506040513d601f19601f8201168201806040525081019061087e91906113fd565b81608001906001600160a01b031690816001600160a01b031681525050610914826001600160a01b031663d8dfeb456040518163ffffffff1660e01b815260040160206040518083038186803b1580156108d757600080fd5b505afa1580156108eb573d6000803e3d6000fd5b505050506040513d601f19601f8201168201806040525081019061090f91906113fd565b610c6d565b8160a00181905250816001600160a01b031663ec9790826040518163ffffffff1660e01b815260040160206040518083038186803b15801561095557600080fd5b505afa158015610969573d6000803e3d6000fd5b505050506040513d601f19601f8201168201806040525081019061098d9190611618565b60c0820152919050565b600080836001600160a01b031663eb44fdd3846040518263ffffffff1660e01b81526004016109c69190611a73565b60006040518083038186803b1580156109de57600080fd5b505afa1580156109f2573d6000803e3d6000fd5b505050506040513d6000823e601f3d908101601f19168201604052610a1a919081019061152e565b60608101519091506001600160a01b0316610a39576001915050610ab5565b600081606001516001600160a01b03166318160ddd6040518163ffffffff1660e01b815260040160206040518083038186803b158015610a7857600080fd5b505afa158015610a8c573d6000803e3d6000fd5b505050506040513d601f19601f82011682018060405250810190610ab09190611618565b119150505b92915050565b610ac3611199565b60405163eb44fdd360e01b81526000906001600160a01b0386169063eb44fdd390610af2908690600401611a73565b60006040518083038186803b158015610b0a57600080fd5b505afa158015610b1e573d6000803e3d6000fd5b505050506040513d6000823e601f3d908101601f19168201604052610b46919081019061152e565b6001600160a01b038087168452602080850186905282015160608086019190915260e08301516080860152604083015160a08601528201511660c08401529050610b91858585610d7a565b6040830152610100015160e08201529392505050565b610baf6111eb565b60405163eb44fdd360e01b81526000906001600160a01b0386169063eb44fdd390610bde908690600401611a73565b60006040518083038186803b158015610bf657600080fd5b505afa158015610c0a573d6000803e3d6000fd5b505050506040513d6000823e601f3d908101601f19168201604052610c32919081019061152e565b6001600160a01b03808716845260208401859052606080830151909116908401529050610c60858585610d7a565b6040830152509392505050565b610c75611217565b6001600160a01b038216808252604080516395d89b4160e01b815290516395d89b4191600480820192600092909190829003018186803b158015610cb857600080fd5b505afa158015610ccc573d6000803e3d6000fd5b505050506040513d6000823e601f3d908101601f19168201604052610cf49190810190611419565b8160200181905250816001600160a01b031663313ce5676040518163ffffffff1660e01b815260040160206040518083038186803b158015610d3557600080fd5b505afa158015610d49573d6000803e3d6000fd5b505050506040513d601f19601f82011682018060405250810190610d6d9190611630565b60ff166040820152919050565b610d82611241565b604051632dadcf5160e11b81526000906001600160a01b03851690635b5b9ea290610db3908890879060040161198b565b60206040518083038186803b158015610dcb57600080fd5b505afa158015610ddf573d6000803e3d6000fd5b505050506040513d601f19601f82011682018060405250810190610e0391906113fd565b90506001600160a01b038116610e19575061044b565b6001600160a01b038116808352604080516318160ddd60e01b815290516318160ddd91600480820192602092909190829003018186803b158015610e5c57600080fd5b505afa158015610e70573d6000803e3d6000fd5b505050506040513d601f19601f82011682018060405250810190610e949190611618565b60a083015260405163fa0de35960e01b81526001600160a01b0385169063fa0de35990610ec7908890879060040161198b565b60206040518083038186803b158015610edf57600080fd5b505afa158015610ef3573d6000803e3d6000fd5b505050506040513d601f19601f82011682018060405250810190610f179190611618565b608083015260405163d2364bf360e01b81526001600160a01b0385169063d2364bf390610f4a908890879060040161198b565b60006040518083038186803b158015610f6257600080fd5b505afa158015610f76573d6000803e3d6000fd5b505050506040513d6000823e601f3d908101601f19168201604052610f9e91908101906113c2565b6040808401919091525163c7b4b6dd60e01b81526001600160a01b0385169063c7b4b6dd90610fd3908890879060040161198b565b60006040518083038186803b158015610feb57600080fd5b505afa158015610fff573d6000803e3d6000fd5b505050506040513d6000823e601f3d908101601f1916820160405261102791908101906113c2565b602083015260405163d055da7160e01b81526001600160a01b0385169063d055da719061105a908890879060040161198b565b60006040518083038186803b15801561107257600080fd5b505afa158015611086573d6000803e3d6000fd5b505050506040513d6000823e601f3d908101601f191682016040526110ae91908101906113c2565b6060830152509392505050565b60405180604001604052806110ce61115a565b8152602001600081525090565b6040518061010001604052806110ef611199565b8152602001600081526020016000815260200160008152602001600081526020016000600281111561111d57fe5b8152602001600081526020016000600481111561113657fe5b905290565b604051806040016040528061114e6111eb565b81526020016000611136565b6040518060e001604052806000815260200160008152602001600081526020016000815260200160006001600160a01b031681526020016110ce611217565b6040805161010081018252600080825260208201529081016111b9611241565b815260200160608152602001600081526020016000815260200160006001600160a01b03168152602001606081525090565b604080516080810182526000808252602082015290810161120a611241565b8152600060209091015290565b604051806060016040528060006001600160a01b0316815260200160608152602001600081525090565b6040518060c0016040528060006001600160a01b0316815260200160608152602001606081526020016060815260200160008152602001600081525090565b805161128b81611aee565b919050565b600082601f8301126112a0578081fd5b815160206112b56112b083611aa0565b611a7c565b82815281810190858301838502870184018810156112d1578586fd5b855b858110156112f85781516112e681611aee565b845292840192908401906001016112d3565b5090979650505050505050565b600082601f830112611315578081fd5b815160206113256112b083611aa0565b8281528181019085830183850287018401881015611341578586fd5b855b858110156112f857815184529284019290840190600101611343565b80516005811061128b57600080fd5b80516003811061128b57600080fd5b60008060008060808587031215611392578384fd5b843561139d81611aee565b935060208501356113ad81611aee565b93969395505050506040820135916060013590565b6000602082840312156113d3578081fd5b815167ffffffffffffffff8111156113e9578182fd5b6113f584828501611305565b949350505050565b60006020828403121561140e578081fd5b815161044b81611aee565b60006020828403121561142a578081fd5b815167ffffffffffffffff80821115611441578283fd5b818401915084601f830112611454578283fd5b81518181111561146057fe5b611473601f8201601f1916602001611a7c565b9150808252856020828501011115611489578384fd5b61149a816020840160208601611abe565b50949350505050565b600060e082840312156114b4578081fd5b60405160e0810181811067ffffffffffffffff821117156114d157fe5b8060405250825181526020830151602082015260408301516040820152606083015160608201526115046080840161136e565b608082015261151560a0840161135f565b60a082015260c083015160c08201528091505092915050565b60006020828403121561153f578081fd5b815167ffffffffffffffff80821115611556578283fd5b818401915061012080838703121561156c578384fd5b61157581611a7c565b905061158083611280565b8152602083015182811115611593578485fd5b61159f87828601611290565b602083015250604083015160408201526115bb60608401611280565b60608201526080830151608082015260a083015160a082015260c083015160c082015260e083015160e082015261010080840151838111156115fb578586fd5b61160788828701611305565b918301919091525095945050505050565b600060208284031215611629578081fd5b5051919050565b600060208284031215611641578081fd5b815160ff8116811461044b578182fd5b6000815180845260208085019450808401835b838110156116895781516001600160a01b031687529582019590820190600101611664565b509495945050505050565b6000815180845260208085018081965082840281019150828601855b858110156117d0578284038952815161010081518187526116d4828801825161180c565b87810151610120880152604080820151836101408a01526116f96102008a018261185d565b93505060608083015160ff19808b8703016101608c015261171a8683611651565b955060809150818501516101808c015260a0808601516101a08d015260c08087015161174a6101c08f018261180c565b5060e0968701518d890384016101e08f01529661176789896117dd565b98508e8a01518f8f0152868a0151878f0152858a0151868f0152848a0151858f0152828a0151975061179b838f0189611827565b898201518e83015298890151986117b4818f018b611819565b5050509e8b019e509398505050938701935050506001016116b0565b5091979650505050505050565b6000815180845260208085019450808401835b83811015611689578151875295820195908201906001016117f0565b6001600160a01b03169052565b6005811061182357fe5b9052565b6003811061182357fe5b60008151808452611849816020860160208601611abe565b601f01601f19169290920160200192915050565b600060018060a01b038251168352602082015160c0602085015261188460c08501826117dd565b90506040830151848203604086015261189d82826117dd565b915050606083015184820360608601526118b782826117dd565b9150506080830151608085015260a083015160a08501528091505092915050565b60208082528251828201819052600091906040908185019080840286018301878501865b8381101561197d57888303603f190185528151805187855280516001600160a01b039081168987015289820151606080880191909152898301516080808901529061194a60c089018361185d565b90840151831660a0890152938b01519390506119688b880185611819565b978a01979550505091870191506001016118fc565b509098975050505050505050565b6001600160a01b03929092168252602082015260400190565b60006020825261044b6020830184611831565b600060408252835160408084015280516080840152602081015160a0840152604081015160c0840152606081015160e0840152608081015160018060a01b0380821661010086015260a0830151915060e0610120860152808251166101608601525060208101516060610180860152611a346101c0860182611831565b905060408201516101a086015260c0830151610140860152602087015160608601528481036020860152611a688187611694565b979650505050505050565b90815260200190565b60405181810167ffffffffffffffff81118282101715611a9857fe5b604052919050565b600067ffffffffffffffff821115611ab457fe5b5060209081020190565b60005b83811015611ad9578181015183820152602001611ac1565b83811115611ae8576000848401525b50505050565b6001600160a01b0381168114611b0357600080fd5b5056fea2646970667358221220ec5b173b0a98720fa87d0c6c57c0aac2bc9965bf91f167484720cd7beb092d0064736f6c63430007060033",
  "devdoc": {
    "kind": "dev",
    "methods": {},
    "version": 1
  },
  "userdoc": {
    "kind": "user",
    "methods": {},
    "version": 1
  },
  "storageLayout": {
    "storage": [],
    "types": null
  }
}