{
  "address": "0x45e2Ee43349A88Ff220701E0cE981682f944d391",
  "abi": [
    {
      "inputs": [
        {
          "internalType": "address",
          "name": "_owner",
          "type": "address"
        },
        {
          "internalType": "contract IERC20Full",
          "name": "_collateral",
          "type": "address"
        },
        {
          "internalType": "uint256",
          "name": "_shareFactor",
          "type": "uint256"
        },
        {
          "internalType": "contract FeePot",
          "name": "_feePot",
          "type": "address"
        },
        {
          "internalType": "uint256[3]",
          "name": "_fees",
          "type": "uint256[3]"
        },
        {
          "internalType": "address",
          "name": "_protocol",
          "type": "address"
        },
        {
          "internalType": "address",
          "name": "_linkNode",
          "type": "address"
        }
      ],
      "stateMutability": "nonpayable",
      "type": "constructor"
    },
    {
      "anonymous": false,
      "inputs": [
        {
          "indexed": false,
          "internalType": "address",
          "name": "newLinkNode",
          "type": "address"
        }
      ],
      "name": "LinkNodeChanged",
      "type": "event"
    },
    {
      "anonymous": false,
      "inputs": [
        {
          "indexed": false,
          "internalType": "uint256",
          "name": "id",
          "type": "uint256"
        }
      ],
      "name": "MarketActivated",
      "type": "event"
    },
    {
      "anonymous": false,
      "inputs": [
        {
          "indexed": false,
          "internalType": "uint256",
          "name": "id",
          "type": "uint256"
        },
        {
          "indexed": false,
          "internalType": "string[]",
          "name": "names",
          "type": "string[]"
        },
        {
          "indexed": false,
          "internalType": "uint256[]",
          "name": "initialOdds",
          "type": "uint256[]"
        }
      ],
      "name": "MarketCreated",
      "type": "event"
    },
    {
      "anonymous": false,
      "inputs": [
        {
          "indexed": false,
          "internalType": "uint256",
          "name": "id",
          "type": "uint256"
        },
        {
          "indexed": false,
          "internalType": "address",
          "name": "winner",
          "type": "address"
        },
        {
          "indexed": false,
          "internalType": "uint256",
          "name": "winnerIndex",
          "type": "uint256"
        },
        {
          "indexed": false,
          "internalType": "string",
          "name": "winnerName",
          "type": "string"
        }
      ],
      "name": "MarketResolved",
      "type": "event"
    },
    {
      "anonymous": false,
      "inputs": [
        {
          "indexed": false,
          "internalType": "uint256",
          "name": "id",
          "type": "uint256"
        },
        {
          "indexed": false,
          "internalType": "uint256",
          "name": "amount",
          "type": "uint256"
        },
        {
          "indexed": false,
          "internalType": "address",
          "name": "receiver",
          "type": "address"
        }
      ],
      "name": "SharesBurned",
      "type": "event"
    },
    {
      "anonymous": false,
      "inputs": [
        {
          "indexed": false,
          "internalType": "uint256",
          "name": "id",
          "type": "uint256"
        },
        {
          "indexed": false,
          "internalType": "uint256",
          "name": "amount",
          "type": "uint256"
        },
        {
          "indexed": false,
          "internalType": "address",
          "name": "receiver",
          "type": "address"
        }
      ],
      "name": "SharesMinted",
      "type": "event"
    },
    {
      "anonymous": false,
      "inputs": [
        {
          "indexed": false,
          "internalType": "uint256",
          "name": "id",
          "type": "uint256"
        },
        {
          "indexed": false,
          "internalType": "uint256[]",
          "name": "markets",
          "type": "uint256[]"
        },
        {
          "indexed": false,
          "internalType": "int256[]",
          "name": "lines",
          "type": "int256[]"
        },
        {
          "indexed": false,
          "internalType": "uint256",
          "name": "homeTeamId",
          "type": "uint256"
        },
        {
          "indexed": false,
          "internalType": "uint256",
          "name": "awayTeamId",
          "type": "uint256"
        },
        {
          "indexed": false,
          "internalType": "string",
          "name": "homeTeamName",
          "type": "string"
        },
        {
          "indexed": false,
          "internalType": "string",
          "name": "awayTeamName",
          "type": "string"
        },
        {
          "indexed": false,
          "internalType": "uint256",
          "name": "estimatedStartTime",
          "type": "uint256"
        }
      ],
      "name": "SportsEventCreated",
      "type": "event"
    },
    {
      "anonymous": false,
      "inputs": [
        {
          "indexed": false,
          "internalType": "uint256",
          "name": "id",
          "type": "uint256"
        },
        {
          "indexed": false,
          "internalType": "address",
          "name": "winningOutcome",
          "type": "address"
        },
        {
          "indexed": false,
          "internalType": "uint256",
          "name": "winningIndex",
          "type": "uint256"
        },
        {
          "indexed": false,
          "internalType": "string",
          "name": "winningName",
          "type": "string"
        },
        {
          "indexed": false,
          "internalType": "uint256",
          "name": "amount",
          "type": "uint256"
        },
        {
          "indexed": false,
          "internalType": "uint256",
          "name": "settlementFee",
          "type": "uint256"
        },
        {
          "indexed": false,
          "internalType": "uint256",
          "name": "payout",
          "type": "uint256"
        },
        {
          "indexed": true,
          "internalType": "address",
          "name": "receiver",
          "type": "address"
        }
      ],
      "name": "WinningsClaimed",
      "type": "event"
    },
    {
      "inputs": [],
      "name": "accumulatedProtocolFee",
      "outputs": [
        {
          "internalType": "uint256",
          "name": "",
          "type": "uint256"
        }
      ],
      "stateMutability": "view",
      "type": "function"
    },
    {
      "inputs": [
        {
          "internalType": "address",
          "name": "",
          "type": "address"
        }
      ],
      "name": "accumulatedSettlementFees",
      "outputs": [
        {
          "internalType": "uint256",
          "name": "",
          "type": "uint256"
        }
      ],
      "stateMutability": "view",
      "type": "function"
    },
    {
      "inputs": [
        {
          "internalType": "uint256",
          "name": "_id",
          "type": "uint256"
        },
        {
          "internalType": "uint256",
          "name": "_sharesToBurn",
          "type": "uint256"
        },
        {
          "internalType": "address",
          "name": "_receiver",
          "type": "address"
        }
      ],
      "name": "burnShares",
      "outputs": [
        {
          "internalType": "uint256",
          "name": "",
          "type": "uint256"
        }
      ],
      "stateMutability": "nonpayable",
      "type": "function"
    },
    {
      "inputs": [
        {
          "internalType": "uint256",
          "name": "_shares",
          "type": "uint256"
        }
      ],
      "name": "calcCost",
      "outputs": [
        {
          "internalType": "uint256",
          "name": "",
          "type": "uint256"
        }
      ],
      "stateMutability": "view",
      "type": "function"
    },
    {
      "inputs": [
        {
          "internalType": "uint256",
          "name": "_collateralIn",
          "type": "uint256"
        }
      ],
      "name": "calcShares",
      "outputs": [
        {
          "internalType": "uint256",
          "name": "",
          "type": "uint256"
        }
      ],
      "stateMutability": "view",
      "type": "function"
    },
    {
      "inputs": [
        {
          "internalType": "uint256[]",
          "name": "_ids",
          "type": "uint256[]"
        },
        {
          "internalType": "address",
          "name": "_receiver",
          "type": "address"
        }
      ],
      "name": "claimManyWinnings",
      "outputs": [
        {
          "internalType": "uint256",
          "name": "",
          "type": "uint256"
        }
      ],
      "stateMutability": "nonpayable",
      "type": "function"
    },
    {
      "inputs": [],
      "name": "claimProtocolFees",
      "outputs": [
        {
          "internalType": "uint256",
          "name": "",
          "type": "uint256"
        }
      ],
      "stateMutability": "nonpayable",
      "type": "function"
    },
    {
      "inputs": [
        {
          "internalType": "address",
          "name": "_receiver",
          "type": "address"
        }
      ],
      "name": "claimSettlementFees",
      "outputs": [
        {
          "internalType": "uint256",
          "name": "",
          "type": "uint256"
        }
      ],
      "stateMutability": "nonpayable",
      "type": "function"
    },
    {
      "inputs": [
        {
          "internalType": "uint256",
          "name": "_id",
          "type": "uint256"
        },
        {
          "internalType": "address",
          "name": "_receiver",
          "type": "address"
        }
      ],
      "name": "claimWinnings",
      "outputs": [
        {
          "internalType": "uint256",
          "name": "",
          "type": "uint256"
        }
      ],
      "stateMutability": "nonpayable",
      "type": "function"
    },
    {
      "inputs": [],
      "name": "collateral",
      "outputs": [
        {
          "internalType": "contract IERC20Full",
          "name": "",
          "type": "address"
        }
      ],
      "stateMutability": "view",
      "type": "function"
    },
    {
      "inputs": [
        {
          "internalType": "uint256",
          "name": "_eventId",
          "type": "uint256"
        },
        {
          "internalType": "string",
          "name": "_homeTeamName",
          "type": "string"
        },
        {
          "internalType": "uint256",
          "name": "_homeTeamId",
          "type": "uint256"
        },
        {
          "internalType": "string",
          "name": "_awayTeamName",
          "type": "string"
        },
        {
          "internalType": "uint256",
          "name": "_awayTeamId",
          "type": "uint256"
        },
        {
          "internalType": "uint256",
          "name": "_startTimestamp",
          "type": "uint256"
        },
        {
          "internalType": "int256",
          "name": "_homeSpread",
          "type": "int256"
        },
        {
          "internalType": "int256",
          "name": "_totalScore",
          "type": "int256"
        },
        {
          "internalType": "int256[2]",
          "name": "_moneylines",
          "type": "int256[2]"
        }
      ],
      "name": "createEvent",
      "outputs": [
        {
          "internalType": "uint256[]",
          "name": "_marketIds",
          "type": "uint256[]"
        }
      ],
      "stateMutability": "nonpayable",
      "type": "function"
    },
    {
      "inputs": [],
      "name": "eventCount",
      "outputs": [
        {
          "internalType": "uint256",
          "name": "",
          "type": "uint256"
        }
      ],
      "stateMutability": "view",
      "type": "function"
    },
    {
      "inputs": [],
      "name": "feePot",
      "outputs": [
        {
          "internalType": "contract FeePot",
          "name": "",
          "type": "address"
        }
      ],
      "stateMutability": "view",
      "type": "function"
    },
    {
      "inputs": [
        {
          "internalType": "uint256",
          "name": "_eventId",
          "type": "uint256"
        }
      ],
      "name": "getEventMarkets",
      "outputs": [
        {
          "internalType": "uint256[]",
          "name": "_markets",
          "type": "uint256[]"
        }
      ],
      "stateMutability": "view",
      "type": "function"
    },
    {
      "inputs": [
        {
          "internalType": "uint256",
          "name": "_id",
          "type": "uint256"
        }
      ],
      "name": "getMarket",
      "outputs": [
        {
          "components": [
            {
              "internalType": "address",
              "name": "settlementAddress",
              "type": "address"
            },
            {
              "internalType": "contract OwnedERC20[]",
              "name": "shareTokens",
              "type": "address[]"
            },
            {
              "internalType": "contract OwnedERC20",
              "name": "winner",
              "type": "address"
            },
            {
              "internalType": "uint256",
              "name": "winnerIndex",
              "type": "uint256"
            },
            {
              "internalType": "uint256",
              "name": "settlementFee",
              "type": "uint256"
            },
            {
              "internalType": "uint256",
              "name": "protocolFee",
              "type": "uint256"
            },
            {
              "internalType": "uint256",
              "name": "stakerFee",
              "type": "uint256"
            },
            {
              "internalType": "uint256",
              "name": "creationTimestamp",
              "type": "uint256"
            },
            {
              "internalType": "uint256[]",
              "name": "initialOdds",
              "type": "uint256[]"
            },
            {
              "internalType": "bool",
              "name": "active",
              "type": "bool"
            }
          ],
          "internalType": "struct AbstractMarketFactoryV3.Market",
          "name": "",
          "type": "tuple"
        }
      ],
      "stateMutability": "view",
      "type": "function"
    },
    {
      "inputs": [],
      "name": "getOwner",
      "outputs": [
        {
          "internalType": "address",
          "name": "",
          "type": "address"
        }
      ],
      "stateMutability": "view",
      "type": "function"
    },
    {
      "inputs": [
        {
          "internalType": "uint256",
          "name": "_eventId",
          "type": "uint256"
        }
      ],
      "name": "getSportsEvent",
      "outputs": [
        {
          "components": [
            {
              "internalType": "enum Sport.SportsEventStatus",
              "name": "status",
              "type": "uint8"
            },
            {
              "internalType": "uint256[]",
              "name": "markets",
              "type": "uint256[]"
            },
            {
              "internalType": "int256[]",
              "name": "lines",
              "type": "int256[]"
            },
            {
              "internalType": "uint256",
              "name": "estimatedStartTime",
              "type": "uint256"
            },
            {
              "internalType": "uint256",
              "name": "homeTeamId",
              "type": "uint256"
            },
            {
              "internalType": "uint256",
              "name": "awayTeamId",
              "type": "uint256"
            },
            {
              "internalType": "string",
              "name": "homeTeamName",
              "type": "string"
            },
            {
              "internalType": "string",
              "name": "awayTeamName",
              "type": "string"
            },
            {
              "internalType": "uint256",
              "name": "homeScore",
              "type": "uint256"
            },
            {
              "internalType": "uint256",
              "name": "awayScore",
              "type": "uint256"
            }
          ],
          "internalType": "struct Sport.SportsEvent",
          "name": "",
          "type": "tuple"
        }
      ],
      "stateMutability": "view",
      "type": "function"
    },
    {
      "inputs": [
        {
          "internalType": "uint256",
          "name": "_index",
          "type": "uint256"
        }
      ],
      "name": "getSportsEventByIndex",
      "outputs": [
        {
          "components": [
            {
              "internalType": "enum Sport.SportsEventStatus",
              "name": "status",
              "type": "uint8"
            },
            {
              "internalType": "uint256[]",
              "name": "markets",
              "type": "uint256[]"
            },
            {
              "internalType": "int256[]",
              "name": "lines",
              "type": "int256[]"
            },
            {
              "internalType": "uint256",
              "name": "estimatedStartTime",
              "type": "uint256"
            },
            {
              "internalType": "uint256",
              "name": "homeTeamId",
              "type": "uint256"
            },
            {
              "internalType": "uint256",
              "name": "awayTeamId",
              "type": "uint256"
            },
            {
              "internalType": "string",
              "name": "homeTeamName",
              "type": "string"
            },
            {
              "internalType": "string",
              "name": "awayTeamName",
              "type": "string"
            },
            {
              "internalType": "uint256",
              "name": "homeScore",
              "type": "uint256"
            },
            {
              "internalType": "uint256",
              "name": "awayScore",
              "type": "uint256"
            }
          ],
          "internalType": "struct Sport.SportsEvent",
          "name": "_event",
          "type": "tuple"
        },
        {
          "internalType": "uint256",
          "name": "_eventId",
          "type": "uint256"
        }
      ],
      "stateMutability": "view",
      "type": "function"
    },
    {
      "inputs": [],
      "name": "getVersion",
      "outputs": [
        {
          "internalType": "string",
          "name": "",
          "type": "string"
        }
      ],
      "stateMutability": "view",
      "type": "function"
    },
    {
      "inputs": [
        {
          "internalType": "uint256",
          "name": "_id",
          "type": "uint256"
        }
      ],
      "name": "isMarketResolved",
      "outputs": [
        {
          "internalType": "bool",
          "name": "",
          "type": "bool"
        }
      ],
      "stateMutability": "view",
      "type": "function"
    },
    {
      "inputs": [],
      "name": "linkNode",
      "outputs": [
        {
          "internalType": "address",
          "name": "",
          "type": "address"
        }
      ],
      "stateMutability": "view",
      "type": "function"
    },
    {
      "inputs": [
        {
          "internalType": "uint256",
          "name": "",
          "type": "uint256"
        }
      ],
      "name": "listOfSportsEvents",
      "outputs": [
        {
          "internalType": "uint256",
          "name": "",
          "type": "uint256"
        }
      ],
      "stateMutability": "view",
      "type": "function"
    },
    {
      "inputs": [],
      "name": "listResolvableEvents",
      "outputs": [
        {
          "internalType": "uint256[]",
          "name": "",
          "type": "uint256[]"
        }
      ],
      "stateMutability": "view",
      "type": "function"
    },
    {
      "inputs": [],
      "name": "marketCount",
      "outputs": [
        {
          "internalType": "uint256",
          "name": "",
          "type": "uint256"
        }
      ],
      "stateMutability": "view",
      "type": "function"
    },
    {
      "inputs": [
        {
          "internalType": "uint256",
          "name": "_id",
          "type": "uint256"
        },
        {
          "internalType": "uint256",
          "name": "_shareToMint",
          "type": "uint256"
        },
        {
          "internalType": "address",
          "name": "_receiver",
          "type": "address"
        }
      ],
      "name": "mintShares",
      "outputs": [],
      "stateMutability": "nonpayable",
      "type": "function"
    },
    {
      "inputs": [],
      "name": "protocol",
      "outputs": [
        {
          "internalType": "address",
          "name": "",
          "type": "address"
        }
      ],
      "stateMutability": "view",
      "type": "function"
    },
    {
      "inputs": [],
      "name": "protocolFee",
      "outputs": [
        {
          "internalType": "uint256",
          "name": "",
          "type": "uint256"
        }
      ],
      "stateMutability": "view",
      "type": "function"
    },
    {
      "inputs": [
        {
          "internalType": "uint256",
          "name": "_eventId",
          "type": "uint256"
        },
        {
          "internalType": "enum Sport.SportsEventStatus",
          "name": "_eventStatus",
          "type": "uint8"
        },
        {
          "internalType": "uint256",
          "name": "_homeTeamId",
          "type": "uint256"
        },
        {
          "internalType": "uint256",
          "name": "_awayTeamId",
          "type": "uint256"
        },
        {
          "internalType": "uint256",
          "name": "_homeScore",
          "type": "uint256"
        },
        {
          "internalType": "uint256",
          "name": "_awayScore",
          "type": "uint256"
        }
      ],
      "name": "resolveEvent",
      "outputs": [],
      "stateMutability": "nonpayable",
      "type": "function"
    },
    {
      "inputs": [
        {
          "internalType": "address",
          "name": "_newLinkNode",
          "type": "address"
        }
      ],
      "name": "setLinkNode",
      "outputs": [],
      "stateMutability": "nonpayable",
      "type": "function"
    },
    {
      "inputs": [
        {
          "internalType": "address",
          "name": "_newProtocol",
          "type": "address"
        },
        {
          "internalType": "bool",
          "name": "_claimFirst",
          "type": "bool"
        }
      ],
      "name": "setProtocol",
      "outputs": [],
      "stateMutability": "nonpayable",
      "type": "function"
    },
    {
      "inputs": [
        {
          "internalType": "uint256",
          "name": "_newFee",
          "type": "uint256"
        }
      ],
      "name": "setProtocolFee",
      "outputs": [],
      "stateMutability": "nonpayable",
      "type": "function"
    },
    {
      "inputs": [
        {
          "internalType": "uint256",
          "name": "_newFee",
          "type": "uint256"
        }
      ],
      "name": "setSettlementFee",
      "outputs": [],
      "stateMutability": "nonpayable",
      "type": "function"
    },
    {
      "inputs": [
        {
          "internalType": "uint256",
          "name": "_newFee",
          "type": "uint256"
        }
      ],
      "name": "setStakerFee",
      "outputs": [],
      "stateMutability": "nonpayable",
      "type": "function"
    },
    {
      "inputs": [],
      "name": "settlementFee",
      "outputs": [
        {
          "internalType": "uint256",
          "name": "",
          "type": "uint256"
        }
      ],
      "stateMutability": "view",
      "type": "function"
    },
    {
      "inputs": [],
      "name": "shareFactor",
      "outputs": [
        {
          "internalType": "uint256",
          "name": "",
          "type": "uint256"
        }
      ],
      "stateMutability": "view",
      "type": "function"
    },
    {
      "inputs": [
        {
          "internalType": "uint256",
          "name": "",
          "type": "uint256"
        }
      ],
      "name": "sportsEvents",
      "outputs": [
        {
          "internalType": "enum Sport.SportsEventStatus",
          "name": "status",
          "type": "uint8"
        },
        {
          "internalType": "uint256",
          "name": "estimatedStartTime",
          "type": "uint256"
        },
        {
          "internalType": "uint256",
          "name": "homeTeamId",
          "type": "uint256"
        },
        {
          "internalType": "uint256",
          "name": "awayTeamId",
          "type": "uint256"
        },
        {
          "internalType": "string",
          "name": "homeTeamName",
          "type": "string"
        },
        {
          "internalType": "string",
          "name": "awayTeamName",
          "type": "string"
        },
        {
          "internalType": "uint256",
          "name": "homeScore",
          "type": "uint256"
        },
        {
          "internalType": "uint256",
          "name": "awayScore",
          "type": "uint256"
        }
      ],
      "stateMutability": "view",
      "type": "function"
    },
    {
      "inputs": [],
      "name": "stakerFee",
      "outputs": [
        {
          "internalType": "uint256",
          "name": "",
          "type": "uint256"
        }
      ],
      "stateMutability": "view",
      "type": "function"
    },
    {
      "inputs": [
        {
          "internalType": "address",
          "name": "_newOwner",
          "type": "address"
        }
      ],
      "name": "transferOwnership",
      "outputs": [
        {
          "internalType": "bool",
          "name": "",
          "type": "bool"
        }
      ],
      "stateMutability": "nonpayable",
      "type": "function"
    }
  ],
  "transactionHash": "0x5b2f61173ae77ef6782e9322732453d6cd9a9fb9466a39dcefdeb95477ea0b2c",
  "args": [
    "0x0000000000000000000000000000000000000001",
    "0x2791Bca1f2de4661ED88A30C99A7a9449Aa84174",
    "1000000000000",
    "0x7E9614DF620da5351b36465a7C5D06263a2e1716",
    [
      0,
      "500000000000000",
      0
    ],
    "0x0000000000000000000000000000000000000000",
    "0x6FBD37365bac1fC61EAb2b35ba4024B32b136be6"
  ],
  "solcInputHash": "5f31406fbd032928e2395edde2adba97",
  "bytecode": "0x608060405260006007553480156200001657600080fd5b5060405162005bae38038062005bae833981016040819052620000399162000571565b60408051808201825260058152640312e322e360dc1b60208083019190915282518084018452600a80825269139bc810dbdb9d195cdd60b21b82840181905285518087018752828152808501829052865180880190975291865292850192909252600080546001600160a01b03808e166001600160a01b03199283163317831617835560018054828f1690841617815560098d905560028054928d16929093169190911782559495879591949192908e8e8e8e8e8e8188602002015160035581600160200201516004558160026020020151600555600680546001600160a01b0319166001600160a01b038381169190911790915560405163095ea7b360e01b81529086169063095ea7b39062000159908690600019906004016200068d565b602060405180830381600087803b1580156200017457600080fd5b505af115801562000189573d6000803e3d6000fd5b505050506040513d601f19601f82011682018060405250810190620001af919062000664565b50600a620001bc62000349565b81546001808201845560009384526020938490208351600a9093020180546001600160a01b0319166001600160a01b03909316929092178255828401518051939492936200021393928501929190910190620003b7565b5060408201516002820180546001600160a01b0319166001600160a01b03909216919091179055606082015160038201556080820151600482015560a0820151600582015560c0820151600682015560e0820151600782015561010082015180516200028a91600884019160209091019062000421565b5061012091909101516009909101805460ff1916911515919091179055505050600d85905550508151620002c79150600e9060208401906200045f565b505050600f8290558051620002e49060109060208401906200045f565b50505060118290558051620003019060129060208401906200045f565b5050601380546001600160a01b0319166001600160a01b0393909316929092179091555080516200033a9060149060208401906200045f565b505050505050505050620006bf565b62000353620004e1565b506040805160008082526020820181815261018083018452928201818152606083018390526080830182905260a0830182905260c0830182905260e08301829052610100830182905261012083018290526101408301939093526101609091015290565b8280548282559060005260206000209081019282156200040f579160200282015b828111156200040f57825182546001600160a01b0319166001600160a01b03909116178255602090920191600190910190620003d8565b506200041d92915062000548565b5090565b8280548282559060005260206000209081019282156200040f579160200282015b828111156200040f57825182559160200191906001019062000442565b828054600181600116156101000203166002900490600052602060002090601f0160209004810192826200049757600085556200040f565b82601f10620004b257805160ff19168380011785556200040f565b828001600101855582156200040f57918201828111156200040f57825182559160200191906001019062000442565b60405180610140016040528060006001600160a01b031681526020016060815260200160006001600160a01b031681526020016000815260200160008152602001600081526020016000815260200160008152602001606081526020016000151581525090565b5b808211156200041d576000815560010162000549565b80516200056c81620006a6565b919050565b6000806000806000806000610120888a0312156200058d578283fd5b87516200059a81620006a6565b80975050602080890151620005af81620006a6565b60408a015160608b01519198509650620005c981620006a6565b9450609f89018a13620005da578384fd5b604051606081016001600160401b0381118282101715620005f757fe5b6040528060808b0160e08c018d81111562000610578788fd5b875b6003811015620006315782518452928501929185019160010162000612565b5083975062000640816200055f565b965050505050506200065661010089016200055f565b905092959891949750929550565b60006020828403121562000676578081fd5b8151801515811462000686578182fd5b9392505050565b6001600160a01b03929092168252602082015260400190565b6001600160a01b0381168114620006bc57600080fd5b50565b6154df80620006cf6000396000f3fe60806040523480156200001157600080fd5b5060043610620002685760003560e01c806397eef187116200014d578063d8dfeb4511620000c9578063ee750b191162000087578063ee750b19146200052b578063f2fde38b1462000542578063f563c99a1462000559578063fbfcd55e1462000580578063fedf6cb114620005975762000268565b8063d8dfeb4514620004c3578063e2c30b1514620004cd578063e5678dfa14620004e4578063eb44fdd314620004fb578063ec97908214620005215762000268565b8063cb68b0d81162000117578063cb68b0d81462000447578063cc87adea1462000474578063cdaac862146200048b578063d4b6838e14620004a2578063d5da4f1d14620004ac5762000268565b806397eef1871462000405578063992c9079146200041c578063a544a62c1462000433578063b0e21e8a146200043d5762000268565b80634c9f66c711620001e9578063787dce3d11620001a7578063787dce3d14620003b95780637d1d7fb814620003d0578063893d20e814620003da5780638ce7442614620003e45780638e0ed19314620003ee5762000268565b80634c9f66c7146200034057806353ac55f51462000359578063671eb698146200037f57806371be2e4a14620003a55780637641ab0114620003af5762000268565b8063473a6d521162000237578063473a6d5214620002e557806349a4d93414620002fc5780634a7d036914620003135780634a875e0b146200031d5780634b2d9ffc14620003365762000268565b80630d8e6e2c146200026d578063221fff81146200028f57806332ecabe914620002a857806335a9cdad14620002bf575b600080fd5b62000277620005ae565b60405162000286919062003eee565b60405180910390f35b620002a6620002a036600462003c5c565b62000648565b005b620002a6620002b936600462003903565b6200096b565b620002d6620002d036600462003c5c565b620009b9565b60405162000286919062004091565b620002d6620002f636600462003a97565b62000dea565b620002d66200030d366004620038e6565b62000e28565b620002d662000e3a565b6200032762000f04565b60405162000286919062003e69565b620002d662000fdb565b6200034a62000fe1565b60405162000286919062003e18565b620003706200036a36600462003a97565b62000ff0565b60405162000286919062003e7e565b620003966200039036600462003a97565b62001170565b60405162000286919062004058565b620002d6620013e2565b620002d6620013e8565b620002a6620003ca36600462003a97565b620013ee565b620002d66200140b565b6200034a62001411565b6200034a62001420565b620002d6620003ff366004620038e6565b6200142f565b620002a66200041636600462003a97565b620014eb565b620002d66200042d36600462003ac9565b62001508565b620002d662001920565b620002d662001926565b6200045e6200045836600462003a97565b6200192c565b6040516200028698979695949392919062003e89565b620002d66200048536600462003a97565b62001a92565b620003276200049c36600462003a97565b62001a99565b6200034a62001b43565b620002a6620004bd36600462003a97565b62001b52565b6200034a62001b6f565b620002a6620004de366004620038e6565b62001b7e565b620002d6620004f53660046200393e565b62001bea565b620005126200050c36600462003a97565b62001c38565b60405162000286919062003f96565b620002d662001dcd565b620002a66200053c36600462003af7565b62001dd3565b6200037062000553366004620038e6565b62002346565b620005706200056a36600462003a97565b620023b0565b604051620002869291906200406d565b620003276200059136600462003b4b565b620023e9565b620002d6620005a836600462003a97565b6200247b565b60148054604080516020601f60026000196101006001881615020190951694909404938401819004810282018101909252828152606093909290918301828280156200063e5780601f1062000612576101008083540402835291602001916200063e565b820191906000526020600020905b8154815290600101906020018083116200062057829003601f168201915b5050505050905090565b600a5483106200065757600080fd5b600a83815481106200066557fe5b600091825260209091206009600a90920201015460ff166200068657600080fd5b6000620006938362000dea565b6001546040516323b872dd60e01b81529192506001600160a01b0316906323b872dd90620006ca9033903090869060040162003e2c565b602060405180830381600087803b158015620006e557600080fd5b505af1158015620006fa573d6000803e3d6000fd5b505050506040513d601f19601f82011682018060405250810190620007209190620039fc565b506000600a85815481106200073157fe5b60009182526020918290206040805161014081018252600a90930290910180546001600160a01b03168352600181018054835181870281018701909452808452939491938583019392830182828015620007b557602002820191906000526020600020905b81546001600160a01b0316815260019091019060200180831162000796575b505050505081526020016002820160009054906101000a90046001600160a01b03166001600160a01b03166001600160a01b031681526020016003820154815260200160048201548152602001600582015481526020016006820154815260200160078201548152602001600882018054806020026020016040519081016040528092919081815260200182805480156200087057602002820191906000526020600020905b8154815260200190600101908083116200085b575b50505091835250506009919091015460ff161515602090910152905060005b816020015151811015620009265781602001518181518110620008ae57fe5b60200260200101516001600160a01b031663c024cd2685876040518363ffffffff1660e01b8152600401620008e592919062003e50565b600060405180830381600087803b1580156200090057600080fd5b505af115801562000915573d6000803e3d6000fd5b5050600190920191506200088f9050565b507fd81c0442e10068a9818f3aa093c9ccb804584690df572d7df3da2d892a6973f28585856040516200095c939291906200420e565b60405180910390a15050505050565b6000546001600160a01b031633146200098357600080fd5b801562000996576200099462000e3a565b505b50600680546001600160a01b0319166001600160a01b0392909216919091179055565b600a546000908410620009cb57600080fd5b600a8481548110620009d957fe5b600091825260209091206009600a90920201015460ff16620009fa57600080fd5b6000600a858154811062000a0a57fe5b60009182526020918290206040805161014081018252600a90930290910180546001600160a01b0316835260018101805483518187028101870190945280845293949193858301939283018282801562000a8e57602002820191906000526020600020905b81546001600160a01b0316815260019091019060200180831162000a6f575b505050505081526020016002820160009054906101000a90046001600160a01b03166001600160a01b03166001600160a01b0316815260200160038201548152602001600482015481526020016005820154815260200160068201548152602001600782015481526020016008820180548060200260200160405190810160405280929190818152602001828054801562000b4957602002820191906000526020600020905b81548152602001906001019080831162000b34575b50505091835250506009919091015460ff161515602090910152905060005b81602001515181101562000bff578160200151818151811062000b8757fe5b60200260200101516001600160a01b03166342986e1333876040518363ffffffff1660e01b815260040162000bbe92919062003e50565b600060405180830381600087803b15801562000bd957600080fd5b505af115801562000bee573d6000803e3d6000fd5b50506001909201915062000b689050565b50600062000c0d8562000dea565b9050600062000c3e670de0b6b3a764000062000c378560a00151856200249d90919063ffffffff16565b90620024c8565b9050600062000c68670de0b6b3a764000062000c378660c00151866200249d90919063ffffffff16565b905062000c828162000c7b8585620024de565b90620024de565b600780548401905560015460405163a9059cbb60e01b81529194506001600160a01b03169063a9059cbb9062000cbf908990879060040162003e50565b602060405180830381600087803b15801562000cda57600080fd5b505af115801562000cef573d6000803e3d6000fd5b505050506040513d601f19601f8201168201806040525081019062000d159190620039fc565b50600254604051630ebdac0960e41b81526001600160a01b039091169063ebdac0909062000d4890849060040162004091565b602060405180830381600087803b15801562000d6357600080fd5b505af115801562000d78573d6000803e3d6000fd5b505050506040513d601f19601f8201168201806040525081019062000d9e9190620039fc565b507fb6fdb729b2ed801daf629f0ab713e4a7a73619505790f6f27fd92d6f2c9688d788883360405162000dd4939291906200420e565b60405180910390a15090925050505b9392505050565b6000600954821015801562000e095750600954828162000e0657fe5b06155b62000e1357600080fd5b600954828162000e1f57fe5b0490505b919050565b60086020526000908152604090205481565b6006546000906001600160a01b031633148062000e5657503330145b62000e6057600080fd5b600754801562000eff57600060075560015460065460405163a9059cbb60e01b81526001600160a01b039283169263a9059cbb9262000ea792911690859060040162003e50565b602060405180830381600087803b15801562000ec257600080fd5b505af115801562000ed7573d6000803e3d6000fd5b505050506040513d601f19601f8201168201806040525081019062000efd9190620039fc565b505b905090565b6060600062000f12620024f4565b905060008167ffffffffffffffff8111801562000f2e57600080fd5b5060405190808252806020026020018201604052801562000f59578160200160208202803683370190505b5090506000805b600c5481101562000fd2578382111562000f7a5762000fd2565b6000600c828154811062000f8a57fe5b9060005260206000200154905062000fa28162002543565b1562000fc8578084848151811062000fb657fe5b60209081029190910101526001909201915b5060010162000f60565b50909250505090565b60035481565b6002546001600160a01b031681565b600080600a83815481106200100157fe5b60009182526020918290206040805161014081018252600a90930290910180546001600160a01b031683526001810180548351818702810187019094528084529394919385830193928301828280156200108557602002820191906000526020600020905b81546001600160a01b0316815260019091019060200180831162001066575b505050505081526020016002820160009054906101000a90046001600160a01b03166001600160a01b03166001600160a01b031681526020016003820154815260200160048201548152602001600582015481526020016006820154815260200160078201548152602001600882018054806020026020016040519081016040528092919081815260200182805480156200114057602002820191906000526020600020905b8154815260200190600101908083116200112b575b50505091835250506009919091015460ff161515602090910152604001516001600160a01b031615159392505050565b6200117a6200366d565b6000828152600b602052604090819020815161014081019092528054829060ff166004811115620011a757fe5b6004811115620011b357fe5b8152602001600182018054806020026020016040519081016040528092919081815260200182805480156200120857602002820191906000526020600020905b815481526020019060010190808311620011f3575b50505050508152602001600282018054806020026020016040519081016040528092919081815260200182805480156200126257602002820191906000526020600020905b8154815260200190600101908083116200124d575b50505050508152602001600382015481526020016004820154815260200160058201548152602001600682018054600181600116156101000203166002900480601f016020809104026020016040519081016040528092919081815260200182805460018160011615610100020316600290048015620013265780601f10620012fa5761010080835404028352916020019162001326565b820191906000526020600020905b8154815290600101906020018083116200130857829003601f168201915b505050918352505060078201805460408051602060026001851615610100026000190190941693909304601f8101849004840282018401909252818152938201939291830182828015620013be5780601f106200139257610100808354040283529160200191620013be565b820191906000526020600020905b815481529060010190602001808311620013a057829003601f168201915b50505050508152602001600882015481526020016009820154815250509050919050565b600c5490565b60095481565b6000546001600160a01b031633146200140657600080fd5b600555565b60045481565b6000546001600160a01b031690565b6006546001600160a01b031681565b336000908152600860205260408120548015620014e5573360009081526008602052604080822091909155600154905163a9059cbb60e01b81526001600160a01b039091169063a9059cbb906200148d908690859060040162003e50565b602060405180830381600087803b158015620014a857600080fd5b505af1158015620014bd573d6000803e3d6000fd5b505050506040513d601f19601f82011682018060405250810190620014e39190620039fc565b505b92915050565b6000546001600160a01b031633146200150357600080fd5b600355565b6000620015158362000ff0565b6200153d5760405162461bcd60e51b8152600401620015349062003f6b565b60405180910390fd5b6000600a84815481106200154d57fe5b60009182526020918290206040805161014081018252600a90930290910180546001600160a01b03168352600181018054835181870281018701909452808452939491938583019392830182828015620015d157602002820191906000526020600020905b81546001600160a01b03168152600190910190602001808311620015b2575b505050505081526020016002820160009054906101000a90046001600160a01b03166001600160a01b03166001600160a01b031681526020016003820154815260200160048201548152602001600582015481526020016006820154815260200160078201548152602001600882018054806020026020016040519081016040528092919081815260200182805480156200168c57602002820191906000526020600020905b81548152602001906001019080831162001677575b50505091835250506009919091015460ff1615156020909101526040808201519051631c4a5de160e21b81529192506000916001600160a01b0390911690637129778490620016e090339060040162003e18565b602060405180830381600087803b158015620016fb57600080fd5b505af115801562001710573d6000803e3d6000fd5b505050506040513d601f19601f8201168201806040525081019062001736919062003ab0565b905060095460095482816200174757fe5b040290506000620017588262000dea565b9050600062001782670de0b6b3a764000062000c378660800151856200249d90919063ffffffff16565b9050620017908282620024de565b84516001600160a01b0390811660009081526008602052604090819020805485019055600154905163a9059cbb60e01b8152929450169063a9059cbb90620017df908990869060040162003e50565b602060405180830381600087803b158015620017fa57600080fd5b505af11580156200180f573d6000803e3d6000fd5b505050506040513d601f19601f82011682018060405250810190620018359190620039fc565b50600084606001519050600085604001516001600160a01b03166306fdde036040518163ffffffff1660e01b815260040160006040518083038186803b1580156200187f57600080fd5b505afa15801562001894573d6000803e3d6000fd5b505050506040513d6000823e601f3d908101601f19168201604052620018be919081019062003a1b565b9050876001600160a01b03167f76ea0c89f1eef8b1ac3908910bbe5ee5120ff997f6b3bcc900659973e6a2ff128a886040015185858a898b6040516200190b9796959493929190620040c9565b60405180910390a25091979650505050505050565b60075481565b60055481565b600b6020908152600091825260409182902080546003820154600483015460058401546006850180548851601f6002600019600185161561010002019093169290920491820189900489028101890190995280895260ff90951697939692959194919392909190830182828015620019e85780601f10620019bc57610100808354040283529160200191620019e8565b820191906000526020600020905b815481529060010190602001808311620019ca57829003601f168201915b5050505060078301805460408051602060026001851615610100026000190190941693909304601f810184900484028201840190925281815294959493509083018282801562001a7c5780601f1062001a505761010080835404028352916020019162001a7c565b820191906000526020600020905b81548152906001019060200180831162001a5e57829003601f168201915b5050505050908060080154908060090154905088565b6009540290565b6000818152600b602052604090206001018054606091908067ffffffffffffffff8111801562001ac857600080fd5b5060405190808252806020026020018201604052801562001af3578160200160208202803683370190505b50925060005b8181101562001b3b5782818154811062001b0f57fe5b906000526020600020015484828151811062001b2757fe5b602090810291909101015260010162001af9565b505050919050565b6013546001600160a01b031681565b6000546001600160a01b0316331462001b6a57600080fd5b600455565b6001546001600160a01b031681565b6000546001600160a01b0316331462001b9657600080fd5b601380546001600160a01b0383166001600160a01b0319909116811790915560408051918252517f6b7517523482c8d89ffbc530829d5decd506cf6dc60874b11fa26c8a53bb9fa99181900360200190a150565b600080805b845181101562001c305762001c2562001c1d86838151811062001c0e57fe5b60200260200101518662001508565b8390620025af565b915060010162001bef565b509392505050565b62001c42620036c1565b600a54821062001c5e5762001c56620025c2565b905062000e23565b600a828154811062001c6c57fe5b60009182526020918290206040805161014081018252600a90930290910180546001600160a01b0316835260018101805483518187028101870190945280845293949193858301939283018282801562001cf057602002820191906000526020600020905b81546001600160a01b0316815260019091019060200180831162001cd1575b505050505081526020016002820160009054906101000a90046001600160a01b03166001600160a01b03166001600160a01b0316815260200160038201548152602001600482015481526020016005820154815260200160068201548152602001600782015481526020016008820180548060200260200160405190810160405280929190818152602001828054801562001dab57602002820191906000526020600020905b81548152602001906001019080831162001d96575b50505091835250506009919091015460ff161515602090910152905062000e23565b600a5490565b6013546001600160a01b0316331462001deb57600080fd5b6000868152600b602052604090206001815460ff16600481111562001e0c57fe5b1462001e1757600080fd5b600186600481111562001e2657fe5b141562001e3257600080fd5b60408051610140810190915281546200209891908390829060ff16600481111562001e5957fe5b600481111562001e6557fe5b81526020016001820180548060200260200160405190810160405280929190818152602001828054801562001eba57602002820191906000526020600020905b81548152602001906001019080831162001ea5575b505050505081526020016002820180548060200260200160405190810160405280929190818152602001828054801562001f1457602002820191906000526020600020905b81548152602001906001019080831162001eff575b50505050508152602001600382015481526020016004820154815260200160058201548152602001600682018054600181600116156101000203166002900480601f01602080910402602001604051908101604052809291908181526020018280546001816001161561010002031660029004801562001fd85780601f1062001fac5761010080835404028352916020019162001fd8565b820191906000526020600020905b81548152906001019060200180831162001fba57829003601f168201915b505050918352505060078201805460408051602060026001851615610100026000190190941693909304601f8101849004840282018401909252818152938201939291830182828015620020705780601f10620020445761010080835404028352916020019162002070565b820191906000526020600020905b8154815290600101906020018083116200205257829003601f168201915b5050505050815260200160088201548152602001600982015481525050878787600062002630565b15620020af57620020a98762002688565b62002312565b60408051610140810190915281546200231291908390829060ff166004811115620020d657fe5b6004811115620020e257fe5b8152602001600182018054806020026020016040519081016040528092919081815260200182805480156200213757602002820191906000526020600020905b81548152602001906001019080831162002122575b50505050508152602001600282018054806020026020016040519081016040528092919081815260200182805480156200219157602002820191906000526020600020905b8154815260200190600101908083116200217c575b50505050508152602001600382015481526020016004820154815260200160058201548152602001600682018054600181600116156101000203166002900480601f016020809104026020016040519081016040528092919081815260200182805460018160011615610100020316600290048015620022555780601f10620022295761010080835404028352916020019162002255565b820191906000526020600020905b8154815290600101906020018083116200223757829003601f168201915b505050918352505060078201805460408051602060026001851615610100026000190190941693909304601f8101849004840282018401909252818152938201939291830182828015620022ed5780601f10620022c157610100808354040283529160200191620022ed565b820191906000526020600020905b815481529060010190602001808311620022cf57829003601f168201915b505050505081526020016008820154815260200160098201548152505084846200273e565b6000878152600b60205260409020805487919060ff191660018360048111156200233857fe5b021790555050505050505050565b600080546001600160a01b031633146200235f57600080fd5b6001600160a01b0382166200237357600080fd5b6000546200238b906001600160a01b031683620027e4565b50600080546001600160a01b0383166001600160a01b03199091161790556001919050565b620023ba6200366d565b6000600c8381548110620023ca57fe5b90600052602060002001549050620023e28162001170565b9150915091565b6013546060906001600160a01b031633146200240457600080fd5b60008a8152600b602052604081205460ff1660048111156200242257fe5b14620024425760405162461bcd60e51b8152600401620015349062003f45565b6200244f828a89620027e8565b90506200246e8a8262002463878762002882565b888c8b8f8e620028f4565b9998505050505050505050565b600c81815481106200248c57600080fd5b600091825260209091200154905081565b600082620024ae57506000620014e5565b82820282848281620024bc57fe5b041462000de357600080fd5b600080828481620024d557fe5b04949350505050565b600082821115620024ee57600080fd5b50900390565b600080805b600c5481101562000efd576000600c82815481106200251457fe5b906000526020600020015490506200252c8162002543565b1562002539576001909201915b50600101620024f9565b600080620025518362001a99565b90506000805b825181101562001c305760008382815181106200257057fe5b6020026020010151905080600014158015620025945750620025928162000ff0565b155b15620025a557600192505062001c30565b5060010162002557565b60008282018381101562000de357600080fd5b620025cc620036c1565b506040805160008082526020820181815261018083018452928201818152606083018390526080830182905260a0830182905260c0830182905260e08301829052610100830182905261012083018290526101408301939093526101609091015290565b6000600382148160028760048111156200264657fe5b60808a015160a08b015192909114159250871415908614158380620026685750825b80620026715750815b806200267a5750805b9a9950505050505050505050565b6000818152600b6020908152604080832060010180548251818502810185019093528083529192909190830182828015620026e357602002820191906000526020600020905b815481526020019060010190808311620026ce575b5050505050905060005b8151811015620027395760008282815181106200270657fe5b60200260200101519050806000141562002721575062002730565b6200272e81600062002a34565b505b600101620026ed565b505050565b6200276483602001516000815181106200275457fe5b6020026020010151838362002bde565b620027a483602001516001815181106200277a57fe5b602002602001015184604001516001815181106200279457fe5b6020026020010151848462002c00565b620027398360200151600281518110620027ba57fe5b60200260200101518460400151600181518110620027d457fe5b6020026020010151848462002c24565b5050565b604080516003808252608082019092526060916020820183803683370190505090506200281784848462002c33565b816000815181106200282557fe5b6020026020010181815250506200283d838362002cfb565b816001815181106200284b57fe5b6020026020010181815250506200286162002da4565b816002815181106200286f57fe5b6020026020010181815250509392505050565b60408051600380825260808201909252606091602082018380368337019050509050620028af8362002e66565b81600181518110620028bd57fe5b602002602001018181525050620028d48262002e66565b81600281518110620028e257fe5b60200260200101818152505092915050565b600c805460018082019092557fdf6966c971051c3d54ec59162606531493a51404a002842f56009d7e5cf4a8c7018990556000898152600b60209081526040909120805460ff1916831781558951620029559391909101918a019062003728565b506000888152600b6020908152604090912087516200297d9260029092019189019062003728565b506000888152600b602090815260409091206003810187905560048101869055600581018590558351620029ba9260069092019185019062003778565b506000888152600b602090815260409091208251620029e29260079092019184019062003778565b507f42827ef26132f4417fc4fed922669edd09d6ee5bd5d9f369a5c97c0ff57bea47888888878787878c60405162002a229897969594939291906200418e565b60405180910390a15050505050505050565b6000600a838154811062002a4457fe5b90600052602060002090600a0201600101828154811062002a6157fe5b600091825260209091200154600a80546001600160a01b03909216925082918590811062002a8b57fe5b90600052602060002090600a020160020160006101000a8154816001600160a01b0302191690836001600160a01b031602179055506000600a848154811062002ad057fe5b90600052602060002090600a020160090160006101000a81548160ff02191690831515021790555081600a848154811062002b0757fe5b90600052602060002090600a0201600301819055506000816001600160a01b03166306fdde036040518163ffffffff1660e01b815260040160006040518083038186803b15801562002b5857600080fd5b505afa15801562002b6d573d6000803e3d6000fd5b505050506040513d6000823e601f3d908101601f1916820160405262002b97919081019062003a1b565b90507f8008bbeee2e3c054e71d4965b4c22b41a2287cd6cc67c714bf918b538338be5f8483858460405162002bd094939291906200409a565b60405180910390a150505050565b600062002bec838362002ec2565b905062002bfa848262002a34565b50505050565b600062002c0f83838662002ef1565b905062002c1d858262002a34565b5050505050565b600062002c0f83838662002f29565b600e805460408051602060026001851615610100026000190190941693909304601f810184900484028201840190925281815260009362002cf3939192909183018282801562002cc75780601f1062002c9b5761010080835404028352916020019162002cc7565b820191906000526020600020905b81548152906001019060200180831162002ca957829003601f168201915b5050505050848462002ced8860016002811062002ce057fe5b6020020151895162002f62565b6200306c565b949350505050565b6010805460408051602060026001851615610100026000190190941693909304601f810184900484028201840190925281815260009362000de3939192909183018282801562002d8f5780601f1062002d635761010080835404028352916020019162002d8f565b820191906000526020600020905b81548152906001019060200180831162002d7157829003601f168201915b5050505050848462002ced6001600262003097565b60128054604080516020601f60026000196101006001881615020190951694909404938401819004810282018101909252828152600093849362002e429383018282801562002e375780601f1062002e0b5761010080835404028352916020019162002e37565b820191906000526020600020905b81548152906001019060200180831162002e1957829003601f168201915b5050505050620031ab565b905062002e60338262002e586001600262003097565b600162003267565b91505090565b600080821215801562002e7a5750600a8207155b1562002e8b57506005810162000e23565b60008212801562002ea85750600a826000038162002ea557fe5b07155b1562002eba5750600419810162000e23565b508062000e23565b60008183111562002ed657506002620014e5565b8183101562002ee857506001620014e5565b506000620014e5565b60008382018381131562002f0a57600291505062000de3565b8381121562002f1e57600191505062000de3565b600091505062000de3565b60008062002f38858562003448565b90508281131562002f4e57600191505062000de3565b8281121562002f1e57600291505062000de3565b6060600062002f718462003491565b9050600062002f808462003491565b905081810162002f9f8162000c376802a802f8630a240000866200249d565b925062002fbb8162000c376802a802f8630a240000856200249d565b9150670de0b6b3a764000083101562002fd357600080fd5b670de0b6b3a764000082101562002fe957600080fd5b604080516003808252608082019092529060208201606080368337019050509350670de0b6b3a7640000846000815181106200302157fe5b60200260200101818152505082846001815181106200303c57fe5b60200260200101818152505081846002815181106200305757fe5b60200260200101818152505050505092915050565b6000806200307c868686620034f3565b90506200308d338285600162003267565b9695505050505050565b6060600083620030a9576000620030ac565b60015b60ff16830190508067ffffffffffffffff81118015620030cb57600080fd5b50604051908082528060200260200182016040528015620030f6578160200160208202803683370190505b50915083156200312457670de0b6b3a7640000826000815181106200311757fe5b6020026020010181815250505b600083856200313d576802b5e3af16b188000062003148565b6802a802f8630a2400005b68ffffffffffffffffff16816200315b57fe5b0490506000856200316e57600062003171565b60015b60ff1690505b82811015620031a257818482815181106200318e57fe5b602090810291909101015260010162003177565b50505092915050565b60408051600380825260808201909252606091816020015b6060815260200190600190039081620031c35790505090508181600081518110620031ea57fe5b60200260200101819052506040518060400160405280600481526020016327bb32b960e11b815250816001815181106200322057fe5b6020026020010181905250604051806040016040528060058152602001642ab73232b960d91b815250816002815181106200325757fe5b6020026020010181905250919050565b600a80546040805161014081019091526001600160a01b03871681529091906020810162003296873062003578565b815260006020808301829052604083018290526004546060840152600554608084015260035460a08401524260c084015260e0830188905286151561010090930192909252835460018082018655948252908290208351600a9092020180546001600160a01b0319166001600160a01b03909216919091178155828201518051939491936200332e93928501929190910190620037fa565b5060408201516002820180546001600160a01b0319166001600160a01b03909216919091179055606082015160038201556080820151600482015560a0820151600582015560c0820151600682015560e082015160078201556101008201518051620033a591600884019160209091019062003728565b5061012091909101516009909101805460ff19169115159190911790556040517f037fdac9e4b37ad8b184ce958d7b275e578c9e03d4cfbc51aa75de25fdb6bbec90620033f89083908790879062004117565b60405180910390a1811562002cf3577fee570fee9d8debeedea533b8cdfde6b9d9995b915869d4d10d350e75a9bf0f888160405162003438919062004091565b60405180910390a1949350505050565b6000808312158015620034645750826001600160ff1b03038213155b8062003482575060008312801562003482575082600160ff1b038212155b6200348c57600080fd5b500190565b600080821215620034d0576000829003620034c7620034b2826064620025af565b62000c37836802a802f8630a2400006200249d565b91505062000e23565b62001c56620034e1836064620025af565b690109a12906aff610000090620024c8565b60408051600380825260808201909252606091816020015b60608152602001906001900390816200350b57905050905083816000815181106200353257fe5b602002602001018190525081816001815181106200354c57fe5b602002602001018190525082816002815181106200356657fe5b60200260200101819052509392505050565b815160609060008167ffffffffffffffff811180156200359757600080fd5b50604051908082528060200260200182016040528015620035c2578160200160208202803683370190505b50905060005b828110156200366457858181518110620035de57fe5b6020026020010151868281518110620035f357fe5b6020026020010151866040516200360a9062003852565b620036189392919062003f03565b604051809103906000f08015801562003635573d6000803e3d6000fd5b508282815181106200364357fe5b6001600160a01b0390921660209283029190910190910152600101620035c8565b50949350505050565b60408051610140810190915280600081526020016060815260200160608152602001600081526020016000815260200160008152602001606081526020016060815260200160008152602001600081525090565b60405180610140016040528060006001600160a01b031681526020016060815260200160006001600160a01b031681526020016000815260200160008152602001600081526020016000815260200160008152602001606081526020016000151581525090565b82805482825590600052602060002090810192821562003766579160200282015b828111156200376657825182559160200191906001019062003749565b506200377492915062003860565b5090565b828054600181600116156101000203166002900490600052602060002090601f016020900481019282620037b0576000855562003766565b82601f10620037cb57805160ff191683800117855562003766565b828001600101855582156200376657918201828111156200376657825182559160200191906001019062003749565b82805482825590600052602060002090810192821562003766579160200282015b828111156200376657825182546001600160a01b0319166001600160a01b039091161782556020909201916001909101906200381b565b6111f380620042b783390190565b5b8082111562003774576000815560010162003861565b80356001600160a01b038116811462000e2357600080fd5b600082601f830112620038a0578081fd5b8135620038b7620038b18262004252565b6200422d565b818152846020838601011115620038cc578283fd5b816020850160208301379081016020019190915292915050565b600060208284031215620038f8578081fd5b62000de38262003877565b6000806040838503121562003916578081fd5b620039218362003877565b915060208301356200393381620042a4565b809150509250929050565b6000806040838503121562003951578182fd5b823567ffffffffffffffff8082111562003969578384fd5b818501915085601f8301126200397d578384fd5b81356020828211156200398c57fe5b80820292506200399e8184016200422d565b8281528181019085830185870184018b1015620039b9578889fd5b8896505b84871015620039dd578035835260019690960195918301918301620039bd565b509650620039ef905087820162003877565b9450505050509250929050565b60006020828403121562003a0e578081fd5b815162000de381620042a4565b60006020828403121562003a2d578081fd5b815167ffffffffffffffff81111562003a44578182fd5b8201601f8101841362003a55578182fd5b805162003a66620038b18262004252565b81815285602083850101111562003a7b578384fd5b62003a8e82602083016020860162004275565b95945050505050565b60006020828403121562003aa9578081fd5b5035919050565b60006020828403121562003ac2578081fd5b5051919050565b6000806040838503121562003adc578182fd5b8235915062003aee6020840162003877565b90509250929050565b60008060008060008060c0878903121562003b10578182fd5b8635955060208701356005811062003b26578283fd5b95989597505050506040840135936060810135936080820135935060a0909101359150565b6000806000806000806000806000610140808b8d03121562003b6b578788fd5b8a35995060208b013567ffffffffffffffff8082111562003b8a57898afd5b62003b988e838f016200388f565b9a5060408d0135995060608d013591508082111562003bb5578586fd5b62003bc38e838f016200388f565b985060808d0135975060a08d0135965060c08d0135955060e08d013594508d61011f8e011262003bf1578384fd5b604051915060408201828110828211171562003c0957fe5b60405250806101008d01838e018f101562003c22578485fd5b8493505b600284101562003c485780358252600193909301926020918201910162003c26565b505080925050509295985092959850929598565b60008060006060848603121562003c71578081fd5b833592506020840135915062003c8a6040850162003877565b90509250925092565b6001600160a01b03169052565b6000815180845260208085019450808401835b8381101562003cda5781516001600160a01b03168752958201959082019060010162003cb3565b509495945050505050565b6000815180845260208085019450808401835b8381101562003cda5781518752958201959082019060010162003cf8565b15159052565b6005811062003d2757fe5b9052565b6000815180845262003d4581602086016020860162004275565b601f01601f19169290920160200192915050565b600061014062003d6b84845162003d1c565b602083015181602086015262003d848286018262003ce5565b9150506040830151848203604086015262003da0828262003ce5565b915050606083015160608501526080830151608085015260a083015160a085015260c083015184820360c086015262003dda828262003d2b565b91505060e083015184820360e086015262003df6828262003d2b565b6101008581015190870152610120948501519490950193909352509192915050565b6001600160a01b0391909116815260200190565b6001600160a01b039384168152919092166020820152604081019190915260600190565b6001600160a01b03929092168252602082015260400190565b60006020825262000de3602083018462003ce5565b901515815260200190565b600061010062003e9a838c62003d1c565b89602084015288604084015287606084015280608084015262003ec08184018862003d2b565b905082810360a084015262003ed6818762003d2b565b60c0840195909552505060e001529695505050505050565b60006020825262000de3602083018462003d2b565b60006060825262003f18606083018662003d2b565b828103602084015262003f2c818662003d2b565b91505060018060a01b0383166040830152949350505050565b6020808252600c908201526b6576656e742065786973747360a01b604082015260600190565b6020808252601190820152701b585c9ad95d081d5b9c995cdbdb1d9959607a1b604082015260600190565b60006020825262003fac60208301845162003c93565b602083015161014080604085015262003fca61016085018362003ca0565b9150604085015162003fe0606086018262003c93565b5060608501516080850152608085015160a085015260a085015160c085015260c085015160e085015260e0850151610100818187015280870151915050610120601f19868503018187015262004037848362003ce5565b9350808701519150506200404e8286018262003d16565b5090949350505050565b60006020825262000de3602083018462003d59565b60006040825262004082604083018562003d59565b90508260208301529392505050565b90815260200190565b600085825260018060a01b0385166020830152836040830152608060608301526200308d608083018462003d2b565b600088825260018060a01b038816602083015286604083015260e06060830152620040f860e083018762003d2b565b60808301959095525060a081019290925260c090910152949350505050565b600060608201858352602060608185015281865180845260808601915060808382028701019350828801855b828110156200417557607f198887030184526200416286835162003d2b565b9550928401929084019060010162004143565b505050505082810360408401526200308d818562003ce5565b60006101008a8352806020840152620041aa8184018b62003ce5565b90508281036040840152620041c0818a62003ce5565b905087606084015286608084015282810360a0840152620041e2818762003d2b565b905082810360c0840152620041f8818662003d2b565b9150508260e08301529998505050505050505050565b92835260208301919091526001600160a01b0316604082015260600190565b60405181810167ffffffffffffffff811182821017156200424a57fe5b604052919050565b600067ffffffffffffffff8211156200426757fe5b50601f01601f191660200190565b60005b838110156200429257818101518382015260200162004278565b8381111562002bfa5750506000910152565b8015158114620042b357600080fd5b5056fe60806040523480156200001157600080fd5b50604051620011f3380380620011f3833981810160405260608110156200003757600080fd5b81019080805160405193929190846401000000008211156200005857600080fd5b9083019060208201858111156200006e57600080fd5b82516401000000008111828201881017156200008957600080fd5b82525081516020918201929091019080838360005b83811015620000b85781810151838201526020016200009e565b50505050905090810190601f168015620000e65780820380516001836020036101000a031916815260200191505b50604052602001805160405193929190846401000000008211156200010a57600080fd5b9083019060208201858111156200012057600080fd5b82516401000000008111828201881017156200013b57600080fd5b82525081516020918201929091019080838360005b838110156200016a57818101518382015260200162000150565b50505050905090810190601f168015620001985780820380516001836020036101000a031916815260200191505b5060405260209081015185519093508592508491620001bd9160039185019062000219565b508051620001d390600490602084019062000219565b5050600580546001600160a01b039390931661010090810233909102610100600160a81b031960ff199095166012178516179093169290921790915550620002c5915050565b828054600181600116156101000203166002900490600052602060002090601f0160209004810192826200025157600085556200029c565b82601f106200026c57805160ff19168380011785556200029c565b828001600101855582156200029c579182015b828111156200029c5782518255916020019190600101906200027f565b50620002aa929150620002ae565b5090565b5b80821115620002aa5760008155600101620002af565b610f1e80620002d56000396000f3fe608060405234801561001057600080fd5b506004361061010b5760003560e01c806370a08231116100a2578063a457c2d711610071578063a457c2d714610343578063a9059cbb1461036f578063c024cd261461039b578063dd62ed3e146103c7578063f2fde38b146103f55761010b565b806370a08231146102cb57806371297784146102f1578063893d20e81461031757806395d89b411461033b5761010b565b806323b872dd116100de57806323b872dd1461021f578063313ce56714610255578063395093511461027357806342986e131461029f5761010b565b806306fdde0314610110578063095ea7b31461018d5780630fb66557146101cd57806318160ddd14610205575b600080fd5b61011861041b565b6040805160208082528351818301528351919283929083019185019080838360005b8381101561015257818101518382015260200161013a565b50505050905090810190601f16801561017f5780820380516001836020036101000a031916815260200191505b509250505060405180910390f35b6101b9600480360360408110156101a357600080fd5b506001600160a01b0381351690602001356104b1565b604080519115158252519081900360200190f35b610203600480360360608110156101e357600080fd5b506001600160a01b038135811691602081013590911690604001356104ce565b005b61020d6104fa565b60408051918252519081900360200190f35b6101b96004803603606081101561023557600080fd5b506001600160a01b03813581169160208101359091169060400135610500565b61025d610587565b6040805160ff9092168252519081900360200190f35b6101b96004803603604081101561028957600080fd5b506001600160a01b038135169060200135610590565b610203600480360360408110156102b557600080fd5b506001600160a01b0381351690602001356105de565b61020d600480360360208110156102e157600080fd5b50356001600160a01b0316610608565b61020d6004803603602081101561030757600080fd5b50356001600160a01b0316610623565b61031f61065f565b604080516001600160a01b039092168252519081900360200190f35b610118610673565b6101b96004803603604081101561035957600080fd5b506001600160a01b0381351690602001356106d4565b6101b96004803603604081101561038557600080fd5b506001600160a01b03813516906020013561073c565b610203600480360360408110156103b157600080fd5b506001600160a01b038135169060200135610750565b61020d600480360360408110156103dd57600080fd5b506001600160a01b0381358116916020013516610776565b6101b96004803603602081101561040b57600080fd5b50356001600160a01b03166107a1565b60038054604080516020601f60026000196101006001881615020190951694909404938401819004810282018101909252828152606093909290918301828280156104a75780601f1061047c576101008083540402835291602001916104a7565b820191906000526020600020905b81548152906001019060200180831161048a57829003601f168201915b5050505050905090565b60006104c56104be610818565b848461081c565b50600192915050565b60055461010090046001600160a01b031633146104ea57600080fd5b6104f5838383610908565b505050565b60025490565b600061050d848484610908565b61057d84610519610818565b61057885604051806060016040528060288152602001610e32602891396001600160a01b038a16600090815260016020526040812090610557610818565b6001600160a01b031681526020810191909152604001600020549190610a63565b61081c565b5060019392505050565b60055460ff1690565b60006104c561059d610818565b8461057885600160006105ae610818565b6001600160a01b03908116825260208083019390935260409182016000908120918c168152925290205490610afa565b60055461010090046001600160a01b031633146105fa57600080fd5b6106048282610b5b565b5050565b6001600160a01b031660009081526020819052604090205490565b60055460009061010090046001600160a01b0316331461064257600080fd5b600061064d83610608565b90506106598382610b5b565b92915050565b60055461010090046001600160a01b031690565b60048054604080516020601f60026000196101006001881615020190951694909404938401819004810282018101909252828152606093909290918301828280156104a75780601f1061047c576101008083540402835291602001916104a7565b60006104c56106e1610818565b8461057885604051806060016040528060258152602001610ec4602591396001600061070b610818565b6001600160a01b03908116825260208083019390935260409182016000908120918d16815292529020549190610a63565b60006104c5610749610818565b8484610908565b60055461010090046001600160a01b0316331461076c57600080fd5b6106048282610c57565b6001600160a01b03918216600090815260016020908152604080832093909416825291909152205490565b60055460009061010090046001600160a01b031633146107c057600080fd5b6001600160a01b0382166107d357600080fd5b6005546107ee9061010090046001600160a01b031683610604565b50600580546001600160a01b03831661010002610100600160a81b03199091161790556001919050565b3390565b6001600160a01b0383166108615760405162461bcd60e51b8152600401808060200182810382526024815260200180610ea06024913960400191505060405180910390fd5b6001600160a01b0382166108a65760405162461bcd60e51b8152600401808060200182810382526022815260200180610dea6022913960400191505060405180910390fd5b6001600160a01b03808416600081815260016020908152604080832094871680845294825291829020859055815185815291517f8c5be1e5ebec7d5bd14f71427d1e84f3dd0314c0f7b2291e5b200ac8c7c3b9259281900390910190a3505050565b6001600160a01b03831661094d5760405162461bcd60e51b8152600401808060200182810382526025815260200180610e7b6025913960400191505060405180910390fd5b6001600160a01b0382166109925760405162461bcd60e51b8152600401808060200182810382526023815260200180610da56023913960400191505060405180910390fd5b61099d8383836104f5565b6109da81604051806060016040528060268152602001610e0c602691396001600160a01b0386166000908152602081905260409020549190610a63565b6001600160a01b038085166000908152602081905260408082209390935590841681522054610a099082610afa565b6001600160a01b038084166000818152602081815260409182902094909455805185815290519193928716927fddf252ad1be2c89b69c2b068fc378daa952ba7f163c4a11628f55a4df523b3ef92918290030190a3505050565b60008184841115610af25760405162461bcd60e51b81526004018080602001828103825283818151815260200191508051906020019080838360005b83811015610ab7578181015183820152602001610a9f565b50505050905090810190601f168015610ae45780820380516001836020036101000a031916815260200191505b509250505060405180910390fd5b505050900390565b600082820183811015610b54576040805162461bcd60e51b815260206004820152601b60248201527f536166654d6174683a206164646974696f6e206f766572666c6f770000000000604482015290519081900360640190fd5b9392505050565b6001600160a01b038216610ba05760405162461bcd60e51b8152600401808060200182810382526021815260200180610e5a6021913960400191505060405180910390fd5b610bac826000836104f5565b610be981604051806060016040528060228152602001610dc8602291396001600160a01b0385166000908152602081905260409020549190610a63565b6001600160a01b038316600090815260208190526040902055600254610c0f9082610d47565b6002556040805182815290516000916001600160a01b038516917fddf252ad1be2c89b69c2b068fc378daa952ba7f163c4a11628f55a4df523b3ef9181900360200190a35050565b6001600160a01b038216610cb2576040805162461bcd60e51b815260206004820152601f60248201527f45524332303a206d696e7420746f20746865207a65726f206164647265737300604482015290519081900360640190fd5b610cbe600083836104f5565b600254610ccb9082610afa565b6002556001600160a01b038216600090815260208190526040902054610cf19082610afa565b6001600160a01b0383166000818152602081815260408083209490945583518581529351929391927fddf252ad1be2c89b69c2b068fc378daa952ba7f163c4a11628f55a4df523b3ef9281900390910190a35050565b600082821115610d9e576040805162461bcd60e51b815260206004820152601e60248201527f536166654d6174683a207375627472616374696f6e206f766572666c6f770000604482015290519081900360640190fd5b5090039056fe45524332303a207472616e7366657220746f20746865207a65726f206164647265737345524332303a206275726e20616d6f756e7420657863656564732062616c616e636545524332303a20617070726f766520746f20746865207a65726f206164647265737345524332303a207472616e7366657220616d6f756e7420657863656564732062616c616e636545524332303a207472616e7366657220616d6f756e74206578636565647320616c6c6f77616e636545524332303a206275726e2066726f6d20746865207a65726f206164647265737345524332303a207472616e736665722066726f6d20746865207a65726f206164647265737345524332303a20617070726f76652066726f6d20746865207a65726f206164647265737345524332303a2064656372656173656420616c6c6f77616e63652062656c6f77207a65726fa2646970667358221220c881513fca5a75d47e02fc1c04920461b43ce001b23b37bd2a0244cb5b4737ce64736f6c63430007060033a26469706673582212201f07b57e239e054b8a136a2f5ac97c9f052dc4f23796b9587d2744e24925e6de64736f6c63430007060033",
  "devdoc": {
    "kind": "dev",
    "methods": {
      "transferOwnership(address)": {
        "details": "Allows the current owner to transfer control of the contract to a newOwner.",
        "params": {
          "_newOwner": "The address to transfer ownership to."
        }
      }
    },
    "version": 1
  },
  "userdoc": {
    "kind": "user",
    "methods": {},
    "version": 1
  },
  "storageLayout": {
    "storage": [
      {
        "astId": 6467,
        "contract": "contracts/turbo/NBAMarketFactory.sol:NBAMarketFactory",
        "label": "owner",
        "offset": 0,
        "slot": "0",
        "type": "t_address"
      },
      {
        "astId": 11748,
        "contract": "contracts/turbo/NBAMarketFactory.sol:NBAMarketFactory",
        "label": "collateral",
        "offset": 0,
        "slot": "1",
        "type": "t_contract(IERC20Full)6299"
      },
      {
        "astId": 11750,
        "contract": "contracts/turbo/NBAMarketFactory.sol:NBAMarketFactory",
        "label": "feePot",
        "offset": 0,
        "slot": "2",
        "type": "t_contract(FeePot)14596"
      },
      {
        "astId": 11752,
        "contract": "contracts/turbo/NBAMarketFactory.sol:NBAMarketFactory",
        "label": "stakerFee",
        "offset": 0,
        "slot": "3",
        "type": "t_uint256"
      },
      {
        "astId": 11754,
        "contract": "contracts/turbo/NBAMarketFactory.sol:NBAMarketFactory",
        "label": "settlementFee",
        "offset": 0,
        "slot": "4",
        "type": "t_uint256"
      },
      {
        "astId": 11756,
        "contract": "contracts/turbo/NBAMarketFactory.sol:NBAMarketFactory",
        "label": "protocolFee",
        "offset": 0,
        "slot": "5",
        "type": "t_uint256"
      },
      {
        "astId": 11758,
        "contract": "contracts/turbo/NBAMarketFactory.sol:NBAMarketFactory",
        "label": "protocol",
        "offset": 0,
        "slot": "6",
        "type": "t_address"
      },
      {
        "astId": 11761,
        "contract": "contracts/turbo/NBAMarketFactory.sol:NBAMarketFactory",
        "label": "accumulatedProtocolFee",
        "offset": 0,
        "slot": "7",
        "type": "t_uint256"
      },
      {
        "astId": 11765,
        "contract": "contracts/turbo/NBAMarketFactory.sol:NBAMarketFactory",
        "label": "accumulatedSettlementFees",
        "offset": 0,
        "slot": "8",
        "type": "t_mapping(t_address,t_uint256)"
      },
      {
        "astId": 11767,
        "contract": "contracts/turbo/NBAMarketFactory.sol:NBAMarketFactory",
        "label": "shareFactor",
        "offset": 0,
        "slot": "9",
        "type": "t_uint256"
      },
      {
        "astId": 11793,
        "contract": "contracts/turbo/NBAMarketFactory.sol:NBAMarketFactory",
        "label": "markets",
        "offset": 0,
        "slot": "10",
        "type": "t_array(t_struct(Market)11790_storage)dyn_storage"
      },
      {
        "astId": 7416,
        "contract": "contracts/turbo/NBAMarketFactory.sol:NBAMarketFactory",
        "label": "sportsEvents",
        "offset": 0,
        "slot": "11",
        "type": "t_mapping(t_uint256,t_struct(SportsEvent)7412_storage)"
      },
      {
        "astId": 7419,
        "contract": "contracts/turbo/NBAMarketFactory.sol:NBAMarketFactory",
        "label": "listOfSportsEvents",
        "offset": 0,
        "slot": "12",
        "type": "t_array(t_uint256)dyn_storage"
      },
      {
        "astId": 5863,
        "contract": "contracts/turbo/NBAMarketFactory.sol:NBAMarketFactory",
        "label": "headToHeadMarketType",
        "offset": 0,
        "slot": "13",
        "type": "t_uint256"
      },
      {
        "astId": 5865,
        "contract": "contracts/turbo/NBAMarketFactory.sol:NBAMarketFactory",
        "label": "noContestName",
        "offset": 0,
        "slot": "14",
        "type": "t_string_storage"
      },
      {
        "astId": 6161,
        "contract": "contracts/turbo/NBAMarketFactory.sol:NBAMarketFactory",
        "label": "spreadMarketType",
        "offset": 0,
        "slot": "15",
        "type": "t_uint256"
      },
      {
        "astId": 6163,
        "contract": "contracts/turbo/NBAMarketFactory.sol:NBAMarketFactory",
        "label": "noContestName",
        "offset": 0,
        "slot": "16",
        "type": "t_string_storage"
      },
      {
        "astId": 5985,
        "contract": "contracts/turbo/NBAMarketFactory.sol:NBAMarketFactory",
        "label": "overUnderMarketType",
        "offset": 0,
        "slot": "17",
        "type": "t_uint256"
      },
      {
        "astId": 5987,
        "contract": "contracts/turbo/NBAMarketFactory.sol:NBAMarketFactory",
        "label": "noContestName",
        "offset": 0,
        "slot": "18",
        "type": "t_string_storage"
      },
      {
        "astId": 6421,
        "contract": "contracts/turbo/NBAMarketFactory.sol:NBAMarketFactory",
        "label": "linkNode",
        "offset": 0,
        "slot": "19",
        "type": "t_address"
      },
      {
        "astId": 7978,
        "contract": "contracts/turbo/NBAMarketFactory.sol:NBAMarketFactory",
        "label": "version",
        "offset": 0,
        "slot": "20",
        "type": "t_string_storage"
      }
    ],
    "types": {
      "t_address": {
        "encoding": "inplace",
        "label": "address",
        "numberOfBytes": "20"
      },
      "t_array(t_contract(OwnedERC20)21206)dyn_storage": {
        "base": "t_contract(OwnedERC20)21206",
        "encoding": "dynamic_array",
        "label": "contract OwnedERC20[]",
        "numberOfBytes": "32"
      },
      "t_array(t_int256)dyn_storage": {
        "base": "t_int256",
        "encoding": "dynamic_array",
        "label": "int256[]",
        "numberOfBytes": "32"
      },
      "t_array(t_struct(Market)11790_storage)dyn_storage": {
        "base": "t_struct(Market)11790_storage",
        "encoding": "dynamic_array",
        "label": "struct AbstractMarketFactoryV3.Market[]",
        "numberOfBytes": "32"
      },
      "t_array(t_uint256)dyn_storage": {
        "base": "t_uint256",
        "encoding": "dynamic_array",
        "label": "uint256[]",
        "numberOfBytes": "32"
      },
      "t_bool": {
        "encoding": "inplace",
        "label": "bool",
        "numberOfBytes": "1"
      },
      "t_contract(FeePot)14596": {
        "encoding": "inplace",
        "label": "contract FeePot",
        "numberOfBytes": "20"
      },
      "t_contract(IERC20Full)6299": {
        "encoding": "inplace",
        "label": "contract IERC20Full",
        "numberOfBytes": "20"
      },
      "t_contract(OwnedERC20)21206": {
        "encoding": "inplace",
        "label": "contract OwnedERC20",
        "numberOfBytes": "20"
      },
      "t_enum(SportsEventStatus)7389": {
        "encoding": "inplace",
        "label": "enum Sport.SportsEventStatus",
        "numberOfBytes": "1"
      },
      "t_int256": {
        "encoding": "inplace",
        "label": "int256",
        "numberOfBytes": "32"
      },
      "t_mapping(t_address,t_uint256)": {
        "encoding": "mapping",
        "key": "t_address",
        "label": "mapping(address => uint256)",
        "numberOfBytes": "32",
        "value": "t_uint256"
      },
      "t_mapping(t_uint256,t_struct(SportsEvent)7412_storage)": {
        "encoding": "mapping",
        "key": "t_uint256",
        "label": "mapping(uint256 => struct Sport.SportsEvent)",
        "numberOfBytes": "32",
        "value": "t_struct(SportsEvent)7412_storage"
      },
      "t_string_storage": {
        "encoding": "bytes",
        "label": "string",
        "numberOfBytes": "32"
      },
      "t_struct(Market)11790_storage": {
        "encoding": "inplace",
        "label": "struct AbstractMarketFactoryV3.Market",
        "members": [
          {
            "astId": 11769,
            "contract": "contracts/turbo/NBAMarketFactory.sol:NBAMarketFactory",
            "label": "settlementAddress",
            "offset": 0,
            "slot": "0",
            "type": "t_address"
          },
          {
            "astId": 11772,
            "contract": "contracts/turbo/NBAMarketFactory.sol:NBAMarketFactory",
            "label": "shareTokens",
            "offset": 0,
            "slot": "1",
            "type": "t_array(t_contract(OwnedERC20)21206)dyn_storage"
          },
          {
            "astId": 11774,
            "contract": "contracts/turbo/NBAMarketFactory.sol:NBAMarketFactory",
            "label": "winner",
            "offset": 0,
            "slot": "2",
            "type": "t_contract(OwnedERC20)21206"
          },
          {
            "astId": 11776,
            "contract": "contracts/turbo/NBAMarketFactory.sol:NBAMarketFactory",
            "label": "winnerIndex",
            "offset": 0,
            "slot": "3",
            "type": "t_uint256"
          },
          {
            "astId": 11778,
            "contract": "contracts/turbo/NBAMarketFactory.sol:NBAMarketFactory",
            "label": "settlementFee",
            "offset": 0,
            "slot": "4",
            "type": "t_uint256"
          },
          {
            "astId": 11780,
            "contract": "contracts/turbo/NBAMarketFactory.sol:NBAMarketFactory",
            "label": "protocolFee",
            "offset": 0,
            "slot": "5",
            "type": "t_uint256"
          },
          {
            "astId": 11782,
            "contract": "contracts/turbo/NBAMarketFactory.sol:NBAMarketFactory",
            "label": "stakerFee",
            "offset": 0,
            "slot": "6",
            "type": "t_uint256"
          },
          {
            "astId": 11784,
            "contract": "contracts/turbo/NBAMarketFactory.sol:NBAMarketFactory",
            "label": "creationTimestamp",
            "offset": 0,
            "slot": "7",
            "type": "t_uint256"
          },
          {
            "astId": 11787,
            "contract": "contracts/turbo/NBAMarketFactory.sol:NBAMarketFactory",
            "label": "initialOdds",
            "offset": 0,
            "slot": "8",
            "type": "t_array(t_uint256)dyn_storage"
          },
          {
            "astId": 11789,
            "contract": "contracts/turbo/NBAMarketFactory.sol:NBAMarketFactory",
            "label": "active",
            "offset": 0,
            "slot": "9",
            "type": "t_bool"
          }
        ],
        "numberOfBytes": "320"
      },
      "t_struct(SportsEvent)7412_storage": {
        "encoding": "inplace",
        "label": "struct Sport.SportsEvent",
        "members": [
          {
            "astId": 7391,
            "contract": "contracts/turbo/NBAMarketFactory.sol:NBAMarketFactory",
            "label": "status",
            "offset": 0,
            "slot": "0",
            "type": "t_enum(SportsEventStatus)7389"
          },
          {
            "astId": 7394,
            "contract": "contracts/turbo/NBAMarketFactory.sol:NBAMarketFactory",
            "label": "markets",
            "offset": 0,
            "slot": "1",
            "type": "t_array(t_uint256)dyn_storage"
          },
          {
            "astId": 7397,
            "contract": "contracts/turbo/NBAMarketFactory.sol:NBAMarketFactory",
            "label": "lines",
            "offset": 0,
            "slot": "2",
            "type": "t_array(t_int256)dyn_storage"
          },
          {
            "astId": 7399,
            "contract": "contracts/turbo/NBAMarketFactory.sol:NBAMarketFactory",
            "label": "estimatedStartTime",
            "offset": 0,
            "slot": "3",
            "type": "t_uint256"
          },
          {
            "astId": 7401,
            "contract": "contracts/turbo/NBAMarketFactory.sol:NBAMarketFactory",
            "label": "homeTeamId",
            "offset": 0,
            "slot": "4",
            "type": "t_uint256"
          },
          {
            "astId": 7403,
            "contract": "contracts/turbo/NBAMarketFactory.sol:NBAMarketFactory",
            "label": "awayTeamId",
            "offset": 0,
            "slot": "5",
            "type": "t_uint256"
          },
          {
            "astId": 7405,
            "contract": "contracts/turbo/NBAMarketFactory.sol:NBAMarketFactory",
            "label": "homeTeamName",
            "offset": 0,
            "slot": "6",
            "type": "t_string_storage"
          },
          {
            "astId": 7407,
            "contract": "contracts/turbo/NBAMarketFactory.sol:NBAMarketFactory",
            "label": "awayTeamName",
            "offset": 0,
            "slot": "7",
            "type": "t_string_storage"
          },
          {
            "astId": 7409,
            "contract": "contracts/turbo/NBAMarketFactory.sol:NBAMarketFactory",
            "label": "homeScore",
            "offset": 0,
            "slot": "8",
            "type": "t_uint256"
          },
          {
            "astId": 7411,
            "contract": "contracts/turbo/NBAMarketFactory.sol:NBAMarketFactory",
            "label": "awayScore",
            "offset": 0,
            "slot": "9",
            "type": "t_uint256"
          }
        ],
        "numberOfBytes": "320"
      },
      "t_uint256": {
        "encoding": "inplace",
        "label": "uint256",
        "numberOfBytes": "32"
      }
    }
  }
}