{
  "address": "0x5b02Aaa5bdb6C5b838aEC528B96757a4F2580CA1",
  "abi": [
    {
      "inputs": [
        {
          "internalType": "contract BFactory",
          "name": "_bFactory",
          "type": "address"
        },
        {
          "internalType": "uint256",
          "name": "_fee",
          "type": "uint256"
        }
      ],
      "stateMutability": "nonpayable",
      "type": "constructor"
    },
    {
      "anonymous": false,
      "inputs": [
        {
          "indexed": true,
          "internalType": "address",
          "name": "marketFactory",
          "type": "address"
        },
        {
          "indexed": true,
          "internalType": "uint256",
          "name": "marketId",
          "type": "uint256"
        },
        {
          "indexed": true,
          "internalType": "address",
          "name": "user",
          "type": "address"
        },
        {
          "indexed": false,
          "internalType": "address",
          "name": "recipient",
          "type": "address"
        },
        {
          "indexed": false,
          "internalType": "int256",
          "name": "collateral",
          "type": "int256"
        },
        {
          "indexed": false,
          "internalType": "int256",
          "name": "lpTokens",
          "type": "int256"
        }
      ],
      "name": "LiquidityChanged",
      "type": "event"
    },
    {
      "anonymous": false,
      "inputs": [
        {
          "indexed": false,
          "internalType": "address",
          "name": "pool",
          "type": "address"
        },
        {
          "indexed": true,
          "internalType": "address",
          "name": "marketFactory",
          "type": "address"
        },
        {
          "indexed": true,
          "internalType": "uint256",
          "name": "marketId",
          "type": "uint256"
        },
        {
          "indexed": true,
          "internalType": "address",
          "name": "creator",
          "type": "address"
        },
        {
          "indexed": false,
          "internalType": "address",
          "name": "lpTokenRecipient",
          "type": "address"
        }
      ],
      "name": "PoolCreated",
      "type": "event"
    },
    {
      "anonymous": false,
      "inputs": [
        {
          "indexed": true,
          "internalType": "address",
          "name": "marketFactory",
          "type": "address"
        },
        {
          "indexed": true,
          "internalType": "uint256",
          "name": "marketId",
          "type": "uint256"
        },
        {
          "indexed": true,
          "internalType": "address",
          "name": "user",
          "type": "address"
        },
        {
          "indexed": false,
          "internalType": "uint256",
          "name": "outcome",
          "type": "uint256"
        },
        {
          "indexed": false,
          "internalType": "int256",
          "name": "collateral",
          "type": "int256"
        },
        {
          "indexed": false,
          "internalType": "int256",
          "name": "shares",
          "type": "int256"
        }
      ],
      "name": "SharesSwapped",
      "type": "event"
    },
    {
      "inputs": [],
      "name": "BONE",
      "outputs": [
        {
          "internalType": "uint256",
          "name": "",
          "type": "uint256"
        }
      ],
      "stateMutability": "view",
      "type": "function"
    },
    {
      "inputs": [],
      "name": "BPOW_PRECISION",
      "outputs": [
        {
          "internalType": "uint256",
          "name": "",
          "type": "uint256"
        }
      ],
      "stateMutability": "view",
      "type": "function"
    },
    {
      "inputs": [],
      "name": "EXIT_FEE",
      "outputs": [
        {
          "internalType": "uint256",
          "name": "",
          "type": "uint256"
        }
      ],
      "stateMutability": "view",
      "type": "function"
    },
    {
      "inputs": [],
      "name": "INIT_POOL_SUPPLY",
      "outputs": [
        {
          "internalType": "uint256",
          "name": "",
          "type": "uint256"
        }
      ],
      "stateMutability": "view",
      "type": "function"
    },
    {
      "inputs": [],
      "name": "MAX_BOUND_TOKENS",
      "outputs": [
        {
          "internalType": "uint256",
          "name": "",
          "type": "uint256"
        }
      ],
      "stateMutability": "view",
      "type": "function"
    },
    {
      "inputs": [],
      "name": "MAX_BPOW_BASE",
      "outputs": [
        {
          "internalType": "uint256",
          "name": "",
          "type": "uint256"
        }
      ],
      "stateMutability": "view",
      "type": "function"
    },
    {
      "inputs": [],
      "name": "MAX_FEE",
      "outputs": [
        {
          "internalType": "uint256",
          "name": "",
          "type": "uint256"
        }
      ],
      "stateMutability": "view",
      "type": "function"
    },
    {
      "inputs": [],
      "name": "MAX_IN_RATIO",
      "outputs": [
        {
          "internalType": "uint256",
          "name": "",
          "type": "uint256"
        }
      ],
      "stateMutability": "view",
      "type": "function"
    },
    {
      "inputs": [],
      "name": "MAX_OUT_RATIO",
      "outputs": [
        {
          "internalType": "uint256",
          "name": "",
          "type": "uint256"
        }
      ],
      "stateMutability": "view",
      "type": "function"
    },
    {
      "inputs": [],
      "name": "MAX_TOTAL_WEIGHT",
      "outputs": [
        {
          "internalType": "uint256",
          "name": "",
          "type": "uint256"
        }
      ],
      "stateMutability": "view",
      "type": "function"
    },
    {
      "inputs": [],
      "name": "MAX_WEIGHT",
      "outputs": [
        {
          "internalType": "uint256",
          "name": "",
          "type": "uint256"
        }
      ],
      "stateMutability": "view",
      "type": "function"
    },
    {
      "inputs": [],
      "name": "MIN_BALANCE",
      "outputs": [
        {
          "internalType": "uint256",
          "name": "",
          "type": "uint256"
        }
      ],
      "stateMutability": "view",
      "type": "function"
    },
    {
      "inputs": [],
      "name": "MIN_BOUND_TOKENS",
      "outputs": [
        {
          "internalType": "uint256",
          "name": "",
          "type": "uint256"
        }
      ],
      "stateMutability": "view",
      "type": "function"
    },
    {
      "inputs": [],
      "name": "MIN_BPOW_BASE",
      "outputs": [
        {
          "internalType": "uint256",
          "name": "",
          "type": "uint256"
        }
      ],
      "stateMutability": "view",
      "type": "function"
    },
    {
      "inputs": [],
      "name": "MIN_FEE",
      "outputs": [
        {
          "internalType": "uint256",
          "name": "",
          "type": "uint256"
        }
      ],
      "stateMutability": "view",
      "type": "function"
    },
    {
      "inputs": [],
      "name": "MIN_WEIGHT",
      "outputs": [
        {
          "internalType": "uint256",
          "name": "",
          "type": "uint256"
        }
      ],
      "stateMutability": "view",
      "type": "function"
    },
    {
      "inputs": [
        {
          "internalType": "contract AbstractMarketFactory",
          "name": "_marketFactory",
          "type": "address"
        },
        {
          "internalType": "uint256",
          "name": "_marketId",
          "type": "uint256"
        },
        {
          "internalType": "uint256",
          "name": "_collateralIn",
          "type": "uint256"
        },
        {
          "internalType": "uint256",
          "name": "_minLPTokensOut",
          "type": "uint256"
        },
        {
          "internalType": "address",
          "name": "_lpTokenRecipient",
          "type": "address"
        }
      ],
      "name": "addLiquidity",
      "outputs": [
        {
          "internalType": "uint256",
          "name": "",
          "type": "uint256"
        }
      ],
      "stateMutability": "nonpayable",
      "type": "function"
    },
    {
      "inputs": [],
      "name": "bFactory",
      "outputs": [
        {
          "internalType": "contract BFactory",
          "name": "",
          "type": "address"
        }
      ],
      "stateMutability": "view",
      "type": "function"
    },
    {
      "inputs": [
        {
          "internalType": "contract AbstractMarketFactory",
          "name": "_marketFactory",
          "type": "address"
        },
        {
          "internalType": "uint256",
          "name": "_marketId",
          "type": "uint256"
        },
        {
          "internalType": "uint256",
          "name": "_outcome",
          "type": "uint256"
        },
        {
          "internalType": "uint256",
          "name": "_collateralIn",
          "type": "uint256"
        },
        {
          "internalType": "uint256",
          "name": "_minTokensOut",
          "type": "uint256"
        }
      ],
      "name": "buy",
      "outputs": [
        {
          "internalType": "uint256",
          "name": "",
          "type": "uint256"
        }
      ],
      "stateMutability": "nonpayable",
      "type": "function"
    },
    {
      "inputs": [
        {
          "internalType": "contract AbstractMarketFactory",
          "name": "_marketFactory",
          "type": "address"
        },
        {
          "internalType": "uint256",
          "name": "_marketId",
          "type": "uint256"
        },
        {
          "internalType": "uint256",
          "name": "_initialLiquidity",
          "type": "uint256"
        },
        {
          "internalType": "uint256[]",
          "name": "_weights",
          "type": "uint256[]"
        },
        {
          "internalType": "address",
          "name": "_lpTokenRecipient",
          "type": "address"
        }
      ],
      "name": "createPool",
      "outputs": [
        {
          "internalType": "uint256",
          "name": "",
          "type": "uint256"
        }
      ],
      "stateMutability": "nonpayable",
      "type": "function"
    },
    {
      "inputs": [],
      "name": "getColor",
      "outputs": [
        {
          "internalType": "bytes32",
          "name": "",
          "type": "bytes32"
        }
      ],
      "stateMutability": "pure",
      "type": "function"
    },
    {
      "inputs": [
        {
          "internalType": "contract AbstractMarketFactory",
          "name": "_marketFactory",
          "type": "address"
        },
        {
          "internalType": "uint256",
          "name": "_marketId",
          "type": "uint256"
        }
      ],
      "name": "getPool",
      "outputs": [
        {
          "internalType": "contract BPool",
          "name": "",
          "type": "address"
        }
      ],
      "stateMutability": "view",
      "type": "function"
    },
    {
      "inputs": [
        {
          "internalType": "contract AbstractMarketFactory",
          "name": "_marketFactory",
          "type": "address"
        },
        {
          "internalType": "uint256",
          "name": "_marketId",
          "type": "uint256"
        }
      ],
      "name": "getPoolBalances",
      "outputs": [
        {
          "internalType": "uint256[]",
          "name": "",
          "type": "uint256[]"
        }
      ],
      "stateMutability": "view",
      "type": "function"
    },
    {
      "inputs": [
        {
          "internalType": "contract AbstractMarketFactory",
          "name": "_marketFactory",
          "type": "address"
        },
        {
          "internalType": "uint256",
          "name": "_marketId",
          "type": "uint256"
        },
        {
          "internalType": "address",
          "name": "whom",
          "type": "address"
        }
      ],
      "name": "getPoolTokenBalance",
      "outputs": [
        {
          "internalType": "uint256",
          "name": "",
          "type": "uint256"
        }
      ],
      "stateMutability": "view",
      "type": "function"
    },
    {
      "inputs": [
        {
          "internalType": "contract AbstractMarketFactory",
          "name": "_marketFactory",
          "type": "address"
        },
        {
          "internalType": "uint256",
          "name": "_marketId",
          "type": "uint256"
        }
      ],
      "name": "getPoolWeights",
      "outputs": [
        {
          "internalType": "uint256[]",
          "name": "",
          "type": "uint256[]"
        }
      ],
      "stateMutability": "view",
      "type": "function"
    },
    {
      "inputs": [
        {
          "internalType": "contract AbstractMarketFactory",
          "name": "_marketFactory",
          "type": "address"
        },
        {
          "internalType": "uint256",
          "name": "_marketId",
          "type": "uint256"
        }
      ],
      "name": "getSwapFee",
      "outputs": [
        {
          "internalType": "uint256",
          "name": "",
          "type": "uint256"
        }
      ],
      "stateMutability": "view",
      "type": "function"
    },
    {
      "inputs": [
        {
          "internalType": "address",
          "name": "",
          "type": "address"
        },
        {
          "internalType": "uint256",
          "name": "",
          "type": "uint256"
        }
      ],
      "name": "pools",
      "outputs": [
        {
          "internalType": "contract BPool",
          "name": "",
          "type": "address"
        }
      ],
      "stateMutability": "view",
      "type": "function"
    },
    {
      "inputs": [
        {
          "internalType": "contract AbstractMarketFactory",
          "name": "_marketFactory",
          "type": "address"
        },
        {
          "internalType": "uint256",
          "name": "_marketId",
          "type": "uint256"
        },
        {
          "internalType": "uint256",
          "name": "_lpTokensIn",
          "type": "uint256"
        },
        {
          "internalType": "uint256",
          "name": "_minCollateralOut",
          "type": "uint256"
        },
        {
          "internalType": "address",
          "name": "_collateralRecipient",
          "type": "address"
        }
      ],
      "name": "removeLiquidity",
      "outputs": [
        {
          "internalType": "uint256",
          "name": "_collateralOut",
          "type": "uint256"
        },
        {
          "internalType": "uint256[]",
          "name": "_balances",
          "type": "uint256[]"
        }
      ],
      "stateMutability": "nonpayable",
      "type": "function"
    },
    {
      "inputs": [
        {
          "internalType": "contract AbstractMarketFactory",
          "name": "_marketFactory",
          "type": "address"
        },
        {
          "internalType": "uint256",
          "name": "_marketId",
          "type": "uint256"
        },
        {
          "internalType": "uint256",
          "name": "_outcome",
          "type": "uint256"
        },
        {
          "internalType": "uint256",
          "name": "_shareTokensIn",
          "type": "uint256"
        },
        {
          "internalType": "uint256",
          "name": "_setsOut",
          "type": "uint256"
        }
      ],
      "name": "sellForCollateral",
      "outputs": [
        {
          "internalType": "uint256",
          "name": "",
          "type": "uint256"
        }
      ],
      "stateMutability": "nonpayable",
      "type": "function"
    },
    {
      "inputs": [
        {
          "internalType": "contract AbstractMarketFactory",
          "name": "_marketFactory",
          "type": "address"
        },
        {
          "internalType": "uint256",
          "name": "_marketId",
          "type": "uint256"
        }
      ],
      "name": "tokenRatios",
      "outputs": [
        {
          "internalType": "uint256[]",
          "name": "",
          "type": "uint256[]"
        }
      ],
      "stateMutability": "view",
      "type": "function"
    }
  ],
  "transactionHash": "0x4125566af6daa96be50940f5a6cd278d0c56014915865b37f4684a64178493b9",
  "args": [
    "0x7757a7589bAC9D0B959B3721363Cf33665Ed2997",
    "15000000000000000"
  ],
  "solcInputHash": "9c26d0db042f253dfc1ecc6c3f3e0c96",
  "bytecode": "0x60806040523480156200001157600080fd5b50604051620036023803806200360283398101604081905262000034916200005e565b600080546001600160a01b0319166001600160a01b03939093169290921790915560025562000098565b6000806040838503121562000071578182fd5b82516001600160a01b038116811462000088578283fd5b6020939093015192949293505050565b61355a80620000a86000396000f3fe608060405234801561001057600080fd5b50600436106101da5760003560e01c8063a0147aa111610104578063c6580d12116100a2578063e4a28a5211610071578063e4a28a52146101df578063ec09302114610353578063fa0de3591461035b578063fd212cf61461036e576101da565b8063c6580d1214610305578063c7b4b6dd1461030d578063d055da711461032d578063d2364bf314610340576101da565b8063ba019dab116100de578063ba019dab146102ed578063bc063e1a146102f5578063bc694ea2146102fd578063c36596a61461021a576101da565b8063a0147aa1146102ca578063b0e0d136146102dd578063b7b800a4146102e5576101da565b80635b5b9ea21161017c5780638f38a5551161014b5780638f38a5551461029f5780639381cd2b146102b2578063992e2a92146102ba5780639a86139b146102c2576101da565b80635b5b9ea21461026957806372b60c301461027c57806376c7a3c71461028f578063867378c514610297576101da565b8063218b5382116101b8578063218b53821461021a5780633fec5cac1461022257806345fa67831461023557806359f842b214610248576101da565b806309a3bbe4146101df5780630a165940146101fd578063189d00ca14610212575b600080fd5b6101e7610381565b6040516101f491906132af565b60405180910390f35b61020561038e565b6040516101f491906131dc565b6101e761039d565b6101e76103b1565b6101e7610230366004613050565b6103bd565b6101e7610243366004612ffb565b610871565b61025b610256366004612ffb565b611088565b6040516101f492919061347c565b610205610277366004612d82565b6116a5565b6101e761028a366004613050565b6116d2565b6101e7611b5b565b6101e7611b6d565b6102056102ad366004612d82565b611b81565b6101e7611ba7565b6101e7611bb4565b6101e7611bc0565b6101e76102d8366004612ef1565b611bcd565b6101e7611c72565b6101e7611c77565b6101e7611c7c565b6101e7611c81565b6101e7611c91565b6101e7611c9d565b61032061031b366004612d82565b611ca2565b6040516101f4919061329c565b61032061033b366004612d82565b611eea565b61032061034e366004612d82565b6120a4565b6101e7612254565b6101e7610369366004612d82565b612264565b6101e761037c366004612f32565b6122fe565b6802b5e3af16b188000081565b6000546001600160a01b031681565b6402540be400670de0b6b3a76400005b0481565b670de0b6b3a764000081565b6001600160a01b0380861660009081526001602090815260408083208884529091528120549091168061040b5760405162461bcd60e51b81526004016104029061341a565b60405180910390fd5b60405163eb44fdd360e01b81526000906001600160a01b0389169063eb44fdd39061043a908a906004016132af565b60006040518083038186803b15801561045257600080fd5b505afa158015610466573d6000803e3d6000fd5b505050506040513d6000823e601f3d908101601f1916820160405261048e91908101906130af565b90506000816020015187815181106104a257fe5b60200260200101519050806001600160a01b03166323b872dd3330896040518463ffffffff1660e01b81526004016104dc9392919061320a565b602060405180830381600087803b1580156104f657600080fd5b505af115801561050a573d6000803e3d6000fd5b505050506040513d601f19601f8201168201806040525081019061052e9190612eca565b5060405163095ea7b360e01b81526001600160a01b0382169063095ea7b39061055f9086906000199060040161322e565b602060405180830381600087803b15801561057957600080fd5b505af115801561058d573d6000803e3d6000fd5b505050506040513d601f19601f820116820180604052508101906105b19190612eca565b508460005b83602001515181101561068857888114156105d057610680565b6000846020015182815181106105e257fe5b602002602001015190506000866001600160a01b0316637c5e9ea486600019858d6000196040518663ffffffff1660e01b8152600401610626959493929190613268565b6040805180830381600087803b15801561063f57600080fd5b505af1158015610653573d6000803e3d6000fd5b505050506040513d601f19601f82011682018060405250810190610677919061317f565b50939093019250505b6001016105b6565b506040516335a9cdad60e01b81526001600160a01b038b16906335a9cdad906106b9908c908a9033906004016134ab565b602060405180830381600087803b1580156106d357600080fd5b505af11580156106e7573d6000803e3d6000fd5b505050506040513d601f19601f8201168201806040525081019061070b9190613167565b5060405163a9059cbb60e01b81526001600160a01b0383169063a9059cbb9061073c903390858c039060040161322e565b602060405180830381600087803b15801561075657600080fd5b505af115801561076a573d6000803e3d6000fd5b505050506040513d601f19601f8201168201806040525081019061078e9190612eca565b5060405163239d36a960e11b81526000906001600160a01b038c169063473a6d52906107be908a906004016132af565b60206040518083038186803b1580156107d657600080fd5b505afa1580156107ea573d6000803e3d6000fd5b505050506040513d601f19601f8201168201806040525081019061080e9190613167565b9050336001600160a01b03168a8c6001600160a01b03167faca8a5cb15c73c995b7689a3fdd0e536ffc8d458bdf0b00bf4dbe55b973d15428c858760000360405161085b93929190613495565b60405180910390a49a9950505050505050505050565b6001600160a01b038086166000908152600160209081526040808320888452909152812054909116806108b65760405162461bcd60e51b81526004016104029061341a565b60405163eb44fdd360e01b81526000906001600160a01b0389169063eb44fdd3906108e5908a906004016132af565b60006040518083038186803b1580156108fd57600080fd5b505afa158015610911573d6000803e3d6000fd5b505050506040513d6000823e601f3d908101601f1916820160405261093991908101906130af565b90506000886001600160a01b031663d8dfeb456040518163ffffffff1660e01b815260040160206040518083038186803b15801561097657600080fd5b505afa15801561098a573d6000803e3d6000fd5b505050506040513d601f19601f820116820180604052508101906109ae9190613093565b6040516323b872dd60e01b81529091506001600160a01b038216906323b872dd906109e190339030908c9060040161320a565b602060405180830381600087803b1580156109fb57600080fd5b505af1158015610a0f573d6000803e3d6000fd5b505050506040513d601f19601f82011682018060405250810190610a339190612eca565b5060405163095ea7b360e01b81526001600160a01b0382169063095ea7b390610a64908c906000199060040161322e565b602060405180830381600087803b158015610a7e57600080fd5b505af1158015610a92573d6000803e3d6000fd5b505050506040513d601f19601f82011682018060405250810190610ab69190612eca565b50604051636643d6f560e11b81526000906001600160a01b038b169063cc87adea90610ae6908b906004016132af565b60206040518083038186803b158015610afe57600080fd5b505afa158015610b12573d6000803e3d6000fd5b505050506040513d601f19601f82011682018060405250810190610b369190613167565b60405163221fff8160e01b81529091506001600160a01b038b169063221fff8190610b69908c90859030906004016134ab565b600060405180830381600087803b158015610b8357600080fd5b505af1158015610b97573d6000803e3d6000fd5b50505050600060001990506000856001600160a01b03166318160ddd6040518163ffffffff1660e01b815260040160206040518083038186803b158015610bdd57600080fd5b505afa158015610bf1573d6000803e3d6000fd5b505050506040513d601f19601f82011682018060405250810190610c159190613167565b9050600085602001515167ffffffffffffffff81118015610c3557600080fd5b50604051908082528060200260200182016040528015610c5f578160200160208202803683370190505b50905060005b866020015151811015610d555784828281518110610c7f57fe5b602002602001018181525050600087602001518281518110610c9d57fe5b602002602001015190506000896001600160a01b031663f8b2cb4f836040518263ffffffff1660e01b8152600401610cd591906131dc565b60206040518083038186803b158015610ced57600080fd5b505afa158015610d01573d6000803e3d6000fd5b505050506040513d601f19601f82011682018060405250810190610d259190613167565b90506000610d3c610d368988612b21565b83612bea565b905086811015610d4a578096505b505050600101610c65565b506040516313da703560e21b81526001600160a01b03881690634f69c0d490610d84908690859060040161347c565b600060405180830381600087803b158015610d9e57600080fd5b505af1158015610db2573d6000803e3d6000fd5b50859450600093505050505b856020015151811015610f8457600086602001518281518110610ddd57fe5b602002602001015190506000816001600160a01b03166370a08231306040518263ffffffff1660e01b8152600401610e1591906131dc565b60206040518083038186803b158015610e2d57600080fd5b505afa158015610e41573d6000803e3d6000fd5b505050506040513d601f19601f82011682018060405250810190610e659190613167565b905080610e73575050610f7c565b6000896001600160a01b0316635db3427784856001600160a01b03166370a08231306040518263ffffffff1660e01b8152600401610eb191906131dc565b60206040518083038186803b158015610ec957600080fd5b505afa158015610edd573d6000803e3d6000fd5b505050506040513d601f19601f82011682018060405250810190610f019190613167565b60006040518463ffffffff1660e01b8152600401610f2193929190613247565b602060405180830381600087803b158015610f3b57600080fd5b505af1158015610f4f573d6000803e3d6000fd5b505050506040513d601f19601f82011682018060405250810190610f739190613167565b94909401935050505b600101610dbe565b5088811015610fa55760405162461bcd60e51b815260040161040290613347565b60405163a9059cbb60e01b81526001600160a01b0387169063a9059cbb90610fd3908b90859060040161322e565b602060405180830381600087803b158015610fed57600080fd5b505af1158015611001573d6000803e3d6000fd5b505050506040513d601f19601f820116820180604052508101906110259190612eca565b50336001600160a01b03168b8d6001600160a01b03167f5350d1a36c6961230b66338bb028ba0d9edc3aa8bdfa8aef0bb0b5db9af4289f8b8e6000038660405161107193929190613247565b60405180910390a49b9a5050505050505050505050565b6001600160a01b038086166000908152600160209081526040808320888452909152812054909160609116806110d05760405162461bcd60e51b81526004016104029061341a565b60405163eb44fdd360e01b81526000906001600160a01b038a169063eb44fdd3906110ff908b906004016132af565b60006040518083038186803b15801561111757600080fd5b505afa15801561112b573d6000803e3d6000fd5b505050506040513d6000823e601f3d908101601f1916820160405261115391908101906130af565b6040516323b872dd60e01b81529091506001600160a01b038316906323b872dd9061118690339030908c9060040161320a565b602060405180830381600087803b1580156111a057600080fd5b505af11580156111b4573d6000803e3d6000fd5b505050506040513d601f19601f820116820180604052508101906111d89190612eca565b50600081602001515167ffffffffffffffff811180156111f757600080fd5b50604051908082528060200260200182016040528015611221578160200160208202803683370190505b5090506000836001600160a01b031663ea40f3f78a846040518363ffffffff1660e01b815260040161125492919061347c565b60006040518083038186803b15801561126c57600080fd5b505afa158015611280573d6000803e3d6000fd5b505050506040513d6000823e601f3d908101601f191682016040526112a89190810190612e46565b60405163b02f0b7360e01b81529091506001600160a01b0385169063b02f0b73906112d9908c90869060040161347c565b600060405180830381600087803b1580156112f357600080fd5b505af1158015611307573d6000803e3d6000fd5b50600019925060009150505b84602001515181101561134d57600083828151811061132e57fe5b6020026020010151905082811015611344578092505b50600101611313565b508b6001600160a01b0316637641ab016040518163ffffffff1660e01b815260040160206040518083038186803b15801561138757600080fd5b505afa15801561139b573d6000803e3d6000fd5b505050506040513d601f19601f820116820180604052508101906113bf9190613167565b8c6001600160a01b0316637641ab016040518163ffffffff1660e01b815260040160206040518083038186803b1580156113f857600080fd5b505afa15801561140c573d6000803e3d6000fd5b505050506040513d601f19601f820116820180604052508101906114309190613167565b828161143857fe5b040290508b6001600160a01b03166335a9cdad8c838b6040518463ffffffff1660e01b815260040161146c939291906134ab565b602060405180830381600087803b15801561148657600080fd5b505af115801561149a573d6000803e3d6000fd5b505050506040513d601f19601f820116820180604052508101906114be9190613167565b96508887116114df5760405162461bcd60e51b815260040161040290613301565b83602001515167ffffffffffffffff811180156114fb57600080fd5b50604051908082528060200260200182016040528015611525578160200160208202803683370190505b50955060005b84602001515181101561164257600083828151811061154657fe5b6020026020010151905060008660200151838151811061156257fe5b6020026020010151905083820389848151811061157b57fe5b602002602001018181525050600089848151811061159557fe5b6020026020010151111561163857806001600160a01b031663a9059cbb338b86815181106115bf57fe5b60200260200101516040518363ffffffff1660e01b81526004016115e492919061322e565b602060405180830381600087803b1580156115fe57600080fd5b505af1158015611612573d6000803e3d6000fd5b505050506040513d601f19601f820116820180604052508101906116369190612eca565b505b505060010161152b565b50336001600160a01b03168b8d6001600160a01b03167f5350d1a36c6961230b66338bb028ba0d9edc3aa8bdfa8aef0bb0b5db9af4289f8b8b8f60000360405161168e93929190613247565b60405180910390a450505050509550959350505050565b6001600160a01b038083166000908152600160209081526040808320858452909152902054165b92915050565b6001600160a01b038086166000908152600160209081526040808320888452909152812054909116806117175760405162461bcd60e51b81526004016104029061341a565b60405163eb44fdd360e01b81526000906001600160a01b0389169063eb44fdd390611746908a906004016132af565b60006040518083038186803b15801561175e57600080fd5b505afa158015611772573d6000803e3d6000fd5b505050506040513d6000823e601f3d908101601f1916820160405261179a91908101906130af565b90506000886001600160a01b031663d8dfeb456040518163ffffffff1660e01b815260040160206040518083038186803b1580156117d757600080fd5b505afa1580156117eb573d6000803e3d6000fd5b505050506040513d601f19601f8201168201806040525081019061180f9190613093565b6040516323b872dd60e01b81529091506001600160a01b038216906323b872dd9061184290339030908b9060040161320a565b602060405180830381600087803b15801561185c57600080fd5b505af1158015611870573d6000803e3d6000fd5b505050506040513d601f19601f820116820180604052508101906118949190612eca565b50604051636643d6f560e11b81526000906001600160a01b038b169063cc87adea906118c4908a906004016132af565b60206040518083038186803b1580156118dc57600080fd5b505afa1580156118f0573d6000803e3d6000fd5b505050506040513d601f19601f820116820180604052508101906119149190613167565b60405163221fff8160e01b81529091506001600160a01b038b169063221fff8190611947908c90859030906004016134ab565b600060405180830381600087803b15801561196157600080fd5b505af1158015611975573d6000803e3d6000fd5b5050505060008360200151898151811061198b57fe5b60200260200101519050600082905060005b856020015151811015611a6e578a8114156119b757611a66565b6000866020015182815181106119c957fe5b602002602001015190506000886001600160a01b0316638201aa3f83888860006000196040518663ffffffff1660e01b8152600401611a0c959493929190613268565b6040805180830381600087803b158015611a2557600080fd5b505af1158015611a39573d6000803e3d6000fd5b505050506040513d601f19601f82011682018060405250810190611a5d919061317f565b50939093019250505b60010161199d565b5087811015611a8f5760405162461bcd60e51b815260040161040290613451565b60405163a9059cbb60e01b81526001600160a01b0383169063a9059cbb90611abd903390859060040161322e565b602060405180830381600087803b158015611ad757600080fd5b505af1158015611aeb573d6000803e3d6000fd5b505050506040513d601f19601f82011682018060405250810190611b0f9190612eca565b50336001600160a01b03168b8d6001600160a01b03167faca8a5cb15c73c995b7689a3fdd0e536ffc8d458bdf0b00bf4dbe55b973d15428d8d6000038660405161107193929190613495565b620f4240670de0b6b3a76400006103ad565b64e8d4a51000670de0b6b3a76400006103ad565b60016020908152600092835260408084209091529082529020546001600160a01b031681565b68056bc75e2d6310000081565b6704a03ce68d21555681565b6542524f4e5a4560d01b90565b6001600160a01b0380841660009081526001602090815260408083208684529091528082205490516370a0823160e01b81529192169081906370a0823190611c199086906004016131dc565b60206040518083038186803b158015611c3157600080fd5b505afa158015611c45573d6000803e3d6000fd5b505050506040513d601f19601f82011682018060405250810190611c699190613167565b95945050505050565b600881565b600281565b600181565b600a670de0b6b3a76400006103ad565b671bc16d674ec7ffff81565b600081565b6001600160a01b0380831660009081526001602090815260408083208584529091529020546060911680611d07576000805b50604051908082528060200260200182016040528015611cfe578160200160208202803683370190505b509150506116cc565b60405163eb44fdd360e01b81526000906001600160a01b0386169063eb44fdd390611d369087906004016132af565b60006040518083038186803b158015611d4e57600080fd5b505afa158015611d62573d6000803e3d6000fd5b505050506040513d6000823e601f3d908101601f19168201604052611d8a91908101906130af565b905060008160200151600081518110611d9f57fe5b60200260200101519050600082602001515167ffffffffffffffff81118015611dc757600080fd5b50604051908082528060200260200182016040528015611df1578160200160208202803683370190505b509050670de0b6b3a764000081600081518110611e0a57fe5b602090810291909101015260015b836020015151811015611edf576000856001600160a01b03166315e84af98587602001518581518110611e4757fe5b60200260200101516040518363ffffffff1660e01b8152600401611e6c9291906131f0565b60206040518083038186803b158015611e8457600080fd5b505afa158015611e98573d6000803e3d6000fd5b505050506040513d601f19601f82011682018060405250810190611ebc9190613167565b905080838381518110611ecb57fe5b602090810291909101015250600101611e18565b509695505050505050565b6001600160a01b0380831660009081526001602090815260408083208584529091529020546060911680611f2057600080611cd4565b6000816001600160a01b031663cc77828d6040518163ffffffff1660e01b815260040160006040518083038186803b158015611f5b57600080fd5b505afa158015611f6f573d6000803e3d6000fd5b505050506040513d6000823e601f3d908101601f19168201604052611f979190810190612dad565b90506000815167ffffffffffffffff81118015611fb357600080fd5b50604051908082528060200260200182016040528015611fdd578160200160208202803683370190505b50905060005b825181101561209a57836001600160a01b031663948d8ce684838151811061200757fe5b60200260200101516040518263ffffffff1660e01b815260040161202b91906131dc565b60206040518083038186803b15801561204357600080fd5b505afa158015612057573d6000803e3d6000fd5b505050506040513d601f19601f8201168201806040525081019061207b9190613167565b82828151811061208757fe5b6020908102919091010152600101611fe3565b5095945050505050565b6001600160a01b03808316600090815260016020908152604080832085845290915290205460609116806120da57600080611cd4565b6000816001600160a01b031663cc77828d6040518163ffffffff1660e01b815260040160006040518083038186803b15801561211557600080fd5b505afa158015612129573d6000803e3d6000fd5b505050506040513d6000823e601f3d908101601f191682016040526121519190810190612dad565b90506000815167ffffffffffffffff8111801561216d57600080fd5b50604051908082528060200260200182016040528015612197578160200160208202803683370190505b50905060005b825181101561209a57836001600160a01b031663f8b2cb4f8483815181106121c157fe5b60200260200101516040518263ffffffff1660e01b81526004016121e591906131dc565b60206040518083038186803b1580156121fd57600080fd5b505afa158015612211573d6000803e3d6000fd5b505050506040513d601f19601f820116820180604052508101906122359190613167565b82828151811061224157fe5b602090810291909101015260010161219d565b6002670de0b6b3a76400006103ad565b6001600160a01b0380831660009081526001602090815260408083208584528252808320548151631a995bed60e31b8152915193941692839263d4cadf689260048082019391829003018186803b1580156122be57600080fd5b505afa1580156122d2573d6000803e3d6000fd5b505050506040513d601f19601f820116820180604052508101906122f69190613167565b949350505050565b6001600160a01b038581166000908152600160209081526040808320888452909152812054909116156123435760405162461bcd60e51b81526004016104029061338f565b60405163eb44fdd360e01b81526000906001600160a01b0388169063eb44fdd3906123729089906004016132af565b60006040518083038186803b15801561238a57600080fd5b505afa15801561239e573d6000803e3d6000fd5b505050506040513d6000823e601f3d908101601f191682016040526123c691908101906130af565b90508060200151518451146123ed5760405162461bcd60e51b8152600401610402906132b8565b6000876001600160a01b031663d8dfeb456040518163ffffffff1660e01b815260040160206040518083038186803b15801561242857600080fd5b505afa15801561243c573d6000803e3d6000fd5b505050506040513d601f19601f820116820180604052508101906124609190613093565b905085816001600160a01b031663dd62ed3e33306040518363ffffffff1660e01b81526004016124919291906131f0565b60206040518083038186803b1580156124a957600080fd5b505afa1580156124bd573d6000803e3d6000fd5b505050506040513d601f19601f820116820180604052508101906124e19190613167565b10156124ff5760405162461bcd60e51b8152600401610402906133bd565b6040516323b872dd60e01b81526001600160a01b038216906323b872dd9061252f90339030908b9060040161320a565b602060405180830381600087803b15801561254957600080fd5b505af115801561255d573d6000803e3d6000fd5b505050506040513d601f19601f820116820180604052508101906125819190612eca565b5060405163095ea7b360e01b81526001600160a01b0382169063095ea7b3906125b2908b906000199060040161322e565b602060405180830381600087803b1580156125cc57600080fd5b505af11580156125e0573d6000803e3d6000fd5b505050506040513d601f19601f820116820180604052508101906126049190612eca565b50604051636643d6f560e11b81526000906001600160a01b038a169063cc87adea90612634908a906004016132af565b60206040518083038186803b15801561264c57600080fd5b505afa158015612660573d6000803e3d6000fd5b505050506040513d601f19601f820116820180604052508101906126849190613167565b60405163221fff8160e01b81529091506001600160a01b038a169063221fff81906126b7908b90859030906004016134ab565b600060405180830381600087803b1580156126d157600080fd5b505af11580156126e5573d6000803e3d6000fd5b5050505060008060009054906101000a90046001600160a01b03166001600160a01b031663d556c5dc6040518163ffffffff1660e01b8152600401602060405180830381600087803b15801561273a57600080fd5b505af115801561274e573d6000803e3d6000fd5b505050506040513d601f19601f820116820180604052508101906127729190613093565b905060005b8460200151518110156128a55760008560200151828151811061279657fe5b60200260200101519050806001600160a01b031663095ea7b3846000196040518363ffffffff1660e01b81526004016127d092919061322e565b602060405180830381600087803b1580156127ea57600080fd5b505af11580156127fe573d6000803e3d6000fd5b505050506040513d601f19601f820116820180604052508101906128229190612eca565b50826001600160a01b031663e4e1e53882868c868151811061284057fe5b60200260200101516040518463ffffffff1660e01b815260040161286693929190613247565b600060405180830381600087803b15801561288057600080fd5b505af1158015612894573d6000803e3d6000fd5b505060019093019250612777915050565b506002546040516334e1990760e01b81526001600160a01b038316916334e19907916128d491906004016132af565b600060405180830381600087803b1580156128ee57600080fd5b505af1158015612902573d6000803e3d6000fd5b50505050806001600160a01b0316634bb278f36040518163ffffffff1660e01b8152600401600060405180830381600087803b15801561294157600080fd5b505af1158015612955573d6000803e3d6000fd5b5050506001600160a01b03808c1660009081526001602090815260408083208e845290915280822080549386166001600160a01b031990941684179055516370a0823160e01b81529092506370a08231906129b49030906004016131dc565b60206040518083038186803b1580156129cc57600080fd5b505afa1580156129e0573d6000803e3d6000fd5b505050506040513d601f19601f82011682018060405250810190612a049190613167565b60405163a9059cbb60e01b81529091506001600160a01b0383169063a9059cbb90612a35908a90859060040161322e565b602060405180830381600087803b158015612a4f57600080fd5b505af1158015612a63573d6000803e3d6000fd5b505050506040513d601f19601f82011682018060405250810190612a879190612eca565b50336001600160a01b03168a8c6001600160a01b03167ffb27591822deac7913ea973cf845992f243e2ba5634ef8fbe0b6554aca37a428858b604051612ace9291906131f0565b60405180910390a4336001600160a01b03168a8c6001600160a01b03167f5350d1a36c6961230b66338bb028ba0d9edc3aa8bdfa8aef0bb0b5db9af4289f8a8d6000038660405161085b93929190613247565b6000828202831580612b3b575082848281612b3857fe5b04145b612b7f576040805162461bcd60e51b815260206004820152601060248201526f4552525f4d554c5f4f564552464c4f5760801b604482015290519081900360640190fd5b6706f05b59d3b20000810181811015612bd2576040805162461bcd60e51b815260206004820152601060248201526f4552525f4d554c5f4f564552464c4f5760801b604482015290519081900360640190fd5b6000670de0b6b3a7640000825b049695505050505050565b600081612c2d576040805162461bcd60e51b815260206004820152600c60248201526b4552525f4449565f5a45524f60a01b604482015290519081900360640190fd5b670de0b6b3a76400008302831580612c555750670de0b6b3a7640000848281612c5257fe5b04145b612c99576040805162461bcd60e51b815260206004820152601060248201526f11549497d1125597d25395115493905360821b604482015290519081900360640190fd5b60028304810181811015612ce7576040805162461bcd60e51b815260206004820152601060248201526f11549497d1125597d25395115493905360821b604482015290519081900360640190fd5b6000848281612bdf57fe5b8035612cfd8161350c565b919050565b8051612cfd8161350c565b600082601f830112612d1d578081fd5b81516020612d32612d2d836134ee565b6134ca565b8281528181019085830183850287018401881015612d4e578586fd5b855b85811015612d75578151612d638161350c565b84529284019290840190600101612d50565b5090979650505050505050565b60008060408385031215612d94578182fd5b8235612d9f8161350c565b946020939093013593505050565b60006020808385031215612dbf578182fd5b825167ffffffffffffffff811115612dd5578283fd5b8301601f81018513612de5578283fd5b8051612df3612d2d826134ee565b8181528381019083850185840285018601891015612e0f578687fd5b8694505b83851015612e3a578051612e268161350c565b835260019490940193918501918501612e13565b50979650505050505050565b60006020808385031215612e58578182fd5b825167ffffffffffffffff811115612e6e578283fd5b8301601f81018513612e7e578283fd5b8051612e8c612d2d826134ee565b8181528381019083850185840285018601891015612ea8578687fd5b8694505b83851015612e3a578051835260019490940193918501918501612eac565b600060208284031215612edb578081fd5b81518015158114612eea578182fd5b9392505050565b600080600060608486031215612f05578081fd5b8335612f108161350c565b9250602084013591506040840135612f278161350c565b809150509250925092565b600080600080600060a08688031215612f49578283fd5b8535612f548161350c565b9450602086810135945060408701359350606087013567ffffffffffffffff811115612f7e578283fd5b8701601f81018913612f8e578283fd5b8035612f9c612d2d826134ee565b81815283810190838501858402850186018d1015612fb8578687fd5b8694505b83851015612fda578035835260019490940193918501918501612fbc565b508096505050505050612fef60808701612cf2565b90509295509295909350565b600080600080600060a08688031215613012578283fd5b853561301d8161350c565b945060208601359350604086013592506060860135915060808601356130428161350c565b809150509295509295909350565b600080600080600060a08688031215613067578283fd5b85356130728161350c565b97602087013597506040870135966060810135965060800135945092505050565b6000602082840312156130a4578081fd5b8151612eea8161350c565b6000602082840312156130c0578081fd5b815167ffffffffffffffff808211156130d7578283fd5b9083019060e082860312156130ea578283fd5b6130f460e06134ca565b6130fd83612d02565b8152602083015182811115613110578485fd5b61311c87828601612d0d565b6020830152506040830151604082015261313860608401612d02565b60608201526080830151608082015260a083015160a082015260c083015160c082015280935050505092915050565b600060208284031215613178578081fd5b5051919050565b60008060408385031215613191578182fd5b505080516020909101519092909150565b6000815180845260208085019450808401835b838110156131d1578151875295820195908201906001016131b5565b509495945050505050565b6001600160a01b0391909116815260200190565b6001600160a01b0392831681529116602082015260400190565b6001600160a01b039384168152919092166020820152604081019190915260600190565b6001600160a01b03929092168252602082015260400190565b6001600160a01b039390931683526020830191909152604082015260600190565b6001600160a01b03958616815260208101949094529190931660408301526060820192909252608081019190915260a00190565b600060208252612eea60208301846131a2565b90815260200190565b60208082526029908201527f4d7573742068617665206f6e652077656967687420666f72206561636820736860408201526830b932903a37b5b2b760b91b606082015260800190565b60208082526026908201527f416d6f756e74206f6620636f6c6c61746572616c2072657475726e656420746f60408201526537903637bb9760d11b606082015260800190565b60208082526028908201527f576f756c64206e6f74206861766520726563656976656420656e6f756768204c6040820152675020746f6b656e7360c01b606082015260800190565b602080825260149082015273141bdbdb08185b1c9958591e4818dc99585d195960621b604082015260600190565b60208082526037908201527f696e73756666696369656e7420636f6c6c61746572616c20616c6c6f77616e6360408201527f6520666f7220696e697469616c206c6971756964697479000000000000000000606082015260800190565b60208082526018908201527f506f6f6c206e6565647320746f20626520637265617465640000000000000000604082015260600190565b60208082526011908201527014db1a5c1c1859d948195e18d959591959607a1b604082015260600190565b6000838252604060208301526122f660408301846131a2565b9283526020830191909152604082015260600190565b92835260208301919091526001600160a01b0316604082015260600190565b60405181810167ffffffffffffffff811182821017156134e657fe5b604052919050565b600067ffffffffffffffff82111561350257fe5b5060209081020190565b6001600160a01b038116811461352157600080fd5b5056fea2646970667358221220729b558d672be04a3697a46af8eb5cded7f60da841d7d441d5dd0a08b615b78b64736f6c63430007060033",
  "devdoc": {
    "kind": "dev",
    "methods": {},
    "version": 1
  },
  "userdoc": {
    "kind": "user",
    "methods": {},
    "version": 1
  },
  "storageLayout": {
    "storage": [
      {
        "astId": 6053,
        "contract": "contracts/turbo/AMMFactory.sol:AMMFactory",
        "label": "bFactory",
        "offset": 0,
        "slot": "0",
        "type": "t_contract(BFactory)1224"
      },
      {
        "astId": 6059,
        "contract": "contracts/turbo/AMMFactory.sol:AMMFactory",
        "label": "pools",
        "offset": 0,
        "slot": "1",
        "type": "t_mapping(t_address,t_mapping(t_uint256,t_contract(BPool)4560))"
      },
      {
        "astId": 6061,
        "contract": "contracts/turbo/AMMFactory.sol:AMMFactory",
        "label": "fee",
        "offset": 0,
        "slot": "2",
        "type": "t_uint256"
      }
    ],
    "types": {
      "t_address": {
        "encoding": "inplace",
        "label": "address",
        "numberOfBytes": "20"
      },
      "t_contract(BFactory)1224": {
        "encoding": "inplace",
        "label": "contract BFactory",
        "numberOfBytes": "20"
      },
      "t_contract(BPool)4560": {
        "encoding": "inplace",
        "label": "contract BPool",
        "numberOfBytes": "20"
      },
      "t_mapping(t_address,t_mapping(t_uint256,t_contract(BPool)4560))": {
        "encoding": "mapping",
        "key": "t_address",
        "label": "mapping(address => mapping(uint256 => contract BPool))",
        "numberOfBytes": "32",
        "value": "t_mapping(t_uint256,t_contract(BPool)4560)"
      },
      "t_mapping(t_uint256,t_contract(BPool)4560)": {
        "encoding": "mapping",
        "key": "t_uint256",
        "label": "mapping(uint256 => contract BPool)",
        "numberOfBytes": "32",
        "value": "t_contract(BPool)4560"
      },
      "t_uint256": {
        "encoding": "inplace",
        "label": "uint256",
        "numberOfBytes": "32"
      }
    }
  }
}