{
  "address": "0xA642cd6036F11b7407e33b3fFa1376599D43318F",
  "abi": [
    {
      "inputs": [
        {
          "internalType": "address",
          "name": "_owner",
          "type": "address"
        },
        {
          "internalType": "contract IERC20Full",
          "name": "_collateral",
          "type": "address"
        },
        {
          "internalType": "uint256",
          "name": "_shareFactor",
          "type": "uint256"
        },
        {
          "internalType": "contract FeePot",
          "name": "_feePot",
          "type": "address"
        },
        {
          "internalType": "uint256",
          "name": "_stakerFee",
          "type": "uint256"
        },
        {
          "internalType": "uint256",
          "name": "_settlementFee",
          "type": "uint256"
        },
        {
          "internalType": "address",
          "name": "_protocol",
          "type": "address"
        },
        {
          "internalType": "uint256",
          "name": "_protocolFee",
          "type": "uint256"
        },
        {
          "internalType": "address",
          "name": "_linkNode",
          "type": "address"
        }
      ],
      "stateMutability": "nonpayable",
      "type": "constructor"
    },
    {
      "anonymous": false,
      "inputs": [
        {
          "indexed": false,
          "internalType": "address",
          "name": "newLinkNode",
          "type": "address"
        }
      ],
      "name": "LinkNodeChanged",
      "type": "event"
    },
    {
      "anonymous": false,
      "inputs": [
        {
          "indexed": false,
          "internalType": "uint256",
          "name": "id",
          "type": "uint256"
        },
        {
          "indexed": false,
          "internalType": "address",
          "name": "creator",
          "type": "address"
        },
        {
          "indexed": false,
          "internalType": "uint256",
          "name": "endTime",
          "type": "uint256"
        },
        {
          "indexed": false,
          "internalType": "enum SportsLinkMarketFactory.MarketType",
          "name": "marketType",
          "type": "uint8"
        },
        {
          "indexed": true,
          "internalType": "uint256",
          "name": "eventId",
          "type": "uint256"
        },
        {
          "indexed": false,
          "internalType": "uint256",
          "name": "homeTeamId",
          "type": "uint256"
        },
        {
          "indexed": false,
          "internalType": "uint256",
          "name": "awayTeamId",
          "type": "uint256"
        },
        {
          "indexed": false,
          "internalType": "uint256",
          "name": "estimatedStarTime",
          "type": "uint256"
        },
        {
          "indexed": false,
          "internalType": "int256",
          "name": "score",
          "type": "int256"
        }
      ],
      "name": "MarketCreated",
      "type": "event"
    },
    {
      "anonymous": false,
      "inputs": [
        {
          "indexed": false,
          "internalType": "uint256",
          "name": "id",
          "type": "uint256"
        },
        {
          "indexed": false,
          "internalType": "address",
          "name": "winner",
          "type": "address"
        }
      ],
      "name": "MarketResolved",
      "type": "event"
    },
    {
      "anonymous": false,
      "inputs": [
        {
          "indexed": false,
          "internalType": "address",
          "name": "protocol",
          "type": "address"
        }
      ],
      "name": "ProtocolChanged",
      "type": "event"
    },
    {
      "anonymous": false,
      "inputs": [
        {
          "indexed": false,
          "internalType": "uint256",
          "name": "fee",
          "type": "uint256"
        }
      ],
      "name": "ProtocolFeeChanged",
      "type": "event"
    },
    {
      "anonymous": false,
      "inputs": [
        {
          "indexed": false,
          "internalType": "address",
          "name": "protocol",
          "type": "address"
        },
        {
          "indexed": false,
          "internalType": "uint256",
          "name": "amount",
          "type": "uint256"
        }
      ],
      "name": "ProtocolFeeClaimed",
      "type": "event"
    },
    {
      "anonymous": false,
      "inputs": [
        {
          "indexed": false,
          "internalType": "uint256",
          "name": "fee",
          "type": "uint256"
        }
      ],
      "name": "SettlementFeeChanged",
      "type": "event"
    },
    {
      "anonymous": false,
      "inputs": [
        {
          "indexed": false,
          "internalType": "address",
          "name": "settlementAddress",
          "type": "address"
        },
        {
          "indexed": false,
          "internalType": "uint256",
          "name": "amount",
          "type": "uint256"
        },
        {
          "indexed": true,
          "internalType": "address",
          "name": "receiver",
          "type": "address"
        }
      ],
      "name": "SettlementFeeClaimed",
      "type": "event"
    },
    {
      "anonymous": false,
      "inputs": [
        {
          "indexed": false,
          "internalType": "uint256",
          "name": "id",
          "type": "uint256"
        },
        {
          "indexed": false,
          "internalType": "uint256",
          "name": "amount",
          "type": "uint256"
        },
        {
          "indexed": false,
          "internalType": "address",
          "name": "receiver",
          "type": "address"
        }
      ],
      "name": "SharesBurned",
      "type": "event"
    },
    {
      "anonymous": false,
      "inputs": [
        {
          "indexed": false,
          "internalType": "uint256",
          "name": "id",
          "type": "uint256"
        },
        {
          "indexed": false,
          "internalType": "uint256",
          "name": "amount",
          "type": "uint256"
        },
        {
          "indexed": false,
          "internalType": "address",
          "name": "receiver",
          "type": "address"
        }
      ],
      "name": "SharesMinted",
      "type": "event"
    },
    {
      "anonymous": false,
      "inputs": [
        {
          "indexed": false,
          "internalType": "uint256",
          "name": "fee",
          "type": "uint256"
        }
      ],
      "name": "StakerFeeChanged",
      "type": "event"
    },
    {
      "anonymous": false,
      "inputs": [
        {
          "indexed": false,
          "internalType": "uint256",
          "name": "id",
          "type": "uint256"
        },
        {
          "indexed": false,
          "internalType": "uint256",
          "name": "amount",
          "type": "uint256"
        },
        {
          "indexed": true,
          "internalType": "address",
          "name": "receiver",
          "type": "address"
        }
      ],
      "name": "WinningsClaimed",
      "type": "event"
    },
    {
      "inputs": [],
      "name": "accumulatedProtocolFee",
      "outputs": [
        {
          "internalType": "uint256",
          "name": "",
          "type": "uint256"
        }
      ],
      "stateMutability": "view",
      "type": "function"
    },
    {
      "inputs": [
        {
          "internalType": "address",
          "name": "",
          "type": "address"
        }
      ],
      "name": "accumulatedSettlementFees",
      "outputs": [
        {
          "internalType": "uint256",
          "name": "",
          "type": "uint256"
        }
      ],
      "stateMutability": "view",
      "type": "function"
    },
    {
      "inputs": [
        {
          "internalType": "uint256",
          "name": "_id",
          "type": "uint256"
        },
        {
          "internalType": "uint256",
          "name": "_sharesToBurn",
          "type": "uint256"
        },
        {
          "internalType": "address",
          "name": "_receiver",
          "type": "address"
        }
      ],
      "name": "burnShares",
      "outputs": [
        {
          "internalType": "uint256",
          "name": "",
          "type": "uint256"
        }
      ],
      "stateMutability": "nonpayable",
      "type": "function"
    },
    {
      "inputs": [
        {
          "internalType": "uint256",
          "name": "_shares",
          "type": "uint256"
        }
      ],
      "name": "calcCost",
      "outputs": [
        {
          "internalType": "uint256",
          "name": "",
          "type": "uint256"
        }
      ],
      "stateMutability": "view",
      "type": "function"
    },
    {
      "inputs": [
        {
          "internalType": "uint256",
          "name": "_collateralIn",
          "type": "uint256"
        }
      ],
      "name": "calcShares",
      "outputs": [
        {
          "internalType": "uint256",
          "name": "",
          "type": "uint256"
        }
      ],
      "stateMutability": "view",
      "type": "function"
    },
    {
      "inputs": [
        {
          "internalType": "address",
          "name": "_newLinkNode",
          "type": "address"
        }
      ],
      "name": "changeLinkNode",
      "outputs": [],
      "stateMutability": "nonpayable",
      "type": "function"
    },
    {
      "inputs": [
        {
          "internalType": "uint256[]",
          "name": "_ids",
          "type": "uint256[]"
        },
        {
          "internalType": "address",
          "name": "_receiver",
          "type": "address"
        }
      ],
      "name": "claimManyWinnings",
      "outputs": [
        {
          "internalType": "uint256",
          "name": "",
          "type": "uint256"
        }
      ],
      "stateMutability": "nonpayable",
      "type": "function"
    },
    {
      "inputs": [],
      "name": "claimProtocolFees",
      "outputs": [
        {
          "internalType": "uint256",
          "name": "",
          "type": "uint256"
        }
      ],
      "stateMutability": "nonpayable",
      "type": "function"
    },
    {
      "inputs": [
        {
          "internalType": "address",
          "name": "_receiver",
          "type": "address"
        }
      ],
      "name": "claimSettlementFees",
      "outputs": [
        {
          "internalType": "uint256",
          "name": "",
          "type": "uint256"
        }
      ],
      "stateMutability": "nonpayable",
      "type": "function"
    },
    {
      "inputs": [
        {
          "internalType": "uint256",
          "name": "_id",
          "type": "uint256"
        },
        {
          "internalType": "address",
          "name": "_receiver",
          "type": "address"
        }
      ],
      "name": "claimWinnings",
      "outputs": [
        {
          "internalType": "uint256",
          "name": "",
          "type": "uint256"
        }
      ],
      "stateMutability": "nonpayable",
      "type": "function"
    },
    {
      "inputs": [],
      "name": "collateral",
      "outputs": [
        {
          "internalType": "contract IERC20Full",
          "name": "",
          "type": "address"
        }
      ],
      "stateMutability": "view",
      "type": "function"
    },
    {
      "inputs": [
        {
          "internalType": "bytes32",
          "name": "_payload",
          "type": "bytes32"
        }
      ],
      "name": "createMarket",
      "outputs": [
        {
          "internalType": "uint256[3]",
          "name": "_ids",
          "type": "uint256[3]"
        }
      ],
      "stateMutability": "nonpayable",
      "type": "function"
    },
    {
      "inputs": [
        {
          "internalType": "bytes32",
          "name": "_payload",
          "type": "bytes32"
        }
      ],
      "name": "decodeCreation",
      "outputs": [
        {
          "internalType": "uint128",
          "name": "_eventId",
          "type": "uint128"
        },
        {
          "internalType": "uint16",
          "name": "_homeTeamId",
          "type": "uint16"
        },
        {
          "internalType": "uint16",
          "name": "_awayTeamId",
          "type": "uint16"
        },
        {
          "internalType": "uint32",
          "name": "_startTimestamp",
          "type": "uint32"
        },
        {
          "internalType": "int16",
          "name": "_homeSpread",
          "type": "int16"
        },
        {
          "internalType": "uint16",
          "name": "_totalScore",
          "type": "uint16"
        }
      ],
      "stateMutability": "pure",
      "type": "function"
    },
    {
      "inputs": [
        {
          "internalType": "bytes32",
          "name": "_payload",
          "type": "bytes32"
        }
      ],
      "name": "decodeResolution",
      "outputs": [
        {
          "internalType": "uint128",
          "name": "_eventId",
          "type": "uint128"
        },
        {
          "internalType": "uint8",
          "name": "_eventStatus",
          "type": "uint8"
        },
        {
          "internalType": "uint16",
          "name": "_homeScore",
          "type": "uint16"
        },
        {
          "internalType": "uint16",
          "name": "_awayScore",
          "type": "uint16"
        }
      ],
      "stateMutability": "pure",
      "type": "function"
    },
    {
      "inputs": [
        {
          "internalType": "uint128",
          "name": "_eventId",
          "type": "uint128"
        },
        {
          "internalType": "uint16",
          "name": "_homeTeamId",
          "type": "uint16"
        },
        {
          "internalType": "uint16",
          "name": "_awayTeamId",
          "type": "uint16"
        },
        {
          "internalType": "uint32",
          "name": "_startTimestamp",
          "type": "uint32"
        },
        {
          "internalType": "int16",
          "name": "_homeSpread",
          "type": "int16"
        },
        {
          "internalType": "uint16",
          "name": "_totalScore",
          "type": "uint16"
        }
      ],
      "name": "encodeCreation",
      "outputs": [
        {
          "internalType": "bytes32",
          "name": "_payload",
          "type": "bytes32"
        }
      ],
      "stateMutability": "pure",
      "type": "function"
    },
    {
      "inputs": [
        {
          "internalType": "uint128",
          "name": "_eventId",
          "type": "uint128"
        },
        {
          "internalType": "uint8",
          "name": "_eventStatus",
          "type": "uint8"
        },
        {
          "internalType": "uint16",
          "name": "_homeScore",
          "type": "uint16"
        },
        {
          "internalType": "uint16",
          "name": "_awayScore",
          "type": "uint16"
        }
      ],
      "name": "encodeResolution",
      "outputs": [
        {
          "internalType": "bytes32",
          "name": "_payload",
          "type": "bytes32"
        }
      ],
      "stateMutability": "pure",
      "type": "function"
    },
    {
      "inputs": [],
      "name": "feePot",
      "outputs": [
        {
          "internalType": "contract FeePot",
          "name": "",
          "type": "address"
        }
      ],
      "stateMutability": "view",
      "type": "function"
    },
    {
      "inputs": [
        {
          "internalType": "uint256",
          "name": "_id",
          "type": "uint256"
        }
      ],
      "name": "getMarket",
      "outputs": [
        {
          "components": [
            {
              "internalType": "address",
              "name": "settlementAddress",
              "type": "address"
            },
            {
              "internalType": "contract OwnedERC20[]",
              "name": "shareTokens",
              "type": "address[]"
            },
            {
              "internalType": "uint256",
              "name": "endTime",
              "type": "uint256"
            },
            {
              "internalType": "contract OwnedERC20",
              "name": "winner",
              "type": "address"
            },
            {
              "internalType": "uint256",
              "name": "settlementFee",
              "type": "uint256"
            },
            {
              "internalType": "uint256",
              "name": "protocolFee",
              "type": "uint256"
            },
            {
              "internalType": "uint256",
              "name": "stakerFee",
              "type": "uint256"
            }
          ],
          "internalType": "struct AbstractMarketFactory.Market",
          "name": "",
          "type": "tuple"
        }
      ],
      "stateMutability": "view",
      "type": "function"
    },
    {
      "inputs": [
        {
          "internalType": "uint256",
          "name": "_marketId",
          "type": "uint256"
        }
      ],
      "name": "getMarketDetails",
      "outputs": [
        {
          "components": [
            {
              "internalType": "uint256",
              "name": "eventId",
              "type": "uint256"
            },
            {
              "internalType": "uint256",
              "name": "homeTeamId",
              "type": "uint256"
            },
            {
              "internalType": "uint256",
              "name": "awayTeamId",
              "type": "uint256"
            },
            {
              "internalType": "uint256",
              "name": "estimatedStartTime",
              "type": "uint256"
            },
            {
              "internalType": "enum SportsLinkMarketFactory.MarketType",
              "name": "marketType",
              "type": "uint8"
            },
            {
              "internalType": "enum SportsLinkMarketFactory.EventStatus",
              "name": "eventStatus",
              "type": "uint8"
            },
            {
              "internalType": "int256",
              "name": "value0",
              "type": "int256"
            }
          ],
          "internalType": "struct SportsLinkMarketFactory.MarketDetails",
          "name": "",
          "type": "tuple"
        }
      ],
      "stateMutability": "view",
      "type": "function"
    },
    {
      "inputs": [],
      "name": "getOwner",
      "outputs": [
        {
          "internalType": "address",
          "name": "",
          "type": "address"
        }
      ],
      "stateMutability": "view",
      "type": "function"
    },
    {
      "inputs": [
        {
          "internalType": "uint256",
          "name": "_eventId",
          "type": "uint256"
        }
      ],
      "name": "isEventRegistered",
      "outputs": [
        {
          "internalType": "bool",
          "name": "",
          "type": "bool"
        }
      ],
      "stateMutability": "view",
      "type": "function"
    },
    {
      "inputs": [
        {
          "internalType": "uint256",
          "name": "_eventId",
          "type": "uint256"
        }
      ],
      "name": "isEventResolved",
      "outputs": [
        {
          "internalType": "bool",
          "name": "",
          "type": "bool"
        }
      ],
      "stateMutability": "view",
      "type": "function"
    },
    {
      "inputs": [
        {
          "internalType": "uint256",
          "name": "_id",
          "type": "uint256"
        }
      ],
      "name": "isMarketResolved",
      "outputs": [
        {
          "internalType": "bool",
          "name": "",
          "type": "bool"
        }
      ],
      "stateMutability": "view",
      "type": "function"
    },
    {
      "inputs": [],
      "name": "marketCount",
      "outputs": [
        {
          "internalType": "uint256",
          "name": "",
          "type": "uint256"
        }
      ],
      "stateMutability": "view",
      "type": "function"
    },
    {
      "inputs": [
        {
          "internalType": "uint256",
          "name": "_id",
          "type": "uint256"
        },
        {
          "internalType": "uint256",
          "name": "_shareToMint",
          "type": "uint256"
        },
        {
          "internalType": "address",
          "name": "_receiver",
          "type": "address"
        }
      ],
      "name": "mintShares",
      "outputs": [],
      "stateMutability": "nonpayable",
      "type": "function"
    },
    {
      "inputs": [],
      "name": "protocol",
      "outputs": [
        {
          "internalType": "address",
          "name": "",
          "type": "address"
        }
      ],
      "stateMutability": "view",
      "type": "function"
    },
    {
      "inputs": [],
      "name": "protocolFee",
      "outputs": [
        {
          "internalType": "uint256",
          "name": "",
          "type": "uint256"
        }
      ],
      "stateMutability": "view",
      "type": "function"
    },
    {
      "inputs": [
        {
          "internalType": "uint256",
          "name": "",
          "type": "uint256"
        }
      ],
      "name": "resolveMarket",
      "outputs": [],
      "stateMutability": "pure",
      "type": "function"
    },
    {
      "inputs": [
        {
          "internalType": "address",
          "name": "_newProtocol",
          "type": "address"
        },
        {
          "internalType": "bool",
          "name": "_claimFirst",
          "type": "bool"
        }
      ],
      "name": "setProtocol",
      "outputs": [],
      "stateMutability": "nonpayable",
      "type": "function"
    },
    {
      "inputs": [
        {
          "internalType": "uint256",
          "name": "_newFee",
          "type": "uint256"
        }
      ],
      "name": "setProtocolFee",
      "outputs": [],
      "stateMutability": "nonpayable",
      "type": "function"
    },
    {
      "inputs": [
        {
          "internalType": "uint256",
          "name": "_newFee",
          "type": "uint256"
        }
      ],
      "name": "setSettlementFee",
      "outputs": [],
      "stateMutability": "nonpayable",
      "type": "function"
    },
    {
      "inputs": [
        {
          "internalType": "uint256",
          "name": "_newFee",
          "type": "uint256"
        }
      ],
      "name": "setStakerFee",
      "outputs": [],
      "stateMutability": "nonpayable",
      "type": "function"
    },
    {
      "inputs": [],
      "name": "settlementFee",
      "outputs": [
        {
          "internalType": "uint256",
          "name": "",
          "type": "uint256"
        }
      ],
      "stateMutability": "view",
      "type": "function"
    },
    {
      "inputs": [],
      "name": "shareFactor",
      "outputs": [
        {
          "internalType": "uint256",
          "name": "",
          "type": "uint256"
        }
      ],
      "stateMutability": "view",
      "type": "function"
    },
    {
      "inputs": [],
      "name": "stakerFee",
      "outputs": [
        {
          "internalType": "uint256",
          "name": "",
          "type": "uint256"
        }
      ],
      "stateMutability": "view",
      "type": "function"
    },
    {
      "inputs": [
        {
          "internalType": "address",
          "name": "_newOwner",
          "type": "address"
        }
      ],
      "name": "transferOwnership",
      "outputs": [
        {
          "internalType": "bool",
          "name": "",
          "type": "bool"
        }
      ],
      "stateMutability": "nonpayable",
      "type": "function"
    },
    {
      "inputs": [
        {
          "internalType": "bytes32",
          "name": "_payload",
          "type": "bytes32"
        }
      ],
      "name": "trustedResolveMarkets",
      "outputs": [],
      "stateMutability": "nonpayable",
      "type": "function"
    }
  ],
  "transactionHash": "0xc0345e23c4d2aeadc820a2ed7378d9399cdea291d8a630f1a920d2acbf3b3e02",
  "args": [
    "0x5Cfc719AD2d969e0A005541D6a562dae4a618A20",
    "0x5B9a38Bf07324B2Ff946F1ccdBD4698A8BC6c952",
    "1000000000000",
    "0x6eB468d092783F6644D2912ce732527F51357A4D",
    0,
    "500000000000000",
    "0x5Cfc719AD2d969e0A005541D6a562dae4a618A20",
    0,
    "0x5Cfc719AD2d969e0A005541D6a562dae4a618A20"
  ],
  "solcInputHash": "9c26d0db042f253dfc1ecc6c3f3e0c96",
  "bytecode": "0x608060405260006007553480156200001657600080fd5b506040516200486a3803806200486a833981016040819052620000399162000163565b600080546001600160a01b03808c166001600160a01b0319928316331783161790925560018054838c16908316811790915560098a905560028054848b1690841617905560038890556004878155600680549488169490931693909317909155600584905560405163095ea7b360e01b81528b928b928b928b928b928b928b928b929163095ea7b391620000d4918991600019910162000233565b602060405180830381600087803b158015620000ef57600080fd5b505af115801562000104573d6000803e3d6000fd5b505050506040513d601f19601f820116820180604052508101906200012a91906200020a565b5050600d80546001600160a01b0319166001600160a01b03999099169890981790975550620002659d5050505050505050505050505050565b60008060008060008060008060006101208a8c03121562000182578485fd5b89516200018f816200024c565b60208b0151909950620001a2816200024c565b60408b015160608c01519199509750620001bc816200024c565b8096505060808a0151945060a08a0151935060c08a0151620001de816200024c565b60e08b01516101008c01519194509250620001f9816200024c565b809150509295985092959850929598565b6000602082840312156200021c578081fd5b815180151581146200022c578182fd5b9392505050565b6001600160a01b03929092168252602082015260400190565b6001600160a01b03811681146200026257600080fd5b50565b6145f580620002756000396000f3fe60806040523480156200001157600080fd5b50600436106200025c5760003560e01c80638ce74426116200014d578063bff838bf11620000c9578063e5678dfa1162000087578063e5678dfa146200053b578063e8766d761462000552578063eb44fdd31462000569578063ec979082146200058f578063f2fde38b1462000599576200025c565b8063bff838bf14620004c1578063cc87adea14620004d8578063d5da4f1d14620004ef578063d8dfeb451462000506578063db747ac91462000510576200025c565b8063a17944961162000117578063a17944961462000459578063a544a62c1462000470578063b06c1ba3146200047a578063b0e21e8a14620004a0578063b65ad5fd14620004aa576200025c565b80638ce74426146200040a5780638e0ed193146200041457806397eef187146200042b578063992c90791462000442576200025c565b80634c9f66c711620001dd5780637641ab0111620001a75780637641ab0114620003be578063787dce3d14620003c85780637d1d7fb814620003df5780638580c50414620003e9578063893d20e81462000400576200025c565b80634c9f66c7146200035157806353ac55f5146200036a578063575717b014620003905780636399d03d14620003a7576200025c565b806335a9cdad116200022b57806335a9cdad14620002e9578063473a6d52146200030f57806349a4d93414620003265780634a7d0369146200033d5780634b2d9ffc1462000347576200025c565b8063221fff8114620002615780632243118a146200027a5780632745917914620002a957806332ecabe914620002d2575b600080fd5b620002786200027236600462002d76565b620005b0565b005b620002916200028b36600462002c24565b62000834565b604051620002a0919062002f14565b60405180910390f35b620002c0620002ba36600462002c24565b6200095d565b604051620002a09493929190620032f7565b62000278620002e336600462002b00565b62000981565b62000300620002fa36600462002d76565b62000a05565b604051620002a0919062002f52565b620003006200032036600462002c24565b62000cc1565b620003006200033736600462002ae3565b62000d14565b6200030062000d26565b6200030062000e47565b6200035b62000e4d565b604051620002a0919062002ec3565b620003816200037b36600462002c24565b62000e5c565b604051620002a0919062002f47565b62000278620003a136600462002c24565b62000f4b565b62000278620003b836600462002c24565b620010fa565b6200030062001114565b62000278620003d936600462002c24565b6200111a565b6200030062001174565b62000300620003fa36600462002ccd565b6200117a565b6200035b620011b4565b6200035b620011c3565b620003006200042536600462002ae3565b620011d2565b620002786200043c36600462002c24565b620012bd565b620003006200045336600462002d48565b6200130c565b620003816200046a36600462002c24565b62001617565b620003006200163b565b620004916200048b36600462002c24565b62001641565b604051620002a09190620031a0565b6200030062001700565b62000381620004bb36600462002c24565b62001706565b62000278620004d236600462002ae3565b6200171d565b62000300620004e936600462002c24565b62001782565b620002786200050036600462002c24565b62001789565b6200035b620017d8565b620005276200052136600462002c24565b620017e7565b604051620002a096959493929190620032b4565b620003006200054c36600462002b3b565b6200181b565b620003006200056336600462002c3d565b62001869565b620005806200057a36600462002c24565b620018a9565b604051620002a0919062003206565b62000300620019e4565b62000381620005aa36600462002ae3565b620019ea565b6000600a8481548110620005c057fe5b60009182526020918290206040805160e081018252600790930290910180546001600160a01b031683526001810180548351818702810187019094528084529394919385830193928301828280156200064357602002820191906000526020600020905b81546001600160a01b0316815260019091019060200180831162000624575b50505091835250506002820154602082015260038201546001600160a01b0316604080830191909152600483015460608301526005830154608083015260069092015460a090910152810151909150620006ba5760405162461bcd60e51b8152600401620006b190620030ff565b60405180910390fd5b6000620006c78462000cc1565b6001546040516323b872dd60e01b81529192506001600160a01b0316906323b872dd90620006fe9033903090869060040162002ed7565b602060405180830381600087803b1580156200071957600080fd5b505af11580156200072e573d6000803e3d6000fd5b505050506040513d601f19601f8201168201806040525081019062000754919062002c05565b5060005b826020015151811015620007ef57826020015181815181106200077757fe5b60200260200101516001600160a01b031663c024cd2685876040518363ffffffff1660e01b8152600401620007ae92919062002efb565b600060405180830381600087803b158015620007c957600080fd5b505af1158015620007de573d6000803e3d6000fd5b505060019092019150620007589050565b507fd81c0442e10068a9818f3aa093c9ccb804584690df572d7df3da2d892a6973f285858560405162000825939291906200339e565b60405180910390a15050505050565b6200083e6200292a565b600d546001600160a01b031633146200086b5760405162461bcd60e51b8152600401620006b190620030be565b6000806000806000806200087f88620017e7565b61ffff16955060010b955063ffffffff16955061ffff16955061ffff1695506001600160801b0316955060003390506000620008c76101e08662001a5490919063ffffffff16565b9050620008d48862001706565b15620008f45760405162461bcd60e51b8152600401620006b19062003169565b6200090482828a8a8a8a62001a67565b89526200091782828a8a8a8a8a62001d38565b60208a01526200092d82828a8a8a8a8962002008565b6040808b01919091526000898152600c602052206200094f908a600362002948565b505050505050505050919050565b608081901c9160ff607883901c169161ffff606882901c81169260589290921c1690565b6000546001600160a01b031633146200099957600080fd5b8015620009ac57620009aa62000d26565b505b600680546001600160a01b0319166001600160a01b0384161790556040517f15b84596b3c567ae2998116949ae5f2d47f3055c12d9053db4d6e50f4c794dd990620009f990849062002ec3565b60405180910390a15050565b600080600a858154811062000a1657fe5b60009182526020918290206040805160e081018252600790930290910180546001600160a01b0316835260018101805483518187028101870190945280845293949193858301939283018282801562000a9957602002820191906000526020600020905b81546001600160a01b0316815260019091019060200180831162000a7a575b50505091835250506002820154602082015260038201546001600160a01b0316604080830191909152600483015460608301526005830154608083015260069092015460a09091015281015190915062000b075760405162461bcd60e51b8152600401620006b190620030ff565b60005b81602001515181101562000ba1578160200151818151811062000b2957fe5b60200260200101516001600160a01b03166342986e1333876040518363ffffffff1660e01b815260040162000b6092919062002efb565b600060405180830381600087803b15801562000b7b57600080fd5b505af115801562000b90573d6000803e3d6000fd5b50506001909201915062000b0a9050565b50600062000baf8562000cc1565b9050600062000be0670de0b6b3a764000062000bd98560a0015185620022c390919063ffffffff16565b90620022ee565b905062000bee828262002304565b60015460405163a9059cbb60e01b81529193506001600160a01b03169063a9059cbb9062000c23908890869060040162002efb565b602060405180830381600087803b15801562000c3e57600080fd5b505af115801562000c53573d6000803e3d6000fd5b505050506040513d601f19601f8201168201806040525081019062000c79919062002c05565b507fb6fdb729b2ed801daf629f0ab713e4a7a73619505790f6f27fd92d6f2c9688d787873360405162000caf939291906200339e565b60405180910390a15095945050505050565b6000600954821015801562000ce05750600954828162000cdd57fe5b06155b62000cff5760405162461bcd60e51b8152600401620006b1906200304d565b600954828162000d0b57fe5b0490505b919050565b60086020526000908152604090205481565b6006546000906001600160a01b031633148062000d4257503330145b62000d615760405162461bcd60e51b8152600401620006b19062002f9d565b60078054600090915560015460065460405163a9059cbb60e01b81526001600160a01b039283169263a9059cbb9262000da292911690859060040162002efb565b602060405180830381600087803b15801562000dbd57600080fd5b505af115801562000dd2573d6000803e3d6000fd5b505050506040513d601f19601f8201168201806040525081019062000df8919062002c05565b506006546040517f0f7f5b155b0b0ac6890709a2c7bf1b8bb3f675fff1e7840b4dd3c9acde59048b9162000e3a916001600160a01b0390911690849062002efb565b60405180910390a1905090565b60035481565b6002546001600160a01b031681565b600080600a838154811062000e6d57fe5b60009182526020918290206040805160e081018252600790930290910180546001600160a01b0316835260018101805483518187028101870190945280845293949193858301939283018282801562000ef057602002820191906000526020600020905b81546001600160a01b0316815260019091019060200180831162000ed1575b50505091835250506002820154602082015260038201546001600160a01b03908116604083015260048301546060808401919091526005840154608084015260069093015460a0909201919091529101511615159392505050565b600d546001600160a01b0316331462000f785760405162461bcd60e51b8152600401620006b19062003127565b60008060008062000f89856200095d565b6001600160801b03939093166000818152600c602052604080822081516060810192839052939a5060ff95909516985061ffff9384169750929094169450919060039082845b81548152602001906001019080831162000fcf57509394506002935062000ff592505050565b8460048111156200100257fe5b60048111156200100e57fe5b14620010be5760005b6003811015620010b2578151600a8054829081106200103257fe5b90600052602060002090600702016001016000815481106200105057fe5b600091825260209091200154600a80546001600160a01b0390921691839081106200107757fe5b6000918252602090912060079091020160030180546001600160a01b0319166001600160a01b03929092169190911790555060010162001017565b505050505050620010f7565b8051620010cd9084846200231a565b6020810151620010df9084846200246c565b6040810151620010f19084846200267d565b50505050505b50565b60405162461bcd60e51b8152600401620006b19062002fe1565b60095481565b6000546001600160a01b031633146200113257600080fd5b60058190556040517fada2cde3c4a561f5c23e2fdbfb223e1f0d1ec7109b9811b32644e6e974d6631f906200116990839062002f52565b60405180910390a150565b60045481565b6000808585858560405160200162001196949392919062002e77565b60408051601f19818403018152919052602001519695505050505050565b6000546001600160a01b031690565b6006546001600160a01b031681565b33600090815260086020526040808220805490839055600154915163a9059cbb60e01b815290916001600160a01b03169063a9059cbb906200121b908690859060040162002efb565b602060405180830381600087803b1580156200123657600080fd5b505af11580156200124b573d6000803e3d6000fd5b505050506040513d601f19601f8201168201806040525081019062001271919062002c05565b50826001600160a01b03167fc9985ad824d943d66367ce5feea26e18979b3e1c9273742926d87e2b0d7473873383604051620012af92919062002efb565b60405180910390a292915050565b6000546001600160a01b03163314620012d557600080fd5b60038190556040517fcc4df50442ac32f0142ba4853f617661e0823be0e92148e7e5f36ce56c139825906200116990839062002f52565b6000620013198362000e5c565b62001329576200132983620010fa565b6000600a84815481106200133957fe5b60009182526020918290206040805160e081018252600790930290910180546001600160a01b03168352600181018054835181870281018701909452808452939491938583019392830182828015620013bc57602002820191906000526020600020905b81546001600160a01b031681526001909101906020018083116200139d575b50505050508152602001600282015481526020016003820160009054906101000a90046001600160a01b03166001600160a01b03166001600160a01b0316815260200160048201548152602001600582015481526020016006820154815250509050600081606001516001600160a01b03166371297784336040518263ffffffff1660e01b815260040162001452919062002ec3565b602060405180830381600087803b1580156200146d57600080fd5b505af115801562001482573d6000803e3d6000fd5b505050506040513d601f19601f82011682018060405250810190620014a8919062002d2f565b90506009546009548281620014b957fe5b040290506000620014ca8262000cc1565b90506000620014f4670de0b6b3a764000062000bd9866080015185620022c390919063ffffffff16565b905060006200151e670de0b6b3a764000062000bd98760c0015186620022c390919063ffffffff16565b9050620015388162001531858562002304565b9062002304565b60015460405163a9059cbb60e01b81529194506001600160a01b03169063a9059cbb906200156d908a90879060040162002efb565b602060405180830381600087803b1580156200158857600080fd5b505af11580156200159d573d6000803e3d6000fd5b505050506040513d601f19601f82011682018060405250810190620015c3919062002c05565b50336001600160a01b03167f2bdd7a5109193ce6270ec3b4afcf4ccd4a06c27742ba11f660498cb41433bb0089866040516200160192919062003390565b60405180910390a2509093505050505b92915050565b6000818152600c6020526040812060020154620016348162000e5c565b9392505050565b60075481565b6200164b6200298b565b600b60008381526020019081526020016000206040518060e0016040529081600082015481526020016001820154815260200160028201548152602001600382015481526020016004820160009054906101000a900460ff166002811115620016b057fe5b6002811115620016bc57fe5b81526020016004820160019054906101000a900460ff166004811115620016df57fe5b6004811115620016eb57fe5b81526020016005820154815250509050919050565b60055481565b6000908152600c6020526040902060020154151590565b6000546001600160a01b031633146200173557600080fd5b600d80546001600160a01b0319166001600160a01b0383161790556040517f6b7517523482c8d89ffbc530829d5decd506cf6dc60874b11fa26c8a53bb9fa9906200116990839062002ec3565b6009540290565b6000546001600160a01b03163314620017a157600080fd5b60048190556040517f92d395c429898992f8532ee7145901513e524c2085fd7fd1da39b8badcd6df31906200116990839062002f52565b6001546001600160a01b031681565b608081901c9161ffff607083901c811692606081901c82169263ffffffff604083901c1692603083901c81169260201c1690565b600080805b84518110156200186157620018566200184e8683815181106200183f57fe5b6020026020010151866200130c565b839062001a54565b915060010162001820565b509392505050565b600080878787878787604051602001620018899695949392919062002e17565b60408051601f198184030181529190526020015198975050505050505050565b620018b3620029d4565b600a548211156200190657506040805160e0810182526000808252825181815260208082018552830152918101829052606081018290526080810182905260a0810182905260c081019190915262000d0f565b600a82815481106200191457fe5b60009182526020918290206040805160e081018252600790930290910180546001600160a01b031683526001810180548351818702810187019094528084529394919385830193928301828280156200199757602002820191906000526020600020905b81546001600160a01b0316815260019091019060200180831162001978575b50505091835250506002820154602082015260038201546001600160a01b03166040820152600482015460608201526005820154608082015260069091015460a090910152905062000d0f565b600a5490565b600080546001600160a01b0316331462001a0357600080fd5b6001600160a01b03821662001a1757600080fd5b60005462001a2f906001600160a01b03168362002737565b50600080546001600160a01b0383166001600160a01b03199091161790556001919050565b6000828201838110156200163457600080fd5b60408051600380825260808201909252600091829190816020015b606081526020019060019003908162001a825790505090506040518060400160405280600a815260200169139bc810dbdb9d195cdd60b21b8152508160008151811062001acb57fe5b6020026020010181905250604051806040016040528060048152602001634177617960e01b8152508160018151811062001b0157fe5b602002602001018190525060405180604001604052806004815260200163486f6d6560e01b8152508160028151811062001b3757fe5b6020908102919091010152600a80549062001b558a84808c6200273b565b8154600180820184556000938452602093849020835160079093020180546001600160a01b0319166001600160a01b039093169290921782558284015180519394929362001bac9392850192919091019062002a23565b506040820151816002015560608201518160030160006101000a8154816001600160a01b0302191690836001600160a01b031602179055506080820151816004015560a0820151816005015560c0820151816006015550506040518060e001604052808881526020018781526020018681526020018581526020016000600281111562001c3557fe5b8152602001600181526020016000815250600b60008381526020019081526020016000206000820151816000015560208201518160010155604082015181600201556060820151816003015560808201518160040160006101000a81548160ff0219169083600281111562001ca657fe5b021790555060a08201518160040160016101000a81548160ff0219169083600481111562001cd057fe5b021790555060c08201518160050155905050867fafad6545e5200f9fdf4db34dfca61a9e7d72518593fd5155d11fd69c20e1555f828b8b60008b8b8b600060405162001d249897969594939291906200333e565b60405180910390a298975050505050505050565b60408051600380825260808201909252600091829190816020015b606081526020019060019003908162001d535790505090506040518060400160405280600a815260200169139bc810dbdb9d195cdd60b21b8152508160008151811062001d9c57fe5b6020026020010181905250604051806040016040528060048152602001634177617960e01b8152508160018151811062001dd257fe5b602002602001018190525060405180604001604052806004815260200163486f6d6560e01b8152508160028151811062001e0857fe5b6020908102919091010152600a80549062001e268b84808d6200273b565b8154600180820184556000938452602093849020835160079093020180546001600160a01b0319166001600160a01b039093169290921782558284015180519394929362001e7d9392850192919091019062002a23565b506040820151816002015560608201518160030160006101000a8154816001600160a01b0302191690836001600160a01b031602179055506080820151816004015560a0820151816005015560c0820151816006015550506040518060e001604052808981526020018881526020018781526020018681526020016001600281111562001f0657fe5b81526020016001815260200185815250600b60008381526020019081526020016000206000820151816000015560208201518160010155604082015181600201556060820151816003015560808201518160040160006101000a81548160ff0219169083600281111562001f7657fe5b021790555060a08201518160040160016101000a81548160ff0219169083600481111562001fa057fe5b021790555060c08201518160050155905050877fafad6545e5200f9fdf4db34dfca61a9e7d72518593fd5155d11fd69c20e1555f828c8c60018c8c8c8c60405162001ff39897969594939291906200333e565b60405180910390a29998505050505050505050565b60408051600380825260808201909252600091829190816020015b6060815260200190600190039081620020235790505090506040518060400160405280600a815260200169139bc810dbdb9d195cdd60b21b815250816000815181106200206c57fe5b60200260200101819052506040518060400160405280600481526020016327bb32b960e11b81525081600181518110620020a257fe5b6020026020010181905250604051806040016040528060058152602001642ab73232b960d91b81525081600281518110620020d957fe5b6020908102919091010152600a805490620020f78b84808d6200273b565b8154600180820184556000938452602093849020835160079093020180546001600160a01b0319166001600160a01b03909316929092178255828401518051939492936200214e9392850192919091019062002a23565b506040820151816002015560608201518160030160006101000a8154816001600160a01b0302191690836001600160a01b031602179055506080820151816004015560a0820151816005015560c0820151816006015550506040518060e00160405280898152602001888152602001878152602001868152602001600280811115620021d657fe5b81526020016001815260200185815250600b60008381526020019081526020016000206000820151816000015560208201518160010155604082015181600201556060820151816003015560808201518160040160006101000a81548160ff021916908360028111156200224657fe5b021790555060a08201518160040160016101000a81548160ff021916908360048111156200227057fe5b021790555060c08201518160050155905050877fafad6545e5200f9fdf4db34dfca61a9e7d72518593fd5155d11fd69c20e1555f828c8c60028c8c8c8c60405162001ff39897969594939291906200333e565b600082620022d45750600062001611565b82820282848281620022e257fe5b04146200163457600080fd5b600080828481620022fb57fe5b04949350505050565b6000828211156200231457600080fd5b50900390565b6000818311156200236e57600a84815481106200233357fe5b90600052602060002090600702016001016002815481106200235157fe5b6000918252602090912001546001600160a01b03169050620023e7565b81831015620023a357600a84815481106200238557fe5b90600052602060002090600702016001016001815481106200235157fe5b600a8481548110620023b157fe5b9060005260206000209060070201600101600081548110620023cf57fe5b6000918252602090912001546001600160a01b031690505b80600a8581548110620023f657fe5b906000526020600020906007020160030160006101000a8154816001600160a01b0302191690836001600160a01b031602179055507fc68d106ea6e4bec784925cfd91767212c71ced92adbac107dc364435321113f684826040516200245e92919062003327565b60405180910390a150505050565b6000838152600b60209081526040808320815160e08101835281548152600182015493810193909352600280820154928401929092526003810154606084015260048101549091608084019160ff1690811115620024c657fe5b6002811115620024d257fe5b81526020016004820160019054906101000a900460ff166004811115620024f557fe5b60048111156200250157fe5b81526005919091015460209091015260c08101519091506000620025268585620027a7565b90506000828213156200257c57600a87815481106200254157fe5b90600052602060002090600702016001016002815481106200255f57fe5b6000918252602090912001546001600160a01b03169050620025f5565b82821215620025b157600a87815481106200259357fe5b90600052602060002090600702016001016001815481106200255f57fe5b600a8781548110620025bf57fe5b9060005260206000209060070201600101600081548110620025dd57fe5b6000918252602090912001546001600160a01b031690505b80600a88815481106200260457fe5b906000526020600020906007020160030160006101000a8154816001600160a01b0302191690836001600160a01b031602179055507fc68d106ea6e4bec784925cfd91767212c71ced92adbac107dc364435321113f687826040516200266c92919062003327565b60405180910390a150505050505050565b6000838152600b60209081526040808320815160e08101835281548152600182015493810193909352600280820154928401929092526003810154606084015260048101549091608084019160ff1690811115620026d757fe5b6002811115620026e357fe5b81526020016004820160019054906101000a900460ff1660048111156200270657fe5b60048111156200271257fe5b81526005919091015460209091015260c08101519091506000620025268585620027eb565b5050565b62002745620029d4565b6040518060e00160405280866001600160a01b031681526020016200276c86863062002834565b815260200183815260200160006001600160a01b03168152602001600454815260200160055481526020016003548152509050949350505050565b6000808312158015620027c357506001600160ff1b0383038212155b80620027e15750600083128015620027e15750600160ff1b83038213155b6200231457600080fd5b6000808312158015620028075750826001600160ff1b03038213155b8062002825575060008312801562002825575082600160ff1b038212155b6200282f57600080fd5b500190565b825160609060008167ffffffffffffffff811180156200285357600080fd5b506040519080825280602002602001820160405280156200287e578160200160208202803683370190505b50905060005b8281101562002920578681815181106200289a57fe5b6020026020010151868281518110620028af57fe5b602002602001015186604051620028c69062002a7b565b620028d49392919062002f5b565b604051809103906000f080158015620028f1573d6000803e3d6000fd5b50828281518110620028ff57fe5b6001600160a01b039092166020928302919091019091015260010162002884565b5095945050505050565b60405180606001604052806003906020820280368337509192915050565b826003810192821562002979579160200282015b82811115620029795782518255916020019190600101906200295c565b506200298792915062002a89565b5090565b6040518060e001604052806000815260200160008152602001600081526020016000815260200160006002811115620029c057fe5b815260200160008152602001600081525090565b6040518060e0016040528060006001600160a01b03168152602001606081526020016000815260200160006001600160a01b031681526020016000815260200160008152602001600081525090565b82805482825590600052602060002090810192821562002979579160200282015b828111156200297957825182546001600160a01b0319166001600160a01b0390911617825560209092019160019091019062002a44565b6111f380620033cd83390190565b5b8082111562002987576000815560010162002a8a565b80356001600160a01b038116811462000d0f57600080fd5b80356001600160801b038116811462000d0f57600080fd5b803561ffff8116811462000d0f57600080fd5b60006020828403121562002af5578081fd5b620016348262002aa0565b6000806040838503121562002b13578081fd5b62002b1e8362002aa0565b9150602083013562002b3081620033bd565b809150509250929050565b6000806040838503121562002b4e578182fd5b823567ffffffffffffffff8082111562002b66578384fd5b818501915085601f83011262002b7a578384fd5b813560208282111562002b8957fe5b8082026040518282820101818110868211171562002ba357fe5b604052838152828101945085830182870184018b101562002bc2578889fd5b8896505b8487101562002be657803586526001969096019594830194830162002bc6565b50965062002bf8905087820162002aa0565b9450505050509250929050565b60006020828403121562002c17578081fd5b81516200163481620033bd565b60006020828403121562002c36578081fd5b5035919050565b60008060008060008060c0878903121562002c56578182fd5b62002c618762002ab8565b955062002c716020880162002ad0565b945062002c816040880162002ad0565b9350606087013563ffffffff8116811462002c9a578283fd5b92506080870135600181900b811462002cb1578283fd5b915062002cc160a0880162002ad0565b90509295509295509295565b6000806000806080858703121562002ce3578384fd5b62002cee8562002ab8565b9350602085013560ff8116811462002d04578384fd5b925062002d146040860162002ad0565b915062002d246060860162002ad0565b905092959194509250565b60006020828403121562002d41578081fd5b5051919050565b6000806040838503121562002d5b578182fd5b8235915062002d6d6020840162002aa0565b90509250929050565b60008060006060848603121562002d8b578283fd5b833592506020840135915062002da46040850162002aa0565b90509250925092565b6001600160a01b03169052565b6003811062002dc557fe5b9052565b60008151808452815b8181101562002df05760208185018101518683018201520162002dd2565b8181111562002e025782602083870101525b50601f01601f19169290920160200192915050565b60809690961b6001600160801b031916865260f094851b6001600160f01b0319908116601088015293851b8416601287015260e09290921b6001600160e01b031916601486015260010b831b601885015290911b16601a820152601c0190565b60809490941b6001600160801b031916845260f89290921b6001600160f81b031916601084015260f090811b6001600160f01b0319908116601185015291901b16601382015260150190565b6001600160a01b0391909116815260200190565b6001600160a01b039384168152919092166020820152604081019190915260600190565b6001600160a01b03929092168252602082015260400190565b60608101818360005b600381101562002f3e57815183526020928301929091019060010162002f1d565b50505092915050565b901515815260200190565b90815260200190565b60006060825262002f70606083018662002dc9565b828103602084015262002f84818662002dc9565b91505060018060a01b0383166040830152949350505050565b60208082526024908201527f4f6e6c792070726f746f636f6c2063616e20636c61696d2070726f746f636f6c6040820152632066656560e01b606082015260800190565b60208082526046908201527f4f6e6c7920746865206c696e6b206e6f64652063616e207265736f6c7665207460408201527f6865206d61726b65742c207573696e6720747275737465645265736f6c76654d60608201526561726b65747360d01b608082015260a00190565b6020808252604b908201527f536861726573206d75737420626520626f74682067726561746572207468616e60408201527f20286f7220657175616c20746f2920616e6420646976697369626c652062792060608201526a39b430b932a330b1ba37b960a91b608082015260a00190565b60208082526021908201527f4f6e6c79206c696e6b206e6f64652063616e20637265617465206d61726b65746040820152607360f81b606082015260800190565b6020808252600e908201526d139bc81cdd58da081b585c9ad95d60921b604082015260600190565b60208082526022908201527f4f6e6c79206c696e6b206e6f64652063616e207265736f6c7665206d61726b65604082015261747360f01b606082015260800190565b60208082526017908201527f4d61726b65747320616c72656164792063726561746564000000000000000000604082015260600190565b600060e082019050825182526020830151602083015260408301516040830152606083015160608301526080830151620031de608084018262002dba565b5060a083015160058110620031ef57fe5b8060a08401525060c083015160c083015292915050565b602080825282516001600160a01b03908116838301528382015160e060408501528051610100850181905260009392918301919084906101208701905b80831015620032675784518416825293850193600192909201919085019062003243565b50604088015160608801526060880151945062003288608088018662002dad565b608088015160a088015260a088015160c088015260c088015160e0880152809550505050505092915050565b6001600160801b0396909616865261ffff9485166020870152928416604086015263ffffffff91909116606085015260010b60808401521660a082015260c00190565b6001600160801b0394909416845260ff92909216602084015261ffff908116604084015216606082015260800190565b9182526001600160a01b0316602082015260400190565b8881526001600160a01b03881660208201526040810187905261010081016200336b606083018862002dba565b8560808301528460a08301528360c08301528260e08301529998505050505050505050565b918252602082015260400190565b92835260208301919091526001600160a01b0316604082015260600190565b8015158114620010f757600080fdfe60806040523480156200001157600080fd5b50604051620011f3380380620011f3833981810160405260608110156200003757600080fd5b81019080805160405193929190846401000000008211156200005857600080fd5b9083019060208201858111156200006e57600080fd5b82516401000000008111828201881017156200008957600080fd5b82525081516020918201929091019080838360005b83811015620000b85781810151838201526020016200009e565b50505050905090810190601f168015620000e65780820380516001836020036101000a031916815260200191505b50604052602001805160405193929190846401000000008211156200010a57600080fd5b9083019060208201858111156200012057600080fd5b82516401000000008111828201881017156200013b57600080fd5b82525081516020918201929091019080838360005b838110156200016a57818101518382015260200162000150565b50505050905090810190601f168015620001985780820380516001836020036101000a031916815260200191505b5060405260209081015185519093508592508491620001bd9160039185019062000219565b508051620001d390600490602084019062000219565b5050600580546001600160a01b039390931661010090810233909102610100600160a81b031960ff199095166012178516179093169290921790915550620002c5915050565b828054600181600116156101000203166002900490600052602060002090601f0160209004810192826200025157600085556200029c565b82601f106200026c57805160ff19168380011785556200029c565b828001600101855582156200029c579182015b828111156200029c5782518255916020019190600101906200027f565b50620002aa929150620002ae565b5090565b5b80821115620002aa5760008155600101620002af565b610f1e80620002d56000396000f3fe608060405234801561001057600080fd5b506004361061010b5760003560e01c806370a08231116100a2578063a457c2d711610071578063a457c2d714610343578063a9059cbb1461036f578063c024cd261461039b578063dd62ed3e146103c7578063f2fde38b146103f55761010b565b806370a08231146102cb57806371297784146102f1578063893d20e81461031757806395d89b411461033b5761010b565b806323b872dd116100de57806323b872dd1461021f578063313ce56714610255578063395093511461027357806342986e131461029f5761010b565b806306fdde0314610110578063095ea7b31461018d5780630fb66557146101cd57806318160ddd14610205575b600080fd5b61011861041b565b6040805160208082528351818301528351919283929083019185019080838360005b8381101561015257818101518382015260200161013a565b50505050905090810190601f16801561017f5780820380516001836020036101000a031916815260200191505b509250505060405180910390f35b6101b9600480360360408110156101a357600080fd5b506001600160a01b0381351690602001356104b1565b604080519115158252519081900360200190f35b610203600480360360608110156101e357600080fd5b506001600160a01b038135811691602081013590911690604001356104ce565b005b61020d6104fa565b60408051918252519081900360200190f35b6101b96004803603606081101561023557600080fd5b506001600160a01b03813581169160208101359091169060400135610500565b61025d610587565b6040805160ff9092168252519081900360200190f35b6101b96004803603604081101561028957600080fd5b506001600160a01b038135169060200135610590565b610203600480360360408110156102b557600080fd5b506001600160a01b0381351690602001356105de565b61020d600480360360208110156102e157600080fd5b50356001600160a01b0316610608565b61020d6004803603602081101561030757600080fd5b50356001600160a01b0316610623565b61031f61065f565b604080516001600160a01b039092168252519081900360200190f35b610118610673565b6101b96004803603604081101561035957600080fd5b506001600160a01b0381351690602001356106d4565b6101b96004803603604081101561038557600080fd5b506001600160a01b03813516906020013561073c565b610203600480360360408110156103b157600080fd5b506001600160a01b038135169060200135610750565b61020d600480360360408110156103dd57600080fd5b506001600160a01b0381358116916020013516610776565b6101b96004803603602081101561040b57600080fd5b50356001600160a01b03166107a1565b60038054604080516020601f60026000196101006001881615020190951694909404938401819004810282018101909252828152606093909290918301828280156104a75780601f1061047c576101008083540402835291602001916104a7565b820191906000526020600020905b81548152906001019060200180831161048a57829003601f168201915b5050505050905090565b60006104c56104be610818565b848461081c565b50600192915050565b60055461010090046001600160a01b031633146104ea57600080fd5b6104f5838383610908565b505050565b60025490565b600061050d848484610908565b61057d84610519610818565b61057885604051806060016040528060288152602001610e32602891396001600160a01b038a16600090815260016020526040812090610557610818565b6001600160a01b031681526020810191909152604001600020549190610a63565b61081c565b5060019392505050565b60055460ff1690565b60006104c561059d610818565b8461057885600160006105ae610818565b6001600160a01b03908116825260208083019390935260409182016000908120918c168152925290205490610afa565b60055461010090046001600160a01b031633146105fa57600080fd5b6106048282610b5b565b5050565b6001600160a01b031660009081526020819052604090205490565b60055460009061010090046001600160a01b0316331461064257600080fd5b600061064d83610608565b90506106598382610b5b565b92915050565b60055461010090046001600160a01b031690565b60048054604080516020601f60026000196101006001881615020190951694909404938401819004810282018101909252828152606093909290918301828280156104a75780601f1061047c576101008083540402835291602001916104a7565b60006104c56106e1610818565b8461057885604051806060016040528060258152602001610ec4602591396001600061070b610818565b6001600160a01b03908116825260208083019390935260409182016000908120918d16815292529020549190610a63565b60006104c5610749610818565b8484610908565b60055461010090046001600160a01b0316331461076c57600080fd5b6106048282610c57565b6001600160a01b03918216600090815260016020908152604080832093909416825291909152205490565b60055460009061010090046001600160a01b031633146107c057600080fd5b6001600160a01b0382166107d357600080fd5b6005546107ee9061010090046001600160a01b031683610604565b50600580546001600160a01b03831661010002610100600160a81b03199091161790556001919050565b3390565b6001600160a01b0383166108615760405162461bcd60e51b8152600401808060200182810382526024815260200180610ea06024913960400191505060405180910390fd5b6001600160a01b0382166108a65760405162461bcd60e51b8152600401808060200182810382526022815260200180610dea6022913960400191505060405180910390fd5b6001600160a01b03808416600081815260016020908152604080832094871680845294825291829020859055815185815291517f8c5be1e5ebec7d5bd14f71427d1e84f3dd0314c0f7b2291e5b200ac8c7c3b9259281900390910190a3505050565b6001600160a01b03831661094d5760405162461bcd60e51b8152600401808060200182810382526025815260200180610e7b6025913960400191505060405180910390fd5b6001600160a01b0382166109925760405162461bcd60e51b8152600401808060200182810382526023815260200180610da56023913960400191505060405180910390fd5b61099d8383836104f5565b6109da81604051806060016040528060268152602001610e0c602691396001600160a01b0386166000908152602081905260409020549190610a63565b6001600160a01b038085166000908152602081905260408082209390935590841681522054610a099082610afa565b6001600160a01b038084166000818152602081815260409182902094909455805185815290519193928716927fddf252ad1be2c89b69c2b068fc378daa952ba7f163c4a11628f55a4df523b3ef92918290030190a3505050565b60008184841115610af25760405162461bcd60e51b81526004018080602001828103825283818151815260200191508051906020019080838360005b83811015610ab7578181015183820152602001610a9f565b50505050905090810190601f168015610ae45780820380516001836020036101000a031916815260200191505b509250505060405180910390fd5b505050900390565b600082820183811015610b54576040805162461bcd60e51b815260206004820152601b60248201527f536166654d6174683a206164646974696f6e206f766572666c6f770000000000604482015290519081900360640190fd5b9392505050565b6001600160a01b038216610ba05760405162461bcd60e51b8152600401808060200182810382526021815260200180610e5a6021913960400191505060405180910390fd5b610bac826000836104f5565b610be981604051806060016040528060228152602001610dc8602291396001600160a01b0385166000908152602081905260409020549190610a63565b6001600160a01b038316600090815260208190526040902055600254610c0f9082610d47565b6002556040805182815290516000916001600160a01b038516917fddf252ad1be2c89b69c2b068fc378daa952ba7f163c4a11628f55a4df523b3ef9181900360200190a35050565b6001600160a01b038216610cb2576040805162461bcd60e51b815260206004820152601f60248201527f45524332303a206d696e7420746f20746865207a65726f206164647265737300604482015290519081900360640190fd5b610cbe600083836104f5565b600254610ccb9082610afa565b6002556001600160a01b038216600090815260208190526040902054610cf19082610afa565b6001600160a01b0383166000818152602081815260408083209490945583518581529351929391927fddf252ad1be2c89b69c2b068fc378daa952ba7f163c4a11628f55a4df523b3ef9281900390910190a35050565b600082821115610d9e576040805162461bcd60e51b815260206004820152601e60248201527f536166654d6174683a207375627472616374696f6e206f766572666c6f770000604482015290519081900360640190fd5b5090039056fe45524332303a207472616e7366657220746f20746865207a65726f206164647265737345524332303a206275726e20616d6f756e7420657863656564732062616c616e636545524332303a20617070726f766520746f20746865207a65726f206164647265737345524332303a207472616e7366657220616d6f756e7420657863656564732062616c616e636545524332303a207472616e7366657220616d6f756e74206578636565647320616c6c6f77616e636545524332303a206275726e2066726f6d20746865207a65726f206164647265737345524332303a207472616e736665722066726f6d20746865207a65726f206164647265737345524332303a20617070726f76652066726f6d20746865207a65726f206164647265737345524332303a2064656372656173656420616c6c6f77616e63652062656c6f77207a65726fa2646970667358221220c881513fca5a75d47e02fc1c04920461b43ce001b23b37bd2a0244cb5b4737ce64736f6c63430007060033a2646970667358221220ffe4a1d9d4727d8db8c9e114723a3ea1b29d476000734b6df2696252e9fe933f64736f6c63430007060033",
  "devdoc": {
    "kind": "dev",
    "methods": {
      "transferOwnership(address)": {
        "details": "Allows the current owner to transfer control of the contract to a newOwner.",
        "params": {
          "_newOwner": "The address to transfer ownership to."
        }
      }
    },
    "version": 1
  },
  "userdoc": {
    "kind": "user",
    "methods": {},
    "version": 1
  },
  "storageLayout": {
    "storage": [
      {
        "astId": 5351,
        "contract": "contracts/turbo/SportsLinkMarketFactory.sol:SportsLinkMarketFactory",
        "label": "owner",
        "offset": 0,
        "slot": "0",
        "type": "t_address"
      },
      {
        "astId": 7633,
        "contract": "contracts/turbo/SportsLinkMarketFactory.sol:SportsLinkMarketFactory",
        "label": "collateral",
        "offset": 0,
        "slot": "1",
        "type": "t_contract(IERC20Full)5328"
      },
      {
        "astId": 7635,
        "contract": "contracts/turbo/SportsLinkMarketFactory.sol:SportsLinkMarketFactory",
        "label": "feePot",
        "offset": 0,
        "slot": "2",
        "type": "t_contract(FeePot)8754"
      },
      {
        "astId": 7637,
        "contract": "contracts/turbo/SportsLinkMarketFactory.sol:SportsLinkMarketFactory",
        "label": "stakerFee",
        "offset": 0,
        "slot": "3",
        "type": "t_uint256"
      },
      {
        "astId": 7639,
        "contract": "contracts/turbo/SportsLinkMarketFactory.sol:SportsLinkMarketFactory",
        "label": "settlementFee",
        "offset": 0,
        "slot": "4",
        "type": "t_uint256"
      },
      {
        "astId": 7641,
        "contract": "contracts/turbo/SportsLinkMarketFactory.sol:SportsLinkMarketFactory",
        "label": "protocolFee",
        "offset": 0,
        "slot": "5",
        "type": "t_uint256"
      },
      {
        "astId": 7643,
        "contract": "contracts/turbo/SportsLinkMarketFactory.sol:SportsLinkMarketFactory",
        "label": "protocol",
        "offset": 0,
        "slot": "6",
        "type": "t_address"
      },
      {
        "astId": 7646,
        "contract": "contracts/turbo/SportsLinkMarketFactory.sol:SportsLinkMarketFactory",
        "label": "accumulatedProtocolFee",
        "offset": 0,
        "slot": "7",
        "type": "t_uint256"
      },
      {
        "astId": 7650,
        "contract": "contracts/turbo/SportsLinkMarketFactory.sol:SportsLinkMarketFactory",
        "label": "accumulatedSettlementFees",
        "offset": 0,
        "slot": "8",
        "type": "t_mapping(t_address,t_uint256)"
      },
      {
        "astId": 7652,
        "contract": "contracts/turbo/SportsLinkMarketFactory.sol:SportsLinkMarketFactory",
        "label": "shareFactor",
        "offset": 0,
        "slot": "9",
        "type": "t_uint256"
      },
      {
        "astId": 7671,
        "contract": "contracts/turbo/SportsLinkMarketFactory.sol:SportsLinkMarketFactory",
        "label": "markets",
        "offset": 0,
        "slot": "10",
        "type": "t_array(t_struct(Market)7668_storage)dyn_storage"
      },
      {
        "astId": 9241,
        "contract": "contracts/turbo/SportsLinkMarketFactory.sol:SportsLinkMarketFactory",
        "label": "marketDetails",
        "offset": 0,
        "slot": "11",
        "type": "t_mapping(t_uint256,t_struct(MarketDetails)9237_storage)"
      },
      {
        "astId": 9247,
        "contract": "contracts/turbo/SportsLinkMarketFactory.sol:SportsLinkMarketFactory",
        "label": "events",
        "offset": 0,
        "slot": "12",
        "type": "t_mapping(t_uint256,t_array(t_uint256)3_storage)"
      },
      {
        "astId": 9249,
        "contract": "contracts/turbo/SportsLinkMarketFactory.sol:SportsLinkMarketFactory",
        "label": "linkNode",
        "offset": 0,
        "slot": "13",
        "type": "t_address"
      }
    ],
    "types": {
      "t_address": {
        "encoding": "inplace",
        "label": "address",
        "numberOfBytes": "20"
      },
      "t_array(t_contract(OwnedERC20)8861)dyn_storage": {
        "base": "t_contract(OwnedERC20)8861",
        "encoding": "dynamic_array",
        "label": "contract OwnedERC20[]",
        "numberOfBytes": "32"
      },
      "t_array(t_struct(Market)7668_storage)dyn_storage": {
        "base": "t_struct(Market)7668_storage",
        "encoding": "dynamic_array",
        "label": "struct AbstractMarketFactory.Market[]",
        "numberOfBytes": "32"
      },
      "t_array(t_uint256)3_storage": {
        "base": "t_uint256",
        "encoding": "inplace",
        "label": "uint256[3]",
        "numberOfBytes": "96"
      },
      "t_contract(FeePot)8754": {
        "encoding": "inplace",
        "label": "contract FeePot",
        "numberOfBytes": "20"
      },
      "t_contract(IERC20Full)5328": {
        "encoding": "inplace",
        "label": "contract IERC20Full",
        "numberOfBytes": "20"
      },
      "t_contract(OwnedERC20)8861": {
        "encoding": "inplace",
        "label": "contract OwnedERC20",
        "numberOfBytes": "20"
      },
      "t_enum(EventStatus)9222": {
        "encoding": "inplace",
        "label": "enum SportsLinkMarketFactory.EventStatus",
        "numberOfBytes": "1"
      },
      "t_enum(MarketType)9216": {
        "encoding": "inplace",
        "label": "enum SportsLinkMarketFactory.MarketType",
        "numberOfBytes": "1"
      },
      "t_int256": {
        "encoding": "inplace",
        "label": "int256",
        "numberOfBytes": "32"
      },
      "t_mapping(t_address,t_uint256)": {
        "encoding": "mapping",
        "key": "t_address",
        "label": "mapping(address => uint256)",
        "numberOfBytes": "32",
        "value": "t_uint256"
      },
      "t_mapping(t_uint256,t_array(t_uint256)3_storage)": {
        "encoding": "mapping",
        "key": "t_uint256",
        "label": "mapping(uint256 => uint256[3])",
        "numberOfBytes": "32",
        "value": "t_array(t_uint256)3_storage"
      },
      "t_mapping(t_uint256,t_struct(MarketDetails)9237_storage)": {
        "encoding": "mapping",
        "key": "t_uint256",
        "label": "mapping(uint256 => struct SportsLinkMarketFactory.MarketDetails)",
        "numberOfBytes": "32",
        "value": "t_struct(MarketDetails)9237_storage"
      },
      "t_struct(Market)7668_storage": {
        "encoding": "inplace",
        "label": "struct AbstractMarketFactory.Market",
        "members": [
          {
            "astId": 7654,
            "contract": "contracts/turbo/SportsLinkMarketFactory.sol:SportsLinkMarketFactory",
            "label": "settlementAddress",
            "offset": 0,
            "slot": "0",
            "type": "t_address"
          },
          {
            "astId": 7657,
            "contract": "contracts/turbo/SportsLinkMarketFactory.sol:SportsLinkMarketFactory",
            "label": "shareTokens",
            "offset": 0,
            "slot": "1",
            "type": "t_array(t_contract(OwnedERC20)8861)dyn_storage"
          },
          {
            "astId": 7659,
            "contract": "contracts/turbo/SportsLinkMarketFactory.sol:SportsLinkMarketFactory",
            "label": "endTime",
            "offset": 0,
            "slot": "2",
            "type": "t_uint256"
          },
          {
            "astId": 7661,
            "contract": "contracts/turbo/SportsLinkMarketFactory.sol:SportsLinkMarketFactory",
            "label": "winner",
            "offset": 0,
            "slot": "3",
            "type": "t_contract(OwnedERC20)8861"
          },
          {
            "astId": 7663,
            "contract": "contracts/turbo/SportsLinkMarketFactory.sol:SportsLinkMarketFactory",
            "label": "settlementFee",
            "offset": 0,
            "slot": "4",
            "type": "t_uint256"
          },
          {
            "astId": 7665,
            "contract": "contracts/turbo/SportsLinkMarketFactory.sol:SportsLinkMarketFactory",
            "label": "protocolFee",
            "offset": 0,
            "slot": "5",
            "type": "t_uint256"
          },
          {
            "astId": 7667,
            "contract": "contracts/turbo/SportsLinkMarketFactory.sol:SportsLinkMarketFactory",
            "label": "stakerFee",
            "offset": 0,
            "slot": "6",
            "type": "t_uint256"
          }
        ],
        "numberOfBytes": "224"
      },
      "t_struct(MarketDetails)9237_storage": {
        "encoding": "inplace",
        "label": "struct SportsLinkMarketFactory.MarketDetails",
        "members": [
          {
            "astId": 9224,
            "contract": "contracts/turbo/SportsLinkMarketFactory.sol:SportsLinkMarketFactory",
            "label": "eventId",
            "offset": 0,
            "slot": "0",
            "type": "t_uint256"
          },
          {
            "astId": 9226,
            "contract": "contracts/turbo/SportsLinkMarketFactory.sol:SportsLinkMarketFactory",
            "label": "homeTeamId",
            "offset": 0,
            "slot": "1",
            "type": "t_uint256"
          },
          {
            "astId": 9228,
            "contract": "contracts/turbo/SportsLinkMarketFactory.sol:SportsLinkMarketFactory",
            "label": "awayTeamId",
            "offset": 0,
            "slot": "2",
            "type": "t_uint256"
          },
          {
            "astId": 9230,
            "contract": "contracts/turbo/SportsLinkMarketFactory.sol:SportsLinkMarketFactory",
            "label": "estimatedStartTime",
            "offset": 0,
            "slot": "3",
            "type": "t_uint256"
          },
          {
            "astId": 9232,
            "contract": "contracts/turbo/SportsLinkMarketFactory.sol:SportsLinkMarketFactory",
            "label": "marketType",
            "offset": 0,
            "slot": "4",
            "type": "t_enum(MarketType)9216"
          },
          {
            "astId": 9234,
            "contract": "contracts/turbo/SportsLinkMarketFactory.sol:SportsLinkMarketFactory",
            "label": "eventStatus",
            "offset": 1,
            "slot": "4",
            "type": "t_enum(EventStatus)9222"
          },
          {
            "astId": 9236,
            "contract": "contracts/turbo/SportsLinkMarketFactory.sol:SportsLinkMarketFactory",
            "label": "value0",
            "offset": 0,
            "slot": "5",
            "type": "t_int256"
          }
        ],
        "numberOfBytes": "192"
      },
      "t_uint256": {
        "encoding": "inplace",
        "label": "uint256",
        "numberOfBytes": "32"
      }
    }
  }
}