{
  "_format": "hh-sol-artifact-1",
  "contractName": "FeePot",
  "sourceName": "contracts/augur-para/FeePot.sol",
  "abi": [
    {
      "inputs": [
        {
          "internalType": "contract IERC20",
          "name": "_collateral",
          "type": "address"
        },
        {
          "internalType": "contract IERC20DynamicSymbol",
          "name": "_reputationToken",
          "type": "address"
        }
      ],
      "stateMutability": "nonpayable",
      "type": "constructor"
    },
    {
      "anonymous": false,
      "inputs": [
        {
          "indexed": true,
          "internalType": "address",
          "name": "owner",
          "type": "address"
        },
        {
          "indexed": true,
          "internalType": "address",
          "name": "spender",
          "type": "address"
        },
        {
          "indexed": false,
          "internalType": "uint256",
          "name": "value",
          "type": "uint256"
        }
      ],
      "name": "Approval",
      "type": "event"
    },
    {
      "anonymous": false,
      "inputs": [
        {
          "indexed": true,
          "internalType": "address",
          "name": "from",
          "type": "address"
        },
        {
          "indexed": true,
          "internalType": "address",
          "name": "to",
          "type": "address"
        },
        {
          "indexed": false,
          "internalType": "uint256",
          "name": "value",
          "type": "uint256"
        }
      ],
      "name": "Transfer",
      "type": "event"
    },
    {
      "inputs": [
        {
          "internalType": "address",
          "name": "_owner",
          "type": "address"
        },
        {
          "internalType": "address",
          "name": "_spender",
          "type": "address"
        }
      ],
      "name": "allowance",
      "outputs": [
        {
          "internalType": "uint256",
          "name": "",
          "type": "uint256"
        }
      ],
      "stateMutability": "view",
      "type": "function"
    },
    {
      "inputs": [
        {
          "internalType": "address",
          "name": "",
          "type": "address"
        },
        {
          "internalType": "address",
          "name": "",
          "type": "address"
        }
      ],
      "name": "allowances",
      "outputs": [
        {
          "internalType": "uint256",
          "name": "",
          "type": "uint256"
        }
      ],
      "stateMutability": "view",
      "type": "function"
    },
    {
      "inputs": [
        {
          "internalType": "address",
          "name": "_spender",
          "type": "address"
        },
        {
          "internalType": "uint256",
          "name": "_amount",
          "type": "uint256"
        }
      ],
      "name": "approve",
      "outputs": [
        {
          "internalType": "bool",
          "name": "",
          "type": "bool"
        }
      ],
      "stateMutability": "nonpayable",
      "type": "function"
    },
    {
      "inputs": [
        {
          "internalType": "address",
          "name": "_account",
          "type": "address"
        }
      ],
      "name": "balanceOf",
      "outputs": [
        {
          "internalType": "uint256",
          "name": "",
          "type": "uint256"
        }
      ],
      "stateMutability": "view",
      "type": "function"
    },
    {
      "inputs": [
        {
          "internalType": "address",
          "name": "",
          "type": "address"
        }
      ],
      "name": "balances",
      "outputs": [
        {
          "internalType": "uint256",
          "name": "",
          "type": "uint256"
        }
      ],
      "stateMutability": "view",
      "type": "function"
    },
    {
      "inputs": [],
      "name": "collateral",
      "outputs": [
        {
          "internalType": "contract IERC20",
          "name": "",
          "type": "address"
        }
      ],
      "stateMutability": "view",
      "type": "function"
    },
    {
      "inputs": [],
      "name": "decimals",
      "outputs": [
        {
          "internalType": "uint8",
          "name": "",
          "type": "uint8"
        }
      ],
      "stateMutability": "view",
      "type": "function"
    },
    {
      "inputs": [
        {
          "internalType": "address",
          "name": "_spender",
          "type": "address"
        },
        {
          "internalType": "uint256",
          "name": "_subtractedValue",
          "type": "uint256"
        }
      ],
      "name": "decreaseAllowance",
      "outputs": [
        {
          "internalType": "bool",
          "name": "",
          "type": "bool"
        }
      ],
      "stateMutability": "nonpayable",
      "type": "function"
    },
    {
      "inputs": [
        {
          "internalType": "uint256",
          "name": "_amount",
          "type": "uint256"
        }
      ],
      "name": "depositFees",
      "outputs": [
        {
          "internalType": "bool",
          "name": "",
          "type": "bool"
        }
      ],
      "stateMutability": "nonpayable",
      "type": "function"
    },
    {
      "inputs": [
        {
          "internalType": "address",
          "name": "_owner",
          "type": "address"
        }
      ],
      "name": "earnedFeesOf",
      "outputs": [
        {
          "internalType": "uint256",
          "name": "",
          "type": "uint256"
        }
      ],
      "stateMutability": "view",
      "type": "function"
    },
    {
      "inputs": [
        {
          "internalType": "uint256",
          "name": "_amount",
          "type": "uint256"
        }
      ],
      "name": "exit",
      "outputs": [
        {
          "internalType": "bool",
          "name": "",
          "type": "bool"
        }
      ],
      "stateMutability": "nonpayable",
      "type": "function"
    },
    {
      "inputs": [],
      "name": "feeReserve",
      "outputs": [
        {
          "internalType": "uint256",
          "name": "",
          "type": "uint256"
        }
      ],
      "stateMutability": "view",
      "type": "function"
    },
    {
      "inputs": [
        {
          "internalType": "address",
          "name": "_spender",
          "type": "address"
        },
        {
          "internalType": "uint256",
          "name": "_addedValue",
          "type": "uint256"
        }
      ],
      "name": "increaseAllowance",
      "outputs": [
        {
          "internalType": "bool",
          "name": "",
          "type": "bool"
        }
      ],
      "stateMutability": "nonpayable",
      "type": "function"
    },
    {
      "inputs": [
        {
          "internalType": "address",
          "name": "",
          "type": "address"
        }
      ],
      "name": "magnifiedFeesCorrections",
      "outputs": [
        {
          "internalType": "uint256",
          "name": "",
          "type": "uint256"
        }
      ],
      "stateMutability": "view",
      "type": "function"
    },
    {
      "inputs": [],
      "name": "magnifiedFeesPerShare",
      "outputs": [
        {
          "internalType": "uint256",
          "name": "",
          "type": "uint256"
        }
      ],
      "stateMutability": "view",
      "type": "function"
    },
    {
      "inputs": [],
      "name": "redeem",
      "outputs": [
        {
          "internalType": "bool",
          "name": "",
          "type": "bool"
        }
      ],
      "stateMutability": "nonpayable",
      "type": "function"
    },
    {
      "inputs": [],
      "name": "reputationToken",
      "outputs": [
        {
          "internalType": "contract IERC20DynamicSymbol",
          "name": "",
          "type": "address"
        }
      ],
      "stateMutability": "view",
      "type": "function"
    },
    {
      "inputs": [
        {
          "internalType": "uint256",
          "name": "_amount",
          "type": "uint256"
        }
      ],
      "name": "stake",
      "outputs": [
        {
          "internalType": "bool",
          "name": "",
          "type": "bool"
        }
      ],
      "stateMutability": "nonpayable",
      "type": "function"
    },
    {
      "inputs": [
        {
          "internalType": "address",
          "name": "",
          "type": "address"
        }
      ],
      "name": "storedFees",
      "outputs": [
        {
          "internalType": "uint256",
          "name": "",
          "type": "uint256"
        }
      ],
      "stateMutability": "view",
      "type": "function"
    },
    {
      "inputs": [],
      "name": "symbol",
      "outputs": [
        {
          "internalType": "string",
          "name": "",
          "type": "string"
        }
      ],
      "stateMutability": "view",
      "type": "function"
    },
    {
      "inputs": [],
      "name": "totalSupply",
      "outputs": [
        {
          "internalType": "uint256",
          "name": "",
          "type": "uint256"
        }
      ],
      "stateMutability": "view",
      "type": "function"
    },
    {
      "inputs": [
        {
          "internalType": "address",
          "name": "_recipient",
          "type": "address"
        },
        {
          "internalType": "uint256",
          "name": "_amount",
          "type": "uint256"
        }
      ],
      "name": "transfer",
      "outputs": [
        {
          "internalType": "bool",
          "name": "",
          "type": "bool"
        }
      ],
      "stateMutability": "nonpayable",
      "type": "function"
    },
    {
      "inputs": [
        {
          "internalType": "address",
          "name": "_sender",
          "type": "address"
        },
        {
          "internalType": "address",
          "name": "_recipient",
          "type": "address"
        },
        {
          "internalType": "uint256",
          "name": "_amount",
          "type": "uint256"
        }
      ],
      "name": "transferFrom",
      "outputs": [
        {
          "internalType": "bool",
          "name": "",
          "type": "bool"
        }
      ],
      "stateMutability": "nonpayable",
      "type": "function"
    },
    {
      "inputs": [
        {
          "internalType": "address",
          "name": "_owner",
          "type": "address"
        }
      ],
      "name": "withdrawableFeesOf",
      "outputs": [
        {
          "internalType": "uint256",
          "name": "",
          "type": "uint256"
        }
      ],
      "stateMutability": "view",
      "type": "function"
    }
  ],
  "bytecode": "0x60806040523480156200001c5760008062000019620000fa565b50505b5060405162001d6338038062001d63833981810160405260408110156200004d576000806200004a620000fa565b50505b81019080805192919060200180519250839150600390506001816200007162000167565b816001600160a01b0302191690836001600160a01b031602179062000095620001c9565b50505080600460006101000a81620000ac62000167565b816001600160a01b0302191690836001600160a01b0316021790620000d0620001c9565b5050506001600160a01b038216620000f257600080620000ef620000fa565b50505b505062000218565b632a2a7adb598160e01b8152600481016020815285602082015260005b868110156200013457808601518282016040015260200162000117565b506020828760640184336000905af158600e01573d6000803e3d6000fd5b3d6001141558600a015760016000f35b505050565b6303daa959598160e01b8152836004820152602081602483336000905af158600e01573d6000803e3d6000fd5b3d6001141558600a015760016000f35b8051935060005b6040811015620001c457600082820152602001620001ab565b505050565b6322bd64c0598160e01b8152836004820152846024820152600081604483336000905af158600e01573d6000803e3d6000fd5b3d6001141558600a015760016000f35b600081526020620001ab565b611b3b80620002286000396000f3fe608060405234801561001957600080610016611734565b50505b50600436106101615760003560e01c8063789ff0e1116100cc578063a9059cbb11610085578063a9059cbb146104ba578063be040fb0146104ef578063d083a7a9146104f7578063d8dfeb4514610526578063dd62ed3e1461052e578063ebdac0901461056557610161565b8063789ff0e1146103835780637f8661a11461038b57806382005d86146103b157806395d89b41146103e0578063a457c2d71461045f578063a694fc3a1461049457610161565b8063313ce5671161011e578063313ce56714610293578063341d302f146102b157806339509351146102b957806349d2a4e6146102ee57806355b6ed5c1461031d57806370a082311461035457610161565b8063095ea7b31461016f578063125c1204146101b857806318160ddd146101f957806323b872dd14610201578063275bbe9b1461024057806327e235e314610264575b60008061016c611734565b50505b6101a46004803603604081101561018e5760008061018b611734565b50505b506001600160a01b03813516906020013561058b565b604051901515815260200160405180910390f35b6101e7600480360360208110156101d7576000806101d4611734565b50505b50356001600160a01b03166105aa565b60405190815260200160405180910390f35b6101e76105c5565b6101a4600480360360608110156102205760008061021d611734565b50505b506001600160a01b038135811691602081013590911690604001356105d5565b610248610655565b6040516001600160a01b03909116815260200160405180910390f35b6101e76004803603602081101561028357600080610280611734565b50505b50356001600160a01b0316610674565b61029b61068c565b60405160ff909116815260200160405180910390f35b6101e7610691565b6101a4600480360360408110156102d8576000806102d5611734565b50505b506001600160a01b03813516906020013561069b565b6101e76004803603602081101561030d5760008061030a611734565b50505b50356001600160a01b0316610702565b6101e76004803603604081101561033c57600080610339611734565b50505b506001600160a01b038135811691602001351661071a565b6101e76004803603602081101561037357600080610370611734565b50505b50356001600160a01b0316610740565b6101e7610768565b6101a4600480360360208110156103aa576000806103a7611734565b50505b5035610772565b6101e7600480360360208110156103d0576000806103cd611734565b50505b50356001600160a01b03166108dc565b6103e8610908565b60405160208082528190810183818151815260200191508051906020019080838360005b8381101561042457808201518382015260200161040c565b50505050905090810190601f1680156104515780820380516001836020036101000a031916815260200191505b509250505060405180910390f35b6101a46004803603604081101561047e5760008061047b611734565b50505b506001600160a01b038135169060200135610b0a565b6101a4600480360360208110156104b3576000806104b0611734565b50505b5035610b6b565b6101a4600480360360408110156104d9576000806104d6611734565b50505b506001600160a01b038135169060200135610d07565b6101a4610d1c565b6101e76004803603602081101561051657600080610513611734565b50505b50356001600160a01b0316610d7a565b610248610ddc565b6101e76004803603604081101561054d5760008061054a611734565b50505b506001600160a01b0381358116916020013516610de8565b6101a46004803603602081101561058457600080610581611734565b50505b5035610e28565b60006105a05a61059961179f565b848461101a565b5060015b92915050565b600760205280600052604060002090506105c26117f4565b81565b6000806105d06117f4565b905090565b60006105e2848484611142565b61064b845a6105ef61179f565b6001600160a01b038716600090815260026020526106469086906040902060005a61061861179f565b6001600160a01b03166001600160a01b031681526020019081526020016000206106406117f4565b9061122a565b61101a565b5060019392505050565b600060046106616117f4565b906101000a90046001600160a01b031681565b600160205280600052604060002090506105c26117f4565b601290565b60056105c26117f4565b60006105a05a6106a961179f565b8461064685600260005a6106bb61179f565b6001600160a01b03166001600160a01b031681526020019081526020016000206001600160a01b0389166000908152602091909152604090206106fc6117f4565b90611248565b600660205280600052604060002090506105c26117f4565b600260205281600052604060002060205280600052604060002091506105c290506117f4565b6001600160a01b03811660009081526001602052604081206107606117f4565b90505b919050565b60086105c26117f4565b60006107855a61078061179f565b611269565b6107975a61079161179f565b8361137c565b600060046107a36117f4565b906101000a90046001600160a01b03166001600160a01b031663a9059cbb5a6107ca61179f565b846040516001600160e01b031960e085901b1681526001600160a01b03909216600483015260248201526044016020604051808303816000878061080c611840565b1580156108215760008061081e611734565b50505b505a61082b61188c565b50505050505015801561084b573d6000803e3d6000610848611734565b50505b505050506040513d602081101561086a57600080610867611734565b50505b8101908080515061089a925061088a9150505a61088561179f565b610740565b60056108946117f4565b90611475565b600660005a6108a761179f565b6001600160a01b03166001600160a01b0316815260200190815260200160002081906108d1611977565b506001949350505050565b6001600160a01b03811660009081526007602052610760604082206108ff6117f4565b6106fc84610d7a565b6060600060046109166117f4565b906101000a90046001600160a01b03166001600160a01b03166395d89b416040518163ffffffff1660e01b81526004016000604051808303818680610959611840565b15801561096e5760008061096b611734565b50505b505a6109786119c5565b5050505050158015610997573d6000803e3d6000610994611734565b50505b505050506040513d6000823e601f3d908101601f1916820160405260208110156109c9576000806109c6611734565b50505b81019080805160405193929190846401000000008211156109f2576000806109ef611734565b50505b908301906020820185811115610a1057600080610a0d611734565b50505b8251640100000000811182820188101715610a3357600080610a30611734565b50505b825250602001908051906020019080838360005b83811015610a5f578082015183820152602001610a47565b50505050905090810190601f168015610a8c5780820380516001836020036101000a031916815260200191505b50604052505050604051602001808061535f60f01b81525060020182805190602001908083835b60208310610ad25780518252601f199092019160209182019101610ab3565b6001836020036101000a0380198251168184511617909252505050919091019250604091505051602081830303815290604052905090565b60006105a05a610b1861179f565b8461064685600260005a610b2a61179f565b6001600160a01b03166001600160a01b031681526020019081526020016000206001600160a01b0389166000908152602091909152604090206106406117f4565b6000806004610b786117f4565b906101000a90046001600160a01b03166001600160a01b03166323b872dd5a610b9f61179f565b5a63996d79a5598160e01b8152602081600483336000905af158600e01573d6000803e3d6000fd5b3d6001141558600a015760016000f35b8051925060005b6040811015610bf557600082820152602001610bde565b505050856040516001600160e01b031960e086901b1681526001600160a01b039384166004820152919092166024820152604481019190915260640160206040518083038160008780610c46611840565b158015610c5b57600080610c58611734565b50505b505a610c6561188c565b505050505050158015610c85573d6000803e3d6000610c82611734565b50505b505050506040513d6020811015610ca457600080610ca1611734565b50505b81019080805150610cc1925050505a610cbb61179f565b836114a2565b61089a610cd28360056108946117f4565b600660005a610cdf61179f565b6001600160a01b03166001600160a01b031681526020019081526020016000206106fc6117f4565b60006105a05a610d1561179f565b8484611142565b6000610d2a5a61078061179f565b610d3961088a5a61088561179f565b600660005a610d4661179f565b6001600160a01b03166001600160a01b031681526020019081526020016000208190610d70611977565b5050506001905090565b600080610d8683610740565b90506000610d988260056108946117f4565b6001600160a01b03851660009081526006602052909150600160801b90610dcc9060409020610dc56117f4565b839061122a565b81610dd357fe5b04949350505050565b600060036106616117f4565b6001600160a01b03821660009081526002602052604081206001600160a01b038316600090815260209190915260409020610e216117f4565b9392505050565b6000806003610e356117f4565b906101000a90046001600160a01b03166001600160a01b03166323b872dd5a610e5c61179f565b5a63996d79a5598160e01b8152602081600483336000905af158600e01573d6000803e3d6000fd5b3d6001141558600a015760016000f35b8051925060005b6040811015610eb257600082820152602001610e9b565b505050856040516001600160e01b031960e086901b1681526001600160a01b039384166004820152919092166024820152604481019190915260640160206040518083038160008780610f03611840565b158015610f1857600080610f15611734565b50505b505a610f2261188c565b505050505050158015610f42573d6000803e3d6000610f3f611734565b50505b505050506040513d6020811015610f6157600080610f5e611734565b50505b8101908080515060009250829150610f7990506117f4565b905080610fa657610f8e8360086106fc6117f4565b806008610f99611977565b5050506001915050610763565b60006008610fb26117f4565b1115610fdf57610fcc6008610fc56117f4565b8490611248565b92506000806008610fdb611977565b5050505b61100381610ff185600160801b611475565b81610ff857fe5b0460056106fc6117f4565b80600561100e611977565b50600195945050505050565b6001600160a01b0383166110685760405162461bcd60e51b8152600401808060200182810382526024815260200180611b176024913960400191505060405180910390611065611734565b50505b6001600160a01b0382166110b65760405162461bcd60e51b8152600401808060200182810382526022815260200180611aaf60229139604001915050604051809103906110b3611734565b50505b6001600160a01b038316600090815260026020528190604090206001600160a01b03841660009081526020919091526040902081906110f3611977565b505050816001600160a01b0316836001600160a01b03167f8c5be1e5ebec7d5bd14f71427d1e84f3dd0314c0f7b2291e5b200ac8c7c3b9258360405190815260200160405180910390a3505050565b61116e61114e84610d7a565b6001600160a01b03851660009081526007602052604090206106fc6117f4565b6001600160a01b03841660009081526007602052604090208190611190611977565b50505061119e8383836115af565b6111aa61088a84610740565b6001600160a01b038416600090815260066020526040902081906111cc611977565b5050506112006111e08260056108946117f4565b6001600160a01b03841660009081526006602052604090206106fc6117f4565b6001600160a01b03831660009081526006602052604090208190611222611977565b505050505050565b6000828211156112425760008061123f611734565b50505b50900390565b600082820183811015610e2157600080611260611734565b50509392505050565b6000611274826108dc565b90508015611378576001600160a01b0382166000908152600760205260408120819061129e611977565b50505060036000906112ae6117f4565b906101000a90046001600160a01b03166001600160a01b031663a9059cbb83836040516001600160e01b031960e085901b1681526001600160a01b03909216600483015260248201526044016020604051808303816000878061130f611840565b15801561132457600080611321611734565b50505b505a61132e61188c565b50505050505015801561134e573d6000803e3d600061134b611734565b50505b505050506040513d602081101561136d5760008061136a611734565b50505b810190808051505050505b5050565b6001600160a01b0382166113ca5760405162461bcd60e51b8152600401808060200182810382526021815260200180611ad160219139604001915050604051809103906113c7611734565b50505b6001600160a01b038216600090815260016020526113f0908290604090206106406117f4565b6001600160a01b03831660009081526001602052604090208190611412611977565b5050506114238160006106406117f4565b80600061142e611977565b5060009150506001600160a01b0383167fddf252ad1be2c89b69c2b068fc378daa952ba7f163c4a11628f55a4df523b3ef8360405190815260200160405180910390a35050565b600082611484575060006105a4565b8282028284828161149157fe5b0414610e2157600080611260611734565b6001600160a01b0382166115055760405162461bcd60e51b815260206004820152601f60248201527f45524332303a206d696e7420746f20746865207a65726f206164647265737300604482015260640160405180910390611502611734565b50505b6115138160006106fc6117f4565b80600061151e611977565b5050506001600160a01b03821660009081526001602052611547908290604090206106fc6117f4565b6001600160a01b03831660009081526001602052604090208190611569611977565b5050506001600160a01b03821660007fddf252ad1be2c89b69c2b068fc378daa952ba7f163c4a11628f55a4df523b3ef8360405190815260200160405180910390a35050565b6001600160a01b0383166115fd5760405162461bcd60e51b8152600401808060200182810382526025815260200180611af260259139604001915050604051809103906115fa611734565b50505b6001600160a01b03821661164b5760405162461bcd60e51b8152600401808060200182810382526023815260200180611a8c6023913960400191505060405180910390611648611734565b50505b6001600160a01b03831660009081526001602052611671908290604090206106406117f4565b6001600160a01b03841660009081526001602052604090208190611693611977565b5050506001600160a01b038216600090815260016020526116bc908290604090206106fc6117f4565b6001600160a01b038316600090815260016020526040902081906116de611977565b505050816001600160a01b0316836001600160a01b03167fddf252ad1be2c89b69c2b068fc378daa952ba7f163c4a11628f55a4df523b3ef8360405190815260200160405180910390a361172f8383835b505050565b632a2a7adb598160e01b8152600481016020815285602082015260005b8681101561176c578086015182820160400152602001611751565b506020828760640184336000905af158600e01573d6000803e3d6000fd5b3d6001141558600a015760016000f35b505050565b6373509064598160e01b8152602081600483336000905af158600e01573d6000803e3d6000fd5b3d6001141558600a015760016000f35b8051935060005b604081101561172f576000828201526020016117dd565b6303daa959598160e01b8152836004820152602081602483336000905af158600e01573d6000803e3d6000fd5b3d6001141558600a015760016000f35b805160008252935060206117dd565b638435035b598160e01b8152836004820152602081602483336000905af158600e01573d6000803e3d6000fd5b3d6001141558600a015760016000f35b805160008252935060206117dd565b6385979f76598160e01b81526118bd565b80808311156105a4575090919050565b80808310156105a4575090919050565b836004820152846024820152606060448201528760648201526084810160005b898110156118f55780890151828201526020016118dd565b506060828a60a40184336000905af158600e01573d6000803e3d6000fd5b3d6001141558600a015760016000f35b815160408301513d6000853e8c8c82606087013350600060045af1505961194a8e3d6118ad565b8d01611956818761189d565b5b8281101561196b5760008152602001611957565b50929d50505050505050565b6322bd64c0598160e01b8152836004820152846024820152600081604483336000905af158600e01573d6000803e3d6000fd5b3d6001141558600a015760016000f35b6000815260206117dd565b638540661f598160e01b8152836004820152846024820152606060448201528660648201526084810160005b88811015611a095780880151828201526020016119f1565b506060828960a40184336000905af158600e01573d6000803e3d6000fd5b3d6001141558600a015760016000f35b815160408301513d6000853e8b8b82606087013350600060045af15059611a5e8d3d6118ad565b8c01611a6a818761189d565b5b82811015611a7f5760008152602001611a6b565b50929c5050505050505056fe45524332303a207472616e7366657220746f20746865207a65726f206164647265737345524332303a20617070726f766520746f20746865207a65726f206164647265737345524332303a206275726e2066726f6d20746865207a65726f206164647265737345524332303a207472616e736665722066726f6d20746865207a65726f206164647265737345524332303a20617070726f76652066726f6d20746865207a65726f2061646472657373",
  "linkReferences": {},
  "deployedLinkReferences": {}
}