{
  "_format": "hh-sol-artifact-1",
  "contractName": "FeePot",
  "sourceName": "contracts/augur-para/FeePot.sol",
  "abi": [
    {
      "inputs": [
        {
          "internalType": "contract IERC20",
          "name": "_collateral",
          "type": "address"
        },
        {
          "internalType": "contract IERC20DynamicSymbol",
          "name": "_reputationToken",
          "type": "address"
        }
      ],
      "stateMutability": "nonpayable",
      "type": "constructor"
    },
    {
      "anonymous": false,
      "inputs": [
        {
          "indexed": true,
          "internalType": "address",
          "name": "owner",
          "type": "address"
        },
        {
          "indexed": true,
          "internalType": "address",
          "name": "spender",
          "type": "address"
        },
        {
          "indexed": false,
          "internalType": "uint256",
          "name": "value",
          "type": "uint256"
        }
      ],
      "name": "Approval",
      "type": "event"
    },
    {
      "anonymous": false,
      "inputs": [
        {
          "indexed": true,
          "internalType": "address",
          "name": "from",
          "type": "address"
        },
        {
          "indexed": true,
          "internalType": "address",
          "name": "to",
          "type": "address"
        },
        {
          "indexed": false,
          "internalType": "uint256",
          "name": "value",
          "type": "uint256"
        }
      ],
      "name": "Transfer",
      "type": "event"
    },
    {
      "inputs": [
        {
          "internalType": "address",
          "name": "_owner",
          "type": "address"
        },
        {
          "internalType": "address",
          "name": "_spender",
          "type": "address"
        }
      ],
      "name": "allowance",
      "outputs": [
        {
          "internalType": "uint256",
          "name": "",
          "type": "uint256"
        }
      ],
      "stateMutability": "view",
      "type": "function"
    },
    {
      "inputs": [
        {
          "internalType": "address",
          "name": "",
          "type": "address"
        },
        {
          "internalType": "address",
          "name": "",
          "type": "address"
        }
      ],
      "name": "allowances",
      "outputs": [
        {
          "internalType": "uint256",
          "name": "",
          "type": "uint256"
        }
      ],
      "stateMutability": "view",
      "type": "function"
    },
    {
      "inputs": [
        {
          "internalType": "address",
          "name": "_spender",
          "type": "address"
        },
        {
          "internalType": "uint256",
          "name": "_amount",
          "type": "uint256"
        }
      ],
      "name": "approve",
      "outputs": [
        {
          "internalType": "bool",
          "name": "",
          "type": "bool"
        }
      ],
      "stateMutability": "nonpayable",
      "type": "function"
    },
    {
      "inputs": [
        {
          "internalType": "address",
          "name": "_account",
          "type": "address"
        }
      ],
      "name": "balanceOf",
      "outputs": [
        {
          "internalType": "uint256",
          "name": "",
          "type": "uint256"
        }
      ],
      "stateMutability": "view",
      "type": "function"
    },
    {
      "inputs": [
        {
          "internalType": "address",
          "name": "",
          "type": "address"
        }
      ],
      "name": "balances",
      "outputs": [
        {
          "internalType": "uint256",
          "name": "",
          "type": "uint256"
        }
      ],
      "stateMutability": "view",
      "type": "function"
    },
    {
      "inputs": [],
      "name": "collateral",
      "outputs": [
        {
          "internalType": "contract IERC20",
          "name": "",
          "type": "address"
        }
      ],
      "stateMutability": "view",
      "type": "function"
    },
    {
      "inputs": [],
      "name": "decimals",
      "outputs": [
        {
          "internalType": "uint8",
          "name": "",
          "type": "uint8"
        }
      ],
      "stateMutability": "view",
      "type": "function"
    },
    {
      "inputs": [
        {
          "internalType": "address",
          "name": "_spender",
          "type": "address"
        },
        {
          "internalType": "uint256",
          "name": "_subtractedValue",
          "type": "uint256"
        }
      ],
      "name": "decreaseAllowance",
      "outputs": [
        {
          "internalType": "bool",
          "name": "",
          "type": "bool"
        }
      ],
      "stateMutability": "nonpayable",
      "type": "function"
    },
    {
      "inputs": [
        {
          "internalType": "uint256",
          "name": "_amount",
          "type": "uint256"
        }
      ],
      "name": "depositFees",
      "outputs": [
        {
          "internalType": "bool",
          "name": "",
          "type": "bool"
        }
      ],
      "stateMutability": "nonpayable",
      "type": "function"
    },
    {
      "inputs": [
        {
          "internalType": "address",
          "name": "_owner",
          "type": "address"
        }
      ],
      "name": "earnedFeesOf",
      "outputs": [
        {
          "internalType": "uint256",
          "name": "",
          "type": "uint256"
        }
      ],
      "stateMutability": "view",
      "type": "function"
    },
    {
      "inputs": [
        {
          "internalType": "uint256",
          "name": "_amount",
          "type": "uint256"
        }
      ],
      "name": "exit",
      "outputs": [
        {
          "internalType": "bool",
          "name": "",
          "type": "bool"
        }
      ],
      "stateMutability": "nonpayable",
      "type": "function"
    },
    {
      "inputs": [],
      "name": "feeReserve",
      "outputs": [
        {
          "internalType": "uint256",
          "name": "",
          "type": "uint256"
        }
      ],
      "stateMutability": "view",
      "type": "function"
    },
    {
      "inputs": [
        {
          "internalType": "address",
          "name": "_spender",
          "type": "address"
        },
        {
          "internalType": "uint256",
          "name": "_addedValue",
          "type": "uint256"
        }
      ],
      "name": "increaseAllowance",
      "outputs": [
        {
          "internalType": "bool",
          "name": "",
          "type": "bool"
        }
      ],
      "stateMutability": "nonpayable",
      "type": "function"
    },
    {
      "inputs": [
        {
          "internalType": "address",
          "name": "",
          "type": "address"
        }
      ],
      "name": "magnifiedFeesCorrections",
      "outputs": [
        {
          "internalType": "uint256",
          "name": "",
          "type": "uint256"
        }
      ],
      "stateMutability": "view",
      "type": "function"
    },
    {
      "inputs": [],
      "name": "magnifiedFeesPerShare",
      "outputs": [
        {
          "internalType": "uint256",
          "name": "",
          "type": "uint256"
        }
      ],
      "stateMutability": "view",
      "type": "function"
    },
    {
      "inputs": [],
      "name": "redeem",
      "outputs": [
        {
          "internalType": "bool",
          "name": "",
          "type": "bool"
        }
      ],
      "stateMutability": "nonpayable",
      "type": "function"
    },
    {
      "inputs": [],
      "name": "reputationToken",
      "outputs": [
        {
          "internalType": "contract IERC20DynamicSymbol",
          "name": "",
          "type": "address"
        }
      ],
      "stateMutability": "view",
      "type": "function"
    },
    {
      "inputs": [
        {
          "internalType": "uint256",
          "name": "_amount",
          "type": "uint256"
        }
      ],
      "name": "stake",
      "outputs": [
        {
          "internalType": "bool",
          "name": "",
          "type": "bool"
        }
      ],
      "stateMutability": "nonpayable",
      "type": "function"
    },
    {
      "inputs": [
        {
          "internalType": "address",
          "name": "",
          "type": "address"
        }
      ],
      "name": "storedFees",
      "outputs": [
        {
          "internalType": "uint256",
          "name": "",
          "type": "uint256"
        }
      ],
      "stateMutability": "view",
      "type": "function"
    },
    {
      "inputs": [],
      "name": "symbol",
      "outputs": [
        {
          "internalType": "string",
          "name": "",
          "type": "string"
        }
      ],
      "stateMutability": "view",
      "type": "function"
    },
    {
      "inputs": [],
      "name": "totalSupply",
      "outputs": [
        {
          "internalType": "uint256",
          "name": "",
          "type": "uint256"
        }
      ],
      "stateMutability": "view",
      "type": "function"
    },
    {
      "inputs": [
        {
          "internalType": "address",
          "name": "_recipient",
          "type": "address"
        },
        {
          "internalType": "uint256",
          "name": "_amount",
          "type": "uint256"
        }
      ],
      "name": "transfer",
      "outputs": [
        {
          "internalType": "bool",
          "name": "",
          "type": "bool"
        }
      ],
      "stateMutability": "nonpayable",
      "type": "function"
    },
    {
      "inputs": [
        {
          "internalType": "address",
          "name": "_sender",
          "type": "address"
        },
        {
          "internalType": "address",
          "name": "_recipient",
          "type": "address"
        },
        {
          "internalType": "uint256",
          "name": "_amount",
          "type": "uint256"
        }
      ],
      "name": "transferFrom",
      "outputs": [
        {
          "internalType": "bool",
          "name": "",
          "type": "bool"
        }
      ],
      "stateMutability": "nonpayable",
      "type": "function"
    },
    {
      "inputs": [
        {
          "internalType": "address",
          "name": "_owner",
          "type": "address"
        }
      ],
      "name": "withdrawableFeesOf",
      "outputs": [
        {
          "internalType": "uint256",
          "name": "",
          "type": "uint256"
        }
      ],
      "stateMutability": "view",
      "type": "function"
    }
  ],
  "bytecode": "0x608060405234801561001057600080fd5b506040516112913803806112918339818101604052604081101561003357600080fd5b508051602090910151600380546001600160a01b038085166001600160a01b03199283168117909355600480549185169190921617905561007357600080fd5b505061120d806100846000396000f3fe608060405234801561001057600080fd5b50600436106101585760003560e01c8063789ff0e1116100c3578063a9059cbb1161007c578063a9059cbb1461043a578063be040fb014610466578063d083a7a91461046e578063d8dfeb4514610494578063dd62ed3e1461049c578063ebdac090146104ca57610158565b8063789ff0e1146103295780637f8661a11461033157806382005d861461034e57806395d89b4114610374578063a457c2d7146103f1578063a694fc3a1461041d57610158565b8063313ce56711610115578063313ce5671461025d578063341d302f1461027b578063395093511461028357806349d2a4e6146102af57806355b6ed5c146102d557806370a082311461030357610158565b8063095ea7b31461015d578063125c12041461019d57806318160ddd146101d557806323b872dd146101dd578063275bbe9b1461021357806327e235e314610237575b600080fd5b6101896004803603604081101561017357600080fd5b506001600160a01b0381351690602001356104e7565b604080519115158252519081900360200190f35b6101c3600480360360208110156101b357600080fd5b50356001600160a01b03166104fe565b60408051918252519081900360200190f35b6101c3610510565b610189600480360360608110156101f357600080fd5b506001600160a01b03813581169160208101359091169060400135610516565b61021b610567565b604080516001600160a01b039092168252519081900360200190f35b6101c36004803603602081101561024d57600080fd5b50356001600160a01b0316610576565b610265610588565b6040805160ff9092168252519081900360200190f35b6101c361058d565b6101896004803603604081101561029957600080fd5b506001600160a01b038135169060200135610593565b6101c3600480360360208110156102c557600080fd5b50356001600160a01b03166105c9565b6101c3600480360360408110156102eb57600080fd5b506001600160a01b03813581169160200135166105db565b6101c36004803603602081101561031957600080fd5b50356001600160a01b03166105f8565b6101c3610617565b6101896004803603602081101561034757600080fd5b503561061d565b6101c36004803603602081101561036457600080fd5b50356001600160a01b03166106e1565b61037c61070d565b6040805160208082528351818301528351919283929083019185019080838360005b838110156103b657818101518382015260200161039e565b50505050905090810190601f1680156103e35780820380516001836020036101000a031916815260200191505b509250505060405180910390f35b6101896004803603604081101561040757600080fd5b506001600160a01b0381351690602001356108c2565b6101896004803603602081101561043357600080fd5b50356108f8565b6101896004803603604081101561045057600080fd5b506001600160a01b0381351690602001356109b3565b6101896109c0565b6101c36004803603602081101561048457600080fd5b50356001600160a01b03166109ed565b61021b610a4f565b6101c3600480360360408110156104b257600080fd5b506001600160a01b0381358116916020013516610a5e565b610189600480360360208110156104e057600080fd5b5035610a89565b60006104f4338484610b7e565b5060015b92915050565b60076020526000908152604090205481565b60005490565b6000610523848484610c6a565b6001600160a01b03841660009081526002602090815260408083203380855292529091205461055d9186916105589086610d2f565b610b7e565b5060019392505050565b6004546001600160a01b031681565b60016020526000908152604090205481565b601290565b60055481565b3360008181526002602090815260408083206001600160a01b038716845290915281205490916104f49185906105589086610d44565b60066020526000908152604090205481565b600260209081526000928352604080842090915290825290205481565b6001600160a01b0381166000908152600160205260409020545b919050565b60085481565b600061062833610d5d565b6106323383610e06565b600480546040805163a9059cbb60e01b8152339381019390935260248301859052516001600160a01b039091169163a9059cbb9160448083019260209291908290030181600087803b15801561068757600080fd5b505af115801561069b573d6000803e3d6000fd5b505050506040513d60208110156106b157600080fd5b506106c990506106c0336105f8565b60055490610edd565b33600090815260066020526040902055506001919050565b6001600160a01b0381166000908152600760205260408120546104f890610707846109ed565b90610d44565b6060600460009054906101000a90046001600160a01b03166001600160a01b03166395d89b416040518163ffffffff1660e01b815260040160006040518083038186803b15801561075d57600080fd5b505afa158015610771573d6000803e3d6000fd5b505050506040513d6000823e601f3d908101601f19168201604052602081101561079a57600080fd5b81019080805160405193929190846401000000008211156107ba57600080fd5b9083019060208201858111156107cf57600080fd5b82516401000000008111828201881017156107e957600080fd5b82525081516020918201929091019080838360005b838110156108165781810151838201526020016107fe565b50505050905090810190601f1680156108435780820380516001836020036101000a031916815260200191505b50604052505050604051602001808061535f60f01b81525060020182805190602001908083835b602083106108895780518252601f19909201916020918201910161086a565b6001836020036101000a038019825116818451168082178552505050505050905001915050604051602081830303815290604052905090565b3360008181526002602090815260408083206001600160a01b038716845290915281205490916104f49185906105589086610d2f565b60048054604080516323b872dd60e01b8152339381019390935230602484015260448301849052516000926001600160a01b03909216916323b872dd91606480830192602092919082900301818787803b15801561095557600080fd5b505af1158015610969573d6000803e3d6000fd5b505050506040513d602081101561097f57600080fd5b5061098c90503383610f04565b6005546106c99061099d9084610edd565b3360009081526006602052604090205490610d44565b60006104f4338484610c6a565b60006109cb33610d5d565b6109d76106c0336105f8565b3360009081526006602052604090205550600190565b6000806109f9836105f8565b90506000610a1282600554610edd90919063ffffffff16565b6001600160a01b038516600090815260066020526040902054909150600160801b90610a3f908390610d2f565b81610a4657fe5b04949350505050565b6003546001600160a01b031681565b6001600160a01b03918216600090815260026020908152604080832093909416825291909152205490565b600354604080516323b872dd60e01b81523360048201523060248201526044810184905290516000926001600160a01b0316916323b872dd91606480830192602092919082900301818787803b158015610ae257600080fd5b505af1158015610af6573d6000803e3d6000fd5b505050506040513d6020811015610b0c57600080fd5b505060005480610b3057600854610b239084610d44565b6008555060019050610612565b60085415610b4e57600854610b46908490610d44565b600060085592505b610b7281610b6085600160801b610edd565b81610b6757fe5b600554919004610d44565b60055550600192915050565b6001600160a01b038316610bc35760405162461bcd60e51b81526004018080602001828103825260248152602001806111b46024913960400191505060405180910390fd5b6001600160a01b038216610c085760405162461bcd60e51b815260040180806020018281038252602281526020018061114c6022913960400191505060405180910390fd5b6001600160a01b03808416600081815260026020908152604080832094871680845294825291829020859055815185815291517f8c5be1e5ebec7d5bd14f71427d1e84f3dd0314c0f7b2291e5b200ac8c7c3b9259281900390910190a3505050565b610c95610c76846109ed565b6001600160a01b03851660009081526007602052604090205490610d44565b6001600160a01b038416600090815260076020526040902055610cb9838383610fe9565b610cc56106c0846105f8565b6001600160a01b038416600090815260066020526040902055600554610d0e90610cef9083610edd565b6001600160a01b03841660009081526006602052604090205490610d44565b6001600160a01b039092166000908152600660205260409020919091555050565b600082821115610d3e57600080fd5b50900390565b600082820183811015610d5657600080fd5b9392505050565b6000610d68826106e1565b90508015610e02576001600160a01b038083166000818152600760209081526040808320839055600354815163a9059cbb60e01b8152600481019590955260248501879052905194169363a9059cbb93604480820194918390030190829087803b158015610dd557600080fd5b505af1158015610de9573d6000803e3d6000fd5b505050506040513d6020811015610dff57600080fd5b50505b5050565b6001600160a01b038216610e4b5760405162461bcd60e51b815260040180806020018281038252602181526020018061116e6021913960400191505060405180910390fd5b6001600160a01b038216600090815260016020526040902054610e6e9082610d2f565b6001600160a01b03831660009081526001602052604081209190915554610e959082610d2f565b60009081556040805183815290516001600160a01b038516917fddf252ad1be2c89b69c2b068fc378daa952ba7f163c4a11628f55a4df523b3ef919081900360200190a35050565b600082610eec575060006104f8565b82820282848281610ef957fe5b0414610d5657600080fd5b6001600160a01b038216610f5f576040805162461bcd60e51b815260206004820152601f60248201527f45524332303a206d696e7420746f20746865207a65726f206164647265737300604482015290519081900360640190fd5b600054610f6c9082610d44565b60009081556001600160a01b038316815260016020526040902054610f919082610d44565b6001600160a01b03831660008181526001602090815260408083209490945583518581529351929391927fddf252ad1be2c89b69c2b068fc378daa952ba7f163c4a11628f55a4df523b3ef9281900390910190a35050565b6001600160a01b03831661102e5760405162461bcd60e51b815260040180806020018281038252602581526020018061118f6025913960400191505060405180910390fd5b6001600160a01b0382166110735760405162461bcd60e51b81526004018080602001828103825260238152602001806111296023913960400191505060405180910390fd5b6001600160a01b0383166000908152600160205260409020546110969082610d2f565b6001600160a01b0380851660009081526001602052604080822093909355908416815220546110c59082610d44565b6001600160a01b0380841660008181526001602090815260409182902094909455805185815290519193928716927fddf252ad1be2c89b69c2b068fc378daa952ba7f163c4a11628f55a4df523b3ef92918290030190a36111238383835b50505056fe45524332303a207472616e7366657220746f20746865207a65726f206164647265737345524332303a20617070726f766520746f20746865207a65726f206164647265737345524332303a206275726e2066726f6d20746865207a65726f206164647265737345524332303a207472616e736665722066726f6d20746865207a65726f206164647265737345524332303a20617070726f76652066726f6d20746865207a65726f2061646472657373a2646970667358221220fb26f835d8094ddfe3de1f54d9260b3a9e8d6461c93056206a23a6cb89c4db0464736f6c63430007060033",
  "linkReferences": {},
  "deployedLinkReferences": {}
}