{
  "address": "0x5FC8d32690cc91D4c39d9d3abcBD16989F875707",
  "abi": [
    {
      "inputs": [
        {
          "internalType": "address",
          "name": "_owner",
          "type": "address"
        },
        {
          "internalType": "contract IERC20Full",
          "name": "_collateral",
          "type": "address"
        },
        {
          "internalType": "uint256",
          "name": "_shareFactor",
          "type": "uint256"
        },
        {
          "internalType": "contract FeePot",
          "name": "_feePot",
          "type": "address"
        },
        {
          "internalType": "uint256",
          "name": "_stakerFee",
          "type": "uint256"
        },
        {
          "internalType": "uint256",
          "name": "_settlementFee",
          "type": "uint256"
        },
        {
          "internalType": "address",
          "name": "_protocol",
          "type": "address"
        },
        {
          "internalType": "uint256",
          "name": "_protocolFee",
          "type": "uint256"
        },
        {
          "internalType": "address",
          "name": "_linkNode",
          "type": "address"
        },
        {
          "internalType": "uint256",
          "name": "_sportId",
          "type": "uint256"
        }
      ],
      "stateMutability": "nonpayable",
      "type": "constructor"
    },
    {
      "anonymous": false,
      "inputs": [
        {
          "indexed": false,
          "internalType": "address",
          "name": "newLinkNode",
          "type": "address"
        }
      ],
      "name": "LinkNodeChanged",
      "type": "event"
    },
    {
      "anonymous": false,
      "inputs": [
        {
          "indexed": false,
          "internalType": "uint256",
          "name": "id",
          "type": "uint256"
        },
        {
          "indexed": false,
          "internalType": "address",
          "name": "creator",
          "type": "address"
        },
        {
          "indexed": false,
          "internalType": "uint256",
          "name": "endTime",
          "type": "uint256"
        },
        {
          "indexed": false,
          "internalType": "enum MMALinkMarketFactory.MarketType",
          "name": "marketType",
          "type": "uint8"
        },
        {
          "indexed": true,
          "internalType": "uint256",
          "name": "eventId",
          "type": "uint256"
        },
        {
          "indexed": false,
          "internalType": "uint256",
          "name": "homeTeamId",
          "type": "uint256"
        },
        {
          "indexed": false,
          "internalType": "uint256",
          "name": "awayTeamId",
          "type": "uint256"
        },
        {
          "indexed": false,
          "internalType": "uint256",
          "name": "estimatedStarTime",
          "type": "uint256"
        },
        {
          "indexed": false,
          "internalType": "int256",
          "name": "score",
          "type": "int256"
        }
      ],
      "name": "MarketCreated",
      "type": "event"
    },
    {
      "anonymous": false,
      "inputs": [
        {
          "indexed": false,
          "internalType": "uint256",
          "name": "id",
          "type": "uint256"
        },
        {
          "indexed": false,
          "internalType": "address",
          "name": "winner",
          "type": "address"
        }
      ],
      "name": "MarketResolved",
      "type": "event"
    },
    {
      "anonymous": false,
      "inputs": [
        {
          "indexed": false,
          "internalType": "address",
          "name": "protocol",
          "type": "address"
        }
      ],
      "name": "ProtocolChanged",
      "type": "event"
    },
    {
      "anonymous": false,
      "inputs": [
        {
          "indexed": false,
          "internalType": "uint256",
          "name": "fee",
          "type": "uint256"
        }
      ],
      "name": "ProtocolFeeChanged",
      "type": "event"
    },
    {
      "anonymous": false,
      "inputs": [
        {
          "indexed": false,
          "internalType": "address",
          "name": "protocol",
          "type": "address"
        },
        {
          "indexed": false,
          "internalType": "uint256",
          "name": "amount",
          "type": "uint256"
        }
      ],
      "name": "ProtocolFeeClaimed",
      "type": "event"
    },
    {
      "anonymous": false,
      "inputs": [
        {
          "indexed": false,
          "internalType": "uint256",
          "name": "fee",
          "type": "uint256"
        }
      ],
      "name": "SettlementFeeChanged",
      "type": "event"
    },
    {
      "anonymous": false,
      "inputs": [
        {
          "indexed": false,
          "internalType": "address",
          "name": "settlementAddress",
          "type": "address"
        },
        {
          "indexed": false,
          "internalType": "uint256",
          "name": "amount",
          "type": "uint256"
        },
        {
          "indexed": true,
          "internalType": "address",
          "name": "receiver",
          "type": "address"
        }
      ],
      "name": "SettlementFeeClaimed",
      "type": "event"
    },
    {
      "anonymous": false,
      "inputs": [
        {
          "indexed": false,
          "internalType": "uint256",
          "name": "id",
          "type": "uint256"
        },
        {
          "indexed": false,
          "internalType": "uint256",
          "name": "amount",
          "type": "uint256"
        },
        {
          "indexed": false,
          "internalType": "address",
          "name": "receiver",
          "type": "address"
        }
      ],
      "name": "SharesBurned",
      "type": "event"
    },
    {
      "anonymous": false,
      "inputs": [
        {
          "indexed": false,
          "internalType": "uint256",
          "name": "id",
          "type": "uint256"
        },
        {
          "indexed": false,
          "internalType": "uint256",
          "name": "amount",
          "type": "uint256"
        },
        {
          "indexed": false,
          "internalType": "address",
          "name": "receiver",
          "type": "address"
        }
      ],
      "name": "SharesMinted",
      "type": "event"
    },
    {
      "anonymous": false,
      "inputs": [
        {
          "indexed": false,
          "internalType": "uint256",
          "name": "fee",
          "type": "uint256"
        }
      ],
      "name": "StakerFeeChanged",
      "type": "event"
    },
    {
      "anonymous": false,
      "inputs": [
        {
          "indexed": false,
          "internalType": "uint256",
          "name": "id",
          "type": "uint256"
        },
        {
          "indexed": false,
          "internalType": "address",
          "name": "winningOutcome",
          "type": "address"
        },
        {
          "indexed": false,
          "internalType": "uint256",
          "name": "amount",
          "type": "uint256"
        },
        {
          "indexed": false,
          "internalType": "uint256",
          "name": "settlementFee",
          "type": "uint256"
        },
        {
          "indexed": false,
          "internalType": "uint256",
          "name": "payout",
          "type": "uint256"
        },
        {
          "indexed": true,
          "internalType": "address",
          "name": "receiver",
          "type": "address"
        }
      ],
      "name": "WinningsClaimed",
      "type": "event"
    },
    {
      "inputs": [],
      "name": "accumulatedProtocolFee",
      "outputs": [
        {
          "internalType": "uint256",
          "name": "",
          "type": "uint256"
        }
      ],
      "stateMutability": "view",
      "type": "function"
    },
    {
      "inputs": [
        {
          "internalType": "address",
          "name": "",
          "type": "address"
        }
      ],
      "name": "accumulatedSettlementFees",
      "outputs": [
        {
          "internalType": "uint256",
          "name": "",
          "type": "uint256"
        }
      ],
      "stateMutability": "view",
      "type": "function"
    },
    {
      "inputs": [
        {
          "internalType": "uint256",
          "name": "_id",
          "type": "uint256"
        },
        {
          "internalType": "uint256",
          "name": "_sharesToBurn",
          "type": "uint256"
        },
        {
          "internalType": "address",
          "name": "_receiver",
          "type": "address"
        }
      ],
      "name": "burnShares",
      "outputs": [
        {
          "internalType": "uint256",
          "name": "",
          "type": "uint256"
        }
      ],
      "stateMutability": "nonpayable",
      "type": "function"
    },
    {
      "inputs": [
        {
          "internalType": "uint256",
          "name": "_shares",
          "type": "uint256"
        }
      ],
      "name": "calcCost",
      "outputs": [
        {
          "internalType": "uint256",
          "name": "",
          "type": "uint256"
        }
      ],
      "stateMutability": "view",
      "type": "function"
    },
    {
      "inputs": [
        {
          "internalType": "uint256",
          "name": "_collateralIn",
          "type": "uint256"
        }
      ],
      "name": "calcShares",
      "outputs": [
        {
          "internalType": "uint256",
          "name": "",
          "type": "uint256"
        }
      ],
      "stateMutability": "view",
      "type": "function"
    },
    {
      "inputs": [
        {
          "internalType": "uint256[]",
          "name": "_ids",
          "type": "uint256[]"
        },
        {
          "internalType": "address",
          "name": "_receiver",
          "type": "address"
        }
      ],
      "name": "claimManyWinnings",
      "outputs": [
        {
          "internalType": "uint256",
          "name": "",
          "type": "uint256"
        }
      ],
      "stateMutability": "nonpayable",
      "type": "function"
    },
    {
      "inputs": [],
      "name": "claimProtocolFees",
      "outputs": [
        {
          "internalType": "uint256",
          "name": "",
          "type": "uint256"
        }
      ],
      "stateMutability": "nonpayable",
      "type": "function"
    },
    {
      "inputs": [
        {
          "internalType": "address",
          "name": "_receiver",
          "type": "address"
        }
      ],
      "name": "claimSettlementFees",
      "outputs": [
        {
          "internalType": "uint256",
          "name": "",
          "type": "uint256"
        }
      ],
      "stateMutability": "nonpayable",
      "type": "function"
    },
    {
      "inputs": [
        {
          "internalType": "uint256",
          "name": "_id",
          "type": "uint256"
        },
        {
          "internalType": "address",
          "name": "_receiver",
          "type": "address"
        }
      ],
      "name": "claimWinnings",
      "outputs": [
        {
          "internalType": "uint256",
          "name": "",
          "type": "uint256"
        }
      ],
      "stateMutability": "nonpayable",
      "type": "function"
    },
    {
      "inputs": [],
      "name": "collateral",
      "outputs": [
        {
          "internalType": "contract IERC20Full",
          "name": "",
          "type": "address"
        }
      ],
      "stateMutability": "view",
      "type": "function"
    },
    {
      "inputs": [
        {
          "internalType": "bytes32",
          "name": "_payload",
          "type": "bytes32"
        }
      ],
      "name": "createMarket",
      "outputs": [
        {
          "internalType": "uint256[3]",
          "name": "_ids",
          "type": "uint256[3]"
        }
      ],
      "stateMutability": "nonpayable",
      "type": "function"
    },
    {
      "inputs": [
        {
          "internalType": "bytes32",
          "name": "_payload",
          "type": "bytes32"
        }
      ],
      "name": "decodeCreation",
      "outputs": [
        {
          "internalType": "uint128",
          "name": "_eventId",
          "type": "uint128"
        },
        {
          "internalType": "uint16",
          "name": "_homeTeamId",
          "type": "uint16"
        },
        {
          "internalType": "uint16",
          "name": "_awayTeamId",
          "type": "uint16"
        },
        {
          "internalType": "uint32",
          "name": "_startTimestamp",
          "type": "uint32"
        },
        {
          "internalType": "int16",
          "name": "_homeSpread",
          "type": "int16"
        },
        {
          "internalType": "uint16",
          "name": "_totalScore",
          "type": "uint16"
        },
        {
          "internalType": "bool",
          "name": "_createSpread",
          "type": "bool"
        },
        {
          "internalType": "bool",
          "name": "_createTotal",
          "type": "bool"
        }
      ],
      "stateMutability": "pure",
      "type": "function"
    },
    {
      "inputs": [
        {
          "internalType": "bytes32",
          "name": "_payload",
          "type": "bytes32"
        }
      ],
      "name": "decodeResolution",
      "outputs": [
        {
          "internalType": "uint128",
          "name": "_eventId",
          "type": "uint128"
        },
        {
          "internalType": "uint8",
          "name": "_eventStatus",
          "type": "uint8"
        },
        {
          "internalType": "uint16",
          "name": "_homeScore",
          "type": "uint16"
        },
        {
          "internalType": "uint16",
          "name": "_awayScore",
          "type": "uint16"
        }
      ],
      "stateMutability": "pure",
      "type": "function"
    },
    {
      "inputs": [
        {
          "internalType": "uint128",
          "name": "_eventId",
          "type": "uint128"
        },
        {
          "internalType": "uint16",
          "name": "_homeTeamId",
          "type": "uint16"
        },
        {
          "internalType": "uint16",
          "name": "_awayTeamId",
          "type": "uint16"
        },
        {
          "internalType": "uint32",
          "name": "_startTimestamp",
          "type": "uint32"
        },
        {
          "internalType": "int16",
          "name": "_homeSpread",
          "type": "int16"
        },
        {
          "internalType": "uint16",
          "name": "_totalScore",
          "type": "uint16"
        },
        {
          "internalType": "bool",
          "name": "_createSpread",
          "type": "bool"
        },
        {
          "internalType": "bool",
          "name": "_createTotal",
          "type": "bool"
        }
      ],
      "name": "encodeCreation",
      "outputs": [
        {
          "internalType": "bytes32",
          "name": "_payload",
          "type": "bytes32"
        }
      ],
      "stateMutability": "pure",
      "type": "function"
    },
    {
      "inputs": [
        {
          "internalType": "uint128",
          "name": "_eventId",
          "type": "uint128"
        },
        {
          "internalType": "uint8",
          "name": "_eventStatus",
          "type": "uint8"
        },
        {
          "internalType": "uint16",
          "name": "_homeScore",
          "type": "uint16"
        },
        {
          "internalType": "uint16",
          "name": "_awayScore",
          "type": "uint16"
        }
      ],
      "name": "encodeResolution",
      "outputs": [
        {
          "internalType": "bytes32",
          "name": "_payload",
          "type": "bytes32"
        }
      ],
      "stateMutability": "pure",
      "type": "function"
    },
    {
      "inputs": [
        {
          "internalType": "uint256",
          "name": "",
          "type": "uint256"
        },
        {
          "internalType": "uint256",
          "name": "",
          "type": "uint256"
        }
      ],
      "name": "events",
      "outputs": [
        {
          "internalType": "uint256",
          "name": "",
          "type": "uint256"
        }
      ],
      "stateMutability": "view",
      "type": "function"
    },
    {
      "inputs": [],
      "name": "feePot",
      "outputs": [
        {
          "internalType": "contract FeePot",
          "name": "",
          "type": "address"
        }
      ],
      "stateMutability": "view",
      "type": "function"
    },
    {
      "inputs": [
        {
          "internalType": "uint256",
          "name": "_eventId",
          "type": "uint256"
        }
      ],
      "name": "getEventMarkets",
      "outputs": [
        {
          "internalType": "uint256[3]",
          "name": "",
          "type": "uint256[3]"
        }
      ],
      "stateMutability": "view",
      "type": "function"
    },
    {
      "inputs": [
        {
          "internalType": "uint256",
          "name": "_id",
          "type": "uint256"
        }
      ],
      "name": "getMarket",
      "outputs": [
        {
          "components": [
            {
              "internalType": "address",
              "name": "settlementAddress",
              "type": "address"
            },
            {
              "internalType": "contract OwnedERC20[]",
              "name": "shareTokens",
              "type": "address[]"
            },
            {
              "internalType": "uint256",
              "name": "endTime",
              "type": "uint256"
            },
            {
              "internalType": "contract OwnedERC20",
              "name": "winner",
              "type": "address"
            },
            {
              "internalType": "uint256",
              "name": "settlementFee",
              "type": "uint256"
            },
            {
              "internalType": "uint256",
              "name": "protocolFee",
              "type": "uint256"
            },
            {
              "internalType": "uint256",
              "name": "stakerFee",
              "type": "uint256"
            },
            {
              "internalType": "uint256",
              "name": "creationTimestamp",
              "type": "uint256"
            }
          ],
          "internalType": "struct AbstractMarketFactory.Market",
          "name": "",
          "type": "tuple"
        }
      ],
      "stateMutability": "view",
      "type": "function"
    },
    {
      "inputs": [
        {
          "internalType": "uint256",
          "name": "_marketId",
          "type": "uint256"
        }
      ],
      "name": "getMarketDetails",
      "outputs": [
        {
          "components": [
            {
              "internalType": "uint256",
              "name": "eventId",
              "type": "uint256"
            },
            {
              "internalType": "uint256",
              "name": "homeTeamId",
              "type": "uint256"
            },
            {
              "internalType": "uint256",
              "name": "awayTeamId",
              "type": "uint256"
            },
            {
              "internalType": "uint256",
              "name": "estimatedStartTime",
              "type": "uint256"
            },
            {
              "internalType": "enum MMALinkMarketFactory.MarketType",
              "name": "marketType",
              "type": "uint8"
            },
            {
              "internalType": "enum MMALinkMarketFactory.EventStatus",
              "name": "eventStatus",
              "type": "uint8"
            },
            {
              "internalType": "int256",
              "name": "value0",
              "type": "int256"
            }
          ],
          "internalType": "struct MMALinkMarketFactory.MarketDetails",
          "name": "",
          "type": "tuple"
        }
      ],
      "stateMutability": "view",
      "type": "function"
    },
    {
      "inputs": [],
      "name": "getOwner",
      "outputs": [
        {
          "internalType": "address",
          "name": "",
          "type": "address"
        }
      ],
      "stateMutability": "view",
      "type": "function"
    },
    {
      "inputs": [
        {
          "internalType": "uint256",
          "name": "_eventId",
          "type": "uint256"
        }
      ],
      "name": "isEventRegistered",
      "outputs": [
        {
          "internalType": "bool",
          "name": "",
          "type": "bool"
        }
      ],
      "stateMutability": "view",
      "type": "function"
    },
    {
      "inputs": [
        {
          "internalType": "uint256",
          "name": "_eventId",
          "type": "uint256"
        }
      ],
      "name": "isEventResolved",
      "outputs": [
        {
          "internalType": "bool",
          "name": "",
          "type": "bool"
        }
      ],
      "stateMutability": "view",
      "type": "function"
    },
    {
      "inputs": [
        {
          "internalType": "uint256",
          "name": "_id",
          "type": "uint256"
        }
      ],
      "name": "isMarketResolved",
      "outputs": [
        {
          "internalType": "bool",
          "name": "",
          "type": "bool"
        }
      ],
      "stateMutability": "view",
      "type": "function"
    },
    {
      "inputs": [],
      "name": "linkNode",
      "outputs": [
        {
          "internalType": "address",
          "name": "",
          "type": "address"
        }
      ],
      "stateMutability": "view",
      "type": "function"
    },
    {
      "inputs": [],
      "name": "listUnresolvedMarkets",
      "outputs": [
        {
          "internalType": "uint256[]",
          "name": "",
          "type": "uint256[]"
        }
      ],
      "stateMutability": "view",
      "type": "function"
    },
    {
      "inputs": [],
      "name": "marketCount",
      "outputs": [
        {
          "internalType": "uint256",
          "name": "",
          "type": "uint256"
        }
      ],
      "stateMutability": "view",
      "type": "function"
    },
    {
      "inputs": [
        {
          "internalType": "uint256",
          "name": "_id",
          "type": "uint256"
        },
        {
          "internalType": "uint256",
          "name": "_shareToMint",
          "type": "uint256"
        },
        {
          "internalType": "address",
          "name": "_receiver",
          "type": "address"
        }
      ],
      "name": "mintShares",
      "outputs": [],
      "stateMutability": "nonpayable",
      "type": "function"
    },
    {
      "inputs": [],
      "name": "protocol",
      "outputs": [
        {
          "internalType": "address",
          "name": "",
          "type": "address"
        }
      ],
      "stateMutability": "view",
      "type": "function"
    },
    {
      "inputs": [],
      "name": "protocolFee",
      "outputs": [
        {
          "internalType": "uint256",
          "name": "",
          "type": "uint256"
        }
      ],
      "stateMutability": "view",
      "type": "function"
    },
    {
      "inputs": [
        {
          "internalType": "uint256",
          "name": "",
          "type": "uint256"
        }
      ],
      "name": "resolveMarket",
      "outputs": [],
      "stateMutability": "pure",
      "type": "function"
    },
    {
      "inputs": [
        {
          "internalType": "address",
          "name": "_newLinkNode",
          "type": "address"
        }
      ],
      "name": "setLinkNode",
      "outputs": [],
      "stateMutability": "nonpayable",
      "type": "function"
    },
    {
      "inputs": [
        {
          "internalType": "address",
          "name": "_newProtocol",
          "type": "address"
        },
        {
          "internalType": "bool",
          "name": "_claimFirst",
          "type": "bool"
        }
      ],
      "name": "setProtocol",
      "outputs": [],
      "stateMutability": "nonpayable",
      "type": "function"
    },
    {
      "inputs": [
        {
          "internalType": "uint256",
          "name": "_newFee",
          "type": "uint256"
        }
      ],
      "name": "setProtocolFee",
      "outputs": [],
      "stateMutability": "nonpayable",
      "type": "function"
    },
    {
      "inputs": [
        {
          "internalType": "uint256",
          "name": "_newFee",
          "type": "uint256"
        }
      ],
      "name": "setSettlementFee",
      "outputs": [],
      "stateMutability": "nonpayable",
      "type": "function"
    },
    {
      "inputs": [
        {
          "internalType": "uint256",
          "name": "_newFee",
          "type": "uint256"
        }
      ],
      "name": "setStakerFee",
      "outputs": [],
      "stateMutability": "nonpayable",
      "type": "function"
    },
    {
      "inputs": [],
      "name": "settlementFee",
      "outputs": [
        {
          "internalType": "uint256",
          "name": "",
          "type": "uint256"
        }
      ],
      "stateMutability": "view",
      "type": "function"
    },
    {
      "inputs": [],
      "name": "shareFactor",
      "outputs": [
        {
          "internalType": "uint256",
          "name": "",
          "type": "uint256"
        }
      ],
      "stateMutability": "view",
      "type": "function"
    },
    {
      "inputs": [],
      "name": "sportId",
      "outputs": [
        {
          "internalType": "uint256",
          "name": "",
          "type": "uint256"
        }
      ],
      "stateMutability": "view",
      "type": "function"
    },
    {
      "inputs": [],
      "name": "stakerFee",
      "outputs": [
        {
          "internalType": "uint256",
          "name": "",
          "type": "uint256"
        }
      ],
      "stateMutability": "view",
      "type": "function"
    },
    {
      "inputs": [
        {
          "internalType": "address",
          "name": "_newOwner",
          "type": "address"
        }
      ],
      "name": "transferOwnership",
      "outputs": [
        {
          "internalType": "bool",
          "name": "",
          "type": "bool"
        }
      ],
      "stateMutability": "nonpayable",
      "type": "function"
    },
    {
      "inputs": [
        {
          "internalType": "bytes32",
          "name": "_payload",
          "type": "bytes32"
        }
      ],
      "name": "trustedResolveMarkets",
      "outputs": [],
      "stateMutability": "nonpayable",
      "type": "function"
    }
  ],
  "transactionHash": "0x1ef7603b9dfc7fb1f17c0a667ce6659c5feac502224be94b78608313b3d06dc1",
  "args": [
    "0x0000000000000000000000000000000000000000",
    "0x5FbDB2315678afecb367f032d93F642f64180aa3",
    "1000000000000",
    "0xCf7Ed3AccA5a467e9e704C703E8D87F634fB0Fc9",
    0,
    "500000000000000",
    "0x0000000000000000000000000000000000000000",
    0,
    "0x0000000000000000000000000000000000000000",
    4
  ],
  "solcInputHash": "9c8f26027a500f2fa50271a9444fdd28",
  "bytecode": "0x608060405260006007553480156200001657600080fd5b5060405162006559380380620065598339810160408190526200003991620004a3565b600080546001600160a01b03808d166001600160a01b0319928316331783161790925560018054838d16908316811790915560098b905560028054848c1690841617905560038990556004888155600680549489169490931693909317909155600585905560405163095ea7b360e01b81528c928c928c928c928c928c928c928c929163095ea7b391620000d49189916000199101620005cc565b602060405180830381600087803b158015620000ef57600080fd5b505af115801562000104573d6000803e3d6000fd5b505050506040513d601f19601f820116820180604052508101906200012a919062000555565b50604080516000808252602082019092528162000158565b6060815260200190600190039081620001425790505b509050600a6200016c60008380826200024f565b8154600180820184556000938452602093849020835160089093020180546001600160a01b0319166001600160a01b0390931692909217825582840151805193949293620001c393928501929190910190620003bd565b506040820151600282015560608201516003820180546001600160a01b03199081166001600160a01b03938416179091556080840151600484015560a0840151600584015560c0840151600684015560e090930151600790920191909155600d80549092169c169b909b17909a55505050600e9590955550620006409c50505050505050505050505050565b6200025962000427565b604051806101000160405280866001600160a01b0316815260200162000287868630620002c860201b60201c565b815260200183815260200160006001600160a01b03168152602001600454815260200160055481526020016003548152602001428152509050949350505050565b82516060906000816001600160401b0381118015620002e657600080fd5b5060405190808252806020026020018201604052801562000311578160200160208202803683370190505b50905060005b82811015620003b3578681815181106200032d57fe5b60200260200101518682815181106200034257fe5b60200260200101518660405162000359906200047e565b6200036793929190620005e5565b604051809103906000f08015801562000384573d6000803e3d6000fd5b508282815181106200039257fe5b6001600160a01b039092166020928302919091019091015260010162000317565b5095945050505050565b82805482825590600052602060002090810192821562000415579160200282015b828111156200041557825182546001600160a01b0319166001600160a01b03909116178255602090920191600190910190620003de565b50620004239291506200048c565b5090565b60405180610100016040528060006001600160a01b03168152602001606081526020016000815260200160006001600160a01b03168152602001600081526020016000815260200160008152602001600081525090565b6111f3806200536683390190565b5b808211156200042357600081556001016200048d565b6000806000806000806000806000806101408b8d031215620004c3578586fd5b8a51620004d08162000627565b60208c0151909a50620004e38162000627565b60408c015160608d0151919a509850620004fd8162000627565b8097505060808b0151955060a08b0151945060c08b01516200051f8162000627565b60e08c01516101008d015191955093506200053a8162000627565b809250506101208b015190509295989b9194979a5092959850565b60006020828403121562000567578081fd5b8151801515811462000577578182fd5b9392505050565b60008151808452815b81811015620005a55760208185018101518683018201520162000587565b81811115620005b75782602083870101525b50601f01601f19169290920160200192915050565b6001600160a01b03929092168252602082015260400190565b600060608252620005fa60608301866200057e565b82810360208401526200060e81866200057e565b91505060018060a01b0383166040830152949350505050565b6001600160a01b03811681146200063d57600080fd5b50565b614d1680620006506000396000f3fe60806040523480156200001157600080fd5b5060043610620002985760003560e01c806391e221121162000165578063d4b6838e11620000d5578063db747ac91162000093578063db747ac914620005a7578063e2c30b1514620005d4578063e5678dfa14620005eb578063eb44fdd31462000602578063ec9790821462000628578063f2fde38b14620006325762000298565b8063d4b6838e1462000559578063d5da4f1d1462000563578063d5db3efb146200057a578063d8dfeb451462000584578063d9113f0d146200058e5762000298565b8063b06c1ba31162000123578063b06c1ba314620004e4578063b0e21e8a146200050a578063b65ad5fd1462000514578063cc87adea146200052b578063cdaac86214620005425762000298565b806391e22112146200047e57806397eef1871462000495578063992c907914620004ac578063a179449614620004c3578063a544a62c14620004da5762000298565b806353ac55f5116200020d5780637d1d7fb811620001cb5780637d1d7fb8146200041b5780638580c5041462000425578063893d20e8146200043c5780638a24bcb714620004465780638ce74426146200045d5780638e0ed19314620004675762000298565b806353ac55f514620003a6578063575717b014620003cc5780636399d03d14620003e35780637641ab0114620003fa578063787dce3d14620004045762000298565b8063473a6d52116200025b578063473a6d52146200034b57806349a4d93414620003625780634a7d036914620003795780634b2d9ffc14620003835780634c9f66c7146200038d5762000298565b8063221fff81146200029d5780632243118a14620002b65780632745917914620002e557806332ecabe9146200030e57806335a9cdad1462000325575b600080fd5b620002b4620002ae36600462003327565b62000649565b005b620002cd620002c736600462003186565b62000900565b604051620002dc9190620034da565b60405180910390f35b620002fc620002f636600462003186565b62000a8a565b604051620002dc9493929190620039fa565b620002b46200031f36600462003062565b62000aae565b6200033c6200033636600462003327565b62000b32565b604051620002dc91906200355e565b6200033c6200035c36600462003186565b62000eec565b6200033c6200037336600462003045565b62000f3f565b6200033c62000f51565b6200033c62001079565b620003976200107f565b604051620002dc919062003489565b620003bd620003b736600462003186565b6200108e565b604051620002dc919062003553565b620002b4620003dd36600462003186565b62001188565b620002b4620003f436600462003186565b620013ee565b6200033c62001408565b620002b46200041536600462003186565b6200140e565b6200033c62001468565b6200033c620004363660046200325c565b6200146e565b62000397620014a8565b6200033c6200045736600462003305565b620014b7565b62000397620014dd565b6200033c6200047836600462003045565b620014ec565b6200033c6200048f3660046200319f565b620015ed565b620002b4620004a636600462003186565b6200164a565b6200033c620004bd366004620032d7565b62001699565b620003bd620004d436600462003186565b62001999565b6200033c620019ba565b620004fb620004f536600462003186565b620019c0565b604051620002dc919062003881565b6200033c62001a7f565b620003bd6200052536600462003186565b62001a85565b6200033c6200053c36600462003186565b62001afd565b620002cd6200055336600462003186565b62001b04565b6200039762001b4f565b620002b46200057436600462003186565b62001b5e565b6200033c62001bad565b6200039762001bb3565b6200059862001bc2565b604051620002dc91906200350d565b620005be620005b836600462003186565b62001c9b565b604051620002dc989796959493929190620039a2565b620002b4620005e536600462003045565b62001ce7565b6200033c620005fc3660046200309d565b62001d4c565b620006196200061336600462003186565b62001d9a565b604051620002dc9190620038e7565b6200033c62001ee7565b620003bd6200064336600462003045565b62001eed565b600a548310620006765760405162461bcd60e51b81526004016200066d906200378b565b60405180910390fd5b62000681836200108e565b15620006a15760405162461bcd60e51b81526004016200066d90620037f5565b6000620006ae8362000eec565b6001546040516323b872dd60e01b81529192506001600160a01b0316906323b872dd90620006e5903390309086906004016200349d565b602060405180830381600087803b1580156200070057600080fd5b505af115801562000715573d6000803e3d6000fd5b505050506040513d601f19601f820116820180604052508101906200073b919062003167565b506000600a85815481106200074c57fe5b60009182526020918290206040805161010081018252600890930290910180546001600160a01b03168352600181018054835181870281018701909452808452939491938583019392830182828015620007d057602002820191906000526020600020905b81546001600160a01b03168152600190910190602001808311620007b1575b50505091835250506002820154602082015260038201546001600160a01b031660408201526004820154606082015260058201546080820152600682015460a082015260079091015460c090910152905060005b816020015151811015620008bb57816020015181815181106200084357fe5b60200260200101516001600160a01b031663c024cd2685876040518363ffffffff1660e01b81526004016200087a929190620034c1565b600060405180830381600087803b1580156200089557600080fd5b505af1158015620008aa573d6000803e3d6000fd5b505060019092019150620008249050565b507fd81c0442e10068a9818f3aa093c9ccb804584690df572d7df3da2d892a6973f2858585604051620008f19392919062003abf565b60405180910390a15050505050565b6200090a62002e84565b600d546001600160a01b03163314620009375760405162461bcd60e51b81526004016200066d906200374a565b6000806000806000806000806200094e8a62001c9b565b9750975061ffff16975060010b975063ffffffff16975061ffff16975061ffff1697506001600160801b03169750600033905060006200099a6101e08862001f5790919063ffffffff16565b60008b8152600c602052604090819020815160608101928390529293509060039082845b815481526020019060010190808311620009be5750505050509a508a600060038110620009e757fe5b602002015162000a045762000a0182828c8c8c8c62001f6a565b8b525b60208b015115801562000a145750835b1562000a315762000a2b82828c8c8c8c8c62002245565b60208c01525b60408b015115801562000a415750825b1562000a5e5762000a5882828c8c8c8c8b6200251f565b60408c01525b60008a8152600c6020526040902062000a7a908c600362002ea2565b5050505050505050505050919050565b608081901c9160ff607883901c169161ffff606882901c81169260589290921c1690565b6000546001600160a01b0316331462000ac657600080fd5b801562000ad95762000ad762000f51565b505b600680546001600160a01b0319166001600160a01b0384161790556040517f15b84596b3c567ae2998116949ae5f2d47f3055c12d9053db4d6e50f4c794dd99062000b2690849062003489565b60405180910390a15050565b600a54600090841062000b595760405162461bcd60e51b81526004016200066d906200378b565b62000b64846200108e565b1562000b845760405162461bcd60e51b81526004016200066d906200383b565b6000600a858154811062000b9457fe5b60009182526020918290206040805161010081018252600890930290910180546001600160a01b0316835260018101805483518187028101870190945280845293949193858301939283018282801562000c1857602002820191906000526020600020905b81546001600160a01b0316815260019091019060200180831162000bf9575b50505091835250506002820154602082015260038201546001600160a01b031660408201526004820154606082015260058201546080820152600682015460a082015260079091015460c090910152905060005b81602001515181101562000d03578160200151818151811062000c8b57fe5b60200260200101516001600160a01b03166342986e1333876040518363ffffffff1660e01b815260040162000cc2929190620034c1565b600060405180830381600087803b15801562000cdd57600080fd5b505af115801562000cf2573d6000803e3d6000fd5b50506001909201915062000c6c9050565b50600062000d118562000eec565b9050600062000d42670de0b6b3a764000062000d3b8560a0015185620027e490919063ffffffff16565b906200280f565b9050600062000d6c670de0b6b3a764000062000d3b8660c0015186620027e490919063ffffffff16565b905062000d868162000d7f858562002825565b9062002825565b600780548401905560015460405163a9059cbb60e01b81529194506001600160a01b03169063a9059cbb9062000dc39089908790600401620034c1565b602060405180830381600087803b15801562000dde57600080fd5b505af115801562000df3573d6000803e3d6000fd5b505050506040513d601f19601f8201168201806040525081019062000e19919062003167565b50600254604051630ebdac0960e41b81526001600160a01b039091169063ebdac0909062000e4c9084906004016200355e565b602060405180830381600087803b15801562000e6757600080fd5b505af115801562000e7c573d6000803e3d6000fd5b505050506040513d601f19601f8201168201806040525081019062000ea2919062003167565b507fb6fdb729b2ed801daf629f0ab713e4a7a73619505790f6f27fd92d6f2c9688d788883360405162000ed89392919062003abf565b60405180910390a150909695505050505050565b6000600954821015801562000f0b5750600954828162000f0857fe5b06155b62000f2a5760405162461bcd60e51b81526004016200066d90620036d9565b600954828162000f3657fe5b0490505b919050565b60086020526000908152604090205481565b6006546000906001600160a01b031633148062000f6d57503330145b62000f8c5760405162461bcd60e51b81526004016200066d9062003629565b60075480156200107457600060075560015460065460405163a9059cbb60e01b81526001600160a01b039283169263a9059cbb9262000fd3929116908590600401620034c1565b602060405180830381600087803b15801562000fee57600080fd5b505af115801562001003573d6000803e3d6000fd5b505050506040513d601f19601f8201168201806040525081019062001029919062003167565b506006546040517f0f7f5b155b0b0ac6890709a2c7bf1b8bb3f675fff1e7840b4dd3c9acde59048b916200106b916001600160a01b03909116908490620034c1565b60405180910390a15b905090565b60035481565b6002546001600160a01b031681565b600080600a83815481106200109f57fe5b60009182526020918290206040805161010081018252600890930290910180546001600160a01b031683526001810180548351818702810187019094528084529394919385830193928301828280156200112357602002820191906000526020600020905b81546001600160a01b0316815260019091019060200180831162001104575b50505091835250506002820154602082015260038201546001600160a01b039081166040830152600483015460608084019190915260058401546080840152600684015460a084015260079093015460c0909201919091529101511615159392505050565b600d546001600160a01b03163314620011b55760405162461bcd60e51b81526004016200066d90620037b3565b600080600080620011c68562000a8a565b6001600160801b03939093166000818152600c602052604080822081516060810192839052939a5060ff95909516985061ffff9384169750929094169450919060039082845b8154815260200190600101908083116200120c5750505050509050806000600381106200123557fe5b60200201511515806200124b5750602081015115155b806200125a5750604081015115155b620012795760405162461bcd60e51b81526004016200066d90620035a9565b60018460048111156200128857fe5b60048111156200129457fe5b1415620012b55760405162461bcd60e51b81526004016200066d90620035f4565b6002846004811115620012c457fe5b6004811115620012d057fe5b14620013945760005b60038110156200138857602082015180620012f557506200137f565b600a81815481106200130357fe5b90600052602060002090600802016001016000815481106200132157fe5b600091825260209091200154600a80546001600160a01b0390921691839081106200134857fe5b906000526020600020906008020160030160006101000a8154816001600160a01b0302191690836001600160a01b03160217905550505b600101620012d9565b505050505050620013eb565b805115620013ab578051620013ab9084846200283b565b602081015115620013c8576020810151620013c89084846200298d565b604081015115620013e5576040810151620013e590848462002b9e565b50505050505b50565b60405162461bcd60e51b81526004016200066d906200366d565b60095481565b6000546001600160a01b031633146200142657600080fd5b60058190556040517fada2cde3c4a561f5c23e2fdbfb223e1f0d1ec7109b9811b32644e6e974d6631f906200145d9083906200355e565b60405180910390a150565b60045481565b600080858585856040516020016200148a94939291906200343d565b60408051601f19818403018152919052602001519695505050505050565b6000546001600160a01b031690565b600c6020528160005260406000208160038110620014d457600080fd5b01549150829050565b6006546001600160a01b031681565b336000908152600860205260408120548015620015e7573360009081526008602052604080822091909155600154905163a9059cbb60e01b81526001600160a01b039091169063a9059cbb906200154a9086908590600401620034c1565b602060405180830381600087803b1580156200156557600080fd5b505af11580156200157a573d6000803e3d6000fd5b505050506040513d601f19601f82011682018060405250810190620015a0919062003167565b50826001600160a01b03167fc9985ad824d943d66367ce5feea26e18979b3e1c9273742926d87e2b0d7473873383604051620015de929190620034c1565b60405180910390a25b92915050565b6000808315620015fb576001015b821562001606576002015b60008a8a8a8a8a8a87604051602001620016279796959493929190620033c8565b60408051601f19818403018152919052602001519b9a5050505050505050505050565b6000546001600160a01b031633146200166257600080fd5b60038190556040517fcc4df50442ac32f0142ba4853f617661e0823be0e92148e7e5f36ce56c139825906200145d9083906200355e565b6000620016a6836200108e565b620016b657620016b683620013ee565b6000600a8481548110620016c657fe5b60009182526020918290206040805161010081018252600890930290910180546001600160a01b031683526001810180548351818702810187019094528084529394919385830193928301828280156200174a57602002820191906000526020600020905b81546001600160a01b031681526001909101906020018083116200172b575b50505050508152602001600282015481526020016003820160009054906101000a90046001600160a01b03166001600160a01b03166001600160a01b031681526020016004820154815260200160058201548152602001600682015481526020016007820154815250509050600081606001516001600160a01b03166371297784336040518263ffffffff1660e01b8152600401620017ea919062003489565b602060405180830381600087803b1580156200180557600080fd5b505af11580156200181a573d6000803e3d6000fd5b505050506040513d601f19601f82011682018060405250810190620018409190620032be565b905060095460095482816200185157fe5b040290506000620018628262000eec565b905060006200188c670de0b6b3a764000062000d3b866080015185620027e490919063ffffffff16565b90506200189a828262002825565b84516001600160a01b0390811660009081526008602052604090819020805485019055600154905163a9059cbb60e01b8152929450169063a9059cbb90620018e99089908690600401620034c1565b602060405180830381600087803b1580156200190457600080fd5b505af115801562001919573d6000803e3d6000fd5b505050506040513d601f19601f820116820180604052508101906200193f919062003167565b50856001600160a01b03167fe67bd0100cd3289557430d36098901ba18161e6279c9711d8650b8af105521048886606001518685876040516200198795949392919062003a93565b60405180910390a25095945050505050565b6000818152600c6020526040812054620019b3816200108e565b9392505050565b60075481565b620019ca62002ee5565b600b60008381526020019081526020016000206040518060e0016040529081600082015481526020016001820154815260200160028201548152602001600382015481526020016004820160009054906101000a900460ff16600281111562001a2f57fe5b600281111562001a3b57fe5b81526020016004820160019054906101000a900460ff16600481111562001a5e57fe5b600481111562001a6a57fe5b81526020016005820154815250509050919050565b60055481565b6000818152600c602052604080822081516060810192839052839290919060039082845b81548152602001906001019080831162001aa957505050505090508060006003811062001ad257fe5b60200201511580159062001ae95750602081015115155b8015620019b3575060400151151592915050565b6009540290565b62001b0e62002e84565b6000828152600c6020526040808220815160608101928390529160039082845b81548152602001906001019080831162001b2e575093979650505050505050565b600d546001600160a01b031681565b6000546001600160a01b0316331462001b7657600080fd5b60048190556040517f92d395c429898992f8532ee7145901513e524c2085fd7fd1da39b8badcd6df31906200145d9083906200355e565b600e5481565b6001546001600160a01b031681565b60606000805b600a5481101562001bf35762001bde816200108e565b62001bea576001909101905b60010162001bc8565b5060008167ffffffffffffffff8111801562001c0e57600080fd5b5060405190808252806020026020018201604052801562001c39578160200160208202803683370190505b5090506000805b600a5481101562001c925783821062001c595762001c92565b62001c64816200108e565b62001c89578083838151811062001c7757fe5b60209081029190910101526001909101905b60010162001c40565b50909250505090565b608081901c9161ffff607083901c811692606081901c82169263ffffffff604083901c1692603083901c811692602081901c90911691600160189290921c918216151591600216151590565b6000546001600160a01b0316331462001cff57600080fd5b600d80546001600160a01b0319166001600160a01b0383161790556040517f6b7517523482c8d89ffbc530829d5decd506cf6dc60874b11fa26c8a53bb9fa9906200145d90839062003489565b600080805b845181101562001d925762001d8762001d7f86838151811062001d7057fe5b60200260200101518662001699565b839062001f57565b915060010162001d51565b509392505050565b62001da462002f2e565b600a54821062001dfe575060408051610100810182526000808252825181815260208082018552830152918101829052606081018290526080810182905260a0810182905260c0810182905260e081019190915262000f3a565b600a828154811062001e0c57fe5b60009182526020918290206040805161010081018252600890930290910180546001600160a01b0316835260018101805483518187028101870190945280845293949193858301939283018282801562001e9057602002820191906000526020600020905b81546001600160a01b0316815260019091019060200180831162001e71575b50505091835250506002820154602082015260038201546001600160a01b031660408201526004820154606082015260058201546080820152600682015460a082015260079091015460c090910152905062000f3a565b600a5490565b600080546001600160a01b0316331462001f0657600080fd5b6001600160a01b03821662001f1a57600080fd5b60005462001f32906001600160a01b03168362002c8a565b50600080546001600160a01b0383166001600160a01b03199091161790556001919050565b600082820183811015620019b357600080fd5b60408051600380825260808201909252600091829190816020015b606081526020019060019003908162001f855790505090506040518060400160405280600a815260200169139bc810dbdb9d195cdd60b21b8152508160008151811062001fce57fe5b6020026020010181905250604051806040016040528060048152602001634177617960e01b815250816001815181106200200457fe5b602002602001018190525060405180604001604052806004815260200163486f6d6560e01b815250816002815181106200203a57fe5b6020908102919091010152600a805490620020588a84808c62002c8e565b8154600180820184556000938452602093849020835160089093020180546001600160a01b0319166001600160a01b0390931692909217825582840151805193949293620020af9392850192919091019062002f85565b506040820151816002015560608201518160030160006101000a8154816001600160a01b0302191690836001600160a01b031602179055506080820151816004015560a0820151816005015560c0820151816006015560e0820151816007015550506040518060e00160405280888152602001878152602001868152602001858152602001600060028111156200214257fe5b8152602001600181526020016000815250600b60008381526020019081526020016000206000820151816000015560208201518160010155604082015181600201556060820151816003015560808201518160040160006101000a81548160ff02191690836002811115620021b357fe5b021790555060a08201518160040160016101000a81548160ff02191690836004811115620021dd57fe5b021790555060c08201518160050155905050867fafad6545e5200f9fdf4db34dfca61a9e7d72518593fd5155d11fd69c20e1555f828b8b60008b8b8b60006040516200223198979695949392919062003a41565b60405180910390a298975050505050505050565b60408051600380825260808201909252600091829190816020015b6060815260200190600190039081620022605790505090506040518060400160405280600a815260200169139bc810dbdb9d195cdd60b21b81525081600081518110620022a957fe5b6020026020010181905250604051806040016040528060048152602001634177617960e01b81525081600181518110620022df57fe5b602002602001018190525060405180604001604052806004815260200163486f6d6560e01b815250816002815181106200231557fe5b6020908102919091010152600a805490620023338b84808d62002c8e565b8154600180820184556000938452602093849020835160089093020180546001600160a01b0319166001600160a01b03909316929092178255828401518051939492936200238a9392850192919091019062002f85565b506040820151816002015560608201518160030160006101000a8154816001600160a01b0302191690836001600160a01b031602179055506080820151816004015560a0820151816005015560c0820151816006015560e0820151816007015550506040518060e00160405280898152602001888152602001878152602001868152602001600160028111156200241d57fe5b81526020016001815260200185815250600b60008381526020019081526020016000206000820151816000015560208201518160010155604082015181600201556060820151816003015560808201518160040160006101000a81548160ff021916908360028111156200248d57fe5b021790555060a08201518160040160016101000a81548160ff02191690836004811115620024b757fe5b021790555060c08201518160050155905050877fafad6545e5200f9fdf4db34dfca61a9e7d72518593fd5155d11fd69c20e1555f828c8c60018c8c8c8c6040516200250a98979695949392919062003a41565b60405180910390a29998505050505050505050565b60408051600380825260808201909252600091829190816020015b60608152602001906001900390816200253a5790505090506040518060400160405280600a815260200169139bc810dbdb9d195cdd60b21b815250816000815181106200258357fe5b60200260200101819052506040518060400160405280600481526020016327bb32b960e11b81525081600181518110620025b957fe5b6020026020010181905250604051806040016040528060058152602001642ab73232b960d91b81525081600281518110620025f057fe5b6020908102919091010152600a8054906200260e8b84808d62002c8e565b8154600180820184556000938452602093849020835160089093020180546001600160a01b0319166001600160a01b0390931692909217825582840151805193949293620026659392850192919091019062002f85565b506040820151816002015560608201518160030160006101000a8154816001600160a01b0302191690836001600160a01b031602179055506080820151816004015560a0820151816005015560c0820151816006015560e0820151816007015550506040518060e00160405280898152602001888152602001878152602001868152602001600280811115620026f757fe5b81526020016001815260200185815250600b60008381526020019081526020016000206000820151816000015560208201518160010155604082015181600201556060820151816003015560808201518160040160006101000a81548160ff021916908360028111156200276757fe5b021790555060a08201518160040160016101000a81548160ff021916908360048111156200279157fe5b021790555060c08201518160050155905050877fafad6545e5200f9fdf4db34dfca61a9e7d72518593fd5155d11fd69c20e1555f828c8c60028c8c8c8c6040516200250a98979695949392919062003a41565b600082620027f557506000620015e7565b828202828482816200280357fe5b0414620019b357600080fd5b6000808284816200281c57fe5b04949350505050565b6000828211156200283557600080fd5b50900390565b6000818311156200288f57600a84815481106200285457fe5b90600052602060002090600802016001016002815481106200287257fe5b6000918252602090912001546001600160a01b0316905062002908565b81831015620028c457600a8481548110620028a657fe5b90600052602060002090600802016001016001815481106200287257fe5b600a8481548110620028d257fe5b9060005260206000209060080201600101600081548110620028f057fe5b6000918252602090912001546001600160a01b031690505b80600a85815481106200291757fe5b906000526020600020906008020160030160006101000a8154816001600160a01b0302191690836001600160a01b031602179055507fc68d106ea6e4bec784925cfd91767212c71ced92adbac107dc364435321113f684826040516200297f92919062003a2a565b60405180910390a150505050565b6000838152600b60209081526040808320815160e08101835281548152600182015493810193909352600280820154928401929092526003810154606084015260048101549091608084019160ff1690811115620029e757fe5b6002811115620029f357fe5b81526020016004820160019054906101000a900460ff16600481111562002a1657fe5b600481111562002a2257fe5b81526005919091015460209091015260c0810151909150600062002a47858562002d01565b905060008282131562002a9d57600a878154811062002a6257fe5b906000526020600020906008020160010160028154811062002a8057fe5b6000918252602090912001546001600160a01b0316905062002b16565b8282121562002ad257600a878154811062002ab457fe5b906000526020600020906008020160010160018154811062002a8057fe5b600a878154811062002ae057fe5b906000526020600020906008020160010160008154811062002afe57fe5b6000918252602090912001546001600160a01b031690505b80600a888154811062002b2557fe5b906000526020600020906008020160030160006101000a8154816001600160a01b0302191690836001600160a01b031602179055507fc68d106ea6e4bec784925cfd91767212c71ced92adbac107dc364435321113f6878260405162002b8d92919062003a2a565b60405180910390a150505050505050565b6000838152600b60209081526040808320815160e08101835281548152600182015493810193909352600280820154928401929092526003810154606084015260048101549091608084019160ff169081111562002bf857fe5b600281111562002c0457fe5b81526020016004820160019054906101000a900460ff16600481111562002c2757fe5b600481111562002c3357fe5b81526005919091015460209091015260c0810151909150600062002c58858562002d45565b905060008282131562002c7357600a878154811062002ab457fe5b8282121562002ad257600a878154811062002a6257fe5b5050565b62002c9862002f2e565b604051806101000160405280866001600160a01b0316815260200162002cc086863062002d8e565b815260200183815260200160006001600160a01b03168152602001600454815260200160055481526020016003548152602001428152509050949350505050565b600080831215801562002d1d57506001600160ff1b0383038212155b8062002d3b575060008312801562002d3b5750600160ff1b83038213155b6200283557600080fd5b600080831215801562002d615750826001600160ff1b03038213155b8062002d7f575060008312801562002d7f575082600160ff1b038212155b62002d8957600080fd5b500190565b825160609060008167ffffffffffffffff8111801562002dad57600080fd5b5060405190808252806020026020018201604052801562002dd8578160200160208202803683370190505b50905060005b8281101562002e7a5786818151811062002df457fe5b602002602001015186828151811062002e0957fe5b60200260200101518660405162002e209062002fdd565b62002e2e9392919062003567565b604051809103906000f08015801562002e4b573d6000803e3d6000fd5b5082828151811062002e5957fe5b6001600160a01b039092166020928302919091019091015260010162002dde565b5095945050505050565b60405180606001604052806003906020820280368337509192915050565b826003810192821562002ed3579160200282015b8281111562002ed357825182559160200191906001019062002eb6565b5062002ee192915062002feb565b5090565b6040518060e00160405280600081526020016000815260200160008152602001600081526020016000600281111562002f1a57fe5b815260200160008152602001600081525090565b60405180610100016040528060006001600160a01b03168152602001606081526020016000815260200160006001600160a01b03168152602001600081526020016000815260200160008152602001600081525090565b82805482825590600052602060002090810192821562002ed3579160200282015b8281111562002ed357825182546001600160a01b0319166001600160a01b0390911617825560209092019160019091019062002fa6565b6111f38062003aee83390190565b5b8082111562002ee1576000815560010162002fec565b80356001600160a01b038116811462000f3a57600080fd5b80356001600160801b038116811462000f3a57600080fd5b803561ffff8116811462000f3a57600080fd5b60006020828403121562003057578081fd5b620019b38262003002565b6000806040838503121562003075578081fd5b620030808362003002565b91506020830135620030928162003ade565b809150509250929050565b60008060408385031215620030b0578182fd5b823567ffffffffffffffff80821115620030c8578384fd5b818501915085601f830112620030dc578384fd5b8135602082821115620030eb57fe5b808202604051828282010181811086821117156200310557fe5b604052838152828101945085830182870184018b101562003124578889fd5b8896505b848710156200314857803586526001969096019594830194830162003128565b5096506200315a905087820162003002565b9450505050509250929050565b60006020828403121562003179578081fd5b8151620019b38162003ade565b60006020828403121562003198578081fd5b5035919050565b600080600080600080600080610100898b031215620031bc578384fd5b620031c7896200301a565b9750620031d760208a0162003032565b9650620031e760408a0162003032565b9550606089013563ffffffff8116811462003200578485fd5b94506080890135600181900b811462003217578485fd5b93506200322760a08a0162003032565b925060c0890135620032398162003ade565b915060e08901356200324b8162003ade565b809150509295985092959890939650565b6000806000806080858703121562003272578384fd5b6200327d856200301a565b9350602085013560ff8116811462003293578384fd5b9250620032a36040860162003032565b9150620032b36060860162003032565b905092959194509250565b600060208284031215620032d0578081fd5b5051919050565b60008060408385031215620032ea578182fd5b82359150620032fc6020840162003002565b90509250929050565b6000806040838503121562003318578182fd5b50508035926020909101359150565b6000806000606084860312156200333c578081fd5b8335925060208401359150620033556040850162003002565b90509250925092565b6001600160a01b03169052565b600381106200337657fe5b9052565b60008151808452815b81811015620033a15760208185018101518683018201520162003383565b81811115620033b35782602083870101525b50601f01601f19169290920160200192915050565b60809790971b6001600160801b031916875260f095861b6001600160f01b0319908116601089015294861b8516601288015260e09390931b6001600160e01b031916601487015260019190910b841b601886015290921b16601a83015260f81b6001600160f81b031916601c820152601d0190565b60809490941b6001600160801b031916845260f89290921b6001600160f81b031916601084015260f090811b6001600160f01b0319908116601185015291901b16601382015260150190565b6001600160a01b0391909116815260200190565b6001600160a01b039384168152919092166020820152604081019190915260600190565b6001600160a01b03929092168252602082015260400190565b60608101818360005b600381101562003504578151835260209283019290910190600101620034e3565b50505092915050565b6020808252825182820181905260009190848201906040850190845b81811015620035475783518352928401929184019160010162003529565b50909695505050505050565b901515815260200190565b90815260200190565b6000606082526200357c60608301866200337a565b82810360208401526200359081866200337a565b91505060018060a01b0383166040830152949350505050565b6020808252602b908201527f43616e6e6f74207265736f6c7665206d61726b6574732074686174207765726560408201526a1b89dd0818dc99585d195960aa1b606082015260800190565b6020808252818101527f63616e6e6f74207265736f6c7665205343484544554c4544206d61726b657473604082015260600190565b60208082526024908201527f4f6e6c792070726f746f636f6c2063616e20636c61696d2070726f746f636f6c6040820152632066656560e01b606082015260800190565b60208082526046908201527f4f6e6c7920746865206c696e6b206e6f64652063616e207265736f6c7665207460408201527f6865206d61726b65742c207573696e6720747275737465645265736f6c76654d60608201526561726b65747360d01b608082015260a00190565b6020808252604b908201527f536861726573206d75737420626520626f74682067726561746572207468616e60408201527f20286f7220657175616c20746f2920616e6420646976697369626c652062792060608201526a39b430b932a330b1ba37b960a91b608082015260a00190565b60208082526021908201527f4f6e6c79206c696e6b206e6f64652063616e20637265617465206d61726b65746040820152607360f81b606082015260800190565b6020808252600e908201526d139bc81cdd58da081b585c9ad95d60921b604082015260600190565b60208082526022908201527f4f6e6c79206c696e6b206e6f64652063616e207265736f6c7665206d61726b65604082015261747360f01b606082015260800190565b60208082526026908201527f43616e6e6f74206d696e742073686172657320666f72207265736f6c766564206040820152651b585c9ad95d60d21b606082015260800190565b60208082526026908201527f43616e6e6f74206275726e2073686172657320666f72207265736f6c766564206040820152651b585c9ad95d60d21b606082015260800190565b600060e082019050825182526020830151602083015260408301516040830152606083015160608301526080830151620038bf60808401826200336b565b5060a083015160058110620038d057fe5b8060a08401525060c083015160c083015292915050565b602080825282516001600160a01b039081168383015283820151610100604085018190528151610120860181905260009493928401929185916101408801905b808410156200394b5785518516825294860194600193909301929086019062003927565b5060408901516060890152606089015195506200396c60808901876200335e565b608089015160a089015260a089015160c089015260c089015160e089015260e08901518289015280965050505050505092915050565b6001600160801b0398909816885261ffff9687166020890152948616604088015263ffffffff93909316606087015260019190910b608086015290921660a084015290151560c0830152151560e08201526101000190565b6001600160801b0394909416845260ff92909216602084015261ffff908116604084015216606082015260800190565b9182526001600160a01b0316602082015260400190565b8881526001600160a01b038816602082015260408101879052610100810162003a6e60608301886200336b565b8560808301528460a08301528360c08301528260e08301529998505050505050505050565b9485526001600160a01b0393909316602085015260408401919091526060830152608082015260a00190565b92835260208301919091526001600160a01b0316604082015260600190565b8015158114620013eb57600080fdfe60806040523480156200001157600080fd5b50604051620011f3380380620011f3833981810160405260608110156200003757600080fd5b81019080805160405193929190846401000000008211156200005857600080fd5b9083019060208201858111156200006e57600080fd5b82516401000000008111828201881017156200008957600080fd5b82525081516020918201929091019080838360005b83811015620000b85781810151838201526020016200009e565b50505050905090810190601f168015620000e65780820380516001836020036101000a031916815260200191505b50604052602001805160405193929190846401000000008211156200010a57600080fd5b9083019060208201858111156200012057600080fd5b82516401000000008111828201881017156200013b57600080fd5b82525081516020918201929091019080838360005b838110156200016a57818101518382015260200162000150565b50505050905090810190601f168015620001985780820380516001836020036101000a031916815260200191505b5060405260209081015185519093508592508491620001bd9160039185019062000219565b508051620001d390600490602084019062000219565b5050600580546001600160a01b039390931661010090810233909102610100600160a81b031960ff199095166012178516179093169290921790915550620002c5915050565b828054600181600116156101000203166002900490600052602060002090601f0160209004810192826200025157600085556200029c565b82601f106200026c57805160ff19168380011785556200029c565b828001600101855582156200029c579182015b828111156200029c5782518255916020019190600101906200027f565b50620002aa929150620002ae565b5090565b5b80821115620002aa5760008155600101620002af565b610f1e80620002d56000396000f3fe608060405234801561001057600080fd5b506004361061010b5760003560e01c806370a08231116100a2578063a457c2d711610071578063a457c2d714610343578063a9059cbb1461036f578063c024cd261461039b578063dd62ed3e146103c7578063f2fde38b146103f55761010b565b806370a08231146102cb57806371297784146102f1578063893d20e81461031757806395d89b411461033b5761010b565b806323b872dd116100de57806323b872dd1461021f578063313ce56714610255578063395093511461027357806342986e131461029f5761010b565b806306fdde0314610110578063095ea7b31461018d5780630fb66557146101cd57806318160ddd14610205575b600080fd5b61011861041b565b6040805160208082528351818301528351919283929083019185019080838360005b8381101561015257818101518382015260200161013a565b50505050905090810190601f16801561017f5780820380516001836020036101000a031916815260200191505b509250505060405180910390f35b6101b9600480360360408110156101a357600080fd5b506001600160a01b0381351690602001356104b1565b604080519115158252519081900360200190f35b610203600480360360608110156101e357600080fd5b506001600160a01b038135811691602081013590911690604001356104ce565b005b61020d6104fa565b60408051918252519081900360200190f35b6101b96004803603606081101561023557600080fd5b506001600160a01b03813581169160208101359091169060400135610500565b61025d610587565b6040805160ff9092168252519081900360200190f35b6101b96004803603604081101561028957600080fd5b506001600160a01b038135169060200135610590565b610203600480360360408110156102b557600080fd5b506001600160a01b0381351690602001356105de565b61020d600480360360208110156102e157600080fd5b50356001600160a01b0316610608565b61020d6004803603602081101561030757600080fd5b50356001600160a01b0316610623565b61031f61065f565b604080516001600160a01b039092168252519081900360200190f35b610118610673565b6101b96004803603604081101561035957600080fd5b506001600160a01b0381351690602001356106d4565b6101b96004803603604081101561038557600080fd5b506001600160a01b03813516906020013561073c565b610203600480360360408110156103b157600080fd5b506001600160a01b038135169060200135610750565b61020d600480360360408110156103dd57600080fd5b506001600160a01b0381358116916020013516610776565b6101b96004803603602081101561040b57600080fd5b50356001600160a01b03166107a1565b60038054604080516020601f60026000196101006001881615020190951694909404938401819004810282018101909252828152606093909290918301828280156104a75780601f1061047c576101008083540402835291602001916104a7565b820191906000526020600020905b81548152906001019060200180831161048a57829003601f168201915b5050505050905090565b60006104c56104be610818565b848461081c565b50600192915050565b60055461010090046001600160a01b031633146104ea57600080fd5b6104f5838383610908565b505050565b60025490565b600061050d848484610908565b61057d84610519610818565b61057885604051806060016040528060288152602001610e32602891396001600160a01b038a16600090815260016020526040812090610557610818565b6001600160a01b031681526020810191909152604001600020549190610a63565b61081c565b5060019392505050565b60055460ff1690565b60006104c561059d610818565b8461057885600160006105ae610818565b6001600160a01b03908116825260208083019390935260409182016000908120918c168152925290205490610afa565b60055461010090046001600160a01b031633146105fa57600080fd5b6106048282610b5b565b5050565b6001600160a01b031660009081526020819052604090205490565b60055460009061010090046001600160a01b0316331461064257600080fd5b600061064d83610608565b90506106598382610b5b565b92915050565b60055461010090046001600160a01b031690565b60048054604080516020601f60026000196101006001881615020190951694909404938401819004810282018101909252828152606093909290918301828280156104a75780601f1061047c576101008083540402835291602001916104a7565b60006104c56106e1610818565b8461057885604051806060016040528060258152602001610ec4602591396001600061070b610818565b6001600160a01b03908116825260208083019390935260409182016000908120918d16815292529020549190610a63565b60006104c5610749610818565b8484610908565b60055461010090046001600160a01b0316331461076c57600080fd5b6106048282610c57565b6001600160a01b03918216600090815260016020908152604080832093909416825291909152205490565b60055460009061010090046001600160a01b031633146107c057600080fd5b6001600160a01b0382166107d357600080fd5b6005546107ee9061010090046001600160a01b031683610604565b50600580546001600160a01b03831661010002610100600160a81b03199091161790556001919050565b3390565b6001600160a01b0383166108615760405162461bcd60e51b8152600401808060200182810382526024815260200180610ea06024913960400191505060405180910390fd5b6001600160a01b0382166108a65760405162461bcd60e51b8152600401808060200182810382526022815260200180610dea6022913960400191505060405180910390fd5b6001600160a01b03808416600081815260016020908152604080832094871680845294825291829020859055815185815291517f8c5be1e5ebec7d5bd14f71427d1e84f3dd0314c0f7b2291e5b200ac8c7c3b9259281900390910190a3505050565b6001600160a01b03831661094d5760405162461bcd60e51b8152600401808060200182810382526025815260200180610e7b6025913960400191505060405180910390fd5b6001600160a01b0382166109925760405162461bcd60e51b8152600401808060200182810382526023815260200180610da56023913960400191505060405180910390fd5b61099d8383836104f5565b6109da81604051806060016040528060268152602001610e0c602691396001600160a01b0386166000908152602081905260409020549190610a63565b6001600160a01b038085166000908152602081905260408082209390935590841681522054610a099082610afa565b6001600160a01b038084166000818152602081815260409182902094909455805185815290519193928716927fddf252ad1be2c89b69c2b068fc378daa952ba7f163c4a11628f55a4df523b3ef92918290030190a3505050565b60008184841115610af25760405162461bcd60e51b81526004018080602001828103825283818151815260200191508051906020019080838360005b83811015610ab7578181015183820152602001610a9f565b50505050905090810190601f168015610ae45780820380516001836020036101000a031916815260200191505b509250505060405180910390fd5b505050900390565b600082820183811015610b54576040805162461bcd60e51b815260206004820152601b60248201527f536166654d6174683a206164646974696f6e206f766572666c6f770000000000604482015290519081900360640190fd5b9392505050565b6001600160a01b038216610ba05760405162461bcd60e51b8152600401808060200182810382526021815260200180610e5a6021913960400191505060405180910390fd5b610bac826000836104f5565b610be981604051806060016040528060228152602001610dc8602291396001600160a01b0385166000908152602081905260409020549190610a63565b6001600160a01b038316600090815260208190526040902055600254610c0f9082610d47565b6002556040805182815290516000916001600160a01b038516917fddf252ad1be2c89b69c2b068fc378daa952ba7f163c4a11628f55a4df523b3ef9181900360200190a35050565b6001600160a01b038216610cb2576040805162461bcd60e51b815260206004820152601f60248201527f45524332303a206d696e7420746f20746865207a65726f206164647265737300604482015290519081900360640190fd5b610cbe600083836104f5565b600254610ccb9082610afa565b6002556001600160a01b038216600090815260208190526040902054610cf19082610afa565b6001600160a01b0383166000818152602081815260408083209490945583518581529351929391927fddf252ad1be2c89b69c2b068fc378daa952ba7f163c4a11628f55a4df523b3ef9281900390910190a35050565b600082821115610d9e576040805162461bcd60e51b815260206004820152601e60248201527f536166654d6174683a207375627472616374696f6e206f766572666c6f770000604482015290519081900360640190fd5b5090039056fe45524332303a207472616e7366657220746f20746865207a65726f206164647265737345524332303a206275726e20616d6f756e7420657863656564732062616c616e636545524332303a20617070726f766520746f20746865207a65726f206164647265737345524332303a207472616e7366657220616d6f756e7420657863656564732062616c616e636545524332303a207472616e7366657220616d6f756e74206578636565647320616c6c6f77616e636545524332303a206275726e2066726f6d20746865207a65726f206164647265737345524332303a207472616e736665722066726f6d20746865207a65726f206164647265737345524332303a20617070726f76652066726f6d20746865207a65726f206164647265737345524332303a2064656372656173656420616c6c6f77616e63652062656c6f77207a65726fa2646970667358221220c881513fca5a75d47e02fc1c04920461b43ce001b23b37bd2a0244cb5b4737ce64736f6c63430007060033a2646970667358221220dfe4057e13bfa2a974d312dc20d022b884fc68c5ba5f79e30d2c066ab71be6c764736f6c6343000706003360806040523480156200001157600080fd5b50604051620011f3380380620011f3833981810160405260608110156200003757600080fd5b81019080805160405193929190846401000000008211156200005857600080fd5b9083019060208201858111156200006e57600080fd5b82516401000000008111828201881017156200008957600080fd5b82525081516020918201929091019080838360005b83811015620000b85781810151838201526020016200009e565b50505050905090810190601f168015620000e65780820380516001836020036101000a031916815260200191505b50604052602001805160405193929190846401000000008211156200010a57600080fd5b9083019060208201858111156200012057600080fd5b82516401000000008111828201881017156200013b57600080fd5b82525081516020918201929091019080838360005b838110156200016a57818101518382015260200162000150565b50505050905090810190601f168015620001985780820380516001836020036101000a031916815260200191505b5060405260209081015185519093508592508491620001bd9160039185019062000219565b508051620001d390600490602084019062000219565b5050600580546001600160a01b039390931661010090810233909102610100600160a81b031960ff199095166012178516179093169290921790915550620002c5915050565b828054600181600116156101000203166002900490600052602060002090601f0160209004810192826200025157600085556200029c565b82601f106200026c57805160ff19168380011785556200029c565b828001600101855582156200029c579182015b828111156200029c5782518255916020019190600101906200027f565b50620002aa929150620002ae565b5090565b5b80821115620002aa5760008155600101620002af565b610f1e80620002d56000396000f3fe608060405234801561001057600080fd5b506004361061010b5760003560e01c806370a08231116100a2578063a457c2d711610071578063a457c2d714610343578063a9059cbb1461036f578063c024cd261461039b578063dd62ed3e146103c7578063f2fde38b146103f55761010b565b806370a08231146102cb57806371297784146102f1578063893d20e81461031757806395d89b411461033b5761010b565b806323b872dd116100de57806323b872dd1461021f578063313ce56714610255578063395093511461027357806342986e131461029f5761010b565b806306fdde0314610110578063095ea7b31461018d5780630fb66557146101cd57806318160ddd14610205575b600080fd5b61011861041b565b6040805160208082528351818301528351919283929083019185019080838360005b8381101561015257818101518382015260200161013a565b50505050905090810190601f16801561017f5780820380516001836020036101000a031916815260200191505b509250505060405180910390f35b6101b9600480360360408110156101a357600080fd5b506001600160a01b0381351690602001356104b1565b604080519115158252519081900360200190f35b610203600480360360608110156101e357600080fd5b506001600160a01b038135811691602081013590911690604001356104ce565b005b61020d6104fa565b60408051918252519081900360200190f35b6101b96004803603606081101561023557600080fd5b506001600160a01b03813581169160208101359091169060400135610500565b61025d610587565b6040805160ff9092168252519081900360200190f35b6101b96004803603604081101561028957600080fd5b506001600160a01b038135169060200135610590565b610203600480360360408110156102b557600080fd5b506001600160a01b0381351690602001356105de565b61020d600480360360208110156102e157600080fd5b50356001600160a01b0316610608565b61020d6004803603602081101561030757600080fd5b50356001600160a01b0316610623565b61031f61065f565b604080516001600160a01b039092168252519081900360200190f35b610118610673565b6101b96004803603604081101561035957600080fd5b506001600160a01b0381351690602001356106d4565b6101b96004803603604081101561038557600080fd5b506001600160a01b03813516906020013561073c565b610203600480360360408110156103b157600080fd5b506001600160a01b038135169060200135610750565b61020d600480360360408110156103dd57600080fd5b506001600160a01b0381358116916020013516610776565b6101b96004803603602081101561040b57600080fd5b50356001600160a01b03166107a1565b60038054604080516020601f60026000196101006001881615020190951694909404938401819004810282018101909252828152606093909290918301828280156104a75780601f1061047c576101008083540402835291602001916104a7565b820191906000526020600020905b81548152906001019060200180831161048a57829003601f168201915b5050505050905090565b60006104c56104be610818565b848461081c565b50600192915050565b60055461010090046001600160a01b031633146104ea57600080fd5b6104f5838383610908565b505050565b60025490565b600061050d848484610908565b61057d84610519610818565b61057885604051806060016040528060288152602001610e32602891396001600160a01b038a16600090815260016020526040812090610557610818565b6001600160a01b031681526020810191909152604001600020549190610a63565b61081c565b5060019392505050565b60055460ff1690565b60006104c561059d610818565b8461057885600160006105ae610818565b6001600160a01b03908116825260208083019390935260409182016000908120918c168152925290205490610afa565b60055461010090046001600160a01b031633146105fa57600080fd5b6106048282610b5b565b5050565b6001600160a01b031660009081526020819052604090205490565b60055460009061010090046001600160a01b0316331461064257600080fd5b600061064d83610608565b90506106598382610b5b565b92915050565b60055461010090046001600160a01b031690565b60048054604080516020601f60026000196101006001881615020190951694909404938401819004810282018101909252828152606093909290918301828280156104a75780601f1061047c576101008083540402835291602001916104a7565b60006104c56106e1610818565b8461057885604051806060016040528060258152602001610ec4602591396001600061070b610818565b6001600160a01b03908116825260208083019390935260409182016000908120918d16815292529020549190610a63565b60006104c5610749610818565b8484610908565b60055461010090046001600160a01b0316331461076c57600080fd5b6106048282610c57565b6001600160a01b03918216600090815260016020908152604080832093909416825291909152205490565b60055460009061010090046001600160a01b031633146107c057600080fd5b6001600160a01b0382166107d357600080fd5b6005546107ee9061010090046001600160a01b031683610604565b50600580546001600160a01b03831661010002610100600160a81b03199091161790556001919050565b3390565b6001600160a01b0383166108615760405162461bcd60e51b8152600401808060200182810382526024815260200180610ea06024913960400191505060405180910390fd5b6001600160a01b0382166108a65760405162461bcd60e51b8152600401808060200182810382526022815260200180610dea6022913960400191505060405180910390fd5b6001600160a01b03808416600081815260016020908152604080832094871680845294825291829020859055815185815291517f8c5be1e5ebec7d5bd14f71427d1e84f3dd0314c0f7b2291e5b200ac8c7c3b9259281900390910190a3505050565b6001600160a01b03831661094d5760405162461bcd60e51b8152600401808060200182810382526025815260200180610e7b6025913960400191505060405180910390fd5b6001600160a01b0382166109925760405162461bcd60e51b8152600401808060200182810382526023815260200180610da56023913960400191505060405180910390fd5b61099d8383836104f5565b6109da81604051806060016040528060268152602001610e0c602691396001600160a01b0386166000908152602081905260409020549190610a63565b6001600160a01b038085166000908152602081905260408082209390935590841681522054610a099082610afa565b6001600160a01b038084166000818152602081815260409182902094909455805185815290519193928716927fddf252ad1be2c89b69c2b068fc378daa952ba7f163c4a11628f55a4df523b3ef92918290030190a3505050565b60008184841115610af25760405162461bcd60e51b81526004018080602001828103825283818151815260200191508051906020019080838360005b83811015610ab7578181015183820152602001610a9f565b50505050905090810190601f168015610ae45780820380516001836020036101000a031916815260200191505b509250505060405180910390fd5b505050900390565b600082820183811015610b54576040805162461bcd60e51b815260206004820152601b60248201527f536166654d6174683a206164646974696f6e206f766572666c6f770000000000604482015290519081900360640190fd5b9392505050565b6001600160a01b038216610ba05760405162461bcd60e51b8152600401808060200182810382526021815260200180610e5a6021913960400191505060405180910390fd5b610bac826000836104f5565b610be981604051806060016040528060228152602001610dc8602291396001600160a01b0385166000908152602081905260409020549190610a63565b6001600160a01b038316600090815260208190526040902055600254610c0f9082610d47565b6002556040805182815290516000916001600160a01b038516917fddf252ad1be2c89b69c2b068fc378daa952ba7f163c4a11628f55a4df523b3ef9181900360200190a35050565b6001600160a01b038216610cb2576040805162461bcd60e51b815260206004820152601f60248201527f45524332303a206d696e7420746f20746865207a65726f206164647265737300604482015290519081900360640190fd5b610cbe600083836104f5565b600254610ccb9082610afa565b6002556001600160a01b038216600090815260208190526040902054610cf19082610afa565b6001600160a01b0383166000818152602081815260408083209490945583518581529351929391927fddf252ad1be2c89b69c2b068fc378daa952ba7f163c4a11628f55a4df523b3ef9281900390910190a35050565b600082821115610d9e576040805162461bcd60e51b815260206004820152601e60248201527f536166654d6174683a207375627472616374696f6e206f766572666c6f770000604482015290519081900360640190fd5b5090039056fe45524332303a207472616e7366657220746f20746865207a65726f206164647265737345524332303a206275726e20616d6f756e7420657863656564732062616c616e636545524332303a20617070726f766520746f20746865207a65726f206164647265737345524332303a207472616e7366657220616d6f756e7420657863656564732062616c616e636545524332303a207472616e7366657220616d6f756e74206578636565647320616c6c6f77616e636545524332303a206275726e2066726f6d20746865207a65726f206164647265737345524332303a207472616e736665722066726f6d20746865207a65726f206164647265737345524332303a20617070726f76652066726f6d20746865207a65726f206164647265737345524332303a2064656372656173656420616c6c6f77616e63652062656c6f77207a65726fa2646970667358221220c881513fca5a75d47e02fc1c04920461b43ce001b23b37bd2a0244cb5b4737ce64736f6c63430007060033",
  "devdoc": {
    "kind": "dev",
    "methods": {
      "transferOwnership(address)": {
        "details": "Allows the current owner to transfer control of the contract to a newOwner.",
        "params": {
          "_newOwner": "The address to transfer ownership to."
        }
      }
    },
    "version": 1
  },
  "userdoc": {
    "kind": "user",
    "methods": {},
    "version": 1
  },
  "storageLayout": {
    "storage": [
      {
        "astId": 5351,
        "contract": "contracts/turbo/MMALinkMarketFactory.sol:MMALinkMarketFactory",
        "label": "owner",
        "offset": 0,
        "slot": "0",
        "type": "t_address"
      },
      {
        "astId": 7873,
        "contract": "contracts/turbo/MMALinkMarketFactory.sol:MMALinkMarketFactory",
        "label": "collateral",
        "offset": 0,
        "slot": "1",
        "type": "t_contract(IERC20Full)5328"
      },
      {
        "astId": 7875,
        "contract": "contracts/turbo/MMALinkMarketFactory.sol:MMALinkMarketFactory",
        "label": "feePot",
        "offset": 0,
        "slot": "2",
        "type": "t_contract(FeePot)9156"
      },
      {
        "astId": 7877,
        "contract": "contracts/turbo/MMALinkMarketFactory.sol:MMALinkMarketFactory",
        "label": "stakerFee",
        "offset": 0,
        "slot": "3",
        "type": "t_uint256"
      },
      {
        "astId": 7879,
        "contract": "contracts/turbo/MMALinkMarketFactory.sol:MMALinkMarketFactory",
        "label": "settlementFee",
        "offset": 0,
        "slot": "4",
        "type": "t_uint256"
      },
      {
        "astId": 7881,
        "contract": "contracts/turbo/MMALinkMarketFactory.sol:MMALinkMarketFactory",
        "label": "protocolFee",
        "offset": 0,
        "slot": "5",
        "type": "t_uint256"
      },
      {
        "astId": 7883,
        "contract": "contracts/turbo/MMALinkMarketFactory.sol:MMALinkMarketFactory",
        "label": "protocol",
        "offset": 0,
        "slot": "6",
        "type": "t_address"
      },
      {
        "astId": 7886,
        "contract": "contracts/turbo/MMALinkMarketFactory.sol:MMALinkMarketFactory",
        "label": "accumulatedProtocolFee",
        "offset": 0,
        "slot": "7",
        "type": "t_uint256"
      },
      {
        "astId": 7890,
        "contract": "contracts/turbo/MMALinkMarketFactory.sol:MMALinkMarketFactory",
        "label": "accumulatedSettlementFees",
        "offset": 0,
        "slot": "8",
        "type": "t_mapping(t_address,t_uint256)"
      },
      {
        "astId": 7892,
        "contract": "contracts/turbo/MMALinkMarketFactory.sol:MMALinkMarketFactory",
        "label": "shareFactor",
        "offset": 0,
        "slot": "9",
        "type": "t_uint256"
      },
      {
        "astId": 7913,
        "contract": "contracts/turbo/MMALinkMarketFactory.sol:MMALinkMarketFactory",
        "label": "markets",
        "offset": 0,
        "slot": "10",
        "type": "t_array(t_struct(Market)7910_storage)dyn_storage"
      },
      {
        "astId": 9231,
        "contract": "contracts/turbo/MMALinkMarketFactory.sol:MMALinkMarketFactory",
        "label": "marketDetails",
        "offset": 0,
        "slot": "11",
        "type": "t_mapping(t_uint256,t_struct(MarketDetails)9227_storage)"
      },
      {
        "astId": 9237,
        "contract": "contracts/turbo/MMALinkMarketFactory.sol:MMALinkMarketFactory",
        "label": "events",
        "offset": 0,
        "slot": "12",
        "type": "t_mapping(t_uint256,t_array(t_uint256)3_storage)"
      },
      {
        "astId": 9239,
        "contract": "contracts/turbo/MMALinkMarketFactory.sol:MMALinkMarketFactory",
        "label": "linkNode",
        "offset": 0,
        "slot": "13",
        "type": "t_address"
      },
      {
        "astId": 9241,
        "contract": "contracts/turbo/MMALinkMarketFactory.sol:MMALinkMarketFactory",
        "label": "sportId",
        "offset": 0,
        "slot": "14",
        "type": "t_uint256"
      }
    ],
    "types": {
      "t_address": {
        "encoding": "inplace",
        "label": "address",
        "numberOfBytes": "20"
      },
      "t_array(t_contract(OwnedERC20)10679)dyn_storage": {
        "base": "t_contract(OwnedERC20)10679",
        "encoding": "dynamic_array",
        "label": "contract OwnedERC20[]",
        "numberOfBytes": "32"
      },
      "t_array(t_struct(Market)7910_storage)dyn_storage": {
        "base": "t_struct(Market)7910_storage",
        "encoding": "dynamic_array",
        "label": "struct AbstractMarketFactory.Market[]",
        "numberOfBytes": "32"
      },
      "t_array(t_uint256)3_storage": {
        "base": "t_uint256",
        "encoding": "inplace",
        "label": "uint256[3]",
        "numberOfBytes": "96"
      },
      "t_contract(FeePot)9156": {
        "encoding": "inplace",
        "label": "contract FeePot",
        "numberOfBytes": "20"
      },
      "t_contract(IERC20Full)5328": {
        "encoding": "inplace",
        "label": "contract IERC20Full",
        "numberOfBytes": "20"
      },
      "t_contract(OwnedERC20)10679": {
        "encoding": "inplace",
        "label": "contract OwnedERC20",
        "numberOfBytes": "20"
      },
      "t_enum(EventStatus)9212": {
        "encoding": "inplace",
        "label": "enum MMALinkMarketFactory.EventStatus",
        "numberOfBytes": "1"
      },
      "t_enum(MarketType)9206": {
        "encoding": "inplace",
        "label": "enum MMALinkMarketFactory.MarketType",
        "numberOfBytes": "1"
      },
      "t_int256": {
        "encoding": "inplace",
        "label": "int256",
        "numberOfBytes": "32"
      },
      "t_mapping(t_address,t_uint256)": {
        "encoding": "mapping",
        "key": "t_address",
        "label": "mapping(address => uint256)",
        "numberOfBytes": "32",
        "value": "t_uint256"
      },
      "t_mapping(t_uint256,t_array(t_uint256)3_storage)": {
        "encoding": "mapping",
        "key": "t_uint256",
        "label": "mapping(uint256 => uint256[3])",
        "numberOfBytes": "32",
        "value": "t_array(t_uint256)3_storage"
      },
      "t_mapping(t_uint256,t_struct(MarketDetails)9227_storage)": {
        "encoding": "mapping",
        "key": "t_uint256",
        "label": "mapping(uint256 => struct MMALinkMarketFactory.MarketDetails)",
        "numberOfBytes": "32",
        "value": "t_struct(MarketDetails)9227_storage"
      },
      "t_struct(Market)7910_storage": {
        "encoding": "inplace",
        "label": "struct AbstractMarketFactory.Market",
        "members": [
          {
            "astId": 7894,
            "contract": "contracts/turbo/MMALinkMarketFactory.sol:MMALinkMarketFactory",
            "label": "settlementAddress",
            "offset": 0,
            "slot": "0",
            "type": "t_address"
          },
          {
            "astId": 7897,
            "contract": "contracts/turbo/MMALinkMarketFactory.sol:MMALinkMarketFactory",
            "label": "shareTokens",
            "offset": 0,
            "slot": "1",
            "type": "t_array(t_contract(OwnedERC20)10679)dyn_storage"
          },
          {
            "astId": 7899,
            "contract": "contracts/turbo/MMALinkMarketFactory.sol:MMALinkMarketFactory",
            "label": "endTime",
            "offset": 0,
            "slot": "2",
            "type": "t_uint256"
          },
          {
            "astId": 7901,
            "contract": "contracts/turbo/MMALinkMarketFactory.sol:MMALinkMarketFactory",
            "label": "winner",
            "offset": 0,
            "slot": "3",
            "type": "t_contract(OwnedERC20)10679"
          },
          {
            "astId": 7903,
            "contract": "contracts/turbo/MMALinkMarketFactory.sol:MMALinkMarketFactory",
            "label": "settlementFee",
            "offset": 0,
            "slot": "4",
            "type": "t_uint256"
          },
          {
            "astId": 7905,
            "contract": "contracts/turbo/MMALinkMarketFactory.sol:MMALinkMarketFactory",
            "label": "protocolFee",
            "offset": 0,
            "slot": "5",
            "type": "t_uint256"
          },
          {
            "astId": 7907,
            "contract": "contracts/turbo/MMALinkMarketFactory.sol:MMALinkMarketFactory",
            "label": "stakerFee",
            "offset": 0,
            "slot": "6",
            "type": "t_uint256"
          },
          {
            "astId": 7909,
            "contract": "contracts/turbo/MMALinkMarketFactory.sol:MMALinkMarketFactory",
            "label": "creationTimestamp",
            "offset": 0,
            "slot": "7",
            "type": "t_uint256"
          }
        ],
        "numberOfBytes": "256"
      },
      "t_struct(MarketDetails)9227_storage": {
        "encoding": "inplace",
        "label": "struct MMALinkMarketFactory.MarketDetails",
        "members": [
          {
            "astId": 9214,
            "contract": "contracts/turbo/MMALinkMarketFactory.sol:MMALinkMarketFactory",
            "label": "eventId",
            "offset": 0,
            "slot": "0",
            "type": "t_uint256"
          },
          {
            "astId": 9216,
            "contract": "contracts/turbo/MMALinkMarketFactory.sol:MMALinkMarketFactory",
            "label": "homeTeamId",
            "offset": 0,
            "slot": "1",
            "type": "t_uint256"
          },
          {
            "astId": 9218,
            "contract": "contracts/turbo/MMALinkMarketFactory.sol:MMALinkMarketFactory",
            "label": "awayTeamId",
            "offset": 0,
            "slot": "2",
            "type": "t_uint256"
          },
          {
            "astId": 9220,
            "contract": "contracts/turbo/MMALinkMarketFactory.sol:MMALinkMarketFactory",
            "label": "estimatedStartTime",
            "offset": 0,
            "slot": "3",
            "type": "t_uint256"
          },
          {
            "astId": 9222,
            "contract": "contracts/turbo/MMALinkMarketFactory.sol:MMALinkMarketFactory",
            "label": "marketType",
            "offset": 0,
            "slot": "4",
            "type": "t_enum(MarketType)9206"
          },
          {
            "astId": 9224,
            "contract": "contracts/turbo/MMALinkMarketFactory.sol:MMALinkMarketFactory",
            "label": "eventStatus",
            "offset": 1,
            "slot": "4",
            "type": "t_enum(EventStatus)9212"
          },
          {
            "astId": 9226,
            "contract": "contracts/turbo/MMALinkMarketFactory.sol:MMALinkMarketFactory",
            "label": "value0",
            "offset": 0,
            "slot": "5",
            "type": "t_int256"
          }
        ],
        "numberOfBytes": "192"
      },
      "t_uint256": {
        "encoding": "inplace",
        "label": "uint256",
        "numberOfBytes": "32"
      }
    }
  }
}