{
  "_format": "hh-sol-artifact-1",
  "contractName": "BToken",
  "sourceName": "contracts/balancer/BToken.sol",
  "abi": [
    {
      "anonymous": false,
      "inputs": [
        {
          "indexed": true,
          "internalType": "address",
          "name": "src",
          "type": "address"
        },
        {
          "indexed": true,
          "internalType": "address",
          "name": "dst",
          "type": "address"
        },
        {
          "indexed": false,
          "internalType": "uint256",
          "name": "amt",
          "type": "uint256"
        }
      ],
      "name": "Approval",
      "type": "event"
    },
    {
      "anonymous": false,
      "inputs": [
        {
          "indexed": true,
          "internalType": "address",
          "name": "src",
          "type": "address"
        },
        {
          "indexed": true,
          "internalType": "address",
          "name": "dst",
          "type": "address"
        },
        {
          "indexed": false,
          "internalType": "uint256",
          "name": "amt",
          "type": "uint256"
        }
      ],
      "name": "Transfer",
      "type": "event"
    },
    {
      "inputs": [],
      "name": "BONE",
      "outputs": [
        {
          "internalType": "uint256",
          "name": "",
          "type": "uint256"
        }
      ],
      "stateMutability": "view",
      "type": "function"
    },
    {
      "inputs": [],
      "name": "BPOW_PRECISION",
      "outputs": [
        {
          "internalType": "uint256",
          "name": "",
          "type": "uint256"
        }
      ],
      "stateMutability": "view",
      "type": "function"
    },
    {
      "inputs": [],
      "name": "EXIT_FEE",
      "outputs": [
        {
          "internalType": "uint256",
          "name": "",
          "type": "uint256"
        }
      ],
      "stateMutability": "view",
      "type": "function"
    },
    {
      "inputs": [],
      "name": "INIT_POOL_SUPPLY",
      "outputs": [
        {
          "internalType": "uint256",
          "name": "",
          "type": "uint256"
        }
      ],
      "stateMutability": "view",
      "type": "function"
    },
    {
      "inputs": [],
      "name": "MAX_BOUND_TOKENS",
      "outputs": [
        {
          "internalType": "uint256",
          "name": "",
          "type": "uint256"
        }
      ],
      "stateMutability": "view",
      "type": "function"
    },
    {
      "inputs": [],
      "name": "MAX_BPOW_BASE",
      "outputs": [
        {
          "internalType": "uint256",
          "name": "",
          "type": "uint256"
        }
      ],
      "stateMutability": "view",
      "type": "function"
    },
    {
      "inputs": [],
      "name": "MAX_FEE",
      "outputs": [
        {
          "internalType": "uint256",
          "name": "",
          "type": "uint256"
        }
      ],
      "stateMutability": "view",
      "type": "function"
    },
    {
      "inputs": [],
      "name": "MAX_IN_RATIO",
      "outputs": [
        {
          "internalType": "uint256",
          "name": "",
          "type": "uint256"
        }
      ],
      "stateMutability": "view",
      "type": "function"
    },
    {
      "inputs": [],
      "name": "MAX_OUT_RATIO",
      "outputs": [
        {
          "internalType": "uint256",
          "name": "",
          "type": "uint256"
        }
      ],
      "stateMutability": "view",
      "type": "function"
    },
    {
      "inputs": [],
      "name": "MAX_TOTAL_WEIGHT",
      "outputs": [
        {
          "internalType": "uint256",
          "name": "",
          "type": "uint256"
        }
      ],
      "stateMutability": "view",
      "type": "function"
    },
    {
      "inputs": [],
      "name": "MAX_WEIGHT",
      "outputs": [
        {
          "internalType": "uint256",
          "name": "",
          "type": "uint256"
        }
      ],
      "stateMutability": "view",
      "type": "function"
    },
    {
      "inputs": [],
      "name": "MIN_BALANCE",
      "outputs": [
        {
          "internalType": "uint256",
          "name": "",
          "type": "uint256"
        }
      ],
      "stateMutability": "view",
      "type": "function"
    },
    {
      "inputs": [],
      "name": "MIN_BOUND_TOKENS",
      "outputs": [
        {
          "internalType": "uint256",
          "name": "",
          "type": "uint256"
        }
      ],
      "stateMutability": "view",
      "type": "function"
    },
    {
      "inputs": [],
      "name": "MIN_BPOW_BASE",
      "outputs": [
        {
          "internalType": "uint256",
          "name": "",
          "type": "uint256"
        }
      ],
      "stateMutability": "view",
      "type": "function"
    },
    {
      "inputs": [],
      "name": "MIN_FEE",
      "outputs": [
        {
          "internalType": "uint256",
          "name": "",
          "type": "uint256"
        }
      ],
      "stateMutability": "view",
      "type": "function"
    },
    {
      "inputs": [],
      "name": "MIN_WEIGHT",
      "outputs": [
        {
          "internalType": "uint256",
          "name": "",
          "type": "uint256"
        }
      ],
      "stateMutability": "view",
      "type": "function"
    },
    {
      "inputs": [
        {
          "internalType": "address",
          "name": "src",
          "type": "address"
        },
        {
          "internalType": "address",
          "name": "dst",
          "type": "address"
        }
      ],
      "name": "allowance",
      "outputs": [
        {
          "internalType": "uint256",
          "name": "",
          "type": "uint256"
        }
      ],
      "stateMutability": "view",
      "type": "function"
    },
    {
      "inputs": [
        {
          "internalType": "address",
          "name": "dst",
          "type": "address"
        },
        {
          "internalType": "uint256",
          "name": "amt",
          "type": "uint256"
        }
      ],
      "name": "approve",
      "outputs": [
        {
          "internalType": "bool",
          "name": "",
          "type": "bool"
        }
      ],
      "stateMutability": "nonpayable",
      "type": "function"
    },
    {
      "inputs": [
        {
          "internalType": "address",
          "name": "whom",
          "type": "address"
        }
      ],
      "name": "balanceOf",
      "outputs": [
        {
          "internalType": "uint256",
          "name": "",
          "type": "uint256"
        }
      ],
      "stateMutability": "view",
      "type": "function"
    },
    {
      "inputs": [],
      "name": "decimals",
      "outputs": [
        {
          "internalType": "uint8",
          "name": "",
          "type": "uint8"
        }
      ],
      "stateMutability": "view",
      "type": "function"
    },
    {
      "inputs": [
        {
          "internalType": "address",
          "name": "dst",
          "type": "address"
        },
        {
          "internalType": "uint256",
          "name": "amt",
          "type": "uint256"
        }
      ],
      "name": "decreaseApproval",
      "outputs": [
        {
          "internalType": "bool",
          "name": "",
          "type": "bool"
        }
      ],
      "stateMutability": "nonpayable",
      "type": "function"
    },
    {
      "inputs": [],
      "name": "getColor",
      "outputs": [
        {
          "internalType": "bytes32",
          "name": "",
          "type": "bytes32"
        }
      ],
      "stateMutability": "pure",
      "type": "function"
    },
    {
      "inputs": [
        {
          "internalType": "address",
          "name": "dst",
          "type": "address"
        },
        {
          "internalType": "uint256",
          "name": "amt",
          "type": "uint256"
        }
      ],
      "name": "increaseApproval",
      "outputs": [
        {
          "internalType": "bool",
          "name": "",
          "type": "bool"
        }
      ],
      "stateMutability": "nonpayable",
      "type": "function"
    },
    {
      "inputs": [],
      "name": "name",
      "outputs": [
        {
          "internalType": "string",
          "name": "",
          "type": "string"
        }
      ],
      "stateMutability": "view",
      "type": "function"
    },
    {
      "inputs": [],
      "name": "symbol",
      "outputs": [
        {
          "internalType": "string",
          "name": "",
          "type": "string"
        }
      ],
      "stateMutability": "view",
      "type": "function"
    },
    {
      "inputs": [],
      "name": "totalSupply",
      "outputs": [
        {
          "internalType": "uint256",
          "name": "",
          "type": "uint256"
        }
      ],
      "stateMutability": "view",
      "type": "function"
    },
    {
      "inputs": [
        {
          "internalType": "address",
          "name": "dst",
          "type": "address"
        },
        {
          "internalType": "uint256",
          "name": "amt",
          "type": "uint256"
        }
      ],
      "name": "transfer",
      "outputs": [
        {
          "internalType": "bool",
          "name": "",
          "type": "bool"
        }
      ],
      "stateMutability": "nonpayable",
      "type": "function"
    },
    {
      "inputs": [
        {
          "internalType": "address",
          "name": "src",
          "type": "address"
        },
        {
          "internalType": "address",
          "name": "dst",
          "type": "address"
        },
        {
          "internalType": "uint256",
          "name": "amt",
          "type": "uint256"
        }
      ],
      "name": "transferFrom",
      "outputs": [
        {
          "internalType": "bool",
          "name": "",
          "type": "bool"
        }
      ],
      "stateMutability": "nonpayable",
      "type": "function"
    }
  ],
  "bytecode": "0x608060405260405160408082019052601381527f42616c616e63657220506f6f6c20546f6b656e00000000000000000000000000602082015260039080516200004d929160200190620000c9565b5060405160408082019052600381526210941560ea1b602082015260049080516200007d929160200190620000c9565b50601260056001816200008f6200018b565b8160ff021916908360ff16021790620000a7620001ed565b505050348015620000c257600080620000bf6200023c565b50505b50620002cc565b8280620000d56200018b565b600181600116156101000203166002900490600052602060002090601f01602090048101928262000115576000856200010d620001ed565b505062000179565b82601f106200013357805160ff191683800117856200010d620001ed565b8280016001018562000144620001ed565b5050821562000179579182015b82811115620001795782518262000167620001ed565b50509160200191906001019062000151565b5062000187929150620002a9565b5090565b6303daa959598160e01b8152836004820152602081602483336000905af158600e01573d6000803e3d6000fd5b3d6001141558600a015760016000f35b8051935060005b6040811015620001e857600082820152602001620001cf565b505050565b6322bd64c0598160e01b8152836004820152846024820152600081604483336000905af158600e01573d6000803e3d6000fd5b3d6001141558600a015760016000f35b600081526020620001cf565b632a2a7adb598160e01b8152600481016020815285602082015260005b868110156200027657808601518282016040015260200162000259565b506020828760640184336000905af158600e01573d6000803e3d6000fd5b3d6001141558600a015760016000f35b505050565b80821115620001875760008082620002c0620001ed565b505050600101620002a9565b61111a80620002dc6000396000f3fe608060405234801561001957600080610016610f9a565b50505b50600436106101cd5760003560e01c8063992e2a9211610102578063bc694ea2116100a0578063d73dd6231161007a578063d73dd6231461042b578063dd62ed3e14610460578063e4a28a52146102a3578063ec09302114610497576101cd565b8063bc694ea21461041b578063c36596a6146102cd578063c6580d1214610423576101cd565b8063b0e0d136116100dc578063b0e0d136146103fb578063b7b800a414610403578063ba019dab1461040b578063bc063e1a14610413576101cd565b8063992e2a92146103b65780639a86139b146103be578063a9059cbb146103c6576101cd565b8063313ce5671161016f57806376c7a3c71161014957806376c7a3c714610396578063867378c51461039e5780639381cd2b146103a657806395d89b41146103ae576101cd565b8063313ce56714610314578063661884631461033257806370a0823114610367576101cd565b806318160ddd116101ab57806318160ddd146102bd578063189d00ca146102c5578063218b5382146102cd57806323b872dd146102d5576101cd565b806306fdde03146101db578063095ea7b31461025a57806309a3bbe4146102a3575b6000806101d8610f9a565b50505b6101e361049f565b60405160208082528190810183818151815260200191508051906020019080838360005b8381101561021f578082015183820152602001610207565b50505050905090810190601f16801561024c5780820380516001836020036101000a031916815260200191505b509250505060405180910390f35b61028f6004803603604081101561027957600080610276610f9a565b50505b506001600160a01b03813516906020013561055c565b604051901515815260200160405180910390f35b6102ab6105f8565b60405190815260200160405180910390f35b6102ab610605565b6102ab610616565b6102ab61062a565b61028f600480360360608110156102f4576000806102f1610f9a565b50505b506001600160a01b03813581169160208101359091169060400135610636565b61031c6108b5565b60405160ff909116815260200160405180910390f35b61028f600480360360408110156103515760008061034e610f9a565b50505b506001600160a01b0381351690602001356108d1565b6102ab6004803603602081101561038657600080610383610f9a565b50505b50356001600160a01b0316610a5d565b6102ab610a83565b6102ab610a95565b6102ab610aa9565b6101e3610ab6565b6102ab610b5c565b6102ab610b68565b61028f600480360360408110156103e5576000806103e2610f9a565b50505b506001600160a01b038135169060200135610b75565b6102ab610b93565b6102ab610b98565b6102ab610b9d565b6102ab610ba2565b6102ab610bb2565b6102ab610bbe565b61028f6004803603604081101561044a57600080610447610f9a565b50505b506001600160a01b038135169060200135610bc3565b6102ab6004803603604081101561047f5760008061047c610f9a565b50505b506001600160a01b0381358116916020013516610d02565b6102ab610d42565b60606003806104ac611005565b600181600116156101000203166002900480601f0160208091040260200160405190810160405281815291906020830182806104e6611005565b600181600116156101000203166002900480156105525780601f10610520576101008083610512611005565b040283529160200191610552565b820191906000526020600020905b81610537611005565b8152906001019060200180831161052e57829003601f168201915b5050505050905090565b600081600160005a61056c611065565b6001600160a01b03166001600160a01b031681526020019081526020016000206001600160a01b03851660009081526020919091526040902081906105af6110ab565b505050826001600160a01b03165a6105c5611065565b6001600160a01b03166000805160206110fa8339815191528460405190815260200160405180910390a350600192915050565b6802b5e3af16b188000081565b60006002610611611005565b905090565b6402540be400670de0b6b3a76400005b0481565b670de0b6b3a764000081565b6000836001600160a01b03165a61064b611065565b6001600160a01b031614806106aa57506001600160a01b038416600090815260016020526040902060005a61067e611065565b6001600160a01b03166001600160a01b031681526020019081526020016000206106a6611005565b8211155b6106fb5760405162461bcd60e51b815260206004820152601560248201527422a9292fa12a27a5a2a72fa120a22fa1a0a62622a960591b6044820152606401604051809103906106f8610f9a565b50505b610706848484610d52565b836001600160a01b03165a610719611065565b6001600160a01b03161415801561077d57506001600160a01b03841660009081526001602052600019906040902060005a610752611065565b6001600160a01b03166001600160a01b0316815260200190815260200160002061077a611005565b14155b156108ab576001600160a01b038416600090815260016020526107d7906040902060005a6107a9611065565b6001600160a01b03166001600160a01b031681526020019081526020016000206107d1611005565b83610eb0565b6001600160a01b038516600090815260016020526040902060005a6107fa611065565b6001600160a01b03166001600160a01b0316815260200190815260200160002081906108246110ab565b505050826001600160a01b03165a61083a611065565b6001600160a01b03868116600090815260016020529116906000805160206110fa833981519152906040902060005a610871611065565b6001600160a01b03166001600160a01b03168152602001908152602001600020610899611005565b60405190815260200160405180910390a35b5060019392505050565b60008060056108c2611005565b906101000a900460ff16905090565b600080600160005a6108e1611065565b6001600160a01b03166001600160a01b031681526020019081526020016000206001600160a01b038516600090815260209190915260409020610922611005565b905080831115610986576000600160005a61093b611065565b6001600160a01b03166001600160a01b031681526020019081526020016000206001600160a01b038616600090815260209190915260409020819061097e6110ab565b5050506109e4565b6109908184610eb0565b600160005a61099d611065565b6001600160a01b03166001600160a01b031681526020019081526020016000206001600160a01b03861660009081526020919091526040902081906109e06110ab565b5050505b836001600160a01b03165a6109f7611065565b6001600160a01b03166000805160206110fa833981519152600160005a610a1c611065565b6001600160a01b03166001600160a01b031681526020019081526020016000206001600160a01b038816600090815260209190915260409020610899611005565b6001600160a01b0381166000908152602081905260408120610a7d611005565b92915050565b620f4240670de0b6b3a7640000610626565b64e8d4a51000670de0b6b3a7640000610626565b68056bc75e2d6310000081565b6060600480610ac3611005565b600181600116156101000203166002900480601f016020809104026020016040519081016040528181529190602083018280610afd611005565b600181600116156101000203166002900480156105525780601f10610b29576101008083610512611005565b820191906000526020600020905b81610b40611005565b81529060010190602001808311610b3757509395945050505050565b6704a03ce68d21555681565b6542524f4e5a4560d01b90565b6000610b8a5a610b83611065565b8484610d52565b50600192915050565b600881565b600281565b600181565b600a670de0b6b3a7640000610626565b671bc16d674ec7ffff81565b600081565b6000610c1c600160005a610bd5611065565b6001600160a01b03166001600160a01b031681526020019081526020016000206001600160a01b038516600090815260209190915260409020610c16611005565b83610f1a565b600160005a610c29611065565b6001600160a01b03166001600160a01b031681526020019081526020016000206001600160a01b0385166000908152602091909152604090208190610c6c6110ab565b505050826001600160a01b03165a610c82611065565b6001600160a01b03166000805160206110fa833981519152600160005a610ca7611065565b6001600160a01b03166001600160a01b031681526020019081526020016000206001600160a01b038716600090815260209190915260409020610ce8611005565b60405190815260200160405180910390a350600192915050565b6001600160a01b03821660009081526001602052604081206001600160a01b038316600090815260209190915260409020610d3b611005565b9392505050565b6002670de0b6b3a7640000610626565b6001600160a01b03831660009081526020819052819060409020610d74611005565b1015610dc65760405162461bcd60e51b815260206004820152601460248201527311549497d25394d551919250d251539517d0905360621b604482015260640160405180910390610dc3610f9a565b50505b6001600160a01b03831660009081526020819052610df09060409020610dea611005565b82610eb0565b6001600160a01b03841660009081526020819052604090208190610e126110ab565b5050506001600160a01b03821660009081526020819052610e3f9060409020610e39611005565b82610f1a565b6001600160a01b03831660009081526020819052604090208190610e616110ab565b505050816001600160a01b0316836001600160a01b03167fddf252ad1be2c89b69c2b068fc378daa952ba7f163c4a11628f55a4df523b3ef8360405190815260200160405180910390a3505050565b6000806000610ebf8585610f75565b915091508015610f125760405162461bcd60e51b81526020600482015260116024820152704552525f5355425f554e444552464c4f5760781b604482015260640160405180910390610f0f610f9a565b50505b509392505050565b600082820183811015610d3b5760405162461bcd60e51b815260206004820152601060248201526f4552525f4144445f4f564552464c4f5760801b604482015260640160405180910390610f6c610f9a565b50509392505050565b600080828410610f8b5750508082036000610f93565b505081810360015b9250929050565b632a2a7adb598160e01b8152600481016020815285602082015260005b86811015610fd2578086015182820160400152602001610fb7565b506020828760640184336000905af158600e01573d6000803e3d6000fd5b3d6001141558600a015760016000f35b505050565b6303daa959598160e01b8152836004820152602081602483336000905af158600e01573d6000803e3d6000fd5b3d6001141558600a015760016000f35b8051935060005b604081101561106057600082820152602001611049565b505050565b6373509064598160e01b8152602081600483336000905af158600e01573d6000803e3d6000fd5b3d6001141558600a015760016000f35b80516000825293506020611049565b6322bd64c0598160e01b8152836004820152846024820152600081604483336000905af158600e01573d6000803e3d6000fd5b3d6001141558600a015760016000f35b60008152602061104956fe8c5be1e5ebec7d5bd14f71427d1e84f3dd0314c0f7b2291e5b200ac8c7c3b925",
  "linkReferences": {},
  "deployedLinkReferences": {}
}