{
  "_format": "hh-sol-artifact-1",
  "contractName": "AMMFactory",
  "sourceName": "contracts/turbo/AMMFactory.sol",
  "abi": [
    {
      "inputs": [
        {
          "internalType": "contract BFactory",
          "name": "_bFactory",
          "type": "address"
        }
      ],
      "stateMutability": "nonpayable",
      "type": "constructor"
    },
    {
      "anonymous": false,
      "inputs": [
        {
          "indexed": false,
          "internalType": "address",
          "name": "_pool",
          "type": "address"
        },
        {
          "indexed": true,
          "internalType": "address",
          "name": "_hatchery",
          "type": "address"
        },
        {
          "indexed": true,
          "internalType": "uint256",
          "name": "_turboId",
          "type": "uint256"
        },
        {
          "indexed": true,
          "internalType": "address",
          "name": "_creator",
          "type": "address"
        }
      ],
      "name": "PoolCreated",
      "type": "event"
    },
    {
      "inputs": [
        {
          "internalType": "contract ITurboHatchery",
          "name": "_hatchery",
          "type": "address"
        },
        {
          "internalType": "uint256",
          "name": "_turboId",
          "type": "uint256"
        },
        {
          "internalType": "uint256",
          "name": "_collateralIn",
          "type": "uint256"
        },
        {
          "internalType": "uint256",
          "name": "_minLPTokensOut",
          "type": "uint256"
        },
        {
          "internalType": "address",
          "name": "_lpTokenRecipient",
          "type": "address"
        }
      ],
      "name": "addLiquidity",
      "outputs": [
        {
          "internalType": "uint256",
          "name": "",
          "type": "uint256"
        }
      ],
      "stateMutability": "nonpayable",
      "type": "function"
    },
    {
      "inputs": [],
      "name": "bFactory",
      "outputs": [
        {
          "internalType": "contract BFactory",
          "name": "",
          "type": "address"
        }
      ],
      "stateMutability": "view",
      "type": "function"
    },
    {
      "inputs": [
        {
          "internalType": "contract ITurboHatchery",
          "name": "_hatchery",
          "type": "address"
        },
        {
          "internalType": "uint256",
          "name": "_turboId",
          "type": "uint256"
        },
        {
          "internalType": "uint256",
          "name": "_outcome",
          "type": "uint256"
        },
        {
          "internalType": "uint256",
          "name": "_collateralIn",
          "type": "uint256"
        },
        {
          "internalType": "uint256",
          "name": "_minTokensOut",
          "type": "uint256"
        }
      ],
      "name": "buy",
      "outputs": [
        {
          "internalType": "uint256",
          "name": "",
          "type": "uint256"
        }
      ],
      "stateMutability": "nonpayable",
      "type": "function"
    },
    {
      "inputs": [
        {
          "internalType": "contract ITurboHatchery",
          "name": "_hatchery",
          "type": "address"
        },
        {
          "internalType": "uint256",
          "name": "_turboId",
          "type": "uint256"
        },
        {
          "internalType": "uint256",
          "name": "_initialLiquidity",
          "type": "uint256"
        },
        {
          "internalType": "uint256[]",
          "name": "_weights",
          "type": "uint256[]"
        },
        {
          "internalType": "address",
          "name": "_lpTokenRecipient",
          "type": "address"
        }
      ],
      "name": "createPool",
      "outputs": [
        {
          "internalType": "contract BPool",
          "name": "",
          "type": "address"
        }
      ],
      "stateMutability": "nonpayable",
      "type": "function"
    },
    {
      "inputs": [
        {
          "internalType": "contract ITurboHatchery",
          "name": "_hatchery",
          "type": "address"
        },
        {
          "internalType": "uint256",
          "name": "_turboId",
          "type": "uint256"
        }
      ],
      "name": "getPoolBalances",
      "outputs": [
        {
          "internalType": "uint256[]",
          "name": "",
          "type": "uint256[]"
        }
      ],
      "stateMutability": "view",
      "type": "function"
    },
    {
      "inputs": [
        {
          "internalType": "address",
          "name": "",
          "type": "address"
        },
        {
          "internalType": "uint256",
          "name": "",
          "type": "uint256"
        }
      ],
      "name": "pools",
      "outputs": [
        {
          "internalType": "contract BPool",
          "name": "",
          "type": "address"
        }
      ],
      "stateMutability": "view",
      "type": "function"
    },
    {
      "inputs": [
        {
          "internalType": "contract ITurboHatchery",
          "name": "_hatchery",
          "type": "address"
        },
        {
          "internalType": "uint256",
          "name": "_turboId",
          "type": "uint256"
        }
      ],
      "name": "prices",
      "outputs": [
        {
          "internalType": "uint256[]",
          "name": "",
          "type": "uint256[]"
        }
      ],
      "stateMutability": "view",
      "type": "function"
    },
    {
      "inputs": [
        {
          "internalType": "contract ITurboHatchery",
          "name": "_hatchery",
          "type": "address"
        },
        {
          "internalType": "uint256",
          "name": "_turboId",
          "type": "uint256"
        },
        {
          "internalType": "uint256[]",
          "name": "_lpTokensPerOutcome",
          "type": "uint256[]"
        },
        {
          "internalType": "uint256",
          "name": "_minCollateralOut",
          "type": "uint256"
        }
      ],
      "name": "removeLiquidity",
      "outputs": [
        {
          "internalType": "uint256",
          "name": "",
          "type": "uint256"
        }
      ],
      "stateMutability": "nonpayable",
      "type": "function"
    },
    {
      "inputs": [
        {
          "internalType": "contract ITurboHatchery",
          "name": "_hatchery",
          "type": "address"
        },
        {
          "internalType": "uint256",
          "name": "_turboId",
          "type": "uint256"
        },
        {
          "internalType": "uint256",
          "name": "_outcome",
          "type": "uint256"
        },
        {
          "internalType": "uint256[]",
          "name": "_swaps",
          "type": "uint256[]"
        },
        {
          "internalType": "uint256",
          "name": "_minCollateralOut",
          "type": "uint256"
        }
      ],
      "name": "sell",
      "outputs": [
        {
          "internalType": "uint256",
          "name": "",
          "type": "uint256"
        }
      ],
      "stateMutability": "nonpayable",
      "type": "function"
    },
    {
      "inputs": [
        {
          "internalType": "contract ITurboHatchery",
          "name": "_hatchery",
          "type": "address"
        },
        {
          "internalType": "uint256",
          "name": "_turboId",
          "type": "uint256"
        }
      ],
      "name": "tokenRatios",
      "outputs": [
        {
          "internalType": "uint256[]",
          "name": "",
          "type": "uint256[]"
        }
      ],
      "stateMutability": "view",
      "type": "function"
    }
  ],
  "bytecode": "0x608060405234801561001057600080fd5b50604051620023893803806200238983398101604081905261003191610056565b600080546001600160a01b0319166001600160a01b0392909216919091179055610084565b600060208284031215610067578081fd5b81516001600160a01b038116811461007d578182fd5b9392505050565b6122f580620000946000396000f3fe608060405234801561001057600080fd5b506004361061009e5760003560e01c8063c7b4b6dd11610066578063c7b4b6dd14610127578063d2364bf31461013a578063d3b7634f1461014d578063dcd80dcf14610160578063fd212cf6146101735761009e565b80630a165940146100a357806345fa6783146100c157806372b60c30146100e15780638f38a555146100f4578063bbc492c014610107575b600080fd5b6100ab610186565b6040516100b89190611fbb565b60405180910390f35b6100d46100cf366004611e3a565b610195565b6040516100b8919061223d565b6100d46100ef366004611e81565b610573565b6100ab610102366004611b91565b6108fa565b61011a610115366004611b91565b610920565b6040516100b8919061207b565b61011a610135366004611b91565b610b14565b61011a610148366004611b91565b610ca8565b6100d461015b366004611cc7565b610e55565b6100d461016e366004611d26565b61102e565b6100ab610181366004611dc4565b61123e565b6000546001600160a01b031681565b6001600160a01b038086166000908152600160209081526040808320888452909152812054909116806101e35760405162461bcd60e51b81526004016101da906121db565b60405180910390fd5b60006101ef88886118fc565b90506000886001600160a01b031663d8dfeb456040518163ffffffff1660e01b815260040160206040518083038186803b15801561022c57600080fd5b505afa158015610240573d6000803e3d6000fd5b505050506040513d601f19601f820116820180604052508101906102649190611cab565b6040516323b872dd60e01b81529091506001600160a01b038216906323b872dd9061029790339030908c90600401611fe9565b602060405180830381600087803b1580156102b157600080fd5b505af11580156102c5573d6000803e3d6000fd5b505050506040513d601f19601f820116820180604052508101906102e99190611c84565b5060405163095ea7b360e01b81526001600160a01b0382169063095ea7b39061031a908c906000199060040161200d565b602060405180830381600087803b15801561033457600080fd5b505af1158015610348573d6000803e3d6000fd5b505050506040513d601f19601f8201168201806040525081019061036c9190611c84565b5060008260400151888161037c57fe5b049050896001600160a01b031663758f779f8a83306040518463ffffffff1660e01b81526004016103af93929190612246565b602060405180830381600087803b1580156103c957600080fd5b505af11580156103dd573d6000803e3d6000fd5b505050506040513d601f19601f820116820180604052508101906104019190611c84565b506000805b8460800151518110156104c35760008560800151828151811061042557fe5b602002602001015190506000876001600160a01b0316635db34277838760006040518463ffffffff1660e01b81526004016104629392919061205a565b602060405180830381600087803b15801561047c57600080fd5b505af1158015610490573d6000803e3d6000fd5b505050506040513d601f19601f820116820180604052508101906104b49190611f80565b93909301925050600101610406565b50878110156104e45760405162461bcd60e51b81526004016101da90612108565b60405163a9059cbb60e01b81526001600160a01b0386169063a9059cbb90610512908a90859060040161200d565b602060405180830381600087803b15801561052c57600080fd5b505af1158015610540573d6000803e3d6000fd5b505050506040513d601f19601f820116820180604052508101906105649190611c84565b509a9950505050505050505050565b6001600160a01b038086166000908152600160209081526040808320888452909152812054909116806105b85760405162461bcd60e51b81526004016101da906121db565b60006105c488886118fc565b90506000886001600160a01b031663d8dfeb456040518163ffffffff1660e01b815260040160206040518083038186803b15801561060157600080fd5b505afa158015610615573d6000803e3d6000fd5b505050506040513d601f19601f820116820180604052508101906106399190611cab565b6040516323b872dd60e01b81529091506001600160a01b038216906323b872dd9061066c90339030908b90600401611fe9565b602060405180830381600087803b15801561068657600080fd5b505af115801561069a573d6000803e3d6000fd5b505050506040513d601f19601f820116820180604052508101906106be9190611c84565b506000826040015187816106ce57fe5b049050896001600160a01b031663758f779f8a83306040518463ffffffff1660e01b815260040161070193929190612246565b602060405180830381600087803b15801561071b57600080fd5b505af115801561072f573d6000803e3d6000fd5b505050506040513d601f19601f820116820180604052508101906107539190611c84565b5060008360800151898151811061076657fe5b60200260200101519050600082905060005b856080015151811015610849578a81141561079257610841565b6000866080015182815181106107a457fe5b602002602001015190506000886001600160a01b0316638201aa3f83888860006000196040518663ffffffff1660e01b81526004016107e7959493929190612026565b6040805180830381600087803b15801561080057600080fd5b505af1158015610814573d6000803e3d6000fd5b505050506040513d601f19601f820116820180604052508101906108389190611f98565b50939093019250505b600101610778565b508781101561086a5760405162461bcd60e51b81526004016101da90612212565b60405163a9059cbb60e01b81526001600160a01b0383169063a9059cbb90610898903390859060040161200d565b602060405180830381600087803b1580156108b257600080fd5b505af11580156108c6573d6000803e3d6000fd5b505050506040513d601f19601f820116820180604052508101906108ea9190611c84565b509b9a5050505050505050505050565b60016020908152600092835260408084209091529082529020546001600160a01b031681565b6001600160a01b038083166000908152600160209081526040808320858452909152812054606092169061095485856118fc565b90506000816080015160008151811061096957fe5b6020026020010151905060008083608001515167ffffffffffffffff8111801561099257600080fd5b506040519080825280602002602001820160405280156109bc578160200160208202803683370190505b509050670de0b6b3a7640000816000815181106109d557fe5b602090810291909101015260015b846080015151811015610aae576000866001600160a01b03166315e84af98688608001518581518110610a1257fe5b60200260200101516040518363ffffffff1660e01b8152600401610a37929190611fcf565b60206040518083038186803b158015610a4f57600080fd5b505afa158015610a63573d6000803e3d6000fd5b505050506040513d601f19601f82011682018060405250810190610a879190611f80565b905080838381518110610a9657fe5b602090810291909101015292909201916001016109e3565b50670de0b6b3a76400008204915060005b846080015151811015610b085782828281518110610ad957fe5b602002602001015181610ae857fe5b04828281518110610af557fe5b6020908102919091010152600101610abf565b50979650505050505050565b6001600160a01b0380831660009081526001602090815260408083208584529091528120546060921690610b4885856118fc565b905060008160800151600081518110610b5d57fe5b60200260200101519050600082608001515167ffffffffffffffff81118015610b8557600080fd5b50604051908082528060200260200182016040528015610baf578160200160208202803683370190505b509050670de0b6b3a764000081600081518110610bc857fe5b602090810291909101015260015b836080015151811015610c9d576000856001600160a01b03166315e84af98587608001518581518110610c0557fe5b60200260200101516040518363ffffffff1660e01b8152600401610c2a929190611fcf565b60206040518083038186803b158015610c4257600080fd5b505afa158015610c56573d6000803e3d6000fd5b505050506040513d601f19601f82011682018060405250810190610c7a9190611f80565b905080838381518110610c8957fe5b602090810291909101015250600101610bd6565b509695505050505050565b6001600160a01b03808316600090815260016020908152604080832085845290915280822054815163cc77828d60e01b81529151606094919091169291839163cc77828d916004808201928692909190829003018186803b158015610d0c57600080fd5b505afa158015610d20573d6000803e3d6000fd5b505050506040513d6000823e601f3d908101601f19168201604052610d489190810190611bbc565b90506000815167ffffffffffffffff81118015610d6457600080fd5b50604051908082528060200260200182016040528015610d8e578160200160208202803683370190505b50905060005b8251811015610e4b57836001600160a01b031663f8b2cb4f848381518110610db857fe5b60200260200101516040518263ffffffff1660e01b8152600401610ddc9190611fbb565b60206040518083038186803b158015610df457600080fd5b505afa158015610e08573d6000803e3d6000fd5b505050506040513d601f19601f82011682018060405250810190610e2c9190611f80565b828281518110610e3857fe5b6020908102919091010152600101610d94565b5095945050505050565b6001600160a01b03808516600090815260016020908152604080832087845290915281205490911680610e9a5760405162461bcd60e51b81526004016101da906121db565b6000610ea687876118fc565b9050600081604001518581610eb757fe5b04905060001960005b836080015151811015610f9e57600084608001518281518110610edf57fe5b602002602001015190506000898381518110610ef757fe5b602002602001015190506000876001600160a01b03166346ab38f18484896040518463ffffffff1660e01b8152600401610f339392919061205a565b602060405180830381600087803b158015610f4d57600080fd5b505af1158015610f61573d6000803e3d6000fd5b505050506040513d601f19601f82011682018060405250810190610f859190611f80565b905084811015610f93578094505b505050600101610ec0565b5060405163defbde9560e01b81526001600160a01b038a169063defbde9590610fcf908b9085903390600401612246565b602060405180830381600087803b158015610fe957600080fd5b505af1158015610ffd573d6000803e3d6000fd5b505050506040513d601f19601f820116820180604052508101906110219190611c84565b5098975050505050505050565b6001600160a01b038087166000908152600160209081526040808320898452909152812054909116806110735760405162461bcd60e51b81526004016101da906121db565b600061107f89896118fc565b905060008160400151858161109057fe5b04905060006000199050600083608001518a815181106110ac57fe5b6020026020010151905060005b8460800151518110156111aa578a8114156110d3576111a2565b6000856080015182815181106110e557fe5b6020026020010151905060008b8b848181106110fd57fe5b9050602002013590506000886001600160a01b0316638201aa3f8684868b6000196040518663ffffffff1660e01b815260040161113e959493929190612026565b6040805180830381600087803b15801561115757600080fd5b505af115801561116b573d6000803e3d6000fd5b505050506040513d601f19601f8201168201806040525081019061118f9190611f98565b5090508581101561119e578095505b5050505b6001016110b9565b5060405163defbde9560e01b81526001600160a01b038d169063defbde95906111db908e9086903390600401612246565b602060405180830381600087803b1580156111f557600080fd5b505af1158015611209573d6000803e3d6000fd5b505050506040513d601f19601f8201168201806040525081019061122d9190611c84565b50909b9a5050505050505050505050565b6001600160a01b038581166000908152600160209081526040808320888452909152812054909116156112835760405162461bcd60e51b81526004016101da90612150565b600061128f87876118fc565b90508060800151518451146112b65760405162461bcd60e51b81526004016101da906120bf565b6000876001600160a01b031663d8dfeb456040518163ffffffff1660e01b815260040160206040518083038186803b1580156112f157600080fd5b505afa158015611305573d6000803e3d6000fd5b505050506040513d601f19601f820116820180604052508101906113299190611cab565b905085816001600160a01b031663dd62ed3e33306040518363ffffffff1660e01b815260040161135a929190611fcf565b60206040518083038186803b15801561137257600080fd5b505afa158015611386573d6000803e3d6000fd5b505050506040513d601f19601f820116820180604052508101906113aa9190611f80565b10156113c85760405162461bcd60e51b81526004016101da9061217e565b6040516323b872dd60e01b81526001600160a01b038216906323b872dd906113f890339030908b90600401611fe9565b602060405180830381600087803b15801561141257600080fd5b505af1158015611426573d6000803e3d6000fd5b505050506040513d601f19601f8201168201806040525081019061144a9190611c84565b5060405163095ea7b360e01b81526001600160a01b0382169063095ea7b39061147b908b906000199060040161200d565b602060405180830381600087803b15801561149557600080fd5b505af11580156114a9573d6000803e3d6000fd5b505050506040513d601f19601f820116820180604052508101906114cd9190611c84565b506000826040015187816114dd57fe5b049050886001600160a01b031663758f779f8983306040518463ffffffff1660e01b815260040161151093929190612246565b602060405180830381600087803b15801561152a57600080fd5b505af115801561153e573d6000803e3d6000fd5b505050506040513d601f19601f820116820180604052508101906115629190611c84565b5060008060009054906101000a90046001600160a01b03166001600160a01b031663d556c5dc6040518163ffffffff1660e01b8152600401602060405180830381600087803b1580156115b457600080fd5b505af11580156115c8573d6000803e3d6000fd5b505050506040513d601f19601f820116820180604052508101906115ec9190611cab565b905060005b84608001515181101561171f5760008560800151828151811061161057fe5b60200260200101519050806001600160a01b031663095ea7b3846000196040518363ffffffff1660e01b815260040161164a92919061200d565b602060405180830381600087803b15801561166457600080fd5b505af1158015611678573d6000803e3d6000fd5b505050506040513d601f19601f8201168201806040525081019061169c9190611c84565b50826001600160a01b031663e4e1e53882868c86815181106116ba57fe5b60200260200101516040518463ffffffff1660e01b81526004016116e09392919061205a565b600060405180830381600087803b1580156116fa57600080fd5b505af115801561170e573d6000803e3d6000fd5b5050600190930192506115f1915050565b50806001600160a01b0316634bb278f36040518163ffffffff1660e01b8152600401600060405180830381600087803b15801561175b57600080fd5b505af115801561176f573d6000803e3d6000fd5b5050506001600160a01b03808c1660009081526001602090815260408083208e845290915280822080549386166001600160a01b031990941684179055516370a0823160e01b81529092506370a08231906117ce903090600401611fbb565b60206040518083038186803b1580156117e657600080fd5b505afa1580156117fa573d6000803e3d6000fd5b505050506040513d601f19601f8201168201806040525081019061181e9190611f80565b60405163a9059cbb60e01b81529091506001600160a01b0383169063a9059cbb9061184f908a90859060040161200d565b602060405180830381600087803b15801561186957600080fd5b505af115801561187d573d6000803e3d6000fd5b505050506040513d601f19601f820116820180604052508101906118a19190611c84565b50336001600160a01b03168a8c6001600160a01b03167f0537d3e5d88810bbfb16874b28bc0f95856d7bb24c8f29511fe463c5b1d27c6b856040516118e69190611fbb565b60405180910390a4509998505050505050505050565b611904611a6a565b604051634185c08560e01b81526000906001600160a01b03851690634185c0859061193390869060040161223d565b60006040518083038186803b15801561194b57600080fd5b505afa15801561195f573d6000803e3d6000fd5b505050506040513d6000823e601f3d908101601f191682016040526119879190810190611ec4565b90506000846001600160a01b031663cabae98f856040518263ffffffff1660e01b81526004016119b7919061223d565b60006040518083038186803b1580156119cf57600080fd5b505afa1580156119e3573d6000803e3d6000fd5b505050506040513d6000823e601f3d908101601f19168201604052611a0b9190810190611c49565b90506040518060c0016040528083600001516001600160a01b03168152602001836020015181526020018360400151815260200183606001516001600160a01b031681526020018281526020018360a001518152509250505092915050565b6040518060c0016040528060006001600160a01b03168152602001600081526020016000815260200160006001600160a01b0316815260200160608152602001600081525090565b8051611abd816122a7565b919050565b600082601f830112611ad2578081fd5b81516020611ae7611ae283612289565b612265565b8281528181019085830183850287018401881015611b03578586fd5b855b85811015611b2a578151611b18816122a7565b84529284019290840190600101611b05565b5090979650505050505050565b600082601f830112611b47578081fd5b81356020611b57611ae283612289565b8281528181019085830183850287018401881015611b73578586fd5b855b85811015611b2a57813584529284019290840190600101611b75565b60008060408385031215611ba3578182fd5b8235611bae816122a7565b946020939093013593505050565b60006020808385031215611bce578182fd5b825167ffffffffffffffff811115611be4578283fd5b8301601f81018513611bf4578283fd5b8051611c02611ae282612289565b8181528381019083850185840285018601891015611c1e578687fd5b8694505b83851015610b08578051611c35816122a7565b835260019490940193918501918501611c22565b600060208284031215611c5a578081fd5b815167ffffffffffffffff811115611c70578182fd5b611c7c84828501611ac2565b949350505050565b600060208284031215611c95578081fd5b81518015158114611ca4578182fd5b9392505050565b600060208284031215611cbc578081fd5b8151611ca4816122a7565b60008060008060808587031215611cdc578182fd5b8435611ce7816122a7565b935060208501359250604085013567ffffffffffffffff811115611d09578283fd5b611d1587828801611b37565b949793965093946060013593505050565b60008060008060008060a08789031215611d3e578384fd5b8635611d49816122a7565b95506020870135945060408701359350606087013567ffffffffffffffff80821115611d73578384fd5b818901915089601f830112611d86578384fd5b813581811115611d94578485fd5b8a60208083028501011115611da7578485fd5b602083019550809450505050608087013590509295509295509295565b600080600080600060a08688031215611ddb578283fd5b8535611de6816122a7565b94506020860135935060408601359250606086013567ffffffffffffffff811115611e0f578182fd5b611e1b88828901611b37565b9250506080860135611e2c816122a7565b809150509295509295909350565b600080600080600060a08688031215611e51578283fd5b8535611e5c816122a7565b94506020860135935060408601359250606086013591506080860135611e2c816122a7565b600080600080600060a08688031215611e98578283fd5b8535611ea3816122a7565b97602087013597506040870135966060810135965060800135945092505050565b600060208284031215611ed5578081fd5b815167ffffffffffffffff80821115611eec578283fd5b9083019060c08286031215611eff578283fd5b60405160c081018181108382111715611f1457fe5b604052611f2083611ab2565b81526020830151602082015260408301516040820152611f4260608401611ab2565b6060820152608083015182811115611f58578485fd5b611f6487828601611ac2565b60808301525060a083015160a082015280935050505092915050565b600060208284031215611f91578081fd5b5051919050565b60008060408385031215611faa578182fd5b505080516020909101519092909150565b6001600160a01b0391909116815260200190565b6001600160a01b0392831681529116602082015260400190565b6001600160a01b039384168152919092166020820152604081019190915260600190565b6001600160a01b03929092168252602082015260400190565b6001600160a01b03958616815260208101949094529190931660408301526060820192909252608081019190915260a00190565b6001600160a01b039390931683526020830191909152604082015260600190565b6020808252825182820181905260009190848201906040850190845b818110156120b357835183529284019291840191600101612097565b50909695505050505050565b60208082526029908201527f4d7573742068617665206f6e652077656967687420666f72206561636820736860408201526830b932903a37b5b2b760b91b606082015260800190565b60208082526028908201527f576f756c64206e6f74206861766520726563656976656420656e6f756768204c6040820152675020746f6b656e7360c01b606082015260800190565b602080825260149082015273141bdbdb08185b1c9958591e4818dc99585d195960621b604082015260600190565b60208082526037908201527f696e73756666696369656e7420636f6c6c61746572616c20616c6c6f77616e6360408201527f6520666f7220696e697469616c206c6971756964697479000000000000000000606082015260800190565b60208082526018908201527f506f6f6c206e6565647320746f20626520637265617465640000000000000000604082015260600190565b60208082526011908201527014db1a5c1c1859d948195e18d959591959607a1b604082015260600190565b90815260200190565b92835260208301919091526001600160a01b0316604082015260600190565b60405181810167ffffffffffffffff8111828210171561228157fe5b604052919050565b600067ffffffffffffffff82111561229d57fe5b5060209081020190565b6001600160a01b03811681146122bc57600080fd5b5056fea2646970667358221220142792388355d961025795050c49fdc68cee66f120de24ce61f03e79202342e164736f6c63430007060033",
  "linkReferences": {},
  "deployedLinkReferences": {}
}