{
  "_format": "hh-sol-artifact-1",
  "contractName": "AMMFactory",
  "sourceName": "contracts/turbo/AMMFactory.sol",
  "abi": [
    {
      "inputs": [
        {
          "internalType": "contract BFactory",
          "name": "_bFactory",
          "type": "address"
        }
      ],
      "stateMutability": "nonpayable",
      "type": "constructor"
    },
    {
      "anonymous": false,
      "inputs": [
        {
          "indexed": false,
          "internalType": "address",
          "name": "_pool",
          "type": "address"
        },
        {
          "indexed": true,
          "internalType": "address",
          "name": "_hatchery",
          "type": "address"
        },
        {
          "indexed": true,
          "internalType": "uint256",
          "name": "_turboId",
          "type": "uint256"
        },
        {
          "indexed": true,
          "internalType": "address",
          "name": "_creator",
          "type": "address"
        }
      ],
      "name": "PoolCreated",
      "type": "event"
    },
    {
      "inputs": [
        {
          "internalType": "contract ITurboHatchery",
          "name": "_hatchery",
          "type": "address"
        },
        {
          "internalType": "uint256",
          "name": "_turboId",
          "type": "uint256"
        },
        {
          "internalType": "uint256",
          "name": "_collateralIn",
          "type": "uint256"
        },
        {
          "internalType": "uint256",
          "name": "_minLPTokensOut",
          "type": "uint256"
        },
        {
          "internalType": "address",
          "name": "_lpTokenRecipient",
          "type": "address"
        }
      ],
      "name": "addLiquidity",
      "outputs": [
        {
          "internalType": "uint256",
          "name": "",
          "type": "uint256"
        }
      ],
      "stateMutability": "nonpayable",
      "type": "function"
    },
    {
      "inputs": [],
      "name": "bFactory",
      "outputs": [
        {
          "internalType": "contract BFactory",
          "name": "",
          "type": "address"
        }
      ],
      "stateMutability": "view",
      "type": "function"
    },
    {
      "inputs": [
        {
          "internalType": "contract ITurboHatchery",
          "name": "_hatchery",
          "type": "address"
        },
        {
          "internalType": "uint256",
          "name": "_turboId",
          "type": "uint256"
        },
        {
          "internalType": "uint256",
          "name": "_outcome",
          "type": "uint256"
        },
        {
          "internalType": "uint256",
          "name": "_collateralIn",
          "type": "uint256"
        },
        {
          "internalType": "uint256",
          "name": "_minTokensOut",
          "type": "uint256"
        }
      ],
      "name": "buy",
      "outputs": [
        {
          "internalType": "uint256",
          "name": "",
          "type": "uint256"
        }
      ],
      "stateMutability": "nonpayable",
      "type": "function"
    },
    {
      "inputs": [
        {
          "internalType": "contract ITurboHatchery",
          "name": "_hatchery",
          "type": "address"
        },
        {
          "internalType": "uint256",
          "name": "_turboId",
          "type": "uint256"
        },
        {
          "internalType": "uint256",
          "name": "_initialLiquidity",
          "type": "uint256"
        },
        {
          "internalType": "uint256[]",
          "name": "_weights",
          "type": "uint256[]"
        },
        {
          "internalType": "address",
          "name": "_lpTokenRecipient",
          "type": "address"
        }
      ],
      "name": "createPool",
      "outputs": [
        {
          "internalType": "contract BPool",
          "name": "",
          "type": "address"
        }
      ],
      "stateMutability": "nonpayable",
      "type": "function"
    },
    {
      "inputs": [
        {
          "internalType": "contract ITurboHatchery",
          "name": "_hatchery",
          "type": "address"
        },
        {
          "internalType": "uint256",
          "name": "_turboId",
          "type": "uint256"
        }
      ],
      "name": "getPoolBalances",
      "outputs": [
        {
          "internalType": "uint256[]",
          "name": "",
          "type": "uint256[]"
        }
      ],
      "stateMutability": "view",
      "type": "function"
    },
    {
      "inputs": [
        {
          "internalType": "address",
          "name": "",
          "type": "address"
        },
        {
          "internalType": "uint256",
          "name": "",
          "type": "uint256"
        }
      ],
      "name": "pools",
      "outputs": [
        {
          "internalType": "contract BPool",
          "name": "",
          "type": "address"
        }
      ],
      "stateMutability": "view",
      "type": "function"
    },
    {
      "inputs": [
        {
          "internalType": "contract ITurboHatchery",
          "name": "_hatchery",
          "type": "address"
        },
        {
          "internalType": "uint256",
          "name": "_turboId",
          "type": "uint256"
        }
      ],
      "name": "prices",
      "outputs": [
        {
          "internalType": "uint256[]",
          "name": "",
          "type": "uint256[]"
        }
      ],
      "stateMutability": "view",
      "type": "function"
    },
    {
      "inputs": [
        {
          "internalType": "contract ITurboHatchery",
          "name": "_hatchery",
          "type": "address"
        },
        {
          "internalType": "uint256",
          "name": "_turboId",
          "type": "uint256"
        },
        {
          "internalType": "uint256[]",
          "name": "_lpTokensPerOutcome",
          "type": "uint256[]"
        },
        {
          "internalType": "uint256",
          "name": "_minCollateralOut",
          "type": "uint256"
        }
      ],
      "name": "removeLiquidity",
      "outputs": [
        {
          "internalType": "uint256",
          "name": "",
          "type": "uint256"
        }
      ],
      "stateMutability": "nonpayable",
      "type": "function"
    },
    {
      "inputs": [
        {
          "internalType": "contract ITurboHatchery",
          "name": "_hatchery",
          "type": "address"
        },
        {
          "internalType": "uint256",
          "name": "_turboId",
          "type": "uint256"
        },
        {
          "internalType": "uint256",
          "name": "_outcome",
          "type": "uint256"
        },
        {
          "internalType": "uint256[]",
          "name": "_swaps",
          "type": "uint256[]"
        },
        {
          "internalType": "uint256",
          "name": "_minCollateralOut",
          "type": "uint256"
        }
      ],
      "name": "sell",
      "outputs": [
        {
          "internalType": "uint256",
          "name": "",
          "type": "uint256"
        }
      ],
      "stateMutability": "nonpayable",
      "type": "function"
    },
    {
      "inputs": [
        {
          "internalType": "contract ITurboHatchery",
          "name": "_hatchery",
          "type": "address"
        },
        {
          "internalType": "uint256",
          "name": "_turboId",
          "type": "uint256"
        }
      ],
      "name": "tokenRatios",
      "outputs": [
        {
          "internalType": "uint256[]",
          "name": "",
          "type": "uint256[]"
        }
      ],
      "stateMutability": "view",
      "type": "function"
    }
  ],
  "bytecode": "0x60806040523480156200001c57600080620000196200007d565b50505b50604051620032ac380380620032ac8339810160408190526200003f916200019b565b8060006001816200004f620000ea565b816001600160a01b0302191690836001600160a01b0316021790620000736200014c565b50505050620001e1565b632a2a7adb598160e01b8152600481016020815285602082015260005b86811015620000b75780860151828201604001526020016200009a565b506020828760640184336000905af158600e01573d6000803e3d6000fd5b3d6001141558600a015760016000f35b505050565b6303daa959598160e01b8152836004820152602081602483336000905af158600e01573d6000803e3d6000fd5b3d6001141558600a015760016000f35b8051935060005b604081101562000147576000828201526020016200012e565b505050565b6322bd64c0598160e01b8152836004820152846024820152600081604483336000905af158600e01573d6000803e3d6000fd5b3d6001141558600a015760016000f35b6000815260206200012e565b600060208284031215620001b8578081620001b56200007d565b50505b81516001600160a01b0381168114620001da578182620001d76200007d565b50505b9392505050565b6130bb80620001f16000396000f3fe6080604052348015610019576000806100166123f9565b50505b50600436106100a75760003560e01c8063c7b4b6dd1161006f578063c7b4b6dd14610139578063d2364bf31461014c578063d3b7634f1461015f578063dcd80dcf14610172578063fd212cf614610185576100a7565b80630a165940146100b557806345fa6783146100d357806372b60c30146100f35780638f38a55514610106578063bbc492c014610119575b6000806100b26123f9565b50505b6100bd610198565b6040516100ca9190612dac565b60405180910390f35b6100e66100e1366004612be3565b6101b6565b6040516100ca919061302f565b6100e6610101366004612c33565b610762565b6100bd61011436600461288f565b610c9f565b61012c61012736600461288f565b610cc7565b6040516100ca9190612e6c565b61012c61014736600461288f565b610f09565b61012c61015a36600461288f565b6110e9565b6100e661016d366004612a1f565b611306565b6100e6610180366004612a90565b611562565b6100bd610193366004612b5b565b6117f1565b6000806101a3612464565b906101000a90046001600160a01b031681565b6001600160a01b0385166000908152600160205280604081206000878152602091909152604090206000906101e9612464565b6001600160a01b036101009290920a90041690508061022c5760405162461bcd60e51b815260040161021a90612fcd565b604051809103906102296123f9565b50505b60006102388888612247565b90506000886001600160a01b031663d8dfeb456040518163ffffffff1660e01b815260040160206040518083038186806102706124c4565b158015610285576000806102826123f9565b50505b505a61028f612510565b50505050501580156102ae573d6000803e3d60006102ab6123f9565b50505b50505050604051601f3d908101601f191682016040526102d191908101906129fa565b9050806001600160a01b03166323b872dd5a6102eb6125fb565b5a63996d79a5598160e01b8152602081600483336000905af158600e01573d6000803e3d6000fd5b3d6001141558600a015760016000f35b8051925060005b60408110156103415760008282015260200161032a565b5050508a6040518463ffffffff1660e01b815260040161036393929190612dda565b602060405180830381600087806103786124c4565b15801561038d5760008061038a6123f9565b50505b505a610397612641565b5050505050501580156103b7573d6000803e3d60006103b46123f9565b50505b50505050604051601f3d908101601f191682016040526103da91908101906129c1565b50806001600160a01b031663095ea7b38a6000196040518363ffffffff1660e01b815260040161040b929190612dfe565b602060405180830381600087806104206124c4565b158015610435576000806104326123f9565b50505b505a61043f612641565b50505050505015801561045f573d6000803e3d600061045c6123f9565b50505b50505050604051601f3d908101601f1916820160405261048291908101906129c1565b5060008260400151888161049257fe5b049050896001600160a01b031663758f779f8a835a63996d79a5598160e01b8152602081600483336000905af158600e01573d6000803e3d6000fd5b3d6001141558600a015760016000f35b8051925060005b60408110156104fc576000828201526020016104e5565b5050506040518463ffffffff1660e01b815260040161051d93929190613038565b602060405180830381600087806105326124c4565b158015610547576000806105446123f9565b50505b505a610551612641565b505050505050158015610571573d6000803e3d600061056e6123f9565b50505b50505050604051601f3d908101601f1916820160405261059491908101906129c1565b506000805b84608001515181101561067b576000856080015182815181106105b857fe5b602002602001015190506000876001600160a01b0316635db34277838760006040518463ffffffff1660e01b81526004016105f593929190612e4b565b6020604051808303816000878061060a6124c4565b15801561061f5760008061061c6123f9565b50505b505a610629612641565b505050505050158015610649573d6000803e3d60006106466123f9565b50505b50505050604051601f3d908101601f1916820160405261066c9190810190612d5c565b93909301925050600101610599565b50878110156106ae5760405162461bcd60e51b815260040161069c90612efa565b604051809103906106ab6123f9565b50505b846001600160a01b031663a9059cbb88836040518363ffffffff1660e01b81526004016106dc929190612dfe565b602060405180830381600087806106f16124c4565b158015610706576000806107036123f9565b50505b505a610710612641565b505050505050158015610730573d6000803e3d600061072d6123f9565b50505b50505050604051601f3d908101601f1916820160405261075391908101906129c1565b509a9950505050505050505050565b6001600160a01b038516600090815260016020528060408120600087815260209190915260409020600090610795612464565b6001600160a01b036101009290920a9004169050806107d85760405162461bcd60e51b81526004016107c690612fcd565b604051809103906107d56123f9565b50505b60006107e48888612247565b90506000886001600160a01b031663d8dfeb456040518163ffffffff1660e01b8152600401602060405180830381868061081c6124c4565b1580156108315760008061082e6123f9565b50505b505a61083b612510565b505050505015801561085a573d6000803e3d60006108576123f9565b50505b50505050604051601f3d908101601f1916820160405261087d91908101906129fa565b9050806001600160a01b03166323b872dd5a6108976125fb565b5a63996d79a5598160e01b8152602081600483336000905af158600e01573d6000803e3d6000fd5b3d6001141558600a015760016000f35b8051925060005b60408110156108ed576000828201526020016108d6565b505050896040518463ffffffff1660e01b815260040161090f93929190612dda565b602060405180830381600087806109246124c4565b158015610939576000806109366123f9565b50505b505a610943612641565b505050505050158015610963573d6000803e3d60006109606123f9565b50505b50505050604051601f3d908101601f1916820160405261098691908101906129c1565b5060008260400151878161099657fe5b049050896001600160a01b031663758f779f8a835a63996d79a5598160e01b8152602081600483336000905af158600e01573d6000803e3d6000fd5b3d6001141558600a015760016000f35b8051925060005b6040811015610a00576000828201526020016109e9565b5050506040518463ffffffff1660e01b8152600401610a2193929190613038565b60206040518083038160008780610a366124c4565b158015610a4b57600080610a486123f9565b50505b505a610a55612641565b505050505050158015610a75573d6000803e3d6000610a726123f9565b50505b50505050604051601f3d908101601f19168201604052610a9891908101906129c1565b50600083608001518981518110610aab57fe5b602002602001015190508160005b856080015151811015610baf578a811415610ad357610ba7565b600086608001518281518110610ae557fe5b602002602001015190506000886001600160a01b0316638201aa3f83888860006000196040518663ffffffff1660e01b8152600401610b28959493929190612e17565b604080518083038160008780610b3c6124c4565b158015610b5157600080610b4e6123f9565b50505b505a610b5b612641565b505050505050158015610b7b573d6000803e3d6000610b786123f9565b50505b50505050604051601f3d908101601f19168201604052610b9e9190810190612d7f565b50939093019250505b600101610ab9565b5087811015610be25760405162461bcd60e51b8152600401610bd090613004565b60405180910390610bdf6123f9565b50505b816001600160a01b031663a9059cbb5a610bfa6125fb565b836040518363ffffffff1660e01b8152600401610c18929190612dfe565b60206040518083038160008780610c2d6124c4565b158015610c4257600080610c3f6123f9565b50505b505a610c4c612641565b505050505050158015610c6c573d6000803e3d6000610c696123f9565b50505b50505050604051601f3d908101601f19168201604052610c8f91908101906129c1565b509b9a5050505050505050505050565b60016020528160005260406000206020528060005260406000206000925090506101a3612464565b6001600160a01b0382166000908152600160205260609060408120600084815260209190915260409020600090610cfc612464565b906101000a90046001600160a01b031690506000610d1a8585612247565b905060008160800151600081518110610d2f57fe5b6020026020010151905060008083608001515167ffffffffffffffff81118015610d6157600080610d5e6123f9565b50505b50604051908082528060200260200182016040528015610d8b578160200160208202803683370190505b509050670de0b6b3a764000081600081518110610da457fe5b602090810291909101015260015b846080015151811015610ea1576000866001600160a01b03166315e84af98688608001518581518110610de157fe5b60200260200101516040518363ffffffff1660e01b8152600401610e06929190612dc0565b6020604051808303818680610e196124c4565b158015610e2e57600080610e2b6123f9565b50505b505a610e38612510565b5050505050158015610e57573d6000803e3d6000610e546123f9565b50505b50505050604051601f3d908101601f19168201604052610e7a9190810190612d5c565b905080838381518110610e8957fe5b60209081029190910101529290920191600101610db2565b50670de0b6b3a76400008204915060005b846080015151811015610efb5782828281518110610ecc57fe5b602002602001015181610edb57fe5b04828281518110610ee857fe5b6020908102919091010152600101610eb2565b509450505050505b92915050565b6001600160a01b0382166000908152600160205260609060408120600084815260209190915260409020600090610f3e612464565b906101000a90046001600160a01b031690506000610f5c8585612247565b905060008160800151600081518110610f7157fe5b60200260200101519050600082608001515167ffffffffffffffff81118015610fa257600080610f9f6123f9565b50505b50604051908082528060200260200182016040528015610fcc578160200160208202803683370190505b509050670de0b6b3a764000081600081518110610fe557fe5b602090810291909101015260015b8360800151518110156110de576000856001600160a01b03166315e84af9858760800151858151811061102257fe5b60200260200101516040518363ffffffff1660e01b8152600401611047929190612dc0565b602060405180830381868061105a6124c4565b15801561106f5760008061106c6123f9565b50505b505a611079612510565b5050505050158015611098573d6000803e3d60006110956123f9565b50505b50505050604051601f3d908101601f191682016040526110bb9190810190612d5c565b9050808383815181106110ca57fe5b602090810291909101015250600101610ff3565b509695505050505050565b6001600160a01b038216600090815260016020526060906040812060008481526020919091526040902060009061111e612464565b906101000a90046001600160a01b031690506000816001600160a01b031663cc77828d6040518163ffffffff1660e01b815260040160006040518083038186806111666124c4565b15801561117b576000806111786123f9565b50505b505a611185612510565b50505050501580156111a4573d6000803e3d60006111a16123f9565b50505b505050506040513d6000823e601f3d908101601f191682016040526111cc91908101906128c3565b90506000815167ffffffffffffffff811180156111f1576000806111ee6123f9565b50505b5060405190808252806020026020018201604052801561121b578160200160208202803683370190505b50905060005b82518110156112fc57836001600160a01b031663f8b2cb4f84838151811061124557fe5b60200260200101516040518263ffffffff1660e01b81526004016112699190612dac565b602060405180830381868061127c6124c4565b1580156112915760008061128e6123f9565b50505b505a61129b612510565b50505050501580156112ba573d6000803e3d60006112b76123f9565b50505b50505050604051601f3d908101601f191682016040526112dd9190810190612d5c565b8282815181106112e957fe5b6020908102919091010152600101611221565b5095945050505050565b6001600160a01b038416600090815260016020528060408120600086815260209190915260409020600090611339612464565b6001600160a01b036101009290920a90041690508061137c5760405162461bcd60e51b815260040161136a90612fcd565b604051809103906113796123f9565b50505b60006113888787612247565b905060008160400151858161139957fe5b04905060001960005b8360800151518110156114a5576000846080015182815181106113c157fe5b6020026020010151905060008983815181106113d957fe5b602002602001015190506000876001600160a01b03166346ab38f18484896040518463ffffffff1660e01b815260040161141593929190612e4b565b6020604051808303816000878061142a6124c4565b15801561143f5760008061143c6123f9565b50505b505a611449612641565b505050505050158015611469573d6000803e3d60006114666123f9565b50505b50505050604051601f3d908101601f1916820160405261148c9190810190612d5c565b90508481101561149a578094505b5050506001016113a2565b50886001600160a01b031663defbde9589835a6114c06125fb565b6040518463ffffffff1660e01b81526004016114de93929190613038565b602060405180830381600087806114f36124c4565b158015611508576000806115056123f9565b50505b505a611512612641565b505050505050158015611532573d6000803e3d600061152f6123f9565b50505b50505050604051601f3d908101601f1916820160405261155591908101906129c1565b5098975050505050505050565b6001600160a01b038616600090815260016020528060408120600088815260209190915260409020600090611595612464565b6001600160a01b036101009290920a9004169050806115d85760405162461bcd60e51b81526004016115c690612fcd565b604051809103906115d56123f9565b50505b60006115e48989612247565b90506000816040015185816115f557fe5b049050600019600060808401518a8151811061160d57fe5b6020026020010151905060005b846080015151811015611730578a81141561163457611728565b60008560800151828151811061164657fe5b6020026020010151905060008b8b8481811061165e57fe5b9050602002013590506000886001600160a01b0316638201aa3f8684868b6000196040518663ffffffff1660e01b815260040161169f959493929190612e17565b6040805180830381600087806116b36124c4565b1580156116c8576000806116c56123f9565b50505b505a6116d2612641565b5050505050501580156116f2573d6000803e3d60006116ef6123f9565b50505b50505050604051601f3d908101601f191682016040526117159190810190612d7f565b50905085811015611724578095505b5050505b60010161161a565b508b6001600160a01b031663defbde958c845a61174b6125fb565b6040518463ffffffff1660e01b815260040161176993929190613038565b6020604051808303816000878061177e6124c4565b158015611793576000806117906123f9565b50505b505a61179d612641565b5050505050501580156117bd573d6000803e3d60006117ba6123f9565b50505b50505050604051601f3d908101601f191682016040526117e091908101906129c1565b50909b9a5050505050505050505050565b6001600160a01b038516600090815260016020528060408120600087815260209190915260409020600090611824612464565b906101000a90046001600160a01b03166001600160a01b03161461186c5760405162461bcd60e51b815260040161185a90612f42565b604051809103906118696123f9565b50505b60006118788787612247565b90508060800151518451146118b15760405162461bcd60e51b815260040161189f90612eb1565b604051809103906118ae6123f9565b50505b6000876001600160a01b031663d8dfeb456040518163ffffffff1660e01b815260040160206040518083038186806118e76124c4565b1580156118fc576000806118f96123f9565b50505b505a611906612510565b5050505050158015611925573d6000803e3d60006119226123f9565b50505b50505050604051601f3d908101601f1916820160405261194891908101906129fa565b905085816001600160a01b031663dd62ed3e5a6119636125fb565b5a63996d79a5598160e01b8152602081600483336000905af158600e01573d6000803e3d6000fd5b3d6001141558600a015760016000f35b8051925060005b60408110156119b9576000828201526020016119a2565b5050506040518363ffffffff1660e01b81526004016119d9929190612dc0565b60206040518083038186806119ec6124c4565b158015611a01576000806119fe6123f9565b50505b505a611a0b612510565b5050505050158015611a2a573d6000803e3d6000611a276123f9565b50505b50505050604051601f3d908101601f19168201604052611a4d9190810190612d5c565b1015611a7d5760405162461bcd60e51b8152600401611a6b90612f70565b60405180910390611a7a6123f9565b50505b806001600160a01b03166323b872dd5a611a956125fb565b5a63996d79a5598160e01b8152602081600483336000905af158600e01573d6000803e3d6000fd5b3d6001141558600a015760016000f35b8051925060005b6040811015611aeb57600082820152602001611ad4565b505050896040518463ffffffff1660e01b8152600401611b0d93929190612dda565b60206040518083038160008780611b226124c4565b158015611b3757600080611b346123f9565b50505b505a611b41612641565b505050505050158015611b61573d6000803e3d6000611b5e6123f9565b50505b50505050604051601f3d908101601f19168201604052611b8491908101906129c1565b50806001600160a01b031663095ea7b3896000196040518363ffffffff1660e01b8152600401611bb5929190612dfe565b60206040518083038160008780611bca6124c4565b158015611bdf57600080611bdc6123f9565b50505b505a611be9612641565b505050505050158015611c09573d6000803e3d6000611c066123f9565b50505b50505050604051601f3d908101601f19168201604052611c2c91908101906129c1565b50600082604001518781611c3c57fe5b049050886001600160a01b031663758f779f89835a63996d79a5598160e01b8152602081600483336000905af158600e01573d6000803e3d6000fd5b3d6001141558600a015760016000f35b8051925060005b6040811015611ca657600082820152602001611c8f565b5050506040518463ffffffff1660e01b8152600401611cc793929190613038565b60206040518083038160008780611cdc6124c4565b158015611cf157600080611cee6123f9565b50505b505a611cfb612641565b505050505050158015611d1b573d6000803e3d6000611d186123f9565b50505b50505050604051601f3d908101601f19168201604052611d3e91908101906129c1565b5060008080611d4b612464565b906101000a90046001600160a01b03166001600160a01b031663d556c5dc6040518163ffffffff1660e01b815260040160206040518083038160008780611d906124c4565b158015611da557600080611da26123f9565b50505b505a611daf612641565b505050505050158015611dcf573d6000803e3d6000611dcc6123f9565b50505b50505050604051601f3d908101601f19168201604052611df291908101906129fa565b905060005b846080015151811015611f7057600085608001518281518110611e1657fe5b60200260200101519050806001600160a01b031663095ea7b3846000196040518363ffffffff1660e01b8152600401611e50929190612dfe565b60206040518083038160008780611e656124c4565b158015611e7a57600080611e776123f9565b50505b505a611e84612641565b505050505050158015611ea4573d6000803e3d6000611ea16123f9565b50505b50505050604051601f3d908101601f19168201604052611ec791908101906129c1565b50826001600160a01b031663e4e1e53882868c8681518110611ee557fe5b60200260200101516040518463ffffffff1660e01b8152600401611f0b93929190612e4b565b60006040518083038160008780611f206124c4565b158015611f3557600080611f326123f9565b50505b505a611f3f612641565b505050505050158015611f5f573d6000803e3d6000611f5c6123f9565b50505b505060019093019250611df7915050565b50806001600160a01b0316634bb278f36040518163ffffffff1660e01b815260040160006040518083038160008780611fa76124c4565b158015611fbc57600080611fb96123f9565b50505b505a611fc6612641565b505050505050158015611fe6573d6000803e3d6000611fe36123f9565b50505b5050506001600160a01b038b16600090815260016020528291506040902060008b81526020919091526040902060018161201e612464565b816001600160a01b0302191690836001600160a01b0316021790612040612707565b5050506000816001600160a01b03166370a082315a63996d79a5598160e01b8152602081600483336000905af158600e01573d6000803e3d6000fd5b3d6001141558600a015760016000f35b8051925060005b60408110156120aa57600082820152602001612093565b5050506040518263ffffffff1660e01b81526004016120c99190612dac565b60206040518083038186806120dc6124c4565b1580156120f1576000806120ee6123f9565b50505b505a6120fb612510565b505050505015801561211a573d6000803e3d60006121176123f9565b50505b50505050604051601f3d908101601f1916820160405261213d9190810190612d5c565b9050816001600160a01b031663a9059cbb88836040518363ffffffff1660e01b815260040161216d929190612dfe565b602060405180830381600087806121826124c4565b158015612197576000806121946123f9565b50505b505a6121a1612641565b5050505050501580156121c1573d6000803e3d60006121be6123f9565b50505b50505050604051601f3d908101601f191682016040526121e491908101906129c1565b505a6121ee6125fb565b6001600160a01b03168a8c6001600160a01b03167f0537d3e5d88810bbfb16874b28bc0f95856d7bb24c8f29511fe463c5b1d27c6b856040516122319190612dac565b60405180910390a4509998505050505050505050565b61224f612755565b6000836001600160a01b0316634185c085846040518263ffffffff1660e01b815260040161227d919061302f565b60006040518083038186806122906124c4565b1580156122a5576000806122a26123f9565b50505b505a6122af612510565b50505050501580156122ce573d6000803e3d60006122cb6123f9565b50505b505050506040513d6000823e601f3d908101601f191682016040526122f69190810190612c7f565b90506000846001600160a01b031663cabae98f856040518263ffffffff1660e01b8152600401612326919061302f565b60006040518083038186806123396124c4565b15801561234e5760008061234b6123f9565b50505b505a612358612510565b5050505050158015612377573d6000803e3d60006123746123f9565b50505b505050506040513d6000823e601f3d908101601f1916820160405261239f9190810190612974565b905060405160c081016040528083516001600160a01b03168152602001836020015181526020018360400151815260200183606001516001600160a01b031681526020018281526020018360a00151905295945050505050565b632a2a7adb598160e01b8152600481016020815285602082015260005b86811015612431578086015182820160400152602001612416565b506020828760640184336000905af158600e01573d6000803e3d6000fd5b3d6001141558600a015760016000f35b505050565b6303daa959598160e01b8152836004820152602081602483336000905af158600e01573d6000803e3d6000fd5b3d6001141558600a015760016000f35b8051935060005b60408110156124bf576000828201526020016124a8565b505050565b638435035b598160e01b8152836004820152602081602483336000905af158600e01573d6000803e3d6000fd5b3d6001141558600a015760016000f35b805160008252935060206124a8565b638540661f598160e01b8152612541565b8080831115610f03575090919050565b8080831015610f03575090919050565b836004820152846024820152606060448201528660648201526084810160005b88811015612579578088015182820152602001612561565b506060828960a40184336000905af158600e01573d6000803e3d6000fd5b3d6001141558600a015760016000f35b815160408301513d6000853e8b8b82606087013350600060045af150596125ce8d3d612531565b8c016125da8187612521565b5b828110156125ef57600081526020016125db565b50929c50505050505050565b6373509064598160e01b8152602081600483336000905af158600e01573d6000803e3d6000fd5b3d6001141558600a015760016000f35b805160008252935060206124a8565b6385979f76598160e01b8152836004820152846024820152606060448201528760648201526084810160005b8981101561268557808901518282015260200161266d565b506060828a60a40184336000905af158600e01573d6000803e3d6000fd5b3d6001141558600a015760016000f35b815160408301513d6000853e8c8c82606087013350600060045af150596126da8e3d612531565b8d016126e68187612521565b5b828110156126fb57600081526020016126e7565b50929d50505050505050565b6322bd64c0598160e01b8152836004820152846024820152600081604483336000905af158600e01573d6000803e3d6000fd5b3d6001141558600a015760016000f35b6000815260206124a8565b60405160c0810160409081526000808352602083018190529082018190526060808301829052608083015260a082015290565b6000815190506127978161309d565b919050565b600082601f8301126127b55780816127b26123f9565b50505b815160206127ca6127c58361307f565b613057565b82815281810190858301838502870184018810156127ef5785866127ec6123f9565b50505b855b858110156128165781516128048161309d565b845292840192908401906001016127f1565b5090979650505050505050565b600082601f83011261283c5780816128396123f9565b50505b8135602061284c6127c58361307f565b828152818101908583018385028701840188101561287157858661286e6123f9565b50505b855b8581101561281657813584529284019290840190600101612873565b600080604083850312156128aa5781826128a76123f9565b50505b82356128b58161309d565b946020939093013593505050565b600060208083850312156128de5781826128db6123f9565b50505b825167ffffffffffffffff8111156128fd5782836128fa6123f9565b50505b8301601f810185136129165782836129136123f9565b50505b80516129246127c58261307f565b81815283810190838501858402850186018910156129495786876129466123f9565b50505b8694505b83851015610efb5780516129608161309d565b83526001949094019391850191850161294d565b60006020828403121561298e57808161298b6123f9565b50505b815167ffffffffffffffff8111156129ad5781826129aa6123f9565b50505b6129b98482850161279c565b949350505050565b6000602082840312156129db5780816129d86123f9565b50505b815180151581146129f35781826129f06123f9565b50505b9392505050565b600060208284031215612a14578081612a116123f9565b50505b81516129f38161309d565b60008060008060808587031215612a3d578182612a3a6123f9565b50505b8435612a488161309d565b935060208501359250604085013567ffffffffffffffff811115612a73578283612a706123f9565b50505b612a7f87828801612823565b949793965093946060013593505050565b60008060008060008060a08789031215612ab1578384612aae6123f9565b50505b8635612abc8161309d565b95506020870135945060408701359350606087013567ffffffffffffffff80821115612aef578384612aec6123f9565b50505b818901915089601f830112612b0b578384612b086123f9565b50505b813581811115612b22578485612b1f6123f9565b50505b8a60208083028501011115612b3e578485612b3b6123f9565b50505b602083019550809450505050608087013590509295509295509295565b600080600080600060a08688031215612b7b578283612b786123f9565b50505b8535612b868161309d565b94506020860135935060408601359250606086013567ffffffffffffffff811115612bb8578182612bb56123f9565b50505b612bc488828901612823565b9250506080860135612bd58161309d565b809150509295509295909350565b600080600080600060a08688031215612c03578283612c006123f9565b50505b8535612c0e8161309d565b94506020860135935060408601359250606086013591506080860135612bd58161309d565b600080600080600060a08688031215612c53578283612c506123f9565b50505b8535612c5e8161309d565b97602087013597506040870135966060810135965060800135945092505050565b600060208284031215612c99578081612c966123f9565b50505b815167ffffffffffffffff80821115612cb9578283612cb66123f9565b50505b9083019060c08286031215612cd5578283612cd26123f9565b50505b60405160c081018181108382111715612cea57fe5b604052612cf683612788565b81526020830151602082015260408301516040820152612d1860608401612788565b6060820152608083015182811115612d37578485612d346123f9565b50505b612d438782860161279c565b60808301525060a083015160a082015295945050505050565b600060208284031215612d76578081612d736123f9565b50505b81519392505050565b60008060408385031215612d9a578182612d976123f9565b50505b82519150602083015190509250929050565b6001600160a01b0391909116815260200190565b6001600160a01b0392831681529116602082015260400190565b6001600160a01b039384168152919092166020820152604081019190915260600190565b6001600160a01b03929092168252602082015260400190565b6001600160a01b03958616815260208101949094529190931660408301526060820192909252608081019190915260a00190565b6001600160a01b039390931683526020830191909152604082015260600190565b600060208083018184528085518083526040860191508387019250845b81811015612ea557835183529284019291840191600101612e89565b50909695505050505050565b60208082526029908201527f4d7573742068617665206f6e652077656967687420666f72206561636820736860408201526830b932903a37b5b2b760b91b606082015260800190565b60208082526028908201527f576f756c64206e6f74206861766520726563656976656420656e6f756768204c6040820152675020746f6b656e7360c01b606082015260800190565b602080825260149082015273141bdbdb08185b1c9958591e4818dc99585d195960621b604082015260600190565b60208082526037908201527f696e73756666696369656e7420636f6c6c61746572616c20616c6c6f77616e6360408201527f6520666f7220696e697469616c206c6971756964697479000000000000000000606082015260800190565b60208082526018908201527f506f6f6c206e6565647320746f20626520637265617465640000000000000000604082015260600190565b60208082526011908201527014db1a5c1c1859d948195e18d959591959607a1b604082015260600190565b90815260200190565b92835260208301919091526001600160a01b0316604082015260600190565b6000604051905081810181811067ffffffffffffffff8211171561307757fe5b604052919050565b600067ffffffffffffffff82111561309357fe5b5060209081020190565b6001600160a01b03811681146130b8576000806124bf6123f9565b5056",
  "linkReferences": {},
  "deployedLinkReferences": {}
}