{
  "_format": "hh-sol-artifact-1",
  "contractName": "BFactory",
  "sourceName": "contracts/balancer/BFactory.sol",
  "abi": [
    {
      "inputs": [],
      "stateMutability": "nonpayable",
      "type": "constructor"
    },
    {
      "anonymous": false,
      "inputs": [
        {
          "indexed": true,
          "internalType": "address",
          "name": "caller",
          "type": "address"
        },
        {
          "indexed": true,
          "internalType": "address",
          "name": "blabs",
          "type": "address"
        }
      ],
      "name": "LOG_BLABS",
      "type": "event"
    },
    {
      "anonymous": false,
      "inputs": [
        {
          "indexed": true,
          "internalType": "address",
          "name": "caller",
          "type": "address"
        },
        {
          "indexed": true,
          "internalType": "address",
          "name": "pool",
          "type": "address"
        }
      ],
      "name": "LOG_NEW_POOL",
      "type": "event"
    },
    {
      "inputs": [
        {
          "internalType": "contract BPool",
          "name": "pool",
          "type": "address"
        }
      ],
      "name": "collect",
      "outputs": [],
      "stateMutability": "nonpayable",
      "type": "function"
    },
    {
      "inputs": [],
      "name": "getBLabs",
      "outputs": [
        {
          "internalType": "address",
          "name": "",
          "type": "address"
        }
      ],
      "stateMutability": "view",
      "type": "function"
    },
    {
      "inputs": [],
      "name": "getColor",
      "outputs": [
        {
          "internalType": "bytes32",
          "name": "",
          "type": "bytes32"
        }
      ],
      "stateMutability": "pure",
      "type": "function"
    },
    {
      "inputs": [
        {
          "internalType": "address",
          "name": "b",
          "type": "address"
        }
      ],
      "name": "isBPool",
      "outputs": [
        {
          "internalType": "bool",
          "name": "",
          "type": "bool"
        }
      ],
      "stateMutability": "view",
      "type": "function"
    },
    {
      "inputs": [],
      "name": "newBPool",
      "outputs": [
        {
          "internalType": "contract BPool",
          "name": "",
          "type": "address"
        }
      ],
      "stateMutability": "nonpayable",
      "type": "function"
    },
    {
      "inputs": [
        {
          "internalType": "address",
          "name": "b",
          "type": "address"
        }
      ],
      "name": "setBLabs",
      "outputs": [],
      "stateMutability": "nonpayable",
      "type": "function"
    }
  ],
  "bytecode": "0x608060405234801561001057600080fd5b50600180546001600160a01b03191633179055615e49806100326000396000f3fe608060405234801561001057600080fd5b50600436106100625760003560e01c806306ec16f81461006757806336ffb1671461008f5780639a86139b146100b3578063c2bb6dc2146100cd578063c6ce34fb14610107578063d556c5dc1461012d575b600080fd5b61008d6004803603602081101561007d57600080fd5b50356001600160a01b0316610135565b005b6100976102d2565b604080516001600160a01b039092168252519081900360200190f35b6100bb6102e1565b60408051918252519081900360200190f35b6100f3600480360360208110156100e357600080fd5b50356001600160a01b03166102ee565b604080519115158252519081900360200190f35b61008d6004803603602081101561011d57600080fd5b50356001600160a01b031661030c565b6100976103b3565b6001546001600160a01b03163314610184576040805162461bcd60e51b815260206004820152600d60248201526c4552525f4e4f545f424c41425360981b604482015290519081900360640190fd5b6000816001600160a01b03166370a08231306040518263ffffffff1660e01b815260040180826001600160a01b0316815260200191505060206040518083038186803b1580156101d357600080fd5b505afa1580156101e7573d6000803e3d6000fd5b505050506040513d60208110156101fd57600080fd5b50516001546040805163a9059cbb60e01b81526001600160a01b0392831660048201526024810184905290519293506000929185169163a9059cbb9160448082019260209290919082900301818787803b15801561025a57600080fd5b505af115801561026e573d6000803e3d6000fd5b505050506040513d602081101561028457600080fd5b50519050806102cd576040805162461bcd60e51b815260206004820152601060248201526f11549497d15490cc8c17d1905253115160821b604482015290519081900360640190fd5b505050565b6001546001600160a01b031690565b6542524f4e5a4560d01b90565b6001600160a01b031660009081526020819052604090205460ff1690565b6001546001600160a01b0316331461035b576040805162461bcd60e51b815260206004820152600d60248201526c4552525f4e4f545f424c41425360981b604482015290519081900360640190fd5b6040516001600160a01b0382169033907ff586fa6ee1fc42f5b727f3b214ccbd0b6d7e698c45d49ba32f224fbb8670155d90600090a3600180546001600160a01b0319166001600160a01b0392909216919091179055565b6000806040516103c290610493565b604051809103906000f0801580156103de573d6000803e3d6000fd5b506001600160a01b038116600081815260208190526040808220805460ff1916600117905551929350909133917f8ccec77b0cb63ac2cafd0f5de8cdfadab91ce656d262240ba8a6343bccc5f94591a3604080516392eefe9b60e01b815233600482015290516001600160a01b038316916392eefe9b91602480830192600092919082900301818387803b15801561047557600080fd5b505af1158015610489573d6000803e3d6000fd5b5092935050505090565b615973806104a18339019056fe60c0604052601360808190527f42616c616e63657220506f6f6c20546f6b656e0000000000000000000000000060a0908152620000409160039190620000da565b506040805180820190915260038082526210941560ea1b60209092019182526200006d91600491620000da565b506005805460ff191660121790553480156200008857600080fd5b50600680546005805462010000600160b01b031916336201000081029190911790915564e8d4a510006007556001600160a01b03199091161760ff60a01b191690556008805460ff1916905562000186565b828054600181600116156101000203166002900490600052602060002090601f0160209004810192826200011257600085556200015d565b82601f106200012d57805160ff19168380011785556200015d565b828001600101855582156200015d579182015b828111156200015d57825182559160200191906001019062000140565b506200016b9291506200016f565b5090565b5b808211156200016b576000815560010162000170565b6157dd80620001966000396000f3fe608060405234801561001057600080fd5b50600436106103e65760003560e01c806392eefe9b1161020a578063be3bbd2e11610125578063dd62ed3e116100b8578063ec09302111610087578063ec09302114610cf0578063f1b8a9b714610cf8578063f8b2cb4f14610d1e578063f8d6aed414610d44578063fde924f714610d7f576103e6565b8063dd62ed3e14610c19578063e4a28a52146104ec578063e4e1e53814610c47578063ea40f3f714610c79576103e6565b8063cd2ed8fb116100f4578063cd2ed8fb14610bb7578063cf5e7bd314610bbf578063d4cadf6814610be5578063d73dd62314610bed576103e6565b8063be3bbd2e14610b4f578063c36596a614610560578063c6580d1214610ba7578063cc77828d14610baf576103e6565b8063a9059cbb1161019d578063ba019dab1161016c578063ba019dab14610afc578063ba9530a614610b04578063bc063e1a14610b3f578063bc694ea214610b47576103e6565b8063a9059cbb14610a49578063b02f0b7314610a75578063b0e0d13614610aec578063b7b800a414610af4576103e6565b806395d89b41116101d957806395d89b41146109fc578063992e2a9214610a045780639a86139b14610a0c578063a221ee4914610a14576103e6565b806392eefe9b146109a0578063936c3477146109c65780639381cd2b146109ce578063948d8ce6146109d6576103e6565b806349b595521161030557806376c7a3c7116102985780638656b653116102675780638656b653146108f4578063867378c51461092f57806389298012146109375780638c28cbe8146109725780638d4e408314610998576103e6565b806376c7a3c7146108185780637c5e9ea4146108205780638201aa3f1461087957806382f652ad146108b9576103e6565b80635db34277116102d45780635db342771461076257806366188463146107945780636d06dfa0146107c057806370a08231146107f2576103e6565b806349b59552146106895780634bb278f3146106a85780634f69c0d4146106b05780635c1bbaf714610727576103e6565b8063218b53821161037d578063313ce5671161034c578063313ce567146105e857806334e19907146106065780633fdddaa21461062557806346ab38f114610657576103e6565b8063218b53821461056057806323b872dd146105685780632f37b6241461059e5780633018205f146105c4576103e6565b80631446a7ff116103b95780631446a7ff146104f457806315e84af91461052257806318160ddd14610550578063189d00ca14610558576103e6565b806302c96748146103eb57806306fdde031461042f578063095ea7b3146104ac57806309a3bbe4146104ec575b600080fd5b61041d6004803603606081101561040157600080fd5b506001600160a01b038135169060208101359060400135610d87565b60408051918252519081900360200190f35b6104376110e7565b6040805160208082528351818301528351919283929083019185019080838360005b83811015610471578181015183820152602001610459565b50505050905090810190601f16801561049e5780820380516001836020036101000a031916815260200191505b509250505060405180910390f35b6104d8600480360360408110156104c257600080fd5b506001600160a01b03813516906020013561117d565b604080519115158252519081900360200190f35b61041d6111d2565b61041d6004803603604081101561050a57600080fd5b506001600160a01b03813581169160200135166111df565b61041d6004803603604081101561053857600080fd5b506001600160a01b0381358116916020013516611334565b61041d611480565b61041d611486565b61041d61149a565b6104d86004803603606081101561057e57600080fd5b506001600160a01b038135811691602081013590911690604001356114a6565b6104d8600480360360208110156105b457600080fd5b50356001600160a01b0316611600565b6105cc61161e565b604080516001600160a01b039092168252519081900360200190f35b6105f061167c565b6040805160ff9092168252519081900360200190f35b6106236004803603602081101561061c57600080fd5b5035611685565b005b6106236004803603606081101561063b57600080fd5b506001600160a01b038135169060208101359060400135611882565b61041d6004803603606081101561066d57600080fd5b506001600160a01b038135169060208101359060400135611c8f565b6106236004803603602081101561069f57600080fd5b50351515611f8e565b610623612111565b610623600480360360408110156106c657600080fd5b813591908101906040810160208201356401000000008111156106e857600080fd5b8201836020820111156106fa57600080fd5b8035906020019184602083028401116401000000008311171561071c57600080fd5b509092509050612308565b61041d600480360360c081101561073d57600080fd5b5080359060208101359060408101359060608101359060808101359060a00135612601565b61041d6004803603606081101561077857600080fd5b506001600160a01b0381351690602081013590604001356126b9565b6104d8600480360360408110156107aa57600080fd5b506001600160a01b03813516906020013561299c565b61041d600480360360608110156107d657600080fd5b506001600160a01b038135169060208101359060400135612a74565b61041d6004803603602081101561080857600080fd5b50356001600160a01b0316612d85565b61041d612da0565b610860600480360360a081101561083657600080fd5b506001600160a01b0381358116916020810135916040820135169060608101359060800135612db2565b6040805192835260208301919091528051918290030190f35b610860600480360360a081101561088f57600080fd5b506001600160a01b0381358116916020810135916040820135169060608101359060800135613275565b61041d600480360360c08110156108cf57600080fd5b5080359060208101359060408101359060608101359060808101359060a0013561371f565b61041d600480360360c081101561090a57600080fd5b5080359060208101359060408101359060608101359060808101359060a001356137de565b61041d61387f565b61041d600480360360c081101561094d57600080fd5b5080359060208101359060408101359060608101359060808101359060a00135613893565b6106236004803603602081101561098857600080fd5b50356001600160a01b0316613943565b6104d8613af7565b610623600480360360208110156109b657600080fd5b50356001600160a01b0316613b00565b61041d613c3e565b61041d613c93565b61041d600480360360208110156109ec57600080fd5b50356001600160a01b0316613ca0565b610437613d6a565b61041d613dcb565b61041d613dd7565b61041d600480360360a0811015610a2a57600080fd5b5080359060208101359060408101359060608101359060800135613de4565b6104d860048036036040811015610a5f57600080fd5b506001600160a01b038135169060200135613e49565b61062360048036036040811015610a8b57600080fd5b81359190810190604081016020820135640100000000811115610aad57600080fd5b820183602082011115610abf57600080fd5b80359060200191846020830284011164010000000083111715610ae157600080fd5b509092509050613e5f565b61041d6141a6565b61041d6141ab565b61041d6141b0565b61041d600480360360c0811015610b1a57600080fd5b5080359060208101359060408101359060608101359060808101359060a001356141b5565b61041d614236565b61041d614246565b610b57614252565b60408051602080825283518183015283519192839290830191858101910280838360005b83811015610b93578181015183820152602001610b7b565b505050509050019250505060405180910390f35b61041d61434a565b610b5761434f565b61041d61439d565b61062360048036036020811015610bd557600080fd5b50356001600160a01b03166143a3565b61041d614725565b6104d860048036036040811015610c0357600080fd5b506001600160a01b03813516906020013561477a565b61041d60048036036040811015610c2f57600080fd5b506001600160a01b03813581169160200135166147fb565b61062360048036036060811015610c5d57600080fd5b506001600160a01b038135169060208101359060400135614826565b610b5760048036036040811015610c8f57600080fd5b81359190810190604081016020820135640100000000811115610cb157600080fd5b820183602082011115610cc357600080fd5b80359060200191846020830284011164010000000083111715610ce557600080fd5b509092509050614a7d565b61041d614c6b565b61041d60048036036020811015610d0e57600080fd5b50356001600160a01b0316614c7b565b61041d60048036036020811015610d3457600080fd5b50356001600160a01b0316614d57565b61041d600480360360c0811015610d5a57600080fd5b5080359060208101359060408101359060608101359060808101359060a00135614e21565b6104d8614ea4565b6000336001600160a01b03166000356001600160e01b0319166001600160e01b03191660003660405180806020018281038252848482818152602001925080828437600083820152604051601f909101601f19169092018290039550909350505050a2600554610100900460ff1615610e35576040805162461bcd60e51b815260206004820152600b60248201526a4552525f5245454e54525960a81b604482015290519081900360640190fd5b6005805461ff00191661010017905560085460ff16610e8f576040805162461bcd60e51b815260206004820152601160248201527011549497d393d517d19253905312569151607a1b604482015290519081900360640190fd5b6001600160a01b0384166000908152600a602052604090205460ff16610eec576040805162461bcd60e51b815260206004820152600d60248201526c11549497d393d517d093d55391609a1b604482015290519081900360640190fd5b6001600160a01b0384166000908152600a60205260409020600390810154610f2191670de0b6b3a76400005b04600101614eb4565b831115610f69576040805162461bcd60e51b81526020600482015260116024820152704552525f4d41585f4f55545f524154494f60781b604482015290519081900360640190fd5b6001600160a01b0384166000908152600a6020526040902060038101546002808301549054600b54600754610fa39493929190899061371f565b915081610fe9576040805162461bcd60e51b815260206004820152600f60248201526e08aa4a4be9a82a890be82a0a0a49eb608b1b604482015290519081900360640190fd5b8282111561102d576040805162461bcd60e51b815260206004820152600c60248201526b22a9292fa624a6a4aa2fa4a760a11b604482015290519081900360640190fd5b61103b816003015485614f7d565b6003820155600061104c8382614eb4565b6040805187815290519192506001600160a01b0388169133917fe74c91552b64c2e2e7bd255639e004e693bd3e1d01cc33e65610b86afcc1ffed919081900360200190a361109a3384614fdf565b6110ac6110a78483614f7d565b614fed565b6005546110c8906201000090046001600160a01b031682614ff9565b6110d3863387615003565b50506005805461ff00191690559392505050565b60038054604080516020601f60026000196101006001881615020190951694909404938401819004810282018101909252828152606093909290918301828280156111735780601f1061114857610100808354040283529160200191611173565b820191906000526020600020905b81548152906001019060200180831161115657829003601f168201915b5050505050905090565b3360008181526001602090815260408083206001600160a01b03871680855290835281842086905581518681529151939490939092600080516020615788833981519152928290030190a35060015b92915050565b6802b5e3af16b188000081565b600554600090610100900460ff161561122d576040805162461bcd60e51b815260206004820152600b60248201526a4552525f5245454e54525960a81b604482015290519081900360640190fd5b6001600160a01b0383166000908152600a602052604090205460ff1661128a576040805162461bcd60e51b815260206004820152600d60248201526c11549497d393d517d093d55391609a1b604482015290519081900360640190fd5b6001600160a01b0382166000908152600a602052604090205460ff166112e7576040805162461bcd60e51b815260206004820152600d60248201526c11549497d393d517d093d55391609a1b604482015290519081900360640190fd5b6001600160a01b038084166000908152600a6020526040808220928516825281206003808401546002808601549284015490840154939461132b9492939290613de4565b95945050505050565b600554600090610100900460ff1615611382576040805162461bcd60e51b815260206004820152600b60248201526a4552525f5245454e54525960a81b604482015290519081900360640190fd5b6001600160a01b0383166000908152600a602052604090205460ff166113df576040805162461bcd60e51b815260206004820152600d60248201526c11549497d393d517d093d55391609a1b604482015290519081900360640190fd5b6001600160a01b0382166000908152600a602052604090205460ff1661143c576040805162461bcd60e51b815260206004820152600d60248201526c11549497d393d517d093d55391609a1b604482015290519081900360640190fd5b6001600160a01b038084166000908152600a602052604080822092851682529020600380830154600280850154928401549084015460075461132b94929190613de4565b60025490565b6402540be400670de0b6b3a76400005b0481565b670de0b6b3a764000081565b6000336001600160a01b03851614806114e257506001600160a01b03841660009081526001602090815260408083203384529091529020548211155b61152b576040805162461bcd60e51b815260206004820152601560248201527422a9292fa12a27a5a2a72fa120a22fa1a0a62622a960591b604482015290519081900360640190fd5b6115368484846150d4565b336001600160a01b0385161480159061157457506001600160a01b038416600090815260016020908152604080832033845290915290205460001914155b156115f6576001600160a01b03841660009081526001602090815260408083203384529091529020546115a79083614f7d565b6001600160a01b03858116600090815260016020908152604080832033808552908352928190208590558051948552519287169391926000805160206157888339815191529281900390910190a35b5060019392505050565b6001600160a01b03166000908152600a602052604090205460ff1690565b600554600090610100900460ff161561166c576040805162461bcd60e51b815260206004820152600b60248201526a4552525f5245454e54525960a81b604482015290519081900360640190fd5b506006546001600160a01b031690565b60055460ff1690565b336001600160a01b03166000356001600160e01b0319166001600160e01b03191660003660405180806020018281038252848482818152602001925080828437600083820152604051601f909101601f19169092018290039550909350505050a2600554610100900460ff1615611731576040805162461bcd60e51b815260206004820152600b60248201526a4552525f5245454e54525960a81b604482015290519081900360640190fd5b6005805461ff00191661010017905560085460ff161561178b576040805162461bcd60e51b815260206004820152601060248201526f11549497d254d7d1925390531256915160821b604482015290519081900360640190fd5b6006546001600160a01b031633146117df576040805162461bcd60e51b815260206004820152601260248201527122a9292fa727aa2fa1a7a72a2927a62622a960711b604482015290519081900360640190fd5b64e8d4a51000811015611827576040805162461bcd60e51b815260206004820152600b60248201526a4552525f4d494e5f46454560a81b604482015290519081900360640190fd5b67016345785d8a0000811115611872576040805162461bcd60e51b815260206004820152600b60248201526a4552525f4d41585f46454560a81b604482015290519081900360640190fd5b6007556005805461ff0019169055565b336001600160a01b03166000356001600160e01b0319166001600160e01b03191660003660405180806020018281038252848482818152602001925080828437600083820152604051601f909101601f19169092018290039550909350505050a2600554610100900460ff161561192e576040805162461bcd60e51b815260206004820152600b60248201526a4552525f5245454e54525960a81b604482015290519081900360640190fd5b6005805461ff001916610100179055600654336001600160a01b0390911614611993576040805162461bcd60e51b815260206004820152601260248201527122a9292fa727aa2fa1a7a72a2927a62622a960711b604482015290519081900360640190fd5b6001600160a01b0383166000908152600a602052604090205460ff166119f0576040805162461bcd60e51b815260206004820152600d60248201526c11549497d393d517d093d55391609a1b604482015290519081900360640190fd5b60085460ff1615611a3b576040805162461bcd60e51b815260206004820152601060248201526f11549497d254d7d1925390531256915160821b604482015290519081900360640190fd5b670de0b6b3a7640000811015611a89576040805162461bcd60e51b815260206004820152600e60248201526d11549497d3525397d5d15251d21560921b604482015290519081900360640190fd5b6802b5e3af16b1880000811115611ad8576040805162461bcd60e51b815260206004820152600e60248201526d11549497d3505617d5d15251d21560921b604482015290519081900360640190fd5b620f4240821015611b22576040805162461bcd60e51b815260206004820152600f60248201526e4552525f4d494e5f42414c414e434560881b604482015290519081900360640190fd5b6001600160a01b0383166000908152600a602052604090206002015480821115611bb957611b5b600b54611b568484614f7d565b6151e4565b600b8190556802b5e3af16b18800001015611bb4576040805162461bcd60e51b815260206004820152601460248201527311549497d3505617d513d5105317d5d15251d21560621b604482015290519081900360640190fd5b611bda565b80821015611bda57611bd6600b54611bd18385614f7d565b614f7d565b600b555b6001600160a01b0384166000908152600a602052604090206002810183905560030180549084905580841115611c2357611c1e8533611c198785614f7d565b615231565b611c7d565b80841015611c7d576000611c378286614f7d565b90506000611c46826000614eb4565b9050611c5c8733611c578585614f7d565b615003565b600554611c7a9088906201000090046001600160a01b031683615003565b50505b50506005805461ff0019169055505050565b6000336001600160a01b03166000356001600160e01b0319166001600160e01b03191660003660405180806020018281038252848482818152602001925080828437600083820152604051601f909101601f19169092018290039550909350505050a2600554610100900460ff1615611d3d576040805162461bcd60e51b815260206004820152600b60248201526a4552525f5245454e54525960a81b604482015290519081900360640190fd5b6005805461ff00191661010017905560085460ff16611d97576040805162461bcd60e51b815260206004820152601160248201527011549497d393d517d19253905312569151607a1b604482015290519081900360640190fd5b6001600160a01b0384166000908152600a602052604090205460ff16611df4576040805162461bcd60e51b815260206004820152600d60248201526c11549497d393d517d093d55391609a1b604482015290519081900360640190fd5b6001600160a01b0384166000908152600a6020526040902060038101546002808301549054600b54600754611e2e94939291908990613893565b915082821015611e75576040805162461bcd60e51b815260206004820152600d60248201526c11549497d31253525517d3d555609a1b604482015290519081900360640190fd5b6001600160a01b0385166000908152600a60205260409020600390810154611ea591670de0b6b3a7640000610f18565b821115611eed576040805162461bcd60e51b81526020600482015260116024820152704552525f4d41585f4f55545f524154494f60781b604482015290519081900360640190fd5b611efb816003015483614f7d565b60038201556000611f0c8582614eb4565b6040805185815290519192506001600160a01b0388169133917fe74c91552b64c2e2e7bd255639e004e693bd3e1d01cc33e65610b86afcc1ffed919081900360200190a3611f5a3386614fdf565b611f676110a78683614f7d565b600554611f83906201000090046001600160a01b031682614ff9565b6110d3863385615003565b336001600160a01b03166000356001600160e01b0319166001600160e01b03191660003660405180806020018281038252848482818152602001925080828437600083820152604051601f909101601f19169092018290039550909350505050a2600554610100900460ff161561203a576040805162461bcd60e51b815260206004820152600b60248201526a4552525f5245454e54525960a81b604482015290519081900360640190fd5b6005805461ff00191661010017905560085460ff1615612094576040805162461bcd60e51b815260206004820152601060248201526f11549497d254d7d1925390531256915160821b604482015290519081900360640190fd5b6006546001600160a01b031633146120e8576040805162461bcd60e51b815260206004820152601260248201527122a9292fa727aa2fa1a7a72a2927a62622a960711b604482015290519081900360640190fd5b60068054911515600160a01b0260ff60a01b199092169190911790556005805461ff0019169055565b336001600160a01b03166000356001600160e01b0319166001600160e01b03191660003660405180806020018281038252848482818152602001925080828437600083820152604051601f909101601f19169092018290039550909350505050a2600554610100900460ff16156121bd576040805162461bcd60e51b815260206004820152600b60248201526a4552525f5245454e54525960a81b604482015290519081900360640190fd5b6005805461ff001916610100179055600654336001600160a01b0390911614612222576040805162461bcd60e51b815260206004820152601260248201527122a9292fa727aa2fa1a7a72a2927a62622a960711b604482015290519081900360640190fd5b60085460ff161561226d576040805162461bcd60e51b815260206004820152601060248201526f11549497d254d7d1925390531256915160821b604482015290519081900360640190fd5b600954600211156122b6576040805162461bcd60e51b815260206004820152600e60248201526d4552525f4d494e5f544f4b454e5360901b604482015290519081900360640190fd5b6008805460ff191660011790556006805460ff60a01b1916600160a01b1790556122e868056bc75e2d6310000061528a565b6122fb3368056bc75e2d63100000614ff9565b6005805461ff0019169055565b336001600160a01b03166000356001600160e01b0319166001600160e01b03191660003660405180806020018281038252848482818152602001925080828437600083820152604051601f909101601f19169092018290039550909350505050a2600554610100900460ff16156123b4576040805162461bcd60e51b815260206004820152600b60248201526a4552525f5245454e54525960a81b604482015290519081900360640190fd5b6005805461ff00191661010017905560085460ff1661240e576040805162461bcd60e51b815260206004820152601160248201527011549497d393d517d19253905312569151607a1b604482015290519081900360640190fd5b6000612418611480565b905060006124268583615293565b90508061246c576040805162461bcd60e51b815260206004820152600f60248201526e08aa4a4be9a82a890be82a0a0a49eb608b1b604482015290519081900360640190fd5b60005b6009548110156125ed5760006009828154811061248857fe5b60009182526020808320909101546001600160a01b0316808352600a9091526040822060030154909250906124bd8583614eb4565b905080612503576040805162461bcd60e51b815260206004820152600f60248201526e08aa4a4be9a82a890be82a0a0a49eb608b1b604482015290519081900360640190fd5b87878581811061250f57fe5b90506020020135811115612559576040805162461bcd60e51b815260206004820152600c60248201526b22a9292fa624a6a4aa2fa4a760a11b604482015290519081900360640190fd5b6001600160a01b0383166000908152600a602052604090206003015461257f90826151e4565b6001600160a01b0384166000818152600a60209081526040918290206003019390935580518481529051919233927f63982df10efd8dfaaaa0fcc7f50b2d93b7cba26ccc48adee2873220d485dc39a9281900390910190a36125e2833383615231565b50505060010161246f565b506125f78561528a565b611c7d3386614ff9565b60008061260e8786615293565b9050600061261c87866151e4565b9050600061262a8289615293565b90506000612640670de0b6b3a764000085615293565b9050600061264e838361539b565b9050600061265c828e614eb4565b9050600061266a828f614f7d565b90506000612689612683670de0b6b3a76400008a614f7d565b8b614eb4565b90506126a6826126a1670de0b6b3a764000084614f7d565b615293565b9f9e505050505050505050505050505050565b6000336001600160a01b03166000356001600160e01b0319166001600160e01b03191660003660405180806020018281038252848482818152602001925080828437600083820152604051601f909101601f19169092018290039550909350505050a2600554610100900460ff1615612767576040805162461bcd60e51b815260206004820152600b60248201526a4552525f5245454e54525960a81b604482015290519081900360640190fd5b6005805461ff00191661010017905560085460ff166127c1576040805162461bcd60e51b815260206004820152601160248201527011549497d393d517d19253905312569151607a1b604482015290519081900360640190fd5b6001600160a01b0384166000908152600a602052604090205460ff1661281e576040805162461bcd60e51b815260206004820152600d60248201526c11549497d393d517d093d55391609a1b604482015290519081900360640190fd5b6001600160a01b0384166000908152600a6020526040902060030154612850906002670de0b6b3a76400005b04614eb4565b831115612897576040805162461bcd60e51b815260206004820152601060248201526f4552525f4d41585f494e5f524154494f60801b604482015290519081900360640190fd5b6001600160a01b0384166000908152600a6020526040902060038101546002808301549054600b546007546128d1949392919089906137de565b915082821015612918576040805162461bcd60e51b815260206004820152600d60248201526c11549497d31253525517d3d555609a1b604482015290519081900360640190fd5b6129268160030154856151e4565b60038201556040805185815290516001600160a01b0387169133917f63982df10efd8dfaaaa0fcc7f50b2d93b7cba26ccc48adee2873220d485dc39a9181900360200190a36129748261528a565b61297e3383614ff9565b612989853386615231565b506005805461ff00191690559392505050565b3360009081526001602090815260408083206001600160a01b0386168452909152812054808311156129f1573360009081526001602090815260408083206001600160a01b0388168452909152812055612a20565b6129fb8184614f7d565b3360009081526001602090815260408083206001600160a01b03891684529091529020555b3360008181526001602090815260408083206001600160a01b038916808552908352928190205481519081529051929392600080516020615788833981519152929181900390910190a35060019392505050565b6000336001600160a01b03166000356001600160e01b0319166001600160e01b03191660003660405180806020018281038252848482818152602001925080828437600083820152604051601f909101601f19169092018290039550909350505050a2600554610100900460ff1615612b22576040805162461bcd60e51b815260206004820152600b60248201526a4552525f5245454e54525960a81b604482015290519081900360640190fd5b6005805461ff00191661010017905560085460ff16612b7c576040805162461bcd60e51b815260206004820152601160248201527011549497d393d517d19253905312569151607a1b604482015290519081900360640190fd5b6001600160a01b0384166000908152600a602052604090205460ff16612bd9576040805162461bcd60e51b815260206004820152600d60248201526c11549497d393d517d093d55391609a1b604482015290519081900360640190fd5b6001600160a01b0384166000908152600a6020526040902060038101546002808301549054600b54600754612c1394939291908990612601565b915081612c59576040805162461bcd60e51b815260206004820152600f60248201526e08aa4a4be9a82a890be82a0a0a49eb608b1b604482015290519081900360640190fd5b82821115612c9d576040805162461bcd60e51b815260206004820152600c60248201526b22a9292fa624a6a4aa2fa4a760a11b604482015290519081900360640190fd5b6001600160a01b0385166000908152600a6020526040902060030154612ccd906002670de0b6b3a764000061284a565b821115612d14576040805162461bcd60e51b815260206004820152601060248201526f4552525f4d41585f494e5f524154494f60801b604482015290519081900360640190fd5b612d228160030154836151e4565b60038201556040805183815290516001600160a01b0387169133917f63982df10efd8dfaaaa0fcc7f50b2d93b7cba26ccc48adee2873220d485dc39a9181900360200190a3612d708461528a565b612d7a3385614ff9565b612989853384615231565b6001600160a01b031660009081526020819052604090205490565b620f4240670de0b6b3a7640000611496565b60408051602080825236908201819052600092839233926001600160e01b03198535169285929081908101848480828437600083820152604051601f909101601f19169092018290039550909350505050a2600554610100900460ff1615612e4f576040805162461bcd60e51b815260206004820152600b60248201526a4552525f5245454e54525960a81b604482015290519081900360640190fd5b6005805461ff0019166101001790556001600160a01b0387166000908152600a602052604090205460ff16612ebb576040805162461bcd60e51b815260206004820152600d60248201526c11549497d393d517d093d55391609a1b604482015290519081900360640190fd5b6001600160a01b0385166000908152600a602052604090205460ff16612f18576040805162461bcd60e51b815260206004820152600d60248201526c11549497d393d517d093d55391609a1b604482015290519081900360640190fd5b600654600160a01b900460ff16612f6c576040805162461bcd60e51b81526020600482015260136024820152724552525f535741505f4e4f545f5055424c494360681b604482015290519081900360640190fd5b6001600160a01b038088166000908152600a602052604080822092881682529020600380820154612fa591670de0b6b3a7640000610f18565b861115612fed576040805162461bcd60e51b81526020600482015260116024820152704552525f4d41585f4f55545f524154494f60781b604482015290519081900360640190fd5b600061300e8360030154846002015484600301548560020154600754613de4565b90508581111561305b576040805162461bcd60e51b81526020600482015260136024820152724552525f4241445f4c494d49545f505249434560681b604482015290519081900360640190fd5b61307b83600301548460020154846003015485600201548b600754614e21565b9450888511156130c1576040805162461bcd60e51b815260206004820152600c60248201526b22a9292fa624a6a4aa2fa4a760a11b604482015290519081900360640190fd5b6130cf8360030154866151e4565b83600301819055506130e5826003015488614f7d565b600380840182905584015460028086015490850154600754613108949190613de4565b935080841015613151576040805162461bcd60e51b815260206004820152600f60248201526e08aa4a4be9a82a890be82a0a0a49eb608b1b604482015290519081900360640190fd5b85841115613198576040805162461bcd60e51b815260206004820152600f60248201526e4552525f4c494d49545f505249434560881b604482015290519081900360640190fd5b6131a28588615293565b8111156131e8576040805162461bcd60e51b815260206004820152600f60248201526e08aa4a4be9a82a890be82a0a0a49eb608b1b604482015290519081900360640190fd5b876001600160a01b03168a6001600160a01b0316336001600160a01b03167f908fb5ee8f16c6bc9bc3690973819f32a4d4b10188134543c88706e0e1d43378888b604051808381526020018281526020019250505060405180910390a46132508a3387615231565b61325b883389615003565b5050506005805461ff001916905590969095509350505050565b60408051602080825236908201819052600092839233926001600160e01b03198535169285929081908101848480828437600083820152604051601f909101601f19169092018290039550909350505050a2600554610100900460ff1615613312576040805162461bcd60e51b815260206004820152600b60248201526a4552525f5245454e54525960a81b604482015290519081900360640190fd5b6005805461ff0019166101001790556001600160a01b0387166000908152600a602052604090205460ff1661337e576040805162461bcd60e51b815260206004820152600d60248201526c11549497d393d517d093d55391609a1b604482015290519081900360640190fd5b6001600160a01b0385166000908152600a602052604090205460ff166133db576040805162461bcd60e51b815260206004820152600d60248201526c11549497d393d517d093d55391609a1b604482015290519081900360640190fd5b600654600160a01b900460ff1661342f576040805162461bcd60e51b81526020600482015260136024820152724552525f535741505f4e4f545f5055424c494360681b604482015290519081900360640190fd5b6001600160a01b038088166000908152600a6020526040808220928816825290206003820154613469906002670de0b6b3a764000061284a565b8811156134b0576040805162461bcd60e51b815260206004820152601060248201526f4552525f4d41585f494e5f524154494f60801b604482015290519081900360640190fd5b60006134d18360030154846002015484600301548560020154600754613de4565b90508581111561351e576040805162461bcd60e51b81526020600482015260136024820152724552525f4241445f4c494d49545f505249434560681b604482015290519081900360640190fd5b61353e83600301548460020154846003015485600201548d6007546141b5565b945086851015613585576040805162461bcd60e51b815260206004820152600d60248201526c11549497d31253525517d3d555609a1b604482015290519081900360640190fd5b61359383600301548a6151e4565b83600301819055506135a9826003015486614f7d565b6003808401829055840154600280860154908501546007546135cc949190613de4565b935080841015613615576040805162461bcd60e51b815260206004820152600f60248201526e08aa4a4be9a82a890be82a0a0a49eb608b1b604482015290519081900360640190fd5b8584111561365c576040805162461bcd60e51b815260206004820152600f60248201526e4552525f4c494d49545f505249434560881b604482015290519081900360640190fd5b6136668986615293565b8111156136ac576040805162461bcd60e51b815260206004820152600f60248201526e08aa4a4be9a82a890be82a0a0a49eb608b1b604482015290519081900360640190fd5b876001600160a01b03168a6001600160a01b0316336001600160a01b03167f908fb5ee8f16c6bc9bc3690973819f32a4d4b10188134543c88706e0e1d433788c89604051808381526020018281526020019250505060405180910390a46137148a338b615231565b61325b883387615003565b60008061372c8786615293565b90506000613742670de0b6b3a764000083614f7d565b905060006137508286614eb4565b9050600061376a876126a1670de0b6b3a764000085614f7d565b905060006137788c83614f7d565b90506000613786828e615293565b90506000613794828861539b565b905060006137a2828e614eb4565b905060006137b08e83614f7d565b90506137c9816126a1670de0b6b3a76400006000614f7d565b99505050505050505050509695505050505050565b6000806137eb8786615293565b9050600061380a613804670de0b6b3a764000084614f7d565b85614eb4565b9050600061382986613824670de0b6b3a764000085614f7d565b614eb4565b905060006138378b836151e4565b90506000613845828d615293565b90506000613853828761539b565b90506000613861828d614eb4565b905061386d818d614f7d565b9e9d5050505050505050505050505050565b64e8d4a51000670de0b6b3a7640000611496565b6000806138a08786615293565b905060006138bb85613824670de0b6b3a76400006000614f7d565b905060006138c98883614f7d565b905060006138d7828a615293565b905060006138f6826138f1670de0b6b3a764000088615293565b61539b565b90506000613904828e614eb4565b905060006139128e83614f7d565b9050600061392b612683670de0b6b3a76400008a614f7d565b90506126a682613824670de0b6b3a764000084614f7d565b336001600160a01b03166000356001600160e01b0319166001600160e01b03191660003660405180806020018281038252848482818152602001925080828437600083820152604051601f909101601f19169092018290039550909350505050a2600554610100900460ff16156139ef576040805162461bcd60e51b815260206004820152600b60248201526a4552525f5245454e54525960a81b604482015290519081900360640190fd5b6005805461ff0019166101001790556001600160a01b0381166000908152600a602052604090205460ff16613a5b576040805162461bcd60e51b815260206004820152600d60248201526c11549497d393d517d093d55391609a1b604482015290519081900360640190fd5b604080516370a0823160e01b815230600482015290516001600160a01b038316916370a08231916024808301926020929190829003018186803b158015613aa157600080fd5b505afa158015613ab5573d6000803e3d6000fd5b505050506040513d6020811015613acb57600080fd5b50516001600160a01b039091166000908152600a60205260409020600301556005805461ff0019169055565b60085460ff1690565b336001600160a01b03166000356001600160e01b0319166001600160e01b03191660003660405180806020018281038252848482818152602001925080828437600083820152604051601f909101601f19169092018290039550909350505050a2600554610100900460ff1615613bac576040805162461bcd60e51b815260206004820152600b60248201526a4552525f5245454e54525960a81b604482015290519081900360640190fd5b6005805461ff001916610100179055600654336001600160a01b0390911614613c11576040805162461bcd60e51b815260206004820152601260248201527122a9292fa727aa2fa1a7a72a2927a62622a960711b604482015290519081900360640190fd5b600680546001600160a01b0319166001600160a01b03929092169190911790556005805461ff0019169055565b600554600090610100900460ff1615613c8c576040805162461bcd60e51b815260206004820152600b60248201526a4552525f5245454e54525960a81b604482015290519081900360640190fd5b50600b5490565b68056bc75e2d6310000081565b600554600090610100900460ff1615613cee576040805162461bcd60e51b815260206004820152600b60248201526a4552525f5245454e54525960a81b604482015290519081900360640190fd5b6001600160a01b0382166000908152600a602052604090205460ff16613d4b576040805162461bcd60e51b815260206004820152600d60248201526c11549497d393d517d093d55391609a1b604482015290519081900360640190fd5b506001600160a01b03166000908152600a602052604090206002015490565b60048054604080516020601f60026000196101006001881615020190951694909404938401819004810282018101909252828152606093909290918301828280156111735780601f1061114857610100808354040283529160200191611173565b6704a03ce68d21555681565b6542524f4e5a4560d01b90565b600080613df18787615293565b90506000613dff8686615293565b90506000613e0d8383615293565b90506000613e2f670de0b6b3a76400006126a1670de0b6b3a764000089614f7d565b9050613e3b8282614eb4565b9a9950505050505050505050565b6000613e563384846150d4565b50600192915050565b336001600160a01b03166000356001600160e01b0319166001600160e01b03191660003660405180806020018281038252848482818152602001925080828437600083820152604051601f909101601f19169092018290039550909350505050a2600554610100900460ff1615613f0b576040805162461bcd60e51b815260206004820152600b60248201526a4552525f5245454e54525960a81b604482015290519081900360640190fd5b6005805461ff00191661010017905560085460ff16613f65576040805162461bcd60e51b815260206004820152601160248201527011549497d393d517d19253905312569151607a1b604482015290519081900360640190fd5b6000613f6f611480565b90506000613f7e856000614eb4565b90506000613f8c8683614f7d565b90506000613f9a8285615293565b905080613fe0576040805162461bcd60e51b815260206004820152600f60248201526e08aa4a4be9a82a890be82a0a0a49eb608b1b604482015290519081900360640190fd5b613fea3388614fdf565b600554614006906201000090046001600160a01b031684614ff9565b61400f82614fed565b60005b6009548110156141915760006009828154811061402b57fe5b60009182526020808320909101546001600160a01b0316808352600a9091526040822060030154909250906140608583614eb4565b9050806140a6576040805162461bcd60e51b815260206004820152600f60248201526e08aa4a4be9a82a890be82a0a0a49eb608b1b604482015290519081900360640190fd5b8989858181106140b257fe5b905060200201358110156140fd576040805162461bcd60e51b815260206004820152600d60248201526c11549497d31253525517d3d555609a1b604482015290519081900360640190fd5b6001600160a01b0383166000908152600a60205260409020600301546141239082614f7d565b6001600160a01b0384166000818152600a60209081526040918290206003019390935580518481529051919233927fe74c91552b64c2e2e7bd255639e004e693bd3e1d01cc33e65610b86afcc1ffed9281900390910190a3614186833383615003565b505050600101614012565b50506005805461ff0019169055505050505050565b600881565b600281565b600181565b6000806141c28786615293565b905060006141d8670de0b6b3a764000085614f7d565b90506141e48582614eb4565b905060006141f68a6126a18c856151e4565b90506000614204828561539b565b9050600061421a670de0b6b3a764000083614f7d565b90506142268a82614eb4565b9c9b505050505050505050505050565b600a670de0b6b3a7640000611496565b671bc16d674ec7ffff81565b600554606090610100900460ff16156142a0576040805162461bcd60e51b815260206004820152600b60248201526a4552525f5245454e54525960a81b604482015290519081900360640190fd5b60085460ff166142eb576040805162461bcd60e51b815260206004820152601160248201527011549497d393d517d19253905312569151607a1b604482015290519081900360640190fd5b600980548060200260200160405190810160405280929190818152602001828054801561117357602002820191906000526020600020905b81546001600160a01b03168152600190910190602001808311614323575050505050905090565b600081565b600554606090610100900460ff16156142eb576040805162461bcd60e51b815260206004820152600b60248201526a4552525f5245454e54525960a81b604482015290519081900360640190fd5b60095490565b336001600160a01b03166000356001600160e01b0319166001600160e01b03191660003660405180806020018281038252848482818152602001925080828437600083820152604051601f909101601f19169092018290039550909350505050a2600554610100900460ff161561444f576040805162461bcd60e51b815260206004820152600b60248201526a4552525f5245454e54525960a81b604482015290519081900360640190fd5b6005805461ff001916610100179055600654336001600160a01b03909116146144b4576040805162461bcd60e51b815260206004820152601260248201527122a9292fa727aa2fa1a7a72a2927a62622a960711b604482015290519081900360640190fd5b6001600160a01b0381166000908152600a602052604090205460ff16614511576040805162461bcd60e51b815260206004820152600d60248201526c11549497d393d517d093d55391609a1b604482015290519081900360640190fd5b60085460ff161561455c576040805162461bcd60e51b815260206004820152601060248201526f11549497d254d7d1925390531256915160821b604482015290519081900360640190fd5b6001600160a01b0381166000908152600a6020526040812060030154906145838282614eb4565b600b546001600160a01b0385166000908152600a60205260409020600201549192506145ae91614f7d565b600b556001600160a01b0383166000908152600a60205260409020600101546009805460001981019190829081106145e257fe5b600091825260209091200154600980546001600160a01b03909216918490811061460857fe5b9060005260206000200160006101000a8154816001600160a01b0302191690836001600160a01b0316021790555081600a60006009858154811061464857fe5b60009182526020808320909101546001600160a01b03168352820192909252604001902060010155600980548061467b57fe5b60008281526020808220600019908401810180546001600160a01b031916905590920190925560408051608081018252838152808301848152818301858152606083018681526001600160a01b038c168752600a909552929094209051815460ff191690151517815592516001840155516002830155516003909101556147078533611c578787614f7d565b600554611c7d9086906201000090046001600160a01b031685615003565b600554600090610100900460ff1615614773576040805162461bcd60e51b815260206004820152600b60248201526a4552525f5245454e54525960a81b604482015290519081900360640190fd5b5060075490565b3360009081526001602090815260408083206001600160a01b03861684529091528120546147a890836151e4565b3360008181526001602090815260408083206001600160a01b038916808552908352928190208590558051948552519193600080516020615788833981519152929081900390910190a350600192915050565b6001600160a01b03918216600090815260016020908152604080832093909416825291909152205490565b336001600160a01b03166000356001600160e01b0319166001600160e01b03191660003660405180806020018281038252848482818152602001925080828437600083820152604051601f909101601f19169092018290039550909350505050a26006546001600160a01b031633146148db576040805162461bcd60e51b815260206004820152601260248201527122a9292fa727aa2fa1a7a72a2927a62622a960711b604482015290519081900360640190fd5b6001600160a01b0383166000908152600a602052604090205460ff1615614938576040805162461bcd60e51b815260206004820152600c60248201526b11549497d254d7d093d5539160a21b604482015290519081900360640190fd5b60085460ff1615614983576040805162461bcd60e51b815260206004820152601060248201526f11549497d254d7d1925390531256915160821b604482015290519081900360640190fd5b6009546008116149cb576040805162461bcd60e51b815260206004820152600e60248201526d4552525f4d41585f544f4b454e5360901b604482015290519081900360640190fd5b6040805160808101825260018082526009805460208085019182526000858701818152606087018281526001600160a01b038c16808452600a9094529782209651875460ff1916901515178755925186860155915160028601559451600390940193909355805491820181559091527f6e1540171b6c0c960b71a7020d9f60077f6af931a8bbf590da0223dacf75c7af0180546001600160a01b0319169091179055614a78838383611882565b505050565b60085460609060ff16614acb576040805162461bcd60e51b815260206004820152601160248201527011549497d393d517d19253905312569151607a1b604482015290519081900360640190fd5b6000614ad5611480565b90506000614ae4866000614eb4565b90506000614af28783614f7d565b90506000614b008285615293565b60095490915060009060020267ffffffffffffffff81118015614b2257600080fd5b50604051908082528060200260200182016040528015614b4c578160200160208202803683370190505b50905060005b600954811015614c5e57600060098281548110614b6b57fe5b60009182526020808320909101546001600160a01b0316808352600a909152604090912060030154909150614ba08582614eb4565b848481518110614bac57fe5b6020026020010181815250508a8a84818110614bc457fe5b9050602002013584846009805490500181518110614bde57fe5b6020026020010181815250508a8a84818110614bf657fe5b90506020020135848481518110614c0957fe5b60200260200101511015614c54576040805162461bcd60e51b815260206004820152600d60248201526c11549497d31253525517d3d555609a1b604482015290519081900360640190fd5b5050600101614b52565b5098975050505050505050565b6002670de0b6b3a7640000611496565b600554600090610100900460ff1615614cc9576040805162461bcd60e51b815260206004820152600b60248201526a4552525f5245454e54525960a81b604482015290519081900360640190fd5b6001600160a01b0382166000908152600a602052604090205460ff16614d26576040805162461bcd60e51b815260206004820152600d60248201526c11549497d393d517d093d55391609a1b604482015290519081900360640190fd5b6001600160a01b0382166000908152600a6020526040902060020154600b54614d50908290615293565b9392505050565b600554600090610100900460ff1615614da5576040805162461bcd60e51b815260206004820152600b60248201526a4552525f5245454e54525960a81b604482015290519081900360640190fd5b6001600160a01b0382166000908152600a602052604090205460ff16614e02576040805162461bcd60e51b815260206004820152600d60248201526c11549497d393d517d093d55391609a1b604482015290519081900360640190fd5b506001600160a01b03166000908152600a602052604090206003015490565b600080614e2e8588615293565b90506000614e3c8786614f7d565b90506000614e4a8883615293565b90506000614e58828561539b565b9050614e6c81670de0b6b3a7640000614f7d565b9050614e80670de0b6b3a764000087614f7d565b9450614e95614e8f8c83614eb4565b86615293565b9b9a5050505050505050505050565b600654600160a01b900460ff1690565b6000828202831580614ece575082848281614ecb57fe5b04145b614f12576040805162461bcd60e51b815260206004820152601060248201526f4552525f4d554c5f4f564552464c4f5760801b604482015290519081900360640190fd5b6706f05b59d3b20000810181811015614f65576040805162461bcd60e51b815260206004820152601060248201526f4552525f4d554c5f4f564552464c4f5760801b604482015290519081900360640190fd5b6000670de0b6b3a7640000825b049695505050505050565b6000806000614f8c85856154a9565b915091508015614fd7576040805162461bcd60e51b81526020600482015260116024820152704552525f5355425f554e444552464c4f5760781b604482015290519081900360640190fd5b509392505050565b614fe982826154ce565b5050565b614ff6816154d9565b50565b614fe982826155a9565b6000836001600160a01b031663a9059cbb84846040518363ffffffff1660e01b815260040180836001600160a01b0316815260200182815260200192505050602060405180830381600087803b15801561505c57600080fd5b505af1158015615070573d6000803e3d6000fd5b505050506040513d602081101561508657600080fd5b50519050806150ce576040805162461bcd60e51b815260206004820152600f60248201526e4552525f45524332305f46414c534560881b604482015290519081900360640190fd5b50505050565b6001600160a01b038316600090815260208190526040902054811115615138576040805162461bcd60e51b815260206004820152601460248201527311549497d25394d551919250d251539517d0905360621b604482015290519081900360640190fd5b6001600160a01b03831660009081526020819052604090205461515b9082614f7d565b6001600160a01b03808516600090815260208190526040808220939093559084168152205461518a90826151e4565b6001600160a01b038084166000818152602081815260409182902094909455805185815290519193928716927fddf252ad1be2c89b69c2b068fc378daa952ba7f163c4a11628f55a4df523b3ef92918290030190a3505050565b600082820183811015614d50576040805162461bcd60e51b815260206004820152601060248201526f4552525f4144445f4f564552464c4f5760801b604482015290519081900360640190fd5b604080516323b872dd60e01b81526001600160a01b0384811660048301523060248301526044820184905291516000928616916323b872dd91606480830192602092919082900301818787803b15801561505c57600080fd5b614ff6816155b4565b6000816152d6576040805162461bcd60e51b815260206004820152600c60248201526b4552525f4449565f5a45524f60a01b604482015290519081900360640190fd5b670de0b6b3a764000083028315806152fe5750670de0b6b3a76400008482816152fb57fe5b04145b615342576040805162461bcd60e51b815260206004820152601060248201526f11549497d1125597d25395115493905360821b604482015290519081900360640190fd5b60028304810181811015615390576040805162461bcd60e51b815260206004820152601060248201526f11549497d1125597d25395115493905360821b604482015290519081900360640190fd5b6000848281614f7257fe5b600060018310156153eb576040805162461bcd60e51b81526020600482015260156024820152744552525f42504f575f424153455f544f4f5f4c4f5760581b604482015290519081900360640190fd5b671bc16d674ec7ffff831115615441576040805162461bcd60e51b815260206004820152601660248201527508aa4a4be84a09eaebe8482a68abea89e9ebe90928e960531b604482015290519081900360640190fd5b600061544c83615629565b9050600061545a8483614f7d565b905060006154708661546b85615644565b615652565b9050816154815792506111cc915050565b600061549287846305f5e1006156a9565b905061549e8282614eb4565b979650505050505050565b6000808284106154bf57505080820360006154c7565b505081810360015b9250929050565b614fe98230836150d4565b30600090815260208190526040902054811115615534576040805162461bcd60e51b815260206004820152601460248201527311549497d25394d551919250d251539517d0905360621b604482015290519081900360640190fd5b3060009081526020819052604090205461554e9082614f7d565b3060009081526020819052604090205560025461556b9082614f7d565b60025560408051828152905160009130917fddf252ad1be2c89b69c2b068fc378daa952ba7f163c4a11628f55a4df523b3ef9181900360200190a350565b614fe93083836150d4565b306000908152602081905260409020546155ce90826151e4565b306000908152602081905260409020556002546155eb90826151e4565b60025560408051828152905130916000917fddf252ad1be2c89b69c2b068fc378daa952ba7f163c4a11628f55a4df523b3ef9181900360200190a350565b6000670de0b6b3a764000061563d83615644565b0292915050565b670de0b6b3a7640000900490565b6000806002830661566b57670de0b6b3a764000061566d565b835b90506002830492505b8215614d50576156868485614eb4565b9350600283061561569e5761569b8185614eb4565b90505b600283049250615676565b60008281806156c087670de0b6b3a76400006154a9565b9092509050670de0b6b3a764000080600060015b888410615778576000670de0b6b3a7640000820290506000806157088a61570385670de0b6b3a7640000614f7d565b6154a9565b9150915061571a87613824848c614eb4565b96506157268784615293565b96508661573557505050615778565b871561573f579315935b8015615749579315935b8415615760576157598688614f7d565b955061576d565b61576a86886151e4565b95505b5050506001016156d4565b5090999850505050505050505056fe8c5be1e5ebec7d5bd14f71427d1e84f3dd0314c0f7b2291e5b200ac8c7c3b925a2646970667358221220d8ab6896a9d4a71f596398c191ef8ea0f6c12a0187f4d3e39baed9911c396c0364736f6c63430007060033a26469706673582212201e0999783fe2ababe977a8a827bbeca6b9cf66f94f7c754b436f7ed6d2a896ea64736f6c63430007060033",
  "linkReferences": {},
  "deployedLinkReferences": {}
}