{
  "_format": "hh-sol-artifact-1",
  "contractName": "BFactory",
  "sourceName": "contracts/balancer/BFactory.sol",
  "abi": [
    {
      "inputs": [],
      "stateMutability": "nonpayable",
      "type": "constructor"
    },
    {
      "anonymous": false,
      "inputs": [
        {
          "indexed": true,
          "internalType": "address",
          "name": "caller",
          "type": "address"
        },
        {
          "indexed": true,
          "internalType": "address",
          "name": "blabs",
          "type": "address"
        }
      ],
      "name": "LOG_BLABS",
      "type": "event"
    },
    {
      "anonymous": false,
      "inputs": [
        {
          "indexed": true,
          "internalType": "address",
          "name": "caller",
          "type": "address"
        },
        {
          "indexed": true,
          "internalType": "address",
          "name": "pool",
          "type": "address"
        }
      ],
      "name": "LOG_NEW_POOL",
      "type": "event"
    },
    {
      "inputs": [
        {
          "internalType": "contract BPool",
          "name": "pool",
          "type": "address"
        }
      ],
      "name": "collect",
      "outputs": [],
      "stateMutability": "nonpayable",
      "type": "function"
    },
    {
      "inputs": [],
      "name": "getBLabs",
      "outputs": [
        {
          "internalType": "address",
          "name": "",
          "type": "address"
        }
      ],
      "stateMutability": "view",
      "type": "function"
    },
    {
      "inputs": [],
      "name": "getColor",
      "outputs": [
        {
          "internalType": "bytes32",
          "name": "",
          "type": "bytes32"
        }
      ],
      "stateMutability": "pure",
      "type": "function"
    },
    {
      "inputs": [
        {
          "internalType": "address",
          "name": "b",
          "type": "address"
        }
      ],
      "name": "isBPool",
      "outputs": [
        {
          "internalType": "bool",
          "name": "",
          "type": "bool"
        }
      ],
      "stateMutability": "view",
      "type": "function"
    },
    {
      "inputs": [],
      "name": "newBPool",
      "outputs": [
        {
          "internalType": "contract BPool",
          "name": "",
          "type": "address"
        }
      ],
      "stateMutability": "nonpayable",
      "type": "function"
    },
    {
      "inputs": [
        {
          "internalType": "address",
          "name": "b",
          "type": "address"
        }
      ],
      "name": "setBLabs",
      "outputs": [],
      "stateMutability": "nonpayable",
      "type": "function"
    }
  ],
  "bytecode": "0x608060405234801561001957600080610016610059565b50505b505a6100236100c4565b6001808061002f61011e565b816001600160a01b0302191690836001600160a01b031602179061005161016a565b5050506101b8565b632a2a7adb598160e01b8152600481016020815285602082015260005b86811015610091578086015182820160400152602001610076565b506020828760640184336000905af158600e01573d6000803e3d6000fd5b3d6001141558600a015760016000f35b505050565b6373509064598160e01b8152602081600483336000905af158600e01573d6000803e3d6000fd5b3d6001141558600a015760016000f35b8051935060005b604081101561011957600082820152602001610102565b505050565b6303daa959598160e01b8152836004820152602081602483336000905af158600e01573d6000803e3d6000fd5b3d6001141558600a015760016000f35b80516000825293506020610102565b6322bd64c0598160e01b8152836004820152846024820152600081604483336000905af158600e01573d6000803e3d6000fd5b3d6001141558600a015760016000f35b600081526020610102565b6185c180620001c86000396000f3fe60806040523480156200001c576000806200001962000753565b50505b5060043610620000755760003560e01c806306ec16f8146200008557806336ffb16714620000bb5780639a86139b14620000e1578063c2bb6dc214620000fd578063c6ce34fb1462000145578063d556c5dc1462000179575b6000806200008262000753565b50505b620000b960048036036020811015620000a857600080620000a562000753565b50505b50356001600160a01b031662000183565b005b620000c562000464565b6040516001600160a01b03909116815260200160405180910390f35b620000eb62000488565b60405190815260200160405180910390f35b620001316004803603602081101562000120576000806200011d62000753565b50505b50356001600160a01b031662000495565b604051901515815260200160405180910390f35b620000b96004803603602081101562000168576000806200016562000753565b50505b50356001600160a01b0316620004cb565b620000c5620005d6565b6000600162000191620007c0565b906101000a90046001600160a01b03166001600160a01b03165a620001b56200081d565b6001600160a01b0316146200020b5760405162461bcd60e51b815260206004820152600d60248201526c4552525f4e4f545f424c41425360981b6044820152606401604051809103906200020862000753565b50505b6000816001600160a01b03166370a082315a63996d79a5598160e01b8152602081600483336000905af158600e01573d6000803e3d6000fd5b3d6001141558600a015760016000f35b8051925060005b604081101562000274576000828201526020016200025b565b5050506040516001600160e01b031960e084901b1681526001600160a01b0390911660048201526024016020604051808303818680620002b362000864565b158015620002cb57600080620002c862000753565b50505b505a620002d7620008b1565b5050505050158015620002f9573d6000803e3d6000620002f662000753565b50505b505050506040513d60208110156200031b576000806200031862000753565b50505b81019080805193506000925050506001600160a01b03831663a9059cbb82600162000345620007c0565b906101000a90046001600160a01b0316846040516001600160e01b031960e085901b1681526001600160a01b0390921660048301526024820152604401602060405180830381600087806200039962000864565b158015620003b157600080620003ae62000753565b50505b505a620003bd620009a9565b505050505050158015620003e0573d6000803e3d6000620003dd62000753565b50505b505050506040513d60208110156200040257600080620003ff62000753565b50505b81019080805193508392506200045f9150505760405162461bcd60e51b815260206004820152601060248201526f11549497d15490cc8c17d1905253115160821b6044820152606401604051809103906200045c62000753565b50505b505050565b600080600162000473620007c0565b906101000a90046001600160a01b0316905090565b6542524f4e5a4560d01b90565b6001600160a01b0381166000908152602081905260408120600090620004ba620007c0565b906101000a900460ff169050919050565b60006001620004d9620007c0565b906101000a90046001600160a01b03166001600160a01b03165a620004fd6200081d565b6001600160a01b031614620005535760405162461bcd60e51b815260206004820152600d60248201526c4552525f4e4f545f424c41425360981b6044820152606401604051809103906200055062000753565b50505b806001600160a01b03165a620005686200081d565b6001600160a01b03167ff586fa6ee1fc42f5b727f3b214ccbd0b6d7e698c45d49ba32f224fbb8670155d60405160405180910390a38060018080620005ac620007c0565b816001600160a01b0302191690836001600160a01b0316021790620005d062000a77565b50505050565b600080604051620005e79062000ac6565b604051809103906000620005fa62000ad4565b5050801580156200061a573d6000803e3d60006200061762000753565b50505b506001600160a01b038116600090815260208190529091506001906040902060018162000646620007c0565b8160ff021916908315150217906200065d62000a77565b505050806001600160a01b03165a620006756200081d565b6001600160a01b03167f8ccec77b0cb63ac2cafd0f5de8cdfadab91ce656d262240ba8a6343bccc5f94560405160405180910390a3806001600160a01b03166392eefe9b5a620006c46200081d565b6040516001600160e01b031960e084901b1681526001600160a01b039091166004820152602401600060405180830381600087806200070262000864565b1580156200071a576000806200071762000753565b50505b505a62000726620009a9565b50505050505015801562000749573d6000803e3d60006200074662000753565b50505b5092935050505090565b632a2a7adb598160e01b8152600481016020815285602082015260005b868110156200078d57808601518282016040015260200162000770565b506020828760640184336000905af158600e01573d6000803e3d6000fd5b3d6001141558600a015760016000f35b505050565b6303daa959598160e01b8152836004820152602081602483336000905af158600e01573d6000803e3d6000fd5b3d6001141558600a015760016000f35b8051935060005b60408110156200045f5760008282015260200162000804565b6373509064598160e01b8152602081600483336000905af158600e01573d6000803e3d6000fd5b3d6001141558600a015760016000f35b8051600082529350602062000804565b638435035b598160e01b8152836004820152602081602483336000905af158600e01573d6000803e3d6000fd5b3d6001141558600a015760016000f35b8051600082529350602062000804565b638540661f598160e01b8152620008e7565b8080831115620008d05750815b92915050565b8080831015620008d0575090919050565b836004820152846024820152606060448201528660648201526084810160005b888110156200092157808801518282015260200162000907565b506060828960a40184336000905af158600e01573d6000803e3d6000fd5b3d6001141558600a015760016000f35b815160408301513d6000853e8b8b82606087013350600060045af15059620009788d3d620008d6565b8c01620009868187620008c3565b5b828110156200099d576000815260200162000987565b50929c50505050505050565b6385979f76598160e01b8152836004820152846024820152606060448201528760648201526084810160005b89811015620009ef578089015182820152602001620009d5565b506060828a60a40184336000905af158600e01573d6000803e3d6000fd5b3d6001141558600a015760016000f35b815160408301513d6000853e8c8c82606087013350600060045af1505962000a468e3d620008d6565b8d0162000a548187620008c3565b5b8281101562000a6b576000815260200162000a55565b50929d50505050505050565b6322bd64c0598160e01b8152836004820152846024820152600081604483336000905af158600e01573d6000803e3d6000fd5b3d6001141558600a015760016000f35b60008152602062000804565b617a678062000b5a83390190565b6314aa2ff7598160e01b8152600481016020815286602082015260005b8781101562000b0e57808701518282016040015260200162000af1565b506020828860640184336000905af158600e01573d6000803e3d6000fd5b3d6001141558600a015760016000f35b8151965059825b818110156200045c576000815260200162000b4356fe608060405260405160408082019052601381527f42616c616e63657220506f6f6c20546f6b656e00000000000000000000000000602082015260039080516200004d929160200190620001d1565b5060405160408082019052600381526210941560ea1b602082015260049080516200007d929160200190620001d1565b50601260056001816200008f62000293565b8160ff021916908360ff16021790620000a7620002f5565b505050348015620000c257600080620000bf62000344565b50505b505a620000ce620003b1565b6006600181620000dd62000293565b816001600160a01b0302191690836001600160a01b031602179062000101620002f5565b5050505a6200010f620003b1565b600562010000816200012062000293565b816001600160a01b0302191690836001600160a01b031602179062000144620002f5565b505050620f4240670de0b6b3a7640000816200015c57fe5b048060076200016a620002f5565b5050506000600660146101000a816200018262000293565b8160ff0219169083151502179062000199620002f5565b5050506000600860006101000a81620001b162000293565b8160ff02191690831515021790620001c8620002f5565b5050506200041b565b8280620001dd62000293565b600181600116156101000203166002900490600052602060002090601f0160209004810192826200021d5760008562000215620002f5565b505062000281565b82601f106200023b57805160ff1916838001178562000215620002f5565b828001600101856200024c620002f5565b5050821562000281579182015b8281111562000281578251826200026f620002f5565b50509160200191906001019062000259565b506200028f929150620003f8565b5090565b6303daa959598160e01b8152836004820152602081602483336000905af158600e01573d6000803e3d6000fd5b3d6001141558600a015760016000f35b8051935060005b6040811015620002f057600082820152602001620002d7565b505050565b6322bd64c0598160e01b8152836004820152846024820152600081604483336000905af158600e01573d6000803e3d6000fd5b3d6001141558600a015760016000f35b600081526020620002d7565b632a2a7adb598160e01b8152600481016020815285602082015260005b868110156200037e57808601518282016040015260200162000361565b506020828760640184336000905af158600e01573d6000803e3d6000fd5b3d6001141558600a015760016000f35b505050565b6373509064598160e01b8152602081600483336000905af158600e01573d6000803e3d6000fd5b3d6001141558600a015760016000f35b80516000825293506020620002d7565b808211156200028f57600080826200040f620002f5565b505050600101620003f8565b61763c806200042b6000396000f3fe6080604052348015610019576000806100166172c4565b50505b50600436106103ef5760003560e01c806392eefe9b11610213578063be3bbd2e1161012e578063dd62ed3e116100c1578063ec09302111610090578063ec09302114610e80578063f1b8a9b714610e88578063f8b2cb4f14610eb7578063f8d6aed414610ee6578063fde924f714610f2a576103ef565b8063dd62ed3e14610d73578063e4a28a5214610512578063e4e1e53814610daa578063ea40f3f714610de5576103ef565b8063cd2ed8fb116100fd578063cd2ed8fb14610cff578063cf5e7bd314610d07578063d4cadf6814610d36578063d73dd62314610d3e576103ef565b8063be3bbd2e14610c94578063c36596a614610598578063c6580d1214610cef578063cc77828d14610cf7576103ef565b8063a9059cbb116101a6578063ba019dab11610175578063ba019dab14610c38578063ba9530a614610c40578063bc063e1a14610c84578063bc694ea214610c8c576103ef565b8063a9059cbb14610b58578063b02f0b7314610b8d578063b0e0d13614610c28578063b7b800a414610c30576103ef565b806395d89b41116101e257806395d89b4114610b02578063992e2a9214610b0a5780639a86139b14610b12578063a221ee4914610b1a576103ef565b806392eefe9b14610a94578063936c347714610ac35780639381cd2b14610acb578063948d8ce614610ad3576103ef565b806349b595521161030e57806376c7a3c7116102a15780638656b653116102705780638656b653146109cd578063867378c514610a115780638929801214610a195780638c28cbe814610a5d5780638d4e408314610a8c576103ef565b806376c7a3c7146108d75780637c5e9ea4146108df5780638201aa3f1461094057806382f652ad14610989576103ef565b80635db34277116102dd5780635db34277146107fd57806366188463146108385780636d06dfa01461086d57806370a08231146108a8576103ef565b806349b59552146106ee5780634bb278f3146107165780634f69c0d41461071e5780635c1bbaf7146107b9576103ef565b8063218b538211610386578063313ce56711610355578063313ce5671461063257806334e19907146106505780633fdddaa21461067857806346ab38f1146106b3576103ef565b8063218b53821461059857806323b872dd146105a05780632f37b624146105df5780633018205f1461060e576103ef565b80631446a7ff116103c25780631446a7ff1461051a57806315e84af91461055157806318160ddd14610588578063189d00ca14610590576103ef565b806302c96748146103fd57806306fdde031461044a578063095ea7b3146104c957806309a3bbe414610512575b6000806103fa6172c4565b50505b6104386004803603606081101561041c576000806104196172c4565b50505b506001600160a01b038135169060208101359060400135610f32565b60405190815260200160405180910390f35b61045261137f565b60405160208082528190810183818151815260200191508051906020019080838360005b8381101561048e578082015183820152602001610476565b50505050905090810190601f1680156104bb5780820380516001836020036101000a031916815260200191505b509250505060405180910390f35b6104fe600480360360408110156104e8576000806104e56172c4565b50505b506001600160a01b03813516906020013561143c565b604051901515815260200160405180910390f35b6104386114d9565b61043860048036036040811015610539576000806105366172c4565b50505b506001600160a01b03813581169160200135166114e6565b610438600480360360408110156105705760008061056d6172c4565b50505b506001600160a01b03813581169160200135166116aa565b61043861186d565b61043861187e565b610438611892565b6104fe600480360360608110156105bf576000806105bc6172c4565b50505b506001600160a01b0381358116916020810135909116906040013561189e565b6104fe600480360360208110156105fe576000806105fb6172c4565b50505b50356001600160a01b0316611b1d565b610616611b51565b6040516001600160a01b03909116815260200160405180910390f35b61063a611bd2565b60405160ff909116815260200160405180910390f35b6106766004803603602081101561066f5760008061066c6172c4565b50505b5035611bee565b005b61067660048036036060811015610697576000806106946172c4565b50505b506001600160a01b038135169060208101359060400135611ea1565b610438600480360360608110156106d2576000806106cf6172c4565b50505b506001600160a01b03813516906020810135906040013561241d565b6106766004803603602081101561070d5760008061070a6172c4565b50505b503515156127bf565b6106766129b8565b6106766004803603604081101561073d5760008061073a6172c4565b50505b81359190810190604081016020820135640100000000811115610768576000806107656172c4565b50505b820183602082011115610783576000806107806172c4565b50505b803590602001918460208302840111640100000000831117156107ae576000806107ab6172c4565b50505b509092509050612c90565b610438600480360360c08110156107d8576000806107d56172c4565b50505b5080359060208101359060408101359060608101359060808101359060a0013561304b565b6104386004803603606081101561081c576000806108196172c4565b50505b506001600160a01b038135169060208101359060400135613103565b6104fe60048036036040811015610857576000806108546172c4565b50505b506001600160a01b0381351690602001356134a7565b6104386004803603606081101561088c576000806108896172c4565b50505b506001600160a01b038135169060208101359060400135613633565b610438600480360360208110156108c7576000806108c46172c4565b50505b50356001600160a01b0316613a03565b610438613a23565b610928600480360360a08110156108fe576000806108fb6172c4565b50505b506001600160a01b0381358116916020810135916040820135169060608101359060800135613a35565b60405191825260208201526040908101905180910390f35b610928600480360360a081101561095f5760008061095c6172c4565b50505b506001600160a01b038135811691602081013591604082013516906060810135906080013561402d565b610438600480360360c08110156109a8576000806109a56172c4565b50505b5080359060208101359060408101359060608101359060808101359060a001356145c6565b610438600480360360c08110156109ec576000806109e96172c4565b50505b5080359060208101359060408101359060608101359060808101359060a00135614685565b610438614726565b610438600480360360c0811015610a3857600080610a356172c4565b50505b5080359060208101359060408101359060608101359060808101359060a0013561473a565b61067660048036036020811015610a7c57600080610a796172c4565b50505b50356001600160a01b03166147ea565b6104fe614a79565b61067660048036036020811015610ab357600080610ab06172c4565b50505b50356001600160a01b0316614a86565b610438614c26565b610438614c90565b61043860048036036020811015610af257600080610aef6172c4565b50505b50356001600160a01b0316614c9d565b610452614d96565b610438614e3c565b610438614e48565b610438600480360360a0811015610b3957600080610b366172c4565b50505b5080359060208101359060408101359060608101359060800135614e55565b6104fe60048036036040811015610b7757600080610b746172c4565b50505b506001600160a01b038135169060200135614eba565b61067660048036036040811015610bac57600080610ba96172c4565b50505b81359190810190604081016020820135640100000000811115610bd757600080610bd46172c4565b50505b820183602082011115610bf257600080610bef6172c4565b50505b80359060200191846020830284011164010000000083111715610c1d57600080610c1a6172c4565b50505b509092509050614ed8565b6104386152ed565b6104386152f2565b6104386152f7565b610438600480360360c0811015610c5f57600080610c5c6172c4565b50505b5080359060208101359060408101359060608101359060808101359060a001356152fc565b61043861537d565b61043861538d565b610c9c615399565b60405160208082528190810183818151815260200191508051906020019060200280838360005b83811015610cdb578082015183820152602001610cc3565b505050509050019250505060405180910390f35b6104386154e0565b610c9c6154e5565b6104386155c9565b61067660048036036020811015610d2657600080610d236172c4565b50505b50356001600160a01b03166155dc565b610438615b01565b6104fe60048036036040811015610d5d57600080610d5a6172c4565b50505b506001600160a01b038135169060200135615b6b565b61043860048036036040811015610d9257600080610d8f6172c4565b50505b506001600160a01b0381358116916020013516615ca4565b61067660048036036060811015610dc957600080610dc66172c4565b50505b506001600160a01b038135169060208101359060400135615ce4565b610c9c60048036036040811015610e0457600080610e016172c4565b50505b81359190810190604081016020820135640100000000811115610e2f57600080610e2c6172c4565b50505b820183602082011115610e4a57600080610e476172c4565b50505b80359060200191846020830284011164010000000083111715610e7557600080610e726172c4565b50505b50909250905061600d565b61043861625d565b61043860048036036020811015610ea757600080610ea46172c4565b50505b50356001600160a01b031661626d565b61043860048036036020811015610ed657600080610ed36172c4565b50505b50356001600160a01b0316616376565b610438600480360360c0811015610f0557600080610f026172c4565b50505b5080359060208101359060408101359060608101359060808101359060a0013561646f565b6104fe6164f2565b60005a610f3d61732f565b6001600160a01b03166000356001600160e01b0319166001600160e01b031916600036604051602080825281018290528060408101848480828437600083820152601f01601f19169091019450604093505050505180910390a260016005610fa3617384565b906101000a900460ff1615610ff55760405162461bcd60e51b815260206004820152600b60248201526a4552525f5245454e54525960a81b604482015260640160405180910390610ff26172c4565b50505b6001600561010081611005617384565b8160ff0219169083151502179061101a6173d0565b505050600860009061102a617384565b906101000a900460ff166110815760405162461bcd60e51b815260206004820152601160248201527011549497d393d517d19253905312569151607a1b60448201526064016040518091039061107e6172c4565b50505b6001600160a01b0384166000908152600a602052604090206000906110a4617384565b906101000a900460ff166110f75760405162461bcd60e51b815260206004820152600d60248201526c11549497d393d517d093d55391609a1b6044820152606401604051809103906110f46172c4565b50505b6001600160a01b0384166000908152600a60205261112c906040902060030161111e617384565b6704a03ce68d215556616500565b83111561117c5760405162461bcd60e51b81526020600482015260116024820152704552525f4d41585f4f55545f524154494f60781b6044820152606401604051809103906111796172c4565b50505b6001600160a01b0384166000908152600a6020526040812090506111d5816003016111a5617384565b826002016111b1617384565b60026111bb617384565b600b6111c5617384565b8860076111d0617384565b6145c6565b9150816112235760405162461bcd60e51b815260206004820152600f60248201526e08aa4a4be9a82a890be82a0a0a49eb608b1b6044820152606401604051809103906112206172c4565b50505b8282111561126f5760405162461bcd60e51b815260206004820152600c60248201526b22a9292fa624a6a4aa2fa4a760a11b60448201526064016040518091039061126c6172c4565b50505b6112848160030161127e617384565b856165d9565b80600383016112916173d0565b50505060006112a1836000616500565b9050856001600160a01b03165a6112b661732f565b6001600160a01b03167fe74c91552b64c2e2e7bd255639e004e693bd3e1d01cc33e65610b86afcc1ffed8760405190815260200160405180910390a36113045a6112fe61732f565b84616640565b61131661131184836165d9565b61664e565b61133b60026005611325617384565b906101000a90046001600160a01b03168261665a565b61134e865a61134861732f565b87616664565b50506000600561010081611360617384565b8160ff021916908315150217906113756173d0565b5050509392505050565b606060038061138c617384565b600181600116156101000203166002900480601f0160208091040260200160405190810160405281815291906020830182806113c6617384565b600181600116156101000203166002900480156114325780601f106114005761010080836113f2617384565b040283529160200191611432565b820191906000526020600020905b81611417617384565b8152906001019060200180831161140e57829003601f168201915b5050505050905090565b600081600160005a61144c61732f565b6001600160a01b03166001600160a01b031681526020019081526020016000206001600160a01b038516600090815260209190915260409020819061148f6173d0565b505050826001600160a01b03165a6114a561732f565b6001600160a01b031660008051602061761c8339815191528460405190815260200160405180910390a35060015b92915050565b6802b5e3af16b188000081565b6000600160056114f4617384565b906101000a900460ff16156115465760405162461bcd60e51b815260206004820152600b60248201526a4552525f5245454e54525960a81b6044820152606401604051809103906115436172c4565b50505b6001600160a01b0383166000908152600a60205260409020600090611569617384565b906101000a900460ff166115bc5760405162461bcd60e51b815260206004820152600d60248201526c11549497d393d517d093d55391609a1b6044820152606401604051809103906115b96172c4565b50505b6001600160a01b0382166000908152600a602052604090206000906115df617384565b906101000a900460ff166116325760405162461bcd60e51b815260206004820152600d60248201526c11549497d393d517d093d55391609a1b60448201526064016040518091039061162f6172c4565b50505b6001600160a01b0383166000908152600a602052604081206001600160a01b0384166000908152600a6020529091506040812090506116a182600301611676617384565b83600201611682617384565b8360030161168e617384565b8460020161169a617384565b6000614e55565b95945050505050565b6000600160056116b8617384565b906101000a900460ff161561170a5760405162461bcd60e51b815260206004820152600b60248201526a4552525f5245454e54525960a81b6044820152606401604051809103906117076172c4565b50505b6001600160a01b0383166000908152600a6020526040902060009061172d617384565b906101000a900460ff166117805760405162461bcd60e51b815260206004820152600d60248201526c11549497d393d517d093d55391609a1b60448201526064016040518091039061177d6172c4565b50505b6001600160a01b0382166000908152600a602052604090206000906117a3617384565b906101000a900460ff166117f65760405162461bcd60e51b815260206004820152600d60248201526c11549497d393d517d093d55391609a1b6044820152606401604051809103906117f36172c4565b50505b6001600160a01b0383166000908152600a602052604081206001600160a01b0384166000908152600a6020529091506040812090506116a18260030161183a617384565b83600201611846617384565b83600301611852617384565b8460020161185e617384565b6007611868617384565b614e55565b60006002611879617384565b905090565b6402540be400670de0b6b3a76400005b0481565b670de0b6b3a764000081565b6000836001600160a01b03165a6118b361732f565b6001600160a01b0316148061191257506001600160a01b038416600090815260016020526040902060005a6118e661732f565b6001600160a01b03166001600160a01b0316815260200190815260200160002061190e617384565b8211155b6119635760405162461bcd60e51b815260206004820152601560248201527422a9292fa12a27a5a2a72fa120a22fa1a0a62622a960591b6044820152606401604051809103906119606172c4565b50505b61196e84848461676c565b836001600160a01b03165a61198161732f565b6001600160a01b0316141580156119e557506001600160a01b03841660009081526001602052600019906040902060005a6119ba61732f565b6001600160a01b03166001600160a01b031681526020019081526020016000206119e2617384565b14155b15611b13576001600160a01b03841660009081526001602052611a3f906040902060005a611a1161732f565b6001600160a01b03166001600160a01b03168152602001908152602001600020611a39617384565b836165d9565b6001600160a01b038516600090815260016020526040902060005a611a6261732f565b6001600160a01b03166001600160a01b031681526020019081526020016000208190611a8c6173d0565b505050826001600160a01b03165a611aa261732f565b6001600160a01b038681166000908152600160205291169060008051602061761c833981519152906040902060005a611ad961732f565b6001600160a01b03166001600160a01b03168152602001908152602001600020611b01617384565b60405190815260200160405180910390a35b5060019392505050565b6001600160a01b0381166000908152600a60205260408120600090611b40617384565b906101000a900460ff169050919050565b600060016005611b5f617384565b906101000a900460ff1615611bb15760405162461bcd60e51b815260206004820152600b60248201526a4552525f5245454e54525960a81b604482015260640160405180910390611bae6172c4565b50505b60006006611bbd617384565b906101000a90046001600160a01b0316905090565b6000806005611bdf617384565b906101000a900460ff16905090565b5a611bf761732f565b6001600160a01b03166000356001600160e01b0319166001600160e01b031916600036604051602080825281018290528060408101848480828437600083820152601f01601f19169091019450604093505050505180910390a260016005611c5d617384565b906101000a900460ff1615611caf5760405162461bcd60e51b815260206004820152600b60248201526a4552525f5245454e54525960a81b604482015260640160405180910390611cac6172c4565b50505b6001600561010081611cbf617384565b8160ff02191690831515021790611cd46173d0565b5050506008600090611ce4617384565b906101000a900460ff1615611d3b5760405162461bcd60e51b815260206004820152601060248201526f11549497d254d7d1925390531256915160821b604482015260640160405180910390611d386172c4565b50505b60006006611d47617384565b906101000a90046001600160a01b03166001600160a01b03165a611d6961732f565b6001600160a01b031614611dc15760405162461bcd60e51b815260206004820152601260248201527122a9292fa727aa2fa1a7a72a2927a62622a960711b604482015260640160405180910390611dbe6172c4565b50505b64e8d4a51000811015611e115760405162461bcd60e51b815260206004820152600b60248201526a4552525f4d494e5f46454560a81b604482015260640160405180910390611e0e6172c4565b50505b67016345785d8a0000811115611e645760405162461bcd60e51b815260206004820152600b60248201526a4552525f4d41585f46454560a81b604482015260640160405180910390611e616172c4565b50505b80806007611e706173d0565b5050506000600560016101000a81611e86617384565b8160ff02191690831515021790611e9b6173d0565b50505050565b5a611eaa61732f565b6001600160a01b03166000356001600160e01b0319166001600160e01b031916600036604051602080825281018290528060408101848480828437600083820152601f01601f19169091019450604093505050505180910390a260016005611f10617384565b906101000a900460ff1615611f625760405162461bcd60e51b815260206004820152600b60248201526a4552525f5245454e54525960a81b604482015260640160405180910390611f5f6172c4565b50505b6001600561010081611f72617384565b8160ff02191690831515021790611f876173d0565b5050506006600090611f97617384565b906101000a90046001600160a01b03166001600160a01b03165a611fb961732f565b6001600160a01b0316146120115760405162461bcd60e51b815260206004820152601260248201527122a9292fa727aa2fa1a7a72a2927a62622a960711b60448201526064016040518091039061200e6172c4565b50505b6001600160a01b0383166000908152600a60205260409020600090612034617384565b906101000a900460ff166120875760405162461bcd60e51b815260206004820152600d60248201526c11549497d393d517d093d55391609a1b6044820152606401604051809103906120846172c4565b50505b60006008612093617384565b906101000a900460ff16156120ea5760405162461bcd60e51b815260206004820152601060248201526f11549497d254d7d1925390531256915160821b6044820152606401604051809103906120e76172c4565b50505b670de0b6b3a76400008110156121405760405162461bcd60e51b815260206004820152600e60248201526d11549497d3525397d5d15251d21560921b60448201526064016040518091039061213d6172c4565b50505b6802b5e3af16b18800008111156121975760405162461bcd60e51b815260206004820152600e60248201526d11549497d3505617d5d15251d21560921b6044820152606401604051809103906121946172c4565b50505b620f42408210156121e95760405162461bcd60e51b815260206004820152600f60248201526e4552525f4d494e5f42414c414e434560881b6044820152606401604051809103906121e66172c4565b50505b6001600160a01b0383166000908152600a6020526040812060020161220c617384565b9050808211156122ad57612232600b612223617384565b61222d84846165d9565b6168be565b80600b61223d6173d0565b505050670de0b6b3a7640000603202600b612256617384565b11156122a85760405162461bcd60e51b815260206004820152601460248201527311549497d3505617d513d5105317d5d15251d21560621b6044820152606401604051809103906122a56172c4565b50505b6122e0565b808210156122e0576122d1600b6122c2617384565b6122cc83856165d9565b6165d9565b80600b6122dc6173d0565b5050505b6001600160a01b0384166000908152600a60205282906040902060020181906123076173d0565b5050506001600160a01b0384166000908152600a6020526040812060030161232d617384565b6001600160a01b0386166000908152600a60205290915084906040902060030181906123576173d0565b505050808411156123835761237e855a61236f61732f565b61237987856165d9565b616919565b6123ed565b808410156123ed57600061239782866165d9565b905060006123a6826000616500565b90506123c4875a6123b561732f565b6123bf85856165d9565b616664565b6123ea87600260056123d4617384565b906101000a90046001600160a01b031683616664565b50505b5060009050600561010081612400617384565b8160ff021916908315150217906124156173d0565b505050505050565b60005a61242861732f565b6001600160a01b03166000356001600160e01b0319166001600160e01b031916600036604051602080825281018290528060408101848480828437600083820152601f01601f19169091019450604093505050505180910390a26001600561248e617384565b906101000a900460ff16156124e05760405162461bcd60e51b815260206004820152600b60248201526a4552525f5245454e54525960a81b6044820152606401604051809103906124dd6172c4565b50505b60016005610100816124f0617384565b8160ff021916908315150217906125056173d0565b5050506008600090612515617384565b906101000a900460ff1661256c5760405162461bcd60e51b815260206004820152601160248201527011549497d393d517d19253905312569151607a1b6044820152606401604051809103906125696172c4565b50505b6001600160a01b0384166000908152600a6020526040902060009061258f617384565b906101000a900460ff166125e25760405162461bcd60e51b815260206004820152600d60248201526c11549497d393d517d093d55391609a1b6044820152606401604051809103906125df6172c4565b50505b6001600160a01b0384166000908152600a60205260408120905061263b8160030161260b617384565b82600201612617617384565b6002612621617384565b600b61262b617384565b886007612636617384565b61473a565b91508282101561268a5760405162461bcd60e51b815260206004820152600d60248201526c11549497d31253525517d3d555609a1b6044820152606401604051809103906126876172c4565b50505b6001600160a01b0385166000908152600a6020526126b1906040902060030161111e617384565b8211156127015760405162461bcd60e51b81526020600482015260116024820152704552525f4d41585f4f55545f524154494f60781b6044820152606401604051809103906126fe6172c4565b50505b61271081600301611a39617384565b806003830161271d6173d0565b505050600061272d856000616500565b9050856001600160a01b03165a61274261732f565b6001600160a01b03167fe74c91552b64c2e2e7bd255639e004e693bd3e1d01cc33e65610b86afcc1ffed8560405190815260200160405180910390a36127905a61278a61732f565b86616640565b61279d61131186836165d9565b6127ac60026005611325617384565b61134e865a6127b961732f565b85616664565b5a6127c861732f565b6001600160a01b03166000356001600160e01b0319166001600160e01b031916600036604051602080825281018290528060408101848480828437600083820152601f01601f19169091019450604093505050505180910390a26001600561282e617384565b906101000a900460ff16156128805760405162461bcd60e51b815260206004820152600b60248201526a4552525f5245454e54525960a81b60448201526064016040518091039061287d6172c4565b50505b6001600561010081612890617384565b8160ff021916908315150217906128a56173d0565b50505060086000906128b5617384565b906101000a900460ff161561290c5760405162461bcd60e51b815260206004820152601060248201526f11549497d254d7d1925390531256915160821b6044820152606401604051809103906129096172c4565b50505b60006006612918617384565b906101000a90046001600160a01b03166001600160a01b03165a61293a61732f565b6001600160a01b0316146129925760405162461bcd60e51b815260206004820152601260248201527122a9292fa727aa2fa1a7a72a2927a62622a960711b60448201526064016040518091039061298f6172c4565b50505b806006600160a01b816129a3617384565b8160ff02191690831515021790611e706173d0565b5a6129c161732f565b6001600160a01b03166000356001600160e01b0319166001600160e01b031916600036604051602080825281018290528060408101848480828437600083820152601f01601f19169091019450604093505050505180910390a260016005612a27617384565b906101000a900460ff1615612a795760405162461bcd60e51b815260206004820152600b60248201526a4552525f5245454e54525960a81b604482015260640160405180910390612a766172c4565b50505b6001600561010081612a89617384565b8160ff02191690831515021790612a9e6173d0565b5050506006600090612aae617384565b906101000a90046001600160a01b03166001600160a01b03165a612ad061732f565b6001600160a01b031614612b285760405162461bcd60e51b815260206004820152601260248201527122a9292fa727aa2fa1a7a72a2927a62622a960711b604482015260640160405180910390612b256172c4565b50505b60006008612b34617384565b906101000a900460ff1615612b8b5760405162461bcd60e51b815260206004820152601060248201526f11549497d254d7d1925390531256915160821b604482015260640160405180910390612b886172c4565b50505b6002600980612b98617384565b90501015612be65760405162461bcd60e51b815260206004820152600e60248201526d4552525f4d494e5f544f4b454e5360901b604482015260640160405180910390612be36172c4565b50505b600160088181612bf4617384565b8160ff02191690831515021790612c096173d0565b5050506001600660146101000a81612c1f617384565b8160ff02191690831515021790612c346173d0565b505050612c4b670de0b6b3a76400006064026169d2565b612c665a612c5761732f565b68056bc75e2d6310000061665a565b6000600561010081612c76617384565b8160ff02191690831515021790612c8b6173d0565b505050565b5a612c9961732f565b6001600160a01b03166000356001600160e01b0319166001600160e01b031916600036604051602080825281018290528060408101848480828437600083820152601f01601f19169091019450604093505050505180910390a260016005612cff617384565b906101000a900460ff1615612d515760405162461bcd60e51b815260206004820152600b60248201526a4552525f5245454e54525960a81b604482015260640160405180910390612d4e6172c4565b50505b6001600561010081612d61617384565b8160ff02191690831515021790612d766173d0565b5050506008600090612d86617384565b906101000a900460ff16612ddd5760405162461bcd60e51b815260206004820152601160248201527011549497d393d517d19253905312569151607a1b604482015260640160405180910390612dda6172c4565b50505b6000612de761186d565b90506000612df585836169db565b905080612e435760405162461bcd60e51b815260206004820152600f60248201526e08aa4a4be9a82a890be82a0a0a49eb608b1b604482015260640160405180910390612e406172c4565b50505b60005b600980612e51617384565b905081101561302f57600060098281612e68617384565b8110612e7057fe5b90600052602060002001600090612e85617384565b6001600160a01b036101009290920a9004166000818152600a60205290915060408120600301612eb3617384565b90506000612ec18583616500565b905080612f0f5760405162461bcd60e51b815260206004820152600f60248201526e08aa4a4be9a82a890be82a0a0a49eb608b1b604482015260640160405180910390612f0c6172c4565b50505b878785818110612f1b57fe5b90506020020135811115612f6d5760405162461bcd60e51b815260206004820152600c60248201526b22a9292fa624a6a4aa2fa4a760a11b604482015260640160405180910390612f6a6172c4565b50505b6001600160a01b0383166000908152600a602052612f9a9060409020600301612f94617384565b826168be565b6001600160a01b0384166000908152600a602052604090206003018190612fbf6173d0565b505050826001600160a01b03165a612fd561732f565b6001600160a01b03167f63982df10efd8dfaaaa0fcc7f50b2d93b7cba26ccc48adee2873220d485dc39a8360405190815260200160405180910390a3613024835a61301e61732f565b83616919565b505050600101612e46565b50613039856169d2565b6123ed5a61304561732f565b8661665a565b60008061305887866169db565b9050600061306687866168be565b9050600061307482896169db565b9050600061308a670de0b6b3a7640000856169db565b905060006130988383616afb565b905060006130a6828e616500565b905060006130b4828f6165d9565b905060006130d36130cd670de0b6b3a76400008a6165d9565b8b616500565b90506130f0826130eb670de0b6b3a7640000846165d9565b6169db565b9f9e505050505050505050505050505050565b60005a61310e61732f565b6001600160a01b03166000356001600160e01b0319166001600160e01b031916600036604051602080825281018290528060408101848480828437600083820152601f01601f19169091019450604093505050505180910390a260016005613174617384565b906101000a900460ff16156131c65760405162461bcd60e51b815260206004820152600b60248201526a4552525f5245454e54525960a81b6044820152606401604051809103906131c36172c4565b50505b60016005610100816131d6617384565b8160ff021916908315150217906131eb6173d0565b50505060086000906131fb617384565b906101000a900460ff166132525760405162461bcd60e51b815260206004820152601160248201527011549497d393d517d19253905312569151607a1b60448201526064016040518091039061324f6172c4565b50505b6001600160a01b0384166000908152600a60205260409020600090613275617384565b906101000a900460ff166132c85760405162461bcd60e51b815260206004820152600d60248201526c11549497d393d517d093d55391609a1b6044820152606401604051809103906132c56172c4565b50505b6001600160a01b0384166000908152600a6020526132fd90604090206003016132ef617384565b6706f05b59d3b20000616500565b83111561334c5760405162461bcd60e51b815260206004820152601060248201526f4552525f4d41585f494e5f524154494f60801b6044820152606401604051809103906133496172c4565b50505b6001600160a01b0384166000908152600a6020526040812090506133a581600301613375617384565b82600201613381617384565b600261338b617384565b600b613395617384565b8860076133a0617384565b614685565b9150828210156133f45760405162461bcd60e51b815260206004820152600d60248201526c11549497d31253525517d3d555609a1b6044820152606401604051809103906133f16172c4565b50505b61340981600301613403617384565b856168be565b80600383016134166173d0565b505050846001600160a01b03165a61342c61732f565b6001600160a01b03167f63982df10efd8dfaaaa0fcc7f50b2d93b7cba26ccc48adee2873220d485dc39a8660405190815260200160405180910390a3613471826169d2565b6134835a61347d61732f565b8361665a565b613496855a61349061732f565b86616919565b506000600561010081611360617384565b600080600160005a6134b761732f565b6001600160a01b03166001600160a01b031681526020019081526020016000206001600160a01b0385166000908152602091909152604090206134f8617384565b90508083111561355c576000600160005a61351161732f565b6001600160a01b03166001600160a01b031681526020019081526020016000206001600160a01b03861660009081526020919091526040902081906135546173d0565b5050506135ba565b61356681846165d9565b600160005a61357361732f565b6001600160a01b03166001600160a01b031681526020019081526020016000206001600160a01b03861660009081526020919091526040902081906135b66173d0565b5050505b836001600160a01b03165a6135cd61732f565b6001600160a01b031660008051602061761c833981519152600160005a6135f261732f565b6001600160a01b03166001600160a01b031681526020019081526020016000206001600160a01b038816600090815260209190915260409020611b01617384565b60005a61363e61732f565b6001600160a01b03166000356001600160e01b0319166001600160e01b031916600036604051602080825281018290528060408101848480828437600083820152601f01601f19169091019450604093505050505180910390a2600160056136a4617384565b906101000a900460ff16156136f65760405162461bcd60e51b815260206004820152600b60248201526a4552525f5245454e54525960a81b6044820152606401604051809103906136f36172c4565b50505b6001600561010081613706617384565b8160ff0219169083151502179061371b6173d0565b505050600860009061372b617384565b906101000a900460ff166137825760405162461bcd60e51b815260206004820152601160248201527011549497d393d517d19253905312569151607a1b60448201526064016040518091039061377f6172c4565b50505b6001600160a01b0384166000908152600a602052604090206000906137a5617384565b906101000a900460ff166137f85760405162461bcd60e51b815260206004820152600d60248201526c11549497d393d517d093d55391609a1b6044820152606401604051809103906137f56172c4565b50505b6001600160a01b0384166000908152600a60205260408120905061385181600301613821617384565b8260020161382d617384565b6002613837617384565b600b613841617384565b88600761384c617384565b61304b565b91508161389f5760405162461bcd60e51b815260206004820152600f60248201526e08aa4a4be9a82a890be82a0a0a49eb608b1b60448201526064016040518091039061389c6172c4565b50505b828211156138eb5760405162461bcd60e51b815260206004820152600c60248201526b22a9292fa624a6a4aa2fa4a760a11b6044820152606401604051809103906138e86172c4565b50505b6001600160a01b0385166000908152600a60205261391290604090206003016132ef617384565b8211156139615760405162461bcd60e51b815260206004820152601060248201526f4552525f4d41585f494e5f524154494f60801b60448201526064016040518091039061395e6172c4565b50505b61397681600301613970617384565b836168be565b80600383016139836173d0565b505050846001600160a01b03165a61399961732f565b6001600160a01b03167f63982df10efd8dfaaaa0fcc7f50b2d93b7cba26ccc48adee2873220d485dc39a8460405190815260200160405180910390a36139de846169d2565b6139f05a6139ea61732f565b8561665a565b613496855a6139fd61732f565b84616919565b6001600160a01b03811660009081526020819052604081206114d3617384565b620f4240670de0b6b3a764000061188e565b6000805a613a4161732f565b6001600160a01b03166000356001600160e01b0319166001600160e01b031916600036604051602080825281018290528060408101848480828437600083820152601f01601f19169091019450604093505050505180910390a260016005613aa7617384565b906101000a900460ff1615613af95760405162461bcd60e51b815260206004820152600b60248201526a4552525f5245454e54525960a81b604482015260640160405180910390613af66172c4565b50505b6001600561010081613b09617384565b8160ff02191690831515021790613b1e6173d0565b5050506001600160a01b0387166000908152600a60205260409020600090613b44617384565b906101000a900460ff16613b975760405162461bcd60e51b815260206004820152600d60248201526c11549497d393d517d093d55391609a1b604482015260640160405180910390613b946172c4565b50505b6001600160a01b0385166000908152600a60205260409020600090613bba617384565b906101000a900460ff16613c0d5760405162461bcd60e51b815260206004820152600d60248201526c11549497d393d517d093d55391609a1b604482015260640160405180910390613c0a6172c4565b50505b60146006613c19617384565b906101000a900460ff16613c725760405162461bcd60e51b81526020600482015260136024820152724552525f535741505f4e4f545f5055424c494360681b604482015260640160405180910390613c6f6172c4565b50505b6001600160a01b0387166000908152600a602052604081206001600160a01b0387166000908152600a602052909150604081209050613cb68160030161111e617384565b861115613d065760405162461bcd60e51b81526020600482015260116024820152704552525f4d41585f4f55545f524154494f60781b604482015260640160405180910390613d036172c4565b50505b6000613d3b83600301613d17617384565b84600201613d23617384565b84600301613d2f617384565b8560020161185e617384565b905085811115613d905760405162461bcd60e51b81526020600482015260136024820152724552525f4241445f4c494d49545f505249434560681b604482015260640160405180910390613d8d6172c4565b50505b613dd383600301613d9f617384565b84600201613dab617384565b84600301613db7617384565b85600201613dc3617384565b8b6007613dce617384565b61646f565b945088851115613e215760405162461bcd60e51b815260206004820152600c60248201526b22a9292fa624a6a4aa2fa4a760a11b604482015260640160405180910390613e1e6172c4565b50505b613e3683600301613e30617384565b866168be565b8060038501613e436173d0565b505050613e5b82600301613e55617384565b886165d9565b8060038401613e686173d0565b505050613e7a83600301613d17617384565b935080841015613ecb5760405162461bcd60e51b815260206004820152600f60248201526e08aa4a4be9a82a890be82a0a0a49eb608b1b604482015260640160405180910390613ec86172c4565b50505b85841115613f1a5760405162461bcd60e51b815260206004820152600f60248201526e4552525f4c494d49545f505249434560881b604482015260640160405180910390613f176172c4565b50505b613f2485886169db565b811115613f725760405162461bcd60e51b815260206004820152600f60248201526e08aa4a4be9a82a890be82a0a0a49eb608b1b604482015260640160405180910390613f6f6172c4565b50505b876001600160a01b03168a6001600160a01b03165a613f8f61732f565b6001600160a01b03167f908fb5ee8f16c6bc9bc3690973819f32a4d4b10188134543c88706e0e1d43378888b60405191825260208201526040908101905180910390a4613fe58a5a613fdf61732f565b87616919565b613ff8885a613ff261732f565b89616664565b505050600060056101008161400b617384565b8160ff021916908315150217906140206173d0565b5050509550959350505050565b6000805a61403961732f565b6001600160a01b03166000356001600160e01b0319166001600160e01b031916600036604051602080825281018290528060408101848480828437600083820152601f01601f19169091019450604093505050505180910390a26001600561409f617384565b906101000a900460ff16156140f15760405162461bcd60e51b815260206004820152600b60248201526a4552525f5245454e54525960a81b6044820152606401604051809103906140ee6172c4565b50505b6001600561010081614101617384565b8160ff021916908315150217906141166173d0565b5050506001600160a01b0387166000908152600a6020526040902060009061413c617384565b906101000a900460ff1661418f5760405162461bcd60e51b815260206004820152600d60248201526c11549497d393d517d093d55391609a1b60448201526064016040518091039061418c6172c4565b50505b6001600160a01b0385166000908152600a602052604090206000906141b2617384565b906101000a900460ff166142055760405162461bcd60e51b815260206004820152600d60248201526c11549497d393d517d093d55391609a1b6044820152606401604051809103906142026172c4565b50505b60146006614211617384565b906101000a900460ff1661426a5760405162461bcd60e51b81526020600482015260136024820152724552525f535741505f4e4f545f5055424c494360681b6044820152606401604051809103906142676172c4565b50505b6001600160a01b0387166000908152600a602052604081206001600160a01b0387166000908152600a6020529091506040812090506142ae826003016132ef617384565b8811156142fd5760405162461bcd60e51b815260206004820152601060248201526f4552525f4d41585f494e5f524154494f60801b6044820152606401604051809103906142fa6172c4565b50505b600061430e83600301613d17617384565b9050858111156143635760405162461bcd60e51b81526020600482015260136024820152724552525f4241445f4c494d49545f505249434560681b6044820152606401604051809103906143606172c4565b50505b6143a683600301614372617384565b8460020161437e617384565b8460030161438a617384565b85600201614396617384565b8d60076143a1617384565b6152fc565b9450868510156143f55760405162461bcd60e51b815260206004820152600d60248201526c11549497d31253525517d3d555609a1b6044820152606401604051809103906143f26172c4565b50505b61440a83600301614404617384565b8a6168be565b80600385016144176173d0565b50505061442f82600301614429617384565b866165d9565b806003840161443c6173d0565b50505061444e83600301613d17617384565b93508084101561449f5760405162461bcd60e51b815260206004820152600f60248201526e08aa4a4be9a82a890be82a0a0a49eb608b1b60448201526064016040518091039061449c6172c4565b50505b858411156144ee5760405162461bcd60e51b815260206004820152600f60248201526e4552525f4c494d49545f505249434560881b6044820152606401604051809103906144eb6172c4565b50505b6144f889866169db565b8111156145465760405162461bcd60e51b815260206004820152600f60248201526e08aa4a4be9a82a890be82a0a0a49eb608b1b6044820152606401604051809103906145436172c4565b50505b876001600160a01b03168a6001600160a01b03165a61456361732f565b6001600160a01b03167f908fb5ee8f16c6bc9bc3690973819f32a4d4b10188134543c88706e0e1d433788c8960405191825260208201526040908101905180910390a46145b98a5a6145b361732f565b8b616919565b613ff8885a61134861732f565b6000806145d387866169db565b905060006145e9670de0b6b3a7640000836165d9565b905060006145f78286616500565b90506000614611876130eb670de0b6b3a7640000856165d9565b9050600061461f8c836165d9565b9050600061462d828e6169db565b9050600061463b8288616afb565b90506000614649828e616500565b905060006146578e836165d9565b9050614670816130eb670de0b6b3a764000060006165d9565b99505050505050505050509695505050505050565b60008061469287866169db565b905060006146b16146ab670de0b6b3a7640000846165d9565b85616500565b905060006146d0866146cb670de0b6b3a7640000856165d9565b616500565b905060006146de8b836168be565b905060006146ec828d6169db565b905060006146fa8287616afb565b90506000614708828d616500565b9050614714818d6165d9565b9e9d5050505050505050505050505050565b64e8d4a51000670de0b6b3a764000061188e565b60008061474787866169db565b90506000614762856146cb670de0b6b3a764000060006165d9565b9050600061477088836165d9565b9050600061477e828a6169db565b9050600061479d82614798670de0b6b3a7640000886169db565b616afb565b905060006147ab828e616500565b905060006147b98e836165d9565b905060006147d26130cd670de0b6b3a76400008a6165d9565b90506130f0826146cb670de0b6b3a7640000846165d9565b5a6147f361732f565b6001600160a01b03166000356001600160e01b0319166001600160e01b031916600036604051602080825281018290528060408101848480828437600083820152601f01601f19169091019450604093505050505180910390a260016005614859617384565b906101000a900460ff16156148ab5760405162461bcd60e51b815260206004820152600b60248201526a4552525f5245454e54525960a81b6044820152606401604051809103906148a86172c4565b50505b60016005610100816148bb617384565b8160ff021916908315150217906148d06173d0565b5050506001600160a01b0381166000908152600a602052604090206000906148f6617384565b906101000a900460ff166149495760405162461bcd60e51b815260206004820152600d60248201526c11549497d393d517d093d55391609a1b6044820152606401604051809103906149466172c4565b50505b806001600160a01b03166370a082315a63996d79a5598160e01b8152602081600483336000905af158600e01573d6000803e3d6000fd5b3d6001141558600a015760016000f35b8051925060005b60408110156149ae57600082820152602001614997565b5050506040516001600160e01b031960e084901b1681526001600160a01b03909116600482015260240160206040518083038186806149eb61741e565b158015614a00576000806149fd6172c4565b50505b505a614a0a61746a565b5050505050158015614a29573d6000803e3d6000614a266172c4565b50505b505050506040513d6020811015614a4857600080614a456172c4565b50505b8101908080516001600160a01b0385166000908152600a602052909350604092509050206003018190611e706173d0565b6000806008611bdf617384565b5a614a8f61732f565b6001600160a01b03166000356001600160e01b0319166001600160e01b031916600036604051602080825281018290528060408101848480828437600083820152601f01601f19169091019450604093505050505180910390a260016005614af5617384565b906101000a900460ff1615614b475760405162461bcd60e51b815260206004820152600b60248201526a4552525f5245454e54525960a81b604482015260640160405180910390614b446172c4565b50505b6001600561010081614b57617384565b8160ff02191690831515021790614b6c6173d0565b5050506006600090614b7c617384565b906101000a90046001600160a01b03166001600160a01b03165a614b9e61732f565b6001600160a01b031614614bf65760405162461bcd60e51b815260206004820152601260248201527122a9292fa727aa2fa1a7a72a2927a62622a960711b604482015260640160405180910390614bf36172c4565b50505b806006600181614c04617384565b816001600160a01b0302191690836001600160a01b0316021790611e706173d0565b600060016005614c34617384565b906101000a900460ff1615614c865760405162461bcd60e51b815260206004820152600b60248201526a4552525f5245454e54525960a81b604482015260640160405180910390614c836172c4565b50505b600b611879617384565b68056bc75e2d6310000081565b600060016005614cab617384565b906101000a900460ff1615614cfd5760405162461bcd60e51b815260206004820152600b60248201526a4552525f5245454e54525960a81b604482015260640160405180910390614cfa6172c4565b50505b6001600160a01b0382166000908152600a60205260409020600090614d20617384565b906101000a900460ff16614d735760405162461bcd60e51b815260206004820152600d60248201526c11549497d393d517d093d55391609a1b604482015260640160405180910390614d706172c4565b50505b6001600160a01b0382166000908152600a602052604090206002016114d3617384565b6060600480614da3617384565b600181600116156101000203166002900480601f016020809104026020016040519081016040528181529190602083018280614ddd617384565b600181600116156101000203166002900480156114325780601f10614e095761010080836113f2617384565b820191906000526020600020905b81614e20617384565b81529060010190602001808311614e1757509395945050505050565b6704a03ce68d21555681565b6542524f4e5a4560d01b90565b600080614e6287876169db565b90506000614e7086866169db565b90506000614e7e83836169db565b90506000614ea0670de0b6b3a76400006130eb670de0b6b3a7640000896165d9565b9050614eac8282616500565b9a9950505050505050505050565b6000614ecf5a614ec861732f565b848461676c565b50600192915050565b5a614ee161732f565b6001600160a01b03166000356001600160e01b0319166001600160e01b031916600036604051602080825281018290528060408101848480828437600083820152601f01601f19169091019450604093505050505180910390a260016005614f47617384565b906101000a900460ff1615614f995760405162461bcd60e51b815260206004820152600b60248201526a4552525f5245454e54525960a81b604482015260640160405180910390614f966172c4565b50505b6001600561010081614fa9617384565b8160ff02191690831515021790614fbe6173d0565b5050506008600090614fce617384565b906101000a900460ff166150255760405162461bcd60e51b815260206004820152601160248201527011549497d393d517d19253905312569151607a1b6044820152606401604051809103906150226172c4565b50505b600061502f61186d565b9050600061503e856000616500565b9050600061504c86836165d9565b9050600061505a82856169db565b9050806150a85760405162461bcd60e51b815260206004820152600f60248201526e08aa4a4be9a82a890be82a0a0a49eb608b1b6044820152606401604051809103906150a56172c4565b50505b6150ba5a6150b461732f565b88616640565b6150df600260056150c9617384565b906101000a90046001600160a01b03168461665a565b6150e88261664e565b60005b6009806150f6617384565b90508110156152d55760006009828161510d617384565b811061511557fe5b9060005260206000200160009061512a617384565b6001600160a01b036101009290920a9004166000818152600a60205290915060408120600301615158617384565b905060006151668583616500565b9050806151b45760405162461bcd60e51b815260206004820152600f60248201526e08aa4a4be9a82a890be82a0a0a49eb608b1b6044820152606401604051809103906151b16172c4565b50505b8989858181106151c057fe5b905060200201358110156152135760405162461bcd60e51b815260206004820152600d60248201526c11549497d31253525517d3d555609a1b6044820152606401604051809103906152106172c4565b50505b6001600160a01b0383166000908152600a602052615240906040902060030161523a617384565b826165d9565b6001600160a01b0384166000908152600a6020526040902060030181906152656173d0565b505050826001600160a01b03165a61527b61732f565b6001600160a01b03167fe74c91552b64c2e2e7bd255639e004e693bd3e1d01cc33e65610b86afcc1ffed8360405190815260200160405180910390a36152ca835a6152c461732f565b83616664565b5050506001016150eb565b50505050506000600560016101000a81612400617384565b600881565b600281565b600181565b60008061530987866169db565b9050600061531f670de0b6b3a7640000856165d9565b905061532b8582616500565b9050600061533d8a6130eb8c856168be565b9050600061534b8285616afb565b90506000615361670de0b6b3a7640000836165d9565b905061536d8a82616500565b9c9b505050505050505050505050565b600a670de0b6b3a764000061188e565b671bc16d674ec7ffff81565b6060600160056153a7617384565b906101000a900460ff16156153f95760405162461bcd60e51b815260206004820152600b60248201526a4552525f5245454e54525960a81b6044820152606401604051809103906153f66172c4565b50505b60006008615405617384565b906101000a900460ff1661545c5760405162461bcd60e51b815260206004820152601160248201527011549497d393d517d19253905312569151607a1b6044820152606401604051809103906154596172c4565b50505b600980615467617384565b80602002602001604051908101604052818152919060208301828061548a617384565b801561143257602002820191906000526020600020905b6000826154ac617384565b906101000a90046001600160a01b03166001600160a01b0316815260200190600101908083116154a1575050505050905090565b600081565b6060600160056154f3617384565b906101000a900460ff16156155455760405162461bcd60e51b815260206004820152600b60248201526a4552525f5245454e54525960a81b6044820152606401604051809103906155426172c4565b50505b600980615550617384565b806020026020016040519081016040528181529190602083018280615573617384565b801561143257602002820191906000526020600020905b600082615595617384565b906101000a90046001600160a01b03166001600160a01b03168152602001906001019080831161558a575050505050905090565b60006009806155d6617384565b91505090565b5a6155e561732f565b6001600160a01b03166000356001600160e01b0319166001600160e01b031916600036604051602080825281018290528060408101848480828437600083820152601f01601f19169091019450604093505050505180910390a26001600561564b617384565b906101000a900460ff161561569d5760405162461bcd60e51b815260206004820152600b60248201526a4552525f5245454e54525960a81b60448201526064016040518091039061569a6172c4565b50505b60016005610100816156ad617384565b8160ff021916908315150217906156c26173d0565b50505060066000906156d2617384565b906101000a90046001600160a01b03166001600160a01b03165a6156f461732f565b6001600160a01b03161461574c5760405162461bcd60e51b815260206004820152601260248201527122a9292fa727aa2fa1a7a72a2927a62622a960711b6044820152606401604051809103906157496172c4565b50505b6001600160a01b0381166000908152600a6020526040902060009061576f617384565b906101000a900460ff166157c25760405162461bcd60e51b815260206004820152600d60248201526c11549497d393d517d093d55391609a1b6044820152606401604051809103906157bf6172c4565b50505b600060086157ce617384565b906101000a900460ff16156158255760405162461bcd60e51b815260206004820152601060248201526f11549497d254d7d1925390531256915160821b6044820152606401604051809103906158226172c4565b50505b6001600160a01b0381166000908152600a60205260408120600301615848617384565b90506000615857826000616500565b9050615889600b615866617384565b6001600160a01b0385166000908152600a602052604090206002016122cc617384565b80600b6158946173d0565b5050506001600160a01b0383166000908152600a602052604081206001016158ba617384565b9050600060016009806158cb617384565b9050039050600981816158dc617384565b81106158e457fe5b906000526020600020016000906158f9617384565b906101000a90046001600160a01b031660098381615915617384565b811061591d57fe5b90600052602060002001600181615932617384565b816001600160a01b0302191690836001600160a01b03160217906159546173d0565b50505081600a600060098581615968617384565b811061597057fe5b90600052602060002001600090615985617384565b906101000a90046001600160a01b03166001600160a01b03166001600160a01b0316815260200190815260200160002060010181906159c26173d0565b5050506009806159d0617384565b806159d757fe5b600190038181906000526020600020016001816159f2617384565b906001600160a01b0302191690615a076173d0565b505090615a126173d0565b505060405160808101604090815260008083526020808401829052828401829052606084018290526001600160a01b0389168252600a905220815181600181615a59617384565b8160ff02191690831515021790615a6e6173d0565b505050602082015181600101615a826173d0565b5050604082015181600201615a956173d0565b5050606082015181600301615aa86173d0565b5050905050615ac4855a615aba61732f565b6123bf87876165d9565b615aea8560026005615ad4617384565b906101000a90046001600160a01b031685616664565b505050506000600560016101000a81611e86617384565b600060016005615b0f617384565b906101000a900460ff1615615b615760405162461bcd60e51b815260206004820152600b60248201526a4552525f5245454e54525960a81b604482015260640160405180910390615b5e6172c4565b50505b6007611879617384565b6000615bbe600160005a615b7d61732f565b6001600160a01b03166001600160a01b031681526020019081526020016000206001600160a01b038516600090815260209190915260409020613970617384565b600160005a615bcb61732f565b6001600160a01b03166001600160a01b031681526020019081526020016000206001600160a01b0385166000908152602091909152604090208190615c0e6173d0565b505050826001600160a01b03165a615c2461732f565b6001600160a01b031660008051602061761c833981519152600160005a615c4961732f565b6001600160a01b03166001600160a01b031681526020019081526020016000206001600160a01b038716600090815260209190915260409020615c8a617384565b60405190815260200160405180910390a350600192915050565b6001600160a01b03821660009081526001602052604081206001600160a01b038316600090815260209190915260409020615cdd617384565b9392505050565b5a615ced61732f565b6001600160a01b03166000356001600160e01b0319166001600160e01b031916600036604051602080825281018290528060408101848480828437600083820152601f01601f19169091019450604093505050505180910390a260006006615d53617384565b906101000a90046001600160a01b03166001600160a01b03165a615d7561732f565b6001600160a01b031614615dcd5760405162461bcd60e51b815260206004820152601260248201527122a9292fa727aa2fa1a7a72a2927a62622a960711b604482015260640160405180910390615dca6172c4565b50505b6001600160a01b0383166000908152600a60205260409020600090615df0617384565b906101000a900460ff1615615e435760405162461bcd60e51b815260206004820152600c60248201526b11549497d254d7d093d5539160a21b604482015260640160405180910390615e406172c4565b50505b60006008615e4f617384565b906101000a900460ff1615615ea65760405162461bcd60e51b815260206004820152601060248201526f11549497d254d7d1925390531256915160821b604482015260640160405180910390615ea36172c4565b50505b6008600980615eb3617384565b905010615f005760405162461bcd60e51b815260206004820152600e60248201526d4552525f4d41585f544f4b454e5360901b604482015260640160405180910390615efd6172c4565b50505b604051608081016040526001815260208101600980615f1d617384565b8252506000602080830182905260409283018290526001600160a01b0387168252600a905220815181600181615f51617384565b8160ff02191690831515021790615f666173d0565b505050602082015181600101615f7a6173d0565b5050604082015181600201615f8d6173d0565b5050606082015181600301615fa06173d0565b50509050506009839080600181615fb5617384565b018082615fc06173d0565b505060009283526000190191602091502001600181615fdd617384565b816001600160a01b0302191690836001600160a01b0316021790615fff6173d0565b505050612c8b838383611ea1565b60606000600861601b617384565b906101000a900460ff166160725760405162461bcd60e51b815260206004820152601160248201527011549497d393d517d19253905312569151607a1b60448201526064016040518091039061606f6172c4565b50505b600061607c61186d565b9050600061608b866000616500565b9050600061609987836165d9565b905060006160a782856169db565b905060006009806160b6617384565b905060020267ffffffffffffffff811180156160da576000806160d76172c4565b50505b50604051908082528060200260200182016040528015616104578160200160208202803683370190505b50905060005b600980616115617384565b90508110156162505760006009828161612c617384565b811061613457fe5b90600052602060002001600090616149617384565b6001600160a01b036101009290920a9004166000818152600a60205290915060408120600301616177617384565b90506161838582616500565b84848151811061618f57fe5b6020026020010181815250508a8a848181106161a757fe5b9050602002013584846009806161bb617384565b905001815181106161c857fe5b6020026020010181815250508a8a848181106161e057fe5b905060200201358484815181106161f357fe5b602002602001015110156162465760405162461bcd60e51b815260206004820152600d60248201526c11549497d31253525517d3d555609a1b6044820152606401604051809103906162436172c4565b50505b505060010161610a565b5098975050505050505050565b6002670de0b6b3a764000061188e565b60006001600561627b617384565b906101000a900460ff16156162cd5760405162461bcd60e51b815260206004820152600b60248201526a4552525f5245454e54525960a81b6044820152606401604051809103906162ca6172c4565b50505b6001600160a01b0382166000908152600a602052604090206000906162f0617384565b906101000a900460ff166163435760405162461bcd60e51b815260206004820152600d60248201526c11549497d393d517d093d55391609a1b6044820152606401604051809103906163406172c4565b50505b6001600160a01b0382166000908152600a60205260408120600201616366617384565b9050615cdd81600b6130eb617384565b600060016005616384617384565b906101000a900460ff16156163d65760405162461bcd60e51b815260206004820152600b60248201526a4552525f5245454e54525960a81b6044820152606401604051809103906163d36172c4565b50505b6001600160a01b0382166000908152600a602052604090206000906163f9617384565b906101000a900460ff1661644c5760405162461bcd60e51b815260206004820152600d60248201526c11549497d393d517d093d55391609a1b6044820152606401604051809103906164496172c4565b50505b6001600160a01b0382166000908152600a602052604090206003016114d3617384565b60008061647c85886169db565b9050600061648a87866165d9565b9050600061649888836169db565b905060006164a68285616afb565b90506164ba81670de0b6b3a76400006165d9565b90506164ce670de0b6b3a7640000876165d9565b94506164e36164dd8c83616500565b866169db565b9b9a5050505050505050505050565b600060146006611bdf617384565b600082820283158061651a57508284828161651757fe5b04145b6165665760405162461bcd60e51b815260206004820152601060248201526f4552525f4d554c5f4f564552464c4f5760801b6044820152606401604051809103906165636172c4565b50505b6706f05b59d3b200008101818110156165c15760405162461bcd60e51b815260206004820152601060248201526f4552525f4d554c5f4f564552464c4f5760801b6044820152606401604051809103906165be6172c4565b50505b6000670de0b6b3a7640000825b049695505050505050565b60008060006165e88585616c19565b9150915080156166385760405162461bcd60e51b81526020600482015260116024820152704552525f5355425f554e444552464c4f5760781b6044820152606401604051809103906113756172c4565b509392505050565b61664a8282616c3e565b5050565b61665781616ca1565b50565b61664a8282616f3e565b6000836001600160a01b031663a9059cbb84846040516001600160e01b031960e085901b1681526001600160a01b0390921660048301526024820152604401602060405180830381600087806166b861741e565b1580156166cd576000806166ca6172c4565b50505b505a6166d7617555565b5050505050501580156166f7573d6000803e3d60006166f46172c4565b50505b505050506040513d6020811015616716576000806167136172c4565b50505b8101908080519350839250611e9b9150505760405162461bcd60e51b815260206004820152600f60248201526e4552525f45524332305f46414c534560881b6044820152606401604051809103906124156172c4565b6001600160a01b0383166000908152602081905281906040902061678e617384565b10156167e05760405162461bcd60e51b815260206004820152601460248201527311549497d25394d551919250d251539517d0905360621b6044820152606401604051809103906167dd6172c4565b50505b6001600160a01b03831660009081526020819052616804906040902061523a617384565b6001600160a01b038416600090815260208190526040902081906168266173d0565b5050506001600160a01b0382166000908152602081905261684d9060409020612f94617384565b6001600160a01b0383166000908152602081905260409020819061686f6173d0565b505050816001600160a01b0316836001600160a01b03167fddf252ad1be2c89b69c2b068fc378daa952ba7f163c4a11628f55a4df523b3ef8360405190815260200160405180910390a3505050565b600082820183811015615cdd5760405162461bcd60e51b815260206004820152601060248201526f4552525f4144445f4f564552464c4f5760801b6044820152606401604051809103906169106172c4565b50509392505050565b6000836001600160a01b03166323b872dd845a63996d79a5598160e01b8152602081600483336000905af158600e01573d6000803e3d6000fd5b3d6001141558600a015760016000f35b8051925060005b60408110156169815760008282015260200161696a565b505050856040516001600160e01b031960e086901b1681526001600160a01b0393841660048201529190921660248201526044810191909152606401602060405180830381600087806166b861741e565b61665781616fa1565b600081616a265760405162461bcd60e51b815260206004820152600c60248201526b4552525f4449565f5a45524f60a01b604482015260640160405180910390616a236172c4565b50505b670de0b6b3a76400008302831580616a4e5750670de0b6b3a7640000848281616a4b57fe5b04145b616a9a5760405162461bcd60e51b815260206004820152601060248201526f11549497d1125597d25395115493905360821b604482015260640160405180910390616a976172c4565b50505b60028304810181811015616af05760405162461bcd60e51b815260206004820152601060248201526f11549497d1125597d25395115493905360821b604482015260640160405180910390616aed6172c4565b50505b60008482816165ce57fe5b60006001831015616b535760405162461bcd60e51b81526020600482015260156024820152744552525f42504f575f424153455f544f4f5f4c4f5760581b604482015260640160405180910390616b506172c4565b50505b671bc16d674ec7ffff831115616bb15760405162461bcd60e51b815260206004820152601660248201527508aa4a4be84a09eaebe8482a68abea89e9ebe90928e960531b604482015260640160405180910390616bae6172c4565b50505b6000616bbc83617166565b90506000616bca84836165d9565b90506000616be086616bdb85617181565b61718f565b905081616bf15792506114d3915050565b6000616c0287846305f5e1006171e6565b9050616c0e8282616500565b979650505050505050565b600080828410616c2f5750508082036000616c37565b505081810360015b9250929050565b61664a825a63996d79a5598160e01b8152602081600483336000905af158600e01573d6000803e3d6000fd5b3d6001141558600a015760016000f35b8051925060005b6040811015616c9857600082820152602001616c81565b5050508361676c565b806000805a63996d79a5598160e01b8152602081600483336000905af158600e01573d6000803e3d6000fd5b3d6001141558600a015760016000f35b8051925060005b6040811015616cfb57600082820152602001616ce4565b5050506001600160a01b03166001600160a01b03168152602001908152602001600020616d26617384565b1015616d785760405162461bcd60e51b815260206004820152601460248201527311549497d25394d551919250d251539517d0905360621b604482015260640160405180910390616d756172c4565b50505b616dff6000805a63996d79a5598160e01b8152602081600483336000905af158600e01573d6000803e3d6000fd5b3d6001141558600a015760016000f35b8051925060005b6040811015616dd457600082820152602001616dbd565b5050506001600160a01b03166001600160a01b0316815260200190815260200160002061523a617384565b6000805a63996d79a5598160e01b8152602081600483336000905af158600e01573d6000803e3d6000fd5b3d6001141558600a015760016000f35b8051925060005b6040811015616e5857600082820152602001616e41565b5050506001600160a01b03166001600160a01b031681526020019081526020016000208190616e856173d0565b505050616e95600261523a617384565b806002616ea06173d0565b5060009150505a63996d79a5598160e01b8152602081600483336000905af158600e01573d6000803e3d6000fd5b3d6001141558600a015760016000f35b8051925060005b6040811015616efc57600082820152602001616ee5565b5050506001600160a01b03167fddf252ad1be2c89b69c2b068fc378daa952ba7f163c4a11628f55a4df523b3ef8360405190815260200160405180910390a350565b61664a5a63996d79a5598160e01b8152602081600483336000905af158600e01573d6000803e3d6000fd5b3d6001141558600a015760016000f35b8051925060005b6040811015616f9757600082820152602001616f80565b505050838361676c565b6170286000805a63996d79a5598160e01b8152602081600483336000905af158600e01573d6000803e3d6000fd5b3d6001141558600a015760016000f35b8051925060005b6040811015616ffd57600082820152602001616fe6565b5050506001600160a01b03166001600160a01b03168152602001908152602001600020612f94617384565b6000805a63996d79a5598160e01b8152602081600483336000905af158600e01573d6000803e3d6000fd5b3d6001141558600a015760016000f35b8051925060005b60408110156170815760008282015260200161706a565b5050506001600160a01b03166001600160a01b0316815260200190815260200160002081906170ae6173d0565b5050506170be6002612f94617384565b8060026170c96173d0565b5050505a63996d79a5598160e01b8152602081600483336000905af158600e01573d6000803e3d6000fd5b3d6001141558600a015760016000f35b8051925060005b60408110156171225760008282015260200161710b565b5050506001600160a01b031660007fddf252ad1be2c89b69c2b068fc378daa952ba7f163c4a11628f55a4df523b3ef8360405190815260200160405180910390a350565b6000670de0b6b3a764000061717a83617181565b0292915050565b670de0b6b3a7640000900490565b600080600283066171a857670de0b6b3a76400006171aa565b835b90506002830492505b8215615cdd576171c38485616500565b935060028306156171db576171d88185616500565b90505b6002830492506171b3565b60008281806171fd87670de0b6b3a7640000616c19565b9092509050670de0b6b3a764000080600060015b8884106172b5576000670de0b6b3a7640000820290506000806172458a61724085670de0b6b3a76400006165d9565b616c19565b91509150617257876146cb848c616500565b965061726387846169db565b965086617272575050506172b5565b871561727c579315935b8015617286579315935b841561729d5761729686886165d9565b95506172aa565b6172a786886168be565b95505b505050600101617211565b50909998505050505050505050565b632a2a7adb598160e01b8152600481016020815285602082015260005b868110156172fc5780860151828201604001526020016172e1565b506020828760640184336000905af158600e01573d6000803e3d6000fd5b3d6001141558600a015760016000f35b505050565b6373509064598160e01b8152602081600483336000905af158600e01573d6000803e3d6000fd5b3d6001141558600a015760016000f35b8051935060005b6040811015612c8b5760008282015260200161736d565b6303daa959598160e01b8152836004820152602081602483336000905af158600e01573d6000803e3d6000fd5b3d6001141558600a015760016000f35b8051600082529350602061736d565b6322bd64c0598160e01b8152836004820152846024820152600081604483336000905af158600e01573d6000803e3d6000fd5b3d6001141558600a015760016000f35b60008152602061736d565b638435035b598160e01b8152836004820152602081602483336000905af158600e01573d6000803e3d6000fd5b3d6001141558600a015760016000f35b8051600082529350602061736d565b638540661f598160e01b815261749b565b80808311156114d3575090919050565b80808310156114d3575090919050565b836004820152846024820152606060448201528660648201526084810160005b888110156174d35780880151828201526020016174bb565b506060828960a40184336000905af158600e01573d6000803e3d6000fd5b3d6001141558600a015760016000f35b815160408301513d6000853e8b8b82606087013350600060045af150596175288d3d61748b565b8c01617534818761747b565b5b828110156175495760008152602001617535565b50929c50505050505050565b6385979f76598160e01b8152836004820152846024820152606060448201528760648201526084810160005b89811015617599578089015182820152602001617581565b506060828a60a40184336000905af158600e01573d6000803e3d6000fd5b3d6001141558600a015760016000f35b815160408301513d6000853e8c8c82606087013350600060045af150596175ee8e3d61748b565b8d016175fa818761747b565b5b8281101561760f57600081526020016175fb565b50929d5050505050505056fe8c5be1e5ebec7d5bd14f71427d1e84f3dd0314c0f7b2291e5b200ac8c7c3b925",
  "linkReferences": {},
  "deployedLinkReferences": {}
}