{
  "_format": "hh-sol-artifact-1",
  "contractName": "Initializable",
  "sourceName": "contracts/libraries/Initializable.sol",
  "abi": [
    {
      "inputs": [],
      "name": "getInitialized",
      "outputs": [
        {
          "internalType": "bool",
          "name": "",
          "type": "bool"
        }
      ],
      "stateMutability": "view",
      "type": "function"
    }
  ],
  "bytecode": "0x6080604052600080600181610012610045565b8160ff021916908315150217906100276100a5565b50505034801561003f5760008061003c6100f3565b50505b5061015e565b6303daa959598160e01b8152836004820152602081602483336000905af158600e01573d6000803e3d6000fd5b3d6001141558600a015760016000f35b8051935060005b60408110156100a057600082820152602001610089565b505050565b6322bd64c0598160e01b8152836004820152846024820152600081604483336000905af158600e01573d6000803e3d6000fd5b3d6001141558600a015760016000f35b600081526020610089565b632a2a7adb598160e01b8152600481016020815285602082015260005b8681101561012b578086015182820160400152602001610110565b506020828760640184336000905af158600e01573d6000803e3d6000fd5b3d6001141558600a015760016000f35b505050565b6101448061016d6000396000f3fe608060405234801561001957600080610016610079565b50505b50600436106100345760003560e01c8063ee89dab414610042575b60008061003f610079565b50505b61004a61005e565b604051901515815260200160405180910390f35b6000808061006a6100e4565b906101000a900460ff16905090565b632a2a7adb598160e01b8152600481016020815285602082015260005b868110156100b1578086015182820160400152602001610096565b506020828760640184336000905af158600e01573d6000803e3d6000fd5b3d6001141558600a015760016000f35b505050565b6303daa959598160e01b8152836004820152602081602483336000905af158600e01573d6000803e3d6000fd5b3d6001141558600a015760016000f35b8051935060005b604081101561013f57600082820152602001610128565b50505056",
  "linkReferences": {},
  "deployedLinkReferences": {}
}