{
  "address": "0xB56a81Ac039784543f2a61b9286A2004d64597B1",
  "abi": [
    {
      "inputs": [
        {
          "internalType": "address",
          "name": "_owner",
          "type": "address"
        },
        {
          "internalType": "contract IERC20Full",
          "name": "_collateral",
          "type": "address"
        },
        {
          "internalType": "uint256",
          "name": "_shareFactor",
          "type": "uint256"
        },
        {
          "internalType": "contract FeePot",
          "name": "_feePot",
          "type": "address"
        },
        {
          "internalType": "uint256[3]",
          "name": "_fees",
          "type": "uint256[3]"
        },
        {
          "internalType": "address",
          "name": "_protocol",
          "type": "address"
        },
        {
          "internalType": "address",
          "name": "_linkNode",
          "type": "address"
        }
      ],
      "stateMutability": "nonpayable",
      "type": "constructor"
    },
    {
      "anonymous": false,
      "inputs": [
        {
          "indexed": true,
          "internalType": "uint256",
          "name": "id",
          "type": "uint256"
        },
        {
          "indexed": false,
          "internalType": "string",
          "name": "name",
          "type": "string"
        }
      ],
      "name": "CoinAdded",
      "type": "event"
    },
    {
      "anonymous": false,
      "inputs": [
        {
          "indexed": false,
          "internalType": "address",
          "name": "newLinkNode",
          "type": "address"
        }
      ],
      "name": "LinkNodeChanged",
      "type": "event"
    },
    {
      "anonymous": false,
      "inputs": [
        {
          "indexed": false,
          "internalType": "uint256",
          "name": "id",
          "type": "uint256"
        }
      ],
      "name": "MarketActivated",
      "type": "event"
    },
    {
      "anonymous": false,
      "inputs": [
        {
          "indexed": false,
          "internalType": "uint256",
          "name": "id",
          "type": "uint256"
        },
        {
          "indexed": false,
          "internalType": "string[]",
          "name": "names",
          "type": "string[]"
        },
        {
          "indexed": false,
          "internalType": "uint256[]",
          "name": "initialOdds",
          "type": "uint256[]"
        }
      ],
      "name": "MarketCreated",
      "type": "event"
    },
    {
      "anonymous": false,
      "inputs": [
        {
          "indexed": false,
          "internalType": "uint256",
          "name": "id",
          "type": "uint256"
        },
        {
          "indexed": false,
          "internalType": "address",
          "name": "winner",
          "type": "address"
        },
        {
          "indexed": false,
          "internalType": "uint256",
          "name": "winnerIndex",
          "type": "uint256"
        },
        {
          "indexed": false,
          "internalType": "string",
          "name": "winnerName",
          "type": "string"
        }
      ],
      "name": "MarketResolved",
      "type": "event"
    },
    {
      "anonymous": false,
      "inputs": [
        {
          "indexed": false,
          "internalType": "uint256",
          "name": "id",
          "type": "uint256"
        },
        {
          "indexed": false,
          "internalType": "uint256",
          "name": "amount",
          "type": "uint256"
        },
        {
          "indexed": false,
          "internalType": "address",
          "name": "receiver",
          "type": "address"
        }
      ],
      "name": "SharesBurned",
      "type": "event"
    },
    {
      "anonymous": false,
      "inputs": [
        {
          "indexed": false,
          "internalType": "uint256",
          "name": "id",
          "type": "uint256"
        },
        {
          "indexed": false,
          "internalType": "uint256",
          "name": "amount",
          "type": "uint256"
        },
        {
          "indexed": false,
          "internalType": "address",
          "name": "receiver",
          "type": "address"
        }
      ],
      "name": "SharesMinted",
      "type": "event"
    },
    {
      "anonymous": false,
      "inputs": [
        {
          "indexed": true,
          "internalType": "uint256",
          "name": "coinIndex",
          "type": "uint256"
        },
        {
          "indexed": true,
          "internalType": "uint256",
          "name": "resolutionTime",
          "type": "uint256"
        },
        {
          "indexed": false,
          "internalType": "uint256",
          "name": "market",
          "type": "uint256"
        },
        {
          "indexed": false,
          "internalType": "uint256",
          "name": "value",
          "type": "uint256"
        }
      ],
      "name": "ValueUpdate",
      "type": "event"
    },
    {
      "anonymous": false,
      "inputs": [
        {
          "indexed": false,
          "internalType": "uint256",
          "name": "id",
          "type": "uint256"
        },
        {
          "indexed": false,
          "internalType": "address",
          "name": "winningOutcome",
          "type": "address"
        },
        {
          "indexed": false,
          "internalType": "uint256",
          "name": "winningIndex",
          "type": "uint256"
        },
        {
          "indexed": false,
          "internalType": "string",
          "name": "winningName",
          "type": "string"
        },
        {
          "indexed": false,
          "internalType": "uint256",
          "name": "amount",
          "type": "uint256"
        },
        {
          "indexed": false,
          "internalType": "uint256",
          "name": "settlementFee",
          "type": "uint256"
        },
        {
          "indexed": false,
          "internalType": "uint256",
          "name": "payout",
          "type": "uint256"
        },
        {
          "indexed": true,
          "internalType": "address",
          "name": "receiver",
          "type": "address"
        }
      ],
      "name": "WinningsClaimed",
      "type": "event"
    },
    {
      "inputs": [],
      "name": "accumulatedProtocolFee",
      "outputs": [
        {
          "internalType": "uint256",
          "name": "",
          "type": "uint256"
        }
      ],
      "stateMutability": "view",
      "type": "function"
    },
    {
      "inputs": [
        {
          "internalType": "address",
          "name": "",
          "type": "address"
        }
      ],
      "name": "accumulatedSettlementFees",
      "outputs": [
        {
          "internalType": "uint256",
          "name": "",
          "type": "uint256"
        }
      ],
      "stateMutability": "view",
      "type": "function"
    },
    {
      "inputs": [
        {
          "internalType": "string",
          "name": "_name",
          "type": "string"
        },
        {
          "internalType": "contract AggregatorV3Interface",
          "name": "_feed",
          "type": "address"
        },
        {
          "internalType": "uint8",
          "name": "_imprecision",
          "type": "uint8"
        }
      ],
      "name": "addCoin",
      "outputs": [
        {
          "internalType": "uint256",
          "name": "_coinIndex",
          "type": "uint256"
        }
      ],
      "stateMutability": "nonpayable",
      "type": "function"
    },
    {
      "inputs": [
        {
          "internalType": "uint256",
          "name": "_id",
          "type": "uint256"
        },
        {
          "internalType": "uint256",
          "name": "_sharesToBurn",
          "type": "uint256"
        },
        {
          "internalType": "address",
          "name": "_receiver",
          "type": "address"
        }
      ],
      "name": "burnShares",
      "outputs": [
        {
          "internalType": "uint256",
          "name": "",
          "type": "uint256"
        }
      ],
      "stateMutability": "nonpayable",
      "type": "function"
    },
    {
      "inputs": [
        {
          "internalType": "uint256",
          "name": "_shares",
          "type": "uint256"
        }
      ],
      "name": "calcCost",
      "outputs": [
        {
          "internalType": "uint256",
          "name": "",
          "type": "uint256"
        }
      ],
      "stateMutability": "view",
      "type": "function"
    },
    {
      "inputs": [
        {
          "internalType": "uint256",
          "name": "_collateralIn",
          "type": "uint256"
        }
      ],
      "name": "calcShares",
      "outputs": [
        {
          "internalType": "uint256",
          "name": "",
          "type": "uint256"
        }
      ],
      "stateMutability": "view",
      "type": "function"
    },
    {
      "inputs": [
        {
          "internalType": "uint256[]",
          "name": "_ids",
          "type": "uint256[]"
        },
        {
          "internalType": "address",
          "name": "_receiver",
          "type": "address"
        }
      ],
      "name": "claimManyWinnings",
      "outputs": [
        {
          "internalType": "uint256",
          "name": "",
          "type": "uint256"
        }
      ],
      "stateMutability": "nonpayable",
      "type": "function"
    },
    {
      "inputs": [],
      "name": "claimProtocolFees",
      "outputs": [
        {
          "internalType": "uint256",
          "name": "",
          "type": "uint256"
        }
      ],
      "stateMutability": "nonpayable",
      "type": "function"
    },
    {
      "inputs": [
        {
          "internalType": "address",
          "name": "_receiver",
          "type": "address"
        }
      ],
      "name": "claimSettlementFees",
      "outputs": [
        {
          "internalType": "uint256",
          "name": "",
          "type": "uint256"
        }
      ],
      "stateMutability": "nonpayable",
      "type": "function"
    },
    {
      "inputs": [
        {
          "internalType": "uint256",
          "name": "_id",
          "type": "uint256"
        },
        {
          "internalType": "address",
          "name": "_receiver",
          "type": "address"
        }
      ],
      "name": "claimWinnings",
      "outputs": [
        {
          "internalType": "uint256",
          "name": "",
          "type": "uint256"
        }
      ],
      "stateMutability": "nonpayable",
      "type": "function"
    },
    {
      "inputs": [
        {
          "internalType": "uint256",
          "name": "",
          "type": "uint256"
        }
      ],
      "name": "coins",
      "outputs": [
        {
          "internalType": "string",
          "name": "name",
          "type": "string"
        },
        {
          "internalType": "contract AggregatorV3Interface",
          "name": "feed",
          "type": "address"
        },
        {
          "internalType": "uint256",
          "name": "value",
          "type": "uint256"
        },
        {
          "internalType": "uint8",
          "name": "imprecision",
          "type": "uint8"
        },
        {
          "internalType": "uint256",
          "name": "currentMarket",
          "type": "uint256"
        }
      ],
      "stateMutability": "view",
      "type": "function"
    },
    {
      "inputs": [],
      "name": "collateral",
      "outputs": [
        {
          "internalType": "contract IERC20Full",
          "name": "",
          "type": "address"
        }
      ],
      "stateMutability": "view",
      "type": "function"
    },
    {
      "inputs": [],
      "name": "feePot",
      "outputs": [
        {
          "internalType": "contract FeePot",
          "name": "",
          "type": "address"
        }
      ],
      "stateMutability": "view",
      "type": "function"
    },
    {
      "inputs": [
        {
          "internalType": "uint256",
          "name": "_coinIndex",
          "type": "uint256"
        }
      ],
      "name": "getCoin",
      "outputs": [
        {
          "components": [
            {
              "internalType": "string",
              "name": "name",
              "type": "string"
            },
            {
              "internalType": "contract AggregatorV3Interface",
              "name": "feed",
              "type": "address"
            },
            {
              "internalType": "uint256",
              "name": "value",
              "type": "uint256"
            },
            {
              "internalType": "uint8",
              "name": "imprecision",
              "type": "uint8"
            },
            {
              "internalType": "uint256",
              "name": "currentMarket",
              "type": "uint256"
            }
          ],
          "internalType": "struct CryptoCurrencyMarketFactoryV3.Coin",
          "name": "_coin",
          "type": "tuple"
        }
      ],
      "stateMutability": "view",
      "type": "function"
    },
    {
      "inputs": [],
      "name": "getCoins",
      "outputs": [
        {
          "components": [
            {
              "internalType": "string",
              "name": "name",
              "type": "string"
            },
            {
              "internalType": "contract AggregatorV3Interface",
              "name": "feed",
              "type": "address"
            },
            {
              "internalType": "uint256",
              "name": "value",
              "type": "uint256"
            },
            {
              "internalType": "uint8",
              "name": "imprecision",
              "type": "uint8"
            },
            {
              "internalType": "uint256",
              "name": "currentMarket",
              "type": "uint256"
            }
          ],
          "internalType": "struct CryptoCurrencyMarketFactoryV3.Coin[]",
          "name": "_coins",
          "type": "tuple[]"
        }
      ],
      "stateMutability": "view",
      "type": "function"
    },
    {
      "inputs": [
        {
          "internalType": "uint256",
          "name": "_id",
          "type": "uint256"
        }
      ],
      "name": "getMarket",
      "outputs": [
        {
          "components": [
            {
              "internalType": "address",
              "name": "settlementAddress",
              "type": "address"
            },
            {
              "internalType": "contract OwnedERC20[]",
              "name": "shareTokens",
              "type": "address[]"
            },
            {
              "internalType": "contract OwnedERC20",
              "name": "winner",
              "type": "address"
            },
            {
              "internalType": "uint256",
              "name": "winnerIndex",
              "type": "uint256"
            },
            {
              "internalType": "uint256",
              "name": "settlementFee",
              "type": "uint256"
            },
            {
              "internalType": "uint256",
              "name": "protocolFee",
              "type": "uint256"
            },
            {
              "internalType": "uint256",
              "name": "stakerFee",
              "type": "uint256"
            },
            {
              "internalType": "uint256",
              "name": "creationTimestamp",
              "type": "uint256"
            },
            {
              "internalType": "uint256",
              "name": "resolutionTimestamp",
              "type": "uint256"
            },
            {
              "internalType": "uint256[]",
              "name": "initialOdds",
              "type": "uint256[]"
            },
            {
              "internalType": "bool",
              "name": "active",
              "type": "bool"
            }
          ],
          "internalType": "struct AbstractMarketFactoryV3.Market",
          "name": "",
          "type": "tuple"
        }
      ],
      "stateMutability": "view",
      "type": "function"
    },
    {
      "inputs": [
        {
          "internalType": "uint256",
          "name": "_marketId",
          "type": "uint256"
        }
      ],
      "name": "getMarketDetails",
      "outputs": [
        {
          "components": [
            {
              "internalType": "uint256",
              "name": "coinIndex",
              "type": "uint256"
            },
            {
              "internalType": "uint256",
              "name": "creationValue",
              "type": "uint256"
            },
            {
              "internalType": "uint256",
              "name": "resolutionValue",
              "type": "uint256"
            },
            {
              "internalType": "uint256",
              "name": "resolutionTime",
              "type": "uint256"
            }
          ],
          "internalType": "struct CryptoCurrencyMarketFactoryV3.MarketDetails",
          "name": "",
          "type": "tuple"
        }
      ],
      "stateMutability": "view",
      "type": "function"
    },
    {
      "inputs": [],
      "name": "getOwner",
      "outputs": [
        {
          "internalType": "address",
          "name": "",
          "type": "address"
        }
      ],
      "stateMutability": "view",
      "type": "function"
    },
    {
      "inputs": [
        {
          "internalType": "uint256",
          "name": "_marketId",
          "type": "uint256"
        }
      ],
      "name": "getRewardEndTime",
      "outputs": [
        {
          "internalType": "uint256",
          "name": "",
          "type": "uint256"
        }
      ],
      "stateMutability": "view",
      "type": "function"
    },
    {
      "inputs": [],
      "name": "getVersion",
      "outputs": [
        {
          "internalType": "string",
          "name": "",
          "type": "string"
        }
      ],
      "stateMutability": "view",
      "type": "function"
    },
    {
      "inputs": [
        {
          "internalType": "uint256",
          "name": "_id",
          "type": "uint256"
        }
      ],
      "name": "isMarketResolved",
      "outputs": [
        {
          "internalType": "bool",
          "name": "",
          "type": "bool"
        }
      ],
      "stateMutability": "view",
      "type": "function"
    },
    {
      "inputs": [],
      "name": "linkNode",
      "outputs": [
        {
          "internalType": "address",
          "name": "",
          "type": "address"
        }
      ],
      "stateMutability": "view",
      "type": "function"
    },
    {
      "inputs": [],
      "name": "marketCount",
      "outputs": [
        {
          "internalType": "uint256",
          "name": "",
          "type": "uint256"
        }
      ],
      "stateMutability": "view",
      "type": "function"
    },
    {
      "inputs": [
        {
          "internalType": "uint256",
          "name": "_id",
          "type": "uint256"
        },
        {
          "internalType": "uint256",
          "name": "_shareToMint",
          "type": "uint256"
        },
        {
          "internalType": "address",
          "name": "_receiver",
          "type": "address"
        }
      ],
      "name": "mintShares",
      "outputs": [],
      "stateMutability": "nonpayable",
      "type": "function"
    },
    {
      "inputs": [
        {
          "internalType": "uint256",
          "name": "_coinIndex",
          "type": "uint256"
        },
        {
          "internalType": "uint256",
          "name": "_resolutionTime",
          "type": "uint256"
        },
        {
          "internalType": "uint80",
          "name": "_roundId",
          "type": "uint80"
        }
      ],
      "name": "pokeCoin",
      "outputs": [],
      "stateMutability": "nonpayable",
      "type": "function"
    },
    {
      "inputs": [],
      "name": "protocol",
      "outputs": [
        {
          "internalType": "address",
          "name": "",
          "type": "address"
        }
      ],
      "stateMutability": "view",
      "type": "function"
    },
    {
      "inputs": [],
      "name": "protocolFee",
      "outputs": [
        {
          "internalType": "uint256",
          "name": "",
          "type": "uint256"
        }
      ],
      "stateMutability": "view",
      "type": "function"
    },
    {
      "inputs": [
        {
          "internalType": "address",
          "name": "_newLinkNode",
          "type": "address"
        }
      ],
      "name": "setLinkNode",
      "outputs": [],
      "stateMutability": "nonpayable",
      "type": "function"
    },
    {
      "inputs": [
        {
          "internalType": "address",
          "name": "_newProtocol",
          "type": "address"
        },
        {
          "internalType": "bool",
          "name": "_claimFirst",
          "type": "bool"
        }
      ],
      "name": "setProtocol",
      "outputs": [],
      "stateMutability": "nonpayable",
      "type": "function"
    },
    {
      "inputs": [
        {
          "internalType": "uint256",
          "name": "_newFee",
          "type": "uint256"
        }
      ],
      "name": "setProtocolFee",
      "outputs": [],
      "stateMutability": "nonpayable",
      "type": "function"
    },
    {
      "inputs": [
        {
          "internalType": "uint256",
          "name": "_newFee",
          "type": "uint256"
        }
      ],
      "name": "setSettlementFee",
      "outputs": [],
      "stateMutability": "nonpayable",
      "type": "function"
    },
    {
      "inputs": [
        {
          "internalType": "uint256",
          "name": "_newFee",
          "type": "uint256"
        }
      ],
      "name": "setStakerFee",
      "outputs": [],
      "stateMutability": "nonpayable",
      "type": "function"
    },
    {
      "inputs": [],
      "name": "settlementFee",
      "outputs": [
        {
          "internalType": "uint256",
          "name": "",
          "type": "uint256"
        }
      ],
      "stateMutability": "view",
      "type": "function"
    },
    {
      "inputs": [],
      "name": "shareFactor",
      "outputs": [
        {
          "internalType": "uint256",
          "name": "",
          "type": "uint256"
        }
      ],
      "stateMutability": "view",
      "type": "function"
    },
    {
      "inputs": [],
      "name": "stakerFee",
      "outputs": [
        {
          "internalType": "uint256",
          "name": "",
          "type": "uint256"
        }
      ],
      "stateMutability": "view",
      "type": "function"
    },
    {
      "inputs": [
        {
          "internalType": "address",
          "name": "_newOwner",
          "type": "address"
        }
      ],
      "name": "transferOwnership",
      "outputs": [
        {
          "internalType": "bool",
          "name": "",
          "type": "bool"
        }
      ],
      "stateMutability": "nonpayable",
      "type": "function"
    }
  ],
  "transactionHash": "0x4369bca9a869ebff1189859e76fc8752db330cd3ff53d9708a4020908c4833ec",
  "args": [
    "0x99FcDB24d287d862428860f9AfcbFc563263a19e",
    "0x5038548C3275417df2FBCc9F7911d1678fF8E6Cf",
    "1000000000000",
    "0x5036C7ACc0318761c74BBDAF966BE6c105128ead",
    [
      0,
      "500000000000000",
      0
    ],
    "0x99FcDB24d287d862428860f9AfcbFc563263a19e",
    "0x99FcDB24d287d862428860f9AfcbFc563263a19e"
  ],
  "solcInputHash": "efe24c9fabc1d3f5df30484a07e36b33",
  "bytecode": "0x608060405260006007553480156200001657600080fd5b5060405162005063380380620050638339810160408190526200003991620005f6565b60408051808201825260068082526576312e332e3360d01b602080840191909152600080546001600160a01b038d81166001600160a01b03199283163317831617909255600180548d8416908316811790915560098c9055600280548c8516908416179055895160035592890151600490815589870151600555845490911691881691909117909255925163095ea7b360e01b815284938b928b928b928b928b928b929163095ea7b391620000f5918791600019910162000712565b602060405180830381600087803b1580156200011057600080fd5b505af115801562000125573d6000803e3d6000fd5b505050506040513d601f19601f820116820180604052508101906200014b9190620006e9565b50600a6200015862000344565b81546001808201845560009384526020938490208351600b9093020180546001600160a01b0319166001600160a01b0390931692909217825582840151805193949293620001af93928501929190910190620003fa565b5060408201516002820180546001600160a01b0319166001600160a01b03909216919091179055606082015160038201556080820151600482015560a0820151600582015560c0820151600682015560e08201516007820155610100820151600882015561012082015180516200023191600984019160209091019062000464565b506101409190910151600a909101805460ff1916911515919091179055505084516200026a9450600b93506020860192509050620004a2565b5050600c80546001600160a01b0319166001600160a01b039290921691909117905560408051602081019091526000808252600d90620002ad90839080620003ba565b81546001810183556000928352602092839020825180519394600590930290910192620002de9284920190620004a2565b5060208201516001820180546001600160a01b0319166001600160a01b0390921691909117905560408201516002820155606082015160038201805460ff191660ff90921691909117905560809091015160049091015550620007449650505050505050565b6200034e62000524565b50604080516000808252602082018181526101a083018452928201818152606083018390526080830182905260a0830182905260c0830182905260e083018290526101008301829052610120830182905261014083018290526101608301939093526101809091015290565b620003c462000592565b506040805160a0810182529384526001600160a01b039092166020840152600091830182905260ff166060830152608082015290565b82805482825590600052602060002090810192821562000452579160200282015b828111156200045257825182546001600160a01b0319166001600160a01b039091161782556020909201916001909101906200041b565b5062000460929150620005cd565b5090565b82805482825590600052602060002090810192821562000452579160200282015b828111156200045257825182559160200191906001019062000485565b828054600181600116156101000203166002900490600052602060002090601f016020900481019282620004da576000855562000452565b82601f10620004f557805160ff191683800117855562000452565b828001600101855582156200045257918201828111156200045257825182559160200191906001019062000485565b60405180610160016040528060006001600160a01b031681526020016060815260200160006001600160a01b03168152602001600081526020016000815260200160008152602001600081526020016000815260200160008152602001606081526020016000151581525090565b6040518060a001604052806060815260200160006001600160a01b0316815260200160008152602001600060ff168152602001600081525090565b5b80821115620004605760008155600101620005ce565b8051620005f1816200072b565b919050565b6000806000806000806000610120888a03121562000612578283fd5b87516200061f816200072b565b8097505060208089015162000634816200072b565b60408a015160608b015191985096506200064e816200072b565b9450609f89018a136200065f578384fd5b604051606081016001600160401b03811182821017156200067c57fe5b6040528060808b0160e08c018d81111562000695578788fd5b875b6003811015620006b65782518452928501929185019160010162000697565b50839750620006c581620005e4565b96505050505050620006db6101008901620005e4565b905092959891949750929550565b600060208284031215620006fb578081fd5b815180151581146200070b578182fd5b9392505050565b6001600160a01b03929092168252602082015260400190565b6001600160a01b03811681146200074157600080fd5b50565b61490f80620007546000396000f3fe60806040523480156200001157600080fd5b5060043610620002505760003560e01c80638e0ed1931162000141578063d5da4f1d11620000bd578063e5678dfa1162000087578063e5678dfa14620004fc578063eb44fdd31462000513578063ec9790821462000539578063f2fde38b1462000543578063f3afc311146200055a5762000250565b8063d5da4f1d146200049e578063d8dfeb4514620004b5578063da31158814620004bf578063e2c30b1514620004e55762000250565b8063b06c1ba3116200010b578063b06c1ba31462000423578063b0e21e8a1462000449578063c66106571462000453578063cc87adea146200047d578063d4b6838e14620004945762000250565b80638e0ed19314620003d457806397eef18714620003eb578063992c90791462000402578063a544a62c14620004195762000250565b80634a7d036911620001d15780637641ab01116200019b5780637641ab011462000395578063787dce3d146200039f5780637d1d7fb814620003b6578063893d20e814620003c05780638ce7442614620003ca5762000250565b80634a7d036914620003425780634b2d9ffc146200034c5780634c9f66c7146200035657806353ac55f5146200036f5762000250565b806332ecabe9116200021f57806332ecabe914620002cf57806335a9cdad14620002e657806342e0ed1614620002fd578063473a6d52146200031457806349a4d934146200032b5762000250565b80630d8e6e2c146200025557806313c390ef1462000277578063221fff8114620002905780632cfcfa3a14620002a9575b600080fd5b6200025f62000571565b6040516200026e919062003266565b60405180910390f35b620002816200060b565b6040516200026e9190620031c8565b620002a7620002a136600462002f84565b62000791565b005b620002c0620002ba36600462002e09565b62000abe565b6040516200026e9190620034f6565b620002a7620002e036600462002cef565b62000c11565b620002c0620002f736600462002f84565b62000c5f565b620002c06200030e36600462002f2b565b62001098565b620002c06200032536600462002f2b565b620010b1565b620002c06200033c36600462002cd0565b620010ed565b620002c0620010ff565b620002c0620011c9565b62000360620011cf565b6040516200026e919062003177565b620003866200038036600462002f2b565b620011de565b6040516200026e91906200322c565b620002c062001368565b620002a7620003b036600462002f2b565b6200136e565b620002c06200138b565b6200036062001391565b62000360620013a0565b620002c0620003e536600462002cd0565b620013af565b620002a7620003fc36600462002f2b565b6200146b565b620002c06200041336600462002f5d565b62001488565b620002c0620018aa565b6200043a6200043436600462002f2b565b620018b0565b6040516200026e9190620033fa565b620002c0620018ff565b6200046a6200046436600462002f2b565b62001905565b6040516200026e9594939291906200327b565b620002c06200048e36600462002f2b565b620019e6565b62000360620019ed565b620002a7620004af36600462002f2b565b620019fc565b6200036062001a19565b620004d6620004d036600462002f2b565b62001a28565b6040516200026e9190620033e5565b620002a7620004f636600462002cd0565b62001b2b565b620002c06200050d36600462002d2c565b62001b97565b6200052a6200052436600462002f2b565b62001be5565b6040516200026e919062003425565b620002c062001d84565b620003866200055436600462002cd0565b62001d8a565b620002a76200056b36600462002fbf565b62001df4565b600b8054604080516020601f6002600019610100600188161502019095169490940493840181900481028201810190925282815260609390929091830182828015620006015780601f10620005d55761010080835404028352916020019162000601565b820191906000526020600020905b815481529060010190602001808311620005e357829003601f168201915b5050505050905090565b600d5460609067ffffffffffffffff811180156200062857600080fd5b506040519080825280602002602001820160405280156200066657816020015b6200065262002aa7565b815260200190600190039081620006485790505b50905060015b600d548110156200078d57600d81815481106200068557fe5b600091825260209182902060408051600593909302909101805460026001821615610100026000190190911604601f8101859004909402830160c090810190925260a08301848152929390928492909184918401828280156200072c5780601f1062000700576101008083540402835291602001916200072c565b820191906000526020600020905b8154815290600101906020018083116200070e57829003601f168201915b505050918352505060018201546001600160a01b0316602082015260028201546040820152600382015460ff16606082015260049091015460809091015282518390839081106200077957fe5b60209081029190910101526001016200066c565b5090565b600a548310620007a057600080fd5b600a8381548110620007ae57fe5b60009182526020909120600a600b90920201015460ff16620007cf57600080fd5b6000620007dc83620010b1565b6001546040516323b872dd60e01b81529192506001600160a01b0316906323b872dd9062000813903390309086906004016200318b565b602060405180830381600087803b1580156200082e57600080fd5b505af115801562000843573d6000803e3d6000fd5b505050506040513d601f19601f8201168201806040525081019062000869919062002dea565b506000600a85815481106200087a57fe5b60009182526020918290206040805161016081018252600b90930290910180546001600160a01b03168352600181018054835181870281018701909452808452939491938583019392830182828015620008fe57602002820191906000526020600020905b81546001600160a01b03168152600190910190602001808311620008df575b505050505081526020016002820160009054906101000a90046001600160a01b03166001600160a01b03166001600160a01b0316815260200160038201548152602001600482015481526020016005820154815260200160068201548152602001600782015481526020016008820154815260200160098201805480602002602001604051908101604052809291908181526020018280548015620009c357602002820191906000526020600020905b815481526020019060010190808311620009ae575b5050509183525050600a919091015460ff161515602090910152905060005b81602001515181101562000a79578160200151818151811062000a0157fe5b60200260200101516001600160a01b031663c024cd2685876040518363ffffffff1660e01b815260040162000a38929190620031af565b600060405180830381600087803b15801562000a5357600080fd5b505af115801562000a68573d6000803e3d6000fd5b505060019092019150620009e29050565b507fd81c0442e10068a9818f3aa093c9ccb804584690df572d7df3da2d892a6973f285858560405162000aaf939291906200360b565b60405180910390a15050505050565b600080546001600160a01b0316331462000ad757600080fd5b600062000b1e86868080601f01602080910402602001604051908101604052809392919081815260200183838082843760009201919091525088925087915062001e8c9050565b600d80546001810182556000919091528151805191945091925082917fd7b6990105719101dabeb77144f2a3385c8033acd3af97e9423a695e81ad1eb560058602019162000b7491839160209091019062002ae2565b5060208201516001820180546001600160a01b0319166001600160a01b039092169190911790556040808301516002830155606083015160038301805460ff191660ff9092169190911790556080909201516004909101555182907fd9d3ec4c7486dfb74c1b8e96ca18907b1683022eeef70494bcc437873c1cfa189062000c00908990899062003237565b60405180910390a250949350505050565b6000546001600160a01b0316331462000c2957600080fd5b801562000c3c5762000c3a620010ff565b505b50600680546001600160a01b0319166001600160a01b0392909216919091179055565b600a54600090841062000c7157600080fd5b600a848154811062000c7f57fe5b60009182526020909120600a600b90920201015460ff1662000ca057600080fd5b6000600a858154811062000cb057fe5b60009182526020918290206040805161016081018252600b90930290910180546001600160a01b0316835260018101805483518187028101870190945280845293949193858301939283018282801562000d3457602002820191906000526020600020905b81546001600160a01b0316815260019091019060200180831162000d15575b505050505081526020016002820160009054906101000a90046001600160a01b03166001600160a01b03166001600160a01b031681526020016003820154815260200160048201548152602001600582015481526020016006820154815260200160078201548152602001600882015481526020016009820180548060200260200160405190810160405280929190818152602001828054801562000df957602002820191906000526020600020905b81548152602001906001019080831162000de4575b5050509183525050600a919091015460ff161515602090910152905060005b81602001515181101562000eaf578160200151818151811062000e3757fe5b60200260200101516001600160a01b03166342986e1333876040518363ffffffff1660e01b815260040162000e6e929190620031af565b600060405180830381600087803b15801562000e8957600080fd5b505af115801562000e9e573d6000803e3d6000fd5b50506001909201915062000e189050565b50600062000ebd85620010b1565b9050600062000eee670de0b6b3a764000062000ee78560a001518562001ecc90919063ffffffff16565b9062001efe565b9050600062000f18670de0b6b3a764000062000ee78660c001518662001ecc90919063ffffffff16565b905062000f328162000f2b858562001f14565b9062001f14565b600780548401905560015460405163a9059cbb60e01b81529194506001600160a01b03169063a9059cbb9062000f6f9089908790600401620031af565b602060405180830381600087803b15801562000f8a57600080fd5b505af115801562000f9f573d6000803e3d6000fd5b505050506040513d601f19601f8201168201806040525081019062000fc5919062002dea565b50600254604051630ebdac0960e41b81526001600160a01b039091169063ebdac0909062000ff8908490600401620034f6565b602060405180830381600087803b1580156200101357600080fd5b505af115801562001028573d6000803e3d6000fd5b505050506040513d601f19601f820116820180604052508101906200104e919062002dea565b507fb6fdb729b2ed801daf629f0ab713e4a7a73619505790f6f27fd92d6f2c9688d788883360405162001084939291906200360b565b60405180910390a150909695505050505050565b6000620010a582620018b0565b6060015190505b919050565b60006009548210158015620010d057506009548281620010cd57fe5b06155b620010da57600080fd5b6009548281620010e657fe5b0492915050565b60086020526000908152604090205481565b6006546000906001600160a01b03163314806200111b57503330145b6200112557600080fd5b6007548015620011c457600060075560015460065460405163a9059cbb60e01b81526001600160a01b039283169263a9059cbb926200116c929116908590600401620031af565b602060405180830381600087803b1580156200118757600080fd5b505af11580156200119c573d6000803e3d6000fd5b505050506040513d601f19601f82011682018060405250810190620011c2919062002dea565b505b905090565b60035481565b6002546001600160a01b031681565b600080600a8381548110620011ef57fe5b60009182526020918290206040805161016081018252600b90930290910180546001600160a01b031683526001810180548351818702810187019094528084529394919385830193928301828280156200127357602002820191906000526020600020905b81546001600160a01b0316815260019091019060200180831162001254575b505050505081526020016002820160009054906101000a90046001600160a01b03166001600160a01b03166001600160a01b03168152602001600382015481526020016004820154815260200160058201548152602001600682015481526020016007820154815260200160088201548152602001600982018054806020026020016040519081016040528092919081815260200182805480156200133857602002820191906000526020600020905b81548152602001906001019080831162001323575b5050509183525050600a919091015460ff161515602090910152604001516001600160a01b031615159392505050565b60095481565b6000546001600160a01b031633146200138657600080fd5b600555565b60045481565b6000546001600160a01b031690565b6006546001600160a01b031681565b33600090815260086020526040812054801562001465573360009081526008602052604080822091909155600154905163a9059cbb60e01b81526001600160a01b039091169063a9059cbb906200140d9086908590600401620031af565b602060405180830381600087803b1580156200142857600080fd5b505af11580156200143d573d6000803e3d6000fd5b505050506040513d601f19601f8201168201806040525081019062001463919062002dea565b505b92915050565b6000546001600160a01b031633146200148357600080fd5b600355565b60006200149583620011de565b620014bd5760405162461bcd60e51b8152600401620014b490620033ba565b60405180910390fd5b6000600a8481548110620014cd57fe5b60009182526020918290206040805161016081018252600b90930290910180546001600160a01b031683526001810180548351818702810187019094528084529394919385830193928301828280156200155157602002820191906000526020600020905b81546001600160a01b0316815260019091019060200180831162001532575b505050505081526020016002820160009054906101000a90046001600160a01b03166001600160a01b03166001600160a01b03168152602001600382015481526020016004820154815260200160058201548152602001600682015481526020016007820154815260200160088201548152602001600982018054806020026020016040519081016040528092919081815260200182805480156200161657602002820191906000526020600020905b81548152602001906001019080831162001601575b5050509183525050600a919091015460ff1615156020909101526040808201519051631c4a5de160e21b81529192506000916001600160a01b03909116906371297784906200166a90339060040162003177565b602060405180830381600087803b1580156200168557600080fd5b505af11580156200169a573d6000803e3d6000fd5b505050506040513d601f19601f82011682018060405250810190620016c0919062002f44565b90506009546009548281620016d157fe5b040290506000620016e282620010b1565b905060006200170c670de0b6b3a764000062000ee786608001518562001ecc90919063ffffffff16565b90506200171a828262001f14565b84516001600160a01b0390811660009081526008602052604090819020805485019055600154905163a9059cbb60e01b8152929450169063a9059cbb90620017699089908690600401620031af565b602060405180830381600087803b1580156200178457600080fd5b505af115801562001799573d6000803e3d6000fd5b505050506040513d601f19601f82011682018060405250810190620017bf919062002dea565b50600084606001519050600085604001516001600160a01b03166306fdde036040518163ffffffff1660e01b815260040160006040518083038186803b1580156200180957600080fd5b505afa1580156200181e573d6000803e3d6000fd5b505050506040513d6000823e601f3d908101601f1916820160405262001848919081019062002ea1565b9050876001600160a01b03167f76ea0c89f1eef8b1ac3908910bbe5ee5120ff997f6b3bcc900659973e6a2ff128a886040015185858a898b60405162001895979695949392919062003538565b60405180910390a25091979650505050505050565b60075481565b620018ba62002b73565b506000908152600e6020908152604091829020825160808101845281548152600182015492810192909252600281015492820192909252600390910154606082015290565b60055481565b600d81815481106200191657600080fd5b60009182526020918290206005919091020180546040805160026001841615610100026000190190931692909204601f810185900485028301850190915280825291935091839190830182828015620019b35780601f106200198757610100808354040283529160200191620019b3565b820191906000526020600020905b8154815290600101906020018083116200199557829003601f168201915b50505060018401546002850154600386015460049096015494956001600160a01b039092169490935060ff909116915085565b6009540290565b600c546001600160a01b031681565b6000546001600160a01b0316331462001a1457600080fd5b600455565b6001546001600160a01b031681565b62001a3262002aa7565b600d828154811062001a4057fe5b600091825260209182902060408051600593909302909101805460026001821615610100026000190190911604601f8101859004909402830160c090810190925260a083018481529293909284929091849184018282801562001ae75780601f1062001abb5761010080835404028352916020019162001ae7565b820191906000526020600020905b81548152906001019060200180831162001ac957829003601f168201915b505050918352505060018201546001600160a01b0316602082015260028201546040820152600382015460ff16606082015260049091015460809091015292915050565b6000546001600160a01b0316331462001b4357600080fd5b600c80546001600160a01b0383166001600160a01b0319909116811790915560408051918252517f6b7517523482c8d89ffbc530829d5decd506cf6dc60874b11fa26c8a53bb9fa99181900360200190a150565b600080805b845181101562001bdd5762001bd262001bca86838151811062001bbb57fe5b60200260200101518662001488565b839062001f2a565b915060010162001b9c565b509392505050565b62001bef62002b9b565b600a54821062001c0b5762001c0362001f3d565b9050620010ac565b600a828154811062001c1957fe5b60009182526020918290206040805161016081018252600b90930290910180546001600160a01b0316835260018101805483518187028101870190945280845293949193858301939283018282801562001c9d57602002820191906000526020600020905b81546001600160a01b0316815260019091019060200180831162001c7e575b505050505081526020016002820160009054906101000a90046001600160a01b03166001600160a01b03166001600160a01b031681526020016003820154815260200160048201548152602001600582015481526020016006820154815260200160078201548152602001600882015481526020016009820180548060200260200160405190810160405280929190818152602001828054801562001d6257602002820191906000526020600020905b81548152602001906001019080831162001d4d575b5050509183525050600a919091015460ff1615156020909101529050620010ac565b600a5490565b600080546001600160a01b0316331462001da357600080fd5b6001600160a01b03821662001db757600080fd5b60005462001dcf906001600160a01b03168362001fb3565b50600080546001600160a01b0383166001600160a01b03199091161790556001919050565b600c546001600160a01b0316331462001e0c57600080fd5b6000600d848154811062001e1c57fe5b906000526020600020906005020190508169ffffffffffffffffffff1660001415801562001e4d5750600481015415155b1562001e5f5762001e5f818362001fb7565b821580159062001e7157506004810154155b1562001e865762001e848482856200203a565b505b50505050565b62001e9662002aa7565b506040805160a0810182529384526001600160a01b039092166020840152600091830182905260ff166060830152608082015290565b60008262001edd5750600062001465565b8282028284828162001eeb57fe5b041462001ef757600080fd5b9392505050565b60008082848162001f0b57fe5b04949350505050565b60008282111562001f2457600080fd5b50900390565b60008282018381101562001ef757600080fd5b62001f4762002b9b565b50604080516000808252602082018181526101a083018452928201818152606083018390526080830182905260a0830182905260c0830182905260e083018290526101008301829052610120830182905261014083018290526101608301939093526101809091015290565b5050565b60048201546000908152600e6020526040812060030154908062001fdd858585620021c6565b915091506000856002015482111562001ff95750600062001ffd565b5060015b6200200d8660040154826200237c565b50506004840180546000908152600e60205260408120600290810193909355908190559301929092555050565b6000806200204884620024a5565b6040805160028082526060820190925291935060009250816020015b6060815260200190600190039081620020645790505060408051808201909152600581526441626f766560d81b602082015290915081600081518110620020a757fe5b6020026020010181905250604051806040016040528060098152602001684e6f742041626f766560b81b81525081600180811115620020e257fe5b81518110620020ed57fe5b6020908102919091010152600c5462002120906001600160a01b031682620021186000600262002577565b60016200268b565b6040805160808101825288815260208082018681526000838501818152606085018b8152878352600e90945290859020935184559051600184015551600280840191909155905160039092019190915560048801839055870184905551909350849087907fe735e9699cc2f01b4e3265784669a5f985efba631f2ec92632dc41ba4072cfa090620021b59087908790620035fd565b60405180910390a350509392505050565b6001830154604051639a6fc8f560e01b81526000918291829182916001600160a01b0390911690639a6fc8f590620022039089906004016200362a565b60a06040518083038186803b1580156200221c57600080fd5b505afa15801562002231573d6000803e3d6000fd5b505050506040513d601f19601f8201168201806040525081019062002257919062002fef565b509350509250506000821215620022825760405162461bcd60e51b8152600401620014b49062003339565b84811015620022a55760405162461bcd60e51b8152600401620014b49062003302565b60018701546000906001600160a01b0316639a6fc8f5620022c68962002880565b6040518263ffffffff1660e01b8152600401620022e491906200362a565b60a06040518083038186803b158015620022fd57600080fd5b505afa15801562002312573d6000803e3d6000fd5b505050506040513d601f19601f8201168201806040525081019062002338919062002fef565b509350505050858110620023605760405162461bcd60e51b8152600401620014b49062003370565b8294506200236f8886620028a2565b9350505050935093915050565b6000600a83815481106200238c57fe5b90600052602060002090600b020190506000816001018381548110620023ae57fe5b60009182526020822001546002840180546001600160a01b0319166001600160a01b039092169182179055600a8401805460ff1916905560038401859055426008850155604080516306fdde0360e01b8152905191935083916306fdde03916004808201928692909190829003018186803b1580156200242d57600080fd5b505afa15801562002442573d6000803e3d6000fd5b505050506040513d6000823e601f3d908101601f191682016040526200246c919081019062002ea1565b90507f8008bbeee2e3c054e71d4965b4c22b41a2287cd6cc67c714bf918b538338be5f8583868460405162000aaf9493929190620034ff565b60008060008360010160009054906101000a90046001600160a01b03166001600160a01b031663feaf968c6040518163ffffffff1660e01b815260040160a06040518083038186803b158015620024fb57600080fd5b505afa15801562002510573d6000803e3d6000fd5b505050506040513d601f19601f8201168201806040525081019062002536919062002fef565b5050509150506000811215620025605760405162461bcd60e51b8152600401620014b49062003339565b8092506200256f8484620028a2565b915050915091565b6060600083620025895760006200258c565b60015b60ff16830190508067ffffffffffffffff81118015620025ab57600080fd5b50604051908082528060200260200182016040528015620025d6578160200160208202803683370190505b50915083156200260457670de0b6b3a764000082600081518110620025f757fe5b6020026020010181815250505b600083856200261d576802b5e3af16b188000062002628565b6802a802f8630a2400005b68ffffffffffffffffff16816200263b57fe5b0490506000856200264e57600062002651565b60015b60ff1690505b828110156200268257818482815181106200266e57fe5b602090810291909101015260010162002657565b50505092915050565b600a80546040805161016081019091526001600160a01b038716815290919060208101620026ba8730620029b2565b815260006020808301829052604083018290526004546060840152600554608084015260035460a08401524260c084015260e08301829052610100830188905286151561012090930192909252835460018082018655948252908290208351600b9092020180546001600160a01b0319166001600160a01b03909216919091178155828201518051939491936200275a9392850192919091019062002c09565b5060408201516002820180546001600160a01b0319166001600160a01b03909216919091179055606082015160038201556080820151600482015560a0820151600582015560c0820151600682015560e0820151600782015561010082015160088201556101208201518051620027dc91600984019160209091019062002c61565b506101409190910151600a909101805460ff19169115159190911790556040517f037fdac9e4b37ad8b184ce958d7b275e578c9e03d4cfbc51aa75de25fdb6bbec906200282f9083908790879062003586565b60405180910390a1811562002878577fee570fee9d8debeedea533b8cdfde6b9d9995b915869d4d10d350e75a9bf0f88816040516200286f9190620034f6565b60405180910390a15b949350505050565b69ffff0000000000000000811667ffffffffffffffff60001983011617919050565b6000808360010160009054906101000a90046001600160a01b03166001600160a01b031663313ce5676040518163ffffffff1660e01b815260040160206040518083038186803b158015620028f657600080fd5b505afa1580156200290b573d6000803e3d6000fd5b505050506040513d601f19601f820116820180604052508101906200293191906200304b565b600385015490915060ff90811690821611156200296d57600384015460ff9081168203908116600a0a84816200296357fe5b04925050620029a0565b600384015460ff90811690821610156200299c57600384015460ff90811682900316600a0a83029150620029a0565b8291505b82821462001463575060010192915050565b815160609060008167ffffffffffffffff81118015620029d157600080fd5b50604051908082528060200260200182016040528015620029fc578160200160208202803683370190505b50905060005b8281101562002a9e5785818151811062002a1857fe5b602002602001015186828151811062002a2d57fe5b60200260200101518660405162002a449062002c9e565b62002a5293929190620032c0565b604051809103906000f08015801562002a6f573d6000803e3d6000fd5b5082828151811062002a7d57fe5b6001600160a01b039092166020928302919091019091015260010162002a02565b50949350505050565b6040518060a001604052806060815260200160006001600160a01b0316815260200160008152602001600060ff168152602001600081525090565b828054600181600116156101000203166002900490600052602060002090601f01602090048101928262002b1a576000855562002b65565b82601f1062002b3557805160ff191683800117855562002b65565b8280016001018555821562002b65579182015b8281111562002b6557825182559160200191906001019062002b48565b506200078d92915062002cac565b6040518060800160405280600081526020016000815260200160008152602001600081525090565b60405180610160016040528060006001600160a01b031681526020016060815260200160006001600160a01b03168152602001600081526020016000815260200160008152602001600081526020016000815260200160008152602001606081526020016000151581525090565b82805482825590600052602060002090810192821562002b65579160200282015b8281111562002b6557825182546001600160a01b0319166001600160a01b0390911617825560209092019160019091019062002c2a565b82805482825590600052602060002090810192821562002b65579160200282018281111562002b6557825182559160200191906001019062002b48565b6111f380620036e783390190565b5b808211156200078d576000815560010162002cad565b8035620010ac8162003695565b60006020828403121562002ce2578081fd5b813562001ef78162003695565b6000806040838503121562002d02578081fd5b823562002d0f8162003695565b9150602083013562002d2181620036ae565b809150509250929050565b6000806040838503121562002d3f578182fd5b823567ffffffffffffffff8082111562002d57578384fd5b818501915085601f83011262002d6b578384fd5b813560208282111562002d7a57fe5b808202925062002d8c81840162003641565b8281528181019085830185870184018b101562002da7578889fd5b8896505b8487101562002dcb57803583526001969096019591830191830162002dab565b50965062002ddd905087820162002cc3565b9450505050509250929050565b60006020828403121562002dfc578081fd5b815162001ef781620036ae565b6000806000806060858703121562002e1f578182fd5b843567ffffffffffffffff8082111562002e37578384fd5b818701915087601f83011262002e4b578384fd5b81358181111562002e5a578485fd5b88602082850101111562002e6c578485fd5b6020928301965094505085013562002e848162003695565b9150604085013562002e9681620036bd565b939692955090935050565b60006020828403121562002eb3578081fd5b815167ffffffffffffffff8082111562002ecb578283fd5b818401915084601f83011262002edf578283fd5b81518181111562002eec57fe5b62002f01601f8201601f191660200162003641565b915080825285602082850101111562002f18578384fd5b62002a9e81602084016020860162003666565b60006020828403121562002f3d578081fd5b5035919050565b60006020828403121562002f56578081fd5b5051919050565b6000806040838503121562002f70578182fd5b82359150602083013562002d218162003695565b60008060006060848603121562002f99578283fd5b8335925060208401359150604084013562002fb48162003695565b809150509250925092565b60008060006060848603121562002fd4578081fd5b8335925060208401359150604084013562002fb481620036cd565b600080600080600060a0868803121562003007578283fd5b85516200301481620036cd565b8095505060208601519350604086015192506060860151915060808601516200303d81620036cd565b809150509295509295909350565b6000602082840312156200305d578081fd5b815162001ef781620036bd565b6001600160a01b03169052565b6000815180845260208085019450808401835b83811015620030b15781516001600160a01b0316875295820195908201906001016200308a565b509495945050505050565b6000815180845260208085019450808401835b83811015620030b157815187529582019590820190600101620030cf565b15159052565b600081518084526200310d81602086016020860162003666565b601f01601f19169290920160200192915050565b6000815160a084526200313860a0850182620030f3565b6020848101516001600160a01b0316908601526040808501519086015260608085015160ff169086015260809384015193909401929092525090919050565b6001600160a01b0391909116815260200190565b6001600160a01b039384168152919092166020820152604081019190915260600190565b6001600160a01b03929092168252602082015260400190565b6000602080830181845280855180835260408601915060408482028701019250838701855b828110156200321f57603f198886030184526200320c85835162003121565b94509285019290850190600101620031ed565b5092979650505050505050565b901515815260200190565b60006020825282602083015282846040840137818301604090810191909152601f909201601f19160101919050565b60006020825262001ef76020830184620030f3565b600060a082526200329060a0830188620030f3565b6001600160a01b0396909616602083015250604081019390935260ff919091166060830152608090910152919050565b600060608252620032d56060830186620030f3565b8281036020840152620032e98186620030f3565b91505060018060a01b0383166040830152949350505050565b6020808252601d908201527f56616c7565206861736e2774206265656e207570646174656420796574000000604082015260600190565b6020808252601b908201527f56616c75652066726f6d2066656564206973206e656761746976650000000000604082015260600190565b6020808252602a908201527f4d7573742075736520666972737420726f756e64206166746572207265736f6c6040820152697574696f6e2074696d6560b01b606082015260800190565b6020808252601190820152701b585c9ad95d081d5b9c995cdbdb1d9959607a1b604082015260600190565b60006020825262001ef7602083018462003121565b8151815260208083015190820152604080830151908201526060918201519181019190915260800190565b6000602082526200343b6020830184516200306a565b60208301516101608060408501526200345961018085018362003077565b915060408501516200346f60608601826200306a565b5060608501516080850152608085015160a085015260a085015160c085015260c085015160e085015260e0850151610100818187015280870151915050610120818187015280870151915050610140601f198685030181870152620034d58483620030bc565b935080870151915050620034ec82860182620030ed565b5090949350505050565b90815260200190565b600085825260018060a01b0385166020830152836040830152608060608301526200352e6080830184620030f3565b9695505050505050565b600088825260018060a01b038816602083015286604083015260e060608301526200356760e0830187620030f3565b60808301959095525060a081019290925260c090910152949350505050565b600060608201858352602060608185015281865180845260808601915060808382028701019350828801855b82811015620035e457607f19888703018452620035d1868351620030f3565b95509284019290840190600101620035b2565b505050505082810360408401526200352e8185620030bc565b918252602082015260400190565b92835260208301919091526001600160a01b0316604082015260600190565b69ffffffffffffffffffff91909116815260200190565b60405181810167ffffffffffffffff811182821017156200365e57fe5b604052919050565b60005b838110156200368357818101518382015260200162003669565b8381111562001e865750506000910152565b6001600160a01b0381168114620036ab57600080fd5b50565b8015158114620036ab57600080fd5b60ff81168114620036ab57600080fd5b69ffffffffffffffffffff81168114620036ab57600080fdfe60806040523480156200001157600080fd5b50604051620011f3380380620011f3833981810160405260608110156200003757600080fd5b81019080805160405193929190846401000000008211156200005857600080fd5b9083019060208201858111156200006e57600080fd5b82516401000000008111828201881017156200008957600080fd5b82525081516020918201929091019080838360005b83811015620000b85781810151838201526020016200009e565b50505050905090810190601f168015620000e65780820380516001836020036101000a031916815260200191505b50604052602001805160405193929190846401000000008211156200010a57600080fd5b9083019060208201858111156200012057600080fd5b82516401000000008111828201881017156200013b57600080fd5b82525081516020918201929091019080838360005b838110156200016a57818101518382015260200162000150565b50505050905090810190601f168015620001985780820380516001836020036101000a031916815260200191505b5060405260209081015185519093508592508491620001bd9160039185019062000219565b508051620001d390600490602084019062000219565b5050600580546001600160a01b039390931661010090810233909102610100600160a81b031960ff199095166012178516179093169290921790915550620002c5915050565b828054600181600116156101000203166002900490600052602060002090601f0160209004810192826200025157600085556200029c565b82601f106200026c57805160ff19168380011785556200029c565b828001600101855582156200029c579182015b828111156200029c5782518255916020019190600101906200027f565b50620002aa929150620002ae565b5090565b5b80821115620002aa5760008155600101620002af565b610f1e80620002d56000396000f3fe608060405234801561001057600080fd5b506004361061010b5760003560e01c806370a08231116100a2578063a457c2d711610071578063a457c2d714610343578063a9059cbb1461036f578063c024cd261461039b578063dd62ed3e146103c7578063f2fde38b146103f55761010b565b806370a08231146102cb57806371297784146102f1578063893d20e81461031757806395d89b411461033b5761010b565b806323b872dd116100de57806323b872dd1461021f578063313ce56714610255578063395093511461027357806342986e131461029f5761010b565b806306fdde0314610110578063095ea7b31461018d5780630fb66557146101cd57806318160ddd14610205575b600080fd5b61011861041b565b6040805160208082528351818301528351919283929083019185019080838360005b8381101561015257818101518382015260200161013a565b50505050905090810190601f16801561017f5780820380516001836020036101000a031916815260200191505b509250505060405180910390f35b6101b9600480360360408110156101a357600080fd5b506001600160a01b0381351690602001356104b1565b604080519115158252519081900360200190f35b610203600480360360608110156101e357600080fd5b506001600160a01b038135811691602081013590911690604001356104ce565b005b61020d6104fa565b60408051918252519081900360200190f35b6101b96004803603606081101561023557600080fd5b506001600160a01b03813581169160208101359091169060400135610500565b61025d610587565b6040805160ff9092168252519081900360200190f35b6101b96004803603604081101561028957600080fd5b506001600160a01b038135169060200135610590565b610203600480360360408110156102b557600080fd5b506001600160a01b0381351690602001356105de565b61020d600480360360208110156102e157600080fd5b50356001600160a01b0316610608565b61020d6004803603602081101561030757600080fd5b50356001600160a01b0316610623565b61031f61065f565b604080516001600160a01b039092168252519081900360200190f35b610118610673565b6101b96004803603604081101561035957600080fd5b506001600160a01b0381351690602001356106d4565b6101b96004803603604081101561038557600080fd5b506001600160a01b03813516906020013561073c565b610203600480360360408110156103b157600080fd5b506001600160a01b038135169060200135610750565b61020d600480360360408110156103dd57600080fd5b506001600160a01b0381358116916020013516610776565b6101b96004803603602081101561040b57600080fd5b50356001600160a01b03166107a1565b60038054604080516020601f60026000196101006001881615020190951694909404938401819004810282018101909252828152606093909290918301828280156104a75780601f1061047c576101008083540402835291602001916104a7565b820191906000526020600020905b81548152906001019060200180831161048a57829003601f168201915b5050505050905090565b60006104c56104be610818565b848461081c565b50600192915050565b60055461010090046001600160a01b031633146104ea57600080fd5b6104f5838383610908565b505050565b60025490565b600061050d848484610908565b61057d84610519610818565b61057885604051806060016040528060288152602001610e32602891396001600160a01b038a16600090815260016020526040812090610557610818565b6001600160a01b031681526020810191909152604001600020549190610a63565b61081c565b5060019392505050565b60055460ff1690565b60006104c561059d610818565b8461057885600160006105ae610818565b6001600160a01b03908116825260208083019390935260409182016000908120918c168152925290205490610afa565b60055461010090046001600160a01b031633146105fa57600080fd5b6106048282610b5b565b5050565b6001600160a01b031660009081526020819052604090205490565b60055460009061010090046001600160a01b0316331461064257600080fd5b600061064d83610608565b90506106598382610b5b565b92915050565b60055461010090046001600160a01b031690565b60048054604080516020601f60026000196101006001881615020190951694909404938401819004810282018101909252828152606093909290918301828280156104a75780601f1061047c576101008083540402835291602001916104a7565b60006104c56106e1610818565b8461057885604051806060016040528060258152602001610ec4602591396001600061070b610818565b6001600160a01b03908116825260208083019390935260409182016000908120918d16815292529020549190610a63565b60006104c5610749610818565b8484610908565b60055461010090046001600160a01b0316331461076c57600080fd5b6106048282610c57565b6001600160a01b03918216600090815260016020908152604080832093909416825291909152205490565b60055460009061010090046001600160a01b031633146107c057600080fd5b6001600160a01b0382166107d357600080fd5b6005546107ee9061010090046001600160a01b031683610604565b50600580546001600160a01b03831661010002610100600160a81b03199091161790556001919050565b3390565b6001600160a01b0383166108615760405162461bcd60e51b8152600401808060200182810382526024815260200180610ea06024913960400191505060405180910390fd5b6001600160a01b0382166108a65760405162461bcd60e51b8152600401808060200182810382526022815260200180610dea6022913960400191505060405180910390fd5b6001600160a01b03808416600081815260016020908152604080832094871680845294825291829020859055815185815291517f8c5be1e5ebec7d5bd14f71427d1e84f3dd0314c0f7b2291e5b200ac8c7c3b9259281900390910190a3505050565b6001600160a01b03831661094d5760405162461bcd60e51b8152600401808060200182810382526025815260200180610e7b6025913960400191505060405180910390fd5b6001600160a01b0382166109925760405162461bcd60e51b8152600401808060200182810382526023815260200180610da56023913960400191505060405180910390fd5b61099d8383836104f5565b6109da81604051806060016040528060268152602001610e0c602691396001600160a01b0386166000908152602081905260409020549190610a63565b6001600160a01b038085166000908152602081905260408082209390935590841681522054610a099082610afa565b6001600160a01b038084166000818152602081815260409182902094909455805185815290519193928716927fddf252ad1be2c89b69c2b068fc378daa952ba7f163c4a11628f55a4df523b3ef92918290030190a3505050565b60008184841115610af25760405162461bcd60e51b81526004018080602001828103825283818151815260200191508051906020019080838360005b83811015610ab7578181015183820152602001610a9f565b50505050905090810190601f168015610ae45780820380516001836020036101000a031916815260200191505b509250505060405180910390fd5b505050900390565b600082820183811015610b54576040805162461bcd60e51b815260206004820152601b60248201527f536166654d6174683a206164646974696f6e206f766572666c6f770000000000604482015290519081900360640190fd5b9392505050565b6001600160a01b038216610ba05760405162461bcd60e51b8152600401808060200182810382526021815260200180610e5a6021913960400191505060405180910390fd5b610bac826000836104f5565b610be981604051806060016040528060228152602001610dc8602291396001600160a01b0385166000908152602081905260409020549190610a63565b6001600160a01b038316600090815260208190526040902055600254610c0f9082610d47565b6002556040805182815290516000916001600160a01b038516917fddf252ad1be2c89b69c2b068fc378daa952ba7f163c4a11628f55a4df523b3ef9181900360200190a35050565b6001600160a01b038216610cb2576040805162461bcd60e51b815260206004820152601f60248201527f45524332303a206d696e7420746f20746865207a65726f206164647265737300604482015290519081900360640190fd5b610cbe600083836104f5565b600254610ccb9082610afa565b6002556001600160a01b038216600090815260208190526040902054610cf19082610afa565b6001600160a01b0383166000818152602081815260408083209490945583518581529351929391927fddf252ad1be2c89b69c2b068fc378daa952ba7f163c4a11628f55a4df523b3ef9281900390910190a35050565b600082821115610d9e576040805162461bcd60e51b815260206004820152601e60248201527f536166654d6174683a207375627472616374696f6e206f766572666c6f770000604482015290519081900360640190fd5b5090039056fe45524332303a207472616e7366657220746f20746865207a65726f206164647265737345524332303a206275726e20616d6f756e7420657863656564732062616c616e636545524332303a20617070726f766520746f20746865207a65726f206164647265737345524332303a207472616e7366657220616d6f756e7420657863656564732062616c616e636545524332303a207472616e7366657220616d6f756e74206578636565647320616c6c6f77616e636545524332303a206275726e2066726f6d20746865207a65726f206164647265737345524332303a207472616e736665722066726f6d20746865207a65726f206164647265737345524332303a20617070726f76652066726f6d20746865207a65726f206164647265737345524332303a2064656372656173656420616c6c6f77616e63652062656c6f77207a65726fa2646970667358221220c881513fca5a75d47e02fc1c04920461b43ce001b23b37bd2a0244cb5b4737ce64736f6c63430007060033a2646970667358221220b4993adec40eab01660fc371032ebc06459473010d4d0a8e2929db0c7594f61564736f6c63430007060033",
  "devdoc": {
    "kind": "dev",
    "methods": {
      "transferOwnership(address)": {
        "details": "Allows the current owner to transfer control of the contract to a newOwner.",
        "params": {
          "_newOwner": "The address to transfer ownership to."
        }
      }
    },
    "version": 1
  },
  "userdoc": {
    "kind": "user",
    "methods": {},
    "version": 1
  },
  "storageLayout": {
    "storage": [
      {
        "astId": 7578,
        "contract": "contracts/turbo/CryptoCurrencyMarketFactoryV3.sol:CryptoCurrencyMarketFactoryV3",
        "label": "owner",
        "offset": 0,
        "slot": "0",
        "type": "t_address"
      },
      {
        "astId": 15159,
        "contract": "contracts/turbo/CryptoCurrencyMarketFactoryV3.sol:CryptoCurrencyMarketFactoryV3",
        "label": "collateral",
        "offset": 0,
        "slot": "1",
        "type": "t_contract(IERC20Full)7410"
      },
      {
        "astId": 15161,
        "contract": "contracts/turbo/CryptoCurrencyMarketFactoryV3.sol:CryptoCurrencyMarketFactoryV3",
        "label": "feePot",
        "offset": 0,
        "slot": "2",
        "type": "t_contract(FeePot)18742"
      },
      {
        "astId": 15163,
        "contract": "contracts/turbo/CryptoCurrencyMarketFactoryV3.sol:CryptoCurrencyMarketFactoryV3",
        "label": "stakerFee",
        "offset": 0,
        "slot": "3",
        "type": "t_uint256"
      },
      {
        "astId": 15165,
        "contract": "contracts/turbo/CryptoCurrencyMarketFactoryV3.sol:CryptoCurrencyMarketFactoryV3",
        "label": "settlementFee",
        "offset": 0,
        "slot": "4",
        "type": "t_uint256"
      },
      {
        "astId": 15167,
        "contract": "contracts/turbo/CryptoCurrencyMarketFactoryV3.sol:CryptoCurrencyMarketFactoryV3",
        "label": "protocolFee",
        "offset": 0,
        "slot": "5",
        "type": "t_uint256"
      },
      {
        "astId": 15169,
        "contract": "contracts/turbo/CryptoCurrencyMarketFactoryV3.sol:CryptoCurrencyMarketFactoryV3",
        "label": "protocol",
        "offset": 0,
        "slot": "6",
        "type": "t_address"
      },
      {
        "astId": 15172,
        "contract": "contracts/turbo/CryptoCurrencyMarketFactoryV3.sol:CryptoCurrencyMarketFactoryV3",
        "label": "accumulatedProtocolFee",
        "offset": 0,
        "slot": "7",
        "type": "t_uint256"
      },
      {
        "astId": 15176,
        "contract": "contracts/turbo/CryptoCurrencyMarketFactoryV3.sol:CryptoCurrencyMarketFactoryV3",
        "label": "accumulatedSettlementFees",
        "offset": 0,
        "slot": "8",
        "type": "t_mapping(t_address,t_uint256)"
      },
      {
        "astId": 15178,
        "contract": "contracts/turbo/CryptoCurrencyMarketFactoryV3.sol:CryptoCurrencyMarketFactoryV3",
        "label": "shareFactor",
        "offset": 0,
        "slot": "9",
        "type": "t_uint256"
      },
      {
        "astId": 15206,
        "contract": "contracts/turbo/CryptoCurrencyMarketFactoryV3.sol:CryptoCurrencyMarketFactoryV3",
        "label": "markets",
        "offset": 0,
        "slot": "10",
        "type": "t_array(t_struct(Market)15203_storage)dyn_storage"
      },
      {
        "astId": 9170,
        "contract": "contracts/turbo/CryptoCurrencyMarketFactoryV3.sol:CryptoCurrencyMarketFactoryV3",
        "label": "version",
        "offset": 0,
        "slot": "11",
        "type": "t_string_storage"
      },
      {
        "astId": 7532,
        "contract": "contracts/turbo/CryptoCurrencyMarketFactoryV3.sol:CryptoCurrencyMarketFactoryV3",
        "label": "linkNode",
        "offset": 0,
        "slot": "12",
        "type": "t_address"
      },
      {
        "astId": 16125,
        "contract": "contracts/turbo/CryptoCurrencyMarketFactoryV3.sol:CryptoCurrencyMarketFactoryV3",
        "label": "coins",
        "offset": 0,
        "slot": "13",
        "type": "t_array(t_struct(Coin)16122_storage)dyn_storage"
      },
      {
        "astId": 16138,
        "contract": "contracts/turbo/CryptoCurrencyMarketFactoryV3.sol:CryptoCurrencyMarketFactoryV3",
        "label": "marketDetails",
        "offset": 0,
        "slot": "14",
        "type": "t_mapping(t_uint256,t_struct(MarketDetails)16134_storage)"
      }
    ],
    "types": {
      "t_address": {
        "encoding": "inplace",
        "label": "address",
        "numberOfBytes": "20"
      },
      "t_array(t_contract(OwnedERC20)25830)dyn_storage": {
        "base": "t_contract(OwnedERC20)25830",
        "encoding": "dynamic_array",
        "label": "contract OwnedERC20[]",
        "numberOfBytes": "32"
      },
      "t_array(t_struct(Coin)16122_storage)dyn_storage": {
        "base": "t_struct(Coin)16122_storage",
        "encoding": "dynamic_array",
        "label": "struct CryptoCurrencyMarketFactoryV3.Coin[]",
        "numberOfBytes": "32"
      },
      "t_array(t_struct(Market)15203_storage)dyn_storage": {
        "base": "t_struct(Market)15203_storage",
        "encoding": "dynamic_array",
        "label": "struct AbstractMarketFactoryV3.Market[]",
        "numberOfBytes": "32"
      },
      "t_array(t_uint256)dyn_storage": {
        "base": "t_uint256",
        "encoding": "dynamic_array",
        "label": "uint256[]",
        "numberOfBytes": "32"
      },
      "t_bool": {
        "encoding": "inplace",
        "label": "bool",
        "numberOfBytes": "1"
      },
      "t_contract(AggregatorV3Interface)45": {
        "encoding": "inplace",
        "label": "contract AggregatorV3Interface",
        "numberOfBytes": "20"
      },
      "t_contract(FeePot)18742": {
        "encoding": "inplace",
        "label": "contract FeePot",
        "numberOfBytes": "20"
      },
      "t_contract(IERC20Full)7410": {
        "encoding": "inplace",
        "label": "contract IERC20Full",
        "numberOfBytes": "20"
      },
      "t_contract(OwnedERC20)25830": {
        "encoding": "inplace",
        "label": "contract OwnedERC20",
        "numberOfBytes": "20"
      },
      "t_mapping(t_address,t_uint256)": {
        "encoding": "mapping",
        "key": "t_address",
        "label": "mapping(address => uint256)",
        "numberOfBytes": "32",
        "value": "t_uint256"
      },
      "t_mapping(t_uint256,t_struct(MarketDetails)16134_storage)": {
        "encoding": "mapping",
        "key": "t_uint256",
        "label": "mapping(uint256 => struct CryptoCurrencyMarketFactoryV3.MarketDetails)",
        "numberOfBytes": "32",
        "value": "t_struct(MarketDetails)16134_storage"
      },
      "t_string_storage": {
        "encoding": "bytes",
        "label": "string",
        "numberOfBytes": "32"
      },
      "t_struct(Coin)16122_storage": {
        "encoding": "inplace",
        "label": "struct CryptoCurrencyMarketFactoryV3.Coin",
        "members": [
          {
            "astId": 16113,
            "contract": "contracts/turbo/CryptoCurrencyMarketFactoryV3.sol:CryptoCurrencyMarketFactoryV3",
            "label": "name",
            "offset": 0,
            "slot": "0",
            "type": "t_string_storage"
          },
          {
            "astId": 16115,
            "contract": "contracts/turbo/CryptoCurrencyMarketFactoryV3.sol:CryptoCurrencyMarketFactoryV3",
            "label": "feed",
            "offset": 0,
            "slot": "1",
            "type": "t_contract(AggregatorV3Interface)45"
          },
          {
            "astId": 16117,
            "contract": "contracts/turbo/CryptoCurrencyMarketFactoryV3.sol:CryptoCurrencyMarketFactoryV3",
            "label": "value",
            "offset": 0,
            "slot": "2",
            "type": "t_uint256"
          },
          {
            "astId": 16119,
            "contract": "contracts/turbo/CryptoCurrencyMarketFactoryV3.sol:CryptoCurrencyMarketFactoryV3",
            "label": "imprecision",
            "offset": 0,
            "slot": "3",
            "type": "t_uint8"
          },
          {
            "astId": 16121,
            "contract": "contracts/turbo/CryptoCurrencyMarketFactoryV3.sol:CryptoCurrencyMarketFactoryV3",
            "label": "currentMarket",
            "offset": 0,
            "slot": "4",
            "type": "t_uint256"
          }
        ],
        "numberOfBytes": "160"
      },
      "t_struct(Market)15203_storage": {
        "encoding": "inplace",
        "label": "struct AbstractMarketFactoryV3.Market",
        "members": [
          {
            "astId": 15180,
            "contract": "contracts/turbo/CryptoCurrencyMarketFactoryV3.sol:CryptoCurrencyMarketFactoryV3",
            "label": "settlementAddress",
            "offset": 0,
            "slot": "0",
            "type": "t_address"
          },
          {
            "astId": 15183,
            "contract": "contracts/turbo/CryptoCurrencyMarketFactoryV3.sol:CryptoCurrencyMarketFactoryV3",
            "label": "shareTokens",
            "offset": 0,
            "slot": "1",
            "type": "t_array(t_contract(OwnedERC20)25830)dyn_storage"
          },
          {
            "astId": 15185,
            "contract": "contracts/turbo/CryptoCurrencyMarketFactoryV3.sol:CryptoCurrencyMarketFactoryV3",
            "label": "winner",
            "offset": 0,
            "slot": "2",
            "type": "t_contract(OwnedERC20)25830"
          },
          {
            "astId": 15187,
            "contract": "contracts/turbo/CryptoCurrencyMarketFactoryV3.sol:CryptoCurrencyMarketFactoryV3",
            "label": "winnerIndex",
            "offset": 0,
            "slot": "3",
            "type": "t_uint256"
          },
          {
            "astId": 15189,
            "contract": "contracts/turbo/CryptoCurrencyMarketFactoryV3.sol:CryptoCurrencyMarketFactoryV3",
            "label": "settlementFee",
            "offset": 0,
            "slot": "4",
            "type": "t_uint256"
          },
          {
            "astId": 15191,
            "contract": "contracts/turbo/CryptoCurrencyMarketFactoryV3.sol:CryptoCurrencyMarketFactoryV3",
            "label": "protocolFee",
            "offset": 0,
            "slot": "5",
            "type": "t_uint256"
          },
          {
            "astId": 15193,
            "contract": "contracts/turbo/CryptoCurrencyMarketFactoryV3.sol:CryptoCurrencyMarketFactoryV3",
            "label": "stakerFee",
            "offset": 0,
            "slot": "6",
            "type": "t_uint256"
          },
          {
            "astId": 15195,
            "contract": "contracts/turbo/CryptoCurrencyMarketFactoryV3.sol:CryptoCurrencyMarketFactoryV3",
            "label": "creationTimestamp",
            "offset": 0,
            "slot": "7",
            "type": "t_uint256"
          },
          {
            "astId": 15197,
            "contract": "contracts/turbo/CryptoCurrencyMarketFactoryV3.sol:CryptoCurrencyMarketFactoryV3",
            "label": "resolutionTimestamp",
            "offset": 0,
            "slot": "8",
            "type": "t_uint256"
          },
          {
            "astId": 15200,
            "contract": "contracts/turbo/CryptoCurrencyMarketFactoryV3.sol:CryptoCurrencyMarketFactoryV3",
            "label": "initialOdds",
            "offset": 0,
            "slot": "9",
            "type": "t_array(t_uint256)dyn_storage"
          },
          {
            "astId": 15202,
            "contract": "contracts/turbo/CryptoCurrencyMarketFactoryV3.sol:CryptoCurrencyMarketFactoryV3",
            "label": "active",
            "offset": 0,
            "slot": "10",
            "type": "t_bool"
          }
        ],
        "numberOfBytes": "352"
      },
      "t_struct(MarketDetails)16134_storage": {
        "encoding": "inplace",
        "label": "struct CryptoCurrencyMarketFactoryV3.MarketDetails",
        "members": [
          {
            "astId": 16127,
            "contract": "contracts/turbo/CryptoCurrencyMarketFactoryV3.sol:CryptoCurrencyMarketFactoryV3",
            "label": "coinIndex",
            "offset": 0,
            "slot": "0",
            "type": "t_uint256"
          },
          {
            "astId": 16129,
            "contract": "contracts/turbo/CryptoCurrencyMarketFactoryV3.sol:CryptoCurrencyMarketFactoryV3",
            "label": "creationValue",
            "offset": 0,
            "slot": "1",
            "type": "t_uint256"
          },
          {
            "astId": 16131,
            "contract": "contracts/turbo/CryptoCurrencyMarketFactoryV3.sol:CryptoCurrencyMarketFactoryV3",
            "label": "resolutionValue",
            "offset": 0,
            "slot": "2",
            "type": "t_uint256"
          },
          {
            "astId": 16133,
            "contract": "contracts/turbo/CryptoCurrencyMarketFactoryV3.sol:CryptoCurrencyMarketFactoryV3",
            "label": "resolutionTime",
            "offset": 0,
            "slot": "3",
            "type": "t_uint256"
          }
        ],
        "numberOfBytes": "128"
      },
      "t_uint256": {
        "encoding": "inplace",
        "label": "uint256",
        "numberOfBytes": "32"
      },
      "t_uint8": {
        "encoding": "inplace",
        "label": "uint8",
        "numberOfBytes": "1"
      }
    }
  }
}