{
  "_format": "hh-sol-artifact-1",
  "contractName": "BBronze",
  "sourceName": "contracts/balancer/BColor.sol",
  "abi": [
    {
      "inputs": [],
      "name": "getColor",
      "outputs": [
        {
          "internalType": "bytes32",
          "name": "",
          "type": "bytes32"
        }
      ],
      "stateMutability": "pure",
      "type": "function"
    }
  ],
  "bytecode": "0x60806040523480156100195760008061001661001f565b50505b5061008a565b632a2a7adb598160e01b8152600481016020815285602082015260005b8681101561005757808601518282016040015260200161003c565b506020828760640184336000905af158600e01573d6000803e3d6000fd5b3d6001141558600a015760016000f35b505050565b60c9806100986000396000f3fe608060405234801560165760008060136060565b50505b5060043610602f5760003560e01c80639a86139b14603b575b60008060386060565b50505b60416053565b60405190815260200160405180910390f35b6542524f4e5a4560d01b90565b632a2a7adb598160e01b8152600481016020815285602082015260005b868110156096578086015182820160400152602001607d565b506020828760640184336000905af158600e01573d6000803e3d6000fd5b3d6001141558600a015760016000f35b50505056",
  "linkReferences": {},
  "deployedLinkReferences": {}
}