{
  "_format": "hh-sol-artifact-1",
  "contractName": "Cash",
  "sourceName": "contracts/libraries/Cash.sol",
  "abi": [
    {
      "inputs": [
        {
          "internalType": "string",
          "name": "_name",
          "type": "string"
        },
        {
          "internalType": "string",
          "name": "_symbol",
          "type": "string"
        },
        {
          "internalType": "uint8",
          "name": "decimals_",
          "type": "uint8"
        }
      ],
      "stateMutability": "nonpayable",
      "type": "constructor"
    },
    {
      "anonymous": false,
      "inputs": [
        {
          "indexed": true,
          "internalType": "address",
          "name": "owner",
          "type": "address"
        },
        {
          "indexed": true,
          "internalType": "address",
          "name": "spender",
          "type": "address"
        },
        {
          "indexed": false,
          "internalType": "uint256",
          "name": "value",
          "type": "uint256"
        }
      ],
      "name": "Approval",
      "type": "event"
    },
    {
      "anonymous": false,
      "inputs": [
        {
          "indexed": true,
          "internalType": "address",
          "name": "from",
          "type": "address"
        },
        {
          "indexed": true,
          "internalType": "address",
          "name": "to",
          "type": "address"
        },
        {
          "indexed": false,
          "internalType": "uint256",
          "name": "value",
          "type": "uint256"
        }
      ],
      "name": "Transfer",
      "type": "event"
    },
    {
      "inputs": [
        {
          "internalType": "address",
          "name": "_owner",
          "type": "address"
        },
        {
          "internalType": "address",
          "name": "_spender",
          "type": "address"
        }
      ],
      "name": "allowance",
      "outputs": [
        {
          "internalType": "uint256",
          "name": "",
          "type": "uint256"
        }
      ],
      "stateMutability": "view",
      "type": "function"
    },
    {
      "inputs": [
        {
          "internalType": "address",
          "name": "",
          "type": "address"
        },
        {
          "internalType": "address",
          "name": "",
          "type": "address"
        }
      ],
      "name": "allowances",
      "outputs": [
        {
          "internalType": "uint256",
          "name": "",
          "type": "uint256"
        }
      ],
      "stateMutability": "view",
      "type": "function"
    },
    {
      "inputs": [
        {
          "internalType": "address",
          "name": "_spender",
          "type": "address"
        },
        {
          "internalType": "uint256",
          "name": "_amount",
          "type": "uint256"
        }
      ],
      "name": "approve",
      "outputs": [
        {
          "internalType": "bool",
          "name": "",
          "type": "bool"
        }
      ],
      "stateMutability": "nonpayable",
      "type": "function"
    },
    {
      "inputs": [
        {
          "internalType": "address",
          "name": "_account",
          "type": "address"
        }
      ],
      "name": "balanceOf",
      "outputs": [
        {
          "internalType": "uint256",
          "name": "",
          "type": "uint256"
        }
      ],
      "stateMutability": "view",
      "type": "function"
    },
    {
      "inputs": [
        {
          "internalType": "address",
          "name": "",
          "type": "address"
        }
      ],
      "name": "balances",
      "outputs": [
        {
          "internalType": "uint256",
          "name": "",
          "type": "uint256"
        }
      ],
      "stateMutability": "view",
      "type": "function"
    },
    {
      "inputs": [],
      "name": "decimals",
      "outputs": [
        {
          "internalType": "uint8",
          "name": "",
          "type": "uint8"
        }
      ],
      "stateMutability": "view",
      "type": "function"
    },
    {
      "inputs": [
        {
          "internalType": "address",
          "name": "_spender",
          "type": "address"
        },
        {
          "internalType": "uint256",
          "name": "_subtractedValue",
          "type": "uint256"
        }
      ],
      "name": "decreaseAllowance",
      "outputs": [
        {
          "internalType": "bool",
          "name": "",
          "type": "bool"
        }
      ],
      "stateMutability": "nonpayable",
      "type": "function"
    },
    {
      "inputs": [
        {
          "internalType": "uint256",
          "name": "_amount",
          "type": "uint256"
        }
      ],
      "name": "faucet",
      "outputs": [
        {
          "internalType": "bool",
          "name": "",
          "type": "bool"
        }
      ],
      "stateMutability": "nonpayable",
      "type": "function"
    },
    {
      "inputs": [],
      "name": "getTypeName",
      "outputs": [
        {
          "internalType": "bytes32",
          "name": "",
          "type": "bytes32"
        }
      ],
      "stateMutability": "pure",
      "type": "function"
    },
    {
      "inputs": [
        {
          "internalType": "address",
          "name": "_spender",
          "type": "address"
        },
        {
          "internalType": "uint256",
          "name": "_addedValue",
          "type": "uint256"
        }
      ],
      "name": "increaseAllowance",
      "outputs": [
        {
          "internalType": "bool",
          "name": "",
          "type": "bool"
        }
      ],
      "stateMutability": "nonpayable",
      "type": "function"
    },
    {
      "inputs": [],
      "name": "name",
      "outputs": [
        {
          "internalType": "string",
          "name": "",
          "type": "string"
        }
      ],
      "stateMutability": "view",
      "type": "function"
    },
    {
      "inputs": [],
      "name": "symbol",
      "outputs": [
        {
          "internalType": "string",
          "name": "",
          "type": "string"
        }
      ],
      "stateMutability": "view",
      "type": "function"
    },
    {
      "inputs": [],
      "name": "totalSupply",
      "outputs": [
        {
          "internalType": "uint256",
          "name": "",
          "type": "uint256"
        }
      ],
      "stateMutability": "view",
      "type": "function"
    },
    {
      "inputs": [
        {
          "internalType": "address",
          "name": "_recipient",
          "type": "address"
        },
        {
          "internalType": "uint256",
          "name": "_amount",
          "type": "uint256"
        }
      ],
      "name": "transfer",
      "outputs": [
        {
          "internalType": "bool",
          "name": "",
          "type": "bool"
        }
      ],
      "stateMutability": "nonpayable",
      "type": "function"
    },
    {
      "inputs": [
        {
          "internalType": "address",
          "name": "_sender",
          "type": "address"
        },
        {
          "internalType": "address",
          "name": "_recipient",
          "type": "address"
        },
        {
          "internalType": "uint256",
          "name": "_amount",
          "type": "uint256"
        }
      ],
      "name": "transferFrom",
      "outputs": [
        {
          "internalType": "bool",
          "name": "",
          "type": "bool"
        }
      ],
      "stateMutability": "nonpayable",
      "type": "function"
    }
  ],
  "bytecode": "0x60806040523480156200001c57600080620000196200025d565b50505b506040516200122038038062001220833981810160405260608110156200004d576000806200004a6200025d565b50505b81019080805160405193929190846401000000008211156200007957600080620000766200025d565b50505b9083019060208201858111156200009a57600080620000976200025d565b50505b8251640100000000811182820188101715620000c057600080620000bd6200025d565b50505b825250602001908051906020019080838360005b83811015620000ee578082015183820152602001620000d4565b50505050905090810190601f1680156200011c5780820380516001836020036101000a031916815260200191505b50604052602001805160405193929190846401000000008211156200014b57600080620001486200025d565b50505b9083019060208201858111156200016c57600080620001696200025d565b50505b825164010000000081118282018810171562000192576000806200018f6200025d565b50505b825250602001908051906020019080838360005b83811015620001c0578082015183820152602001620001a6565b50505050905090810190601f168015620001ee5780820380516001836020036101000a031916815260200191505b506040526020018051925060039150849050805162000212929160200190620002ca565b50600582805162000228929160200190620002ca565b50806004600181620002396200038c565b8160ff021916908360ff1602179062000251620003ee565b50505050505062000460565b632a2a7adb598160e01b8152600481016020815285602082015260005b86811015620002975780860151828201604001526020016200027a565b506020828760640184336000905af158600e01573d6000803e3d6000fd5b3d6001141558600a015760016000f35b505050565b8280620002d66200038c565b600181600116156101000203166002900490600052602060002090601f01602090048101928262000316576000856200030e620003ee565b50506200037a565b82601f106200033457805160ff191683800117856200030e620003ee565b8280016001018562000345620003ee565b505082156200037a579182015b828111156200037a5782518262000368620003ee565b50509160200191906001019062000352565b50620003889291506200043d565b5090565b6303daa959598160e01b8152836004820152602081602483336000905af158600e01573d6000803e3d6000fd5b3d6001141558600a015760016000f35b8051935060005b6040811015620003e957600082820152602001620003d0565b505050565b6322bd64c0598160e01b8152836004820152846024820152600081604483336000905af158600e01573d6000803e3d6000fd5b3d6001141558600a015760016000f35b600081526020620003d0565b8082111562000388576000808262000454620003ee565b5050506001016200043d565b610db080620004706000396000f3fe608060405234801561001957600080610016610bc7565b50505b50600436106100fe5760003560e01c806355b6ed5c116100a0578063a457c2d71161006f578063a457c2d714610343578063a9059cbb14610378578063db0a087c146103ad578063dd62ed3e146103b5576100fe565b806355b6ed5c146102af57806357915897146102e657806370a082311461030c57806395d89b411461033b576100fe565b806323b872dd116100dc57806323b872dd146101ee57806327e235e31461022d578063313ce5671461025c578063395093511461027a576100fe565b806306fdde031461010c578063095ea7b31461018b57806318160ddd146101d4575b600080610109610bc7565b50505b6101146103ec565b60405160208082528190810183818151815260200191508051906020019080838360005b83811015610150578082015183820152602001610138565b50505050905090810190601f16801561017d5780820380516001836020036101000a031916815260200191505b509250505060405180910390f35b6101c0600480360360408110156101aa576000806101a7610bc7565b50505b506001600160a01b0381351690602001356104a5565b604051901515815260200160405180910390f35b6101dc6104c3565b60405190815260200160405180910390f35b6101c06004803603606081101561020d5760008061020a610bc7565b50505b506001600160a01b038135811691602081013590911690604001356104d3565b6101dc6004803603602081101561024c57600080610249610bc7565b50505b50356001600160a01b0316610553565b61026461056e565b60405160ff909116815260200160405180910390f35b6101c06004803603604081101561029957600080610296610bc7565b50505b506001600160a01b03813516906020013561058a565b6101dc600480360360408110156102ce576000806102cb610bc7565b50505b506001600160a01b03813581169160200135166105f1565b6101c06004803603602081101561030557600080610302610bc7565b50505b5035610617565b6101dc6004803603602081101561032b57600080610328610bc7565b50505b50356001600160a01b031661062b565b610114610651565b6101c0600480360360408110156103625760008061035f610bc7565b50505b506001600160a01b0381351690602001356106f3565b6101c06004803603604081101561039757600080610394610bc7565b50505b506001600160a01b038135169060200135610754565b6101dc610769565b6101dc600480360360408110156103d4576000806103d1610bc7565b50505b506001600160a01b0381358116916020013516610774565b6003806103f7610c32565b600181600116156101000203166002900480601f016020809104026020016040519081016040528181529190602083018280610431610c32565b6001816001161561010002031660029004801561049d5780601f1061046b57610100808361045d610c32565b04028352916020019161049d565b820191906000526020600020905b81610482610c32565b8152906001019060200180831161047957829003601f168201915b505050505081565b60006104ba5a6104b3610c8d565b84846107b4565b50600192915050565b6000806104ce610c32565b905090565b60006104e08484846108dc565b610549845a6104ed610c8d565b6001600160a01b038716600090815260026020526105449086906040902060005a610516610c8d565b6001600160a01b03166001600160a01b0316815260200190815260200160002061053e610c32565b90610a61565b6107b4565b5060019392505050565b6001602052806000526040600020905061056b610c32565b81565b600080600461057b610c32565b906101000a900460ff16905090565b60006104ba5a610598610c8d565b8461054485600260005a6105aa610c8d565b6001600160a01b03166001600160a01b031681526020019081526020016000206001600160a01b0389166000908152602091909152604090206105eb610c32565b90610a7f565b6002602052816000526040600020602052806000526040600020915061056b9050610c32565b60006104ba5a610625610c8d565b83610aa0565b6001600160a01b038116600090815260016020526040812061064b610c32565b92915050565b60058061065c610c32565b600181600116156101000203166002900480601f016020809104026020016040519081016040528181529190602083018280610696610c32565b6001816001161561010002031660029004801561049d5780601f106106c257610100808361045d610c32565b820191906000526020600020905b816106d9610c32565b815290600101906020018083116106d05750859350505050565b60006104ba5a610701610c8d565b8461054485600260005a610713610c8d565b6001600160a01b03166001600160a01b031681526020019081526020016000206001600160a01b03891660009081526020919091526040902061053e610c32565b60006104ba5a610762610c8d565b84846108dc565b63086c2e6d60e31b90565b6001600160a01b03821660009081526002602052604081206001600160a01b0383166000908152602091909152604090206107ad610c32565b9392505050565b6001600160a01b0383166108025760405162461bcd60e51b8152600401808060200182810382526024815260200180610d8c60249139604001915050604051809103906107ff610bc7565b50505b6001600160a01b0382166108505760405162461bcd60e51b8152600401808060200182810382526022815260200180610d45602291396040019150506040518091039061084d610bc7565b50505b6001600160a01b038316600090815260026020528190604090206001600160a01b038416600090815260209190915260409020819061088d610cd3565b505050816001600160a01b0316836001600160a01b03167f8c5be1e5ebec7d5bd14f71427d1e84f3dd0314c0f7b2291e5b200ac8c7c3b9258360405190815260200160405180910390a3505050565b6001600160a01b03831661092a5760405162461bcd60e51b8152600401808060200182810382526025815260200180610d676025913960400191505060405180910390610927610bc7565b50505b6001600160a01b0382166109785760405162461bcd60e51b8152600401808060200182810382526023815260200180610d226023913960400191505060405180910390610975610bc7565b50505b6001600160a01b0383166000908152600160205261099e9082906040902061053e610c32565b6001600160a01b038416600090815260016020526040902081906109c0610cd3565b5050506001600160a01b038216600090815260016020526109e9908290604090206105eb610c32565b6001600160a01b03831660009081526001602052604090208190610a0b610cd3565b505050816001600160a01b0316836001600160a01b03167fddf252ad1be2c89b69c2b068fc378daa952ba7f163c4a11628f55a4df523b3ef8360405190815260200160405180910390a3610a5c8383835b505050565b600082821115610a7957600080610a76610bc7565b50505b50900390565b6000828201838110156107ad57600080610a97610bc7565b50509392505050565b6000610aac8383610ab6565b6104ba8383610bc3565b6001600160a01b038216610b195760405162461bcd60e51b815260206004820152601f60248201527f45524332303a206d696e7420746f20746865207a65726f206164647265737300604482015260640160405180910390610b16610bc7565b50505b610b278160006105eb610c32565b806000610b32610cd3565b5050506001600160a01b03821660009081526001602052610b5b908290604090206105eb610c32565b6001600160a01b03831660009081526001602052604090208190610b7d610cd3565b5050506001600160a01b03821660007fddf252ad1be2c89b69c2b068fc378daa952ba7f163c4a11628f55a4df523b3ef8360405190815260200160405180910390a35050565b5050565b632a2a7adb598160e01b8152600481016020815285602082015260005b86811015610bff578086015182820160400152602001610be4565b506020828760640184336000905af158600e01573d6000803e3d6000fd5b3d6001141558600a015760016000f35b505050565b6303daa959598160e01b8152836004820152602081602483336000905af158600e01573d6000803e3d6000fd5b3d6001141558600a015760016000f35b8051935060005b6040811015610a5c57600082820152602001610c76565b6373509064598160e01b8152602081600483336000905af158600e01573d6000803e3d6000fd5b3d6001141558600a015760016000f35b80516000825293506020610c76565b6322bd64c0598160e01b8152836004820152846024820152600081604483336000905af158600e01573d6000803e3d6000fd5b3d6001141558600a015760016000f35b600081526020610c7656fe45524332303a207472616e7366657220746f20746865207a65726f206164647265737345524332303a20617070726f766520746f20746865207a65726f206164647265737345524332303a207472616e736665722066726f6d20746865207a65726f206164647265737345524332303a20617070726f76652066726f6d20746865207a65726f2061646472657373",
  "linkReferences": {},
  "deployedLinkReferences": {}
}