{
  "address": "0xeC82F887613AFf163949A0b56b7e67222952c92d",
  "abi": [
    {
      "inputs": [
        {
          "internalType": "contract BFactory",
          "name": "_bFactory",
          "type": "address"
        },
        {
          "internalType": "uint256",
          "name": "_fee",
          "type": "uint256"
        }
      ],
      "stateMutability": "nonpayable",
      "type": "constructor"
    },
    {
      "anonymous": false,
      "inputs": [
        {
          "indexed": true,
          "internalType": "address",
          "name": "marketFactory",
          "type": "address"
        },
        {
          "indexed": true,
          "internalType": "uint256",
          "name": "marketId",
          "type": "uint256"
        },
        {
          "indexed": true,
          "internalType": "address",
          "name": "user",
          "type": "address"
        },
        {
          "indexed": false,
          "internalType": "address",
          "name": "recipient",
          "type": "address"
        },
        {
          "indexed": false,
          "internalType": "int256",
          "name": "collateral",
          "type": "int256"
        },
        {
          "indexed": false,
          "internalType": "int256",
          "name": "lpTokens",
          "type": "int256"
        },
        {
          "indexed": false,
          "internalType": "uint256[]",
          "name": "sharesReturned",
          "type": "uint256[]"
        }
      ],
      "name": "LiquidityChanged",
      "type": "event"
    },
    {
      "anonymous": false,
      "inputs": [
        {
          "indexed": false,
          "internalType": "address",
          "name": "pool",
          "type": "address"
        },
        {
          "indexed": true,
          "internalType": "address",
          "name": "marketFactory",
          "type": "address"
        },
        {
          "indexed": true,
          "internalType": "uint256",
          "name": "marketId",
          "type": "uint256"
        },
        {
          "indexed": true,
          "internalType": "address",
          "name": "creator",
          "type": "address"
        },
        {
          "indexed": false,
          "internalType": "address",
          "name": "lpTokenRecipient",
          "type": "address"
        }
      ],
      "name": "PoolCreated",
      "type": "event"
    },
    {
      "anonymous": false,
      "inputs": [
        {
          "indexed": true,
          "internalType": "address",
          "name": "marketFactory",
          "type": "address"
        },
        {
          "indexed": true,
          "internalType": "uint256",
          "name": "marketId",
          "type": "uint256"
        },
        {
          "indexed": true,
          "internalType": "address",
          "name": "user",
          "type": "address"
        },
        {
          "indexed": false,
          "internalType": "uint256",
          "name": "outcome",
          "type": "uint256"
        },
        {
          "indexed": false,
          "internalType": "int256",
          "name": "collateral",
          "type": "int256"
        },
        {
          "indexed": false,
          "internalType": "int256",
          "name": "shares",
          "type": "int256"
        },
        {
          "indexed": false,
          "internalType": "uint256",
          "name": "price",
          "type": "uint256"
        }
      ],
      "name": "SharesSwapped",
      "type": "event"
    },
    {
      "inputs": [],
      "name": "BONE",
      "outputs": [
        {
          "internalType": "uint256",
          "name": "",
          "type": "uint256"
        }
      ],
      "stateMutability": "view",
      "type": "function"
    },
    {
      "inputs": [],
      "name": "BPOW_PRECISION",
      "outputs": [
        {
          "internalType": "uint256",
          "name": "",
          "type": "uint256"
        }
      ],
      "stateMutability": "view",
      "type": "function"
    },
    {
      "inputs": [],
      "name": "EXIT_FEE",
      "outputs": [
        {
          "internalType": "uint256",
          "name": "",
          "type": "uint256"
        }
      ],
      "stateMutability": "view",
      "type": "function"
    },
    {
      "inputs": [],
      "name": "INIT_POOL_SUPPLY",
      "outputs": [
        {
          "internalType": "uint256",
          "name": "",
          "type": "uint256"
        }
      ],
      "stateMutability": "view",
      "type": "function"
    },
    {
      "inputs": [],
      "name": "MAX_BOUND_TOKENS",
      "outputs": [
        {
          "internalType": "uint256",
          "name": "",
          "type": "uint256"
        }
      ],
      "stateMutability": "view",
      "type": "function"
    },
    {
      "inputs": [],
      "name": "MAX_BPOW_BASE",
      "outputs": [
        {
          "internalType": "uint256",
          "name": "",
          "type": "uint256"
        }
      ],
      "stateMutability": "view",
      "type": "function"
    },
    {
      "inputs": [],
      "name": "MAX_FEE",
      "outputs": [
        {
          "internalType": "uint256",
          "name": "",
          "type": "uint256"
        }
      ],
      "stateMutability": "view",
      "type": "function"
    },
    {
      "inputs": [],
      "name": "MAX_IN_RATIO",
      "outputs": [
        {
          "internalType": "uint256",
          "name": "",
          "type": "uint256"
        }
      ],
      "stateMutability": "view",
      "type": "function"
    },
    {
      "inputs": [],
      "name": "MAX_OUT_RATIO",
      "outputs": [
        {
          "internalType": "uint256",
          "name": "",
          "type": "uint256"
        }
      ],
      "stateMutability": "view",
      "type": "function"
    },
    {
      "inputs": [],
      "name": "MAX_TOTAL_WEIGHT",
      "outputs": [
        {
          "internalType": "uint256",
          "name": "",
          "type": "uint256"
        }
      ],
      "stateMutability": "view",
      "type": "function"
    },
    {
      "inputs": [],
      "name": "MAX_WEIGHT",
      "outputs": [
        {
          "internalType": "uint256",
          "name": "",
          "type": "uint256"
        }
      ],
      "stateMutability": "view",
      "type": "function"
    },
    {
      "inputs": [],
      "name": "MIN_BALANCE",
      "outputs": [
        {
          "internalType": "uint256",
          "name": "",
          "type": "uint256"
        }
      ],
      "stateMutability": "view",
      "type": "function"
    },
    {
      "inputs": [],
      "name": "MIN_BOUND_TOKENS",
      "outputs": [
        {
          "internalType": "uint256",
          "name": "",
          "type": "uint256"
        }
      ],
      "stateMutability": "view",
      "type": "function"
    },
    {
      "inputs": [],
      "name": "MIN_BPOW_BASE",
      "outputs": [
        {
          "internalType": "uint256",
          "name": "",
          "type": "uint256"
        }
      ],
      "stateMutability": "view",
      "type": "function"
    },
    {
      "inputs": [],
      "name": "MIN_FEE",
      "outputs": [
        {
          "internalType": "uint256",
          "name": "",
          "type": "uint256"
        }
      ],
      "stateMutability": "view",
      "type": "function"
    },
    {
      "inputs": [],
      "name": "MIN_WEIGHT",
      "outputs": [
        {
          "internalType": "uint256",
          "name": "",
          "type": "uint256"
        }
      ],
      "stateMutability": "view",
      "type": "function"
    },
    {
      "inputs": [
        {
          "internalType": "contract AbstractMarketFactory",
          "name": "_marketFactory",
          "type": "address"
        },
        {
          "internalType": "uint256",
          "name": "_marketId",
          "type": "uint256"
        },
        {
          "internalType": "uint256",
          "name": "_collateralIn",
          "type": "uint256"
        },
        {
          "internalType": "uint256",
          "name": "_minLPTokensOut",
          "type": "uint256"
        },
        {
          "internalType": "address",
          "name": "_lpTokenRecipient",
          "type": "address"
        }
      ],
      "name": "addLiquidity",
      "outputs": [
        {
          "internalType": "uint256",
          "name": "_poolAmountOut",
          "type": "uint256"
        },
        {
          "internalType": "uint256[]",
          "name": "_balances",
          "type": "uint256[]"
        }
      ],
      "stateMutability": "nonpayable",
      "type": "function"
    },
    {
      "inputs": [],
      "name": "bFactory",
      "outputs": [
        {
          "internalType": "contract BFactory",
          "name": "",
          "type": "address"
        }
      ],
      "stateMutability": "view",
      "type": "function"
    },
    {
      "inputs": [
        {
          "internalType": "contract AbstractMarketFactory",
          "name": "_marketFactory",
          "type": "address"
        },
        {
          "internalType": "uint256",
          "name": "_marketId",
          "type": "uint256"
        },
        {
          "internalType": "uint256",
          "name": "_outcome",
          "type": "uint256"
        },
        {
          "internalType": "uint256",
          "name": "_collateralIn",
          "type": "uint256"
        },
        {
          "internalType": "uint256",
          "name": "_minTokensOut",
          "type": "uint256"
        }
      ],
      "name": "buy",
      "outputs": [
        {
          "internalType": "uint256",
          "name": "",
          "type": "uint256"
        }
      ],
      "stateMutability": "nonpayable",
      "type": "function"
    },
    {
      "inputs": [
        {
          "internalType": "contract AbstractMarketFactory",
          "name": "_marketFactory",
          "type": "address"
        },
        {
          "internalType": "uint256",
          "name": "_marketId",
          "type": "uint256"
        },
        {
          "internalType": "uint256",
          "name": "_initialLiquidity",
          "type": "uint256"
        },
        {
          "internalType": "uint256[]",
          "name": "_weights",
          "type": "uint256[]"
        },
        {
          "internalType": "address",
          "name": "_lpTokenRecipient",
          "type": "address"
        }
      ],
      "name": "createPool",
      "outputs": [
        {
          "internalType": "uint256",
          "name": "",
          "type": "uint256"
        }
      ],
      "stateMutability": "nonpayable",
      "type": "function"
    },
    {
      "inputs": [],
      "name": "getColor",
      "outputs": [
        {
          "internalType": "bytes32",
          "name": "",
          "type": "bytes32"
        }
      ],
      "stateMutability": "pure",
      "type": "function"
    },
    {
      "inputs": [
        {
          "internalType": "contract AbstractMarketFactory",
          "name": "_marketFactory",
          "type": "address"
        },
        {
          "internalType": "uint256",
          "name": "_marketId",
          "type": "uint256"
        }
      ],
      "name": "getPool",
      "outputs": [
        {
          "internalType": "contract BPool",
          "name": "",
          "type": "address"
        }
      ],
      "stateMutability": "view",
      "type": "function"
    },
    {
      "inputs": [
        {
          "internalType": "contract AbstractMarketFactory",
          "name": "_marketFactory",
          "type": "address"
        },
        {
          "internalType": "uint256",
          "name": "_marketId",
          "type": "uint256"
        }
      ],
      "name": "getPoolBalances",
      "outputs": [
        {
          "internalType": "uint256[]",
          "name": "",
          "type": "uint256[]"
        }
      ],
      "stateMutability": "view",
      "type": "function"
    },
    {
      "inputs": [
        {
          "internalType": "contract AbstractMarketFactory",
          "name": "_marketFactory",
          "type": "address"
        },
        {
          "internalType": "uint256",
          "name": "_marketId",
          "type": "uint256"
        },
        {
          "internalType": "address",
          "name": "whom",
          "type": "address"
        }
      ],
      "name": "getPoolTokenBalance",
      "outputs": [
        {
          "internalType": "uint256",
          "name": "",
          "type": "uint256"
        }
      ],
      "stateMutability": "view",
      "type": "function"
    },
    {
      "inputs": [
        {
          "internalType": "contract AbstractMarketFactory",
          "name": "_marketFactory",
          "type": "address"
        },
        {
          "internalType": "uint256",
          "name": "_marketId",
          "type": "uint256"
        }
      ],
      "name": "getPoolWeights",
      "outputs": [
        {
          "internalType": "uint256[]",
          "name": "",
          "type": "uint256[]"
        }
      ],
      "stateMutability": "view",
      "type": "function"
    },
    {
      "inputs": [
        {
          "internalType": "contract AbstractMarketFactory",
          "name": "_marketFactory",
          "type": "address"
        },
        {
          "internalType": "uint256",
          "name": "_marketId",
          "type": "uint256"
        }
      ],
      "name": "getSwapFee",
      "outputs": [
        {
          "internalType": "uint256",
          "name": "",
          "type": "uint256"
        }
      ],
      "stateMutability": "view",
      "type": "function"
    },
    {
      "inputs": [
        {
          "internalType": "address",
          "name": "",
          "type": "address"
        },
        {
          "internalType": "uint256",
          "name": "",
          "type": "uint256"
        }
      ],
      "name": "pools",
      "outputs": [
        {
          "internalType": "contract BPool",
          "name": "",
          "type": "address"
        }
      ],
      "stateMutability": "view",
      "type": "function"
    },
    {
      "inputs": [
        {
          "internalType": "contract AbstractMarketFactory",
          "name": "_marketFactory",
          "type": "address"
        },
        {
          "internalType": "uint256",
          "name": "_marketId",
          "type": "uint256"
        },
        {
          "internalType": "uint256",
          "name": "_lpTokensIn",
          "type": "uint256"
        },
        {
          "internalType": "uint256",
          "name": "_minCollateralOut",
          "type": "uint256"
        },
        {
          "internalType": "address",
          "name": "_collateralRecipient",
          "type": "address"
        }
      ],
      "name": "removeLiquidity",
      "outputs": [
        {
          "internalType": "uint256",
          "name": "_collateralOut",
          "type": "uint256"
        },
        {
          "internalType": "uint256[]",
          "name": "_balances",
          "type": "uint256[]"
        }
      ],
      "stateMutability": "nonpayable",
      "type": "function"
    },
    {
      "inputs": [
        {
          "internalType": "contract AbstractMarketFactory",
          "name": "_marketFactory",
          "type": "address"
        },
        {
          "internalType": "uint256",
          "name": "_marketId",
          "type": "uint256"
        },
        {
          "internalType": "uint256",
          "name": "_outcome",
          "type": "uint256"
        },
        {
          "internalType": "uint256[]",
          "name": "_shareTokensIn",
          "type": "uint256[]"
        },
        {
          "internalType": "uint256",
          "name": "_minSetsOut",
          "type": "uint256"
        }
      ],
      "name": "sellForCollateral",
      "outputs": [
        {
          "internalType": "uint256",
          "name": "",
          "type": "uint256"
        }
      ],
      "stateMutability": "nonpayable",
      "type": "function"
    },
    {
      "inputs": [
        {
          "internalType": "contract AbstractMarketFactory",
          "name": "_marketFactory",
          "type": "address"
        },
        {
          "internalType": "uint256",
          "name": "_marketId",
          "type": "uint256"
        }
      ],
      "name": "tokenRatios",
      "outputs": [
        {
          "internalType": "uint256[]",
          "name": "",
          "type": "uint256[]"
        }
      ],
      "stateMutability": "view",
      "type": "function"
    }
  ],
  "transactionHash": "0x7e544823d71f071889ea24b6ed794fb2f8c2754e4ea53ab71b36386ade97950b",
  "args": [
    "0xE152327f9700F1733d12e7a507045FB4A4606C6F",
    "15000000000000000"
  ],
  "solcInputHash": "efbd557127e355e66617652553e210c8",
  "bytecode": "0x60806040523480156200001157600080fd5b5060405162003ae238038062003ae283398101604081905262000034916200005e565b600080546001600160a01b0319166001600160a01b03939093169290921790915560025562000098565b6000806040838503121562000071578182fd5b82516001600160a01b038116811462000088578283fd5b6020939093015192949293505050565b613a3a80620000a86000396000f3fe608060405234801561001057600080fd5b50600436106101da5760003560e01c8063a0147aa111610104578063c6580d12116100a2578063e4a28a5211610071578063e4a28a52146101df578063ec09302114610353578063fa0de3591461035b578063fd212cf61461036e576101da565b8063c6580d1214610305578063c7b4b6dd1461030d578063d055da711461032d578063d2364bf314610340576101da565b8063ba019dab116100de578063ba019dab146102ed578063bc063e1a146102f5578063bc694ea2146102fd578063c36596a61461021a576101da565b8063a0147aa1146102ca578063b0e0d136146102dd578063b7b800a4146102e5576101da565b806360cac85a1161017c5780638f38a5551161014b5780638f38a5551461029f5780639381cd2b146102b2578063992e2a92146102ba5780639a86139b146102c2576101da565b806360cac85a1461026957806372b60c301461027c57806376c7a3c71461028f578063867378c514610297576101da565b8063218b5382116101b8578063218b53821461021a57806345fa67831461022257806359f842b2146102435780635b5b9ea214610256576101da565b806309a3bbe4146101df5780630a165940146101fd578063189d00ca14610212575b600080fd5b6101e7610381565b6040516101f4919061373e565b60405180910390f35b61020561038e565b6040516101f49190613634565b6101e761039d565b6101e76103b1565b610235610230366004613454565b6103bd565b6040516101f4929190613959565b610235610251366004613454565b610bf0565b6102056102643660046131c9565b611345565b6101e76102773660046133ec565b611372565b6101e761028a36600461349b565b611a67565b6101e7611eec565b6101e7611efe565b6102056102ad3660046131c9565b611f12565b6101e7611f38565b6101e7611f45565b6101e7611f51565b6101e76102d8366004613336565b611f5e565b6101e7612003565b6101e7612008565b6101e761200d565b6101e7612012565b6101e7612022565b6101e761202e565b61032061031b3660046131c9565b612033565b6040516101f4919061372b565b61032061033b3660046131c9565b61227a565b61032061034e3660046131c9565b612433565b6101e76125e2565b6101e76103693660046131c9565b6125f2565b6101e761037c366004613377565b61268c565b6802b5e3af16b188000081565b6000546001600160a01b031681565b6402540be400670de0b6b3a76400005b0481565b670de0b6b3a764000081565b6001600160a01b0380861660009081526001602090815260408083208884529091528120549091606091168061040e5760405162461bcd60e51b8152600401610405906138e0565b60405180910390fd5b60405163eb44fdd360e01b81526000906001600160a01b038a169063eb44fdd39061043d908b9060040161373e565b60006040518083038186803b15801561045557600080fd5b505afa158015610469573d6000803e3d6000fd5b505050506040513d6000823e601f3d908101601f1916820160405261049191908101906134fa565b90506000896001600160a01b031663d8dfeb456040518163ffffffff1660e01b815260040160206040518083038186803b1580156104ce57600080fd5b505afa1580156104e2573d6000803e3d6000fd5b505050506040513d601f19601f8201168201806040525081019061050691906134de565b6040516323b872dd60e01b81529091506001600160a01b038216906323b872dd9061053990339030908d90600401613662565b602060405180830381600087803b15801561055357600080fd5b505af1158015610567573d6000803e3d6000fd5b505050506040513d601f19601f8201168201806040525081019061058b919061330f565b5060405163095ea7b360e01b81526001600160a01b0382169063095ea7b3906105bc908d9060001990600401613686565b602060405180830381600087803b1580156105d657600080fd5b505af11580156105ea573d6000803e3d6000fd5b505050506040513d601f19601f8201168201806040525081019061060e919061330f565b50604051636643d6f560e11b81526000906001600160a01b038c169063cc87adea9061063e908c9060040161373e565b60206040518083038186803b15801561065657600080fd5b505afa15801561066a573d6000803e3d6000fd5b505050506040513d601f19601f8201168201806040525081019061068e91906135bf565b60405163221fff8160e01b81529091506001600160a01b038c169063221fff81906106c1908d908590309060040161398d565b600060405180830381600087803b1580156106db57600080fd5b505af11580156106ef573d6000803e3d6000fd5b5050505060001995506000846001600160a01b03166318160ddd6040518163ffffffff1660e01b815260040160206040518083038186803b15801561073357600080fd5b505afa158015610747573d6000803e3d6000fd5b505050506040513d601f19601f8201168201806040525081019061076b91906135bf565b905060008460200151516001600160401b038111801561078a57600080fd5b506040519080825280602002602001820160405280156107b4578160200160208202803683370190505b50905060005b8560200151518110156108c657838282815181106107d457fe5b6020026020010181815250506000866020015182815181106107f257fe5b602002602001015190506000886001600160a01b031663f8b2cb4f836040518263ffffffff1660e01b815260040161082a9190613634565b60206040518083038186803b15801561084257600080fd5b505afa158015610856573d6000803e3d6000fd5b505050506040513d601f19601f8201168201806040525081019061087a91906135bf565b90506000670de0b6b3a764000060028704836706f05b59d3b1ffff198a8402018902816108a357fe5b0403816108ac57fe5b0490508b8110156108bb57809b505b5050506001016107ba565b506040516313da703560e21b81526001600160a01b03871690634f69c0d4906108f5908b908590600401613959565b600060405180830381600087803b15801561090f57600080fd5b505af1158015610923573d6000803e3d6000fd5b505050505050878610156109495760405162461bcd60e51b8152600401610405906137d6565b60405163a9059cbb60e01b81526001600160a01b0385169063a9059cbb90610977908a908a90600401613686565b602060405180830381600087803b15801561099157600080fd5b505af11580156109a5573d6000803e3d6000fd5b505050506040513d601f19601f820116820180604052508101906109c9919061330f565b508260200151516001600160401b03811180156109e557600080fd5b50604051908082528060200260200182016040528015610a0f578160200160208202803683370190505b50945060005b836020015151811015610b8c57600084602001518281518110610a3457fe5b60200260200101519050806001600160a01b03166370a08231306040518263ffffffff1660e01b8152600401610a6a9190613634565b60206040518083038186803b158015610a8257600080fd5b505afa158015610a96573d6000803e3d6000fd5b505050506040513d601f19601f82011682018060405250810190610aba91906135bf565b878381518110610ac657fe5b6020026020010181815250506000878381518110610ae057fe5b60200260200101511115610b8357806001600160a01b031663a9059cbb8a898581518110610b0a57fe5b60200260200101516040518363ffffffff1660e01b8152600401610b2f929190613686565b602060405180830381600087803b158015610b4957600080fd5b505af1158015610b5d573d6000803e3d6000fd5b505050506040513d601f19601f82011682018060405250810190610b81919061330f565b505b50600101610a15565b50336001600160a01b03168a8c6001600160a01b03167f9a1dccf45b5053e827f262e45fbb5211c2bd99497d340eecaebbd245eb48f4bc8a8d6000038b8b604051610bda949392919061369f565b60405180910390a4505050509550959350505050565b6001600160a01b03808616600090815260016020908152604080832088845290915281205490916060911680610c385760405162461bcd60e51b8152600401610405906138e0565b60405163eb44fdd360e01b81526000906001600160a01b038a169063eb44fdd390610c67908b9060040161373e565b60006040518083038186803b158015610c7f57600080fd5b505afa158015610c93573d6000803e3d6000fd5b505050506040513d6000823e601f3d908101601f19168201604052610cbb91908101906134fa565b6040516323b872dd60e01b81529091506001600160a01b038316906323b872dd90610cee90339030908c90600401613662565b602060405180830381600087803b158015610d0857600080fd5b505af1158015610d1c573d6000803e3d6000fd5b505050506040513d601f19601f82011682018060405250810190610d40919061330f565b50606060008260200151516001600160401b0381118015610d6057600080fd5b50604051908082528060200260200182016040528015610d8a578160200160208202803683370190505b5060405163ea40f3f760e01b81529091506001600160a01b0385169063ea40f3f790610dbc908c908590600401613959565b60006040518083038186803b158015610dd457600080fd5b505afa158015610de8573d6000803e3d6000fd5b505050506040513d6000823e601f3d908101601f19168201604052610e10919081019061328c565b60405163b02f0b7360e01b81529092506001600160a01b0385169063b02f0b7390610e41908c908590600401613959565b600060405180830381600087803b158015610e5b57600080fd5b505af1158015610e6f573d6000803e3d6000fd5b5060001993506000925050505b836020015151811015610eb6576000838281518110610e9757fe5b6020026020010151905082811015610ead578092505b50600101610e7c565b508a6001600160a01b0316637641ab016040518163ffffffff1660e01b815260040160206040518083038186803b158015610ef057600080fd5b505afa158015610f04573d6000803e3d6000fd5b505050506040513d601f19601f82011682018060405250810190610f2891906135bf565b8b6001600160a01b0316637641ab016040518163ffffffff1660e01b815260040160206040518083038186803b158015610f6157600080fd5b505afa158015610f75573d6000803e3d6000fd5b505050506040513d601f19601f82011682018060405250810190610f9991906135bf565b8281610fa157fe5b0402905060008b6001600160a01b03166353ac55f58c6040518263ffffffff1660e01b8152600401610fd3919061373e565b60206040518083038186803b158015610feb57600080fd5b505afa158015610fff573d6000803e3d6000fd5b505050506040513d601f19601f82011682018060405250810190611023919061330f565b905080156110b25760405163992c907960e01b81526001600160a01b038d169063992c907990611059908e908c90600401613942565b602060405180830381600087803b15801561107357600080fd5b505af1158015611087573d6000803e3d6000fd5b505050506040513d601f19601f820116820180604052508101906110ab91906135bf565b9650611137565b6040516335a9cdad60e01b81526001600160a01b038d16906335a9cdad906110e2908e9086908d9060040161398d565b602060405180830381600087803b1580156110fc57600080fd5b505af1158015611110573d6000803e3d6000fd5b505050506040513d601f19601f8201168201806040525081019061113491906135bf565b96505b8887116111565760405162461bcd60e51b815260040161040590613790565b8360200151516001600160401b038111801561117157600080fd5b5060405190808252806020026020018201604052801561119b578160200160208202803683370190505b50955060005b8460200151518110156112e0576000856020015182815181106111c057fe5b602002602001015190508280156111ec575085606001516001600160a01b0316816001600160a01b0316145b156111f757506112d8565b8385838151811061120457fe5b60200260200101510388838151811061121957fe5b602002602001018181525050600088838151811061123357fe5b602002602001015111156112d657806001600160a01b031663a9059cbb8b8a858151811061125d57fe5b60200260200101516040518363ffffffff1660e01b8152600401611282929190613686565b602060405180830381600087803b15801561129c57600080fd5b505af11580156112b0573d6000803e3d6000fd5b505050506040513d601f19601f820116820180604052508101906112d4919061330f565b505b505b6001016111a1565b50336001600160a01b03168b8d6001600160a01b03167f9a1dccf45b5053e827f262e45fbb5211c2bd99497d340eecaebbd245eb48f4bc8b8b8f6000038c60405161132e949392919061369f565b60405180910390a450505050509550959350505050565b6001600160a01b038083166000908152600160209081526040808320858452909152902054165b92915050565b6001600160a01b038086166000908152600160209081526040808320888452909152812054909116806113b75760405162461bcd60e51b8152600401610405906138e0565b60405163eb44fdd360e01b81526000906001600160a01b0389169063eb44fdd3906113e6908a9060040161373e565b60006040518083038186803b1580156113fe57600080fd5b505afa158015611412573d6000803e3d6000fd5b505050506040513d6000823e601f3d908101601f1916820160405261143a91908101906134fa565b90506000196000805b8360200151518110156114755787818151811061145c57fe5b6020026020010151820191508080600101915050611443565b508260200151888151811061148657fe5b60200260200101516001600160a01b03166323b872dd3330846040518463ffffffff1660e01b81526004016114bd93929190613662565b602060405180830381600087803b1580156114d757600080fd5b505af11580156114eb573d6000803e3d6000fd5b505050506040513d601f19601f8201168201806040525081019061150f919061330f565b508260200151888151811061152057fe5b60200260200101516001600160a01b031663095ea7b3856000196040518363ffffffff1660e01b8152600401611557929190613686565b602060405180830381600087803b15801561157157600080fd5b505af1158015611585573d6000803e3d6000fd5b505050506040513d601f19601f820116820180604052508101906115a9919061330f565b5060005b83602001515181101561179f57888114156115c757611797565b6000846020015182815181106115d957fe5b602002602001015190506000866001600160a01b0316638201aa3f87602001518d8151811061160457fe5b60200260200101518c868151811061161857fe5b60200260200101518560006000196040518663ffffffff1660e01b81526004016116469594939291906136d6565b6040805180830381600087803b15801561165f57600080fd5b505af1158015611673573d6000803e3d6000fd5b505050506040513d601f19601f8201168201806040525081019061169791906135d7565b5090508c6001600160a01b0316637641ab016040518163ffffffff1660e01b815260040160206040518083038186803b1580156116d357600080fd5b505afa1580156116e7573d6000803e3d6000fd5b505050506040513d601f19601f8201168201806040525081019061170b91906135bf565b8d6001600160a01b0316637641ab016040518163ffffffff1660e01b815260040160206040518083038186803b15801561174457600080fd5b505afa158015611758573d6000803e3d6000fd5b505050506040513d601f19601f8201168201806040525081019061177c91906135bf565b828161178457fe5b0402905084811015611794578094505b50505b6001016115ad565b50858210156117c05760405162461bcd60e51b81526004016104059061381e565b6040516335a9cdad60e01b81526001600160a01b038b16906335a9cdad906117f0908c908690339060040161398d565b602060405180830381600087803b15801561180a57600080fd5b505af115801561181e573d6000803e3d6000fd5b505050506040513d601f19601f8201168201806040525081019061184291906135bf565b5060005b8360200151518110156119815760008460200151828151811061186557fe5b602002602001015190506000816001600160a01b03166370a08231306040518263ffffffff1660e01b815260040161189d9190613634565b60206040518083038186803b1580156118b557600080fd5b505afa1580156118c9573d6000803e3d6000fd5b505050506040513d601f19601f820116820180604052508101906118ed91906135bf565b905080156119775760405163a9059cbb60e01b81526001600160a01b0383169063a9059cbb906119239033908590600401613686565b602060405180830381600087803b15801561193d57600080fd5b505af1158015611951573d6000803e3d6000fd5b505050506040513d601f19601f82011682018060405250810190611975919061330f565b505b5050600101611846565b5060405163239d36a960e11b81526000906001600160a01b038c169063473a6d52906119b190869060040161373e565b60206040518083038186803b1580156119c957600080fd5b505afa1580156119dd573d6000803e3d6000fd5b505050506040513d601f19601f82011682018060405250810190611a0191906135bf565b9050338a6001600160a01b038d167fec2a60d57293d00dfe68ab5f1d18738c4600ce39c0c0c623fc086814615f33fa8c856000889003611a418a8a612fd7565b604051611a519493929190613972565b60405180910390a49a9950505050505050505050565b6001600160a01b03808616600090815260016020908152604080832088845290915281205490911680611aac5760405162461bcd60e51b8152600401610405906138e0565b60405163eb44fdd360e01b81526000906001600160a01b0389169063eb44fdd390611adb908a9060040161373e565b60006040518083038186803b158015611af357600080fd5b505afa158015611b07573d6000803e3d6000fd5b505050506040513d6000823e601f3d908101601f19168201604052611b2f91908101906134fa565b90506000886001600160a01b031663d8dfeb456040518163ffffffff1660e01b815260040160206040518083038186803b158015611b6c57600080fd5b505afa158015611b80573d6000803e3d6000fd5b505050506040513d601f19601f82011682018060405250810190611ba491906134de565b6040516323b872dd60e01b81529091506001600160a01b038216906323b872dd90611bd790339030908b90600401613662565b602060405180830381600087803b158015611bf157600080fd5b505af1158015611c05573d6000803e3d6000fd5b505050506040513d601f19601f82011682018060405250810190611c29919061330f565b50604051636643d6f560e11b81526000906001600160a01b038b169063cc87adea90611c59908a9060040161373e565b60206040518083038186803b158015611c7157600080fd5b505afa158015611c85573d6000803e3d6000fd5b505050506040513d601f19601f82011682018060405250810190611ca991906135bf565b60405163221fff8160e01b81529091506001600160a01b038b169063221fff8190611cdc908c908590309060040161398d565b600060405180830381600087803b158015611cf657600080fd5b505af1158015611d0a573d6000803e3d6000fd5b505050506000819050600084602001518a81518110611d2557fe5b6020026020010151905060005b856020015151811015611e03578a811415611d4c57611dfb565b600086602001518281518110611d5e57fe5b602002602001015190506000886001600160a01b0316638201aa3f83888760006000196040518663ffffffff1660e01b8152600401611da19594939291906136d6565b6040805180830381600087803b158015611dba57600080fd5b505af1158015611dce573d6000803e3d6000fd5b505050506040513d601f19601f82011682018060405250810190611df291906135d7565b50949094019350505b600101611d32565b5087821015611e245760405162461bcd60e51b815260040161040590613917565b60405163a9059cbb60e01b81526001600160a01b0382169063a9059cbb90611e529033908690600401613686565b602060405180830381600087803b158015611e6c57600080fd5b505af1158015611e80573d6000803e3d6000fd5b505050506040513d601f19601f82011682018060405250810190611ea4919061330f565b5050336001600160a01b03168a8c6001600160a01b03167fec2a60d57293d00dfe68ab5f1d18738c4600ce39c0c0c623fc086814615f33fa8c8c60000386611a418989612fd7565b620f4240670de0b6b3a76400006103ad565b64e8d4a51000670de0b6b3a76400006103ad565b60016020908152600092835260408084209091529082529020546001600160a01b031681565b68056bc75e2d6310000081565b6704a03ce68d21555681565b6542524f4e5a4560d01b90565b6001600160a01b0380841660009081526001602090815260408083208684529091528082205490516370a0823160e01b81529192169081906370a0823190611faa908690600401613634565b60206040518083038186803b158015611fc257600080fd5b505afa158015611fd6573d6000803e3d6000fd5b505050506040513d601f19601f82011682018060405250810190611ffa91906135bf565b95945050505050565b600881565b600281565b600181565b600a670de0b6b3a76400006103ad565b671bc16d674ec7ffff81565b600081565b6001600160a01b0380831660009081526001602090815260408083208584529091529020546060911680612098576000805b5060405190808252806020026020018201604052801561208f578160200160208202803683370190505b5091505061136c565b60405163eb44fdd360e01b81526000906001600160a01b0386169063eb44fdd3906120c790879060040161373e565b60006040518083038186803b1580156120df57600080fd5b505afa1580156120f3573d6000803e3d6000fd5b505050506040513d6000823e601f3d908101601f1916820160405261211b91908101906134fa565b90506000816020015160008151811061213057fe5b6020026020010151905060008260200151516001600160401b038111801561215757600080fd5b50604051908082528060200260200182016040528015612181578160200160208202803683370190505b509050670de0b6b3a76400008160008151811061219a57fe5b602090810291909101015260015b83602001515181101561226f576000856001600160a01b03166315e84af985876020015185815181106121d757fe5b60200260200101516040518363ffffffff1660e01b81526004016121fc929190613648565b60206040518083038186803b15801561221457600080fd5b505afa158015612228573d6000803e3d6000fd5b505050506040513d601f19601f8201168201806040525081019061224c91906135bf565b90508083838151811061225b57fe5b6020908102919091010152506001016121a8565b509695505050505050565b6001600160a01b03808316600090815260016020908152604080832085845290915290205460609116806122b057600080612065565b6000816001600160a01b031663cc77828d6040518163ffffffff1660e01b815260040160006040518083038186803b1580156122eb57600080fd5b505afa1580156122ff573d6000803e3d6000fd5b505050506040513d6000823e601f3d908101601f1916820160405261232791908101906131f4565b9050600081516001600160401b038111801561234257600080fd5b5060405190808252806020026020018201604052801561236c578160200160208202803683370190505b50905060005b825181101561242957836001600160a01b031663948d8ce684838151811061239657fe5b60200260200101516040518263ffffffff1660e01b81526004016123ba9190613634565b60206040518083038186803b1580156123d257600080fd5b505afa1580156123e6573d6000803e3d6000fd5b505050506040513d601f19601f8201168201806040525081019061240a91906135bf565b82828151811061241657fe5b6020908102919091010152600101612372565b5095945050505050565b6001600160a01b038083166000908152600160209081526040808320858452909152902054606091168061246957600080612065565b6000816001600160a01b031663cc77828d6040518163ffffffff1660e01b815260040160006040518083038186803b1580156124a457600080fd5b505afa1580156124b8573d6000803e3d6000fd5b505050506040513d6000823e601f3d908101601f191682016040526124e091908101906131f4565b9050600081516001600160401b03811180156124fb57600080fd5b50604051908082528060200260200182016040528015612525578160200160208202803683370190505b50905060005b825181101561242957836001600160a01b031663f8b2cb4f84838151811061254f57fe5b60200260200101516040518263ffffffff1660e01b81526004016125739190613634565b60206040518083038186803b15801561258b57600080fd5b505afa15801561259f573d6000803e3d6000fd5b505050506040513d601f19601f820116820180604052508101906125c391906135bf565b8282815181106125cf57fe5b602090810291909101015260010161252b565b6002670de0b6b3a76400006103ad565b6001600160a01b0380831660009081526001602090815260408083208584528252808320548151631a995bed60e31b8152915193941692839263d4cadf689260048082019391829003018186803b15801561264c57600080fd5b505afa158015612660573d6000803e3d6000fd5b505050506040513d601f19601f8201168201806040525081019061268491906135bf565b949350505050565b6001600160a01b038581166000908152600160209081526040808320888452909152812054909116156126d15760405162461bcd60e51b815260040161040590613855565b60405163eb44fdd360e01b81526000906001600160a01b0388169063eb44fdd39061270090899060040161373e565b60006040518083038186803b15801561271857600080fd5b505afa15801561272c573d6000803e3d6000fd5b505050506040513d6000823e601f3d908101601f1916820160405261275491908101906134fa565b905080602001515184511461277b5760405162461bcd60e51b815260040161040590613747565b6000876001600160a01b031663d8dfeb456040518163ffffffff1660e01b815260040160206040518083038186803b1580156127b657600080fd5b505afa1580156127ca573d6000803e3d6000fd5b505050506040513d601f19601f820116820180604052508101906127ee91906134de565b905085816001600160a01b031663dd62ed3e33306040518363ffffffff1660e01b815260040161281f929190613648565b60206040518083038186803b15801561283757600080fd5b505afa15801561284b573d6000803e3d6000fd5b505050506040513d601f19601f8201168201806040525081019061286f91906135bf565b101561288d5760405162461bcd60e51b815260040161040590613883565b604051636643d6f560e11b81526000906001600160a01b038a169063cc87adea906128bc908a9060040161373e565b60206040518083038186803b1580156128d457600080fd5b505afa1580156128e8573d6000803e3d6000fd5b505050506040513d601f19601f8201168201806040525081019061290c91906135bf565b6040516323b872dd60e01b81529091506001600160a01b038316906323b872dd9061293f90339030908c90600401613662565b602060405180830381600087803b15801561295957600080fd5b505af115801561296d573d6000803e3d6000fd5b505050506040513d601f19601f82011682018060405250810190612991919061330f565b5060405163095ea7b360e01b81526001600160a01b0383169063095ea7b3906129c2908c9060001990600401613686565b602060405180830381600087803b1580156129dc57600080fd5b505af11580156129f0573d6000803e3d6000fd5b505050506040513d601f19601f82011682018060405250810190612a14919061330f565b5060405163221fff8160e01b81526001600160a01b038a169063221fff8190612a45908b908590309060040161398d565b600060405180830381600087803b158015612a5f57600080fd5b505af1158015612a73573d6000803e3d6000fd5b5050505060008060009054906101000a90046001600160a01b03166001600160a01b031663d556c5dc6040518163ffffffff1660e01b8152600401602060405180830381600087803b158015612ac857600080fd5b505af1158015612adc573d6000803e3d6000fd5b505050506040513d601f19601f82011682018060405250810190612b0091906134de565b905060005b846020015151811015612c3357600085602001518281518110612b2457fe5b60200260200101519050806001600160a01b031663095ea7b3846000196040518363ffffffff1660e01b8152600401612b5e929190613686565b602060405180830381600087803b158015612b7857600080fd5b505af1158015612b8c573d6000803e3d6000fd5b505050506040513d601f19601f82011682018060405250810190612bb0919061330f565b50826001600160a01b031663e4e1e53882868c8681518110612bce57fe5b60200260200101516040518463ffffffff1660e01b8152600401612bf49392919061370a565b600060405180830381600087803b158015612c0e57600080fd5b505af1158015612c22573d6000803e3d6000fd5b505060019093019250612b05915050565b506002546040516334e1990760e01b81526001600160a01b038316916334e1990791612c62919060040161373e565b600060405180830381600087803b158015612c7c57600080fd5b505af1158015612c90573d6000803e3d6000fd5b50505050806001600160a01b0316634bb278f36040518163ffffffff1660e01b8152600401600060405180830381600087803b158015612ccf57600080fd5b505af1158015612ce3573d6000803e3d6000fd5b505050506001600160a01b038a811660009081526001602090815260408083208d845290915280822080546001600160a01b0319169385169384179055516370a0823160e01b8152909166038d7ea4c68000916370a0823190612d4a903090600401613634565b60206040518083038186803b158015612d6257600080fd5b505afa158015612d76573d6000803e3d6000fd5b505050506040513d601f19601f82011682018060405250810190612d9a91906135bf565b60405163a9059cbb60e01b815291900391506001600160a01b0383169063a9059cbb90612dd59060009066038d7ea4c6800090600401613686565b602060405180830381600087803b158015612def57600080fd5b505af1158015612e03573d6000803e3d6000fd5b505050506040513d601f19601f82011682018060405250810190612e27919061330f565b5060405163a9059cbb60e01b81526001600160a01b0383169063a9059cbb90612e56908a908590600401613686565b602060405180830381600087803b158015612e7057600080fd5b505af1158015612e84573d6000803e3d6000fd5b505050506040513d601f19601f82011682018060405250810190612ea8919061330f565b5060008560200151516001600160401b0381118015612ec657600080fd5b50604051908082528060200260200182016040528015612ef0578160200160208202803683370190505b50905060005b866020015151811015612f24576000828281518110612f1157fe5b6020908102919091010152600101612ef6565b50336001600160a01b03168b8d6001600160a01b03167ffb27591822deac7913ea973cf845992f243e2ba5634ef8fbe0b6554aca37a428868c604051612f6b929190613648565b60405180910390a4336001600160a01b03168b8d6001600160a01b03167f9a1dccf45b5053e827f262e45fbb5211c2bd99497d340eecaebbd245eb48f4bc8b8e6000038787604051612fc0949392919061369f565b60405180910390a4509a9950505050505050505050565b60008161301a576040805162461bcd60e51b815260206004820152600c60248201526b4552525f4449565f5a45524f60a01b604482015290519081900360640190fd5b670de0b6b3a764000083028315806130425750670de0b6b3a764000084828161303f57fe5b04145b613086576040805162461bcd60e51b815260206004820152601060248201526f11549497d1125597d25395115493905360821b604482015290519081900360640190fd5b600283048101818110156130d4576040805162461bcd60e51b815260206004820152601060248201526f11549497d1125597d25395115493905360821b604482015290519081900360640190fd5b60008482816130df57fe5b049695505050505050565b80516130f5816139ec565b919050565b600082601f83011261310a578081fd5b8151602061311f61311a836139cf565b6139ac565b828152818101908583018385028701840188101561313b578586fd5b855b85811015613162578151613150816139ec565b8452928401929084019060010161313d565b5090979650505050505050565b600082601f83011261317f578081fd5b8135602061318f61311a836139cf565b82815281810190858301838502870184018810156131ab578586fd5b855b85811015613162578135845292840192908401906001016131ad565b600080604083850312156131db578182fd5b82356131e6816139ec565b946020939093013593505050565b60006020808385031215613206578182fd5b82516001600160401b0381111561321b578283fd5b8301601f8101851361322b578283fd5b805161323961311a826139cf565b8181528381019083850185840285018601891015613255578687fd5b8694505b8385101561328057805161326c816139ec565b835260019490940193918501918501613259565b50979650505050505050565b6000602080838503121561329e578182fd5b82516001600160401b038111156132b3578283fd5b8301601f810185136132c3578283fd5b80516132d161311a826139cf565b81815283810190838501858402850186018910156132ed578687fd5b8694505b838510156132805780518352600194909401939185019185016132f1565b600060208284031215613320578081fd5b8151801515811461332f578182fd5b9392505050565b60008060006060848603121561334a578081fd5b8335613355816139ec565b925060208401359150604084013561336c816139ec565b809150509250925092565b600080600080600060a0868803121561338e578283fd5b8535613399816139ec565b9450602086013593506040860135925060608601356001600160401b038111156133c1578182fd5b6133cd8882890161316f565b92505060808601356133de816139ec565b809150509295509295909350565b600080600080600060a08688031215613403578283fd5b853561340e816139ec565b9450602086013593506040860135925060608601356001600160401b03811115613436578182fd5b6134428882890161316f565b95989497509295608001359392505050565b600080600080600060a0868803121561346b578283fd5b8535613476816139ec565b945060208601359350604086013592506060860135915060808601356133de816139ec565b600080600080600060a086880312156134b2578283fd5b85356134bd816139ec565b97602087013597506040870135966060810135965060800135945092505050565b6000602082840312156134ef578081fd5b815161332f816139ec565b60006020828403121561350b578081fd5b81516001600160401b0380821115613521578283fd5b8184019150610100808387031215613537578384fd5b613540816139ac565b905061354b836130ea565b815260208301518281111561355e578485fd5b61356a878286016130fa565b60208301525060408301516040820152613586606084016130ea565b60608201526080830151608082015260a083015160a082015260c083015160c082015260e083015160e082015280935050505092915050565b6000602082840312156135d0578081fd5b5051919050565b600080604083850312156135e9578182fd5b505080516020909101519092909150565b6000815180845260208085019450808401835b838110156136295781518752958201959082019060010161360d565b509495945050505050565b6001600160a01b0391909116815260200190565b6001600160a01b0392831681529116602082015260400190565b6001600160a01b039384168152919092166020820152604081019190915260600190565b6001600160a01b03929092168252602082015260400190565b600060018060a01b0386168252846020830152836040830152608060608301526136cc60808301846135fa565b9695505050505050565b6001600160a01b03958616815260208101949094529190931660408301526060820192909252608081019190915260a00190565b6001600160a01b039390931683526020830191909152604082015260600190565b60006020825261332f60208301846135fa565b90815260200190565b60208082526029908201527f4d7573742068617665206f6e652077656967687420666f72206561636820736860408201526830b932903a37b5b2b760b91b606082015260800190565b60208082526026908201527f416d6f756e74206f6620636f6c6c61746572616c2072657475726e656420746f60408201526537903637bb9760d11b606082015260800190565b60208082526028908201527f576f756c64206e6f74206861766520726563656976656420656e6f756768204c6040820152675020746f6b656e7360c01b606082015260800190565b6020808252601b908201527f4d696e696d756d2073657473206e6f7420617661696c61626c652e0000000000604082015260600190565b602080825260149082015273141bdbdb08185b1c9958591e4818dc99585d195960621b604082015260600190565b60208082526037908201527f696e73756666696369656e7420636f6c6c61746572616c20616c6c6f77616e6360408201527f6520666f7220696e697469616c206c6971756964697479000000000000000000606082015260800190565b60208082526018908201527f506f6f6c206e6565647320746f20626520637265617465640000000000000000604082015260600190565b60208082526011908201527014db1a5c1c1859d948195e18d959591959607a1b604082015260600190565b9182526001600160a01b0316602082015260400190565b60008382526040602083015261268460408301846135fa565b93845260208401929092526040830152606082015260800190565b92835260208301919091526001600160a01b0316604082015260600190565b6040518181016001600160401b03811182821017156139c757fe5b604052919050565b60006001600160401b038211156139e257fe5b5060209081020190565b6001600160a01b0381168114613a0157600080fd5b5056fea2646970667358221220a2c12e994d4e992f36d69ea879fe8aa38b5ec5606440ba21bee43a6f7d9495b064736f6c63430007060033",
  "devdoc": {
    "kind": "dev",
    "methods": {},
    "version": 1
  },
  "userdoc": {
    "kind": "user",
    "methods": {},
    "version": 1
  },
  "storageLayout": {
    "storage": [
      {
        "astId": 6311,
        "contract": "contracts/turbo/AMMFactory.sol:AMMFactory",
        "label": "bFactory",
        "offset": 0,
        "slot": "0",
        "type": "t_contract(BFactory)1270"
      },
      {
        "astId": 6317,
        "contract": "contracts/turbo/AMMFactory.sol:AMMFactory",
        "label": "pools",
        "offset": 0,
        "slot": "1",
        "type": "t_mapping(t_address,t_mapping(t_uint256,t_contract(BPool)4606))"
      },
      {
        "astId": 6319,
        "contract": "contracts/turbo/AMMFactory.sol:AMMFactory",
        "label": "fee",
        "offset": 0,
        "slot": "2",
        "type": "t_uint256"
      }
    ],
    "types": {
      "t_address": {
        "encoding": "inplace",
        "label": "address",
        "numberOfBytes": "20"
      },
      "t_contract(BFactory)1270": {
        "encoding": "inplace",
        "label": "contract BFactory",
        "numberOfBytes": "20"
      },
      "t_contract(BPool)4606": {
        "encoding": "inplace",
        "label": "contract BPool",
        "numberOfBytes": "20"
      },
      "t_mapping(t_address,t_mapping(t_uint256,t_contract(BPool)4606))": {
        "encoding": "mapping",
        "key": "t_address",
        "label": "mapping(address => mapping(uint256 => contract BPool))",
        "numberOfBytes": "32",
        "value": "t_mapping(t_uint256,t_contract(BPool)4606)"
      },
      "t_mapping(t_uint256,t_contract(BPool)4606)": {
        "encoding": "mapping",
        "key": "t_uint256",
        "label": "mapping(uint256 => contract BPool)",
        "numberOfBytes": "32",
        "value": "t_contract(BPool)4606"
      },
      "t_uint256": {
        "encoding": "inplace",
        "label": "uint256",
        "numberOfBytes": "32"
      }
    }
  }
}