{
  "address": "0x9381D4B5e7bEB89899da34dA60Ed5170D91E032A",
  "abi": [
    {
      "inputs": [
        {
          "internalType": "contract BFactory",
          "name": "_bFactory",
          "type": "address"
        },
        {
          "internalType": "uint256",
          "name": "_fee",
          "type": "uint256"
        }
      ],
      "stateMutability": "nonpayable",
      "type": "constructor"
    },
    {
      "anonymous": false,
      "inputs": [
        {
          "indexed": true,
          "internalType": "address",
          "name": "marketFactory",
          "type": "address"
        },
        {
          "indexed": true,
          "internalType": "uint256",
          "name": "marketId",
          "type": "uint256"
        },
        {
          "indexed": true,
          "internalType": "address",
          "name": "user",
          "type": "address"
        },
        {
          "indexed": false,
          "internalType": "address",
          "name": "recipient",
          "type": "address"
        },
        {
          "indexed": false,
          "internalType": "int256",
          "name": "collateral",
          "type": "int256"
        },
        {
          "indexed": false,
          "internalType": "int256",
          "name": "lpTokens",
          "type": "int256"
        },
        {
          "indexed": false,
          "internalType": "uint256[]",
          "name": "sharesReturned",
          "type": "uint256[]"
        }
      ],
      "name": "LiquidityChanged",
      "type": "event"
    },
    {
      "anonymous": false,
      "inputs": [
        {
          "indexed": false,
          "internalType": "address",
          "name": "pool",
          "type": "address"
        },
        {
          "indexed": true,
          "internalType": "address",
          "name": "marketFactory",
          "type": "address"
        },
        {
          "indexed": true,
          "internalType": "uint256",
          "name": "marketId",
          "type": "uint256"
        },
        {
          "indexed": true,
          "internalType": "address",
          "name": "creator",
          "type": "address"
        },
        {
          "indexed": false,
          "internalType": "address",
          "name": "lpTokenRecipient",
          "type": "address"
        }
      ],
      "name": "PoolCreated",
      "type": "event"
    },
    {
      "anonymous": false,
      "inputs": [
        {
          "indexed": true,
          "internalType": "address",
          "name": "marketFactory",
          "type": "address"
        },
        {
          "indexed": true,
          "internalType": "uint256",
          "name": "marketId",
          "type": "uint256"
        },
        {
          "indexed": true,
          "internalType": "address",
          "name": "user",
          "type": "address"
        },
        {
          "indexed": false,
          "internalType": "uint256",
          "name": "outcome",
          "type": "uint256"
        },
        {
          "indexed": false,
          "internalType": "int256",
          "name": "collateral",
          "type": "int256"
        },
        {
          "indexed": false,
          "internalType": "int256",
          "name": "shares",
          "type": "int256"
        },
        {
          "indexed": false,
          "internalType": "uint256[]",
          "name": "inOutRatio",
          "type": "uint256[]"
        },
        {
          "indexed": false,
          "internalType": "uint256",
          "name": "price",
          "type": "uint256"
        }
      ],
      "name": "SharesSwapped",
      "type": "event"
    },
    {
      "inputs": [],
      "name": "BONE",
      "outputs": [
        {
          "internalType": "uint256",
          "name": "",
          "type": "uint256"
        }
      ],
      "stateMutability": "view",
      "type": "function"
    },
    {
      "inputs": [],
      "name": "BPOW_PRECISION",
      "outputs": [
        {
          "internalType": "uint256",
          "name": "",
          "type": "uint256"
        }
      ],
      "stateMutability": "view",
      "type": "function"
    },
    {
      "inputs": [],
      "name": "EXIT_FEE",
      "outputs": [
        {
          "internalType": "uint256",
          "name": "",
          "type": "uint256"
        }
      ],
      "stateMutability": "view",
      "type": "function"
    },
    {
      "inputs": [],
      "name": "INIT_POOL_SUPPLY",
      "outputs": [
        {
          "internalType": "uint256",
          "name": "",
          "type": "uint256"
        }
      ],
      "stateMutability": "view",
      "type": "function"
    },
    {
      "inputs": [],
      "name": "MAX_BOUND_TOKENS",
      "outputs": [
        {
          "internalType": "uint256",
          "name": "",
          "type": "uint256"
        }
      ],
      "stateMutability": "view",
      "type": "function"
    },
    {
      "inputs": [],
      "name": "MAX_BPOW_BASE",
      "outputs": [
        {
          "internalType": "uint256",
          "name": "",
          "type": "uint256"
        }
      ],
      "stateMutability": "view",
      "type": "function"
    },
    {
      "inputs": [],
      "name": "MAX_FEE",
      "outputs": [
        {
          "internalType": "uint256",
          "name": "",
          "type": "uint256"
        }
      ],
      "stateMutability": "view",
      "type": "function"
    },
    {
      "inputs": [],
      "name": "MAX_IN_RATIO",
      "outputs": [
        {
          "internalType": "uint256",
          "name": "",
          "type": "uint256"
        }
      ],
      "stateMutability": "view",
      "type": "function"
    },
    {
      "inputs": [],
      "name": "MAX_OUT_RATIO",
      "outputs": [
        {
          "internalType": "uint256",
          "name": "",
          "type": "uint256"
        }
      ],
      "stateMutability": "view",
      "type": "function"
    },
    {
      "inputs": [],
      "name": "MAX_TOTAL_WEIGHT",
      "outputs": [
        {
          "internalType": "uint256",
          "name": "",
          "type": "uint256"
        }
      ],
      "stateMutability": "view",
      "type": "function"
    },
    {
      "inputs": [],
      "name": "MAX_WEIGHT",
      "outputs": [
        {
          "internalType": "uint256",
          "name": "",
          "type": "uint256"
        }
      ],
      "stateMutability": "view",
      "type": "function"
    },
    {
      "inputs": [],
      "name": "MIN_BALANCE",
      "outputs": [
        {
          "internalType": "uint256",
          "name": "",
          "type": "uint256"
        }
      ],
      "stateMutability": "view",
      "type": "function"
    },
    {
      "inputs": [],
      "name": "MIN_BOUND_TOKENS",
      "outputs": [
        {
          "internalType": "uint256",
          "name": "",
          "type": "uint256"
        }
      ],
      "stateMutability": "view",
      "type": "function"
    },
    {
      "inputs": [],
      "name": "MIN_BPOW_BASE",
      "outputs": [
        {
          "internalType": "uint256",
          "name": "",
          "type": "uint256"
        }
      ],
      "stateMutability": "view",
      "type": "function"
    },
    {
      "inputs": [],
      "name": "MIN_FEE",
      "outputs": [
        {
          "internalType": "uint256",
          "name": "",
          "type": "uint256"
        }
      ],
      "stateMutability": "view",
      "type": "function"
    },
    {
      "inputs": [],
      "name": "MIN_WEIGHT",
      "outputs": [
        {
          "internalType": "uint256",
          "name": "",
          "type": "uint256"
        }
      ],
      "stateMutability": "view",
      "type": "function"
    },
    {
      "inputs": [
        {
          "internalType": "contract AbstractMarketFactory",
          "name": "_marketFactory",
          "type": "address"
        },
        {
          "internalType": "uint256",
          "name": "_marketId",
          "type": "uint256"
        },
        {
          "internalType": "uint256",
          "name": "_collateralIn",
          "type": "uint256"
        },
        {
          "internalType": "uint256",
          "name": "_minLPTokensOut",
          "type": "uint256"
        },
        {
          "internalType": "address",
          "name": "_lpTokenRecipient",
          "type": "address"
        }
      ],
      "name": "addLiquidity",
      "outputs": [
        {
          "internalType": "uint256",
          "name": "_poolAmountOut",
          "type": "uint256"
        },
        {
          "internalType": "uint256[]",
          "name": "_balances",
          "type": "uint256[]"
        }
      ],
      "stateMutability": "nonpayable",
      "type": "function"
    },
    {
      "inputs": [],
      "name": "bFactory",
      "outputs": [
        {
          "internalType": "contract BFactory",
          "name": "",
          "type": "address"
        }
      ],
      "stateMutability": "view",
      "type": "function"
    },
    {
      "inputs": [
        {
          "internalType": "contract AbstractMarketFactory",
          "name": "_marketFactory",
          "type": "address"
        },
        {
          "internalType": "uint256",
          "name": "_marketId",
          "type": "uint256"
        },
        {
          "internalType": "uint256",
          "name": "_outcome",
          "type": "uint256"
        },
        {
          "internalType": "uint256",
          "name": "_collateralIn",
          "type": "uint256"
        },
        {
          "internalType": "uint256",
          "name": "_minTokensOut",
          "type": "uint256"
        }
      ],
      "name": "buy",
      "outputs": [
        {
          "internalType": "uint256",
          "name": "",
          "type": "uint256"
        }
      ],
      "stateMutability": "nonpayable",
      "type": "function"
    },
    {
      "inputs": [
        {
          "internalType": "contract AbstractMarketFactory",
          "name": "_marketFactory",
          "type": "address"
        },
        {
          "internalType": "uint256",
          "name": "_marketId",
          "type": "uint256"
        },
        {
          "internalType": "uint256",
          "name": "_initialLiquidity",
          "type": "uint256"
        },
        {
          "internalType": "uint256[]",
          "name": "_weights",
          "type": "uint256[]"
        },
        {
          "internalType": "address",
          "name": "_lpTokenRecipient",
          "type": "address"
        }
      ],
      "name": "createPool",
      "outputs": [
        {
          "internalType": "uint256",
          "name": "",
          "type": "uint256"
        }
      ],
      "stateMutability": "nonpayable",
      "type": "function"
    },
    {
      "inputs": [],
      "name": "getColor",
      "outputs": [
        {
          "internalType": "bytes32",
          "name": "",
          "type": "bytes32"
        }
      ],
      "stateMutability": "pure",
      "type": "function"
    },
    {
      "inputs": [
        {
          "internalType": "contract AbstractMarketFactory",
          "name": "_marketFactory",
          "type": "address"
        },
        {
          "internalType": "uint256",
          "name": "_marketId",
          "type": "uint256"
        }
      ],
      "name": "getPool",
      "outputs": [
        {
          "internalType": "contract BPool",
          "name": "",
          "type": "address"
        }
      ],
      "stateMutability": "view",
      "type": "function"
    },
    {
      "inputs": [
        {
          "internalType": "contract AbstractMarketFactory",
          "name": "_marketFactory",
          "type": "address"
        },
        {
          "internalType": "uint256",
          "name": "_marketId",
          "type": "uint256"
        }
      ],
      "name": "getPoolBalances",
      "outputs": [
        {
          "internalType": "uint256[]",
          "name": "",
          "type": "uint256[]"
        }
      ],
      "stateMutability": "view",
      "type": "function"
    },
    {
      "inputs": [
        {
          "internalType": "contract AbstractMarketFactory",
          "name": "_marketFactory",
          "type": "address"
        },
        {
          "internalType": "uint256",
          "name": "_marketId",
          "type": "uint256"
        },
        {
          "internalType": "address",
          "name": "whom",
          "type": "address"
        }
      ],
      "name": "getPoolTokenBalance",
      "outputs": [
        {
          "internalType": "uint256",
          "name": "",
          "type": "uint256"
        }
      ],
      "stateMutability": "view",
      "type": "function"
    },
    {
      "inputs": [
        {
          "internalType": "contract AbstractMarketFactory",
          "name": "_marketFactory",
          "type": "address"
        },
        {
          "internalType": "uint256",
          "name": "_marketId",
          "type": "uint256"
        }
      ],
      "name": "getPoolWeights",
      "outputs": [
        {
          "internalType": "uint256[]",
          "name": "",
          "type": "uint256[]"
        }
      ],
      "stateMutability": "view",
      "type": "function"
    },
    {
      "inputs": [
        {
          "internalType": "contract AbstractMarketFactory",
          "name": "_marketFactory",
          "type": "address"
        },
        {
          "internalType": "uint256",
          "name": "_marketId",
          "type": "uint256"
        }
      ],
      "name": "getSwapFee",
      "outputs": [
        {
          "internalType": "uint256",
          "name": "",
          "type": "uint256"
        }
      ],
      "stateMutability": "view",
      "type": "function"
    },
    {
      "inputs": [
        {
          "internalType": "address",
          "name": "",
          "type": "address"
        },
        {
          "internalType": "uint256",
          "name": "",
          "type": "uint256"
        }
      ],
      "name": "pools",
      "outputs": [
        {
          "internalType": "contract BPool",
          "name": "",
          "type": "address"
        }
      ],
      "stateMutability": "view",
      "type": "function"
    },
    {
      "inputs": [
        {
          "internalType": "contract AbstractMarketFactory",
          "name": "_marketFactory",
          "type": "address"
        },
        {
          "internalType": "uint256",
          "name": "_marketId",
          "type": "uint256"
        },
        {
          "internalType": "uint256",
          "name": "_lpTokensIn",
          "type": "uint256"
        },
        {
          "internalType": "uint256",
          "name": "_minCollateralOut",
          "type": "uint256"
        },
        {
          "internalType": "address",
          "name": "_collateralRecipient",
          "type": "address"
        }
      ],
      "name": "removeLiquidity",
      "outputs": [
        {
          "internalType": "uint256",
          "name": "_collateralOut",
          "type": "uint256"
        },
        {
          "internalType": "uint256[]",
          "name": "_balances",
          "type": "uint256[]"
        }
      ],
      "stateMutability": "nonpayable",
      "type": "function"
    },
    {
      "inputs": [
        {
          "internalType": "contract AbstractMarketFactory",
          "name": "_marketFactory",
          "type": "address"
        },
        {
          "internalType": "uint256",
          "name": "_marketId",
          "type": "uint256"
        },
        {
          "internalType": "uint256",
          "name": "_outcome",
          "type": "uint256"
        },
        {
          "internalType": "uint256",
          "name": "_shareTokensIn",
          "type": "uint256"
        },
        {
          "internalType": "uint256",
          "name": "_setsOut",
          "type": "uint256"
        }
      ],
      "name": "sellForCollateral",
      "outputs": [
        {
          "internalType": "uint256",
          "name": "",
          "type": "uint256"
        }
      ],
      "stateMutability": "nonpayable",
      "type": "function"
    },
    {
      "inputs": [
        {
          "internalType": "contract AbstractMarketFactory",
          "name": "_marketFactory",
          "type": "address"
        },
        {
          "internalType": "uint256",
          "name": "_marketId",
          "type": "uint256"
        }
      ],
      "name": "tokenRatios",
      "outputs": [
        {
          "internalType": "uint256[]",
          "name": "",
          "type": "uint256[]"
        }
      ],
      "stateMutability": "view",
      "type": "function"
    }
  ],
  "transactionHash": "0x9a19af4816a0ed596a5b9ef29581755a816c7c7811079333fb96d90cbbe40e62",
  "args": [
    "0xE152327f9700F1733d12e7a507045FB4A4606C6F",
    "15000000000000000"
  ],
  "solcInputHash": "8a40dc092a8d7171d206c9a472ee82dc",
  "bytecode": "0x60806040523480156200001157600080fd5b50604051620037c7380380620037c783398101604081905262000034916200005e565b600080546001600160a01b0319166001600160a01b03939093169290921790915560025562000098565b6000806040838503121562000071578182fd5b82516001600160a01b038116811462000088578283fd5b6020939093015192949293505050565b61371f80620000a86000396000f3fe608060405234801561001057600080fd5b50600436106101da5760003560e01c8063a0147aa111610104578063c6580d12116100a2578063e4a28a5211610071578063e4a28a52146101df578063ec09302114610353578063fa0de3591461035b578063fd212cf61461036e576101da565b8063c6580d1214610305578063c7b4b6dd1461030d578063d055da711461032d578063d2364bf314610340576101da565b8063ba019dab116100de578063ba019dab146102ed578063bc063e1a146102f5578063bc694ea2146102fd578063c36596a61461021a576101da565b8063a0147aa1146102ca578063b0e0d136146102dd578063b7b800a4146102e5576101da565b80635b5b9ea21161017c5780638f38a5551161014b5780638f38a5551461029f5780639381cd2b146102b2578063992e2a92146102ba5780639a86139b146102c2576101da565b80635b5b9ea21461026957806372b60c301461027c57806376c7a3c71461028f578063867378c514610297576101da565b8063218b5382116101b8578063218b53821461021a5780633fec5cac1461022257806345fa67831461023557806359f842b214610256576101da565b806309a3bbe4146101df5780630a165940146101fd578063189d00ca14610212575b600080fd5b6101e7610381565b6040516101f49190613455565b60405180910390f35b61020561038e565b6040516101f4919061334b565b6101e761039d565b6101e76103b1565b6101e76102303660046131b2565b6103bd565b61024861024336600461315d565b6108e4565b6040516101f4929190613622565b61024861026436600461315d565b61110e565b610205610277366004612ee7565b61172b565b6101e761028a3660046131b2565b611758565b6101e7611c70565b6101e7611c82565b6102056102ad366004612ee7565b611c96565b6101e7611cbc565b6101e7611cc9565b6101e7611cd5565b6101e76102d8366004613054565b611ce2565b6101e7611d87565b6101e7611d8c565b6101e7611d91565b6101e7611d96565b6101e7611da6565b6101e7611db2565b61032061031b366004612ee7565b611db7565b6040516101f49190613442565b61032061033b366004612ee7565b611ffe565b61032061034e366004612ee7565b6121b7565b6101e7612366565b6101e7610369366004612ee7565b612376565b6101e761037c366004613095565b612410565b6802b5e3af16b188000081565b6000546001600160a01b031681565b6402540be400670de0b6b3a76400005b0481565b670de0b6b3a764000081565b6001600160a01b0380861660009081526001602090815260408083208884529091528120549091168061040b5760405162461bcd60e51b8152600401610402906135c0565b60405180910390fd5b60405163eb44fdd360e01b815283906000906001600160a01b038a169063eb44fdd39061043c908b90600401613455565b60006040518083038186803b15801561045457600080fd5b505afa158015610468573d6000803e3d6000fd5b505050506040513d6000823e601f3d908101601f191682016040526104909190810190613211565b905060008160200151516001600160401b03811180156104af57600080fd5b506040519080825280602002602001820160405280156104d9578160200160208202803683370190505b5090506000826020015189815181106104ee57fe5b60200260200101519050806001600160a01b03166323b872dd33308b6040518463ffffffff1660e01b815260040161052893929190613379565b602060405180830381600087803b15801561054257600080fd5b505af1158015610556573d6000803e3d6000fd5b505050506040513d601f19601f8201168201806040525081019061057a919061302d565b5060405163095ea7b360e01b81526001600160a01b0382169063095ea7b3906105ab9088906000199060040161339d565b602060405180830381600087803b1580156105c557600080fd5b505af11580156105d9573d6000803e3d6000fd5b505050506040513d601f19601f820116820180604052508101906105fd919061302d565b5060005b8360200151518110156106f5578981141561061b576106ed565b60008460200151828151811061062d57fe5b602002602001015190506000876001600160a01b0316637c5e9ea485600019858e6000196040518663ffffffff1660e01b81526004016106719594939291906133ed565b6040805180830381600087803b15801561068a57600080fd5b505af115801561069e573d6000803e3d6000fd5b505050506040513d601f19601f820116820180604052508101906106c291906132ee565b5090506106cf818b612d44565b8584815181106106db57fe5b60209081029190910101529590950194505b600101610601565b506040516335a9cdad60e01b81526001600160a01b038c16906335a9cdad90610726908d908b903390600401613672565b602060405180830381600087803b15801561074057600080fd5b505af1158015610754573d6000803e3d6000fd5b505050506040513d601f19601f8201168201806040525081019061077891906132d6565b5060405163a9059cbb60e01b81526001600160a01b0382169063a9059cbb906107a9903390888d039060040161339d565b602060405180830381600087803b1580156107c357600080fd5b505af11580156107d7573d6000803e3d6000fd5b505050506040513d601f19601f820116820180604052508101906107fb919061302d565b505060405163239d36a960e11b81526000906001600160a01b038c169063473a6d529061082c908a90600401613455565b60206040518083038186803b15801561084457600080fd5b505afa158015610858573d6000803e3d6000fd5b505050506040513d601f19601f8201168201806040525081019061087c91906132d6565b9050338a6001600160a01b038d167f9a8518831e2d9c2ea12fd8df17781e97121a2d578e17a7c0ddf4462f89fdd5a08c8560008a9003886108bd8f8d612d44565b6040516108ce95949392919061363b565b60405180910390a49a9950505050505050505050565b6001600160a01b0380861660009081526001602090815260408083208884529091528120549091606091168061092c5760405162461bcd60e51b8152600401610402906135c0565b60405163eb44fdd360e01b81526000906001600160a01b038a169063eb44fdd39061095b908b90600401613455565b60006040518083038186803b15801561097357600080fd5b505afa158015610987573d6000803e3d6000fd5b505050506040513d6000823e601f3d908101601f191682016040526109af9190810190613211565b90506000896001600160a01b031663d8dfeb456040518163ffffffff1660e01b815260040160206040518083038186803b1580156109ec57600080fd5b505afa158015610a00573d6000803e3d6000fd5b505050506040513d601f19601f82011682018060405250810190610a2491906131f5565b6040516323b872dd60e01b81529091506001600160a01b038216906323b872dd90610a5790339030908d90600401613379565b602060405180830381600087803b158015610a7157600080fd5b505af1158015610a85573d6000803e3d6000fd5b505050506040513d601f19601f82011682018060405250810190610aa9919061302d565b5060405163095ea7b360e01b81526001600160a01b0382169063095ea7b390610ada908d906000199060040161339d565b602060405180830381600087803b158015610af457600080fd5b505af1158015610b08573d6000803e3d6000fd5b505050506040513d601f19601f82011682018060405250810190610b2c919061302d565b50604051636643d6f560e11b81526000906001600160a01b038c169063cc87adea90610b5c908c90600401613455565b60206040518083038186803b158015610b7457600080fd5b505afa158015610b88573d6000803e3d6000fd5b505050506040513d601f19601f82011682018060405250810190610bac91906132d6565b60405163221fff8160e01b81529091506001600160a01b038c169063221fff8190610bdf908d9085903090600401613672565b600060405180830381600087803b158015610bf957600080fd5b505af1158015610c0d573d6000803e3d6000fd5b5050505060001995506000846001600160a01b03166318160ddd6040518163ffffffff1660e01b815260040160206040518083038186803b158015610c5157600080fd5b505afa158015610c65573d6000803e3d6000fd5b505050506040513d601f19601f82011682018060405250810190610c8991906132d6565b905060008460200151516001600160401b0381118015610ca857600080fd5b50604051908082528060200260200182016040528015610cd2578160200160208202803683370190505b50905060005b856020015151811015610de45783828281518110610cf257fe5b602002602001018181525050600086602001518281518110610d1057fe5b602002602001015190506000886001600160a01b031663f8b2cb4f836040518263ffffffff1660e01b8152600401610d48919061334b565b60206040518083038186803b158015610d6057600080fd5b505afa158015610d74573d6000803e3d6000fd5b505050506040513d601f19601f82011682018060405250810190610d9891906132d6565b90506000670de0b6b3a764000060028704836706f05b59d3b1ffff198a840201890281610dc157fe5b040381610dca57fe5b0490508b811015610dd957809b505b505050600101610cd8565b506040516313da703560e21b81526001600160a01b03871690634f69c0d490610e13908b908590600401613622565b600060405180830381600087803b158015610e2d57600080fd5b505af1158015610e41573d6000803e3d6000fd5b50505050505087861015610e675760405162461bcd60e51b8152600401610402906134ed565b60405163a9059cbb60e01b81526001600160a01b0385169063a9059cbb90610e95908a908a9060040161339d565b602060405180830381600087803b158015610eaf57600080fd5b505af1158015610ec3573d6000803e3d6000fd5b505050506040513d601f19601f82011682018060405250810190610ee7919061302d565b508260200151516001600160401b0381118015610f0357600080fd5b50604051908082528060200260200182016040528015610f2d578160200160208202803683370190505b50945060005b8360200151518110156110aa57600084602001518281518110610f5257fe5b60200260200101519050806001600160a01b03166370a08231306040518263ffffffff1660e01b8152600401610f88919061334b565b60206040518083038186803b158015610fa057600080fd5b505afa158015610fb4573d6000803e3d6000fd5b505050506040513d601f19601f82011682018060405250810190610fd891906132d6565b878381518110610fe457fe5b6020026020010181815250506000878381518110610ffe57fe5b602002602001015111156110a157806001600160a01b031663a9059cbb8a89858151811061102857fe5b60200260200101516040518363ffffffff1660e01b815260040161104d92919061339d565b602060405180830381600087803b15801561106757600080fd5b505af115801561107b573d6000803e3d6000fd5b505050506040513d601f19601f8201168201806040525081019061109f919061302d565b505b50600101610f33565b50336001600160a01b03168a8c6001600160a01b03167f9a1dccf45b5053e827f262e45fbb5211c2bd99497d340eecaebbd245eb48f4bc8a8d6000038b8b6040516110f894939291906133b6565b60405180910390a4505050509550959350505050565b6001600160a01b038086166000908152600160209081526040808320888452909152812054909160609116806111565760405162461bcd60e51b8152600401610402906135c0565b60405163eb44fdd360e01b81526000906001600160a01b038a169063eb44fdd390611185908b90600401613455565b60006040518083038186803b15801561119d57600080fd5b505afa1580156111b1573d6000803e3d6000fd5b505050506040513d6000823e601f3d908101601f191682016040526111d99190810190613211565b6040516323b872dd60e01b81529091506001600160a01b038316906323b872dd9061120c90339030908c90600401613379565b602060405180830381600087803b15801561122657600080fd5b505af115801561123a573d6000803e3d6000fd5b505050506040513d601f19601f8201168201806040525081019061125e919061302d565b5060008160200151516001600160401b038111801561127c57600080fd5b506040519080825280602002602001820160405280156112a6578160200160208202803683370190505b5090506000836001600160a01b031663ea40f3f78a846040518363ffffffff1660e01b81526004016112d9929190613622565b60006040518083038186803b1580156112f157600080fd5b505afa158015611305573d6000803e3d6000fd5b505050506040513d6000823e601f3d908101601f1916820160405261132d9190810190612faa565b60405163b02f0b7360e01b81529091506001600160a01b0385169063b02f0b739061135e908c908690600401613622565b600060405180830381600087803b15801561137857600080fd5b505af115801561138c573d6000803e3d6000fd5b50600019925060009150505b8460200151518110156113d25760008382815181106113b357fe5b60200260200101519050828110156113c9578092505b50600101611398565b508b6001600160a01b0316637641ab016040518163ffffffff1660e01b815260040160206040518083038186803b15801561140c57600080fd5b505afa158015611420573d6000803e3d6000fd5b505050506040513d601f19601f8201168201806040525081019061144491906132d6565b8c6001600160a01b0316637641ab016040518163ffffffff1660e01b815260040160206040518083038186803b15801561147d57600080fd5b505afa158015611491573d6000803e3d6000fd5b505050506040513d601f19601f820116820180604052508101906114b591906132d6565b82816114bd57fe5b040290508b6001600160a01b03166335a9cdad8c838b6040518463ffffffff1660e01b81526004016114f193929190613672565b602060405180830381600087803b15801561150b57600080fd5b505af115801561151f573d6000803e3d6000fd5b505050506040513d601f19601f8201168201806040525081019061154391906132d6565b96508887116115645760405162461bcd60e51b8152600401610402906134a7565b8360200151516001600160401b038111801561157f57600080fd5b506040519080825280602002602001820160405280156115a9578160200160208202803683370190505b50955060005b8460200151518110156116c65760008382815181106115ca57fe5b602002602001015190506000866020015183815181106115e657fe5b602002602001015190508382038984815181106115ff57fe5b602002602001018181525050600089848151811061161957fe5b602002602001015111156116bc57806001600160a01b031663a9059cbb8c8b868151811061164357fe5b60200260200101516040518363ffffffff1660e01b815260040161166892919061339d565b602060405180830381600087803b15801561168257600080fd5b505af1158015611696573d6000803e3d6000fd5b505050506040513d601f19601f820116820180604052508101906116ba919061302d565b505b50506001016115af565b50336001600160a01b03168b8d6001600160a01b03167f9a1dccf45b5053e827f262e45fbb5211c2bd99497d340eecaebbd245eb48f4bc8b8b8f6000038c60405161171494939291906133b6565b60405180910390a450505050509550959350505050565b6001600160a01b038083166000908152600160209081526040808320858452909152902054165b92915050565b6001600160a01b0380861660009081526001602090815260408083208884529091528120549091168061179d5760405162461bcd60e51b8152600401610402906135c0565b60405163eb44fdd360e01b81526000906001600160a01b0389169063eb44fdd3906117cc908a90600401613455565b60006040518083038186803b1580156117e457600080fd5b505afa1580156117f8573d6000803e3d6000fd5b505050506040513d6000823e601f3d908101601f191682016040526118209190810190613211565b90506000886001600160a01b031663d8dfeb456040518163ffffffff1660e01b815260040160206040518083038186803b15801561185d57600080fd5b505afa158015611871573d6000803e3d6000fd5b505050506040513d601f19601f8201168201806040525081019061189591906131f5565b6040516323b872dd60e01b81529091506001600160a01b038216906323b872dd906118c890339030908b90600401613379565b602060405180830381600087803b1580156118e257600080fd5b505af11580156118f6573d6000803e3d6000fd5b505050506040513d601f19601f8201168201806040525081019061191a919061302d565b50604051636643d6f560e11b81526000906001600160a01b038b169063cc87adea9061194a908a90600401613455565b60206040518083038186803b15801561196257600080fd5b505afa158015611976573d6000803e3d6000fd5b505050506040513d601f19601f8201168201806040525081019061199a91906132d6565b60405163221fff8160e01b81529091506001600160a01b038b169063221fff81906119cd908c9085903090600401613672565b600060405180830381600087803b1580156119e757600080fd5b505af11580156119fb573d6000803e3d6000fd5b5050506020840151518291506000906001600160401b0381118015611a1f57600080fd5b50604051908082528060200260200182016040528015611a49578160200160208202803683370190505b509050600085602001518b81518110611a5e57fe5b6020026020010151905060005b866020015151811015611b5e578b811415611a8557611b56565b600087602001518281518110611a9757fe5b602002602001015190506000896001600160a01b0316638201aa3f83898760006000196040518663ffffffff1660e01b8152600401611ada9594939291906133ed565b6040805180830381600087803b158015611af357600080fd5b505af1158015611b07573d6000803e3d6000fd5b505050506040513d601f19601f82011682018060405250810190611b2b91906132ee565b509050611b388188612d44565b858481518110611b4457fe5b60209081029190910101529490940193505b600101611a6b565b5088831015611b7f5760405162461bcd60e51b8152600401610402906135f7565b60405163a9059cbb60e01b81526001600160a01b0382169063a9059cbb90611bad903390879060040161339d565b602060405180830381600087803b158015611bc757600080fd5b505af1158015611bdb573d6000803e3d6000fd5b505050506040513d601f19601f82011682018060405250810190611bff919061302d565b5050336001600160a01b03168b8d6001600160a01b03167f9a8518831e2d9c2ea12fd8df17781e97121a2d578e17a7c0ddf4462f89fdd5a08d8d6000038787611c488b8b612d44565b604051611c5995949392919061363b565b60405180910390a4509a9950505050505050505050565b620f4240670de0b6b3a76400006103ad565b64e8d4a51000670de0b6b3a76400006103ad565b60016020908152600092835260408084209091529082529020546001600160a01b031681565b68056bc75e2d6310000081565b6704a03ce68d21555681565b6542524f4e5a4560d01b90565b6001600160a01b0380841660009081526001602090815260408083208684529091528082205490516370a0823160e01b81529192169081906370a0823190611d2e90869060040161334b565b60206040518083038186803b158015611d4657600080fd5b505afa158015611d5a573d6000803e3d6000fd5b505050506040513d601f19601f82011682018060405250810190611d7e91906132d6565b95945050505050565b600881565b600281565b600181565b600a670de0b6b3a76400006103ad565b671bc16d674ec7ffff81565b600081565b6001600160a01b0380831660009081526001602090815260408083208584529091529020546060911680611e1c576000805b50604051908082528060200260200182016040528015611e13578160200160208202803683370190505b50915050611752565b60405163eb44fdd360e01b81526000906001600160a01b0386169063eb44fdd390611e4b908790600401613455565b60006040518083038186803b158015611e6357600080fd5b505afa158015611e77573d6000803e3d6000fd5b505050506040513d6000823e601f3d908101601f19168201604052611e9f9190810190613211565b905060008160200151600081518110611eb457fe5b6020026020010151905060008260200151516001600160401b0381118015611edb57600080fd5b50604051908082528060200260200182016040528015611f05578160200160208202803683370190505b509050670de0b6b3a764000081600081518110611f1e57fe5b602090810291909101015260015b836020015151811015611ff3576000856001600160a01b03166315e84af98587602001518581518110611f5b57fe5b60200260200101516040518363ffffffff1660e01b8152600401611f8092919061335f565b60206040518083038186803b158015611f9857600080fd5b505afa158015611fac573d6000803e3d6000fd5b505050506040513d601f19601f82011682018060405250810190611fd091906132d6565b905080838381518110611fdf57fe5b602090810291909101015250600101611f2c565b509695505050505050565b6001600160a01b038083166000908152600160209081526040808320858452909152902054606091168061203457600080611de9565b6000816001600160a01b031663cc77828d6040518163ffffffff1660e01b815260040160006040518083038186803b15801561206f57600080fd5b505afa158015612083573d6000803e3d6000fd5b505050506040513d6000823e601f3d908101601f191682016040526120ab9190810190612f12565b9050600081516001600160401b03811180156120c657600080fd5b506040519080825280602002602001820160405280156120f0578160200160208202803683370190505b50905060005b82518110156121ad57836001600160a01b031663948d8ce684838151811061211a57fe5b60200260200101516040518263ffffffff1660e01b815260040161213e919061334b565b60206040518083038186803b15801561215657600080fd5b505afa15801561216a573d6000803e3d6000fd5b505050506040513d601f19601f8201168201806040525081019061218e91906132d6565b82828151811061219a57fe5b60209081029190910101526001016120f6565b5095945050505050565b6001600160a01b03808316600090815260016020908152604080832085845290915290205460609116806121ed57600080611de9565b6000816001600160a01b031663cc77828d6040518163ffffffff1660e01b815260040160006040518083038186803b15801561222857600080fd5b505afa15801561223c573d6000803e3d6000fd5b505050506040513d6000823e601f3d908101601f191682016040526122649190810190612f12565b9050600081516001600160401b038111801561227f57600080fd5b506040519080825280602002602001820160405280156122a9578160200160208202803683370190505b50905060005b82518110156121ad57836001600160a01b031663f8b2cb4f8483815181106122d357fe5b60200260200101516040518263ffffffff1660e01b81526004016122f7919061334b565b60206040518083038186803b15801561230f57600080fd5b505afa158015612323573d6000803e3d6000fd5b505050506040513d601f19601f8201168201806040525081019061234791906132d6565b82828151811061235357fe5b60209081029190910101526001016122af565b6002670de0b6b3a76400006103ad565b6001600160a01b0380831660009081526001602090815260408083208584528252808320548151631a995bed60e31b8152915193941692839263d4cadf689260048082019391829003018186803b1580156123d057600080fd5b505afa1580156123e4573d6000803e3d6000fd5b505050506040513d601f19601f8201168201806040525081019061240891906132d6565b949350505050565b6001600160a01b038581166000908152600160209081526040808320888452909152812054909116156124555760405162461bcd60e51b815260040161040290613535565b60405163eb44fdd360e01b81526000906001600160a01b0388169063eb44fdd390612484908990600401613455565b60006040518083038186803b15801561249c57600080fd5b505afa1580156124b0573d6000803e3d6000fd5b505050506040513d6000823e601f3d908101601f191682016040526124d89190810190613211565b90508060200151518451146124ff5760405162461bcd60e51b81526004016104029061345e565b6000876001600160a01b031663d8dfeb456040518163ffffffff1660e01b815260040160206040518083038186803b15801561253a57600080fd5b505afa15801561254e573d6000803e3d6000fd5b505050506040513d601f19601f8201168201806040525081019061257291906131f5565b905085816001600160a01b031663dd62ed3e33306040518363ffffffff1660e01b81526004016125a392919061335f565b60206040518083038186803b1580156125bb57600080fd5b505afa1580156125cf573d6000803e3d6000fd5b505050506040513d601f19601f820116820180604052508101906125f391906132d6565b10156126115760405162461bcd60e51b815260040161040290613563565b604051636643d6f560e11b81526000906001600160a01b038a169063cc87adea90612640908a90600401613455565b60206040518083038186803b15801561265857600080fd5b505afa15801561266c573d6000803e3d6000fd5b505050506040513d601f19601f8201168201806040525081019061269091906132d6565b6040516323b872dd60e01b81529091506001600160a01b038316906323b872dd906126c390339030908c90600401613379565b602060405180830381600087803b1580156126dd57600080fd5b505af11580156126f1573d6000803e3d6000fd5b505050506040513d601f19601f82011682018060405250810190612715919061302d565b5060405163095ea7b360e01b81526001600160a01b0383169063095ea7b390612746908c906000199060040161339d565b602060405180830381600087803b15801561276057600080fd5b505af1158015612774573d6000803e3d6000fd5b505050506040513d601f19601f82011682018060405250810190612798919061302d565b5060405163221fff8160e01b81526001600160a01b038a169063221fff81906127c9908b9085903090600401613672565b600060405180830381600087803b1580156127e357600080fd5b505af11580156127f7573d6000803e3d6000fd5b5050505060008060009054906101000a90046001600160a01b03166001600160a01b031663d556c5dc6040518163ffffffff1660e01b8152600401602060405180830381600087803b15801561284c57600080fd5b505af1158015612860573d6000803e3d6000fd5b505050506040513d601f19601f8201168201806040525081019061288491906131f5565b905060005b8460200151518110156129b7576000856020015182815181106128a857fe5b60200260200101519050806001600160a01b031663095ea7b3846000196040518363ffffffff1660e01b81526004016128e292919061339d565b602060405180830381600087803b1580156128fc57600080fd5b505af1158015612910573d6000803e3d6000fd5b505050506040513d601f19601f82011682018060405250810190612934919061302d565b50826001600160a01b031663e4e1e53882868c868151811061295257fe5b60200260200101516040518463ffffffff1660e01b815260040161297893929190613421565b600060405180830381600087803b15801561299257600080fd5b505af11580156129a6573d6000803e3d6000fd5b505060019093019250612889915050565b506002546040516334e1990760e01b81526001600160a01b038316916334e19907916129e69190600401613455565b600060405180830381600087803b158015612a0057600080fd5b505af1158015612a14573d6000803e3d6000fd5b50505050806001600160a01b0316634bb278f36040518163ffffffff1660e01b8152600401600060405180830381600087803b158015612a5357600080fd5b505af1158015612a67573d6000803e3d6000fd5b505050506001600160a01b038a811660009081526001602090815260408083208d845290915280822080546001600160a01b0319169385169384179055516370a0823160e01b8152909166038d7ea4c68000916370a0823190612ace90309060040161334b565b60206040518083038186803b158015612ae657600080fd5b505afa158015612afa573d6000803e3d6000fd5b505050506040513d601f19601f82011682018060405250810190612b1e91906132d6565b60405163a9059cbb60e01b815291900391506001600160a01b0383169063a9059cbb90612b599060009066038d7ea4c680009060040161339d565b602060405180830381600087803b158015612b7357600080fd5b505af1158015612b87573d6000803e3d6000fd5b505050506040513d601f19601f82011682018060405250810190612bab919061302d565b5060405163a9059cbb60e01b81526001600160a01b0383169063a9059cbb90612bda908a90859060040161339d565b602060405180830381600087803b158015612bf457600080fd5b505af1158015612c08573d6000803e3d6000fd5b505050506040513d601f19601f82011682018060405250810190612c2c919061302d565b5060008560200151516001600160401b0381118015612c4a57600080fd5b50604051908082528060200260200182016040528015612c74578160200160208202803683370190505b50905060005b866020015151811015612ca8576000828281518110612c9557fe5b6020908102919091010152600101612c7a565b50336001600160a01b03168b8d6001600160a01b03167ffb27591822deac7913ea973cf845992f243e2ba5634ef8fbe0b6554aca37a428868c604051612cef92919061335f565b60405180910390a4336001600160a01b03168b8d6001600160a01b03167f9a1dccf45b5053e827f262e45fbb5211c2bd99497d340eecaebbd245eb48f4bc8b8e6000038787604051611c5994939291906133b6565b600081612d87576040805162461bcd60e51b815260206004820152600c60248201526b4552525f4449565f5a45524f60a01b604482015290519081900360640190fd5b670de0b6b3a76400008302831580612daf5750670de0b6b3a7640000848281612dac57fe5b04145b612df3576040805162461bcd60e51b815260206004820152601060248201526f11549497d1125597d25395115493905360821b604482015290519081900360640190fd5b60028304810181811015612e41576040805162461bcd60e51b815260206004820152601060248201526f11549497d1125597d25395115493905360821b604482015290519081900360640190fd5b6000848281612e4c57fe5b049695505050505050565b8035612e62816136d1565b919050565b8051612e62816136d1565b600082601f830112612e82578081fd5b81516020612e97612e92836136b4565b613691565b8281528181019085830183850287018401881015612eb3578586fd5b855b85811015612eda578151612ec8816136d1565b84529284019290840190600101612eb5565b5090979650505050505050565b60008060408385031215612ef9578182fd5b8235612f04816136d1565b946020939093013593505050565b60006020808385031215612f24578182fd5b82516001600160401b03811115612f39578283fd5b8301601f81018513612f49578283fd5b8051612f57612e92826136b4565b8181528381019083850185840285018601891015612f73578687fd5b8694505b83851015612f9e578051612f8a816136d1565b835260019490940193918501918501612f77565b50979650505050505050565b60006020808385031215612fbc578182fd5b82516001600160401b03811115612fd1578283fd5b8301601f81018513612fe1578283fd5b8051612fef612e92826136b4565b818152838101908385018584028501860189101561300b578687fd5b8694505b83851015612f9e57805183526001949094019391850191850161300f565b60006020828403121561303e578081fd5b8151801515811461304d578182fd5b9392505050565b600080600060608486031215613068578081fd5b8335613073816136d1565b925060208401359150604084013561308a816136d1565b809150509250925092565b600080600080600060a086880312156130ac578283fd5b85356130b7816136d1565b945060208681013594506040870135935060608701356001600160401b038111156130e0578283fd5b8701601f810189136130f0578283fd5b80356130fe612e92826136b4565b81815283810190838501858402850186018d101561311a578687fd5b8694505b8385101561313c57803583526001949094019391850191850161311e565b50809650505050505061315160808701612e57565b90509295509295909350565b600080600080600060a08688031215613174578283fd5b853561317f816136d1565b945060208601359350604086013592506060860135915060808601356131a4816136d1565b809150509295509295909350565b600080600080600060a086880312156131c9578283fd5b85356131d4816136d1565b97602087013597506040870135966060810135965060800135945092505050565b600060208284031215613206578081fd5b815161304d816136d1565b600060208284031215613222578081fd5b81516001600160401b0380821115613238578283fd5b818401915061010080838703121561324e578384fd5b61325781613691565b905061326283612e67565b8152602083015182811115613275578485fd5b61328187828601612e72565b6020830152506040830151604082015261329d60608401612e67565b60608201526080830151608082015260a083015160a082015260c083015160c082015260e083015160e082015280935050505092915050565b6000602082840312156132e7578081fd5b5051919050565b60008060408385031215613300578182fd5b505080516020909101519092909150565b6000815180845260208085019450808401835b8381101561334057815187529582019590820190600101613324565b509495945050505050565b6001600160a01b0391909116815260200190565b6001600160a01b0392831681529116602082015260400190565b6001600160a01b039384168152919092166020820152604081019190915260600190565b6001600160a01b03929092168252602082015260400190565b600060018060a01b0386168252846020830152836040830152608060608301526133e36080830184613311565b9695505050505050565b6001600160a01b03958616815260208101949094529190931660408301526060820192909252608081019190915260a00190565b6001600160a01b039390931683526020830191909152604082015260600190565b60006020825261304d6020830184613311565b90815260200190565b60208082526029908201527f4d7573742068617665206f6e652077656967687420666f72206561636820736860408201526830b932903a37b5b2b760b91b606082015260800190565b60208082526026908201527f416d6f756e74206f6620636f6c6c61746572616c2072657475726e656420746f60408201526537903637bb9760d11b606082015260800190565b60208082526028908201527f576f756c64206e6f74206861766520726563656976656420656e6f756768204c6040820152675020746f6b656e7360c01b606082015260800190565b602080825260149082015273141bdbdb08185b1c9958591e4818dc99585d195960621b604082015260600190565b60208082526037908201527f696e73756666696369656e7420636f6c6c61746572616c20616c6c6f77616e6360408201527f6520666f7220696e697469616c206c6971756964697479000000000000000000606082015260800190565b60208082526018908201527f506f6f6c206e6565647320746f20626520637265617465640000000000000000604082015260600190565b60208082526011908201527014db1a5c1c1859d948195e18d959591959607a1b604082015260600190565b6000838252604060208301526124086040830184613311565b600086825285602083015284604083015260a0606083015261366060a0830185613311565b90508260808301529695505050505050565b92835260208301919091526001600160a01b0316604082015260600190565b6040518181016001600160401b03811182821017156136ac57fe5b604052919050565b60006001600160401b038211156136c757fe5b5060209081020190565b6001600160a01b03811681146136e657600080fd5b5056fea2646970667358221220454770f705a79158767f11889a2a6061891d4e7ad0ab663844cecf0d1f905f8e64736f6c63430007060033",
  "devdoc": {
    "kind": "dev",
    "methods": {},
    "version": 1
  },
  "userdoc": {
    "kind": "user",
    "methods": {},
    "version": 1
  },
  "storageLayout": {
    "storage": [
      {
        "astId": 6053,
        "contract": "contracts/turbo/AMMFactory.sol:AMMFactory",
        "label": "bFactory",
        "offset": 0,
        "slot": "0",
        "type": "t_contract(BFactory)1224"
      },
      {
        "astId": 6059,
        "contract": "contracts/turbo/AMMFactory.sol:AMMFactory",
        "label": "pools",
        "offset": 0,
        "slot": "1",
        "type": "t_mapping(t_address,t_mapping(t_uint256,t_contract(BPool)4560))"
      },
      {
        "astId": 6061,
        "contract": "contracts/turbo/AMMFactory.sol:AMMFactory",
        "label": "fee",
        "offset": 0,
        "slot": "2",
        "type": "t_uint256"
      }
    ],
    "types": {
      "t_address": {
        "encoding": "inplace",
        "label": "address",
        "numberOfBytes": "20"
      },
      "t_contract(BFactory)1224": {
        "encoding": "inplace",
        "label": "contract BFactory",
        "numberOfBytes": "20"
      },
      "t_contract(BPool)4560": {
        "encoding": "inplace",
        "label": "contract BPool",
        "numberOfBytes": "20"
      },
      "t_mapping(t_address,t_mapping(t_uint256,t_contract(BPool)4560))": {
        "encoding": "mapping",
        "key": "t_address",
        "label": "mapping(address => mapping(uint256 => contract BPool))",
        "numberOfBytes": "32",
        "value": "t_mapping(t_uint256,t_contract(BPool)4560)"
      },
      "t_mapping(t_uint256,t_contract(BPool)4560)": {
        "encoding": "mapping",
        "key": "t_uint256",
        "label": "mapping(uint256 => contract BPool)",
        "numberOfBytes": "32",
        "value": "t_contract(BPool)4560"
      },
      "t_uint256": {
        "encoding": "inplace",
        "label": "uint256",
        "numberOfBytes": "32"
      }
    }
  }
}