{
  "address": "0x4E715BE329A29398A21e8df1D12f501d6FdcFCd7",
  "abi": [
    {
      "inputs": [
        {
          "internalType": "address",
          "name": "_owner",
          "type": "address"
        },
        {
          "internalType": "contract IERC20Full",
          "name": "_collateral",
          "type": "address"
        },
        {
          "internalType": "uint256",
          "name": "_shareFactor",
          "type": "uint256"
        },
        {
          "internalType": "contract FeePot",
          "name": "_feePot",
          "type": "address"
        },
        {
          "internalType": "uint256[3]",
          "name": "_fees",
          "type": "uint256[3]"
        },
        {
          "internalType": "address",
          "name": "_protocol",
          "type": "address"
        },
        {
          "internalType": "address",
          "name": "_linkNode",
          "type": "address"
        }
      ],
      "stateMutability": "nonpayable",
      "type": "constructor"
    },
    {
      "anonymous": false,
      "inputs": [
        {
          "indexed": true,
          "internalType": "uint256",
          "name": "id",
          "type": "uint256"
        },
        {
          "indexed": false,
          "internalType": "string",
          "name": "name",
          "type": "string"
        }
      ],
      "name": "CoinAdded",
      "type": "event"
    },
    {
      "anonymous": false,
      "inputs": [
        {
          "indexed": false,
          "internalType": "address",
          "name": "newLinkNode",
          "type": "address"
        }
      ],
      "name": "LinkNodeChanged",
      "type": "event"
    },
    {
      "anonymous": false,
      "inputs": [
        {
          "indexed": false,
          "internalType": "uint256",
          "name": "id",
          "type": "uint256"
        }
      ],
      "name": "MarketActivated",
      "type": "event"
    },
    {
      "anonymous": false,
      "inputs": [
        {
          "indexed": false,
          "internalType": "uint256",
          "name": "id",
          "type": "uint256"
        },
        {
          "indexed": false,
          "internalType": "string[]",
          "name": "names",
          "type": "string[]"
        },
        {
          "indexed": false,
          "internalType": "uint256[]",
          "name": "initialOdds",
          "type": "uint256[]"
        }
      ],
      "name": "MarketCreated",
      "type": "event"
    },
    {
      "anonymous": false,
      "inputs": [
        {
          "indexed": false,
          "internalType": "uint256",
          "name": "id",
          "type": "uint256"
        },
        {
          "indexed": false,
          "internalType": "address",
          "name": "winner",
          "type": "address"
        },
        {
          "indexed": false,
          "internalType": "uint256",
          "name": "winnerIndex",
          "type": "uint256"
        },
        {
          "indexed": false,
          "internalType": "string",
          "name": "winnerName",
          "type": "string"
        }
      ],
      "name": "MarketResolved",
      "type": "event"
    },
    {
      "anonymous": false,
      "inputs": [
        {
          "indexed": true,
          "internalType": "uint256",
          "name": "nextResolutionTime",
          "type": "uint256"
        },
        {
          "indexed": false,
          "internalType": "uint256[]",
          "name": "markets",
          "type": "uint256[]"
        },
        {
          "indexed": false,
          "internalType": "uint256[]",
          "name": "prices",
          "type": "uint256[]"
        }
      ],
      "name": "NewPrices",
      "type": "event"
    },
    {
      "anonymous": false,
      "inputs": [
        {
          "indexed": false,
          "internalType": "uint256",
          "name": "id",
          "type": "uint256"
        },
        {
          "indexed": false,
          "internalType": "uint256",
          "name": "amount",
          "type": "uint256"
        },
        {
          "indexed": false,
          "internalType": "address",
          "name": "receiver",
          "type": "address"
        }
      ],
      "name": "SharesBurned",
      "type": "event"
    },
    {
      "anonymous": false,
      "inputs": [
        {
          "indexed": false,
          "internalType": "uint256",
          "name": "id",
          "type": "uint256"
        },
        {
          "indexed": false,
          "internalType": "uint256",
          "name": "amount",
          "type": "uint256"
        },
        {
          "indexed": false,
          "internalType": "address",
          "name": "receiver",
          "type": "address"
        }
      ],
      "name": "SharesMinted",
      "type": "event"
    },
    {
      "anonymous": false,
      "inputs": [
        {
          "indexed": false,
          "internalType": "uint256",
          "name": "id",
          "type": "uint256"
        },
        {
          "indexed": false,
          "internalType": "address",
          "name": "winningOutcome",
          "type": "address"
        },
        {
          "indexed": false,
          "internalType": "uint256",
          "name": "winningIndex",
          "type": "uint256"
        },
        {
          "indexed": false,
          "internalType": "string",
          "name": "winningName",
          "type": "string"
        },
        {
          "indexed": false,
          "internalType": "uint256",
          "name": "amount",
          "type": "uint256"
        },
        {
          "indexed": false,
          "internalType": "uint256",
          "name": "settlementFee",
          "type": "uint256"
        },
        {
          "indexed": false,
          "internalType": "uint256",
          "name": "payout",
          "type": "uint256"
        },
        {
          "indexed": true,
          "internalType": "address",
          "name": "receiver",
          "type": "address"
        }
      ],
      "name": "WinningsClaimed",
      "type": "event"
    },
    {
      "inputs": [],
      "name": "accumulatedProtocolFee",
      "outputs": [
        {
          "internalType": "uint256",
          "name": "",
          "type": "uint256"
        }
      ],
      "stateMutability": "view",
      "type": "function"
    },
    {
      "inputs": [
        {
          "internalType": "address",
          "name": "",
          "type": "address"
        }
      ],
      "name": "accumulatedSettlementFees",
      "outputs": [
        {
          "internalType": "uint256",
          "name": "",
          "type": "uint256"
        }
      ],
      "stateMutability": "view",
      "type": "function"
    },
    {
      "inputs": [
        {
          "internalType": "string",
          "name": "_name",
          "type": "string"
        },
        {
          "internalType": "contract AggregatorV3Interface",
          "name": "_priceFeed",
          "type": "address"
        },
        {
          "internalType": "uint8",
          "name": "_imprecision",
          "type": "uint8"
        }
      ],
      "name": "addCoin",
      "outputs": [
        {
          "internalType": "uint256",
          "name": "_coinIndex",
          "type": "uint256"
        }
      ],
      "stateMutability": "nonpayable",
      "type": "function"
    },
    {
      "inputs": [
        {
          "internalType": "uint256",
          "name": "_id",
          "type": "uint256"
        },
        {
          "internalType": "uint256",
          "name": "_sharesToBurn",
          "type": "uint256"
        },
        {
          "internalType": "address",
          "name": "_receiver",
          "type": "address"
        }
      ],
      "name": "burnShares",
      "outputs": [
        {
          "internalType": "uint256",
          "name": "",
          "type": "uint256"
        }
      ],
      "stateMutability": "nonpayable",
      "type": "function"
    },
    {
      "inputs": [
        {
          "internalType": "uint256",
          "name": "_shares",
          "type": "uint256"
        }
      ],
      "name": "calcCost",
      "outputs": [
        {
          "internalType": "uint256",
          "name": "",
          "type": "uint256"
        }
      ],
      "stateMutability": "view",
      "type": "function"
    },
    {
      "inputs": [
        {
          "internalType": "uint256",
          "name": "_collateralIn",
          "type": "uint256"
        }
      ],
      "name": "calcShares",
      "outputs": [
        {
          "internalType": "uint256",
          "name": "",
          "type": "uint256"
        }
      ],
      "stateMutability": "view",
      "type": "function"
    },
    {
      "inputs": [
        {
          "internalType": "uint256[]",
          "name": "_ids",
          "type": "uint256[]"
        },
        {
          "internalType": "address",
          "name": "_receiver",
          "type": "address"
        }
      ],
      "name": "claimManyWinnings",
      "outputs": [
        {
          "internalType": "uint256",
          "name": "",
          "type": "uint256"
        }
      ],
      "stateMutability": "nonpayable",
      "type": "function"
    },
    {
      "inputs": [],
      "name": "claimProtocolFees",
      "outputs": [
        {
          "internalType": "uint256",
          "name": "",
          "type": "uint256"
        }
      ],
      "stateMutability": "nonpayable",
      "type": "function"
    },
    {
      "inputs": [
        {
          "internalType": "address",
          "name": "_receiver",
          "type": "address"
        }
      ],
      "name": "claimSettlementFees",
      "outputs": [
        {
          "internalType": "uint256",
          "name": "",
          "type": "uint256"
        }
      ],
      "stateMutability": "nonpayable",
      "type": "function"
    },
    {
      "inputs": [
        {
          "internalType": "uint256",
          "name": "_id",
          "type": "uint256"
        },
        {
          "internalType": "address",
          "name": "_receiver",
          "type": "address"
        }
      ],
      "name": "claimWinnings",
      "outputs": [
        {
          "internalType": "uint256",
          "name": "",
          "type": "uint256"
        }
      ],
      "stateMutability": "nonpayable",
      "type": "function"
    },
    {
      "inputs": [
        {
          "internalType": "uint256",
          "name": "",
          "type": "uint256"
        }
      ],
      "name": "coins",
      "outputs": [
        {
          "internalType": "string",
          "name": "name",
          "type": "string"
        },
        {
          "internalType": "contract AggregatorV3Interface",
          "name": "priceFeed",
          "type": "address"
        },
        {
          "internalType": "uint256",
          "name": "price",
          "type": "uint256"
        },
        {
          "internalType": "uint8",
          "name": "imprecision",
          "type": "uint8"
        }
      ],
      "stateMutability": "view",
      "type": "function"
    },
    {
      "inputs": [],
      "name": "collateral",
      "outputs": [
        {
          "internalType": "contract IERC20Full",
          "name": "",
          "type": "address"
        }
      ],
      "stateMutability": "view",
      "type": "function"
    },
    {
      "inputs": [
        {
          "internalType": "uint80[]",
          "name": "_roundIds",
          "type": "uint80[]"
        },
        {
          "internalType": "uint256",
          "name": "_nextResolutionTime",
          "type": "uint256"
        }
      ],
      "name": "createAndResolveMarkets",
      "outputs": [],
      "stateMutability": "nonpayable",
      "type": "function"
    },
    {
      "inputs": [],
      "name": "feePot",
      "outputs": [
        {
          "internalType": "contract FeePot",
          "name": "",
          "type": "address"
        }
      ],
      "stateMutability": "view",
      "type": "function"
    },
    {
      "inputs": [
        {
          "internalType": "uint256",
          "name": "_coinIndex",
          "type": "uint256"
        }
      ],
      "name": "getCoin",
      "outputs": [
        {
          "components": [
            {
              "internalType": "string",
              "name": "name",
              "type": "string"
            },
            {
              "internalType": "contract AggregatorV3Interface",
              "name": "priceFeed",
              "type": "address"
            },
            {
              "internalType": "uint256",
              "name": "price",
              "type": "uint256"
            },
            {
              "internalType": "uint8",
              "name": "imprecision",
              "type": "uint8"
            },
            {
              "internalType": "uint256[1]",
              "name": "currentMarkets",
              "type": "uint256[1]"
            }
          ],
          "internalType": "struct CryptoMarketFactory.Coin",
          "name": "_coin",
          "type": "tuple"
        }
      ],
      "stateMutability": "view",
      "type": "function"
    },
    {
      "inputs": [],
      "name": "getCoins",
      "outputs": [
        {
          "components": [
            {
              "internalType": "string",
              "name": "name",
              "type": "string"
            },
            {
              "internalType": "contract AggregatorV3Interface",
              "name": "priceFeed",
              "type": "address"
            },
            {
              "internalType": "uint256",
              "name": "price",
              "type": "uint256"
            },
            {
              "internalType": "uint8",
              "name": "imprecision",
              "type": "uint8"
            },
            {
              "internalType": "uint256[1]",
              "name": "currentMarkets",
              "type": "uint256[1]"
            }
          ],
          "internalType": "struct CryptoMarketFactory.Coin[]",
          "name": "_coins",
          "type": "tuple[]"
        }
      ],
      "stateMutability": "view",
      "type": "function"
    },
    {
      "inputs": [
        {
          "internalType": "uint256",
          "name": "_id",
          "type": "uint256"
        }
      ],
      "name": "getMarket",
      "outputs": [
        {
          "components": [
            {
              "internalType": "address",
              "name": "settlementAddress",
              "type": "address"
            },
            {
              "internalType": "contract OwnedERC20[]",
              "name": "shareTokens",
              "type": "address[]"
            },
            {
              "internalType": "contract OwnedERC20",
              "name": "winner",
              "type": "address"
            },
            {
              "internalType": "uint256",
              "name": "winnerIndex",
              "type": "uint256"
            },
            {
              "internalType": "uint256",
              "name": "settlementFee",
              "type": "uint256"
            },
            {
              "internalType": "uint256",
              "name": "protocolFee",
              "type": "uint256"
            },
            {
              "internalType": "uint256",
              "name": "stakerFee",
              "type": "uint256"
            },
            {
              "internalType": "uint256",
              "name": "creationTimestamp",
              "type": "uint256"
            },
            {
              "internalType": "uint256[]",
              "name": "initialOdds",
              "type": "uint256[]"
            },
            {
              "internalType": "bool",
              "name": "active",
              "type": "bool"
            }
          ],
          "internalType": "struct AbstractMarketFactoryV3.Market",
          "name": "",
          "type": "tuple"
        }
      ],
      "stateMutability": "view",
      "type": "function"
    },
    {
      "inputs": [
        {
          "internalType": "uint256",
          "name": "_marketId",
          "type": "uint256"
        }
      ],
      "name": "getMarketDetails",
      "outputs": [
        {
          "components": [
            {
              "internalType": "enum CryptoMarketFactory.MarketType",
              "name": "marketType",
              "type": "uint8"
            },
            {
              "internalType": "uint256",
              "name": "coinIndex",
              "type": "uint256"
            },
            {
              "internalType": "uint256",
              "name": "creationPrice",
              "type": "uint256"
            },
            {
              "internalType": "uint256",
              "name": "resolutionPrice",
              "type": "uint256"
            },
            {
              "internalType": "uint256",
              "name": "resolutionTime",
              "type": "uint256"
            }
          ],
          "internalType": "struct CryptoMarketFactory.MarketDetails",
          "name": "",
          "type": "tuple"
        }
      ],
      "stateMutability": "view",
      "type": "function"
    },
    {
      "inputs": [],
      "name": "getOwner",
      "outputs": [
        {
          "internalType": "address",
          "name": "",
          "type": "address"
        }
      ],
      "stateMutability": "view",
      "type": "function"
    },
    {
      "inputs": [],
      "name": "getVersion",
      "outputs": [
        {
          "internalType": "string",
          "name": "",
          "type": "string"
        }
      ],
      "stateMutability": "view",
      "type": "function"
    },
    {
      "inputs": [
        {
          "internalType": "uint256",
          "name": "_id",
          "type": "uint256"
        }
      ],
      "name": "isMarketResolved",
      "outputs": [
        {
          "internalType": "bool",
          "name": "",
          "type": "bool"
        }
      ],
      "stateMutability": "view",
      "type": "function"
    },
    {
      "inputs": [],
      "name": "linkNode",
      "outputs": [
        {
          "internalType": "address",
          "name": "",
          "type": "address"
        }
      ],
      "stateMutability": "view",
      "type": "function"
    },
    {
      "inputs": [],
      "name": "marketCount",
      "outputs": [
        {
          "internalType": "uint256",
          "name": "",
          "type": "uint256"
        }
      ],
      "stateMutability": "view",
      "type": "function"
    },
    {
      "inputs": [
        {
          "internalType": "uint256",
          "name": "_id",
          "type": "uint256"
        },
        {
          "internalType": "uint256",
          "name": "_shareToMint",
          "type": "uint256"
        },
        {
          "internalType": "address",
          "name": "_receiver",
          "type": "address"
        }
      ],
      "name": "mintShares",
      "outputs": [],
      "stateMutability": "nonpayable",
      "type": "function"
    },
    {
      "inputs": [],
      "name": "nextResolutionTime",
      "outputs": [
        {
          "internalType": "uint256",
          "name": "",
          "type": "uint256"
        }
      ],
      "stateMutability": "view",
      "type": "function"
    },
    {
      "inputs": [],
      "name": "protocol",
      "outputs": [
        {
          "internalType": "address",
          "name": "",
          "type": "address"
        }
      ],
      "stateMutability": "view",
      "type": "function"
    },
    {
      "inputs": [],
      "name": "protocolFee",
      "outputs": [
        {
          "internalType": "uint256",
          "name": "",
          "type": "uint256"
        }
      ],
      "stateMutability": "view",
      "type": "function"
    },
    {
      "inputs": [
        {
          "internalType": "address",
          "name": "_newLinkNode",
          "type": "address"
        }
      ],
      "name": "setLinkNode",
      "outputs": [],
      "stateMutability": "nonpayable",
      "type": "function"
    },
    {
      "inputs": [
        {
          "internalType": "address",
          "name": "_newProtocol",
          "type": "address"
        },
        {
          "internalType": "bool",
          "name": "_claimFirst",
          "type": "bool"
        }
      ],
      "name": "setProtocol",
      "outputs": [],
      "stateMutability": "nonpayable",
      "type": "function"
    },
    {
      "inputs": [
        {
          "internalType": "uint256",
          "name": "_newFee",
          "type": "uint256"
        }
      ],
      "name": "setProtocolFee",
      "outputs": [],
      "stateMutability": "nonpayable",
      "type": "function"
    },
    {
      "inputs": [
        {
          "internalType": "uint256",
          "name": "_newFee",
          "type": "uint256"
        }
      ],
      "name": "setSettlementFee",
      "outputs": [],
      "stateMutability": "nonpayable",
      "type": "function"
    },
    {
      "inputs": [
        {
          "internalType": "uint256",
          "name": "_newFee",
          "type": "uint256"
        }
      ],
      "name": "setStakerFee",
      "outputs": [],
      "stateMutability": "nonpayable",
      "type": "function"
    },
    {
      "inputs": [],
      "name": "settlementFee",
      "outputs": [
        {
          "internalType": "uint256",
          "name": "",
          "type": "uint256"
        }
      ],
      "stateMutability": "view",
      "type": "function"
    },
    {
      "inputs": [],
      "name": "shareFactor",
      "outputs": [
        {
          "internalType": "uint256",
          "name": "",
          "type": "uint256"
        }
      ],
      "stateMutability": "view",
      "type": "function"
    },
    {
      "inputs": [],
      "name": "stakerFee",
      "outputs": [
        {
          "internalType": "uint256",
          "name": "",
          "type": "uint256"
        }
      ],
      "stateMutability": "view",
      "type": "function"
    },
    {
      "inputs": [
        {
          "internalType": "address",
          "name": "_newOwner",
          "type": "address"
        }
      ],
      "name": "transferOwnership",
      "outputs": [
        {
          "internalType": "bool",
          "name": "",
          "type": "bool"
        }
      ],
      "stateMutability": "nonpayable",
      "type": "function"
    }
  ],
  "transactionHash": "0xee6a75a4e104e29696b1259356b719fbf1248023b03ce0b04fa9a0a90cf23bcc",
  "args": [
    "0x8C9c733eCd48426b9c53c38ccB60F3b307329bE1",
    "0x5799bFe361BEea69f808328FF4884DF92f1f66f0",
    "1000000000000",
    "0x59DdFE9961e050bdA1ed9bf9CCD009948036Dd76",
    [
      0,
      "500000000000000",
      0
    ],
    "0x8C9c733eCd48426b9c53c38ccB60F3b307329bE1",
    "0x8C9c733eCd48426b9c53c38ccB60F3b307329bE1"
  ],
  "solcInputHash": "67dc043c647eb1d8841d1189598d111b",
  "bytecode": "0x608060405260006007553480156200001657600080fd5b50604051620055503803806200555083398101604081905262000039916200064b565b604080518082018252600680825265076312e322e360d41b602080840191909152600080546001600160a01b038d81166001600160a01b03199283163317831617909255600180548d8416908316811790915560098c9055600280548c8516908416179055895160035592890151600490815589870151600555845490911691881691909117909255925163095ea7b360e01b815284938b928b928b928b928b928b929163095ea7b391620000f5918791600019910162000767565b602060405180830381600087803b1580156200011057600080fd5b505af115801562000125573d6000803e3d6000fd5b505050506040513d601f19601f820116820180604052508101906200014b91906200073e565b50600a6200015862000347565b81546001808201845560009384526020938490208351600a9093020180546001600160a01b0319166001600160a01b0390931692909217825582840151805193949293620001af9392850192919091019062000401565b5060408201516002820180546001600160a01b0319166001600160a01b03909216919091179055606082015160038201556080820151600482015560a0820151600582015560c0820151600682015560e082015160078201556101008201518051620002269160088401916020909101906200046b565b5061012091909101516009909101805460ff1916911515919091179055505084516200025f9450600b93506020860192509050620004a9565b5050600c80546001600160a01b0319166001600160a01b039290921691909117905560408051602081019091526000808252600d90620002a290839080620003b5565b81546001810183556000928352602092839020825180519394600590930290910192620002d39284920190620004a9565b506020820151600182810180546001600160a01b0319166001600160a01b039093169290921790915560408301516002830155606083015160038301805460ff191660ff909216919091179055608083015162000336916004840191906200052b565b505050505050505050505062000799565b620003516200055b565b506040805160008082526020820181815261018083018452928201818152606083018390526080830182905260a0830182905260c0830182905260e08301829052610100830182905261012083018290526101408301939093526101609091015290565b620003bf620005c2565b5060408051602080820183526000808352835160a0810185529687526001600160a01b03909516908601529084019290925260ff166060830152608082015290565b82805482825590600052602060002090810192821562000459579160200282015b828111156200045957825182546001600160a01b0319166001600160a01b0390911617825560209092019160019091019062000422565b506200046792915062000604565b5090565b82805482825590600052602060002090810192821562000459579160200282015b82811115620004595782518255916020019190600101906200048c565b828054600181600116156101000203166002900490600052602060002090601f016020900481019282620004e1576000855562000459565b82601f10620004fc57805160ff191683800117855562000459565b82800160010185558215620004595791820182811115620004595782518255916020019190600101906200048c565b8260018101928215620004595791602002820182811115620004595782518255916020019190600101906200048c565b60405180610140016040528060006001600160a01b031681526020016060815260200160006001600160a01b031681526020016000815260200160008152602001600081526020016000815260200160008152602001606081526020016000151581525090565b6040518060a001604052806060815260200160006001600160a01b0316815260200160008152602001600060ff168152602001620005ff6200061b565b905290565b5b8082111562000467576000815560010162000605565b60405180602001604052806001906020820280368337509192915050565b8051620006468162000780565b919050565b6000806000806000806000610120888a03121562000667578283fd5b8751620006748162000780565b80975050602080890151620006898162000780565b60408a015160608b01519198509650620006a38162000780565b9450609f89018a13620006b4578384fd5b604051606081016001600160401b0381118282101715620006d157fe5b6040528060808b0160e08c018d811115620006ea578788fd5b875b60038110156200070b57825184529285019291850191600101620006ec565b508397506200071a8162000639565b9650505050505062000730610100890162000639565b905092959891949750929550565b60006020828403121562000750578081fd5b8151801515811462000760578182fd5b9392505050565b6001600160a01b03929092168252602082015260400190565b6001600160a01b03811681146200079657600080fd5b50565b614da780620007a96000396000f3fe60806040523480156200001157600080fd5b5060043610620002505760003560e01c80638e0ed1931162000141578063d4b6838e11620000bd578063e2c30b151162000087578063e2c30b1514620004ee578063e5678dfa1462000505578063eb44fdd3146200051c578063ec9790821462000542578063f2fde38b146200054c5762000250565b8063d4b6838e146200049d578063d5da4f1d14620004a7578063d8dfeb4514620004be578063da31158814620004c85762000250565b8063a544a62c116200010b578063a544a62c1462000423578063b06c1ba3146200042d578063b0e21e8a1462000453578063c6610657146200045d578063cc87adea14620004865762000250565b80638e0ed19314620003d457806390cb4dce14620003eb57806397eef18714620003f5578063992c9079146200040c5762000250565b80634b2d9ffc11620001d1578063787dce3d116200019b578063787dce3d14620003885780637a5c3278146200039f5780637d1d7fb814620003b6578063893d20e814620003c05780638ce7442614620003ca5762000250565b80634b2d9ffc14620003355780634c9f66c7146200033f57806353ac55f514620003585780637641ab01146200037e5762000250565b806332ecabe9116200021f57806332ecabe914620002cf57806335a9cdad14620002e6578063473a6d5214620002fd57806349a4d93414620003145780634a7d0369146200032b5762000250565b80630d8e6e2c146200025557806313c390ef1462000277578063221fff8114620002905780632cfcfa3a14620002a9575b600080fd5b6200025f62000563565b6040516200026e919062003689565b60405180910390f35b62000281620005fd565b6040516200026e9190620035b9565b620002a7620002a136600462003364565b620007b4565b005b620002c0620002ba366004620031e9565b62000ad7565b6040516200026e919062003998565b620002a7620002e036600462003055565b62000c38565b620002c0620002f736600462003364565b62000c86565b620002c06200030e3660046200330b565b620010b5565b620002c06200032536600462003036565b620010f3565b620002c062001105565b620002c0620011cf565b62000349620011d5565b6040516200026e919062003568565b6200036f620003693660046200330b565b620011e4565b6040516200026e91906200364f565b620002c062001364565b620002a7620003993660046200330b565b6200136a565b620002a7620003b036600462003150565b62001387565b620002c06200155c565b6200034962001562565b6200034962001571565b620002c0620003e536600462003036565b62001580565b620002c06200163c565b620002a7620004063660046200330b565b62001642565b620002c06200041d3660046200333d565b6200165f565b620002c062001a6e565b620004446200043e3660046200330b565b62001a74565b6040516200026e919062003892565b620002c062001ae2565b620004746200046e3660046200330b565b62001ae8565b6040516200026e94939291906200369e565b620002c0620004973660046200330b565b62001bc1565b6200034962001bc8565b620002a7620004b83660046200330b565b62001bd7565b6200034962001bf4565b620004df620004d93660046200330b565b62001c03565b6040516200026e91906200387d565b620002a7620004ff36600462003036565b62001d3a565b620002c06200051636600462003092565b62001da6565b620005336200052d3660046200330b565b62001df4565b6040516200026e9190620038d6565b620002c062001f89565b6200036f6200055d36600462003036565b62001f8f565b600b8054604080516020601f6002600019610100600188161502019095169490940493840181900481028201810190925282815260609390929091830182828015620005f35780601f10620005c757610100808354040283529160200191620005f3565b820191906000526020600020905b815481529060010190602001808311620005d557829003601f168201915b5050505050905090565b600d5460609067ffffffffffffffff811180156200061a57600080fd5b506040519080825280602002602001820160405280156200065857816020015b6200064462002db7565b8152602001906001900390816200063a5790505b50905060015b600d54811015620007b057600d81815481106200067757fe5b600091825260209182902060408051600593909302909101805460026001821615610100026000190190911604601f8101859004909402830160c090810190925260a08301848152929390928492909184918401828280156200071e5780601f10620006f2576101008083540402835291602001916200071e565b820191906000526020600020905b8154815290600101906020018083116200070057829003601f168201915b50505091835250506001828101546001600160a01b03166020808401919091526002840154604080850191909152600385015460ff1660608501528051918201908190526080909301929091600485019182845b81548152602001906001019080831162000772575050505050815250508282815181106200079c57fe5b60209081029190910101526001016200065e565b5090565b600a548310620007c357600080fd5b600a8381548110620007d157fe5b600091825260209091206009600a90920201015460ff16620007f257600080fd5b6000620007ff83620010b5565b6001546040516323b872dd60e01b81529192506001600160a01b0316906323b872dd9062000836903390309086906004016200357c565b602060405180830381600087803b1580156200085157600080fd5b505af115801562000866573d6000803e3d6000fd5b505050506040513d601f19601f820116820180604052508101906200088c9190620031ca565b506000600a85815481106200089d57fe5b60009182526020918290206040805161014081018252600a90930290910180546001600160a01b031683526001810180548351818702810187019094528084529394919385830193928301828280156200092157602002820191906000526020600020905b81546001600160a01b0316815260019091019060200180831162000902575b505050505081526020016002820160009054906101000a90046001600160a01b03166001600160a01b03166001600160a01b03168152602001600382015481526020016004820154815260200160058201548152602001600682015481526020016007820154815260200160088201805480602002602001604051908101604052809291908181526020018280548015620009dc57602002820191906000526020600020905b815481526020019060010190808311620009c7575b50505091835250506009919091015460ff161515602090910152905060005b81602001515181101562000a92578160200151818151811062000a1a57fe5b60200260200101516001600160a01b031663c024cd2685876040518363ffffffff1660e01b815260040162000a51929190620035a0565b600060405180830381600087803b15801562000a6c57600080fd5b505af115801562000a81573d6000803e3d6000fd5b505060019092019150620009fb9050565b507fd81c0442e10068a9818f3aa093c9ccb804584690df572d7df3da2d892a6973f285858560405162000ac89392919062003a9f565b60405180910390a15050505050565b600080546001600160a01b0316331462000af057600080fd5b600062000b3786868080601f01602080910402602001604051908101604052809392919081815260200183838082843760009201919091525088925087915062001ff99050565b600d80546001810182556000919091528151805191945091925082917fd7b6990105719101dabeb77144f2a3385c8033acd3af97e9423a695e81ad1eb560058602019162000b8d91839160209091019062002df9565b506020820151600182810180546001600160a01b0319166001600160a01b039093169290921790915560408301516002830155606083015160038301805460ff191660ff909216919091179055608083015162000bf09160048401919062002e8a565b505050817fd9d3ec4c7486dfb74c1b8e96ca18907b1683022eeef70494bcc437873c1cfa18878760405162000c279291906200365a565b60405180910390a250949350505050565b6000546001600160a01b0316331462000c5057600080fd5b801562000c635762000c6162001105565b505b50600680546001600160a01b0319166001600160a01b0392909216919091179055565b600a54600090841062000c9857600080fd5b600a848154811062000ca657fe5b600091825260209091206009600a90920201015460ff1662000cc757600080fd5b6000600a858154811062000cd757fe5b60009182526020918290206040805161014081018252600a90930290910180546001600160a01b0316835260018101805483518187028101870190945280845293949193858301939283018282801562000d5b57602002820191906000526020600020905b81546001600160a01b0316815260019091019060200180831162000d3c575b505050505081526020016002820160009054906101000a90046001600160a01b03166001600160a01b03166001600160a01b0316815260200160038201548152602001600482015481526020016005820154815260200160068201548152602001600782015481526020016008820180548060200260200160405190810160405280929190818152602001828054801562000e1657602002820191906000526020600020905b81548152602001906001019080831162000e01575b50505091835250506009919091015460ff161515602090910152905060005b81602001515181101562000ecc578160200151818151811062000e5457fe5b60200260200101516001600160a01b03166342986e1333876040518363ffffffff1660e01b815260040162000e8b929190620035a0565b600060405180830381600087803b15801562000ea657600080fd5b505af115801562000ebb573d6000803e3d6000fd5b50506001909201915062000e359050565b50600062000eda85620010b5565b9050600062000f0b670de0b6b3a764000062000f048560a00151856200204590919063ffffffff16565b9062002077565b9050600062000f35670de0b6b3a764000062000f048660c00151866200204590919063ffffffff16565b905062000f4f8162000f4885856200208d565b906200208d565b600780548401905560015460405163a9059cbb60e01b81529194506001600160a01b03169063a9059cbb9062000f8c9089908790600401620035a0565b602060405180830381600087803b15801562000fa757600080fd5b505af115801562000fbc573d6000803e3d6000fd5b505050506040513d601f19601f8201168201806040525081019062000fe29190620031ca565b50600254604051630ebdac0960e41b81526001600160a01b039091169063ebdac090906200101590849060040162003998565b602060405180830381600087803b1580156200103057600080fd5b505af115801562001045573d6000803e3d6000fd5b505050506040513d601f19601f820116820180604052508101906200106b9190620031ca565b507fb6fdb729b2ed801daf629f0ab713e4a7a73619505790f6f27fd92d6f2c9688d7888833604051620010a19392919062003a9f565b60405180910390a150909695505050505050565b60006009548210158015620010d457506009548281620010d157fe5b06155b620010de57600080fd5b6009548281620010ea57fe5b0490505b919050565b60086020526000908152604090205481565b6006546000906001600160a01b03163314806200112157503330145b6200112b57600080fd5b6007548015620011ca57600060075560015460065460405163a9059cbb60e01b81526001600160a01b039283169263a9059cbb9262001172929116908590600401620035a0565b602060405180830381600087803b1580156200118d57600080fd5b505af1158015620011a2573d6000803e3d6000fd5b505050506040513d601f19601f82011682018060405250810190620011c89190620031ca565b505b905090565b60035481565b6002546001600160a01b031681565b600080600a8381548110620011f557fe5b60009182526020918290206040805161014081018252600a90930290910180546001600160a01b031683526001810180548351818702810187019094528084529394919385830193928301828280156200127957602002820191906000526020600020905b81546001600160a01b031681526001909101906020018083116200125a575b505050505081526020016002820160009054906101000a90046001600160a01b03166001600160a01b03166001600160a01b031681526020016003820154815260200160048201548152602001600582015481526020016006820154815260200160078201548152602001600882018054806020026020016040519081016040528092919081815260200182805480156200133457602002820191906000526020600020905b8154815260200190600101908083116200131f575b50505091835250506009919091015460ff161515602090910152604001516001600160a01b031615159392505050565b60095481565b6000546001600160a01b031633146200138257600080fd5b600555565b600c546001600160a01b031633146200139f57600080fd5b600f54421015620013cd5760405162461bcd60e51b8152600401620013c4906200371d565b60405180910390fd5b600d548214620013f15760405162461bcd60e51b8152600401620013c4906200379e565b600f805490829055600d546000906000190167ffffffffffffffff811180156200141a57600080fd5b5060405190808252806020026020018201604052801562001445578160200160208202803683370190505b50600d549091506000906000190167ffffffffffffffff811180156200146a57600080fd5b5060405190808252806020026020018201604052801562001495578160200160208202803683370190505b50905060015b600d548110156200151557620014d68185898985818110620014b957fe5b9050602002016020810190620014d091906200339f565b620020a3565b846001840381518110620014e657fe5b60200260200101846001850381518110620014fd57fe5b6020908102919091010191909152526001016200149b565b50600f547f9cc38710842a8839fc5a048a7ca3d507324bfdae4d23cf8e8fa77b270f43104b82846040516200154c9291906200361d565b60405180910390a2505050505050565b60045481565b6000546001600160a01b031690565b6006546001600160a01b031681565b33600090815260086020526040812054801562001636573360009081526008602052604080822091909155600154905163a9059cbb60e01b81526001600160a01b039091169063a9059cbb90620015de9086908590600401620035a0565b602060405180830381600087803b158015620015f957600080fd5b505af11580156200160e573d6000803e3d6000fd5b505050506040513d601f19601f82011682018060405250810190620016349190620031ca565b505b92915050565b600f5481565b6000546001600160a01b031633146200165a57600080fd5b600355565b60006200166c83620011e4565b6200168b5760405162461bcd60e51b8152600401620013c49062003852565b6000600a84815481106200169b57fe5b60009182526020918290206040805161014081018252600a90930290910180546001600160a01b031683526001810180548351818702810187019094528084529394919385830193928301828280156200171f57602002820191906000526020600020905b81546001600160a01b0316815260019091019060200180831162001700575b505050505081526020016002820160009054906101000a90046001600160a01b03166001600160a01b03166001600160a01b03168152602001600382015481526020016004820154815260200160058201548152602001600682015481526020016007820154815260200160088201805480602002602001604051908101604052809291908181526020018280548015620017da57602002820191906000526020600020905b815481526020019060010190808311620017c5575b50505091835250506009919091015460ff1615156020909101526040808201519051631c4a5de160e21b81529192506000916001600160a01b03909116906371297784906200182e90339060040162003568565b602060405180830381600087803b1580156200184957600080fd5b505af11580156200185e573d6000803e3d6000fd5b505050506040513d601f19601f8201168201806040525081019062001884919062003324565b905060095460095482816200189557fe5b040290506000620018a682620010b5565b90506000620018d0670de0b6b3a764000062000f048660800151856200204590919063ffffffff16565b9050620018de82826200208d565b84516001600160a01b0390811660009081526008602052604090819020805485019055600154905163a9059cbb60e01b8152929450169063a9059cbb906200192d9089908690600401620035a0565b602060405180830381600087803b1580156200194857600080fd5b505af11580156200195d573d6000803e3d6000fd5b505050506040513d601f19601f82011682018060405250810190620019839190620031ca565b50600084606001519050600085604001516001600160a01b03166306fdde036040518163ffffffff1660e01b815260040160006040518083038186803b158015620019cd57600080fd5b505afa158015620019e2573d6000803e3d6000fd5b505050506040513d6000823e601f3d908101601f1916820160405262001a0c919081019062003281565b9050876001600160a01b03167f76ea0c89f1eef8b1ac3908910bbe5ee5120ff997f6b3bcc900659973e6a2ff128a886040015185858a898b60405162001a599796959493929190620039da565b60405180910390a25091979650505050505050565b60075481565b62001a7e62002eba565b6000828152600e602052604090819020815160a081019092528054829060ff16801562001aa757fe5b801562001ab057fe5b815260018201546020820152600282015460408201526003820154606082015260049091015460809091015292915050565b60055481565b600d818154811062001af957600080fd5b60009182526020918290206005919091020180546040805160026001841615610100026000190190931692909204601f81018590048502830185019091528082529193509183919083018282801562001b965780601f1062001b6a5761010080835404028352916020019162001b96565b820191906000526020600020905b81548152906001019060200180831162001b7857829003601f168201915b505050506001830154600284015460039094015492936001600160a01b039091169290915060ff1684565b6009540290565b600c546001600160a01b031681565b6000546001600160a01b0316331462001bef57600080fd5b600455565b6001546001600160a01b031681565b62001c0d62002db7565b600d828154811062001c1b57fe5b600091825260209182902060408051600593909302909101805460026001821615610100026000190190911604601f8101859004909402830160c090810190925260a083018481529293909284929091849184018282801562001cc25780601f1062001c965761010080835404028352916020019162001cc2565b820191906000526020600020905b81548152906001019060200180831162001ca457829003601f168201915b50505091835250506001828101546001600160a01b03166020808401919091526002840154604080850191909152600385015460ff1660608501528051918201908190526080909301929091600485019182845b81548152602001906001019080831162001d16575050505050815250509050919050565b6000546001600160a01b0316331462001d5257600080fd5b600c80546001600160a01b0383166001600160a01b0319909116811790915560408051918252517f6b7517523482c8d89ffbc530829d5decd506cf6dc60874b11fa26c8a53bb9fa99181900360200190a150565b600080805b845181101562001dec5762001de162001dd986838151811062001dca57fe5b6020026020010151866200165f565b839062002286565b915060010162001dab565b509392505050565b62001dfe62002eea565b600a54821062001e1a5762001e1262002299565b9050620010ee565b600a828154811062001e2857fe5b60009182526020918290206040805161014081018252600a90930290910180546001600160a01b0316835260018101805483518187028101870190945280845293949193858301939283018282801562001eac57602002820191906000526020600020905b81546001600160a01b0316815260019091019060200180831162001e8d575b505050505081526020016002820160009054906101000a90046001600160a01b03166001600160a01b03166001600160a01b0316815260200160038201548152602001600482015481526020016005820154815260200160068201548152602001600782015481526020016008820180548060200260200160405190810160405280929190818152602001828054801562001f6757602002820191906000526020600020905b81548152602001906001019080831162001f52575b50505091835250506009919091015460ff1615156020909101529050620010ee565b600a5490565b600080546001600160a01b0316331462001fa857600080fd5b6001600160a01b03821662001fbc57600080fd5b60005462001fd4906001600160a01b03168362002307565b50600080546001600160a01b0383166001600160a01b03199091161790556001919050565b6200200362002db7565b5060408051602080820183526000808352835160a0810185529687526001600160a01b03909516908601529084019290925260ff166060830152608082015290565b600082620020565750600062001636565b828202828482816200206457fe5b04146200207057600080fd5b9392505050565b6000808284816200208457fe5b04949350505050565b6000828211156200209d57600080fd5b50900390565b6000806000600d8681548110620020b657fe5b600091825260209182902060408051600593909302909101805460026001821615610100026000190190911604601f8101859004909402830160c090810190925260a08301848152929390928492909184918401828280156200215d5780601f1062002131576101008083540402835291602001916200215d565b820191906000526020600020905b8154815290600101906020018083116200213f57829003601f168201915b50505091835250506001828101546001600160a01b03166020808401919091526002840154604080850191909152600385015460ff1660608501528051918201908190526080909301929091600485019182845b815481526020019060010190808311620021b1575050505050815250509050600080620021e08387896200230b565b608085015151919350915015620021fe57620021fe83828462002663565b80600d89815481106200220d57fe5b6000918252602090912060026005909202010155600f546200223957600080945094505050506200227e565b600c54620022539089906001600160a01b031683620026a9565b935083600d89815481106200226457fe5b600091825260208220600591909102016004010155935050505b935093915050565b6000828201838110156200207057600080fd5b620022a362002eea565b506040805160008082526020820181815261018083018452928201818152606083018390526080830182905260a0830182905260c0830182905260e08301829052610100830182905261012083018290526101408301939093526101609091015290565b5050565b60008069ffffffffffffffffffff8416620023cd57600085602001516001600160a01b031663feaf968c6040518163ffffffff1660e01b815260040160a06040518083038186803b1580156200236057600080fd5b505afa15801562002375573d6000803e3d6000fd5b505050506040513d601f19601f820116820180604052508101906200239b9190620033be565b5050509150506000811215620023c55760405162461bcd60e51b8152600401620013c490620037e4565b91506200256b565b60008086602001516001600160a01b0316639a6fc8f5876040518263ffffffff1660e01b815260040162002402919062003abe565b60a06040518083038186803b1580156200241b57600080fd5b505afa15801562002430573d6000803e3d6000fd5b505050506040513d601f19601f82011682018060405250810190620024569190620033be565b509350509250506000821215620024815760405162461bcd60e51b8152600401620013c490620037e4565b84811015620024a45760405162461bcd60e51b8152600401620013c4906200381b565b84156200256757600087602001516001600160a01b0316639a6fc8f5620024cb8962002800565b6040518263ffffffff1660e01b8152600401620024e9919062003abe565b60a06040518083038186803b1580156200250257600080fd5b505afa15801562002517573d6000803e3d6000fd5b505050506040513d601f19601f820116820180604052508101906200253d9190620033be565b509350505050858110620025655760405162461bcd60e51b8152600401620013c49062003754565b505b5091505b600085602001516001600160a01b031663313ce5676040518163ffffffff1660e01b815260040160206040518083038186803b158015620025ab57600080fd5b505afa158015620025c0573d6000803e3d6000fd5b505050506040513d601f19601f82011682018060405250810190620025e691906200341a565b9050856060015160ff168160ff1611156200261c576060860151810360ff8116600a0a84816200261257fe5b049250506200264b565b856060015160ff168160ff1610156200264757606086015181900360ff16600a0a830291506200264b565b8291505b8282146200265a576001820191505b50935093915050565b6080830151516040840151600090841115620026825750600062002686565b5060015b62002692828262002822565b506000908152600e60205260409020600301555050565b60408051600280825260608201909252600091829190816020015b6060815260200190600190039081620026c45790505060408051808201909152600581526441626f766560d81b6020820152909150816000815181106200270757fe5b6020026020010181905250604051806040016040528060098152602001684e6f742041626f766560b81b815250816001808111156200274257fe5b815181106200274d57fe5b60200260200101819052506200277484826200276c60006002620029cc565b600162002ae0565b6040805160a081018252600080825260208083018a905282840188905260608301829052600f546080840152848252600e905291909120815181549395509192909190829060ff19166001838015620027c957fe5b0217905550602082015160018201556040820151600282015560608201516003820155608090910151600490910155509392505050565b69ffff0000000000000000811667ffffffffffffffff60001983011617919050565b6000600a83815481106200283257fe5b90600052602060002090600a020160010182815481106200284f57fe5b600091825260209091200154600a80546001600160a01b0390921692508291859081106200287957fe5b90600052602060002090600a020160020160006101000a8154816001600160a01b0302191690836001600160a01b031602179055506000600a8481548110620028be57fe5b90600052602060002090600a020160090160006101000a81548160ff02191690831515021790555081600a8481548110620028f557fe5b90600052602060002090600a0201600301819055506000816001600160a01b03166306fdde036040518163ffffffff1660e01b815260040160006040518083038186803b1580156200294657600080fd5b505afa1580156200295b573d6000803e3d6000fd5b505050506040513d6000823e601f3d908101601f1916820160405262002985919081019062003281565b90507f8008bbeee2e3c054e71d4965b4c22b41a2287cd6cc67c714bf918b538338be5f84838584604051620029be9493929190620039a1565b60405180910390a150505050565b6060600083620029de576000620029e1565b60015b60ff16830190508067ffffffffffffffff8111801562002a0057600080fd5b5060405190808252806020026020018201604052801562002a2b578160200160208202803683370190505b509150831562002a5957670de0b6b3a76400008260008151811062002a4c57fe5b6020026020010181815250505b6000838562002a72576802b5e3af16b188000062002a7d565b6802a802f8630a2400005b68ffffffffffffffffff168162002a9057fe5b04905060008562002aa357600062002aa6565b60015b60ff1690505b8281101562002ad7578184828151811062002ac357fe5b602090810291909101015260010162002aac565b50505092915050565b600a80546040805161014081019091526001600160a01b03871681529091906020810162002b0f873062002cc2565b815260006020808301829052604083018290526004546060840152600554608084015260035460a08401524260c084015260e0830188905286151561010090930192909252835460018082018655948252908290208351600a9092020180546001600160a01b0319166001600160a01b039092169190911781558282015180519394919362002ba79392850192919091019062002f51565b5060408201516002820180546001600160a01b0319166001600160a01b03909216919091179055606082015160038201556080820151600482015560a0820151600582015560c0820151600682015560e08201516007820155610100820151805162002c1e91600884019160209091019062002fa9565b5061012091909101516009909101805460ff19169115159190911790556040517f037fdac9e4b37ad8b184ce958d7b275e578c9e03d4cfbc51aa75de25fdb6bbec9062002c719083908790879062003a28565b60405180910390a1811562002cba577fee570fee9d8debeedea533b8cdfde6b9d9995b915869d4d10d350e75a9bf0f888160405162002cb1919062003998565b60405180910390a15b949350505050565b815160609060008167ffffffffffffffff8111801562002ce157600080fd5b5060405190808252806020026020018201604052801562002d0c578160200160208202803683370190505b50905060005b8281101562002dae5785818151811062002d2857fe5b602002602001015186828151811062002d3d57fe5b60200260200101518660405162002d549062002fe6565b62002d6293929190620036db565b604051809103906000f08015801562002d7f573d6000803e3d6000fd5b5082828151811062002d8d57fe5b6001600160a01b039092166020928302919091019091015260010162002d12565b50949350505050565b6040518060a001604052806060815260200160006001600160a01b0316815260200160008152602001600060ff16815260200162002df462002ff4565b905290565b828054600181600116156101000203166002900490600052602060002090601f01602090048101928262002e31576000855562002e7c565b82601f1062002e4c57805160ff191683800117855562002e7c565b8280016001018555821562002e7c579182015b8281111562002e7c57825182559160200191906001019062002e5f565b50620007b092915062003012565b826001810192821562002e7c579160200282018281111562002e7c57825182559160200191906001019062002e5f565b6040805160a081019091528060008152602001600081526020016000815260200160008152602001600081525090565b60405180610140016040528060006001600160a01b031681526020016060815260200160006001600160a01b031681526020016000815260200160008152602001600081526020016000815260200160008152602001606081526020016000151581525090565b82805482825590600052602060002090810192821562002e7c579160200282015b8281111562002e7c57825182546001600160a01b0319166001600160a01b0390911617825560209092019160019091019062002f72565b82805482825590600052602060002090810192821562002e7c579160200282018281111562002e7c57825182559160200191906001019062002e5f565b6111f38062003b7f83390190565b60405180602001604052806001906020820280368337509192915050565b5b80821115620007b0576000815560010162003013565b8035620010ee8162003b2d565b60006020828403121562003048578081fd5b8135620020708162003b2d565b6000806040838503121562003068578081fd5b8235620030758162003b2d565b91506020830135620030878162003b46565b809150509250929050565b60008060408385031215620030a5578182fd5b823567ffffffffffffffff80821115620030bd578384fd5b818501915085601f830112620030d1578384fd5b8135602082821115620030e057fe5b8082029250620030f281840162003ad5565b8281528181019085830185870184018b10156200310d578889fd5b8896505b848710156200313157803583526001969096019591830191830162003111565b50965062003143905087820162003029565b9450505050509250929050565b60008060006040848603121562003165578081fd5b833567ffffffffffffffff808211156200317d578283fd5b818601915086601f83011262003191578283fd5b813581811115620031a0578384fd5b8760208083028501011115620031b4578384fd5b6020928301989097509590910135949350505050565b600060208284031215620031dc578081fd5b8151620020708162003b46565b60008060008060608587031215620031ff578081fd5b843567ffffffffffffffff8082111562003217578283fd5b818701915087601f8301126200322b578283fd5b8135818111156200323a578384fd5b8860208285010111156200324c578384fd5b60209283019650945050850135620032648162003b2d565b91506040850135620032768162003b55565b939692955090935050565b60006020828403121562003293578081fd5b815167ffffffffffffffff80821115620032ab578283fd5b818401915084601f830112620032bf578283fd5b815181811115620032cc57fe5b620032e1601f8201601f191660200162003ad5565b9150808252856020828501011115620032f8578384fd5b62002dae81602084016020860162003afa565b6000602082840312156200331d578081fd5b5035919050565b60006020828403121562003336578081fd5b5051919050565b6000806040838503121562003350578182fd5b823591506020830135620030878162003b2d565b60008060006060848603121562003379578081fd5b83359250602084013591506040840135620033948162003b2d565b809150509250925092565b600060208284031215620033b1578081fd5b8135620020708162003b65565b600080600080600060a08688031215620033d6578283fd5b8551620033e38162003b65565b8095505060208601519350604086015192506060860151915060808601516200340c8162003b65565b809150509295509295909350565b6000602082840312156200342c578081fd5b8151620020708162003b55565b6001600160a01b03169052565b6000815180845260208085019450808401835b83811015620034805781516001600160a01b03168752958201959082019060010162003459565b509495945050505050565b6000815180845260208085019450808401835b8381101562003480578151875295820195908201906001016200349e565b15159052565b60008151808452620034dc81602086016020860162003afa565b601f01601f19169290920160200192915050565b6000815160a084526200350760a0850182620034c2565b9050602060018060a01b038185015116818601526040840151604086015260ff6060850151166060860152608084015160808601845b60018110156200355c578251825291830191908301906001016200353d565b50929695505050505050565b6001600160a01b0391909116815260200190565b6001600160a01b039384168152919092166020820152604081019190915260600190565b6001600160a01b03929092168252602082015260400190565b6000602080830181845280855180835260408601915060408482028701019250838701855b828110156200361057603f19888603018452620035fd858351620034f0565b94509285019290850190600101620035de565b5092979650505050505050565b6000604082526200363260408301856200348b565b82810360208401526200364681856200348b565b95945050505050565b901515815260200190565b60006020825282602083015282846040840137818301604090810191909152601f909201601f19160101919050565b600060208252620020706020830184620034c2565b600060808252620036b36080830187620034c2565b6001600160a01b0395909516602083015250604081019290925260ff16606090910152919050565b600060608252620036f06060830186620034c2565b8281036020840152620037048186620034c2565b91505060018060a01b0383166040830152949350505050565b6020808252601f908201527f4d757374207761697420666f72206d61726b6574207265736f6c7574696f6e00604082015260600190565b6020808252602a908201527f4d7573742075736520666972737420726f756e64206166746572207265736f6c6040820152697574696f6e2074696d6560b01b606082015260800190565b60208082526026908201527f4d7573742073706563696679206f6e6520726f756e64496420666f7220656163604082015265341031b7b4b760d11b606082015260800190565b6020808252601b908201527f50726963652066726f6d2066656564206973206e656761746976650000000000604082015260600190565b6020808252601d908201527f5072696365206861736e2774206265656e207570646174656420796574000000604082015260600190565b6020808252601190820152701b585c9ad95d081d5b9c995cdbdb1d9959607a1b604082015260600190565b600060208252620020706020830184620034f0565b815160a082019060018110620038a457fe5b808352506020830151602083015260408301516040830152606083015160608301526080830151608083015292915050565b600060208252620038ec60208301845162003439565b60208301516101408060408501526200390a61016085018362003446565b9150604085015162003920606086018262003439565b5060608501516080850152608085015160a085015260a085015160c085015260c085015160e085015260e0850151610100818187015280870151915050610120601f1986850301818701526200397784836200348b565b9350808701519150506200398e82860182620034bc565b5090949350505050565b90815260200190565b600085825260018060a01b038516602083015283604083015260806060830152620039d06080830184620034c2565b9695505050505050565b600088825260018060a01b038816602083015286604083015260e0606083015262003a0960e0830187620034c2565b60808301959095525060a081019290925260c090910152949350505050565b600060608201858352602060608185015281865180845260808601915060808382028701019350828801855b8281101562003a8657607f1988870301845262003a73868351620034c2565b9550928401929084019060010162003a54565b50505050508281036040840152620039d081856200348b565b92835260208301919091526001600160a01b0316604082015260600190565b69ffffffffffffffffffff91909116815260200190565b60405181810167ffffffffffffffff8111828210171562003af257fe5b604052919050565b60005b8381101562003b1757818101518382015260200162003afd565b8381111562003b27576000848401525b50505050565b6001600160a01b038116811462003b4357600080fd5b50565b801515811462003b4357600080fd5b60ff8116811462003b4357600080fd5b69ffffffffffffffffffff8116811462003b4357600080fdfe60806040523480156200001157600080fd5b50604051620011f3380380620011f3833981810160405260608110156200003757600080fd5b81019080805160405193929190846401000000008211156200005857600080fd5b9083019060208201858111156200006e57600080fd5b82516401000000008111828201881017156200008957600080fd5b82525081516020918201929091019080838360005b83811015620000b85781810151838201526020016200009e565b50505050905090810190601f168015620000e65780820380516001836020036101000a031916815260200191505b50604052602001805160405193929190846401000000008211156200010a57600080fd5b9083019060208201858111156200012057600080fd5b82516401000000008111828201881017156200013b57600080fd5b82525081516020918201929091019080838360005b838110156200016a57818101518382015260200162000150565b50505050905090810190601f168015620001985780820380516001836020036101000a031916815260200191505b5060405260209081015185519093508592508491620001bd9160039185019062000219565b508051620001d390600490602084019062000219565b5050600580546001600160a01b039390931661010090810233909102610100600160a81b031960ff199095166012178516179093169290921790915550620002c5915050565b828054600181600116156101000203166002900490600052602060002090601f0160209004810192826200025157600085556200029c565b82601f106200026c57805160ff19168380011785556200029c565b828001600101855582156200029c579182015b828111156200029c5782518255916020019190600101906200027f565b50620002aa929150620002ae565b5090565b5b80821115620002aa5760008155600101620002af565b610f1e80620002d56000396000f3fe608060405234801561001057600080fd5b506004361061010b5760003560e01c806370a08231116100a2578063a457c2d711610071578063a457c2d714610343578063a9059cbb1461036f578063c024cd261461039b578063dd62ed3e146103c7578063f2fde38b146103f55761010b565b806370a08231146102cb57806371297784146102f1578063893d20e81461031757806395d89b411461033b5761010b565b806323b872dd116100de57806323b872dd1461021f578063313ce56714610255578063395093511461027357806342986e131461029f5761010b565b806306fdde0314610110578063095ea7b31461018d5780630fb66557146101cd57806318160ddd14610205575b600080fd5b61011861041b565b6040805160208082528351818301528351919283929083019185019080838360005b8381101561015257818101518382015260200161013a565b50505050905090810190601f16801561017f5780820380516001836020036101000a031916815260200191505b509250505060405180910390f35b6101b9600480360360408110156101a357600080fd5b506001600160a01b0381351690602001356104b1565b604080519115158252519081900360200190f35b610203600480360360608110156101e357600080fd5b506001600160a01b038135811691602081013590911690604001356104ce565b005b61020d6104fa565b60408051918252519081900360200190f35b6101b96004803603606081101561023557600080fd5b506001600160a01b03813581169160208101359091169060400135610500565b61025d610587565b6040805160ff9092168252519081900360200190f35b6101b96004803603604081101561028957600080fd5b506001600160a01b038135169060200135610590565b610203600480360360408110156102b557600080fd5b506001600160a01b0381351690602001356105de565b61020d600480360360208110156102e157600080fd5b50356001600160a01b0316610608565b61020d6004803603602081101561030757600080fd5b50356001600160a01b0316610623565b61031f61065f565b604080516001600160a01b039092168252519081900360200190f35b610118610673565b6101b96004803603604081101561035957600080fd5b506001600160a01b0381351690602001356106d4565b6101b96004803603604081101561038557600080fd5b506001600160a01b03813516906020013561073c565b610203600480360360408110156103b157600080fd5b506001600160a01b038135169060200135610750565b61020d600480360360408110156103dd57600080fd5b506001600160a01b0381358116916020013516610776565b6101b96004803603602081101561040b57600080fd5b50356001600160a01b03166107a1565b60038054604080516020601f60026000196101006001881615020190951694909404938401819004810282018101909252828152606093909290918301828280156104a75780601f1061047c576101008083540402835291602001916104a7565b820191906000526020600020905b81548152906001019060200180831161048a57829003601f168201915b5050505050905090565b60006104c56104be610818565b848461081c565b50600192915050565b60055461010090046001600160a01b031633146104ea57600080fd5b6104f5838383610908565b505050565b60025490565b600061050d848484610908565b61057d84610519610818565b61057885604051806060016040528060288152602001610e32602891396001600160a01b038a16600090815260016020526040812090610557610818565b6001600160a01b031681526020810191909152604001600020549190610a63565b61081c565b5060019392505050565b60055460ff1690565b60006104c561059d610818565b8461057885600160006105ae610818565b6001600160a01b03908116825260208083019390935260409182016000908120918c168152925290205490610afa565b60055461010090046001600160a01b031633146105fa57600080fd5b6106048282610b5b565b5050565b6001600160a01b031660009081526020819052604090205490565b60055460009061010090046001600160a01b0316331461064257600080fd5b600061064d83610608565b90506106598382610b5b565b92915050565b60055461010090046001600160a01b031690565b60048054604080516020601f60026000196101006001881615020190951694909404938401819004810282018101909252828152606093909290918301828280156104a75780601f1061047c576101008083540402835291602001916104a7565b60006104c56106e1610818565b8461057885604051806060016040528060258152602001610ec4602591396001600061070b610818565b6001600160a01b03908116825260208083019390935260409182016000908120918d16815292529020549190610a63565b60006104c5610749610818565b8484610908565b60055461010090046001600160a01b0316331461076c57600080fd5b6106048282610c57565b6001600160a01b03918216600090815260016020908152604080832093909416825291909152205490565b60055460009061010090046001600160a01b031633146107c057600080fd5b6001600160a01b0382166107d357600080fd5b6005546107ee9061010090046001600160a01b031683610604565b50600580546001600160a01b03831661010002610100600160a81b03199091161790556001919050565b3390565b6001600160a01b0383166108615760405162461bcd60e51b8152600401808060200182810382526024815260200180610ea06024913960400191505060405180910390fd5b6001600160a01b0382166108a65760405162461bcd60e51b8152600401808060200182810382526022815260200180610dea6022913960400191505060405180910390fd5b6001600160a01b03808416600081815260016020908152604080832094871680845294825291829020859055815185815291517f8c5be1e5ebec7d5bd14f71427d1e84f3dd0314c0f7b2291e5b200ac8c7c3b9259281900390910190a3505050565b6001600160a01b03831661094d5760405162461bcd60e51b8152600401808060200182810382526025815260200180610e7b6025913960400191505060405180910390fd5b6001600160a01b0382166109925760405162461bcd60e51b8152600401808060200182810382526023815260200180610da56023913960400191505060405180910390fd5b61099d8383836104f5565b6109da81604051806060016040528060268152602001610e0c602691396001600160a01b0386166000908152602081905260409020549190610a63565b6001600160a01b038085166000908152602081905260408082209390935590841681522054610a099082610afa565b6001600160a01b038084166000818152602081815260409182902094909455805185815290519193928716927fddf252ad1be2c89b69c2b068fc378daa952ba7f163c4a11628f55a4df523b3ef92918290030190a3505050565b60008184841115610af25760405162461bcd60e51b81526004018080602001828103825283818151815260200191508051906020019080838360005b83811015610ab7578181015183820152602001610a9f565b50505050905090810190601f168015610ae45780820380516001836020036101000a031916815260200191505b509250505060405180910390fd5b505050900390565b600082820183811015610b54576040805162461bcd60e51b815260206004820152601b60248201527f536166654d6174683a206164646974696f6e206f766572666c6f770000000000604482015290519081900360640190fd5b9392505050565b6001600160a01b038216610ba05760405162461bcd60e51b8152600401808060200182810382526021815260200180610e5a6021913960400191505060405180910390fd5b610bac826000836104f5565b610be981604051806060016040528060228152602001610dc8602291396001600160a01b0385166000908152602081905260409020549190610a63565b6001600160a01b038316600090815260208190526040902055600254610c0f9082610d47565b6002556040805182815290516000916001600160a01b038516917fddf252ad1be2c89b69c2b068fc378daa952ba7f163c4a11628f55a4df523b3ef9181900360200190a35050565b6001600160a01b038216610cb2576040805162461bcd60e51b815260206004820152601f60248201527f45524332303a206d696e7420746f20746865207a65726f206164647265737300604482015290519081900360640190fd5b610cbe600083836104f5565b600254610ccb9082610afa565b6002556001600160a01b038216600090815260208190526040902054610cf19082610afa565b6001600160a01b0383166000818152602081815260408083209490945583518581529351929391927fddf252ad1be2c89b69c2b068fc378daa952ba7f163c4a11628f55a4df523b3ef9281900390910190a35050565b600082821115610d9e576040805162461bcd60e51b815260206004820152601e60248201527f536166654d6174683a207375627472616374696f6e206f766572666c6f770000604482015290519081900360640190fd5b5090039056fe45524332303a207472616e7366657220746f20746865207a65726f206164647265737345524332303a206275726e20616d6f756e7420657863656564732062616c616e636545524332303a20617070726f766520746f20746865207a65726f206164647265737345524332303a207472616e7366657220616d6f756e7420657863656564732062616c616e636545524332303a207472616e7366657220616d6f756e74206578636565647320616c6c6f77616e636545524332303a206275726e2066726f6d20746865207a65726f206164647265737345524332303a207472616e736665722066726f6d20746865207a65726f206164647265737345524332303a20617070726f76652066726f6d20746865207a65726f206164647265737345524332303a2064656372656173656420616c6c6f77616e63652062656c6f77207a65726fa2646970667358221220c881513fca5a75d47e02fc1c04920461b43ce001b23b37bd2a0244cb5b4737ce64736f6c63430007060033a2646970667358221220820ade04b5a5b1a5b9bbe17229ab3cec9d40fd65980f00ae83f19e84bdec6c0864736f6c63430007060033",
  "devdoc": {
    "kind": "dev",
    "methods": {
      "transferOwnership(address)": {
        "details": "Allows the current owner to transfer control of the contract to a newOwner.",
        "params": {
          "_newOwner": "The address to transfer ownership to."
        }
      }
    },
    "version": 1
  },
  "userdoc": {
    "kind": "user",
    "methods": {},
    "version": 1
  },
  "storageLayout": {
    "storage": [
      {
        "astId": 7573,
        "contract": "contracts/turbo/CryptoMarketFactory.sol:CryptoMarketFactory",
        "label": "owner",
        "offset": 0,
        "slot": "0",
        "type": "t_address"
      },
      {
        "astId": 14319,
        "contract": "contracts/turbo/CryptoMarketFactory.sol:CryptoMarketFactory",
        "label": "collateral",
        "offset": 0,
        "slot": "1",
        "type": "t_contract(IERC20Full)7405"
      },
      {
        "astId": 14321,
        "contract": "contracts/turbo/CryptoMarketFactory.sol:CryptoMarketFactory",
        "label": "feePot",
        "offset": 0,
        "slot": "2",
        "type": "t_contract(FeePot)17167"
      },
      {
        "astId": 14323,
        "contract": "contracts/turbo/CryptoMarketFactory.sol:CryptoMarketFactory",
        "label": "stakerFee",
        "offset": 0,
        "slot": "3",
        "type": "t_uint256"
      },
      {
        "astId": 14325,
        "contract": "contracts/turbo/CryptoMarketFactory.sol:CryptoMarketFactory",
        "label": "settlementFee",
        "offset": 0,
        "slot": "4",
        "type": "t_uint256"
      },
      {
        "astId": 14327,
        "contract": "contracts/turbo/CryptoMarketFactory.sol:CryptoMarketFactory",
        "label": "protocolFee",
        "offset": 0,
        "slot": "5",
        "type": "t_uint256"
      },
      {
        "astId": 14329,
        "contract": "contracts/turbo/CryptoMarketFactory.sol:CryptoMarketFactory",
        "label": "protocol",
        "offset": 0,
        "slot": "6",
        "type": "t_address"
      },
      {
        "astId": 14332,
        "contract": "contracts/turbo/CryptoMarketFactory.sol:CryptoMarketFactory",
        "label": "accumulatedProtocolFee",
        "offset": 0,
        "slot": "7",
        "type": "t_uint256"
      },
      {
        "astId": 14336,
        "contract": "contracts/turbo/CryptoMarketFactory.sol:CryptoMarketFactory",
        "label": "accumulatedSettlementFees",
        "offset": 0,
        "slot": "8",
        "type": "t_mapping(t_address,t_uint256)"
      },
      {
        "astId": 14338,
        "contract": "contracts/turbo/CryptoMarketFactory.sol:CryptoMarketFactory",
        "label": "shareFactor",
        "offset": 0,
        "slot": "9",
        "type": "t_uint256"
      },
      {
        "astId": 14364,
        "contract": "contracts/turbo/CryptoMarketFactory.sol:CryptoMarketFactory",
        "label": "markets",
        "offset": 0,
        "slot": "10",
        "type": "t_array(t_struct(Market)14361_storage)dyn_storage"
      },
      {
        "astId": 9084,
        "contract": "contracts/turbo/CryptoMarketFactory.sol:CryptoMarketFactory",
        "label": "version",
        "offset": 0,
        "slot": "11",
        "type": "t_string_storage"
      },
      {
        "astId": 7527,
        "contract": "contracts/turbo/CryptoMarketFactory.sol:CryptoMarketFactory",
        "label": "linkNode",
        "offset": 0,
        "slot": "12",
        "type": "t_address"
      },
      {
        "astId": 15266,
        "contract": "contracts/turbo/CryptoMarketFactory.sol:CryptoMarketFactory",
        "label": "coins",
        "offset": 0,
        "slot": "13",
        "type": "t_array(t_struct(Coin)15263_storage)dyn_storage"
      },
      {
        "astId": 15286,
        "contract": "contracts/turbo/CryptoMarketFactory.sol:CryptoMarketFactory",
        "label": "marketDetails",
        "offset": 0,
        "slot": "14",
        "type": "t_mapping(t_uint256,t_struct(MarketDetails)15282_storage)"
      },
      {
        "astId": 15288,
        "contract": "contracts/turbo/CryptoMarketFactory.sol:CryptoMarketFactory",
        "label": "nextResolutionTime",
        "offset": 0,
        "slot": "15",
        "type": "t_uint256"
      }
    ],
    "types": {
      "t_address": {
        "encoding": "inplace",
        "label": "address",
        "numberOfBytes": "20"
      },
      "t_array(t_contract(OwnedERC20)23777)dyn_storage": {
        "base": "t_contract(OwnedERC20)23777",
        "encoding": "dynamic_array",
        "label": "contract OwnedERC20[]",
        "numberOfBytes": "32"
      },
      "t_array(t_struct(Coin)15263_storage)dyn_storage": {
        "base": "t_struct(Coin)15263_storage",
        "encoding": "dynamic_array",
        "label": "struct CryptoMarketFactory.Coin[]",
        "numberOfBytes": "32"
      },
      "t_array(t_struct(Market)14361_storage)dyn_storage": {
        "base": "t_struct(Market)14361_storage",
        "encoding": "dynamic_array",
        "label": "struct AbstractMarketFactoryV3.Market[]",
        "numberOfBytes": "32"
      },
      "t_array(t_uint256)1_storage": {
        "base": "t_uint256",
        "encoding": "inplace",
        "label": "uint256[1]",
        "numberOfBytes": "32"
      },
      "t_array(t_uint256)dyn_storage": {
        "base": "t_uint256",
        "encoding": "dynamic_array",
        "label": "uint256[]",
        "numberOfBytes": "32"
      },
      "t_bool": {
        "encoding": "inplace",
        "label": "bool",
        "numberOfBytes": "1"
      },
      "t_contract(AggregatorV3Interface)45": {
        "encoding": "inplace",
        "label": "contract AggregatorV3Interface",
        "numberOfBytes": "20"
      },
      "t_contract(FeePot)17167": {
        "encoding": "inplace",
        "label": "contract FeePot",
        "numberOfBytes": "20"
      },
      "t_contract(IERC20Full)7405": {
        "encoding": "inplace",
        "label": "contract IERC20Full",
        "numberOfBytes": "20"
      },
      "t_contract(OwnedERC20)23777": {
        "encoding": "inplace",
        "label": "contract OwnedERC20",
        "numberOfBytes": "20"
      },
      "t_enum(MarketType)15268": {
        "encoding": "inplace",
        "label": "enum CryptoMarketFactory.MarketType",
        "numberOfBytes": "1"
      },
      "t_mapping(t_address,t_uint256)": {
        "encoding": "mapping",
        "key": "t_address",
        "label": "mapping(address => uint256)",
        "numberOfBytes": "32",
        "value": "t_uint256"
      },
      "t_mapping(t_uint256,t_struct(MarketDetails)15282_storage)": {
        "encoding": "mapping",
        "key": "t_uint256",
        "label": "mapping(uint256 => struct CryptoMarketFactory.MarketDetails)",
        "numberOfBytes": "32",
        "value": "t_struct(MarketDetails)15282_storage"
      },
      "t_string_storage": {
        "encoding": "bytes",
        "label": "string",
        "numberOfBytes": "32"
      },
      "t_struct(Coin)15263_storage": {
        "encoding": "inplace",
        "label": "struct CryptoMarketFactory.Coin",
        "members": [
          {
            "astId": 15252,
            "contract": "contracts/turbo/CryptoMarketFactory.sol:CryptoMarketFactory",
            "label": "name",
            "offset": 0,
            "slot": "0",
            "type": "t_string_storage"
          },
          {
            "astId": 15254,
            "contract": "contracts/turbo/CryptoMarketFactory.sol:CryptoMarketFactory",
            "label": "priceFeed",
            "offset": 0,
            "slot": "1",
            "type": "t_contract(AggregatorV3Interface)45"
          },
          {
            "astId": 15256,
            "contract": "contracts/turbo/CryptoMarketFactory.sol:CryptoMarketFactory",
            "label": "price",
            "offset": 0,
            "slot": "2",
            "type": "t_uint256"
          },
          {
            "astId": 15258,
            "contract": "contracts/turbo/CryptoMarketFactory.sol:CryptoMarketFactory",
            "label": "imprecision",
            "offset": 0,
            "slot": "3",
            "type": "t_uint8"
          },
          {
            "astId": 15262,
            "contract": "contracts/turbo/CryptoMarketFactory.sol:CryptoMarketFactory",
            "label": "currentMarkets",
            "offset": 0,
            "slot": "4",
            "type": "t_array(t_uint256)1_storage"
          }
        ],
        "numberOfBytes": "160"
      },
      "t_struct(Market)14361_storage": {
        "encoding": "inplace",
        "label": "struct AbstractMarketFactoryV3.Market",
        "members": [
          {
            "astId": 14340,
            "contract": "contracts/turbo/CryptoMarketFactory.sol:CryptoMarketFactory",
            "label": "settlementAddress",
            "offset": 0,
            "slot": "0",
            "type": "t_address"
          },
          {
            "astId": 14343,
            "contract": "contracts/turbo/CryptoMarketFactory.sol:CryptoMarketFactory",
            "label": "shareTokens",
            "offset": 0,
            "slot": "1",
            "type": "t_array(t_contract(OwnedERC20)23777)dyn_storage"
          },
          {
            "astId": 14345,
            "contract": "contracts/turbo/CryptoMarketFactory.sol:CryptoMarketFactory",
            "label": "winner",
            "offset": 0,
            "slot": "2",
            "type": "t_contract(OwnedERC20)23777"
          },
          {
            "astId": 14347,
            "contract": "contracts/turbo/CryptoMarketFactory.sol:CryptoMarketFactory",
            "label": "winnerIndex",
            "offset": 0,
            "slot": "3",
            "type": "t_uint256"
          },
          {
            "astId": 14349,
            "contract": "contracts/turbo/CryptoMarketFactory.sol:CryptoMarketFactory",
            "label": "settlementFee",
            "offset": 0,
            "slot": "4",
            "type": "t_uint256"
          },
          {
            "astId": 14351,
            "contract": "contracts/turbo/CryptoMarketFactory.sol:CryptoMarketFactory",
            "label": "protocolFee",
            "offset": 0,
            "slot": "5",
            "type": "t_uint256"
          },
          {
            "astId": 14353,
            "contract": "contracts/turbo/CryptoMarketFactory.sol:CryptoMarketFactory",
            "label": "stakerFee",
            "offset": 0,
            "slot": "6",
            "type": "t_uint256"
          },
          {
            "astId": 14355,
            "contract": "contracts/turbo/CryptoMarketFactory.sol:CryptoMarketFactory",
            "label": "creationTimestamp",
            "offset": 0,
            "slot": "7",
            "type": "t_uint256"
          },
          {
            "astId": 14358,
            "contract": "contracts/turbo/CryptoMarketFactory.sol:CryptoMarketFactory",
            "label": "initialOdds",
            "offset": 0,
            "slot": "8",
            "type": "t_array(t_uint256)dyn_storage"
          },
          {
            "astId": 14360,
            "contract": "contracts/turbo/CryptoMarketFactory.sol:CryptoMarketFactory",
            "label": "active",
            "offset": 0,
            "slot": "9",
            "type": "t_bool"
          }
        ],
        "numberOfBytes": "320"
      },
      "t_struct(MarketDetails)15282_storage": {
        "encoding": "inplace",
        "label": "struct CryptoMarketFactory.MarketDetails",
        "members": [
          {
            "astId": 15273,
            "contract": "contracts/turbo/CryptoMarketFactory.sol:CryptoMarketFactory",
            "label": "marketType",
            "offset": 0,
            "slot": "0",
            "type": "t_enum(MarketType)15268"
          },
          {
            "astId": 15275,
            "contract": "contracts/turbo/CryptoMarketFactory.sol:CryptoMarketFactory",
            "label": "coinIndex",
            "offset": 0,
            "slot": "1",
            "type": "t_uint256"
          },
          {
            "astId": 15277,
            "contract": "contracts/turbo/CryptoMarketFactory.sol:CryptoMarketFactory",
            "label": "creationPrice",
            "offset": 0,
            "slot": "2",
            "type": "t_uint256"
          },
          {
            "astId": 15279,
            "contract": "contracts/turbo/CryptoMarketFactory.sol:CryptoMarketFactory",
            "label": "resolutionPrice",
            "offset": 0,
            "slot": "3",
            "type": "t_uint256"
          },
          {
            "astId": 15281,
            "contract": "contracts/turbo/CryptoMarketFactory.sol:CryptoMarketFactory",
            "label": "resolutionTime",
            "offset": 0,
            "slot": "4",
            "type": "t_uint256"
          }
        ],
        "numberOfBytes": "160"
      },
      "t_uint256": {
        "encoding": "inplace",
        "label": "uint256",
        "numberOfBytes": "32"
      },
      "t_uint8": {
        "encoding": "inplace",
        "label": "uint8",
        "numberOfBytes": "1"
      }
    }
  }
}