{
  "address": "0x615b63ea5a6dAE1e996E3a69aC70042B1D8f8517",
  "abi": [
    {
      "inputs": [
        {
          "internalType": "address",
          "name": "_owner",
          "type": "address"
        },
        {
          "internalType": "contract IERC20Full",
          "name": "_collateral",
          "type": "address"
        },
        {
          "internalType": "uint256",
          "name": "_shareFactor",
          "type": "uint256"
        },
        {
          "internalType": "contract FeePot",
          "name": "_feePot",
          "type": "address"
        },
        {
          "internalType": "uint256",
          "name": "_stakerFee",
          "type": "uint256"
        },
        {
          "internalType": "uint256",
          "name": "_settlementFee",
          "type": "uint256"
        },
        {
          "internalType": "address",
          "name": "_protocol",
          "type": "address"
        },
        {
          "internalType": "uint256",
          "name": "_protocolFee",
          "type": "uint256"
        },
        {
          "internalType": "address",
          "name": "_linkNode",
          "type": "address"
        },
        {
          "internalType": "uint256",
          "name": "_firstResolutionTime",
          "type": "uint256"
        }
      ],
      "stateMutability": "nonpayable",
      "type": "constructor"
    },
    {
      "anonymous": false,
      "inputs": [
        {
          "indexed": false,
          "internalType": "uint256",
          "name": "id",
          "type": "uint256"
        },
        {
          "indexed": false,
          "internalType": "address",
          "name": "creator",
          "type": "address"
        },
        {
          "indexed": true,
          "internalType": "uint256",
          "name": "endTime",
          "type": "uint256"
        },
        {
          "indexed": false,
          "internalType": "enum CryptoMarketFactory.MarketType",
          "name": "marketType",
          "type": "uint8"
        },
        {
          "indexed": true,
          "internalType": "uint256",
          "name": "coinIndex",
          "type": "uint256"
        },
        {
          "indexed": false,
          "internalType": "uint256",
          "name": "price",
          "type": "uint256"
        }
      ],
      "name": "MarketCreated",
      "type": "event"
    },
    {
      "anonymous": false,
      "inputs": [
        {
          "indexed": false,
          "internalType": "uint256",
          "name": "id",
          "type": "uint256"
        },
        {
          "indexed": false,
          "internalType": "address",
          "name": "winner",
          "type": "address"
        }
      ],
      "name": "MarketResolved",
      "type": "event"
    },
    {
      "anonymous": false,
      "inputs": [
        {
          "indexed": false,
          "internalType": "address",
          "name": "protocol",
          "type": "address"
        }
      ],
      "name": "ProtocolChanged",
      "type": "event"
    },
    {
      "anonymous": false,
      "inputs": [
        {
          "indexed": false,
          "internalType": "uint256",
          "name": "fee",
          "type": "uint256"
        }
      ],
      "name": "ProtocolFeeChanged",
      "type": "event"
    },
    {
      "anonymous": false,
      "inputs": [
        {
          "indexed": false,
          "internalType": "address",
          "name": "protocol",
          "type": "address"
        },
        {
          "indexed": false,
          "internalType": "uint256",
          "name": "amount",
          "type": "uint256"
        }
      ],
      "name": "ProtocolFeeClaimed",
      "type": "event"
    },
    {
      "anonymous": false,
      "inputs": [
        {
          "indexed": false,
          "internalType": "uint256",
          "name": "fee",
          "type": "uint256"
        }
      ],
      "name": "SettlementFeeChanged",
      "type": "event"
    },
    {
      "anonymous": false,
      "inputs": [
        {
          "indexed": false,
          "internalType": "address",
          "name": "settlementAddress",
          "type": "address"
        },
        {
          "indexed": false,
          "internalType": "uint256",
          "name": "amount",
          "type": "uint256"
        },
        {
          "indexed": true,
          "internalType": "address",
          "name": "receiver",
          "type": "address"
        }
      ],
      "name": "SettlementFeeClaimed",
      "type": "event"
    },
    {
      "anonymous": false,
      "inputs": [
        {
          "indexed": false,
          "internalType": "uint256",
          "name": "id",
          "type": "uint256"
        },
        {
          "indexed": false,
          "internalType": "uint256",
          "name": "amount",
          "type": "uint256"
        },
        {
          "indexed": false,
          "internalType": "address",
          "name": "receiver",
          "type": "address"
        }
      ],
      "name": "SharesBurned",
      "type": "event"
    },
    {
      "anonymous": false,
      "inputs": [
        {
          "indexed": false,
          "internalType": "uint256",
          "name": "id",
          "type": "uint256"
        },
        {
          "indexed": false,
          "internalType": "uint256",
          "name": "amount",
          "type": "uint256"
        },
        {
          "indexed": false,
          "internalType": "address",
          "name": "receiver",
          "type": "address"
        }
      ],
      "name": "SharesMinted",
      "type": "event"
    },
    {
      "anonymous": false,
      "inputs": [
        {
          "indexed": false,
          "internalType": "uint256",
          "name": "fee",
          "type": "uint256"
        }
      ],
      "name": "StakerFeeChanged",
      "type": "event"
    },
    {
      "anonymous": false,
      "inputs": [
        {
          "indexed": false,
          "internalType": "uint256",
          "name": "id",
          "type": "uint256"
        },
        {
          "indexed": false,
          "internalType": "address",
          "name": "winningOutcome",
          "type": "address"
        },
        {
          "indexed": false,
          "internalType": "uint256",
          "name": "amount",
          "type": "uint256"
        },
        {
          "indexed": false,
          "internalType": "uint256",
          "name": "settlementFee",
          "type": "uint256"
        },
        {
          "indexed": false,
          "internalType": "uint256",
          "name": "payout",
          "type": "uint256"
        },
        {
          "indexed": true,
          "internalType": "address",
          "name": "receiver",
          "type": "address"
        }
      ],
      "name": "WinningsClaimed",
      "type": "event"
    },
    {
      "inputs": [],
      "name": "accumulatedProtocolFee",
      "outputs": [
        {
          "internalType": "uint256",
          "name": "",
          "type": "uint256"
        }
      ],
      "stateMutability": "view",
      "type": "function"
    },
    {
      "inputs": [
        {
          "internalType": "address",
          "name": "",
          "type": "address"
        }
      ],
      "name": "accumulatedSettlementFees",
      "outputs": [
        {
          "internalType": "uint256",
          "name": "",
          "type": "uint256"
        }
      ],
      "stateMutability": "view",
      "type": "function"
    },
    {
      "inputs": [
        {
          "internalType": "string",
          "name": "_name",
          "type": "string"
        },
        {
          "internalType": "contract AggregatorV3Interface",
          "name": "_priceFeed",
          "type": "address"
        },
        {
          "internalType": "uint8",
          "name": "_imprecision",
          "type": "uint8"
        }
      ],
      "name": "addCoin",
      "outputs": [
        {
          "internalType": "uint256",
          "name": "_coinIndex",
          "type": "uint256"
        }
      ],
      "stateMutability": "nonpayable",
      "type": "function"
    },
    {
      "inputs": [
        {
          "internalType": "uint256",
          "name": "_id",
          "type": "uint256"
        },
        {
          "internalType": "uint256",
          "name": "_sharesToBurn",
          "type": "uint256"
        },
        {
          "internalType": "address",
          "name": "_receiver",
          "type": "address"
        }
      ],
      "name": "burnShares",
      "outputs": [
        {
          "internalType": "uint256",
          "name": "",
          "type": "uint256"
        }
      ],
      "stateMutability": "nonpayable",
      "type": "function"
    },
    {
      "inputs": [
        {
          "internalType": "uint256",
          "name": "_shares",
          "type": "uint256"
        }
      ],
      "name": "calcCost",
      "outputs": [
        {
          "internalType": "uint256",
          "name": "",
          "type": "uint256"
        }
      ],
      "stateMutability": "view",
      "type": "function"
    },
    {
      "inputs": [
        {
          "internalType": "uint256",
          "name": "_collateralIn",
          "type": "uint256"
        }
      ],
      "name": "calcShares",
      "outputs": [
        {
          "internalType": "uint256",
          "name": "",
          "type": "uint256"
        }
      ],
      "stateMutability": "view",
      "type": "function"
    },
    {
      "inputs": [
        {
          "internalType": "uint256[]",
          "name": "_ids",
          "type": "uint256[]"
        },
        {
          "internalType": "address",
          "name": "_receiver",
          "type": "address"
        }
      ],
      "name": "claimManyWinnings",
      "outputs": [
        {
          "internalType": "uint256",
          "name": "",
          "type": "uint256"
        }
      ],
      "stateMutability": "nonpayable",
      "type": "function"
    },
    {
      "inputs": [],
      "name": "claimProtocolFees",
      "outputs": [
        {
          "internalType": "uint256",
          "name": "",
          "type": "uint256"
        }
      ],
      "stateMutability": "nonpayable",
      "type": "function"
    },
    {
      "inputs": [
        {
          "internalType": "address",
          "name": "_receiver",
          "type": "address"
        }
      ],
      "name": "claimSettlementFees",
      "outputs": [
        {
          "internalType": "uint256",
          "name": "",
          "type": "uint256"
        }
      ],
      "stateMutability": "nonpayable",
      "type": "function"
    },
    {
      "inputs": [
        {
          "internalType": "uint256",
          "name": "_id",
          "type": "uint256"
        },
        {
          "internalType": "address",
          "name": "_receiver",
          "type": "address"
        }
      ],
      "name": "claimWinnings",
      "outputs": [
        {
          "internalType": "uint256",
          "name": "",
          "type": "uint256"
        }
      ],
      "stateMutability": "nonpayable",
      "type": "function"
    },
    {
      "inputs": [
        {
          "internalType": "uint256",
          "name": "",
          "type": "uint256"
        }
      ],
      "name": "coins",
      "outputs": [
        {
          "internalType": "string",
          "name": "name",
          "type": "string"
        },
        {
          "internalType": "contract AggregatorV3Interface",
          "name": "priceFeed",
          "type": "address"
        },
        {
          "internalType": "uint256",
          "name": "price",
          "type": "uint256"
        },
        {
          "internalType": "uint8",
          "name": "imprecision",
          "type": "uint8"
        }
      ],
      "stateMutability": "view",
      "type": "function"
    },
    {
      "inputs": [],
      "name": "collateral",
      "outputs": [
        {
          "internalType": "contract IERC20Full",
          "name": "",
          "type": "address"
        }
      ],
      "stateMutability": "view",
      "type": "function"
    },
    {
      "inputs": [
        {
          "internalType": "uint80[]",
          "name": "_roundIds",
          "type": "uint80[]"
        },
        {
          "internalType": "uint256",
          "name": "_nextResolutionTime",
          "type": "uint256"
        }
      ],
      "name": "createAndResolveMarkets",
      "outputs": [],
      "stateMutability": "nonpayable",
      "type": "function"
    },
    {
      "inputs": [],
      "name": "feePot",
      "outputs": [
        {
          "internalType": "contract FeePot",
          "name": "",
          "type": "address"
        }
      ],
      "stateMutability": "view",
      "type": "function"
    },
    {
      "inputs": [
        {
          "internalType": "uint256",
          "name": "_coinIndex",
          "type": "uint256"
        }
      ],
      "name": "getCoin",
      "outputs": [
        {
          "components": [
            {
              "internalType": "string",
              "name": "name",
              "type": "string"
            },
            {
              "internalType": "contract AggregatorV3Interface",
              "name": "priceFeed",
              "type": "address"
            },
            {
              "internalType": "uint256",
              "name": "price",
              "type": "uint256"
            },
            {
              "internalType": "uint8",
              "name": "imprecision",
              "type": "uint8"
            },
            {
              "internalType": "uint256[1]",
              "name": "currentMarkets",
              "type": "uint256[1]"
            }
          ],
          "internalType": "struct CryptoMarketFactory.Coin",
          "name": "_coin",
          "type": "tuple"
        }
      ],
      "stateMutability": "view",
      "type": "function"
    },
    {
      "inputs": [],
      "name": "getCoins",
      "outputs": [
        {
          "components": [
            {
              "internalType": "string",
              "name": "name",
              "type": "string"
            },
            {
              "internalType": "contract AggregatorV3Interface",
              "name": "priceFeed",
              "type": "address"
            },
            {
              "internalType": "uint256",
              "name": "price",
              "type": "uint256"
            },
            {
              "internalType": "uint8",
              "name": "imprecision",
              "type": "uint8"
            },
            {
              "internalType": "uint256[1]",
              "name": "currentMarkets",
              "type": "uint256[1]"
            }
          ],
          "internalType": "struct CryptoMarketFactory.Coin[]",
          "name": "_coins",
          "type": "tuple[]"
        }
      ],
      "stateMutability": "view",
      "type": "function"
    },
    {
      "inputs": [
        {
          "internalType": "uint256",
          "name": "_id",
          "type": "uint256"
        }
      ],
      "name": "getMarket",
      "outputs": [
        {
          "components": [
            {
              "internalType": "address",
              "name": "settlementAddress",
              "type": "address"
            },
            {
              "internalType": "contract OwnedERC20[]",
              "name": "shareTokens",
              "type": "address[]"
            },
            {
              "internalType": "uint256",
              "name": "endTime",
              "type": "uint256"
            },
            {
              "internalType": "contract OwnedERC20",
              "name": "winner",
              "type": "address"
            },
            {
              "internalType": "uint256",
              "name": "settlementFee",
              "type": "uint256"
            },
            {
              "internalType": "uint256",
              "name": "protocolFee",
              "type": "uint256"
            },
            {
              "internalType": "uint256",
              "name": "stakerFee",
              "type": "uint256"
            },
            {
              "internalType": "uint256",
              "name": "creationTimestamp",
              "type": "uint256"
            },
            {
              "internalType": "uint256[]",
              "name": "initialOdds",
              "type": "uint256[]"
            }
          ],
          "internalType": "struct AbstractMarketFactoryV2.Market",
          "name": "",
          "type": "tuple"
        }
      ],
      "stateMutability": "view",
      "type": "function"
    },
    {
      "inputs": [
        {
          "internalType": "uint256",
          "name": "_marketId",
          "type": "uint256"
        }
      ],
      "name": "getMarketDetails",
      "outputs": [
        {
          "components": [
            {
              "internalType": "enum CryptoMarketFactory.MarketType",
              "name": "marketType",
              "type": "uint8"
            },
            {
              "internalType": "uint256",
              "name": "coinIndex",
              "type": "uint256"
            },
            {
              "internalType": "uint256",
              "name": "creationPrice",
              "type": "uint256"
            },
            {
              "internalType": "uint256",
              "name": "resolutionPrice",
              "type": "uint256"
            }
          ],
          "internalType": "struct CryptoMarketFactory.MarketDetails",
          "name": "",
          "type": "tuple"
        }
      ],
      "stateMutability": "view",
      "type": "function"
    },
    {
      "inputs": [],
      "name": "getOwner",
      "outputs": [
        {
          "internalType": "address",
          "name": "",
          "type": "address"
        }
      ],
      "stateMutability": "view",
      "type": "function"
    },
    {
      "inputs": [
        {
          "internalType": "uint256",
          "name": "_id",
          "type": "uint256"
        }
      ],
      "name": "isMarketResolved",
      "outputs": [
        {
          "internalType": "bool",
          "name": "",
          "type": "bool"
        }
      ],
      "stateMutability": "view",
      "type": "function"
    },
    {
      "inputs": [],
      "name": "linkNode",
      "outputs": [
        {
          "internalType": "address",
          "name": "",
          "type": "address"
        }
      ],
      "stateMutability": "view",
      "type": "function"
    },
    {
      "inputs": [],
      "name": "listUnresolvedMarkets",
      "outputs": [
        {
          "internalType": "uint256[]",
          "name": "",
          "type": "uint256[]"
        }
      ],
      "stateMutability": "view",
      "type": "function"
    },
    {
      "inputs": [],
      "name": "marketCount",
      "outputs": [
        {
          "internalType": "uint256",
          "name": "",
          "type": "uint256"
        }
      ],
      "stateMutability": "view",
      "type": "function"
    },
    {
      "inputs": [
        {
          "internalType": "uint256",
          "name": "_id",
          "type": "uint256"
        },
        {
          "internalType": "uint256",
          "name": "_shareToMint",
          "type": "uint256"
        },
        {
          "internalType": "address",
          "name": "_receiver",
          "type": "address"
        }
      ],
      "name": "mintShares",
      "outputs": [],
      "stateMutability": "nonpayable",
      "type": "function"
    },
    {
      "inputs": [],
      "name": "nextResolutionTime",
      "outputs": [
        {
          "internalType": "uint256",
          "name": "",
          "type": "uint256"
        }
      ],
      "stateMutability": "view",
      "type": "function"
    },
    {
      "inputs": [],
      "name": "protocol",
      "outputs": [
        {
          "internalType": "address",
          "name": "",
          "type": "address"
        }
      ],
      "stateMutability": "view",
      "type": "function"
    },
    {
      "inputs": [],
      "name": "protocolFee",
      "outputs": [
        {
          "internalType": "uint256",
          "name": "",
          "type": "uint256"
        }
      ],
      "stateMutability": "view",
      "type": "function"
    },
    {
      "inputs": [
        {
          "internalType": "uint256",
          "name": "",
          "type": "uint256"
        }
      ],
      "name": "resolveMarket",
      "outputs": [],
      "stateMutability": "pure",
      "type": "function"
    },
    {
      "inputs": [
        {
          "internalType": "address",
          "name": "_newProtocol",
          "type": "address"
        },
        {
          "internalType": "bool",
          "name": "_claimFirst",
          "type": "bool"
        }
      ],
      "name": "setProtocol",
      "outputs": [],
      "stateMutability": "nonpayable",
      "type": "function"
    },
    {
      "inputs": [
        {
          "internalType": "uint256",
          "name": "_newFee",
          "type": "uint256"
        }
      ],
      "name": "setProtocolFee",
      "outputs": [],
      "stateMutability": "nonpayable",
      "type": "function"
    },
    {
      "inputs": [
        {
          "internalType": "uint256",
          "name": "_newFee",
          "type": "uint256"
        }
      ],
      "name": "setSettlementFee",
      "outputs": [],
      "stateMutability": "nonpayable",
      "type": "function"
    },
    {
      "inputs": [
        {
          "internalType": "uint256",
          "name": "_newFee",
          "type": "uint256"
        }
      ],
      "name": "setStakerFee",
      "outputs": [],
      "stateMutability": "nonpayable",
      "type": "function"
    },
    {
      "inputs": [],
      "name": "settlementFee",
      "outputs": [
        {
          "internalType": "uint256",
          "name": "",
          "type": "uint256"
        }
      ],
      "stateMutability": "view",
      "type": "function"
    },
    {
      "inputs": [],
      "name": "shareFactor",
      "outputs": [
        {
          "internalType": "uint256",
          "name": "",
          "type": "uint256"
        }
      ],
      "stateMutability": "view",
      "type": "function"
    },
    {
      "inputs": [],
      "name": "stakerFee",
      "outputs": [
        {
          "internalType": "uint256",
          "name": "",
          "type": "uint256"
        }
      ],
      "stateMutability": "view",
      "type": "function"
    },
    {
      "inputs": [
        {
          "internalType": "address",
          "name": "_newOwner",
          "type": "address"
        }
      ],
      "name": "transferOwnership",
      "outputs": [
        {
          "internalType": "bool",
          "name": "",
          "type": "bool"
        }
      ],
      "stateMutability": "nonpayable",
      "type": "function"
    }
  ],
  "transactionHash": "0x73af64bc97d20a1ab4ba8aeaa3a21bdb19c680ae840e79b22869e553cae1f7fd",
  "args": [
    "0x8C9c733eCd48426b9c53c38ccB60F3b307329bE1",
    "0x5799bFe361BEea69f808328FF4884DF92f1f66f0",
    "1000000000000",
    "0x59DdFE9961e050bdA1ed9bf9CCD009948036Dd76",
    0,
    "500000000000000",
    "0x8C9c733eCd48426b9c53c38ccB60F3b307329bE1",
    0,
    "0x8C9c733eCd48426b9c53c38ccB60F3b307329bE1",
    1628884800000
  ],
  "solcInputHash": "c48192189f5641f0026de55e4887a883",
  "bytecode": "0x608060405260006007553480156200001657600080fd5b50604051620066ad380380620066ad833981016040819052620000399162000747565b600080546001600160a01b03808d166001600160a01b0319928316331783161790925560018054838d16908316811790915560098b905560028054848c1690841617905560038990556004888155600680549489169490931693909317909155600585905560405163095ea7b360e01b81528c928c928c928c928c928c928c928c929163095ea7b391620000d4918991600019910162000870565b602060405180830381600087803b158015620000ef57600080fd5b505af115801562000104573d6000803e3d6000fd5b505050506040513d601f19601f820116820180604052508101906200012a9190620007f9565b506200013562000228565b5050600d80546001600160a01b0319166001600160a01b038a16179055505050600e849055505060408051602081019091526000808252909150600b90620001809083908062000351565b81546001810183556000928352602092839020825180519394600590930290910192620001b192849201906200050a565b506020820151600182810180546001600160a01b0319166001600160a01b039093169290921790915560408301516002830155606083015160038301805460ff191660ff909216919091179055608083015162000214916004840191906200059f565b5050505050505050505050505050620008e4565b604080516000808252602082019092528162000255565b60608152602001906001900390816200023f5790505b506040805160008082526020820190925291925050600a6200027c6000848082866200039d565b8154600180820184556000938452602093849020835160099093020180546001600160a01b0319166001600160a01b0390931692909217825582840151805193949293620002d393928501929190910190620005cf565b506040820151600282015560608201516003820180546001600160a01b0319166001600160a01b039092169190911790556080820151600482015560a0820151600582015560c0820151600682015560e0820151600782015561010082015180516200034a91600884019160209091019062000627565b5050505050565b6200035b62000664565b5060408051602080820183526000808352835160a0810185529687526001600160a01b03909516908601529084019290925260ff166060830152608082015290565b620003a7620006a6565b604051806101200160405280876001600160a01b03168152602001620003d58787306200041560201b60201c565b81526020810194909452600060408501526004546060850152600554608085015260035460a08501524260c085015260e090930191909152509392505050565b82516060906000816001600160401b03811180156200043357600080fd5b506040519080825280602002602001820160405280156200045e578160200160208202803683370190505b50905060005b8281101562000500578681815181106200047a57fe5b60200260200101518682815181106200048f57fe5b602002602001015186604051620004a69062000704565b620004b49392919062000889565b604051809103906000f080158015620004d1573d6000803e3d6000fd5b50828281518110620004df57fe5b6001600160a01b039092166020928302919091019091015260010162000464565b5095945050505050565b828054600181600116156101000203166002900490600052602060002090601f0160209004810192826200054257600085556200058d565b82601f106200055d57805160ff19168380011785556200058d565b828001600101855582156200058d579182015b828111156200058d57825182559160200191906001019062000570565b506200059b92915062000712565b5090565b82600181019282156200058d57916020028201828111156200058d57825182559160200191906001019062000570565b8280548282559060005260206000209081019282156200058d579160200282015b828111156200058d57825182546001600160a01b0319166001600160a01b03909116178255602090920191600190910190620005f0565b8280548282559060005260206000209081019282156200058d57916020028201828111156200058d57825182559160200191906001019062000570565b6040518060a001604052806060815260200160006001600160a01b0316815260200160008152602001600060ff168152602001620006a162000729565b905290565b60405180610120016040528060006001600160a01b03168152602001606081526020016000815260200160006001600160a01b0316815260200160008152602001600081526020016000815260200160008152602001606081525090565b6111f380620054ba83390190565b5b808211156200059b576000815560010162000713565b60405180602001604052806001906020820280368337509192915050565b6000806000806000806000806000806101408b8d03121562000767578586fd5b8a516200077481620008cb565b60208c0151909a506200078781620008cb565b60408c015160608d0151919a509850620007a181620008cb565b8097505060808b0151955060a08b0151945060c08b0151620007c381620008cb565b60e08c01516101008d01519195509350620007de81620008cb565b809250506101208b015190509295989b9194979a5092959850565b6000602082840312156200080b578081fd5b815180151581146200081b578182fd5b9392505050565b60008151808452815b8181101562000849576020818501810151868301820152016200082b565b818111156200085b5782602083870101525b50601f01601f19169290920160200192915050565b6001600160a01b03929092168252602082015260400190565b6000606082526200089e606083018662000822565b8281036020840152620008b2818662000822565b91505060018060a01b0383166040830152949350505050565b6001600160a01b0381168114620008e157600080fd5b50565b614bc680620008f46000396000f3fe60806040523480156200001157600080fd5b5060043610620002505760003560e01c80638e0ed1931162000141578063d4b6838e11620000bd578063da3115881162000087578063da31158814620004df578063e5678dfa1462000505578063eb44fdd3146200051c578063ec9790821462000542578063f2fde38b146200054c5762000250565b8063d4b6838e146200049b578063d5da4f1d14620004a5578063d8dfeb4514620004bc578063d9113f0d14620004c65762000250565b8063a544a62c116200010b578063a544a62c1462000421578063b06c1ba3146200042b578063b0e21e8a1462000451578063c6610657146200045b578063cc87adea14620004845762000250565b80638e0ed19314620003d257806390cb4dce14620003e957806397eef18714620003f3578063992c9079146200040a5762000250565b80634c9f66c711620001d1578063787dce3d116200019b578063787dce3d14620003865780637a5c3278146200039d5780637d1d7fb814620003b4578063893d20e814620003be5780638ce7442614620003c85762000250565b80634c9f66c7146200032657806353ac55f5146200033f5780636399d03d14620003655780637641ab01146200037c5762000250565b806335a9cdad116200021f57806335a9cdad14620002cd578063473a6d5214620002e457806349a4d93414620002fb5780634a7d036914620003125780634b2d9ffc146200031c5762000250565b806313c390ef1462000255578063221fff8114620002775780632cfcfa3a146200029057806332ecabe914620002b6575b600080fd5b6200025f62000563565b6040516200026e91906200338a565b60405180910390f35b6200028e620002883660046200310c565b6200071a565b005b620002a7620002a13660046200301b565b62000a46565b6040516200026e919062003899565b6200028e620002c736600462002e7b565b62000b79565b620002a7620002de3660046200310c565b62000bfd565b620002a7620002f5366004620030b3565b6200102c565b620002a76200030c36600462002e5c565b6200107f565b620002a762001091565b620002a7620011b9565b62000330620011bf565b6040516200026e919062003339565b6200035662000350366004620030b3565b620011ce565b6040516200026e919062003403565b6200028e62000376366004620030b3565b6200133e565b620002a76200135b565b6200028e62000397366004620030b3565b62001361565b6200028e620003ae36600462002f82565b620013bb565b620002a762001493565b6200033062001499565b62000330620014a8565b620002a7620003e336600462002e5c565b620014b7565b620002a7620015b8565b6200028e62000404366004620030b3565b620015be565b620002a76200041b366004620030e5565b6200160d565b620002a762001967565b620004426200043c366004620030b3565b6200196d565b6040516200026e9190620037b8565b620002a7620019d1565b620004726200046c366004620030b3565b620019d7565b6040516200026e94939291906200340e565b620002a762000495366004620030b3565b62001ab0565b6200033062001ab7565b6200028e620004b6366004620030b3565b62001ac6565b6200033062001b15565b620004d062001b24565b6040516200026e9190620033ee565b620004f6620004f0366004620030b3565b62001bfd565b6040516200026e9190620037a3565b620002a76200051636600462002eb8565b62001d34565b620005336200052d366004620030b3565b62001d82565b6040516200026e9190620037f1565b620002a762001f5a565b620003566200055d36600462002e5c565b62001f60565b600b5460609067ffffffffffffffff811180156200058057600080fd5b50604051908082528060200260200182016040528015620005be57816020015b620005aa62002bed565b815260200190600190039081620005a05790505b50905060015b600b548110156200071657600b8181548110620005dd57fe5b600091825260209182902060408051600593909302909101805460026001821615610100026000190190911604601f8101859004909402830160c090810190925260a0830184815292939092849290918491840182828015620006845780601f10620006585761010080835404028352916020019162000684565b820191906000526020600020905b8154815290600101906020018083116200066657829003601f168201915b50505091835250506001828101546001600160a01b03166020808401919091526002840154604080850191909152600385015460ff1660608501528051918201908190526080909301929091600485019182845b815481526020019060010190808311620006d8575050505050815250508282815181106200070257fe5b6020908102919091010152600101620005c4565b5090565b600a548310620007475760405162461bcd60e51b81526004016200073e9062003604565b60405180910390fd5b6200075283620011ce565b15620007725760405162461bcd60e51b81526004016200073e90620036a9565b60006200077f836200102c565b6001546040516323b872dd60e01b81529192506001600160a01b0316906323b872dd90620007b6903390309086906004016200334d565b602060405180830381600087803b158015620007d157600080fd5b505af1158015620007e6573d6000803e3d6000fd5b505050506040513d601f19601f820116820180604052508101906200080c919062002ffc565b506000600a85815481106200081d57fe5b60009182526020918290206040805161012081018252600990930290910180546001600160a01b03168352600181018054835181870281018701909452808452939491938583019392830182828015620008a157602002820191906000526020600020905b81546001600160a01b0316815260019091019060200180831162000882575b50505050508152602001600282015481526020016003820160009054906101000a90046001600160a01b03166001600160a01b03166001600160a01b0316815260200160048201548152602001600582015481526020016006820154815260200160078201548152602001600882018054806020026020016040519081016040528092919081815260200182805480156200095c57602002820191906000526020600020905b81548152602001906001019080831162000947575b505050505081525050905060005b81602001515181101562000a0157816020015181815181106200098957fe5b60200260200101516001600160a01b031663c024cd2685876040518363ffffffff1660e01b8152600401620009c092919062003371565b600060405180830381600087803b158015620009db57600080fd5b505af1158015620009f0573d6000803e3d6000fd5b5050600190920191506200096a9050565b507fd81c0442e10068a9818f3aa093c9ccb804584690df572d7df3da2d892a6973f285858560405162000a379392919062003919565b60405180910390a15050505050565b600080546001600160a01b0316331462000a5f57600080fd5b600062000aa686868080601f01602080910402602001604051908101604052809392919081815260200183838082843760009201919091525088925087915062001fca9050565b600b80546001810182556000919091528151805191945091925082917f0175b7a638427703f0dbe7bb9bbf987a2551717b34e79f33b5b1008d1fa01db960058602019162000afc91839160209091019062002c2f565b506020820151600182810180546001600160a01b0319166001600160a01b039093169290921790915560408301516002830155606083015160038301805460ff191660ff909216919091179055608083015162000b5f9160048401919062002cc0565b50505062000b708260008062002016565b50949350505050565b6000546001600160a01b0316331462000b9157600080fd5b801562000ba45762000ba262001091565b505b600680546001600160a01b0319166001600160a01b0384161790556040517f15b84596b3c567ae2998116949ae5f2d47f3055c12d9053db4d6e50f4c794dd99062000bf190849062003339565b60405180910390a15050565b600a54600090841062000c245760405162461bcd60e51b81526004016200073e9062003604565b62000c2f84620011ce565b1562000c4f5760405162461bcd60e51b81526004016200073e906200375d565b6000600a858154811062000c5f57fe5b60009182526020918290206040805161012081018252600990930290910180546001600160a01b0316835260018101805483518187028101870190945280845293949193858301939283018282801562000ce357602002820191906000526020600020905b81546001600160a01b0316815260019091019060200180831162000cc4575b50505050508152602001600282015481526020016003820160009054906101000a90046001600160a01b03166001600160a01b03166001600160a01b03168152602001600482015481526020016005820154815260200160068201548152602001600782015481526020016008820180548060200260200160405190810160405280929190818152602001828054801562000d9e57602002820191906000526020600020905b81548152602001906001019080831162000d89575b505050505081525050905060005b81602001515181101562000e43578160200151818151811062000dcb57fe5b60200260200101516001600160a01b03166342986e1333876040518363ffffffff1660e01b815260040162000e0292919062003371565b600060405180830381600087803b15801562000e1d57600080fd5b505af115801562000e32573d6000803e3d6000fd5b50506001909201915062000dac9050565b50600062000e51856200102c565b9050600062000e82670de0b6b3a764000062000e7b8560a0015185620021e890919063ffffffff16565b906200221a565b9050600062000eac670de0b6b3a764000062000e7b8660c0015186620021e890919063ffffffff16565b905062000ec68162000ebf858562002230565b9062002230565b600780548401905560015460405163a9059cbb60e01b81529194506001600160a01b03169063a9059cbb9062000f03908990879060040162003371565b602060405180830381600087803b15801562000f1e57600080fd5b505af115801562000f33573d6000803e3d6000fd5b505050506040513d601f19601f8201168201806040525081019062000f59919062002ffc565b50600254604051630ebdac0960e41b81526001600160a01b039091169063ebdac0909062000f8c90849060040162003899565b602060405180830381600087803b15801562000fa757600080fd5b505af115801562000fbc573d6000803e3d6000fd5b505050506040513d601f19601f8201168201806040525081019062000fe2919062002ffc565b507fb6fdb729b2ed801daf629f0ab713e4a7a73619505790f6f27fd92d6f2c9688d7888833604051620010189392919062003919565b60405180910390a150909695505050505050565b600060095482101580156200104b575060095482816200104857fe5b06155b6200106a5760405162461bcd60e51b81526004016200073e90620034d1565b60095482816200107657fe5b0490505b919050565b60086020526000908152604090205481565b6006546000906001600160a01b0316331480620010ad57503330145b620010cc5760405162461bcd60e51b81526004016200073e906200348d565b6007548015620011b457600060075560015460065460405163a9059cbb60e01b81526001600160a01b039283169263a9059cbb926200111392911690859060040162003371565b602060405180830381600087803b1580156200112e57600080fd5b505af115801562001143573d6000803e3d6000fd5b505050506040513d601f19601f8201168201806040525081019062001169919062002ffc565b506006546040517f0f7f5b155b0b0ac6890709a2c7bf1b8bb3f675fff1e7840b4dd3c9acde59048b91620011ab916001600160a01b0390911690849062003371565b60405180910390a15b905090565b60035481565b6002546001600160a01b031681565b600080600a8381548110620011df57fe5b60009182526020918290206040805161012081018252600990930290910180546001600160a01b031683526001810180548351818702810187019094528084529394919385830193928301828280156200126357602002820191906000526020600020905b81546001600160a01b0316815260019091019060200180831162001244575b50505050508152602001600282015481526020016003820160009054906101000a90046001600160a01b03166001600160a01b03166001600160a01b0316815260200160048201548152602001600582015481526020016006820154815260200160078201548152602001600882018054806020026020016040519081016040528092919081815260200182805480156200131e57602002820191906000526020600020905b81548152602001906001019080831162001309575b50505091909252505050606001516001600160a01b031615159392505050565b60405162461bcd60e51b81526004016200073e90620036ef565b50565b60095481565b6000546001600160a01b031633146200137957600080fd5b60058190556040517fada2cde3c4a561f5c23e2fdbfb223e1f0d1ec7109b9811b32644e6e974d6631f90620013b090839062003899565b60405180910390a150565b600d546001600160a01b03163314620013e85760405162461bcd60e51b81526004016200073e90620035c3565b600e541580620013fa5750600e544210155b620014195760405162461bcd60e51b81526004016200073e9062003542565b600b5482146200143d5760405162461bcd60e51b81526004016200073e906200362c565b600e80549082905560015b600b548110156200148c576200148381838787858181106200146657fe5b90506020020160208101906200147d919062003147565b62002016565b60010162001448565b5050505050565b60045481565b6000546001600160a01b031690565b6006546001600160a01b031681565b336000908152600860205260408120548015620015b2573360009081526008602052604080822091909155600154905163a9059cbb60e01b81526001600160a01b039091169063a9059cbb9062001515908690859060040162003371565b602060405180830381600087803b1580156200153057600080fd5b505af115801562001545573d6000803e3d6000fd5b505050506040513d601f19601f820116820180604052508101906200156b919062002ffc565b50826001600160a01b03167fc9985ad824d943d66367ce5feea26e18979b3e1c9273742926d87e2b0d7473873383604051620015a992919062003371565b60405180910390a25b92915050565b600e5481565b6000546001600160a01b03163314620015d657600080fd5b60038190556040517fcc4df50442ac32f0142ba4853f617661e0823be0e92148e7e5f36ce56c13982590620013b090839062003899565b60006200161a83620011ce565b6200162a576200162a836200133e565b6000600a84815481106200163a57fe5b60009182526020918290206040805161012081018252600990930290910180546001600160a01b03168352600181018054835181870281018701909452808452939491938583019392830182828015620016be57602002820191906000526020600020905b81546001600160a01b031681526001909101906020018083116200169f575b50505050508152602001600282015481526020016003820160009054906101000a90046001600160a01b03166001600160a01b03166001600160a01b0316815260200160048201548152602001600582015481526020016006820154815260200160078201548152602001600882018054806020026020016040519081016040528092919081815260200182805480156200177957602002820191906000526020600020905b81548152602001906001019080831162001764575b5050505050815250509050600081606001516001600160a01b03166371297784336040518263ffffffff1660e01b8152600401620017b8919062003339565b602060405180830381600087803b158015620017d357600080fd5b505af1158015620017e8573d6000803e3d6000fd5b505050506040513d601f19601f820116820180604052508101906200180e9190620030cc565b905060095460095482816200181f57fe5b04029050600062001830826200102c565b905060006200185a670de0b6b3a764000062000e7b866080015185620021e890919063ffffffff16565b905062001868828262002230565b84516001600160a01b0390811660009081526008602052604090819020805485019055600154905163a9059cbb60e01b8152929450169063a9059cbb90620018b7908990869060040162003371565b602060405180830381600087803b158015620018d257600080fd5b505af1158015620018e7573d6000803e3d6000fd5b505050506040513d601f19601f820116820180604052508101906200190d919062002ffc565b50856001600160a01b03167fe67bd0100cd3289557430d36098901ba18161e6279c9711d8650b8af1055210488866060015186858760405162001955959493929190620038ed565b60405180910390a25095945050505050565b60075481565b6200197762002cf0565b6000828152600c6020526040908190208151608081019092528054829060ff168015620019a057fe5b8015620019a957fe5b8152600182015460208201526002820154604082015260039091015460609091015292915050565b60055481565b600b8181548110620019e857600080fd5b60009182526020918290206005919091020180546040805160026001841615610100026000190190931692909204601f81018590048502830185019091528082529193509183919083018282801562001a855780601f1062001a595761010080835404028352916020019162001a85565b820191906000526020600020905b81548152906001019060200180831162001a6757829003601f168201915b505050506001830154600284015460039094015492936001600160a01b039091169290915060ff1684565b6009540290565b600d546001600160a01b031681565b6000546001600160a01b0316331462001ade57600080fd5b60048190556040517f92d395c429898992f8532ee7145901513e524c2085fd7fd1da39b8badcd6df3190620013b090839062003899565b6001546001600160a01b031681565b60606000805b600a5481101562001b555762001b4081620011ce565b62001b4c576001909101905b60010162001b2a565b5060008167ffffffffffffffff8111801562001b7057600080fd5b5060405190808252806020026020018201604052801562001b9b578160200160208202803683370190505b5090506000805b600a5481101562001bf45783821062001bbb5762001bf4565b62001bc681620011ce565b62001beb578083838151811062001bd957fe5b60209081029190910101526001909101905b60010162001ba2565b50909250505090565b62001c0762002bed565b600b828154811062001c1557fe5b600091825260209182902060408051600593909302909101805460026001821615610100026000190190911604601f8101859004909402830160c090810190925260a083018481529293909284929091849184018282801562001cbc5780601f1062001c905761010080835404028352916020019162001cbc565b820191906000526020600020905b81548152906001019060200180831162001c9e57829003601f168201915b50505091835250506001828101546001600160a01b03166020808401919091526002840154604080850191909152600385015460ff1660608501528051918201908190526080909301929091600485019182845b81548152602001906001019080831162001d10575050505050815250509050919050565b600080805b845181101562001d7a5762001d6f62001d6786838151811062001d5857fe5b6020026020010151866200160d565b839062002246565b915060010162001d39565b509392505050565b62001d8c62002d19565b600a54821062001dfc57506040805161012081018252600080825282518181526020808201855280840191909152828401829052606083018290526080830182905260a0830182905260c0830182905260e08301829052835191825281019092526101008101919091526200107a565b600a828154811062001e0a57fe5b60009182526020918290206040805161012081018252600990930290910180546001600160a01b0316835260018101805483518187028101870190945280845293949193858301939283018282801562001e8e57602002820191906000526020600020905b81546001600160a01b0316815260019091019060200180831162001e6f575b50505050508152602001600282015481526020016003820160009054906101000a90046001600160a01b03166001600160a01b03166001600160a01b03168152602001600482015481526020016005820154815260200160068201548152602001600782015481526020016008820180548060200260200160405190810160405280929190818152602001828054801562001f4957602002820191906000526020600020905b81548152602001906001019080831162001f34575b50505050508152505090506200107a565b600a5490565b600080546001600160a01b0316331462001f7957600080fd5b6001600160a01b03821662001f8d57600080fd5b60005462001fa5906001600160a01b03168362002259565b50600080546001600160a01b0383166001600160a01b03199091161790556001919050565b62001fd462002bed565b5060408051602080820183526000808352835160a0810185529687526001600160a01b03909516908601529084019290925260ff166060830152608082015290565b6000600b84815481106200202657fe5b600091825260209182902060408051600593909302909101805460026001821615610100026000190190911604601f8101859004909402830160c090810190925260a0830184815292939092849290918491840182828015620020cd5780601f10620020a157610100808354040283529160200191620020cd565b820191906000526020600020905b815481529060010190602001808311620020af57829003601f168201915b50505091835250506001828101546001600160a01b03166020808401919091526002840154604080850191909152600385015460ff1660608501528051918201908190526080909301929091600485019182845b81548152602001906001019080831162002121575050505050815250509050600080620021508385876200225d565b6080850151519193509150156200216e576200216e838284620025ae565b80600b87815481106200217d57fe5b6000918252602090912060026005909202010155600e54620021a257505050620021e3565b600d54620021bc9087906001600160a01b031683620026ee565b600b8781548110620021ca57fe5b6000918252602082206005919091020160040101555050505b505050565b600082620021f957506000620015b2565b828202828482816200220757fe5b04146200221357600080fd5b9392505050565b6000808284816200222757fe5b04949350505050565b6000828211156200224057600080fd5b50900390565b6000828201838110156200221357600080fd5b5050565b60008069ffffffffffffffffffff84166200231f57600085602001516001600160a01b031663feaf968c6040518163ffffffff1660e01b815260040160a06040518083038186803b158015620022b257600080fd5b505afa158015620022c7573d6000803e3d6000fd5b505050506040513d601f19601f82011682018060405250810190620022ed919062003166565b5050509150506000811215620023175760405162461bcd60e51b81526004016200073e9062003672565b9150620024b6565b60008086602001516001600160a01b0316639a6fc8f5876040518263ffffffff1660e01b815260040162002354919062003938565b60a06040518083038186803b1580156200236d57600080fd5b505afa15801562002382573d6000803e3d6000fd5b505050506040513d601f19601f82011682018060405250810190620023a8919062003166565b509350509250506000821215620023d35760405162461bcd60e51b81526004016200073e9062003672565b84811015620023f65760405162461bcd60e51b81526004016200073e9062003726565b600087602001516001600160a01b0316639a6fc8f562002416896200294f565b6040518263ffffffff1660e01b815260040162002434919062003938565b60a06040518083038186803b1580156200244d57600080fd5b505afa15801562002462573d6000803e3d6000fd5b505050506040513d601f19601f8201168201806040525081019062002488919062003166565b509350505050858110620024b05760405162461bcd60e51b81526004016200073e9062003579565b50909250505b600085602001516001600160a01b031663313ce5676040518163ffffffff1660e01b815260040160206040518083038186803b158015620024f657600080fd5b505afa1580156200250b573d6000803e3d6000fd5b505050506040513d601f19601f82011682018060405250810190620025319190620031c2565b9050856060015160ff168160ff16111562002567576060860151810360ff8116600a0a84816200255d57fe5b0492505062002596565b856060015160ff168160ff1610156200259257606086015181900360ff16600a0a8302915062002596565b8291505b828214620025a5576001820191505b50935093915050565b60808301515160408401516000908411156200260d57600a8281548110620025d257fe5b6000918252602082206001600990920201019081548110620025f057fe5b6000918252602090912001546001600160a01b031690506200265c565b600a82815481106200261b57fe5b90600052602060002090600902016001016001808111156200263957fe5b815481106200264457fe5b6000918252602090912001546001600160a01b031690505b80600a83815481106200266b57fe5b906000526020600020906009020160030160006101000a8154816001600160a01b0302191690836001600160a01b0316021790555082600c6000848152602001908152602001600020600301819055507fc68d106ea6e4bec784925cfd91767212c71ced92adbac107dc364435321113f6828260405162000a37929190620038a2565b60408051600280825260608201909252600091829190816020015b6060815260200190600190039081620027095790505060408051808201909152600581526441626f766560d81b6020820152909150816000815181106200274c57fe5b6020026020010181905250604051806040016040528060098152602001684e6f742041626f766560b81b815250816001808111156200278757fe5b815181106200279257fe5b6020908102919091010152600e54600a80549350620027c286848085620027bc6000600262002971565b62002a85565b8154600180820184556000938452602093849020835160099093020180546001600160a01b0319166001600160a01b0390931692909217825582840151805193949293620028199392850192919091019062002d77565b506040820151600282015560608201516003820180546001600160a01b0319166001600160a01b039092169190911790556080820151600482015560a0820151600582015560c0820151600682015560e0820151600782015561010082015180516200289091600884019160209091019062002dcf565b50506040805160808101909152905080600081526020808201899052604080830188905260006060909301839052868352600c909152902081518154829060ff19166001838015620028de57fe5b021790555060208201518160010155604082015181600201556060820151816003015590505085817ffa965940dabe32040cc7aa9ae52951f1264ab07b31a958ed03ea7072f8c6921885886000896040516200293e9493929190620038b9565b60405180910390a350509392505050565b69ffff0000000000000000811667ffffffffffffffff60001983011617919050565b60606000836200298357600062002986565b60015b60ff16830190508067ffffffffffffffff81118015620029a557600080fd5b50604051908082528060200260200182016040528015620029d0578160200160208202803683370190505b5091508315620029fe57670de0b6b3a764000082600081518110620029f157fe5b6020026020010181815250505b6000838562002a17576802b5e3af16b188000062002a22565b6802a802f8630a2400005b68ffffffffffffffffff168162002a3557fe5b04905060008562002a4857600062002a4b565b60015b60ff1690505b8281101562002a7c578184828151811062002a6857fe5b602090810291909101015260010162002a51565b50505092915050565b62002a8f62002d19565b604051806101200160405280876001600160a01b0316815260200162002ab787873062002af7565b81526020810194909452600060408501526004546060850152600554608085015260035460a08501524260c085015260e090930191909152509392505050565b825160609060008167ffffffffffffffff8111801562002b1657600080fd5b5060405190808252806020026020018201604052801562002b41578160200160208202803683370190505b50905060005b8281101562002be35786818151811062002b5d57fe5b602002602001015186828151811062002b7257fe5b60200260200101518660405162002b899062002e0c565b62002b97939291906200344b565b604051809103906000f08015801562002bb4573d6000803e3d6000fd5b5082828151811062002bc257fe5b6001600160a01b039092166020928302919091019091015260010162002b47565b5095945050505050565b6040518060a001604052806060815260200160006001600160a01b0316815260200160008152602001600060ff16815260200162002c2a62002e1a565b905290565b828054600181600116156101000203166002900490600052602060002090601f01602090048101928262002c67576000855562002cb2565b82601f1062002c8257805160ff191683800117855562002cb2565b8280016001018555821562002cb2579182015b8281111562002cb257825182559160200191906001019062002c95565b506200071692915062002e38565b826001810192821562002cb2579160200282018281111562002cb257825182559160200191906001019062002c95565b604080516080810190915280600081526020016000815260200160008152602001600081525090565b60405180610120016040528060006001600160a01b03168152602001606081526020016000815260200160006001600160a01b0316815260200160008152602001600081526020016000815260200160008152602001606081525090565b82805482825590600052602060002090810192821562002cb2579160200282015b8281111562002cb257825182546001600160a01b0319166001600160a01b0390911617825560209092019160019091019062002d98565b82805482825590600052602060002090810192821562002cb2579160200282018281111562002cb257825182559160200191906001019062002c95565b6111f3806200399e83390190565b60405180602001604052806001906020820280368337509192915050565b5b8082111562000716576000815560010162002e39565b80356200107a816200394f565b60006020828403121562002e6e578081fd5b813562002213816200394f565b6000806040838503121562002e8e578081fd5b823562002e9b816200394f565b9150602083013562002ead8162003965565b809150509250929050565b6000806040838503121562002ecb578182fd5b823567ffffffffffffffff8082111562002ee3578384fd5b818501915085601f83011262002ef7578384fd5b813560208282111562002f0657fe5b8082026040518282820101818110868211171562002f2057fe5b604052838152828101945085830182870184018b101562002f3f578889fd5b8896505b8487101562002f6357803586526001969096019594830194830162002f43565b50965062002f75905087820162002e4f565b9450505050509250929050565b60008060006040848603121562002f97578081fd5b833567ffffffffffffffff8082111562002faf578283fd5b818601915086601f83011262002fc3578283fd5b81358181111562002fd2578384fd5b876020808302850101111562002fe6578384fd5b6020928301989097509590910135949350505050565b6000602082840312156200300e578081fd5b8151620022138162003965565b6000806000806060858703121562003031578081fd5b843567ffffffffffffffff8082111562003049578283fd5b818701915087601f8301126200305d578283fd5b8135818111156200306c578384fd5b8860208285010111156200307e578384fd5b6020928301965094505085013562003096816200394f565b91506040850135620030a88162003974565b939692955090935050565b600060208284031215620030c5578081fd5b5035919050565b600060208284031215620030de578081fd5b5051919050565b60008060408385031215620030f8578182fd5b82359150602083013562002ead816200394f565b60008060006060848603121562003121578283fd5b833592506020840135915060408401356200313c816200394f565b809150509250925092565b60006020828403121562003159578081fd5b8135620022138162003984565b600080600080600060a086880312156200317e578283fd5b85516200318b8162003984565b809550506020860151935060408601519250606086015191506080860151620031b48162003984565b809150509295509295909350565b600060208284031215620031d4578081fd5b8151620022138162003974565b6001600160a01b03169052565b6000815180845260208085019450808401835b83811015620032285781516001600160a01b03168752958201959082019060010162003201565b509495945050505050565b6000815180845260208085019450808401835b83811015620032285781518752958201959082019060010162003246565b600181106200326f57fe5b9052565b60008151808452815b818110156200329a576020818501810151868301820152016200327c565b81811115620032ac5782602083870101525b50601f01601f19169290920160200192915050565b6000815160a08452620032d860a085018262003273565b9050602060018060a01b038185015116818601526040840151604086015260ff6060850151166060860152608084015160808601845b60018110156200332d578251825291830191908301906001016200330e565b50929695505050505050565b6001600160a01b0391909116815260200190565b6001600160a01b039384168152919092166020820152604081019190915260600190565b6001600160a01b03929092168252602082015260400190565b6000602080830181845280855180835260408601915060408482028701019250838701855b82811015620033e157603f19888603018452620033ce858351620032c1565b94509285019290850190600101620033af565b5092979650505050505050565b60006020825262002213602083018462003233565b901515815260200190565b60006080825262003423608083018762003273565b6001600160a01b0395909516602083015250604081019290925260ff16606090910152919050565b60006060825262003460606083018662003273565b828103602084015262003474818662003273565b91505060018060a01b0383166040830152949350505050565b60208082526024908201527f4f6e6c792070726f746f636f6c2063616e20636c61696d2070726f746f636f6c6040820152632066656560e01b606082015260800190565b6020808252604b908201527f536861726573206d75737420626520626f74682067726561746572207468616e60408201527f20286f7220657175616c20746f2920616e6420646976697369626c652062792060608201526a39b430b932a330b1ba37b960a91b608082015260a00190565b6020808252601f908201527f4d757374207761697420666f72206d61726b6574207265736f6c7574696f6e00604082015260600190565b6020808252602a908201527f4d7573742075736520666972737420726f756e64206166746572207265736f6c6040820152697574696f6e2074696d6560b01b606082015260800190565b60208082526021908201527f4f6e6c79206c696e6b206e6f64652063616e20637265617465206d61726b65746040820152607360f81b606082015260800190565b6020808252600e908201526d139bc81cdd58da081b585c9ad95d60921b604082015260600190565b60208082526026908201527f4d7573742073706563696679206f6e6520726f756e64496420666f7220656163604082015265341031b7b4b760d11b606082015260800190565b6020808252601b908201527f50726963652066726f6d2066656564206973206e656761746976650000000000604082015260600190565b60208082526026908201527f43616e6e6f74206d696e742073686172657320666f72207265736f6c766564206040820152651b585c9ad95d60d21b606082015260800190565b6020808252601b908201527f55736520637265617465416e645265736f6c76654d61726b6574730000000000604082015260600190565b6020808252601d908201527f5072696365206861736e2774206265656e207570646174656420796574000000604082015260600190565b60208082526026908201527f43616e6e6f74206275726e2073686172657320666f72207265736f6c766564206040820152651b585c9ad95d60d21b606082015260800190565b600060208252620022136020830184620032c1565b6000608082019050620037cd82845162003264565b60208301516020830152604083015160408301526060830151606083015292915050565b60006020825262003807602083018451620031e1565b602083015161012080604085015262003825610140850183620031ee565b9150604085015160608501526060850151620038456080860182620031e1565b50608085015160a085015260a085015160c085015260c085015160e085015260e0850151610100818187015280870151915050601f1985840301828601526200388f838262003233565b9695505050505050565b90815260200190565b9182526001600160a01b0316602082015260400190565b8481526001600160a01b038416602082015260808101620038de604083018562003264565b82606083015295945050505050565b9485526001600160a01b0393909316602085015260408401919091526060830152608082015260a00190565b92835260208301919091526001600160a01b0316604082015260600190565b69ffffffffffffffffffff91909116815260200190565b6001600160a01b03811681146200135857600080fd5b80151581146200135857600080fd5b60ff811681146200135857600080fd5b69ffffffffffffffffffff811681146200135857600080fdfe60806040523480156200001157600080fd5b50604051620011f3380380620011f3833981810160405260608110156200003757600080fd5b81019080805160405193929190846401000000008211156200005857600080fd5b9083019060208201858111156200006e57600080fd5b82516401000000008111828201881017156200008957600080fd5b82525081516020918201929091019080838360005b83811015620000b85781810151838201526020016200009e565b50505050905090810190601f168015620000e65780820380516001836020036101000a031916815260200191505b50604052602001805160405193929190846401000000008211156200010a57600080fd5b9083019060208201858111156200012057600080fd5b82516401000000008111828201881017156200013b57600080fd5b82525081516020918201929091019080838360005b838110156200016a57818101518382015260200162000150565b50505050905090810190601f168015620001985780820380516001836020036101000a031916815260200191505b5060405260209081015185519093508592508491620001bd9160039185019062000219565b508051620001d390600490602084019062000219565b5050600580546001600160a01b039390931661010090810233909102610100600160a81b031960ff199095166012178516179093169290921790915550620002c5915050565b828054600181600116156101000203166002900490600052602060002090601f0160209004810192826200025157600085556200029c565b82601f106200026c57805160ff19168380011785556200029c565b828001600101855582156200029c579182015b828111156200029c5782518255916020019190600101906200027f565b50620002aa929150620002ae565b5090565b5b80821115620002aa5760008155600101620002af565b610f1e80620002d56000396000f3fe608060405234801561001057600080fd5b506004361061010b5760003560e01c806370a08231116100a2578063a457c2d711610071578063a457c2d714610343578063a9059cbb1461036f578063c024cd261461039b578063dd62ed3e146103c7578063f2fde38b146103f55761010b565b806370a08231146102cb57806371297784146102f1578063893d20e81461031757806395d89b411461033b5761010b565b806323b872dd116100de57806323b872dd1461021f578063313ce56714610255578063395093511461027357806342986e131461029f5761010b565b806306fdde0314610110578063095ea7b31461018d5780630fb66557146101cd57806318160ddd14610205575b600080fd5b61011861041b565b6040805160208082528351818301528351919283929083019185019080838360005b8381101561015257818101518382015260200161013a565b50505050905090810190601f16801561017f5780820380516001836020036101000a031916815260200191505b509250505060405180910390f35b6101b9600480360360408110156101a357600080fd5b506001600160a01b0381351690602001356104b1565b604080519115158252519081900360200190f35b610203600480360360608110156101e357600080fd5b506001600160a01b038135811691602081013590911690604001356104ce565b005b61020d6104fa565b60408051918252519081900360200190f35b6101b96004803603606081101561023557600080fd5b506001600160a01b03813581169160208101359091169060400135610500565b61025d610587565b6040805160ff9092168252519081900360200190f35b6101b96004803603604081101561028957600080fd5b506001600160a01b038135169060200135610590565b610203600480360360408110156102b557600080fd5b506001600160a01b0381351690602001356105de565b61020d600480360360208110156102e157600080fd5b50356001600160a01b0316610608565b61020d6004803603602081101561030757600080fd5b50356001600160a01b0316610623565b61031f61065f565b604080516001600160a01b039092168252519081900360200190f35b610118610673565b6101b96004803603604081101561035957600080fd5b506001600160a01b0381351690602001356106d4565b6101b96004803603604081101561038557600080fd5b506001600160a01b03813516906020013561073c565b610203600480360360408110156103b157600080fd5b506001600160a01b038135169060200135610750565b61020d600480360360408110156103dd57600080fd5b506001600160a01b0381358116916020013516610776565b6101b96004803603602081101561040b57600080fd5b50356001600160a01b03166107a1565b60038054604080516020601f60026000196101006001881615020190951694909404938401819004810282018101909252828152606093909290918301828280156104a75780601f1061047c576101008083540402835291602001916104a7565b820191906000526020600020905b81548152906001019060200180831161048a57829003601f168201915b5050505050905090565b60006104c56104be610818565b848461081c565b50600192915050565b60055461010090046001600160a01b031633146104ea57600080fd5b6104f5838383610908565b505050565b60025490565b600061050d848484610908565b61057d84610519610818565b61057885604051806060016040528060288152602001610e32602891396001600160a01b038a16600090815260016020526040812090610557610818565b6001600160a01b031681526020810191909152604001600020549190610a63565b61081c565b5060019392505050565b60055460ff1690565b60006104c561059d610818565b8461057885600160006105ae610818565b6001600160a01b03908116825260208083019390935260409182016000908120918c168152925290205490610afa565b60055461010090046001600160a01b031633146105fa57600080fd5b6106048282610b5b565b5050565b6001600160a01b031660009081526020819052604090205490565b60055460009061010090046001600160a01b0316331461064257600080fd5b600061064d83610608565b90506106598382610b5b565b92915050565b60055461010090046001600160a01b031690565b60048054604080516020601f60026000196101006001881615020190951694909404938401819004810282018101909252828152606093909290918301828280156104a75780601f1061047c576101008083540402835291602001916104a7565b60006104c56106e1610818565b8461057885604051806060016040528060258152602001610ec4602591396001600061070b610818565b6001600160a01b03908116825260208083019390935260409182016000908120918d16815292529020549190610a63565b60006104c5610749610818565b8484610908565b60055461010090046001600160a01b0316331461076c57600080fd5b6106048282610c57565b6001600160a01b03918216600090815260016020908152604080832093909416825291909152205490565b60055460009061010090046001600160a01b031633146107c057600080fd5b6001600160a01b0382166107d357600080fd5b6005546107ee9061010090046001600160a01b031683610604565b50600580546001600160a01b03831661010002610100600160a81b03199091161790556001919050565b3390565b6001600160a01b0383166108615760405162461bcd60e51b8152600401808060200182810382526024815260200180610ea06024913960400191505060405180910390fd5b6001600160a01b0382166108a65760405162461bcd60e51b8152600401808060200182810382526022815260200180610dea6022913960400191505060405180910390fd5b6001600160a01b03808416600081815260016020908152604080832094871680845294825291829020859055815185815291517f8c5be1e5ebec7d5bd14f71427d1e84f3dd0314c0f7b2291e5b200ac8c7c3b9259281900390910190a3505050565b6001600160a01b03831661094d5760405162461bcd60e51b8152600401808060200182810382526025815260200180610e7b6025913960400191505060405180910390fd5b6001600160a01b0382166109925760405162461bcd60e51b8152600401808060200182810382526023815260200180610da56023913960400191505060405180910390fd5b61099d8383836104f5565b6109da81604051806060016040528060268152602001610e0c602691396001600160a01b0386166000908152602081905260409020549190610a63565b6001600160a01b038085166000908152602081905260408082209390935590841681522054610a099082610afa565b6001600160a01b038084166000818152602081815260409182902094909455805185815290519193928716927fddf252ad1be2c89b69c2b068fc378daa952ba7f163c4a11628f55a4df523b3ef92918290030190a3505050565b60008184841115610af25760405162461bcd60e51b81526004018080602001828103825283818151815260200191508051906020019080838360005b83811015610ab7578181015183820152602001610a9f565b50505050905090810190601f168015610ae45780820380516001836020036101000a031916815260200191505b509250505060405180910390fd5b505050900390565b600082820183811015610b54576040805162461bcd60e51b815260206004820152601b60248201527f536166654d6174683a206164646974696f6e206f766572666c6f770000000000604482015290519081900360640190fd5b9392505050565b6001600160a01b038216610ba05760405162461bcd60e51b8152600401808060200182810382526021815260200180610e5a6021913960400191505060405180910390fd5b610bac826000836104f5565b610be981604051806060016040528060228152602001610dc8602291396001600160a01b0385166000908152602081905260409020549190610a63565b6001600160a01b038316600090815260208190526040902055600254610c0f9082610d47565b6002556040805182815290516000916001600160a01b038516917fddf252ad1be2c89b69c2b068fc378daa952ba7f163c4a11628f55a4df523b3ef9181900360200190a35050565b6001600160a01b038216610cb2576040805162461bcd60e51b815260206004820152601f60248201527f45524332303a206d696e7420746f20746865207a65726f206164647265737300604482015290519081900360640190fd5b610cbe600083836104f5565b600254610ccb9082610afa565b6002556001600160a01b038216600090815260208190526040902054610cf19082610afa565b6001600160a01b0383166000818152602081815260408083209490945583518581529351929391927fddf252ad1be2c89b69c2b068fc378daa952ba7f163c4a11628f55a4df523b3ef9281900390910190a35050565b600082821115610d9e576040805162461bcd60e51b815260206004820152601e60248201527f536166654d6174683a207375627472616374696f6e206f766572666c6f770000604482015290519081900360640190fd5b5090039056fe45524332303a207472616e7366657220746f20746865207a65726f206164647265737345524332303a206275726e20616d6f756e7420657863656564732062616c616e636545524332303a20617070726f766520746f20746865207a65726f206164647265737345524332303a207472616e7366657220616d6f756e7420657863656564732062616c616e636545524332303a207472616e7366657220616d6f756e74206578636565647320616c6c6f77616e636545524332303a206275726e2066726f6d20746865207a65726f206164647265737345524332303a207472616e736665722066726f6d20746865207a65726f206164647265737345524332303a20617070726f76652066726f6d20746865207a65726f206164647265737345524332303a2064656372656173656420616c6c6f77616e63652062656c6f77207a65726fa2646970667358221220c881513fca5a75d47e02fc1c04920461b43ce001b23b37bd2a0244cb5b4737ce64736f6c63430007060033a26469706673582212207c17aebe9f03bac1fbed971eba83af6618171bedbf72c3277a09c59db2c42b1864736f6c6343000706003360806040523480156200001157600080fd5b50604051620011f3380380620011f3833981810160405260608110156200003757600080fd5b81019080805160405193929190846401000000008211156200005857600080fd5b9083019060208201858111156200006e57600080fd5b82516401000000008111828201881017156200008957600080fd5b82525081516020918201929091019080838360005b83811015620000b85781810151838201526020016200009e565b50505050905090810190601f168015620000e65780820380516001836020036101000a031916815260200191505b50604052602001805160405193929190846401000000008211156200010a57600080fd5b9083019060208201858111156200012057600080fd5b82516401000000008111828201881017156200013b57600080fd5b82525081516020918201929091019080838360005b838110156200016a57818101518382015260200162000150565b50505050905090810190601f168015620001985780820380516001836020036101000a031916815260200191505b5060405260209081015185519093508592508491620001bd9160039185019062000219565b508051620001d390600490602084019062000219565b5050600580546001600160a01b039390931661010090810233909102610100600160a81b031960ff199095166012178516179093169290921790915550620002c5915050565b828054600181600116156101000203166002900490600052602060002090601f0160209004810192826200025157600085556200029c565b82601f106200026c57805160ff19168380011785556200029c565b828001600101855582156200029c579182015b828111156200029c5782518255916020019190600101906200027f565b50620002aa929150620002ae565b5090565b5b80821115620002aa5760008155600101620002af565b610f1e80620002d56000396000f3fe608060405234801561001057600080fd5b506004361061010b5760003560e01c806370a08231116100a2578063a457c2d711610071578063a457c2d714610343578063a9059cbb1461036f578063c024cd261461039b578063dd62ed3e146103c7578063f2fde38b146103f55761010b565b806370a08231146102cb57806371297784146102f1578063893d20e81461031757806395d89b411461033b5761010b565b806323b872dd116100de57806323b872dd1461021f578063313ce56714610255578063395093511461027357806342986e131461029f5761010b565b806306fdde0314610110578063095ea7b31461018d5780630fb66557146101cd57806318160ddd14610205575b600080fd5b61011861041b565b6040805160208082528351818301528351919283929083019185019080838360005b8381101561015257818101518382015260200161013a565b50505050905090810190601f16801561017f5780820380516001836020036101000a031916815260200191505b509250505060405180910390f35b6101b9600480360360408110156101a357600080fd5b506001600160a01b0381351690602001356104b1565b604080519115158252519081900360200190f35b610203600480360360608110156101e357600080fd5b506001600160a01b038135811691602081013590911690604001356104ce565b005b61020d6104fa565b60408051918252519081900360200190f35b6101b96004803603606081101561023557600080fd5b506001600160a01b03813581169160208101359091169060400135610500565b61025d610587565b6040805160ff9092168252519081900360200190f35b6101b96004803603604081101561028957600080fd5b506001600160a01b038135169060200135610590565b610203600480360360408110156102b557600080fd5b506001600160a01b0381351690602001356105de565b61020d600480360360208110156102e157600080fd5b50356001600160a01b0316610608565b61020d6004803603602081101561030757600080fd5b50356001600160a01b0316610623565b61031f61065f565b604080516001600160a01b039092168252519081900360200190f35b610118610673565b6101b96004803603604081101561035957600080fd5b506001600160a01b0381351690602001356106d4565b6101b96004803603604081101561038557600080fd5b506001600160a01b03813516906020013561073c565b610203600480360360408110156103b157600080fd5b506001600160a01b038135169060200135610750565b61020d600480360360408110156103dd57600080fd5b506001600160a01b0381358116916020013516610776565b6101b96004803603602081101561040b57600080fd5b50356001600160a01b03166107a1565b60038054604080516020601f60026000196101006001881615020190951694909404938401819004810282018101909252828152606093909290918301828280156104a75780601f1061047c576101008083540402835291602001916104a7565b820191906000526020600020905b81548152906001019060200180831161048a57829003601f168201915b5050505050905090565b60006104c56104be610818565b848461081c565b50600192915050565b60055461010090046001600160a01b031633146104ea57600080fd5b6104f5838383610908565b505050565b60025490565b600061050d848484610908565b61057d84610519610818565b61057885604051806060016040528060288152602001610e32602891396001600160a01b038a16600090815260016020526040812090610557610818565b6001600160a01b031681526020810191909152604001600020549190610a63565b61081c565b5060019392505050565b60055460ff1690565b60006104c561059d610818565b8461057885600160006105ae610818565b6001600160a01b03908116825260208083019390935260409182016000908120918c168152925290205490610afa565b60055461010090046001600160a01b031633146105fa57600080fd5b6106048282610b5b565b5050565b6001600160a01b031660009081526020819052604090205490565b60055460009061010090046001600160a01b0316331461064257600080fd5b600061064d83610608565b90506106598382610b5b565b92915050565b60055461010090046001600160a01b031690565b60048054604080516020601f60026000196101006001881615020190951694909404938401819004810282018101909252828152606093909290918301828280156104a75780601f1061047c576101008083540402835291602001916104a7565b60006104c56106e1610818565b8461057885604051806060016040528060258152602001610ec4602591396001600061070b610818565b6001600160a01b03908116825260208083019390935260409182016000908120918d16815292529020549190610a63565b60006104c5610749610818565b8484610908565b60055461010090046001600160a01b0316331461076c57600080fd5b6106048282610c57565b6001600160a01b03918216600090815260016020908152604080832093909416825291909152205490565b60055460009061010090046001600160a01b031633146107c057600080fd5b6001600160a01b0382166107d357600080fd5b6005546107ee9061010090046001600160a01b031683610604565b50600580546001600160a01b03831661010002610100600160a81b03199091161790556001919050565b3390565b6001600160a01b0383166108615760405162461bcd60e51b8152600401808060200182810382526024815260200180610ea06024913960400191505060405180910390fd5b6001600160a01b0382166108a65760405162461bcd60e51b8152600401808060200182810382526022815260200180610dea6022913960400191505060405180910390fd5b6001600160a01b03808416600081815260016020908152604080832094871680845294825291829020859055815185815291517f8c5be1e5ebec7d5bd14f71427d1e84f3dd0314c0f7b2291e5b200ac8c7c3b9259281900390910190a3505050565b6001600160a01b03831661094d5760405162461bcd60e51b8152600401808060200182810382526025815260200180610e7b6025913960400191505060405180910390fd5b6001600160a01b0382166109925760405162461bcd60e51b8152600401808060200182810382526023815260200180610da56023913960400191505060405180910390fd5b61099d8383836104f5565b6109da81604051806060016040528060268152602001610e0c602691396001600160a01b0386166000908152602081905260409020549190610a63565b6001600160a01b038085166000908152602081905260408082209390935590841681522054610a099082610afa565b6001600160a01b038084166000818152602081815260409182902094909455805185815290519193928716927fddf252ad1be2c89b69c2b068fc378daa952ba7f163c4a11628f55a4df523b3ef92918290030190a3505050565b60008184841115610af25760405162461bcd60e51b81526004018080602001828103825283818151815260200191508051906020019080838360005b83811015610ab7578181015183820152602001610a9f565b50505050905090810190601f168015610ae45780820380516001836020036101000a031916815260200191505b509250505060405180910390fd5b505050900390565b600082820183811015610b54576040805162461bcd60e51b815260206004820152601b60248201527f536166654d6174683a206164646974696f6e206f766572666c6f770000000000604482015290519081900360640190fd5b9392505050565b6001600160a01b038216610ba05760405162461bcd60e51b8152600401808060200182810382526021815260200180610e5a6021913960400191505060405180910390fd5b610bac826000836104f5565b610be981604051806060016040528060228152602001610dc8602291396001600160a01b0385166000908152602081905260409020549190610a63565b6001600160a01b038316600090815260208190526040902055600254610c0f9082610d47565b6002556040805182815290516000916001600160a01b038516917fddf252ad1be2c89b69c2b068fc378daa952ba7f163c4a11628f55a4df523b3ef9181900360200190a35050565b6001600160a01b038216610cb2576040805162461bcd60e51b815260206004820152601f60248201527f45524332303a206d696e7420746f20746865207a65726f206164647265737300604482015290519081900360640190fd5b610cbe600083836104f5565b600254610ccb9082610afa565b6002556001600160a01b038216600090815260208190526040902054610cf19082610afa565b6001600160a01b0383166000818152602081815260408083209490945583518581529351929391927fddf252ad1be2c89b69c2b068fc378daa952ba7f163c4a11628f55a4df523b3ef9281900390910190a35050565b600082821115610d9e576040805162461bcd60e51b815260206004820152601e60248201527f536166654d6174683a207375627472616374696f6e206f766572666c6f770000604482015290519081900360640190fd5b5090039056fe45524332303a207472616e7366657220746f20746865207a65726f206164647265737345524332303a206275726e20616d6f756e7420657863656564732062616c616e636545524332303a20617070726f766520746f20746865207a65726f206164647265737345524332303a207472616e7366657220616d6f756e7420657863656564732062616c616e636545524332303a207472616e7366657220616d6f756e74206578636565647320616c6c6f77616e636545524332303a206275726e2066726f6d20746865207a65726f206164647265737345524332303a207472616e736665722066726f6d20746865207a65726f206164647265737345524332303a20617070726f76652066726f6d20746865207a65726f206164647265737345524332303a2064656372656173656420616c6c6f77616e63652062656c6f77207a65726fa2646970667358221220c881513fca5a75d47e02fc1c04920461b43ce001b23b37bd2a0244cb5b4737ce64736f6c63430007060033",
  "devdoc": {
    "kind": "dev",
    "methods": {
      "transferOwnership(address)": {
        "details": "Allows the current owner to transfer control of the contract to a newOwner.",
        "params": {
          "_newOwner": "The address to transfer ownership to."
        }
      }
    },
    "version": 1
  },
  "userdoc": {
    "kind": "user",
    "methods": {},
    "version": 1
  },
  "storageLayout": {
    "storage": [
      {
        "astId": 5793,
        "contract": "contracts/turbo/CryptoMarketFactory.sol:CryptoMarketFactory",
        "label": "owner",
        "offset": 0,
        "slot": "0",
        "type": "t_address"
      },
      {
        "astId": 9268,
        "contract": "contracts/turbo/CryptoMarketFactory.sol:CryptoMarketFactory",
        "label": "collateral",
        "offset": 0,
        "slot": "1",
        "type": "t_contract(IERC20Full)5770"
      },
      {
        "astId": 9270,
        "contract": "contracts/turbo/CryptoMarketFactory.sol:CryptoMarketFactory",
        "label": "feePot",
        "offset": 0,
        "slot": "2",
        "type": "t_contract(FeePot)11372"
      },
      {
        "astId": 9272,
        "contract": "contracts/turbo/CryptoMarketFactory.sol:CryptoMarketFactory",
        "label": "stakerFee",
        "offset": 0,
        "slot": "3",
        "type": "t_uint256"
      },
      {
        "astId": 9274,
        "contract": "contracts/turbo/CryptoMarketFactory.sol:CryptoMarketFactory",
        "label": "settlementFee",
        "offset": 0,
        "slot": "4",
        "type": "t_uint256"
      },
      {
        "astId": 9276,
        "contract": "contracts/turbo/CryptoMarketFactory.sol:CryptoMarketFactory",
        "label": "protocolFee",
        "offset": 0,
        "slot": "5",
        "type": "t_uint256"
      },
      {
        "astId": 9278,
        "contract": "contracts/turbo/CryptoMarketFactory.sol:CryptoMarketFactory",
        "label": "protocol",
        "offset": 0,
        "slot": "6",
        "type": "t_address"
      },
      {
        "astId": 9281,
        "contract": "contracts/turbo/CryptoMarketFactory.sol:CryptoMarketFactory",
        "label": "accumulatedProtocolFee",
        "offset": 0,
        "slot": "7",
        "type": "t_uint256"
      },
      {
        "astId": 9285,
        "contract": "contracts/turbo/CryptoMarketFactory.sol:CryptoMarketFactory",
        "label": "accumulatedSettlementFees",
        "offset": 0,
        "slot": "8",
        "type": "t_mapping(t_address,t_uint256)"
      },
      {
        "astId": 9287,
        "contract": "contracts/turbo/CryptoMarketFactory.sol:CryptoMarketFactory",
        "label": "shareFactor",
        "offset": 0,
        "slot": "9",
        "type": "t_uint256"
      },
      {
        "astId": 9311,
        "contract": "contracts/turbo/CryptoMarketFactory.sol:CryptoMarketFactory",
        "label": "markets",
        "offset": 0,
        "slot": "10",
        "type": "t_array(t_struct(Market)9308_storage)dyn_storage"
      },
      {
        "astId": 10244,
        "contract": "contracts/turbo/CryptoMarketFactory.sol:CryptoMarketFactory",
        "label": "coins",
        "offset": 0,
        "slot": "11",
        "type": "t_array(t_struct(Coin)10241_storage)dyn_storage"
      },
      {
        "astId": 10262,
        "contract": "contracts/turbo/CryptoMarketFactory.sol:CryptoMarketFactory",
        "label": "marketDetails",
        "offset": 0,
        "slot": "12",
        "type": "t_mapping(t_uint256,t_struct(MarketDetails)10258_storage)"
      },
      {
        "astId": 10264,
        "contract": "contracts/turbo/CryptoMarketFactory.sol:CryptoMarketFactory",
        "label": "linkNode",
        "offset": 0,
        "slot": "13",
        "type": "t_address"
      },
      {
        "astId": 10266,
        "contract": "contracts/turbo/CryptoMarketFactory.sol:CryptoMarketFactory",
        "label": "nextResolutionTime",
        "offset": 0,
        "slot": "14",
        "type": "t_uint256"
      }
    ],
    "types": {
      "t_address": {
        "encoding": "inplace",
        "label": "address",
        "numberOfBytes": "20"
      },
      "t_array(t_contract(OwnedERC20)15355)dyn_storage": {
        "base": "t_contract(OwnedERC20)15355",
        "encoding": "dynamic_array",
        "label": "contract OwnedERC20[]",
        "numberOfBytes": "32"
      },
      "t_array(t_struct(Coin)10241_storage)dyn_storage": {
        "base": "t_struct(Coin)10241_storage",
        "encoding": "dynamic_array",
        "label": "struct CryptoMarketFactory.Coin[]",
        "numberOfBytes": "32"
      },
      "t_array(t_struct(Market)9308_storage)dyn_storage": {
        "base": "t_struct(Market)9308_storage",
        "encoding": "dynamic_array",
        "label": "struct AbstractMarketFactoryV2.Market[]",
        "numberOfBytes": "32"
      },
      "t_array(t_uint256)1_storage": {
        "base": "t_uint256",
        "encoding": "inplace",
        "label": "uint256[1]",
        "numberOfBytes": "32"
      },
      "t_array(t_uint256)dyn_storage": {
        "base": "t_uint256",
        "encoding": "dynamic_array",
        "label": "uint256[]",
        "numberOfBytes": "32"
      },
      "t_contract(AggregatorV3Interface)45": {
        "encoding": "inplace",
        "label": "contract AggregatorV3Interface",
        "numberOfBytes": "20"
      },
      "t_contract(FeePot)11372": {
        "encoding": "inplace",
        "label": "contract FeePot",
        "numberOfBytes": "20"
      },
      "t_contract(IERC20Full)5770": {
        "encoding": "inplace",
        "label": "contract IERC20Full",
        "numberOfBytes": "20"
      },
      "t_contract(OwnedERC20)15355": {
        "encoding": "inplace",
        "label": "contract OwnedERC20",
        "numberOfBytes": "20"
      },
      "t_enum(MarketType)10246": {
        "encoding": "inplace",
        "label": "enum CryptoMarketFactory.MarketType",
        "numberOfBytes": "1"
      },
      "t_mapping(t_address,t_uint256)": {
        "encoding": "mapping",
        "key": "t_address",
        "label": "mapping(address => uint256)",
        "numberOfBytes": "32",
        "value": "t_uint256"
      },
      "t_mapping(t_uint256,t_struct(MarketDetails)10258_storage)": {
        "encoding": "mapping",
        "key": "t_uint256",
        "label": "mapping(uint256 => struct CryptoMarketFactory.MarketDetails)",
        "numberOfBytes": "32",
        "value": "t_struct(MarketDetails)10258_storage"
      },
      "t_string_storage": {
        "encoding": "bytes",
        "label": "string",
        "numberOfBytes": "32"
      },
      "t_struct(Coin)10241_storage": {
        "encoding": "inplace",
        "label": "struct CryptoMarketFactory.Coin",
        "members": [
          {
            "astId": 10230,
            "contract": "contracts/turbo/CryptoMarketFactory.sol:CryptoMarketFactory",
            "label": "name",
            "offset": 0,
            "slot": "0",
            "type": "t_string_storage"
          },
          {
            "astId": 10232,
            "contract": "contracts/turbo/CryptoMarketFactory.sol:CryptoMarketFactory",
            "label": "priceFeed",
            "offset": 0,
            "slot": "1",
            "type": "t_contract(AggregatorV3Interface)45"
          },
          {
            "astId": 10234,
            "contract": "contracts/turbo/CryptoMarketFactory.sol:CryptoMarketFactory",
            "label": "price",
            "offset": 0,
            "slot": "2",
            "type": "t_uint256"
          },
          {
            "astId": 10236,
            "contract": "contracts/turbo/CryptoMarketFactory.sol:CryptoMarketFactory",
            "label": "imprecision",
            "offset": 0,
            "slot": "3",
            "type": "t_uint8"
          },
          {
            "astId": 10240,
            "contract": "contracts/turbo/CryptoMarketFactory.sol:CryptoMarketFactory",
            "label": "currentMarkets",
            "offset": 0,
            "slot": "4",
            "type": "t_array(t_uint256)1_storage"
          }
        ],
        "numberOfBytes": "160"
      },
      "t_struct(Market)9308_storage": {
        "encoding": "inplace",
        "label": "struct AbstractMarketFactoryV2.Market",
        "members": [
          {
            "astId": 9289,
            "contract": "contracts/turbo/CryptoMarketFactory.sol:CryptoMarketFactory",
            "label": "settlementAddress",
            "offset": 0,
            "slot": "0",
            "type": "t_address"
          },
          {
            "astId": 9292,
            "contract": "contracts/turbo/CryptoMarketFactory.sol:CryptoMarketFactory",
            "label": "shareTokens",
            "offset": 0,
            "slot": "1",
            "type": "t_array(t_contract(OwnedERC20)15355)dyn_storage"
          },
          {
            "astId": 9294,
            "contract": "contracts/turbo/CryptoMarketFactory.sol:CryptoMarketFactory",
            "label": "endTime",
            "offset": 0,
            "slot": "2",
            "type": "t_uint256"
          },
          {
            "astId": 9296,
            "contract": "contracts/turbo/CryptoMarketFactory.sol:CryptoMarketFactory",
            "label": "winner",
            "offset": 0,
            "slot": "3",
            "type": "t_contract(OwnedERC20)15355"
          },
          {
            "astId": 9298,
            "contract": "contracts/turbo/CryptoMarketFactory.sol:CryptoMarketFactory",
            "label": "settlementFee",
            "offset": 0,
            "slot": "4",
            "type": "t_uint256"
          },
          {
            "astId": 9300,
            "contract": "contracts/turbo/CryptoMarketFactory.sol:CryptoMarketFactory",
            "label": "protocolFee",
            "offset": 0,
            "slot": "5",
            "type": "t_uint256"
          },
          {
            "astId": 9302,
            "contract": "contracts/turbo/CryptoMarketFactory.sol:CryptoMarketFactory",
            "label": "stakerFee",
            "offset": 0,
            "slot": "6",
            "type": "t_uint256"
          },
          {
            "astId": 9304,
            "contract": "contracts/turbo/CryptoMarketFactory.sol:CryptoMarketFactory",
            "label": "creationTimestamp",
            "offset": 0,
            "slot": "7",
            "type": "t_uint256"
          },
          {
            "astId": 9307,
            "contract": "contracts/turbo/CryptoMarketFactory.sol:CryptoMarketFactory",
            "label": "initialOdds",
            "offset": 0,
            "slot": "8",
            "type": "t_array(t_uint256)dyn_storage"
          }
        ],
        "numberOfBytes": "288"
      },
      "t_struct(MarketDetails)10258_storage": {
        "encoding": "inplace",
        "label": "struct CryptoMarketFactory.MarketDetails",
        "members": [
          {
            "astId": 10251,
            "contract": "contracts/turbo/CryptoMarketFactory.sol:CryptoMarketFactory",
            "label": "marketType",
            "offset": 0,
            "slot": "0",
            "type": "t_enum(MarketType)10246"
          },
          {
            "astId": 10253,
            "contract": "contracts/turbo/CryptoMarketFactory.sol:CryptoMarketFactory",
            "label": "coinIndex",
            "offset": 0,
            "slot": "1",
            "type": "t_uint256"
          },
          {
            "astId": 10255,
            "contract": "contracts/turbo/CryptoMarketFactory.sol:CryptoMarketFactory",
            "label": "creationPrice",
            "offset": 0,
            "slot": "2",
            "type": "t_uint256"
          },
          {
            "astId": 10257,
            "contract": "contracts/turbo/CryptoMarketFactory.sol:CryptoMarketFactory",
            "label": "resolutionPrice",
            "offset": 0,
            "slot": "3",
            "type": "t_uint256"
          }
        ],
        "numberOfBytes": "128"
      },
      "t_uint256": {
        "encoding": "inplace",
        "label": "uint256",
        "numberOfBytes": "32"
      },
      "t_uint8": {
        "encoding": "inplace",
        "label": "uint8",
        "numberOfBytes": "1"
      }
    }
  }
}