{
  "address": "0x0B20E653DCF916AC8E43bc974E559Fdec9523c6D",
  "abi": [
    {
      "inputs": [
        {
          "internalType": "address",
          "name": "_owner",
          "type": "address"
        },
        {
          "internalType": "contract IERC20Full",
          "name": "_collateral",
          "type": "address"
        },
        {
          "internalType": "uint256",
          "name": "_shareFactor",
          "type": "uint256"
        },
        {
          "internalType": "contract FeePot",
          "name": "_feePot",
          "type": "address"
        },
        {
          "internalType": "uint256",
          "name": "_stakerFee",
          "type": "uint256"
        },
        {
          "internalType": "uint256",
          "name": "_settlementFee",
          "type": "uint256"
        },
        {
          "internalType": "address",
          "name": "_protocol",
          "type": "address"
        },
        {
          "internalType": "uint256",
          "name": "_protocolFee",
          "type": "uint256"
        },
        {
          "internalType": "address",
          "name": "_linkNode",
          "type": "address"
        },
        {
          "internalType": "uint256",
          "name": "_firstResolutionTime",
          "type": "uint256"
        },
        {
          "internalType": "uint256",
          "name": "_cadence",
          "type": "uint256"
        }
      ],
      "stateMutability": "nonpayable",
      "type": "constructor"
    },
    {
      "anonymous": false,
      "inputs": [
        {
          "indexed": false,
          "internalType": "uint256",
          "name": "id",
          "type": "uint256"
        },
        {
          "indexed": false,
          "internalType": "address",
          "name": "creator",
          "type": "address"
        },
        {
          "indexed": true,
          "internalType": "uint256",
          "name": "endTime",
          "type": "uint256"
        },
        {
          "indexed": false,
          "internalType": "enum CryptoMarketFactory.MarketType",
          "name": "marketType",
          "type": "uint8"
        },
        {
          "indexed": true,
          "internalType": "uint256",
          "name": "coinIndex",
          "type": "uint256"
        },
        {
          "indexed": false,
          "internalType": "uint256",
          "name": "price",
          "type": "uint256"
        }
      ],
      "name": "MarketCreated",
      "type": "event"
    },
    {
      "anonymous": false,
      "inputs": [
        {
          "indexed": false,
          "internalType": "uint256",
          "name": "id",
          "type": "uint256"
        },
        {
          "indexed": false,
          "internalType": "address",
          "name": "winner",
          "type": "address"
        }
      ],
      "name": "MarketResolved",
      "type": "event"
    },
    {
      "anonymous": false,
      "inputs": [
        {
          "indexed": false,
          "internalType": "address",
          "name": "protocol",
          "type": "address"
        }
      ],
      "name": "ProtocolChanged",
      "type": "event"
    },
    {
      "anonymous": false,
      "inputs": [
        {
          "indexed": false,
          "internalType": "uint256",
          "name": "fee",
          "type": "uint256"
        }
      ],
      "name": "ProtocolFeeChanged",
      "type": "event"
    },
    {
      "anonymous": false,
      "inputs": [
        {
          "indexed": false,
          "internalType": "address",
          "name": "protocol",
          "type": "address"
        },
        {
          "indexed": false,
          "internalType": "uint256",
          "name": "amount",
          "type": "uint256"
        }
      ],
      "name": "ProtocolFeeClaimed",
      "type": "event"
    },
    {
      "anonymous": false,
      "inputs": [
        {
          "indexed": false,
          "internalType": "uint256",
          "name": "fee",
          "type": "uint256"
        }
      ],
      "name": "SettlementFeeChanged",
      "type": "event"
    },
    {
      "anonymous": false,
      "inputs": [
        {
          "indexed": false,
          "internalType": "address",
          "name": "settlementAddress",
          "type": "address"
        },
        {
          "indexed": false,
          "internalType": "uint256",
          "name": "amount",
          "type": "uint256"
        },
        {
          "indexed": true,
          "internalType": "address",
          "name": "receiver",
          "type": "address"
        }
      ],
      "name": "SettlementFeeClaimed",
      "type": "event"
    },
    {
      "anonymous": false,
      "inputs": [
        {
          "indexed": false,
          "internalType": "uint256",
          "name": "id",
          "type": "uint256"
        },
        {
          "indexed": false,
          "internalType": "uint256",
          "name": "amount",
          "type": "uint256"
        },
        {
          "indexed": false,
          "internalType": "address",
          "name": "receiver",
          "type": "address"
        }
      ],
      "name": "SharesBurned",
      "type": "event"
    },
    {
      "anonymous": false,
      "inputs": [
        {
          "indexed": false,
          "internalType": "uint256",
          "name": "id",
          "type": "uint256"
        },
        {
          "indexed": false,
          "internalType": "uint256",
          "name": "amount",
          "type": "uint256"
        },
        {
          "indexed": false,
          "internalType": "address",
          "name": "receiver",
          "type": "address"
        }
      ],
      "name": "SharesMinted",
      "type": "event"
    },
    {
      "anonymous": false,
      "inputs": [
        {
          "indexed": false,
          "internalType": "uint256",
          "name": "fee",
          "type": "uint256"
        }
      ],
      "name": "StakerFeeChanged",
      "type": "event"
    },
    {
      "anonymous": false,
      "inputs": [
        {
          "indexed": false,
          "internalType": "uint256",
          "name": "id",
          "type": "uint256"
        },
        {
          "indexed": false,
          "internalType": "address",
          "name": "winningOutcome",
          "type": "address"
        },
        {
          "indexed": false,
          "internalType": "uint256",
          "name": "amount",
          "type": "uint256"
        },
        {
          "indexed": false,
          "internalType": "uint256",
          "name": "settlementFee",
          "type": "uint256"
        },
        {
          "indexed": false,
          "internalType": "uint256",
          "name": "payout",
          "type": "uint256"
        },
        {
          "indexed": true,
          "internalType": "address",
          "name": "receiver",
          "type": "address"
        }
      ],
      "name": "WinningsClaimed",
      "type": "event"
    },
    {
      "inputs": [],
      "name": "accumulatedProtocolFee",
      "outputs": [
        {
          "internalType": "uint256",
          "name": "",
          "type": "uint256"
        }
      ],
      "stateMutability": "view",
      "type": "function"
    },
    {
      "inputs": [
        {
          "internalType": "address",
          "name": "",
          "type": "address"
        }
      ],
      "name": "accumulatedSettlementFees",
      "outputs": [
        {
          "internalType": "uint256",
          "name": "",
          "type": "uint256"
        }
      ],
      "stateMutability": "view",
      "type": "function"
    },
    {
      "inputs": [
        {
          "internalType": "string",
          "name": "_name",
          "type": "string"
        },
        {
          "internalType": "contract AggregatorV3Interface",
          "name": "_priceFeed",
          "type": "address"
        }
      ],
      "name": "addCoin",
      "outputs": [
        {
          "internalType": "uint256",
          "name": "_coinIndex",
          "type": "uint256"
        }
      ],
      "stateMutability": "nonpayable",
      "type": "function"
    },
    {
      "inputs": [
        {
          "internalType": "uint256",
          "name": "_id",
          "type": "uint256"
        },
        {
          "internalType": "uint256",
          "name": "_sharesToBurn",
          "type": "uint256"
        },
        {
          "internalType": "address",
          "name": "_receiver",
          "type": "address"
        }
      ],
      "name": "burnShares",
      "outputs": [
        {
          "internalType": "uint256",
          "name": "",
          "type": "uint256"
        }
      ],
      "stateMutability": "nonpayable",
      "type": "function"
    },
    {
      "inputs": [],
      "name": "cadence",
      "outputs": [
        {
          "internalType": "uint256",
          "name": "",
          "type": "uint256"
        }
      ],
      "stateMutability": "view",
      "type": "function"
    },
    {
      "inputs": [
        {
          "internalType": "uint256",
          "name": "_shares",
          "type": "uint256"
        }
      ],
      "name": "calcCost",
      "outputs": [
        {
          "internalType": "uint256",
          "name": "",
          "type": "uint256"
        }
      ],
      "stateMutability": "view",
      "type": "function"
    },
    {
      "inputs": [
        {
          "internalType": "uint256",
          "name": "_collateralIn",
          "type": "uint256"
        }
      ],
      "name": "calcShares",
      "outputs": [
        {
          "internalType": "uint256",
          "name": "",
          "type": "uint256"
        }
      ],
      "stateMutability": "view",
      "type": "function"
    },
    {
      "inputs": [
        {
          "internalType": "uint256[]",
          "name": "_ids",
          "type": "uint256[]"
        },
        {
          "internalType": "address",
          "name": "_receiver",
          "type": "address"
        }
      ],
      "name": "claimManyWinnings",
      "outputs": [
        {
          "internalType": "uint256",
          "name": "",
          "type": "uint256"
        }
      ],
      "stateMutability": "nonpayable",
      "type": "function"
    },
    {
      "inputs": [],
      "name": "claimProtocolFees",
      "outputs": [
        {
          "internalType": "uint256",
          "name": "",
          "type": "uint256"
        }
      ],
      "stateMutability": "nonpayable",
      "type": "function"
    },
    {
      "inputs": [
        {
          "internalType": "address",
          "name": "_receiver",
          "type": "address"
        }
      ],
      "name": "claimSettlementFees",
      "outputs": [
        {
          "internalType": "uint256",
          "name": "",
          "type": "uint256"
        }
      ],
      "stateMutability": "nonpayable",
      "type": "function"
    },
    {
      "inputs": [
        {
          "internalType": "uint256",
          "name": "_id",
          "type": "uint256"
        },
        {
          "internalType": "address",
          "name": "_receiver",
          "type": "address"
        }
      ],
      "name": "claimWinnings",
      "outputs": [
        {
          "internalType": "uint256",
          "name": "",
          "type": "uint256"
        }
      ],
      "stateMutability": "nonpayable",
      "type": "function"
    },
    {
      "inputs": [
        {
          "internalType": "uint256",
          "name": "",
          "type": "uint256"
        }
      ],
      "name": "coins",
      "outputs": [
        {
          "internalType": "string",
          "name": "name",
          "type": "string"
        },
        {
          "internalType": "contract AggregatorV3Interface",
          "name": "priceFeed",
          "type": "address"
        },
        {
          "internalType": "uint256",
          "name": "price",
          "type": "uint256"
        }
      ],
      "stateMutability": "view",
      "type": "function"
    },
    {
      "inputs": [],
      "name": "collateral",
      "outputs": [
        {
          "internalType": "contract IERC20Full",
          "name": "",
          "type": "address"
        }
      ],
      "stateMutability": "view",
      "type": "function"
    },
    {
      "inputs": [],
      "name": "createAndResolveMarkets",
      "outputs": [],
      "stateMutability": "nonpayable",
      "type": "function"
    },
    {
      "inputs": [],
      "name": "feePot",
      "outputs": [
        {
          "internalType": "contract FeePot",
          "name": "",
          "type": "address"
        }
      ],
      "stateMutability": "view",
      "type": "function"
    },
    {
      "inputs": [
        {
          "internalType": "uint256",
          "name": "_coinIndex",
          "type": "uint256"
        }
      ],
      "name": "getCoin",
      "outputs": [
        {
          "components": [
            {
              "internalType": "string",
              "name": "name",
              "type": "string"
            },
            {
              "internalType": "contract AggregatorV3Interface",
              "name": "priceFeed",
              "type": "address"
            },
            {
              "internalType": "uint256",
              "name": "price",
              "type": "uint256"
            },
            {
              "internalType": "uint256[1]",
              "name": "currentMarkets",
              "type": "uint256[1]"
            }
          ],
          "internalType": "struct CryptoMarketFactory.Coin",
          "name": "_coin",
          "type": "tuple"
        }
      ],
      "stateMutability": "view",
      "type": "function"
    },
    {
      "inputs": [],
      "name": "getCoins",
      "outputs": [
        {
          "components": [
            {
              "internalType": "string",
              "name": "name",
              "type": "string"
            },
            {
              "internalType": "contract AggregatorV3Interface",
              "name": "priceFeed",
              "type": "address"
            },
            {
              "internalType": "uint256",
              "name": "price",
              "type": "uint256"
            },
            {
              "internalType": "uint256[1]",
              "name": "currentMarkets",
              "type": "uint256[1]"
            }
          ],
          "internalType": "struct CryptoMarketFactory.Coin[]",
          "name": "_coins",
          "type": "tuple[]"
        }
      ],
      "stateMutability": "view",
      "type": "function"
    },
    {
      "inputs": [
        {
          "internalType": "uint256",
          "name": "_id",
          "type": "uint256"
        }
      ],
      "name": "getMarket",
      "outputs": [
        {
          "components": [
            {
              "internalType": "address",
              "name": "settlementAddress",
              "type": "address"
            },
            {
              "internalType": "contract OwnedERC20[]",
              "name": "shareTokens",
              "type": "address[]"
            },
            {
              "internalType": "uint256",
              "name": "endTime",
              "type": "uint256"
            },
            {
              "internalType": "contract OwnedERC20",
              "name": "winner",
              "type": "address"
            },
            {
              "internalType": "uint256",
              "name": "settlementFee",
              "type": "uint256"
            },
            {
              "internalType": "uint256",
              "name": "protocolFee",
              "type": "uint256"
            },
            {
              "internalType": "uint256",
              "name": "stakerFee",
              "type": "uint256"
            },
            {
              "internalType": "uint256",
              "name": "creationTimestamp",
              "type": "uint256"
            }
          ],
          "internalType": "struct AbstractMarketFactory.Market",
          "name": "",
          "type": "tuple"
        }
      ],
      "stateMutability": "view",
      "type": "function"
    },
    {
      "inputs": [
        {
          "internalType": "uint256",
          "name": "_marketId",
          "type": "uint256"
        }
      ],
      "name": "getMarketDetails",
      "outputs": [
        {
          "components": [
            {
              "internalType": "enum CryptoMarketFactory.MarketType",
              "name": "marketType",
              "type": "uint8"
            },
            {
              "internalType": "uint256",
              "name": "coinIndex",
              "type": "uint256"
            },
            {
              "internalType": "uint256",
              "name": "price",
              "type": "uint256"
            }
          ],
          "internalType": "struct CryptoMarketFactory.MarketDetails",
          "name": "",
          "type": "tuple"
        }
      ],
      "stateMutability": "view",
      "type": "function"
    },
    {
      "inputs": [],
      "name": "getOwner",
      "outputs": [
        {
          "internalType": "address",
          "name": "",
          "type": "address"
        }
      ],
      "stateMutability": "view",
      "type": "function"
    },
    {
      "inputs": [
        {
          "internalType": "uint256",
          "name": "_id",
          "type": "uint256"
        }
      ],
      "name": "isMarketResolved",
      "outputs": [
        {
          "internalType": "bool",
          "name": "",
          "type": "bool"
        }
      ],
      "stateMutability": "view",
      "type": "function"
    },
    {
      "inputs": [],
      "name": "linkNode",
      "outputs": [
        {
          "internalType": "address",
          "name": "",
          "type": "address"
        }
      ],
      "stateMutability": "view",
      "type": "function"
    },
    {
      "inputs": [],
      "name": "listUnresolvedMarkets",
      "outputs": [
        {
          "internalType": "uint256[]",
          "name": "",
          "type": "uint256[]"
        }
      ],
      "stateMutability": "view",
      "type": "function"
    },
    {
      "inputs": [],
      "name": "marketCount",
      "outputs": [
        {
          "internalType": "uint256",
          "name": "",
          "type": "uint256"
        }
      ],
      "stateMutability": "view",
      "type": "function"
    },
    {
      "inputs": [
        {
          "internalType": "uint256",
          "name": "_id",
          "type": "uint256"
        },
        {
          "internalType": "uint256",
          "name": "_shareToMint",
          "type": "uint256"
        },
        {
          "internalType": "address",
          "name": "_receiver",
          "type": "address"
        }
      ],
      "name": "mintShares",
      "outputs": [],
      "stateMutability": "nonpayable",
      "type": "function"
    },
    {
      "inputs": [],
      "name": "nextResolutionTime",
      "outputs": [
        {
          "internalType": "uint256",
          "name": "",
          "type": "uint256"
        }
      ],
      "stateMutability": "view",
      "type": "function"
    },
    {
      "inputs": [],
      "name": "protocol",
      "outputs": [
        {
          "internalType": "address",
          "name": "",
          "type": "address"
        }
      ],
      "stateMutability": "view",
      "type": "function"
    },
    {
      "inputs": [],
      "name": "protocolFee",
      "outputs": [
        {
          "internalType": "uint256",
          "name": "",
          "type": "uint256"
        }
      ],
      "stateMutability": "view",
      "type": "function"
    },
    {
      "inputs": [
        {
          "internalType": "uint256",
          "name": "",
          "type": "uint256"
        }
      ],
      "name": "resolveMarket",
      "outputs": [],
      "stateMutability": "pure",
      "type": "function"
    },
    {
      "inputs": [
        {
          "internalType": "address",
          "name": "_newProtocol",
          "type": "address"
        },
        {
          "internalType": "bool",
          "name": "_claimFirst",
          "type": "bool"
        }
      ],
      "name": "setProtocol",
      "outputs": [],
      "stateMutability": "nonpayable",
      "type": "function"
    },
    {
      "inputs": [
        {
          "internalType": "uint256",
          "name": "_newFee",
          "type": "uint256"
        }
      ],
      "name": "setProtocolFee",
      "outputs": [],
      "stateMutability": "nonpayable",
      "type": "function"
    },
    {
      "inputs": [
        {
          "internalType": "uint256",
          "name": "_newFee",
          "type": "uint256"
        }
      ],
      "name": "setSettlementFee",
      "outputs": [],
      "stateMutability": "nonpayable",
      "type": "function"
    },
    {
      "inputs": [
        {
          "internalType": "uint256",
          "name": "_newFee",
          "type": "uint256"
        }
      ],
      "name": "setStakerFee",
      "outputs": [],
      "stateMutability": "nonpayable",
      "type": "function"
    },
    {
      "inputs": [],
      "name": "settlementFee",
      "outputs": [
        {
          "internalType": "uint256",
          "name": "",
          "type": "uint256"
        }
      ],
      "stateMutability": "view",
      "type": "function"
    },
    {
      "inputs": [],
      "name": "shareFactor",
      "outputs": [
        {
          "internalType": "uint256",
          "name": "",
          "type": "uint256"
        }
      ],
      "stateMutability": "view",
      "type": "function"
    },
    {
      "inputs": [],
      "name": "stakerFee",
      "outputs": [
        {
          "internalType": "uint256",
          "name": "",
          "type": "uint256"
        }
      ],
      "stateMutability": "view",
      "type": "function"
    },
    {
      "inputs": [
        {
          "internalType": "address",
          "name": "_newOwner",
          "type": "address"
        }
      ],
      "name": "transferOwnership",
      "outputs": [
        {
          "internalType": "bool",
          "name": "",
          "type": "bool"
        }
      ],
      "stateMutability": "nonpayable",
      "type": "function"
    }
  ],
  "transactionHash": "0x5f4ab6ff12afc8155ee301ea84c7b0444ea42de53812a2decbf54def791d7d3a",
  "args": [
    "0x8C9c733eCd48426b9c53c38ccB60F3b307329bE1",
    "0x5799bFe361BEea69f808328FF4884DF92f1f66f0",
    "1000000000000",
    "0x59DdFE9961e050bdA1ed9bf9CCD009948036Dd76",
    0,
    "500000000000000",
    "0x8C9c733eCd48426b9c53c38ccB60F3b307329bE1",
    0,
    "0x6FBD37365bac1fC61EAb2b35ba4024B32b136be6",
    1624132800000,
    604800
  ],
  "solcInputHash": "fe5bd1fd20be8e7da01ec05c39d892a6",
  "bytecode": "0x608060405260006007553480156200001657600080fd5b5060405162005ccc38038062005ccc8339810160408190526200003991620006c3565b600080546001600160a01b03808e166001600160a01b0319928316331783161790925560018054838e16908316811790915560098c905560028054848d1690841617905560038a9055600489815560068054948a169490931693909317909155600586905560405163095ea7b360e01b81528d928d928d928d928d928d928d928d929163095ea7b391620000d49189916000199101620007f7565b602060405180830381600087803b158015620000ef57600080fd5b505af115801562000104573d6000803e3d6000fd5b505050506040513d601f19601f820116820180604052508101906200012a919062000780565b50604080516000808252602082019092528162000158565b6060815260200190600190039081620001425790505b509050600a6200016c600083808262000322565b8154600180820184556000938452602093849020835160089093020180546001600160a01b0319166001600160a01b0390931692909217825582840151805193949293620001c393928501929190910190620004d4565b506040820151816002015560608201518160030160006101000a8154816001600160a01b0302191690836001600160a01b031602179055506080820151816004015560a0820151816005015560c0820151816006015560e08201518160070155505050505050505050505082600d60006101000a8154816001600160a01b0302191690836001600160a01b0316021790555081600f8190555080600e81905550816010819055506000604051806020016040528060008152509050600b620002938260006200039b60201b60201c565b81546001810183556000928352602092839020825180519394600490930290910192620002c492849201906200053e565b506020820151600182810180546001600160a01b0319166001600160a01b03909316929092179091556040830151600283015560608301516200030d91600384019190620005c1565b5050505050505050505050505050506200086b565b6200032c620005f1565b604051806101000160405280866001600160a01b031681526020016200035a868630620003df60201b60201c565b815260200183815260200160006001600160a01b03168152602001600454815260200160055481526020016003548152602001428152509050949350505050565b620003a562000648565b506040805160208082018352600080835283516080810185529586526001600160a01b039094169085015290830191909152606082015290565b82516060906000816001600160401b0381118015620003fd57600080fd5b5060405190808252806020026020018201604052801562000428578160200160208202803683370190505b50905060005b82811015620004ca578681815181106200044457fe5b60200260200101518682815181106200045957fe5b602002602001015186604051620004709062000680565b6200047e9392919062000810565b604051809103906000f0801580156200049b573d6000803e3d6000fd5b50828281518110620004a957fe5b6001600160a01b03909216602092830291909101909101526001016200042e565b5095945050505050565b8280548282559060005260206000209081019282156200052c579160200282015b828111156200052c57825182546001600160a01b0319166001600160a01b03909116178255602090920191600190910190620004f5565b506200053a9291506200068e565b5090565b828054600181600116156101000203166002900490600052602060002090601f0160209004810192826200057657600085556200052c565b82601f106200059157805160ff19168380011785556200052c565b828001600101855582156200052c579182015b828111156200052c578251825591602001919060010190620005a4565b82600181019282156200052c57916020028201828111156200052c578251825591602001919060010190620005a4565b60405180610100016040528060006001600160a01b03168152602001606081526020016000815260200160006001600160a01b03168152602001600081526020016000815260200160008152602001600081525090565b60405180608001604052806060815260200160006001600160a01b03168152602001600081526020016200067b620006a5565b905290565b6111f38062004ad983390190565b5b808211156200053a57600081556001016200068f565b60405180602001604052806001906020820280368337509192915050565b60008060008060008060008060008060006101608c8e031215620006e5578687fd5b8b51620006f28162000852565b60208d0151909b50620007058162000852565b60408d015160608e0151919b5099506200071f8162000852565b8098505060808c0151965060a08c0151955060c08c0151620007418162000852565b60e08d01516101008e015191965094506200075c8162000852565b809350506101208c015191506101408c015190509295989b509295989b9093969950565b60006020828403121562000792578081fd5b81518015158114620007a2578182fd5b9392505050565b60008151808452815b81811015620007d057602081850181015186830182015201620007b2565b81811115620007e25782602083870101525b50601f01601f19169290920160200192915050565b6001600160a01b03929092168252602082015260400190565b600060608252620008256060830186620007a9565b8281036020840152620008398186620007a9565b91505060018060a01b0383166040830152949350505050565b6001600160a01b03811681146200086857600080fd5b50565b61425e806200087b6000396000f3fe60806040523480156200001157600080fd5b50600436106200025c5760003560e01c80638e0ed193116200014d578063cc87adea11620000c9578063da3115881162000087578063da31158814620004e7578063e5678dfa146200050d578063eb44fdd31462000524578063ec979082146200054a578063f2fde38b1462000554576200025c565b8063cc87adea146200048c578063d4b6838e14620004a3578063d5da4f1d14620004ad578063d8dfeb4514620004c4578063d9113f0d14620004ce576200025c565b8063a544a62c1162000117578063a544a62c1462000420578063ad94bd1b146200042a578063b06c1ba31462000434578063b0e21e8a146200045a578063c66106571462000464576200025c565b80638e0ed19314620003d157806390cb4dce14620003e857806397eef18714620003f2578063992c90791462000409576200025c565b806353ac55f511620001dd5780637641ab0111620001a75780637641ab011462000392578063787dce3d146200039c5780637d1d7fb814620003b3578063893d20e814620003bd5780638ce7442614620003c7576200025c565b806353ac55f514620003345780635690238f146200035a5780636399d03d146200036457806371b7270c146200037b576200025c565b8063473a6d52116200022b578063473a6d5214620002d957806349a4d93414620002f05780634a7d036914620003075780634b2d9ffc14620003115780634c9f66c7146200031b576200025c565b806313c390ef1462000261578063221fff81146200028357806332ecabe9146200029c57806335a9cdad14620002b3575b600080fd5b6200026b6200056b565b6040516200027a919062002af0565b60405180910390f35b6200029a6200029436600462002946565b62000715565b005b6200029a620002ad36600462002742565b620009cc565b620002ca620002c436600462002946565b62000a50565b6040516200027a919062002f71565b620002ca620002ea366004620028ed565b62000e0a565b620002ca6200030136600462002723565b62000e5d565b620002ca62000e6f565b620002ca62000f98565b6200032562000f9e565b6040516200027a919062002a9f565b6200034b62000345366004620028ed565b62000fad565b6040516200027a919062002b9a565b6200029a620010a7565b6200029a62000375366004620028ed565b62001129565b620002ca6200038c36600462002868565b62001143565b620002ca6200125f565b6200029a620003ad366004620028ed565b62001265565b620002ca620012bf565b62000325620012c5565b62000325620012d4565b620002ca620003e236600462002723565b620012e3565b620002ca620013e4565b6200029a62000403366004620028ed565b620013ea565b620002ca6200041a3660046200291f565b62001439565b620002ca62001739565b620002ca6200173f565b6200044b62000445366004620028ed565b62001745565b6040516200027a919062002e87565b620002ca6200179f565b6200047b62000475366004620028ed565b620017a5565b6040516200027a9392919062002ba5565b620002ca6200049d366004620028ed565b62001873565b620003256200187a565b6200029a620004be366004620028ed565b62001889565b62000325620018d8565b620004d8620018e7565b6040516200027a919062002b54565b620004fe620004f8366004620028ed565b620019c0565b6040516200027a919062002e72565b620002ca6200051e3660046200277f565b62001aea565b6200053b62000535366004620028ed565b62001b30565b6040516200027a919062002eb6565b620002ca62001c7d565b6200034b6200056536600462002723565b62001c83565b600b5460609067ffffffffffffffff811180156200058857600080fd5b50604051908082528060200260200182016040528015620005c657816020015b620005b2620024ee565b815260200190600190039081620005a85790505b50905060015b600b548110156200071157600b8181548110620005e557fe5b600091825260209182902060408051600493909302909101805460026001821615610100026000190190911604601f8101859004909402830160a090810190925260808301848152929390928492909184918401828280156200068c5780601f1062000660576101008083540402835291602001916200068c565b820191906000526020600020905b8154815290600101906020018083116200066e57829003601f168201915b50505091835250506001828101546001600160a01b031660208084019190915260028401546040808501919091528051918201908190526060909301929091600385019182845b815481526020019060010190808311620006d357505050505081525050828281518110620006fd57fe5b6020908102919091010152600101620005cc565b5090565b600a548310620007425760405162461bcd60e51b8152600401620007399062002d50565b60405180910390fd5b6200074d8362000fad565b156200076d5760405162461bcd60e51b8152600401620007399062002daf565b60006200077a8362000e0a565b6001546040516323b872dd60e01b81529192506001600160a01b0316906323b872dd90620007b19033903090869060040162002ab3565b602060405180830381600087803b158015620007cc57600080fd5b505af1158015620007e1573d6000803e3d6000fd5b505050506040513d601f19601f8201168201806040525081019062000807919062002849565b506000600a85815481106200081857fe5b60009182526020918290206040805161010081018252600890930290910180546001600160a01b031683526001810180548351818702810187019094528084529394919385830193928301828280156200089c57602002820191906000526020600020905b81546001600160a01b031681526001909101906020018083116200087d575b50505091835250506002820154602082015260038201546001600160a01b031660408201526004820154606082015260058201546080820152600682015460a082015260079091015460c090910152905060005b8160200151518110156200098757816020015181815181106200090f57fe5b60200260200101516001600160a01b031663c024cd2685876040518363ffffffff1660e01b81526004016200094692919062002ad7565b600060405180830381600087803b1580156200096157600080fd5b505af115801562000976573d6000803e3d6000fd5b505060019092019150620008f09050565b507fd81c0442e10068a9818f3aa093c9ccb804584690df572d7df3da2d892a6973f2858585604051620009bd9392919062002ff1565b60405180910390a15050505050565b6000546001600160a01b03163314620009e457600080fd5b8015620009f757620009f562000e6f565b505b600680546001600160a01b0319166001600160a01b0384161790556040517f15b84596b3c567ae2998116949ae5f2d47f3055c12d9053db4d6e50f4c794dd99062000a4490849062002a9f565b60405180910390a15050565b600a54600090841062000a775760405162461bcd60e51b8152600401620007399062002d50565b62000a828462000fad565b1562000aa25760405162461bcd60e51b8152600401620007399062002e2c565b6000600a858154811062000ab257fe5b60009182526020918290206040805161010081018252600890930290910180546001600160a01b0316835260018101805483518187028101870190945280845293949193858301939283018282801562000b3657602002820191906000526020600020905b81546001600160a01b0316815260019091019060200180831162000b17575b50505091835250506002820154602082015260038201546001600160a01b031660408201526004820154606082015260058201546080820152600682015460a082015260079091015460c090910152905060005b81602001515181101562000c21578160200151818151811062000ba957fe5b60200260200101516001600160a01b03166342986e1333876040518363ffffffff1660e01b815260040162000be092919062002ad7565b600060405180830381600087803b15801562000bfb57600080fd5b505af115801562000c10573d6000803e3d6000fd5b50506001909201915062000b8a9050565b50600062000c2f8562000e0a565b9050600062000c60670de0b6b3a764000062000c598560a001518562001ced90919063ffffffff16565b9062001d1f565b9050600062000c8a670de0b6b3a764000062000c598660c001518662001ced90919063ffffffff16565b905062000ca48162000c9d858562001d35565b9062001d35565b600780548401905560015460405163a9059cbb60e01b81529194506001600160a01b03169063a9059cbb9062000ce1908990879060040162002ad7565b602060405180830381600087803b15801562000cfc57600080fd5b505af115801562000d11573d6000803e3d6000fd5b505050506040513d601f19601f8201168201806040525081019062000d37919062002849565b50600254604051630ebdac0960e41b81526001600160a01b039091169063ebdac0909062000d6a90849060040162002f71565b602060405180830381600087803b15801562000d8557600080fd5b505af115801562000d9a573d6000803e3d6000fd5b505050506040513d601f19601f8201168201806040525081019062000dc0919062002849565b507fb6fdb729b2ed801daf629f0ab713e4a7a73619505790f6f27fd92d6f2c9688d788883360405162000df69392919062002ff1565b60405180910390a150909695505050505050565b6000600954821015801562000e295750600954828162000e2657fe5b06155b62000e485760405162461bcd60e51b8152600401620007399062002c5b565b600954828162000e5457fe5b0490505b919050565b60086020526000908152604090205481565b6006546000906001600160a01b031633148062000e8b57503330145b62000eaa5760405162461bcd60e51b8152600401620007399062002c17565b600754801562000f9257600060075560015460065460405163a9059cbb60e01b81526001600160a01b039283169263a9059cbb9262000ef192911690859060040162002ad7565b602060405180830381600087803b15801562000f0c57600080fd5b505af115801562000f21573d6000803e3d6000fd5b505050506040513d601f19601f8201168201806040525081019062000f47919062002849565b506006546040517f0f7f5b155b0b0ac6890709a2c7bf1b8bb3f675fff1e7840b4dd3c9acde59048b9162000f89916001600160a01b0390911690849062002ad7565b60405180910390a15b90505b90565b60035481565b6002546001600160a01b031681565b600080600a838154811062000fbe57fe5b60009182526020918290206040805161010081018252600890930290910180546001600160a01b031683526001810180548351818702810187019094528084529394919385830193928301828280156200104257602002820191906000526020600020905b81546001600160a01b0316815260019091019060200180831162001023575b50505091835250506002820154602082015260038201546001600160a01b039081166040830152600483015460608084019190915260058401546080840152600684015460a084015260079093015460c0909201919091529101511615159392505050565b600d546001600160a01b03163314620010d45760405162461bcd60e51b8152600401620007399062002ccc565b601054421015620010f95760405162461bcd60e51b8152600401620007399062002d0d565b6200110362001d4b565b5060015b600b5481101562001126576200111d8162001d89565b60010162001107565b50565b60405162461bcd60e51b8152600401620007399062002df5565b600080546001600160a01b031633146200115c57600080fd5b6000620011a185858080601f01602080910402602001604051908101604052809392919081815260200183838082843760009201919091525087925062001f37915050565b600b805460018101825560009190915281518051929350839260049092027f0175b7a638427703f0dbe7bb9bbf987a2551717b34e79f33b5b1008d1fa01db90191620011f69183916020919091019062002526565b506020820151600182810180546001600160a01b0319166001600160a01b03909316929092179091556040830151600283015560608301516200123f91600384019190620025b7565b5050600b546000190192506200125790508262001d89565b509392505050565b60095481565b6000546001600160a01b031633146200127d57600080fd5b60058190556040517fada2cde3c4a561f5c23e2fdbfb223e1f0d1ec7109b9811b32644e6e974d6631f90620012b490839062002f71565b60405180910390a150565b60045481565b6000546001600160a01b031690565b6006546001600160a01b031681565b336000908152600860205260408120548015620013de573360009081526008602052604080822091909155600154905163a9059cbb60e01b81526001600160a01b039091169063a9059cbb9062001341908690859060040162002ad7565b602060405180830381600087803b1580156200135c57600080fd5b505af115801562001371573d6000803e3d6000fd5b505050506040513d601f19601f8201168201806040525081019062001397919062002849565b50826001600160a01b03167fc9985ad824d943d66367ce5feea26e18979b3e1c9273742926d87e2b0d7473873383604051620013d592919062002ad7565b60405180910390a25b92915050565b60105481565b6000546001600160a01b031633146200140257600080fd5b60038190556040517fcc4df50442ac32f0142ba4853f617661e0823be0e92148e7e5f36ce56c13982590620012b490839062002f71565b6000620014468362000fad565b6200145657620014568362001129565b6000600a84815481106200146657fe5b60009182526020918290206040805161010081018252600890930290910180546001600160a01b03168352600181018054835181870281018701909452808452939491938583019392830182828015620014ea57602002820191906000526020600020905b81546001600160a01b03168152600190910190602001808311620014cb575b50505050508152602001600282015481526020016003820160009054906101000a90046001600160a01b03166001600160a01b03166001600160a01b031681526020016004820154815260200160058201548152602001600682015481526020016007820154815250509050600081606001516001600160a01b03166371297784336040518263ffffffff1660e01b81526004016200158a919062002a9f565b602060405180830381600087803b158015620015a557600080fd5b505af1158015620015ba573d6000803e3d6000fd5b505050506040513d601f19601f82011682018060405250810190620015e0919062002906565b90506009546009548281620015f157fe5b040290506000620016028262000e0a565b905060006200162c670de0b6b3a764000062000c5986608001518562001ced90919063ffffffff16565b90506200163a828262001d35565b84516001600160a01b0390811660009081526008602052604090819020805485019055600154905163a9059cbb60e01b8152929450169063a9059cbb9062001689908990869060040162002ad7565b602060405180830381600087803b158015620016a457600080fd5b505af1158015620016b9573d6000803e3d6000fd5b505050506040513d601f19601f82011682018060405250810190620016df919062002849565b50856001600160a01b03167fe67bd0100cd3289557430d36098901ba18161e6279c9711d8650b8af105521048886606001518685876040516200172795949392919062002fc5565b60405180910390a25095945050505050565b60075481565b600e5481565b6200174f620025e7565b6000828152600c6020526040908190208151606081019092528054829060ff1680156200177857fe5b80156200178157fe5b81526001820154602082015260029091015460409091015292915050565b60055481565b600b8181548110620017b657600080fd5b60009182526020918290206004919091020180546040805160026001841615610100026000190190931692909204601f810185900485028301850190915280825291935091839190830182828015620018535780601f10620018275761010080835404028352916020019162001853565b820191906000526020600020905b8154815290600101906020018083116200183557829003601f168201915b50505050600183015460029093015491926001600160a01b031691905083565b6009540290565b600d546001600160a01b031681565b6000546001600160a01b03163314620018a157600080fd5b60048190556040517f92d395c429898992f8532ee7145901513e524c2085fd7fd1da39b8badcd6df3190620012b490839062002f71565b6001546001600160a01b031681565b60606000805b600a548110156200191857620019038162000fad565b6200190f576001909101905b600101620018ed565b5060008167ffffffffffffffff811180156200193357600080fd5b506040519080825280602002602001820160405280156200195e578160200160208202803683370190505b5090506000805b600a54811015620019b7578382106200197e57620019b7565b620019898162000fad565b620019ae57808383815181106200199c57fe5b60209081029190910101526001909101905b60010162001965565b50909250505090565b620019ca620024ee565b600b8281548110620019d857fe5b600091825260209182902060408051600493909302909101805460026001821615610100026000190190911604601f8101859004909402830160a0908101909252608083018481529293909284929091849184018282801562001a7f5780601f1062001a535761010080835404028352916020019162001a7f565b820191906000526020600020905b81548152906001019060200180831162001a6157829003601f168201915b50505091835250506001828101546001600160a01b031660208084019190915260028401546040808501919091528051918201908190526060909301929091600385019182845b81548152602001906001019080831162001ac6575050505050815250509050919050565b600080805b8451811015620012575762001b2562001b1d86838151811062001b0e57fe5b60200260200101518662001439565b839062001f7b565b915060010162001aef565b62001b3a62002609565b600a54821062001b94575060408051610100810182526000808252825181815260208082018552830152918101829052606081018290526080810182905260a0810182905260c0810182905260e081019190915262000e58565b600a828154811062001ba257fe5b60009182526020918290206040805161010081018252600890930290910180546001600160a01b0316835260018101805483518187028101870190945280845293949193858301939283018282801562001c2657602002820191906000526020600020905b81546001600160a01b0316815260019091019060200180831162001c07575b50505091835250506002820154602082015260038201546001600160a01b031660408201526004820154606082015260058201546080820152600682015460a082015260079091015460c090910152905062000e58565b600a5490565b600080546001600160a01b0316331462001c9c57600080fd5b6001600160a01b03821662001cb057600080fd5b60005462001cc8906001600160a01b03168362001f8e565b50600080546001600160a01b0383166001600160a01b03199091161790556001919050565b60008262001cfe57506000620013de565b8282028284828162001d0c57fe5b041462001d1857600080fd5b9392505050565b60008082848162001d2c57fe5b04949350505050565b60008282111562001d4557600080fd5b50900390565b601054428082111562001d5f575062000f95565b600e54820191505b8082111562001d7c5750601081905562000f95565b600e548201915062001d67565b6000600b828154811062001d9957fe5b600091825260209182902060408051600493909302909101805460026001821615610100026000190190911604601f8101859004909402830160a0908101909252608083018481529293909284929091849184018282801562001e405780601f1062001e145761010080835404028352916020019162001e40565b820191906000526020600020905b81548152906001019060200180831162001e2257829003601f168201915b50505091835250506001828101546001600160a01b031660208084019190915260028401546040808501919091528051918201908190526060909301929091600385019182845b81548152602001906001019080831162001e87575050505050815250509050600062001eb7826020015162001f92565b6060830151519091501562001ed25762001ed2828262002034565b80600b848154811062001ee157fe5b6000918252602090912060026004909202010155600d5462001f0f9084906001600160a01b03168362002167565b600b848154811062001f1d57fe5b600091825260208220600491909102016003010155505050565b62001f41620024ee565b506040805160208082018352600080835283516080810185529586526001600160a01b039094169085015290830191909152606082015290565b60008282018381101562001d1857600080fd5b5050565b600080826001600160a01b031663feaf968c6040518163ffffffff1660e01b815260040160a06040518083038186803b15801562001fcf57600080fd5b505afa15801562001fe4573d6000803e3d6000fd5b505050506040513d601f19601f820116820180604052508101906200200a919062002976565b5050509150506000811215620013de5760405162461bcd60e51b8152600401620007399062002d78565b60608201515160408301516000908311156200209357600a82815481106200205857fe5b60009182526020822060016008909202010190815481106200207657fe5b6000918252602090912001546001600160a01b03169050620020e2565b600a8281548110620020a157fe5b9060005260206000209060080201600101600180811115620020bf57fe5b81548110620020ca57fe5b6000918252602090912001546001600160a01b031690505b80600a8381548110620020f157fe5b906000526020600020906008020160030160006101000a8154816001600160a01b0302191690836001600160a01b031602179055507fc68d106ea6e4bec784925cfd91767212c71ced92adbac107dc364435321113f682826040516200215992919062002f7a565b60405180910390a150505050565b60408051600280825260608201909252600091829190816020015b6060815260200190600190039081620021825790505060408051808201909152600581526441626f766560d81b602082015290915081600081518110620021c557fe5b6020026020010181905250604051806040016040528060098152602001684e6f742041626f766560b81b815250816001808111156200220057fe5b815181106200220b57fe5b6020908102919091010152600a8054601054909350906200222f8684808562002385565b8154600180820184556000938452602093849020835160089093020180546001600160a01b0319166001600160a01b0390931692909217825582840151805193949293620022869392850192919091019062002660565b5060408281015160028301556060808401516003840180546001600160a01b0319166001600160a01b039092169190911790556080840151600484015560a0840151600584015560c0840151600684015560e09093015160079092019190915580519182018152600080835260208084018a9052838301889052868252600c90522081518154829060ff191660018380156200231e57fe5b0217905550602082015181600101556040820151816002015590505085817ffa965940dabe32040cc7aa9ae52951f1264ab07b31a958ed03ea7072f8c69218858860008960405162002374949392919062002f91565b60405180910390a350509392505050565b6200238f62002609565b604051806101000160405280866001600160a01b03168152602001620023b7868630620023f8565b815260200183815260200160006001600160a01b03168152602001600454815260200160055481526020016003548152602001428152509050949350505050565b825160609060008167ffffffffffffffff811180156200241757600080fd5b5060405190808252806020026020018201604052801562002442578160200160208202803683370190505b50905060005b82811015620024e4578681815181106200245e57fe5b60200260200101518682815181106200247357fe5b6020026020010151866040516200248a90620026b8565b620024989392919062002bd5565b604051809103906000f080158015620024b5573d6000803e3d6000fd5b50828281518110620024c357fe5b6001600160a01b039092166020928302919091019091015260010162002448565b5095945050505050565b60405180608001604052806060815260200160006001600160a01b031681526020016000815260200162002521620026c6565b905290565b828054600181600116156101000203166002900490600052602060002090601f0160209004810192826200255e5760008555620025a9565b82601f106200257957805160ff1916838001178555620025a9565b82800160010185558215620025a9579182015b82811115620025a95782518255916020019190600101906200258c565b5062000711929150620026e4565b8260018101928215620025a95791602002820182811115620025a95782518255916020019190600101906200258c565b6040805160608101909152806000815260200160008152602001600081525090565b60405180610100016040528060006001600160a01b03168152602001606081526020016000815260200160006001600160a01b03168152602001600081526020016000815260200160008152602001600081525090565b828054828255906000526020600020908101928215620025a9579160200282015b82811115620025a957825182546001600160a01b0319166001600160a01b0390911617825560209092019160019091019062002681565b6111f3806200303683390190565b60405180602001604052806001906020820280368337509192915050565b5b80821115620007115760008155600101620026e5565b803562000e588162003010565b805169ffffffffffffffffffff8116811462000e5857600080fd5b60006020828403121562002735578081fd5b813562001d188162003010565b6000806040838503121562002755578081fd5b8235620027628162003010565b91506020830135620027748162003026565b809150509250929050565b6000806040838503121562002792578182fd5b823567ffffffffffffffff80821115620027aa578384fd5b818501915085601f830112620027be578384fd5b8135602082821115620027cd57fe5b80820260405182828201018181108682111715620027e757fe5b604052838152828101945085830182870184018b101562002806578889fd5b8896505b848710156200282a5780358652600196909601959483019483016200280a565b5096506200283c9050878201620026fb565b9450505050509250929050565b6000602082840312156200285b578081fd5b815162001d188162003026565b6000806000604084860312156200287d578081fd5b833567ffffffffffffffff8082111562002895578283fd5b818601915086601f830112620028a9578283fd5b813581811115620028b8578384fd5b876020828501011115620028ca578384fd5b60209283019550935050840135620028e28162003010565b809150509250925092565b600060208284031215620028ff578081fd5b5035919050565b60006020828403121562002918578081fd5b5051919050565b6000806040838503121562002932578182fd5b823591506020830135620027748162003010565b6000806000606084860312156200295b578283fd5b83359250602084013591506040840135620028e28162003010565b600080600080600060a086880312156200298e578081fd5b620029998662002708565b9450602086015193506040860151925060608601519150620029be6080870162002708565b90509295509295909350565b6001600160a01b03169052565b60018110620029e257fe5b9052565b60008151808452815b8181101562002a0d57602081850181015186830182015201620029ef565b8181111562002a1f5782602083870101525b50601f01601f19169290920160200192915050565b600081516080845262002a4b6080850182620029e6565b9050602060018060a01b0381850151168186015260408401516040860152606084015160608601845b600181101562002a935782518252918301919083019060010162002a74565b50929695505050505050565b6001600160a01b0391909116815260200190565b6001600160a01b039384168152919092166020820152604081019190915260600190565b6001600160a01b03929092168252602082015260400190565b6000602080830181845280855180835260408601915060408482028701019250838701855b8281101562002b4757603f1988860301845262002b3485835162002a34565b9450928501929085019060010162002b15565b5092979650505050505050565b6020808252825182820181905260009190848201906040850190845b8181101562002b8e5783518352928401929184019160010162002b70565b50909695505050505050565b901515815260200190565b60006060825262002bba6060830186620029e6565b6001600160a01b039490941660208301525060400152919050565b60006060825262002bea6060830186620029e6565b828103602084015262002bfe8186620029e6565b91505060018060a01b0383166040830152949350505050565b60208082526024908201527f4f6e6c792070726f746f636f6c2063616e20636c61696d2070726f746f636f6c6040820152632066656560e01b606082015260800190565b6020808252604b908201527f536861726573206d75737420626520626f74682067726561746572207468616e60408201527f20286f7220657175616c20746f2920616e6420646976697369626c652062792060608201526a39b430b932a330b1ba37b960a91b608082015260a00190565b60208082526021908201527f4f6e6c79206c696e6b206e6f64652063616e20637265617465206d61726b65746040820152607360f81b606082015260800190565b60208082526023908201527f4d757374207761697420666f72206d61726b6574207265736f6c7574696f6e54604082015262696d6560e81b606082015260800190565b6020808252600e908201526d139bc81cdd58da081b585c9ad95d60921b604082015260600190565b6020808252601b908201527f50726963652066726f6d2066656564206973206e656761746976650000000000604082015260600190565b60208082526026908201527f43616e6e6f74206d696e742073686172657320666f72207265736f6c766564206040820152651b585c9ad95d60d21b606082015260800190565b6020808252601b908201527f55736520637265617465416e645265736f6c76654d61726b6574730000000000604082015260600190565b60208082526026908201527f43616e6e6f74206275726e2073686172657320666f72207265736f6c766564206040820152651b585c9ad95d60d21b606082015260800190565b60006020825262001d18602083018462002a34565b600060608201905062002e9c828451620029d7565b602083015160208301526040830151604083015292915050565b602080825282516001600160a01b039081168383015283820151610100604085018190528151610120860181905260009493928401929185916101408801905b8084101562002f1a5785518516825294860194600193909301929086019062002ef6565b50604089015160608901526060890151955062002f3b6080890187620029ca565b608089015160a089015260a089015160c089015260c089015160e089015260e08901518289015280965050505050505092915050565b90815260200190565b9182526001600160a01b0316602082015260400190565b8481526001600160a01b03841660208201526080810162002fb66040830185620029d7565b82606083015295945050505050565b9485526001600160a01b0393909316602085015260408401919091526060830152608082015260a00190565b92835260208301919091526001600160a01b0316604082015260600190565b6001600160a01b03811681146200112657600080fd5b80151581146200112657600080fdfe60806040523480156200001157600080fd5b50604051620011f3380380620011f3833981810160405260608110156200003757600080fd5b81019080805160405193929190846401000000008211156200005857600080fd5b9083019060208201858111156200006e57600080fd5b82516401000000008111828201881017156200008957600080fd5b82525081516020918201929091019080838360005b83811015620000b85781810151838201526020016200009e565b50505050905090810190601f168015620000e65780820380516001836020036101000a031916815260200191505b50604052602001805160405193929190846401000000008211156200010a57600080fd5b9083019060208201858111156200012057600080fd5b82516401000000008111828201881017156200013b57600080fd5b82525081516020918201929091019080838360005b838110156200016a57818101518382015260200162000150565b50505050905090810190601f168015620001985780820380516001836020036101000a031916815260200191505b5060405260209081015185519093508592508491620001bd9160039185019062000219565b508051620001d390600490602084019062000219565b5050600580546001600160a01b039390931661010090810233909102610100600160a81b031960ff199095166012178516179093169290921790915550620002c5915050565b828054600181600116156101000203166002900490600052602060002090601f0160209004810192826200025157600085556200029c565b82601f106200026c57805160ff19168380011785556200029c565b828001600101855582156200029c579182015b828111156200029c5782518255916020019190600101906200027f565b50620002aa929150620002ae565b5090565b5b80821115620002aa5760008155600101620002af565b610f1e80620002d56000396000f3fe608060405234801561001057600080fd5b506004361061010b5760003560e01c806370a08231116100a2578063a457c2d711610071578063a457c2d714610343578063a9059cbb1461036f578063c024cd261461039b578063dd62ed3e146103c7578063f2fde38b146103f55761010b565b806370a08231146102cb57806371297784146102f1578063893d20e81461031757806395d89b411461033b5761010b565b806323b872dd116100de57806323b872dd1461021f578063313ce56714610255578063395093511461027357806342986e131461029f5761010b565b806306fdde0314610110578063095ea7b31461018d5780630fb66557146101cd57806318160ddd14610205575b600080fd5b61011861041b565b6040805160208082528351818301528351919283929083019185019080838360005b8381101561015257818101518382015260200161013a565b50505050905090810190601f16801561017f5780820380516001836020036101000a031916815260200191505b509250505060405180910390f35b6101b9600480360360408110156101a357600080fd5b506001600160a01b0381351690602001356104b1565b604080519115158252519081900360200190f35b610203600480360360608110156101e357600080fd5b506001600160a01b038135811691602081013590911690604001356104ce565b005b61020d6104fa565b60408051918252519081900360200190f35b6101b96004803603606081101561023557600080fd5b506001600160a01b03813581169160208101359091169060400135610500565b61025d610587565b6040805160ff9092168252519081900360200190f35b6101b96004803603604081101561028957600080fd5b506001600160a01b038135169060200135610590565b610203600480360360408110156102b557600080fd5b506001600160a01b0381351690602001356105de565b61020d600480360360208110156102e157600080fd5b50356001600160a01b0316610608565b61020d6004803603602081101561030757600080fd5b50356001600160a01b0316610623565b61031f61065f565b604080516001600160a01b039092168252519081900360200190f35b610118610673565b6101b96004803603604081101561035957600080fd5b506001600160a01b0381351690602001356106d4565b6101b96004803603604081101561038557600080fd5b506001600160a01b03813516906020013561073c565b610203600480360360408110156103b157600080fd5b506001600160a01b038135169060200135610750565b61020d600480360360408110156103dd57600080fd5b506001600160a01b0381358116916020013516610776565b6101b96004803603602081101561040b57600080fd5b50356001600160a01b03166107a1565b60038054604080516020601f60026000196101006001881615020190951694909404938401819004810282018101909252828152606093909290918301828280156104a75780601f1061047c576101008083540402835291602001916104a7565b820191906000526020600020905b81548152906001019060200180831161048a57829003601f168201915b5050505050905090565b60006104c56104be610818565b848461081c565b50600192915050565b60055461010090046001600160a01b031633146104ea57600080fd5b6104f5838383610908565b505050565b60025490565b600061050d848484610908565b61057d84610519610818565b61057885604051806060016040528060288152602001610e32602891396001600160a01b038a16600090815260016020526040812090610557610818565b6001600160a01b031681526020810191909152604001600020549190610a63565b61081c565b5060019392505050565b60055460ff1690565b60006104c561059d610818565b8461057885600160006105ae610818565b6001600160a01b03908116825260208083019390935260409182016000908120918c168152925290205490610afa565b60055461010090046001600160a01b031633146105fa57600080fd5b6106048282610b5b565b5050565b6001600160a01b031660009081526020819052604090205490565b60055460009061010090046001600160a01b0316331461064257600080fd5b600061064d83610608565b90506106598382610b5b565b92915050565b60055461010090046001600160a01b031690565b60048054604080516020601f60026000196101006001881615020190951694909404938401819004810282018101909252828152606093909290918301828280156104a75780601f1061047c576101008083540402835291602001916104a7565b60006104c56106e1610818565b8461057885604051806060016040528060258152602001610ec4602591396001600061070b610818565b6001600160a01b03908116825260208083019390935260409182016000908120918d16815292529020549190610a63565b60006104c5610749610818565b8484610908565b60055461010090046001600160a01b0316331461076c57600080fd5b6106048282610c57565b6001600160a01b03918216600090815260016020908152604080832093909416825291909152205490565b60055460009061010090046001600160a01b031633146107c057600080fd5b6001600160a01b0382166107d357600080fd5b6005546107ee9061010090046001600160a01b031683610604565b50600580546001600160a01b03831661010002610100600160a81b03199091161790556001919050565b3390565b6001600160a01b0383166108615760405162461bcd60e51b8152600401808060200182810382526024815260200180610ea06024913960400191505060405180910390fd5b6001600160a01b0382166108a65760405162461bcd60e51b8152600401808060200182810382526022815260200180610dea6022913960400191505060405180910390fd5b6001600160a01b03808416600081815260016020908152604080832094871680845294825291829020859055815185815291517f8c5be1e5ebec7d5bd14f71427d1e84f3dd0314c0f7b2291e5b200ac8c7c3b9259281900390910190a3505050565b6001600160a01b03831661094d5760405162461bcd60e51b8152600401808060200182810382526025815260200180610e7b6025913960400191505060405180910390fd5b6001600160a01b0382166109925760405162461bcd60e51b8152600401808060200182810382526023815260200180610da56023913960400191505060405180910390fd5b61099d8383836104f5565b6109da81604051806060016040528060268152602001610e0c602691396001600160a01b0386166000908152602081905260409020549190610a63565b6001600160a01b038085166000908152602081905260408082209390935590841681522054610a099082610afa565b6001600160a01b038084166000818152602081815260409182902094909455805185815290519193928716927fddf252ad1be2c89b69c2b068fc378daa952ba7f163c4a11628f55a4df523b3ef92918290030190a3505050565b60008184841115610af25760405162461bcd60e51b81526004018080602001828103825283818151815260200191508051906020019080838360005b83811015610ab7578181015183820152602001610a9f565b50505050905090810190601f168015610ae45780820380516001836020036101000a031916815260200191505b509250505060405180910390fd5b505050900390565b600082820183811015610b54576040805162461bcd60e51b815260206004820152601b60248201527f536166654d6174683a206164646974696f6e206f766572666c6f770000000000604482015290519081900360640190fd5b9392505050565b6001600160a01b038216610ba05760405162461bcd60e51b8152600401808060200182810382526021815260200180610e5a6021913960400191505060405180910390fd5b610bac826000836104f5565b610be981604051806060016040528060228152602001610dc8602291396001600160a01b0385166000908152602081905260409020549190610a63565b6001600160a01b038316600090815260208190526040902055600254610c0f9082610d47565b6002556040805182815290516000916001600160a01b038516917fddf252ad1be2c89b69c2b068fc378daa952ba7f163c4a11628f55a4df523b3ef9181900360200190a35050565b6001600160a01b038216610cb2576040805162461bcd60e51b815260206004820152601f60248201527f45524332303a206d696e7420746f20746865207a65726f206164647265737300604482015290519081900360640190fd5b610cbe600083836104f5565b600254610ccb9082610afa565b6002556001600160a01b038216600090815260208190526040902054610cf19082610afa565b6001600160a01b0383166000818152602081815260408083209490945583518581529351929391927fddf252ad1be2c89b69c2b068fc378daa952ba7f163c4a11628f55a4df523b3ef9281900390910190a35050565b600082821115610d9e576040805162461bcd60e51b815260206004820152601e60248201527f536166654d6174683a207375627472616374696f6e206f766572666c6f770000604482015290519081900360640190fd5b5090039056fe45524332303a207472616e7366657220746f20746865207a65726f206164647265737345524332303a206275726e20616d6f756e7420657863656564732062616c616e636545524332303a20617070726f766520746f20746865207a65726f206164647265737345524332303a207472616e7366657220616d6f756e7420657863656564732062616c616e636545524332303a207472616e7366657220616d6f756e74206578636565647320616c6c6f77616e636545524332303a206275726e2066726f6d20746865207a65726f206164647265737345524332303a207472616e736665722066726f6d20746865207a65726f206164647265737345524332303a20617070726f76652066726f6d20746865207a65726f206164647265737345524332303a2064656372656173656420616c6c6f77616e63652062656c6f77207a65726fa2646970667358221220c881513fca5a75d47e02fc1c04920461b43ce001b23b37bd2a0244cb5b4737ce64736f6c63430007060033a2646970667358221220899bae3941cfdc53936bd09df5fc2b779fb03cefa84b0a2f78a92e16aeac4bd764736f6c6343000706003360806040523480156200001157600080fd5b50604051620011f3380380620011f3833981810160405260608110156200003757600080fd5b81019080805160405193929190846401000000008211156200005857600080fd5b9083019060208201858111156200006e57600080fd5b82516401000000008111828201881017156200008957600080fd5b82525081516020918201929091019080838360005b83811015620000b85781810151838201526020016200009e565b50505050905090810190601f168015620000e65780820380516001836020036101000a031916815260200191505b50604052602001805160405193929190846401000000008211156200010a57600080fd5b9083019060208201858111156200012057600080fd5b82516401000000008111828201881017156200013b57600080fd5b82525081516020918201929091019080838360005b838110156200016a57818101518382015260200162000150565b50505050905090810190601f168015620001985780820380516001836020036101000a031916815260200191505b5060405260209081015185519093508592508491620001bd9160039185019062000219565b508051620001d390600490602084019062000219565b5050600580546001600160a01b039390931661010090810233909102610100600160a81b031960ff199095166012178516179093169290921790915550620002c5915050565b828054600181600116156101000203166002900490600052602060002090601f0160209004810192826200025157600085556200029c565b82601f106200026c57805160ff19168380011785556200029c565b828001600101855582156200029c579182015b828111156200029c5782518255916020019190600101906200027f565b50620002aa929150620002ae565b5090565b5b80821115620002aa5760008155600101620002af565b610f1e80620002d56000396000f3fe608060405234801561001057600080fd5b506004361061010b5760003560e01c806370a08231116100a2578063a457c2d711610071578063a457c2d714610343578063a9059cbb1461036f578063c024cd261461039b578063dd62ed3e146103c7578063f2fde38b146103f55761010b565b806370a08231146102cb57806371297784146102f1578063893d20e81461031757806395d89b411461033b5761010b565b806323b872dd116100de57806323b872dd1461021f578063313ce56714610255578063395093511461027357806342986e131461029f5761010b565b806306fdde0314610110578063095ea7b31461018d5780630fb66557146101cd57806318160ddd14610205575b600080fd5b61011861041b565b6040805160208082528351818301528351919283929083019185019080838360005b8381101561015257818101518382015260200161013a565b50505050905090810190601f16801561017f5780820380516001836020036101000a031916815260200191505b509250505060405180910390f35b6101b9600480360360408110156101a357600080fd5b506001600160a01b0381351690602001356104b1565b604080519115158252519081900360200190f35b610203600480360360608110156101e357600080fd5b506001600160a01b038135811691602081013590911690604001356104ce565b005b61020d6104fa565b60408051918252519081900360200190f35b6101b96004803603606081101561023557600080fd5b506001600160a01b03813581169160208101359091169060400135610500565b61025d610587565b6040805160ff9092168252519081900360200190f35b6101b96004803603604081101561028957600080fd5b506001600160a01b038135169060200135610590565b610203600480360360408110156102b557600080fd5b506001600160a01b0381351690602001356105de565b61020d600480360360208110156102e157600080fd5b50356001600160a01b0316610608565b61020d6004803603602081101561030757600080fd5b50356001600160a01b0316610623565b61031f61065f565b604080516001600160a01b039092168252519081900360200190f35b610118610673565b6101b96004803603604081101561035957600080fd5b506001600160a01b0381351690602001356106d4565b6101b96004803603604081101561038557600080fd5b506001600160a01b03813516906020013561073c565b610203600480360360408110156103b157600080fd5b506001600160a01b038135169060200135610750565b61020d600480360360408110156103dd57600080fd5b506001600160a01b0381358116916020013516610776565b6101b96004803603602081101561040b57600080fd5b50356001600160a01b03166107a1565b60038054604080516020601f60026000196101006001881615020190951694909404938401819004810282018101909252828152606093909290918301828280156104a75780601f1061047c576101008083540402835291602001916104a7565b820191906000526020600020905b81548152906001019060200180831161048a57829003601f168201915b5050505050905090565b60006104c56104be610818565b848461081c565b50600192915050565b60055461010090046001600160a01b031633146104ea57600080fd5b6104f5838383610908565b505050565b60025490565b600061050d848484610908565b61057d84610519610818565b61057885604051806060016040528060288152602001610e32602891396001600160a01b038a16600090815260016020526040812090610557610818565b6001600160a01b031681526020810191909152604001600020549190610a63565b61081c565b5060019392505050565b60055460ff1690565b60006104c561059d610818565b8461057885600160006105ae610818565b6001600160a01b03908116825260208083019390935260409182016000908120918c168152925290205490610afa565b60055461010090046001600160a01b031633146105fa57600080fd5b6106048282610b5b565b5050565b6001600160a01b031660009081526020819052604090205490565b60055460009061010090046001600160a01b0316331461064257600080fd5b600061064d83610608565b90506106598382610b5b565b92915050565b60055461010090046001600160a01b031690565b60048054604080516020601f60026000196101006001881615020190951694909404938401819004810282018101909252828152606093909290918301828280156104a75780601f1061047c576101008083540402835291602001916104a7565b60006104c56106e1610818565b8461057885604051806060016040528060258152602001610ec4602591396001600061070b610818565b6001600160a01b03908116825260208083019390935260409182016000908120918d16815292529020549190610a63565b60006104c5610749610818565b8484610908565b60055461010090046001600160a01b0316331461076c57600080fd5b6106048282610c57565b6001600160a01b03918216600090815260016020908152604080832093909416825291909152205490565b60055460009061010090046001600160a01b031633146107c057600080fd5b6001600160a01b0382166107d357600080fd5b6005546107ee9061010090046001600160a01b031683610604565b50600580546001600160a01b03831661010002610100600160a81b03199091161790556001919050565b3390565b6001600160a01b0383166108615760405162461bcd60e51b8152600401808060200182810382526024815260200180610ea06024913960400191505060405180910390fd5b6001600160a01b0382166108a65760405162461bcd60e51b8152600401808060200182810382526022815260200180610dea6022913960400191505060405180910390fd5b6001600160a01b03808416600081815260016020908152604080832094871680845294825291829020859055815185815291517f8c5be1e5ebec7d5bd14f71427d1e84f3dd0314c0f7b2291e5b200ac8c7c3b9259281900390910190a3505050565b6001600160a01b03831661094d5760405162461bcd60e51b8152600401808060200182810382526025815260200180610e7b6025913960400191505060405180910390fd5b6001600160a01b0382166109925760405162461bcd60e51b8152600401808060200182810382526023815260200180610da56023913960400191505060405180910390fd5b61099d8383836104f5565b6109da81604051806060016040528060268152602001610e0c602691396001600160a01b0386166000908152602081905260409020549190610a63565b6001600160a01b038085166000908152602081905260408082209390935590841681522054610a099082610afa565b6001600160a01b038084166000818152602081815260409182902094909455805185815290519193928716927fddf252ad1be2c89b69c2b068fc378daa952ba7f163c4a11628f55a4df523b3ef92918290030190a3505050565b60008184841115610af25760405162461bcd60e51b81526004018080602001828103825283818151815260200191508051906020019080838360005b83811015610ab7578181015183820152602001610a9f565b50505050905090810190601f168015610ae45780820380516001836020036101000a031916815260200191505b509250505060405180910390fd5b505050900390565b600082820183811015610b54576040805162461bcd60e51b815260206004820152601b60248201527f536166654d6174683a206164646974696f6e206f766572666c6f770000000000604482015290519081900360640190fd5b9392505050565b6001600160a01b038216610ba05760405162461bcd60e51b8152600401808060200182810382526021815260200180610e5a6021913960400191505060405180910390fd5b610bac826000836104f5565b610be981604051806060016040528060228152602001610dc8602291396001600160a01b0385166000908152602081905260409020549190610a63565b6001600160a01b038316600090815260208190526040902055600254610c0f9082610d47565b6002556040805182815290516000916001600160a01b038516917fddf252ad1be2c89b69c2b068fc378daa952ba7f163c4a11628f55a4df523b3ef9181900360200190a35050565b6001600160a01b038216610cb2576040805162461bcd60e51b815260206004820152601f60248201527f45524332303a206d696e7420746f20746865207a65726f206164647265737300604482015290519081900360640190fd5b610cbe600083836104f5565b600254610ccb9082610afa565b6002556001600160a01b038216600090815260208190526040902054610cf19082610afa565b6001600160a01b0383166000818152602081815260408083209490945583518581529351929391927fddf252ad1be2c89b69c2b068fc378daa952ba7f163c4a11628f55a4df523b3ef9281900390910190a35050565b600082821115610d9e576040805162461bcd60e51b815260206004820152601e60248201527f536166654d6174683a207375627472616374696f6e206f766572666c6f770000604482015290519081900360640190fd5b5090039056fe45524332303a207472616e7366657220746f20746865207a65726f206164647265737345524332303a206275726e20616d6f756e7420657863656564732062616c616e636545524332303a20617070726f766520746f20746865207a65726f206164647265737345524332303a207472616e7366657220616d6f756e7420657863656564732062616c616e636545524332303a207472616e7366657220616d6f756e74206578636565647320616c6c6f77616e636545524332303a206275726e2066726f6d20746865207a65726f206164647265737345524332303a207472616e736665722066726f6d20746865207a65726f206164647265737345524332303a20617070726f76652066726f6d20746865207a65726f206164647265737345524332303a2064656372656173656420616c6c6f77616e63652062656c6f77207a65726fa2646970667358221220c881513fca5a75d47e02fc1c04920461b43ce001b23b37bd2a0244cb5b4737ce64736f6c63430007060033",
  "devdoc": {
    "kind": "dev",
    "methods": {
      "transferOwnership(address)": {
        "details": "Allows the current owner to transfer control of the contract to a newOwner.",
        "params": {
          "_newOwner": "The address to transfer ownership to."
        }
      }
    },
    "version": 1
  },
  "userdoc": {
    "kind": "user",
    "methods": {},
    "version": 1
  },
  "storageLayout": {
    "storage": [
      {
        "astId": 5397,
        "contract": "contracts/turbo/CryptoMarketFactory.sol:CryptoMarketFactory",
        "label": "owner",
        "offset": 0,
        "slot": "0",
        "type": "t_address"
      },
      {
        "astId": 7919,
        "contract": "contracts/turbo/CryptoMarketFactory.sol:CryptoMarketFactory",
        "label": "collateral",
        "offset": 0,
        "slot": "1",
        "type": "t_contract(IERC20Full)5374"
      },
      {
        "astId": 7921,
        "contract": "contracts/turbo/CryptoMarketFactory.sol:CryptoMarketFactory",
        "label": "feePot",
        "offset": 0,
        "slot": "2",
        "type": "t_contract(FeePot)9813"
      },
      {
        "astId": 7923,
        "contract": "contracts/turbo/CryptoMarketFactory.sol:CryptoMarketFactory",
        "label": "stakerFee",
        "offset": 0,
        "slot": "3",
        "type": "t_uint256"
      },
      {
        "astId": 7925,
        "contract": "contracts/turbo/CryptoMarketFactory.sol:CryptoMarketFactory",
        "label": "settlementFee",
        "offset": 0,
        "slot": "4",
        "type": "t_uint256"
      },
      {
        "astId": 7927,
        "contract": "contracts/turbo/CryptoMarketFactory.sol:CryptoMarketFactory",
        "label": "protocolFee",
        "offset": 0,
        "slot": "5",
        "type": "t_uint256"
      },
      {
        "astId": 7929,
        "contract": "contracts/turbo/CryptoMarketFactory.sol:CryptoMarketFactory",
        "label": "protocol",
        "offset": 0,
        "slot": "6",
        "type": "t_address"
      },
      {
        "astId": 7932,
        "contract": "contracts/turbo/CryptoMarketFactory.sol:CryptoMarketFactory",
        "label": "accumulatedProtocolFee",
        "offset": 0,
        "slot": "7",
        "type": "t_uint256"
      },
      {
        "astId": 7936,
        "contract": "contracts/turbo/CryptoMarketFactory.sol:CryptoMarketFactory",
        "label": "accumulatedSettlementFees",
        "offset": 0,
        "slot": "8",
        "type": "t_mapping(t_address,t_uint256)"
      },
      {
        "astId": 7938,
        "contract": "contracts/turbo/CryptoMarketFactory.sol:CryptoMarketFactory",
        "label": "shareFactor",
        "offset": 0,
        "slot": "9",
        "type": "t_uint256"
      },
      {
        "astId": 7959,
        "contract": "contracts/turbo/CryptoMarketFactory.sol:CryptoMarketFactory",
        "label": "markets",
        "offset": 0,
        "slot": "10",
        "type": "t_array(t_struct(Market)7956_storage)dyn_storage"
      },
      {
        "astId": 8859,
        "contract": "contracts/turbo/CryptoMarketFactory.sol:CryptoMarketFactory",
        "label": "coins",
        "offset": 0,
        "slot": "11",
        "type": "t_array(t_struct(Coin)8856_storage)dyn_storage"
      },
      {
        "astId": 8875,
        "contract": "contracts/turbo/CryptoMarketFactory.sol:CryptoMarketFactory",
        "label": "marketDetails",
        "offset": 0,
        "slot": "12",
        "type": "t_mapping(t_uint256,t_struct(MarketDetails)8871_storage)"
      },
      {
        "astId": 8877,
        "contract": "contracts/turbo/CryptoMarketFactory.sol:CryptoMarketFactory",
        "label": "linkNode",
        "offset": 0,
        "slot": "13",
        "type": "t_address"
      },
      {
        "astId": 8879,
        "contract": "contracts/turbo/CryptoMarketFactory.sol:CryptoMarketFactory",
        "label": "cadence",
        "offset": 0,
        "slot": "14",
        "type": "t_uint256"
      },
      {
        "astId": 8881,
        "contract": "contracts/turbo/CryptoMarketFactory.sol:CryptoMarketFactory",
        "label": "firstResolutionTime",
        "offset": 0,
        "slot": "15",
        "type": "t_uint256"
      },
      {
        "astId": 8883,
        "contract": "contracts/turbo/CryptoMarketFactory.sol:CryptoMarketFactory",
        "label": "nextResolutionTime",
        "offset": 0,
        "slot": "16",
        "type": "t_uint256"
      }
    ],
    "types": {
      "t_address": {
        "encoding": "inplace",
        "label": "address",
        "numberOfBytes": "20"
      },
      "t_array(t_contract(OwnedERC20)11336)dyn_storage": {
        "base": "t_contract(OwnedERC20)11336",
        "encoding": "dynamic_array",
        "label": "contract OwnedERC20[]",
        "numberOfBytes": "32"
      },
      "t_array(t_struct(Coin)8856_storage)dyn_storage": {
        "base": "t_struct(Coin)8856_storage",
        "encoding": "dynamic_array",
        "label": "struct CryptoMarketFactory.Coin[]",
        "numberOfBytes": "32"
      },
      "t_array(t_struct(Market)7956_storage)dyn_storage": {
        "base": "t_struct(Market)7956_storage",
        "encoding": "dynamic_array",
        "label": "struct AbstractMarketFactory.Market[]",
        "numberOfBytes": "32"
      },
      "t_array(t_uint256)1_storage": {
        "base": "t_uint256",
        "encoding": "inplace",
        "label": "uint256[1]",
        "numberOfBytes": "32"
      },
      "t_contract(AggregatorV3Interface)45": {
        "encoding": "inplace",
        "label": "contract AggregatorV3Interface",
        "numberOfBytes": "20"
      },
      "t_contract(FeePot)9813": {
        "encoding": "inplace",
        "label": "contract FeePot",
        "numberOfBytes": "20"
      },
      "t_contract(IERC20Full)5374": {
        "encoding": "inplace",
        "label": "contract IERC20Full",
        "numberOfBytes": "20"
      },
      "t_contract(OwnedERC20)11336": {
        "encoding": "inplace",
        "label": "contract OwnedERC20",
        "numberOfBytes": "20"
      },
      "t_enum(MarketType)8861": {
        "encoding": "inplace",
        "label": "enum CryptoMarketFactory.MarketType",
        "numberOfBytes": "1"
      },
      "t_mapping(t_address,t_uint256)": {
        "encoding": "mapping",
        "key": "t_address",
        "label": "mapping(address => uint256)",
        "numberOfBytes": "32",
        "value": "t_uint256"
      },
      "t_mapping(t_uint256,t_struct(MarketDetails)8871_storage)": {
        "encoding": "mapping",
        "key": "t_uint256",
        "label": "mapping(uint256 => struct CryptoMarketFactory.MarketDetails)",
        "numberOfBytes": "32",
        "value": "t_struct(MarketDetails)8871_storage"
      },
      "t_string_storage": {
        "encoding": "bytes",
        "label": "string",
        "numberOfBytes": "32"
      },
      "t_struct(Coin)8856_storage": {
        "encoding": "inplace",
        "label": "struct CryptoMarketFactory.Coin",
        "members": [
          {
            "astId": 8847,
            "contract": "contracts/turbo/CryptoMarketFactory.sol:CryptoMarketFactory",
            "label": "name",
            "offset": 0,
            "slot": "0",
            "type": "t_string_storage"
          },
          {
            "astId": 8849,
            "contract": "contracts/turbo/CryptoMarketFactory.sol:CryptoMarketFactory",
            "label": "priceFeed",
            "offset": 0,
            "slot": "1",
            "type": "t_contract(AggregatorV3Interface)45"
          },
          {
            "astId": 8851,
            "contract": "contracts/turbo/CryptoMarketFactory.sol:CryptoMarketFactory",
            "label": "price",
            "offset": 0,
            "slot": "2",
            "type": "t_uint256"
          },
          {
            "astId": 8855,
            "contract": "contracts/turbo/CryptoMarketFactory.sol:CryptoMarketFactory",
            "label": "currentMarkets",
            "offset": 0,
            "slot": "3",
            "type": "t_array(t_uint256)1_storage"
          }
        ],
        "numberOfBytes": "128"
      },
      "t_struct(Market)7956_storage": {
        "encoding": "inplace",
        "label": "struct AbstractMarketFactory.Market",
        "members": [
          {
            "astId": 7940,
            "contract": "contracts/turbo/CryptoMarketFactory.sol:CryptoMarketFactory",
            "label": "settlementAddress",
            "offset": 0,
            "slot": "0",
            "type": "t_address"
          },
          {
            "astId": 7943,
            "contract": "contracts/turbo/CryptoMarketFactory.sol:CryptoMarketFactory",
            "label": "shareTokens",
            "offset": 0,
            "slot": "1",
            "type": "t_array(t_contract(OwnedERC20)11336)dyn_storage"
          },
          {
            "astId": 7945,
            "contract": "contracts/turbo/CryptoMarketFactory.sol:CryptoMarketFactory",
            "label": "endTime",
            "offset": 0,
            "slot": "2",
            "type": "t_uint256"
          },
          {
            "astId": 7947,
            "contract": "contracts/turbo/CryptoMarketFactory.sol:CryptoMarketFactory",
            "label": "winner",
            "offset": 0,
            "slot": "3",
            "type": "t_contract(OwnedERC20)11336"
          },
          {
            "astId": 7949,
            "contract": "contracts/turbo/CryptoMarketFactory.sol:CryptoMarketFactory",
            "label": "settlementFee",
            "offset": 0,
            "slot": "4",
            "type": "t_uint256"
          },
          {
            "astId": 7951,
            "contract": "contracts/turbo/CryptoMarketFactory.sol:CryptoMarketFactory",
            "label": "protocolFee",
            "offset": 0,
            "slot": "5",
            "type": "t_uint256"
          },
          {
            "astId": 7953,
            "contract": "contracts/turbo/CryptoMarketFactory.sol:CryptoMarketFactory",
            "label": "stakerFee",
            "offset": 0,
            "slot": "6",
            "type": "t_uint256"
          },
          {
            "astId": 7955,
            "contract": "contracts/turbo/CryptoMarketFactory.sol:CryptoMarketFactory",
            "label": "creationTimestamp",
            "offset": 0,
            "slot": "7",
            "type": "t_uint256"
          }
        ],
        "numberOfBytes": "256"
      },
      "t_struct(MarketDetails)8871_storage": {
        "encoding": "inplace",
        "label": "struct CryptoMarketFactory.MarketDetails",
        "members": [
          {
            "astId": 8866,
            "contract": "contracts/turbo/CryptoMarketFactory.sol:CryptoMarketFactory",
            "label": "marketType",
            "offset": 0,
            "slot": "0",
            "type": "t_enum(MarketType)8861"
          },
          {
            "astId": 8868,
            "contract": "contracts/turbo/CryptoMarketFactory.sol:CryptoMarketFactory",
            "label": "coinIndex",
            "offset": 0,
            "slot": "1",
            "type": "t_uint256"
          },
          {
            "astId": 8870,
            "contract": "contracts/turbo/CryptoMarketFactory.sol:CryptoMarketFactory",
            "label": "price",
            "offset": 0,
            "slot": "2",
            "type": "t_uint256"
          }
        ],
        "numberOfBytes": "96"
      },
      "t_uint256": {
        "encoding": "inplace",
        "label": "uint256",
        "numberOfBytes": "32"
      }
    }
  }
}