{
  "address": "0xFBFeDa976aA69E8992Febd408E45E08b83619E80",
  "abi": [
    {
      "inputs": [],
      "name": "BONE",
      "outputs": [
        {
          "internalType": "uint256",
          "name": "",
          "type": "uint256"
        }
      ],
      "stateMutability": "view",
      "type": "function"
    },
    {
      "inputs": [],
      "name": "BPOW_PRECISION",
      "outputs": [
        {
          "internalType": "uint256",
          "name": "",
          "type": "uint256"
        }
      ],
      "stateMutability": "view",
      "type": "function"
    },
    {
      "inputs": [],
      "name": "EXIT_FEE",
      "outputs": [
        {
          "internalType": "uint256",
          "name": "",
          "type": "uint256"
        }
      ],
      "stateMutability": "view",
      "type": "function"
    },
    {
      "inputs": [],
      "name": "INIT_POOL_SUPPLY",
      "outputs": [
        {
          "internalType": "uint256",
          "name": "",
          "type": "uint256"
        }
      ],
      "stateMutability": "view",
      "type": "function"
    },
    {
      "inputs": [],
      "name": "MAX_BOUND_TOKENS",
      "outputs": [
        {
          "internalType": "uint256",
          "name": "",
          "type": "uint256"
        }
      ],
      "stateMutability": "view",
      "type": "function"
    },
    {
      "inputs": [],
      "name": "MAX_BPOW_BASE",
      "outputs": [
        {
          "internalType": "uint256",
          "name": "",
          "type": "uint256"
        }
      ],
      "stateMutability": "view",
      "type": "function"
    },
    {
      "inputs": [],
      "name": "MAX_FEE",
      "outputs": [
        {
          "internalType": "uint256",
          "name": "",
          "type": "uint256"
        }
      ],
      "stateMutability": "view",
      "type": "function"
    },
    {
      "inputs": [],
      "name": "MAX_IN_RATIO",
      "outputs": [
        {
          "internalType": "uint256",
          "name": "",
          "type": "uint256"
        }
      ],
      "stateMutability": "view",
      "type": "function"
    },
    {
      "inputs": [],
      "name": "MAX_OUT_RATIO",
      "outputs": [
        {
          "internalType": "uint256",
          "name": "",
          "type": "uint256"
        }
      ],
      "stateMutability": "view",
      "type": "function"
    },
    {
      "inputs": [],
      "name": "MAX_TOTAL_WEIGHT",
      "outputs": [
        {
          "internalType": "uint256",
          "name": "",
          "type": "uint256"
        }
      ],
      "stateMutability": "view",
      "type": "function"
    },
    {
      "inputs": [],
      "name": "MAX_WEIGHT",
      "outputs": [
        {
          "internalType": "uint256",
          "name": "",
          "type": "uint256"
        }
      ],
      "stateMutability": "view",
      "type": "function"
    },
    {
      "inputs": [],
      "name": "MIN_BALANCE",
      "outputs": [
        {
          "internalType": "uint256",
          "name": "",
          "type": "uint256"
        }
      ],
      "stateMutability": "view",
      "type": "function"
    },
    {
      "inputs": [],
      "name": "MIN_BOUND_TOKENS",
      "outputs": [
        {
          "internalType": "uint256",
          "name": "",
          "type": "uint256"
        }
      ],
      "stateMutability": "view",
      "type": "function"
    },
    {
      "inputs": [],
      "name": "MIN_BPOW_BASE",
      "outputs": [
        {
          "internalType": "uint256",
          "name": "",
          "type": "uint256"
        }
      ],
      "stateMutability": "view",
      "type": "function"
    },
    {
      "inputs": [],
      "name": "MIN_FEE",
      "outputs": [
        {
          "internalType": "uint256",
          "name": "",
          "type": "uint256"
        }
      ],
      "stateMutability": "view",
      "type": "function"
    },
    {
      "inputs": [],
      "name": "MIN_WEIGHT",
      "outputs": [
        {
          "internalType": "uint256",
          "name": "",
          "type": "uint256"
        }
      ],
      "stateMutability": "view",
      "type": "function"
    },
    {
      "inputs": [
        {
          "internalType": "contract AbstractMarketFactoryV3",
          "name": "_marketFactory",
          "type": "address"
        },
        {
          "internalType": "uint256",
          "name": "_marketId",
          "type": "uint256"
        },
        {
          "internalType": "contract BPool",
          "name": "_bPool",
          "type": "address"
        },
        {
          "internalType": "uint256",
          "name": "_maxOutcome",
          "type": "uint256"
        },
        {
          "internalType": "uint256",
          "name": "_maxCollateralIn",
          "type": "uint256"
        }
      ],
      "name": "bringTokenBalanceToMatchOtherToken",
      "outputs": [],
      "stateMutability": "nonpayable",
      "type": "function"
    },
    {
      "inputs": [],
      "name": "getColor",
      "outputs": [
        {
          "internalType": "bytes32",
          "name": "",
          "type": "bytes32"
        }
      ],
      "stateMutability": "pure",
      "type": "function"
    }
  ],
  "transactionHash": "0x985fa7bf435864b88a04ed15aab9a08bff4da0632f93c195c7008609062744db",
  "args": [],
  "solcInputHash": "77c34d1d047cb4ddd2967107ed20b5a3",
  "bytecode": "0x608060405234801561001057600080fd5b50611286806100206000396000f3fe608060405234801561001057600080fd5b50600436106101165760003560e01c8063b0e0d136116100a2578063bc694ea211610071578063bc694ea2146101a6578063c36596a614610141578063c6580d12146101ae578063e4a28a521461011b578063ec093021146101b657610116565b8063b0e0d13614610186578063b7b800a41461018e578063ba019dab14610196578063bc063e1a1461019e57610116565b806376c7a3c7116100e957806376c7a3c71461015e578063867378c5146101665780639381cd2b1461016e578063992e2a92146101765780639a86139b1461017e57610116565b806309a3bbe41461011b578063189d00ca14610139578063218b53821461014157806332f6589614610149575b600080fd5b6101236101be565b6040516101309190611159565b60405180910390f35b6101236101cb565b6101236101df565b61015c610157366004610f58565b6101eb565b005b610123610ce3565b610123610cf5565b610123610d09565b610123610d16565b610123610d22565b610123610d2f565b610123610d34565b610123610d39565b610123610d3e565b610123610d4e565b610123610d5a565b610123610d5f565b6802b5e3af16b188000081565b6402540be400670de0b6b3a76400005b0481565b670de0b6b3a764000081565b6000856001600160a01b031663d8dfeb456040518163ffffffff1660e01b815260040160206040518083038186803b15801561022657600080fd5b505afa15801561023a573d6000803e3d6000fd5b505050506040513d601f19601f8201168201806040525081019061025e9190610fa9565b6040516323b872dd60e01b81529091506001600160a01b038216906323b872dd90610291903390309087906004016110fb565b602060405180830381600087803b1580156102ab57600080fd5b505af11580156102bf573d6000803e3d6000fd5b505050506040513d601f19601f820116820180604052508101906102e39190610f37565b5060405163095ea7b360e01b81526001600160a01b0382169063095ea7b390610312908990869060040161111f565b602060405180830381600087803b15801561032c57600080fd5b505af1158015610340573d6000803e3d6000fd5b505050506040513d601f19601f820116820180604052508101906103649190610f37565b5060405163eb44fdd360e01b81526000906001600160a01b0388169063eb44fdd390610394908990600401611159565b60006040518083038186803b1580156103ac57600080fd5b505afa1580156103c0573d6000803e3d6000fd5b505050506040513d6000823e601f3d908101601f191682016040526103e89190810190610fc5565b90506000876001600160a01b031663cc87adea856040518263ffffffff1660e01b81526004016104189190611159565b60206040518083038186803b15801561043057600080fd5b505afa158015610444573d6000803e3d6000fd5b505050506040513d601f19601f8201168201806040525081019061046891906110cf565b60405163221fff8160e01b81529091506001600160a01b0389169063221fff819061049b908a90859030906004016111d7565b600060405180830381600087803b1580156104b557600080fd5b505af11580156104c9573d6000803e3d6000fd5b50505050600080876001600160a01b031663f8b2cb4f856020015189815181106104ef57fe5b60200260200101516040518263ffffffff1660e01b815260040161051391906110e7565b60206040518083038186803b15801561052b57600080fd5b505afa15801561053f573d6000803e3d6000fd5b505050506040513d601f19601f8201168201806040525081019061056391906110cf565b905060005b846020015151811015610820578781141561058257610818565b60008560200151828151811061059457fe5b602002602001015190506000819050600061062b8c6001600160a01b031663f8b2cb4f846040518263ffffffff1660e01b81526004016105d491906110e7565b60206040518083038186803b1580156105ec57600080fd5b505afa158015610600573d6000803e3d6000fd5b505050506040513d601f19601f8201168201806040525081019061062491906110cf565b8690610d6f565b60405163095ea7b360e01b81529091506001600160a01b0384169063095ea7b39061065c908f90859060040161111f565b602060405180830381600087803b15801561067657600080fd5b505af115801561068a573d6000803e3d6000fd5b505050506040513d601f19601f820116820180604052508101906106ae9190610f37565b50808710156106d85760405162461bcd60e51b81526004016106cf90611162565b60405180910390fd5b801561081457600061076d8d6001600160a01b031663f8b2cb4f856040518263ffffffff1660e01b815260040161070f91906110e7565b60206040518083038186803b15801561072757600080fd5b505afa15801561073b573d6000803e3d6000fd5b505050506040513d601f19601f8201168201806040525081019061075f91906110cf565b6706f05b59d3b20000610d84565b90508181811061077a5750805b604051635db3427760e01b81526001600160a01b038f1690635db34277906107ab9087908590600090600401611138565b602060405180830381600087803b1580156107c557600080fd5b505af11580156107d9573d6000803e3d6000fd5b505050506040513d601f19601f820116820180604052508101906107fd91906110cf565b9097019661080b8382610d6f565b925050506106d8565b5050505b600101610568565b50600084602001515167ffffffffffffffff8111801561083f57600080fd5b50604051908082528060200260200182016040528015610869578160200160208202803683370190505b5060405163b02f0b7360e01b81529091506001600160a01b038a169063b02f0b739061089b9086908590600401611197565b600060405180830381600087803b1580156108b557600080fd5b505af11580156108c9573d6000803e3d6000fd5b50600019925060009150505b866020015151811015610a1a57866020015181815181106108f257fe5b60200260200101516001600160a01b03166370a08231306040518263ffffffff1660e01b815260040161092591906110e7565b60206040518083038186803b15801561093d57600080fd5b505afa158015610951573d6000803e3d6000fd5b505050506040513d601f19601f8201168201806040525081019061097591906110cf565b821115610a12578660200151818151811061098c57fe5b60200260200101516001600160a01b03166370a08231306040518263ffffffff1660e01b81526004016109bf91906110e7565b60206040518083038186803b1580156109d757600080fd5b505afa1580156109eb573d6000803e3d6000fd5b505050506040513d601f19601f82011682018060405250810190610a0f91906110cf565b91505b6001016108d5565b508b6001600160a01b0316637641ab016040518163ffffffff1660e01b815260040160206040518083038186803b158015610a5457600080fd5b505afa158015610a68573d6000803e3d6000fd5b505050506040513d601f19601f82011682018060405250810190610a8c91906110cf565b8c6001600160a01b0316637641ab016040518163ffffffff1660e01b815260040160206040518083038186803b158015610ac557600080fd5b505afa158015610ad9573d6000803e3d6000fd5b505050506040513d601f19601f82011682018060405250810190610afd91906110cf565b8281610b0557fe5b040290508b6001600160a01b03166335a9cdad8c83336040518463ffffffff1660e01b8152600401610b39939291906111d7565b602060405180830381600087803b158015610b5357600080fd5b505af1158015610b67573d6000803e3d6000fd5b505050506040513d601f19601f82011682018060405250810190610b8b91906110cf565b5060005b866020015151811015610cd457600087602001518281518110610bae57fe5b60200260200101516001600160a01b03166370a08231306040518263ffffffff1660e01b8152600401610be191906110e7565b60206040518083038186803b158015610bf957600080fd5b505afa158015610c0d573d6000803e3d6000fd5b505050506040513d601f19601f82011682018060405250810190610c3191906110cf565b905087602001518281518110610c4357fe5b60200260200101516001600160a01b031663a9059cbb33836040518363ffffffff1660e01b8152600401610c7892919061111f565b602060405180830381600087803b158015610c9257600080fd5b505af1158015610ca6573d6000803e3d6000fd5b505050506040513d601f19601f82011682018060405250810190610cca9190610f37565b5050600101610b8f565b50505050505050505050505050565b620f4240670de0b6b3a76400006101db565b64e8d4a51000670de0b6b3a76400006101db565b68056bc75e2d6310000081565b6704a03ce68d21555681565b6542524f4e5a4560d01b90565b600881565b600281565b600181565b600a670de0b6b3a76400006101db565b671bc16d674ec7ffff81565b600081565b6002670de0b6b3a76400006101db565b600082821115610d7e57600080fd5b50900390565b6000828202831580610d9e575082848281610d9b57fe5b04145b610de2576040805162461bcd60e51b815260206004820152601060248201526f4552525f4d554c5f4f564552464c4f5760801b604482015290519081900360640190fd5b6706f05b59d3b20000810181811015610e35576040805162461bcd60e51b815260206004820152601060248201526f4552525f4d554c5f4f564552464c4f5760801b604482015290519081900360640190fd5b670de0b6b3a76400009004949350505050565b8051610e5381611238565b919050565b600082601f830112610e68578081fd5b81516020610e7d610e788361121a565b6111f6565b8281528181019085830183850287018401881015610e99578586fd5b855b85811015610ec0578151610eae81611238565b84529284019290840190600101610e9b565b5090979650505050505050565b600082601f830112610edd578081fd5b81516020610eed610e788361121a565b8281528181019085830183850287018401881015610f09578586fd5b855b85811015610ec057815184529284019290840190600101610f0b565b80518015158114610e5357600080fd5b600060208284031215610f48578081fd5b610f5182610f27565b9392505050565b600080600080600060a08688031215610f6f578081fd5b8535610f7a81611238565b9450602086013593506040860135610f9181611238565b94979396509394606081013594506080013592915050565b600060208284031215610fba578081fd5b8151610f5181611238565b600060208284031215610fd6578081fd5b815167ffffffffffffffff80821115610fed578283fd5b8184019150610160808387031215611003578384fd5b61100c816111f6565b905061101783610e48565b815260208301518281111561102a578485fd5b61103687828601610e58565b60208301525061104860408401610e48565b6040820152606083015160608201526080830151608082015260a083015160a082015260c083015160c082015260e083015160e0820152610100808401518183015250610120808401518381111561109e578586fd5b6110aa88828701610ecd565b82840152505061014091506110c0828401610f27565b91810191909152949350505050565b6000602082840312156110e0578081fd5b5051919050565b6001600160a01b0391909116815260200190565b6001600160a01b039384168152919092166020820152604081019190915260600190565b6001600160a01b03929092168252602082015260400190565b6001600160a01b039390931683526020830191909152604082015260600190565b90815260200190565b6020808252818101527f5f6d6178436f6c6c61746572616c496e20697320696e73756666696369656e74604082015260600190565b60006040820184835260206040818501528185518084526060860191508287019350845b81811015610ec0578451835293830193918301916001016111bb565b92835260208301919091526001600160a01b0316604082015260600190565b60405181810167ffffffffffffffff8111828210171561121257fe5b604052919050565b600067ffffffffffffffff82111561122e57fe5b5060209081020190565b6001600160a01b038116811461124d57600080fd5b5056fea264697066735822122055212dcbc621919d9814c1d2b59b5e04feed96aa15e063f734bbb75814acd0f364736f6c63430007060033",
  "devdoc": {
    "kind": "dev",
    "methods": {},
    "version": 1
  },
  "userdoc": {
    "kind": "user",
    "methods": {},
    "version": 1
  },
  "storageLayout": {
    "storage": [],
    "types": null
  }
}