{
  "address": "0x1BCc8b46EC489bBEdf2CCe11B2DA6dB993ebC003",
  "abi": [
    {
      "inputs": [
        {
          "internalType": "address",
          "name": "_owner",
          "type": "address"
        },
        {
          "internalType": "contract IERC20Full",
          "name": "_collateral",
          "type": "address"
        },
        {
          "internalType": "uint256",
          "name": "_shareFactor",
          "type": "uint256"
        },
        {
          "internalType": "contract FeePot",
          "name": "_feePot",
          "type": "address"
        },
        {
          "internalType": "uint256[3]",
          "name": "_fees",
          "type": "uint256[3]"
        },
        {
          "internalType": "address",
          "name": "_protocol",
          "type": "address"
        },
        {
          "internalType": "address",
          "name": "_linkNode",
          "type": "address"
        }
      ],
      "stateMutability": "nonpayable",
      "type": "constructor"
    },
    {
      "anonymous": false,
      "inputs": [
        {
          "indexed": true,
          "internalType": "uint256",
          "name": "id",
          "type": "uint256"
        },
        {
          "indexed": false,
          "internalType": "uint256",
          "name": "endTime",
          "type": "uint256"
        },
        {
          "indexed": false,
          "internalType": "uint256",
          "name": "invalidMarketId",
          "type": "uint256"
        },
        {
          "indexed": false,
          "internalType": "string",
          "name": "invalidMarketName",
          "type": "string"
        }
      ],
      "name": "GroupCreated",
      "type": "event"
    },
    {
      "anonymous": false,
      "inputs": [
        {
          "indexed": true,
          "internalType": "uint256",
          "name": "groupId",
          "type": "uint256"
        },
        {
          "indexed": false,
          "internalType": "uint256",
          "name": "winningMarketIndex",
          "type": "uint256"
        }
      ],
      "name": "GroupFinalizing",
      "type": "event"
    },
    {
      "anonymous": false,
      "inputs": [
        {
          "indexed": true,
          "internalType": "uint256",
          "name": "groupId",
          "type": "uint256"
        },
        {
          "indexed": false,
          "internalType": "uint256",
          "name": "marketId",
          "type": "uint256"
        },
        {
          "indexed": false,
          "internalType": "string",
          "name": "marketName",
          "type": "string"
        }
      ],
      "name": "GroupMarketAdded",
      "type": "event"
    },
    {
      "anonymous": false,
      "inputs": [
        {
          "indexed": true,
          "internalType": "uint256",
          "name": "id",
          "type": "uint256"
        },
        {
          "indexed": false,
          "internalType": "bool",
          "name": "valid",
          "type": "bool"
        }
      ],
      "name": "GroupResolved",
      "type": "event"
    },
    {
      "anonymous": false,
      "inputs": [
        {
          "indexed": false,
          "internalType": "address",
          "name": "newLinkNode",
          "type": "address"
        }
      ],
      "name": "LinkNodeChanged",
      "type": "event"
    },
    {
      "anonymous": false,
      "inputs": [
        {
          "indexed": false,
          "internalType": "uint256",
          "name": "id",
          "type": "uint256"
        }
      ],
      "name": "MarketActivated",
      "type": "event"
    },
    {
      "anonymous": false,
      "inputs": [
        {
          "indexed": false,
          "internalType": "uint256",
          "name": "id",
          "type": "uint256"
        },
        {
          "indexed": false,
          "internalType": "string[]",
          "name": "names",
          "type": "string[]"
        },
        {
          "indexed": false,
          "internalType": "uint256[]",
          "name": "initialOdds",
          "type": "uint256[]"
        }
      ],
      "name": "MarketCreated",
      "type": "event"
    },
    {
      "anonymous": false,
      "inputs": [
        {
          "indexed": false,
          "internalType": "uint256",
          "name": "id",
          "type": "uint256"
        },
        {
          "indexed": false,
          "internalType": "address",
          "name": "winner",
          "type": "address"
        },
        {
          "indexed": false,
          "internalType": "uint256",
          "name": "winnerIndex",
          "type": "uint256"
        },
        {
          "indexed": false,
          "internalType": "string",
          "name": "winnerName",
          "type": "string"
        }
      ],
      "name": "MarketResolved",
      "type": "event"
    },
    {
      "anonymous": false,
      "inputs": [
        {
          "indexed": false,
          "internalType": "uint256",
          "name": "id",
          "type": "uint256"
        },
        {
          "indexed": false,
          "internalType": "uint256",
          "name": "amount",
          "type": "uint256"
        },
        {
          "indexed": false,
          "internalType": "address",
          "name": "receiver",
          "type": "address"
        }
      ],
      "name": "SharesBurned",
      "type": "event"
    },
    {
      "anonymous": false,
      "inputs": [
        {
          "indexed": false,
          "internalType": "uint256",
          "name": "id",
          "type": "uint256"
        },
        {
          "indexed": false,
          "internalType": "uint256",
          "name": "amount",
          "type": "uint256"
        },
        {
          "indexed": false,
          "internalType": "address",
          "name": "receiver",
          "type": "address"
        }
      ],
      "name": "SharesMinted",
      "type": "event"
    },
    {
      "anonymous": false,
      "inputs": [
        {
          "indexed": false,
          "internalType": "uint256",
          "name": "id",
          "type": "uint256"
        },
        {
          "indexed": false,
          "internalType": "address",
          "name": "winningOutcome",
          "type": "address"
        },
        {
          "indexed": false,
          "internalType": "uint256",
          "name": "winningIndex",
          "type": "uint256"
        },
        {
          "indexed": false,
          "internalType": "string",
          "name": "winningName",
          "type": "string"
        },
        {
          "indexed": false,
          "internalType": "uint256",
          "name": "amount",
          "type": "uint256"
        },
        {
          "indexed": false,
          "internalType": "uint256",
          "name": "settlementFee",
          "type": "uint256"
        },
        {
          "indexed": false,
          "internalType": "uint256",
          "name": "payout",
          "type": "uint256"
        },
        {
          "indexed": true,
          "internalType": "address",
          "name": "receiver",
          "type": "address"
        }
      ],
      "name": "WinningsClaimed",
      "type": "event"
    },
    {
      "inputs": [],
      "name": "accumulatedProtocolFee",
      "outputs": [
        {
          "internalType": "uint256",
          "name": "",
          "type": "uint256"
        }
      ],
      "stateMutability": "view",
      "type": "function"
    },
    {
      "inputs": [
        {
          "internalType": "address",
          "name": "",
          "type": "address"
        }
      ],
      "name": "accumulatedSettlementFees",
      "outputs": [
        {
          "internalType": "uint256",
          "name": "",
          "type": "uint256"
        }
      ],
      "stateMutability": "view",
      "type": "function"
    },
    {
      "inputs": [
        {
          "internalType": "uint256",
          "name": "_groupId",
          "type": "uint256"
        },
        {
          "internalType": "string[]",
          "name": "_marketNames",
          "type": "string[]"
        },
        {
          "internalType": "uint256[][]",
          "name": "_odds",
          "type": "uint256[][]"
        }
      ],
      "name": "addOutcomesToGroup",
      "outputs": [],
      "stateMutability": "nonpayable",
      "type": "function"
    },
    {
      "inputs": [
        {
          "internalType": "uint256",
          "name": "_groupId",
          "type": "uint256"
        },
        {
          "internalType": "uint256",
          "name": "_winningMarketIndex",
          "type": "uint256"
        }
      ],
      "name": "beginResolvingGroup",
      "outputs": [],
      "stateMutability": "nonpayable",
      "type": "function"
    },
    {
      "inputs": [
        {
          "internalType": "uint256",
          "name": "_id",
          "type": "uint256"
        },
        {
          "internalType": "uint256",
          "name": "_sharesToBurn",
          "type": "uint256"
        },
        {
          "internalType": "address",
          "name": "_receiver",
          "type": "address"
        }
      ],
      "name": "burnShares",
      "outputs": [
        {
          "internalType": "uint256",
          "name": "",
          "type": "uint256"
        }
      ],
      "stateMutability": "nonpayable",
      "type": "function"
    },
    {
      "inputs": [
        {
          "internalType": "uint256",
          "name": "_shares",
          "type": "uint256"
        }
      ],
      "name": "calcCost",
      "outputs": [
        {
          "internalType": "uint256",
          "name": "",
          "type": "uint256"
        }
      ],
      "stateMutability": "view",
      "type": "function"
    },
    {
      "inputs": [
        {
          "internalType": "uint256",
          "name": "_collateralIn",
          "type": "uint256"
        }
      ],
      "name": "calcShares",
      "outputs": [
        {
          "internalType": "uint256",
          "name": "",
          "type": "uint256"
        }
      ],
      "stateMutability": "view",
      "type": "function"
    },
    {
      "inputs": [
        {
          "internalType": "uint256[]",
          "name": "_ids",
          "type": "uint256[]"
        },
        {
          "internalType": "address",
          "name": "_receiver",
          "type": "address"
        }
      ],
      "name": "claimManyWinnings",
      "outputs": [
        {
          "internalType": "uint256",
          "name": "",
          "type": "uint256"
        }
      ],
      "stateMutability": "nonpayable",
      "type": "function"
    },
    {
      "inputs": [],
      "name": "claimProtocolFees",
      "outputs": [
        {
          "internalType": "uint256",
          "name": "",
          "type": "uint256"
        }
      ],
      "stateMutability": "nonpayable",
      "type": "function"
    },
    {
      "inputs": [
        {
          "internalType": "address",
          "name": "_receiver",
          "type": "address"
        }
      ],
      "name": "claimSettlementFees",
      "outputs": [
        {
          "internalType": "uint256",
          "name": "",
          "type": "uint256"
        }
      ],
      "stateMutability": "nonpayable",
      "type": "function"
    },
    {
      "inputs": [
        {
          "internalType": "uint256",
          "name": "_id",
          "type": "uint256"
        },
        {
          "internalType": "address",
          "name": "_receiver",
          "type": "address"
        }
      ],
      "name": "claimWinnings",
      "outputs": [
        {
          "internalType": "uint256",
          "name": "",
          "type": "uint256"
        }
      ],
      "stateMutability": "nonpayable",
      "type": "function"
    },
    {
      "inputs": [],
      "name": "collateral",
      "outputs": [
        {
          "internalType": "contract IERC20Full",
          "name": "",
          "type": "address"
        }
      ],
      "stateMutability": "view",
      "type": "function"
    },
    {
      "inputs": [],
      "name": "feePot",
      "outputs": [
        {
          "internalType": "contract FeePot",
          "name": "",
          "type": "address"
        }
      ],
      "stateMutability": "view",
      "type": "function"
    },
    {
      "inputs": [
        {
          "internalType": "uint256",
          "name": "_groupId",
          "type": "uint256"
        }
      ],
      "name": "finalizeGroup",
      "outputs": [],
      "stateMutability": "nonpayable",
      "type": "function"
    },
    {
      "inputs": [
        {
          "internalType": "uint256",
          "name": "_groupId",
          "type": "uint256"
        }
      ],
      "name": "getGroup",
      "outputs": [
        {
          "components": [
            {
              "internalType": "enum Grouped.GroupStatus",
              "name": "status",
              "type": "uint8"
            },
            {
              "internalType": "string",
              "name": "name",
              "type": "string"
            },
            {
              "internalType": "uint256[]",
              "name": "markets",
              "type": "uint256[]"
            },
            {
              "internalType": "string[]",
              "name": "marketNames",
              "type": "string[]"
            },
            {
              "internalType": "uint256",
              "name": "invalidMarket",
              "type": "uint256"
            },
            {
              "internalType": "string",
              "name": "invalidMarketName",
              "type": "string"
            },
            {
              "internalType": "uint256",
              "name": "endTime",
              "type": "uint256"
            },
            {
              "internalType": "string",
              "name": "category",
              "type": "string"
            },
            {
              "internalType": "uint256",
              "name": "winningMarketIndex",
              "type": "uint256"
            }
          ],
          "internalType": "struct Grouped.MarketGroup",
          "name": "",
          "type": "tuple"
        }
      ],
      "stateMutability": "view",
      "type": "function"
    },
    {
      "inputs": [
        {
          "internalType": "uint256",
          "name": "_index",
          "type": "uint256"
        }
      ],
      "name": "getGroupByIndex",
      "outputs": [
        {
          "components": [
            {
              "internalType": "enum Grouped.GroupStatus",
              "name": "status",
              "type": "uint8"
            },
            {
              "internalType": "string",
              "name": "name",
              "type": "string"
            },
            {
              "internalType": "uint256[]",
              "name": "markets",
              "type": "uint256[]"
            },
            {
              "internalType": "string[]",
              "name": "marketNames",
              "type": "string[]"
            },
            {
              "internalType": "uint256",
              "name": "invalidMarket",
              "type": "uint256"
            },
            {
              "internalType": "string",
              "name": "invalidMarketName",
              "type": "string"
            },
            {
              "internalType": "uint256",
              "name": "endTime",
              "type": "uint256"
            },
            {
              "internalType": "string",
              "name": "category",
              "type": "string"
            },
            {
              "internalType": "uint256",
              "name": "winningMarketIndex",
              "type": "uint256"
            }
          ],
          "internalType": "struct Grouped.MarketGroup",
          "name": "_group",
          "type": "tuple"
        },
        {
          "internalType": "uint256",
          "name": "_groupId",
          "type": "uint256"
        }
      ],
      "stateMutability": "view",
      "type": "function"
    },
    {
      "inputs": [
        {
          "internalType": "uint256",
          "name": "_id",
          "type": "uint256"
        }
      ],
      "name": "getMarket",
      "outputs": [
        {
          "components": [
            {
              "internalType": "address",
              "name": "settlementAddress",
              "type": "address"
            },
            {
              "internalType": "contract OwnedERC20[]",
              "name": "shareTokens",
              "type": "address[]"
            },
            {
              "internalType": "contract OwnedERC20",
              "name": "winner",
              "type": "address"
            },
            {
              "internalType": "uint256",
              "name": "winnerIndex",
              "type": "uint256"
            },
            {
              "internalType": "uint256",
              "name": "settlementFee",
              "type": "uint256"
            },
            {
              "internalType": "uint256",
              "name": "protocolFee",
              "type": "uint256"
            },
            {
              "internalType": "uint256",
              "name": "stakerFee",
              "type": "uint256"
            },
            {
              "internalType": "uint256",
              "name": "creationTimestamp",
              "type": "uint256"
            },
            {
              "internalType": "uint256",
              "name": "resolutionTimestamp",
              "type": "uint256"
            },
            {
              "internalType": "uint256[]",
              "name": "initialOdds",
              "type": "uint256[]"
            },
            {
              "internalType": "bool",
              "name": "active",
              "type": "bool"
            }
          ],
          "internalType": "struct AbstractMarketFactoryV3.Market",
          "name": "",
          "type": "tuple"
        }
      ],
      "stateMutability": "view",
      "type": "function"
    },
    {
      "inputs": [],
      "name": "getOwner",
      "outputs": [
        {
          "internalType": "address",
          "name": "",
          "type": "address"
        }
      ],
      "stateMutability": "view",
      "type": "function"
    },
    {
      "inputs": [
        {
          "internalType": "uint256",
          "name": "_eventId",
          "type": "uint256"
        }
      ],
      "name": "getRewardEndTime",
      "outputs": [
        {
          "internalType": "uint256",
          "name": "",
          "type": "uint256"
        }
      ],
      "stateMutability": "nonpayable",
      "type": "function"
    },
    {
      "inputs": [],
      "name": "getVersion",
      "outputs": [
        {
          "internalType": "string",
          "name": "",
          "type": "string"
        }
      ],
      "stateMutability": "view",
      "type": "function"
    },
    {
      "inputs": [],
      "name": "groupCount",
      "outputs": [
        {
          "internalType": "uint256",
          "name": "",
          "type": "uint256"
        }
      ],
      "stateMutability": "view",
      "type": "function"
    },
    {
      "inputs": [
        {
          "internalType": "uint256",
          "name": "_groupId",
          "type": "uint256"
        },
        {
          "internalType": "string",
          "name": "_groupName",
          "type": "string"
        },
        {
          "internalType": "string",
          "name": "_invalidMarketName",
          "type": "string"
        },
        {
          "internalType": "uint256",
          "name": "_endTime",
          "type": "uint256"
        },
        {
          "internalType": "string",
          "name": "_category",
          "type": "string"
        }
      ],
      "name": "initializeGroup",
      "outputs": [],
      "stateMutability": "nonpayable",
      "type": "function"
    },
    {
      "inputs": [
        {
          "internalType": "uint256",
          "name": "_id",
          "type": "uint256"
        }
      ],
      "name": "isMarketResolved",
      "outputs": [
        {
          "internalType": "bool",
          "name": "",
          "type": "bool"
        }
      ],
      "stateMutability": "view",
      "type": "function"
    },
    {
      "inputs": [],
      "name": "linkNode",
      "outputs": [
        {
          "internalType": "address",
          "name": "",
          "type": "address"
        }
      ],
      "stateMutability": "view",
      "type": "function"
    },
    {
      "inputs": [
        {
          "internalType": "uint256",
          "name": "",
          "type": "uint256"
        }
      ],
      "name": "listOfMarketGroups",
      "outputs": [
        {
          "internalType": "uint256",
          "name": "",
          "type": "uint256"
        }
      ],
      "stateMutability": "view",
      "type": "function"
    },
    {
      "inputs": [],
      "name": "marketCount",
      "outputs": [
        {
          "internalType": "uint256",
          "name": "",
          "type": "uint256"
        }
      ],
      "stateMutability": "view",
      "type": "function"
    },
    {
      "inputs": [
        {
          "internalType": "uint256",
          "name": "",
          "type": "uint256"
        }
      ],
      "name": "marketGroups",
      "outputs": [
        {
          "internalType": "enum Grouped.GroupStatus",
          "name": "status",
          "type": "uint8"
        },
        {
          "internalType": "string",
          "name": "name",
          "type": "string"
        },
        {
          "internalType": "uint256",
          "name": "invalidMarket",
          "type": "uint256"
        },
        {
          "internalType": "string",
          "name": "invalidMarketName",
          "type": "string"
        },
        {
          "internalType": "uint256",
          "name": "endTime",
          "type": "uint256"
        },
        {
          "internalType": "string",
          "name": "category",
          "type": "string"
        },
        {
          "internalType": "uint256",
          "name": "winningMarketIndex",
          "type": "uint256"
        }
      ],
      "stateMutability": "view",
      "type": "function"
    },
    {
      "inputs": [
        {
          "internalType": "uint256",
          "name": "_id",
          "type": "uint256"
        },
        {
          "internalType": "uint256",
          "name": "_shareToMint",
          "type": "uint256"
        },
        {
          "internalType": "address",
          "name": "_receiver",
          "type": "address"
        }
      ],
      "name": "mintShares",
      "outputs": [],
      "stateMutability": "nonpayable",
      "type": "function"
    },
    {
      "inputs": [],
      "name": "protocol",
      "outputs": [
        {
          "internalType": "address",
          "name": "",
          "type": "address"
        }
      ],
      "stateMutability": "view",
      "type": "function"
    },
    {
      "inputs": [],
      "name": "protocolFee",
      "outputs": [
        {
          "internalType": "uint256",
          "name": "",
          "type": "uint256"
        }
      ],
      "stateMutability": "view",
      "type": "function"
    },
    {
      "inputs": [
        {
          "internalType": "uint256",
          "name": "_marketId",
          "type": "uint256"
        }
      ],
      "name": "resolveMarketAsNo",
      "outputs": [],
      "stateMutability": "nonpayable",
      "type": "function"
    },
    {
      "inputs": [
        {
          "internalType": "uint256",
          "name": "_groupId",
          "type": "uint256"
        },
        {
          "internalType": "uint256[]",
          "name": "_marketIndexes",
          "type": "uint256[]"
        }
      ],
      "name": "resolveMarkets",
      "outputs": [],
      "stateMutability": "nonpayable",
      "type": "function"
    },
    {
      "inputs": [
        {
          "internalType": "address",
          "name": "_newLinkNode",
          "type": "address"
        }
      ],
      "name": "setLinkNode",
      "outputs": [],
      "stateMutability": "nonpayable",
      "type": "function"
    },
    {
      "inputs": [
        {
          "internalType": "address",
          "name": "_newProtocol",
          "type": "address"
        },
        {
          "internalType": "bool",
          "name": "_claimFirst",
          "type": "bool"
        }
      ],
      "name": "setProtocol",
      "outputs": [],
      "stateMutability": "nonpayable",
      "type": "function"
    },
    {
      "inputs": [
        {
          "internalType": "uint256",
          "name": "_newFee",
          "type": "uint256"
        }
      ],
      "name": "setProtocolFee",
      "outputs": [],
      "stateMutability": "nonpayable",
      "type": "function"
    },
    {
      "inputs": [
        {
          "internalType": "uint256",
          "name": "_newFee",
          "type": "uint256"
        }
      ],
      "name": "setSettlementFee",
      "outputs": [],
      "stateMutability": "nonpayable",
      "type": "function"
    },
    {
      "inputs": [
        {
          "internalType": "uint256",
          "name": "_newFee",
          "type": "uint256"
        }
      ],
      "name": "setStakerFee",
      "outputs": [],
      "stateMutability": "nonpayable",
      "type": "function"
    },
    {
      "inputs": [],
      "name": "settlementFee",
      "outputs": [
        {
          "internalType": "uint256",
          "name": "",
          "type": "uint256"
        }
      ],
      "stateMutability": "view",
      "type": "function"
    },
    {
      "inputs": [],
      "name": "shareFactor",
      "outputs": [
        {
          "internalType": "uint256",
          "name": "",
          "type": "uint256"
        }
      ],
      "stateMutability": "view",
      "type": "function"
    },
    {
      "inputs": [],
      "name": "stakerFee",
      "outputs": [
        {
          "internalType": "uint256",
          "name": "",
          "type": "uint256"
        }
      ],
      "stateMutability": "view",
      "type": "function"
    },
    {
      "inputs": [
        {
          "internalType": "address",
          "name": "_newOwner",
          "type": "address"
        }
      ],
      "name": "transferOwnership",
      "outputs": [
        {
          "internalType": "bool",
          "name": "",
          "type": "bool"
        }
      ],
      "stateMutability": "nonpayable",
      "type": "function"
    }
  ],
  "transactionHash": "0xc4adb93bfbd84cbba6af788b98833885d8744a1857c2719d325670e5ccd5ece3",
  "args": [
    "0x8C9c733eCd48426b9c53c38ccB60F3b307329bE1",
    "0x5799bFe361BEea69f808328FF4884DF92f1f66f0",
    "1000000000000",
    "0x59DdFE9961e050bdA1ed9bf9CCD009948036Dd76",
    [
      0,
      "500000000000000",
      0
    ],
    "0x8C9c733eCd48426b9c53c38ccB60F3b307329bE1",
    "0x8C9c733eCd48426b9c53c38ccB60F3b307329bE1"
  ],
  "solcInputHash": "804148360418ab098f907d8c907046b0",
  "bytecode": "0x608060405260006007553480156200001657600080fd5b5060405162005ca838038062005ca88339810160408190526200003991620004ec565b604080518082019091526006815265076312e322e360d41b6020820152600080546001600160a01b03808b166001600160a01b03199283163317831617835560018054828c169084161790556009899055600280549189169190921617905582908990899089908990899089908290602002015160035581600160200201516004558160026020020151600555600680546001600160a01b0319166001600160a01b038381169190911790915560405163095ea7b360e01b81529086169063095ea7b390620001119086906000199060040162000608565b602060405180830381600087803b1580156200012c57600080fd5b505af115801562000141573d6000803e3d6000fd5b505050506040513d601f19601f82011682018060405250810190620001679190620005df565b50600a62000174620002b5565b81546001808201845560009384526020938490208351600b9093020180546001600160a01b0319166001600160a01b0390931692909217825582840151805193949293620001cb939285019291909101906200032b565b5060408201516002820180546001600160a01b0319166001600160a01b03909216919091179055606082015160038201556080820151600482015560a0820151600582015560c0820151600682015560e08201516007820155610100820151600882015561012082015180516200024d91600984019160209091019062000395565b506101409190910151600a909101805460ff19169115159190911790555050600d80546001600160a01b0319166001600160a01b03969096169590951790945550508251620002a69250600e91506020840190620003d3565b5050505050505050506200063a565b620002bf62000455565b50604080516000808252602082018181526101a083018452928201818152606083018390526080830182905260a0830182905260c0830182905260e083018290526101008301829052610120830182905261014083018290526101608301939093526101809091015290565b82805482825590600052602060002090810192821562000383579160200282015b828111156200038357825182546001600160a01b0319166001600160a01b039091161782556020909201916001909101906200034c565b5062000391929150620004c3565b5090565b82805482825590600052602060002090810192821562000383579160200282015b8281111562000383578251825591602001919060010190620003b6565b828054600181600116156101000203166002900490600052602060002090601f0160209004810192826200040b576000855562000383565b82601f106200042657805160ff191683800117855562000383565b8280016001018555821562000383579182018281111562000383578251825591602001919060010190620003b6565b60405180610160016040528060006001600160a01b031681526020016060815260200160006001600160a01b03168152602001600081526020016000815260200160008152602001600081526020016000815260200160008152602001606081526020016000151581525090565b5b80821115620003915760008155600101620004c4565b8051620004e78162000621565b919050565b6000806000806000806000610120888a03121562000508578283fd5b8751620005158162000621565b809750506020808901516200052a8162000621565b60408a015160608b01519198509650620005448162000621565b9450609f89018a1362000555578384fd5b604051606081016001600160401b03811182821017156200057257fe5b6040528060808b0160e08c018d8111156200058b578788fd5b875b6003811015620005ac578251845292850192918501916001016200058d565b50839750620005bb81620004da565b96505050505050620005d16101008901620004da565b905092959891949750929550565b600060208284031215620005f1578081fd5b8151801515811462000601578182fd5b9392505050565b6001600160a01b03929092168252602082015260400190565b6001600160a01b03811681146200063757600080fd5b50565b61565e806200064a6000396000f3fe60806040523480156200001157600080fd5b50600436106200028c5760003560e01c8063808e24181162000165578063cc87adea11620000d5578063dc9024da1162000093578063dc9024da1462000588578063e2c30b15146200059f578063e5678dfa14620005b6578063eb44fdd314620005cd578063ec97908214620005f3578063f2fde38b14620005fd576200028c565b8063cc87adea1462000520578063ceb606541462000537578063d4b6838e146200055d578063d5da4f1d1462000567578063d8dfeb45146200057e576200028c565b80638f23b32611620001235780638f23b32614620004d457806397eef18714620004de578063992c907914620004f5578063a544a62c146200050c578063b0e21e8a1462000516576200028c565b8063808e2418146200047b578063893d20e814620004925780638bdb957f146200049c5780638ce7442614620004b35780638e0ed19314620004bd576200028c565b806349a4d93411620002015780635653395111620001bf57806356533951146200040d5780637391b6d014620004395780637641ab011462000450578063787dce3d146200045a5780637d1d7fb81462000471576200028c565b806349a4d93414620003a35780634a7d036914620003ba5780634b2d9ffc14620003c45780634c9f66c714620003ce57806353ac55f514620003e7576200028c565b80633037faf1116200024f5780633037faf1146200031157806332ecabe9146200033857806335a9cdad146200034f57806342e0ed161462000375578063473a6d52146200038c576200028c565b80630a18a4aa14620002915780630d8e6e2c14620002aa57806319b5068714620002cc578063221fff8114620002e35780633025077b14620002fa575b600080fd5b620002a8620002a236600462003ca5565b62000614565b005b620002b46200063c565b604051620002c391906200400b565b60405180910390f35b620002a8620002dd36600462003a9b565b620006d6565b620002a8620002f436600462003cc7565b6200074b565b620002a86200030b36600462003c03565b62000a78565b620003286200032236600462003a9b565b62000aa6565b604051620002c392919062004181565b620002a86200034936600462003973565b62000adf565b620003666200036036600462003cc7565b62000b2d565b604051620002c3919062004276565b620003666200038636600462003a9b565b62000f66565b620003666200039d36600462003a9b565b62000f6e565b62000366620003b436600462003956565b62000faa565b6200036662000fbc565b6200036662001086565b620003d86200108c565b604051620002c3919062003f40565b620003fe620003f836600462003a9b565b6200109b565b604051620002c3919062003f91565b620004246200041e36600462003a9b565b62001225565b604051620002c3979695949392919062003f9c565b620002a86200044a36600462003af2565b62001413565b620003666200148b565b620002a86200046b36600462003a9b565b62001491565b62000366620014ae565b620003666200048c36600462003a9b565b620014b4565b620003d8620014d6565b620002a8620004ad36600462003a9b565b620014e5565b620003d862001508565b62000366620004ce36600462003956565b62001517565b62000366620015d3565b620002a8620004ef36600462003a9b565b620015d9565b620003666200050636600462003acd565b620015f6565b6200036662001a0f565b6200036662001a15565b620003666200053136600462003a9b565b62001a1b565b6200054e6200054836600462003a9b565b62001a22565b604051620002c391906200416c565b620003d862001d9c565b620002a86200057836600462003a9b565b62001dab565b620003d862001dc8565b620002a86200059936600462003bba565b62001dd7565b620002a8620005b036600462003956565b620021ea565b62000366620005c7366004620039ae565b62002256565b620005e4620005de36600462003a9b565b620022a4565b604051620002c39190620041a5565b6200036662002443565b620003fe6200060e36600462003956565b62002449565b600d546001600160a01b031633146200062c57600080fd5b620006388282620024b3565b5050565b600e8054604080516020601f6002600019610100600188161502019095169490940493840181900481028201810190925282815260609390929091830182828015620006cc5780601f10620006a057610100808354040283529160200191620006cc565b820191906000526020600020905b815481529060010190602001808311620006ae57829003601f168201915b5050505050905090565b600d546001600160a01b03163314620006ee57600080fd5b600a8181548110620006fc57fe5b60009182526020909120600a600b90920201015460ff166200073b5760405162461bcd60e51b8152600401620007329062004118565b60405180910390fd5b62000748816000620028c5565b50565b600a5483106200075a57600080fd5b600a83815481106200076857fe5b60009182526020909120600a600b90920201015460ff166200078957600080fd5b6000620007968362000f6e565b6001546040516323b872dd60e01b81529192506001600160a01b0316906323b872dd90620007cd9033903090869060040162003f54565b602060405180830381600087803b158015620007e857600080fd5b505af1158015620007fd573d6000803e3d6000fd5b505050506040513d601f19601f8201168201806040525081019062000823919062003a00565b506000600a85815481106200083457fe5b60009182526020918290206040805161016081018252600b90930290910180546001600160a01b03168352600181018054835181870281018701909452808452939491938583019392830182828015620008b857602002820191906000526020600020905b81546001600160a01b0316815260019091019060200180831162000899575b505050505081526020016002820160009054906101000a90046001600160a01b03166001600160a01b03166001600160a01b03168152602001600382015481526020016004820154815260200160058201548152602001600682015481526020016007820154815260200160088201548152602001600982018054806020026020016040519081016040528092919081815260200182805480156200097d57602002820191906000526020600020905b81548152602001906001019080831162000968575b5050509183525050600a919091015460ff161515602090910152905060005b81602001515181101562000a335781602001518181518110620009bb57fe5b60200260200101516001600160a01b031663c024cd2685876040518363ffffffff1660e01b8152600401620009f292919062003f78565b600060405180830381600087803b15801562000a0d57600080fd5b505af115801562000a22573d6000803e3d6000fd5b5050600190920191506200099c9050565b507fd81c0442e10068a9818f3aa093c9ccb804584690df572d7df3da2d892a6973f285858560405162000a699392919062004350565b60405180910390a15050505050565b600d546001600160a01b0316331462000a9057600080fd5b62000a9f8585848685620028eb565b5050505050565b62000ab062003612565b6000600c838154811062000ac057fe5b9060005260206000200154905062000ad88162001a22565b9150915091565b6000546001600160a01b0316331462000af757600080fd5b801562000b0a5762000b0862000fbc565b505b50600680546001600160a01b0319166001600160a01b0392909216919091179055565b600a54600090841062000b3f57600080fd5b600a848154811062000b4d57fe5b60009182526020909120600a600b90920201015460ff1662000b6e57600080fd5b6000600a858154811062000b7e57fe5b60009182526020918290206040805161016081018252600b90930290910180546001600160a01b0316835260018101805483518187028101870190945280845293949193858301939283018282801562000c0257602002820191906000526020600020905b81546001600160a01b0316815260019091019060200180831162000be3575b505050505081526020016002820160009054906101000a90046001600160a01b03166001600160a01b03166001600160a01b031681526020016003820154815260200160048201548152602001600582015481526020016006820154815260200160078201548152602001600882015481526020016009820180548060200260200160405190810160405280929190818152602001828054801562000cc757602002820191906000526020600020905b81548152602001906001019080831162000cb2575b5050509183525050600a919091015460ff161515602090910152905060005b81602001515181101562000d7d578160200151818151811062000d0557fe5b60200260200101516001600160a01b03166342986e1333876040518363ffffffff1660e01b815260040162000d3c92919062003f78565b600060405180830381600087803b15801562000d5757600080fd5b505af115801562000d6c573d6000803e3d6000fd5b50506001909201915062000ce69050565b50600062000d8b8562000f6e565b9050600062000dbc670de0b6b3a764000062000db58560a001518562002a9290919063ffffffff16565b9062002ac4565b9050600062000de6670de0b6b3a764000062000db58660c001518662002a9290919063ffffffff16565b905062000e008162000df9858562002ada565b9062002ada565b600780548401905560015460405163a9059cbb60e01b81529194506001600160a01b03169063a9059cbb9062000e3d908990879060040162003f78565b602060405180830381600087803b15801562000e5857600080fd5b505af115801562000e6d573d6000803e3d6000fd5b505050506040513d601f19601f8201168201806040525081019062000e93919062003a00565b50600254604051630ebdac0960e41b81526001600160a01b039091169063ebdac0909062000ec690849060040162004276565b602060405180830381600087803b15801562000ee157600080fd5b505af115801562000ef6573d6000803e3d6000fd5b505050506040513d601f19601f8201168201806040525081019062000f1c919062003a00565b507fb6fdb729b2ed801daf629f0ab713e4a7a73619505790f6f27fd92d6f2c9688d788883360405162000f529392919062004350565b60405180910390a150909695505050505050565b60005b919050565b6000600954821015801562000f8d5750600954828162000f8a57fe5b06155b62000f9757600080fd5b600954828162000fa357fe5b0492915050565b60086020526000908152604090205481565b6006546000906001600160a01b031633148062000fd857503330145b62000fe257600080fd5b60075480156200108157600060075560015460065460405163a9059cbb60e01b81526001600160a01b039283169263a9059cbb926200102992911690859060040162003f78565b602060405180830381600087803b1580156200104457600080fd5b505af115801562001059573d6000803e3d6000fd5b505050506040513d601f19601f820116820180604052508101906200107f919062003a00565b505b905090565b60035481565b6002546001600160a01b031681565b600080600a8381548110620010ac57fe5b60009182526020918290206040805161016081018252600b90930290910180546001600160a01b031683526001810180548351818702810187019094528084529394919385830193928301828280156200113057602002820191906000526020600020905b81546001600160a01b0316815260019091019060200180831162001111575b505050505081526020016002820160009054906101000a90046001600160a01b03166001600160a01b03166001600160a01b0316815260200160038201548152602001600482015481526020016005820154815260200160068201548152602001600782015481526020016008820154815260200160098201805480602002602001604051908101604052809291908181526020018280548015620011f557602002820191906000526020600020905b815481526020019060010190808311620011e0575b5050509183525050600a919091015460ff161515602090910152604001516001600160a01b031615159392505050565b600b602090815260009182526040918290208054600180830180548651600261010094831615949094026000190190911692909204601f810186900486028301860190965285825260ff909216949293909290830182828015620012cd5780601f10620012a157610100808354040283529160200191620012cd565b820191906000526020600020905b815481529060010190602001808311620012af57829003601f168201915b50505050600483015460058401805460408051602060026001851615610100026000190190941693909304601f81018490048402820184019092528181529596939593945090830182828015620013685780601f106200133c5761010080835404028352916020019162001368565b820191906000526020600020905b8154815290600101906020018083116200134a57829003601f168201915b50505050600683015460078401805460408051602060026001851615610100026000190190941693909304601f81018490048402820184019092528181529596939593945090830182828015620014035780601f10620013d75761010080835404028352916020019162001403565b820191906000526020600020905b815481529060010190602001808311620013e557829003601f168201915b5050505050908060080154905087565b600d546001600160a01b031633146200142b57600080fd5b80518251146200143a57600080fd5b60005b825181101562001485576200147c848483815181106200145957fe5b60200260200101518484815181106200146e57fe5b602002602001015162002af0565b6001016200143d565b50505050565b60095481565b6000546001600160a01b03163314620014a957600080fd5b600555565b60045481565b600c8181548110620014c557600080fd5b600091825260209091200154905081565b6000546001600160a01b031690565b600d546001600160a01b03163314620014fd57600080fd5b620007488162002bd0565b6006546001600160a01b031681565b336000908152600860205260408120548015620015cd573360009081526008602052604080822091909155600154905163a9059cbb60e01b81526001600160a01b039091169063a9059cbb9062001575908690859060040162003f78565b602060405180830381600087803b1580156200159057600080fd5b505af1158015620015a5573d6000803e3d6000fd5b505050506040513d601f19601f82011682018060405250810190620015cb919062003a00565b505b92915050565b600c5490565b6000546001600160a01b03163314620015f157600080fd5b600355565b600062001603836200109b565b620016225760405162461bcd60e51b8152600401620007329062004141565b6000600a84815481106200163257fe5b60009182526020918290206040805161016081018252600b90930290910180546001600160a01b03168352600181018054835181870281018701909452808452939491938583019392830182828015620016b657602002820191906000526020600020905b81546001600160a01b0316815260019091019060200180831162001697575b505050505081526020016002820160009054906101000a90046001600160a01b03166001600160a01b03166001600160a01b03168152602001600382015481526020016004820154815260200160058201548152602001600682015481526020016007820154815260200160088201548152602001600982018054806020026020016040519081016040528092919081815260200182805480156200177b57602002820191906000526020600020905b81548152602001906001019080831162001766575b5050509183525050600a919091015460ff1615156020909101526040808201519051631c4a5de160e21b81529192506000916001600160a01b0390911690637129778490620017cf90339060040162003f40565b602060405180830381600087803b158015620017ea57600080fd5b505af1158015620017ff573d6000803e3d6000fd5b505050506040513d601f19601f8201168201806040525081019062001825919062003ab4565b905060095460095482816200183657fe5b040290506000620018478262000f6e565b9050600062001871670de0b6b3a764000062000db586608001518562002a9290919063ffffffff16565b90506200187f828262002ada565b84516001600160a01b0390811660009081526008602052604090819020805485019055600154905163a9059cbb60e01b8152929450169063a9059cbb90620018ce908990869060040162003f78565b602060405180830381600087803b158015620018e957600080fd5b505af1158015620018fe573d6000803e3d6000fd5b505050506040513d601f19601f8201168201806040525081019062001924919062003a00565b50600084606001519050600085604001516001600160a01b03166306fdde036040518163ffffffff1660e01b815260040160006040518083038186803b1580156200196e57600080fd5b505afa15801562001983573d6000803e3d6000fd5b505050506040513d6000823e601f3d908101601f19168201604052620019ad919081019062003a1f565b9050876001600160a01b03167f76ea0c89f1eef8b1ac3908910bbe5ee5120ff997f6b3bcc900659973e6a2ff128a886040015185858a898b604051620019fa9796959493929190620042b8565b60405180910390a25091979650505050505050565b60075481565b60055481565b6009540290565b62001a2c62003612565b6000828152600b602052604090819020815161012081019092528054829060ff16600481111562001a5957fe5b600481111562001a6557fe5b8152602001600182018054600181600116156101000203166002900480601f01602080910402602001604051908101604052809291908181526020018280546001816001161561010002031660029004801562001b065780601f1062001ada5761010080835404028352916020019162001b06565b820191906000526020600020905b81548152906001019060200180831162001ae857829003601f168201915b505050505081526020016002820180548060200260200160405190810160405280929190818152602001828054801562001b6057602002820191906000526020600020905b81548152602001906001019080831162001b4b575b5050505050815260200160038201805480602002602001604051908101604052809291908181526020016000905b8282101562001c3f5760008481526020908190208301805460408051601f600260001961010060018716150201909416939093049283018590048502810185019091528181529283018282801562001c2a5780601f1062001bfe5761010080835404028352916020019162001c2a565b820191906000526020600020905b81548152906001019060200180831162001c0c57829003601f168201915b50505050508152602001906001019062001b8e565b50505090825250600482015460208083019190915260058301805460408051601f6002600019610100600187161502019094169390930492830185900485028101850182528281529401939283018282801562001ce05780601f1062001cb45761010080835404028352916020019162001ce0565b820191906000526020600020905b81548152906001019060200180831162001cc257829003601f168201915b5050509183525050600682015460208083019190915260078301805460408051601f6002600019610100600187161502019094169390930492830185900485028101850182528281529401939283018282801562001d825780601f1062001d565761010080835404028352916020019162001d82565b820191906000526020600020905b81548152906001019060200180831162001d6457829003601f168201915b505050505081526020016008820154815250509050919050565b600d546001600160a01b031681565b6000546001600160a01b0316331462001dc357600080fd5b600455565b6001546001600160a01b031681565b600d546001600160a01b0316331462001def57600080fd5b6000828152600b6020526040808220815161012081019092528054829060ff16600481111562001e1b57fe5b600481111562001e2757fe5b8152602001600182018054600181600116156101000203166002900480601f01602080910402602001604051908101604052809291908181526020018280546001816001161561010002031660029004801562001ec85780601f1062001e9c5761010080835404028352916020019162001ec8565b820191906000526020600020905b81548152906001019060200180831162001eaa57829003601f168201915b505050505081526020016002820180548060200260200160405190810160405280929190818152602001828054801562001f2257602002820191906000526020600020905b81548152602001906001019080831162001f0d575b5050505050815260200160038201805480602002602001604051908101604052809291908181526020016000905b82821015620020015760008481526020908190208301805460408051601f600260001961010060018716150201909416939093049283018590048502810185019091528181529283018282801562001fec5780601f1062001fc05761010080835404028352916020019162001fec565b820191906000526020600020905b81548152906001019060200180831162001fce57829003601f168201915b50505050508152602001906001019062001f50565b50505090825250600482015460208083019190915260058301805460408051601f60026000196101006001871615020190941693909304928301859004850281018501825282815294019392830182828015620020a25780601f106200207657610100808354040283529160200191620020a2565b820191906000526020600020905b8154815290600101906020018083116200208457829003601f168201915b5050509183525050600682015460208083019190915260078301805460408051601f60026000196101006001871615020190941693909304928301859004850281018501825282815294019392830182828015620021445780601f10620021185761010080835404028352916020019162002144565b820191906000526020600020905b8154815290600101906020018083116200212657829003601f168201915b50505091835250506008919091015460209091015290506002815160048111156200216b57fe5b146200217657600080fd5b60005b8251811015620014855760008382815181106200219257fe5b60200260200101519050600083604001518281518110620021af57fe5b60200260200101519050620021c4816200109b565b15620021d2575050620021e1565b620021de868362002c72565b50505b60010162002179565b6000546001600160a01b031633146200220257600080fd5b600d80546001600160a01b0383166001600160a01b0319909116811790915560408051918252517f6b7517523482c8d89ffbc530829d5decd506cf6dc60874b11fa26c8a53bb9fa99181900360200190a150565b600080805b84518110156200229c5762002291620022898683815181106200227a57fe5b602002602001015186620015f6565b839062003043565b91506001016200225b565b509392505050565b620022ae6200365f565b600a548210620022ca57620022c262003056565b905062000f69565b600a8281548110620022d857fe5b60009182526020918290206040805161016081018252600b90930290910180546001600160a01b031683526001810180548351818702810187019094528084529394919385830193928301828280156200235c57602002820191906000526020600020905b81546001600160a01b031681526001909101906020018083116200233d575b505050505081526020016002820160009054906101000a90046001600160a01b03166001600160a01b03166001600160a01b03168152602001600382015481526020016004820154815260200160058201548152602001600682015481526020016007820154815260200160088201548152602001600982018054806020026020016040519081016040528092919081815260200182805480156200242157602002820191906000526020600020905b8154815260200190600101908083116200240c575b5050509183525050600a919091015460ff161515602090910152905062000f69565b600a5490565b600080546001600160a01b031633146200246257600080fd5b6001600160a01b0382166200247657600080fd5b6000546200248e906001600160a01b03168362000638565b50600080546001600160a01b0383166001600160a01b03199091161790556001919050565b6000828152600b6020526040808220815161012081019092528054600019851493929190829060ff166004811115620024e857fe5b6004811115620024f457fe5b8152602001600182018054600181600116156101000203166002900480601f016020809104026020016040519081016040528092919081815260200182805460018160011615610100020316600290048015620025955780601f10620025695761010080835404028352916020019162002595565b820191906000526020600020905b8154815290600101906020018083116200257757829003601f168201915b5050505050815260200160028201805480602002602001604051908101604052809291908181526020018280548015620025ef57602002820191906000526020600020905b815481526020019060010190808311620025da575b5050505050815260200160038201805480602002602001604051908101604052809291908181526020016000905b82821015620026ce5760008481526020908190208301805460408051601f6002600019610100600187161502019094169390930492830185900485028101850190915281815292830182828015620026b95780601f106200268d57610100808354040283529160200191620026b9565b820191906000526020600020905b8154815290600101906020018083116200269b57829003601f168201915b5050505050815260200190600101906200261d565b50505090825250600482015460208083019190915260058301805460408051601f600260001961010060018716150201909416939093049283018590048502810185018252828152940193928301828280156200276f5780601f1062002743576101008083540402835291602001916200276f565b820191906000526020600020905b8154815290600101906020018083116200275157829003601f168201915b5050509183525050600682015460208083019190915260078301805460408051601f60026000196101006001871615020190941693909304928301859004850281018501825282815294019392830182828015620028115780601f10620027e55761010080835404028352916020019162002811565b820191906000526020600020905b815481529060010190602001808311620027f357829003601f168201915b50505091835250506008919091015460209091015290506001815160048111156200283857fe5b14620028585760405162461bcd60e51b8152600401620007329062004062565b620028648183620030cc565b6000848152600b602052604090819020805460ff191660021781556008018490555184907f6b437d58f4403cecb2353bf3e8f2384a91e7518f0a2b0e6762b0425b5e6c462190620028b790869062004276565b60405180910390a250505050565b600081620028d5576000620028d8565b60015b9050620028e68382620030ec565b505050565b6000858152600b602052604081205460ff1660048111156200290957fe5b14620029295760405162461bcd60e51b815260040162000732906200408f565b600c805460018082019092557fdf6966c971051c3d54ec59162606531493a51404a002842f56009d7e5cf4a8c7018690556000868152600b60209081526040909120805460ff19168317815586516200298a939190910191870190620036cd565b506000858152600b60209081526040909120600681018590558251620029b992600790920191840190620036cd565b506000620029de33620029cc8562003215565b620029d6620032be565b600162003328565b6000878152600b6020908152604090912060048101839055855192935062002a0f92600590910191860190620036cd565b50857fb4838dfe8d568d0b67fdac2db628f206c6ee584b385d7567e743755db005d00285838660405162002a46939291906200436f565b60405180910390a2857f9405d6c61d91e2fc742b083fb4795fd71e261986aad67f433418e0e4be8a6319828560405162002a8292919062004335565b60405180910390a2505050505050565b60008262002aa357506000620015cd565b8282028284828162002ab157fe5b041462002abd57600080fd5b9392505050565b60008082848162002ad157fe5b04949350505050565b60008282111562002aea57600080fd5b50900390565b60016000848152600b602052604090205460ff16600481111562002b1057fe5b1462002b305760405162461bcd60e51b81526004016200073290620040e1565b600062002b4b3362002b428562003215565b84600162003328565b6000858152600b6020908152604082206002810180546001818101835591855283852001859055600390910180549182018155835291819020865193945062002b9b9392019190860190620036cd565b50837f9405d6c61d91e2fc742b083fb4795fd71e261986aad67f433418e0e4be8a63198285604051620028b792919062004335565b6000818152600b602052604090206002815460ff16600481111562002bf157fe5b1462002bfc57600080fd5b600881015460001914158062002c1457600462002c17565b60035b8254839060ff1916600183600481111562002c2e57fe5b0217905550827f8b6ba55ee795a338c4c907ef43b3a72613c96c34ae6fce3131933cbf59ed4b638260405162002c65919062003f91565b60405180910390a2505050565b6000828152600b6020526040808220815161012081019092528054829060ff16600481111562002c9e57fe5b600481111562002caa57fe5b8152602001600182018054600181600116156101000203166002900480601f01602080910402602001604051908101604052809291908181526020018280546001816001161561010002031660029004801562002d4b5780601f1062002d1f5761010080835404028352916020019162002d4b565b820191906000526020600020905b81548152906001019060200180831162002d2d57829003601f168201915b505050505081526020016002820180548060200260200160405190810160405280929190818152602001828054801562002da557602002820191906000526020600020905b81548152602001906001019080831162002d90575b5050505050815260200160038201805480602002602001604051908101604052809291908181526020016000905b8282101562002e845760008481526020908190208301805460408051601f600260001961010060018716150201909416939093049283018590048502810185019091528181529283018282801562002e6f5780601f1062002e435761010080835404028352916020019162002e6f565b820191906000526020600020905b81548152906001019060200180831162002e5157829003601f168201915b50505050508152602001906001019062002dd3565b50505090825250600482015460208083019190915260058301805460408051601f6002600019610100600187161502019094169390930492830185900485028101850182528281529401939283018282801562002f255780601f1062002ef95761010080835404028352916020019162002f25565b820191906000526020600020905b81548152906001019060200180831162002f0757829003601f168201915b5050509183525050600682015460208083019190915260078301805460408051601f6002600019610100600187161502019094169390930492830185900485028101850182528281529401939283018282801562002fc75780601f1062002f9b5761010080835404028352916020019162002fc7565b820191906000526020600020905b81548152906001019060200180831162002fa957829003601f168201915b505050918352505060089190910154602090910152905060028151600481111562002fee57fe5b146200300e5760405162461bcd60e51b81526004016200073290620040b5565b6000816040015183815181106200302157fe5b6020026020010151905060008261010001518414905062000a9f8282620028c5565b60008282018381101562002abd57600080fd5b620030606200365f565b50604080516000808252602082018181526101a083018452928201818152606083018390526080830182905260a0830182905260c0830182905260e083018290526101008301829052610120830182905261014083018290526101608301939093526101809091015290565b600081620030dc576000620030df565b60015b9050620028e68360800151825b6000600a8381548110620030fc57fe5b90600052602060002090600b0201905060008160010183815481106200311e57fe5b60009182526020822001546002840180546001600160a01b0319166001600160a01b039092169182179055600a8401805460ff1916905560038401859055426008850155604080516306fdde0360e01b8152905191935083916306fdde03916004808201928692909190829003018186803b1580156200319d57600080fd5b505afa158015620031b2573d6000803e3d6000fd5b505050506040513d6000823e601f3d908101601f19168201604052620031dc919081019062003a1f565b90507f8008bbeee2e3c054e71d4965b4c22b41a2287cd6cc67c714bf918b538338be5f8583868460405162000a6994939291906200427f565b6040805160028082526060828101909352816020015b60608152602001906001900390816200322b5790505090508160405160200162003256919062003f11565b604051602081830303815290604052816000815181106200327357fe5b60200260200101819052508160405160200162003291919062003ee1565b60405160208183030381529060405281600181518110620032ae57fe5b6020026020010181905250919050565b6040805160028082526060808301845292602083019080368337019050509050670de0b6b3a764000081600181518110620032f557fe5b6020026020010181815250506802a802f8630a240000816000815181106200331957fe5b60200260200101818152505090565b600a80546040805161016081019091526001600160a01b0387168152909190602081016200335787306200351d565b815260006020808301829052604083018290526004546060840152600554608084015260035460a08401524260c084015260e08301829052610100830188905286151561012090930192909252835460018082018655948252908290208351600b9092020180546001600160a01b0319166001600160a01b0390921691909117815582820151805193949193620033f79392850192919091019062003762565b5060408201516002820180546001600160a01b0319166001600160a01b03909216919091179055606082015160038201556080820151600482015560a0820151600582015560c0820151600682015560e082015160078201556101008201516008820155610120820151805162003479916009840191602090910190620037ba565b506101409190910151600a909101805460ff19169115159190911790556040517f037fdac9e4b37ad8b184ce958d7b275e578c9e03d4cfbc51aa75de25fdb6bbec90620034cc9083908790879062004306565b60405180910390a1811562003515577fee570fee9d8debeedea533b8cdfde6b9d9995b915869d4d10d350e75a9bf0f88816040516200350c919062004276565b60405180910390a15b949350505050565b815160609060008167ffffffffffffffff811180156200353c57600080fd5b5060405190808252806020026020018201604052801562003567578160200160208202803683370190505b50905060005b8281101562003609578581815181106200358357fe5b60200260200101518682815181106200359857fe5b602002602001015186604051620035af90620037f7565b620035bd9392919062004020565b604051809103906000f080158015620035da573d6000803e3d6000fd5b50828281518110620035e857fe5b6001600160a01b03909216602092830291909101909101526001016200356d565b50949350505050565b604080516101208101909152806000815260200160608152602001606081526020016060815260200160008152602001606081526020016000815260200160608152602001600081525090565b60405180610160016040528060006001600160a01b031681526020016060815260200160006001600160a01b03168152602001600081526020016000815260200160008152602001600081526020016000815260200160008152602001606081526020016000151581525090565b828054600181600116156101000203166002900490600052602060002090601f01602090048101928262003705576000855562003750565b82601f106200372057805160ff191683800117855562003750565b8280016001018555821562003750579182015b828111156200375057825182559160200191906001019062003733565b506200375e92915062003805565b5090565b82805482825590600052602060002090810192821562003750579160200282015b828111156200375057825182546001600160a01b0319166001600160a01b0390911617825560209092019160019091019062003783565b8280548282559060005260206000209081019282156200375057916020028201828111156200375057825182559160200191906001019062003733565b6111f3806200443683390190565b5b808211156200375e576000815560010162003806565b80356001600160a01b038116811462000f6957600080fd5b600082601f83011262003845578081fd5b813560206200385e6200385883620043b5565b62004390565b82815281810190858301855b85811015620038975762003884898684358b0101620038a4565b845292840192908401906001016200386a565b5090979650505050505050565b600082601f830112620038b5578081fd5b81356020620038c86200385883620043b5565b8281528181019085830183850287018401881015620038e5578586fd5b855b858110156200389757813584529284019290840190600101620038e7565b600082601f83011262003916578081fd5b8135620039276200385882620043d4565b8181528460208386010111156200393c578283fd5b816020850160208301379081016020019190915292915050565b60006020828403121562003968578081fd5b62002abd826200381c565b6000806040838503121562003986578081fd5b62003991836200381c565b91506020830135620039a38162004426565b809150509250929050565b60008060408385031215620039c1578182fd5b823567ffffffffffffffff811115620039d8578283fd5b620039e685828601620038a4565b925050620039f7602084016200381c565b90509250929050565b60006020828403121562003a12578081fd5b815162002abd8162004426565b60006020828403121562003a31578081fd5b815167ffffffffffffffff81111562003a48578182fd5b8201601f8101841362003a59578182fd5b805162003a6a6200385882620043d4565b81815285602083850101111562003a7f578384fd5b62003a92826020830160208601620043f7565b95945050505050565b60006020828403121562003aad578081fd5b5035919050565b60006020828403121562003ac6578081fd5b5051919050565b6000806040838503121562003ae0578182fd5b82359150620039f7602084016200381c565b60008060006060848603121562003b07578081fd5b8335925060208085013567ffffffffffffffff8082111562003b27578384fd5b818701915087601f83011262003b3b578384fd5b813562003b4c6200385882620043b5565b81815284810190848601875b8481101562003b855762003b728d8984358a010162003905565b8452928701929087019060010162003b58565b50909750505050604087013592508083111562003ba0578384fd5b505062003bb08682870162003834565b9150509250925092565b6000806040838503121562003bcd578182fd5b82359150602083013567ffffffffffffffff81111562003beb578182fd5b62003bf985828601620038a4565b9150509250929050565b600080600080600060a0868803121562003c1b578283fd5b85359450602086013567ffffffffffffffff8082111562003c3a578485fd5b62003c4889838a0162003905565b9550604088013591508082111562003c5e578485fd5b62003c6c89838a0162003905565b945060608801359350608088013591508082111562003c89578283fd5b5062003c988882890162003905565b9150509295509295909350565b6000806040838503121562003cb8578182fd5b50508035926020909101359150565b60008060006060848603121562003cdc578081fd5b833592506020840135915062003cf5604085016200381c565b90509250925092565b6001600160a01b03169052565b6000815180845260208085019450808401835b8381101562003d455781516001600160a01b03168752958201959082019060010162003d1e565b509495945050505050565b6000815180845260208085018081965082840281019150828601855b8581101562003d9a57828403895262003d8784835162003ded565b9885019893509084019060010162003d6c565b5091979650505050505050565b6000815180845260208085019450808401835b8381101562003d455781518752958201959082019060010162003dba565b15159052565b6005811062003de957fe5b9052565b6000815180845262003e07816020860160208601620043f7565b601f01601f19169290920160200192915050565b600061012062003e2d84845162003dde565b602083015181602086015262003e468286018262003ded565b9150506040830151848203604086015262003e62828262003da7565b9150506060830151848203606086015262003e7e828262003d50565b9150506080830151608085015260a083015184820360a086015262003ea4828262003ded565b91505060c083015160c085015260e083015184820360e086015262003eca828262003ded565b610100948501519590940194909452509092915050565b60006502ca2a99016960d51b8252825162003f04816006850160208701620043f7565b9190910160060192915050565b600064027279016960dd1b8252825162003f33816005850160208701620043f7565b9190910160050192915050565b6001600160a01b0391909116815260200190565b6001600160a01b039384168152919092166020820152604081019190915260600190565b6001600160a01b03929092168252602082015260400190565b901515815260200190565b600062003faa828a62003dde565b60e0602083015262003fc060e083018962003ded565b876040840152828103606084015262003fda818862003ded565b905085608084015282810360a084015262003ff6818662003ded565b9150508260c083015298975050505050505050565b60006020825262002abd602083018462003ded565b60006060825262004035606083018662003ded565b828103602084015262004049818662003ded565b91505060018060a01b0383166040830152949350505050565b60208082526013908201527219dc9bdd5c081b9bdd0814d8da19591d5b1959606a1b604082015260600190565b6020808252600c908201526b67726f75702065786973747360a01b604082015260600190565b6020808252601290820152716d7573742062652066696e616c697a696e6760701b604082015260600190565b60208082526017908201527f67726f7570206d757374206265205363686564756c6564000000000000000000604082015260600190565b6020808252600f908201526e6d61726b657420696e61637469766560881b604082015260600190565b6020808252601190820152701b585c9ad95d081d5b9c995cdbdb1d9959607a1b604082015260600190565b60006020825262002abd602083018462003e1b565b60006040825262004196604083018562003e1b565b90508260208301529392505050565b600060208252620041bb60208301845162003cfe565b6020830151610160806040850152620041d961018085018362003d0b565b91506040850151620041ef606086018262003cfe565b5060608501516080850152608085015160a085015260a085015160c085015260c085015160e085015260e0850151610100818187015280870151915050610120818187015280870151915050610140601f19868503018187015262004255848362003da7565b9350808701519150506200426c8286018262003dd8565b5090949350505050565b90815260200190565b600085825260018060a01b038516602083015283604083015260806060830152620042ae608083018462003ded565b9695505050505050565b600088825260018060a01b038816602083015286604083015260e06060830152620042e760e083018762003ded565b60808301959095525060a081019290925260c090910152949350505050565b60008482526060602083015262004321606083018562003d50565b8281036040840152620042ae818562003da7565b60008382526040602083015262003515604083018462003ded565b92835260208301919091526001600160a01b0316604082015260600190565b60008482528360208301526060604083015262003a92606083018462003ded565b60405181810167ffffffffffffffff81118282101715620043ad57fe5b604052919050565b600067ffffffffffffffff821115620043ca57fe5b5060209081020190565b600067ffffffffffffffff821115620043e957fe5b50601f01601f191660200190565b60005b8381101562004414578181015183820152602001620043fa565b83811115620014855750506000910152565b80151581146200074857600080fdfe60806040523480156200001157600080fd5b50604051620011f3380380620011f3833981810160405260608110156200003757600080fd5b81019080805160405193929190846401000000008211156200005857600080fd5b9083019060208201858111156200006e57600080fd5b82516401000000008111828201881017156200008957600080fd5b82525081516020918201929091019080838360005b83811015620000b85781810151838201526020016200009e565b50505050905090810190601f168015620000e65780820380516001836020036101000a031916815260200191505b50604052602001805160405193929190846401000000008211156200010a57600080fd5b9083019060208201858111156200012057600080fd5b82516401000000008111828201881017156200013b57600080fd5b82525081516020918201929091019080838360005b838110156200016a57818101518382015260200162000150565b50505050905090810190601f168015620001985780820380516001836020036101000a031916815260200191505b5060405260209081015185519093508592508491620001bd9160039185019062000219565b508051620001d390600490602084019062000219565b5050600580546001600160a01b039390931661010090810233909102610100600160a81b031960ff199095166012178516179093169290921790915550620002c5915050565b828054600181600116156101000203166002900490600052602060002090601f0160209004810192826200025157600085556200029c565b82601f106200026c57805160ff19168380011785556200029c565b828001600101855582156200029c579182015b828111156200029c5782518255916020019190600101906200027f565b50620002aa929150620002ae565b5090565b5b80821115620002aa5760008155600101620002af565b610f1e80620002d56000396000f3fe608060405234801561001057600080fd5b506004361061010b5760003560e01c806370a08231116100a2578063a457c2d711610071578063a457c2d714610343578063a9059cbb1461036f578063c024cd261461039b578063dd62ed3e146103c7578063f2fde38b146103f55761010b565b806370a08231146102cb57806371297784146102f1578063893d20e81461031757806395d89b411461033b5761010b565b806323b872dd116100de57806323b872dd1461021f578063313ce56714610255578063395093511461027357806342986e131461029f5761010b565b806306fdde0314610110578063095ea7b31461018d5780630fb66557146101cd57806318160ddd14610205575b600080fd5b61011861041b565b6040805160208082528351818301528351919283929083019185019080838360005b8381101561015257818101518382015260200161013a565b50505050905090810190601f16801561017f5780820380516001836020036101000a031916815260200191505b509250505060405180910390f35b6101b9600480360360408110156101a357600080fd5b506001600160a01b0381351690602001356104b1565b604080519115158252519081900360200190f35b610203600480360360608110156101e357600080fd5b506001600160a01b038135811691602081013590911690604001356104ce565b005b61020d6104fa565b60408051918252519081900360200190f35b6101b96004803603606081101561023557600080fd5b506001600160a01b03813581169160208101359091169060400135610500565b61025d610587565b6040805160ff9092168252519081900360200190f35b6101b96004803603604081101561028957600080fd5b506001600160a01b038135169060200135610590565b610203600480360360408110156102b557600080fd5b506001600160a01b0381351690602001356105de565b61020d600480360360208110156102e157600080fd5b50356001600160a01b0316610608565b61020d6004803603602081101561030757600080fd5b50356001600160a01b0316610623565b61031f61065f565b604080516001600160a01b039092168252519081900360200190f35b610118610673565b6101b96004803603604081101561035957600080fd5b506001600160a01b0381351690602001356106d4565b6101b96004803603604081101561038557600080fd5b506001600160a01b03813516906020013561073c565b610203600480360360408110156103b157600080fd5b506001600160a01b038135169060200135610750565b61020d600480360360408110156103dd57600080fd5b506001600160a01b0381358116916020013516610776565b6101b96004803603602081101561040b57600080fd5b50356001600160a01b03166107a1565b60038054604080516020601f60026000196101006001881615020190951694909404938401819004810282018101909252828152606093909290918301828280156104a75780601f1061047c576101008083540402835291602001916104a7565b820191906000526020600020905b81548152906001019060200180831161048a57829003601f168201915b5050505050905090565b60006104c56104be610818565b848461081c565b50600192915050565b60055461010090046001600160a01b031633146104ea57600080fd5b6104f5838383610908565b505050565b60025490565b600061050d848484610908565b61057d84610519610818565b61057885604051806060016040528060288152602001610e32602891396001600160a01b038a16600090815260016020526040812090610557610818565b6001600160a01b031681526020810191909152604001600020549190610a63565b61081c565b5060019392505050565b60055460ff1690565b60006104c561059d610818565b8461057885600160006105ae610818565b6001600160a01b03908116825260208083019390935260409182016000908120918c168152925290205490610afa565b60055461010090046001600160a01b031633146105fa57600080fd5b6106048282610b5b565b5050565b6001600160a01b031660009081526020819052604090205490565b60055460009061010090046001600160a01b0316331461064257600080fd5b600061064d83610608565b90506106598382610b5b565b92915050565b60055461010090046001600160a01b031690565b60048054604080516020601f60026000196101006001881615020190951694909404938401819004810282018101909252828152606093909290918301828280156104a75780601f1061047c576101008083540402835291602001916104a7565b60006104c56106e1610818565b8461057885604051806060016040528060258152602001610ec4602591396001600061070b610818565b6001600160a01b03908116825260208083019390935260409182016000908120918d16815292529020549190610a63565b60006104c5610749610818565b8484610908565b60055461010090046001600160a01b0316331461076c57600080fd5b6106048282610c57565b6001600160a01b03918216600090815260016020908152604080832093909416825291909152205490565b60055460009061010090046001600160a01b031633146107c057600080fd5b6001600160a01b0382166107d357600080fd5b6005546107ee9061010090046001600160a01b031683610604565b50600580546001600160a01b03831661010002610100600160a81b03199091161790556001919050565b3390565b6001600160a01b0383166108615760405162461bcd60e51b8152600401808060200182810382526024815260200180610ea06024913960400191505060405180910390fd5b6001600160a01b0382166108a65760405162461bcd60e51b8152600401808060200182810382526022815260200180610dea6022913960400191505060405180910390fd5b6001600160a01b03808416600081815260016020908152604080832094871680845294825291829020859055815185815291517f8c5be1e5ebec7d5bd14f71427d1e84f3dd0314c0f7b2291e5b200ac8c7c3b9259281900390910190a3505050565b6001600160a01b03831661094d5760405162461bcd60e51b8152600401808060200182810382526025815260200180610e7b6025913960400191505060405180910390fd5b6001600160a01b0382166109925760405162461bcd60e51b8152600401808060200182810382526023815260200180610da56023913960400191505060405180910390fd5b61099d8383836104f5565b6109da81604051806060016040528060268152602001610e0c602691396001600160a01b0386166000908152602081905260409020549190610a63565b6001600160a01b038085166000908152602081905260408082209390935590841681522054610a099082610afa565b6001600160a01b038084166000818152602081815260409182902094909455805185815290519193928716927fddf252ad1be2c89b69c2b068fc378daa952ba7f163c4a11628f55a4df523b3ef92918290030190a3505050565b60008184841115610af25760405162461bcd60e51b81526004018080602001828103825283818151815260200191508051906020019080838360005b83811015610ab7578181015183820152602001610a9f565b50505050905090810190601f168015610ae45780820380516001836020036101000a031916815260200191505b509250505060405180910390fd5b505050900390565b600082820183811015610b54576040805162461bcd60e51b815260206004820152601b60248201527f536166654d6174683a206164646974696f6e206f766572666c6f770000000000604482015290519081900360640190fd5b9392505050565b6001600160a01b038216610ba05760405162461bcd60e51b8152600401808060200182810382526021815260200180610e5a6021913960400191505060405180910390fd5b610bac826000836104f5565b610be981604051806060016040528060228152602001610dc8602291396001600160a01b0385166000908152602081905260409020549190610a63565b6001600160a01b038316600090815260208190526040902055600254610c0f9082610d47565b6002556040805182815290516000916001600160a01b038516917fddf252ad1be2c89b69c2b068fc378daa952ba7f163c4a11628f55a4df523b3ef9181900360200190a35050565b6001600160a01b038216610cb2576040805162461bcd60e51b815260206004820152601f60248201527f45524332303a206d696e7420746f20746865207a65726f206164647265737300604482015290519081900360640190fd5b610cbe600083836104f5565b600254610ccb9082610afa565b6002556001600160a01b038216600090815260208190526040902054610cf19082610afa565b6001600160a01b0383166000818152602081815260408083209490945583518581529351929391927fddf252ad1be2c89b69c2b068fc378daa952ba7f163c4a11628f55a4df523b3ef9281900390910190a35050565b600082821115610d9e576040805162461bcd60e51b815260206004820152601e60248201527f536166654d6174683a207375627472616374696f6e206f766572666c6f770000604482015290519081900360640190fd5b5090039056fe45524332303a207472616e7366657220746f20746865207a65726f206164647265737345524332303a206275726e20616d6f756e7420657863656564732062616c616e636545524332303a20617070726f766520746f20746865207a65726f206164647265737345524332303a207472616e7366657220616d6f756e7420657863656564732062616c616e636545524332303a207472616e7366657220616d6f756e74206578636565647320616c6c6f77616e636545524332303a206275726e2066726f6d20746865207a65726f206164647265737345524332303a207472616e736665722066726f6d20746865207a65726f206164647265737345524332303a20617070726f76652066726f6d20746865207a65726f206164647265737345524332303a2064656372656173656420616c6c6f77616e63652062656c6f77207a65726fa2646970667358221220c881513fca5a75d47e02fc1c04920461b43ce001b23b37bd2a0244cb5b4737ce64736f6c63430007060033a2646970667358221220925d902c68047a3b249fae59f9bb0280f45f6cb9db59b5071c2a8611007fb88564736f6c63430007060033",
  "devdoc": {
    "kind": "dev",
    "methods": {
      "transferOwnership(address)": {
        "details": "Allows the current owner to transfer control of the contract to a newOwner.",
        "params": {
          "_newOwner": "The address to transfer ownership to."
        }
      }
    },
    "version": 1
  },
  "userdoc": {
    "kind": "user",
    "methods": {},
    "version": 1
  },
  "storageLayout": {
    "storage": [
      {
        "astId": 7578,
        "contract": "contracts/turbo/FuturesMarketFactoryV3.sol:FuturesMarketFactoryV3",
        "label": "owner",
        "offset": 0,
        "slot": "0",
        "type": "t_address"
      },
      {
        "astId": 14683,
        "contract": "contracts/turbo/FuturesMarketFactoryV3.sol:FuturesMarketFactoryV3",
        "label": "collateral",
        "offset": 0,
        "slot": "1",
        "type": "t_contract(IERC20Full)7410"
      },
      {
        "astId": 14685,
        "contract": "contracts/turbo/FuturesMarketFactoryV3.sol:FuturesMarketFactoryV3",
        "label": "feePot",
        "offset": 0,
        "slot": "2",
        "type": "t_contract(FeePot)17558"
      },
      {
        "astId": 14687,
        "contract": "contracts/turbo/FuturesMarketFactoryV3.sol:FuturesMarketFactoryV3",
        "label": "stakerFee",
        "offset": 0,
        "slot": "3",
        "type": "t_uint256"
      },
      {
        "astId": 14689,
        "contract": "contracts/turbo/FuturesMarketFactoryV3.sol:FuturesMarketFactoryV3",
        "label": "settlementFee",
        "offset": 0,
        "slot": "4",
        "type": "t_uint256"
      },
      {
        "astId": 14691,
        "contract": "contracts/turbo/FuturesMarketFactoryV3.sol:FuturesMarketFactoryV3",
        "label": "protocolFee",
        "offset": 0,
        "slot": "5",
        "type": "t_uint256"
      },
      {
        "astId": 14693,
        "contract": "contracts/turbo/FuturesMarketFactoryV3.sol:FuturesMarketFactoryV3",
        "label": "protocol",
        "offset": 0,
        "slot": "6",
        "type": "t_address"
      },
      {
        "astId": 14696,
        "contract": "contracts/turbo/FuturesMarketFactoryV3.sol:FuturesMarketFactoryV3",
        "label": "accumulatedProtocolFee",
        "offset": 0,
        "slot": "7",
        "type": "t_uint256"
      },
      {
        "astId": 14700,
        "contract": "contracts/turbo/FuturesMarketFactoryV3.sol:FuturesMarketFactoryV3",
        "label": "accumulatedSettlementFees",
        "offset": 0,
        "slot": "8",
        "type": "t_mapping(t_address,t_uint256)"
      },
      {
        "astId": 14702,
        "contract": "contracts/turbo/FuturesMarketFactoryV3.sol:FuturesMarketFactoryV3",
        "label": "shareFactor",
        "offset": 0,
        "slot": "9",
        "type": "t_uint256"
      },
      {
        "astId": 14730,
        "contract": "contracts/turbo/FuturesMarketFactoryV3.sol:FuturesMarketFactoryV3",
        "label": "markets",
        "offset": 0,
        "slot": "10",
        "type": "t_array(t_struct(Market)14727_storage)dyn_storage"
      },
      {
        "astId": 20142,
        "contract": "contracts/turbo/FuturesMarketFactoryV3.sol:FuturesMarketFactoryV3",
        "label": "marketGroups",
        "offset": 0,
        "slot": "11",
        "type": "t_mapping(t_uint256,t_struct(MarketGroup)20138_storage)"
      },
      {
        "astId": 20145,
        "contract": "contracts/turbo/FuturesMarketFactoryV3.sol:FuturesMarketFactoryV3",
        "label": "listOfMarketGroups",
        "offset": 0,
        "slot": "12",
        "type": "t_array(t_uint256)dyn_storage"
      },
      {
        "astId": 7532,
        "contract": "contracts/turbo/FuturesMarketFactoryV3.sol:FuturesMarketFactoryV3",
        "label": "linkNode",
        "offset": 0,
        "slot": "13",
        "type": "t_address"
      },
      {
        "astId": 9124,
        "contract": "contracts/turbo/FuturesMarketFactoryV3.sol:FuturesMarketFactoryV3",
        "label": "version",
        "offset": 0,
        "slot": "14",
        "type": "t_string_storage"
      }
    ],
    "types": {
      "t_address": {
        "encoding": "inplace",
        "label": "address",
        "numberOfBytes": "20"
      },
      "t_array(t_contract(OwnedERC20)24174)dyn_storage": {
        "base": "t_contract(OwnedERC20)24174",
        "encoding": "dynamic_array",
        "label": "contract OwnedERC20[]",
        "numberOfBytes": "32"
      },
      "t_array(t_string_storage)dyn_storage": {
        "base": "t_string_storage",
        "encoding": "dynamic_array",
        "label": "string[]",
        "numberOfBytes": "32"
      },
      "t_array(t_struct(Market)14727_storage)dyn_storage": {
        "base": "t_struct(Market)14727_storage",
        "encoding": "dynamic_array",
        "label": "struct AbstractMarketFactoryV3.Market[]",
        "numberOfBytes": "32"
      },
      "t_array(t_uint256)dyn_storage": {
        "base": "t_uint256",
        "encoding": "dynamic_array",
        "label": "uint256[]",
        "numberOfBytes": "32"
      },
      "t_bool": {
        "encoding": "inplace",
        "label": "bool",
        "numberOfBytes": "1"
      },
      "t_contract(FeePot)17558": {
        "encoding": "inplace",
        "label": "contract FeePot",
        "numberOfBytes": "20"
      },
      "t_contract(IERC20Full)7410": {
        "encoding": "inplace",
        "label": "contract IERC20Full",
        "numberOfBytes": "20"
      },
      "t_contract(OwnedERC20)24174": {
        "encoding": "inplace",
        "label": "contract OwnedERC20",
        "numberOfBytes": "20"
      },
      "t_enum(GroupStatus)20117": {
        "encoding": "inplace",
        "label": "enum Grouped.GroupStatus",
        "numberOfBytes": "1"
      },
      "t_mapping(t_address,t_uint256)": {
        "encoding": "mapping",
        "key": "t_address",
        "label": "mapping(address => uint256)",
        "numberOfBytes": "32",
        "value": "t_uint256"
      },
      "t_mapping(t_uint256,t_struct(MarketGroup)20138_storage)": {
        "encoding": "mapping",
        "key": "t_uint256",
        "label": "mapping(uint256 => struct Grouped.MarketGroup)",
        "numberOfBytes": "32",
        "value": "t_struct(MarketGroup)20138_storage"
      },
      "t_string_storage": {
        "encoding": "bytes",
        "label": "string",
        "numberOfBytes": "32"
      },
      "t_struct(Market)14727_storage": {
        "encoding": "inplace",
        "label": "struct AbstractMarketFactoryV3.Market",
        "members": [
          {
            "astId": 14704,
            "contract": "contracts/turbo/FuturesMarketFactoryV3.sol:FuturesMarketFactoryV3",
            "label": "settlementAddress",
            "offset": 0,
            "slot": "0",
            "type": "t_address"
          },
          {
            "astId": 14707,
            "contract": "contracts/turbo/FuturesMarketFactoryV3.sol:FuturesMarketFactoryV3",
            "label": "shareTokens",
            "offset": 0,
            "slot": "1",
            "type": "t_array(t_contract(OwnedERC20)24174)dyn_storage"
          },
          {
            "astId": 14709,
            "contract": "contracts/turbo/FuturesMarketFactoryV3.sol:FuturesMarketFactoryV3",
            "label": "winner",
            "offset": 0,
            "slot": "2",
            "type": "t_contract(OwnedERC20)24174"
          },
          {
            "astId": 14711,
            "contract": "contracts/turbo/FuturesMarketFactoryV3.sol:FuturesMarketFactoryV3",
            "label": "winnerIndex",
            "offset": 0,
            "slot": "3",
            "type": "t_uint256"
          },
          {
            "astId": 14713,
            "contract": "contracts/turbo/FuturesMarketFactoryV3.sol:FuturesMarketFactoryV3",
            "label": "settlementFee",
            "offset": 0,
            "slot": "4",
            "type": "t_uint256"
          },
          {
            "astId": 14715,
            "contract": "contracts/turbo/FuturesMarketFactoryV3.sol:FuturesMarketFactoryV3",
            "label": "protocolFee",
            "offset": 0,
            "slot": "5",
            "type": "t_uint256"
          },
          {
            "astId": 14717,
            "contract": "contracts/turbo/FuturesMarketFactoryV3.sol:FuturesMarketFactoryV3",
            "label": "stakerFee",
            "offset": 0,
            "slot": "6",
            "type": "t_uint256"
          },
          {
            "astId": 14719,
            "contract": "contracts/turbo/FuturesMarketFactoryV3.sol:FuturesMarketFactoryV3",
            "label": "creationTimestamp",
            "offset": 0,
            "slot": "7",
            "type": "t_uint256"
          },
          {
            "astId": 14721,
            "contract": "contracts/turbo/FuturesMarketFactoryV3.sol:FuturesMarketFactoryV3",
            "label": "resolutionTimestamp",
            "offset": 0,
            "slot": "8",
            "type": "t_uint256"
          },
          {
            "astId": 14724,
            "contract": "contracts/turbo/FuturesMarketFactoryV3.sol:FuturesMarketFactoryV3",
            "label": "initialOdds",
            "offset": 0,
            "slot": "9",
            "type": "t_array(t_uint256)dyn_storage"
          },
          {
            "astId": 14726,
            "contract": "contracts/turbo/FuturesMarketFactoryV3.sol:FuturesMarketFactoryV3",
            "label": "active",
            "offset": 0,
            "slot": "10",
            "type": "t_bool"
          }
        ],
        "numberOfBytes": "352"
      },
      "t_struct(MarketGroup)20138_storage": {
        "encoding": "inplace",
        "label": "struct Grouped.MarketGroup",
        "members": [
          {
            "astId": 20119,
            "contract": "contracts/turbo/FuturesMarketFactoryV3.sol:FuturesMarketFactoryV3",
            "label": "status",
            "offset": 0,
            "slot": "0",
            "type": "t_enum(GroupStatus)20117"
          },
          {
            "astId": 20121,
            "contract": "contracts/turbo/FuturesMarketFactoryV3.sol:FuturesMarketFactoryV3",
            "label": "name",
            "offset": 0,
            "slot": "1",
            "type": "t_string_storage"
          },
          {
            "astId": 20124,
            "contract": "contracts/turbo/FuturesMarketFactoryV3.sol:FuturesMarketFactoryV3",
            "label": "markets",
            "offset": 0,
            "slot": "2",
            "type": "t_array(t_uint256)dyn_storage"
          },
          {
            "astId": 20127,
            "contract": "contracts/turbo/FuturesMarketFactoryV3.sol:FuturesMarketFactoryV3",
            "label": "marketNames",
            "offset": 0,
            "slot": "3",
            "type": "t_array(t_string_storage)dyn_storage"
          },
          {
            "astId": 20129,
            "contract": "contracts/turbo/FuturesMarketFactoryV3.sol:FuturesMarketFactoryV3",
            "label": "invalidMarket",
            "offset": 0,
            "slot": "4",
            "type": "t_uint256"
          },
          {
            "astId": 20131,
            "contract": "contracts/turbo/FuturesMarketFactoryV3.sol:FuturesMarketFactoryV3",
            "label": "invalidMarketName",
            "offset": 0,
            "slot": "5",
            "type": "t_string_storage"
          },
          {
            "astId": 20133,
            "contract": "contracts/turbo/FuturesMarketFactoryV3.sol:FuturesMarketFactoryV3",
            "label": "endTime",
            "offset": 0,
            "slot": "6",
            "type": "t_uint256"
          },
          {
            "astId": 20135,
            "contract": "contracts/turbo/FuturesMarketFactoryV3.sol:FuturesMarketFactoryV3",
            "label": "category",
            "offset": 0,
            "slot": "7",
            "type": "t_string_storage"
          },
          {
            "astId": 20137,
            "contract": "contracts/turbo/FuturesMarketFactoryV3.sol:FuturesMarketFactoryV3",
            "label": "winningMarketIndex",
            "offset": 0,
            "slot": "8",
            "type": "t_uint256"
          }
        ],
        "numberOfBytes": "288"
      },
      "t_uint256": {
        "encoding": "inplace",
        "label": "uint256",
        "numberOfBytes": "32"
      }
    }
  }
}