{
  "address": "0x69aA6d9a98C5ac818124087f76e2F09Ec0DA24fA",
  "abi": [
    {
      "inputs": [],
      "stateMutability": "nonpayable",
      "type": "constructor"
    },
    {
      "inputs": [
        {
          "internalType": "address",
          "name": "_marketFactory",
          "type": "address"
        },
        {
          "internalType": "contract AMMFactory",
          "name": "_ammFactory",
          "type": "address"
        },
        {
          "internalType": "uint256",
          "name": "_groupId",
          "type": "uint256"
        }
      ],
      "name": "buildDynamicGroupBundle",
      "outputs": [
        {
          "components": [
            {
              "internalType": "uint256",
              "name": "id",
              "type": "uint256"
            },
            {
              "internalType": "enum Grouped.GroupStatus",
              "name": "status",
              "type": "uint8"
            },
            {
              "components": [
                {
                  "internalType": "contract AbstractMarketFactoryV3",
                  "name": "factory",
                  "type": "address"
                },
                {
                  "internalType": "uint256",
                  "name": "marketId",
                  "type": "uint256"
                },
                {
                  "components": [
                    {
                      "internalType": "address",
                      "name": "addr",
                      "type": "address"
                    },
                    {
                      "internalType": "uint256[]",
                      "name": "tokenRatios",
                      "type": "uint256[]"
                    },
                    {
                      "internalType": "uint256[]",
                      "name": "balances",
                      "type": "uint256[]"
                    },
                    {
                      "internalType": "uint256[]",
                      "name": "weights",
                      "type": "uint256[]"
                    },
                    {
                      "internalType": "uint256",
                      "name": "swapFee",
                      "type": "uint256"
                    },
                    {
                      "internalType": "uint256",
                      "name": "totalSupply",
                      "type": "uint256"
                    }
                  ],
                  "internalType": "struct Fetcher.PoolBundle",
                  "name": "pool",
                  "type": "tuple"
                },
                {
                  "internalType": "contract OwnedERC20",
                  "name": "winner",
                  "type": "address"
                }
              ],
              "internalType": "struct Fetcher.DynamicMarketBundle[]",
              "name": "markets",
              "type": "tuple[]"
            },
            {
              "components": [
                {
                  "internalType": "contract AbstractMarketFactoryV3",
                  "name": "factory",
                  "type": "address"
                },
                {
                  "internalType": "uint256",
                  "name": "marketId",
                  "type": "uint256"
                },
                {
                  "components": [
                    {
                      "internalType": "address",
                      "name": "addr",
                      "type": "address"
                    },
                    {
                      "internalType": "uint256[]",
                      "name": "tokenRatios",
                      "type": "uint256[]"
                    },
                    {
                      "internalType": "uint256[]",
                      "name": "balances",
                      "type": "uint256[]"
                    },
                    {
                      "internalType": "uint256[]",
                      "name": "weights",
                      "type": "uint256[]"
                    },
                    {
                      "internalType": "uint256",
                      "name": "swapFee",
                      "type": "uint256"
                    },
                    {
                      "internalType": "uint256",
                      "name": "totalSupply",
                      "type": "uint256"
                    }
                  ],
                  "internalType": "struct Fetcher.PoolBundle",
                  "name": "pool",
                  "type": "tuple"
                },
                {
                  "internalType": "contract OwnedERC20",
                  "name": "winner",
                  "type": "address"
                }
              ],
              "internalType": "struct Fetcher.DynamicMarketBundle",
              "name": "invalidMarket",
              "type": "tuple"
            }
          ],
          "internalType": "struct GroupFetcher.DynamicGroupBundle",
          "name": "_bundle",
          "type": "tuple"
        }
      ],
      "stateMutability": "view",
      "type": "function"
    },
    {
      "inputs": [
        {
          "internalType": "address",
          "name": "_marketFactory",
          "type": "address"
        },
        {
          "internalType": "contract AMMFactory",
          "name": "_ammFactory",
          "type": "address"
        },
        {
          "internalType": "contract MasterChef",
          "name": "_masterChef",
          "type": "address"
        },
        {
          "internalType": "uint256",
          "name": "_groupId",
          "type": "uint256"
        }
      ],
      "name": "buildStaticGroupBundle",
      "outputs": [
        {
          "components": [
            {
              "internalType": "uint256",
              "name": "id",
              "type": "uint256"
            },
            {
              "internalType": "string",
              "name": "name",
              "type": "string"
            },
            {
              "components": [
                {
                  "internalType": "contract AbstractMarketFactoryV3",
                  "name": "factory",
                  "type": "address"
                },
                {
                  "internalType": "uint256",
                  "name": "marketId",
                  "type": "uint256"
                },
                {
                  "components": [
                    {
                      "internalType": "address",
                      "name": "addr",
                      "type": "address"
                    },
                    {
                      "internalType": "uint256[]",
                      "name": "tokenRatios",
                      "type": "uint256[]"
                    },
                    {
                      "internalType": "uint256[]",
                      "name": "balances",
                      "type": "uint256[]"
                    },
                    {
                      "internalType": "uint256[]",
                      "name": "weights",
                      "type": "uint256[]"
                    },
                    {
                      "internalType": "uint256",
                      "name": "swapFee",
                      "type": "uint256"
                    },
                    {
                      "internalType": "uint256",
                      "name": "totalSupply",
                      "type": "uint256"
                    }
                  ],
                  "internalType": "struct Fetcher.PoolBundle",
                  "name": "pool",
                  "type": "tuple"
                },
                {
                  "components": [
                    {
                      "internalType": "uint256",
                      "name": "beginTimestamp",
                      "type": "uint256"
                    },
                    {
                      "internalType": "uint256",
                      "name": "endTimestamp",
                      "type": "uint256"
                    },
                    {
                      "internalType": "uint256",
                      "name": "earlyDepositEndTimestamp",
                      "type": "uint256"
                    },
                    {
                      "internalType": "uint256",
                      "name": "totalRewardsAccrued",
                      "type": "uint256"
                    },
                    {
                      "internalType": "bool",
                      "name": "created",
                      "type": "bool"
                    }
                  ],
                  "internalType": "struct MasterChef.PoolStatusInfo",
                  "name": "rewards",
                  "type": "tuple"
                },
                {
                  "internalType": "contract OwnedERC20[]",
                  "name": "shareTokens",
                  "type": "address[]"
                },
                {
                  "internalType": "uint256",
                  "name": "creationTimestamp",
                  "type": "uint256"
                },
                {
                  "internalType": "contract OwnedERC20",
                  "name": "winner",
                  "type": "address"
                },
                {
                  "internalType": "uint256[]",
                  "name": "initialOdds",
                  "type": "uint256[]"
                }
              ],
              "internalType": "struct Fetcher.StaticMarketBundle[]",
              "name": "markets",
              "type": "tuple[]"
            },
            {
              "internalType": "string[]",
              "name": "marketNames",
              "type": "string[]"
            },
            {
              "components": [
                {
                  "internalType": "contract AbstractMarketFactoryV3",
                  "name": "factory",
                  "type": "address"
                },
                {
                  "internalType": "uint256",
                  "name": "marketId",
                  "type": "uint256"
                },
                {
                  "components": [
                    {
                      "internalType": "address",
                      "name": "addr",
                      "type": "address"
                    },
                    {
                      "internalType": "uint256[]",
                      "name": "tokenRatios",
                      "type": "uint256[]"
                    },
                    {
                      "internalType": "uint256[]",
                      "name": "balances",
                      "type": "uint256[]"
                    },
                    {
                      "internalType": "uint256[]",
                      "name": "weights",
                      "type": "uint256[]"
                    },
                    {
                      "internalType": "uint256",
                      "name": "swapFee",
                      "type": "uint256"
                    },
                    {
                      "internalType": "uint256",
                      "name": "totalSupply",
                      "type": "uint256"
                    }
                  ],
                  "internalType": "struct Fetcher.PoolBundle",
                  "name": "pool",
                  "type": "tuple"
                },
                {
                  "components": [
                    {
                      "internalType": "uint256",
                      "name": "beginTimestamp",
                      "type": "uint256"
                    },
                    {
                      "internalType": "uint256",
                      "name": "endTimestamp",
                      "type": "uint256"
                    },
                    {
                      "internalType": "uint256",
                      "name": "earlyDepositEndTimestamp",
                      "type": "uint256"
                    },
                    {
                      "internalType": "uint256",
                      "name": "totalRewardsAccrued",
                      "type": "uint256"
                    },
                    {
                      "internalType": "bool",
                      "name": "created",
                      "type": "bool"
                    }
                  ],
                  "internalType": "struct MasterChef.PoolStatusInfo",
                  "name": "rewards",
                  "type": "tuple"
                },
                {
                  "internalType": "contract OwnedERC20[]",
                  "name": "shareTokens",
                  "type": "address[]"
                },
                {
                  "internalType": "uint256",
                  "name": "creationTimestamp",
                  "type": "uint256"
                },
                {
                  "internalType": "contract OwnedERC20",
                  "name": "winner",
                  "type": "address"
                },
                {
                  "internalType": "uint256[]",
                  "name": "initialOdds",
                  "type": "uint256[]"
                }
              ],
              "internalType": "struct Fetcher.StaticMarketBundle",
              "name": "invalidMarket",
              "type": "tuple"
            },
            {
              "internalType": "string",
              "name": "invalidMarketName",
              "type": "string"
            },
            {
              "internalType": "uint256",
              "name": "endTime",
              "type": "uint256"
            },
            {
              "internalType": "string",
              "name": "category",
              "type": "string"
            },
            {
              "internalType": "enum Grouped.GroupStatus",
              "name": "status",
              "type": "uint8"
            }
          ],
          "internalType": "struct GroupFetcher.StaticGroupBundle",
          "name": "_bundle",
          "type": "tuple"
        }
      ],
      "stateMutability": "view",
      "type": "function"
    },
    {
      "inputs": [
        {
          "internalType": "address",
          "name": "_marketFactory",
          "type": "address"
        },
        {
          "internalType": "contract AMMFactory",
          "name": "_ammFactory",
          "type": "address"
        },
        {
          "internalType": "uint256",
          "name": "_offset",
          "type": "uint256"
        },
        {
          "internalType": "uint256",
          "name": "_total",
          "type": "uint256"
        }
      ],
      "name": "fetchDynamic",
      "outputs": [
        {
          "components": [
            {
              "internalType": "uint256",
              "name": "id",
              "type": "uint256"
            },
            {
              "internalType": "enum Grouped.GroupStatus",
              "name": "status",
              "type": "uint8"
            },
            {
              "components": [
                {
                  "internalType": "contract AbstractMarketFactoryV3",
                  "name": "factory",
                  "type": "address"
                },
                {
                  "internalType": "uint256",
                  "name": "marketId",
                  "type": "uint256"
                },
                {
                  "components": [
                    {
                      "internalType": "address",
                      "name": "addr",
                      "type": "address"
                    },
                    {
                      "internalType": "uint256[]",
                      "name": "tokenRatios",
                      "type": "uint256[]"
                    },
                    {
                      "internalType": "uint256[]",
                      "name": "balances",
                      "type": "uint256[]"
                    },
                    {
                      "internalType": "uint256[]",
                      "name": "weights",
                      "type": "uint256[]"
                    },
                    {
                      "internalType": "uint256",
                      "name": "swapFee",
                      "type": "uint256"
                    },
                    {
                      "internalType": "uint256",
                      "name": "totalSupply",
                      "type": "uint256"
                    }
                  ],
                  "internalType": "struct Fetcher.PoolBundle",
                  "name": "pool",
                  "type": "tuple"
                },
                {
                  "internalType": "contract OwnedERC20",
                  "name": "winner",
                  "type": "address"
                }
              ],
              "internalType": "struct Fetcher.DynamicMarketBundle[]",
              "name": "markets",
              "type": "tuple[]"
            },
            {
              "components": [
                {
                  "internalType": "contract AbstractMarketFactoryV3",
                  "name": "factory",
                  "type": "address"
                },
                {
                  "internalType": "uint256",
                  "name": "marketId",
                  "type": "uint256"
                },
                {
                  "components": [
                    {
                      "internalType": "address",
                      "name": "addr",
                      "type": "address"
                    },
                    {
                      "internalType": "uint256[]",
                      "name": "tokenRatios",
                      "type": "uint256[]"
                    },
                    {
                      "internalType": "uint256[]",
                      "name": "balances",
                      "type": "uint256[]"
                    },
                    {
                      "internalType": "uint256[]",
                      "name": "weights",
                      "type": "uint256[]"
                    },
                    {
                      "internalType": "uint256",
                      "name": "swapFee",
                      "type": "uint256"
                    },
                    {
                      "internalType": "uint256",
                      "name": "totalSupply",
                      "type": "uint256"
                    }
                  ],
                  "internalType": "struct Fetcher.PoolBundle",
                  "name": "pool",
                  "type": "tuple"
                },
                {
                  "internalType": "contract OwnedERC20",
                  "name": "winner",
                  "type": "address"
                }
              ],
              "internalType": "struct Fetcher.DynamicMarketBundle",
              "name": "invalidMarket",
              "type": "tuple"
            }
          ],
          "internalType": "struct GroupFetcher.DynamicGroupBundle[]",
          "name": "_bundles",
          "type": "tuple[]"
        },
        {
          "internalType": "uint256",
          "name": "_lowestGroupIndex",
          "type": "uint256"
        }
      ],
      "stateMutability": "view",
      "type": "function"
    },
    {
      "inputs": [
        {
          "internalType": "address",
          "name": "_marketFactory",
          "type": "address"
        },
        {
          "internalType": "contract AMMFactory",
          "name": "_ammFactory",
          "type": "address"
        },
        {
          "internalType": "contract MasterChef",
          "name": "_masterChef",
          "type": "address"
        },
        {
          "internalType": "uint256",
          "name": "_offset",
          "type": "uint256"
        },
        {
          "internalType": "uint256",
          "name": "_total",
          "type": "uint256"
        }
      ],
      "name": "fetchInitial",
      "outputs": [
        {
          "components": [
            {
              "components": [
                {
                  "internalType": "uint256",
                  "name": "shareFactor",
                  "type": "uint256"
                },
                {
                  "internalType": "uint256",
                  "name": "stakerFee",
                  "type": "uint256"
                },
                {
                  "internalType": "uint256",
                  "name": "settlementFee",
                  "type": "uint256"
                },
                {
                  "internalType": "uint256",
                  "name": "protocolFee",
                  "type": "uint256"
                },
                {
                  "internalType": "contract FeePot",
                  "name": "feePot",
                  "type": "address"
                },
                {
                  "components": [
                    {
                      "internalType": "address",
                      "name": "addr",
                      "type": "address"
                    },
                    {
                      "internalType": "string",
                      "name": "symbol",
                      "type": "string"
                    },
                    {
                      "internalType": "uint256",
                      "name": "decimals",
                      "type": "uint256"
                    }
                  ],
                  "internalType": "struct Fetcher.CollateralBundle",
                  "name": "collateral",
                  "type": "tuple"
                },
                {
                  "internalType": "uint256",
                  "name": "marketCount",
                  "type": "uint256"
                }
              ],
              "internalType": "struct Fetcher.MarketFactoryBundle",
              "name": "super",
              "type": "tuple"
            }
          ],
          "internalType": "struct GroupFetcher.SpecificMarketFactoryBundle",
          "name": "_marketFactoryBundle",
          "type": "tuple"
        },
        {
          "components": [
            {
              "internalType": "uint256",
              "name": "id",
              "type": "uint256"
            },
            {
              "internalType": "string",
              "name": "name",
              "type": "string"
            },
            {
              "components": [
                {
                  "internalType": "contract AbstractMarketFactoryV3",
                  "name": "factory",
                  "type": "address"
                },
                {
                  "internalType": "uint256",
                  "name": "marketId",
                  "type": "uint256"
                },
                {
                  "components": [
                    {
                      "internalType": "address",
                      "name": "addr",
                      "type": "address"
                    },
                    {
                      "internalType": "uint256[]",
                      "name": "tokenRatios",
                      "type": "uint256[]"
                    },
                    {
                      "internalType": "uint256[]",
                      "name": "balances",
                      "type": "uint256[]"
                    },
                    {
                      "internalType": "uint256[]",
                      "name": "weights",
                      "type": "uint256[]"
                    },
                    {
                      "internalType": "uint256",
                      "name": "swapFee",
                      "type": "uint256"
                    },
                    {
                      "internalType": "uint256",
                      "name": "totalSupply",
                      "type": "uint256"
                    }
                  ],
                  "internalType": "struct Fetcher.PoolBundle",
                  "name": "pool",
                  "type": "tuple"
                },
                {
                  "components": [
                    {
                      "internalType": "uint256",
                      "name": "beginTimestamp",
                      "type": "uint256"
                    },
                    {
                      "internalType": "uint256",
                      "name": "endTimestamp",
                      "type": "uint256"
                    },
                    {
                      "internalType": "uint256",
                      "name": "earlyDepositEndTimestamp",
                      "type": "uint256"
                    },
                    {
                      "internalType": "uint256",
                      "name": "totalRewardsAccrued",
                      "type": "uint256"
                    },
                    {
                      "internalType": "bool",
                      "name": "created",
                      "type": "bool"
                    }
                  ],
                  "internalType": "struct MasterChef.PoolStatusInfo",
                  "name": "rewards",
                  "type": "tuple"
                },
                {
                  "internalType": "contract OwnedERC20[]",
                  "name": "shareTokens",
                  "type": "address[]"
                },
                {
                  "internalType": "uint256",
                  "name": "creationTimestamp",
                  "type": "uint256"
                },
                {
                  "internalType": "contract OwnedERC20",
                  "name": "winner",
                  "type": "address"
                },
                {
                  "internalType": "uint256[]",
                  "name": "initialOdds",
                  "type": "uint256[]"
                }
              ],
              "internalType": "struct Fetcher.StaticMarketBundle[]",
              "name": "markets",
              "type": "tuple[]"
            },
            {
              "internalType": "string[]",
              "name": "marketNames",
              "type": "string[]"
            },
            {
              "components": [
                {
                  "internalType": "contract AbstractMarketFactoryV3",
                  "name": "factory",
                  "type": "address"
                },
                {
                  "internalType": "uint256",
                  "name": "marketId",
                  "type": "uint256"
                },
                {
                  "components": [
                    {
                      "internalType": "address",
                      "name": "addr",
                      "type": "address"
                    },
                    {
                      "internalType": "uint256[]",
                      "name": "tokenRatios",
                      "type": "uint256[]"
                    },
                    {
                      "internalType": "uint256[]",
                      "name": "balances",
                      "type": "uint256[]"
                    },
                    {
                      "internalType": "uint256[]",
                      "name": "weights",
                      "type": "uint256[]"
                    },
                    {
                      "internalType": "uint256",
                      "name": "swapFee",
                      "type": "uint256"
                    },
                    {
                      "internalType": "uint256",
                      "name": "totalSupply",
                      "type": "uint256"
                    }
                  ],
                  "internalType": "struct Fetcher.PoolBundle",
                  "name": "pool",
                  "type": "tuple"
                },
                {
                  "components": [
                    {
                      "internalType": "uint256",
                      "name": "beginTimestamp",
                      "type": "uint256"
                    },
                    {
                      "internalType": "uint256",
                      "name": "endTimestamp",
                      "type": "uint256"
                    },
                    {
                      "internalType": "uint256",
                      "name": "earlyDepositEndTimestamp",
                      "type": "uint256"
                    },
                    {
                      "internalType": "uint256",
                      "name": "totalRewardsAccrued",
                      "type": "uint256"
                    },
                    {
                      "internalType": "bool",
                      "name": "created",
                      "type": "bool"
                    }
                  ],
                  "internalType": "struct MasterChef.PoolStatusInfo",
                  "name": "rewards",
                  "type": "tuple"
                },
                {
                  "internalType": "contract OwnedERC20[]",
                  "name": "shareTokens",
                  "type": "address[]"
                },
                {
                  "internalType": "uint256",
                  "name": "creationTimestamp",
                  "type": "uint256"
                },
                {
                  "internalType": "contract OwnedERC20",
                  "name": "winner",
                  "type": "address"
                },
                {
                  "internalType": "uint256[]",
                  "name": "initialOdds",
                  "type": "uint256[]"
                }
              ],
              "internalType": "struct Fetcher.StaticMarketBundle",
              "name": "invalidMarket",
              "type": "tuple"
            },
            {
              "internalType": "string",
              "name": "invalidMarketName",
              "type": "string"
            },
            {
              "internalType": "uint256",
              "name": "endTime",
              "type": "uint256"
            },
            {
              "internalType": "string",
              "name": "category",
              "type": "string"
            },
            {
              "internalType": "enum Grouped.GroupStatus",
              "name": "status",
              "type": "uint8"
            }
          ],
          "internalType": "struct GroupFetcher.StaticGroupBundle[]",
          "name": "_groupBundles",
          "type": "tuple[]"
        },
        {
          "internalType": "uint256",
          "name": "_lowestGroupIndex",
          "type": "uint256"
        }
      ],
      "stateMutability": "view",
      "type": "function"
    },
    {
      "inputs": [],
      "name": "marketType",
      "outputs": [
        {
          "internalType": "string",
          "name": "",
          "type": "string"
        }
      ],
      "stateMutability": "view",
      "type": "function"
    },
    {
      "inputs": [],
      "name": "version",
      "outputs": [
        {
          "internalType": "string",
          "name": "",
          "type": "string"
        }
      ],
      "stateMutability": "view",
      "type": "function"
    }
  ],
  "transactionHash": "0x7e417a520e9753ef095f1ebcfedf9c82b6dac9a7e8683067eda90b70c967ac36",
  "args": [],
  "solcInputHash": "24e507bd9a2a8257d5adc7c27db43d5a",
  "bytecode": "0x60806040523480156200001157600080fd5b5060408051808201825260078152664675747572657360c81b60208083019182528351808501909452600384526215109160ea1b9084015281519192916200005c916000916200007b565b508051620000729060019060208401906200007b565b50505062000127565b828054600181600116156101000203166002900490600052602060002090601f016020900481019282620000b35760008555620000fe565b82601f10620000ce57805160ff1916838001178555620000fe565b82800160010185558215620000fe579182015b82811115620000fe578251825591602001919060010190620000e1565b506200010c92915062000110565b5090565b5b808211156200010c576000815560010162000111565b61243080620001376000396000f3fe608060405234801561001057600080fd5b50600436106100625760003560e01c806322254b88146100675780632dd489091461009257806333cbe4e8146100a757806354fd4d50146100c757806356d27491146100cf5780637073f814146100f0575b600080fd5b61007a6100753660046119c0565b610110565b6040516100899392919061229b565b60405180910390f35b61009a610145565b6040516100899190612275565b6100ba6100b5366004611970565b6101d3565b6040516100899190612356565b61009a61038a565b6100e26100dd366004611a5a565b6103e4565b6040516100899291906121d1565b6101036100fe366004611a1a565b610401565b6040516100899190612288565b6101186114ab565b6060600061012588610583565b9250610134888888888861059b565b939990985092965091945050505050565b6000805460408051602060026001851615610100026000190190941693909304601f810184900484028201840190925281815292918301828280156101cb5780601f106101a0576101008083540402835291602001916101cb565b820191906000526020600020905b8154815290600101906020018083116101ae57829003601f168201915b505050505081565b6101db6114c3565b6040516333ad819560e21b81526000906001600160a01b0387169063ceb606549061020a908690600401612369565b60006040518083038186803b15801561022257600080fd5b505afa158015610236573d6000803e3d6000fd5b505050506040513d6000823e601f3d908101601f1916820160405261025e9190810190611b1f565b905060008160400151516001600160401b038111801561027d57600080fd5b506040519080825280602002602001820160405280156102b757816020015b6102a461151a565b81526020019060019003908161029c5790505b50905060005b8151811015610308576102e9888888866040015185815181106102dc57fe5b602002602001015161065c565b8282815181106102f557fe5b60209081029190910101526001016102bd565b50838352602080830151908401528151610100840190600481111561032957fe5b9081600481111561033657fe5b9052506040830181905260c08083015190840152608082015161035e9088908890889061065c565b60808401525060a080820151908301526060808201519083015260e09081015190820152949350505050565b60018054604080516020600284861615610100026000190190941693909304601f810184900484028201840190925281815292918301828280156101cb5780601f106101a0576101008083540402835291602001916101cb565b606060006103f4868686866107ce565b9097909650945050505050565b610409611572565b6040516333ad819560e21b81526000906001600160a01b0386169063ceb6065490610438908690600401612369565b60006040518083038186803b15801561045057600080fd5b505afa158015610464573d6000803e3d6000fd5b505050506040513d6000823e601f3d908101601f1916820160405261048c9190810190611b1f565b905060008160400151516001600160401b03811180156104ab57600080fd5b506040519080825280602002602001820160405280156104e557816020015b6104d2611597565b8152602001906001900390816104ca5790505b50905060005b81518110156105355761051687878560400151848151811061050957fe5b602002602001015161088d565b82828151811061052257fe5b60209081029190910101526001016104eb565b50838352604083018190526080820151610552908790879061088d565b606084015281516020840190600481111561056957fe5b9081600481111561057657fe5b8152505050509392505050565b61058b6114ab565b61059482610951565b8152919050565b6060600060606105ac888686610ccb565b8151955092509050836001600160401b03811180156105ca57600080fd5b5060405190808252806020026020018201604052801561060457816020015b6105f16114c3565b8152602001906001900390816105e95790505b50925060005b848110156106505761063189898985858151811061062457fe5b60200260200101516101d3565b84828151811061063d57fe5b602090810291909101015260010161060a565b50509550959350505050565b61066461151a565b60405163eb44fdd360e01b81526000906001600160a01b0387169063eb44fdd390610693908690600401612369565b60006040518083038186803b1580156106ab57600080fd5b505afa1580156106bf573d6000803e3d6000fd5b505050506040513d6000823e601f3d908101601f191682016040526106e79190810190611b95565b6001600160a01b0387168352602083018490529050610707868685610ec4565b604080840191909152516327def0cb60e21b81526001600160a01b03851690639f7bc32c9061073e9088908a908890600401612238565b60a06040518083038186803b15801561075657600080fd5b505afa15801561076a573d6000803e3d6000fd5b505050506040513d601f19601f8201168201806040525081019061078e9190611c9e565b60608301526020810151608083015260e08082015160a084015260408201516001600160a01b031660c08401526101209091015190820152949350505050565b6060600060606107df878686610ccb565b8151955092509050836001600160401b03811180156107fd57600080fd5b5060405190808252806020026020018201604052801561083757816020015b610824611572565b81526020019060019003908161081c5790505b50925060005b8481101561088257610863888884848151811061085657fe5b6020026020010151610401565b84828151811061086f57fe5b602090810291909101015260010161083d565b505094509492505050565b610895611597565b60405163eb44fdd360e01b81526000906001600160a01b0386169063eb44fdd3906108c4908690600401612369565b60006040518083038186803b1580156108dc57600080fd5b505afa1580156108f0573d6000803e3d6000fd5b505050506040513d6000823e601f3d908101601f191682016040526109189190810190611b95565b6001600160a01b0380871684526020840185905260408201511660608401529050610944858585610ec4565b6040830152509392505050565b6109596115c3565b816001600160a01b0316637641ab016040518163ffffffff1660e01b815260040160206040518083038186803b15801561099257600080fd5b505afa1580156109a6573d6000803e3d6000fd5b505050506040513d601f19601f820116820180604052508101906109ca9190611d0a565b816000018181525050816001600160a01b0316634b2d9ffc6040518163ffffffff1660e01b815260040160206040518083038186803b158015610a0c57600080fd5b505afa158015610a20573d6000803e3d6000fd5b505050506040513d601f19601f82011682018060405250810190610a449190611d0a565b816020018181525050816001600160a01b0316637d1d7fb86040518163ffffffff1660e01b815260040160206040518083038186803b158015610a8657600080fd5b505afa158015610a9a573d6000803e3d6000fd5b505050506040513d601f19601f82011682018060405250810190610abe9190611d0a565b816040018181525050816001600160a01b031663b0e21e8a6040518163ffffffff1660e01b815260040160206040518083038186803b158015610b0057600080fd5b505afa158015610b14573d6000803e3d6000fd5b505050506040513d601f19601f82011682018060405250810190610b389190611d0a565b816060018181525050816001600160a01b0316634c9f66c76040518163ffffffff1660e01b815260040160206040518083038186803b158015610b7a57600080fd5b505afa158015610b8e573d6000803e3d6000fd5b505050506040513d601f19601f82011682018060405250810190610bb29190611ad1565b81608001906001600160a01b031690816001600160a01b031681525050610c48826001600160a01b031663d8dfeb456040518163ffffffff1660e01b815260040160206040518083038186803b158015610c0b57600080fd5b505afa158015610c1f573d6000803e3d6000fd5b505050506040513d601f19601f82011682018060405250810190610c439190611ad1565b611206565b8160a00181905250816001600160a01b031663ec9790826040518163ffffffff1660e01b815260040160206040518083038186803b158015610c8957600080fd5b505afa158015610c9d573d6000803e3d6000fd5b505050506040513d601f19601f82011682018060405250810190610cc19190611d0a565b60c0820152919050565b60606000826001600160401b0381118015610ce557600080fd5b50604051908082528060200260200182016040528015610d0f578160200160208202803683370190505b5091506000856001600160a01b0316638f23b3266040518163ffffffff1660e01b815260040160206040518083038186803b158015610d4d57600080fd5b505afa158015610d61573d6000803e3d6000fd5b505050506040513d601f19601f82011682018060405250810190610d859190611d0a565b905080610da5575050604080516000808252602082019092529150610ebc565b8080861115610dc95750506040805160008082526020820190925292509050610ebc565b600086820393505b858110610ddd57610eac565b83610de757610eac565b604051633037faf160e01b81526000199094019360009081906001600160a01b038b1690633037faf190610e1f908990600401612369565b60006040518083038186803b158015610e3757600080fd5b505afa158015610e4b573d6000803e3d6000fd5b505050506040513d6000823e601f3d908101601f19168201604052610e739190810190611b51565b91509150610e81828b611313565b15610ea55780878481518110610e9357fe5b60209081029190910101526001909201915b5050610dd1565b80861115610eb8578085525b5050505b935093915050565b610ecc61160f565b604051632dadcf5160e11b81526000906001600160a01b03851690635b5b9ea290610efd908890879060040161225c565b60206040518083038186803b158015610f1557600080fd5b505afa158015610f29573d6000803e3d6000fd5b505050506040513d601f19601f82011682018060405250810190610f4d9190611ad1565b90506001600160a01b038116610f6357506111ff565b6001600160a01b038116808352604080516318160ddd60e01b815290516318160ddd91600480820192602092909190829003018186803b158015610fa657600080fd5b505afa158015610fba573d6000803e3d6000fd5b505050506040513d601f19601f82011682018060405250810190610fde9190611d0a565b60a083015260405163fa0de35960e01b81526001600160a01b0385169063fa0de35990611011908890879060040161225c565b60206040518083038186803b15801561102957600080fd5b505afa15801561103d573d6000803e3d6000fd5b505050506040513d601f19601f820116820180604052508101906110619190611d0a565b608083015260405163d2364bf360e01b81526001600160a01b0385169063d2364bf390611094908890879060040161225c565b60006040518083038186803b1580156110ac57600080fd5b505afa1580156110c0573d6000803e3d6000fd5b505050506040513d6000823e601f3d908101601f191682016040526110e89190810190611a9f565b6040808401919091525163c7b4b6dd60e01b81526001600160a01b0385169063c7b4b6dd9061111d908890879060040161225c565b60006040518083038186803b15801561113557600080fd5b505afa158015611149573d6000803e3d6000fd5b505050506040513d6000823e601f3d908101601f191682016040526111719190810190611a9f565b602083015260405163d055da7160e01b81526001600160a01b0385169063d055da71906111a4908890879060040161225c565b60006040518083038186803b1580156111bc57600080fd5b505afa1580156111d0573d6000803e3d6000fd5b505050506040513d6000823e601f3d908101601f191682016040526111f89190810190611a9f565b6060830152505b9392505050565b61120e61164e565b6001600160a01b038216808252604080516395d89b4160e01b815290516395d89b4191600480820192600092909190829003018186803b15801561125157600080fd5b505afa158015611265573d6000803e3d6000fd5b505050506040513d6000823e601f3d908101601f1916820160405261128d9190810190611aed565b8160200181905250816001600160a01b031663313ce5676040518163ffffffff1660e01b815260040160206040518083038186803b1580156112ce57600080fd5b505afa1580156112e2573d6000803e3d6000fd5b505050506040513d601f19601f820116820180604052508101906113069190611d22565b60ff166040820152919050565b6000805b8360400151518110156113635760008460400151828151811061133657fe5b6020026020010151905061134a8482611389565b1561135a57600192505050611383565b50600101611317565b50611372828460800151611389565b1561137f57506001611383565b5060005b92915050565b600080836001600160a01b031663eb44fdd3846040518263ffffffff1660e01b81526004016113b89190612369565b60006040518083038186803b1580156113d057600080fd5b505afa1580156113e4573d6000803e3d6000fd5b505050506040513d6000823e601f3d908101601f1916820160405261140c9190810190611b95565b60408101519091506001600160a01b031661142b576001915050611383565b600081604001516001600160a01b03166318160ddd6040518163ffffffff1660e01b815260040160206040518083038186803b15801561146a57600080fd5b505afa15801561147e573d6000803e3d6000fd5b505050506040513d601f19601f820116820180604052508101906114a29190611d0a565b11949350505050565b60405180602001604052806114be6115c3565b905290565b604051806101200160405280600081526020016060815260200160608152602001606081526020016114f361151a565b8152602001606081526020016000815260200160608152602001600060048111156114be57fe5b60408051610100810182526000808252602082015290810161153a61160f565b8152602001611547611678565b8152602001606081526020016000815260200160006001600160a01b03168152602001606081525090565b6040805160808101909152600080825260208201908152602001606081526020016114be5b60408051608081018252600080825260208201529081016115b661160f565b8152600060209091015290565b6040518060e001604052806000815260200160008152602001600081526020016000815260200160006001600160a01b0316815260200161160261164e565b8152602001600081525090565b6040518060c0016040528060006001600160a01b0316815260200160608152602001606081526020016060815260200160008152602001600081525090565b604051806060016040528060006001600160a01b0316815260200160608152602001600081525090565b6040518060a00160405280600081526020016000815260200160008152602001600081526020016000151581525090565b80516116b4816123e2565b919050565b600082601f8301126116c9578081fd5b815160206116de6116d983612395565b612372565b82815281810190858301838502870184018810156116fa578586fd5b855b8581101561172157815161170f816123e2565b845292840192908401906001016116fc565b5090979650505050505050565b600082601f83011261173e578081fd5b8151602061174e6116d983612395565b82815281810190858301855b8581101561172157611771898684518b01016117fc565b8452928401929084019060010161175a565b600082601f830112611793578081fd5b815160206117a36116d983612395565b82815281810190858301838502870184018810156117bf578586fd5b855b85811015611721578151845292840192908401906001016117c1565b805180151581146116b457600080fd5b8051600581106116b457600080fd5b600082601f83011261180c578081fd5b81516001600160401b0381111561181f57fe5b611832601f8201601f1916602001612372565b818152846020838601011115611846578283fd5b6118578260208301602087016123b2565b949350505050565b6000610120808385031215611872578182fd5b61187b81612372565b915050611887826117ed565b815260208201516001600160401b03808211156118a357600080fd5b6118af858386016117fc565b602084015260408401519150808211156118c857600080fd5b6118d485838601611783565b604084015260608401519150808211156118ed57600080fd5b6118f98583860161172e565b60608401526080840151608084015260a084015191508082111561191c57600080fd5b611928858386016117fc565b60a084015260c084015160c084015260e084015191508082111561194b57600080fd5b50611958848285016117fc565b60e08301525061010080830151818301525092915050565b60008060008060808587031215611985578384fd5b8435611990816123e2565b935060208501356119a0816123e2565b925060408501356119b0816123e2565b9396929550929360600135925050565b600080600080600060a086880312156119d7578283fd5b85356119e2816123e2565b945060208601356119f2816123e2565b93506040860135611a02816123e2565b94979396509394606081013594506080013592915050565b600080600060608486031215611a2e578081fd5b8335611a39816123e2565b92506020840135611a49816123e2565b929592945050506040919091013590565b60008060008060808587031215611a6f578182fd5b8435611a7a816123e2565b93506020850135611a8a816123e2565b93969395505050506040820135916060013590565b600060208284031215611ab0578081fd5b81516001600160401b03811115611ac5578182fd5b61185784828501611783565b600060208284031215611ae2578081fd5b81516111ff816123e2565b600060208284031215611afe578081fd5b81516001600160401b03811115611b13578182fd5b611857848285016117fc565b600060208284031215611b30578081fd5b81516001600160401b03811115611b45578182fd5b6118578482850161185f565b60008060408385031215611b63578182fd5b82516001600160401b03811115611b78578283fd5b611b848582860161185f565b925050602083015190509250929050565b600060208284031215611ba6578081fd5b81516001600160401b0380821115611bbc578283fd5b8184019150610160808387031215611bd2578384fd5b611bdb81612372565b9050611be6836116a9565b8152602083015182811115611bf9578485fd5b611c05878286016116b9565b602083015250611c17604084016116a9565b6040820152606083015160608201526080830151608082015260a083015160a082015260c083015160c082015260e083015160e08201526101008084015181830152506101208084015183811115611c6d578586fd5b611c7988828701611783565b8284015250506101409150611c8f8284016117dd565b91810191909152949350505050565b600060a08284031215611caf578081fd5b60405160a081018181106001600160401b0382111715611ccb57fe5b806040525082518152602083015160208201526040830151604082015260608301516060820152611cfe608084016117dd565b60808201529392505050565b600060208284031215611d1b578081fd5b5051919050565b600060208284031215611d33578081fd5b815160ff811681146111ff578182fd5b6000815180845260208085019450808401835b83811015611d7b5781516001600160a01b031687529582019590820190600101611d56565b509495945050505050565b6000815180845260208085018081965082840281019150828601855b85811015611dcc578284038952611dba848351611eaf565b98850198935090840190600101611da2565b5091979650505050505050565b6000815180845260208085018081965082840281019150828601855b85811015611dcc578284038952611e0d84835161206c565b98850198935090840190600101611df5565b6000815180845260208085018081965082840281019150828601855b85811015611dcc578284038952611e53848351612138565b98850198935090840190600101611e3b565b6000815180845260208085019450808401835b83811015611d7b57815187529582019590820190600101611e78565b6001600160a01b03169052565b60058110611eab57fe5b9052565b60008151808452611ec78160208601602086016123b2565b601f01601f19169290920160200192915050565b60006080830182518452602080840151611ef782870182611ea1565b5060408401516080604087015282815180855260a08801915060a084820289010194508383019250855b81811015611f4f57609f19898703018352611f3d868551611f74565b95509284019291840191600101611f21565b505050505060608301518482036060860152611f6b8282611f74565b95945050505050565b600060018060a01b0380835116845260208301516020850152604083015160806040860152611fa66080860182611fbf565b9050816060850151166060860152809250505092915050565b600060018060a01b038251168352602082015160c06020850152611fe660c0850182611e65565b905060408301518482036040860152611fff8282611e65565b915050606083015184820360608601526120198282611e65565b9150506080830151608085015260a083015160a08501528091505092915050565b805182526020810151602083015260408101516040830152606081015160608301526080810151151560808301525050565b600061012082518452602083015181602086015261208c82860182611eaf565b915050604083015184820360408601526120a68282611e1f565b915050606083015184820360608601526120c08282611d86565b915050608083015184820360808601526120da8282612138565b91505060a083015184820360a08601526120f48282611eaf565b91505060c083015160c085015260e083015184820360e08601526121188282611eaf565b9150506101008084015161212e82870182611ea1565b5090949350505050565b6000610180612148848451611e94565b60208301516020850152604083015181604086015261216982860182611fbf565b915050606083015161217e606086018261203a565b5060808301518482036101008601526121978282611d43565b91505060a083015161012085015260c08301516121b8610140860182611e94565b5060e0830151848203610160860152611f6b8282611e65565b60006040820160408352808551808352606085019150602092506060838202860101838801855b8381101561222657605f19888403018552612214838351611edb565b948601949250908501906001016121f8565b50509290940194909452949350505050565b6001600160a01b039384168152919092166020820152604081019190915260600190565b6001600160a01b03929092168252602082015260400190565b6000602082526111ff6020830184611eaf565b6000602082526111ff6020830184611edb565b60006060825284516020606084015280516080840152602081015160a0840152604081015160c0840152606081015160e0840152608081015160018060a01b0380821661010086015260a0830151915060e06101208601528082511661016086015250602081015160606101808601526123196101c0860182611eaf565b905060408201516101a086015260c083015161014086015284810360208601526123438188611dd9565b9350505050826040830152949350505050565b6000602082526111ff602083018461206c565b90815260200190565b6040518181016001600160401b038111828210171561238d57fe5b604052919050565b60006001600160401b038211156123a857fe5b5060209081020190565b60005b838110156123cd5781810151838201526020016123b5565b838111156123dc576000848401525b50505050565b6001600160a01b03811681146123f757600080fd5b5056fea2646970667358221220f4bd7be023391106eecce3ff7613eb6985cdd851f8fe2f4740a1f96dd0690a0e64736f6c63430007060033",
  "devdoc": {
    "kind": "dev",
    "methods": {},
    "version": 1
  },
  "userdoc": {
    "kind": "user",
    "methods": {},
    "version": 1
  },
  "storageLayout": {
    "storage": [
      {
        "astId": 18121,
        "contract": "contracts/turbo/GroupFetcher.sol:FuturesFetcher",
        "label": "marketType",
        "offset": 0,
        "slot": "0",
        "type": "t_string_storage"
      },
      {
        "astId": 18123,
        "contract": "contracts/turbo/GroupFetcher.sol:FuturesFetcher",
        "label": "version",
        "offset": 0,
        "slot": "1",
        "type": "t_string_storage"
      }
    ],
    "types": {
      "t_string_storage": {
        "encoding": "bytes",
        "label": "string",
        "numberOfBytes": "32"
      }
    }
  }
}