{
  "address": "0x32FaCEa6D92D20576091ed5eD4b1219adF3360b8",
  "abi": [
    {
      "inputs": [
        {
          "internalType": "contract IERC20",
          "name": "_rewardsToken",
          "type": "address"
        }
      ],
      "stateMutability": "nonpayable",
      "type": "constructor"
    },
    {
      "anonymous": false,
      "inputs": [
        {
          "indexed": true,
          "internalType": "address",
          "name": "user",
          "type": "address"
        },
        {
          "indexed": true,
          "internalType": "uint256",
          "name": "pid",
          "type": "uint256"
        },
        {
          "indexed": false,
          "internalType": "uint256",
          "name": "amount",
          "type": "uint256"
        }
      ],
      "name": "Deposit",
      "type": "event"
    },
    {
      "anonymous": false,
      "inputs": [
        {
          "indexed": true,
          "internalType": "address",
          "name": "user",
          "type": "address"
        },
        {
          "indexed": true,
          "internalType": "uint256",
          "name": "pid",
          "type": "uint256"
        },
        {
          "indexed": false,
          "internalType": "uint256",
          "name": "amount",
          "type": "uint256"
        }
      ],
      "name": "EmergencyWithdraw",
      "type": "event"
    },
    {
      "anonymous": false,
      "inputs": [
        {
          "indexed": true,
          "internalType": "address",
          "name": "marketFactory",
          "type": "address"
        },
        {
          "indexed": true,
          "internalType": "uint256",
          "name": "marketId",
          "type": "uint256"
        },
        {
          "indexed": true,
          "internalType": "address",
          "name": "user",
          "type": "address"
        },
        {
          "indexed": false,
          "internalType": "address",
          "name": "recipient",
          "type": "address"
        },
        {
          "indexed": false,
          "internalType": "int256",
          "name": "collateral",
          "type": "int256"
        },
        {
          "indexed": false,
          "internalType": "int256",
          "name": "lpTokens",
          "type": "int256"
        },
        {
          "indexed": false,
          "internalType": "uint256[]",
          "name": "sharesReturned",
          "type": "uint256[]"
        }
      ],
      "name": "LiquidityChanged",
      "type": "event"
    },
    {
      "anonymous": false,
      "inputs": [
        {
          "indexed": true,
          "internalType": "address",
          "name": "previousOwner",
          "type": "address"
        },
        {
          "indexed": true,
          "internalType": "address",
          "name": "newOwner",
          "type": "address"
        }
      ],
      "name": "OwnershipTransferred",
      "type": "event"
    },
    {
      "anonymous": false,
      "inputs": [
        {
          "indexed": false,
          "internalType": "address",
          "name": "pool",
          "type": "address"
        },
        {
          "indexed": true,
          "internalType": "address",
          "name": "marketFactory",
          "type": "address"
        },
        {
          "indexed": true,
          "internalType": "uint256",
          "name": "marketId",
          "type": "uint256"
        },
        {
          "indexed": true,
          "internalType": "address",
          "name": "creator",
          "type": "address"
        },
        {
          "indexed": false,
          "internalType": "address",
          "name": "lpTokenRecipient",
          "type": "address"
        }
      ],
      "name": "PoolCreated",
      "type": "event"
    },
    {
      "anonymous": false,
      "inputs": [
        {
          "indexed": true,
          "internalType": "address",
          "name": "MarketFactory",
          "type": "address"
        },
        {
          "indexed": false,
          "internalType": "uint256",
          "name": "OriginEarlyDepositBonusRewards",
          "type": "uint256"
        },
        {
          "indexed": false,
          "internalType": "uint256",
          "name": "OriginrewardsPeriods",
          "type": "uint256"
        },
        {
          "indexed": false,
          "internalType": "uint256",
          "name": "OriginRewardsPerPeriod",
          "type": "uint256"
        },
        {
          "indexed": false,
          "internalType": "uint256",
          "name": "EarlyDepositBonusRewards",
          "type": "uint256"
        },
        {
          "indexed": false,
          "internalType": "uint256",
          "name": "rewardsPeriods",
          "type": "uint256"
        },
        {
          "indexed": false,
          "internalType": "uint256",
          "name": "RewardsPerPeriod",
          "type": "uint256"
        }
      ],
      "name": "TrustMarketFactory",
      "type": "event"
    },
    {
      "anonymous": false,
      "inputs": [
        {
          "indexed": true,
          "internalType": "address",
          "name": "user",
          "type": "address"
        },
        {
          "indexed": true,
          "internalType": "uint256",
          "name": "pid",
          "type": "uint256"
        },
        {
          "indexed": false,
          "internalType": "uint256",
          "name": "amount",
          "type": "uint256"
        },
        {
          "indexed": false,
          "internalType": "address",
          "name": "recipient",
          "type": "address"
        }
      ],
      "name": "Withdraw",
      "type": "event"
    },
    {
      "inputs": [],
      "name": "BONE",
      "outputs": [
        {
          "internalType": "uint256",
          "name": "",
          "type": "uint256"
        }
      ],
      "stateMutability": "view",
      "type": "function"
    },
    {
      "inputs": [],
      "name": "EARLY_DEPOSIT_BONUS_REWARDS_PERCENTAGE",
      "outputs": [
        {
          "internalType": "uint256",
          "name": "",
          "type": "uint256"
        }
      ],
      "stateMutability": "view",
      "type": "function"
    },
    {
      "inputs": [
        {
          "internalType": "address",
          "name": "_ammFactory",
          "type": "address"
        },
        {
          "internalType": "address",
          "name": "_marketFactory",
          "type": "address"
        },
        {
          "internalType": "uint256",
          "name": "_marketId",
          "type": "uint256"
        },
        {
          "internalType": "contract IERC20",
          "name": "_lpToken",
          "type": "address"
        },
        {
          "internalType": "uint256",
          "name": "_endTimestamp",
          "type": "uint256"
        }
      ],
      "name": "add",
      "outputs": [
        {
          "internalType": "uint256",
          "name": "_nextPID",
          "type": "uint256"
        }
      ],
      "stateMutability": "nonpayable",
      "type": "function"
    },
    {
      "inputs": [
        {
          "internalType": "contract AMMFactory",
          "name": "_ammFactory",
          "type": "address"
        },
        {
          "internalType": "contract AbstractMarketFactoryV3",
          "name": "_marketFactory",
          "type": "address"
        },
        {
          "internalType": "uint256",
          "name": "_marketId",
          "type": "uint256"
        },
        {
          "internalType": "uint256",
          "name": "_collateralIn",
          "type": "uint256"
        },
        {
          "internalType": "uint256",
          "name": "_minLPTokensOut",
          "type": "uint256"
        },
        {
          "internalType": "address",
          "name": "_lpTokenRecipient",
          "type": "address"
        }
      ],
      "name": "addLiquidity",
      "outputs": [
        {
          "internalType": "uint256",
          "name": "_poolAmountOut",
          "type": "uint256"
        },
        {
          "internalType": "uint256[]",
          "name": "_balances",
          "type": "uint256[]"
        }
      ],
      "stateMutability": "nonpayable",
      "type": "function"
    },
    {
      "inputs": [
        {
          "internalType": "address",
          "name": "_marketFactory",
          "type": "address"
        },
        {
          "internalType": "uint256",
          "name": "_rewardsPerMarket",
          "type": "uint256"
        },
        {
          "internalType": "uint256",
          "name": "_rewardDaysPerMarket",
          "type": "uint256"
        },
        {
          "internalType": "uint256",
          "name": "_earlyDepositBonusRewards",
          "type": "uint256"
        }
      ],
      "name": "addRewards",
      "outputs": [],
      "stateMutability": "nonpayable",
      "type": "function"
    },
    {
      "inputs": [
        {
          "internalType": "contract AMMFactory",
          "name": "_ammFactory",
          "type": "address"
        },
        {
          "internalType": "contract AbstractMarketFactoryV3",
          "name": "_marketFactory",
          "type": "address"
        },
        {
          "internalType": "uint256",
          "name": "_marketId",
          "type": "uint256"
        },
        {
          "internalType": "uint256",
          "name": "_initialLiquidity",
          "type": "uint256"
        },
        {
          "internalType": "address",
          "name": "_lpTokenRecipient",
          "type": "address"
        }
      ],
      "name": "createPool",
      "outputs": [
        {
          "internalType": "uint256",
          "name": "",
          "type": "uint256"
        }
      ],
      "stateMutability": "nonpayable",
      "type": "function"
    },
    {
      "inputs": [
        {
          "internalType": "uint256",
          "name": "_pid",
          "type": "uint256"
        },
        {
          "internalType": "uint256",
          "name": "_amount",
          "type": "uint256"
        }
      ],
      "name": "deposit",
      "outputs": [],
      "stateMutability": "nonpayable",
      "type": "function"
    },
    {
      "inputs": [
        {
          "internalType": "contract AMMFactory",
          "name": "_ammFactory",
          "type": "address"
        },
        {
          "internalType": "contract AbstractMarketFactoryV3",
          "name": "_marketFactory",
          "type": "address"
        },
        {
          "internalType": "uint256",
          "name": "_marketId",
          "type": "uint256"
        },
        {
          "internalType": "uint256",
          "name": "_amount",
          "type": "uint256"
        }
      ],
      "name": "depositByMarket",
      "outputs": [],
      "stateMutability": "nonpayable",
      "type": "function"
    },
    {
      "inputs": [
        {
          "internalType": "uint256",
          "name": "_pid",
          "type": "uint256"
        }
      ],
      "name": "emergencyWithdraw",
      "outputs": [],
      "stateMutability": "nonpayable",
      "type": "function"
    },
    {
      "inputs": [
        {
          "internalType": "uint256",
          "name": "_pid",
          "type": "uint256"
        }
      ],
      "name": "getEarlyDepositEndTimestamp",
      "outputs": [
        {
          "internalType": "uint256",
          "name": "",
          "type": "uint256"
        }
      ],
      "stateMutability": "view",
      "type": "function"
    },
    {
      "inputs": [
        {
          "internalType": "contract AMMFactory",
          "name": "_ammFactory",
          "type": "address"
        },
        {
          "internalType": "contract AbstractMarketFactoryV3",
          "name": "_marketFactory",
          "type": "address"
        },
        {
          "internalType": "uint256",
          "name": "_marketId",
          "type": "uint256"
        }
      ],
      "name": "getPoolInfo",
      "outputs": [
        {
          "components": [
            {
              "internalType": "uint256",
              "name": "beginTimestamp",
              "type": "uint256"
            },
            {
              "internalType": "uint256",
              "name": "endTimestamp",
              "type": "uint256"
            },
            {
              "internalType": "uint256",
              "name": "earlyDepositEndTimestamp",
              "type": "uint256"
            },
            {
              "internalType": "uint256",
              "name": "totalRewardsAccrued",
              "type": "uint256"
            },
            {
              "internalType": "bool",
              "name": "created",
              "type": "bool"
            }
          ],
          "internalType": "struct MasterChef.PoolStatusInfo",
          "name": "_poolStatusInfo",
          "type": "tuple"
        }
      ],
      "stateMutability": "view",
      "type": "function"
    },
    {
      "inputs": [
        {
          "internalType": "uint256",
          "name": "_pid",
          "type": "uint256"
        }
      ],
      "name": "getPoolRewardEndTimestamp",
      "outputs": [
        {
          "internalType": "uint256",
          "name": "",
          "type": "uint256"
        }
      ],
      "stateMutability": "view",
      "type": "function"
    },
    {
      "inputs": [
        {
          "internalType": "contract AMMFactory",
          "name": "_ammFactory",
          "type": "address"
        },
        {
          "internalType": "contract AbstractMarketFactoryV3",
          "name": "_marketFactory",
          "type": "address"
        },
        {
          "internalType": "uint256",
          "name": "_marketId",
          "type": "uint256"
        },
        {
          "internalType": "address",
          "name": "_user",
          "type": "address"
        }
      ],
      "name": "getPoolTokenBalance",
      "outputs": [
        {
          "internalType": "uint256",
          "name": "",
          "type": "uint256"
        }
      ],
      "stateMutability": "view",
      "type": "function"
    },
    {
      "inputs": [
        {
          "internalType": "uint256",
          "name": "_pid",
          "type": "uint256"
        }
      ],
      "name": "getTimeElapsed",
      "outputs": [
        {
          "internalType": "uint256",
          "name": "",
          "type": "uint256"
        }
      ],
      "stateMutability": "view",
      "type": "function"
    },
    {
      "inputs": [
        {
          "internalType": "uint256",
          "name": "_pid",
          "type": "uint256"
        },
        {
          "internalType": "address",
          "name": "_user",
          "type": "address"
        }
      ],
      "name": "getUserAmount",
      "outputs": [
        {
          "internalType": "uint256",
          "name": "",
          "type": "uint256"
        }
      ],
      "stateMutability": "view",
      "type": "function"
    },
    {
      "inputs": [
        {
          "internalType": "contract AMMFactory",
          "name": "_ammFactory",
          "type": "address"
        },
        {
          "internalType": "contract AbstractMarketFactoryV3",
          "name": "_marketFactory",
          "type": "address"
        },
        {
          "internalType": "uint256",
          "name": "_marketId",
          "type": "uint256"
        },
        {
          "internalType": "address",
          "name": "_userAddress",
          "type": "address"
        }
      ],
      "name": "getUserPendingRewardInfo",
      "outputs": [
        {
          "components": [
            {
              "internalType": "uint256",
              "name": "beginTimestamp",
              "type": "uint256"
            },
            {
              "internalType": "uint256",
              "name": "endTimestamp",
              "type": "uint256"
            },
            {
              "internalType": "uint256",
              "name": "earlyDepositEndTimestamp",
              "type": "uint256"
            },
            {
              "internalType": "uint256",
              "name": "accruedStandardRewards",
              "type": "uint256"
            },
            {
              "internalType": "uint256",
              "name": "accruedEarlyDepositBonusRewards",
              "type": "uint256"
            },
            {
              "internalType": "uint256",
              "name": "pendingEarlyDepositBonusRewards",
              "type": "uint256"
            },
            {
              "internalType": "bool",
              "name": "created",
              "type": "bool"
            }
          ],
          "internalType": "struct MasterChef.PendingRewardInfo",
          "name": "_pendingRewardInfo",
          "type": "tuple"
        }
      ],
      "stateMutability": "view",
      "type": "function"
    },
    {
      "inputs": [],
      "name": "massUpdatePools",
      "outputs": [],
      "stateMutability": "nonpayable",
      "type": "function"
    },
    {
      "inputs": [],
      "name": "owner",
      "outputs": [
        {
          "internalType": "address",
          "name": "",
          "type": "address"
        }
      ],
      "stateMutability": "view",
      "type": "function"
    },
    {
      "inputs": [
        {
          "internalType": "uint256",
          "name": "",
          "type": "uint256"
        }
      ],
      "name": "poolInfo",
      "outputs": [
        {
          "internalType": "contract IERC20",
          "name": "lpToken",
          "type": "address"
        },
        {
          "internalType": "uint256",
          "name": "accRewardsPerShare",
          "type": "uint256"
        },
        {
          "internalType": "uint256",
          "name": "totalEarlyDepositBonusRewardShares",
          "type": "uint256"
        },
        {
          "internalType": "uint256",
          "name": "beginTimestamp",
          "type": "uint256"
        },
        {
          "internalType": "uint256",
          "name": "endTimestamp",
          "type": "uint256"
        },
        {
          "internalType": "uint256",
          "name": "earlyDepositBonusRewards",
          "type": "uint256"
        },
        {
          "internalType": "uint256",
          "name": "lastRewardTimestamp",
          "type": "uint256"
        },
        {
          "internalType": "uint256",
          "name": "rewardsPerSecond",
          "type": "uint256"
        }
      ],
      "stateMutability": "view",
      "type": "function"
    },
    {
      "inputs": [],
      "name": "poolLength",
      "outputs": [
        {
          "internalType": "uint256",
          "name": "",
          "type": "uint256"
        }
      ],
      "stateMutability": "view",
      "type": "function"
    },
    {
      "inputs": [
        {
          "internalType": "contract AMMFactory",
          "name": "_ammFactory",
          "type": "address"
        },
        {
          "internalType": "contract AbstractMarketFactoryV3",
          "name": "_marketFactory",
          "type": "address"
        },
        {
          "internalType": "uint256",
          "name": "_marketId",
          "type": "uint256"
        },
        {
          "internalType": "uint256",
          "name": "_lpTokensIn",
          "type": "uint256"
        },
        {
          "internalType": "uint256",
          "name": "_minCollateralOut",
          "type": "uint256"
        },
        {
          "internalType": "address",
          "name": "_collateralRecipient",
          "type": "address"
        }
      ],
      "name": "removeLiquidity",
      "outputs": [
        {
          "internalType": "uint256",
          "name": "_collateralOut",
          "type": "uint256"
        },
        {
          "internalType": "uint256[]",
          "name": "_balances",
          "type": "uint256[]"
        }
      ],
      "stateMutability": "nonpayable",
      "type": "function"
    },
    {
      "inputs": [],
      "name": "renounceOwnership",
      "outputs": [],
      "stateMutability": "nonpayable",
      "type": "function"
    },
    {
      "inputs": [
        {
          "internalType": "address",
          "name": "",
          "type": "address"
        },
        {
          "internalType": "address",
          "name": "",
          "type": "address"
        },
        {
          "internalType": "uint256",
          "name": "",
          "type": "uint256"
        }
      ],
      "name": "rewardPoolLookup",
      "outputs": [
        {
          "internalType": "uint256",
          "name": "pid",
          "type": "uint256"
        },
        {
          "internalType": "bool",
          "name": "created",
          "type": "bool"
        }
      ],
      "stateMutability": "view",
      "type": "function"
    },
    {
      "inputs": [
        {
          "internalType": "address",
          "name": "newOwner",
          "type": "address"
        }
      ],
      "name": "transferOwnership",
      "outputs": [],
      "stateMutability": "nonpayable",
      "type": "function"
    },
    {
      "inputs": [
        {
          "internalType": "address",
          "name": "_ammFactory",
          "type": "address"
        }
      ],
      "name": "trustAMMFactory",
      "outputs": [],
      "stateMutability": "nonpayable",
      "type": "function"
    },
    {
      "inputs": [
        {
          "internalType": "address",
          "name": "_ammFactory",
          "type": "address"
        }
      ],
      "name": "untrustAMMFactory",
      "outputs": [],
      "stateMutability": "nonpayable",
      "type": "function"
    },
    {
      "inputs": [
        {
          "internalType": "uint256",
          "name": "_pid",
          "type": "uint256"
        }
      ],
      "name": "updatePool",
      "outputs": [],
      "stateMutability": "nonpayable",
      "type": "function"
    },
    {
      "inputs": [
        {
          "internalType": "uint256",
          "name": "",
          "type": "uint256"
        },
        {
          "internalType": "address",
          "name": "",
          "type": "address"
        }
      ],
      "name": "userInfo",
      "outputs": [
        {
          "internalType": "uint256",
          "name": "amount",
          "type": "uint256"
        },
        {
          "internalType": "uint256",
          "name": "rewardDebt",
          "type": "uint256"
        },
        {
          "internalType": "uint256",
          "name": "lastActionTimestamp",
          "type": "uint256"
        }
      ],
      "stateMutability": "view",
      "type": "function"
    },
    {
      "inputs": [
        {
          "internalType": "uint256",
          "name": "_pid",
          "type": "uint256"
        },
        {
          "internalType": "uint256",
          "name": "_amount",
          "type": "uint256"
        }
      ],
      "name": "withdraw",
      "outputs": [],
      "stateMutability": "nonpayable",
      "type": "function"
    },
    {
      "inputs": [
        {
          "internalType": "contract AMMFactory",
          "name": "_ammFactory",
          "type": "address"
        },
        {
          "internalType": "contract AbstractMarketFactoryV3",
          "name": "_marketFactory",
          "type": "address"
        },
        {
          "internalType": "uint256",
          "name": "_marketId",
          "type": "uint256"
        },
        {
          "internalType": "uint256",
          "name": "_amount",
          "type": "uint256"
        }
      ],
      "name": "withdrawByMarket",
      "outputs": [],
      "stateMutability": "nonpayable",
      "type": "function"
    },
    {
      "inputs": [
        {
          "internalType": "uint256",
          "name": "_amount",
          "type": "uint256"
        }
      ],
      "name": "withdrawRewards",
      "outputs": [],
      "stateMutability": "nonpayable",
      "type": "function"
    }
  ],
  "transactionHash": "0xdb1926431d9ec500165056f2824f729e83875239bba4a5e8daa529e4c7331470",
  "args": [
    "0x101dd4e3BF949890e7CC85c1210956D267f3D9D9"
  ],
  "solcInputHash": "7d13fb875e194787da3321b42b922cbc",
  "bytecode": "0x60806040523480156200001157600080fd5b50604051620037cd380380620037cd8339810160408190526200003491620000b4565b600062000040620000b0565b600080546001600160a01b0319166001600160a01b0383169081178255604051929350917f8be0079c531659141344cd1fd0a4f28419497f9722a3daafe3b4186f6b6457e0908290a350600580546001600160a01b0319166001600160a01b0392909216919091179055620000e4565b3390565b600060208284031215620000c6578081fd5b81516001600160a01b0381168114620000dd578182fd5b9392505050565b6136d980620000f46000396000f3fe608060405234801561001057600080fd5b50600436106101e55760003560e01c806393f1a40b1161010f578063d20122e0116100a2578063eb97ed9611610071578063eb97ed9614610427578063f2fde38b1461043a578063fd1b192e1461044d578063fe04b54914610460576101e5565b8063d20122e0146103c0578063d8c08b87146103e1578063dcc2b361146103f4578063e2bbb15814610414576101e5565b8063b0f79326116100de578063b0f7932614610371578063b453d9b514610392578063c0e3ee6b146103a5578063c36596a6146103b8576101e5565b806393f1a40b146103095780639d5dda8f1461032b5780639f7bc32c1461033e578063af9551f71461035e576101e5565b806351eb05a611610187578063715018a611610156578063715018a6146102c65780638448fd2c146102ce5780638da5cb5b146102e15780639342c8f4146102f6576101e5565b806351eb05a6146102905780635312ea8e146102a35780636142da64146102b6578063630b5ba1146102be576101e5565b80632af3420e116101c35780632af3420e146102445780632f4064db146102575780633437586b1461026a578063441a3e701461027d576101e5565b8063081e3eda146101ea5780631526fe27146102085780632137eacf1461022f575b600080fd5b6101f2610473565b6040516101ff9190613534565b60405180910390f35b61021b61021636600461314e565b610479565b6040516101ff989796959493929190613340565b61024261023d366004612f1f565b6104d9565b005b6101f261025236600461314e565b61055c565b610242610265366004612f1f565b6105c4565b6101f261027836600461317e565b610637565b61024261028b3660046131f2565b610661565b61024261029e36600461314e565b6106a4565b6102426102b136600461314e565b6107b6565b6101f261085c565b610242610868565b610242610887565b6101f26102dc366004612f64565b610933565b6102e9610e6f565b6040516101ff919061324d565b61024261030436600461314e565b610e7e565b61031c61031736600461317e565b610f64565b6040516101ff9392919061357d565b6101f2610339366004612e0b565b610f8c565b61035161034c366004612eb9565b611007565b6040516101ff91906134f8565b61024261036c366004612daf565b6110dd565b61038461037f366004612fc2565b611163565b6040516101ff929190613554565b6101f26103a036600461314e565b6116de565b6103846103b3366004612fc2565b611709565b6101f2611920565b6103d36103ce366004612dcb565b61192c565b6040516101ff92919061356d565b6102426103ef366004612e65565b611959565b610407610402366004612ecd565b611acc565b6040516101ff91906134a8565b6102426104223660046131f2565b611d29565b610242610435366004612daf565b611d69565b610242610448366004612daf565b611dec565b6101f261045b36600461314e565b611eee565b6101f261046e366004612ecd565b611f9a565b60025490565b6002818154811061048957600080fd5b6000918252602090912060089091020180546001820154600283015460038401546004850154600586015460068701546007909701546001600160a01b0390961697509395929491939092909188565b6001600160a01b03808516600090815260046020908152604080832093871683529281528282208583528152908290208251808401909352805483526001015460ff1615159082018190526105495760405162461bcd60e51b81526004016105409061343b565b60405180910390fd5b80516105559083611d29565b5050505050565b6000806002838154811061056c57fe5b906000526020600020906008020190506000816003015482600401540390508160030154670de0b6b3a7640000600a670de0b6b3a7640000816105ab57fe5b048302816105b557fe5b0401600101925050505b919050565b6001600160a01b03808516600090815260046020908152604080832093871683529281528282208583528152908290208251808401909352805483526001015460ff16151590820181905261062b5760405162461bcd60e51b81526004016105409061343b565b80516105559083610661565b60008281526001602090815260408083206001600160a01b03851684529091529020545b92915050565b61066d33838333612024565b6106a033826002858154811061067f57fe5b60009182526020909120600890910201546001600160a01b03169190612216565b5050565b6000600282815481106106b357fe5b90600052602060002090600802019050806006015442116106d457506107b3565b80546040516370a0823160e01b81526000916001600160a01b0316906370a082319061070490309060040161324d565b60206040518083038186803b15801561071c57600080fd5b505afa158015610730573d6000803e3d6000fd5b505050506040513d601f19601f820116820180604052508101906107549190613166565b9050806107685750426006909101556107b3565b600061077384611eee565b90506107a46107998361079386600701548561226d90919063ffffffff16565b906122cd565b600185015490612334565b60018401555050426006909101555b50565b6000600282815481106107c557fe5b6000918252602080832085845260018252604080852033808752935290932080546008909302909301805490945061080a926001600160a01b03919091169190612216565b8054604051849133917fbb757047c2b5f3974fe26b7c10f732e7bce710b0952a71082702781e62ae05959161083e91613534565b60405180910390a36000808255600182018190556002909101555050565b67016345785d8a000081565b60025460005b818110156106a05761087f816106a4565b60010161086e565b61088f61238e565b6001600160a01b03166108a0610e6f565b6001600160a01b0316146108e9576040805162461bcd60e51b8152602060048201819052602482015260008051602061365a833981519152604482015290519081900360640190fd5b600080546040516001600160a01b03909116907f8be0079c531659141344cd1fd0a4f28419497f9722a3daafe3b4186f6b6457e0908390a3600080546001600160a01b0319169055565b6000846001600160a01b031663d8dfeb456040518163ffffffff1660e01b815260040160206040518083038186803b15801561096e57600080fd5b505afa158015610982573d6000803e3d6000fd5b505050506040513d601f19601f820116820180604052508101906109a69190613028565b6001600160a01b03166323b872dd3330866040518463ffffffff1660e01b81526004016109d593929190613261565b602060405180830381600087803b1580156109ef57600080fd5b505af1158015610a03573d6000803e3d6000fd5b505050506040513d601f19601f82011682018060405250810190610a279190612e9f565b50846001600160a01b031663d8dfeb456040518163ffffffff1660e01b815260040160206040518083038186803b158015610a6157600080fd5b505afa158015610a75573d6000803e3d6000fd5b505050506040513d601f19601f82011682018060405250810190610a999190613028565b6001600160a01b031663095ea7b387856040518363ffffffff1660e01b8152600401610ac6929190613285565b602060405180830381600087803b158015610ae057600080fd5b505af1158015610af4573d6000803e3d6000fd5b505050506040513d601f19601f82011682018060405250810190610b189190612e9f565b5060405163210a603d60e21b81526000906001600160a01b0388169063842980f490610b4e9089908990899030906004016132e5565b602060405180830381600087803b158015610b6857600080fd5b505af1158015610b7c573d6000803e3d6000fd5b505050506040513d601f19601f82011682018060405250810190610ba09190613166565b90506000876001600160a01b0316635b5b9ea288886040518363ffffffff1660e01b8152600401610bd2929190613285565b60206040518083038186803b158015610bea57600080fd5b505afa158015610bfe573d6000803e3d6000fd5b505050506040513d601f19601f82011682018060405250810190610c229190613028565b90506000610cae898989858c6001600160a01b03166342e0ed168d6040518263ffffffff1660e01b8152600401610c599190613534565b60206040518083038186803b158015610c7157600080fd5b505afa158015610c85573d6000803e3d6000fd5b505050506040513d601f19601f82011682018060405250810190610ca99190613166565b612392565b9050610cbb8582856125e2565b60405163eb44fdd360e01b81526000906001600160a01b038a169063eb44fdd390610cea908b90600401613534565b60006040518083038186803b158015610d0257600080fd5b505afa158015610d16573d6000803e3d6000fd5b505050506040513d6000823e601f3d908101601f19168201604052610d3e9190810190613044565b9050600081602001515167ffffffffffffffff81118015610d5e57600080fd5b50604051908082528060200260200182016040528015610d88578160200160208202803683370190505b50905060005b826020015151811015610dbc576000828281518110610da957fe5b6020908102919091010152600101610d8e565b50336001600160a01b0316898b6001600160a01b03167ffb27591822deac7913ea973cf845992f243e2ba5634ef8fbe0b6554aca37a428878b604051610e0392919061329e565b60405180910390a4336001600160a01b0316898b6001600160a01b03167f9a1dccf45b5053e827f262e45fbb5211c2bd99497d340eecaebbd245eb48f4bc8a8c6000038a87604051610e5894939291906132b8565b60405180910390a450929998505050505050505050565b6000546001600160a01b031690565b610e8661238e565b6001600160a01b0316610e97610e6f565b6001600160a01b031614610ee0576040805162461bcd60e51b8152602060048201819052602482015260008051602061365a833981519152604482015290519081900360640190fd5b60055460405163a9059cbb60e01b81526001600160a01b039091169063a9059cbb90610f129033908590600401613285565b602060405180830381600087803b158015610f2c57600080fd5b505af1158015610f40573d6000803e3d6000fd5b505050506040513d601f19601f820116820180604052508101906106a09190612e9f565b6001602081815260009384526040808520909152918352912080549181015460029091015483565b6000610f9661238e565b6001600160a01b0316610fa7610e6f565b6001600160a01b031614610ff0576040805162461bcd60e51b8152602060048201819052602482015260008051602061365a833981519152604482015290519081900360640190fd5b610ffd8686868686612392565b9695505050505050565b61100f612c55565b6001600160a01b03808516600090815260046020908152604080832093871683529281528282208583528152908290208251808401909352805483526001015460ff16158015918301919091526110d5576000600282600001518154811061107357fe5b6000918252602091829020600360089092020190810154855260048101549185019190915282519091506110a69061055c565b60408401526007810154600382015460048301546110c5904290612768565b0302606084015250600160808301525b509392505050565b6110e561238e565b6001600160a01b03166110f6610e6f565b6001600160a01b03161461113f576040805162461bcd60e51b8152602060048201819052602482015260008051602061365a833981519152604482015290519081900360640190fd5b6001600160a01b03166000908152600660205260409020805460ff19166001179055565b6001600160a01b038087166000908152600460209081526040808320938916835292815282822087835281528282208351808501909452805480855260019091015460ff1615159184018290529192606092909161129b57604051632dadcf5160e11b81526000906001600160a01b038c1690635b5b9ea2906111ec908d908d90600401613285565b60206040518083038186803b15801561120457600080fd5b505afa158015611218573d6000803e3d6000fd5b505050506040513d601f19601f8201168201806040525081019061123c9190613028565b90506001600160a01b0381166112645760405162461bcd60e51b8152600401610540906133cb565b6112978b8b8b848e6001600160a01b03166342e0ed168f6040518263ffffffff1660e01b8152600401610c599190613534565b9150505b886001600160a01b031663d8dfeb456040518163ffffffff1660e01b815260040160206040518083038186803b1580156112d457600080fd5b505afa1580156112e8573d6000803e3d6000fd5b505050506040513d601f19601f8201168201806040525081019061130c9190613028565b6001600160a01b03166323b872dd33308a6040518463ffffffff1660e01b815260040161133b93929190613261565b602060405180830381600087803b15801561135557600080fd5b505af1158015611369573d6000803e3d6000fd5b505050506040513d601f19601f8201168201806040525081019061138d9190612e9f565b50886001600160a01b031663d8dfeb456040518163ffffffff1660e01b815260040160206040518083038186803b1580156113c757600080fd5b505afa1580156113db573d6000803e3d6000fd5b505050506040513d601f19601f820116820180604052508101906113ff9190613028565b6001600160a01b031663095ea7b38b896040518363ffffffff1660e01b815260040161142c929190613285565b602060405180830381600087803b15801561144657600080fd5b505af115801561145a573d6000803e3d6000fd5b505050506040513d601f19601f8201168201806040525081019061147e9190612e9f565b506040516345fa678360e01b81526001600160a01b038b16906345fa6783906114b3908c908c908c908c903090600401613310565b600060405180830381600087803b1580156114cd57600080fd5b505af11580156114e1573d6000803e3d6000fd5b505050506040513d6000823e601f3d908101601f1916820160405261150991908101906131ad565b60405163eb44fdd360e01b815291955093506000906001600160a01b038b169063eb44fdd39061153d908c90600401613534565b60006040518083038186803b15801561155557600080fd5b505afa158015611569573d6000803e3d6000fd5b505050506040513d6000823e601f3d908101601f191682016040526115919190810190613044565b905060005b845181101561166f5760008582815181106115ad57fe5b6020026020010151111561166757816020015181815181106115cb57fe5b60200260200101516001600160a01b031663a9059cbb888784815181106115ee57fe5b60200260200101516040518363ffffffff1660e01b8152600401611613929190613285565b602060405180830381600087803b15801561162d57600080fd5b505af1158015611641573d6000803e3d6000fd5b505050506040513d601f19601f820116820180604052508101906116659190612e9f565b505b600101611596565b5061167b8683876125e2565b336001600160a01b0316898b6001600160a01b03167f9a1dccf45b5053e827f262e45fbb5211c2bd99497d340eecaebbd245eb48f4bc898c6000038a8a6040516116c894939291906132b8565b60405180910390a4505050965096945050505050565b600080600283815481106116ee57fe5b60009182526020909120600460089092020101549392505050565b6001600160a01b038087166000908152600460209081526040808320938916835292815282822087835281528282208351808501909452805484526001015460ff16151590830181905290916060916117745760405162461bcd60e51b81526004016105409061343b565b6117843382600001518887612024565b6000600282600001518154811061179757fe5b60009182526020909120600890910201805460405163095ea7b360e01b81529192506001600160a01b03169063095ea7b3906117d9908d908b90600401613285565b602060405180830381600087803b1580156117f357600080fd5b505af1158015611807573d6000803e3d6000fd5b505050506040513d601f19601f8201168201806040525081019061182b9190612e9f565b50604051632cfc215960e11b81526001600160a01b038b16906359f842b290611860908c908c908c908c908c90600401613310565b600060405180830381600087803b15801561187a57600080fd5b505af115801561188e573d6000803e3d6000fd5b505050506040513d6000823e601f3d908101601f191682016040526118b691908101906131ad565b8094508195505050336001600160a01b0316888a6001600160a01b03167f9a1dccf45b5053e827f262e45fbb5211c2bd99497d340eecaebbd245eb48f4bc88888c6000038960405161190b94939291906132b8565b60405180910390a45050965096945050505050565b670de0b6b3a764000081565b60046020908152600093845260408085208252928452828420905282529020805460019091015460ff1682565b61196161238e565b6001600160a01b0316611972610e6f565b6001600160a01b0316146119bb576040805162461bcd60e51b8152602060048201819052602482015260008051602061365a833981519152604482015290519081900360640190fd5b600060036000866001600160a01b03166001600160a01b031681526020019081526020016000206040518060600160405290816000820154815260200160018201548152602001600282015481525050905060405180606001604052808381526020018481526020018581525060036000876001600160a01b03166001600160a01b03168152602001908152602001600020600082015181600001556020820151816001015560408201518160020155905050846001600160a01b03167fe306af96e1d2ee556327ede5cfbae9786f190dd64b7948e676453e607cc73f4982600001518360200151846040015186888a604051611abd96959493929190613593565b60405180910390a25050505050565b611ad4612c86565b6001600160a01b03808616600090815260046020908152604080832093881683529281528282208683528152908290208251808401909352805483526001015460ff1615801591830191909152611d205760006002826000015181548110611b3857fe5b6000918252602080832085518452600180835260408086206001600160a01b03808c1688529452808620600890950290920190810154815492516370a0823160e01b815291965093949291909116906370a0823190611b9b90309060040161324d565b60206040518083038186803b158015611bb357600080fd5b505afa158015611bc7573d6000803e3d6000fd5b505050506040513d601f19601f82011682018060405250810190611beb9190613166565b60038501546004860154600160c08a01528189526020890181905287519293500390611c169061055c565b60408801819052600285015411611c935760008560020154118015611c3e5750866020015142115b15611c6857600285015484546005870154611c5e9291610793919061226d565b6080880152611c93565b600285015415611c9357600285015484546005870154611c8d9291610793919061226d565b60a08801525b846006015442118015611ca557508115155b15611ce4576000611cb98760000151611eee565b9050611ce0611cd98461079389600701548561226d90919063ffffffff16565b8590612334565b9350505b611d158460010154611d0f670de0b6b3a764000061079387896000015461226d90919063ffffffff16565b9061277f565b606088015250505050505b50949350505050565b611d343383836125e2565b6106a033308360028681548110611d4757fe5b60009182526020909120600890910201546001600160a01b03169291906127dc565b611d7161238e565b6001600160a01b0316611d82610e6f565b6001600160a01b031614611dcb576040805162461bcd60e51b8152602060048201819052602482015260008051602061365a833981519152604482015290519081900360640190fd5b6001600160a01b03166000908152600660205260409020805460ff19169055565b611df461238e565b6001600160a01b0316611e05610e6f565b6001600160a01b031614611e4e576040805162461bcd60e51b8152602060048201819052602482015260008051602061365a833981519152604482015290519081900360640190fd5b6001600160a01b038116611e935760405162461bcd60e51b81526004018080602001828103825260268152602001806136136026913960400191505060405180910390fd5b600080546040516001600160a01b03808516939216917f8be0079c531659141344cd1fd0a4f28419497f9722a3daafe3b4186f6b6457e091a3600080546001600160a01b0319166001600160a01b0392909216919091179055565b60008060028381548110611efe57fe5b9060005260206000209060080201905060004290508082600301541180611f285750808260060154115b80611f3557506007820154155b15611f45576000925050506105bf565b8160040154826006015410611f5f576000925050506105bf565b611f92670de0b6b3a7640000611f8c6001611f868660060154611d0f878960040154612768565b90612334565b9061226d565b949350505050565b6001600160a01b038085166000908152600460209081526040808320938716835292815282822085835281528282208351808501909452805484526001015460ff1615801591840191909152909190612018575160009081526001602090815260408083206001600160a01b03861684529091529020549050611f92565b50600095945050505050565b60006002848154811061203357fe5b600091825260208083208784526001825260408085206001600160a01b038b16865290925292208054600890920290920192508411156120855760405162461bcd60e51b81526004016105409061347c565b61208e856106a4565b60038201546004830154819003906001670de0b6b3a764000067016345785d8a0000840204820181019183010142811161211757600085600201541180156120da575081846002015411155b1561211257600061210486600201546107938760000154896005015461226d90919063ffffffff16565b90506121108a8261283c565b505b612158565b42821061213757600285015461212d908861277f565b6002860155612158565b8360020154821061215857835460028601546121529161277f565b60028601555b60006121898560010154611d0f670de0b6b3a76400006107938a600101548a6000015461226d90919063ffffffff16565b9050612195878261283c565b84546121a1908961277f565b80865560018701546121c191670de0b6b3a764000091610793919061226d565b6001860155426002860155604051899033907f8166bf25f8a2b7ed3c85049207da4358d16edbed977d23fa2ee6f0dde3ec213290612202908c908c9061353d565b60405180910390a350505050505050505050565b604080516001600160a01b038416602482015260448082018490528251808303909101815260649091019091526020810180516001600160e01b031663a9059cbb60e01b1790526122689084906129d5565b505050565b60008261227c5750600061065b565b8282028284828161228957fe5b04146122c65760405162461bcd60e51b81526004018080602001828103825260218152602001806136396021913960400191505060405180910390fd5b9392505050565b6000808211612323576040805162461bcd60e51b815260206004820152601a60248201527f536166654d6174683a206469766973696f6e206279207a65726f000000000000604482015290519081900360640190fd5b81838161232c57fe5b049392505050565b6000828201838110156122c6576040805162461bcd60e51b815260206004820152601b60248201527f536166654d6174683a206164646974696f6e206f766572666c6f770000000000604482015290519081900360640190fd5b3390565b6001600160a01b038086166000908152600460209081526040808320938816835292815282822086835290529081206001015460ff16156123e55760405162461bcd60e51b8152600401610540906133f6565b6001600160a01b03861660009081526006602052604090205460ff1661241d5760405162461bcd60e51b815260040161054090613381565b5060028054604080518082018252828152600160208083018281526001600160a01b038c8116600090815260048452868120918d168082529184528681208c82528452868120955186559151948401805460ff191695151595909517909455928352600381529183902083516060810185528154815291810154928201839052909401549184019190915290919062015180024284156124bf57610e10850394505b846124ce5781810194506124eb565b4282860311156124e157508084036124eb565b8442106124eb5750835b6002604051806101000160405280886001600160a01b0316815260200160008152602001600081526020018381526020018781526020018388036201518087600001518161253557fe5b040281526020018381526020016201518086604001518161255257fe5b0490528154600180820184556000938452602093849020835160089093020180546001600160a01b0319166001600160a01b03909316929092178255928201519281019290925560408101516002830155606081015160038301556080810151600483015560a0810151600583015560c0810151600683015560e001516007909101555091979650505050505050565b6000600283815481106125f157fe5b600091825260208083208684526001825260408085206001600160a01b038a16865290925292206008909102909101915061262b846106a4565b8054156126715760006126638260010154611d0f670de0b6b3a76400006107938760010154876000015461226d90919063ffffffff16565b905061266f868261283c565b505b6003820154600483015481900390670de0b6b3a764000067016345785d8a00008302040160010142811080156126ab575080836002015411155b156126c657825460028501546126c09161277f565b60028501555b428111156126e35760028401546126dd9086612334565b60028501555b82546126ef9086612334565b808455600185015461270f91670de0b6b3a764000091610793919061226d565b600184015542600284015560405186906001600160a01b038916907f90890809c654f11d6e72a28fa60149770a0d11ec6c92319d6ceb2bb0a4ea1a1590612757908990613534565b60405180910390a350505050505050565b600081831161277857508161065b565b508061065b565b6000828211156127d6576040805162461bcd60e51b815260206004820152601e60248201527f536166654d6174683a207375627472616374696f6e206f766572666c6f770000604482015290519081900360640190fd5b50900390565b604080516001600160a01b0380861660248301528416604482015260648082018490528251808303909101815260849091019091526020810180516001600160e01b03166323b872dd60e01b1790526128369085906129d5565b50505050565b6005546040516370a0823160e01b81526000916001600160a01b0316906370a082319061286d90309060040161324d565b60206040518083038186803b15801561288557600080fd5b505afa158015612899573d6000803e3d6000fd5b505050506040513d601f19601f820116820180604052508101906128bd9190613166565b9050808211156129515760055460405163a9059cbb60e01b81526001600160a01b039091169063a9059cbb906128f99086908590600401613285565b602060405180830381600087803b15801561291357600080fd5b505af1158015612927573d6000803e3d6000fd5b505050506040513d601f19601f8201168201806040525081019061294b9190612e9f565b50612268565b60055460405163a9059cbb60e01b81526001600160a01b039091169063a9059cbb906129839086908690600401613285565b602060405180830381600087803b15801561299d57600080fd5b505af11580156129b1573d6000803e3d6000fd5b505050506040513d601f19601f820116820180604052508101906128369190612e9f565b6000612a2a826040518060400160405280602081526020017f5361666545524332303a206c6f772d6c6576656c2063616c6c206661696c6564815250856001600160a01b0316612a869092919063ffffffff16565b80519091501561226857808060200190516020811015612a4957600080fd5b50516122685760405162461bcd60e51b815260040180806020018281038252602a81526020018061367a602a913960400191505060405180910390fd5b6060611f92848460008585612a9a85612bab565b612aeb576040805162461bcd60e51b815260206004820152601d60248201527f416464726573733a2063616c6c20746f206e6f6e2d636f6e7472616374000000604482015290519081900360640190fd5b600080866001600160a01b031685876040518082805190602001908083835b60208310612b295780518252601f199092019160209182019101612b0a565b6001836020036101000a03801982511681845116808217855250505050505090500191505060006040518083038185875af1925050503d8060008114612b8b576040519150601f19603f3d011682016040523d82523d6000602084013e612b90565b606091505b5091509150612ba0828286612bb1565b979650505050505050565b3b151590565b60608315612bc05750816122c6565b825115612bd05782518084602001fd5b8160405162461bcd60e51b81526004018080602001828103825283818151815260200191508051906020019080838360005b83811015612c1a578181015183820152602001612c02565b50505050905090810190601f168015612c475780820380516001836020036101000a031916815260200191505b509250505060405180910390fd5b6040518060a00160405280600081526020016000815260200160008152602001600081526020016000151581525090565b6040518060e001604052806000815260200160008152602001600081526020016000815260200160008152602001600081526020016000151581525090565b80516105bf816135fd565b600082601f830112612ce0578081fd5b81516020612cf5612cf0836135df565b6135bb565b8281528181019085830183850287018401881015612d11578586fd5b855b85811015612d38578151612d26816135fd565b84529284019290840190600101612d13565b5090979650505050505050565b600082601f830112612d55578081fd5b81516020612d65612cf0836135df565b8281528181019085830183850287018401881015612d81578586fd5b855b85811015612d3857815184529284019290840190600101612d83565b805180151581146105bf57600080fd5b600060208284031215612dc0578081fd5b81356122c6816135fd565b600080600060608486031215612ddf578182fd5b8335612dea816135fd565b92506020840135612dfa816135fd565b929592945050506040919091013590565b600080600080600060a08688031215612e22578081fd5b8535612e2d816135fd565b94506020860135612e3d816135fd565b9350604086013592506060860135612e54816135fd565b949793965091946080013592915050565b60008060008060808587031215612e7a578384fd5b8435612e85816135fd565b966020860135965060408601359560600135945092505050565b600060208284031215612eb0578081fd5b6122c682612d9f565b600080600060608486031215612ddf578283fd5b60008060008060808587031215612ee2578182fd5b8435612eed816135fd565b93506020850135612efd816135fd565b9250604085013591506060850135612f14816135fd565b939692955090935050565b60008060008060808587031215612f34578182fd5b8435612f3f816135fd565b93506020850135612f4f816135fd565b93969395505050506040820135916060013590565b600080600080600060a08688031215612f7b578283fd5b8535612f86816135fd565b94506020860135612f96816135fd565b935060408601359250606086013591506080860135612fb4816135fd565b809150509295509295909350565b60008060008060008060c08789031215612fda578384fd5b8635612fe5816135fd565b95506020870135612ff5816135fd565b945060408701359350606087013592506080870135915060a087013561301a816135fd565b809150509295509295509295565b600060208284031215613039578081fd5b81516122c6816135fd565b600060208284031215613055578081fd5b815167ffffffffffffffff8082111561306c578283fd5b8184019150610160808387031215613082578384fd5b61308b816135bb565b905061309683612cc5565b81526020830151828111156130a9578485fd5b6130b587828601612cd0565b6020830152506130c760408401612cc5565b6040820152606083015160608201526080830151608082015260a083015160a082015260c083015160c082015260e083015160e0820152610100808401518183015250610120808401518381111561311d578586fd5b61312988828701612d45565b828401525050610140915061313f828401612d9f565b91810191909152949350505050565b60006020828403121561315f578081fd5b5035919050565b600060208284031215613177578081fd5b5051919050565b60008060408385031215613190578182fd5b8235915060208301356131a2816135fd565b809150509250929050565b600080604083850312156131bf578182fd5b82519150602083015167ffffffffffffffff8111156131dc578182fd5b6131e885828601612d45565b9150509250929050565b60008060408385031215613204578182fd5b50508035926020909101359150565b6000815180845260208085019450808401835b8381101561324257815187529582019590820190600101613226565b509495945050505050565b6001600160a01b0391909116815260200190565b6001600160a01b039384168152919092166020820152604081019190915260600190565b6001600160a01b03929092168252602082015260400190565b6001600160a01b0392831681529116602082015260400190565b600060018060a01b038616825284602083015283604083015260806060830152610ffd6080830184613213565b6001600160a01b03948516815260208101939093526040830191909152909116606082015260800190565b6001600160a01b039586168152602081019490945260408401929092526060830152909116608082015260a00190565b6001600160a01b03989098168852602088019690965260408701949094526060860192909252608085015260a084015260c083015260e08201526101000190565b6020808252602a908201527f414d4d466163746f7279206d75737420626520617070726f76656420746f20636040820152691c99585d19481c1bdbdb60b21b606082015260800190565b6020808252601190820152702837b7b6103737ba1031b932b0ba32b21760791b604082015260600190565b60208082526025908201527f52657761726420706f6f6c2068617320616c7265616479206265656e2063726560408201526430ba32b21760d91b606082015260800190565b60208082526021908201527f52657761726420706f6f6c20686173206e6f74206265656e20637265617465646040820152601760f91b606082015260800190565b6020808252601290820152711dda5d1a191c985dce881b9bdd0819dbdbd960721b604082015260600190565b600060e082019050825182526020830151602083015260408301516040830152606083015160608301526080830151608083015260a083015160a083015260c0830151151560c083015292915050565b600060a0820190508251825260208301516020830152604083015160408301526060830151606083015260808301511515608083015292915050565b90815260200190565b9182526001600160a01b0316602082015260400190565b600083825260406020830152611f926040830184613213565b9182521515602082015260400190565b9283526020830191909152604082015260600190565b958652602086019490945260408501929092526060840152608083015260a082015260c00190565b60405181810167ffffffffffffffff811182821017156135d757fe5b604052919050565b600067ffffffffffffffff8211156135f357fe5b5060209081020190565b6001600160a01b03811681146107b357600080fdfe4f776e61626c653a206e6577206f776e657220697320746865207a65726f2061646472657373536166654d6174683a206d756c7469706c69636174696f6e206f766572666c6f774f776e61626c653a2063616c6c6572206973206e6f7420746865206f776e65725361666545524332303a204552433230206f7065726174696f6e20646964206e6f742073756363656564a2646970667358221220a5203accccf2c026228f87fcff37be28152443ab1867da376b60b1f53a6cf25464736f6c63430007060033",
  "devdoc": {
    "kind": "dev",
    "methods": {
      "owner()": {
        "details": "Returns the address of the current owner."
      },
      "renounceOwnership()": {
        "details": "Leaves the contract without owner. It will not be possible to call `onlyOwner` functions anymore. Can only be called by the current owner. NOTE: Renouncing ownership will leave the contract without an owner, thereby removing any functionality that is only available to the owner."
      },
      "transferOwnership(address)": {
        "details": "Transfers ownership of the contract to a new account (`newOwner`). Can only be called by the current owner."
      }
    },
    "version": 1
  },
  "userdoc": {
    "kind": "user",
    "methods": {},
    "version": 1
  },
  "storageLayout": {
    "storage": [
      {
        "astId": 53,
        "contract": "contracts/rewards/MasterChef.sol:MasterChef",
        "label": "_owner",
        "offset": 0,
        "slot": "0",
        "type": "t_address"
      },
      {
        "astId": 9230,
        "contract": "contracts/rewards/MasterChef.sol:MasterChef",
        "label": "userInfo",
        "offset": 0,
        "slot": "1",
        "type": "t_mapping(t_uint256,t_mapping(t_address,t_struct(UserInfo)9224_storage))"
      },
      {
        "astId": 9250,
        "contract": "contracts/rewards/MasterChef.sol:MasterChef",
        "label": "poolInfo",
        "offset": 0,
        "slot": "2",
        "type": "t_array(t_struct(PoolInfo)9247_storage)dyn_storage"
      },
      {
        "astId": 9287,
        "contract": "contracts/rewards/MasterChef.sol:MasterChef",
        "label": "marketFactoryRewardInfo",
        "offset": 0,
        "slot": "3",
        "type": "t_mapping(t_address,t_struct(MarketFactoryInfo)9283_storage)"
      },
      {
        "astId": 9300,
        "contract": "contracts/rewards/MasterChef.sol:MasterChef",
        "label": "rewardPoolLookup",
        "offset": 0,
        "slot": "4",
        "type": "t_mapping(t_address,t_mapping(t_address,t_mapping(t_uint256,t_struct(RewardPoolLookupInfo)9292_storage)))"
      },
      {
        "astId": 9302,
        "contract": "contracts/rewards/MasterChef.sol:MasterChef",
        "label": "rewardsToken",
        "offset": 0,
        "slot": "5",
        "type": "t_contract(IERC20)1091"
      },
      {
        "astId": 9306,
        "contract": "contracts/rewards/MasterChef.sol:MasterChef",
        "label": "approvedAMMFactories",
        "offset": 0,
        "slot": "6",
        "type": "t_mapping(t_address,t_bool)"
      }
    ],
    "types": {
      "t_address": {
        "encoding": "inplace",
        "label": "address",
        "numberOfBytes": "20"
      },
      "t_array(t_struct(PoolInfo)9247_storage)dyn_storage": {
        "base": "t_struct(PoolInfo)9247_storage",
        "encoding": "dynamic_array",
        "label": "struct MasterChef.PoolInfo[]",
        "numberOfBytes": "32"
      },
      "t_bool": {
        "encoding": "inplace",
        "label": "bool",
        "numberOfBytes": "1"
      },
      "t_contract(IERC20)1091": {
        "encoding": "inplace",
        "label": "contract IERC20",
        "numberOfBytes": "20"
      },
      "t_mapping(t_address,t_bool)": {
        "encoding": "mapping",
        "key": "t_address",
        "label": "mapping(address => bool)",
        "numberOfBytes": "32",
        "value": "t_bool"
      },
      "t_mapping(t_address,t_mapping(t_address,t_mapping(t_uint256,t_struct(RewardPoolLookupInfo)9292_storage)))": {
        "encoding": "mapping",
        "key": "t_address",
        "label": "mapping(address => mapping(address => mapping(uint256 => struct MasterChef.RewardPoolLookupInfo)))",
        "numberOfBytes": "32",
        "value": "t_mapping(t_address,t_mapping(t_uint256,t_struct(RewardPoolLookupInfo)9292_storage))"
      },
      "t_mapping(t_address,t_mapping(t_uint256,t_struct(RewardPoolLookupInfo)9292_storage))": {
        "encoding": "mapping",
        "key": "t_address",
        "label": "mapping(address => mapping(uint256 => struct MasterChef.RewardPoolLookupInfo))",
        "numberOfBytes": "32",
        "value": "t_mapping(t_uint256,t_struct(RewardPoolLookupInfo)9292_storage)"
      },
      "t_mapping(t_address,t_struct(MarketFactoryInfo)9283_storage)": {
        "encoding": "mapping",
        "key": "t_address",
        "label": "mapping(address => struct MasterChef.MarketFactoryInfo)",
        "numberOfBytes": "32",
        "value": "t_struct(MarketFactoryInfo)9283_storage"
      },
      "t_mapping(t_address,t_struct(UserInfo)9224_storage)": {
        "encoding": "mapping",
        "key": "t_address",
        "label": "mapping(address => struct MasterChef.UserInfo)",
        "numberOfBytes": "32",
        "value": "t_struct(UserInfo)9224_storage"
      },
      "t_mapping(t_uint256,t_mapping(t_address,t_struct(UserInfo)9224_storage))": {
        "encoding": "mapping",
        "key": "t_uint256",
        "label": "mapping(uint256 => mapping(address => struct MasterChef.UserInfo))",
        "numberOfBytes": "32",
        "value": "t_mapping(t_address,t_struct(UserInfo)9224_storage)"
      },
      "t_mapping(t_uint256,t_struct(RewardPoolLookupInfo)9292_storage)": {
        "encoding": "mapping",
        "key": "t_uint256",
        "label": "mapping(uint256 => struct MasterChef.RewardPoolLookupInfo)",
        "numberOfBytes": "32",
        "value": "t_struct(RewardPoolLookupInfo)9292_storage"
      },
      "t_struct(MarketFactoryInfo)9283_storage": {
        "encoding": "inplace",
        "label": "struct MasterChef.MarketFactoryInfo",
        "members": [
          {
            "astId": 9278,
            "contract": "contracts/rewards/MasterChef.sol:MasterChef",
            "label": "earlyDepositBonusRewards",
            "offset": 0,
            "slot": "0",
            "type": "t_uint256"
          },
          {
            "astId": 9280,
            "contract": "contracts/rewards/MasterChef.sol:MasterChef",
            "label": "rewardsPeriods",
            "offset": 0,
            "slot": "1",
            "type": "t_uint256"
          },
          {
            "astId": 9282,
            "contract": "contracts/rewards/MasterChef.sol:MasterChef",
            "label": "rewardsPerPeriod",
            "offset": 0,
            "slot": "2",
            "type": "t_uint256"
          }
        ],
        "numberOfBytes": "96"
      },
      "t_struct(PoolInfo)9247_storage": {
        "encoding": "inplace",
        "label": "struct MasterChef.PoolInfo",
        "members": [
          {
            "astId": 9232,
            "contract": "contracts/rewards/MasterChef.sol:MasterChef",
            "label": "lpToken",
            "offset": 0,
            "slot": "0",
            "type": "t_contract(IERC20)1091"
          },
          {
            "astId": 9234,
            "contract": "contracts/rewards/MasterChef.sol:MasterChef",
            "label": "accRewardsPerShare",
            "offset": 0,
            "slot": "1",
            "type": "t_uint256"
          },
          {
            "astId": 9236,
            "contract": "contracts/rewards/MasterChef.sol:MasterChef",
            "label": "totalEarlyDepositBonusRewardShares",
            "offset": 0,
            "slot": "2",
            "type": "t_uint256"
          },
          {
            "astId": 9238,
            "contract": "contracts/rewards/MasterChef.sol:MasterChef",
            "label": "beginTimestamp",
            "offset": 0,
            "slot": "3",
            "type": "t_uint256"
          },
          {
            "astId": 9240,
            "contract": "contracts/rewards/MasterChef.sol:MasterChef",
            "label": "endTimestamp",
            "offset": 0,
            "slot": "4",
            "type": "t_uint256"
          },
          {
            "astId": 9242,
            "contract": "contracts/rewards/MasterChef.sol:MasterChef",
            "label": "earlyDepositBonusRewards",
            "offset": 0,
            "slot": "5",
            "type": "t_uint256"
          },
          {
            "astId": 9244,
            "contract": "contracts/rewards/MasterChef.sol:MasterChef",
            "label": "lastRewardTimestamp",
            "offset": 0,
            "slot": "6",
            "type": "t_uint256"
          },
          {
            "astId": 9246,
            "contract": "contracts/rewards/MasterChef.sol:MasterChef",
            "label": "rewardsPerSecond",
            "offset": 0,
            "slot": "7",
            "type": "t_uint256"
          }
        ],
        "numberOfBytes": "256"
      },
      "t_struct(RewardPoolLookupInfo)9292_storage": {
        "encoding": "inplace",
        "label": "struct MasterChef.RewardPoolLookupInfo",
        "members": [
          {
            "astId": 9289,
            "contract": "contracts/rewards/MasterChef.sol:MasterChef",
            "label": "pid",
            "offset": 0,
            "slot": "0",
            "type": "t_uint256"
          },
          {
            "astId": 9291,
            "contract": "contracts/rewards/MasterChef.sol:MasterChef",
            "label": "created",
            "offset": 0,
            "slot": "1",
            "type": "t_bool"
          }
        ],
        "numberOfBytes": "64"
      },
      "t_struct(UserInfo)9224_storage": {
        "encoding": "inplace",
        "label": "struct MasterChef.UserInfo",
        "members": [
          {
            "astId": 9219,
            "contract": "contracts/rewards/MasterChef.sol:MasterChef",
            "label": "amount",
            "offset": 0,
            "slot": "0",
            "type": "t_uint256"
          },
          {
            "astId": 9221,
            "contract": "contracts/rewards/MasterChef.sol:MasterChef",
            "label": "rewardDebt",
            "offset": 0,
            "slot": "1",
            "type": "t_uint256"
          },
          {
            "astId": 9223,
            "contract": "contracts/rewards/MasterChef.sol:MasterChef",
            "label": "lastActionTimestamp",
            "offset": 0,
            "slot": "2",
            "type": "t_uint256"
          }
        ],
        "numberOfBytes": "96"
      },
      "t_uint256": {
        "encoding": "inplace",
        "label": "uint256",
        "numberOfBytes": "32"
      }
    }
  }
}