{
  "address": "0xb1470222dE1Ee0da411AC553e9790cF850a6fb76",
  "abi": [
    {
      "inputs": [
        {
          "internalType": "contract IERC20",
          "name": "_rewardsToken",
          "type": "address"
        }
      ],
      "stateMutability": "nonpayable",
      "type": "constructor"
    },
    {
      "anonymous": false,
      "inputs": [
        {
          "indexed": true,
          "internalType": "address",
          "name": "user",
          "type": "address"
        },
        {
          "indexed": true,
          "internalType": "uint256",
          "name": "pid",
          "type": "uint256"
        },
        {
          "indexed": false,
          "internalType": "uint256",
          "name": "amount",
          "type": "uint256"
        }
      ],
      "name": "Deposit",
      "type": "event"
    },
    {
      "anonymous": false,
      "inputs": [
        {
          "indexed": true,
          "internalType": "address",
          "name": "user",
          "type": "address"
        },
        {
          "indexed": true,
          "internalType": "uint256",
          "name": "pid",
          "type": "uint256"
        },
        {
          "indexed": false,
          "internalType": "uint256",
          "name": "amount",
          "type": "uint256"
        }
      ],
      "name": "EmergencyWithdraw",
      "type": "event"
    },
    {
      "anonymous": false,
      "inputs": [
        {
          "indexed": true,
          "internalType": "address",
          "name": "previousOwner",
          "type": "address"
        },
        {
          "indexed": true,
          "internalType": "address",
          "name": "newOwner",
          "type": "address"
        }
      ],
      "name": "OwnershipTransferred",
      "type": "event"
    },
    {
      "anonymous": false,
      "inputs": [
        {
          "indexed": true,
          "internalType": "address",
          "name": "MarketFactory",
          "type": "address"
        },
        {
          "indexed": false,
          "internalType": "uint256",
          "name": "OriginEarlyDepositBonusRewards",
          "type": "uint256"
        },
        {
          "indexed": false,
          "internalType": "uint256",
          "name": "OriginrewardsPeriods",
          "type": "uint256"
        },
        {
          "indexed": false,
          "internalType": "uint256",
          "name": "OriginRewardsPerPeriod",
          "type": "uint256"
        },
        {
          "indexed": false,
          "internalType": "uint256",
          "name": "EarlyDepositBonusRewards",
          "type": "uint256"
        },
        {
          "indexed": false,
          "internalType": "uint256",
          "name": "rewardsPeriods",
          "type": "uint256"
        },
        {
          "indexed": false,
          "internalType": "uint256",
          "name": "RewardsPerPeriod",
          "type": "uint256"
        }
      ],
      "name": "TrustMarketFactory",
      "type": "event"
    },
    {
      "anonymous": false,
      "inputs": [
        {
          "indexed": true,
          "internalType": "address",
          "name": "user",
          "type": "address"
        },
        {
          "indexed": true,
          "internalType": "uint256",
          "name": "pid",
          "type": "uint256"
        },
        {
          "indexed": false,
          "internalType": "uint256",
          "name": "amount",
          "type": "uint256"
        }
      ],
      "name": "Withdraw",
      "type": "event"
    },
    {
      "inputs": [],
      "name": "BONE",
      "outputs": [
        {
          "internalType": "uint256",
          "name": "",
          "type": "uint256"
        }
      ],
      "stateMutability": "view",
      "type": "function"
    },
    {
      "inputs": [],
      "name": "EARLY_DEPOSIT_BONUS_REWARDS_PERCENTAGE",
      "outputs": [
        {
          "internalType": "uint256",
          "name": "",
          "type": "uint256"
        }
      ],
      "stateMutability": "view",
      "type": "function"
    },
    {
      "inputs": [
        {
          "internalType": "address",
          "name": "_marketFactory",
          "type": "address"
        },
        {
          "internalType": "contract IERC20",
          "name": "_lpToken",
          "type": "address"
        }
      ],
      "name": "add",
      "outputs": [
        {
          "internalType": "uint256",
          "name": "_nextPID",
          "type": "uint256"
        }
      ],
      "stateMutability": "nonpayable",
      "type": "function"
    },
    {
      "inputs": [
        {
          "internalType": "address",
          "name": "_marketFactory",
          "type": "address"
        },
        {
          "internalType": "uint256",
          "name": "_rewardsPerMarket",
          "type": "uint256"
        },
        {
          "internalType": "uint256",
          "name": "_rewardDaysPerMarket",
          "type": "uint256"
        },
        {
          "internalType": "uint256",
          "name": "_earlyDepositBonusRewards",
          "type": "uint256"
        }
      ],
      "name": "addRewards",
      "outputs": [],
      "stateMutability": "nonpayable",
      "type": "function"
    },
    {
      "inputs": [
        {
          "internalType": "uint256",
          "name": "_pid",
          "type": "uint256"
        },
        {
          "internalType": "uint256",
          "name": "_amount",
          "type": "uint256"
        }
      ],
      "name": "deposit",
      "outputs": [],
      "stateMutability": "nonpayable",
      "type": "function"
    },
    {
      "inputs": [
        {
          "internalType": "uint256",
          "name": "_pid",
          "type": "uint256"
        }
      ],
      "name": "emergencyWithdraw",
      "outputs": [],
      "stateMutability": "nonpayable",
      "type": "function"
    },
    {
      "inputs": [
        {
          "internalType": "uint256",
          "name": "_pid",
          "type": "uint256"
        },
        {
          "internalType": "address",
          "name": "_user",
          "type": "address"
        }
      ],
      "name": "getPendingRewardInfo",
      "outputs": [
        {
          "components": [
            {
              "internalType": "uint256",
              "name": "beginTimestamp",
              "type": "uint256"
            },
            {
              "internalType": "uint256",
              "name": "endTimestamp",
              "type": "uint256"
            },
            {
              "internalType": "uint256",
              "name": "earlyDepositEndTimestamp",
              "type": "uint256"
            },
            {
              "internalType": "uint256",
              "name": "accruedStandardRewards",
              "type": "uint256"
            },
            {
              "internalType": "uint256",
              "name": "accruedEarlyDepositBonusRewards",
              "type": "uint256"
            },
            {
              "internalType": "uint256",
              "name": "pendingEarlyDepositBonusRewards",
              "type": "uint256"
            }
          ],
          "internalType": "struct MasterChef.PendingRewardInfo",
          "name": "_pendingRewardInfo",
          "type": "tuple"
        }
      ],
      "stateMutability": "view",
      "type": "function"
    },
    {
      "inputs": [
        {
          "internalType": "uint256",
          "name": "_pid",
          "type": "uint256"
        }
      ],
      "name": "getPercentageOfRewardsForPeriod",
      "outputs": [
        {
          "internalType": "uint256",
          "name": "",
          "type": "uint256"
        }
      ],
      "stateMutability": "view",
      "type": "function"
    },
    {
      "inputs": [
        {
          "internalType": "uint256",
          "name": "_pid",
          "type": "uint256"
        }
      ],
      "name": "getPoolRewardEndTimestamp",
      "outputs": [
        {
          "internalType": "uint256",
          "name": "",
          "type": "uint256"
        }
      ],
      "stateMutability": "view",
      "type": "function"
    },
    {
      "inputs": [
        {
          "internalType": "uint256",
          "name": "_pid",
          "type": "uint256"
        },
        {
          "internalType": "address",
          "name": "_user",
          "type": "address"
        }
      ],
      "name": "getUserAmount",
      "outputs": [
        {
          "internalType": "uint256",
          "name": "",
          "type": "uint256"
        }
      ],
      "stateMutability": "view",
      "type": "function"
    },
    {
      "inputs": [],
      "name": "massUpdatePools",
      "outputs": [],
      "stateMutability": "nonpayable",
      "type": "function"
    },
    {
      "inputs": [],
      "name": "owner",
      "outputs": [
        {
          "internalType": "address",
          "name": "",
          "type": "address"
        }
      ],
      "stateMutability": "view",
      "type": "function"
    },
    {
      "inputs": [
        {
          "internalType": "uint256",
          "name": "",
          "type": "uint256"
        }
      ],
      "name": "poolInfo",
      "outputs": [
        {
          "internalType": "contract IERC20",
          "name": "lpToken",
          "type": "address"
        },
        {
          "internalType": "uint256",
          "name": "accRewardsPerShare",
          "type": "uint256"
        },
        {
          "internalType": "uint256",
          "name": "totalEarlyDepositBonusRewardShares",
          "type": "uint256"
        },
        {
          "internalType": "uint256",
          "name": "beginTimestamp",
          "type": "uint256"
        },
        {
          "internalType": "uint256",
          "name": "earlyDepositBonusRewards",
          "type": "uint256"
        },
        {
          "internalType": "uint256",
          "name": "lastRewardTimestamp",
          "type": "uint256"
        },
        {
          "internalType": "uint256",
          "name": "rewardsPeriods",
          "type": "uint256"
        },
        {
          "internalType": "uint256",
          "name": "rewardsPerPeriod",
          "type": "uint256"
        }
      ],
      "stateMutability": "view",
      "type": "function"
    },
    {
      "inputs": [],
      "name": "poolLength",
      "outputs": [
        {
          "internalType": "uint256",
          "name": "",
          "type": "uint256"
        }
      ],
      "stateMutability": "view",
      "type": "function"
    },
    {
      "inputs": [],
      "name": "renounceOwnership",
      "outputs": [],
      "stateMutability": "nonpayable",
      "type": "function"
    },
    {
      "inputs": [
        {
          "internalType": "address",
          "name": "newOwner",
          "type": "address"
        }
      ],
      "name": "transferOwnership",
      "outputs": [],
      "stateMutability": "nonpayable",
      "type": "function"
    },
    {
      "inputs": [
        {
          "internalType": "address",
          "name": "_ammFactory",
          "type": "address"
        }
      ],
      "name": "trustAMMFactory",
      "outputs": [],
      "stateMutability": "nonpayable",
      "type": "function"
    },
    {
      "inputs": [
        {
          "internalType": "address",
          "name": "_user",
          "type": "address"
        },
        {
          "internalType": "uint256",
          "name": "_pid",
          "type": "uint256"
        },
        {
          "internalType": "uint256",
          "name": "_amount",
          "type": "uint256"
        }
      ],
      "name": "trustedDeposit",
      "outputs": [],
      "stateMutability": "nonpayable",
      "type": "function"
    },
    {
      "inputs": [
        {
          "internalType": "address",
          "name": "_user",
          "type": "address"
        },
        {
          "internalType": "uint256",
          "name": "_pid",
          "type": "uint256"
        },
        {
          "internalType": "uint256",
          "name": "_amount",
          "type": "uint256"
        }
      ],
      "name": "trustedWithdraw",
      "outputs": [],
      "stateMutability": "nonpayable",
      "type": "function"
    },
    {
      "inputs": [
        {
          "internalType": "address",
          "name": "_ammFactory",
          "type": "address"
        }
      ],
      "name": "untrustAMMFactory",
      "outputs": [],
      "stateMutability": "nonpayable",
      "type": "function"
    },
    {
      "inputs": [
        {
          "internalType": "uint256",
          "name": "_pid",
          "type": "uint256"
        }
      ],
      "name": "updatePool",
      "outputs": [],
      "stateMutability": "nonpayable",
      "type": "function"
    },
    {
      "inputs": [
        {
          "internalType": "uint256",
          "name": "",
          "type": "uint256"
        },
        {
          "internalType": "address",
          "name": "",
          "type": "address"
        }
      ],
      "name": "userInfo",
      "outputs": [
        {
          "internalType": "uint256",
          "name": "amount",
          "type": "uint256"
        },
        {
          "internalType": "uint256",
          "name": "rewardDebt",
          "type": "uint256"
        },
        {
          "internalType": "uint256",
          "name": "lastActionTimestamp",
          "type": "uint256"
        }
      ],
      "stateMutability": "view",
      "type": "function"
    },
    {
      "inputs": [
        {
          "internalType": "uint256",
          "name": "_pid",
          "type": "uint256"
        },
        {
          "internalType": "uint256",
          "name": "_amount",
          "type": "uint256"
        }
      ],
      "name": "withdraw",
      "outputs": [],
      "stateMutability": "nonpayable",
      "type": "function"
    },
    {
      "inputs": [
        {
          "internalType": "uint256",
          "name": "_amount",
          "type": "uint256"
        }
      ],
      "name": "withdrawRewards",
      "outputs": [],
      "stateMutability": "nonpayable",
      "type": "function"
    }
  ],
  "transactionHash": "0xfe0e1dd6e16c957f301fb7ab4b19a3ca0c370d960e9f156fb9438ceb2bf58d10",
  "args": [
    "0x101dd4e3BF949890e7CC85c1210956D267f3D9D9"
  ],
  "solcInputHash": "67dc043c647eb1d8841d1189598d111b",
  "bytecode": "0x60806040523480156200001157600080fd5b506040516200202f3803806200202f8339810160408190526200003491620000b4565b600062000040620000b0565b600080546001600160a01b0319166001600160a01b0383169081178255604051929350917f8be0079c531659141344cd1fd0a4f28419497f9722a3daafe3b4186f6b6457e0908290a350600480546001600160a01b0319166001600160a01b0392909216919091179055620000e4565b3390565b600060208284031215620000c6578081fd5b81516001600160a01b0381168114620000dd578182fd5b9392505050565b611f3b80620000f46000396000f3fe608060405234801561001057600080fd5b50600436106101585760003560e01c80638da5cb5b116100c3578063c36596a61161007c578063c36596a6146102d1578063d8c08b87146102d9578063e2bbb158146102ec578063eb97ed96146102ff578063f2fde38b14610312578063f7c6e2311461032557610158565b80638da5cb5b1461024e5780639342c8f41461026357806393f1a40b14610276578063af9551f714610298578063b3474751146102ab578063b453d9b5146102be57610158565b806351eb05a61161011557806351eb05a6146101fd57806352c28fab146102105780635312ea8e146102235780636142da6414610236578063630b5ba11461023e578063715018a61461024657610158565b806301b35f101461015d578063081e3eda146101725780631526fe27146101905780633437586b146101b7578063441a3e70146101ca5780634ad9b7ec146101dd575b600080fd5b61017061016b366004611bda565b610338565b005b61017a610380565b6040516101879190611df2565b60405180910390f35b6101a361019e366004611c68565b610386565b604051610187989796959493929190611d0a565b61017a6101c5366004611c98565b6103e6565b6101706101d8366004611cbc565b610410565b6101f06101eb366004611c98565b61041f565b6040516101879190611dae565b61017061020b366004611c68565b610631565b61017a61021e366004611ba2565b61073d565b610170610231366004611c68565b61094d565b61017a6109f3565b6101706109ff565b610170610a1e565b610256610aca565b6040516101879190611cdd565b610170610271366004611c68565b610ad9565b610289610284366004611c98565b610bbe565b60405161018793929190611dfb565b6101706102a6366004611b86565b610be6565b6101706102b9366004611bda565b610c6c565b61017a6102cc366004611c68565b610ca6565b61017a610ce8565b6101706102e7366004611c0e565b610cf4565b6101706102fa366004611cbc565b610e67565b61017061030d366004611b86565b610e72565b610170610320366004611b86565b610ef5565b61017a610333366004611c68565b610ff7565b3360009081526005602052604090205460ff166103705760405162461bcd60e51b815260040161036790611d4b565b60405180910390fd5b61037b8383836110c4565b505050565b60025490565b6002818154811061039657600080fd5b6000918252602090912060089091020180546001820154600283015460038401546004850154600586015460068701546007909701546001600160a01b0390961697509395929491939092909188565b60008281526001602090815260408083206001600160a01b03851684529091529020545b92915050565b61041b3383836110c4565b5050565b610427611b50565b60006002848154811061043657fe5b60009182526020808320878452600180835260408086206001600160a01b03808b1688529452808620600890950290920190810154815492516370a0823160e01b815291965093949291909116906370a0823190610498903090600401611cdd565b60206040518083038186803b1580156104b057600080fd5b505afa1580156104c4573d6000803e3d6000fd5b505050506040513d601f19601f820116820180604052508101906104e89190611c80565b6006850154620151808102602088015260038601546001670de0b6b3a76400006901d460162f516f000000909302929092040101604087015260028501549091506000901580159061053d5750856020015142115b1561056d57600285015484546004870154610563929161055d91906112da565b9061133a565b6080870152610598565b60028501541561059857600285015484546004870154610592929161055d91906112da565b60a08701525b8460050154421180156105aa57508115155b156105e55760006105ba89610ff7565b90506105e16105da8461055d8960070154856112da90919063ffffffff16565b85906113a1565b9350505b6106208161061a8660010154610614670de0b6b3a764000061055d898b600001546112da90919063ffffffff16565b906113fb565b906113a1565b606087015250939695505050505050565b60006002828154811061064057fe5b9060005260206000209060080201905080600501544211610661575061073a565b80546040516370a0823160e01b81526000916001600160a01b0316906370a0823190610691903090600401611cdd565b60206040518083038186803b1580156106a957600080fd5b505afa1580156106bd573d6000803e3d6000fd5b505050506040513d601f19601f820116820180604052508101906106e19190611c80565b9050806106f557504260059091015561073a565b600061070084610ff7565b905061072b6107208361055d8660070154856112da90919063ffffffff16565b6001850154906113a1565b60018401555050426005909101555b50565b3360009081526005602052604081205460ff1661076c5760405162461bcd60e51b815260040161036790611d4b565b50600280546001600160a01b03938416600090815260036020908152604080832081516060808201845282548252600180840154838701908152938901548386019081528551610100810187529a8c168b52958a01878152948a0187815242928b01838152935160808c0190815260a08c01938452945160c08c01908152965160e08c019081529189018a559890965297517f405787fa12a823e0f2b7631cc41b3ba8828b3321ca811111fa75cd3aa3bb5ace6008880290810180546001600160a01b03191692909b169190911790995591517f405787fa12a823e0f2b7631cc41b3ba8828b3321ca811111fa75cd3aa3bb5acf89015594517f405787fa12a823e0f2b7631cc41b3ba8828b3321ca811111fa75cd3aa3bb5ad0880155517f405787fa12a823e0f2b7631cc41b3ba8828b3321ca811111fa75cd3aa3bb5ad187015592517f405787fa12a823e0f2b7631cc41b3ba8828b3321ca811111fa75cd3aa3bb5ad286015592517f405787fa12a823e0f2b7631cc41b3ba8828b3321ca811111fa75cd3aa3bb5ad385015590517f405787fa12a823e0f2b7631cc41b3ba8828b3321ca811111fa75cd3aa3bb5ad484015590517f405787fa12a823e0f2b7631cc41b3ba8828b3321ca811111fa75cd3aa3bb5ad59092019190915590565b60006002828154811061095c57fe5b600091825260208083208584526001825260408085203380875293529093208054600890930290930180549094506109a1926001600160a01b03919091169190611458565b8054604051849133917fbb757047c2b5f3974fe26b7c10f732e7bce710b0952a71082702781e62ae0595916109d591611df2565b60405180910390a36000808255600182018190556002909101555050565b67016345785d8a000081565b60025460005b8181101561041b57610a1681610631565b600101610a05565b610a266114aa565b6001600160a01b0316610a37610aca565b6001600160a01b031614610a80576040805162461bcd60e51b81526020600482018190526024820152600080516020611ebc833981519152604482015290519081900360640190fd5b600080546040516001600160a01b03909116907f8be0079c531659141344cd1fd0a4f28419497f9722a3daafe3b4186f6b6457e0908390a3600080546001600160a01b0319169055565b6000546001600160a01b031690565b610ae16114aa565b6001600160a01b0316610af2610aca565b6001600160a01b031614610b3b576040805162461bcd60e51b81526020600482018190526024820152600080516020611ebc833981519152604482015290519081900360640190fd5b6004805460405163a9059cbb60e01b81526001600160a01b039091169163a9059cbb91610b6c913391869101611cf1565b602060405180830381600087803b158015610b8657600080fd5b505af1158015610b9a573d6000803e3d6000fd5b505050506040513d601f19601f8201168201806040525081019061041b9190611c48565b6001602081815260009384526040808520909152918352912080549181015460029091015483565b610bee6114aa565b6001600160a01b0316610bff610aca565b6001600160a01b031614610c48576040805162461bcd60e51b81526020600482018190526024820152600080516020611ebc833981519152604482015290519081900360640190fd5b6001600160a01b03166000908152600560205260409020805460ff19166001179055565b3360009081526005602052604090205460ff16610c9b5760405162461bcd60e51b815260040161036790611d4b565b61037b8383836114ae565b60008060028381548110610cb657fe5b90600052602060002090600802019050600081600601546201518002600101905081600301548101925050505b919050565b670de0b6b3a764000081565b610cfc6114aa565b6001600160a01b0316610d0d610aca565b6001600160a01b031614610d56576040805162461bcd60e51b81526020600482018190526024820152600080516020611ebc833981519152604482015290519081900360640190fd5b600060036000866001600160a01b03166001600160a01b031681526020019081526020016000206040518060600160405290816000820154815260200160018201548152602001600282015481525050905060405180606001604052808381526020018481526020018581525060036000876001600160a01b03166001600160a01b03168152602001908152602001600020600082015181600001556020820151816001015560408201518160020155905050846001600160a01b03167fe306af96e1d2ee556327ede5cfbae9786f190dd64b7948e676453e607cc73f4982600001518360200151846040015186888a604051610e5896959493929190611e11565b60405180910390a25050505050565b61041b3383836114ae565b610e7a6114aa565b6001600160a01b0316610e8b610aca565b6001600160a01b031614610ed4576040805162461bcd60e51b81526020600482018190526024820152600080516020611ebc833981519152604482015290519081900360640190fd5b6001600160a01b03166000908152600560205260409020805460ff19169055565b610efd6114aa565b6001600160a01b0316610f0e610aca565b6001600160a01b031614610f57576040805162461bcd60e51b81526020600482018190526024820152600080516020611ebc833981519152604482015290519081900360640190fd5b6001600160a01b038116610f9c5760405162461bcd60e51b8152600401808060200182810382526026815260200180611e4f6026913960400191505060405180910390fd5b600080546040516001600160a01b03808516939216917f8be0079c531659141344cd1fd0a4f28419497f9722a3daafe3b4186f6b6457e091a3600080546001600160a01b0319166001600160a01b0392909216919091179055565b6000806002838154811061100757fe5b90600052602060002090600802019050600042905080826003015411806110315750808260050154115b8061103e57506007820154155b8061104b57506006820154155b1561105b57600092505050610ce3565b600082600601546201518002905060008360030154820160010190508084600501541061108f576000945050505050610ce3565b60006110a385600501546106148685611674565b905082670de0b6b3a76400008202816110b857fe5b04979650505050505050565b6000600283815481106110d357fe5b600091825260208083208684526001825260408085206001600160a01b038a16865290925292208054600890920290920192508311156111255760405162461bcd60e51b815260040161036790611d82565b61112e84610631565b600082600601546201518002905060008360030154670de0b6b3a7640000600a670de0b6b3a76400008161115e57fe5b0484028161116857fe5b0401600101905060008460030154830160010190504281116111c2576002850154156111bd5760006111af866002015461055d8989600401546112da90919063ffffffff16565b90506111bb898261168b565b505b611203565b4282106111e25760028501546111d890876113fb565b6002860155611203565b8360020154821061120357835460028601546111fd916113fb565b60028601555b60006112348560010154610614670de0b6b3a764000061055d8a600101548a600001546112da90919063ffffffff16565b9050611240898261168b565b845461124c90886113fb565b808655600187015461126c91670de0b6b3a76400009161055d91906112da565b6001860155426002860155855461128d906001600160a01b03163389611458565b87336001600160a01b03167ff279e6a1f5e320cca91135676d9cb6e44ca8a08c0b88342bcdb1144f6511b568896040516112c79190611df2565b60405180910390a3505050505050505050565b6000826112e95750600061040a565b828202828482816112f657fe5b04146113335760405162461bcd60e51b8152600401808060200182810382526021815260200180611e9b6021913960400191505060405180910390fd5b9392505050565b6000808211611390576040805162461bcd60e51b815260206004820152601a60248201527f536166654d6174683a206469766973696f6e206279207a65726f000000000000604482015290519081900360640190fd5b81838161139957fe5b049392505050565b600082820183811015611333576040805162461bcd60e51b815260206004820152601b60248201527f536166654d6174683a206164646974696f6e206f766572666c6f770000000000604482015290519081900360640190fd5b600082821115611452576040805162461bcd60e51b815260206004820152601e60248201527f536166654d6174683a207375627472616374696f6e206f766572666c6f770000604482015290519081900360640190fd5b50900390565b604080516001600160a01b038416602482015260448082018490528251808303909101815260649091019091526020810180516001600160e01b031663a9059cbb60e01b17905261037b908490611829565b3390565b6000600283815481106114bd57fe5b600091825260208083208684526001825260408085206001600160a01b038a1686529092529220600890910290910191506114f784610631565b80541561153d57600061152f8260010154610614670de0b6b3a764000061055d876001015487600001546112da90919063ffffffff16565b905061153b868261168b565b505b600082600601546201518002905060008360030154670de0b6b3a7640000600a670de0b6b3a76400008161156d57fe5b0484028161157757fe5b040160010190506000846003015483016001019050814211801561159f575081846002015411155b156115ba57835460028601546115b4916113fb565b60028601555b428211156115d75760028501546115d190876113a1565b60028601555b84546115ee906001600160a01b03163330896118da565b83546115fa90876113a1565b808555600186015461161a91670de0b6b3a76400009161055d91906112da565b600185015542600285015560405187906001600160a01b038a16907f90890809c654f11d6e72a28fa60149770a0d11ec6c92319d6ceb2bb0a4ea1a1590611662908a90611df2565b60405180910390a35050505050505050565b600081831161168457508161040a565b508061040a565b600480546040516370a0823160e01b81526000926001600160a01b03909216916370a08231916116bd91309101611cdd565b60206040518083038186803b1580156116d557600080fd5b505afa1580156116e9573d6000803e3d6000fd5b505050506040513d601f19601f8201168201806040525081019061170d9190611c80565b9050808211156117a0576004805460405163a9059cbb60e01b81526001600160a01b039091169163a9059cbb91611748918791869101611cf1565b602060405180830381600087803b15801561176257600080fd5b505af1158015611776573d6000803e3d6000fd5b505050506040513d601f19601f8201168201806040525081019061179a9190611c48565b5061037b565b6004805460405163a9059cbb60e01b81526001600160a01b039091169163a9059cbb916117d1918791879101611cf1565b602060405180830381600087803b1580156117eb57600080fd5b505af11580156117ff573d6000803e3d6000fd5b505050506040513d601f19601f820116820180604052508101906118239190611c48565b50505050565b600061187e826040518060400160405280602081526020017f5361666545524332303a206c6f772d6c6576656c2063616c6c206661696c6564815250856001600160a01b03166119349092919063ffffffff16565b80519091501561037b5780806020019051602081101561189d57600080fd5b505161037b5760405162461bcd60e51b815260040180806020018281038252602a815260200180611edc602a913960400191505060405180910390fd5b604080516001600160a01b0380861660248301528416604482015260648082018490528251808303909101815260849091019091526020810180516001600160e01b03166323b872dd60e01b179052611823908590611829565b6060611943848460008561194b565b949350505050565b60608247101561198c5760405162461bcd60e51b8152600401808060200182810382526026815260200180611e756026913960400191505060405180910390fd5b61199585611aa6565b6119e6576040805162461bcd60e51b815260206004820152601d60248201527f416464726573733a2063616c6c20746f206e6f6e2d636f6e7472616374000000604482015290519081900360640190fd5b600080866001600160a01b031685876040518082805190602001908083835b60208310611a245780518252601f199092019160209182019101611a05565b6001836020036101000a03801982511681845116808217855250505050505090500191505060006040518083038185875af1925050503d8060008114611a86576040519150601f19603f3d011682016040523d82523d6000602084013e611a8b565b606091505b5091509150611a9b828286611aac565b979650505050505050565b3b151590565b60608315611abb575081611333565b825115611acb5782518084602001fd5b8160405162461bcd60e51b81526004018080602001828103825283818151815260200191508051906020019080838360005b83811015611b15578181015183820152602001611afd565b50505050905090810190601f168015611b425780820380516001836020036101000a031916815260200191505b509250505060405180910390fd5b6040518060c001604052806000815260200160008152602001600081526020016000815260200160008152602001600081525090565b600060208284031215611b97578081fd5b813561133381611e39565b60008060408385031215611bb4578081fd5b8235611bbf81611e39565b91506020830135611bcf81611e39565b809150509250929050565b600080600060608486031215611bee578081fd5b8335611bf981611e39565b95602085013595506040909401359392505050565b60008060008060808587031215611c23578081fd5b8435611c2e81611e39565b966020860135965060408601359560600135945092505050565b600060208284031215611c59578081fd5b81518015158114611333578182fd5b600060208284031215611c79578081fd5b5035919050565b600060208284031215611c91578081fd5b5051919050565b60008060408385031215611caa578182fd5b823591506020830135611bcf81611e39565b60008060408385031215611cce578182fd5b50508035926020909101359150565b6001600160a01b0391909116815260200190565b6001600160a01b03929092168252602082015260400190565b6001600160a01b03989098168852602088019690965260408701949094526060860192909252608085015260a084015260c083015260e08201526101000190565b60208082526018908201527f43616c6c6572206d75737420626520617070726f7665642e0000000000000000604082015260600190565b6020808252601290820152711dda5d1a191c985dce881b9bdd0819dbdbd960721b604082015260600190565b600060c082019050825182526020830151602083015260408301516040830152606083015160608301526080830151608083015260a083015160a083015292915050565b90815260200190565b9283526020830191909152604082015260600190565b958652602086019490945260408501929092526060840152608083015260a082015260c00190565b6001600160a01b038116811461073a57600080fdfe4f776e61626c653a206e6577206f776e657220697320746865207a65726f2061646472657373416464726573733a20696e73756666696369656e742062616c616e636520666f722063616c6c536166654d6174683a206d756c7469706c69636174696f6e206f766572666c6f774f776e61626c653a2063616c6c6572206973206e6f7420746865206f776e65725361666545524332303a204552433230206f7065726174696f6e20646964206e6f742073756363656564a2646970667358221220a10462cc81aab825775d2d915acead5e0bbeb316d314aa4998e0e4ad1488711e64736f6c63430007060033",
  "devdoc": {
    "kind": "dev",
    "methods": {
      "owner()": {
        "details": "Returns the address of the current owner."
      },
      "renounceOwnership()": {
        "details": "Leaves the contract without owner. It will not be possible to call `onlyOwner` functions anymore. Can only be called by the current owner. NOTE: Renouncing ownership will leave the contract without an owner, thereby removing any functionality that is only available to the owner."
      },
      "transferOwnership(address)": {
        "details": "Transfers ownership of the contract to a new account (`newOwner`). Can only be called by the current owner."
      }
    },
    "version": 1
  },
  "userdoc": {
    "kind": "user",
    "methods": {},
    "version": 1
  },
  "storageLayout": {
    "storage": [
      {
        "astId": 53,
        "contract": "contracts/rewards/MasterChef.sol:MasterChef",
        "label": "_owner",
        "offset": 0,
        "slot": "0",
        "type": "t_address"
      },
      {
        "astId": 9143,
        "contract": "contracts/rewards/MasterChef.sol:MasterChef",
        "label": "userInfo",
        "offset": 0,
        "slot": "1",
        "type": "t_mapping(t_uint256,t_mapping(t_address,t_struct(UserInfo)9137_storage))"
      },
      {
        "astId": 9163,
        "contract": "contracts/rewards/MasterChef.sol:MasterChef",
        "label": "poolInfo",
        "offset": 0,
        "slot": "2",
        "type": "t_array(t_struct(PoolInfo)9160_storage)dyn_storage"
      },
      {
        "astId": 9187,
        "contract": "contracts/rewards/MasterChef.sol:MasterChef",
        "label": "marketFactoryRewardInfo",
        "offset": 0,
        "slot": "3",
        "type": "t_mapping(t_address,t_struct(MarketFactoryInfo)9183_storage)"
      },
      {
        "astId": 9189,
        "contract": "contracts/rewards/MasterChef.sol:MasterChef",
        "label": "rewardsToken",
        "offset": 0,
        "slot": "4",
        "type": "t_contract(IERC20)1091"
      },
      {
        "astId": 9193,
        "contract": "contracts/rewards/MasterChef.sol:MasterChef",
        "label": "approvedAMMFactories",
        "offset": 0,
        "slot": "5",
        "type": "t_mapping(t_address,t_bool)"
      }
    ],
    "types": {
      "t_address": {
        "encoding": "inplace",
        "label": "address",
        "numberOfBytes": "20"
      },
      "t_array(t_struct(PoolInfo)9160_storage)dyn_storage": {
        "base": "t_struct(PoolInfo)9160_storage",
        "encoding": "dynamic_array",
        "label": "struct MasterChef.PoolInfo[]",
        "numberOfBytes": "32"
      },
      "t_bool": {
        "encoding": "inplace",
        "label": "bool",
        "numberOfBytes": "1"
      },
      "t_contract(IERC20)1091": {
        "encoding": "inplace",
        "label": "contract IERC20",
        "numberOfBytes": "20"
      },
      "t_mapping(t_address,t_bool)": {
        "encoding": "mapping",
        "key": "t_address",
        "label": "mapping(address => bool)",
        "numberOfBytes": "32",
        "value": "t_bool"
      },
      "t_mapping(t_address,t_struct(MarketFactoryInfo)9183_storage)": {
        "encoding": "mapping",
        "key": "t_address",
        "label": "mapping(address => struct MasterChef.MarketFactoryInfo)",
        "numberOfBytes": "32",
        "value": "t_struct(MarketFactoryInfo)9183_storage"
      },
      "t_mapping(t_address,t_struct(UserInfo)9137_storage)": {
        "encoding": "mapping",
        "key": "t_address",
        "label": "mapping(address => struct MasterChef.UserInfo)",
        "numberOfBytes": "32",
        "value": "t_struct(UserInfo)9137_storage"
      },
      "t_mapping(t_uint256,t_mapping(t_address,t_struct(UserInfo)9137_storage))": {
        "encoding": "mapping",
        "key": "t_uint256",
        "label": "mapping(uint256 => mapping(address => struct MasterChef.UserInfo))",
        "numberOfBytes": "32",
        "value": "t_mapping(t_address,t_struct(UserInfo)9137_storage)"
      },
      "t_struct(MarketFactoryInfo)9183_storage": {
        "encoding": "inplace",
        "label": "struct MasterChef.MarketFactoryInfo",
        "members": [
          {
            "astId": 9178,
            "contract": "contracts/rewards/MasterChef.sol:MasterChef",
            "label": "earlyDepositBonusRewards",
            "offset": 0,
            "slot": "0",
            "type": "t_uint256"
          },
          {
            "astId": 9180,
            "contract": "contracts/rewards/MasterChef.sol:MasterChef",
            "label": "rewardsPeriods",
            "offset": 0,
            "slot": "1",
            "type": "t_uint256"
          },
          {
            "astId": 9182,
            "contract": "contracts/rewards/MasterChef.sol:MasterChef",
            "label": "rewardsPerPeriod",
            "offset": 0,
            "slot": "2",
            "type": "t_uint256"
          }
        ],
        "numberOfBytes": "96"
      },
      "t_struct(PoolInfo)9160_storage": {
        "encoding": "inplace",
        "label": "struct MasterChef.PoolInfo",
        "members": [
          {
            "astId": 9145,
            "contract": "contracts/rewards/MasterChef.sol:MasterChef",
            "label": "lpToken",
            "offset": 0,
            "slot": "0",
            "type": "t_contract(IERC20)1091"
          },
          {
            "astId": 9147,
            "contract": "contracts/rewards/MasterChef.sol:MasterChef",
            "label": "accRewardsPerShare",
            "offset": 0,
            "slot": "1",
            "type": "t_uint256"
          },
          {
            "astId": 9149,
            "contract": "contracts/rewards/MasterChef.sol:MasterChef",
            "label": "totalEarlyDepositBonusRewardShares",
            "offset": 0,
            "slot": "2",
            "type": "t_uint256"
          },
          {
            "astId": 9151,
            "contract": "contracts/rewards/MasterChef.sol:MasterChef",
            "label": "beginTimestamp",
            "offset": 0,
            "slot": "3",
            "type": "t_uint256"
          },
          {
            "astId": 9153,
            "contract": "contracts/rewards/MasterChef.sol:MasterChef",
            "label": "earlyDepositBonusRewards",
            "offset": 0,
            "slot": "4",
            "type": "t_uint256"
          },
          {
            "astId": 9155,
            "contract": "contracts/rewards/MasterChef.sol:MasterChef",
            "label": "lastRewardTimestamp",
            "offset": 0,
            "slot": "5",
            "type": "t_uint256"
          },
          {
            "astId": 9157,
            "contract": "contracts/rewards/MasterChef.sol:MasterChef",
            "label": "rewardsPeriods",
            "offset": 0,
            "slot": "6",
            "type": "t_uint256"
          },
          {
            "astId": 9159,
            "contract": "contracts/rewards/MasterChef.sol:MasterChef",
            "label": "rewardsPerPeriod",
            "offset": 0,
            "slot": "7",
            "type": "t_uint256"
          }
        ],
        "numberOfBytes": "256"
      },
      "t_struct(UserInfo)9137_storage": {
        "encoding": "inplace",
        "label": "struct MasterChef.UserInfo",
        "members": [
          {
            "astId": 9132,
            "contract": "contracts/rewards/MasterChef.sol:MasterChef",
            "label": "amount",
            "offset": 0,
            "slot": "0",
            "type": "t_uint256"
          },
          {
            "astId": 9134,
            "contract": "contracts/rewards/MasterChef.sol:MasterChef",
            "label": "rewardDebt",
            "offset": 0,
            "slot": "1",
            "type": "t_uint256"
          },
          {
            "astId": 9136,
            "contract": "contracts/rewards/MasterChef.sol:MasterChef",
            "label": "lastActionTimestamp",
            "offset": 0,
            "slot": "2",
            "type": "t_uint256"
          }
        ],
        "numberOfBytes": "96"
      },
      "t_uint256": {
        "encoding": "inplace",
        "label": "uint256",
        "numberOfBytes": "32"
      }
    }
  }
}