{
  "address": "0xa976cb47C216Ee71089b10383bDEa4e230551458",
  "abi": [
    {
      "inputs": [
        {
          "internalType": "contract IERC20",
          "name": "_rewardsToken",
          "type": "address"
        }
      ],
      "stateMutability": "nonpayable",
      "type": "constructor"
    },
    {
      "anonymous": false,
      "inputs": [
        {
          "indexed": true,
          "internalType": "address",
          "name": "user",
          "type": "address"
        },
        {
          "indexed": true,
          "internalType": "uint256",
          "name": "pid",
          "type": "uint256"
        },
        {
          "indexed": false,
          "internalType": "uint256",
          "name": "amount",
          "type": "uint256"
        }
      ],
      "name": "Deposit",
      "type": "event"
    },
    {
      "anonymous": false,
      "inputs": [
        {
          "indexed": true,
          "internalType": "address",
          "name": "user",
          "type": "address"
        },
        {
          "indexed": true,
          "internalType": "uint256",
          "name": "pid",
          "type": "uint256"
        },
        {
          "indexed": false,
          "internalType": "uint256",
          "name": "amount",
          "type": "uint256"
        }
      ],
      "name": "EmergencyWithdraw",
      "type": "event"
    },
    {
      "anonymous": false,
      "inputs": [
        {
          "indexed": true,
          "internalType": "address",
          "name": "ammFactory",
          "type": "address"
        },
        {
          "indexed": true,
          "internalType": "address",
          "name": "marketFactory",
          "type": "address"
        },
        {
          "indexed": true,
          "internalType": "uint256",
          "name": "marketId",
          "type": "uint256"
        },
        {
          "indexed": false,
          "internalType": "address",
          "name": "user",
          "type": "address"
        },
        {
          "indexed": false,
          "internalType": "address",
          "name": "recipient",
          "type": "address"
        },
        {
          "indexed": false,
          "internalType": "int256",
          "name": "collateral",
          "type": "int256"
        },
        {
          "indexed": false,
          "internalType": "int256",
          "name": "lpTokens",
          "type": "int256"
        },
        {
          "indexed": false,
          "internalType": "uint256[]",
          "name": "sharesReturned",
          "type": "uint256[]"
        }
      ],
      "name": "LiquidityChanged",
      "type": "event"
    },
    {
      "anonymous": false,
      "inputs": [
        {
          "indexed": true,
          "internalType": "address",
          "name": "previousOwner",
          "type": "address"
        },
        {
          "indexed": true,
          "internalType": "address",
          "name": "newOwner",
          "type": "address"
        }
      ],
      "name": "OwnershipTransferred",
      "type": "event"
    },
    {
      "anonymous": false,
      "inputs": [
        {
          "indexed": true,
          "internalType": "address",
          "name": "ammFactory",
          "type": "address"
        },
        {
          "indexed": true,
          "internalType": "address",
          "name": "marketFactory",
          "type": "address"
        },
        {
          "indexed": true,
          "internalType": "uint256",
          "name": "marketId",
          "type": "uint256"
        },
        {
          "indexed": false,
          "internalType": "address",
          "name": "creator",
          "type": "address"
        },
        {
          "indexed": false,
          "internalType": "address",
          "name": "lpTokenRecipient",
          "type": "address"
        }
      ],
      "name": "PoolCreated",
      "type": "event"
    },
    {
      "anonymous": false,
      "inputs": [
        {
          "indexed": true,
          "internalType": "address",
          "name": "MarketFactory",
          "type": "address"
        },
        {
          "indexed": false,
          "internalType": "uint256",
          "name": "OriginEarlyDepositBonusRewards",
          "type": "uint256"
        },
        {
          "indexed": false,
          "internalType": "uint256",
          "name": "OriginrewardsPeriods",
          "type": "uint256"
        },
        {
          "indexed": false,
          "internalType": "uint256",
          "name": "OriginRewardsPerPeriod",
          "type": "uint256"
        },
        {
          "indexed": false,
          "internalType": "uint256",
          "name": "EarlyDepositBonusRewards",
          "type": "uint256"
        },
        {
          "indexed": false,
          "internalType": "uint256",
          "name": "rewardsPeriods",
          "type": "uint256"
        },
        {
          "indexed": false,
          "internalType": "uint256",
          "name": "RewardsPerPeriod",
          "type": "uint256"
        }
      ],
      "name": "TrustMarketFactory",
      "type": "event"
    },
    {
      "anonymous": false,
      "inputs": [
        {
          "indexed": true,
          "internalType": "address",
          "name": "user",
          "type": "address"
        },
        {
          "indexed": true,
          "internalType": "uint256",
          "name": "pid",
          "type": "uint256"
        },
        {
          "indexed": false,
          "internalType": "uint256",
          "name": "amount",
          "type": "uint256"
        },
        {
          "indexed": false,
          "internalType": "address",
          "name": "recipient",
          "type": "address"
        }
      ],
      "name": "Withdraw",
      "type": "event"
    },
    {
      "inputs": [],
      "name": "BONE",
      "outputs": [
        {
          "internalType": "uint256",
          "name": "",
          "type": "uint256"
        }
      ],
      "stateMutability": "view",
      "type": "function"
    },
    {
      "inputs": [],
      "name": "EARLY_DEPOSIT_BONUS_REWARDS_PERCENTAGE",
      "outputs": [
        {
          "internalType": "uint256",
          "name": "",
          "type": "uint256"
        }
      ],
      "stateMutability": "view",
      "type": "function"
    },
    {
      "inputs": [
        {
          "internalType": "address",
          "name": "_ammFactory",
          "type": "address"
        },
        {
          "internalType": "address",
          "name": "_marketFactory",
          "type": "address"
        },
        {
          "internalType": "uint256",
          "name": "_marketId",
          "type": "uint256"
        },
        {
          "internalType": "contract IERC20",
          "name": "_lpToken",
          "type": "address"
        },
        {
          "internalType": "uint256",
          "name": "_endTimestamp",
          "type": "uint256"
        }
      ],
      "name": "add",
      "outputs": [
        {
          "internalType": "uint256",
          "name": "_nextPID",
          "type": "uint256"
        }
      ],
      "stateMutability": "nonpayable",
      "type": "function"
    },
    {
      "inputs": [
        {
          "internalType": "contract AMMFactory",
          "name": "_ammFactory",
          "type": "address"
        },
        {
          "internalType": "contract AbstractMarketFactoryV3",
          "name": "_marketFactory",
          "type": "address"
        },
        {
          "internalType": "uint256",
          "name": "_marketId",
          "type": "uint256"
        },
        {
          "internalType": "uint256",
          "name": "_collateralIn",
          "type": "uint256"
        },
        {
          "internalType": "uint256",
          "name": "_minLPTokensOut",
          "type": "uint256"
        },
        {
          "internalType": "address",
          "name": "_lpTokenRecipient",
          "type": "address"
        }
      ],
      "name": "addLiquidity",
      "outputs": [
        {
          "internalType": "uint256",
          "name": "_poolAmountOut",
          "type": "uint256"
        },
        {
          "internalType": "uint256[]",
          "name": "_balances",
          "type": "uint256[]"
        }
      ],
      "stateMutability": "nonpayable",
      "type": "function"
    },
    {
      "inputs": [
        {
          "internalType": "address",
          "name": "_marketFactory",
          "type": "address"
        },
        {
          "internalType": "uint256",
          "name": "_rewardsPerMarket",
          "type": "uint256"
        },
        {
          "internalType": "uint256",
          "name": "_rewardDaysPerMarket",
          "type": "uint256"
        },
        {
          "internalType": "uint256",
          "name": "_earlyDepositBonusRewards",
          "type": "uint256"
        }
      ],
      "name": "addRewards",
      "outputs": [],
      "stateMutability": "nonpayable",
      "type": "function"
    },
    {
      "inputs": [
        {
          "internalType": "contract AMMFactory",
          "name": "_ammFactory",
          "type": "address"
        },
        {
          "internalType": "contract AbstractMarketFactoryV3",
          "name": "_marketFactory",
          "type": "address"
        },
        {
          "internalType": "uint256",
          "name": "_marketId",
          "type": "uint256"
        },
        {
          "internalType": "uint256",
          "name": "_initialLiquidity",
          "type": "uint256"
        },
        {
          "internalType": "address",
          "name": "_lpTokenRecipient",
          "type": "address"
        }
      ],
      "name": "createPool",
      "outputs": [
        {
          "internalType": "uint256",
          "name": "",
          "type": "uint256"
        }
      ],
      "stateMutability": "nonpayable",
      "type": "function"
    },
    {
      "inputs": [
        {
          "internalType": "uint256",
          "name": "_pid",
          "type": "uint256"
        },
        {
          "internalType": "uint256",
          "name": "_amount",
          "type": "uint256"
        }
      ],
      "name": "deposit",
      "outputs": [],
      "stateMutability": "nonpayable",
      "type": "function"
    },
    {
      "inputs": [
        {
          "internalType": "contract AMMFactory",
          "name": "_ammFactory",
          "type": "address"
        },
        {
          "internalType": "contract AbstractMarketFactoryV3",
          "name": "_marketFactory",
          "type": "address"
        },
        {
          "internalType": "uint256",
          "name": "_marketId",
          "type": "uint256"
        },
        {
          "internalType": "uint256",
          "name": "_amount",
          "type": "uint256"
        }
      ],
      "name": "depositByMarket",
      "outputs": [],
      "stateMutability": "nonpayable",
      "type": "function"
    },
    {
      "inputs": [
        {
          "internalType": "uint256",
          "name": "_pid",
          "type": "uint256"
        }
      ],
      "name": "emergencyWithdraw",
      "outputs": [],
      "stateMutability": "nonpayable",
      "type": "function"
    },
    {
      "inputs": [
        {
          "internalType": "uint256",
          "name": "_pid",
          "type": "uint256"
        }
      ],
      "name": "getEarlyDepositEndTimestamp",
      "outputs": [
        {
          "internalType": "uint256",
          "name": "",
          "type": "uint256"
        }
      ],
      "stateMutability": "view",
      "type": "function"
    },
    {
      "inputs": [
        {
          "internalType": "contract AMMFactory",
          "name": "_ammFactory",
          "type": "address"
        },
        {
          "internalType": "contract AbstractMarketFactoryV3",
          "name": "_marketFactory",
          "type": "address"
        },
        {
          "internalType": "uint256",
          "name": "_marketId",
          "type": "uint256"
        }
      ],
      "name": "getPoolInfo",
      "outputs": [
        {
          "components": [
            {
              "internalType": "uint256",
              "name": "beginTimestamp",
              "type": "uint256"
            },
            {
              "internalType": "uint256",
              "name": "endTimestamp",
              "type": "uint256"
            },
            {
              "internalType": "uint256",
              "name": "earlyDepositEndTimestamp",
              "type": "uint256"
            },
            {
              "internalType": "uint256",
              "name": "totalRewardsAccrued",
              "type": "uint256"
            },
            {
              "internalType": "bool",
              "name": "created",
              "type": "bool"
            }
          ],
          "internalType": "struct MasterChef.PoolStatusInfo",
          "name": "_poolStatusInfo",
          "type": "tuple"
        }
      ],
      "stateMutability": "view",
      "type": "function"
    },
    {
      "inputs": [
        {
          "internalType": "contract AMMFactory",
          "name": "_ammFactory",
          "type": "address"
        },
        {
          "internalType": "contract AbstractMarketFactoryV3",
          "name": "_marketFactory",
          "type": "address"
        },
        {
          "internalType": "uint256",
          "name": "_marketId",
          "type": "uint256"
        }
      ],
      "name": "getPoolLPToken",
      "outputs": [
        {
          "internalType": "contract IERC20",
          "name": "",
          "type": "address"
        }
      ],
      "stateMutability": "view",
      "type": "function"
    },
    {
      "inputs": [
        {
          "internalType": "contract AMMFactory",
          "name": "_ammFactory",
          "type": "address"
        },
        {
          "internalType": "contract AbstractMarketFactoryV3",
          "name": "_marketFactory",
          "type": "address"
        },
        {
          "internalType": "uint256",
          "name": "_marketId",
          "type": "uint256"
        }
      ],
      "name": "getPoolLPTokenTotalSupply",
      "outputs": [
        {
          "internalType": "uint256",
          "name": "",
          "type": "uint256"
        }
      ],
      "stateMutability": "view",
      "type": "function"
    },
    {
      "inputs": [
        {
          "internalType": "uint256",
          "name": "_pid",
          "type": "uint256"
        }
      ],
      "name": "getPoolRewardEndTimestamp",
      "outputs": [
        {
          "internalType": "uint256",
          "name": "",
          "type": "uint256"
        }
      ],
      "stateMutability": "view",
      "type": "function"
    },
    {
      "inputs": [
        {
          "internalType": "contract AMMFactory",
          "name": "_ammFactory",
          "type": "address"
        },
        {
          "internalType": "contract AbstractMarketFactoryV3",
          "name": "_marketFactory",
          "type": "address"
        },
        {
          "internalType": "uint256",
          "name": "_marketId",
          "type": "uint256"
        },
        {
          "internalType": "address",
          "name": "_user",
          "type": "address"
        }
      ],
      "name": "getPoolTokenBalance",
      "outputs": [
        {
          "internalType": "uint256",
          "name": "",
          "type": "uint256"
        }
      ],
      "stateMutability": "view",
      "type": "function"
    },
    {
      "inputs": [
        {
          "internalType": "uint256",
          "name": "_pid",
          "type": "uint256"
        }
      ],
      "name": "getTimeElapsed",
      "outputs": [
        {
          "internalType": "uint256",
          "name": "",
          "type": "uint256"
        }
      ],
      "stateMutability": "view",
      "type": "function"
    },
    {
      "inputs": [
        {
          "internalType": "uint256",
          "name": "_pid",
          "type": "uint256"
        },
        {
          "internalType": "address",
          "name": "_user",
          "type": "address"
        }
      ],
      "name": "getUserAmount",
      "outputs": [
        {
          "internalType": "uint256",
          "name": "",
          "type": "uint256"
        }
      ],
      "stateMutability": "view",
      "type": "function"
    },
    {
      "inputs": [
        {
          "internalType": "contract AMMFactory",
          "name": "_ammFactory",
          "type": "address"
        },
        {
          "internalType": "contract AbstractMarketFactoryV3",
          "name": "_marketFactory",
          "type": "address"
        },
        {
          "internalType": "uint256",
          "name": "_marketId",
          "type": "uint256"
        },
        {
          "internalType": "address",
          "name": "_userAddress",
          "type": "address"
        }
      ],
      "name": "getUserPendingRewardInfo",
      "outputs": [
        {
          "components": [
            {
              "internalType": "uint256",
              "name": "beginTimestamp",
              "type": "uint256"
            },
            {
              "internalType": "uint256",
              "name": "endTimestamp",
              "type": "uint256"
            },
            {
              "internalType": "uint256",
              "name": "earlyDepositEndTimestamp",
              "type": "uint256"
            },
            {
              "internalType": "uint256",
              "name": "accruedStandardRewards",
              "type": "uint256"
            },
            {
              "internalType": "uint256",
              "name": "accruedEarlyDepositBonusRewards",
              "type": "uint256"
            },
            {
              "internalType": "uint256",
              "name": "pendingEarlyDepositBonusRewards",
              "type": "uint256"
            },
            {
              "internalType": "bool",
              "name": "created",
              "type": "bool"
            }
          ],
          "internalType": "struct MasterChef.PendingRewardInfo",
          "name": "_pendingRewardInfo",
          "type": "tuple"
        }
      ],
      "stateMutability": "view",
      "type": "function"
    },
    {
      "inputs": [],
      "name": "massUpdatePools",
      "outputs": [],
      "stateMutability": "nonpayable",
      "type": "function"
    },
    {
      "inputs": [],
      "name": "owner",
      "outputs": [
        {
          "internalType": "address",
          "name": "",
          "type": "address"
        }
      ],
      "stateMutability": "view",
      "type": "function"
    },
    {
      "inputs": [
        {
          "internalType": "uint256",
          "name": "",
          "type": "uint256"
        }
      ],
      "name": "poolInfo",
      "outputs": [
        {
          "internalType": "contract IERC20",
          "name": "lpToken",
          "type": "address"
        },
        {
          "internalType": "uint256",
          "name": "accRewardsPerShare",
          "type": "uint256"
        },
        {
          "internalType": "uint256",
          "name": "totalEarlyDepositBonusRewardShares",
          "type": "uint256"
        },
        {
          "internalType": "uint256",
          "name": "beginTimestamp",
          "type": "uint256"
        },
        {
          "internalType": "uint256",
          "name": "endTimestamp",
          "type": "uint256"
        },
        {
          "internalType": "uint256",
          "name": "earlyDepositBonusRewards",
          "type": "uint256"
        },
        {
          "internalType": "uint256",
          "name": "lastRewardTimestamp",
          "type": "uint256"
        },
        {
          "internalType": "uint256",
          "name": "rewardsPerSecond",
          "type": "uint256"
        }
      ],
      "stateMutability": "view",
      "type": "function"
    },
    {
      "inputs": [],
      "name": "poolLength",
      "outputs": [
        {
          "internalType": "uint256",
          "name": "",
          "type": "uint256"
        }
      ],
      "stateMutability": "view",
      "type": "function"
    },
    {
      "inputs": [
        {
          "internalType": "contract AMMFactory",
          "name": "_ammFactory",
          "type": "address"
        },
        {
          "internalType": "contract AbstractMarketFactoryV3",
          "name": "_marketFactory",
          "type": "address"
        },
        {
          "internalType": "uint256",
          "name": "_marketId",
          "type": "uint256"
        },
        {
          "internalType": "uint256",
          "name": "_lpTokensIn",
          "type": "uint256"
        },
        {
          "internalType": "uint256",
          "name": "_minCollateralOut",
          "type": "uint256"
        },
        {
          "internalType": "address",
          "name": "_collateralRecipient",
          "type": "address"
        }
      ],
      "name": "removeLiquidity",
      "outputs": [
        {
          "internalType": "uint256",
          "name": "_collateralOut",
          "type": "uint256"
        },
        {
          "internalType": "uint256[]",
          "name": "_balances",
          "type": "uint256[]"
        }
      ],
      "stateMutability": "nonpayable",
      "type": "function"
    },
    {
      "inputs": [],
      "name": "renounceOwnership",
      "outputs": [],
      "stateMutability": "nonpayable",
      "type": "function"
    },
    {
      "inputs": [
        {
          "internalType": "address",
          "name": "",
          "type": "address"
        },
        {
          "internalType": "address",
          "name": "",
          "type": "address"
        },
        {
          "internalType": "uint256",
          "name": "",
          "type": "uint256"
        }
      ],
      "name": "rewardPoolLookup",
      "outputs": [
        {
          "internalType": "uint256",
          "name": "pid",
          "type": "uint256"
        },
        {
          "internalType": "bool",
          "name": "created",
          "type": "bool"
        }
      ],
      "stateMutability": "view",
      "type": "function"
    },
    {
      "inputs": [
        {
          "internalType": "address",
          "name": "newOwner",
          "type": "address"
        }
      ],
      "name": "transferOwnership",
      "outputs": [],
      "stateMutability": "nonpayable",
      "type": "function"
    },
    {
      "inputs": [
        {
          "internalType": "address",
          "name": "_ammFactory",
          "type": "address"
        }
      ],
      "name": "trustAMMFactory",
      "outputs": [],
      "stateMutability": "nonpayable",
      "type": "function"
    },
    {
      "inputs": [
        {
          "internalType": "address",
          "name": "_ammFactory",
          "type": "address"
        }
      ],
      "name": "untrustAMMFactory",
      "outputs": [],
      "stateMutability": "nonpayable",
      "type": "function"
    },
    {
      "inputs": [
        {
          "internalType": "uint256",
          "name": "_pid",
          "type": "uint256"
        }
      ],
      "name": "updatePool",
      "outputs": [],
      "stateMutability": "nonpayable",
      "type": "function"
    },
    {
      "inputs": [
        {
          "internalType": "uint256",
          "name": "",
          "type": "uint256"
        },
        {
          "internalType": "address",
          "name": "",
          "type": "address"
        }
      ],
      "name": "userInfo",
      "outputs": [
        {
          "internalType": "uint256",
          "name": "amount",
          "type": "uint256"
        },
        {
          "internalType": "uint256",
          "name": "rewardDebt",
          "type": "uint256"
        },
        {
          "internalType": "uint256",
          "name": "lastActionTimestamp",
          "type": "uint256"
        }
      ],
      "stateMutability": "view",
      "type": "function"
    },
    {
      "inputs": [
        {
          "internalType": "uint256",
          "name": "_pid",
          "type": "uint256"
        },
        {
          "internalType": "uint256",
          "name": "_amount",
          "type": "uint256"
        }
      ],
      "name": "withdraw",
      "outputs": [],
      "stateMutability": "nonpayable",
      "type": "function"
    },
    {
      "inputs": [
        {
          "internalType": "contract AMMFactory",
          "name": "_ammFactory",
          "type": "address"
        },
        {
          "internalType": "contract AbstractMarketFactoryV3",
          "name": "_marketFactory",
          "type": "address"
        },
        {
          "internalType": "uint256",
          "name": "_marketId",
          "type": "uint256"
        },
        {
          "internalType": "uint256",
          "name": "_amount",
          "type": "uint256"
        }
      ],
      "name": "withdrawByMarket",
      "outputs": [],
      "stateMutability": "nonpayable",
      "type": "function"
    },
    {
      "inputs": [
        {
          "internalType": "uint256",
          "name": "_amount",
          "type": "uint256"
        }
      ],
      "name": "withdrawRewards",
      "outputs": [],
      "stateMutability": "nonpayable",
      "type": "function"
    }
  ],
  "transactionHash": "0xfee35f7ff4a0ef05661b91e60f3a99338cbaab9e534ac115e6e82ae5fa099cad",
  "args": [
    "0x101dd4e3BF949890e7CC85c1210956D267f3D9D9"
  ],
  "solcInputHash": "24e507bd9a2a8257d5adc7c27db43d5a",
  "bytecode": "0x60806040523480156200001157600080fd5b5060405162003989380380620039898339810160408190526200003491620000b4565b600062000040620000b0565b600080546001600160a01b0319166001600160a01b0383169081178255604051929350917f8be0079c531659141344cd1fd0a4f28419497f9722a3daafe3b4186f6b6457e0908290a350600580546001600160a01b0319166001600160a01b0392909216919091179055620000e4565b3390565b600060208284031215620000c6578081fd5b81516001600160a01b0381168114620000dd578182fd5b9392505050565b61389580620000f46000396000f3fe608060405234801561001057600080fd5b50600436106101fb5760003560e01c80639342c8f41161011a578063c36596a6116100ad578063e2bbb1581161007c578063e2bbb15814610450578063eb97ed9614610463578063f2fde38b14610476578063fd1b192e14610489578063fe04b5491461049c576101fb565b8063c36596a6146103f4578063d20122e0146103fc578063d8c08b871461041d578063dcc2b36114610430576101fb565b8063af9551f7116100e9578063af9551f71461039a578063b0f79326146103ad578063b453d9b5146103ce578063c0e3ee6b146103e1576101fb565b80639342c8f41461033257806393f1a40b146103455780639d5dda8f146103675780639f7bc32c1461037a576101fb565b806351eb05a611610192578063715018a611610161578063715018a6146102ef5780638448fd2c146102f757806388b52b4a1461030a5780638da5cb5b1461032a576101fb565b806351eb05a6146102b95780635312ea8e146102cc5780636142da64146102df578063630b5ba1146102e7576101fb565b80632af3420e116101ce5780632af3420e1461026d5780632f4064db146102805780633437586b14610293578063441a3e70146102a6576101fb565b8063081e3eda146102005780631526fe271461021e5780632137eacf1461024557806326dde4f81461025a575b600080fd5b6102086104af565b60405161021591906136f0565b60405180910390f35b61023161022c3660046132fd565b6104b5565b6040516102159897969594939291906134fc565b6102586102533660046130ce565b610515565b005b610208610268366004613068565b610598565b61020861027b3660046132fd565b610689565b61025861028e3660046130ce565b6106f1565b6102086102a136600461332d565b610764565b6102586102b43660046133a1565b61078e565b6102586102c73660046132fd565b6107d1565b6102586102da3660046132fd565b6108e3565b610208610989565b610258610995565b6102586109b4565b610208610305366004613113565b610a60565b61031d610318366004613068565b610f9e565b60405161021591906133fc565b61031d611021565b6102586103403660046132fd565b611030565b61035861035336600461332d565b611116565b60405161021593929190613739565b610208610375366004612fba565b61113e565b61038d610388366004613068565b6111b9565b60405161021591906136b4565b6102586103a8366004612f5e565b61128f565b6103c06103bb366004613171565b611315565b604051610215929190613710565b6102086103dc3660046132fd565b611892565b6103c06103ef366004613171565b6118bd565b610208611ad6565b61040f61040a366004612f7a565b611ae2565b604051610215929190613729565b61025861042b366004613014565b611b0f565b61044361043e36600461307c565b611c82565b6040516102159190613664565b61025861045e3660046133a1565b611edf565b610258610471366004612f5e565b611f1f565b610258610484366004612f5e565b611fa2565b6102086104973660046132fd565b6120a4565b6102086104aa36600461307c565b612150565b60025490565b600281815481106104c557600080fd5b6000918252602090912060089091020180546001820154600283015460038401546004850154600586015460068701546007909701546001600160a01b0390961697509395929491939092909188565b6001600160a01b03808516600090815260046020908152604080832093871683529281528282208583528152908290208251808401909352805483526001015460ff1615159082018190526105855760405162461bcd60e51b815260040161057c906135f7565b60405180910390fd5b80516105919083611edf565b5050505050565b6001600160a01b038084166000908152600460209081526040808320938616835292815282822084835281528282208351808501909452805480855260019091015460ff161515918401919091526002805492939290919081106105f857fe5b600091825260209182902060089091020154604080516318160ddd60e01b815290516001600160a01b03909216926318160ddd92600480840193829003018186803b15801561064657600080fd5b505afa15801561065a573d6000803e3d6000fd5b505050506040513d601f19601f8201168201806040525081019061067e9190613315565b9150505b9392505050565b6000806002838154811061069957fe5b906000526020600020906008020190506000816003015482600401540390508160030154670de0b6b3a7640000600a670de0b6b3a7640000816106d857fe5b048302816106e257fe5b0401600101925050505b919050565b6001600160a01b03808516600090815260046020908152604080832093871683529281528282208583528152908290208251808401909352805483526001015460ff1615159082018190526107585760405162461bcd60e51b815260040161057c906135f7565b8051610591908361078e565b60008281526001602090815260408083206001600160a01b03851684529091529020545b92915050565b61079a338383336121da565b6107cd3382600285815481106107ac57fe5b60009182526020909120600890910201546001600160a01b031691906123cc565b5050565b6000600282815481106107e057fe5b906000526020600020906008020190508060060154421161080157506108e0565b80546040516370a0823160e01b81526000916001600160a01b0316906370a08231906108319030906004016133fc565b60206040518083038186803b15801561084957600080fd5b505afa15801561085d573d6000803e3d6000fd5b505050506040513d601f19601f820116820180604052508101906108819190613315565b9050806108955750426006909101556108e0565b60006108a0846120a4565b90506108d16108c6836108c086600701548561242390919063ffffffff16565b9061247c565b6001850154906124e3565b60018401555050426006909101555b50565b6000600282815481106108f257fe5b60009182526020808320858452600182526040808520338087529352909320805460089093029093018054909450610937926001600160a01b039190911691906123cc565b8054604051849133917fbb757047c2b5f3974fe26b7c10f732e7bce710b0952a71082702781e62ae05959161096b916136f0565b60405180910390a36000808255600182018190556002909101555050565b67016345785d8a000081565b60025460005b818110156107cd576109ac816107d1565b60010161099b565b6109bc61253d565b6001600160a01b03166109cd611021565b6001600160a01b031614610a16576040805162461bcd60e51b81526020600482018190526024820152600080516020613816833981519152604482015290519081900360640190fd5b600080546040516001600160a01b03909116907f8be0079c531659141344cd1fd0a4f28419497f9722a3daafe3b4186f6b6457e0908390a3600080546001600160a01b0319169055565b6000846001600160a01b031663d8dfeb456040518163ffffffff1660e01b815260040160206040518083038186803b158015610a9b57600080fd5b505afa158015610aaf573d6000803e3d6000fd5b505050506040513d601f19601f82011682018060405250810190610ad391906131d7565b6001600160a01b03166323b872dd3330866040518463ffffffff1660e01b8152600401610b0293929190613464565b602060405180830381600087803b158015610b1c57600080fd5b505af1158015610b30573d6000803e3d6000fd5b505050506040513d601f19601f82011682018060405250810190610b54919061304e565b50846001600160a01b031663d8dfeb456040518163ffffffff1660e01b815260040160206040518083038186803b158015610b8e57600080fd5b505afa158015610ba2573d6000803e3d6000fd5b505050506040513d601f19601f82011682018060405250810190610bc691906131d7565b6001600160a01b031663095ea7b387856040518363ffffffff1660e01b8152600401610bf3929190613488565b602060405180830381600087803b158015610c0d57600080fd5b505af1158015610c21573d6000803e3d6000fd5b505050506040513d601f19601f82011682018060405250810190610c45919061304e565b5060405163210a603d60e21b81526000906001600160a01b0388169063842980f490610c7b9089908990899030906004016134a1565b602060405180830381600087803b158015610c9557600080fd5b505af1158015610ca9573d6000803e3d6000fd5b505050506040513d601f19601f82011682018060405250810190610ccd9190613315565b90506000876001600160a01b0316635b5b9ea288886040518363ffffffff1660e01b8152600401610cff929190613488565b60206040518083038186803b158015610d1757600080fd5b505afa158015610d2b573d6000803e3d6000fd5b505050506040513d601f19601f82011682018060405250810190610d4f91906131d7565b90506000610ddb898989858c6001600160a01b03166342e0ed168d6040518263ffffffff1660e01b8152600401610d8691906136f0565b60206040518083038186803b158015610d9e57600080fd5b505afa158015610db2573d6000803e3d6000fd5b505050506040513d601f19601f82011682018060405250810190610dd69190613315565b612541565b9050610de8858285612791565b60405163eb44fdd360e01b81526000906001600160a01b038a169063eb44fdd390610e17908b906004016136f0565b60006040518083038186803b158015610e2f57600080fd5b505afa158015610e43573d6000803e3d6000fd5b505050506040513d6000823e601f3d908101601f19168201604052610e6b91908101906131f3565b9050600081602001515167ffffffffffffffff81118015610e8b57600080fd5b50604051908082528060200260200182016040528015610eb5578160200160208202803683370190505b50905060005b826020015151811015610ee9576000828281518110610ed657fe5b6020908102919091010152600101610ebb565b50888a6001600160a01b03168c6001600160a01b03167ffb27591822deac7913ea973cf845992f243e2ba5634ef8fbe0b6554aca37a428338b604051610f30929190613410565b60405180910390a4888a6001600160a01b03168c6001600160a01b03167f3f11bf8bba7d372ab2f25e364c99d8205f7d41bd6891af0a1e7adc6f9b2b20ca338b8d6000038b88604051610f8795949392919061342a565b60405180910390a450929998505050505050505050565b6001600160a01b038084166000908152600460209081526040808320938616835292815282822084835281528282208351808501909452805480855260019091015460ff16151591840191909152600280549293929091908110610ffe57fe5b60009182526020909120600890910201546001600160a01b031695945050505050565b6000546001600160a01b031690565b61103861253d565b6001600160a01b0316611049611021565b6001600160a01b031614611092576040805162461bcd60e51b81526020600482018190526024820152600080516020613816833981519152604482015290519081900360640190fd5b60055460405163a9059cbb60e01b81526001600160a01b039091169063a9059cbb906110c49033908590600401613488565b602060405180830381600087803b1580156110de57600080fd5b505af11580156110f2573d6000803e3d6000fd5b505050506040513d601f19601f820116820180604052508101906107cd919061304e565b6001602081815260009384526040808520909152918352912080549181015460029091015483565b600061114861253d565b6001600160a01b0316611159611021565b6001600160a01b0316146111a2576040805162461bcd60e51b81526020600482018190526024820152600080516020613816833981519152604482015290519081900360640190fd5b6111af8686868686612541565b9695505050505050565b6111c1612e04565b6001600160a01b03808516600090815260046020908152604080832093871683529281528282208583528152908290208251808401909352805483526001015460ff1615801591830191909152611287576000600282600001518154811061122557fe5b60009182526020918290206003600890920201908101548552600481015491850191909152825190915061125890610689565b6040840152600781015460038201546004830154611277904290612917565b0302606084015250600160808301525b509392505050565b61129761253d565b6001600160a01b03166112a8611021565b6001600160a01b0316146112f1576040805162461bcd60e51b81526020600482018190526024820152600080516020613816833981519152604482015290519081900360640190fd5b6001600160a01b03166000908152600660205260409020805460ff19166001179055565b6001600160a01b038087166000908152600460209081526040808320938916835292815282822087835281528282208351808501909452805480855260019091015460ff1615159184018290529192606092909161144d57604051632dadcf5160e11b81526000906001600160a01b038c1690635b5b9ea29061139e908d908d90600401613488565b60206040518083038186803b1580156113b657600080fd5b505afa1580156113ca573d6000803e3d6000fd5b505050506040513d601f19601f820116820180604052508101906113ee91906131d7565b90506001600160a01b0381166114165760405162461bcd60e51b815260040161057c90613587565b6114498b8b8b848e6001600160a01b03166342e0ed168f6040518263ffffffff1660e01b8152600401610d8691906136f0565b9150505b886001600160a01b031663d8dfeb456040518163ffffffff1660e01b815260040160206040518083038186803b15801561148657600080fd5b505afa15801561149a573d6000803e3d6000fd5b505050506040513d601f19601f820116820180604052508101906114be91906131d7565b6001600160a01b03166323b872dd33308a6040518463ffffffff1660e01b81526004016114ed93929190613464565b602060405180830381600087803b15801561150757600080fd5b505af115801561151b573d6000803e3d6000fd5b505050506040513d601f19601f8201168201806040525081019061153f919061304e565b50886001600160a01b031663d8dfeb456040518163ffffffff1660e01b815260040160206040518083038186803b15801561157957600080fd5b505afa15801561158d573d6000803e3d6000fd5b505050506040513d601f19601f820116820180604052508101906115b191906131d7565b6001600160a01b031663095ea7b38b896040518363ffffffff1660e01b81526004016115de929190613488565b602060405180830381600087803b1580156115f857600080fd5b505af115801561160c573d6000803e3d6000fd5b505050506040513d601f19601f82011682018060405250810190611630919061304e565b506040516345fa678360e01b81526001600160a01b038b16906345fa678390611665908c908c908c908c9030906004016134cc565b600060405180830381600087803b15801561167f57600080fd5b505af1158015611693573d6000803e3d6000fd5b505050506040513d6000823e601f3d908101601f191682016040526116bb919081019061335c565b60405163eb44fdd360e01b815291955093506000906001600160a01b038b169063eb44fdd3906116ef908c906004016136f0565b60006040518083038186803b15801561170757600080fd5b505afa15801561171b573d6000803e3d6000fd5b505050506040513d6000823e601f3d908101601f1916820160405261174391908101906131f3565b905060005b845181101561182157600085828151811061175f57fe5b60200260200101511115611819578160200151818151811061177d57fe5b60200260200101516001600160a01b031663a9059cbb888784815181106117a057fe5b60200260200101516040518363ffffffff1660e01b81526004016117c5929190613488565b602060405180830381600087803b1580156117df57600080fd5b505af11580156117f3573d6000803e3d6000fd5b505050506040513d601f19601f82011682018060405250810190611817919061304e565b505b600101611748565b5061182d868387612791565b888a6001600160a01b03168c6001600160a01b03167f3f11bf8bba7d372ab2f25e364c99d8205f7d41bd6891af0a1e7adc6f9b2b20ca338a8d6000038b8b60405161187c95949392919061342a565b60405180910390a4505050965096945050505050565b600080600283815481106118a257fe5b60009182526020909120600460089092020101549392505050565b6001600160a01b038087166000908152600460209081526040808320938916835292815282822087835281528282208351808501909452805484526001015460ff16151590830181905290916060916119285760405162461bcd60e51b815260040161057c906135f7565b61193833826000015188876121da565b6000600282600001518154811061194b57fe5b60009182526020909120600890910201805460405163095ea7b360e01b81529192506001600160a01b03169063095ea7b39061198d908d908b90600401613488565b602060405180830381600087803b1580156119a757600080fd5b505af11580156119bb573d6000803e3d6000fd5b505050506040513d601f19601f820116820180604052508101906119df919061304e565b50604051632cfc215960e11b81526001600160a01b038b16906359f842b290611a14908c908c908c908c908c906004016134cc565b600060405180830381600087803b158015611a2e57600080fd5b505af1158015611a42573d6000803e3d6000fd5b505050506040513d6000823e601f3d908101601f19168201604052611a6a919081019061335c565b809450819550505087896001600160a01b03168b6001600160a01b03167f3f11bf8bba7d372ab2f25e364c99d8205f7d41bd6891af0a1e7adc6f9b2b20ca3389898d6000038a604051611ac195949392919061342a565b60405180910390a45050965096945050505050565b670de0b6b3a764000081565b60046020908152600093845260408085208252928452828420905282529020805460019091015460ff1682565b611b1761253d565b6001600160a01b0316611b28611021565b6001600160a01b031614611b71576040805162461bcd60e51b81526020600482018190526024820152600080516020613816833981519152604482015290519081900360640190fd5b600060036000866001600160a01b03166001600160a01b031681526020019081526020016000206040518060600160405290816000820154815260200160018201548152602001600282015481525050905060405180606001604052808381526020018481526020018581525060036000876001600160a01b03166001600160a01b03168152602001908152602001600020600082015181600001556020820151816001015560408201518160020155905050846001600160a01b03167fe306af96e1d2ee556327ede5cfbae9786f190dd64b7948e676453e607cc73f4982600001518360200151846040015186888a604051611c739695949392919061374f565b60405180910390a25050505050565b611c8a612e35565b6001600160a01b03808616600090815260046020908152604080832093881683529281528282208683528152908290208251808401909352805483526001015460ff1615801591830191909152611ed65760006002826000015181548110611cee57fe5b6000918252602080832085518452600180835260408086206001600160a01b03808c1688529452808620600890950290920190810154815492516370a0823160e01b815291965093949291909116906370a0823190611d519030906004016133fc565b60206040518083038186803b158015611d6957600080fd5b505afa158015611d7d573d6000803e3d6000fd5b505050506040513d601f19601f82011682018060405250810190611da19190613315565b60038501546004860154600160c08a01528189526020890181905287519293500390611dcc90610689565b60408801819052600285015411611e495760008560020154118015611df45750866020015142115b15611e1e57600285015484546005870154611e1492916108c09190612423565b6080880152611e49565b600285015415611e4957600285015484546005870154611e4392916108c09190612423565b60a08801525b846006015442118015611e5b57508115155b15611e9a576000611e6f87600001516120a4565b9050611e96611e8f846108c089600701548561242390919063ffffffff16565b85906124e3565b9350505b611ecb8460010154611ec5670de0b6b3a76400006108c087896000015461242390919063ffffffff16565b9061292e565b606088015250505050505b50949350505050565b611eea338383612791565b6107cd33308360028681548110611efd57fe5b60009182526020909120600890910201546001600160a01b031692919061298b565b611f2761253d565b6001600160a01b0316611f38611021565b6001600160a01b031614611f81576040805162461bcd60e51b81526020600482018190526024820152600080516020613816833981519152604482015290519081900360640190fd5b6001600160a01b03166000908152600660205260409020805460ff19169055565b611faa61253d565b6001600160a01b0316611fbb611021565b6001600160a01b031614612004576040805162461bcd60e51b81526020600482018190526024820152600080516020613816833981519152604482015290519081900360640190fd5b6001600160a01b0381166120495760405162461bcd60e51b81526004018080602001828103825260268152602001806137cf6026913960400191505060405180910390fd5b600080546040516001600160a01b03808516939216917f8be0079c531659141344cd1fd0a4f28419497f9722a3daafe3b4186f6b6457e091a3600080546001600160a01b0319166001600160a01b0392909216919091179055565b600080600283815481106120b457fe5b90600052602060002090600802019050600042905080826003015411806120de5750808260060154115b806120eb57506007820154155b156120fb576000925050506106ec565b8160040154826006015410612115576000925050506106ec565b612148670de0b6b3a7640000612142600161213c8660060154611ec5878960040154612917565b906124e3565b90612423565b949350505050565b6001600160a01b038085166000908152600460209081526040808320938716835292815282822085835281528282208351808501909452805484526001015460ff16158015918401919091529091906121ce575160009081526001602090815260408083206001600160a01b03861684529091529020549050612148565b50600095945050505050565b6000600284815481106121e957fe5b600091825260208083208784526001825260408085206001600160a01b038b168652909252922080546008909202909201925084111561223b5760405162461bcd60e51b815260040161057c90613638565b612244856107d1565b60038201546004830154819003906001670de0b6b3a764000067016345785d8a000084020482018101918301014281116122cd5760008560020154118015612290575081846002015411155b156122c85760006122ba86600201546108c08760000154896005015461242390919063ffffffff16565b90506122c68a826129eb565b505b61230e565b4282106122ed5760028501546122e3908861292e565b600286015561230e565b8360020154821061230e57835460028601546123089161292e565b60028601555b600061233f8560010154611ec5670de0b6b3a76400006108c08a600101548a6000015461242390919063ffffffff16565b905061234b87826129eb565b8454612357908961292e565b808655600187015461237791670de0b6b3a7640000916108c09190612423565b6001860155426002860155604051899033907f8166bf25f8a2b7ed3c85049207da4358d16edbed977d23fa2ee6f0dde3ec2132906123b8908c908c906136f9565b60405180910390a350505050505050505050565b604080516001600160a01b038416602482015260448082018490528251808303909101815260649091019091526020810180516001600160e01b031663a9059cbb60e01b17905261241e908490612b84565b505050565b60008261243257506000610788565b8282028284828161243f57fe5b04146106825760405162461bcd60e51b81526004018080602001828103825260218152602001806137f56021913960400191505060405180910390fd5b60008082116124d2576040805162461bcd60e51b815260206004820152601a60248201527f536166654d6174683a206469766973696f6e206279207a65726f000000000000604482015290519081900360640190fd5b8183816124db57fe5b049392505050565b600082820183811015610682576040805162461bcd60e51b815260206004820152601b60248201527f536166654d6174683a206164646974696f6e206f766572666c6f770000000000604482015290519081900360640190fd5b3390565b6001600160a01b038086166000908152600460209081526040808320938816835292815282822086835290529081206001015460ff16156125945760405162461bcd60e51b815260040161057c906135b2565b6001600160a01b03861660009081526006602052604090205460ff166125cc5760405162461bcd60e51b815260040161057c9061353d565b5060028054604080518082018252828152600160208083018281526001600160a01b038c8116600090815260048452868120918d168082529184528681208c82528452868120955186559151948401805460ff1916951515959095179094559283526003815291839020835160608101855281548152918101549282018390529094015491840191909152909190620151800242841561266e57610e10850394505b8461267d57818101945061269a565b428286031115612690575080840361269a565b84421061269a5750835b6002604051806101000160405280886001600160a01b031681526020016000815260200160008152602001838152602001878152602001838803620151808760000151816126e457fe5b040281526020018381526020016201518086604001518161270157fe5b0490528154600180820184556000938452602093849020835160089093020180546001600160a01b0319166001600160a01b03909316929092178255928201519281019290925560408101516002830155606081015160038301556080810151600483015560a0810151600583015560c0810151600683015560e001516007909101555091979650505050505050565b6000600283815481106127a057fe5b600091825260208083208684526001825260408085206001600160a01b038a1686529092529220600890910290910191506127da846107d1565b8054156128205760006128128260010154611ec5670de0b6b3a76400006108c08760010154876000015461242390919063ffffffff16565b905061281e86826129eb565b505b6003820154600483015481900390670de0b6b3a764000067016345785d8a000083020401600101428110801561285a575080836002015411155b15612875578254600285015461286f9161292e565b60028501555b4281111561289257600284015461288c90866124e3565b60028501555b825461289e90866124e3565b80845560018501546128be91670de0b6b3a7640000916108c09190612423565b600184015542600284015560405186906001600160a01b038916907f90890809c654f11d6e72a28fa60149770a0d11ec6c92319d6ceb2bb0a4ea1a15906129069089906136f0565b60405180910390a350505050505050565b6000818311612927575081610788565b5080610788565b600082821115612985576040805162461bcd60e51b815260206004820152601e60248201527f536166654d6174683a207375627472616374696f6e206f766572666c6f770000604482015290519081900360640190fd5b50900390565b604080516001600160a01b0380861660248301528416604482015260648082018490528251808303909101815260849091019091526020810180516001600160e01b03166323b872dd60e01b1790526129e5908590612b84565b50505050565b6005546040516370a0823160e01b81526000916001600160a01b0316906370a0823190612a1c9030906004016133fc565b60206040518083038186803b158015612a3457600080fd5b505afa158015612a48573d6000803e3d6000fd5b505050506040513d601f19601f82011682018060405250810190612a6c9190613315565b905080821115612b005760055460405163a9059cbb60e01b81526001600160a01b039091169063a9059cbb90612aa89086908590600401613488565b602060405180830381600087803b158015612ac257600080fd5b505af1158015612ad6573d6000803e3d6000fd5b505050506040513d601f19601f82011682018060405250810190612afa919061304e565b5061241e565b60055460405163a9059cbb60e01b81526001600160a01b039091169063a9059cbb90612b329086908690600401613488565b602060405180830381600087803b158015612b4c57600080fd5b505af1158015612b60573d6000803e3d6000fd5b505050506040513d601f19601f820116820180604052508101906129e5919061304e565b6000612bd9826040518060400160405280602081526020017f5361666545524332303a206c6f772d6c6576656c2063616c6c206661696c6564815250856001600160a01b0316612c359092919063ffffffff16565b80519091501561241e57808060200190516020811015612bf857600080fd5b505161241e5760405162461bcd60e51b815260040180806020018281038252602a815260200180613836602a913960400191505060405180910390fd5b6060612148848460008585612c4985612d5a565b612c9a576040805162461bcd60e51b815260206004820152601d60248201527f416464726573733a2063616c6c20746f206e6f6e2d636f6e7472616374000000604482015290519081900360640190fd5b600080866001600160a01b031685876040518082805190602001908083835b60208310612cd85780518252601f199092019160209182019101612cb9565b6001836020036101000a03801982511681845116808217855250505050505090500191505060006040518083038185875af1925050503d8060008114612d3a576040519150601f19603f3d011682016040523d82523d6000602084013e612d3f565b606091505b5091509150612d4f828286612d60565b979650505050505050565b3b151590565b60608315612d6f575081610682565b825115612d7f5782518084602001fd5b8160405162461bcd60e51b81526004018080602001828103825283818151815260200191508051906020019080838360005b83811015612dc9578181015183820152602001612db1565b50505050905090810190601f168015612df65780820380516001836020036101000a031916815260200191505b509250505060405180910390fd5b6040518060a00160405280600081526020016000815260200160008152602001600081526020016000151581525090565b6040518060e001604052806000815260200160008152602001600081526020016000815260200160008152602001600081526020016000151581525090565b80516106ec816137b9565b600082601f830112612e8f578081fd5b81516020612ea4612e9f8361379b565b613777565b8281528181019085830183850287018401881015612ec0578586fd5b855b85811015612ee7578151612ed5816137b9565b84529284019290840190600101612ec2565b5090979650505050505050565b600082601f830112612f04578081fd5b81516020612f14612e9f8361379b565b8281528181019085830183850287018401881015612f30578586fd5b855b85811015612ee757815184529284019290840190600101612f32565b805180151581146106ec57600080fd5b600060208284031215612f6f578081fd5b8135610682816137b9565b600080600060608486031215612f8e578182fd5b8335612f99816137b9565b92506020840135612fa9816137b9565b929592945050506040919091013590565b600080600080600060a08688031215612fd1578081fd5b8535612fdc816137b9565b94506020860135612fec816137b9565b9350604086013592506060860135613003816137b9565b949793965091946080013592915050565b60008060008060808587031215613029578384fd5b8435613034816137b9565b966020860135965060408601359560600135945092505050565b60006020828403121561305f578081fd5b61068282612f4e565b600080600060608486031215612f8e578283fd5b60008060008060808587031215613091578182fd5b843561309c816137b9565b935060208501356130ac816137b9565b92506040850135915060608501356130c3816137b9565b939692955090935050565b600080600080608085870312156130e3578182fd5b84356130ee816137b9565b935060208501356130fe816137b9565b93969395505050506040820135916060013590565b600080600080600060a0868803121561312a578283fd5b8535613135816137b9565b94506020860135613145816137b9565b935060408601359250606086013591506080860135613163816137b9565b809150509295509295909350565b60008060008060008060c08789031215613189578384fd5b8635613194816137b9565b955060208701356131a4816137b9565b945060408701359350606087013592506080870135915060a08701356131c9816137b9565b809150509295509295509295565b6000602082840312156131e8578081fd5b8151610682816137b9565b600060208284031215613204578081fd5b815167ffffffffffffffff8082111561321b578283fd5b8184019150610160808387031215613231578384fd5b61323a81613777565b905061324583612e74565b8152602083015182811115613258578485fd5b61326487828601612e7f565b60208301525061327660408401612e74565b6040820152606083015160608201526080830151608082015260a083015160a082015260c083015160c082015260e083015160e082015261010080840151818301525061012080840151838111156132cc578586fd5b6132d888828701612ef4565b82840152505061014091506132ee828401612f4e565b91810191909152949350505050565b60006020828403121561330e578081fd5b5035919050565b600060208284031215613326578081fd5b5051919050565b6000806040838503121561333f578182fd5b823591506020830135613351816137b9565b809150509250929050565b6000806040838503121561336e578182fd5b82519150602083015167ffffffffffffffff81111561338b578182fd5b61339785828601612ef4565b9150509250929050565b600080604083850312156133b3578182fd5b50508035926020909101359150565b6000815180845260208085019450808401835b838110156133f1578151875295820195908201906001016133d5565b509495945050505050565b6001600160a01b0391909116815260200190565b6001600160a01b0392831681529116602082015260400190565b6001600160a01b03868116825285166020820152604081018490526060810183905260a060808201819052600090612d4f908301846133c2565b6001600160a01b039384168152919092166020820152604081019190915260600190565b6001600160a01b03929092168252602082015260400190565b6001600160a01b03948516815260208101939093526040830191909152909116606082015260800190565b6001600160a01b039586168152602081019490945260408401929092526060830152909116608082015260a00190565b6001600160a01b03989098168852602088019690965260408701949094526060860192909252608085015260a084015260c083015260e08201526101000190565b6020808252602a908201527f414d4d466163746f7279206d75737420626520617070726f76656420746f20636040820152691c99585d19481c1bdbdb60b21b606082015260800190565b6020808252601190820152702837b7b6103737ba1031b932b0ba32b21760791b604082015260600190565b60208082526025908201527f52657761726420706f6f6c2068617320616c7265616479206265656e2063726560408201526430ba32b21760d91b606082015260800190565b60208082526021908201527f52657761726420706f6f6c20686173206e6f74206265656e20637265617465646040820152601760f91b606082015260800190565b6020808252601290820152711dda5d1a191c985dce881b9bdd0819dbdbd960721b604082015260600190565b600060e082019050825182526020830151602083015260408301516040830152606083015160608301526080830151608083015260a083015160a083015260c0830151151560c083015292915050565b600060a0820190508251825260208301516020830152604083015160408301526060830151606083015260808301511515608083015292915050565b90815260200190565b9182526001600160a01b0316602082015260400190565b60008382526040602083015261214860408301846133c2565b9182521515602082015260400190565b9283526020830191909152604082015260600190565b958652602086019490945260408501929092526060840152608083015260a082015260c00190565b60405181810167ffffffffffffffff8111828210171561379357fe5b604052919050565b600067ffffffffffffffff8211156137af57fe5b5060209081020190565b6001600160a01b03811681146108e057600080fdfe4f776e61626c653a206e6577206f776e657220697320746865207a65726f2061646472657373536166654d6174683a206d756c7469706c69636174696f6e206f766572666c6f774f776e61626c653a2063616c6c6572206973206e6f7420746865206f776e65725361666545524332303a204552433230206f7065726174696f6e20646964206e6f742073756363656564a2646970667358221220a82b1296dd26d75acd76269f33863f53c84cab5e0ea192ced732aadb0d78c82564736f6c63430007060033",
  "devdoc": {
    "kind": "dev",
    "methods": {
      "owner()": {
        "details": "Returns the address of the current owner."
      },
      "renounceOwnership()": {
        "details": "Leaves the contract without owner. It will not be possible to call `onlyOwner` functions anymore. Can only be called by the current owner. NOTE: Renouncing ownership will leave the contract without an owner, thereby removing any functionality that is only available to the owner."
      },
      "transferOwnership(address)": {
        "details": "Transfers ownership of the contract to a new account (`newOwner`). Can only be called by the current owner."
      }
    },
    "version": 1
  },
  "userdoc": {
    "kind": "user",
    "methods": {},
    "version": 1
  },
  "storageLayout": {
    "storage": [
      {
        "astId": 53,
        "contract": "contracts/rewards/MasterChef.sol:MasterChef",
        "label": "_owner",
        "offset": 0,
        "slot": "0",
        "type": "t_address"
      },
      {
        "astId": 9230,
        "contract": "contracts/rewards/MasterChef.sol:MasterChef",
        "label": "userInfo",
        "offset": 0,
        "slot": "1",
        "type": "t_mapping(t_uint256,t_mapping(t_address,t_struct(UserInfo)9224_storage))"
      },
      {
        "astId": 9250,
        "contract": "contracts/rewards/MasterChef.sol:MasterChef",
        "label": "poolInfo",
        "offset": 0,
        "slot": "2",
        "type": "t_array(t_struct(PoolInfo)9247_storage)dyn_storage"
      },
      {
        "astId": 9287,
        "contract": "contracts/rewards/MasterChef.sol:MasterChef",
        "label": "marketFactoryRewardInfo",
        "offset": 0,
        "slot": "3",
        "type": "t_mapping(t_address,t_struct(MarketFactoryInfo)9283_storage)"
      },
      {
        "astId": 9300,
        "contract": "contracts/rewards/MasterChef.sol:MasterChef",
        "label": "rewardPoolLookup",
        "offset": 0,
        "slot": "4",
        "type": "t_mapping(t_address,t_mapping(t_address,t_mapping(t_uint256,t_struct(RewardPoolLookupInfo)9292_storage)))"
      },
      {
        "astId": 9302,
        "contract": "contracts/rewards/MasterChef.sol:MasterChef",
        "label": "rewardsToken",
        "offset": 0,
        "slot": "5",
        "type": "t_contract(IERC20)1091"
      },
      {
        "astId": 9306,
        "contract": "contracts/rewards/MasterChef.sol:MasterChef",
        "label": "approvedAMMFactories",
        "offset": 0,
        "slot": "6",
        "type": "t_mapping(t_address,t_bool)"
      }
    ],
    "types": {
      "t_address": {
        "encoding": "inplace",
        "label": "address",
        "numberOfBytes": "20"
      },
      "t_array(t_struct(PoolInfo)9247_storage)dyn_storage": {
        "base": "t_struct(PoolInfo)9247_storage",
        "encoding": "dynamic_array",
        "label": "struct MasterChef.PoolInfo[]",
        "numberOfBytes": "32"
      },
      "t_bool": {
        "encoding": "inplace",
        "label": "bool",
        "numberOfBytes": "1"
      },
      "t_contract(IERC20)1091": {
        "encoding": "inplace",
        "label": "contract IERC20",
        "numberOfBytes": "20"
      },
      "t_mapping(t_address,t_bool)": {
        "encoding": "mapping",
        "key": "t_address",
        "label": "mapping(address => bool)",
        "numberOfBytes": "32",
        "value": "t_bool"
      },
      "t_mapping(t_address,t_mapping(t_address,t_mapping(t_uint256,t_struct(RewardPoolLookupInfo)9292_storage)))": {
        "encoding": "mapping",
        "key": "t_address",
        "label": "mapping(address => mapping(address => mapping(uint256 => struct MasterChef.RewardPoolLookupInfo)))",
        "numberOfBytes": "32",
        "value": "t_mapping(t_address,t_mapping(t_uint256,t_struct(RewardPoolLookupInfo)9292_storage))"
      },
      "t_mapping(t_address,t_mapping(t_uint256,t_struct(RewardPoolLookupInfo)9292_storage))": {
        "encoding": "mapping",
        "key": "t_address",
        "label": "mapping(address => mapping(uint256 => struct MasterChef.RewardPoolLookupInfo))",
        "numberOfBytes": "32",
        "value": "t_mapping(t_uint256,t_struct(RewardPoolLookupInfo)9292_storage)"
      },
      "t_mapping(t_address,t_struct(MarketFactoryInfo)9283_storage)": {
        "encoding": "mapping",
        "key": "t_address",
        "label": "mapping(address => struct MasterChef.MarketFactoryInfo)",
        "numberOfBytes": "32",
        "value": "t_struct(MarketFactoryInfo)9283_storage"
      },
      "t_mapping(t_address,t_struct(UserInfo)9224_storage)": {
        "encoding": "mapping",
        "key": "t_address",
        "label": "mapping(address => struct MasterChef.UserInfo)",
        "numberOfBytes": "32",
        "value": "t_struct(UserInfo)9224_storage"
      },
      "t_mapping(t_uint256,t_mapping(t_address,t_struct(UserInfo)9224_storage))": {
        "encoding": "mapping",
        "key": "t_uint256",
        "label": "mapping(uint256 => mapping(address => struct MasterChef.UserInfo))",
        "numberOfBytes": "32",
        "value": "t_mapping(t_address,t_struct(UserInfo)9224_storage)"
      },
      "t_mapping(t_uint256,t_struct(RewardPoolLookupInfo)9292_storage)": {
        "encoding": "mapping",
        "key": "t_uint256",
        "label": "mapping(uint256 => struct MasterChef.RewardPoolLookupInfo)",
        "numberOfBytes": "32",
        "value": "t_struct(RewardPoolLookupInfo)9292_storage"
      },
      "t_struct(MarketFactoryInfo)9283_storage": {
        "encoding": "inplace",
        "label": "struct MasterChef.MarketFactoryInfo",
        "members": [
          {
            "astId": 9278,
            "contract": "contracts/rewards/MasterChef.sol:MasterChef",
            "label": "earlyDepositBonusRewards",
            "offset": 0,
            "slot": "0",
            "type": "t_uint256"
          },
          {
            "astId": 9280,
            "contract": "contracts/rewards/MasterChef.sol:MasterChef",
            "label": "rewardsPeriods",
            "offset": 0,
            "slot": "1",
            "type": "t_uint256"
          },
          {
            "astId": 9282,
            "contract": "contracts/rewards/MasterChef.sol:MasterChef",
            "label": "rewardsPerPeriod",
            "offset": 0,
            "slot": "2",
            "type": "t_uint256"
          }
        ],
        "numberOfBytes": "96"
      },
      "t_struct(PoolInfo)9247_storage": {
        "encoding": "inplace",
        "label": "struct MasterChef.PoolInfo",
        "members": [
          {
            "astId": 9232,
            "contract": "contracts/rewards/MasterChef.sol:MasterChef",
            "label": "lpToken",
            "offset": 0,
            "slot": "0",
            "type": "t_contract(IERC20)1091"
          },
          {
            "astId": 9234,
            "contract": "contracts/rewards/MasterChef.sol:MasterChef",
            "label": "accRewardsPerShare",
            "offset": 0,
            "slot": "1",
            "type": "t_uint256"
          },
          {
            "astId": 9236,
            "contract": "contracts/rewards/MasterChef.sol:MasterChef",
            "label": "totalEarlyDepositBonusRewardShares",
            "offset": 0,
            "slot": "2",
            "type": "t_uint256"
          },
          {
            "astId": 9238,
            "contract": "contracts/rewards/MasterChef.sol:MasterChef",
            "label": "beginTimestamp",
            "offset": 0,
            "slot": "3",
            "type": "t_uint256"
          },
          {
            "astId": 9240,
            "contract": "contracts/rewards/MasterChef.sol:MasterChef",
            "label": "endTimestamp",
            "offset": 0,
            "slot": "4",
            "type": "t_uint256"
          },
          {
            "astId": 9242,
            "contract": "contracts/rewards/MasterChef.sol:MasterChef",
            "label": "earlyDepositBonusRewards",
            "offset": 0,
            "slot": "5",
            "type": "t_uint256"
          },
          {
            "astId": 9244,
            "contract": "contracts/rewards/MasterChef.sol:MasterChef",
            "label": "lastRewardTimestamp",
            "offset": 0,
            "slot": "6",
            "type": "t_uint256"
          },
          {
            "astId": 9246,
            "contract": "contracts/rewards/MasterChef.sol:MasterChef",
            "label": "rewardsPerSecond",
            "offset": 0,
            "slot": "7",
            "type": "t_uint256"
          }
        ],
        "numberOfBytes": "256"
      },
      "t_struct(RewardPoolLookupInfo)9292_storage": {
        "encoding": "inplace",
        "label": "struct MasterChef.RewardPoolLookupInfo",
        "members": [
          {
            "astId": 9289,
            "contract": "contracts/rewards/MasterChef.sol:MasterChef",
            "label": "pid",
            "offset": 0,
            "slot": "0",
            "type": "t_uint256"
          },
          {
            "astId": 9291,
            "contract": "contracts/rewards/MasterChef.sol:MasterChef",
            "label": "created",
            "offset": 0,
            "slot": "1",
            "type": "t_bool"
          }
        ],
        "numberOfBytes": "64"
      },
      "t_struct(UserInfo)9224_storage": {
        "encoding": "inplace",
        "label": "struct MasterChef.UserInfo",
        "members": [
          {
            "astId": 9219,
            "contract": "contracts/rewards/MasterChef.sol:MasterChef",
            "label": "amount",
            "offset": 0,
            "slot": "0",
            "type": "t_uint256"
          },
          {
            "astId": 9221,
            "contract": "contracts/rewards/MasterChef.sol:MasterChef",
            "label": "rewardDebt",
            "offset": 0,
            "slot": "1",
            "type": "t_uint256"
          },
          {
            "astId": 9223,
            "contract": "contracts/rewards/MasterChef.sol:MasterChef",
            "label": "lastActionTimestamp",
            "offset": 0,
            "slot": "2",
            "type": "t_uint256"
          }
        ],
        "numberOfBytes": "96"
      },
      "t_uint256": {
        "encoding": "inplace",
        "label": "uint256",
        "numberOfBytes": "32"
      }
    }
  }
}