{
  "address": "0x79B31E46A171145A767B22370028fF6269aAE109",
  "abi": [
    {
      "inputs": [
        {
          "internalType": "string",
          "name": "_version",
          "type": "string"
        },
        {
          "internalType": "address",
          "name": "_owner",
          "type": "address"
        },
        {
          "internalType": "contract IERC20Full",
          "name": "_collateral",
          "type": "address"
        },
        {
          "internalType": "uint256",
          "name": "_shareFactor",
          "type": "uint256"
        },
        {
          "internalType": "contract FeePot",
          "name": "_feePot",
          "type": "address"
        },
        {
          "internalType": "uint256",
          "name": "_stakerFee",
          "type": "uint256"
        },
        {
          "internalType": "uint256",
          "name": "_settlementFee",
          "type": "uint256"
        },
        {
          "internalType": "address",
          "name": "_protocol",
          "type": "address"
        },
        {
          "internalType": "uint256",
          "name": "_protocolFee",
          "type": "uint256"
        },
        {
          "internalType": "address",
          "name": "_linkNode",
          "type": "address"
        }
      ],
      "stateMutability": "nonpayable",
      "type": "constructor"
    },
    {
      "anonymous": false,
      "inputs": [
        {
          "indexed": false,
          "internalType": "address",
          "name": "newLinkNode",
          "type": "address"
        }
      ],
      "name": "LinkNodeChanged",
      "type": "event"
    },
    {
      "anonymous": false,
      "inputs": [
        {
          "indexed": false,
          "internalType": "uint256",
          "name": "id",
          "type": "uint256"
        },
        {
          "indexed": false,
          "internalType": "address",
          "name": "creator",
          "type": "address"
        },
        {
          "indexed": false,
          "internalType": "uint256",
          "name": "endTime",
          "type": "uint256"
        },
        {
          "indexed": false,
          "internalType": "enum MMALinkMarketFactory.MarketType",
          "name": "marketType",
          "type": "uint8"
        },
        {
          "indexed": true,
          "internalType": "uint256",
          "name": "eventId",
          "type": "uint256"
        },
        {
          "indexed": false,
          "internalType": "string",
          "name": "homeFighterName",
          "type": "string"
        },
        {
          "indexed": false,
          "internalType": "uint256",
          "name": "homeFighterId",
          "type": "uint256"
        },
        {
          "indexed": false,
          "internalType": "string",
          "name": "awayFighterName",
          "type": "string"
        },
        {
          "indexed": false,
          "internalType": "uint256",
          "name": "awayFighterId",
          "type": "uint256"
        },
        {
          "indexed": false,
          "internalType": "uint256",
          "name": "estimatedStartTime",
          "type": "uint256"
        }
      ],
      "name": "MarketCreated",
      "type": "event"
    },
    {
      "anonymous": false,
      "inputs": [
        {
          "indexed": false,
          "internalType": "uint256",
          "name": "id",
          "type": "uint256"
        },
        {
          "indexed": false,
          "internalType": "address",
          "name": "winner",
          "type": "address"
        }
      ],
      "name": "MarketResolved",
      "type": "event"
    },
    {
      "anonymous": false,
      "inputs": [
        {
          "indexed": false,
          "internalType": "address",
          "name": "protocol",
          "type": "address"
        }
      ],
      "name": "ProtocolChanged",
      "type": "event"
    },
    {
      "anonymous": false,
      "inputs": [
        {
          "indexed": false,
          "internalType": "uint256",
          "name": "fee",
          "type": "uint256"
        }
      ],
      "name": "ProtocolFeeChanged",
      "type": "event"
    },
    {
      "anonymous": false,
      "inputs": [
        {
          "indexed": false,
          "internalType": "address",
          "name": "protocol",
          "type": "address"
        },
        {
          "indexed": false,
          "internalType": "uint256",
          "name": "amount",
          "type": "uint256"
        }
      ],
      "name": "ProtocolFeeClaimed",
      "type": "event"
    },
    {
      "anonymous": false,
      "inputs": [
        {
          "indexed": false,
          "internalType": "uint256",
          "name": "fee",
          "type": "uint256"
        }
      ],
      "name": "SettlementFeeChanged",
      "type": "event"
    },
    {
      "anonymous": false,
      "inputs": [
        {
          "indexed": false,
          "internalType": "address",
          "name": "settlementAddress",
          "type": "address"
        },
        {
          "indexed": false,
          "internalType": "uint256",
          "name": "amount",
          "type": "uint256"
        },
        {
          "indexed": true,
          "internalType": "address",
          "name": "receiver",
          "type": "address"
        }
      ],
      "name": "SettlementFeeClaimed",
      "type": "event"
    },
    {
      "anonymous": false,
      "inputs": [
        {
          "indexed": false,
          "internalType": "uint256",
          "name": "id",
          "type": "uint256"
        },
        {
          "indexed": false,
          "internalType": "uint256",
          "name": "amount",
          "type": "uint256"
        },
        {
          "indexed": false,
          "internalType": "address",
          "name": "receiver",
          "type": "address"
        }
      ],
      "name": "SharesBurned",
      "type": "event"
    },
    {
      "anonymous": false,
      "inputs": [
        {
          "indexed": false,
          "internalType": "uint256",
          "name": "id",
          "type": "uint256"
        },
        {
          "indexed": false,
          "internalType": "uint256",
          "name": "amount",
          "type": "uint256"
        },
        {
          "indexed": false,
          "internalType": "address",
          "name": "receiver",
          "type": "address"
        }
      ],
      "name": "SharesMinted",
      "type": "event"
    },
    {
      "anonymous": false,
      "inputs": [
        {
          "indexed": false,
          "internalType": "uint256",
          "name": "fee",
          "type": "uint256"
        }
      ],
      "name": "StakerFeeChanged",
      "type": "event"
    },
    {
      "anonymous": false,
      "inputs": [
        {
          "indexed": false,
          "internalType": "uint256",
          "name": "id",
          "type": "uint256"
        },
        {
          "indexed": false,
          "internalType": "address",
          "name": "winningOutcome",
          "type": "address"
        },
        {
          "indexed": false,
          "internalType": "uint256",
          "name": "amount",
          "type": "uint256"
        },
        {
          "indexed": false,
          "internalType": "uint256",
          "name": "settlementFee",
          "type": "uint256"
        },
        {
          "indexed": false,
          "internalType": "uint256",
          "name": "payout",
          "type": "uint256"
        },
        {
          "indexed": true,
          "internalType": "address",
          "name": "receiver",
          "type": "address"
        }
      ],
      "name": "WinningsClaimed",
      "type": "event"
    },
    {
      "inputs": [],
      "name": "accumulatedProtocolFee",
      "outputs": [
        {
          "internalType": "uint256",
          "name": "",
          "type": "uint256"
        }
      ],
      "stateMutability": "view",
      "type": "function"
    },
    {
      "inputs": [
        {
          "internalType": "address",
          "name": "",
          "type": "address"
        }
      ],
      "name": "accumulatedSettlementFees",
      "outputs": [
        {
          "internalType": "uint256",
          "name": "",
          "type": "uint256"
        }
      ],
      "stateMutability": "view",
      "type": "function"
    },
    {
      "inputs": [
        {
          "internalType": "uint256",
          "name": "_id",
          "type": "uint256"
        },
        {
          "internalType": "uint256",
          "name": "_sharesToBurn",
          "type": "uint256"
        },
        {
          "internalType": "address",
          "name": "_receiver",
          "type": "address"
        }
      ],
      "name": "burnShares",
      "outputs": [
        {
          "internalType": "uint256",
          "name": "",
          "type": "uint256"
        }
      ],
      "stateMutability": "nonpayable",
      "type": "function"
    },
    {
      "inputs": [
        {
          "internalType": "uint256",
          "name": "_shares",
          "type": "uint256"
        }
      ],
      "name": "calcCost",
      "outputs": [
        {
          "internalType": "uint256",
          "name": "",
          "type": "uint256"
        }
      ],
      "stateMutability": "view",
      "type": "function"
    },
    {
      "inputs": [
        {
          "internalType": "uint256",
          "name": "_collateralIn",
          "type": "uint256"
        }
      ],
      "name": "calcShares",
      "outputs": [
        {
          "internalType": "uint256",
          "name": "",
          "type": "uint256"
        }
      ],
      "stateMutability": "view",
      "type": "function"
    },
    {
      "inputs": [
        {
          "internalType": "uint256[]",
          "name": "_ids",
          "type": "uint256[]"
        },
        {
          "internalType": "address",
          "name": "_receiver",
          "type": "address"
        }
      ],
      "name": "claimManyWinnings",
      "outputs": [
        {
          "internalType": "uint256",
          "name": "",
          "type": "uint256"
        }
      ],
      "stateMutability": "nonpayable",
      "type": "function"
    },
    {
      "inputs": [],
      "name": "claimProtocolFees",
      "outputs": [
        {
          "internalType": "uint256",
          "name": "",
          "type": "uint256"
        }
      ],
      "stateMutability": "nonpayable",
      "type": "function"
    },
    {
      "inputs": [
        {
          "internalType": "address",
          "name": "_receiver",
          "type": "address"
        }
      ],
      "name": "claimSettlementFees",
      "outputs": [
        {
          "internalType": "uint256",
          "name": "",
          "type": "uint256"
        }
      ],
      "stateMutability": "nonpayable",
      "type": "function"
    },
    {
      "inputs": [
        {
          "internalType": "uint256",
          "name": "_id",
          "type": "uint256"
        },
        {
          "internalType": "address",
          "name": "_receiver",
          "type": "address"
        }
      ],
      "name": "claimWinnings",
      "outputs": [
        {
          "internalType": "uint256",
          "name": "",
          "type": "uint256"
        }
      ],
      "stateMutability": "nonpayable",
      "type": "function"
    },
    {
      "inputs": [],
      "name": "collateral",
      "outputs": [
        {
          "internalType": "contract IERC20Full",
          "name": "",
          "type": "address"
        }
      ],
      "stateMutability": "view",
      "type": "function"
    },
    {
      "inputs": [
        {
          "internalType": "uint256",
          "name": "_eventId",
          "type": "uint256"
        },
        {
          "internalType": "string",
          "name": "_homeFighterName",
          "type": "string"
        },
        {
          "internalType": "uint256",
          "name": "_homeFighterId",
          "type": "uint256"
        },
        {
          "internalType": "string",
          "name": "_awayFighterName",
          "type": "string"
        },
        {
          "internalType": "uint256",
          "name": "_awayFighterId",
          "type": "uint256"
        },
        {
          "internalType": "uint256",
          "name": "_startTimestamp",
          "type": "uint256"
        },
        {
          "internalType": "int256[2]",
          "name": "_moneylines",
          "type": "int256[2]"
        }
      ],
      "name": "createMarket",
      "outputs": [],
      "stateMutability": "nonpayable",
      "type": "function"
    },
    {
      "inputs": [
        {
          "internalType": "uint256",
          "name": "",
          "type": "uint256"
        }
      ],
      "name": "events",
      "outputs": [
        {
          "internalType": "uint256",
          "name": "homeFighterId",
          "type": "uint256"
        },
        {
          "internalType": "uint256",
          "name": "awayFighterId",
          "type": "uint256"
        },
        {
          "internalType": "uint256",
          "name": "startTime",
          "type": "uint256"
        }
      ],
      "stateMutability": "view",
      "type": "function"
    },
    {
      "inputs": [],
      "name": "feePot",
      "outputs": [
        {
          "internalType": "contract FeePot",
          "name": "",
          "type": "address"
        }
      ],
      "stateMutability": "view",
      "type": "function"
    },
    {
      "inputs": [
        {
          "internalType": "uint256",
          "name": "_eventId",
          "type": "uint256"
        }
      ],
      "name": "getEventMarkets",
      "outputs": [
        {
          "internalType": "uint256[1]",
          "name": "",
          "type": "uint256[1]"
        }
      ],
      "stateMutability": "view",
      "type": "function"
    },
    {
      "inputs": [
        {
          "internalType": "uint256",
          "name": "_id",
          "type": "uint256"
        }
      ],
      "name": "getMarket",
      "outputs": [
        {
          "components": [
            {
              "internalType": "address",
              "name": "settlementAddress",
              "type": "address"
            },
            {
              "internalType": "contract OwnedERC20[]",
              "name": "shareTokens",
              "type": "address[]"
            },
            {
              "internalType": "uint256",
              "name": "endTime",
              "type": "uint256"
            },
            {
              "internalType": "contract OwnedERC20",
              "name": "winner",
              "type": "address"
            },
            {
              "internalType": "uint256",
              "name": "settlementFee",
              "type": "uint256"
            },
            {
              "internalType": "uint256",
              "name": "protocolFee",
              "type": "uint256"
            },
            {
              "internalType": "uint256",
              "name": "stakerFee",
              "type": "uint256"
            },
            {
              "internalType": "uint256",
              "name": "creationTimestamp",
              "type": "uint256"
            }
          ],
          "internalType": "struct AbstractMarketFactory.Market",
          "name": "",
          "type": "tuple"
        }
      ],
      "stateMutability": "view",
      "type": "function"
    },
    {
      "inputs": [
        {
          "internalType": "uint256",
          "name": "_marketId",
          "type": "uint256"
        }
      ],
      "name": "getMarketDetails",
      "outputs": [
        {
          "components": [
            {
              "internalType": "uint256",
              "name": "eventId",
              "type": "uint256"
            },
            {
              "internalType": "string",
              "name": "homeFighterName",
              "type": "string"
            },
            {
              "internalType": "uint256",
              "name": "homeFighterId",
              "type": "uint256"
            },
            {
              "internalType": "string",
              "name": "awayFighterName",
              "type": "string"
            },
            {
              "internalType": "uint256",
              "name": "awayFighterId",
              "type": "uint256"
            },
            {
              "internalType": "uint256",
              "name": "estimatedStartTime",
              "type": "uint256"
            },
            {
              "internalType": "enum MMALinkMarketFactory.MarketType",
              "name": "marketType",
              "type": "uint8"
            },
            {
              "internalType": "enum MMALinkMarketFactory.EventStatus",
              "name": "eventStatus",
              "type": "uint8"
            },
            {
              "internalType": "uint256[3]",
              "name": "headToHeadWeights",
              "type": "uint256[3]"
            }
          ],
          "internalType": "struct MMALinkMarketFactory.MarketDetails",
          "name": "",
          "type": "tuple"
        }
      ],
      "stateMutability": "view",
      "type": "function"
    },
    {
      "inputs": [],
      "name": "getOwner",
      "outputs": [
        {
          "internalType": "address",
          "name": "",
          "type": "address"
        }
      ],
      "stateMutability": "view",
      "type": "function"
    },
    {
      "inputs": [
        {
          "internalType": "uint256",
          "name": "_id",
          "type": "uint256"
        }
      ],
      "name": "isMarketResolved",
      "outputs": [
        {
          "internalType": "bool",
          "name": "",
          "type": "bool"
        }
      ],
      "stateMutability": "view",
      "type": "function"
    },
    {
      "inputs": [],
      "name": "linkNode",
      "outputs": [
        {
          "internalType": "address",
          "name": "",
          "type": "address"
        }
      ],
      "stateMutability": "view",
      "type": "function"
    },
    {
      "inputs": [
        {
          "internalType": "uint256",
          "name": "",
          "type": "uint256"
        }
      ],
      "name": "listOfEvents",
      "outputs": [
        {
          "internalType": "uint256",
          "name": "",
          "type": "uint256"
        }
      ],
      "stateMutability": "view",
      "type": "function"
    },
    {
      "inputs": [],
      "name": "listResolvableEvents",
      "outputs": [
        {
          "internalType": "uint256[]",
          "name": "",
          "type": "uint256[]"
        }
      ],
      "stateMutability": "view",
      "type": "function"
    },
    {
      "inputs": [],
      "name": "listUnresolvedMarkets",
      "outputs": [
        {
          "internalType": "uint256[]",
          "name": "",
          "type": "uint256[]"
        }
      ],
      "stateMutability": "view",
      "type": "function"
    },
    {
      "inputs": [],
      "name": "marketCount",
      "outputs": [
        {
          "internalType": "uint256",
          "name": "",
          "type": "uint256"
        }
      ],
      "stateMutability": "view",
      "type": "function"
    },
    {
      "inputs": [
        {
          "internalType": "uint256",
          "name": "_id",
          "type": "uint256"
        },
        {
          "internalType": "uint256",
          "name": "_shareToMint",
          "type": "uint256"
        },
        {
          "internalType": "address",
          "name": "_receiver",
          "type": "address"
        }
      ],
      "name": "mintShares",
      "outputs": [],
      "stateMutability": "nonpayable",
      "type": "function"
    },
    {
      "inputs": [],
      "name": "protocol",
      "outputs": [
        {
          "internalType": "address",
          "name": "",
          "type": "address"
        }
      ],
      "stateMutability": "view",
      "type": "function"
    },
    {
      "inputs": [],
      "name": "protocolFee",
      "outputs": [
        {
          "internalType": "uint256",
          "name": "",
          "type": "uint256"
        }
      ],
      "stateMutability": "view",
      "type": "function"
    },
    {
      "inputs": [
        {
          "internalType": "uint256",
          "name": "",
          "type": "uint256"
        }
      ],
      "name": "resolveMarket",
      "outputs": [],
      "stateMutability": "pure",
      "type": "function"
    },
    {
      "inputs": [
        {
          "internalType": "address",
          "name": "_newLinkNode",
          "type": "address"
        }
      ],
      "name": "setLinkNode",
      "outputs": [],
      "stateMutability": "nonpayable",
      "type": "function"
    },
    {
      "inputs": [
        {
          "internalType": "address",
          "name": "_newProtocol",
          "type": "address"
        },
        {
          "internalType": "bool",
          "name": "_claimFirst",
          "type": "bool"
        }
      ],
      "name": "setProtocol",
      "outputs": [],
      "stateMutability": "nonpayable",
      "type": "function"
    },
    {
      "inputs": [
        {
          "internalType": "uint256",
          "name": "_newFee",
          "type": "uint256"
        }
      ],
      "name": "setProtocolFee",
      "outputs": [],
      "stateMutability": "nonpayable",
      "type": "function"
    },
    {
      "inputs": [
        {
          "internalType": "uint256",
          "name": "_newFee",
          "type": "uint256"
        }
      ],
      "name": "setSettlementFee",
      "outputs": [],
      "stateMutability": "nonpayable",
      "type": "function"
    },
    {
      "inputs": [
        {
          "internalType": "uint256",
          "name": "_newFee",
          "type": "uint256"
        }
      ],
      "name": "setStakerFee",
      "outputs": [],
      "stateMutability": "nonpayable",
      "type": "function"
    },
    {
      "inputs": [],
      "name": "settlementFee",
      "outputs": [
        {
          "internalType": "uint256",
          "name": "",
          "type": "uint256"
        }
      ],
      "stateMutability": "view",
      "type": "function"
    },
    {
      "inputs": [],
      "name": "shareFactor",
      "outputs": [
        {
          "internalType": "uint256",
          "name": "",
          "type": "uint256"
        }
      ],
      "stateMutability": "view",
      "type": "function"
    },
    {
      "inputs": [],
      "name": "sportId",
      "outputs": [
        {
          "internalType": "uint256",
          "name": "",
          "type": "uint256"
        }
      ],
      "stateMutability": "view",
      "type": "function"
    },
    {
      "inputs": [],
      "name": "stakerFee",
      "outputs": [
        {
          "internalType": "uint256",
          "name": "",
          "type": "uint256"
        }
      ],
      "stateMutability": "view",
      "type": "function"
    },
    {
      "inputs": [
        {
          "internalType": "address",
          "name": "_newOwner",
          "type": "address"
        }
      ],
      "name": "transferOwnership",
      "outputs": [
        {
          "internalType": "bool",
          "name": "",
          "type": "bool"
        }
      ],
      "stateMutability": "nonpayable",
      "type": "function"
    },
    {
      "inputs": [
        {
          "internalType": "uint256",
          "name": "_eventId",
          "type": "uint256"
        },
        {
          "internalType": "uint256",
          "name": "_eventStatus",
          "type": "uint256"
        },
        {
          "internalType": "uint256",
          "name": "_homeFighterId",
          "type": "uint256"
        },
        {
          "internalType": "uint256",
          "name": "_awayFighterId",
          "type": "uint256"
        },
        {
          "internalType": "enum MMALinkMarketFactory.WhoWon",
          "name": "_whoWon",
          "type": "uint8"
        }
      ],
      "name": "trustedResolveMarkets",
      "outputs": [],
      "stateMutability": "nonpayable",
      "type": "function"
    },
    {
      "inputs": [],
      "name": "version",
      "outputs": [
        {
          "internalType": "string",
          "name": "",
          "type": "string"
        }
      ],
      "stateMutability": "view",
      "type": "function"
    }
  ],
  "transactionHash": "0x5ebe1544f283ac66a859400ce94e9ff93ee951b927247493505590d509f70cb6",
  "args": [
    "test-00",
    "0x8C9c733eCd48426b9c53c38ccB60F3b307329bE1",
    "0x5799bFe361BEea69f808328FF4884DF92f1f66f0",
    "1000000000000",
    "0x59DdFE9961e050bdA1ed9bf9CCD009948036Dd76",
    0,
    "500000000000000",
    "0x8C9c733eCd48426b9c53c38ccB60F3b307329bE1",
    0,
    "0x6FBD37365bac1fC61EAb2b35ba4024B32b136be6"
  ],
  "solcInputHash": "9b70e7daf5ad0e40852234b943316c0f",
  "bytecode": "0x6080604052600060085560076010553480156200001b57600080fd5b50604051620060a1380380620060a18339810160408190526200003e91620005ae565b600080546001600160a01b0319163317905589518a908a908a908a908a908a908a908a908a90620000779060019060208c0190620003ff565b50600080546001600160a01b03808b166001600160a01b031992831617909255600280548a84169083168117909155600a8990556003805489851690841617905560048781556005879055600780549487169490931693909317909155600683905560405163095ea7b360e01b8152909163095ea7b39162000100918991600019910162000703565b602060405180830381600087803b1580156200011b57600080fd5b505af115801562000130573d6000803e3d6000fd5b505050506040513d601f19601f8201168201806040525081019062000156919062000585565b50620001616200019b565b5050600f80546001600160a01b0319166001600160a01b03999099169890981790975550620007919e505050505050505050505050505050565b6040805160008082526020820190925281620001c8565b6060815260200190600190039081620001b25790505b509050600b620001dc600083808262000291565b8154600180820184556000938452602093849020835160089093020180546001600160a01b0319166001600160a01b0390931692909217825582840151805193949293620002339392850192919091019062000494565b506040820151600282015560608201516003820180546001600160a01b0319166001600160a01b039092169190911790556080820151600482015560a0820151600582015560c0820151600682015560e09091015160079091015550565b6200029b620004ec565b604051806101000160405280866001600160a01b03168152602001620002c98686306200030a60201b60201c565b815260200183815260200160006001600160a01b03168152602001600554815260200160065481526020016004548152602001428152509050949350505050565b82516060906000816001600160401b03811180156200032857600080fd5b5060405190808252806020026020018201604052801562000353578160200160208202803683370190505b50905060005b82811015620003f5578681815181106200036f57fe5b60200260200101518682815181106200038457fe5b6020026020010151866040516200039b9062000543565b620003a9939291906200071c565b604051809103906000f080158015620003c6573d6000803e3d6000fd5b50828281518110620003d457fe5b6001600160a01b039092166020928302919091019091015260010162000359565b5095945050505050565b828054600181600116156101000203166002900490600052602060002090601f01602090048101928262000437576000855562000482565b82601f106200045257805160ff191683800117855562000482565b8280016001018555821562000482579182015b828111156200048257825182559160200191906001019062000465565b506200049092915062000551565b5090565b82805482825590600052602060002090810192821562000482579160200282015b828111156200048257825182546001600160a01b0319166001600160a01b03909116178255602090920191600190910190620004b5565b60405180610100016040528060006001600160a01b03168152602001606081526020016000815260200160006001600160a01b03168152602001600081526020016000815260200160008152602001600081525090565b6111f38062004eae83390190565b5b8082111562000490576000815560010162000552565b80516001600160a01b03811681146200058057600080fd5b919050565b60006020828403121562000597578081fd5b81518015158114620005a7578182fd5b9392505050565b6000806000806000806000806000806101408b8d031215620005ce578586fd5b8a516001600160401b0380821115620005e5578788fd5b818d0191508d601f830112620005f9578788fd5b8151818111156200060657fe5b604051601f8201601f1916810160200183811182821017156200062557fe5b80604052508181528f60208386010111156200063f57898afd5b620006528260208301602087016200075e565b9c50620006669250505060208c0162000568565b98506200067660408c0162000568565b975060608b015196506200068d60808c0162000568565b955060a08b0151945060c08b01519350620006ab60e08c0162000568565b92506101008b01519150620006c46101208c0162000568565b90509295989b9194979a5092959850565b60008151808452620006ef8160208601602086016200075e565b601f01601f19169290920160200192915050565b6001600160a01b03929092168252602082015260400190565b600060608252620007316060830186620006d5565b8281036020840152620007458186620006d5565b91505060018060a01b0383166040830152949350505050565b60005b838110156200077b57818101518382015260200162000761565b838111156200078b576000848401525b50505050565b61470d80620007a16000396000f3fe60806040523480156200001157600080fd5b5060043610620002745760003560e01c80638e0ed1931162000159578063d5db3efb11620000c9578063eb44fdd31162000087578063eb44fdd31462000549578063ec979082146200056f578063f23311e41462000579578063f2fde38b1462000590578063faf2e11914620005a75762000274565b8063d5db3efb14620004fd578063d8dfeb451462000507578063d9113f0d1462000511578063e2c30b15146200051b578063e5678dfa14620005325762000274565b8063b0e21e8a1162000117578063b0e21e8a1462000495578063cc87adea146200049f578063cdaac86214620004b6578063d4b6838e14620004dc578063d5da4f1d14620004e65762000274565b80638e0ed193146200042057806397eef1871462000437578063992c9079146200044e578063a544a62c1462000465578063b06c1ba3146200046f5762000274565b80634c9f66c711620001f55780637641ab0111620001b35780637641ab0114620003e1578063787dce3d14620003eb5780637d1d7fb81462000402578063893d20e8146200040c5780638ce7442614620004165762000274565b80634c9f66c7146200035b57806353ac55f5146200037457806354fd4d50146200039a5780636399d03d14620003b357806371ba269614620003ca5762000274565b8063473a6d521162000243578063473a6d52146200030057806349a4d93414620003175780634a7d0369146200032e5780634a875e0b14620003385780634b2d9ffc14620003515762000274565b80630b7914301462000279578063221fff8114620002aa57806332ecabe914620002c357806335a9cdad14620002da575b600080fd5b620002906200028a36600462002b91565b620005be565b604051620002a1939291906200349a565b60405180910390f35b620002c1620002bb36600462002cef565b620005e2565b005b620002c1620002d436600462002a79565b62000899565b620002f1620002eb36600462002cef565b6200091d565b604051620002a19190620033b8565b620002f16200031136600462002b91565b62000cd7565b620002f16200032836600462002a5c565b62000d2a565b620002f162000d3c565b6200034262000e64565b604051620002a1919062002e9c565b620002f162000f3b565b6200036562000f41565b604051620002a1919062002e17565b6200038b6200038536600462002b91565b62000f50565b604051620002a1919062002ee2565b620003a46200104a565b604051620002a1919062002eed565b620002c1620003c436600462002b91565b620010db565b620002f1620003db36600462002b91565b620010f8565b620002f16200111a565b620002c1620003fc36600462002b91565b62001120565b620002f16200117a565b6200036562001180565b620003656200118f565b620002f16200043136600462002a5c565b6200119e565b620002c16200044836600462002b91565b6200129f565b620002f16200045f36600462002bc3565b620012ee565b620002f1620015ee565b620004866200048036600462002b91565b620015f4565b604051620002a1919062003253565b620002f162001816565b620002f1620004b036600462002b91565b6200181c565b620004cd620004c736600462002b91565b62001823565b604051620002a1919062002e68565b620003656200186f565b620002c1620004f736600462002b91565b6200187e565b620002f1620018cd565b62000365620018d3565b62000342620018e2565b620002c16200052c36600462002a5c565b620019b2565b620002f16200054336600462002ab4565b62001a17565b620005606200055a36600462002b91565b62001a65565b604051620002a19190620032fd565b620002f162001bb2565b620002c16200058a36600462002bf1565b62001bb8565b6200038b620005a136600462002a5c565b62001ccb565b620002c1620005b836600462002d26565b62001d35565b600d6020526000908152604090206001810154600282015460039092015490919083565b600b5483106200060f5760405162461bcd60e51b815260040162000606906200315d565b60405180910390fd5b6200061a8362000f50565b156200063a5760405162461bcd60e51b81526004016200060690620031c7565b6000620006478362000cd7565b6002546040516323b872dd60e01b81529192506001600160a01b0316906323b872dd906200067e9033903090869060040162002e2b565b602060405180830381600087803b1580156200069957600080fd5b505af1158015620006ae573d6000803e3d6000fd5b505050506040513d601f19601f82011682018060405250810190620006d4919062002b72565b506000600b8581548110620006e557fe5b60009182526020918290206040805161010081018252600890930290910180546001600160a01b031683526001810180548351818702810187019094528084529394919385830193928301828280156200076957602002820191906000526020600020905b81546001600160a01b031681526001909101906020018083116200074a575b50505091835250506002820154602082015260038201546001600160a01b031660408201526004820154606082015260058201546080820152600682015460a082015260079091015460c090910152905060005b816020015151811015620008545781602001518181518110620007dc57fe5b60200260200101516001600160a01b031663c024cd2685876040518363ffffffff1660e01b81526004016200081392919062002e4f565b600060405180830381600087803b1580156200082e57600080fd5b505af115801562000843573d6000803e3d6000fd5b505060019092019150620007bd9050565b507fd81c0442e10068a9818f3aa093c9ccb804584690df572d7df3da2d892a6973f28585856040516200088a939291906200347b565b60405180910390a15050505050565b6000546001600160a01b03163314620008b157600080fd5b8015620008c457620008c262000d3c565b505b600780546001600160a01b0319166001600160a01b0384161790556040517f15b84596b3c567ae2998116949ae5f2d47f3055c12d9053db4d6e50f4c794dd9906200091190849062002e17565b60405180910390a15050565b600b546000908410620009445760405162461bcd60e51b815260040162000606906200315d565b6200094f8462000f50565b156200096f5760405162461bcd60e51b815260040162000606906200320d565b6000600b85815481106200097f57fe5b60009182526020918290206040805161010081018252600890930290910180546001600160a01b0316835260018101805483518187028101870190945280845293949193858301939283018282801562000a0357602002820191906000526020600020905b81546001600160a01b03168152600190910190602001808311620009e4575b50505091835250506002820154602082015260038201546001600160a01b031660408201526004820154606082015260058201546080820152600682015460a082015260079091015460c090910152905060005b81602001515181101562000aee578160200151818151811062000a7657fe5b60200260200101516001600160a01b03166342986e1333876040518363ffffffff1660e01b815260040162000aad92919062002e4f565b600060405180830381600087803b15801562000ac857600080fd5b505af115801562000add573d6000803e3d6000fd5b50506001909201915062000a579050565b50600062000afc8562000cd7565b9050600062000b2d670de0b6b3a764000062000b268560a001518562001e6690919063ffffffff16565b9062001e98565b9050600062000b57670de0b6b3a764000062000b268660c001518662001e6690919063ffffffff16565b905062000b718162000b6a858562001eae565b9062001eae565b600880548401905560025460405163a9059cbb60e01b81529194506001600160a01b03169063a9059cbb9062000bae908990879060040162002e4f565b602060405180830381600087803b15801562000bc957600080fd5b505af115801562000bde573d6000803e3d6000fd5b505050506040513d601f19601f8201168201806040525081019062000c04919062002b72565b50600354604051630ebdac0960e41b81526001600160a01b039091169063ebdac0909062000c37908490600401620033b8565b602060405180830381600087803b15801562000c5257600080fd5b505af115801562000c67573d6000803e3d6000fd5b505050506040513d601f19601f8201168201806040525081019062000c8d919062002b72565b507fb6fdb729b2ed801daf629f0ab713e4a7a73619505790f6f27fd92d6f2c9688d788883360405162000cc3939291906200347b565b60405180910390a150909695505050505050565b6000600a54821015801562000cf65750600a54828162000cf357fe5b06155b62000d155760405162461bcd60e51b815260040162000606906200303f565b600a54828162000d2157fe5b0490505b919050565b60096020526000908152604090205481565b6007546000906001600160a01b031633148062000d5857503330145b62000d775760405162461bcd60e51b8152600401620006069062002f8f565b600854801562000e5f57600060085560025460075460405163a9059cbb60e01b81526001600160a01b039283169263a9059cbb9262000dbe92911690859060040162002e4f565b602060405180830381600087803b15801562000dd957600080fd5b505af115801562000dee573d6000803e3d6000fd5b505050506040513d601f19601f8201168201806040525081019062000e14919062002b72565b506007546040517f0f7f5b155b0b0ac6890709a2c7bf1b8bb3f675fff1e7840b4dd3c9acde59048b9162000e56916001600160a01b0390911690849062002e4f565b60405180910390a15b905090565b6060600062000e7262001ec4565b905060008167ffffffffffffffff8111801562000e8e57600080fd5b5060405190808252806020026020018201604052801562000eb9578160200160208202803683370190505b5090506000805b600e5481101562000f32578382111562000eda5762000f32565b6000600e828154811062000eea57fe5b9060005260206000200154905062000f028162001f19565b1562000f28578084848151811062000f1657fe5b60209081029190910101526001909201915b5060010162000ec0565b50909250505090565b60045481565b6003546001600160a01b031681565b600080600b838154811062000f6157fe5b60009182526020918290206040805161010081018252600890930290910180546001600160a01b0316835260018101805483518187028101870190945280845293949193858301939283018282801562000fe557602002820191906000526020600020905b81546001600160a01b0316815260019091019060200180831162000fc6575b50505091835250506002820154602082015260038201546001600160a01b039081166040830152600483015460608084019190915260058401546080840152600684015460a084015260079093015460c0909201919091529101511615159392505050565b60018054604080516020600284861615610100026000190190941693909304601f81018490048402820184019092528181529291830182828015620010d35780601f10620010a757610100808354040283529160200191620010d3565b820191906000526020600020905b815481529060010190602001808311620010b557829003601f168201915b505050505081565b60405162461bcd60e51b8152600401620006069062002fd3565b50565b600e81815481106200110957600080fd5b600091825260209091200154905081565b600a5481565b6000546001600160a01b031633146200113857600080fd5b60068190556040517fada2cde3c4a561f5c23e2fdbfb223e1f0d1ec7109b9811b32644e6e974d6631f906200116f908390620033b8565b60405180910390a150565b60055481565b6000546001600160a01b031690565b6007546001600160a01b031681565b33600090815260096020526040812054801562001299573360009081526009602052604080822091909155600254905163a9059cbb60e01b81526001600160a01b039091169063a9059cbb90620011fc908690859060040162002e4f565b602060405180830381600087803b1580156200121757600080fd5b505af11580156200122c573d6000803e3d6000fd5b505050506040513d601f19601f8201168201806040525081019062001252919062002b72565b50826001600160a01b03167fc9985ad824d943d66367ce5feea26e18979b3e1c9273742926d87e2b0d74738733836040516200129092919062002e4f565b60405180910390a25b92915050565b6000546001600160a01b03163314620012b757600080fd5b60048190556040517fcc4df50442ac32f0142ba4853f617661e0823be0e92148e7e5f36ce56c139825906200116f908390620033b8565b6000620012fb8362000f50565b6200130b576200130b83620010db565b6000600b84815481106200131b57fe5b60009182526020918290206040805161010081018252600890930290910180546001600160a01b031683526001810180548351818702810187019094528084529394919385830193928301828280156200139f57602002820191906000526020600020905b81546001600160a01b0316815260019091019060200180831162001380575b50505050508152602001600282015481526020016003820160009054906101000a90046001600160a01b03166001600160a01b03166001600160a01b031681526020016004820154815260200160058201548152602001600682015481526020016007820154815250509050600081606001516001600160a01b03166371297784336040518263ffffffff1660e01b81526004016200143f919062002e17565b602060405180830381600087803b1580156200145a57600080fd5b505af11580156200146f573d6000803e3d6000fd5b505050506040513d601f19601f8201168201806040525081019062001495919062002baa565b9050600a54600a548281620014a657fe5b040290506000620014b78262000cd7565b90506000620014e1670de0b6b3a764000062000b2686608001518562001e6690919063ffffffff16565b9050620014ef828262001eae565b84516001600160a01b0390811660009081526009602052604090819020805485019055600254905163a9059cbb60e01b8152929450169063a9059cbb906200153e908990869060040162002e4f565b602060405180830381600087803b1580156200155957600080fd5b505af11580156200156e573d6000803e3d6000fd5b505050506040513d601f19601f8201168201806040525081019062001594919062002b72565b50856001600160a01b03167fe67bd0100cd3289557430d36098901ba18161e6279c9711d8650b8af10552104888660600151868587604051620015dc9594939291906200344f565b60405180910390a25095945050505050565b60085481565b620015fe62002777565b600c60008381526020019081526020016000206040518061012001604052908160008201548152602001600182018054600181600116156101000203166002900480601f016020809104026020016040519081016040528092919081815260200182805460018160011615610100020316600290048015620016c45780601f106200169857610100808354040283529160200191620016c4565b820191906000526020600020905b815481529060010190602001808311620016a657829003601f168201915b505050918352505060028281015460208084019190915260038401805460408051601f60001961010060018616150201909316959095049182018490048402850184018152818552909401939091830182828015620017675780601f106200173b5761010080835404028352916020019162001767565b820191906000526020600020905b8154815290600101906020018083116200174957829003601f168201915b50505091835250506004820154602082015260058201546040820152600682015460609091019060ff1680156200179a57fe5b8015620017a357fe5b81526020016006820160019054906101000a900460ff166004811115620017c657fe5b6004811115620017d257fe5b815260408051606081019182905260209092019190600784019060039082845b815481526020019060010190808311620017f2575050505050815250509050919050565b60065481565b600a540290565b6200182d620027d5565b6000828152600d602090815260408083208151928301918290529060019082845b8154815260200190600101908083116200184e575093979650505050505050565b600f546001600160a01b031681565b6000546001600160a01b031633146200189657600080fd5b60058190556040517f92d395c429898992f8532ee7145901513e524c2085fd7fd1da39b8badcd6df31906200116f908390620033b8565b60105481565b6002546001600160a01b031681565b60606000805b600b548110156200191357620018fe8162000f50565b6200190a576001909101905b600101620018e8565b5060008167ffffffffffffffff811180156200192e57600080fd5b5060405190808252806020026020018201604052801562001959578160200160208202803683370190505b5090506000805b600b5481101562000f3257838210620019795762000f32565b620019848162000f50565b620019a957808383815181106200199757fe5b60209081029190910101526001909101905b60010162001960565b6000546001600160a01b03163314620019ca57600080fd5b600f80546001600160a01b0319166001600160a01b0383161790556040517f6b7517523482c8d89ffbc530829d5decd506cf6dc60874b11fa26c8a53bb9fa9906200116f90839062002e17565b600080805b845181101562001a5d5762001a5262001a4a86838151811062001a3b57fe5b602002602001015186620012ee565b839062001fdc565b915060010162001a1c565b509392505050565b62001a6f620027f3565b600b54821062001ac9575060408051610100810182526000808252825181815260208082018552830152918101829052606081018290526080810182905260a0810182905260c0810182905260e081019190915262000d25565b600b828154811062001ad757fe5b60009182526020918290206040805161010081018252600890930290910180546001600160a01b0316835260018101805483518187028101870190945280845293949193858301939283018282801562001b5b57602002820191906000526020600020905b81546001600160a01b0316815260019091019060200180831162001b3c575b50505091835250506002820154602082015260038201546001600160a01b031660408201526004820154606082015260058201546080820152600682015460a082015260079091015460c090910152905062000d25565b600b5490565b600f546001600160a01b0316331462001be55760405162461bcd60e51b81526004016200060690620030e7565b33600062001bf6846101e062001fdc565b60008a8152600d602090815260408083208151928301918290529394509192909160019082845b81548152602001906001019080831162001c1d575050505050905062001c4b83838c8c8c8c8c8c8c62001fef565b815260008a8152600d6020526040902062001c69908260016200284a565b5050506000888152600d6020526040812060018082019890985560028101959095556003909401929092555050600e805493840181559052507fbb7b4a454dc3493923482f07822329ed19e8244eff582cc204f8554c3620c3fd019190915550565b600080546001600160a01b0316331462001ce457600080fd5b6001600160a01b03821662001cf857600080fd5b60005462001d10906001600160a01b031683620022dc565b50600080546001600160a01b0383166001600160a01b03199091161790556001919050565b600f546001600160a01b0316331462001d625760405162461bcd60e51b8152600401620006069062003185565b6000858152600d6020526040808220815160a0810190925281608081018260018282826020028201915b81548152602001906001019080831162001d8c575050509183525050600182015460208201526002820154604082015260039091015460609091015280515190915062001ded5760405162461bcd60e51b8152600401620006069062002f44565b600185600481111562001dfc57fe5b600481111562001e0857fe5b141562001e295760405162461bcd60e51b8152600401620006069062003128565b62001e388186868686620022e0565b1562001e4f5762001e498662002354565b62001e5e565b80515162001e5e908362002499565b505050505050565b60008262001e775750600062001299565b8282028284828162001e8557fe5b041462001e9157600080fd5b9392505050565b60008082848162001ea557fe5b04949350505050565b60008282111562001ebe57600080fd5b50900390565b600080805b600e5481101562001f13576000600e828154811062001ee457fe5b9060005260206000200154905062001efc8162001f19565b1562001f09576001909201915b5060010162001ec9565b50905090565b6000818152600d6020526040808220815160a0810190925282919081608081018260018282826020028201915b81548152602001906001019080831162001f465750505050508152602001600182015481526020016002820154815260200160038201548152505090506000805b600181101562001a5d578251600090826001811062001fa257fe5b60200201519050801580159062001fc1575062001fbf8162000f50565b155b1562001fd257600192505062001a5d565b5060010162001f87565b60008282018381101562001e9157600080fd5b60408051600380825260808201909252600091829190816020015b60608152602001906001900390816200200a5790505060408051808201909152600a815269139bc810dbdb9d195cdd60b21b6020820152909150816000815181106200205257fe5b602090810291909101015285816001815181106200206c57fe5b602090810291909101015287816002815181106200208657fe5b6020908102919091010152600b805490620020a48d84808f620025de565b8154600180820184556000938452602093849020835160089093020180546001600160a01b0319166001600160a01b0390931692909217825582840151805193949293620020fb939285019291909101906200288d565b506040820151816002015560608201518160030160006101000a8154816001600160a01b0302191690836001600160a01b031602179055506080820151816004015560a0820151816005015560c0820151816006015560e0820151816007015550506040518061012001604052808b81526020018a81526020018981526020018881526020018781526020018681526020016000808111156200219a57fe5b815260200160018152602001620021b18662002651565b90526000828152600c60209081526040909120825181558282015180519192620021e492600185019290910190620028e5565b5060408201516002820155606082015180516200220c916003840191602090910190620028e5565b506080820151600482015560a0820151600582015560c082015160068201805460ff191660018380156200223c57fe5b021790555060e082015160068201805461ff0019166101008360048111156200226157fe5b02179055506101008201516200227e906007830190600362002967565b50905050897fdd33268f1f074f3438fb67ef0cc66f069a975721ffebbe44f59b8616262ce5d4828e8e60008e8e8e8e8e604051620022c599989796959493929190620033d8565b60405180910390a29b9a5050505050505050505050565b5050565b6000806003836003811115620022f257fe5b149050600060028760048111156200230657fe5b60048111156200231257fe5b60208a015160408b015192909114159250871415908614158380620023345750825b806200233d5750815b80620023465750805b9a9950505050505050505050565b6000818152600d602090815260408083208151928301918290529060019082845b81548152602001906001019080831162002375575050505050905060005b600181101562002494576000828260018110620023ac57fe5b6020020151905080620023c057506200248b565b6000600b8281548110620023d057fe5b9060005260206000209060080201600101600081548110620023ee57fe5b600091825260209091200154600b80546001600160a01b0390921692508291849081106200241857fe5b906000526020600020906008020160030160006101000a8154816001600160a01b0302191690836001600160a01b031602179055507fc68d106ea6e4bec784925cfd91767212c71ced92adbac107dc364435321113f6828260405162002480929190620033c1565b60405180910390a150505b60010162002393565b505050565b6000816003811115620024a857fe5b60011415620024fd57600b8381548110620024bf57fe5b6000918252602090912060016008909202010160025b81548110620024e057fe5b6000918252602090912001546001600160a01b031690506200255a565b8160038111156200250a57fe5b600214156200254057600b83815481106200252157fe5b906000526020600020906008020160010160016002811115620024d557fe5b60405162461bcd60e51b81526004016200060690620030b0565b80600b84815481106200256957fe5b906000526020600020906008020160030160006101000a8154816001600160a01b0302191690836001600160a01b031602179055507fc68d106ea6e4bec784925cfd91767212c71ced92adbac107dc364435321113f68382604051620025d1929190620033c1565b60405180910390a1505050565b620025e8620027f3565b604051806101000160405280866001600160a01b031681526020016200261086863062002681565b815260200183815260200160006001600160a01b03168152602001600554815260200160065481526020016004548152602001428152509050949350505050565b6200265b62002997565b670de0b6b3a76400008152680154017c3185120000602082018190526040820152919050565b825160609060008167ffffffffffffffff81118015620026a057600080fd5b50604051908082528060200260200182016040528015620026cb578160200160208202803683370190505b50905060005b828110156200276d57868181518110620026e757fe5b6020026020010151868281518110620026fc57fe5b6020026020010151866040516200271390620029b5565b620027219392919062002f02565b604051809103906000f0801580156200273e573d6000803e3d6000fd5b508282815181106200274c57fe5b6001600160a01b0390921660209283029190910190910152600101620026d1565b5095945050505050565b604051806101200160405280600081526020016060815260200160008152602001606081526020016000815260200160008152602001600080811115620027ba57fe5b815260200160008152602001620027d062002997565b905290565b60405180602001604052806001906020820280368337509192915050565b60405180610100016040528060006001600160a01b03168152602001606081526020016000815260200160006001600160a01b03168152602001600081526020016000815260200160008152602001600081525090565b82600181019282156200287b579160200282015b828111156200287b5782518255916020019190600101906200285e565b5062002889929150620029c3565b5090565b8280548282559060005260206000209081019282156200287b579160200282015b828111156200287b57825182546001600160a01b0319166001600160a01b03909116178255602090920191600190910190620028ae565b828054600181600116156101000203166002900490600052602060002090601f0160209004810192826200291d57600085556200287b565b82601f106200293857805160ff19168380011785556200287b565b828001600101855582156200287b57918201828111156200287b5782518255916020019190600101906200285e565b82600381019282156200287b57916020028201828111156200287b5782518255916020019190600101906200285e565b60405180606001604052806003906020820280368337509192915050565b6111f380620034e583390190565b5b80821115620028895760008155600101620029c4565b80356001600160a01b038116811462000d2557600080fd5b600082601f83011262002a03578081fd5b813567ffffffffffffffff81111562002a1857fe5b62002a2d601f8201601f1916602001620034b0565b81815284602083860101111562002a42578283fd5b816020850160208301379081016020019190915292915050565b60006020828403121562002a6e578081fd5b62001e9182620029da565b6000806040838503121562002a8c578081fd5b62002a9783620029da565b9150602083013562002aa981620034d5565b809150509250929050565b6000806040838503121562002ac7578182fd5b823567ffffffffffffffff8082111562002adf578384fd5b818501915085601f83011262002af3578384fd5b813560208282111562002b0257fe5b808202925062002b14818401620034b0565b8281528181019085830185870184018b101562002b2f578889fd5b8896505b8487101562002b5357803583526001969096019591830191830162002b33565b50965062002b659050878201620029da565b9450505050509250929050565b60006020828403121562002b84578081fd5b815162001e9181620034d5565b60006020828403121562002ba3578081fd5b5035919050565b60006020828403121562002bbc578081fd5b5051919050565b6000806040838503121562002bd6578182fd5b8235915062002be860208401620029da565b90509250929050565b600080600080600080600061010080898b03121562002c0e578384fd5b883597506020808a013567ffffffffffffffff8082111562002c2e578687fd5b62002c3c8d838e01620029f2565b995060408c0135985060608c013591508082111562002c59578687fd5b62002c678d838e01620029f2565b975060808c0135965060a08c013595508c60df8d011262002c86578485fd5b604051915060408201828110828211171562002c9e57fe5b604052508060c08c01848d018e101562002cb6578586fd5b8594505b600285101562002cdb57803582526001949094019390830190830162002cba565b505080935050505092959891949750929550565b60008060006060848603121562002d04578283fd5b833592506020840135915062002d1d60408501620029da565b90509250925092565b600080600080600060a0868803121562002d3e578081fd5b8535945060208601359350604086013592506060860135915060808601356004811062002d69578182fd5b809150509295509295909350565b8060005b600381101562002d9c57815184526020938401939091019060010162002d7b565b50505050565b6001600160a01b03169052565b6005811062002dba57fe5b9052565b6001811062002dba57fe5b60008151808452815b8181101562002df05760208185018101518683018201520162002dd2565b8181111562002e025782602083870101525b50601f01601f19169290920160200192915050565b6001600160a01b0391909116815260200190565b6001600160a01b039384168152919092166020820152604081019190915260600190565b6001600160a01b03929092168252602082015260400190565b602081810190828460005b600181101562002e925781518352918301919083019060010162002e73565b5050505092915050565b6020808252825182820181905260009190848201906040850190845b8181101562002ed65783518352928401929184019160010162002eb8565b50909695505050505050565b901515815260200190565b60006020825262001e91602083018462002dc9565b60006060825262002f17606083018662002dc9565b828103602084015262002f2b818662002dc9565b91505060018060a01b0383166040830152949350505050565b6020808252602b908201527f43616e6e6f74207265736f6c7665206d61726b6574732074686174207765726560408201526a1b89dd0818dc99585d195960aa1b606082015260800190565b60208082526024908201527f4f6e6c792070726f746f636f6c2063616e20636c61696d2070726f746f636f6c6040820152632066656560e01b606082015260800190565b60208082526046908201527f4f6e6c7920746865206c696e6b206e6f64652063616e207265736f6c7665207460408201527f6865206d61726b65742c207573696e6720747275737465645265736f6c76654d60608201526561726b65747360d01b608082015260a00190565b6020808252604b908201527f536861726573206d75737420626520626f74682067726561746572207468616e60408201527f20286f7220657175616c20746f2920616e6420646976697369626c652062792060608201526a39b430b932a330b1ba37b960a91b608082015260a00190565b6020808252601c908201527f426164206d61726b6574207265736f6c7574696f6e2063686f69636500000000604082015260600190565b60208082526021908201527f4f6e6c79206c696e6b206e6f64652063616e20637265617465206d61726b65746040820152607360f81b606082015260800190565b6020808252818101527f43616e6e6f74207265736f6c7665205343484544554c4544206d61726b657473604082015260600190565b6020808252600e908201526d139bc81cdd58da081b585c9ad95d60921b604082015260600190565b60208082526022908201527f4f6e6c79206c696e6b206e6f64652063616e207265736f6c7665206d61726b65604082015261747360f01b606082015260800190565b60208082526026908201527f43616e6e6f74206d696e742073686172657320666f72207265736f6c766564206040820152651b585c9ad95d60d21b606082015260800190565b60208082526026908201527f43616e6e6f74206275726e2073686172657320666f72207265736f6c766564206040820152651b585c9ad95d60d21b606082015260800190565b60006020825282516020830152602083015161016060408401526200327d61018084018262002dc9565b9050604084015160608401526060840151601f19848303016080850152620032a6828262002dc9565b915050608084015160a084015260a084015160c084015260c0840151620032d160e085018262002dbe565b5060e0840151610100620032e88186018362002daf565b850151905062001a5d61012085018262002d77565b602080825282516001600160a01b039081168383015283820151610100604085018190528151610120860181905260009493928401929185916101408801905b8084101562003361578551851682529486019460019390930192908601906200333d565b50604089015160608901526060890151955062003382608089018762002da2565b608089015160a089015260a089015160c089015260c089015160e089015260e08901518289015280965050505050505092915050565b90815260200190565b9182526001600160a01b0316602082015260400190565b8981526001600160a01b038916602082015260408101889052600061012062003405606084018a62002dbe565b806080840152620034198184018962002dc9565b90508660a084015282810360c084015262003435818762002dc9565b60e084019590955250506101000152979650505050505050565b9485526001600160a01b0393909316602085015260408401919091526060830152608082015260a00190565b92835260208301919091526001600160a01b0316604082015260600190565b9283526020830191909152604082015260600190565b60405181810167ffffffffffffffff81118282101715620034cd57fe5b604052919050565b8015158114620010f557600080fdfe60806040523480156200001157600080fd5b50604051620011f3380380620011f3833981810160405260608110156200003757600080fd5b81019080805160405193929190846401000000008211156200005857600080fd5b9083019060208201858111156200006e57600080fd5b82516401000000008111828201881017156200008957600080fd5b82525081516020918201929091019080838360005b83811015620000b85781810151838201526020016200009e565b50505050905090810190601f168015620000e65780820380516001836020036101000a031916815260200191505b50604052602001805160405193929190846401000000008211156200010a57600080fd5b9083019060208201858111156200012057600080fd5b82516401000000008111828201881017156200013b57600080fd5b82525081516020918201929091019080838360005b838110156200016a57818101518382015260200162000150565b50505050905090810190601f168015620001985780820380516001836020036101000a031916815260200191505b5060405260209081015185519093508592508491620001bd9160039185019062000219565b508051620001d390600490602084019062000219565b5050600580546001600160a01b039390931661010090810233909102610100600160a81b031960ff199095166012178516179093169290921790915550620002c5915050565b828054600181600116156101000203166002900490600052602060002090601f0160209004810192826200025157600085556200029c565b82601f106200026c57805160ff19168380011785556200029c565b828001600101855582156200029c579182015b828111156200029c5782518255916020019190600101906200027f565b50620002aa929150620002ae565b5090565b5b80821115620002aa5760008155600101620002af565b610f1e80620002d56000396000f3fe608060405234801561001057600080fd5b506004361061010b5760003560e01c806370a08231116100a2578063a457c2d711610071578063a457c2d714610343578063a9059cbb1461036f578063c024cd261461039b578063dd62ed3e146103c7578063f2fde38b146103f55761010b565b806370a08231146102cb57806371297784146102f1578063893d20e81461031757806395d89b411461033b5761010b565b806323b872dd116100de57806323b872dd1461021f578063313ce56714610255578063395093511461027357806342986e131461029f5761010b565b806306fdde0314610110578063095ea7b31461018d5780630fb66557146101cd57806318160ddd14610205575b600080fd5b61011861041b565b6040805160208082528351818301528351919283929083019185019080838360005b8381101561015257818101518382015260200161013a565b50505050905090810190601f16801561017f5780820380516001836020036101000a031916815260200191505b509250505060405180910390f35b6101b9600480360360408110156101a357600080fd5b506001600160a01b0381351690602001356104b1565b604080519115158252519081900360200190f35b610203600480360360608110156101e357600080fd5b506001600160a01b038135811691602081013590911690604001356104ce565b005b61020d6104fa565b60408051918252519081900360200190f35b6101b96004803603606081101561023557600080fd5b506001600160a01b03813581169160208101359091169060400135610500565b61025d610587565b6040805160ff9092168252519081900360200190f35b6101b96004803603604081101561028957600080fd5b506001600160a01b038135169060200135610590565b610203600480360360408110156102b557600080fd5b506001600160a01b0381351690602001356105de565b61020d600480360360208110156102e157600080fd5b50356001600160a01b0316610608565b61020d6004803603602081101561030757600080fd5b50356001600160a01b0316610623565b61031f61065f565b604080516001600160a01b039092168252519081900360200190f35b610118610673565b6101b96004803603604081101561035957600080fd5b506001600160a01b0381351690602001356106d4565b6101b96004803603604081101561038557600080fd5b506001600160a01b03813516906020013561073c565b610203600480360360408110156103b157600080fd5b506001600160a01b038135169060200135610750565b61020d600480360360408110156103dd57600080fd5b506001600160a01b0381358116916020013516610776565b6101b96004803603602081101561040b57600080fd5b50356001600160a01b03166107a1565b60038054604080516020601f60026000196101006001881615020190951694909404938401819004810282018101909252828152606093909290918301828280156104a75780601f1061047c576101008083540402835291602001916104a7565b820191906000526020600020905b81548152906001019060200180831161048a57829003601f168201915b5050505050905090565b60006104c56104be610818565b848461081c565b50600192915050565b60055461010090046001600160a01b031633146104ea57600080fd5b6104f5838383610908565b505050565b60025490565b600061050d848484610908565b61057d84610519610818565b61057885604051806060016040528060288152602001610e32602891396001600160a01b038a16600090815260016020526040812090610557610818565b6001600160a01b031681526020810191909152604001600020549190610a63565b61081c565b5060019392505050565b60055460ff1690565b60006104c561059d610818565b8461057885600160006105ae610818565b6001600160a01b03908116825260208083019390935260409182016000908120918c168152925290205490610afa565b60055461010090046001600160a01b031633146105fa57600080fd5b6106048282610b5b565b5050565b6001600160a01b031660009081526020819052604090205490565b60055460009061010090046001600160a01b0316331461064257600080fd5b600061064d83610608565b90506106598382610b5b565b92915050565b60055461010090046001600160a01b031690565b60048054604080516020601f60026000196101006001881615020190951694909404938401819004810282018101909252828152606093909290918301828280156104a75780601f1061047c576101008083540402835291602001916104a7565b60006104c56106e1610818565b8461057885604051806060016040528060258152602001610ec4602591396001600061070b610818565b6001600160a01b03908116825260208083019390935260409182016000908120918d16815292529020549190610a63565b60006104c5610749610818565b8484610908565b60055461010090046001600160a01b0316331461076c57600080fd5b6106048282610c57565b6001600160a01b03918216600090815260016020908152604080832093909416825291909152205490565b60055460009061010090046001600160a01b031633146107c057600080fd5b6001600160a01b0382166107d357600080fd5b6005546107ee9061010090046001600160a01b031683610604565b50600580546001600160a01b03831661010002610100600160a81b03199091161790556001919050565b3390565b6001600160a01b0383166108615760405162461bcd60e51b8152600401808060200182810382526024815260200180610ea06024913960400191505060405180910390fd5b6001600160a01b0382166108a65760405162461bcd60e51b8152600401808060200182810382526022815260200180610dea6022913960400191505060405180910390fd5b6001600160a01b03808416600081815260016020908152604080832094871680845294825291829020859055815185815291517f8c5be1e5ebec7d5bd14f71427d1e84f3dd0314c0f7b2291e5b200ac8c7c3b9259281900390910190a3505050565b6001600160a01b03831661094d5760405162461bcd60e51b8152600401808060200182810382526025815260200180610e7b6025913960400191505060405180910390fd5b6001600160a01b0382166109925760405162461bcd60e51b8152600401808060200182810382526023815260200180610da56023913960400191505060405180910390fd5b61099d8383836104f5565b6109da81604051806060016040528060268152602001610e0c602691396001600160a01b0386166000908152602081905260409020549190610a63565b6001600160a01b038085166000908152602081905260408082209390935590841681522054610a099082610afa565b6001600160a01b038084166000818152602081815260409182902094909455805185815290519193928716927fddf252ad1be2c89b69c2b068fc378daa952ba7f163c4a11628f55a4df523b3ef92918290030190a3505050565b60008184841115610af25760405162461bcd60e51b81526004018080602001828103825283818151815260200191508051906020019080838360005b83811015610ab7578181015183820152602001610a9f565b50505050905090810190601f168015610ae45780820380516001836020036101000a031916815260200191505b509250505060405180910390fd5b505050900390565b600082820183811015610b54576040805162461bcd60e51b815260206004820152601b60248201527f536166654d6174683a206164646974696f6e206f766572666c6f770000000000604482015290519081900360640190fd5b9392505050565b6001600160a01b038216610ba05760405162461bcd60e51b8152600401808060200182810382526021815260200180610e5a6021913960400191505060405180910390fd5b610bac826000836104f5565b610be981604051806060016040528060228152602001610dc8602291396001600160a01b0385166000908152602081905260409020549190610a63565b6001600160a01b038316600090815260208190526040902055600254610c0f9082610d47565b6002556040805182815290516000916001600160a01b038516917fddf252ad1be2c89b69c2b068fc378daa952ba7f163c4a11628f55a4df523b3ef9181900360200190a35050565b6001600160a01b038216610cb2576040805162461bcd60e51b815260206004820152601f60248201527f45524332303a206d696e7420746f20746865207a65726f206164647265737300604482015290519081900360640190fd5b610cbe600083836104f5565b600254610ccb9082610afa565b6002556001600160a01b038216600090815260208190526040902054610cf19082610afa565b6001600160a01b0383166000818152602081815260408083209490945583518581529351929391927fddf252ad1be2c89b69c2b068fc378daa952ba7f163c4a11628f55a4df523b3ef9281900390910190a35050565b600082821115610d9e576040805162461bcd60e51b815260206004820152601e60248201527f536166654d6174683a207375627472616374696f6e206f766572666c6f770000604482015290519081900360640190fd5b5090039056fe45524332303a207472616e7366657220746f20746865207a65726f206164647265737345524332303a206275726e20616d6f756e7420657863656564732062616c616e636545524332303a20617070726f766520746f20746865207a65726f206164647265737345524332303a207472616e7366657220616d6f756e7420657863656564732062616c616e636545524332303a207472616e7366657220616d6f756e74206578636565647320616c6c6f77616e636545524332303a206275726e2066726f6d20746865207a65726f206164647265737345524332303a207472616e736665722066726f6d20746865207a65726f206164647265737345524332303a20617070726f76652066726f6d20746865207a65726f206164647265737345524332303a2064656372656173656420616c6c6f77616e63652062656c6f77207a65726fa2646970667358221220c881513fca5a75d47e02fc1c04920461b43ce001b23b37bd2a0244cb5b4737ce64736f6c63430007060033a26469706673582212205ba6ab91ec9626133c6108de1ed680350ea3b21aa8b365683e9b5b9aab97531d64736f6c6343000706003360806040523480156200001157600080fd5b50604051620011f3380380620011f3833981810160405260608110156200003757600080fd5b81019080805160405193929190846401000000008211156200005857600080fd5b9083019060208201858111156200006e57600080fd5b82516401000000008111828201881017156200008957600080fd5b82525081516020918201929091019080838360005b83811015620000b85781810151838201526020016200009e565b50505050905090810190601f168015620000e65780820380516001836020036101000a031916815260200191505b50604052602001805160405193929190846401000000008211156200010a57600080fd5b9083019060208201858111156200012057600080fd5b82516401000000008111828201881017156200013b57600080fd5b82525081516020918201929091019080838360005b838110156200016a57818101518382015260200162000150565b50505050905090810190601f168015620001985780820380516001836020036101000a031916815260200191505b5060405260209081015185519093508592508491620001bd9160039185019062000219565b508051620001d390600490602084019062000219565b5050600580546001600160a01b039390931661010090810233909102610100600160a81b031960ff199095166012178516179093169290921790915550620002c5915050565b828054600181600116156101000203166002900490600052602060002090601f0160209004810192826200025157600085556200029c565b82601f106200026c57805160ff19168380011785556200029c565b828001600101855582156200029c579182015b828111156200029c5782518255916020019190600101906200027f565b50620002aa929150620002ae565b5090565b5b80821115620002aa5760008155600101620002af565b610f1e80620002d56000396000f3fe608060405234801561001057600080fd5b506004361061010b5760003560e01c806370a08231116100a2578063a457c2d711610071578063a457c2d714610343578063a9059cbb1461036f578063c024cd261461039b578063dd62ed3e146103c7578063f2fde38b146103f55761010b565b806370a08231146102cb57806371297784146102f1578063893d20e81461031757806395d89b411461033b5761010b565b806323b872dd116100de57806323b872dd1461021f578063313ce56714610255578063395093511461027357806342986e131461029f5761010b565b806306fdde0314610110578063095ea7b31461018d5780630fb66557146101cd57806318160ddd14610205575b600080fd5b61011861041b565b6040805160208082528351818301528351919283929083019185019080838360005b8381101561015257818101518382015260200161013a565b50505050905090810190601f16801561017f5780820380516001836020036101000a031916815260200191505b509250505060405180910390f35b6101b9600480360360408110156101a357600080fd5b506001600160a01b0381351690602001356104b1565b604080519115158252519081900360200190f35b610203600480360360608110156101e357600080fd5b506001600160a01b038135811691602081013590911690604001356104ce565b005b61020d6104fa565b60408051918252519081900360200190f35b6101b96004803603606081101561023557600080fd5b506001600160a01b03813581169160208101359091169060400135610500565b61025d610587565b6040805160ff9092168252519081900360200190f35b6101b96004803603604081101561028957600080fd5b506001600160a01b038135169060200135610590565b610203600480360360408110156102b557600080fd5b506001600160a01b0381351690602001356105de565b61020d600480360360208110156102e157600080fd5b50356001600160a01b0316610608565b61020d6004803603602081101561030757600080fd5b50356001600160a01b0316610623565b61031f61065f565b604080516001600160a01b039092168252519081900360200190f35b610118610673565b6101b96004803603604081101561035957600080fd5b506001600160a01b0381351690602001356106d4565b6101b96004803603604081101561038557600080fd5b506001600160a01b03813516906020013561073c565b610203600480360360408110156103b157600080fd5b506001600160a01b038135169060200135610750565b61020d600480360360408110156103dd57600080fd5b506001600160a01b0381358116916020013516610776565b6101b96004803603602081101561040b57600080fd5b50356001600160a01b03166107a1565b60038054604080516020601f60026000196101006001881615020190951694909404938401819004810282018101909252828152606093909290918301828280156104a75780601f1061047c576101008083540402835291602001916104a7565b820191906000526020600020905b81548152906001019060200180831161048a57829003601f168201915b5050505050905090565b60006104c56104be610818565b848461081c565b50600192915050565b60055461010090046001600160a01b031633146104ea57600080fd5b6104f5838383610908565b505050565b60025490565b600061050d848484610908565b61057d84610519610818565b61057885604051806060016040528060288152602001610e32602891396001600160a01b038a16600090815260016020526040812090610557610818565b6001600160a01b031681526020810191909152604001600020549190610a63565b61081c565b5060019392505050565b60055460ff1690565b60006104c561059d610818565b8461057885600160006105ae610818565b6001600160a01b03908116825260208083019390935260409182016000908120918c168152925290205490610afa565b60055461010090046001600160a01b031633146105fa57600080fd5b6106048282610b5b565b5050565b6001600160a01b031660009081526020819052604090205490565b60055460009061010090046001600160a01b0316331461064257600080fd5b600061064d83610608565b90506106598382610b5b565b92915050565b60055461010090046001600160a01b031690565b60048054604080516020601f60026000196101006001881615020190951694909404938401819004810282018101909252828152606093909290918301828280156104a75780601f1061047c576101008083540402835291602001916104a7565b60006104c56106e1610818565b8461057885604051806060016040528060258152602001610ec4602591396001600061070b610818565b6001600160a01b03908116825260208083019390935260409182016000908120918d16815292529020549190610a63565b60006104c5610749610818565b8484610908565b60055461010090046001600160a01b0316331461076c57600080fd5b6106048282610c57565b6001600160a01b03918216600090815260016020908152604080832093909416825291909152205490565b60055460009061010090046001600160a01b031633146107c057600080fd5b6001600160a01b0382166107d357600080fd5b6005546107ee9061010090046001600160a01b031683610604565b50600580546001600160a01b03831661010002610100600160a81b03199091161790556001919050565b3390565b6001600160a01b0383166108615760405162461bcd60e51b8152600401808060200182810382526024815260200180610ea06024913960400191505060405180910390fd5b6001600160a01b0382166108a65760405162461bcd60e51b8152600401808060200182810382526022815260200180610dea6022913960400191505060405180910390fd5b6001600160a01b03808416600081815260016020908152604080832094871680845294825291829020859055815185815291517f8c5be1e5ebec7d5bd14f71427d1e84f3dd0314c0f7b2291e5b200ac8c7c3b9259281900390910190a3505050565b6001600160a01b03831661094d5760405162461bcd60e51b8152600401808060200182810382526025815260200180610e7b6025913960400191505060405180910390fd5b6001600160a01b0382166109925760405162461bcd60e51b8152600401808060200182810382526023815260200180610da56023913960400191505060405180910390fd5b61099d8383836104f5565b6109da81604051806060016040528060268152602001610e0c602691396001600160a01b0386166000908152602081905260409020549190610a63565b6001600160a01b038085166000908152602081905260408082209390935590841681522054610a099082610afa565b6001600160a01b038084166000818152602081815260409182902094909455805185815290519193928716927fddf252ad1be2c89b69c2b068fc378daa952ba7f163c4a11628f55a4df523b3ef92918290030190a3505050565b60008184841115610af25760405162461bcd60e51b81526004018080602001828103825283818151815260200191508051906020019080838360005b83811015610ab7578181015183820152602001610a9f565b50505050905090810190601f168015610ae45780820380516001836020036101000a031916815260200191505b509250505060405180910390fd5b505050900390565b600082820183811015610b54576040805162461bcd60e51b815260206004820152601b60248201527f536166654d6174683a206164646974696f6e206f766572666c6f770000000000604482015290519081900360640190fd5b9392505050565b6001600160a01b038216610ba05760405162461bcd60e51b8152600401808060200182810382526021815260200180610e5a6021913960400191505060405180910390fd5b610bac826000836104f5565b610be981604051806060016040528060228152602001610dc8602291396001600160a01b0385166000908152602081905260409020549190610a63565b6001600160a01b038316600090815260208190526040902055600254610c0f9082610d47565b6002556040805182815290516000916001600160a01b038516917fddf252ad1be2c89b69c2b068fc378daa952ba7f163c4a11628f55a4df523b3ef9181900360200190a35050565b6001600160a01b038216610cb2576040805162461bcd60e51b815260206004820152601f60248201527f45524332303a206d696e7420746f20746865207a65726f206164647265737300604482015290519081900360640190fd5b610cbe600083836104f5565b600254610ccb9082610afa565b6002556001600160a01b038216600090815260208190526040902054610cf19082610afa565b6001600160a01b0383166000818152602081815260408083209490945583518581529351929391927fddf252ad1be2c89b69c2b068fc378daa952ba7f163c4a11628f55a4df523b3ef9281900390910190a35050565b600082821115610d9e576040805162461bcd60e51b815260206004820152601e60248201527f536166654d6174683a207375627472616374696f6e206f766572666c6f770000604482015290519081900360640190fd5b5090039056fe45524332303a207472616e7366657220746f20746865207a65726f206164647265737345524332303a206275726e20616d6f756e7420657863656564732062616c616e636545524332303a20617070726f766520746f20746865207a65726f206164647265737345524332303a207472616e7366657220616d6f756e7420657863656564732062616c616e636545524332303a207472616e7366657220616d6f756e74206578636565647320616c6c6f77616e636545524332303a206275726e2066726f6d20746865207a65726f206164647265737345524332303a207472616e736665722066726f6d20746865207a65726f206164647265737345524332303a20617070726f76652066726f6d20746865207a65726f206164647265737345524332303a2064656372656173656420616c6c6f77616e63652062656c6f77207a65726fa2646970667358221220c881513fca5a75d47e02fc1c04920461b43ce001b23b37bd2a0244cb5b4737ce64736f6c63430007060033",
  "devdoc": {
    "kind": "dev",
    "methods": {
      "transferOwnership(address)": {
        "details": "Allows the current owner to transfer control of the contract to a newOwner.",
        "params": {
          "_newOwner": "The address to transfer ownership to."
        }
      }
    },
    "version": 1
  },
  "userdoc": {
    "kind": "user",
    "methods": {},
    "version": 1
  },
  "storageLayout": {
    "storage": [
      {
        "astId": 5572,
        "contract": "contracts/turbo/MMALinkMarketFactory.sol:MMALinkMarketFactory",
        "label": "owner",
        "offset": 0,
        "slot": "0",
        "type": "t_address"
      },
      {
        "astId": 8094,
        "contract": "contracts/turbo/MMALinkMarketFactory.sol:MMALinkMarketFactory",
        "label": "version",
        "offset": 0,
        "slot": "1",
        "type": "t_string_storage"
      },
      {
        "astId": 8096,
        "contract": "contracts/turbo/MMALinkMarketFactory.sol:MMALinkMarketFactory",
        "label": "collateral",
        "offset": 0,
        "slot": "2",
        "type": "t_contract(IERC20Full)5549"
      },
      {
        "astId": 8098,
        "contract": "contracts/turbo/MMALinkMarketFactory.sol:MMALinkMarketFactory",
        "label": "feePot",
        "offset": 0,
        "slot": "3",
        "type": "t_contract(FeePot)10070"
      },
      {
        "astId": 8100,
        "contract": "contracts/turbo/MMALinkMarketFactory.sol:MMALinkMarketFactory",
        "label": "stakerFee",
        "offset": 0,
        "slot": "4",
        "type": "t_uint256"
      },
      {
        "astId": 8102,
        "contract": "contracts/turbo/MMALinkMarketFactory.sol:MMALinkMarketFactory",
        "label": "settlementFee",
        "offset": 0,
        "slot": "5",
        "type": "t_uint256"
      },
      {
        "astId": 8104,
        "contract": "contracts/turbo/MMALinkMarketFactory.sol:MMALinkMarketFactory",
        "label": "protocolFee",
        "offset": 0,
        "slot": "6",
        "type": "t_uint256"
      },
      {
        "astId": 8106,
        "contract": "contracts/turbo/MMALinkMarketFactory.sol:MMALinkMarketFactory",
        "label": "protocol",
        "offset": 0,
        "slot": "7",
        "type": "t_address"
      },
      {
        "astId": 8109,
        "contract": "contracts/turbo/MMALinkMarketFactory.sol:MMALinkMarketFactory",
        "label": "accumulatedProtocolFee",
        "offset": 0,
        "slot": "8",
        "type": "t_uint256"
      },
      {
        "astId": 8113,
        "contract": "contracts/turbo/MMALinkMarketFactory.sol:MMALinkMarketFactory",
        "label": "accumulatedSettlementFees",
        "offset": 0,
        "slot": "9",
        "type": "t_mapping(t_address,t_uint256)"
      },
      {
        "astId": 8115,
        "contract": "contracts/turbo/MMALinkMarketFactory.sol:MMALinkMarketFactory",
        "label": "shareFactor",
        "offset": 0,
        "slot": "10",
        "type": "t_uint256"
      },
      {
        "astId": 8136,
        "contract": "contracts/turbo/MMALinkMarketFactory.sol:MMALinkMarketFactory",
        "label": "markets",
        "offset": 0,
        "slot": "11",
        "type": "t_array(t_struct(Market)8133_storage)dyn_storage"
      },
      {
        "astId": 10149,
        "contract": "contracts/turbo/MMALinkMarketFactory.sol:MMALinkMarketFactory",
        "label": "marketDetails",
        "offset": 0,
        "slot": "12",
        "type": "t_mapping(t_uint256,t_struct(MarketDetails)10145_storage)"
      },
      {
        "astId": 10170,
        "contract": "contracts/turbo/MMALinkMarketFactory.sol:MMALinkMarketFactory",
        "label": "events",
        "offset": 0,
        "slot": "13",
        "type": "t_mapping(t_uint256,t_struct(EventDetails)10166_storage)"
      },
      {
        "astId": 10173,
        "contract": "contracts/turbo/MMALinkMarketFactory.sol:MMALinkMarketFactory",
        "label": "listOfEvents",
        "offset": 0,
        "slot": "14",
        "type": "t_array(t_uint256)dyn_storage"
      },
      {
        "astId": 10175,
        "contract": "contracts/turbo/MMALinkMarketFactory.sol:MMALinkMarketFactory",
        "label": "linkNode",
        "offset": 0,
        "slot": "15",
        "type": "t_address"
      },
      {
        "astId": 10178,
        "contract": "contracts/turbo/MMALinkMarketFactory.sol:MMALinkMarketFactory",
        "label": "sportId",
        "offset": 0,
        "slot": "16",
        "type": "t_uint256"
      }
    ],
    "types": {
      "t_address": {
        "encoding": "inplace",
        "label": "address",
        "numberOfBytes": "20"
      },
      "t_array(t_contract(OwnedERC20)11066)dyn_storage": {
        "base": "t_contract(OwnedERC20)11066",
        "encoding": "dynamic_array",
        "label": "contract OwnedERC20[]",
        "numberOfBytes": "32"
      },
      "t_array(t_struct(Market)8133_storage)dyn_storage": {
        "base": "t_struct(Market)8133_storage",
        "encoding": "dynamic_array",
        "label": "struct AbstractMarketFactory.Market[]",
        "numberOfBytes": "32"
      },
      "t_array(t_uint256)1_storage": {
        "base": "t_uint256",
        "encoding": "inplace",
        "label": "uint256[1]",
        "numberOfBytes": "32"
      },
      "t_array(t_uint256)3_storage": {
        "base": "t_uint256",
        "encoding": "inplace",
        "label": "uint256[3]",
        "numberOfBytes": "96"
      },
      "t_array(t_uint256)dyn_storage": {
        "base": "t_uint256",
        "encoding": "dynamic_array",
        "label": "uint256[]",
        "numberOfBytes": "32"
      },
      "t_contract(FeePot)10070": {
        "encoding": "inplace",
        "label": "contract FeePot",
        "numberOfBytes": "20"
      },
      "t_contract(IERC20Full)5549": {
        "encoding": "inplace",
        "label": "contract IERC20Full",
        "numberOfBytes": "20"
      },
      "t_contract(OwnedERC20)11066": {
        "encoding": "inplace",
        "label": "contract OwnedERC20",
        "numberOfBytes": "20"
      },
      "t_enum(EventStatus)10155": {
        "encoding": "inplace",
        "label": "enum MMALinkMarketFactory.EventStatus",
        "numberOfBytes": "1"
      },
      "t_enum(MarketType)10120": {
        "encoding": "inplace",
        "label": "enum MMALinkMarketFactory.MarketType",
        "numberOfBytes": "1"
      },
      "t_mapping(t_address,t_uint256)": {
        "encoding": "mapping",
        "key": "t_address",
        "label": "mapping(address => uint256)",
        "numberOfBytes": "32",
        "value": "t_uint256"
      },
      "t_mapping(t_uint256,t_struct(EventDetails)10166_storage)": {
        "encoding": "mapping",
        "key": "t_uint256",
        "label": "mapping(uint256 => struct MMALinkMarketFactory.EventDetails)",
        "numberOfBytes": "32",
        "value": "t_struct(EventDetails)10166_storage"
      },
      "t_mapping(t_uint256,t_struct(MarketDetails)10145_storage)": {
        "encoding": "mapping",
        "key": "t_uint256",
        "label": "mapping(uint256 => struct MMALinkMarketFactory.MarketDetails)",
        "numberOfBytes": "32",
        "value": "t_struct(MarketDetails)10145_storage"
      },
      "t_string_storage": {
        "encoding": "bytes",
        "label": "string",
        "numberOfBytes": "32"
      },
      "t_struct(EventDetails)10166_storage": {
        "encoding": "inplace",
        "label": "struct MMALinkMarketFactory.EventDetails",
        "members": [
          {
            "astId": 10159,
            "contract": "contracts/turbo/MMALinkMarketFactory.sol:MMALinkMarketFactory",
            "label": "markets",
            "offset": 0,
            "slot": "0",
            "type": "t_array(t_uint256)1_storage"
          },
          {
            "astId": 10161,
            "contract": "contracts/turbo/MMALinkMarketFactory.sol:MMALinkMarketFactory",
            "label": "homeFighterId",
            "offset": 0,
            "slot": "1",
            "type": "t_uint256"
          },
          {
            "astId": 10163,
            "contract": "contracts/turbo/MMALinkMarketFactory.sol:MMALinkMarketFactory",
            "label": "awayFighterId",
            "offset": 0,
            "slot": "2",
            "type": "t_uint256"
          },
          {
            "astId": 10165,
            "contract": "contracts/turbo/MMALinkMarketFactory.sol:MMALinkMarketFactory",
            "label": "startTime",
            "offset": 0,
            "slot": "3",
            "type": "t_uint256"
          }
        ],
        "numberOfBytes": "128"
      },
      "t_struct(Market)8133_storage": {
        "encoding": "inplace",
        "label": "struct AbstractMarketFactory.Market",
        "members": [
          {
            "astId": 8117,
            "contract": "contracts/turbo/MMALinkMarketFactory.sol:MMALinkMarketFactory",
            "label": "settlementAddress",
            "offset": 0,
            "slot": "0",
            "type": "t_address"
          },
          {
            "astId": 8120,
            "contract": "contracts/turbo/MMALinkMarketFactory.sol:MMALinkMarketFactory",
            "label": "shareTokens",
            "offset": 0,
            "slot": "1",
            "type": "t_array(t_contract(OwnedERC20)11066)dyn_storage"
          },
          {
            "astId": 8122,
            "contract": "contracts/turbo/MMALinkMarketFactory.sol:MMALinkMarketFactory",
            "label": "endTime",
            "offset": 0,
            "slot": "2",
            "type": "t_uint256"
          },
          {
            "astId": 8124,
            "contract": "contracts/turbo/MMALinkMarketFactory.sol:MMALinkMarketFactory",
            "label": "winner",
            "offset": 0,
            "slot": "3",
            "type": "t_contract(OwnedERC20)11066"
          },
          {
            "astId": 8126,
            "contract": "contracts/turbo/MMALinkMarketFactory.sol:MMALinkMarketFactory",
            "label": "settlementFee",
            "offset": 0,
            "slot": "4",
            "type": "t_uint256"
          },
          {
            "astId": 8128,
            "contract": "contracts/turbo/MMALinkMarketFactory.sol:MMALinkMarketFactory",
            "label": "protocolFee",
            "offset": 0,
            "slot": "5",
            "type": "t_uint256"
          },
          {
            "astId": 8130,
            "contract": "contracts/turbo/MMALinkMarketFactory.sol:MMALinkMarketFactory",
            "label": "stakerFee",
            "offset": 0,
            "slot": "6",
            "type": "t_uint256"
          },
          {
            "astId": 8132,
            "contract": "contracts/turbo/MMALinkMarketFactory.sol:MMALinkMarketFactory",
            "label": "creationTimestamp",
            "offset": 0,
            "slot": "7",
            "type": "t_uint256"
          }
        ],
        "numberOfBytes": "256"
      },
      "t_struct(MarketDetails)10145_storage": {
        "encoding": "inplace",
        "label": "struct MMALinkMarketFactory.MarketDetails",
        "members": [
          {
            "astId": 10126,
            "contract": "contracts/turbo/MMALinkMarketFactory.sol:MMALinkMarketFactory",
            "label": "eventId",
            "offset": 0,
            "slot": "0",
            "type": "t_uint256"
          },
          {
            "astId": 10128,
            "contract": "contracts/turbo/MMALinkMarketFactory.sol:MMALinkMarketFactory",
            "label": "homeFighterName",
            "offset": 0,
            "slot": "1",
            "type": "t_string_storage"
          },
          {
            "astId": 10130,
            "contract": "contracts/turbo/MMALinkMarketFactory.sol:MMALinkMarketFactory",
            "label": "homeFighterId",
            "offset": 0,
            "slot": "2",
            "type": "t_uint256"
          },
          {
            "astId": 10132,
            "contract": "contracts/turbo/MMALinkMarketFactory.sol:MMALinkMarketFactory",
            "label": "awayFighterName",
            "offset": 0,
            "slot": "3",
            "type": "t_string_storage"
          },
          {
            "astId": 10134,
            "contract": "contracts/turbo/MMALinkMarketFactory.sol:MMALinkMarketFactory",
            "label": "awayFighterId",
            "offset": 0,
            "slot": "4",
            "type": "t_uint256"
          },
          {
            "astId": 10136,
            "contract": "contracts/turbo/MMALinkMarketFactory.sol:MMALinkMarketFactory",
            "label": "estimatedStartTime",
            "offset": 0,
            "slot": "5",
            "type": "t_uint256"
          },
          {
            "astId": 10138,
            "contract": "contracts/turbo/MMALinkMarketFactory.sol:MMALinkMarketFactory",
            "label": "marketType",
            "offset": 0,
            "slot": "6",
            "type": "t_enum(MarketType)10120"
          },
          {
            "astId": 10140,
            "contract": "contracts/turbo/MMALinkMarketFactory.sol:MMALinkMarketFactory",
            "label": "eventStatus",
            "offset": 1,
            "slot": "6",
            "type": "t_enum(EventStatus)10155"
          },
          {
            "astId": 10144,
            "contract": "contracts/turbo/MMALinkMarketFactory.sol:MMALinkMarketFactory",
            "label": "headToHeadWeights",
            "offset": 0,
            "slot": "7",
            "type": "t_array(t_uint256)3_storage"
          }
        ],
        "numberOfBytes": "320"
      },
      "t_uint256": {
        "encoding": "inplace",
        "label": "uint256",
        "numberOfBytes": "32"
      }
    }
  }
}