{
  "address": "0x0045FC078bb60510185CBA39f2eA352C92C0c179",
  "abi": [
    {
      "inputs": [
        {
          "internalType": "address",
          "name": "_owner",
          "type": "address"
        },
        {
          "internalType": "contract IERC20Full",
          "name": "_collateral",
          "type": "address"
        },
        {
          "internalType": "uint256",
          "name": "_shareFactor",
          "type": "uint256"
        },
        {
          "internalType": "contract FeePot",
          "name": "_feePot",
          "type": "address"
        },
        {
          "internalType": "uint256[3]",
          "name": "_fees",
          "type": "uint256[3]"
        },
        {
          "internalType": "address",
          "name": "_protocol",
          "type": "address"
        },
        {
          "internalType": "address",
          "name": "_linkNode",
          "type": "address"
        }
      ],
      "stateMutability": "nonpayable",
      "type": "constructor"
    },
    {
      "anonymous": false,
      "inputs": [
        {
          "indexed": false,
          "internalType": "address",
          "name": "newLinkNode",
          "type": "address"
        }
      ],
      "name": "LinkNodeChanged",
      "type": "event"
    },
    {
      "anonymous": false,
      "inputs": [
        {
          "indexed": false,
          "internalType": "uint256",
          "name": "id",
          "type": "uint256"
        }
      ],
      "name": "MarketActivated",
      "type": "event"
    },
    {
      "anonymous": false,
      "inputs": [
        {
          "indexed": false,
          "internalType": "uint256",
          "name": "id",
          "type": "uint256"
        },
        {
          "indexed": false,
          "internalType": "string[]",
          "name": "names",
          "type": "string[]"
        },
        {
          "indexed": false,
          "internalType": "uint256[]",
          "name": "initialOdds",
          "type": "uint256[]"
        }
      ],
      "name": "MarketCreated",
      "type": "event"
    },
    {
      "anonymous": false,
      "inputs": [
        {
          "indexed": false,
          "internalType": "uint256",
          "name": "id",
          "type": "uint256"
        },
        {
          "indexed": false,
          "internalType": "address",
          "name": "winner",
          "type": "address"
        },
        {
          "indexed": false,
          "internalType": "uint256",
          "name": "winnerIndex",
          "type": "uint256"
        },
        {
          "indexed": false,
          "internalType": "string",
          "name": "winnerName",
          "type": "string"
        }
      ],
      "name": "MarketResolved",
      "type": "event"
    },
    {
      "anonymous": false,
      "inputs": [
        {
          "indexed": false,
          "internalType": "uint256",
          "name": "id",
          "type": "uint256"
        },
        {
          "indexed": false,
          "internalType": "uint256",
          "name": "amount",
          "type": "uint256"
        },
        {
          "indexed": false,
          "internalType": "address",
          "name": "receiver",
          "type": "address"
        }
      ],
      "name": "SharesBurned",
      "type": "event"
    },
    {
      "anonymous": false,
      "inputs": [
        {
          "indexed": false,
          "internalType": "uint256",
          "name": "id",
          "type": "uint256"
        },
        {
          "indexed": false,
          "internalType": "uint256",
          "name": "amount",
          "type": "uint256"
        },
        {
          "indexed": false,
          "internalType": "address",
          "name": "receiver",
          "type": "address"
        }
      ],
      "name": "SharesMinted",
      "type": "event"
    },
    {
      "anonymous": false,
      "inputs": [
        {
          "indexed": false,
          "internalType": "uint256",
          "name": "id",
          "type": "uint256"
        },
        {
          "indexed": false,
          "internalType": "uint256[]",
          "name": "markets",
          "type": "uint256[]"
        },
        {
          "indexed": false,
          "internalType": "int256[]",
          "name": "lines",
          "type": "int256[]"
        },
        {
          "indexed": false,
          "internalType": "uint256",
          "name": "homeTeamId",
          "type": "uint256"
        },
        {
          "indexed": false,
          "internalType": "uint256",
          "name": "awayTeamId",
          "type": "uint256"
        },
        {
          "indexed": false,
          "internalType": "string",
          "name": "homeTeamName",
          "type": "string"
        },
        {
          "indexed": false,
          "internalType": "string",
          "name": "awayTeamName",
          "type": "string"
        },
        {
          "indexed": false,
          "internalType": "uint256",
          "name": "estimatedStartTime",
          "type": "uint256"
        }
      ],
      "name": "SportsEventCreated",
      "type": "event"
    },
    {
      "anonymous": false,
      "inputs": [
        {
          "indexed": false,
          "internalType": "uint256",
          "name": "id",
          "type": "uint256"
        },
        {
          "indexed": false,
          "internalType": "address",
          "name": "winningOutcome",
          "type": "address"
        },
        {
          "indexed": false,
          "internalType": "uint256",
          "name": "winningIndex",
          "type": "uint256"
        },
        {
          "indexed": false,
          "internalType": "string",
          "name": "winningName",
          "type": "string"
        },
        {
          "indexed": false,
          "internalType": "uint256",
          "name": "amount",
          "type": "uint256"
        },
        {
          "indexed": false,
          "internalType": "uint256",
          "name": "settlementFee",
          "type": "uint256"
        },
        {
          "indexed": false,
          "internalType": "uint256",
          "name": "payout",
          "type": "uint256"
        },
        {
          "indexed": true,
          "internalType": "address",
          "name": "receiver",
          "type": "address"
        }
      ],
      "name": "WinningsClaimed",
      "type": "event"
    },
    {
      "inputs": [],
      "name": "accumulatedProtocolFee",
      "outputs": [
        {
          "internalType": "uint256",
          "name": "",
          "type": "uint256"
        }
      ],
      "stateMutability": "view",
      "type": "function"
    },
    {
      "inputs": [
        {
          "internalType": "address",
          "name": "",
          "type": "address"
        }
      ],
      "name": "accumulatedSettlementFees",
      "outputs": [
        {
          "internalType": "uint256",
          "name": "",
          "type": "uint256"
        }
      ],
      "stateMutability": "view",
      "type": "function"
    },
    {
      "inputs": [
        {
          "internalType": "uint256",
          "name": "_id",
          "type": "uint256"
        },
        {
          "internalType": "uint256",
          "name": "_sharesToBurn",
          "type": "uint256"
        },
        {
          "internalType": "address",
          "name": "_receiver",
          "type": "address"
        }
      ],
      "name": "burnShares",
      "outputs": [
        {
          "internalType": "uint256",
          "name": "",
          "type": "uint256"
        }
      ],
      "stateMutability": "nonpayable",
      "type": "function"
    },
    {
      "inputs": [
        {
          "internalType": "uint256",
          "name": "_shares",
          "type": "uint256"
        }
      ],
      "name": "calcCost",
      "outputs": [
        {
          "internalType": "uint256",
          "name": "",
          "type": "uint256"
        }
      ],
      "stateMutability": "view",
      "type": "function"
    },
    {
      "inputs": [
        {
          "internalType": "uint256",
          "name": "_collateralIn",
          "type": "uint256"
        }
      ],
      "name": "calcShares",
      "outputs": [
        {
          "internalType": "uint256",
          "name": "",
          "type": "uint256"
        }
      ],
      "stateMutability": "view",
      "type": "function"
    },
    {
      "inputs": [
        {
          "internalType": "uint256[]",
          "name": "_ids",
          "type": "uint256[]"
        },
        {
          "internalType": "address",
          "name": "_receiver",
          "type": "address"
        }
      ],
      "name": "claimManyWinnings",
      "outputs": [
        {
          "internalType": "uint256",
          "name": "",
          "type": "uint256"
        }
      ],
      "stateMutability": "nonpayable",
      "type": "function"
    },
    {
      "inputs": [],
      "name": "claimProtocolFees",
      "outputs": [
        {
          "internalType": "uint256",
          "name": "",
          "type": "uint256"
        }
      ],
      "stateMutability": "nonpayable",
      "type": "function"
    },
    {
      "inputs": [
        {
          "internalType": "address",
          "name": "_receiver",
          "type": "address"
        }
      ],
      "name": "claimSettlementFees",
      "outputs": [
        {
          "internalType": "uint256",
          "name": "",
          "type": "uint256"
        }
      ],
      "stateMutability": "nonpayable",
      "type": "function"
    },
    {
      "inputs": [
        {
          "internalType": "uint256",
          "name": "_id",
          "type": "uint256"
        },
        {
          "internalType": "address",
          "name": "_receiver",
          "type": "address"
        }
      ],
      "name": "claimWinnings",
      "outputs": [
        {
          "internalType": "uint256",
          "name": "",
          "type": "uint256"
        }
      ],
      "stateMutability": "nonpayable",
      "type": "function"
    },
    {
      "inputs": [],
      "name": "collateral",
      "outputs": [
        {
          "internalType": "contract IERC20Full",
          "name": "",
          "type": "address"
        }
      ],
      "stateMutability": "view",
      "type": "function"
    },
    {
      "inputs": [
        {
          "internalType": "uint256",
          "name": "_eventId",
          "type": "uint256"
        },
        {
          "internalType": "string",
          "name": "_homeTeamName",
          "type": "string"
        },
        {
          "internalType": "uint256",
          "name": "_homeTeamId",
          "type": "uint256"
        },
        {
          "internalType": "string",
          "name": "_awayTeamName",
          "type": "string"
        },
        {
          "internalType": "uint256",
          "name": "_awayTeamId",
          "type": "uint256"
        },
        {
          "internalType": "uint256",
          "name": "_startTimestamp",
          "type": "uint256"
        },
        {
          "internalType": "int256[2]",
          "name": "_moneylines",
          "type": "int256[2]"
        }
      ],
      "name": "createEvent",
      "outputs": [
        {
          "internalType": "uint256[]",
          "name": "_marketIds",
          "type": "uint256[]"
        }
      ],
      "stateMutability": "nonpayable",
      "type": "function"
    },
    {
      "inputs": [],
      "name": "eventCount",
      "outputs": [
        {
          "internalType": "uint256",
          "name": "",
          "type": "uint256"
        }
      ],
      "stateMutability": "view",
      "type": "function"
    },
    {
      "inputs": [],
      "name": "feePot",
      "outputs": [
        {
          "internalType": "contract FeePot",
          "name": "",
          "type": "address"
        }
      ],
      "stateMutability": "view",
      "type": "function"
    },
    {
      "inputs": [
        {
          "internalType": "uint256",
          "name": "_eventId",
          "type": "uint256"
        }
      ],
      "name": "getEventMarkets",
      "outputs": [
        {
          "internalType": "uint256[]",
          "name": "_markets",
          "type": "uint256[]"
        }
      ],
      "stateMutability": "view",
      "type": "function"
    },
    {
      "inputs": [
        {
          "internalType": "uint256",
          "name": "_id",
          "type": "uint256"
        }
      ],
      "name": "getMarket",
      "outputs": [
        {
          "components": [
            {
              "internalType": "address",
              "name": "settlementAddress",
              "type": "address"
            },
            {
              "internalType": "contract OwnedERC20[]",
              "name": "shareTokens",
              "type": "address[]"
            },
            {
              "internalType": "contract OwnedERC20",
              "name": "winner",
              "type": "address"
            },
            {
              "internalType": "uint256",
              "name": "winnerIndex",
              "type": "uint256"
            },
            {
              "internalType": "uint256",
              "name": "settlementFee",
              "type": "uint256"
            },
            {
              "internalType": "uint256",
              "name": "protocolFee",
              "type": "uint256"
            },
            {
              "internalType": "uint256",
              "name": "stakerFee",
              "type": "uint256"
            },
            {
              "internalType": "uint256",
              "name": "creationTimestamp",
              "type": "uint256"
            },
            {
              "internalType": "uint256[]",
              "name": "initialOdds",
              "type": "uint256[]"
            },
            {
              "internalType": "bool",
              "name": "active",
              "type": "bool"
            }
          ],
          "internalType": "struct AbstractMarketFactoryV3.Market",
          "name": "",
          "type": "tuple"
        }
      ],
      "stateMutability": "view",
      "type": "function"
    },
    {
      "inputs": [],
      "name": "getOwner",
      "outputs": [
        {
          "internalType": "address",
          "name": "",
          "type": "address"
        }
      ],
      "stateMutability": "view",
      "type": "function"
    },
    {
      "inputs": [
        {
          "internalType": "uint256",
          "name": "_eventId",
          "type": "uint256"
        }
      ],
      "name": "getSportsEvent",
      "outputs": [
        {
          "components": [
            {
              "internalType": "enum Sport.SportsEventStatus",
              "name": "status",
              "type": "uint8"
            },
            {
              "internalType": "uint256[]",
              "name": "markets",
              "type": "uint256[]"
            },
            {
              "internalType": "int256[]",
              "name": "lines",
              "type": "int256[]"
            },
            {
              "internalType": "uint256",
              "name": "estimatedStartTime",
              "type": "uint256"
            },
            {
              "internalType": "uint256",
              "name": "homeTeamId",
              "type": "uint256"
            },
            {
              "internalType": "uint256",
              "name": "awayTeamId",
              "type": "uint256"
            },
            {
              "internalType": "string",
              "name": "homeTeamName",
              "type": "string"
            },
            {
              "internalType": "string",
              "name": "awayTeamName",
              "type": "string"
            },
            {
              "internalType": "uint256",
              "name": "homeScore",
              "type": "uint256"
            },
            {
              "internalType": "uint256",
              "name": "awayScore",
              "type": "uint256"
            }
          ],
          "internalType": "struct Sport.SportsEvent",
          "name": "",
          "type": "tuple"
        }
      ],
      "stateMutability": "view",
      "type": "function"
    },
    {
      "inputs": [
        {
          "internalType": "uint256",
          "name": "_index",
          "type": "uint256"
        }
      ],
      "name": "getSportsEventByIndex",
      "outputs": [
        {
          "components": [
            {
              "internalType": "enum Sport.SportsEventStatus",
              "name": "status",
              "type": "uint8"
            },
            {
              "internalType": "uint256[]",
              "name": "markets",
              "type": "uint256[]"
            },
            {
              "internalType": "int256[]",
              "name": "lines",
              "type": "int256[]"
            },
            {
              "internalType": "uint256",
              "name": "estimatedStartTime",
              "type": "uint256"
            },
            {
              "internalType": "uint256",
              "name": "homeTeamId",
              "type": "uint256"
            },
            {
              "internalType": "uint256",
              "name": "awayTeamId",
              "type": "uint256"
            },
            {
              "internalType": "string",
              "name": "homeTeamName",
              "type": "string"
            },
            {
              "internalType": "string",
              "name": "awayTeamName",
              "type": "string"
            },
            {
              "internalType": "uint256",
              "name": "homeScore",
              "type": "uint256"
            },
            {
              "internalType": "uint256",
              "name": "awayScore",
              "type": "uint256"
            }
          ],
          "internalType": "struct Sport.SportsEvent",
          "name": "_event",
          "type": "tuple"
        },
        {
          "internalType": "uint256",
          "name": "_eventId",
          "type": "uint256"
        }
      ],
      "stateMutability": "view",
      "type": "function"
    },
    {
      "inputs": [],
      "name": "getVersion",
      "outputs": [
        {
          "internalType": "string",
          "name": "",
          "type": "string"
        }
      ],
      "stateMutability": "view",
      "type": "function"
    },
    {
      "inputs": [
        {
          "internalType": "uint256",
          "name": "_id",
          "type": "uint256"
        }
      ],
      "name": "isMarketResolved",
      "outputs": [
        {
          "internalType": "bool",
          "name": "",
          "type": "bool"
        }
      ],
      "stateMutability": "view",
      "type": "function"
    },
    {
      "inputs": [],
      "name": "linkNode",
      "outputs": [
        {
          "internalType": "address",
          "name": "",
          "type": "address"
        }
      ],
      "stateMutability": "view",
      "type": "function"
    },
    {
      "inputs": [
        {
          "internalType": "uint256",
          "name": "",
          "type": "uint256"
        }
      ],
      "name": "listOfSportsEvents",
      "outputs": [
        {
          "internalType": "uint256",
          "name": "",
          "type": "uint256"
        }
      ],
      "stateMutability": "view",
      "type": "function"
    },
    {
      "inputs": [],
      "name": "listResolvableEvents",
      "outputs": [
        {
          "internalType": "uint256[]",
          "name": "",
          "type": "uint256[]"
        }
      ],
      "stateMutability": "view",
      "type": "function"
    },
    {
      "inputs": [],
      "name": "marketCount",
      "outputs": [
        {
          "internalType": "uint256",
          "name": "",
          "type": "uint256"
        }
      ],
      "stateMutability": "view",
      "type": "function"
    },
    {
      "inputs": [
        {
          "internalType": "uint256",
          "name": "_id",
          "type": "uint256"
        },
        {
          "internalType": "uint256",
          "name": "_shareToMint",
          "type": "uint256"
        },
        {
          "internalType": "address",
          "name": "_receiver",
          "type": "address"
        }
      ],
      "name": "mintShares",
      "outputs": [],
      "stateMutability": "nonpayable",
      "type": "function"
    },
    {
      "inputs": [],
      "name": "protocol",
      "outputs": [
        {
          "internalType": "address",
          "name": "",
          "type": "address"
        }
      ],
      "stateMutability": "view",
      "type": "function"
    },
    {
      "inputs": [],
      "name": "protocolFee",
      "outputs": [
        {
          "internalType": "uint256",
          "name": "",
          "type": "uint256"
        }
      ],
      "stateMutability": "view",
      "type": "function"
    },
    {
      "inputs": [
        {
          "internalType": "uint256",
          "name": "_eventId",
          "type": "uint256"
        },
        {
          "internalType": "enum Sport.SportsEventStatus",
          "name": "_eventStatus",
          "type": "uint8"
        },
        {
          "internalType": "uint256",
          "name": "_homeTeamId",
          "type": "uint256"
        },
        {
          "internalType": "uint256",
          "name": "_awayTeamId",
          "type": "uint256"
        },
        {
          "internalType": "uint256",
          "name": "_whoWon",
          "type": "uint256"
        }
      ],
      "name": "resolveEvent",
      "outputs": [],
      "stateMutability": "nonpayable",
      "type": "function"
    },
    {
      "inputs": [
        {
          "internalType": "address",
          "name": "_newLinkNode",
          "type": "address"
        }
      ],
      "name": "setLinkNode",
      "outputs": [],
      "stateMutability": "nonpayable",
      "type": "function"
    },
    {
      "inputs": [
        {
          "internalType": "address",
          "name": "_newProtocol",
          "type": "address"
        },
        {
          "internalType": "bool",
          "name": "_claimFirst",
          "type": "bool"
        }
      ],
      "name": "setProtocol",
      "outputs": [],
      "stateMutability": "nonpayable",
      "type": "function"
    },
    {
      "inputs": [
        {
          "internalType": "uint256",
          "name": "_newFee",
          "type": "uint256"
        }
      ],
      "name": "setProtocolFee",
      "outputs": [],
      "stateMutability": "nonpayable",
      "type": "function"
    },
    {
      "inputs": [
        {
          "internalType": "uint256",
          "name": "_newFee",
          "type": "uint256"
        }
      ],
      "name": "setSettlementFee",
      "outputs": [],
      "stateMutability": "nonpayable",
      "type": "function"
    },
    {
      "inputs": [
        {
          "internalType": "uint256",
          "name": "_newFee",
          "type": "uint256"
        }
      ],
      "name": "setStakerFee",
      "outputs": [],
      "stateMutability": "nonpayable",
      "type": "function"
    },
    {
      "inputs": [],
      "name": "settlementFee",
      "outputs": [
        {
          "internalType": "uint256",
          "name": "",
          "type": "uint256"
        }
      ],
      "stateMutability": "view",
      "type": "function"
    },
    {
      "inputs": [],
      "name": "shareFactor",
      "outputs": [
        {
          "internalType": "uint256",
          "name": "",
          "type": "uint256"
        }
      ],
      "stateMutability": "view",
      "type": "function"
    },
    {
      "inputs": [
        {
          "internalType": "uint256",
          "name": "",
          "type": "uint256"
        }
      ],
      "name": "sportsEvents",
      "outputs": [
        {
          "internalType": "enum Sport.SportsEventStatus",
          "name": "status",
          "type": "uint8"
        },
        {
          "internalType": "uint256",
          "name": "estimatedStartTime",
          "type": "uint256"
        },
        {
          "internalType": "uint256",
          "name": "homeTeamId",
          "type": "uint256"
        },
        {
          "internalType": "uint256",
          "name": "awayTeamId",
          "type": "uint256"
        },
        {
          "internalType": "string",
          "name": "homeTeamName",
          "type": "string"
        },
        {
          "internalType": "string",
          "name": "awayTeamName",
          "type": "string"
        },
        {
          "internalType": "uint256",
          "name": "homeScore",
          "type": "uint256"
        },
        {
          "internalType": "uint256",
          "name": "awayScore",
          "type": "uint256"
        }
      ],
      "stateMutability": "view",
      "type": "function"
    },
    {
      "inputs": [],
      "name": "stakerFee",
      "outputs": [
        {
          "internalType": "uint256",
          "name": "",
          "type": "uint256"
        }
      ],
      "stateMutability": "view",
      "type": "function"
    },
    {
      "inputs": [
        {
          "internalType": "address",
          "name": "_newOwner",
          "type": "address"
        }
      ],
      "name": "transferOwnership",
      "outputs": [
        {
          "internalType": "bool",
          "name": "",
          "type": "bool"
        }
      ],
      "stateMutability": "nonpayable",
      "type": "function"
    }
  ],
  "transactionHash": "0x532d0291b5265f60e52f77cd2bc5321d175780773228505c5cd17b2957c3dc2e",
  "args": [
    "0x8C9c733eCd48426b9c53c38ccB60F3b307329bE1",
    "0x5799bFe361BEea69f808328FF4884DF92f1f66f0",
    "1000000000000",
    "0x59DdFE9961e050bdA1ed9bf9CCD009948036Dd76",
    [
      0,
      "500000000000000",
      0
    ],
    "0x8C9c733eCd48426b9c53c38ccB60F3b307329bE1",
    "0x8C9c733eCd48426b9c53c38ccB60F3b307329bE1"
  ],
  "solcInputHash": "aca05386cf7c6364525ad9f99dc56a7b",
  "bytecode": "0x608060405260006007553480156200001657600080fd5b506040516200555a3803806200555a833981016040819052620000399162000512565b6040805180820182526006815265076312e322e360d41b602080830191909152825180840190935260118352704e6f20436f6e74657374202f204472617760781b90830152600080546001600160a01b03808c166001600160a01b03199283163317831617835560018054828d1690841617905560098a905560028054918a16919092161790559091838a8a8a8a8a8a8189602002015160035581600160200201516004558160026020020151600555600680546001600160a01b0319166001600160a01b038381169190911790915560405163095ea7b360e01b81529086169063095ea7b39062000134908690600019906004016200062e565b602060405180830381600087803b1580156200014f57600080fd5b505af115801562000164573d6000803e3d6000fd5b505050506040513d601f19601f820116820180604052508101906200018a919062000605565b50600a62000197620002ea565b81546001808201845560009384526020938490208351600a9093020180546001600160a01b0319166001600160a01b0390931692909217825582840151805193949293620001ee9392850192919091019062000358565b5060408201516002820180546001600160a01b0319166001600160a01b03909216919091179055606082015160038201556080820151600482015560a0820151600582015560c0820151600682015560e08201516007820155610100820151805162000265916008840191602090910190620003c2565b5061012091909101516009909101805460ff19169115159190911790555050600d80546001600160a01b0319166001600160a01b039690961695909517909455505050600e839055508051620002c390600f90602084019062000400565b50508151620002db9150601090602084019062000400565b50505050505050505062000660565b620002f462000482565b506040805160008082526020820181815261018083018452928201818152606083018390526080830182905260a0830182905260c0830182905260e08301829052610100830182905261012083018290526101408301939093526101609091015290565b828054828255906000526020600020908101928215620003b0579160200282015b82811115620003b057825182546001600160a01b0319166001600160a01b0390911617825560209092019160019091019062000379565b50620003be929150620004e9565b5090565b828054828255906000526020600020908101928215620003b0579160200282015b82811115620003b0578251825591602001919060010190620003e3565b828054600181600116156101000203166002900490600052602060002090601f016020900481019282620004385760008555620003b0565b82601f106200045357805160ff1916838001178555620003b0565b82800160010185558215620003b05791820182811115620003b0578251825591602001919060010190620003e3565b60405180610140016040528060006001600160a01b031681526020016060815260200160006001600160a01b031681526020016000815260200160008152602001600081526020016000815260200160008152602001606081526020016000151581525090565b5b80821115620003be5760008155600101620004ea565b80516200050d8162000647565b919050565b6000806000806000806000610120888a0312156200052e578283fd5b87516200053b8162000647565b80975050602080890151620005508162000647565b60408a015160608b015191985096506200056a8162000647565b9450609f89018a136200057b578384fd5b604051606081016001600160401b03811182821017156200059857fe5b6040528060808b0160e08c018d811115620005b1578788fd5b875b6003811015620005d257825184529285019291850191600101620005b3565b50839750620005e18162000500565b96505050505050620005f7610100890162000500565b905092959891949750929550565b60006020828403121562000617578081fd5b8151801515811462000627578182fd5b9392505050565b6001600160a01b03929092168252602082015260400190565b6001600160a01b03811681146200065d57600080fd5b50565b614eea80620006706000396000f3fe60806040523480156200001157600080fd5b5060043610620002685760003560e01c806397eef187116200014d578063d5da4f1d11620000c9578063eb44fdd31162000087578063eb44fdd31462000529578063ec979082146200054f578063f2fde38b1462000559578063f563c99a1462000570578063fedf6cb114620005975762000268565b8063d5da4f1d14620004c3578063d8dfeb4514620004da578063dd0f961814620004e4578063e2c30b1514620004fb578063e5678dfa14620005125762000268565b8063b0e21e8a1162000117578063b0e21e8a1462000454578063cb68b0d8146200045e578063cc87adea146200048b578063cdaac86214620004a2578063d4b6838e14620004b95762000268565b806397eef1871462000405578063992c9079146200041c5780639c4935691462000433578063a544a62c146200044a5762000268565b80634c9f66c711620001e9578063787dce3d11620001a7578063787dce3d14620003b95780637d1d7fb814620003d0578063893d20e814620003da5780638ce7442614620003e45780638e0ed19314620003ee5762000268565b80634c9f66c7146200034057806353ac55f51462000359578063671eb698146200037f57806371be2e4a14620003a55780637641ab0114620003af5762000268565b8063473a6d521162000237578063473a6d5214620002e557806349a4d93414620002fc5780634a7d036914620003135780634a875e0b146200031d5780634b2d9ffc14620003365762000268565b80630d8e6e2c146200026d578063221fff81146200028f57806332ecabe914620002a857806335a9cdad14620002bf575b600080fd5b62000277620005ae565b6040516200028691906200391b565b60405180910390f35b620002a6620002a036600462003689565b62000648565b005b620002a6620002b93660046200334b565b6200096b565b620002d6620002d036600462003689565b620009b9565b60405162000286919062003a98565b620002d6620002f6366004620034df565b62000de8565b620002d66200030d3660046200332e565b62000e26565b620002d662000e38565b6200032762000f02565b60405162000286919062003896565b620002d662000fd9565b6200034a62000fdf565b60405162000286919062003845565b620003706200036a366004620034df565b62000fee565b604051620002869190620038ab565b6200039662000390366004620034df565b6200116e565b60405162000286919062003a5f565b620002d6620013e0565b620002d6620013e6565b620002a6620003ca366004620034df565b620013ec565b620002d662001409565b6200034a6200140f565b6200034a6200141e565b620002d6620003ff3660046200332e565b6200142d565b620002a662000416366004620034df565b620014e9565b620002d66200042d36600462003511565b62001506565b62000327620004443660046200358b565b6200191e565b620002d662001997565b620002d66200199d565b620004756200046f366004620034df565b620019a3565b60405162000286989796959493929190620038b6565b620002d66200049c366004620034df565b62001b09565b62000327620004b3366004620034df565b62001b10565b6200034a62001bba565b620002a6620004d4366004620034df565b62001bc9565b6200034a62001be6565b620002a6620004f53660046200353f565b62001bf5565b620002a66200050c3660046200332e565b62002165565b620002d66200052336600462003386565b620021d1565b620005406200053a366004620034df565b6200221f565b6040516200028691906200399d565b620002d6620023b4565b620003706200056a3660046200332e565b620023ba565b6200058762000581366004620034df565b62002424565b6040516200028692919062003a74565b620002d6620005a8366004620034df565b6200245d565b60108054604080516020601f60026000196101006001881615020190951694909404938401819004810282018101909252828152606093909290918301828280156200063e5780601f1062000612576101008083540402835291602001916200063e565b820191906000526020600020905b8154815290600101906020018083116200062057829003601f168201915b5050505050905090565b600a5483106200065757600080fd5b600a83815481106200066557fe5b600091825260209091206009600a90920201015460ff166200068657600080fd5b6000620006938362000de8565b6001546040516323b872dd60e01b81529192506001600160a01b0316906323b872dd90620006ca9033903090869060040162003859565b602060405180830381600087803b158015620006e557600080fd5b505af1158015620006fa573d6000803e3d6000fd5b505050506040513d601f19601f8201168201806040525081019062000720919062003444565b506000600a85815481106200073157fe5b60009182526020918290206040805161014081018252600a90930290910180546001600160a01b03168352600181018054835181870281018701909452808452939491938583019392830182828015620007b557602002820191906000526020600020905b81546001600160a01b0316815260019091019060200180831162000796575b505050505081526020016002820160009054906101000a90046001600160a01b03166001600160a01b03166001600160a01b031681526020016003820154815260200160048201548152602001600582015481526020016006820154815260200160078201548152602001600882018054806020026020016040519081016040528092919081815260200182805480156200087057602002820191906000526020600020905b8154815260200190600101908083116200085b575b50505091835250506009919091015460ff161515602090910152905060005b816020015151811015620009265781602001518181518110620008ae57fe5b60200260200101516001600160a01b031663c024cd2685876040518363ffffffff1660e01b8152600401620008e59291906200387d565b600060405180830381600087803b1580156200090057600080fd5b505af115801562000915573d6000803e3d6000fd5b5050600190920191506200088f9050565b507fd81c0442e10068a9818f3aa093c9ccb804584690df572d7df3da2d892a6973f28585856040516200095c9392919062003c15565b60405180910390a15050505050565b6000546001600160a01b031633146200098357600080fd5b801562000996576200099462000e38565b505b50600680546001600160a01b0319166001600160a01b0392909216919091179055565b600a546000908410620009cb57600080fd5b600a8481548110620009d957fe5b600091825260209091206009600a90920201015460ff16620009fa57600080fd5b6000600a858154811062000a0a57fe5b60009182526020918290206040805161014081018252600a90930290910180546001600160a01b0316835260018101805483518187028101870190945280845293949193858301939283018282801562000a8e57602002820191906000526020600020905b81546001600160a01b0316815260019091019060200180831162000a6f575b505050505081526020016002820160009054906101000a90046001600160a01b03166001600160a01b03166001600160a01b0316815260200160038201548152602001600482015481526020016005820154815260200160068201548152602001600782015481526020016008820180548060200260200160405190810160405280929190818152602001828054801562000b4957602002820191906000526020600020905b81548152602001906001019080831162000b34575b50505091835250506009919091015460ff161515602090910152905060005b81602001515181101562000bff578160200151818151811062000b8757fe5b60200260200101516001600160a01b03166342986e1333876040518363ffffffff1660e01b815260040162000bbe9291906200387d565b600060405180830381600087803b15801562000bd957600080fd5b505af115801562000bee573d6000803e3d6000fd5b50506001909201915062000b689050565b50600062000c0d8562000de8565b9050600062000c3e670de0b6b3a764000062000c378560a00151856200247f90919063ffffffff16565b90620024b1565b9050600062000c68670de0b6b3a764000062000c378660c00151866200247f90919063ffffffff16565b905062000c828162000c7b8585620024c7565b90620024c7565b600780548401905560015460405163a9059cbb60e01b81529194506001600160a01b03169063a9059cbb9062000cbf90899087906004016200387d565b602060405180830381600087803b15801562000cda57600080fd5b505af115801562000cef573d6000803e3d6000fd5b505050506040513d601f19601f8201168201806040525081019062000d15919062003444565b50600254604051630ebdac0960e41b81526001600160a01b039091169063ebdac0909062000d4890849060040162003a98565b602060405180830381600087803b15801562000d6357600080fd5b505af115801562000d78573d6000803e3d6000fd5b505050506040513d601f19601f8201168201806040525081019062000d9e919062003444565b507fb6fdb729b2ed801daf629f0ab713e4a7a73619505790f6f27fd92d6f2c9688d788883360405162000dd49392919062003c15565b60405180910390a150909695505050505050565b6000600954821015801562000e075750600954828162000e0457fe5b06155b62000e1157600080fd5b600954828162000e1d57fe5b0490505b919050565b60086020526000908152604090205481565b6006546000906001600160a01b031633148062000e5457503330145b62000e5e57600080fd5b600754801562000efd57600060075560015460065460405163a9059cbb60e01b81526001600160a01b039283169263a9059cbb9262000ea59291169085906004016200387d565b602060405180830381600087803b15801562000ec057600080fd5b505af115801562000ed5573d6000803e3d6000fd5b505050506040513d601f19601f8201168201806040525081019062000efb919062003444565b505b905090565b6060600062000f10620024dd565b905060008167ffffffffffffffff8111801562000f2c57600080fd5b5060405190808252806020026020018201604052801562000f57578160200160208202803683370190505b5090506000805b600c5481101562000fd0578382111562000f785762000fd0565b6000600c828154811062000f8857fe5b9060005260206000200154905062000fa0816200252c565b1562000fc6578084848151811062000fb457fe5b60209081029190910101526001909201915b5060010162000f5e565b50909250505090565b60035481565b6002546001600160a01b031681565b600080600a838154811062000fff57fe5b60009182526020918290206040805161014081018252600a90930290910180546001600160a01b031683526001810180548351818702810187019094528084529394919385830193928301828280156200108357602002820191906000526020600020905b81546001600160a01b0316815260019091019060200180831162001064575b505050505081526020016002820160009054906101000a90046001600160a01b03166001600160a01b03166001600160a01b031681526020016003820154815260200160048201548152602001600582015481526020016006820154815260200160078201548152602001600882018054806020026020016040519081016040528092919081815260200182805480156200113e57602002820191906000526020600020905b81548152602001906001019080831162001129575b50505091835250506009919091015460ff161515602090910152604001516001600160a01b031615159392505050565b62001178620030b5565b6000828152600b602052604090819020815161014081019092528054829060ff166004811115620011a557fe5b6004811115620011b157fe5b8152602001600182018054806020026020016040519081016040528092919081815260200182805480156200120657602002820191906000526020600020905b815481526020019060010190808311620011f1575b50505050508152602001600282018054806020026020016040519081016040528092919081815260200182805480156200126057602002820191906000526020600020905b8154815260200190600101908083116200124b575b50505050508152602001600382015481526020016004820154815260200160058201548152602001600682018054600181600116156101000203166002900480601f016020809104026020016040519081016040528092919081815260200182805460018160011615610100020316600290048015620013245780601f10620012f85761010080835404028352916020019162001324565b820191906000526020600020905b8154815290600101906020018083116200130657829003601f168201915b505050918352505060078201805460408051602060026001851615610100026000190190941693909304601f8101849004840282018401909252818152938201939291830182828015620013bc5780601f106200139057610100808354040283529160200191620013bc565b820191906000526020600020905b8154815290600101906020018083116200139e57829003601f168201915b50505050508152602001600882015481526020016009820154815250509050919050565b600c5490565b60095481565b6000546001600160a01b031633146200140457600080fd5b600555565b60045481565b6000546001600160a01b031690565b6006546001600160a01b031681565b336000908152600860205260408120548015620014e3573360009081526008602052604080822091909155600154905163a9059cbb60e01b81526001600160a01b039091169063a9059cbb906200148b90869085906004016200387d565b602060405180830381600087803b158015620014a657600080fd5b505af1158015620014bb573d6000803e3d6000fd5b505050506040513d601f19601f82011682018060405250810190620014e1919062003444565b505b92915050565b6000546001600160a01b031633146200150157600080fd5b600355565b6000620015138362000fee565b6200153b5760405162461bcd60e51b8152600401620015329062003972565b60405180910390fd5b6000600a84815481106200154b57fe5b60009182526020918290206040805161014081018252600a90930290910180546001600160a01b03168352600181018054835181870281018701909452808452939491938583019392830182828015620015cf57602002820191906000526020600020905b81546001600160a01b03168152600190910190602001808311620015b0575b505050505081526020016002820160009054906101000a90046001600160a01b03166001600160a01b03166001600160a01b031681526020016003820154815260200160048201548152602001600582015481526020016006820154815260200160078201548152602001600882018054806020026020016040519081016040528092919081815260200182805480156200168a57602002820191906000526020600020905b81548152602001906001019080831162001675575b50505091835250506009919091015460ff1615156020909101526040808201519051631c4a5de160e21b81529192506000916001600160a01b0390911690637129778490620016de90339060040162003845565b602060405180830381600087803b158015620016f957600080fd5b505af11580156200170e573d6000803e3d6000fd5b505050506040513d601f19601f82011682018060405250810190620017349190620034f8565b905060095460095482816200174557fe5b040290506000620017568262000de8565b9050600062001780670de0b6b3a764000062000c378660800151856200247f90919063ffffffff16565b90506200178e8282620024c7565b84516001600160a01b0390811660009081526008602052604090819020805485019055600154905163a9059cbb60e01b8152929450169063a9059cbb90620017dd90899086906004016200387d565b602060405180830381600087803b158015620017f857600080fd5b505af11580156200180d573d6000803e3d6000fd5b505050506040513d601f19601f8201168201806040525081019062001833919062003444565b50600084606001519050600085604001516001600160a01b03166306fdde036040518163ffffffff1660e01b815260040160006040518083038186803b1580156200187d57600080fd5b505afa15801562001892573d6000803e3d6000fd5b505050506040513d6000823e601f3d908101601f19168201604052620018bc919081019062003463565b9050876001600160a01b03167f76ea0c89f1eef8b1ac3908910bbe5ee5120ff997f6b3bcc900659973e6a2ff128a886040015185858a898b60405162001909979695949392919062003ad0565b60405180910390a25091979650505050505050565b600d546060906001600160a01b031633146200193957600080fd5b6000888152600b602052604081205460ff1660048111156200195757fe5b146200196257600080fd5b6200196f82888762002598565b90506200198c888262001981620025e8565b868a898d8c6200260d565b979650505050505050565b60075481565b60055481565b600b6020908152600091825260409182902080546003820154600483015460058401546006850180548851601f6002600019600185161561010002019093169290920491820189900489028101890190995280895260ff9095169793969295919491939290919083018282801562001a5f5780601f1062001a335761010080835404028352916020019162001a5f565b820191906000526020600020905b81548152906001019060200180831162001a4157829003601f168201915b5050505060078301805460408051602060026001851615610100026000190190941693909304601f810184900484028201840190925281815294959493509083018282801562001af35780601f1062001ac75761010080835404028352916020019162001af3565b820191906000526020600020905b81548152906001019060200180831162001ad557829003601f168201915b5050505050908060080154908060090154905088565b6009540290565b6000818152600b602052604090206001018054606091908067ffffffffffffffff8111801562001b3f57600080fd5b5060405190808252806020026020018201604052801562001b6a578160200160208202803683370190505b50925060005b8181101562001bb25782818154811062001b8657fe5b906000526020600020015484828151811062001b9e57fe5b602090810291909101015260010162001b70565b505050919050565b600d546001600160a01b031681565b6000546001600160a01b0316331462001be157600080fd5b600455565b6001546001600160a01b031681565b600d546001600160a01b0316331462001c0d57600080fd5b6000858152600b602052604090206001815460ff16600481111562001c2e57fe5b1462001c3957600080fd5b600185600481111562001c4857fe5b141562001c5457600080fd5b604080516101408101909152815462001eb991908390829060ff16600481111562001c7b57fe5b600481111562001c8757fe5b81526020016001820180548060200260200160405190810160405280929190818152602001828054801562001cdc57602002820191906000526020600020905b81548152602001906001019080831162001cc7575b505050505081526020016002820180548060200260200160405190810160405280929190818152602001828054801562001d3657602002820191906000526020600020905b81548152602001906001019080831162001d21575b50505050508152602001600382015481526020016004820154815260200160058201548152602001600682018054600181600116156101000203166002900480601f01602080910402602001604051908101604052809291908181526020018280546001816001161561010002031660029004801562001dfa5780601f1062001dce5761010080835404028352916020019162001dfa565b820191906000526020600020905b81548152906001019060200180831162001ddc57829003601f168201915b505050918352505060078201805460408051602060026001851615610100026000190190941693909304601f810184900484028201840190925281815293820193929183018282801562001e925780601f1062001e665761010080835404028352916020019162001e92565b820191906000526020600020905b81548152906001019060200180831162001e7457829003601f168201915b5050505050815260200160088201548152602001600982015481525050868686866200274d565b1562001ed05762001eca86620027a5565b62002132565b60408051610140810190915281546200213291908390829060ff16600481111562001ef757fe5b600481111562001f0357fe5b81526020016001820180548060200260200160405190810160405280929190818152602001828054801562001f5857602002820191906000526020600020905b81548152602001906001019080831162001f43575b505050505081526020016002820180548060200260200160405190810160405280929190818152602001828054801562001fb257602002820191906000526020600020905b81548152602001906001019080831162001f9d575b50505050508152602001600382015481526020016004820154815260200160058201548152602001600682018054600181600116156101000203166002900480601f016020809104026020016040519081016040528092919081815260200182805460018160011615610100020316600290048015620020765780601f106200204a5761010080835404028352916020019162002076565b820191906000526020600020905b8154815290600101906020018083116200205857829003601f168201915b505050918352505060078201805460408051602060026001851615610100026000190190941693909304601f81018490048402820184019092528181529382019392918301828280156200210e5780601f10620020e2576101008083540402835291602001916200210e565b820191906000526020600020905b815481529060010190602001808311620020f057829003601f168201915b5050505050815260200160088201548152602001600982015481525050836200285b565b6000868152600b60205260409020805486919060ff191660018360048111156200215857fe5b0217905550505050505050565b6000546001600160a01b031633146200217d57600080fd5b600d80546001600160a01b0383166001600160a01b0319909116811790915560408051918252517f6b7517523482c8d89ffbc530829d5decd506cf6dc60874b11fa26c8a53bb9fa99181900360200190a150565b600080805b845181101562002217576200220c62002204868381518110620021f557fe5b60200260200101518662001506565b839062002884565b9150600101620021d6565b509392505050565b6200222962003109565b600a54821062002245576200223d62002897565b905062000e21565b600a82815481106200225357fe5b60009182526020918290206040805161014081018252600a90930290910180546001600160a01b03168352600181018054835181870281018701909452808452939491938583019392830182828015620022d757602002820191906000526020600020905b81546001600160a01b03168152600190910190602001808311620022b8575b505050505081526020016002820160009054906101000a90046001600160a01b03166001600160a01b03166001600160a01b031681526020016003820154815260200160048201548152602001600582015481526020016006820154815260200160078201548152602001600882018054806020026020016040519081016040528092919081815260200182805480156200239257602002820191906000526020600020905b8154815260200190600101908083116200237d575b50505091835250506009919091015460ff161515602090910152905062000e21565b600a5490565b600080546001600160a01b03163314620023d357600080fd5b6001600160a01b038216620023e757600080fd5b600054620023ff906001600160a01b03168362002880565b50600080546001600160a01b0383166001600160a01b03199091161790556001919050565b6200242e620030b5565b6000600c83815481106200243e57fe5b9060005260206000200154905062002456816200116e565b9150915091565b600c81815481106200246e57600080fd5b600091825260209091200154905081565b6000826200249057506000620014e3565b828202828482816200249e57fe5b0414620024aa57600080fd5b9392505050565b600080828481620024be57fe5b04949350505050565b600082821115620024d757600080fd5b50900390565b600080805b600c5481101562000efb576000600c8281548110620024fd57fe5b9060005260206000200154905062002515816200252c565b1562002522576001909201915b50600101620024e2565b6000806200253a8362001b10565b90506000805b8251811015620022175760008382815181106200255957fe5b60200260200101519050806000141580156200257d57506200257b8162000fee565b155b156200258e57600192505062002217565b5060010162002540565b60408051600180825281830190925260609160208083019080368337019050509050620025c784848462002905565b81600081518110620025d557fe5b6020026020010181815250509392505050565b6040805160018082528183019092526060916020808301908036833701905050905090565b600c805460018082019092557fdf6966c971051c3d54ec59162606531493a51404a002842f56009d7e5cf4a8c7018990556000898152600b60209081526040909120805460ff19168317815589516200266e9391909101918a019062003170565b506000888152600b602090815260409091208751620026969260029092019189019062003170565b506000888152600b602090815260409091206003810187905560048101869055600581018590558351620026d392600690920191850190620031c0565b506000888152600b602090815260409091208251620026fb92600790920191840190620031c0565b507f42827ef26132f4417fc4fed922669edd09d6ee5bd5d9f369a5c97c0ff57bea47888888878787878c6040516200273b98979695949392919062003b95565b60405180910390a15050505050505050565b6000600382148160028760048111156200276357fe5b60808a015160a08b015192909114159250871415908614158380620027855750825b806200278e5750815b80620027975750805b9a9950505050505050505050565b6000818152600b60209081526040808320600101805482518185028101850190935280835291929091908301828280156200280057602002820191906000526020600020905b815481526020019060010190808311620027eb575b5050505050905060005b8151811015620028565760008282815181106200282357fe5b6020026020010151905080600014156200283e57506200284d565b6200284b816000620029cd565b505b6001016200280a565b505050565b6200288082602001516000815181106200287157fe5b60200260200101518262002b77565b5050565b600082820183811015620024aa57600080fd5b620028a162003109565b506040805160008082526020820181815261018083018452928201818152606083018390526080830182905260a0830182905260c0830182905260e08301829052610100830182905261012083018290526101408301939093526101609091015290565b600f805460408051602060026001851615610100026000190190941693909304601f8101849004840282018401909252818152600093620029c59391929091830182828015620029995780601f106200296d5761010080835404028352916020019162002999565b820191906000526020600020905b8154815290600101906020018083116200297b57829003601f168201915b50505050508484620029bf88600160028110620029b257fe5b6020020151895162002b92565b62002c9c565b949350505050565b6000600a8381548110620029dd57fe5b90600052602060002090600a02016001018281548110620029fa57fe5b600091825260209091200154600a80546001600160a01b03909216925082918590811062002a2457fe5b90600052602060002090600a020160020160006101000a8154816001600160a01b0302191690836001600160a01b031602179055506000600a848154811062002a6957fe5b90600052602060002090600a020160090160006101000a81548160ff02191690831515021790555081600a848154811062002aa057fe5b90600052602060002090600a0201600301819055506000816001600160a01b03166306fdde036040518163ffffffff1660e01b815260040160006040518083038186803b15801562002af157600080fd5b505afa15801562002b06573d6000803e3d6000fd5b505050506040513d6000823e601f3d908101601f1916820160405262002b30919081019062003463565b90507f8008bbeee2e3c054e71d4965b4c22b41a2287cd6cc67c714bf918b538338be5f8483858460405162002b69949392919062003aa1565b60405180910390a150505050565b600062002b848262002cc7565b9050620028568382620029cd565b6060600062002ba18462002cf8565b9050600062002bb08462002cf8565b905081810162002bcf8162000c376802a802f8630a240000866200247f565b925062002beb8162000c376802a802f8630a240000856200247f565b9150670de0b6b3a764000083101562002c0357600080fd5b670de0b6b3a764000082101562002c1957600080fd5b604080516003808252608082019092529060208201606080368337019050509350670de0b6b3a76400008460008151811062002c5157fe5b602002602001018181525050828460018151811062002c6c57fe5b602002602001018181525050818460028151811062002c8757fe5b60200260200101818152505050505092915050565b60008062002cac86868662002d5a565b905062002cbd338285600162002ddf565b9695505050505050565b6000816001141562002cdc5750600262000e21565b816002141562002cef5750600162000e21565b50600062000e21565b60008082121562002d3757600082900362002d2e62002d1982606462002884565b62000c37836802a802f8630a2400006200247f565b91505062000e21565b6200223d62002d4883606462002884565b690109a12906aff610000090620024b1565b60408051600380825260808201909252606091816020015b606081526020019060019003908162002d72579050509050838160008151811062002d9957fe5b6020026020010181905250818160018151811062002db357fe5b6020026020010181905250828160028151811062002dcd57fe5b60200260200101819052509392505050565b600a80546040805161014081019091526001600160a01b03871681529091906020810162002e0e873062002fc0565b815260006020808301829052604083018290526004546060840152600554608084015260035460a08401524260c084015260e0830188905286151561010090930192909252835460018082018655948252908290208351600a9092020180546001600160a01b0319166001600160a01b039092169190911781558282015180519394919362002ea69392850192919091019062003242565b5060408201516002820180546001600160a01b0319166001600160a01b03909216919091179055606082015160038201556080820151600482015560a0820151600582015560c0820151600682015560e08201516007820155610100820151805162002f1d91600884019160209091019062003170565b5061012091909101516009909101805460ff19169115159190911790556040517f037fdac9e4b37ad8b184ce958d7b275e578c9e03d4cfbc51aa75de25fdb6bbec9062002f709083908790879062003b1e565b60405180910390a18115620029c5577fee570fee9d8debeedea533b8cdfde6b9d9995b915869d4d10d350e75a9bf0f888160405162002fb0919062003a98565b60405180910390a1949350505050565b815160609060008167ffffffffffffffff8111801562002fdf57600080fd5b506040519080825280602002602001820160405280156200300a578160200160208202803683370190505b50905060005b82811015620030ac578581815181106200302657fe5b60200260200101518682815181106200303b57fe5b60200260200101518660405162003052906200329a565b620030609392919062003930565b604051809103906000f0801580156200307d573d6000803e3d6000fd5b508282815181106200308b57fe5b6001600160a01b039092166020928302919091019091015260010162003010565b50949350505050565b60408051610140810190915280600081526020016060815260200160608152602001600081526020016000815260200160008152602001606081526020016060815260200160008152602001600081525090565b60405180610140016040528060006001600160a01b031681526020016060815260200160006001600160a01b031681526020016000815260200160008152602001600081526020016000815260200160008152602001606081526020016000151581525090565b828054828255906000526020600020908101928215620031ae579160200282015b82811115620031ae57825182559160200191906001019062003191565b50620031bc929150620032a8565b5090565b828054600181600116156101000203166002900490600052602060002090601f016020900481019282620031f85760008555620031ae565b82601f106200321357805160ff1916838001178555620031ae565b82800160010185558215620031ae5791820182811115620031ae57825182559160200191906001019062003191565b828054828255906000526020600020908101928215620031ae579160200282015b82811115620031ae57825182546001600160a01b0319166001600160a01b0390911617825560209092019160019091019062003263565b6111f38062003cc283390190565b5b80821115620031bc5760008155600101620032a9565b80356001600160a01b038116811462000e2157600080fd5b600082601f830112620032e8578081fd5b8135620032ff620032f98262003c59565b62003c34565b81815284602083860101111562003314578283fd5b816020850160208301379081016020019190915292915050565b60006020828403121562003340578081fd5b620024aa82620032bf565b600080604083850312156200335e578081fd5b6200336983620032bf565b915060208301356200337b8162003caf565b809150509250929050565b6000806040838503121562003399578182fd5b823567ffffffffffffffff80821115620033b1578384fd5b818501915085601f830112620033c5578384fd5b8135602082821115620033d457fe5b8082029250620033e681840162003c34565b8281528181019085830185870184018b101562003401578889fd5b8896505b848710156200342557803583526001969096019591830191830162003405565b509650620034379050878201620032bf565b9450505050509250929050565b60006020828403121562003456578081fd5b8151620024aa8162003caf565b60006020828403121562003475578081fd5b815167ffffffffffffffff8111156200348c578182fd5b8201601f810184136200349d578182fd5b8051620034ae620032f98262003c59565b818152856020838501011115620034c3578384fd5b620034d682602083016020860162003c7c565b95945050505050565b600060208284031215620034f1578081fd5b5035919050565b6000602082840312156200350a578081fd5b5051919050565b6000806040838503121562003524578182fd5b823591506200353660208401620032bf565b90509250929050565b600080600080600060a0868803121562003557578081fd5b853594506020860135600581106200356d578182fd5b94979496505050506040830135926060810135926080909101359150565b600080600080600080600061010080898b031215620035a8578586fd5b883597506020808a013567ffffffffffffffff80821115620035c8578889fd5b620035d68d838e01620032d7565b995060408c0135985060608c0135915080821115620035f3578586fd5b620036018d838e01620032d7565b975060808c0135965060a08c013595508c60df8d011262003620578485fd5b60405191506040820182811082821117156200363857fe5b604052508060c08c01848d018e101562003650578586fd5b8594505b60028510156200367557803582526001949094019390830190830162003654565b505080935050505092959891949750929550565b6000806000606084860312156200369e578081fd5b8335925060208401359150620036b760408501620032bf565b90509250925092565b6001600160a01b03169052565b6000815180845260208085019450808401835b83811015620037075781516001600160a01b031687529582019590820190600101620036e0565b509495945050505050565b6000815180845260208085019450808401835b83811015620037075781518752958201959082019060010162003725565b15159052565b600581106200375457fe5b9052565b600081518084526200377281602086016020860162003c7c565b601f01601f19169290920160200192915050565b60006101406200379884845162003749565b6020830151816020860152620037b18286018262003712565b91505060408301518482036040860152620037cd828262003712565b915050606083015160608501526080830151608085015260a083015160a085015260c083015184820360c086015262003807828262003758565b91505060e083015184820360e086015262003823828262003758565b6101008581015190870152610120948501519490950193909352509192915050565b6001600160a01b0391909116815260200190565b6001600160a01b039384168152919092166020820152604081019190915260600190565b6001600160a01b03929092168252602082015260400190565b600060208252620024aa602083018462003712565b901515815260200190565b6000610100620038c7838c62003749565b896020840152886040840152876060840152806080840152620038ed8184018862003758565b905082810360a084015262003903818762003758565b60c0840195909552505060e001529695505050505050565b600060208252620024aa602083018462003758565b60006060825262003945606083018662003758565b828103602084015262003959818662003758565b91505060018060a01b0383166040830152949350505050565b6020808252601190820152701b585c9ad95d081d5b9c995cdbdb1d9959607a1b604082015260600190565b600060208252620039b3602083018451620036c0565b6020830151610140806040850152620039d1610160850183620036cd565b91506040850151620039e76060860182620036c0565b5060608501516080850152608085015160a085015260a085015160c085015260c085015160e085015260e0850151610100818187015280870151915050610120601f19868503018187015262003a3e848362003712565b93508087015191505062003a558286018262003743565b5090949350505050565b600060208252620024aa602083018462003786565b60006040825262003a89604083018562003786565b90508260208301529392505050565b90815260200190565b600085825260018060a01b03851660208301528360408301526080606083015262002cbd608083018462003758565b600088825260018060a01b038816602083015286604083015260e0606083015262003aff60e083018762003758565b60808301959095525060a081019290925260c090910152949350505050565b600060608201858352602060608185015281865180845260808601915060808382028701019350828801855b8281101562003b7c57607f1988870301845262003b6986835162003758565b9550928401929084019060010162003b4a565b5050505050828103604084015262002cbd818562003712565b60006101008a835280602084015262003bb18184018b62003712565b9050828103604084015262003bc7818a62003712565b905087606084015286608084015282810360a084015262003be9818762003758565b905082810360c084015262003bff818662003758565b9150508260e08301529998505050505050505050565b92835260208301919091526001600160a01b0316604082015260600190565b60405181810167ffffffffffffffff8111828210171562003c5157fe5b604052919050565b600067ffffffffffffffff82111562003c6e57fe5b50601f01601f191660200190565b60005b8381101562003c9957818101518382015260200162003c7f565b8381111562003ca9576000848401525b50505050565b801515811462003cbe57600080fd5b5056fe60806040523480156200001157600080fd5b50604051620011f3380380620011f3833981810160405260608110156200003757600080fd5b81019080805160405193929190846401000000008211156200005857600080fd5b9083019060208201858111156200006e57600080fd5b82516401000000008111828201881017156200008957600080fd5b82525081516020918201929091019080838360005b83811015620000b85781810151838201526020016200009e565b50505050905090810190601f168015620000e65780820380516001836020036101000a031916815260200191505b50604052602001805160405193929190846401000000008211156200010a57600080fd5b9083019060208201858111156200012057600080fd5b82516401000000008111828201881017156200013b57600080fd5b82525081516020918201929091019080838360005b838110156200016a57818101518382015260200162000150565b50505050905090810190601f168015620001985780820380516001836020036101000a031916815260200191505b5060405260209081015185519093508592508491620001bd9160039185019062000219565b508051620001d390600490602084019062000219565b5050600580546001600160a01b039390931661010090810233909102610100600160a81b031960ff199095166012178516179093169290921790915550620002c5915050565b828054600181600116156101000203166002900490600052602060002090601f0160209004810192826200025157600085556200029c565b82601f106200026c57805160ff19168380011785556200029c565b828001600101855582156200029c579182015b828111156200029c5782518255916020019190600101906200027f565b50620002aa929150620002ae565b5090565b5b80821115620002aa5760008155600101620002af565b610f1e80620002d56000396000f3fe608060405234801561001057600080fd5b506004361061010b5760003560e01c806370a08231116100a2578063a457c2d711610071578063a457c2d714610343578063a9059cbb1461036f578063c024cd261461039b578063dd62ed3e146103c7578063f2fde38b146103f55761010b565b806370a08231146102cb57806371297784146102f1578063893d20e81461031757806395d89b411461033b5761010b565b806323b872dd116100de57806323b872dd1461021f578063313ce56714610255578063395093511461027357806342986e131461029f5761010b565b806306fdde0314610110578063095ea7b31461018d5780630fb66557146101cd57806318160ddd14610205575b600080fd5b61011861041b565b6040805160208082528351818301528351919283929083019185019080838360005b8381101561015257818101518382015260200161013a565b50505050905090810190601f16801561017f5780820380516001836020036101000a031916815260200191505b509250505060405180910390f35b6101b9600480360360408110156101a357600080fd5b506001600160a01b0381351690602001356104b1565b604080519115158252519081900360200190f35b610203600480360360608110156101e357600080fd5b506001600160a01b038135811691602081013590911690604001356104ce565b005b61020d6104fa565b60408051918252519081900360200190f35b6101b96004803603606081101561023557600080fd5b506001600160a01b03813581169160208101359091169060400135610500565b61025d610587565b6040805160ff9092168252519081900360200190f35b6101b96004803603604081101561028957600080fd5b506001600160a01b038135169060200135610590565b610203600480360360408110156102b557600080fd5b506001600160a01b0381351690602001356105de565b61020d600480360360208110156102e157600080fd5b50356001600160a01b0316610608565b61020d6004803603602081101561030757600080fd5b50356001600160a01b0316610623565b61031f61065f565b604080516001600160a01b039092168252519081900360200190f35b610118610673565b6101b96004803603604081101561035957600080fd5b506001600160a01b0381351690602001356106d4565b6101b96004803603604081101561038557600080fd5b506001600160a01b03813516906020013561073c565b610203600480360360408110156103b157600080fd5b506001600160a01b038135169060200135610750565b61020d600480360360408110156103dd57600080fd5b506001600160a01b0381358116916020013516610776565b6101b96004803603602081101561040b57600080fd5b50356001600160a01b03166107a1565b60038054604080516020601f60026000196101006001881615020190951694909404938401819004810282018101909252828152606093909290918301828280156104a75780601f1061047c576101008083540402835291602001916104a7565b820191906000526020600020905b81548152906001019060200180831161048a57829003601f168201915b5050505050905090565b60006104c56104be610818565b848461081c565b50600192915050565b60055461010090046001600160a01b031633146104ea57600080fd5b6104f5838383610908565b505050565b60025490565b600061050d848484610908565b61057d84610519610818565b61057885604051806060016040528060288152602001610e32602891396001600160a01b038a16600090815260016020526040812090610557610818565b6001600160a01b031681526020810191909152604001600020549190610a63565b61081c565b5060019392505050565b60055460ff1690565b60006104c561059d610818565b8461057885600160006105ae610818565b6001600160a01b03908116825260208083019390935260409182016000908120918c168152925290205490610afa565b60055461010090046001600160a01b031633146105fa57600080fd5b6106048282610b5b565b5050565b6001600160a01b031660009081526020819052604090205490565b60055460009061010090046001600160a01b0316331461064257600080fd5b600061064d83610608565b90506106598382610b5b565b92915050565b60055461010090046001600160a01b031690565b60048054604080516020601f60026000196101006001881615020190951694909404938401819004810282018101909252828152606093909290918301828280156104a75780601f1061047c576101008083540402835291602001916104a7565b60006104c56106e1610818565b8461057885604051806060016040528060258152602001610ec4602591396001600061070b610818565b6001600160a01b03908116825260208083019390935260409182016000908120918d16815292529020549190610a63565b60006104c5610749610818565b8484610908565b60055461010090046001600160a01b0316331461076c57600080fd5b6106048282610c57565b6001600160a01b03918216600090815260016020908152604080832093909416825291909152205490565b60055460009061010090046001600160a01b031633146107c057600080fd5b6001600160a01b0382166107d357600080fd5b6005546107ee9061010090046001600160a01b031683610604565b50600580546001600160a01b03831661010002610100600160a81b03199091161790556001919050565b3390565b6001600160a01b0383166108615760405162461bcd60e51b8152600401808060200182810382526024815260200180610ea06024913960400191505060405180910390fd5b6001600160a01b0382166108a65760405162461bcd60e51b8152600401808060200182810382526022815260200180610dea6022913960400191505060405180910390fd5b6001600160a01b03808416600081815260016020908152604080832094871680845294825291829020859055815185815291517f8c5be1e5ebec7d5bd14f71427d1e84f3dd0314c0f7b2291e5b200ac8c7c3b9259281900390910190a3505050565b6001600160a01b03831661094d5760405162461bcd60e51b8152600401808060200182810382526025815260200180610e7b6025913960400191505060405180910390fd5b6001600160a01b0382166109925760405162461bcd60e51b8152600401808060200182810382526023815260200180610da56023913960400191505060405180910390fd5b61099d8383836104f5565b6109da81604051806060016040528060268152602001610e0c602691396001600160a01b0386166000908152602081905260409020549190610a63565b6001600160a01b038085166000908152602081905260408082209390935590841681522054610a099082610afa565b6001600160a01b038084166000818152602081815260409182902094909455805185815290519193928716927fddf252ad1be2c89b69c2b068fc378daa952ba7f163c4a11628f55a4df523b3ef92918290030190a3505050565b60008184841115610af25760405162461bcd60e51b81526004018080602001828103825283818151815260200191508051906020019080838360005b83811015610ab7578181015183820152602001610a9f565b50505050905090810190601f168015610ae45780820380516001836020036101000a031916815260200191505b509250505060405180910390fd5b505050900390565b600082820183811015610b54576040805162461bcd60e51b815260206004820152601b60248201527f536166654d6174683a206164646974696f6e206f766572666c6f770000000000604482015290519081900360640190fd5b9392505050565b6001600160a01b038216610ba05760405162461bcd60e51b8152600401808060200182810382526021815260200180610e5a6021913960400191505060405180910390fd5b610bac826000836104f5565b610be981604051806060016040528060228152602001610dc8602291396001600160a01b0385166000908152602081905260409020549190610a63565b6001600160a01b038316600090815260208190526040902055600254610c0f9082610d47565b6002556040805182815290516000916001600160a01b038516917fddf252ad1be2c89b69c2b068fc378daa952ba7f163c4a11628f55a4df523b3ef9181900360200190a35050565b6001600160a01b038216610cb2576040805162461bcd60e51b815260206004820152601f60248201527f45524332303a206d696e7420746f20746865207a65726f206164647265737300604482015290519081900360640190fd5b610cbe600083836104f5565b600254610ccb9082610afa565b6002556001600160a01b038216600090815260208190526040902054610cf19082610afa565b6001600160a01b0383166000818152602081815260408083209490945583518581529351929391927fddf252ad1be2c89b69c2b068fc378daa952ba7f163c4a11628f55a4df523b3ef9281900390910190a35050565b600082821115610d9e576040805162461bcd60e51b815260206004820152601e60248201527f536166654d6174683a207375627472616374696f6e206f766572666c6f770000604482015290519081900360640190fd5b5090039056fe45524332303a207472616e7366657220746f20746865207a65726f206164647265737345524332303a206275726e20616d6f756e7420657863656564732062616c616e636545524332303a20617070726f766520746f20746865207a65726f206164647265737345524332303a207472616e7366657220616d6f756e7420657863656564732062616c616e636545524332303a207472616e7366657220616d6f756e74206578636565647320616c6c6f77616e636545524332303a206275726e2066726f6d20746865207a65726f206164647265737345524332303a207472616e736665722066726f6d20746865207a65726f206164647265737345524332303a20617070726f76652066726f6d20746865207a65726f206164647265737345524332303a2064656372656173656420616c6c6f77616e63652062656c6f77207a65726fa2646970667358221220c881513fca5a75d47e02fc1c04920461b43ce001b23b37bd2a0244cb5b4737ce64736f6c63430007060033a2646970667358221220ccd330588c373f8f91080f7624b5b226a92a51193a297c6ab031c6e33c01c4cf64736f6c63430007060033",
  "devdoc": {
    "kind": "dev",
    "methods": {
      "transferOwnership(address)": {
        "details": "Allows the current owner to transfer control of the contract to a newOwner.",
        "params": {
          "_newOwner": "The address to transfer ownership to."
        }
      }
    },
    "version": 1
  },
  "userdoc": {
    "kind": "user",
    "methods": {},
    "version": 1
  },
  "storageLayout": {
    "storage": [
      {
        "astId": 6462,
        "contract": "contracts/turbo/MMAMarketFactory.sol:MMAMarketFactory",
        "label": "owner",
        "offset": 0,
        "slot": "0",
        "type": "t_address"
      },
      {
        "astId": 11743,
        "contract": "contracts/turbo/MMAMarketFactory.sol:MMAMarketFactory",
        "label": "collateral",
        "offset": 0,
        "slot": "1",
        "type": "t_contract(IERC20Full)6294"
      },
      {
        "astId": 11745,
        "contract": "contracts/turbo/MMAMarketFactory.sol:MMAMarketFactory",
        "label": "feePot",
        "offset": 0,
        "slot": "2",
        "type": "t_contract(FeePot)14594"
      },
      {
        "astId": 11747,
        "contract": "contracts/turbo/MMAMarketFactory.sol:MMAMarketFactory",
        "label": "stakerFee",
        "offset": 0,
        "slot": "3",
        "type": "t_uint256"
      },
      {
        "astId": 11749,
        "contract": "contracts/turbo/MMAMarketFactory.sol:MMAMarketFactory",
        "label": "settlementFee",
        "offset": 0,
        "slot": "4",
        "type": "t_uint256"
      },
      {
        "astId": 11751,
        "contract": "contracts/turbo/MMAMarketFactory.sol:MMAMarketFactory",
        "label": "protocolFee",
        "offset": 0,
        "slot": "5",
        "type": "t_uint256"
      },
      {
        "astId": 11753,
        "contract": "contracts/turbo/MMAMarketFactory.sol:MMAMarketFactory",
        "label": "protocol",
        "offset": 0,
        "slot": "6",
        "type": "t_address"
      },
      {
        "astId": 11756,
        "contract": "contracts/turbo/MMAMarketFactory.sol:MMAMarketFactory",
        "label": "accumulatedProtocolFee",
        "offset": 0,
        "slot": "7",
        "type": "t_uint256"
      },
      {
        "astId": 11760,
        "contract": "contracts/turbo/MMAMarketFactory.sol:MMAMarketFactory",
        "label": "accumulatedSettlementFees",
        "offset": 0,
        "slot": "8",
        "type": "t_mapping(t_address,t_uint256)"
      },
      {
        "astId": 11762,
        "contract": "contracts/turbo/MMAMarketFactory.sol:MMAMarketFactory",
        "label": "shareFactor",
        "offset": 0,
        "slot": "9",
        "type": "t_uint256"
      },
      {
        "astId": 11788,
        "contract": "contracts/turbo/MMAMarketFactory.sol:MMAMarketFactory",
        "label": "markets",
        "offset": 0,
        "slot": "10",
        "type": "t_array(t_struct(Market)11785_storage)dyn_storage"
      },
      {
        "astId": 7411,
        "contract": "contracts/turbo/MMAMarketFactory.sol:MMAMarketFactory",
        "label": "sportsEvents",
        "offset": 0,
        "slot": "11",
        "type": "t_mapping(t_uint256,t_struct(SportsEvent)7407_storage)"
      },
      {
        "astId": 7414,
        "contract": "contracts/turbo/MMAMarketFactory.sol:MMAMarketFactory",
        "label": "listOfSportsEvents",
        "offset": 0,
        "slot": "12",
        "type": "t_array(t_uint256)dyn_storage"
      },
      {
        "astId": 6416,
        "contract": "contracts/turbo/MMAMarketFactory.sol:MMAMarketFactory",
        "label": "linkNode",
        "offset": 0,
        "slot": "13",
        "type": "t_address"
      },
      {
        "astId": 5863,
        "contract": "contracts/turbo/MMAMarketFactory.sol:MMAMarketFactory",
        "label": "headToHeadMarketType",
        "offset": 0,
        "slot": "14",
        "type": "t_uint256"
      },
      {
        "astId": 5865,
        "contract": "contracts/turbo/MMAMarketFactory.sol:MMAMarketFactory",
        "label": "noContestName",
        "offset": 0,
        "slot": "15",
        "type": "t_string_storage"
      },
      {
        "astId": 7973,
        "contract": "contracts/turbo/MMAMarketFactory.sol:MMAMarketFactory",
        "label": "version",
        "offset": 0,
        "slot": "16",
        "type": "t_string_storage"
      }
    ],
    "types": {
      "t_address": {
        "encoding": "inplace",
        "label": "address",
        "numberOfBytes": "20"
      },
      "t_array(t_contract(OwnedERC20)20434)dyn_storage": {
        "base": "t_contract(OwnedERC20)20434",
        "encoding": "dynamic_array",
        "label": "contract OwnedERC20[]",
        "numberOfBytes": "32"
      },
      "t_array(t_int256)dyn_storage": {
        "base": "t_int256",
        "encoding": "dynamic_array",
        "label": "int256[]",
        "numberOfBytes": "32"
      },
      "t_array(t_struct(Market)11785_storage)dyn_storage": {
        "base": "t_struct(Market)11785_storage",
        "encoding": "dynamic_array",
        "label": "struct AbstractMarketFactoryV3.Market[]",
        "numberOfBytes": "32"
      },
      "t_array(t_uint256)dyn_storage": {
        "base": "t_uint256",
        "encoding": "dynamic_array",
        "label": "uint256[]",
        "numberOfBytes": "32"
      },
      "t_bool": {
        "encoding": "inplace",
        "label": "bool",
        "numberOfBytes": "1"
      },
      "t_contract(FeePot)14594": {
        "encoding": "inplace",
        "label": "contract FeePot",
        "numberOfBytes": "20"
      },
      "t_contract(IERC20Full)6294": {
        "encoding": "inplace",
        "label": "contract IERC20Full",
        "numberOfBytes": "20"
      },
      "t_contract(OwnedERC20)20434": {
        "encoding": "inplace",
        "label": "contract OwnedERC20",
        "numberOfBytes": "20"
      },
      "t_enum(SportsEventStatus)7384": {
        "encoding": "inplace",
        "label": "enum Sport.SportsEventStatus",
        "numberOfBytes": "1"
      },
      "t_int256": {
        "encoding": "inplace",
        "label": "int256",
        "numberOfBytes": "32"
      },
      "t_mapping(t_address,t_uint256)": {
        "encoding": "mapping",
        "key": "t_address",
        "label": "mapping(address => uint256)",
        "numberOfBytes": "32",
        "value": "t_uint256"
      },
      "t_mapping(t_uint256,t_struct(SportsEvent)7407_storage)": {
        "encoding": "mapping",
        "key": "t_uint256",
        "label": "mapping(uint256 => struct Sport.SportsEvent)",
        "numberOfBytes": "32",
        "value": "t_struct(SportsEvent)7407_storage"
      },
      "t_string_storage": {
        "encoding": "bytes",
        "label": "string",
        "numberOfBytes": "32"
      },
      "t_struct(Market)11785_storage": {
        "encoding": "inplace",
        "label": "struct AbstractMarketFactoryV3.Market",
        "members": [
          {
            "astId": 11764,
            "contract": "contracts/turbo/MMAMarketFactory.sol:MMAMarketFactory",
            "label": "settlementAddress",
            "offset": 0,
            "slot": "0",
            "type": "t_address"
          },
          {
            "astId": 11767,
            "contract": "contracts/turbo/MMAMarketFactory.sol:MMAMarketFactory",
            "label": "shareTokens",
            "offset": 0,
            "slot": "1",
            "type": "t_array(t_contract(OwnedERC20)20434)dyn_storage"
          },
          {
            "astId": 11769,
            "contract": "contracts/turbo/MMAMarketFactory.sol:MMAMarketFactory",
            "label": "winner",
            "offset": 0,
            "slot": "2",
            "type": "t_contract(OwnedERC20)20434"
          },
          {
            "astId": 11771,
            "contract": "contracts/turbo/MMAMarketFactory.sol:MMAMarketFactory",
            "label": "winnerIndex",
            "offset": 0,
            "slot": "3",
            "type": "t_uint256"
          },
          {
            "astId": 11773,
            "contract": "contracts/turbo/MMAMarketFactory.sol:MMAMarketFactory",
            "label": "settlementFee",
            "offset": 0,
            "slot": "4",
            "type": "t_uint256"
          },
          {
            "astId": 11775,
            "contract": "contracts/turbo/MMAMarketFactory.sol:MMAMarketFactory",
            "label": "protocolFee",
            "offset": 0,
            "slot": "5",
            "type": "t_uint256"
          },
          {
            "astId": 11777,
            "contract": "contracts/turbo/MMAMarketFactory.sol:MMAMarketFactory",
            "label": "stakerFee",
            "offset": 0,
            "slot": "6",
            "type": "t_uint256"
          },
          {
            "astId": 11779,
            "contract": "contracts/turbo/MMAMarketFactory.sol:MMAMarketFactory",
            "label": "creationTimestamp",
            "offset": 0,
            "slot": "7",
            "type": "t_uint256"
          },
          {
            "astId": 11782,
            "contract": "contracts/turbo/MMAMarketFactory.sol:MMAMarketFactory",
            "label": "initialOdds",
            "offset": 0,
            "slot": "8",
            "type": "t_array(t_uint256)dyn_storage"
          },
          {
            "astId": 11784,
            "contract": "contracts/turbo/MMAMarketFactory.sol:MMAMarketFactory",
            "label": "active",
            "offset": 0,
            "slot": "9",
            "type": "t_bool"
          }
        ],
        "numberOfBytes": "320"
      },
      "t_struct(SportsEvent)7407_storage": {
        "encoding": "inplace",
        "label": "struct Sport.SportsEvent",
        "members": [
          {
            "astId": 7386,
            "contract": "contracts/turbo/MMAMarketFactory.sol:MMAMarketFactory",
            "label": "status",
            "offset": 0,
            "slot": "0",
            "type": "t_enum(SportsEventStatus)7384"
          },
          {
            "astId": 7389,
            "contract": "contracts/turbo/MMAMarketFactory.sol:MMAMarketFactory",
            "label": "markets",
            "offset": 0,
            "slot": "1",
            "type": "t_array(t_uint256)dyn_storage"
          },
          {
            "astId": 7392,
            "contract": "contracts/turbo/MMAMarketFactory.sol:MMAMarketFactory",
            "label": "lines",
            "offset": 0,
            "slot": "2",
            "type": "t_array(t_int256)dyn_storage"
          },
          {
            "astId": 7394,
            "contract": "contracts/turbo/MMAMarketFactory.sol:MMAMarketFactory",
            "label": "estimatedStartTime",
            "offset": 0,
            "slot": "3",
            "type": "t_uint256"
          },
          {
            "astId": 7396,
            "contract": "contracts/turbo/MMAMarketFactory.sol:MMAMarketFactory",
            "label": "homeTeamId",
            "offset": 0,
            "slot": "4",
            "type": "t_uint256"
          },
          {
            "astId": 7398,
            "contract": "contracts/turbo/MMAMarketFactory.sol:MMAMarketFactory",
            "label": "awayTeamId",
            "offset": 0,
            "slot": "5",
            "type": "t_uint256"
          },
          {
            "astId": 7400,
            "contract": "contracts/turbo/MMAMarketFactory.sol:MMAMarketFactory",
            "label": "homeTeamName",
            "offset": 0,
            "slot": "6",
            "type": "t_string_storage"
          },
          {
            "astId": 7402,
            "contract": "contracts/turbo/MMAMarketFactory.sol:MMAMarketFactory",
            "label": "awayTeamName",
            "offset": 0,
            "slot": "7",
            "type": "t_string_storage"
          },
          {
            "astId": 7404,
            "contract": "contracts/turbo/MMAMarketFactory.sol:MMAMarketFactory",
            "label": "homeScore",
            "offset": 0,
            "slot": "8",
            "type": "t_uint256"
          },
          {
            "astId": 7406,
            "contract": "contracts/turbo/MMAMarketFactory.sol:MMAMarketFactory",
            "label": "awayScore",
            "offset": 0,
            "slot": "9",
            "type": "t_uint256"
          }
        ],
        "numberOfBytes": "320"
      },
      "t_uint256": {
        "encoding": "inplace",
        "label": "uint256",
        "numberOfBytes": "32"
      }
    }
  }
}