{
  "address": "0x3bB792b97eCE19f125344E4CAE331b2f5a2d0D69",
  "abi": [
    {
      "inputs": [
        {
          "internalType": "address",
          "name": "_owner",
          "type": "address"
        },
        {
          "internalType": "address",
          "name": "_marketFactory",
          "type": "address"
        }
      ],
      "stateMutability": "nonpayable",
      "type": "constructor"
    },
    {
      "stateMutability": "payable",
      "type": "fallback"
    },
    {
      "inputs": [],
      "name": "getOwner",
      "outputs": [
        {
          "internalType": "address",
          "name": "",
          "type": "address"
        }
      ],
      "stateMutability": "view",
      "type": "function"
    },
    {
      "inputs": [],
      "name": "marketFactory",
      "outputs": [
        {
          "internalType": "address",
          "name": "",
          "type": "address"
        }
      ],
      "stateMutability": "view",
      "type": "function"
    },
    {
      "inputs": [
        {
          "internalType": "address",
          "name": "_newAddress",
          "type": "address"
        }
      ],
      "name": "setMarketFactory",
      "outputs": [],
      "stateMutability": "nonpayable",
      "type": "function"
    },
    {
      "inputs": [
        {
          "internalType": "address",
          "name": "_newOwner",
          "type": "address"
        }
      ],
      "name": "transferOwnership",
      "outputs": [
        {
          "internalType": "bool",
          "name": "",
          "type": "bool"
        }
      ],
      "stateMutability": "nonpayable",
      "type": "function"
    },
    {
      "stateMutability": "payable",
      "type": "receive"
    }
  ],
  "transactionHash": "0xaa389b9e407d07e36fba8d4007070216430bb78fe13e7c72b39c462f475a11e8",
  "args": [
    "0x8C9c733eCd48426b9c53c38ccB60F3b307329bE1",
    "0x965aC87691b7767A66bf00e9969b5638F4dE7b17"
  ],
  "solcInputHash": "932d27afdf1322cefd322e0317b48308",
  "bytecode": "0x608060405234801561001057600080fd5b506040516102dc3803806102dc8339818101604052604081101561003357600080fd5b508051602090910151600080546001600160a01b039384166001600160a01b031991821633178216179091556001805493909216921691909117905561025e8061007e6000396000f3fe6080604052600436106100435760003560e01c806306ae70951461005a5780634dcc434a1461008b578063893d20e8146100be578063f2fde38b146100d357610052565b366100525761005061011a565b005b61005061011a565b34801561006657600080fd5b5061006f610134565b604080516001600160a01b039092168252519081900360200190f35b34801561009757600080fd5b50610050600480360360208110156100ae57600080fd5b50356001600160a01b0316610143565b3480156100ca57600080fd5b5061006f61017c565b3480156100df57600080fd5b50610106600480360360208110156100f657600080fd5b50356001600160a01b031661018b565b604080519115158252519081900360200190f35b610122610132565b61013261012d6101f1565b610200565b565b6001546001600160a01b031681565b6000546001600160a01b0316331461015a57600080fd5b600180546001600160a01b0319166001600160a01b0392909216919091179055565b6000546001600160a01b031690565b600080546001600160a01b031633146101a357600080fd5b6001600160a01b0382166101b657600080fd5b6000546101cc906001600160a01b031683610224565b50600080546001600160a01b0383166001600160a01b03199091161790556001919050565b6001546001600160a01b031690565b3660008037600080366000845af43d6000803e80801561021f573d6000f35b3d6000fd5b505056fea26469706673582212208cd8bf0eaaf3ad1632e5178309f4ec05df30aca17a8dd737eeea202045f108a364736f6c63430007060033",
  "devdoc": {
    "kind": "dev",
    "methods": {
      "transferOwnership(address)": {
        "details": "Allows the current owner to transfer control of the contract to a newOwner.",
        "params": {
          "_newOwner": "The address to transfer ownership to."
        }
      }
    },
    "version": 1
  },
  "userdoc": {
    "kind": "user",
    "methods": {},
    "version": 1
  },
  "storageLayout": {
    "storage": [
      {
        "astId": 5403,
        "contract": "contracts/turbo/SportsLinkProxy.sol:SportsLinkProxy",
        "label": "owner",
        "offset": 0,
        "slot": "0",
        "type": "t_address"
      },
      {
        "astId": 10871,
        "contract": "contracts/turbo/SportsLinkProxy.sol:SportsLinkProxy",
        "label": "marketFactory",
        "offset": 0,
        "slot": "1",
        "type": "t_address"
      }
    ],
    "types": {
      "t_address": {
        "encoding": "inplace",
        "label": "address",
        "numberOfBytes": "20"
      }
    }
  }
}