{
  "address": "0x366E88eCf16cA7FBaDbccD6925DB023e34196f5F",
  "abi": [
    {
      "inputs": [
        {
          "internalType": "address",
          "name": "_owner",
          "type": "address"
        },
        {
          "internalType": "contract IERC20Full",
          "name": "_collateral",
          "type": "address"
        },
        {
          "internalType": "uint256",
          "name": "_shareFactor",
          "type": "uint256"
        },
        {
          "internalType": "contract FeePot",
          "name": "_feePot",
          "type": "address"
        },
        {
          "internalType": "uint256",
          "name": "_stakerFee",
          "type": "uint256"
        },
        {
          "internalType": "uint256",
          "name": "_settlementFee",
          "type": "uint256"
        },
        {
          "internalType": "address",
          "name": "_protocol",
          "type": "address"
        },
        {
          "internalType": "uint256",
          "name": "_protocolFee",
          "type": "uint256"
        },
        {
          "internalType": "address",
          "name": "_linkNode",
          "type": "address"
        },
        {
          "internalType": "uint256",
          "name": "_sportId",
          "type": "uint256"
        }
      ],
      "stateMutability": "nonpayable",
      "type": "constructor"
    },
    {
      "anonymous": false,
      "inputs": [
        {
          "indexed": true,
          "internalType": "bytes32",
          "name": "id",
          "type": "bytes32"
        }
      ],
      "name": "ChainlinkCancelled",
      "type": "event"
    },
    {
      "anonymous": false,
      "inputs": [
        {
          "indexed": true,
          "internalType": "bytes32",
          "name": "id",
          "type": "bytes32"
        }
      ],
      "name": "ChainlinkFulfilled",
      "type": "event"
    },
    {
      "anonymous": false,
      "inputs": [
        {
          "indexed": true,
          "internalType": "bytes32",
          "name": "id",
          "type": "bytes32"
        }
      ],
      "name": "ChainlinkRequested",
      "type": "event"
    },
    {
      "anonymous": false,
      "inputs": [
        {
          "indexed": false,
          "internalType": "address",
          "name": "newLinkNode",
          "type": "address"
        }
      ],
      "name": "LinkNodeChanged",
      "type": "event"
    },
    {
      "anonymous": false,
      "inputs": [
        {
          "indexed": false,
          "internalType": "uint256",
          "name": "id",
          "type": "uint256"
        },
        {
          "indexed": false,
          "internalType": "address",
          "name": "creator",
          "type": "address"
        },
        {
          "indexed": false,
          "internalType": "uint256",
          "name": "endTime",
          "type": "uint256"
        },
        {
          "indexed": false,
          "internalType": "enum SportsLinkMarketFactory.MarketType",
          "name": "marketType",
          "type": "uint8"
        },
        {
          "indexed": true,
          "internalType": "uint256",
          "name": "eventId",
          "type": "uint256"
        },
        {
          "indexed": false,
          "internalType": "uint256",
          "name": "homeTeamId",
          "type": "uint256"
        },
        {
          "indexed": false,
          "internalType": "uint256",
          "name": "awayTeamId",
          "type": "uint256"
        },
        {
          "indexed": false,
          "internalType": "uint256",
          "name": "estimatedStarTime",
          "type": "uint256"
        },
        {
          "indexed": false,
          "internalType": "int256",
          "name": "score",
          "type": "int256"
        }
      ],
      "name": "MarketCreated",
      "type": "event"
    },
    {
      "anonymous": false,
      "inputs": [
        {
          "indexed": false,
          "internalType": "uint256",
          "name": "id",
          "type": "uint256"
        },
        {
          "indexed": false,
          "internalType": "address",
          "name": "winner",
          "type": "address"
        }
      ],
      "name": "MarketResolved",
      "type": "event"
    },
    {
      "anonymous": false,
      "inputs": [
        {
          "indexed": false,
          "internalType": "address",
          "name": "protocol",
          "type": "address"
        }
      ],
      "name": "ProtocolChanged",
      "type": "event"
    },
    {
      "anonymous": false,
      "inputs": [
        {
          "indexed": false,
          "internalType": "uint256",
          "name": "fee",
          "type": "uint256"
        }
      ],
      "name": "ProtocolFeeChanged",
      "type": "event"
    },
    {
      "anonymous": false,
      "inputs": [
        {
          "indexed": false,
          "internalType": "address",
          "name": "protocol",
          "type": "address"
        },
        {
          "indexed": false,
          "internalType": "uint256",
          "name": "amount",
          "type": "uint256"
        }
      ],
      "name": "ProtocolFeeClaimed",
      "type": "event"
    },
    {
      "anonymous": false,
      "inputs": [
        {
          "indexed": false,
          "internalType": "uint256",
          "name": "fee",
          "type": "uint256"
        }
      ],
      "name": "SettlementFeeChanged",
      "type": "event"
    },
    {
      "anonymous": false,
      "inputs": [
        {
          "indexed": false,
          "internalType": "address",
          "name": "settlementAddress",
          "type": "address"
        },
        {
          "indexed": false,
          "internalType": "uint256",
          "name": "amount",
          "type": "uint256"
        },
        {
          "indexed": true,
          "internalType": "address",
          "name": "receiver",
          "type": "address"
        }
      ],
      "name": "SettlementFeeClaimed",
      "type": "event"
    },
    {
      "anonymous": false,
      "inputs": [
        {
          "indexed": false,
          "internalType": "uint256",
          "name": "id",
          "type": "uint256"
        },
        {
          "indexed": false,
          "internalType": "uint256",
          "name": "amount",
          "type": "uint256"
        },
        {
          "indexed": false,
          "internalType": "address",
          "name": "receiver",
          "type": "address"
        }
      ],
      "name": "SharesBurned",
      "type": "event"
    },
    {
      "anonymous": false,
      "inputs": [
        {
          "indexed": false,
          "internalType": "uint256",
          "name": "id",
          "type": "uint256"
        },
        {
          "indexed": false,
          "internalType": "uint256",
          "name": "amount",
          "type": "uint256"
        },
        {
          "indexed": false,
          "internalType": "address",
          "name": "receiver",
          "type": "address"
        }
      ],
      "name": "SharesMinted",
      "type": "event"
    },
    {
      "anonymous": false,
      "inputs": [
        {
          "indexed": false,
          "internalType": "uint256",
          "name": "fee",
          "type": "uint256"
        }
      ],
      "name": "StakerFeeChanged",
      "type": "event"
    },
    {
      "anonymous": false,
      "inputs": [
        {
          "indexed": false,
          "internalType": "uint256",
          "name": "id",
          "type": "uint256"
        },
        {
          "indexed": false,
          "internalType": "address",
          "name": "winningOutcome",
          "type": "address"
        },
        {
          "indexed": false,
          "internalType": "uint256",
          "name": "amount",
          "type": "uint256"
        },
        {
          "indexed": false,
          "internalType": "uint256",
          "name": "settlementFee",
          "type": "uint256"
        },
        {
          "indexed": false,
          "internalType": "uint256",
          "name": "payout",
          "type": "uint256"
        },
        {
          "indexed": true,
          "internalType": "address",
          "name": "receiver",
          "type": "address"
        }
      ],
      "name": "WinningsClaimed",
      "type": "event"
    },
    {
      "inputs": [],
      "name": "accumulatedProtocolFee",
      "outputs": [
        {
          "internalType": "uint256",
          "name": "",
          "type": "uint256"
        }
      ],
      "stateMutability": "view",
      "type": "function"
    },
    {
      "inputs": [
        {
          "internalType": "address",
          "name": "",
          "type": "address"
        }
      ],
      "name": "accumulatedSettlementFees",
      "outputs": [
        {
          "internalType": "uint256",
          "name": "",
          "type": "uint256"
        }
      ],
      "stateMutability": "view",
      "type": "function"
    },
    {
      "inputs": [
        {
          "internalType": "uint256",
          "name": "_id",
          "type": "uint256"
        },
        {
          "internalType": "uint256",
          "name": "_sharesToBurn",
          "type": "uint256"
        },
        {
          "internalType": "address",
          "name": "_receiver",
          "type": "address"
        }
      ],
      "name": "burnShares",
      "outputs": [
        {
          "internalType": "uint256",
          "name": "",
          "type": "uint256"
        }
      ],
      "stateMutability": "nonpayable",
      "type": "function"
    },
    {
      "inputs": [
        {
          "internalType": "uint256",
          "name": "_shares",
          "type": "uint256"
        }
      ],
      "name": "calcCost",
      "outputs": [
        {
          "internalType": "uint256",
          "name": "",
          "type": "uint256"
        }
      ],
      "stateMutability": "view",
      "type": "function"
    },
    {
      "inputs": [
        {
          "internalType": "uint256",
          "name": "_collateralIn",
          "type": "uint256"
        }
      ],
      "name": "calcShares",
      "outputs": [
        {
          "internalType": "uint256",
          "name": "",
          "type": "uint256"
        }
      ],
      "stateMutability": "view",
      "type": "function"
    },
    {
      "inputs": [
        {
          "internalType": "uint256[]",
          "name": "_ids",
          "type": "uint256[]"
        },
        {
          "internalType": "address",
          "name": "_receiver",
          "type": "address"
        }
      ],
      "name": "claimManyWinnings",
      "outputs": [
        {
          "internalType": "uint256",
          "name": "",
          "type": "uint256"
        }
      ],
      "stateMutability": "nonpayable",
      "type": "function"
    },
    {
      "inputs": [],
      "name": "claimProtocolFees",
      "outputs": [
        {
          "internalType": "uint256",
          "name": "",
          "type": "uint256"
        }
      ],
      "stateMutability": "nonpayable",
      "type": "function"
    },
    {
      "inputs": [
        {
          "internalType": "address",
          "name": "_receiver",
          "type": "address"
        }
      ],
      "name": "claimSettlementFees",
      "outputs": [
        {
          "internalType": "uint256",
          "name": "",
          "type": "uint256"
        }
      ],
      "stateMutability": "nonpayable",
      "type": "function"
    },
    {
      "inputs": [
        {
          "internalType": "uint256",
          "name": "_id",
          "type": "uint256"
        },
        {
          "internalType": "address",
          "name": "_receiver",
          "type": "address"
        }
      ],
      "name": "claimWinnings",
      "outputs": [
        {
          "internalType": "uint256",
          "name": "",
          "type": "uint256"
        }
      ],
      "stateMutability": "nonpayable",
      "type": "function"
    },
    {
      "inputs": [],
      "name": "collateral",
      "outputs": [
        {
          "internalType": "contract IERC20Full",
          "name": "",
          "type": "address"
        }
      ],
      "stateMutability": "view",
      "type": "function"
    },
    {
      "inputs": [
        {
          "internalType": "bytes32",
          "name": "_payload",
          "type": "bytes32"
        }
      ],
      "name": "createMarket",
      "outputs": [
        {
          "internalType": "uint256[3]",
          "name": "_ids",
          "type": "uint256[3]"
        }
      ],
      "stateMutability": "nonpayable",
      "type": "function"
    },
    {
      "inputs": [
        {
          "internalType": "bytes32",
          "name": "_requestId",
          "type": "bytes32"
        },
        {
          "internalType": "bytes32",
          "name": "_payload",
          "type": "bytes32"
        }
      ],
      "name": "createMarketCallback",
      "outputs": [],
      "stateMutability": "nonpayable",
      "type": "function"
    },
    {
      "inputs": [
        {
          "internalType": "bytes32",
          "name": "_payload",
          "type": "bytes32"
        }
      ],
      "name": "decodeCreation",
      "outputs": [
        {
          "internalType": "uint128",
          "name": "_eventId",
          "type": "uint128"
        },
        {
          "internalType": "uint16",
          "name": "_homeTeamId",
          "type": "uint16"
        },
        {
          "internalType": "uint16",
          "name": "_awayTeamId",
          "type": "uint16"
        },
        {
          "internalType": "uint32",
          "name": "_startTimestamp",
          "type": "uint32"
        },
        {
          "internalType": "int16",
          "name": "_homeSpread",
          "type": "int16"
        },
        {
          "internalType": "uint16",
          "name": "_totalScore",
          "type": "uint16"
        }
      ],
      "stateMutability": "pure",
      "type": "function"
    },
    {
      "inputs": [
        {
          "internalType": "bytes32",
          "name": "_payload",
          "type": "bytes32"
        }
      ],
      "name": "decodeResolution",
      "outputs": [
        {
          "internalType": "uint128",
          "name": "_eventId",
          "type": "uint128"
        },
        {
          "internalType": "uint8",
          "name": "_eventStatus",
          "type": "uint8"
        },
        {
          "internalType": "uint16",
          "name": "_homeScore",
          "type": "uint16"
        },
        {
          "internalType": "uint16",
          "name": "_awayScore",
          "type": "uint16"
        }
      ],
      "stateMutability": "pure",
      "type": "function"
    },
    {
      "inputs": [
        {
          "internalType": "uint128",
          "name": "_eventId",
          "type": "uint128"
        },
        {
          "internalType": "uint16",
          "name": "_homeTeamId",
          "type": "uint16"
        },
        {
          "internalType": "uint16",
          "name": "_awayTeamId",
          "type": "uint16"
        },
        {
          "internalType": "uint32",
          "name": "_startTimestamp",
          "type": "uint32"
        },
        {
          "internalType": "int16",
          "name": "_homeSpread",
          "type": "int16"
        },
        {
          "internalType": "uint16",
          "name": "_totalScore",
          "type": "uint16"
        }
      ],
      "name": "encodeCreation",
      "outputs": [
        {
          "internalType": "bytes32",
          "name": "_payload",
          "type": "bytes32"
        }
      ],
      "stateMutability": "pure",
      "type": "function"
    },
    {
      "inputs": [
        {
          "internalType": "uint128",
          "name": "_eventId",
          "type": "uint128"
        },
        {
          "internalType": "uint8",
          "name": "_eventStatus",
          "type": "uint8"
        },
        {
          "internalType": "uint16",
          "name": "_homeScore",
          "type": "uint16"
        },
        {
          "internalType": "uint16",
          "name": "_awayScore",
          "type": "uint16"
        }
      ],
      "name": "encodeResolution",
      "outputs": [
        {
          "internalType": "bytes32",
          "name": "_payload",
          "type": "bytes32"
        }
      ],
      "stateMutability": "pure",
      "type": "function"
    },
    {
      "inputs": [],
      "name": "feePot",
      "outputs": [
        {
          "internalType": "contract FeePot",
          "name": "",
          "type": "address"
        }
      ],
      "stateMutability": "view",
      "type": "function"
    },
    {
      "inputs": [
        {
          "internalType": "uint256",
          "name": "_id",
          "type": "uint256"
        }
      ],
      "name": "getMarket",
      "outputs": [
        {
          "components": [
            {
              "internalType": "address",
              "name": "settlementAddress",
              "type": "address"
            },
            {
              "internalType": "contract OwnedERC20[]",
              "name": "shareTokens",
              "type": "address[]"
            },
            {
              "internalType": "uint256",
              "name": "endTime",
              "type": "uint256"
            },
            {
              "internalType": "contract OwnedERC20",
              "name": "winner",
              "type": "address"
            },
            {
              "internalType": "uint256",
              "name": "settlementFee",
              "type": "uint256"
            },
            {
              "internalType": "uint256",
              "name": "protocolFee",
              "type": "uint256"
            },
            {
              "internalType": "uint256",
              "name": "stakerFee",
              "type": "uint256"
            },
            {
              "internalType": "uint256",
              "name": "creationTimestamp",
              "type": "uint256"
            }
          ],
          "internalType": "struct AbstractMarketFactory.Market",
          "name": "",
          "type": "tuple"
        }
      ],
      "stateMutability": "view",
      "type": "function"
    },
    {
      "inputs": [
        {
          "internalType": "uint256",
          "name": "_marketId",
          "type": "uint256"
        }
      ],
      "name": "getMarketDetails",
      "outputs": [
        {
          "components": [
            {
              "internalType": "uint256",
              "name": "eventId",
              "type": "uint256"
            },
            {
              "internalType": "uint256",
              "name": "homeTeamId",
              "type": "uint256"
            },
            {
              "internalType": "uint256",
              "name": "awayTeamId",
              "type": "uint256"
            },
            {
              "internalType": "uint256",
              "name": "estimatedStartTime",
              "type": "uint256"
            },
            {
              "internalType": "enum SportsLinkMarketFactory.MarketType",
              "name": "marketType",
              "type": "uint8"
            },
            {
              "internalType": "enum SportsLinkMarketFactory.EventStatus",
              "name": "eventStatus",
              "type": "uint8"
            },
            {
              "internalType": "int256",
              "name": "value0",
              "type": "int256"
            }
          ],
          "internalType": "struct SportsLinkMarketFactory.MarketDetails",
          "name": "",
          "type": "tuple"
        }
      ],
      "stateMutability": "view",
      "type": "function"
    },
    {
      "inputs": [],
      "name": "getOwner",
      "outputs": [
        {
          "internalType": "address",
          "name": "",
          "type": "address"
        }
      ],
      "stateMutability": "view",
      "type": "function"
    },
    {
      "inputs": [
        {
          "internalType": "uint256",
          "name": "_eventId",
          "type": "uint256"
        }
      ],
      "name": "isEventRegistered",
      "outputs": [
        {
          "internalType": "bool",
          "name": "",
          "type": "bool"
        }
      ],
      "stateMutability": "view",
      "type": "function"
    },
    {
      "inputs": [
        {
          "internalType": "uint256",
          "name": "_eventId",
          "type": "uint256"
        }
      ],
      "name": "isEventResolved",
      "outputs": [
        {
          "internalType": "bool",
          "name": "",
          "type": "bool"
        }
      ],
      "stateMutability": "view",
      "type": "function"
    },
    {
      "inputs": [
        {
          "internalType": "uint256",
          "name": "_id",
          "type": "uint256"
        }
      ],
      "name": "isMarketResolved",
      "outputs": [
        {
          "internalType": "bool",
          "name": "",
          "type": "bool"
        }
      ],
      "stateMutability": "view",
      "type": "function"
    },
    {
      "inputs": [],
      "name": "listUnresolvedMarkets",
      "outputs": [
        {
          "internalType": "uint256[]",
          "name": "",
          "type": "uint256[]"
        }
      ],
      "stateMutability": "view",
      "type": "function"
    },
    {
      "inputs": [],
      "name": "marketCount",
      "outputs": [
        {
          "internalType": "uint256",
          "name": "",
          "type": "uint256"
        }
      ],
      "stateMutability": "view",
      "type": "function"
    },
    {
      "inputs": [
        {
          "internalType": "uint256",
          "name": "_id",
          "type": "uint256"
        },
        {
          "internalType": "uint256",
          "name": "_shareToMint",
          "type": "uint256"
        },
        {
          "internalType": "address",
          "name": "_receiver",
          "type": "address"
        }
      ],
      "name": "mintShares",
      "outputs": [],
      "stateMutability": "nonpayable",
      "type": "function"
    },
    {
      "inputs": [],
      "name": "pokeMarketCreatorMLB",
      "outputs": [],
      "stateMutability": "nonpayable",
      "type": "function"
    },
    {
      "inputs": [],
      "name": "pokeMarketCreatorNBA",
      "outputs": [],
      "stateMutability": "nonpayable",
      "type": "function"
    },
    {
      "inputs": [],
      "name": "pokeMarketResolverMLB",
      "outputs": [],
      "stateMutability": "nonpayable",
      "type": "function"
    },
    {
      "inputs": [],
      "name": "pokeMarketResolverNBA",
      "outputs": [],
      "stateMutability": "nonpayable",
      "type": "function"
    },
    {
      "inputs": [],
      "name": "protocol",
      "outputs": [
        {
          "internalType": "address",
          "name": "",
          "type": "address"
        }
      ],
      "stateMutability": "view",
      "type": "function"
    },
    {
      "inputs": [],
      "name": "protocolFee",
      "outputs": [
        {
          "internalType": "uint256",
          "name": "",
          "type": "uint256"
        }
      ],
      "stateMutability": "view",
      "type": "function"
    },
    {
      "inputs": [
        {
          "internalType": "uint256",
          "name": "",
          "type": "uint256"
        }
      ],
      "name": "resolveMarket",
      "outputs": [],
      "stateMutability": "pure",
      "type": "function"
    },
    {
      "inputs": [
        {
          "internalType": "address",
          "name": "_tokenAddress",
          "type": "address"
        }
      ],
      "name": "setChainlinkTokenExternal",
      "outputs": [],
      "stateMutability": "nonpayable",
      "type": "function"
    },
    {
      "inputs": [
        {
          "internalType": "address",
          "name": "_newLinkNode",
          "type": "address"
        }
      ],
      "name": "setLinkNode",
      "outputs": [],
      "stateMutability": "nonpayable",
      "type": "function"
    },
    {
      "inputs": [
        {
          "internalType": "address",
          "name": "_newOracle",
          "type": "address"
        }
      ],
      "name": "setLinkOracle",
      "outputs": [],
      "stateMutability": "nonpayable",
      "type": "function"
    },
    {
      "inputs": [
        {
          "internalType": "address",
          "name": "_newProtocol",
          "type": "address"
        },
        {
          "internalType": "bool",
          "name": "_claimFirst",
          "type": "bool"
        }
      ],
      "name": "setProtocol",
      "outputs": [],
      "stateMutability": "nonpayable",
      "type": "function"
    },
    {
      "inputs": [
        {
          "internalType": "uint256",
          "name": "_newFee",
          "type": "uint256"
        }
      ],
      "name": "setProtocolFee",
      "outputs": [],
      "stateMutability": "nonpayable",
      "type": "function"
    },
    {
      "inputs": [
        {
          "internalType": "uint256",
          "name": "_newFee",
          "type": "uint256"
        }
      ],
      "name": "setSettlementFee",
      "outputs": [],
      "stateMutability": "nonpayable",
      "type": "function"
    },
    {
      "inputs": [
        {
          "internalType": "uint256",
          "name": "_newFee",
          "type": "uint256"
        }
      ],
      "name": "setStakerFee",
      "outputs": [],
      "stateMutability": "nonpayable",
      "type": "function"
    },
    {
      "inputs": [],
      "name": "settlementFee",
      "outputs": [
        {
          "internalType": "uint256",
          "name": "",
          "type": "uint256"
        }
      ],
      "stateMutability": "view",
      "type": "function"
    },
    {
      "inputs": [],
      "name": "shareFactor",
      "outputs": [
        {
          "internalType": "uint256",
          "name": "",
          "type": "uint256"
        }
      ],
      "stateMutability": "view",
      "type": "function"
    },
    {
      "inputs": [],
      "name": "sportId",
      "outputs": [
        {
          "internalType": "uint256",
          "name": "",
          "type": "uint256"
        }
      ],
      "stateMutability": "view",
      "type": "function"
    },
    {
      "inputs": [],
      "name": "stakerFee",
      "outputs": [
        {
          "internalType": "uint256",
          "name": "",
          "type": "uint256"
        }
      ],
      "stateMutability": "view",
      "type": "function"
    },
    {
      "inputs": [
        {
          "internalType": "address",
          "name": "_newOwner",
          "type": "address"
        }
      ],
      "name": "transferOwnership",
      "outputs": [
        {
          "internalType": "bool",
          "name": "",
          "type": "bool"
        }
      ],
      "stateMutability": "nonpayable",
      "type": "function"
    },
    {
      "inputs": [
        {
          "internalType": "bytes32",
          "name": "_payload",
          "type": "bytes32"
        }
      ],
      "name": "trustedResolveMarkets",
      "outputs": [],
      "stateMutability": "nonpayable",
      "type": "function"
    },
    {
      "inputs": [
        {
          "internalType": "bytes32",
          "name": "_requestId",
          "type": "bytes32"
        },
        {
          "internalType": "bytes32",
          "name": "_payload",
          "type": "bytes32"
        }
      ],
      "name": "trustedResolveMarketsCallback",
      "outputs": [],
      "stateMutability": "nonpayable",
      "type": "function"
    }
  ],
  "transactionHash": "0x7273139a9caedb21283849df45e87d759998cfa68299aef19c8ae072255dc738",
  "args": [
    "0x8C9c733eCd48426b9c53c38ccB60F3b307329bE1",
    "0x5799bFe361BEea69f808328FF4884DF92f1f66f0",
    "1000000000000",
    "0xEaAbF3E7C974f33354779232BC2d135B7C2CcAB7",
    0,
    "500000000000000",
    "0x8C9c733eCd48426b9c53c38ccB60F3b307329bE1",
    0,
    "0x8C9c733eCd48426b9c53c38ccB60F3b307329bE1",
    4
  ],
  "solcInputHash": "3054c4841cf2b595157e7caa37abe574",
  "bytecode": "0x608060405260006007556001600f553480156200001b57600080fd5b5060405162005bc338038062005bc38339810160408190526200003e916200016e565b600080546001600160a01b03808d166001600160a01b0319928316331783161790925560018054838d16908316811790915560098b905560028054848c1690841617905560038990556004888155600680549489169490931693909317909155600585905560405163095ea7b360e01b81528c928c928c928c928c928c928c928c929163095ea7b391620000d9918991600019910162000249565b602060405180830381600087803b158015620000f457600080fd5b505af115801562000109573d6000803e3d6000fd5b505050506040513d601f19601f820116820180604052508101906200012f919062000220565b5050601380546001600160a01b0319166001600160a01b039a909a1699909917909855505050601493909355506200027b9a5050505050505050505050565b6000806000806000806000806000806101408b8d0312156200018e578586fd5b8a516200019b8162000262565b60208c0151909a50620001ae8162000262565b60408c015160608d0151919a509850620001c88162000262565b8097505060808b0151955060a08b0151945060c08b0151620001ea8162000262565b60e08c01516101008d01519195509350620002058162000262565b809250506101208b015190509295989b9194979a5092959850565b60006020828403121562000232578081fd5b8151801515811462000242578182fd5b9392505050565b6001600160a01b03929092168252602082015260400190565b6001600160a01b03811681146200027857600080fd5b50565b615938806200028b6000396000f3fe60806040523480156200001157600080fd5b5060043610620002d45760003560e01c80638ce744261162000189578063d5db3efb11620000e1578063e2ef48c21162000093578063e2ef48c21462000650578063e5678dfa146200065a578063e8766d761462000671578063eb44fdd31462000688578063ec97908214620006ae578063f2fde38b14620006b857620002d4565b8063d5db3efb14620005ca578063d8dfeb4514620005d4578063d9113f0d14620005de578063db747ac914620005f7578063de0b70001462000622578063e2c30b15146200063957620002d4565b8063a544a62c116200013b578063a544a62c146200054b578063b06c1ba31462000555578063b0e21e8a146200057b578063b65ad5fd1462000585578063cc87adea146200059c578063d5da4f1d14620005b357620002d4565b80638ce7442614620004db5780638e0ed19314620004e557806397eef18714620004fc578063992c907914620005135780639a8e750e146200052a578063a1794496146200053457620002d4565b80634c9f66c7116200023d5780637641ab0111620001ef5780637641ab011462000478578063787dce3d14620004825780637d1d7fb814620004995780638580c50414620004a357806385ff6f9f14620004ba578063893d20e814620004d157620002d4565b80634c9f66c714620003ea57806352e512e1146200040357806353ac55f5146200040d578063575717b014620004335780636399d03d146200044a5780636b37a2df146200046157620002d4565b806332ecabe9116200029757806332ecabe9146200036b57806335a9cdad1462000382578063473a6d5214620003a857806349a4d93414620003bf5780634a7d036914620003d65780634b2d9ffc14620003e057620002d4565b80630ca556ea14620002d95780631b08146714620002f2578063221fff8114620002fc5780632243118a1462000313578063274591791462000342575b600080fd5b620002f0620002ea36600462003cf6565b620006cf565b005b620002f062000709565b620002f06200030d36600462003fab565b62000983565b6200032a6200032436600462003e37565b62000c12565b60405162000339919062004166565b60405180910390f35b620003596200035336600462003e37565b62000d3b565b604051620003399493929190620045d1565b620002f06200037c36600462003d13565b62000d5f565b620003996200039336600462003fab565b62000de3565b604051620003399190620041ea565b62000399620003b936600462003e37565b620010aa565b62000399620003d036600462003cf6565b620010fd565b620003996200110f565b6200039962001230565b620003f462001236565b60405162000339919062004115565b620002f062001245565b620004246200041e36600462003e37565b62001397565b604051620003399190620041df565b620002f06200044436600462003e37565b62001491565b620002f06200045b36600462003e37565b6200167c565b620002f06200047236600462003e50565b62001696565b6200039962001742565b620002f06200049336600462003e37565b62001748565b62000399620017a2565b62000399620004b436600462003f02565b620017a8565b620002f0620004cb36600462003cf6565b620017e2565b620003f462001805565b620003f462001814565b62000399620004f636600462003cf6565b62001823565b620002f06200050d36600462003e37565b6200190e565b620003996200052436600462003f7d565b6200195d565b620002f062001c7d565b620004246200054536600462003e37565b62001dcf565b6200039962001df3565b6200056c6200056636600462003e37565b62001df9565b6040516200033991906200446d565b6200039962001eb8565b620004246200059636600462003e37565b62001ebe565b62000399620005ad36600462003e37565b62001ed5565b620002f0620005c436600462003e37565b62001edc565b6200039962001f2b565b620003f462001f31565b620005e862001f40565b60405162000339919062004199565b6200060e6200060836600462003e37565b62002019565b60405162000339969594939291906200458e565b620002f06200063336600462003e50565b6200204d565b620002f06200064a36600462003cf6565b620020f4565b620002f062002159565b620003996200066b36600462003d4e565b620022a9565b620003996200068236600462003e72565b620022f7565b6200069f6200069936600462003e37565b62002337565b604051620003399190620044d3565b6200039962002485565b62000424620006c936600462003cf6565b6200248b565b6000546001600160a01b03163314620006e757600080fd5b601580546001600160a01b0319166001600160a01b0392909216919091179055565b6000546001600160a01b031633146200072157600080fd5b6040517f336665636634326136316139346363363834323333336262643035373565313290600090620007599030906020016200404c565b60408051601f1981840301815291905290506000620007808330620de0b760ec1b620024f5565b60408051808201909152600f81526e636f6e74726163744164647265737360881b6020820152909150620007b79082908462002520565b6200080a604051806040016040528060068152602001651b595d1a1bd960d21b8152506040518060400160405280600681526020016563726561746560d01b81525083620025209092919063ffffffff16565b62000859604051806040016040528060078152602001661cdc1bdc9d125960ca1b815250604051806040016040528060018152602001600d60fa1b81525083620025209092919063ffffffff16565b620008ae6040518060400160405280600d81526020016c64617973496e416476616e636560981b815250604051806040016040528060018152602001603760f81b81525083620025209092919063ffffffff16565b620009046040518060400160405280600b81526020016a39ba30b93a213ab33332b960a91b815250604051806040016040528060048152602001630333630360e41b81525083620025209092919063ffffffff16565b6200095c6040518060400160405280600c81526020016b616666696c6961746549647360a01b815250604051806040016040528060058152602001645b392c335d60d81b81525083620025209092919063ffffffff16565b6015546200097d906001600160a01b03168267016345785d8a000062002542565b50505050565b6000600a84815481106200099357fe5b60009182526020918290206040805161010081018252600890930290910180546001600160a01b0316835260018101805483518187028101870190945280845293949193858301939283018282801562000a1757602002820191906000526020600020905b81546001600160a01b03168152600190910190602001808311620009f8575b50505091835250506002820154602082015260038201546001600160a01b03166040808301919091526004830154606083015260058301546080830152600683015460a083015260079092015460c09091015281015190915062000a985760405162461bcd60e51b815260040162000a8f90620043cc565b60405180910390fd5b600062000aa584620010aa565b6001546040516323b872dd60e01b81529192506001600160a01b0316906323b872dd9062000adc9033903090869060040162004129565b602060405180830381600087803b15801562000af757600080fd5b505af115801562000b0c573d6000803e3d6000fd5b505050506040513d601f19601f8201168201806040525081019062000b32919062003e18565b5060005b82602001515181101562000bcd578260200151818151811062000b5557fe5b60200260200101516001600160a01b031663c024cd2685876040518363ffffffff1660e01b815260040162000b8c9291906200414d565b600060405180830381600087803b15801562000ba757600080fd5b505af115801562000bbc573d6000803e3d6000fd5b50506001909201915062000b369050565b507fd81c0442e10068a9818f3aa093c9ccb804584690df572d7df3da2d892a6973f285858560405162000c039392919062004696565b60405180910390a15050505050565b62000c1c62003ae4565b6013546001600160a01b0316331462000c495760405162461bcd60e51b815260040162000a8f906200438b565b60008060008060008062000c5d8862002019565b61ffff16955060010b955063ffffffff16955061ffff16955061ffff1695506001600160801b031695506000339050600062000ca56101e0866200271c90919063ffffffff16565b905062000cb28862001ebe565b1562000cd25760405162461bcd60e51b815260040162000a8f9062004436565b62000ce282828a8a8a8a6200272f565b895262000cf582828a8a8a8a8a62002a0a565b60208a015262000d0b82828a8a8a8a8962002ce4565b6040808b0191909152600089815260126020522062000d2d908a600362003b02565b505050505050505050919050565b608081901c9160ff607883901c169161ffff606882901c81169260589290921c1690565b6000546001600160a01b0316331462000d7757600080fd5b801562000d8a5762000d886200110f565b505b600680546001600160a01b0319166001600160a01b0384161790556040517f15b84596b3c567ae2998116949ae5f2d47f3055c12d9053db4d6e50f4c794dd99062000dd790849062004115565b60405180910390a15050565b600080600a858154811062000df457fe5b60009182526020918290206040805161010081018252600890930290910180546001600160a01b0316835260018101805483518187028101870190945280845293949193858301939283018282801562000e7857602002820191906000526020600020905b81546001600160a01b0316815260019091019060200180831162000e59575b50505091835250506002820154602082015260038201546001600160a01b03166040808301919091526004830154606083015260058301546080830152600683015460a083015260079092015460c09091015281015190915062000ef05760405162461bcd60e51b815260040162000a8f90620043cc565b60005b81602001515181101562000f8a578160200151818151811062000f1257fe5b60200260200101516001600160a01b03166342986e1333876040518363ffffffff1660e01b815260040162000f499291906200414d565b600060405180830381600087803b15801562000f6457600080fd5b505af115801562000f79573d6000803e3d6000fd5b50506001909201915062000ef39050565b50600062000f9885620010aa565b9050600062000fc9670de0b6b3a764000062000fc28560a001518562002fa990919063ffffffff16565b9062002fd4565b905062000fd7828262002fea565b60015460405163a9059cbb60e01b81529193506001600160a01b03169063a9059cbb906200100c90889086906004016200414d565b602060405180830381600087803b1580156200102757600080fd5b505af11580156200103c573d6000803e3d6000fd5b505050506040513d601f19601f8201168201806040525081019062001062919062003e18565b507fb6fdb729b2ed801daf629f0ab713e4a7a73619505790f6f27fd92d6f2c9688d7878733604051620010989392919062004696565b60405180910390a15095945050505050565b60006009548210158015620010c957506009548281620010c657fe5b06155b620010e85760405162461bcd60e51b815260040162000a8f906200431a565b6009548281620010f457fe5b0490505b919050565b60086020526000908152604090205481565b6006546000906001600160a01b03163314806200112b57503330145b6200114a5760405162461bcd60e51b815260040162000a8f906200426a565b60078054600090915560015460065460405163a9059cbb60e01b81526001600160a01b039283169263a9059cbb926200118b9291169085906004016200414d565b602060405180830381600087803b158015620011a657600080fd5b505af1158015620011bb573d6000803e3d6000fd5b505050506040513d601f19601f82011682018060405250810190620011e1919062003e18565b506006546040517f0f7f5b155b0b0ac6890709a2c7bf1b8bb3f675fff1e7840b4dd3c9acde59048b9162001223916001600160a01b039091169084906200414d565b60405180910390a1905090565b60035481565b6002546001600160a01b031681565b6000546001600160a01b031633146200125d57600080fd5b6040517f343039366561393138363766343762663962366430343333326162343339376390600090620012959030906020016200404c565b60408051601f1981840301815291905290506000620012bd8330636b37a2df60e01b620024f5565b60408051808201909152600f81526e636f6e74726163744164647265737360881b6020820152909150620012f49082908462002520565b62001348604051806040016040528060068152602001651b595d1a1bd960d21b815250604051806040016040528060078152602001667265736f6c766560c81b81525083620025209092919063ffffffff16565b6200095c604051806040016040528060078152602001661cdc1bdc9d125960ca1b815250604051806040016040528060018152602001600d60fa1b81525083620025209092919063ffffffff16565b600080600a8381548110620013a857fe5b60009182526020918290206040805161010081018252600890930290910180546001600160a01b031683526001810180548351818702810187019094528084529394919385830193928301828280156200142c57602002820191906000526020600020905b81546001600160a01b031681526001909101906020018083116200140d575b50505091835250506002820154602082015260038201546001600160a01b039081166040830152600483015460608084019190915260058401546080840152600684015460a084015260079093015460c0909201919091529101511615159392505050565b6013546001600160a01b03163314620014be5760405162461bcd60e51b815260040162000a8f90620043f4565b600080600080620014cf8562000d3b565b6001600160801b039390931660008181526012602052604080822081516060810192839052939a5060ff95909516985061ffff9384169750929094169450919060039082845b815481526020019060010190808311620015155750939450600193506200153b92505050565b8460048111156200154857fe5b60048111156200155457fe5b1415620015755760405162461bcd60e51b815260040162000a8f9062004235565b60028460048111156200158457fe5b60048111156200159057fe5b14620016405760005b600381101562001634578151600a805482908110620015b457fe5b9060005260206000209060080201600101600081548110620015d257fe5b600091825260209091200154600a80546001600160a01b039092169183908110620015f957fe5b6000918252602090912060089091020160030180546001600160a01b0319166001600160a01b03929092169190911790555060010162001599565b50505050505062001679565b80516200164f90848462003000565b60208101516200166190848462003152565b60408101516200167390848462003363565b50505050505b50565b60405162461bcd60e51b815260040162000a8f90620042ae565b60008281526010602052604090205482906001600160a01b03163314620016ef5760405162461bcd60e51b8152600401808060200182810382526028815260200180620058db6028913960400191505060405180910390fd5b60008181526010602052604080822080546001600160a01b03191690555182917f7cc135e0cebb02c3480ae5d74d377283180a2601f8f644edf7987b009316c63a91a26200173d8262001491565b505050565b60095481565b6000546001600160a01b031633146200176057600080fd5b60058190556040517fada2cde3c4a561f5c23e2fdbfb223e1f0d1ec7109b9811b32644e6e974d6631f9062001797908390620041ea565b60405180910390a150565b60045481565b60008085858585604051602001620017c49493929190620040c9565b60408051601f19818403018152919052602001519695505050505050565b6000546001600160a01b03163314620017fa57600080fd5b62001679816200341d565b6000546001600160a01b031690565b6006546001600160a01b031681565b33600090815260086020526040808220805490839055600154915163a9059cbb60e01b815290916001600160a01b03169063a9059cbb906200186c90869085906004016200414d565b602060405180830381600087803b1580156200188757600080fd5b505af11580156200189c573d6000803e3d6000fd5b505050506040513d601f19601f82011682018060405250810190620018c2919062003e18565b50826001600160a01b03167fc9985ad824d943d66367ce5feea26e18979b3e1c9273742926d87e2b0d7473873383604051620019009291906200414d565b60405180910390a292915050565b6000546001600160a01b031633146200192657600080fd5b60038190556040517fcc4df50442ac32f0142ba4853f617661e0823be0e92148e7e5f36ce56c1398259062001797908390620041ea565b60006200196a8362001397565b6200197a576200197a836200167c565b6000600a84815481106200198a57fe5b60009182526020918290206040805161010081018252600890930290910180546001600160a01b0316835260018101805483518187028101870190945280845293949193858301939283018282801562001a0e57602002820191906000526020600020905b81546001600160a01b03168152600190910190602001808311620019ef575b50505050508152602001600282015481526020016003820160009054906101000a90046001600160a01b03166001600160a01b03166001600160a01b031681526020016004820154815260200160058201548152602001600682015481526020016007820154815250509050600081606001516001600160a01b03166371297784336040518263ffffffff1660e01b815260040162001aae919062004115565b602060405180830381600087803b15801562001ac957600080fd5b505af115801562001ade573d6000803e3d6000fd5b505050506040513d601f19601f8201168201806040525081019062001b04919062003f64565b9050600954600954828162001b1557fe5b04029050600062001b2682620010aa565b9050600062001b50670de0b6b3a764000062000fc286608001518562002fa990919063ffffffff16565b9050600062001b7a670de0b6b3a764000062000fc28760c001518662002fa990919063ffffffff16565b905062001b948162001b8d858562002fea565b9062002fea565b60015460405163a9059cbb60e01b81529194506001600160a01b03169063a9059cbb9062001bc9908a9087906004016200414d565b602060405180830381600087803b15801562001be457600080fd5b505af115801562001bf9573d6000803e3d6000fd5b505050506040513d601f19601f8201168201806040525081019062001c1f919062003e18565b50866001600160a01b03167fe67bd0100cd3289557430d36098901ba18161e6279c9711d8650b8af1055210489876060015187868860405162001c679594939291906200466a565b60405180910390a2509093505050505b92915050565b6000546001600160a01b0316331462001c9557600080fd5b6040517f62636562326261656536376434643363613663393033663630343064636430339060009062001ccd9030906020016200404c565b60408051601f198184030181529190529050600062001cf58330636b37a2df60e01b620024f5565b60408051808201909152600f81526e636f6e74726163744164647265737360881b602082015290915062001d2c9082908462002520565b62001d80604051806040016040528060068152602001651b595d1a1bd960d21b815250604051806040016040528060078152602001667265736f6c766560c81b81525083620025209092919063ffffffff16565b6200095c604051806040016040528060078152602001661cdc1bdc9d125960ca1b815250604051806040016040528060018152602001603360f81b81525083620025209092919063ffffffff16565b60008181526012602052604081206002015462001dec8162001397565b9392505050565b60075481565b62001e0362003b45565b601160008381526020019081526020016000206040518060e0016040529081600082015481526020016001820154815260200160028201548152602001600382015481526020016004820160009054906101000a900460ff16600281111562001e6857fe5b600281111562001e7457fe5b81526020016004820160019054906101000a900460ff16600481111562001e9757fe5b600481111562001ea357fe5b81526020016005820154815250509050919050565b60055481565b600090815260126020526040902060020154151590565b6009540290565b6000546001600160a01b0316331462001ef457600080fd5b60048190556040517f92d395c429898992f8532ee7145901513e524c2085fd7fd1da39b8badcd6df319062001797908390620041ea565b60145481565b6001546001600160a01b031681565b60606000805b600a5481101562001f715762001f5c8162001397565b62001f68576001909101905b60010162001f46565b5060008167ffffffffffffffff8111801562001f8c57600080fd5b5060405190808252806020026020018201604052801562001fb7578160200160208202803683370190505b5090506000805b600a54811015620020105783821062001fd75762002010565b62001fe28162001397565b62002007578083838151811062001ff557fe5b60209081029190910101526001909101905b60010162001fbe565b50909250505090565b608081901c9161ffff607083901c811692606081901c82169263ffffffff604083901c1692603083901c81169260201c1690565b60008281526010602052604090205482906001600160a01b03163314620020a65760405162461bcd60e51b8152600401808060200182810382526028815260200180620058db6028913960400191505060405180910390fd5b60008181526010602052604080822080546001600160a01b03191690555182917f7cc135e0cebb02c3480ae5d74d377283180a2601f8f644edf7987b009316c63a91a26200097d8262000c12565b6000546001600160a01b031633146200210c57600080fd5b601380546001600160a01b0319166001600160a01b0383161790556040517f6b7517523482c8d89ffbc530829d5decd506cf6dc60874b11fa26c8a53bb9fa9906200179790839062004115565b6000546001600160a01b031633146200217157600080fd5b6040517f333066316339376231326437346537656130313332653862393835333032393290600090620021a99030906020016200404c565b60408051601f1981840301815291905290506000620021d08330620de0b760ec1b620024f5565b60408051808201909152600f81526e636f6e74726163744164647265737360881b6020820152909150620022079082908462002520565b6200225a604051806040016040528060068152602001651b595d1a1bd960d21b8152506040518060400160405280600681526020016563726561746560d01b81525083620025209092919063ffffffff16565b62000859604051806040016040528060078152602001661cdc1bdc9d125960ca1b815250604051806040016040528060018152602001603360f81b81525083620025209092919063ffffffff16565b600080805b8451811015620022ef57620022e4620022dc868381518110620022cd57fe5b6020026020010151866200195d565b83906200271c565b9150600101620022ae565b509392505050565b600080878787878787604051602001620023179695949392919062004069565b60408051601f198184030181529190526020015198975050505050505050565b6200234162003b8e565b600a548211156200239c575060408051610100810182526000808252825181815260208082018552830152918101829052606081018290526080810182905260a0810182905260c0810182905260e0810191909152620010f8565b600a8281548110620023aa57fe5b60009182526020918290206040805161010081018252600890930290910180546001600160a01b031683526001810180548351818702810187019094528084529394919385830193928301828280156200242e57602002820191906000526020600020905b81546001600160a01b031681526001909101906020018083116200240f575b50505091835250506002820154602082015260038201546001600160a01b031660408201526004820154606082015260058201546080820152600682015460a082015260079091015460c0909101529050620010f8565b600a5490565b600080546001600160a01b03163314620024a457600080fd5b6001600160a01b038216620024b857600080fd5b600054620024d0906001600160a01b0316836200343f565b50600080546001600160a01b0383166001600160a01b03199091161790556001919050565b620024ff62003be5565b6200250962003be5565b620025178186868662003443565b95945050505050565b608083015162002531908362003484565b60808301516200173d908262003484565b600f546040805130606090811b60208084019190915260348084018690528451808503909101815260549093018452825192810192909220908601939093526000838152601090915281812080546001600160a01b0319166001600160a01b038816179055905182917fb5e6e01e79f91267dc17b4e6314d5d4d03593d2ceee0fbb452b750bd70ea5af991a2600d546001600160a01b0316634000aea08584620025ee8760026200349f565b6040518463ffffffff1660e01b815260040180846001600160a01b0316815260200183815260200180602001828103825283818151815260200191508051906020019080838360005b838110156200265157818101518382015260200162002637565b50505050905090810190601f1680156200267f5780820380516001836020036101000a031916815260200191505b50945050505050602060405180830381600087803b158015620026a157600080fd5b505af1158015620026b6573d6000803e3d6000fd5b505050506040513d6020811015620026cd57600080fd5b50516200270c5760405162461bcd60e51b8152600401808060200182810382526023815260200180620058b86023913960400191505060405180910390fd5b600f805460010190559392505050565b60008282018381101562001dec57600080fd5b60408051600380825260808201909252600091829190816020015b60608152602001906001900390816200274a5790505090506040518060400160405280600a815260200169139bc810dbdb9d195cdd60b21b815250816000815181106200279357fe5b6020026020010181905250604051806040016040528060048152602001634177617960e01b81525081600181518110620027c957fe5b602002602001018190525060405180604001604052806004815260200163486f6d6560e01b81525081600281518110620027ff57fe5b6020908102919091010152600a8054906200281d8a84808c620035c6565b8154600180820184556000938452602093849020835160089093020180546001600160a01b0319166001600160a01b0390931692909217825582840151805193949293620028749392850192919091019062003c1c565b506040820151816002015560608201518160030160006101000a8154816001600160a01b0302191690836001600160a01b031602179055506080820151816004015560a0820151816005015560c0820151816006015560e0820151816007015550506040518060e00160405280888152602001878152602001868152602001858152602001600060028111156200290757fe5b8152602001600181526020016000815250601160008381526020019081526020016000206000820151816000015560208201518160010155604082015181600201556060820151816003015560808201518160040160006101000a81548160ff021916908360028111156200297857fe5b021790555060a08201518160040160016101000a81548160ff02191690836004811115620029a257fe5b021790555060c08201518160050155905050867fafad6545e5200f9fdf4db34dfca61a9e7d72518593fd5155d11fd69c20e1555f828b8b60008b8b8b6000604051620029f698979695949392919062004618565b60405180910390a298975050505050505050565b60408051600380825260808201909252600091829190816020015b606081526020019060019003908162002a255790505090506040518060400160405280600a815260200169139bc810dbdb9d195cdd60b21b8152508160008151811062002a6e57fe5b6020026020010181905250604051806040016040528060048152602001634177617960e01b8152508160018151811062002aa457fe5b602002602001018190525060405180604001604052806004815260200163486f6d6560e01b8152508160028151811062002ada57fe5b6020908102919091010152600a80549062002af88b84808d620035c6565b8154600180820184556000938452602093849020835160089093020180546001600160a01b0319166001600160a01b039093169290921782558284015180519394929362002b4f9392850192919091019062003c1c565b506040820151816002015560608201518160030160006101000a8154816001600160a01b0302191690836001600160a01b031602179055506080820151816004015560a0820151816005015560c0820151816006015560e0820151816007015550506040518060e001604052808981526020018881526020018781526020018681526020016001600281111562002be257fe5b81526020016001815260200185815250601160008381526020019081526020016000206000820151816000015560208201518160010155604082015181600201556060820151816003015560808201518160040160006101000a81548160ff0219169083600281111562002c5257fe5b021790555060a08201518160040160016101000a81548160ff0219169083600481111562002c7c57fe5b021790555060c08201518160050155905050877fafad6545e5200f9fdf4db34dfca61a9e7d72518593fd5155d11fd69c20e1555f828c8c60018c8c8c8c60405162002ccf98979695949392919062004618565b60405180910390a29998505050505050505050565b60408051600380825260808201909252600091829190816020015b606081526020019060019003908162002cff5790505090506040518060400160405280600a815260200169139bc810dbdb9d195cdd60b21b8152508160008151811062002d4857fe5b60200260200101819052506040518060400160405280600481526020016327bb32b960e11b8152508160018151811062002d7e57fe5b6020026020010181905250604051806040016040528060058152602001642ab73232b960d91b8152508160028151811062002db557fe5b6020908102919091010152600a80549062002dd38b84808d620035c6565b8154600180820184556000938452602093849020835160089093020180546001600160a01b0319166001600160a01b039093169290921782558284015180519394929362002e2a9392850192919091019062003c1c565b506040820151816002015560608201518160030160006101000a8154816001600160a01b0302191690836001600160a01b031602179055506080820151816004015560a0820151816005015560c0820151816006015560e0820151816007015550506040518060e0016040528089815260200188815260200187815260200186815260200160028081111562002ebc57fe5b81526020016001815260200185815250601160008381526020019081526020016000206000820151816000015560208201518160010155604082015181600201556060820151816003015560808201518160040160006101000a81548160ff0219169083600281111562002f2c57fe5b021790555060a08201518160040160016101000a81548160ff0219169083600481111562002f5657fe5b021790555060c08201518160050155905050877fafad6545e5200f9fdf4db34dfca61a9e7d72518593fd5155d11fd69c20e1555f828c8c60028c8c8c8c60405162002ccf98979695949392919062004618565b60008262002fba5750600062001c77565b8282028284828162002fc857fe5b041462001dec57600080fd5b60008082848162002fe157fe5b04949350505050565b60008282111562002ffa57600080fd5b50900390565b6000818311156200305457600a84815481106200301957fe5b90600052602060002090600802016001016002815481106200303757fe5b6000918252602090912001546001600160a01b03169050620030cd565b818310156200308957600a84815481106200306b57fe5b90600052602060002090600802016001016001815481106200303757fe5b600a84815481106200309757fe5b9060005260206000209060080201600101600081548110620030b557fe5b6000918252602090912001546001600160a01b031690505b80600a8581548110620030dc57fe5b906000526020600020906008020160030160006101000a8154816001600160a01b0302191690836001600160a01b031602179055507fc68d106ea6e4bec784925cfd91767212c71ced92adbac107dc364435321113f684826040516200314492919062004601565b60405180910390a150505050565b6000838152601160209081526040808320815160e08101835281548152600182015493810193909352600280820154928401929092526003810154606084015260048101549091608084019160ff1690811115620031ac57fe5b6002811115620031b857fe5b81526020016004820160019054906101000a900460ff166004811115620031db57fe5b6004811115620031e757fe5b81526005919091015460209091015260c081015190915060006200320c858562003639565b90506000828213156200326257600a87815481106200322757fe5b90600052602060002090600802016001016002815481106200324557fe5b6000918252602090912001546001600160a01b03169050620032db565b828212156200329757600a87815481106200327957fe5b90600052602060002090600802016001016001815481106200324557fe5b600a8781548110620032a557fe5b9060005260206000209060080201600101600081548110620032c357fe5b6000918252602090912001546001600160a01b031690505b80600a8881548110620032ea57fe5b906000526020600020906008020160030160006101000a8154816001600160a01b0302191690836001600160a01b031602179055507fc68d106ea6e4bec784925cfd91767212c71ced92adbac107dc364435321113f687826040516200335292919062004601565b60405180910390a150505050505050565b6000838152601160209081526040808320815160e08101835281548152600182015493810193909352600280820154928401929092526003810154606084015260048101549091608084019160ff1690811115620033bd57fe5b6002811115620033c957fe5b81526020016004820160019054906101000a900460ff166004811115620033ec57fe5b6004811115620033f857fe5b81526005919091015460209091015260c081015190915060006200320c85856200367d565b600d80546001600160a01b0319166001600160a01b0392909216919091179055565b5050565b6200344d62003be5565b6200345f8560800151610100620036c6565b50509183526001600160a01b031660208301526001600160e01b031916604082015290565b62003493826003835162003703565b6200173d8282620037ef565b6060634042994660e01b6000808560000151866020015187604001518860600151888a608001516000015160405160240180896001600160a01b03168152602001888152602001878152602001866001600160a01b03168152602001856001600160e01b031916815260200184815260200183815260200180602001828103825283818151815260200191508051906020019080838360005b838110156200355257818101518382015260200162003538565b50505050905090810190601f168015620035805780820380516001836020036101000a031916815260200191505b5060408051601f198184030181529190526020810180516001600160e01b03166001600160e01b0319909d169c909c17909b525098995050505050505050505092915050565b620035d062003b8e565b604051806101000160405280866001600160a01b03168152602001620035f88686306200380d565b815260200183815260200160006001600160a01b03168152602001600454815260200160055481526020016003548152602001428152509050949350505050565b60008083121580156200365557506001600160ff1b0383038212155b80620036735750600083128015620036735750600160ff1b83038213155b62002ffa57600080fd5b6000808312158015620036995750826001600160ff1b03038213155b80620036b75750600083128015620036b7575082600160ff1b038212155b620036c157600080fd5b500190565b620036d062003c74565b6020820615620036e65760208206602003820191505b506020828101829052604080518085526000815290920101905290565b601781116200372857620037218360e0600585901b16831762003903565b506200173d565b60ff8111620037575762003748836018611fe0600586901b161762003903565b5062003721838260016200391f565b61ffff8111620037875762003778836019611fe0600586901b161762003903565b5062003721838260026200391f565b63ffffffff8111620037b957620037aa83601a611fe0600586901b161762003903565b5062003721838260046200391f565b67ffffffffffffffff81116200173d57620037e083601b611fe0600586901b161762003903565b506200097d838260086200391f565b620037f962003c74565b62001dec8384600001515184855162003944565b825160609060008167ffffffffffffffff811180156200382c57600080fd5b5060405190808252806020026020018201604052801562003857578160200160208202803683370190505b50905060005b82811015620038f9578681815181106200387357fe5b60200260200101518682815181106200388857fe5b6020026020010151866040516200389f9062003c8e565b620038ad93929190620041f3565b604051809103906000f080158015620038ca573d6000803e3d6000fd5b50828281518110620038d857fe5b6001600160a01b03909216602092830291909101909101526001016200385d565b5095945050505050565b6200390d62003c74565b62001dec8384600001515184620039fb565b6200392962003c74565b6200393c84856000015151858562003a4c565b949350505050565b6200394e62003c74565b82518211156200395d57600080fd5b846020015182850111156200398c576200398c8562003983876020015187860162003ab0565b60020262003ac9565b600080865180518760208301019350808887011115620039ac5787860182525b505050602084015b60208410620039d55780518252601f199093019260209182019101620039b4565b51815160001960208690036101000a019081169019919091161790525083949350505050565b62003a0562003c74565b8360200151831062003a245762003a2484856020015160020262003ac9565b83518051602085830101848153508085141562003a42576001810182525b5093949350505050565b62003a5662003c74565b8460200151848301111562003a765762003a768585840160020262003ac9565b60006001836101000a03905085518386820101858319825116178152508051848701111562003aa55783860181525b509495945050505050565b60008183111562003ac357508162001c77565b50919050565b815162003ad78383620036c6565b506200097d8382620037ef565b60405180606001604052806003906020820280368337509192915050565b826003810192821562003b33579160200282015b8281111562003b3357825182559160200191906001019062003b16565b5062003b4192915062003c9c565b5090565b6040518060e00160405280600081526020016000815260200160008152602001600081526020016000600281111562003b7a57fe5b815260200160008152602001600081525090565b60405180610100016040528060006001600160a01b03168152602001606081526020016000815260200160006001600160a01b03168152602001600081526020016000815260200160008152602001600081525090565b6040805160a08101825260008082526020820181905291810182905260608101919091526080810162003c1762003c74565b905290565b82805482825590600052602060002090810192821562003b33579160200282015b8281111562003b3357825182546001600160a01b0319166001600160a01b0390911617825560209092019160019091019062003c3d565b604051806040016040528060608152602001600081525090565b6111f380620046c583390190565b5b8082111562003b41576000815560010162003c9d565b80356001600160a01b0381168114620010f857600080fd5b80356001600160801b0381168114620010f857600080fd5b803561ffff81168114620010f857600080fd5b60006020828403121562003d08578081fd5b62001dec8262003cb3565b6000806040838503121562003d26578081fd5b62003d318362003cb3565b9150602083013562003d4381620046b5565b809150509250929050565b6000806040838503121562003d61578182fd5b823567ffffffffffffffff8082111562003d79578384fd5b818501915085601f83011262003d8d578384fd5b813560208282111562003d9c57fe5b8082026040518282820101818110868211171562003db657fe5b604052838152828101945085830182870184018b101562003dd5578889fd5b8896505b8487101562003df957803586526001969096019594830194830162003dd9565b50965062003e0b905087820162003cb3565b9450505050509250929050565b60006020828403121562003e2a578081fd5b815162001dec81620046b5565b60006020828403121562003e49578081fd5b5035919050565b6000806040838503121562003e63578182fd5b50508035926020909101359150565b60008060008060008060c0878903121562003e8b578182fd5b62003e968762003ccb565b955062003ea66020880162003ce3565b945062003eb66040880162003ce3565b9350606087013563ffffffff8116811462003ecf578283fd5b92506080870135600181900b811462003ee6578283fd5b915062003ef660a0880162003ce3565b90509295509295509295565b6000806000806080858703121562003f18578384fd5b62003f238562003ccb565b9350602085013560ff8116811462003f39578384fd5b925062003f496040860162003ce3565b915062003f596060860162003ce3565b905092959194509250565b60006020828403121562003f76578081fd5b5051919050565b6000806040838503121562003f90578182fd5b8235915062003fa26020840162003cb3565b90509250929050565b60008060006060848603121562003fc0578081fd5b833592506020840135915062003fd96040850162003cb3565b90509250925092565b6001600160a01b03169052565b6003811062003ffa57fe5b9052565b60008151808452815b81811015620040255760208185018101518683018201520162004007565b81811115620040375782602083870101525b50601f01601f19169290920160200192915050565b60609190911b6bffffffffffffffffffffffff1916815260140190565b60809690961b6001600160801b031916865260f094851b6001600160f01b0319908116601088015293851b8416601287015260e09290921b6001600160e01b031916601486015260010b831b601885015290911b16601a820152601c0190565b60809490941b6001600160801b031916845260f89290921b6001600160f81b031916601084015260f090811b6001600160f01b0319908116601185015291901b16601382015260150190565b6001600160a01b0391909116815260200190565b6001600160a01b039384168152919092166020820152604081019190915260600190565b6001600160a01b03929092168252602082015260400190565b60608101818360005b6003811015620041905781518352602092830192909101906001016200416f565b50505092915050565b6020808252825182820181905260009190848201906040850190845b81811015620041d357835183529284019291840191600101620041b5565b50909695505050505050565b901515815260200190565b90815260200190565b60006060825262004208606083018662003ffe565b82810360208401526200421c818662003ffe565b91505060018060a01b0383166040830152949350505050565b6020808252818101527f63616e6e6f74207265736f6c7665205343484544554c4544206d61726b657473604082015260600190565b60208082526024908201527f4f6e6c792070726f746f636f6c2063616e20636c61696d2070726f746f636f6c6040820152632066656560e01b606082015260800190565b60208082526046908201527f4f6e6c7920746865206c696e6b206e6f64652063616e207265736f6c7665207460408201527f6865206d61726b65742c207573696e6720747275737465645265736f6c76654d60608201526561726b65747360d01b608082015260a00190565b6020808252604b908201527f536861726573206d75737420626520626f74682067726561746572207468616e60408201527f20286f7220657175616c20746f2920616e6420646976697369626c652062792060608201526a39b430b932a330b1ba37b960a91b608082015260a00190565b60208082526021908201527f4f6e6c79206c696e6b206e6f64652063616e20637265617465206d61726b65746040820152607360f81b606082015260800190565b6020808252600e908201526d139bc81cdd58da081b585c9ad95d60921b604082015260600190565b60208082526022908201527f4f6e6c79206c696e6b206e6f64652063616e207265736f6c7665206d61726b65604082015261747360f01b606082015260800190565b60208082526017908201527f4d61726b65747320616c72656164792063726561746564000000000000000000604082015260600190565b600060e082019050825182526020830151602083015260408301516040830152606083015160608301526080830151620044ab608084018262003fef565b5060a083015160058110620044bc57fe5b8060a08401525060c083015160c083015292915050565b602080825282516001600160a01b039081168383015283820151610100604085018190528151610120860181905260009493928401929185916101408801905b80841015620045375785518516825294860194600193909301929086019062004513565b50604089015160608901526060890151955062004558608089018762003fe2565b608089015160a089015260a089015160c089015260c089015160e089015260e08901518289015280965050505050505092915050565b6001600160801b0396909616865261ffff9485166020870152928416604086015263ffffffff91909116606085015260010b60808401521660a082015260c00190565b6001600160801b0394909416845260ff92909216602084015261ffff908116604084015216606082015260800190565b9182526001600160a01b0316602082015260400190565b8881526001600160a01b038816602082015260408101879052610100810162004645606083018862003fef565b8560808301528460a08301528360c08301528260e08301529998505050505050505050565b9485526001600160a01b0393909316602085015260408401919091526060830152608082015260a00190565b92835260208301919091526001600160a01b0316604082015260600190565b80151581146200167957600080fdfe60806040523480156200001157600080fd5b50604051620011f3380380620011f3833981810160405260608110156200003757600080fd5b81019080805160405193929190846401000000008211156200005857600080fd5b9083019060208201858111156200006e57600080fd5b82516401000000008111828201881017156200008957600080fd5b82525081516020918201929091019080838360005b83811015620000b85781810151838201526020016200009e565b50505050905090810190601f168015620000e65780820380516001836020036101000a031916815260200191505b50604052602001805160405193929190846401000000008211156200010a57600080fd5b9083019060208201858111156200012057600080fd5b82516401000000008111828201881017156200013b57600080fd5b82525081516020918201929091019080838360005b838110156200016a57818101518382015260200162000150565b50505050905090810190601f168015620001985780820380516001836020036101000a031916815260200191505b5060405260209081015185519093508592508491620001bd9160039185019062000219565b508051620001d390600490602084019062000219565b5050600580546001600160a01b039390931661010090810233909102610100600160a81b031960ff199095166012178516179093169290921790915550620002c5915050565b828054600181600116156101000203166002900490600052602060002090601f0160209004810192826200025157600085556200029c565b82601f106200026c57805160ff19168380011785556200029c565b828001600101855582156200029c579182015b828111156200029c5782518255916020019190600101906200027f565b50620002aa929150620002ae565b5090565b5b80821115620002aa5760008155600101620002af565b610f1e80620002d56000396000f3fe608060405234801561001057600080fd5b506004361061010b5760003560e01c806370a08231116100a2578063a457c2d711610071578063a457c2d714610343578063a9059cbb1461036f578063c024cd261461039b578063dd62ed3e146103c7578063f2fde38b146103f55761010b565b806370a08231146102cb57806371297784146102f1578063893d20e81461031757806395d89b411461033b5761010b565b806323b872dd116100de57806323b872dd1461021f578063313ce56714610255578063395093511461027357806342986e131461029f5761010b565b806306fdde0314610110578063095ea7b31461018d5780630fb66557146101cd57806318160ddd14610205575b600080fd5b61011861041b565b6040805160208082528351818301528351919283929083019185019080838360005b8381101561015257818101518382015260200161013a565b50505050905090810190601f16801561017f5780820380516001836020036101000a031916815260200191505b509250505060405180910390f35b6101b9600480360360408110156101a357600080fd5b506001600160a01b0381351690602001356104b1565b604080519115158252519081900360200190f35b610203600480360360608110156101e357600080fd5b506001600160a01b038135811691602081013590911690604001356104ce565b005b61020d6104fa565b60408051918252519081900360200190f35b6101b96004803603606081101561023557600080fd5b506001600160a01b03813581169160208101359091169060400135610500565b61025d610587565b6040805160ff9092168252519081900360200190f35b6101b96004803603604081101561028957600080fd5b506001600160a01b038135169060200135610590565b610203600480360360408110156102b557600080fd5b506001600160a01b0381351690602001356105de565b61020d600480360360208110156102e157600080fd5b50356001600160a01b0316610608565b61020d6004803603602081101561030757600080fd5b50356001600160a01b0316610623565b61031f61065f565b604080516001600160a01b039092168252519081900360200190f35b610118610673565b6101b96004803603604081101561035957600080fd5b506001600160a01b0381351690602001356106d4565b6101b96004803603604081101561038557600080fd5b506001600160a01b03813516906020013561073c565b610203600480360360408110156103b157600080fd5b506001600160a01b038135169060200135610750565b61020d600480360360408110156103dd57600080fd5b506001600160a01b0381358116916020013516610776565b6101b96004803603602081101561040b57600080fd5b50356001600160a01b03166107a1565b60038054604080516020601f60026000196101006001881615020190951694909404938401819004810282018101909252828152606093909290918301828280156104a75780601f1061047c576101008083540402835291602001916104a7565b820191906000526020600020905b81548152906001019060200180831161048a57829003601f168201915b5050505050905090565b60006104c56104be610818565b848461081c565b50600192915050565b60055461010090046001600160a01b031633146104ea57600080fd5b6104f5838383610908565b505050565b60025490565b600061050d848484610908565b61057d84610519610818565b61057885604051806060016040528060288152602001610e32602891396001600160a01b038a16600090815260016020526040812090610557610818565b6001600160a01b031681526020810191909152604001600020549190610a63565b61081c565b5060019392505050565b60055460ff1690565b60006104c561059d610818565b8461057885600160006105ae610818565b6001600160a01b03908116825260208083019390935260409182016000908120918c168152925290205490610afa565b60055461010090046001600160a01b031633146105fa57600080fd5b6106048282610b5b565b5050565b6001600160a01b031660009081526020819052604090205490565b60055460009061010090046001600160a01b0316331461064257600080fd5b600061064d83610608565b90506106598382610b5b565b92915050565b60055461010090046001600160a01b031690565b60048054604080516020601f60026000196101006001881615020190951694909404938401819004810282018101909252828152606093909290918301828280156104a75780601f1061047c576101008083540402835291602001916104a7565b60006104c56106e1610818565b8461057885604051806060016040528060258152602001610ec4602591396001600061070b610818565b6001600160a01b03908116825260208083019390935260409182016000908120918d16815292529020549190610a63565b60006104c5610749610818565b8484610908565b60055461010090046001600160a01b0316331461076c57600080fd5b6106048282610c57565b6001600160a01b03918216600090815260016020908152604080832093909416825291909152205490565b60055460009061010090046001600160a01b031633146107c057600080fd5b6001600160a01b0382166107d357600080fd5b6005546107ee9061010090046001600160a01b031683610604565b50600580546001600160a01b03831661010002610100600160a81b03199091161790556001919050565b3390565b6001600160a01b0383166108615760405162461bcd60e51b8152600401808060200182810382526024815260200180610ea06024913960400191505060405180910390fd5b6001600160a01b0382166108a65760405162461bcd60e51b8152600401808060200182810382526022815260200180610dea6022913960400191505060405180910390fd5b6001600160a01b03808416600081815260016020908152604080832094871680845294825291829020859055815185815291517f8c5be1e5ebec7d5bd14f71427d1e84f3dd0314c0f7b2291e5b200ac8c7c3b9259281900390910190a3505050565b6001600160a01b03831661094d5760405162461bcd60e51b8152600401808060200182810382526025815260200180610e7b6025913960400191505060405180910390fd5b6001600160a01b0382166109925760405162461bcd60e51b8152600401808060200182810382526023815260200180610da56023913960400191505060405180910390fd5b61099d8383836104f5565b6109da81604051806060016040528060268152602001610e0c602691396001600160a01b0386166000908152602081905260409020549190610a63565b6001600160a01b038085166000908152602081905260408082209390935590841681522054610a099082610afa565b6001600160a01b038084166000818152602081815260409182902094909455805185815290519193928716927fddf252ad1be2c89b69c2b068fc378daa952ba7f163c4a11628f55a4df523b3ef92918290030190a3505050565b60008184841115610af25760405162461bcd60e51b81526004018080602001828103825283818151815260200191508051906020019080838360005b83811015610ab7578181015183820152602001610a9f565b50505050905090810190601f168015610ae45780820380516001836020036101000a031916815260200191505b509250505060405180910390fd5b505050900390565b600082820183811015610b54576040805162461bcd60e51b815260206004820152601b60248201527f536166654d6174683a206164646974696f6e206f766572666c6f770000000000604482015290519081900360640190fd5b9392505050565b6001600160a01b038216610ba05760405162461bcd60e51b8152600401808060200182810382526021815260200180610e5a6021913960400191505060405180910390fd5b610bac826000836104f5565b610be981604051806060016040528060228152602001610dc8602291396001600160a01b0385166000908152602081905260409020549190610a63565b6001600160a01b038316600090815260208190526040902055600254610c0f9082610d47565b6002556040805182815290516000916001600160a01b038516917fddf252ad1be2c89b69c2b068fc378daa952ba7f163c4a11628f55a4df523b3ef9181900360200190a35050565b6001600160a01b038216610cb2576040805162461bcd60e51b815260206004820152601f60248201527f45524332303a206d696e7420746f20746865207a65726f206164647265737300604482015290519081900360640190fd5b610cbe600083836104f5565b600254610ccb9082610afa565b6002556001600160a01b038216600090815260208190526040902054610cf19082610afa565b6001600160a01b0383166000818152602081815260408083209490945583518581529351929391927fddf252ad1be2c89b69c2b068fc378daa952ba7f163c4a11628f55a4df523b3ef9281900390910190a35050565b600082821115610d9e576040805162461bcd60e51b815260206004820152601e60248201527f536166654d6174683a207375627472616374696f6e206f766572666c6f770000604482015290519081900360640190fd5b5090039056fe45524332303a207472616e7366657220746f20746865207a65726f206164647265737345524332303a206275726e20616d6f756e7420657863656564732062616c616e636545524332303a20617070726f766520746f20746865207a65726f206164647265737345524332303a207472616e7366657220616d6f756e7420657863656564732062616c616e636545524332303a207472616e7366657220616d6f756e74206578636565647320616c6c6f77616e636545524332303a206275726e2066726f6d20746865207a65726f206164647265737345524332303a207472616e736665722066726f6d20746865207a65726f206164647265737345524332303a20617070726f76652066726f6d20746865207a65726f206164647265737345524332303a2064656372656173656420616c6c6f77616e63652062656c6f77207a65726fa2646970667358221220c881513fca5a75d47e02fc1c04920461b43ce001b23b37bd2a0244cb5b4737ce64736f6c63430007060033756e61626c6520746f207472616e73666572416e6443616c6c20746f206f7261636c65536f75726365206d75737420626520746865206f7261636c65206f66207468652072657175657374a26469706673582212207e2d5e43bcc3fbed3f0ade9e6d88e2ee271706ead2b9ce57c6d66522ee2c738964736f6c63430007060033",
  "devdoc": {
    "kind": "dev",
    "methods": {
      "transferOwnership(address)": {
        "details": "Allows the current owner to transfer control of the contract to a newOwner.",
        "params": {
          "_newOwner": "The address to transfer ownership to."
        }
      }
    },
    "version": 1
  },
  "userdoc": {
    "kind": "user",
    "methods": {},
    "version": 1
  },
  "storageLayout": {
    "storage": [
      {
        "astId": 7284,
        "contract": "contracts/turbo/SportsLinkMarketFactory.sol:SportsLinkMarketFactory",
        "label": "owner",
        "offset": 0,
        "slot": "0",
        "type": "t_address"
      },
      {
        "astId": 9672,
        "contract": "contracts/turbo/SportsLinkMarketFactory.sol:SportsLinkMarketFactory",
        "label": "collateral",
        "offset": 0,
        "slot": "1",
        "type": "t_contract(IERC20Full)7261"
      },
      {
        "astId": 9674,
        "contract": "contracts/turbo/SportsLinkMarketFactory.sol:SportsLinkMarketFactory",
        "label": "feePot",
        "offset": 0,
        "slot": "2",
        "type": "t_contract(FeePot)10887"
      },
      {
        "astId": 9676,
        "contract": "contracts/turbo/SportsLinkMarketFactory.sol:SportsLinkMarketFactory",
        "label": "stakerFee",
        "offset": 0,
        "slot": "3",
        "type": "t_uint256"
      },
      {
        "astId": 9678,
        "contract": "contracts/turbo/SportsLinkMarketFactory.sol:SportsLinkMarketFactory",
        "label": "settlementFee",
        "offset": 0,
        "slot": "4",
        "type": "t_uint256"
      },
      {
        "astId": 9680,
        "contract": "contracts/turbo/SportsLinkMarketFactory.sol:SportsLinkMarketFactory",
        "label": "protocolFee",
        "offset": 0,
        "slot": "5",
        "type": "t_uint256"
      },
      {
        "astId": 9682,
        "contract": "contracts/turbo/SportsLinkMarketFactory.sol:SportsLinkMarketFactory",
        "label": "protocol",
        "offset": 0,
        "slot": "6",
        "type": "t_address"
      },
      {
        "astId": 9685,
        "contract": "contracts/turbo/SportsLinkMarketFactory.sol:SportsLinkMarketFactory",
        "label": "accumulatedProtocolFee",
        "offset": 0,
        "slot": "7",
        "type": "t_uint256"
      },
      {
        "astId": 9689,
        "contract": "contracts/turbo/SportsLinkMarketFactory.sol:SportsLinkMarketFactory",
        "label": "accumulatedSettlementFees",
        "offset": 0,
        "slot": "8",
        "type": "t_mapping(t_address,t_uint256)"
      },
      {
        "astId": 9691,
        "contract": "contracts/turbo/SportsLinkMarketFactory.sol:SportsLinkMarketFactory",
        "label": "shareFactor",
        "offset": 0,
        "slot": "9",
        "type": "t_uint256"
      },
      {
        "astId": 9712,
        "contract": "contracts/turbo/SportsLinkMarketFactory.sol:SportsLinkMarketFactory",
        "label": "markets",
        "offset": 0,
        "slot": "10",
        "type": "t_array(t_struct(Market)9709_storage)dyn_storage"
      },
      {
        "astId": 303,
        "contract": "contracts/turbo/SportsLinkMarketFactory.sol:SportsLinkMarketFactory",
        "label": "ens",
        "offset": 0,
        "slot": "11",
        "type": "t_contract(ENSInterface)831"
      },
      {
        "astId": 305,
        "contract": "contracts/turbo/SportsLinkMarketFactory.sol:SportsLinkMarketFactory",
        "label": "ensNode",
        "offset": 0,
        "slot": "12",
        "type": "t_bytes32"
      },
      {
        "astId": 307,
        "contract": "contracts/turbo/SportsLinkMarketFactory.sol:SportsLinkMarketFactory",
        "label": "link",
        "offset": 0,
        "slot": "13",
        "type": "t_contract(LinkTokenInterface)926"
      },
      {
        "astId": 309,
        "contract": "contracts/turbo/SportsLinkMarketFactory.sol:SportsLinkMarketFactory",
        "label": "oracle",
        "offset": 0,
        "slot": "14",
        "type": "t_contract(ChainlinkRequestInterface)751"
      },
      {
        "astId": 312,
        "contract": "contracts/turbo/SportsLinkMarketFactory.sol:SportsLinkMarketFactory",
        "label": "requestCount",
        "offset": 0,
        "slot": "15",
        "type": "t_uint256"
      },
      {
        "astId": 316,
        "contract": "contracts/turbo/SportsLinkMarketFactory.sol:SportsLinkMarketFactory",
        "label": "pendingRequests",
        "offset": 0,
        "slot": "16",
        "type": "t_mapping(t_bytes32,t_address)"
      },
      {
        "astId": 11377,
        "contract": "contracts/turbo/SportsLinkMarketFactory.sol:SportsLinkMarketFactory",
        "label": "marketDetails",
        "offset": 0,
        "slot": "17",
        "type": "t_mapping(t_uint256,t_struct(MarketDetails)11373_storage)"
      },
      {
        "astId": 11383,
        "contract": "contracts/turbo/SportsLinkMarketFactory.sol:SportsLinkMarketFactory",
        "label": "events",
        "offset": 0,
        "slot": "18",
        "type": "t_mapping(t_uint256,t_array(t_uint256)3_storage)"
      },
      {
        "astId": 11385,
        "contract": "contracts/turbo/SportsLinkMarketFactory.sol:SportsLinkMarketFactory",
        "label": "linkNode",
        "offset": 0,
        "slot": "19",
        "type": "t_address"
      },
      {
        "astId": 11387,
        "contract": "contracts/turbo/SportsLinkMarketFactory.sol:SportsLinkMarketFactory",
        "label": "sportId",
        "offset": 0,
        "slot": "20",
        "type": "t_uint256"
      },
      {
        "astId": 12577,
        "contract": "contracts/turbo/SportsLinkMarketFactory.sol:SportsLinkMarketFactory",
        "label": "linkOracle",
        "offset": 0,
        "slot": "21",
        "type": "t_address"
      }
    ],
    "types": {
      "t_address": {
        "encoding": "inplace",
        "label": "address",
        "numberOfBytes": "20"
      },
      "t_array(t_contract(OwnedERC20)10994)dyn_storage": {
        "base": "t_contract(OwnedERC20)10994",
        "encoding": "dynamic_array",
        "label": "contract OwnedERC20[]",
        "numberOfBytes": "32"
      },
      "t_array(t_struct(Market)9709_storage)dyn_storage": {
        "base": "t_struct(Market)9709_storage",
        "encoding": "dynamic_array",
        "label": "struct AbstractMarketFactory.Market[]",
        "numberOfBytes": "32"
      },
      "t_array(t_uint256)3_storage": {
        "base": "t_uint256",
        "encoding": "inplace",
        "label": "uint256[3]",
        "numberOfBytes": "96"
      },
      "t_bytes32": {
        "encoding": "inplace",
        "label": "bytes32",
        "numberOfBytes": "32"
      },
      "t_contract(ChainlinkRequestInterface)751": {
        "encoding": "inplace",
        "label": "contract ChainlinkRequestInterface",
        "numberOfBytes": "20"
      },
      "t_contract(ENSInterface)831": {
        "encoding": "inplace",
        "label": "contract ENSInterface",
        "numberOfBytes": "20"
      },
      "t_contract(FeePot)10887": {
        "encoding": "inplace",
        "label": "contract FeePot",
        "numberOfBytes": "20"
      },
      "t_contract(IERC20Full)7261": {
        "encoding": "inplace",
        "label": "contract IERC20Full",
        "numberOfBytes": "20"
      },
      "t_contract(LinkTokenInterface)926": {
        "encoding": "inplace",
        "label": "contract LinkTokenInterface",
        "numberOfBytes": "20"
      },
      "t_contract(OwnedERC20)10994": {
        "encoding": "inplace",
        "label": "contract OwnedERC20",
        "numberOfBytes": "20"
      },
      "t_enum(EventStatus)11358": {
        "encoding": "inplace",
        "label": "enum SportsLinkMarketFactory.EventStatus",
        "numberOfBytes": "1"
      },
      "t_enum(MarketType)11352": {
        "encoding": "inplace",
        "label": "enum SportsLinkMarketFactory.MarketType",
        "numberOfBytes": "1"
      },
      "t_int256": {
        "encoding": "inplace",
        "label": "int256",
        "numberOfBytes": "32"
      },
      "t_mapping(t_address,t_uint256)": {
        "encoding": "mapping",
        "key": "t_address",
        "label": "mapping(address => uint256)",
        "numberOfBytes": "32",
        "value": "t_uint256"
      },
      "t_mapping(t_bytes32,t_address)": {
        "encoding": "mapping",
        "key": "t_bytes32",
        "label": "mapping(bytes32 => address)",
        "numberOfBytes": "32",
        "value": "t_address"
      },
      "t_mapping(t_uint256,t_array(t_uint256)3_storage)": {
        "encoding": "mapping",
        "key": "t_uint256",
        "label": "mapping(uint256 => uint256[3])",
        "numberOfBytes": "32",
        "value": "t_array(t_uint256)3_storage"
      },
      "t_mapping(t_uint256,t_struct(MarketDetails)11373_storage)": {
        "encoding": "mapping",
        "key": "t_uint256",
        "label": "mapping(uint256 => struct SportsLinkMarketFactory.MarketDetails)",
        "numberOfBytes": "32",
        "value": "t_struct(MarketDetails)11373_storage"
      },
      "t_struct(Market)9709_storage": {
        "encoding": "inplace",
        "label": "struct AbstractMarketFactory.Market",
        "members": [
          {
            "astId": 9693,
            "contract": "contracts/turbo/SportsLinkMarketFactory.sol:SportsLinkMarketFactory",
            "label": "settlementAddress",
            "offset": 0,
            "slot": "0",
            "type": "t_address"
          },
          {
            "astId": 9696,
            "contract": "contracts/turbo/SportsLinkMarketFactory.sol:SportsLinkMarketFactory",
            "label": "shareTokens",
            "offset": 0,
            "slot": "1",
            "type": "t_array(t_contract(OwnedERC20)10994)dyn_storage"
          },
          {
            "astId": 9698,
            "contract": "contracts/turbo/SportsLinkMarketFactory.sol:SportsLinkMarketFactory",
            "label": "endTime",
            "offset": 0,
            "slot": "2",
            "type": "t_uint256"
          },
          {
            "astId": 9700,
            "contract": "contracts/turbo/SportsLinkMarketFactory.sol:SportsLinkMarketFactory",
            "label": "winner",
            "offset": 0,
            "slot": "3",
            "type": "t_contract(OwnedERC20)10994"
          },
          {
            "astId": 9702,
            "contract": "contracts/turbo/SportsLinkMarketFactory.sol:SportsLinkMarketFactory",
            "label": "settlementFee",
            "offset": 0,
            "slot": "4",
            "type": "t_uint256"
          },
          {
            "astId": 9704,
            "contract": "contracts/turbo/SportsLinkMarketFactory.sol:SportsLinkMarketFactory",
            "label": "protocolFee",
            "offset": 0,
            "slot": "5",
            "type": "t_uint256"
          },
          {
            "astId": 9706,
            "contract": "contracts/turbo/SportsLinkMarketFactory.sol:SportsLinkMarketFactory",
            "label": "stakerFee",
            "offset": 0,
            "slot": "6",
            "type": "t_uint256"
          },
          {
            "astId": 9708,
            "contract": "contracts/turbo/SportsLinkMarketFactory.sol:SportsLinkMarketFactory",
            "label": "creationTimestamp",
            "offset": 0,
            "slot": "7",
            "type": "t_uint256"
          }
        ],
        "numberOfBytes": "256"
      },
      "t_struct(MarketDetails)11373_storage": {
        "encoding": "inplace",
        "label": "struct SportsLinkMarketFactory.MarketDetails",
        "members": [
          {
            "astId": 11360,
            "contract": "contracts/turbo/SportsLinkMarketFactory.sol:SportsLinkMarketFactory",
            "label": "eventId",
            "offset": 0,
            "slot": "0",
            "type": "t_uint256"
          },
          {
            "astId": 11362,
            "contract": "contracts/turbo/SportsLinkMarketFactory.sol:SportsLinkMarketFactory",
            "label": "homeTeamId",
            "offset": 0,
            "slot": "1",
            "type": "t_uint256"
          },
          {
            "astId": 11364,
            "contract": "contracts/turbo/SportsLinkMarketFactory.sol:SportsLinkMarketFactory",
            "label": "awayTeamId",
            "offset": 0,
            "slot": "2",
            "type": "t_uint256"
          },
          {
            "astId": 11366,
            "contract": "contracts/turbo/SportsLinkMarketFactory.sol:SportsLinkMarketFactory",
            "label": "estimatedStartTime",
            "offset": 0,
            "slot": "3",
            "type": "t_uint256"
          },
          {
            "astId": 11368,
            "contract": "contracts/turbo/SportsLinkMarketFactory.sol:SportsLinkMarketFactory",
            "label": "marketType",
            "offset": 0,
            "slot": "4",
            "type": "t_enum(MarketType)11352"
          },
          {
            "astId": 11370,
            "contract": "contracts/turbo/SportsLinkMarketFactory.sol:SportsLinkMarketFactory",
            "label": "eventStatus",
            "offset": 1,
            "slot": "4",
            "type": "t_enum(EventStatus)11358"
          },
          {
            "astId": 11372,
            "contract": "contracts/turbo/SportsLinkMarketFactory.sol:SportsLinkMarketFactory",
            "label": "value0",
            "offset": 0,
            "slot": "5",
            "type": "t_int256"
          }
        ],
        "numberOfBytes": "192"
      },
      "t_uint256": {
        "encoding": "inplace",
        "label": "uint256",
        "numberOfBytes": "32"
      }
    }
  }
}