{
  "address": "0xAC049536d68F0C87894d1fC09fA070F6a00b893B",
  "abi": [
    {
      "inputs": [
        {
          "internalType": "address",
          "name": "_owner",
          "type": "address"
        },
        {
          "internalType": "contract SportsLinkMarketFactory",
          "name": "_marketFactory",
          "type": "address"
        }
      ],
      "stateMutability": "nonpayable",
      "type": "constructor"
    },
    {
      "inputs": [
        {
          "internalType": "bytes32",
          "name": "_payload",
          "type": "bytes32"
        }
      ],
      "name": "createMarket",
      "outputs": [
        {
          "internalType": "uint256[3]",
          "name": "_ids",
          "type": "uint256[3]"
        }
      ],
      "stateMutability": "nonpayable",
      "type": "function"
    },
    {
      "inputs": [
        {
          "internalType": "uint256",
          "name": "",
          "type": "uint256"
        }
      ],
      "name": "creationPayloads",
      "outputs": [
        {
          "internalType": "bytes32",
          "name": "",
          "type": "bytes32"
        }
      ],
      "stateMutability": "view",
      "type": "function"
    },
    {
      "inputs": [],
      "name": "creationPayloadsLength",
      "outputs": [
        {
          "internalType": "uint256",
          "name": "",
          "type": "uint256"
        }
      ],
      "stateMutability": "view",
      "type": "function"
    },
    {
      "inputs": [
        {
          "internalType": "uint256",
          "name": "_eventId",
          "type": "uint256"
        }
      ],
      "name": "getEventMarkets",
      "outputs": [
        {
          "internalType": "uint256[3]",
          "name": "",
          "type": "uint256[3]"
        }
      ],
      "stateMutability": "view",
      "type": "function"
    },
    {
      "inputs": [],
      "name": "getOwner",
      "outputs": [
        {
          "internalType": "address",
          "name": "",
          "type": "address"
        }
      ],
      "stateMutability": "view",
      "type": "function"
    },
    {
      "inputs": [
        {
          "internalType": "uint256",
          "name": "_eventId",
          "type": "uint256"
        }
      ],
      "name": "isEventRegistered",
      "outputs": [
        {
          "internalType": "bool",
          "name": "",
          "type": "bool"
        }
      ],
      "stateMutability": "view",
      "type": "function"
    },
    {
      "inputs": [
        {
          "internalType": "uint256",
          "name": "_eventId",
          "type": "uint256"
        }
      ],
      "name": "isEventResolved",
      "outputs": [
        {
          "internalType": "bool",
          "name": "",
          "type": "bool"
        }
      ],
      "stateMutability": "view",
      "type": "function"
    },
    {
      "inputs": [],
      "name": "marketFactory",
      "outputs": [
        {
          "internalType": "contract SportsLinkMarketFactory",
          "name": "",
          "type": "address"
        }
      ],
      "stateMutability": "view",
      "type": "function"
    },
    {
      "inputs": [
        {
          "internalType": "uint256",
          "name": "i",
          "type": "uint256"
        }
      ],
      "name": "replayCreate",
      "outputs": [],
      "stateMutability": "nonpayable",
      "type": "function"
    },
    {
      "inputs": [
        {
          "internalType": "uint256",
          "name": "i",
          "type": "uint256"
        }
      ],
      "name": "replayResolve",
      "outputs": [],
      "stateMutability": "nonpayable",
      "type": "function"
    },
    {
      "inputs": [
        {
          "internalType": "uint256",
          "name": "",
          "type": "uint256"
        }
      ],
      "name": "resolutionPayloads",
      "outputs": [
        {
          "internalType": "bytes32",
          "name": "",
          "type": "bytes32"
        }
      ],
      "stateMutability": "view",
      "type": "function"
    },
    {
      "inputs": [],
      "name": "resolutionPayloadsLength",
      "outputs": [
        {
          "internalType": "uint256",
          "name": "",
          "type": "uint256"
        }
      ],
      "stateMutability": "view",
      "type": "function"
    },
    {
      "inputs": [
        {
          "internalType": "contract SportsLinkMarketFactory",
          "name": "_newAddress",
          "type": "address"
        }
      ],
      "name": "setMarketFactory",
      "outputs": [],
      "stateMutability": "nonpayable",
      "type": "function"
    },
    {
      "inputs": [
        {
          "internalType": "address",
          "name": "_newOwner",
          "type": "address"
        }
      ],
      "name": "transferOwnership",
      "outputs": [
        {
          "internalType": "bool",
          "name": "",
          "type": "bool"
        }
      ],
      "stateMutability": "nonpayable",
      "type": "function"
    },
    {
      "inputs": [
        {
          "internalType": "bytes32",
          "name": "_payload",
          "type": "bytes32"
        }
      ],
      "name": "trustedResolveMarkets",
      "outputs": [],
      "stateMutability": "nonpayable",
      "type": "function"
    }
  ],
  "transactionHash": "0x3618e4eb2ad32fff045e417bb90b1b1fffd184d91c168d0d441fe5c39762f12a",
  "args": [
    "0x8C9c733eCd48426b9c53c38ccB60F3b307329bE1",
    "0x43D9f2d22f1306D012251d032a5B67553FE4aA82"
  ],
  "solcInputHash": "8a40dc092a8d7171d206c9a472ee82dc",
  "bytecode": "0x608060405234801561001057600080fd5b506040516108813803806108818339818101604052604081101561003357600080fd5b508051602090910151600080546001600160a01b039384166001600160a01b03199182163317821617909155600180549390921692169190911790556108038061007e6000396000f3fe608060405234801561001057600080fd5b50600436106100f55760003560e01c806390ad305911610097578063b31920b311610066578063b31920b31461026a578063b65ad5fd14610287578063cdaac862146102a4578063f2fde38b146102c1576100f5565b806390ad3059146101f757806393f7fb69146101ff578063a17944961461021c578063a7c59a191461024d576100f5565b806326f5df98116100d357806326f5df98146101a25780634dcc434a146101aa578063575717b0146101d2578063893d20e8146101ef576100f5565b80630276630b146100fa57806306ae7095146101295780632243118a1461014d575b600080fd5b6101176004803603602081101561011057600080fd5b50356102e7565b60408051918252519081900360200190f35b610131610308565b604080516001600160a01b039092168252519081900360200190f35b61016a6004803603602081101561016357600080fd5b5035610317565b6040518082606080838360005b8381101561018f578181015183820152602001610177565b5050505090500191505060405180910390f35b6101176103e2565b6101d0600480360360208110156101c057600080fd5b50356001600160a01b03166103e8565b005b6101d0600480360360208110156101e857600080fd5b5035610421565b6101316104b8565b6101176104c7565b6101176004803603602081101561021557600080fd5b50356104cd565b6102396004803603602081101561023257600080fd5b50356104dd565b604080519115158252519081900360200190f35b6101d06004803603602081101561026357600080fd5b503561055b565b6101d06004803603602081101561028057600080fd5b5035610615565b6102396004803603602081101561029d57600080fd5b5035610691565b61016a600480360360208110156102ba57600080fd5b50356106dd565b610239600480360360208110156102d757600080fd5b50356001600160a01b0316610745565b600381815481106102f757600080fd5b600091825260209091200154905081565b6001546001600160a01b031681565b61031f6107af565b600280546001818101835560009283527f405787fa12a823e0f2b7631cc41b3ba8828b3321ca811111fa75cd3aa3bb5ace909101849055546040805163112188c560e11b81526004810186905290516001600160a01b0390921692632243118a926024808401936060939083900390910190829087803b1580156103a257600080fd5b505af11580156103b6573d6000803e3d6000fd5b505050506040513d601f19601f8201168201806040525060608110156103db57600080fd5b5092915050565b60025490565b6000546001600160a01b031633146103ff57600080fd5b600180546001600160a01b0319166001600160a01b0392909216919091179055565b600380546001818101835560009283527fc2575a0e9e593c00f959f8c92f12db2869c3395a3b0502d05e2516446f71f85b9091018390555460408051630575717b60e41b81526004810185905290516001600160a01b039092169263575717b09260248084019382900301818387803b15801561049d57600080fd5b505af11580156104b1573d6000803e3d6000fd5b5050505050565b6000546001600160a01b031690565b60035490565b600281815481106102f757600080fd5b600154604080516350bca24b60e11b81526004810184905290516000926001600160a01b03169163a1794496916024808301926020929190829003018186803b15801561052957600080fd5b505afa15801561053d573d6000803e3d6000fd5b505050506040513d602081101561055357600080fd5b505192915050565b6000546001600160a01b0316331461057257600080fd5b600154600280546001600160a01b0390921691632243118a91908490811061059657fe5b90600052602060002001546040518263ffffffff1660e01b815260040180828152602001915050606060405180830381600087803b1580156105d757600080fd5b505af11580156105eb573d6000803e3d6000fd5b505050506040513d601f19601f82011682018060405250606081101561061057600080fd5b505050565b6000546001600160a01b0316331461062c57600080fd5b600154600380546001600160a01b039092169163575717b091908490811061065057fe5b90600052602060002001546040518263ffffffff1660e01b815260040180828152602001915050600060405180830381600087803b15801561049d57600080fd5b6001546040805163b65ad5fd60e01b81526004810184905290516000926001600160a01b03169163b65ad5fd916024808301926020929190829003018186803b15801561052957600080fd5b6106e56107af565b600154604080516366d5643160e11b81526004810185905290516001600160a01b039092169163cdaac86291602480820192606092909190829003018186803b15801561073157600080fd5b505afa1580156103b6573d6000803e3d6000fd5b600080546001600160a01b0316331461075d57600080fd5b6001600160a01b03821661077057600080fd5b600054610786906001600160a01b0316836107ab565b50600080546001600160a01b0383166001600160a01b03199091161790556001919050565b5050565b6040518060600160405280600390602082028036833750919291505056fea2646970667358221220a628911c86f61a4a5ba3bb50ee6562a4a13f066c1c7bea523e42d2602c88996864736f6c63430007060033",
  "devdoc": {
    "kind": "dev",
    "methods": {
      "transferOwnership(address)": {
        "details": "Allows the current owner to transfer control of the contract to a newOwner.",
        "params": {
          "_newOwner": "The address to transfer ownership to."
        }
      }
    },
    "version": 1
  },
  "userdoc": {
    "kind": "user",
    "methods": {},
    "version": 1
  },
  "storageLayout": {
    "storage": [
      {
        "astId": 5351,
        "contract": "contracts/turbo/SportsLinkProxy.sol:SportsLinkProxy",
        "label": "owner",
        "offset": 0,
        "slot": "0",
        "type": "t_address"
      },
      {
        "astId": 11001,
        "contract": "contracts/turbo/SportsLinkProxy.sol:SportsLinkProxy",
        "label": "marketFactory",
        "offset": 0,
        "slot": "1",
        "type": "t_contract(SportsLinkMarketFactory)10864"
      },
      {
        "astId": 11004,
        "contract": "contracts/turbo/SportsLinkProxy.sol:SportsLinkProxy",
        "label": "creationPayloads",
        "offset": 0,
        "slot": "2",
        "type": "t_array(t_bytes32)dyn_storage"
      },
      {
        "astId": 11007,
        "contract": "contracts/turbo/SportsLinkProxy.sol:SportsLinkProxy",
        "label": "resolutionPayloads",
        "offset": 0,
        "slot": "3",
        "type": "t_array(t_bytes32)dyn_storage"
      }
    ],
    "types": {
      "t_address": {
        "encoding": "inplace",
        "label": "address",
        "numberOfBytes": "20"
      },
      "t_array(t_bytes32)dyn_storage": {
        "base": "t_bytes32",
        "encoding": "dynamic_array",
        "label": "bytes32[]",
        "numberOfBytes": "32"
      },
      "t_bytes32": {
        "encoding": "inplace",
        "label": "bytes32",
        "numberOfBytes": "32"
      },
      "t_contract(SportsLinkMarketFactory)10864": {
        "encoding": "inplace",
        "label": "contract SportsLinkMarketFactory",
        "numberOfBytes": "20"
      }
    }
  }
}