{
  "address": "0x203fdF154b636D834ABC015Ca6Dc9C6127659c58",
  "abi": [
    {
      "inputs": [
        {
          "internalType": "address",
          "name": "_owner",
          "type": "address"
        },
        {
          "internalType": "contract IERC20Full",
          "name": "_collateral",
          "type": "address"
        },
        {
          "internalType": "uint256",
          "name": "_shareFactor",
          "type": "uint256"
        },
        {
          "internalType": "contract FeePot",
          "name": "_feePot",
          "type": "address"
        },
        {
          "internalType": "uint256",
          "name": "_stakerFee",
          "type": "uint256"
        },
        {
          "internalType": "uint256",
          "name": "_settlementFee",
          "type": "uint256"
        },
        {
          "internalType": "address",
          "name": "_protocol",
          "type": "address"
        },
        {
          "internalType": "uint256",
          "name": "_protocolFee",
          "type": "uint256"
        },
        {
          "internalType": "address",
          "name": "_linkNode",
          "type": "address"
        },
        {
          "internalType": "uint256",
          "name": "_sportId",
          "type": "uint256"
        }
      ],
      "stateMutability": "nonpayable",
      "type": "constructor"
    },
    {
      "anonymous": false,
      "inputs": [
        {
          "indexed": false,
          "internalType": "address",
          "name": "newLinkNode",
          "type": "address"
        }
      ],
      "name": "LinkNodeChanged",
      "type": "event"
    },
    {
      "anonymous": false,
      "inputs": [
        {
          "indexed": false,
          "internalType": "uint256",
          "name": "id",
          "type": "uint256"
        },
        {
          "indexed": false,
          "internalType": "address",
          "name": "creator",
          "type": "address"
        },
        {
          "indexed": false,
          "internalType": "uint256",
          "name": "endTime",
          "type": "uint256"
        },
        {
          "indexed": false,
          "internalType": "enum SportsLinkMarketFactory.MarketType",
          "name": "marketType",
          "type": "uint8"
        },
        {
          "indexed": true,
          "internalType": "uint256",
          "name": "eventId",
          "type": "uint256"
        },
        {
          "indexed": false,
          "internalType": "uint256",
          "name": "homeTeamId",
          "type": "uint256"
        },
        {
          "indexed": false,
          "internalType": "uint256",
          "name": "awayTeamId",
          "type": "uint256"
        },
        {
          "indexed": false,
          "internalType": "uint256",
          "name": "estimatedStartTime",
          "type": "uint256"
        },
        {
          "indexed": false,
          "internalType": "int256",
          "name": "score",
          "type": "int256"
        }
      ],
      "name": "MarketCreated",
      "type": "event"
    },
    {
      "anonymous": false,
      "inputs": [
        {
          "indexed": false,
          "internalType": "uint256",
          "name": "id",
          "type": "uint256"
        },
        {
          "indexed": false,
          "internalType": "address",
          "name": "winner",
          "type": "address"
        }
      ],
      "name": "MarketResolved",
      "type": "event"
    },
    {
      "anonymous": false,
      "inputs": [
        {
          "indexed": false,
          "internalType": "address",
          "name": "protocol",
          "type": "address"
        }
      ],
      "name": "ProtocolChanged",
      "type": "event"
    },
    {
      "anonymous": false,
      "inputs": [
        {
          "indexed": false,
          "internalType": "uint256",
          "name": "fee",
          "type": "uint256"
        }
      ],
      "name": "ProtocolFeeChanged",
      "type": "event"
    },
    {
      "anonymous": false,
      "inputs": [
        {
          "indexed": false,
          "internalType": "address",
          "name": "protocol",
          "type": "address"
        },
        {
          "indexed": false,
          "internalType": "uint256",
          "name": "amount",
          "type": "uint256"
        }
      ],
      "name": "ProtocolFeeClaimed",
      "type": "event"
    },
    {
      "anonymous": false,
      "inputs": [
        {
          "indexed": false,
          "internalType": "uint256",
          "name": "fee",
          "type": "uint256"
        }
      ],
      "name": "SettlementFeeChanged",
      "type": "event"
    },
    {
      "anonymous": false,
      "inputs": [
        {
          "indexed": false,
          "internalType": "address",
          "name": "settlementAddress",
          "type": "address"
        },
        {
          "indexed": false,
          "internalType": "uint256",
          "name": "amount",
          "type": "uint256"
        },
        {
          "indexed": true,
          "internalType": "address",
          "name": "receiver",
          "type": "address"
        }
      ],
      "name": "SettlementFeeClaimed",
      "type": "event"
    },
    {
      "anonymous": false,
      "inputs": [
        {
          "indexed": false,
          "internalType": "uint256",
          "name": "id",
          "type": "uint256"
        },
        {
          "indexed": false,
          "internalType": "uint256",
          "name": "amount",
          "type": "uint256"
        },
        {
          "indexed": false,
          "internalType": "address",
          "name": "receiver",
          "type": "address"
        }
      ],
      "name": "SharesBurned",
      "type": "event"
    },
    {
      "anonymous": false,
      "inputs": [
        {
          "indexed": false,
          "internalType": "uint256",
          "name": "id",
          "type": "uint256"
        },
        {
          "indexed": false,
          "internalType": "uint256",
          "name": "amount",
          "type": "uint256"
        },
        {
          "indexed": false,
          "internalType": "address",
          "name": "receiver",
          "type": "address"
        }
      ],
      "name": "SharesMinted",
      "type": "event"
    },
    {
      "anonymous": false,
      "inputs": [
        {
          "indexed": false,
          "internalType": "uint256",
          "name": "fee",
          "type": "uint256"
        }
      ],
      "name": "StakerFeeChanged",
      "type": "event"
    },
    {
      "anonymous": false,
      "inputs": [
        {
          "indexed": false,
          "internalType": "uint256",
          "name": "id",
          "type": "uint256"
        },
        {
          "indexed": false,
          "internalType": "address",
          "name": "winningOutcome",
          "type": "address"
        },
        {
          "indexed": false,
          "internalType": "uint256",
          "name": "amount",
          "type": "uint256"
        },
        {
          "indexed": false,
          "internalType": "uint256",
          "name": "settlementFee",
          "type": "uint256"
        },
        {
          "indexed": false,
          "internalType": "uint256",
          "name": "payout",
          "type": "uint256"
        },
        {
          "indexed": true,
          "internalType": "address",
          "name": "receiver",
          "type": "address"
        }
      ],
      "name": "WinningsClaimed",
      "type": "event"
    },
    {
      "inputs": [],
      "name": "accumulatedProtocolFee",
      "outputs": [
        {
          "internalType": "uint256",
          "name": "",
          "type": "uint256"
        }
      ],
      "stateMutability": "view",
      "type": "function"
    },
    {
      "inputs": [
        {
          "internalType": "address",
          "name": "",
          "type": "address"
        }
      ],
      "name": "accumulatedSettlementFees",
      "outputs": [
        {
          "internalType": "uint256",
          "name": "",
          "type": "uint256"
        }
      ],
      "stateMutability": "view",
      "type": "function"
    },
    {
      "inputs": [
        {
          "internalType": "uint256",
          "name": "_id",
          "type": "uint256"
        },
        {
          "internalType": "uint256",
          "name": "_sharesToBurn",
          "type": "uint256"
        },
        {
          "internalType": "address",
          "name": "_receiver",
          "type": "address"
        }
      ],
      "name": "burnShares",
      "outputs": [
        {
          "internalType": "uint256",
          "name": "",
          "type": "uint256"
        }
      ],
      "stateMutability": "nonpayable",
      "type": "function"
    },
    {
      "inputs": [
        {
          "internalType": "uint256",
          "name": "_shares",
          "type": "uint256"
        }
      ],
      "name": "calcCost",
      "outputs": [
        {
          "internalType": "uint256",
          "name": "",
          "type": "uint256"
        }
      ],
      "stateMutability": "view",
      "type": "function"
    },
    {
      "inputs": [
        {
          "internalType": "uint256",
          "name": "_collateralIn",
          "type": "uint256"
        }
      ],
      "name": "calcShares",
      "outputs": [
        {
          "internalType": "uint256",
          "name": "",
          "type": "uint256"
        }
      ],
      "stateMutability": "view",
      "type": "function"
    },
    {
      "inputs": [
        {
          "internalType": "uint256[]",
          "name": "_ids",
          "type": "uint256[]"
        },
        {
          "internalType": "address",
          "name": "_receiver",
          "type": "address"
        }
      ],
      "name": "claimManyWinnings",
      "outputs": [
        {
          "internalType": "uint256",
          "name": "",
          "type": "uint256"
        }
      ],
      "stateMutability": "nonpayable",
      "type": "function"
    },
    {
      "inputs": [],
      "name": "claimProtocolFees",
      "outputs": [
        {
          "internalType": "uint256",
          "name": "",
          "type": "uint256"
        }
      ],
      "stateMutability": "nonpayable",
      "type": "function"
    },
    {
      "inputs": [
        {
          "internalType": "address",
          "name": "_receiver",
          "type": "address"
        }
      ],
      "name": "claimSettlementFees",
      "outputs": [
        {
          "internalType": "uint256",
          "name": "",
          "type": "uint256"
        }
      ],
      "stateMutability": "nonpayable",
      "type": "function"
    },
    {
      "inputs": [
        {
          "internalType": "uint256",
          "name": "_id",
          "type": "uint256"
        },
        {
          "internalType": "address",
          "name": "_receiver",
          "type": "address"
        }
      ],
      "name": "claimWinnings",
      "outputs": [
        {
          "internalType": "uint256",
          "name": "",
          "type": "uint256"
        }
      ],
      "stateMutability": "nonpayable",
      "type": "function"
    },
    {
      "inputs": [],
      "name": "collateral",
      "outputs": [
        {
          "internalType": "contract IERC20Full",
          "name": "",
          "type": "address"
        }
      ],
      "stateMutability": "view",
      "type": "function"
    },
    {
      "inputs": [
        {
          "internalType": "uint256",
          "name": "_eventId",
          "type": "uint256"
        },
        {
          "internalType": "uint256",
          "name": "_homeTeamId",
          "type": "uint256"
        },
        {
          "internalType": "uint256",
          "name": "_awayTeamId",
          "type": "uint256"
        },
        {
          "internalType": "uint256",
          "name": "_startTimestamp",
          "type": "uint256"
        },
        {
          "internalType": "int256",
          "name": "_homeSpread",
          "type": "int256"
        },
        {
          "internalType": "uint256",
          "name": "_totalScore",
          "type": "uint256"
        },
        {
          "internalType": "bool",
          "name": "_makeSpread",
          "type": "bool"
        },
        {
          "internalType": "bool",
          "name": "_makeTotalScore",
          "type": "bool"
        }
      ],
      "name": "createMarket",
      "outputs": [
        {
          "internalType": "uint256[3]",
          "name": "_ids",
          "type": "uint256[3]"
        }
      ],
      "stateMutability": "nonpayable",
      "type": "function"
    },
    {
      "inputs": [
        {
          "internalType": "uint256",
          "name": "",
          "type": "uint256"
        }
      ],
      "name": "events",
      "outputs": [
        {
          "internalType": "uint256",
          "name": "startTime",
          "type": "uint256"
        },
        {
          "internalType": "uint256",
          "name": "homeScore",
          "type": "uint256"
        },
        {
          "internalType": "uint256",
          "name": "awayScore",
          "type": "uint256"
        },
        {
          "internalType": "enum SportsLinkMarketFactory.EventStatus",
          "name": "status",
          "type": "uint8"
        },
        {
          "internalType": "uint256",
          "name": "resolutionTime",
          "type": "uint256"
        },
        {
          "internalType": "bool",
          "name": "finalized",
          "type": "bool"
        }
      ],
      "stateMutability": "view",
      "type": "function"
    },
    {
      "inputs": [],
      "name": "feePot",
      "outputs": [
        {
          "internalType": "contract FeePot",
          "name": "",
          "type": "address"
        }
      ],
      "stateMutability": "view",
      "type": "function"
    },
    {
      "inputs": [
        {
          "internalType": "uint256",
          "name": "_eventId",
          "type": "uint256"
        }
      ],
      "name": "getEventMarkets",
      "outputs": [
        {
          "internalType": "uint256[3]",
          "name": "",
          "type": "uint256[3]"
        }
      ],
      "stateMutability": "view",
      "type": "function"
    },
    {
      "inputs": [
        {
          "internalType": "uint256",
          "name": "_id",
          "type": "uint256"
        }
      ],
      "name": "getMarket",
      "outputs": [
        {
          "components": [
            {
              "internalType": "address",
              "name": "settlementAddress",
              "type": "address"
            },
            {
              "internalType": "contract OwnedERC20[]",
              "name": "shareTokens",
              "type": "address[]"
            },
            {
              "internalType": "uint256",
              "name": "endTime",
              "type": "uint256"
            },
            {
              "internalType": "contract OwnedERC20",
              "name": "winner",
              "type": "address"
            },
            {
              "internalType": "uint256",
              "name": "settlementFee",
              "type": "uint256"
            },
            {
              "internalType": "uint256",
              "name": "protocolFee",
              "type": "uint256"
            },
            {
              "internalType": "uint256",
              "name": "stakerFee",
              "type": "uint256"
            },
            {
              "internalType": "uint256",
              "name": "creationTimestamp",
              "type": "uint256"
            }
          ],
          "internalType": "struct AbstractMarketFactory.Market",
          "name": "",
          "type": "tuple"
        }
      ],
      "stateMutability": "view",
      "type": "function"
    },
    {
      "inputs": [
        {
          "internalType": "uint256",
          "name": "_marketId",
          "type": "uint256"
        }
      ],
      "name": "getMarketDetails",
      "outputs": [
        {
          "components": [
            {
              "internalType": "uint256",
              "name": "eventId",
              "type": "uint256"
            },
            {
              "internalType": "uint256",
              "name": "homeTeamId",
              "type": "uint256"
            },
            {
              "internalType": "uint256",
              "name": "awayTeamId",
              "type": "uint256"
            },
            {
              "internalType": "uint256",
              "name": "estimatedStartTime",
              "type": "uint256"
            },
            {
              "internalType": "enum SportsLinkMarketFactory.MarketType",
              "name": "marketType",
              "type": "uint8"
            },
            {
              "internalType": "enum SportsLinkMarketFactory.EventStatus",
              "name": "eventStatus",
              "type": "uint8"
            },
            {
              "internalType": "int256",
              "name": "value0",
              "type": "int256"
            }
          ],
          "internalType": "struct SportsLinkMarketFactory.MarketDetails",
          "name": "",
          "type": "tuple"
        }
      ],
      "stateMutability": "view",
      "type": "function"
    },
    {
      "inputs": [],
      "name": "getOwner",
      "outputs": [
        {
          "internalType": "address",
          "name": "",
          "type": "address"
        }
      ],
      "stateMutability": "view",
      "type": "function"
    },
    {
      "inputs": [
        {
          "internalType": "uint256",
          "name": "_eventId",
          "type": "uint256"
        }
      ],
      "name": "isEventRegistered",
      "outputs": [
        {
          "internalType": "bool",
          "name": "",
          "type": "bool"
        }
      ],
      "stateMutability": "view",
      "type": "function"
    },
    {
      "inputs": [
        {
          "internalType": "uint256",
          "name": "_eventId",
          "type": "uint256"
        }
      ],
      "name": "isEventResolved",
      "outputs": [
        {
          "internalType": "bool",
          "name": "",
          "type": "bool"
        }
      ],
      "stateMutability": "view",
      "type": "function"
    },
    {
      "inputs": [
        {
          "internalType": "uint256",
          "name": "_id",
          "type": "uint256"
        }
      ],
      "name": "isMarketResolved",
      "outputs": [
        {
          "internalType": "bool",
          "name": "",
          "type": "bool"
        }
      ],
      "stateMutability": "view",
      "type": "function"
    },
    {
      "inputs": [],
      "name": "linkNode",
      "outputs": [
        {
          "internalType": "address",
          "name": "",
          "type": "address"
        }
      ],
      "stateMutability": "view",
      "type": "function"
    },
    {
      "inputs": [
        {
          "internalType": "uint256",
          "name": "",
          "type": "uint256"
        }
      ],
      "name": "listOfEvents",
      "outputs": [
        {
          "internalType": "uint256",
          "name": "",
          "type": "uint256"
        }
      ],
      "stateMutability": "view",
      "type": "function"
    },
    {
      "inputs": [],
      "name": "listResolvableEvents",
      "outputs": [
        {
          "internalType": "uint256[]",
          "name": "",
          "type": "uint256[]"
        }
      ],
      "stateMutability": "view",
      "type": "function"
    },
    {
      "inputs": [],
      "name": "listUnresolvedMarkets",
      "outputs": [
        {
          "internalType": "uint256[]",
          "name": "",
          "type": "uint256[]"
        }
      ],
      "stateMutability": "view",
      "type": "function"
    },
    {
      "inputs": [],
      "name": "marketCount",
      "outputs": [
        {
          "internalType": "uint256",
          "name": "",
          "type": "uint256"
        }
      ],
      "stateMutability": "view",
      "type": "function"
    },
    {
      "inputs": [
        {
          "internalType": "uint256",
          "name": "_id",
          "type": "uint256"
        },
        {
          "internalType": "uint256",
          "name": "_shareToMint",
          "type": "uint256"
        },
        {
          "internalType": "address",
          "name": "_receiver",
          "type": "address"
        }
      ],
      "name": "mintShares",
      "outputs": [],
      "stateMutability": "nonpayable",
      "type": "function"
    },
    {
      "inputs": [],
      "name": "protocol",
      "outputs": [
        {
          "internalType": "address",
          "name": "",
          "type": "address"
        }
      ],
      "stateMutability": "view",
      "type": "function"
    },
    {
      "inputs": [],
      "name": "protocolFee",
      "outputs": [
        {
          "internalType": "uint256",
          "name": "",
          "type": "uint256"
        }
      ],
      "stateMutability": "view",
      "type": "function"
    },
    {
      "inputs": [
        {
          "internalType": "uint256",
          "name": "",
          "type": "uint256"
        }
      ],
      "name": "resolveMarket",
      "outputs": [],
      "stateMutability": "pure",
      "type": "function"
    },
    {
      "inputs": [
        {
          "internalType": "address",
          "name": "_newLinkNode",
          "type": "address"
        }
      ],
      "name": "setLinkNode",
      "outputs": [],
      "stateMutability": "nonpayable",
      "type": "function"
    },
    {
      "inputs": [
        {
          "internalType": "address",
          "name": "_newProtocol",
          "type": "address"
        },
        {
          "internalType": "bool",
          "name": "_claimFirst",
          "type": "bool"
        }
      ],
      "name": "setProtocol",
      "outputs": [],
      "stateMutability": "nonpayable",
      "type": "function"
    },
    {
      "inputs": [
        {
          "internalType": "uint256",
          "name": "_newFee",
          "type": "uint256"
        }
      ],
      "name": "setProtocolFee",
      "outputs": [],
      "stateMutability": "nonpayable",
      "type": "function"
    },
    {
      "inputs": [
        {
          "internalType": "uint256",
          "name": "_newFee",
          "type": "uint256"
        }
      ],
      "name": "setSettlementFee",
      "outputs": [],
      "stateMutability": "nonpayable",
      "type": "function"
    },
    {
      "inputs": [
        {
          "internalType": "uint256",
          "name": "_newFee",
          "type": "uint256"
        }
      ],
      "name": "setStakerFee",
      "outputs": [],
      "stateMutability": "nonpayable",
      "type": "function"
    },
    {
      "inputs": [],
      "name": "settlementFee",
      "outputs": [
        {
          "internalType": "uint256",
          "name": "",
          "type": "uint256"
        }
      ],
      "stateMutability": "view",
      "type": "function"
    },
    {
      "inputs": [],
      "name": "shareFactor",
      "outputs": [
        {
          "internalType": "uint256",
          "name": "",
          "type": "uint256"
        }
      ],
      "stateMutability": "view",
      "type": "function"
    },
    {
      "inputs": [],
      "name": "sportId",
      "outputs": [
        {
          "internalType": "uint256",
          "name": "",
          "type": "uint256"
        }
      ],
      "stateMutability": "view",
      "type": "function"
    },
    {
      "inputs": [],
      "name": "stakerFee",
      "outputs": [
        {
          "internalType": "uint256",
          "name": "",
          "type": "uint256"
        }
      ],
      "stateMutability": "view",
      "type": "function"
    },
    {
      "inputs": [
        {
          "internalType": "address",
          "name": "_newOwner",
          "type": "address"
        }
      ],
      "name": "transferOwnership",
      "outputs": [
        {
          "internalType": "bool",
          "name": "",
          "type": "bool"
        }
      ],
      "stateMutability": "nonpayable",
      "type": "function"
    },
    {
      "inputs": [
        {
          "internalType": "uint256",
          "name": "_eventId",
          "type": "uint256"
        },
        {
          "internalType": "uint256",
          "name": "_eventStatus",
          "type": "uint256"
        },
        {
          "internalType": "uint256",
          "name": "_homeScore",
          "type": "uint256"
        },
        {
          "internalType": "uint256",
          "name": "_awayScore",
          "type": "uint256"
        }
      ],
      "name": "trustedResolveMarkets",
      "outputs": [],
      "stateMutability": "nonpayable",
      "type": "function"
    }
  ],
  "transactionHash": "0x84796dbac18948beda73848156fa2504e1172783c4924aa61f55c56e92889789",
  "args": [
    "0x8C9c733eCd48426b9c53c38ccB60F3b307329bE1",
    "0x5799bFe361BEea69f808328FF4884DF92f1f66f0",
    "1000000000000",
    "0x59DdFE9961e050bdA1ed9bf9CCD009948036Dd76",
    0,
    "500000000000000",
    "0x8C9c733eCd48426b9c53c38ccB60F3b307329bE1",
    0,
    "0x6FBD37365bac1fC61EAb2b35ba4024B32b136be6",
    4
  ],
  "solcInputHash": "a391f81d0b95c18ce6837fef7e6f6a69",
  "bytecode": "0x608060405260006007553480156200001657600080fd5b5060405162006548380380620065488339810160408190526200003991620004a3565b600080546001600160a01b03808d166001600160a01b0319928316331783161790925560018054838d16908316811790915560098b905560028054848c1690841617905560038990556004888155600680549489169490931693909317909155600585905560405163095ea7b360e01b81528c928c928c928c928c928c928c928c929163095ea7b391620000d49189916000199101620005cc565b602060405180830381600087803b158015620000ef57600080fd5b505af115801562000104573d6000803e3d6000fd5b505050506040513d601f19601f820116820180604052508101906200012a919062000555565b50604080516000808252602082019092528162000158565b6060815260200190600190039081620001425790505b509050600a6200016c60008380826200024f565b8154600180820184556000938452602093849020835160089093020180546001600160a01b0319166001600160a01b0390931692909217825582840151805193949293620001c393928501929190910190620003bd565b506040820151600282015560608201516003820180546001600160a01b03199081166001600160a01b03938416179091556080840151600484015560a0840151600584015560c0840151600684015560e090930151600790920191909155600e80549092169c169b909b17909a55505050600f9590955550620006409c50505050505050505050505050565b6200025962000427565b604051806101000160405280866001600160a01b0316815260200162000287868630620002c860201b60201c565b815260200183815260200160006001600160a01b03168152602001600454815260200160055481526020016003548152602001428152509050949350505050565b82516060906000816001600160401b0381118015620002e657600080fd5b5060405190808252806020026020018201604052801562000311578160200160208202803683370190505b50905060005b82811015620003b3578681815181106200032d57fe5b60200260200101518682815181106200034257fe5b60200260200101518660405162000359906200047e565b6200036793929190620005e5565b604051809103906000f08015801562000384573d6000803e3d6000fd5b508282815181106200039257fe5b6001600160a01b039092166020928302919091019091015260010162000317565b5095945050505050565b82805482825590600052602060002090810192821562000415579160200282015b828111156200041557825182546001600160a01b0319166001600160a01b03909116178255602090920191600190910190620003de565b50620004239291506200048c565b5090565b60405180610100016040528060006001600160a01b03168152602001606081526020016000815260200160006001600160a01b03168152602001600081526020016000815260200160008152602001600081525090565b6111f3806200535583390190565b5b808211156200042357600081556001016200048d565b6000806000806000806000806000806101408b8d031215620004c3578586fd5b8a51620004d08162000627565b60208c0151909a50620004e38162000627565b60408c015160608d0151919a509850620004fd8162000627565b8097505060808b0151955060a08b0151945060c08b01516200051f8162000627565b60e08c01516101008d015191955093506200053a8162000627565b809250506101208b015190509295989b9194979a5092959850565b60006020828403121562000567578081fd5b8151801515811462000577578182fd5b9392505050565b60008151808452815b81811015620005a55760208185018101518683018201520162000587565b81811115620005b75782602083870101525b50601f01601f19169290920160200192915050565b6001600160a01b03929092168252602082015260400190565b600060608252620005fa60608301866200057e565b82810360208401526200060e81866200057e565b91505060018060a01b0383166040830152949350505050565b6001600160a01b03811681146200063d57600080fd5b50565b614d0580620006506000396000f3fe60806040523480156200001157600080fd5b5060043610620002805760003560e01c80638e0ed1931162000159578063d4b6838e11620000c9578063e2c30b151162000087578063e2c30b15146200056d578063e5678dfa1462000584578063eb44fdd3146200059b578063ec97908214620005c1578063f2fde38b14620005cb5762000280565b8063d4b6838e146200052e578063d5da4f1d1462000538578063d5db3efb146200054f578063d8dfeb451462000559578063d9113f0d14620005635762000280565b8063b06c1ba31162000117578063b06c1ba314620004b9578063b0e21e8a14620004df578063b65ad5fd14620004e9578063cc87adea1462000500578063cdaac86214620005175762000280565b80638e0ed193146200045357806397eef187146200046a578063992c90791462000481578063a17944961462000498578063a544a62c14620004af5762000280565b80634b2d9ffc11620001f55780637641ab0111620001b35780637641ab011462000414578063787dce3d146200041e5780637d1d7fb81462000435578063893d20e8146200043f5780638ce7442614620004495762000280565b80634b2d9ffc146200039d5780634c9f66c714620003a757806353ac55f514620003c05780636399d03d14620003e657806371ba269614620003fd5762000280565b8063399b6b3f1162000243578063399b6b3f1462000335578063473a6d52146200034c57806349a4d93414620003635780634a7d0369146200037a5780634a875e0b14620003845762000280565b80630b7914301462000285578063221fff8114620002b9578063264e507714620002d257806332ecabe914620002f857806335a9cdad146200030f575b600080fd5b6200029c6200029636600462003312565b620005e2565b604051620002b09695949392919062003a90565b60405180910390f35b620002d0620002ca36600462003372565b62000621565b005b620002e9620002e3366004620033db565b620008d8565b604051620002b0919062003518565b620002d062000309366004620031ee565b62000a5b565b620003266200032036600462003372565b62000adf565b604051620002b09190620039d3565b620002d062000346366004620033a9565b62000e99565b620003266200035d36600462003312565b6200111b565b6200032662000374366004620031d1565b6200116e565b6200032662001180565b6200038e620012a8565b604051620002b091906200354b565b620003266200137f565b620003b162001385565b604051620002b09190620034c7565b620003d7620003d136600462003312565b62001394565b604051620002b0919062003591565b620002d0620003f736600462003312565b6200148e565b620003266200040e36600462003312565b620014ab565b62000326620014cd565b620002d06200042f36600462003312565b620014d3565b620003266200152d565b620003b162001533565b620003b162001542565b6200032662000464366004620031d1565b62001551565b620002d06200047b36600462003312565b62001652565b620003266200049236600462003344565b620016a1565b620003d7620004a936600462003312565b620019a1565b62000326620019c2565b620004d0620004ca36600462003312565b620019c8565b604051620002b09190620038b6565b6200032662001a87565b620003d7620004fa36600462003312565b62001a8d565b620003266200051136600462003312565b62001b05565b620002e96200052836600462003312565b62001b0c565b620003b162001b57565b620002d06200054936600462003312565b62001b66565b6200032662001bb5565b620003b162001bbb565b6200038e62001bca565b620002d06200057e366004620031d1565b62001c9a565b620003266200059536600462003229565b62001cff565b620005b2620005ac36600462003312565b62001d4d565b604051620002b0919062003918565b6200032662001e9a565b620003d7620005dc366004620031d1565b62001ea0565b600c6020526000908152604090206003810154600482015460058301546006840154600785015460089095015493949293919260ff9182169290911686565b600a5483106200064e5760405162461bcd60e51b81526004016200064590620037c0565b60405180910390fd5b620006598362001394565b15620006795760405162461bcd60e51b815260040162000645906200382a565b600062000686836200111b565b6001546040516323b872dd60e01b81529192506001600160a01b0316906323b872dd90620006bd90339030908690600401620034db565b602060405180830381600087803b158015620006d857600080fd5b505af1158015620006ed573d6000803e3d6000fd5b505050506040513d601f19601f82011682018060405250810190620007139190620032f3565b506000600a85815481106200072457fe5b60009182526020918290206040805161010081018252600890930290910180546001600160a01b03168352600181018054835181870281018701909452808452939491938583019392830182828015620007a857602002820191906000526020600020905b81546001600160a01b0316815260019091019060200180831162000789575b50505091835250506002820154602082015260038201546001600160a01b031660408201526004820154606082015260058201546080820152600682015460a082015260079091015460c090910152905060005b8160200151518110156200089357816020015181815181106200081b57fe5b60200260200101516001600160a01b031663c024cd2685876040518363ffffffff1660e01b815260040162000852929190620034ff565b600060405180830381600087803b1580156200086d57600080fd5b505af115801562000882573d6000803e3d6000fd5b505060019092019150620007fc9050565b507fd81c0442e10068a9818f3aa093c9ccb804584690df572d7df3da2d892a6973f2858585604051620008c99392919062003a71565b60405180910390a15050505050565b620008e26200303b565b600e546001600160a01b031633146200090f5760405162461bcd60e51b815260040162000645906200377f565b33600062000920886101e062001f0a565b60008c8152600c602052604090819020815160608101928390529293509060039082845b815481526020019060010190808311620009445750505050509250826000600381106200096d57fe5b60200201516200098a576200098782828d8d8d8d62001f1d565b83525b60208301511580156200099a5750845b15620009b757620009b182828d8d8d8d8d6200220e565b60208401525b6040830151158015620009c75750835b15620009e457620009de82828d8d8d8d8c6200254d565b60408401525b60008b8152600c6020526040902060068101805460ff1916600117905560038082018a905562000a179190859062003059565b5050600d80546001810182556000919091527fd7b6990105719101dabeb77144f2a3385c8033acd3af97e9423a695e81ad1eb5019990995598975050505050505050565b6000546001600160a01b0316331462000a7357600080fd5b801562000a865762000a8462001180565b505b600680546001600160a01b0319166001600160a01b0384161790556040517f15b84596b3c567ae2998116949ae5f2d47f3055c12d9053db4d6e50f4c794dd99062000ad3908490620034c7565b60405180910390a15050565b600a54600090841062000b065760405162461bcd60e51b81526004016200064590620037c0565b62000b118462001394565b1562000b315760405162461bcd60e51b8152600401620006459062003870565b6000600a858154811062000b4157fe5b60009182526020918290206040805161010081018252600890930290910180546001600160a01b0316835260018101805483518187028101870190945280845293949193858301939283018282801562000bc557602002820191906000526020600020905b81546001600160a01b0316815260019091019060200180831162000ba6575b50505091835250506002820154602082015260038201546001600160a01b031660408201526004820154606082015260058201546080820152600682015460a082015260079091015460c090910152905060005b81602001515181101562000cb0578160200151818151811062000c3857fe5b60200260200101516001600160a01b03166342986e1333876040518363ffffffff1660e01b815260040162000c6f929190620034ff565b600060405180830381600087803b15801562000c8a57600080fd5b505af115801562000c9f573d6000803e3d6000fd5b50506001909201915062000c199050565b50600062000cbe856200111b565b9050600062000cef670de0b6b3a764000062000ce88560a00151856200283890919063ffffffff16565b9062002863565b9050600062000d19670de0b6b3a764000062000ce88660c00151866200283890919063ffffffff16565b905062000d338162000d2c858562002879565b9062002879565b600780548401905560015460405163a9059cbb60e01b81529194506001600160a01b03169063a9059cbb9062000d709089908790600401620034ff565b602060405180830381600087803b15801562000d8b57600080fd5b505af115801562000da0573d6000803e3d6000fd5b505050506040513d601f19601f8201168201806040525081019062000dc69190620032f3565b50600254604051630ebdac0960e41b81526001600160a01b039091169063ebdac0909062000df9908490600401620039d3565b602060405180830381600087803b15801562000e1457600080fd5b505af115801562000e29573d6000803e3d6000fd5b505050506040513d601f19601f8201168201806040525081019062000e4f9190620032f3565b507fb6fdb729b2ed801daf629f0ab713e4a7a73619505790f6f27fd92d6f2c9688d788883360405162000e859392919062003a71565b60405180910390a150909695505050505050565b600e546001600160a01b0316331462000ec65760405162461bcd60e51b81526004016200064590620037e8565b6000848152600c602052604080822081516060810192839052909291839060039082845b81548152602001906001019080831162000eea57505050505090508060006003811062000f1357fe5b602002015115158062000f295750602081015115155b8062000f385750604081015115155b62000f575760405162461bcd60e51b81526004016200064590620035de565b600185600481111562000f6657fe5b600481111562000f7257fe5b141562000f935760405162461bcd60e51b8152600401620006459062003629565b600285600481111562000fa257fe5b600481111562000fae57fe5b14620010c15760005b6003811015620010b857600082826003811062000fd057fe5b602002015190508062000fe45750620010af565b6000600a828154811062000ff457fe5b90600052602060002090600802016001016000815481106200101257fe5b600091825260209091200154600a80546001600160a01b0390921692508291849081106200103c57fe5b906000526020600020906008020160030160006101000a8154816001600160a01b0302191690836001600160a01b031602179055507fc68d106ea6e4bec784925cfd91767212c71ced92adbac107dc364435321113f68282604051620010a4929190620039dc565b60405180910390a150505b60010162000fb7565b50505062001115565b805115620010d8578051620010d89085856200288f565b602081015115620010f5576020810151620010f5908585620029e5565b604081015115620011125760408101516200111290858562002bfa565b50505b50505050565b600060095482101580156200113a575060095482816200113757fe5b06155b620011595760405162461bcd60e51b815260040162000645906200370e565b60095482816200116557fe5b0490505b919050565b60086020526000908152604090205481565b6006546000906001600160a01b03163314806200119c57503330145b620011bb5760405162461bcd60e51b815260040162000645906200365e565b6007548015620012a357600060075560015460065460405163a9059cbb60e01b81526001600160a01b039283169263a9059cbb9262001202929116908590600401620034ff565b602060405180830381600087803b1580156200121d57600080fd5b505af115801562001232573d6000803e3d6000fd5b505050506040513d601f19601f82011682018060405250810190620012589190620032f3565b506006546040517f0f7f5b155b0b0ac6890709a2c7bf1b8bb3f675fff1e7840b4dd3c9acde59048b916200129a916001600160a01b03909116908490620034ff565b60405180910390a15b905090565b60606000620012b662002ce6565b905060008167ffffffffffffffff81118015620012d257600080fd5b50604051908082528060200260200182016040528015620012fd578160200160208202803683370190505b5090506000805b600d548110156200137657838211156200131e5762001376565b6000600d82815481106200132e57fe5b90600052602060002001549050620013468162002d3b565b156200136c57808484815181106200135a57fe5b60209081029190910101526001909201915b5060010162001304565b50909250505090565b60035481565b6002546001600160a01b031681565b600080600a8381548110620013a557fe5b60009182526020918290206040805161010081018252600890930290910180546001600160a01b031683526001810180548351818702810187019094528084529394919385830193928301828280156200142957602002820191906000526020600020905b81546001600160a01b031681526001909101906020018083116200140a575b50505091835250506002820154602082015260038201546001600160a01b039081166040830152600483015460608084019190915260058401546080840152600684015460a084015260079093015460c0909201919091529101511615159392505050565b60405162461bcd60e51b81526004016200064590620036a2565b50565b600d8181548110620014bc57600080fd5b600091825260209091200154905081565b60095481565b6000546001600160a01b03163314620014eb57600080fd5b60058190556040517fada2cde3c4a561f5c23e2fdbfb223e1f0d1ec7109b9811b32644e6e974d6631f9062001522908390620039d3565b60405180910390a150565b60045481565b6000546001600160a01b031690565b6006546001600160a01b031681565b3360009081526008602052604081205480156200164c573360009081526008602052604080822091909155600154905163a9059cbb60e01b81526001600160a01b039091169063a9059cbb90620015af9086908590600401620034ff565b602060405180830381600087803b158015620015ca57600080fd5b505af1158015620015df573d6000803e3d6000fd5b505050506040513d601f19601f82011682018060405250810190620016059190620032f3565b50826001600160a01b03167fc9985ad824d943d66367ce5feea26e18979b3e1c9273742926d87e2b0d747387338360405162001643929190620034ff565b60405180910390a25b92915050565b6000546001600160a01b031633146200166a57600080fd5b60038190556040517fcc4df50442ac32f0142ba4853f617661e0823be0e92148e7e5f36ce56c1398259062001522908390620039d3565b6000620016ae8362001394565b620016be57620016be836200148e565b6000600a8481548110620016ce57fe5b60009182526020918290206040805161010081018252600890930290910180546001600160a01b031683526001810180548351818702810187019094528084529394919385830193928301828280156200175257602002820191906000526020600020905b81546001600160a01b0316815260019091019060200180831162001733575b50505050508152602001600282015481526020016003820160009054906101000a90046001600160a01b03166001600160a01b03166001600160a01b031681526020016004820154815260200160058201548152602001600682015481526020016007820154815250509050600081606001516001600160a01b03166371297784336040518263ffffffff1660e01b8152600401620017f29190620034c7565b602060405180830381600087803b1580156200180d57600080fd5b505af115801562001822573d6000803e3d6000fd5b505050506040513d601f19601f820116820180604052508101906200184891906200332b565b905060095460095482816200185957fe5b0402905060006200186a826200111b565b9050600062001894670de0b6b3a764000062000ce88660800151856200283890919063ffffffff16565b9050620018a2828262002879565b84516001600160a01b0390811660009081526008602052604090819020805485019055600154905163a9059cbb60e01b8152929450169063a9059cbb90620018f19089908690600401620034ff565b602060405180830381600087803b1580156200190c57600080fd5b505af115801562001921573d6000803e3d6000fd5b505050506040513d601f19601f82011682018060405250810190620019479190620032f3565b50856001600160a01b03167fe67bd0100cd3289557430d36098901ba18161e6279c9711d8650b8af105521048886606001518685876040516200198f95949392919062003a45565b60405180910390a25095945050505050565b6000818152600c6020526040812054620019bb8162001394565b9392505050565b60075481565b620019d26200309c565b600b60008381526020019081526020016000206040518060e0016040529081600082015481526020016001820154815260200160028201548152602001600382015481526020016004820160009054906101000a900460ff16600281111562001a3757fe5b600281111562001a4357fe5b81526020016004820160019054906101000a900460ff16600481111562001a6657fe5b600481111562001a7257fe5b81526020016005820154815250509050919050565b60055481565b6000818152600c602052604080822081516060810192839052839290919060039082845b81548152602001906001019080831162001ab157505050505090508060006003811062001ada57fe5b60200201511580159062001af15750602081015115155b8015620019bb575060400151151592915050565b6009540290565b62001b166200303b565b6000828152600c6020526040808220815160608101928390529160039082845b81548152602001906001019080831162001b36575093979650505050505050565b600e546001600160a01b031681565b6000546001600160a01b0316331462001b7e57600080fd5b60048190556040517f92d395c429898992f8532ee7145901513e524c2085fd7fd1da39b8badcd6df319062001522908390620039d3565b600f5481565b6001546001600160a01b031681565b60606000805b600a5481101562001bfb5762001be68162001394565b62001bf2576001909101905b60010162001bd0565b5060008167ffffffffffffffff8111801562001c1657600080fd5b5060405190808252806020026020018201604052801562001c41578160200160208202803683370190505b5090506000805b600a54811015620013765783821062001c615762001376565b62001c6c8162001394565b62001c91578083838151811062001c7f57fe5b60209081029190910101526001909101905b60010162001c48565b6000546001600160a01b0316331462001cb257600080fd5b600e80546001600160a01b0319166001600160a01b0383161790556040517f6b7517523482c8d89ffbc530829d5decd506cf6dc60874b11fa26c8a53bb9fa99062001522908390620034c7565b600080805b845181101562001d455762001d3a62001d3286838151811062001d2357fe5b602002602001015186620016a1565b839062001f0a565b915060010162001d04565b509392505050565b62001d57620030e5565b600a54821062001db1575060408051610100810182526000808252825181815260208082018552830152918101829052606081018290526080810182905260a0810182905260c0810182905260e081019190915262001169565b600a828154811062001dbf57fe5b60009182526020918290206040805161010081018252600890930290910180546001600160a01b0316835260018101805483518187028101870190945280845293949193858301939283018282801562001e4357602002820191906000526020600020905b81546001600160a01b0316815260019091019060200180831162001e24575b50505091835250506002820154602082015260038201546001600160a01b031660408201526004820154606082015260058201546080820152600682015460a082015260079091015460c090910152905062001169565b600a5490565b600080546001600160a01b0316331462001eb957600080fd5b6001600160a01b03821662001ecd57600080fd5b60005462001ee5906001600160a01b03168362002e41565b50600080546001600160a01b0383166001600160a01b03199091161790556001919050565b600082820183811015620019bb57600080fd5b60408051600380825260808201909252600091829190816020015b606081526020019060019003908162001f385790505060408051808201909152600a815269139bc810dbdb9d195cdd60b21b60208201529091508160008151811062001f8057fe5b6020026020010181905250604051806040016040528060048152602001634177617960e01b815250816001600281111562001fb757fe5b8151811062001fc257fe5b602002602001018190525060405180604001604052806004815260200163486f6d6560e01b8152508160028081111562001ff857fe5b815181106200200357fe5b6020908102919091010152600a805490620020218a84808c62002e45565b8154600180820184556000938452602093849020835160089093020180546001600160a01b0319166001600160a01b039093169290921782558284015180519394929362002078939285019291909101906200313c565b506040820151816002015560608201518160030160006101000a8154816001600160a01b0302191690836001600160a01b031602179055506080820151816004015560a0820151816005015560c0820151816006015560e0820151816007015550506040518060e00160405280888152602001878152602001868152602001858152602001600060028111156200210b57fe5b8152602001600181526020016000815250600b60008381526020019081526020016000206000820151816000015560208201518160010155604082015181600201556060820151816003015560808201518160040160006101000a81548160ff021916908360028111156200217c57fe5b021790555060a08201518160040160016101000a81548160ff02191690836004811115620021a657fe5b021790555060c08201518160050155905050867fafad6545e5200f9fdf4db34dfca61a9e7d72518593fd5155d11fd69c20e1555f828b8b60008b8b8b6000604051620021fa989796959493929190620039f3565b60405180910390a298975050505050505050565b60408051600380825260808201909252600091829190816020015b6060815260200190600190039081620022295790505060408051808201909152600a815269139bc810dbdb9d195cdd60b21b6020820152909150816000815181106200227157fe5b6020026020010181905250604051806040016040528060048152602001634177617960e01b8152508160016002811115620022a857fe5b81518110620022b357fe5b602002602001018190525060405180604001604052806004815260200163486f6d6560e01b81525081600280811115620022e957fe5b81518110620022f457fe5b602002602001018190525060008312158015620023125750600a8307155b1562002324576005830192506200234e565b600083128015620023415750600a83600003816200233e57fe5b07155b156200234e576005830392505b600a805490620023618b84808d62002e45565b8154600180820184556000938452602093849020835160089093020180546001600160a01b0319166001600160a01b0390931692909217825582840151805193949293620023b8939285019291909101906200313c565b506040820151816002015560608201518160030160006101000a8154816001600160a01b0302191690836001600160a01b031602179055506080820151816004015560a0820151816005015560c0820151816006015560e0820151816007015550506040518060e00160405280898152602001888152602001878152602001868152602001600160028111156200244b57fe5b81526020016001815260200185815250600b60008381526020019081526020016000206000820151816000015560208201518160010155604082015181600201556060820151816003015560808201518160040160006101000a81548160ff02191690836002811115620024bb57fe5b021790555060a08201518160040160016101000a81548160ff02191690836004811115620024e557fe5b021790555060c08201518160050155905050877fafad6545e5200f9fdf4db34dfca61a9e7d72518593fd5155d11fd69c20e1555f828c8c60018c8c8c8c60405162002538989796959493929190620039f3565b60405180910390a29998505050505050505050565b60408051600380825260808201909252600091829190816020015b6060815260200190600190039081620025685790505060408051808201909152600a815269139bc810dbdb9d195cdd60b21b602082015290915081600081518110620025b057fe5b60200260200101819052506040518060400160405280600481526020016327bb32b960e11b8152508160016002811115620025e757fe5b81518110620025f257fe5b6020026020010181905250604051806040016040528060058152602001642ab73232b960d91b815250816002808111156200262957fe5b815181106200263457fe5b6020908102919091010152600a83066200264f576005830192505b600a805490620026628b84808d62002e45565b8154600180820184556000938452602093849020835160089093020180546001600160a01b0319166001600160a01b0390931692909217825582840151805193949293620026b9939285019291909101906200313c565b506040820151816002015560608201518160030160006101000a8154816001600160a01b0302191690836001600160a01b031602179055506080820151816004015560a0820151816005015560c0820151816006015560e0820151816007015550506040518060e001604052808981526020018881526020018781526020018681526020016002808111156200274b57fe5b81526020016001815260200185815250600b60008381526020019081526020016000206000820151816000015560208201518160010155604082015181600201556060820151816003015560808201518160040160006101000a81548160ff02191690836002811115620027bb57fe5b021790555060a08201518160040160016101000a81548160ff02191690836004811115620027e557fe5b021790555060c08201518160050155905050877fafad6545e5200f9fdf4db34dfca61a9e7d72518593fd5155d11fd69c20e1555f828c8c60028c8c8c8c60405162002538989796959493929190620039f3565b60008262002849575060006200164c565b828202828482816200285757fe5b0414620019bb57600080fd5b6000808284816200287057fe5b04949350505050565b6000828211156200288957600080fd5b50900390565b600081831115620028e657600a8481548110620028a857fe5b6000918252602090912060016008909202010160025b81548110620028c957fe5b6000918252602090912001546001600160a01b0316905062002960565b818310156200291c57600a8481548110620028fd57fe5b906000526020600020906008020160010160016002811115620028be57fe5b600a84815481106200292a57fe5b60009182526020822060016008909202010190815481106200294857fe5b6000918252602090912001546001600160a01b031690505b80600a85815481106200296f57fe5b906000526020600020906008020160030160006101000a8154816001600160a01b0302191690836001600160a01b031602179055507fc68d106ea6e4bec784925cfd91767212c71ced92adbac107dc364435321113f68482604051620029d7929190620039dc565b60405180910390a150505050565b6000838152600b60209081526040808320815160e08101835281548152600182015493810193909352600280820154928401929092526003810154606084015260048101549091608084019160ff169081111562002a3f57fe5b600281111562002a4b57fe5b81526020016004820160019054906101000a900460ff16600481111562002a6e57fe5b600481111562002a7a57fe5b81526005919091015460209091015260c0810151909150600062002a9f858562002eb8565b905060008282131562002af857600a878154811062002aba57fe5b6000918252602090912060016008909202010160025b8154811062002adb57fe5b6000918252602090912001546001600160a01b0316905062002b72565b8282121562002b2e57600a878154811062002b0f57fe5b90600052602060002090600802016001016001600281111562002ad057fe5b600a878154811062002b3c57fe5b600091825260208220600160089092020101908154811062002b5a57fe5b6000918252602090912001546001600160a01b031690505b80600a888154811062002b8157fe5b906000526020600020906008020160030160006101000a8154816001600160a01b0302191690836001600160a01b031602179055507fc68d106ea6e4bec784925cfd91767212c71ced92adbac107dc364435321113f6878260405162002be9929190620039dc565b60405180910390a150505050505050565b6000838152600b60209081526040808320815160e08101835281548152600182015493810193909352600280820154928401929092526003810154606084015260048101549091608084019160ff169081111562002c5457fe5b600281111562002c6057fe5b81526020016004820160019054906101000a900460ff16600481111562002c8357fe5b600481111562002c8f57fe5b81526005919091015460209091015260c0810151909150600062002cb4858562002efc565b905060008282131562002ccf57600a878154811062002b0f57fe5b8282121562002b2e57600a878154811062002aba57fe5b600080805b600d5481101562002d35576000600d828154811062002d0657fe5b9060005260206000200154905062002d1e8162002d3b565b1562002d2b576001909201915b5060010162002ceb565b50905090565b6000818152600c6020526040808220815161014081019092528291908160e081018260038282826020028201915b81548152602001906001019080831162002d6957505050918352505060038201546020820152600480830154604083015260058301546060830152600683015460809092019160ff169081111562002dbd57fe5b600481111562002dc957fe5b81526007820154602082015260089091015460ff16151560409091015290506000805b600381101562001d45578251600090826003811062002e0757fe5b60200201519050801580159062002e26575062002e248162001394565b155b1562002e3757600192505062001d45565b5060010162002dec565b5050565b62002e4f620030e5565b604051806101000160405280866001600160a01b0316815260200162002e7786863062002f45565b815260200183815260200160006001600160a01b03168152602001600454815260200160055481526020016003548152602001428152509050949350505050565b600080831215801562002ed457506001600160ff1b0383038212155b8062002ef2575060008312801562002ef25750600160ff1b83038213155b6200288957600080fd5b600080831215801562002f185750826001600160ff1b03038213155b8062002f36575060008312801562002f36575082600160ff1b038212155b62002f4057600080fd5b500190565b825160609060008167ffffffffffffffff8111801562002f6457600080fd5b5060405190808252806020026020018201604052801562002f8f578160200160208202803683370190505b50905060005b82811015620030315786818151811062002fab57fe5b602002602001015186828151811062002fc057fe5b60200260200101518660405162002fd79062003194565b62002fe5939291906200359c565b604051809103906000f08015801562003002573d6000803e3d6000fd5b508282815181106200301057fe5b6001600160a01b039092166020928302919091019091015260010162002f95565b5095945050505050565b60405180606001604052806003906020820280368337509192915050565b82600381019282156200308a579160200282015b828111156200308a5782518255916020019190600101906200306d565b5062003098929150620031a2565b5090565b6040518060e001604052806000815260200160008152602001600081526020016000815260200160006002811115620030d157fe5b815260200160008152602001600081525090565b60405180610100016040528060006001600160a01b03168152602001606081526020016000815260200160006001600160a01b03168152602001600081526020016000815260200160008152602001600081525090565b8280548282559060005260206000209081019282156200308a579160200282015b828111156200308a57825182546001600160a01b0319166001600160a01b039091161782556020909201916001909101906200315d565b6111f38062003add83390190565b5b80821115620030985760008155600101620031a3565b80356001600160a01b03811681146200116957600080fd5b600060208284031215620031e3578081fd5b620019bb82620031b9565b6000806040838503121562003201578081fd5b6200320c83620031b9565b915060208301356200321e8162003acd565b809150509250929050565b600080604083850312156200323c578182fd5b823567ffffffffffffffff8082111562003254578384fd5b818501915085601f83011262003268578384fd5b81356020828211156200327757fe5b808202604051828282010181811086821117156200329157fe5b604052838152828101945085830182870184018b1015620032b0578889fd5b8896505b84871015620032d4578035865260019690960195948301948301620032b4565b509650620032e69050878201620031b9565b9450505050509250929050565b60006020828403121562003305578081fd5b8151620019bb8162003acd565b60006020828403121562003324578081fd5b5035919050565b6000602082840312156200333d578081fd5b5051919050565b6000806040838503121562003357578182fd5b823591506200336960208401620031b9565b90509250929050565b60008060006060848603121562003387578081fd5b8335925060208401359150620033a060408501620031b9565b90509250925092565b60008060008060808587031215620033bf578081fd5b5050823594602084013594506040840135936060013592509050565b600080600080600080600080610100898b031215620033f8578384fd5b883597506020890135965060408901359550606089013594506080890135935060a0890135925060c08901356200342f8162003acd565b915060e0890135620034418162003acd565b809150509295985092959890939650565b6001600160a01b03169052565b600581106200346a57fe5b9052565b600381106200346a57fe5b60008151808452815b81811015620034a05760208185018101518683018201520162003482565b81811115620034b25782602083870101525b50601f01601f19169290920160200192915050565b6001600160a01b0391909116815260200190565b6001600160a01b039384168152919092166020820152604081019190915260600190565b6001600160a01b03929092168252602082015260400190565b60608101818360005b60038110156200354257815183526020928301929091019060010162003521565b50505092915050565b6020808252825182820181905260009190848201906040850190845b81811015620035855783518352928401929184019160010162003567565b50909695505050505050565b901515815260200190565b600060608252620035b1606083018662003479565b8281036020840152620035c5818662003479565b91505060018060a01b0383166040830152949350505050565b6020808252602b908201527f43616e6e6f74207265736f6c7665206d61726b6574732074686174207765726560408201526a1b89dd0818dc99585d195960aa1b606082015260800190565b6020808252818101527f63616e6e6f74207265736f6c7665205343484544554c4544206d61726b657473604082015260600190565b60208082526024908201527f4f6e6c792070726f746f636f6c2063616e20636c61696d2070726f746f636f6c6040820152632066656560e01b606082015260800190565b60208082526046908201527f4f6e6c7920746865206c696e6b206e6f64652063616e207265736f6c7665207460408201527f6865206d61726b65742c207573696e6720747275737465645265736f6c76654d60608201526561726b65747360d01b608082015260a00190565b6020808252604b908201527f536861726573206d75737420626520626f74682067726561746572207468616e60408201527f20286f7220657175616c20746f2920616e6420646976697369626c652062792060608201526a39b430b932a330b1ba37b960a91b608082015260a00190565b60208082526021908201527f4f6e6c79206c696e6b206e6f64652063616e20637265617465206d61726b65746040820152607360f81b606082015260800190565b6020808252600e908201526d139bc81cdd58da081b585c9ad95d60921b604082015260600190565b60208082526022908201527f4f6e6c79206c696e6b206e6f64652063616e207265736f6c7665206d61726b65604082015261747360f01b606082015260800190565b60208082526026908201527f43616e6e6f74206d696e742073686172657320666f72207265736f6c766564206040820152651b585c9ad95d60d21b606082015260800190565b60208082526026908201527f43616e6e6f74206275726e2073686172657320666f72207265736f6c766564206040820152651b585c9ad95d60d21b606082015260800190565b600060e082019050825182526020830151602083015260408301516040830152606083015160608301526080830151620038f460808401826200346e565b5060a08301516200390960a08401826200345f565b5060c092830151919092015290565b602080825282516001600160a01b039081168383015283820151610100604085018190528151610120860181905260009493928401929185916101408801905b808410156200397c5785518516825294860194600193909301929086019062003958565b5060408901516060890152606089015195506200399d608089018762003452565b608089015160a089015260a089015160c089015260c089015160e089015260e08901518289015280965050505050505092915050565b90815260200190565b9182526001600160a01b0316602082015260400190565b8881526001600160a01b038816602082015260408101879052610100810162003a2060608301886200346e565b8560808301528460a08301528360c08301528260e08301529998505050505050505050565b9485526001600160a01b0393909316602085015260408401919091526060830152608082015260a00190565b92835260208301919091526001600160a01b0316604082015260600190565b868152602081018690526040810185905260c0810162003ab460608301866200345f565b83608083015282151560a0830152979650505050505050565b8015158114620014a857600080fdfe60806040523480156200001157600080fd5b50604051620011f3380380620011f3833981810160405260608110156200003757600080fd5b81019080805160405193929190846401000000008211156200005857600080fd5b9083019060208201858111156200006e57600080fd5b82516401000000008111828201881017156200008957600080fd5b82525081516020918201929091019080838360005b83811015620000b85781810151838201526020016200009e565b50505050905090810190601f168015620000e65780820380516001836020036101000a031916815260200191505b50604052602001805160405193929190846401000000008211156200010a57600080fd5b9083019060208201858111156200012057600080fd5b82516401000000008111828201881017156200013b57600080fd5b82525081516020918201929091019080838360005b838110156200016a57818101518382015260200162000150565b50505050905090810190601f168015620001985780820380516001836020036101000a031916815260200191505b5060405260209081015185519093508592508491620001bd9160039185019062000219565b508051620001d390600490602084019062000219565b5050600580546001600160a01b039390931661010090810233909102610100600160a81b031960ff199095166012178516179093169290921790915550620002c5915050565b828054600181600116156101000203166002900490600052602060002090601f0160209004810192826200025157600085556200029c565b82601f106200026c57805160ff19168380011785556200029c565b828001600101855582156200029c579182015b828111156200029c5782518255916020019190600101906200027f565b50620002aa929150620002ae565b5090565b5b80821115620002aa5760008155600101620002af565b610f1e80620002d56000396000f3fe608060405234801561001057600080fd5b506004361061010b5760003560e01c806370a08231116100a2578063a457c2d711610071578063a457c2d714610343578063a9059cbb1461036f578063c024cd261461039b578063dd62ed3e146103c7578063f2fde38b146103f55761010b565b806370a08231146102cb57806371297784146102f1578063893d20e81461031757806395d89b411461033b5761010b565b806323b872dd116100de57806323b872dd1461021f578063313ce56714610255578063395093511461027357806342986e131461029f5761010b565b806306fdde0314610110578063095ea7b31461018d5780630fb66557146101cd57806318160ddd14610205575b600080fd5b61011861041b565b6040805160208082528351818301528351919283929083019185019080838360005b8381101561015257818101518382015260200161013a565b50505050905090810190601f16801561017f5780820380516001836020036101000a031916815260200191505b509250505060405180910390f35b6101b9600480360360408110156101a357600080fd5b506001600160a01b0381351690602001356104b1565b604080519115158252519081900360200190f35b610203600480360360608110156101e357600080fd5b506001600160a01b038135811691602081013590911690604001356104ce565b005b61020d6104fa565b60408051918252519081900360200190f35b6101b96004803603606081101561023557600080fd5b506001600160a01b03813581169160208101359091169060400135610500565b61025d610587565b6040805160ff9092168252519081900360200190f35b6101b96004803603604081101561028957600080fd5b506001600160a01b038135169060200135610590565b610203600480360360408110156102b557600080fd5b506001600160a01b0381351690602001356105de565b61020d600480360360208110156102e157600080fd5b50356001600160a01b0316610608565b61020d6004803603602081101561030757600080fd5b50356001600160a01b0316610623565b61031f61065f565b604080516001600160a01b039092168252519081900360200190f35b610118610673565b6101b96004803603604081101561035957600080fd5b506001600160a01b0381351690602001356106d4565b6101b96004803603604081101561038557600080fd5b506001600160a01b03813516906020013561073c565b610203600480360360408110156103b157600080fd5b506001600160a01b038135169060200135610750565b61020d600480360360408110156103dd57600080fd5b506001600160a01b0381358116916020013516610776565b6101b96004803603602081101561040b57600080fd5b50356001600160a01b03166107a1565b60038054604080516020601f60026000196101006001881615020190951694909404938401819004810282018101909252828152606093909290918301828280156104a75780601f1061047c576101008083540402835291602001916104a7565b820191906000526020600020905b81548152906001019060200180831161048a57829003601f168201915b5050505050905090565b60006104c56104be610818565b848461081c565b50600192915050565b60055461010090046001600160a01b031633146104ea57600080fd5b6104f5838383610908565b505050565b60025490565b600061050d848484610908565b61057d84610519610818565b61057885604051806060016040528060288152602001610e32602891396001600160a01b038a16600090815260016020526040812090610557610818565b6001600160a01b031681526020810191909152604001600020549190610a63565b61081c565b5060019392505050565b60055460ff1690565b60006104c561059d610818565b8461057885600160006105ae610818565b6001600160a01b03908116825260208083019390935260409182016000908120918c168152925290205490610afa565b60055461010090046001600160a01b031633146105fa57600080fd5b6106048282610b5b565b5050565b6001600160a01b031660009081526020819052604090205490565b60055460009061010090046001600160a01b0316331461064257600080fd5b600061064d83610608565b90506106598382610b5b565b92915050565b60055461010090046001600160a01b031690565b60048054604080516020601f60026000196101006001881615020190951694909404938401819004810282018101909252828152606093909290918301828280156104a75780601f1061047c576101008083540402835291602001916104a7565b60006104c56106e1610818565b8461057885604051806060016040528060258152602001610ec4602591396001600061070b610818565b6001600160a01b03908116825260208083019390935260409182016000908120918d16815292529020549190610a63565b60006104c5610749610818565b8484610908565b60055461010090046001600160a01b0316331461076c57600080fd5b6106048282610c57565b6001600160a01b03918216600090815260016020908152604080832093909416825291909152205490565b60055460009061010090046001600160a01b031633146107c057600080fd5b6001600160a01b0382166107d357600080fd5b6005546107ee9061010090046001600160a01b031683610604565b50600580546001600160a01b03831661010002610100600160a81b03199091161790556001919050565b3390565b6001600160a01b0383166108615760405162461bcd60e51b8152600401808060200182810382526024815260200180610ea06024913960400191505060405180910390fd5b6001600160a01b0382166108a65760405162461bcd60e51b8152600401808060200182810382526022815260200180610dea6022913960400191505060405180910390fd5b6001600160a01b03808416600081815260016020908152604080832094871680845294825291829020859055815185815291517f8c5be1e5ebec7d5bd14f71427d1e84f3dd0314c0f7b2291e5b200ac8c7c3b9259281900390910190a3505050565b6001600160a01b03831661094d5760405162461bcd60e51b8152600401808060200182810382526025815260200180610e7b6025913960400191505060405180910390fd5b6001600160a01b0382166109925760405162461bcd60e51b8152600401808060200182810382526023815260200180610da56023913960400191505060405180910390fd5b61099d8383836104f5565b6109da81604051806060016040528060268152602001610e0c602691396001600160a01b0386166000908152602081905260409020549190610a63565b6001600160a01b038085166000908152602081905260408082209390935590841681522054610a099082610afa565b6001600160a01b038084166000818152602081815260409182902094909455805185815290519193928716927fddf252ad1be2c89b69c2b068fc378daa952ba7f163c4a11628f55a4df523b3ef92918290030190a3505050565b60008184841115610af25760405162461bcd60e51b81526004018080602001828103825283818151815260200191508051906020019080838360005b83811015610ab7578181015183820152602001610a9f565b50505050905090810190601f168015610ae45780820380516001836020036101000a031916815260200191505b509250505060405180910390fd5b505050900390565b600082820183811015610b54576040805162461bcd60e51b815260206004820152601b60248201527f536166654d6174683a206164646974696f6e206f766572666c6f770000000000604482015290519081900360640190fd5b9392505050565b6001600160a01b038216610ba05760405162461bcd60e51b8152600401808060200182810382526021815260200180610e5a6021913960400191505060405180910390fd5b610bac826000836104f5565b610be981604051806060016040528060228152602001610dc8602291396001600160a01b0385166000908152602081905260409020549190610a63565b6001600160a01b038316600090815260208190526040902055600254610c0f9082610d47565b6002556040805182815290516000916001600160a01b038516917fddf252ad1be2c89b69c2b068fc378daa952ba7f163c4a11628f55a4df523b3ef9181900360200190a35050565b6001600160a01b038216610cb2576040805162461bcd60e51b815260206004820152601f60248201527f45524332303a206d696e7420746f20746865207a65726f206164647265737300604482015290519081900360640190fd5b610cbe600083836104f5565b600254610ccb9082610afa565b6002556001600160a01b038216600090815260208190526040902054610cf19082610afa565b6001600160a01b0383166000818152602081815260408083209490945583518581529351929391927fddf252ad1be2c89b69c2b068fc378daa952ba7f163c4a11628f55a4df523b3ef9281900390910190a35050565b600082821115610d9e576040805162461bcd60e51b815260206004820152601e60248201527f536166654d6174683a207375627472616374696f6e206f766572666c6f770000604482015290519081900360640190fd5b5090039056fe45524332303a207472616e7366657220746f20746865207a65726f206164647265737345524332303a206275726e20616d6f756e7420657863656564732062616c616e636545524332303a20617070726f766520746f20746865207a65726f206164647265737345524332303a207472616e7366657220616d6f756e7420657863656564732062616c616e636545524332303a207472616e7366657220616d6f756e74206578636565647320616c6c6f77616e636545524332303a206275726e2066726f6d20746865207a65726f206164647265737345524332303a207472616e736665722066726f6d20746865207a65726f206164647265737345524332303a20617070726f76652066726f6d20746865207a65726f206164647265737345524332303a2064656372656173656420616c6c6f77616e63652062656c6f77207a65726fa2646970667358221220c881513fca5a75d47e02fc1c04920461b43ce001b23b37bd2a0244cb5b4737ce64736f6c63430007060033a26469706673582212202373b48af73b12a8249aa54e16dfe524509ff031341ec254b76eaf1df611406c64736f6c6343000706003360806040523480156200001157600080fd5b50604051620011f3380380620011f3833981810160405260608110156200003757600080fd5b81019080805160405193929190846401000000008211156200005857600080fd5b9083019060208201858111156200006e57600080fd5b82516401000000008111828201881017156200008957600080fd5b82525081516020918201929091019080838360005b83811015620000b85781810151838201526020016200009e565b50505050905090810190601f168015620000e65780820380516001836020036101000a031916815260200191505b50604052602001805160405193929190846401000000008211156200010a57600080fd5b9083019060208201858111156200012057600080fd5b82516401000000008111828201881017156200013b57600080fd5b82525081516020918201929091019080838360005b838110156200016a57818101518382015260200162000150565b50505050905090810190601f168015620001985780820380516001836020036101000a031916815260200191505b5060405260209081015185519093508592508491620001bd9160039185019062000219565b508051620001d390600490602084019062000219565b5050600580546001600160a01b039390931661010090810233909102610100600160a81b031960ff199095166012178516179093169290921790915550620002c5915050565b828054600181600116156101000203166002900490600052602060002090601f0160209004810192826200025157600085556200029c565b82601f106200026c57805160ff19168380011785556200029c565b828001600101855582156200029c579182015b828111156200029c5782518255916020019190600101906200027f565b50620002aa929150620002ae565b5090565b5b80821115620002aa5760008155600101620002af565b610f1e80620002d56000396000f3fe608060405234801561001057600080fd5b506004361061010b5760003560e01c806370a08231116100a2578063a457c2d711610071578063a457c2d714610343578063a9059cbb1461036f578063c024cd261461039b578063dd62ed3e146103c7578063f2fde38b146103f55761010b565b806370a08231146102cb57806371297784146102f1578063893d20e81461031757806395d89b411461033b5761010b565b806323b872dd116100de57806323b872dd1461021f578063313ce56714610255578063395093511461027357806342986e131461029f5761010b565b806306fdde0314610110578063095ea7b31461018d5780630fb66557146101cd57806318160ddd14610205575b600080fd5b61011861041b565b6040805160208082528351818301528351919283929083019185019080838360005b8381101561015257818101518382015260200161013a565b50505050905090810190601f16801561017f5780820380516001836020036101000a031916815260200191505b509250505060405180910390f35b6101b9600480360360408110156101a357600080fd5b506001600160a01b0381351690602001356104b1565b604080519115158252519081900360200190f35b610203600480360360608110156101e357600080fd5b506001600160a01b038135811691602081013590911690604001356104ce565b005b61020d6104fa565b60408051918252519081900360200190f35b6101b96004803603606081101561023557600080fd5b506001600160a01b03813581169160208101359091169060400135610500565b61025d610587565b6040805160ff9092168252519081900360200190f35b6101b96004803603604081101561028957600080fd5b506001600160a01b038135169060200135610590565b610203600480360360408110156102b557600080fd5b506001600160a01b0381351690602001356105de565b61020d600480360360208110156102e157600080fd5b50356001600160a01b0316610608565b61020d6004803603602081101561030757600080fd5b50356001600160a01b0316610623565b61031f61065f565b604080516001600160a01b039092168252519081900360200190f35b610118610673565b6101b96004803603604081101561035957600080fd5b506001600160a01b0381351690602001356106d4565b6101b96004803603604081101561038557600080fd5b506001600160a01b03813516906020013561073c565b610203600480360360408110156103b157600080fd5b506001600160a01b038135169060200135610750565b61020d600480360360408110156103dd57600080fd5b506001600160a01b0381358116916020013516610776565b6101b96004803603602081101561040b57600080fd5b50356001600160a01b03166107a1565b60038054604080516020601f60026000196101006001881615020190951694909404938401819004810282018101909252828152606093909290918301828280156104a75780601f1061047c576101008083540402835291602001916104a7565b820191906000526020600020905b81548152906001019060200180831161048a57829003601f168201915b5050505050905090565b60006104c56104be610818565b848461081c565b50600192915050565b60055461010090046001600160a01b031633146104ea57600080fd5b6104f5838383610908565b505050565b60025490565b600061050d848484610908565b61057d84610519610818565b61057885604051806060016040528060288152602001610e32602891396001600160a01b038a16600090815260016020526040812090610557610818565b6001600160a01b031681526020810191909152604001600020549190610a63565b61081c565b5060019392505050565b60055460ff1690565b60006104c561059d610818565b8461057885600160006105ae610818565b6001600160a01b03908116825260208083019390935260409182016000908120918c168152925290205490610afa565b60055461010090046001600160a01b031633146105fa57600080fd5b6106048282610b5b565b5050565b6001600160a01b031660009081526020819052604090205490565b60055460009061010090046001600160a01b0316331461064257600080fd5b600061064d83610608565b90506106598382610b5b565b92915050565b60055461010090046001600160a01b031690565b60048054604080516020601f60026000196101006001881615020190951694909404938401819004810282018101909252828152606093909290918301828280156104a75780601f1061047c576101008083540402835291602001916104a7565b60006104c56106e1610818565b8461057885604051806060016040528060258152602001610ec4602591396001600061070b610818565b6001600160a01b03908116825260208083019390935260409182016000908120918d16815292529020549190610a63565b60006104c5610749610818565b8484610908565b60055461010090046001600160a01b0316331461076c57600080fd5b6106048282610c57565b6001600160a01b03918216600090815260016020908152604080832093909416825291909152205490565b60055460009061010090046001600160a01b031633146107c057600080fd5b6001600160a01b0382166107d357600080fd5b6005546107ee9061010090046001600160a01b031683610604565b50600580546001600160a01b03831661010002610100600160a81b03199091161790556001919050565b3390565b6001600160a01b0383166108615760405162461bcd60e51b8152600401808060200182810382526024815260200180610ea06024913960400191505060405180910390fd5b6001600160a01b0382166108a65760405162461bcd60e51b8152600401808060200182810382526022815260200180610dea6022913960400191505060405180910390fd5b6001600160a01b03808416600081815260016020908152604080832094871680845294825291829020859055815185815291517f8c5be1e5ebec7d5bd14f71427d1e84f3dd0314c0f7b2291e5b200ac8c7c3b9259281900390910190a3505050565b6001600160a01b03831661094d5760405162461bcd60e51b8152600401808060200182810382526025815260200180610e7b6025913960400191505060405180910390fd5b6001600160a01b0382166109925760405162461bcd60e51b8152600401808060200182810382526023815260200180610da56023913960400191505060405180910390fd5b61099d8383836104f5565b6109da81604051806060016040528060268152602001610e0c602691396001600160a01b0386166000908152602081905260409020549190610a63565b6001600160a01b038085166000908152602081905260408082209390935590841681522054610a099082610afa565b6001600160a01b038084166000818152602081815260409182902094909455805185815290519193928716927fddf252ad1be2c89b69c2b068fc378daa952ba7f163c4a11628f55a4df523b3ef92918290030190a3505050565b60008184841115610af25760405162461bcd60e51b81526004018080602001828103825283818151815260200191508051906020019080838360005b83811015610ab7578181015183820152602001610a9f565b50505050905090810190601f168015610ae45780820380516001836020036101000a031916815260200191505b509250505060405180910390fd5b505050900390565b600082820183811015610b54576040805162461bcd60e51b815260206004820152601b60248201527f536166654d6174683a206164646974696f6e206f766572666c6f770000000000604482015290519081900360640190fd5b9392505050565b6001600160a01b038216610ba05760405162461bcd60e51b8152600401808060200182810382526021815260200180610e5a6021913960400191505060405180910390fd5b610bac826000836104f5565b610be981604051806060016040528060228152602001610dc8602291396001600160a01b0385166000908152602081905260409020549190610a63565b6001600160a01b038316600090815260208190526040902055600254610c0f9082610d47565b6002556040805182815290516000916001600160a01b038516917fddf252ad1be2c89b69c2b068fc378daa952ba7f163c4a11628f55a4df523b3ef9181900360200190a35050565b6001600160a01b038216610cb2576040805162461bcd60e51b815260206004820152601f60248201527f45524332303a206d696e7420746f20746865207a65726f206164647265737300604482015290519081900360640190fd5b610cbe600083836104f5565b600254610ccb9082610afa565b6002556001600160a01b038216600090815260208190526040902054610cf19082610afa565b6001600160a01b0383166000818152602081815260408083209490945583518581529351929391927fddf252ad1be2c89b69c2b068fc378daa952ba7f163c4a11628f55a4df523b3ef9281900390910190a35050565b600082821115610d9e576040805162461bcd60e51b815260206004820152601e60248201527f536166654d6174683a207375627472616374696f6e206f766572666c6f770000604482015290519081900360640190fd5b5090039056fe45524332303a207472616e7366657220746f20746865207a65726f206164647265737345524332303a206275726e20616d6f756e7420657863656564732062616c616e636545524332303a20617070726f766520746f20746865207a65726f206164647265737345524332303a207472616e7366657220616d6f756e7420657863656564732062616c616e636545524332303a207472616e7366657220616d6f756e74206578636565647320616c6c6f77616e636545524332303a206275726e2066726f6d20746865207a65726f206164647265737345524332303a207472616e736665722066726f6d20746865207a65726f206164647265737345524332303a20617070726f76652066726f6d20746865207a65726f206164647265737345524332303a2064656372656173656420616c6c6f77616e63652062656c6f77207a65726fa2646970667358221220c881513fca5a75d47e02fc1c04920461b43ce001b23b37bd2a0244cb5b4737ce64736f6c63430007060033",
  "devdoc": {
    "kind": "dev",
    "methods": {
      "transferOwnership(address)": {
        "details": "Allows the current owner to transfer control of the contract to a newOwner.",
        "params": {
          "_newOwner": "The address to transfer ownership to."
        }
      }
    },
    "version": 1
  },
  "userdoc": {
    "kind": "user",
    "methods": {},
    "version": 1
  },
  "storageLayout": {
    "storage": [
      {
        "astId": 5572,
        "contract": "contracts/turbo/SportsLinkMarketFactory.sol:SportsLinkMarketFactory",
        "label": "owner",
        "offset": 0,
        "slot": "0",
        "type": "t_address"
      },
      {
        "astId": 8094,
        "contract": "contracts/turbo/SportsLinkMarketFactory.sol:SportsLinkMarketFactory",
        "label": "collateral",
        "offset": 0,
        "slot": "1",
        "type": "t_contract(IERC20Full)5549"
      },
      {
        "astId": 8096,
        "contract": "contracts/turbo/SportsLinkMarketFactory.sol:SportsLinkMarketFactory",
        "label": "feePot",
        "offset": 0,
        "slot": "2",
        "type": "t_contract(FeePot)10032"
      },
      {
        "astId": 8098,
        "contract": "contracts/turbo/SportsLinkMarketFactory.sol:SportsLinkMarketFactory",
        "label": "stakerFee",
        "offset": 0,
        "slot": "3",
        "type": "t_uint256"
      },
      {
        "astId": 8100,
        "contract": "contracts/turbo/SportsLinkMarketFactory.sol:SportsLinkMarketFactory",
        "label": "settlementFee",
        "offset": 0,
        "slot": "4",
        "type": "t_uint256"
      },
      {
        "astId": 8102,
        "contract": "contracts/turbo/SportsLinkMarketFactory.sol:SportsLinkMarketFactory",
        "label": "protocolFee",
        "offset": 0,
        "slot": "5",
        "type": "t_uint256"
      },
      {
        "astId": 8104,
        "contract": "contracts/turbo/SportsLinkMarketFactory.sol:SportsLinkMarketFactory",
        "label": "protocol",
        "offset": 0,
        "slot": "6",
        "type": "t_address"
      },
      {
        "astId": 8107,
        "contract": "contracts/turbo/SportsLinkMarketFactory.sol:SportsLinkMarketFactory",
        "label": "accumulatedProtocolFee",
        "offset": 0,
        "slot": "7",
        "type": "t_uint256"
      },
      {
        "astId": 8111,
        "contract": "contracts/turbo/SportsLinkMarketFactory.sol:SportsLinkMarketFactory",
        "label": "accumulatedSettlementFees",
        "offset": 0,
        "slot": "8",
        "type": "t_mapping(t_address,t_uint256)"
      },
      {
        "astId": 8113,
        "contract": "contracts/turbo/SportsLinkMarketFactory.sol:SportsLinkMarketFactory",
        "label": "shareFactor",
        "offset": 0,
        "slot": "9",
        "type": "t_uint256"
      },
      {
        "astId": 8134,
        "contract": "contracts/turbo/SportsLinkMarketFactory.sol:SportsLinkMarketFactory",
        "label": "markets",
        "offset": 0,
        "slot": "10",
        "type": "t_array(t_struct(Market)8131_storage)dyn_storage"
      },
      {
        "astId": 11416,
        "contract": "contracts/turbo/SportsLinkMarketFactory.sol:SportsLinkMarketFactory",
        "label": "marketDetails",
        "offset": 0,
        "slot": "11",
        "type": "t_mapping(t_uint256,t_struct(MarketDetails)11412_storage)"
      },
      {
        "astId": 11443,
        "contract": "contracts/turbo/SportsLinkMarketFactory.sol:SportsLinkMarketFactory",
        "label": "events",
        "offset": 0,
        "slot": "12",
        "type": "t_mapping(t_uint256,t_struct(EventDetails)11439_storage)"
      },
      {
        "astId": 11446,
        "contract": "contracts/turbo/SportsLinkMarketFactory.sol:SportsLinkMarketFactory",
        "label": "listOfEvents",
        "offset": 0,
        "slot": "13",
        "type": "t_array(t_uint256)dyn_storage"
      },
      {
        "astId": 11448,
        "contract": "contracts/turbo/SportsLinkMarketFactory.sol:SportsLinkMarketFactory",
        "label": "linkNode",
        "offset": 0,
        "slot": "14",
        "type": "t_address"
      },
      {
        "astId": 11450,
        "contract": "contracts/turbo/SportsLinkMarketFactory.sol:SportsLinkMarketFactory",
        "label": "sportId",
        "offset": 0,
        "slot": "15",
        "type": "t_uint256"
      }
    ],
    "types": {
      "t_address": {
        "encoding": "inplace",
        "label": "address",
        "numberOfBytes": "20"
      },
      "t_array(t_contract(OwnedERC20)11030)dyn_storage": {
        "base": "t_contract(OwnedERC20)11030",
        "encoding": "dynamic_array",
        "label": "contract OwnedERC20[]",
        "numberOfBytes": "32"
      },
      "t_array(t_struct(Market)8131_storage)dyn_storage": {
        "base": "t_struct(Market)8131_storage",
        "encoding": "dynamic_array",
        "label": "struct AbstractMarketFactory.Market[]",
        "numberOfBytes": "32"
      },
      "t_array(t_uint256)3_storage": {
        "base": "t_uint256",
        "encoding": "inplace",
        "label": "uint256[3]",
        "numberOfBytes": "96"
      },
      "t_array(t_uint256)dyn_storage": {
        "base": "t_uint256",
        "encoding": "dynamic_array",
        "label": "uint256[]",
        "numberOfBytes": "32"
      },
      "t_bool": {
        "encoding": "inplace",
        "label": "bool",
        "numberOfBytes": "1"
      },
      "t_contract(FeePot)10032": {
        "encoding": "inplace",
        "label": "contract FeePot",
        "numberOfBytes": "20"
      },
      "t_contract(IERC20Full)5549": {
        "encoding": "inplace",
        "label": "contract IERC20Full",
        "numberOfBytes": "20"
      },
      "t_contract(OwnedERC20)11030": {
        "encoding": "inplace",
        "label": "contract OwnedERC20",
        "numberOfBytes": "20"
      },
      "t_enum(EventStatus)11422": {
        "encoding": "inplace",
        "label": "enum SportsLinkMarketFactory.EventStatus",
        "numberOfBytes": "1"
      },
      "t_enum(MarketType)11385": {
        "encoding": "inplace",
        "label": "enum SportsLinkMarketFactory.MarketType",
        "numberOfBytes": "1"
      },
      "t_int256": {
        "encoding": "inplace",
        "label": "int256",
        "numberOfBytes": "32"
      },
      "t_mapping(t_address,t_uint256)": {
        "encoding": "mapping",
        "key": "t_address",
        "label": "mapping(address => uint256)",
        "numberOfBytes": "32",
        "value": "t_uint256"
      },
      "t_mapping(t_uint256,t_struct(EventDetails)11439_storage)": {
        "encoding": "mapping",
        "key": "t_uint256",
        "label": "mapping(uint256 => struct SportsLinkMarketFactory.EventDetails)",
        "numberOfBytes": "32",
        "value": "t_struct(EventDetails)11439_storage"
      },
      "t_mapping(t_uint256,t_struct(MarketDetails)11412_storage)": {
        "encoding": "mapping",
        "key": "t_uint256",
        "label": "mapping(uint256 => struct SportsLinkMarketFactory.MarketDetails)",
        "numberOfBytes": "32",
        "value": "t_struct(MarketDetails)11412_storage"
      },
      "t_struct(EventDetails)11439_storage": {
        "encoding": "inplace",
        "label": "struct SportsLinkMarketFactory.EventDetails",
        "members": [
          {
            "astId": 11426,
            "contract": "contracts/turbo/SportsLinkMarketFactory.sol:SportsLinkMarketFactory",
            "label": "markets",
            "offset": 0,
            "slot": "0",
            "type": "t_array(t_uint256)3_storage"
          },
          {
            "astId": 11428,
            "contract": "contracts/turbo/SportsLinkMarketFactory.sol:SportsLinkMarketFactory",
            "label": "startTime",
            "offset": 0,
            "slot": "3",
            "type": "t_uint256"
          },
          {
            "astId": 11430,
            "contract": "contracts/turbo/SportsLinkMarketFactory.sol:SportsLinkMarketFactory",
            "label": "homeScore",
            "offset": 0,
            "slot": "4",
            "type": "t_uint256"
          },
          {
            "astId": 11432,
            "contract": "contracts/turbo/SportsLinkMarketFactory.sol:SportsLinkMarketFactory",
            "label": "awayScore",
            "offset": 0,
            "slot": "5",
            "type": "t_uint256"
          },
          {
            "astId": 11434,
            "contract": "contracts/turbo/SportsLinkMarketFactory.sol:SportsLinkMarketFactory",
            "label": "status",
            "offset": 0,
            "slot": "6",
            "type": "t_enum(EventStatus)11422"
          },
          {
            "astId": 11436,
            "contract": "contracts/turbo/SportsLinkMarketFactory.sol:SportsLinkMarketFactory",
            "label": "resolutionTime",
            "offset": 0,
            "slot": "7",
            "type": "t_uint256"
          },
          {
            "astId": 11438,
            "contract": "contracts/turbo/SportsLinkMarketFactory.sol:SportsLinkMarketFactory",
            "label": "finalized",
            "offset": 0,
            "slot": "8",
            "type": "t_bool"
          }
        ],
        "numberOfBytes": "288"
      },
      "t_struct(Market)8131_storage": {
        "encoding": "inplace",
        "label": "struct AbstractMarketFactory.Market",
        "members": [
          {
            "astId": 8115,
            "contract": "contracts/turbo/SportsLinkMarketFactory.sol:SportsLinkMarketFactory",
            "label": "settlementAddress",
            "offset": 0,
            "slot": "0",
            "type": "t_address"
          },
          {
            "astId": 8118,
            "contract": "contracts/turbo/SportsLinkMarketFactory.sol:SportsLinkMarketFactory",
            "label": "shareTokens",
            "offset": 0,
            "slot": "1",
            "type": "t_array(t_contract(OwnedERC20)11030)dyn_storage"
          },
          {
            "astId": 8120,
            "contract": "contracts/turbo/SportsLinkMarketFactory.sol:SportsLinkMarketFactory",
            "label": "endTime",
            "offset": 0,
            "slot": "2",
            "type": "t_uint256"
          },
          {
            "astId": 8122,
            "contract": "contracts/turbo/SportsLinkMarketFactory.sol:SportsLinkMarketFactory",
            "label": "winner",
            "offset": 0,
            "slot": "3",
            "type": "t_contract(OwnedERC20)11030"
          },
          {
            "astId": 8124,
            "contract": "contracts/turbo/SportsLinkMarketFactory.sol:SportsLinkMarketFactory",
            "label": "settlementFee",
            "offset": 0,
            "slot": "4",
            "type": "t_uint256"
          },
          {
            "astId": 8126,
            "contract": "contracts/turbo/SportsLinkMarketFactory.sol:SportsLinkMarketFactory",
            "label": "protocolFee",
            "offset": 0,
            "slot": "5",
            "type": "t_uint256"
          },
          {
            "astId": 8128,
            "contract": "contracts/turbo/SportsLinkMarketFactory.sol:SportsLinkMarketFactory",
            "label": "stakerFee",
            "offset": 0,
            "slot": "6",
            "type": "t_uint256"
          },
          {
            "astId": 8130,
            "contract": "contracts/turbo/SportsLinkMarketFactory.sol:SportsLinkMarketFactory",
            "label": "creationTimestamp",
            "offset": 0,
            "slot": "7",
            "type": "t_uint256"
          }
        ],
        "numberOfBytes": "256"
      },
      "t_struct(MarketDetails)11412_storage": {
        "encoding": "inplace",
        "label": "struct SportsLinkMarketFactory.MarketDetails",
        "members": [
          {
            "astId": 11399,
            "contract": "contracts/turbo/SportsLinkMarketFactory.sol:SportsLinkMarketFactory",
            "label": "eventId",
            "offset": 0,
            "slot": "0",
            "type": "t_uint256"
          },
          {
            "astId": 11401,
            "contract": "contracts/turbo/SportsLinkMarketFactory.sol:SportsLinkMarketFactory",
            "label": "homeTeamId",
            "offset": 0,
            "slot": "1",
            "type": "t_uint256"
          },
          {
            "astId": 11403,
            "contract": "contracts/turbo/SportsLinkMarketFactory.sol:SportsLinkMarketFactory",
            "label": "awayTeamId",
            "offset": 0,
            "slot": "2",
            "type": "t_uint256"
          },
          {
            "astId": 11405,
            "contract": "contracts/turbo/SportsLinkMarketFactory.sol:SportsLinkMarketFactory",
            "label": "estimatedStartTime",
            "offset": 0,
            "slot": "3",
            "type": "t_uint256"
          },
          {
            "astId": 11407,
            "contract": "contracts/turbo/SportsLinkMarketFactory.sol:SportsLinkMarketFactory",
            "label": "marketType",
            "offset": 0,
            "slot": "4",
            "type": "t_enum(MarketType)11385"
          },
          {
            "astId": 11409,
            "contract": "contracts/turbo/SportsLinkMarketFactory.sol:SportsLinkMarketFactory",
            "label": "eventStatus",
            "offset": 1,
            "slot": "4",
            "type": "t_enum(EventStatus)11422"
          },
          {
            "astId": 11411,
            "contract": "contracts/turbo/SportsLinkMarketFactory.sol:SportsLinkMarketFactory",
            "label": "value0",
            "offset": 0,
            "slot": "5",
            "type": "t_int256"
          }
        ],
        "numberOfBytes": "192"
      },
      "t_uint256": {
        "encoding": "inplace",
        "label": "uint256",
        "numberOfBytes": "32"
      }
    }
  }
}