{
  "address": "0x571631c0440B01702b04340942FcdAd8E85a93BF",
  "abi": [
    {
      "inputs": [
        {
          "internalType": "string",
          "name": "_version",
          "type": "string"
        },
        {
          "internalType": "address",
          "name": "_owner",
          "type": "address"
        },
        {
          "internalType": "contract IERC20Full",
          "name": "_collateral",
          "type": "address"
        },
        {
          "internalType": "uint256",
          "name": "_shareFactor",
          "type": "uint256"
        },
        {
          "internalType": "contract FeePot",
          "name": "_feePot",
          "type": "address"
        },
        {
          "internalType": "uint256",
          "name": "_stakerFee",
          "type": "uint256"
        },
        {
          "internalType": "uint256",
          "name": "_settlementFee",
          "type": "uint256"
        },
        {
          "internalType": "address",
          "name": "_protocol",
          "type": "address"
        },
        {
          "internalType": "uint256",
          "name": "_protocolFee",
          "type": "uint256"
        },
        {
          "internalType": "address",
          "name": "_linkNode",
          "type": "address"
        }
      ],
      "stateMutability": "nonpayable",
      "type": "constructor"
    },
    {
      "anonymous": false,
      "inputs": [
        {
          "indexed": false,
          "internalType": "address",
          "name": "newLinkNode",
          "type": "address"
        }
      ],
      "name": "LinkNodeChanged",
      "type": "event"
    },
    {
      "anonymous": false,
      "inputs": [
        {
          "indexed": false,
          "internalType": "uint256",
          "name": "id",
          "type": "uint256"
        },
        {
          "indexed": false,
          "internalType": "address",
          "name": "creator",
          "type": "address"
        },
        {
          "indexed": false,
          "internalType": "uint256",
          "name": "endTime",
          "type": "uint256"
        },
        {
          "indexed": false,
          "internalType": "enum SportsLinkMarketFactory.MarketType",
          "name": "marketType",
          "type": "uint8"
        },
        {
          "indexed": true,
          "internalType": "uint256",
          "name": "eventId",
          "type": "uint256"
        },
        {
          "indexed": false,
          "internalType": "uint256",
          "name": "homeTeamId",
          "type": "uint256"
        },
        {
          "indexed": false,
          "internalType": "uint256",
          "name": "awayTeamId",
          "type": "uint256"
        },
        {
          "indexed": false,
          "internalType": "uint256",
          "name": "estimatedStartTime",
          "type": "uint256"
        },
        {
          "indexed": false,
          "internalType": "int256",
          "name": "score",
          "type": "int256"
        }
      ],
      "name": "MarketCreated",
      "type": "event"
    },
    {
      "anonymous": false,
      "inputs": [
        {
          "indexed": false,
          "internalType": "uint256",
          "name": "id",
          "type": "uint256"
        },
        {
          "indexed": false,
          "internalType": "address",
          "name": "winner",
          "type": "address"
        }
      ],
      "name": "MarketResolved",
      "type": "event"
    },
    {
      "anonymous": false,
      "inputs": [
        {
          "indexed": false,
          "internalType": "address",
          "name": "protocol",
          "type": "address"
        }
      ],
      "name": "ProtocolChanged",
      "type": "event"
    },
    {
      "anonymous": false,
      "inputs": [
        {
          "indexed": false,
          "internalType": "uint256",
          "name": "fee",
          "type": "uint256"
        }
      ],
      "name": "ProtocolFeeChanged",
      "type": "event"
    },
    {
      "anonymous": false,
      "inputs": [
        {
          "indexed": false,
          "internalType": "address",
          "name": "protocol",
          "type": "address"
        },
        {
          "indexed": false,
          "internalType": "uint256",
          "name": "amount",
          "type": "uint256"
        }
      ],
      "name": "ProtocolFeeClaimed",
      "type": "event"
    },
    {
      "anonymous": false,
      "inputs": [
        {
          "indexed": false,
          "internalType": "uint256",
          "name": "fee",
          "type": "uint256"
        }
      ],
      "name": "SettlementFeeChanged",
      "type": "event"
    },
    {
      "anonymous": false,
      "inputs": [
        {
          "indexed": false,
          "internalType": "address",
          "name": "settlementAddress",
          "type": "address"
        },
        {
          "indexed": false,
          "internalType": "uint256",
          "name": "amount",
          "type": "uint256"
        },
        {
          "indexed": true,
          "internalType": "address",
          "name": "receiver",
          "type": "address"
        }
      ],
      "name": "SettlementFeeClaimed",
      "type": "event"
    },
    {
      "anonymous": false,
      "inputs": [
        {
          "indexed": false,
          "internalType": "uint256",
          "name": "id",
          "type": "uint256"
        },
        {
          "indexed": false,
          "internalType": "uint256",
          "name": "amount",
          "type": "uint256"
        },
        {
          "indexed": false,
          "internalType": "address",
          "name": "receiver",
          "type": "address"
        }
      ],
      "name": "SharesBurned",
      "type": "event"
    },
    {
      "anonymous": false,
      "inputs": [
        {
          "indexed": false,
          "internalType": "uint256",
          "name": "id",
          "type": "uint256"
        },
        {
          "indexed": false,
          "internalType": "uint256",
          "name": "amount",
          "type": "uint256"
        },
        {
          "indexed": false,
          "internalType": "address",
          "name": "receiver",
          "type": "address"
        }
      ],
      "name": "SharesMinted",
      "type": "event"
    },
    {
      "anonymous": false,
      "inputs": [
        {
          "indexed": false,
          "internalType": "uint256",
          "name": "fee",
          "type": "uint256"
        }
      ],
      "name": "StakerFeeChanged",
      "type": "event"
    },
    {
      "anonymous": false,
      "inputs": [
        {
          "indexed": false,
          "internalType": "uint256",
          "name": "id",
          "type": "uint256"
        },
        {
          "indexed": false,
          "internalType": "address",
          "name": "winningOutcome",
          "type": "address"
        },
        {
          "indexed": false,
          "internalType": "uint256",
          "name": "amount",
          "type": "uint256"
        },
        {
          "indexed": false,
          "internalType": "uint256",
          "name": "settlementFee",
          "type": "uint256"
        },
        {
          "indexed": false,
          "internalType": "uint256",
          "name": "payout",
          "type": "uint256"
        },
        {
          "indexed": true,
          "internalType": "address",
          "name": "receiver",
          "type": "address"
        }
      ],
      "name": "WinningsClaimed",
      "type": "event"
    },
    {
      "inputs": [],
      "name": "accumulatedProtocolFee",
      "outputs": [
        {
          "internalType": "uint256",
          "name": "",
          "type": "uint256"
        }
      ],
      "stateMutability": "view",
      "type": "function"
    },
    {
      "inputs": [
        {
          "internalType": "address",
          "name": "",
          "type": "address"
        }
      ],
      "name": "accumulatedSettlementFees",
      "outputs": [
        {
          "internalType": "uint256",
          "name": "",
          "type": "uint256"
        }
      ],
      "stateMutability": "view",
      "type": "function"
    },
    {
      "inputs": [
        {
          "internalType": "uint256",
          "name": "_id",
          "type": "uint256"
        },
        {
          "internalType": "uint256",
          "name": "_sharesToBurn",
          "type": "uint256"
        },
        {
          "internalType": "address",
          "name": "_receiver",
          "type": "address"
        }
      ],
      "name": "burnShares",
      "outputs": [
        {
          "internalType": "uint256",
          "name": "",
          "type": "uint256"
        }
      ],
      "stateMutability": "nonpayable",
      "type": "function"
    },
    {
      "inputs": [
        {
          "internalType": "uint256",
          "name": "_shares",
          "type": "uint256"
        }
      ],
      "name": "calcCost",
      "outputs": [
        {
          "internalType": "uint256",
          "name": "",
          "type": "uint256"
        }
      ],
      "stateMutability": "view",
      "type": "function"
    },
    {
      "inputs": [
        {
          "internalType": "uint256",
          "name": "_collateralIn",
          "type": "uint256"
        }
      ],
      "name": "calcShares",
      "outputs": [
        {
          "internalType": "uint256",
          "name": "",
          "type": "uint256"
        }
      ],
      "stateMutability": "view",
      "type": "function"
    },
    {
      "inputs": [
        {
          "internalType": "uint256[]",
          "name": "_ids",
          "type": "uint256[]"
        },
        {
          "internalType": "address",
          "name": "_receiver",
          "type": "address"
        }
      ],
      "name": "claimManyWinnings",
      "outputs": [
        {
          "internalType": "uint256",
          "name": "",
          "type": "uint256"
        }
      ],
      "stateMutability": "nonpayable",
      "type": "function"
    },
    {
      "inputs": [],
      "name": "claimProtocolFees",
      "outputs": [
        {
          "internalType": "uint256",
          "name": "",
          "type": "uint256"
        }
      ],
      "stateMutability": "nonpayable",
      "type": "function"
    },
    {
      "inputs": [
        {
          "internalType": "address",
          "name": "_receiver",
          "type": "address"
        }
      ],
      "name": "claimSettlementFees",
      "outputs": [
        {
          "internalType": "uint256",
          "name": "",
          "type": "uint256"
        }
      ],
      "stateMutability": "nonpayable",
      "type": "function"
    },
    {
      "inputs": [
        {
          "internalType": "uint256",
          "name": "_id",
          "type": "uint256"
        },
        {
          "internalType": "address",
          "name": "_receiver",
          "type": "address"
        }
      ],
      "name": "claimWinnings",
      "outputs": [
        {
          "internalType": "uint256",
          "name": "",
          "type": "uint256"
        }
      ],
      "stateMutability": "nonpayable",
      "type": "function"
    },
    {
      "inputs": [],
      "name": "collateral",
      "outputs": [
        {
          "internalType": "contract IERC20Full",
          "name": "",
          "type": "address"
        }
      ],
      "stateMutability": "view",
      "type": "function"
    },
    {
      "inputs": [
        {
          "internalType": "uint256",
          "name": "_eventId",
          "type": "uint256"
        },
        {
          "internalType": "uint256",
          "name": "_homeTeamId",
          "type": "uint256"
        },
        {
          "internalType": "uint256",
          "name": "_awayTeamId",
          "type": "uint256"
        },
        {
          "internalType": "uint256",
          "name": "_startTimestamp",
          "type": "uint256"
        },
        {
          "internalType": "int256",
          "name": "_homeSpread",
          "type": "int256"
        },
        {
          "internalType": "uint256",
          "name": "_totalScore",
          "type": "uint256"
        },
        {
          "internalType": "bool",
          "name": "_makeSpread",
          "type": "bool"
        },
        {
          "internalType": "bool",
          "name": "_makeTotalScore",
          "type": "bool"
        }
      ],
      "name": "createMarket",
      "outputs": [
        {
          "internalType": "uint256[3]",
          "name": "_ids",
          "type": "uint256[3]"
        }
      ],
      "stateMutability": "nonpayable",
      "type": "function"
    },
    {
      "inputs": [
        {
          "internalType": "uint256",
          "name": "",
          "type": "uint256"
        }
      ],
      "name": "events",
      "outputs": [
        {
          "internalType": "uint256",
          "name": "startTime",
          "type": "uint256"
        },
        {
          "internalType": "uint256",
          "name": "homeScore",
          "type": "uint256"
        },
        {
          "internalType": "uint256",
          "name": "awayScore",
          "type": "uint256"
        },
        {
          "internalType": "enum SportsLinkMarketFactory.EventStatus",
          "name": "status",
          "type": "uint8"
        },
        {
          "internalType": "uint256",
          "name": "resolutionTime",
          "type": "uint256"
        },
        {
          "internalType": "bool",
          "name": "finalized",
          "type": "bool"
        }
      ],
      "stateMutability": "view",
      "type": "function"
    },
    {
      "inputs": [],
      "name": "feePot",
      "outputs": [
        {
          "internalType": "contract FeePot",
          "name": "",
          "type": "address"
        }
      ],
      "stateMutability": "view",
      "type": "function"
    },
    {
      "inputs": [
        {
          "internalType": "uint256",
          "name": "_eventId",
          "type": "uint256"
        }
      ],
      "name": "getEventMarkets",
      "outputs": [
        {
          "internalType": "uint256[3]",
          "name": "",
          "type": "uint256[3]"
        }
      ],
      "stateMutability": "view",
      "type": "function"
    },
    {
      "inputs": [
        {
          "internalType": "uint256",
          "name": "_id",
          "type": "uint256"
        }
      ],
      "name": "getMarket",
      "outputs": [
        {
          "components": [
            {
              "internalType": "address",
              "name": "settlementAddress",
              "type": "address"
            },
            {
              "internalType": "contract OwnedERC20[]",
              "name": "shareTokens",
              "type": "address[]"
            },
            {
              "internalType": "uint256",
              "name": "endTime",
              "type": "uint256"
            },
            {
              "internalType": "contract OwnedERC20",
              "name": "winner",
              "type": "address"
            },
            {
              "internalType": "uint256",
              "name": "settlementFee",
              "type": "uint256"
            },
            {
              "internalType": "uint256",
              "name": "protocolFee",
              "type": "uint256"
            },
            {
              "internalType": "uint256",
              "name": "stakerFee",
              "type": "uint256"
            },
            {
              "internalType": "uint256",
              "name": "creationTimestamp",
              "type": "uint256"
            }
          ],
          "internalType": "struct AbstractMarketFactory.Market",
          "name": "",
          "type": "tuple"
        }
      ],
      "stateMutability": "view",
      "type": "function"
    },
    {
      "inputs": [
        {
          "internalType": "uint256",
          "name": "_marketId",
          "type": "uint256"
        }
      ],
      "name": "getMarketDetails",
      "outputs": [
        {
          "components": [
            {
              "internalType": "uint256",
              "name": "eventId",
              "type": "uint256"
            },
            {
              "internalType": "uint256",
              "name": "homeTeamId",
              "type": "uint256"
            },
            {
              "internalType": "uint256",
              "name": "awayTeamId",
              "type": "uint256"
            },
            {
              "internalType": "uint256",
              "name": "estimatedStartTime",
              "type": "uint256"
            },
            {
              "internalType": "enum SportsLinkMarketFactory.MarketType",
              "name": "marketType",
              "type": "uint8"
            },
            {
              "internalType": "enum SportsLinkMarketFactory.EventStatus",
              "name": "eventStatus",
              "type": "uint8"
            },
            {
              "internalType": "int256",
              "name": "value0",
              "type": "int256"
            }
          ],
          "internalType": "struct SportsLinkMarketFactory.MarketDetails",
          "name": "",
          "type": "tuple"
        }
      ],
      "stateMutability": "view",
      "type": "function"
    },
    {
      "inputs": [],
      "name": "getOwner",
      "outputs": [
        {
          "internalType": "address",
          "name": "",
          "type": "address"
        }
      ],
      "stateMutability": "view",
      "type": "function"
    },
    {
      "inputs": [
        {
          "internalType": "uint256",
          "name": "_eventId",
          "type": "uint256"
        }
      ],
      "name": "isEventRegistered",
      "outputs": [
        {
          "internalType": "bool",
          "name": "",
          "type": "bool"
        }
      ],
      "stateMutability": "view",
      "type": "function"
    },
    {
      "inputs": [
        {
          "internalType": "uint256",
          "name": "_eventId",
          "type": "uint256"
        }
      ],
      "name": "isEventResolved",
      "outputs": [
        {
          "internalType": "bool",
          "name": "",
          "type": "bool"
        }
      ],
      "stateMutability": "view",
      "type": "function"
    },
    {
      "inputs": [
        {
          "internalType": "uint256",
          "name": "_id",
          "type": "uint256"
        }
      ],
      "name": "isMarketResolved",
      "outputs": [
        {
          "internalType": "bool",
          "name": "",
          "type": "bool"
        }
      ],
      "stateMutability": "view",
      "type": "function"
    },
    {
      "inputs": [],
      "name": "linkNode",
      "outputs": [
        {
          "internalType": "address",
          "name": "",
          "type": "address"
        }
      ],
      "stateMutability": "view",
      "type": "function"
    },
    {
      "inputs": [
        {
          "internalType": "uint256",
          "name": "",
          "type": "uint256"
        }
      ],
      "name": "listOfEvents",
      "outputs": [
        {
          "internalType": "uint256",
          "name": "",
          "type": "uint256"
        }
      ],
      "stateMutability": "view",
      "type": "function"
    },
    {
      "inputs": [],
      "name": "listResolvableEvents",
      "outputs": [
        {
          "internalType": "uint256[]",
          "name": "",
          "type": "uint256[]"
        }
      ],
      "stateMutability": "view",
      "type": "function"
    },
    {
      "inputs": [],
      "name": "listUnresolvedMarkets",
      "outputs": [
        {
          "internalType": "uint256[]",
          "name": "",
          "type": "uint256[]"
        }
      ],
      "stateMutability": "view",
      "type": "function"
    },
    {
      "inputs": [],
      "name": "marketCount",
      "outputs": [
        {
          "internalType": "uint256",
          "name": "",
          "type": "uint256"
        }
      ],
      "stateMutability": "view",
      "type": "function"
    },
    {
      "inputs": [
        {
          "internalType": "uint256",
          "name": "_id",
          "type": "uint256"
        },
        {
          "internalType": "uint256",
          "name": "_shareToMint",
          "type": "uint256"
        },
        {
          "internalType": "address",
          "name": "_receiver",
          "type": "address"
        }
      ],
      "name": "mintShares",
      "outputs": [],
      "stateMutability": "nonpayable",
      "type": "function"
    },
    {
      "inputs": [],
      "name": "protocol",
      "outputs": [
        {
          "internalType": "address",
          "name": "",
          "type": "address"
        }
      ],
      "stateMutability": "view",
      "type": "function"
    },
    {
      "inputs": [],
      "name": "protocolFee",
      "outputs": [
        {
          "internalType": "uint256",
          "name": "",
          "type": "uint256"
        }
      ],
      "stateMutability": "view",
      "type": "function"
    },
    {
      "inputs": [
        {
          "internalType": "uint256",
          "name": "",
          "type": "uint256"
        }
      ],
      "name": "resolveMarket",
      "outputs": [],
      "stateMutability": "pure",
      "type": "function"
    },
    {
      "inputs": [
        {
          "internalType": "address",
          "name": "_newLinkNode",
          "type": "address"
        }
      ],
      "name": "setLinkNode",
      "outputs": [],
      "stateMutability": "nonpayable",
      "type": "function"
    },
    {
      "inputs": [
        {
          "internalType": "address",
          "name": "_newProtocol",
          "type": "address"
        },
        {
          "internalType": "bool",
          "name": "_claimFirst",
          "type": "bool"
        }
      ],
      "name": "setProtocol",
      "outputs": [],
      "stateMutability": "nonpayable",
      "type": "function"
    },
    {
      "inputs": [
        {
          "internalType": "uint256",
          "name": "_newFee",
          "type": "uint256"
        }
      ],
      "name": "setProtocolFee",
      "outputs": [],
      "stateMutability": "nonpayable",
      "type": "function"
    },
    {
      "inputs": [
        {
          "internalType": "uint256",
          "name": "_newFee",
          "type": "uint256"
        }
      ],
      "name": "setSettlementFee",
      "outputs": [],
      "stateMutability": "nonpayable",
      "type": "function"
    },
    {
      "inputs": [
        {
          "internalType": "uint256",
          "name": "_newFee",
          "type": "uint256"
        }
      ],
      "name": "setStakerFee",
      "outputs": [],
      "stateMutability": "nonpayable",
      "type": "function"
    },
    {
      "inputs": [],
      "name": "settlementFee",
      "outputs": [
        {
          "internalType": "uint256",
          "name": "",
          "type": "uint256"
        }
      ],
      "stateMutability": "view",
      "type": "function"
    },
    {
      "inputs": [],
      "name": "shareFactor",
      "outputs": [
        {
          "internalType": "uint256",
          "name": "",
          "type": "uint256"
        }
      ],
      "stateMutability": "view",
      "type": "function"
    },
    {
      "inputs": [],
      "name": "sportId",
      "outputs": [
        {
          "internalType": "uint256",
          "name": "",
          "type": "uint256"
        }
      ],
      "stateMutability": "view",
      "type": "function"
    },
    {
      "inputs": [],
      "name": "stakerFee",
      "outputs": [
        {
          "internalType": "uint256",
          "name": "",
          "type": "uint256"
        }
      ],
      "stateMutability": "view",
      "type": "function"
    },
    {
      "inputs": [
        {
          "internalType": "address",
          "name": "_newOwner",
          "type": "address"
        }
      ],
      "name": "transferOwnership",
      "outputs": [
        {
          "internalType": "bool",
          "name": "",
          "type": "bool"
        }
      ],
      "stateMutability": "nonpayable",
      "type": "function"
    },
    {
      "inputs": [
        {
          "internalType": "uint256",
          "name": "_eventId",
          "type": "uint256"
        },
        {
          "internalType": "uint256",
          "name": "_eventStatus",
          "type": "uint256"
        },
        {
          "internalType": "uint256",
          "name": "_homeScore",
          "type": "uint256"
        },
        {
          "internalType": "uint256",
          "name": "_awayScore",
          "type": "uint256"
        }
      ],
      "name": "trustedResolveMarkets",
      "outputs": [],
      "stateMutability": "nonpayable",
      "type": "function"
    },
    {
      "inputs": [],
      "name": "version",
      "outputs": [
        {
          "internalType": "string",
          "name": "",
          "type": "string"
        }
      ],
      "stateMutability": "view",
      "type": "function"
    }
  ],
  "transactionHash": "0x3d3017c505b65363590762b438e2e5fe728067816b855bde08820346269f4a9c",
  "args": [
    "demo-2021-07-09",
    "0x8C9c733eCd48426b9c53c38ccB60F3b307329bE1",
    "0x5799bFe361BEea69f808328FF4884DF92f1f66f0",
    "1000000000000",
    "0x59DdFE9961e050bdA1ed9bf9CCD009948036Dd76",
    0,
    "500000000000000",
    "0x8C9c733eCd48426b9c53c38ccB60F3b307329bE1",
    0,
    "0x6FBD37365bac1fC61EAb2b35ba4024B32b136be6"
  ],
  "solcInputHash": "9b70e7daf5ad0e40852234b943316c0f",
  "bytecode": "0x6080604052600060085560046010553480156200001b57600080fd5b5060405162006764380380620067648339810160408190526200003e91620005ae565b600080546001600160a01b0319163317905589518a908a908a908a908a908a908a908a908a90620000779060019060208c0190620003ff565b50600080546001600160a01b03808b166001600160a01b031992831617909255600280548a84169083168117909155600a8990556003805489851690841617905560048781556005879055600780549487169490931693909317909155600683905560405163095ea7b360e01b8152909163095ea7b39162000100918991600019910162000703565b602060405180830381600087803b1580156200011b57600080fd5b505af115801562000130573d6000803e3d6000fd5b505050506040513d601f19601f8201168201806040525081019062000156919062000585565b50620001616200019b565b5050600f80546001600160a01b0319166001600160a01b03999099169890981790975550620007919e505050505050505050505050505050565b6040805160008082526020820190925281620001c8565b6060815260200190600190039081620001b25790505b509050600b620001dc600083808262000291565b8154600180820184556000938452602093849020835160089093020180546001600160a01b0319166001600160a01b0390931692909217825582840151805193949293620002339392850192919091019062000494565b506040820151600282015560608201516003820180546001600160a01b0319166001600160a01b039092169190911790556080820151600482015560a0820151600582015560c0820151600682015560e09091015160079091015550565b6200029b620004ec565b604051806101000160405280866001600160a01b03168152602001620002c98686306200030a60201b60201c565b815260200183815260200160006001600160a01b03168152602001600554815260200160065481526020016004548152602001428152509050949350505050565b82516060906000816001600160401b03811180156200032857600080fd5b5060405190808252806020026020018201604052801562000353578160200160208202803683370190505b50905060005b82811015620003f5578681815181106200036f57fe5b60200260200101518682815181106200038457fe5b6020026020010151866040516200039b9062000543565b620003a9939291906200071c565b604051809103906000f080158015620003c6573d6000803e3d6000fd5b50828281518110620003d457fe5b6001600160a01b039092166020928302919091019091015260010162000359565b5095945050505050565b828054600181600116156101000203166002900490600052602060002090601f01602090048101928262000437576000855562000482565b82601f106200045257805160ff191683800117855562000482565b8280016001018555821562000482579182015b828111156200048257825182559160200191906001019062000465565b506200049092915062000551565b5090565b82805482825590600052602060002090810192821562000482579160200282015b828111156200048257825182546001600160a01b0319166001600160a01b03909116178255602090920191600190910190620004b5565b60405180610100016040528060006001600160a01b03168152602001606081526020016000815260200160006001600160a01b03168152602001600081526020016000815260200160008152602001600081525090565b6111f3806200557183390190565b5b8082111562000490576000815560010162000552565b80516001600160a01b03811681146200058057600080fd5b919050565b60006020828403121562000597578081fd5b81518015158114620005a7578182fd5b9392505050565b6000806000806000806000806000806101408b8d031215620005ce578586fd5b8a516001600160401b0380821115620005e5578788fd5b818d0191508d601f830112620005f9578788fd5b8151818111156200060657fe5b604051601f8201601f1916810160200183811182821017156200062557fe5b80604052508181528f60208386010111156200063f57898afd5b620006528260208301602087016200075e565b9c50620006669250505060208c0162000568565b98506200067660408c0162000568565b975060608b015196506200068d60808c0162000568565b955060a08b0151945060c08b01519350620006ab60e08c0162000568565b92506101008b01519150620006c46101208c0162000568565b90509295989b9194979a5092959850565b60008151808452620006ef8160208601602086016200075e565b601f01601f19169290920160200192915050565b6001600160a01b03929092168252602082015260400190565b600060608252620007316060830186620006d5565b8281036020840152620007458186620006d5565b91505060018060a01b0383166040830152949350505050565b60005b838110156200077b57818101518382015260200162000761565b838111156200078b576000848401525b50505050565b614dd080620007a16000396000f3fe60806040523480156200001157600080fd5b50600436106200028c5760003560e01c80638ce744261162000165578063cdaac86211620000d5578063d9113f0d1162000093578063d9113f0d1462000588578063e2c30b151462000592578063e5678dfa14620005a9578063eb44fdd314620005c0578063ec97908214620005e6578063f2fde38b14620005f0576200028c565b8063cdaac862146200053c578063d4b6838e1462000553578063d5da4f1d146200055d578063d5db3efb1462000574578063d8dfeb45146200057e576200028c565b8063a544a62c1162000123578063a544a62c14620004d4578063b06c1ba314620004de578063b0e21e8a1462000504578063b65ad5fd146200050e578063cc87adea1462000525576200028c565b80638ce74426146200046e5780638e0ed193146200047857806397eef187146200048f578063992c907914620004a6578063a179449614620004bd576200028c565b80634b2d9ffc116200020157806371ba269611620001bf57806371ba269614620004225780637641ab011462000439578063787dce3d14620004435780637d1d7fb8146200045a578063893d20e81462000464576200028c565b80634b2d9ffc14620003a95780634c9f66c714620003b357806353ac55f514620003cc57806354fd4d5014620003f25780636399d03d146200040b576200028c565b8063399b6b3f116200024f578063399b6b3f1462000341578063473a6d52146200035857806349a4d934146200036f5780634a7d036914620003865780634a875e0b1462000390576200028c565b80630b7914301462000291578063221fff8114620002c5578063264e507714620002de57806332ecabe9146200030457806335a9cdad146200031b575b600080fd5b620002a8620002a2366004620033c8565b62000607565b604051620002bc9695949392919062003b5b565b60405180910390f35b620002dc620002d636600462003428565b62000646565b005b620002f5620002ef36600462003491565b620008fd565b604051620002bc9190620035ce565b620002dc62000315366004620032a4565b62000a80565b620003326200032c36600462003428565b62000b04565b604051620002bc919062003a9e565b620002dc620003523660046200345f565b62000ebe565b6200033262000369366004620033c8565b62001140565b620003326200038036600462003287565b62001193565b62000332620011a5565b6200039a620012cd565b604051620002bc919062003601565b62000332620013a4565b620003bd620013aa565b604051620002bc91906200357d565b620003e3620003dd366004620033c8565b620013b9565b604051620002bc919062003647565b620003fc620014b3565b604051620002bc919062003652565b620002dc6200041c366004620033c8565b62001544565b6200033262000433366004620033c8565b62001561565b6200033262001583565b620002dc62000454366004620033c8565b62001589565b62000332620015e3565b620003bd620015e9565b620003bd620015f8565b620003326200048936600462003287565b62001607565b620002dc620004a0366004620033c8565b62001708565b62000332620004b7366004620033fa565b62001757565b620003e3620004ce366004620033c8565b62001a57565b6200033262001a78565b620004f5620004ef366004620033c8565b62001a7e565b604051620002bc919062003981565b6200033262001b3d565b620003e36200051f366004620033c8565b62001b43565b6200033262000536366004620033c8565b62001bbb565b620002f56200054d366004620033c8565b62001bc2565b620003bd62001c0d565b620002dc6200056e366004620033c8565b62001c1c565b6200033262001c6b565b620003bd62001c71565b6200039a62001c80565b620002dc620005a336600462003287565b62001d50565b62000332620005ba366004620032df565b62001db5565b620005d7620005d1366004620033c8565b62001e03565b604051620002bc9190620039e3565b6200033262001f50565b620003e36200060136600462003287565b62001f56565b600d6020526000908152604090206003810154600482015460058301546006840154600785015460089095015493949293919260ff9182169290911686565b600b548310620006735760405162461bcd60e51b81526004016200066a906200388b565b60405180910390fd5b6200067e83620013b9565b156200069e5760405162461bcd60e51b81526004016200066a90620038f5565b6000620006ab8362001140565b6002546040516323b872dd60e01b81529192506001600160a01b0316906323b872dd90620006e29033903090869060040162003591565b602060405180830381600087803b158015620006fd57600080fd5b505af115801562000712573d6000803e3d6000fd5b505050506040513d601f19601f82011682018060405250810190620007389190620033a9565b506000600b85815481106200074957fe5b60009182526020918290206040805161010081018252600890930290910180546001600160a01b03168352600181018054835181870281018701909452808452939491938583019392830182828015620007cd57602002820191906000526020600020905b81546001600160a01b03168152600190910190602001808311620007ae575b50505091835250506002820154602082015260038201546001600160a01b031660408201526004820154606082015260058201546080820152600682015460a082015260079091015460c090910152905060005b816020015151811015620008b857816020015181815181106200084057fe5b60200260200101516001600160a01b031663c024cd2685876040518363ffffffff1660e01b815260040162000877929190620035b5565b600060405180830381600087803b1580156200089257600080fd5b505af1158015620008a7573d6000803e3d6000fd5b505060019092019150620008219050565b507fd81c0442e10068a9818f3aa093c9ccb804584690df572d7df3da2d892a6973f2858585604051620008ee9392919062003b3c565b60405180910390a15050505050565b62000907620030f1565b600f546001600160a01b03163314620009345760405162461bcd60e51b81526004016200066a906200384a565b33600062000945886101e062001fc0565b60008c8152600d602052604090819020815160608101928390529293509060039082845b815481526020019060010190808311620009695750505050509250826000600381106200099257fe5b6020020151620009af57620009ac82828d8d8d8d62001fd3565b83525b6020830151158015620009bf5750845b15620009dc57620009d682828d8d8d8d8d620022c4565b60208401525b6040830151158015620009ec5750835b1562000a095762000a0382828d8d8d8d8c62002603565b60408401525b60008b8152600d6020526040902060068101805460ff1916600117905560038082018a905562000a3c919085906200310f565b5050600e80546001810182556000919091527fbb7b4a454dc3493923482f07822329ed19e8244eff582cc204f8554c3620c3fd019990995598975050505050505050565b6000546001600160a01b0316331462000a9857600080fd5b801562000aab5762000aa9620011a5565b505b600780546001600160a01b0319166001600160a01b0384161790556040517f15b84596b3c567ae2998116949ae5f2d47f3055c12d9053db4d6e50f4c794dd99062000af89084906200357d565b60405180910390a15050565b600b54600090841062000b2b5760405162461bcd60e51b81526004016200066a906200388b565b62000b3684620013b9565b1562000b565760405162461bcd60e51b81526004016200066a906200393b565b6000600b858154811062000b6657fe5b60009182526020918290206040805161010081018252600890930290910180546001600160a01b0316835260018101805483518187028101870190945280845293949193858301939283018282801562000bea57602002820191906000526020600020905b81546001600160a01b0316815260019091019060200180831162000bcb575b50505091835250506002820154602082015260038201546001600160a01b031660408201526004820154606082015260058201546080820152600682015460a082015260079091015460c090910152905060005b81602001515181101562000cd5578160200151818151811062000c5d57fe5b60200260200101516001600160a01b03166342986e1333876040518363ffffffff1660e01b815260040162000c94929190620035b5565b600060405180830381600087803b15801562000caf57600080fd5b505af115801562000cc4573d6000803e3d6000fd5b50506001909201915062000c3e9050565b50600062000ce38562001140565b9050600062000d14670de0b6b3a764000062000d0d8560a0015185620028ee90919063ffffffff16565b9062002919565b9050600062000d3e670de0b6b3a764000062000d0d8660c0015186620028ee90919063ffffffff16565b905062000d588162000d5185856200292f565b906200292f565b600880548401905560025460405163a9059cbb60e01b81529194506001600160a01b03169063a9059cbb9062000d959089908790600401620035b5565b602060405180830381600087803b15801562000db057600080fd5b505af115801562000dc5573d6000803e3d6000fd5b505050506040513d601f19601f8201168201806040525081019062000deb9190620033a9565b50600354604051630ebdac0960e41b81526001600160a01b039091169063ebdac0909062000e1e90849060040162003a9e565b602060405180830381600087803b15801562000e3957600080fd5b505af115801562000e4e573d6000803e3d6000fd5b505050506040513d601f19601f8201168201806040525081019062000e749190620033a9565b507fb6fdb729b2ed801daf629f0ab713e4a7a73619505790f6f27fd92d6f2c9688d788883360405162000eaa9392919062003b3c565b60405180910390a150909695505050505050565b600f546001600160a01b0316331462000eeb5760405162461bcd60e51b81526004016200066a90620038b3565b6000848152600d602052604080822081516060810192839052909291839060039082845b81548152602001906001019080831162000f0f57505050505090508060006003811062000f3857fe5b602002015115158062000f4e5750602081015115155b8062000f5d5750604081015115155b62000f7c5760405162461bcd60e51b81526004016200066a90620036a9565b600185600481111562000f8b57fe5b600481111562000f9757fe5b141562000fb85760405162461bcd60e51b81526004016200066a90620036f4565b600285600481111562000fc757fe5b600481111562000fd357fe5b14620010e65760005b6003811015620010dd57600082826003811062000ff557fe5b6020020151905080620010095750620010d4565b6000600b82815481106200101957fe5b90600052602060002090600802016001016000815481106200103757fe5b600091825260209091200154600b80546001600160a01b0390921692508291849081106200106157fe5b906000526020600020906008020160030160006101000a8154816001600160a01b0302191690836001600160a01b031602179055507fc68d106ea6e4bec784925cfd91767212c71ced92adbac107dc364435321113f68282604051620010c992919062003aa7565b60405180910390a150505b60010162000fdc565b5050506200113a565b805115620010fd578051620010fd90858562002945565b6020810151156200111a5760208101516200111a90858562002a9b565b604081015115620011375760408101516200113790858562002cb0565b50505b50505050565b6000600a5482101580156200115f5750600a5482816200115c57fe5b06155b6200117e5760405162461bcd60e51b81526004016200066a90620037d9565b600a5482816200118a57fe5b0490505b919050565b60096020526000908152604090205481565b6007546000906001600160a01b0316331480620011c157503330145b620011e05760405162461bcd60e51b81526004016200066a9062003729565b6008548015620012c857600060085560025460075460405163a9059cbb60e01b81526001600160a01b039283169263a9059cbb9262001227929116908590600401620035b5565b602060405180830381600087803b1580156200124257600080fd5b505af115801562001257573d6000803e3d6000fd5b505050506040513d601f19601f820116820180604052508101906200127d9190620033a9565b506007546040517f0f7f5b155b0b0ac6890709a2c7bf1b8bb3f675fff1e7840b4dd3c9acde59048b91620012bf916001600160a01b03909116908490620035b5565b60405180910390a15b905090565b60606000620012db62002d9c565b905060008167ffffffffffffffff81118015620012f757600080fd5b5060405190808252806020026020018201604052801562001322578160200160208202803683370190505b5090506000805b600e548110156200139b578382111562001343576200139b565b6000600e82815481106200135357fe5b906000526020600020015490506200136b8162002df1565b156200139157808484815181106200137f57fe5b60209081029190910101526001909201915b5060010162001329565b50909250505090565b60045481565b6003546001600160a01b031681565b600080600b8381548110620013ca57fe5b60009182526020918290206040805161010081018252600890930290910180546001600160a01b031683526001810180548351818702810187019094528084529394919385830193928301828280156200144e57602002820191906000526020600020905b81546001600160a01b031681526001909101906020018083116200142f575b50505091835250506002820154602082015260038201546001600160a01b039081166040830152600483015460608084019190915260058401546080840152600684015460a084015260079093015460c0909201919091529101511615159392505050565b60018054604080516020600284861615610100026000190190941693909304601f810184900484028201840190925281815292918301828280156200153c5780601f1062001510576101008083540402835291602001916200153c565b820191906000526020600020905b8154815290600101906020018083116200151e57829003601f168201915b505050505081565b60405162461bcd60e51b81526004016200066a906200376d565b50565b600e81815481106200157257600080fd5b600091825260209091200154905081565b600a5481565b6000546001600160a01b03163314620015a157600080fd5b60068190556040517fada2cde3c4a561f5c23e2fdbfb223e1f0d1ec7109b9811b32644e6e974d6631f90620015d890839062003a9e565b60405180910390a150565b60055481565b6000546001600160a01b031690565b6007546001600160a01b031681565b33600090815260096020526040812054801562001702573360009081526009602052604080822091909155600254905163a9059cbb60e01b81526001600160a01b039091169063a9059cbb90620016659086908590600401620035b5565b602060405180830381600087803b1580156200168057600080fd5b505af115801562001695573d6000803e3d6000fd5b505050506040513d601f19601f82011682018060405250810190620016bb9190620033a9565b50826001600160a01b03167fc9985ad824d943d66367ce5feea26e18979b3e1c9273742926d87e2b0d7473873383604051620016f9929190620035b5565b60405180910390a25b92915050565b6000546001600160a01b031633146200172057600080fd5b60048190556040517fcc4df50442ac32f0142ba4853f617661e0823be0e92148e7e5f36ce56c13982590620015d890839062003a9e565b60006200176483620013b9565b6200177457620017748362001544565b6000600b84815481106200178457fe5b60009182526020918290206040805161010081018252600890930290910180546001600160a01b031683526001810180548351818702810187019094528084529394919385830193928301828280156200180857602002820191906000526020600020905b81546001600160a01b03168152600190910190602001808311620017e9575b50505050508152602001600282015481526020016003820160009054906101000a90046001600160a01b03166001600160a01b03166001600160a01b031681526020016004820154815260200160058201548152602001600682015481526020016007820154815250509050600081606001516001600160a01b03166371297784336040518263ffffffff1660e01b8152600401620018a891906200357d565b602060405180830381600087803b158015620018c357600080fd5b505af1158015620018d8573d6000803e3d6000fd5b505050506040513d601f19601f82011682018060405250810190620018fe9190620033e1565b9050600a54600a5482816200190f57fe5b040290506000620019208262001140565b905060006200194a670de0b6b3a764000062000d0d866080015185620028ee90919063ffffffff16565b90506200195882826200292f565b84516001600160a01b0390811660009081526009602052604090819020805485019055600254905163a9059cbb60e01b8152929450169063a9059cbb90620019a79089908690600401620035b5565b602060405180830381600087803b158015620019c257600080fd5b505af1158015620019d7573d6000803e3d6000fd5b505050506040513d601f19601f82011682018060405250810190620019fd9190620033a9565b50856001600160a01b03167fe67bd0100cd3289557430d36098901ba18161e6279c9711d8650b8af1055210488866060015186858760405162001a4595949392919062003b10565b60405180910390a25095945050505050565b6000818152600d602052604081205462001a7181620013b9565b9392505050565b60085481565b62001a8862003152565b600c60008381526020019081526020016000206040518060e0016040529081600082015481526020016001820154815260200160028201548152602001600382015481526020016004820160009054906101000a900460ff16600281111562001aed57fe5b600281111562001af957fe5b81526020016004820160019054906101000a900460ff16600481111562001b1c57fe5b600481111562001b2857fe5b81526020016005820154815250509050919050565b60065481565b6000818152600d602052604080822081516060810192839052839290919060039082845b81548152602001906001019080831162001b6757505050505090508060006003811062001b9057fe5b60200201511580159062001ba75750602081015115155b801562001a71575060400151151592915050565b600a540290565b62001bcc620030f1565b6000828152600d6020526040808220815160608101928390529160039082845b81548152602001906001019080831162001bec575093979650505050505050565b600f546001600160a01b031681565b6000546001600160a01b0316331462001c3457600080fd5b60058190556040517f92d395c429898992f8532ee7145901513e524c2085fd7fd1da39b8badcd6df3190620015d890839062003a9e565b60105481565b6002546001600160a01b031681565b60606000805b600b5481101562001cb15762001c9c81620013b9565b62001ca8576001909101905b60010162001c86565b5060008167ffffffffffffffff8111801562001ccc57600080fd5b5060405190808252806020026020018201604052801562001cf7578160200160208202803683370190505b5090506000805b600b548110156200139b5783821062001d17576200139b565b62001d2281620013b9565b62001d47578083838151811062001d3557fe5b60209081029190910101526001909101905b60010162001cfe565b6000546001600160a01b0316331462001d6857600080fd5b600f80546001600160a01b0319166001600160a01b0383161790556040517f6b7517523482c8d89ffbc530829d5decd506cf6dc60874b11fa26c8a53bb9fa990620015d89083906200357d565b600080805b845181101562001dfb5762001df062001de886838151811062001dd957fe5b60200260200101518662001757565b839062001fc0565b915060010162001dba565b509392505050565b62001e0d6200319b565b600b54821062001e67575060408051610100810182526000808252825181815260208082018552830152918101829052606081018290526080810182905260a0810182905260c0810182905260e08101919091526200118e565b600b828154811062001e7557fe5b60009182526020918290206040805161010081018252600890930290910180546001600160a01b0316835260018101805483518187028101870190945280845293949193858301939283018282801562001ef957602002820191906000526020600020905b81546001600160a01b0316815260019091019060200180831162001eda575b50505091835250506002820154602082015260038201546001600160a01b031660408201526004820154606082015260058201546080820152600682015460a082015260079091015460c09091015290506200118e565b600b5490565b600080546001600160a01b0316331462001f6f57600080fd5b6001600160a01b03821662001f8357600080fd5b60005462001f9b906001600160a01b03168362002ef7565b50600080546001600160a01b0383166001600160a01b03199091161790556001919050565b60008282018381101562001a7157600080fd5b60408051600380825260808201909252600091829190816020015b606081526020019060019003908162001fee5790505060408051808201909152600a815269139bc810dbdb9d195cdd60b21b6020820152909150816000815181106200203657fe5b6020026020010181905250604051806040016040528060048152602001634177617960e01b81525081600160028111156200206d57fe5b815181106200207857fe5b602002602001018190525060405180604001604052806004815260200163486f6d6560e01b81525081600280811115620020ae57fe5b81518110620020b957fe5b6020908102919091010152600b805490620020d78a84808c62002efb565b8154600180820184556000938452602093849020835160089093020180546001600160a01b0319166001600160a01b03909316929092178255828401518051939492936200212e93928501929190910190620031f2565b506040820151816002015560608201518160030160006101000a8154816001600160a01b0302191690836001600160a01b031602179055506080820151816004015560a0820151816005015560c0820151816006015560e0820151816007015550506040518060e0016040528088815260200187815260200186815260200185815260200160006002811115620021c157fe5b8152602001600181526020016000815250600c60008381526020019081526020016000206000820151816000015560208201518160010155604082015181600201556060820151816003015560808201518160040160006101000a81548160ff021916908360028111156200223257fe5b021790555060a08201518160040160016101000a81548160ff021916908360048111156200225c57fe5b021790555060c08201518160050155905050867fafad6545e5200f9fdf4db34dfca61a9e7d72518593fd5155d11fd69c20e1555f828b8b60008b8b8b6000604051620022b098979695949392919062003abe565b60405180910390a298975050505050505050565b60408051600380825260808201909252600091829190816020015b6060815260200190600190039081620022df5790505060408051808201909152600a815269139bc810dbdb9d195cdd60b21b6020820152909150816000815181106200232757fe5b6020026020010181905250604051806040016040528060048152602001634177617960e01b81525081600160028111156200235e57fe5b815181106200236957fe5b602002602001018190525060405180604001604052806004815260200163486f6d6560e01b815250816002808111156200239f57fe5b81518110620023aa57fe5b602002602001018190525060008312158015620023c85750600a8307155b15620023da5760058301925062002404565b600083128015620023f75750600a8360000381620023f457fe5b07155b1562002404576005830392505b600b805490620024178b84808d62002efb565b8154600180820184556000938452602093849020835160089093020180546001600160a01b0319166001600160a01b03909316929092178255828401518051939492936200246e93928501929190910190620031f2565b506040820151816002015560608201518160030160006101000a8154816001600160a01b0302191690836001600160a01b031602179055506080820151816004015560a0820151816005015560c0820151816006015560e0820151816007015550506040518060e00160405280898152602001888152602001878152602001868152602001600160028111156200250157fe5b81526020016001815260200185815250600c60008381526020019081526020016000206000820151816000015560208201518160010155604082015181600201556060820151816003015560808201518160040160006101000a81548160ff021916908360028111156200257157fe5b021790555060a08201518160040160016101000a81548160ff021916908360048111156200259b57fe5b021790555060c08201518160050155905050877fafad6545e5200f9fdf4db34dfca61a9e7d72518593fd5155d11fd69c20e1555f828c8c60018c8c8c8c604051620025ee98979695949392919062003abe565b60405180910390a29998505050505050505050565b60408051600380825260808201909252600091829190816020015b60608152602001906001900390816200261e5790505060408051808201909152600a815269139bc810dbdb9d195cdd60b21b6020820152909150816000815181106200266657fe5b60200260200101819052506040518060400160405280600481526020016327bb32b960e11b81525081600160028111156200269d57fe5b81518110620026a857fe5b6020026020010181905250604051806040016040528060058152602001642ab73232b960d91b81525081600280811115620026df57fe5b81518110620026ea57fe5b6020908102919091010152600a830662002705576005830192505b600b805490620027188b84808d62002efb565b8154600180820184556000938452602093849020835160089093020180546001600160a01b0319166001600160a01b03909316929092178255828401518051939492936200276f93928501929190910190620031f2565b506040820151816002015560608201518160030160006101000a8154816001600160a01b0302191690836001600160a01b031602179055506080820151816004015560a0820151816005015560c0820151816006015560e0820151816007015550506040518060e001604052808981526020018881526020018781526020018681526020016002808111156200280157fe5b81526020016001815260200185815250600c60008381526020019081526020016000206000820151816000015560208201518160010155604082015181600201556060820151816003015560808201518160040160006101000a81548160ff021916908360028111156200287157fe5b021790555060a08201518160040160016101000a81548160ff021916908360048111156200289b57fe5b021790555060c08201518160050155905050877fafad6545e5200f9fdf4db34dfca61a9e7d72518593fd5155d11fd69c20e1555f828c8c60028c8c8c8c604051620025ee98979695949392919062003abe565b600082620028ff5750600062001702565b828202828482816200290d57fe5b041462001a7157600080fd5b6000808284816200292657fe5b04949350505050565b6000828211156200293f57600080fd5b50900390565b6000818311156200299c57600b84815481106200295e57fe5b6000918252602090912060016008909202010160025b815481106200297f57fe5b6000918252602090912001546001600160a01b0316905062002a16565b81831015620029d257600b8481548110620029b357fe5b9060005260206000209060080201600101600160028111156200297457fe5b600b8481548110620029e057fe5b6000918252602082206001600890920201019081548110620029fe57fe5b6000918252602090912001546001600160a01b031690505b80600b858154811062002a2557fe5b906000526020600020906008020160030160006101000a8154816001600160a01b0302191690836001600160a01b031602179055507fc68d106ea6e4bec784925cfd91767212c71ced92adbac107dc364435321113f6848260405162002a8d92919062003aa7565b60405180910390a150505050565b6000838152600c60209081526040808320815160e08101835281548152600182015493810193909352600280820154928401929092526003810154606084015260048101549091608084019160ff169081111562002af557fe5b600281111562002b0157fe5b81526020016004820160019054906101000a900460ff16600481111562002b2457fe5b600481111562002b3057fe5b81526005919091015460209091015260c0810151909150600062002b55858562002f6e565b905060008282131562002bae57600b878154811062002b7057fe5b6000918252602090912060016008909202010160025b8154811062002b9157fe5b6000918252602090912001546001600160a01b0316905062002c28565b8282121562002be457600b878154811062002bc557fe5b90600052602060002090600802016001016001600281111562002b8657fe5b600b878154811062002bf257fe5b600091825260208220600160089092020101908154811062002c1057fe5b6000918252602090912001546001600160a01b031690505b80600b888154811062002c3757fe5b906000526020600020906008020160030160006101000a8154816001600160a01b0302191690836001600160a01b031602179055507fc68d106ea6e4bec784925cfd91767212c71ced92adbac107dc364435321113f6878260405162002c9f92919062003aa7565b60405180910390a150505050505050565b6000838152600c60209081526040808320815160e08101835281548152600182015493810193909352600280820154928401929092526003810154606084015260048101549091608084019160ff169081111562002d0a57fe5b600281111562002d1657fe5b81526020016004820160019054906101000a900460ff16600481111562002d3957fe5b600481111562002d4557fe5b81526005919091015460209091015260c0810151909150600062002d6a858562002fb2565b905060008282131562002d8557600b878154811062002bc557fe5b8282121562002be457600b878154811062002b7057fe5b600080805b600e5481101562002deb576000600e828154811062002dbc57fe5b9060005260206000200154905062002dd48162002df1565b1562002de1576001909201915b5060010162002da1565b50905090565b6000818152600d6020526040808220815161014081019092528291908160e081018260038282826020028201915b81548152602001906001019080831162002e1f57505050918352505060038201546020820152600480830154604083015260058301546060830152600683015460809092019160ff169081111562002e7357fe5b600481111562002e7f57fe5b81526007820154602082015260089091015460ff16151560409091015290506000805b600381101562001dfb578251600090826003811062002ebd57fe5b60200201519050801580159062002edc575062002eda81620013b9565b155b1562002eed57600192505062001dfb565b5060010162002ea2565b5050565b62002f056200319b565b604051806101000160405280866001600160a01b0316815260200162002f2d86863062002ffb565b815260200183815260200160006001600160a01b03168152602001600554815260200160065481526020016004548152602001428152509050949350505050565b600080831215801562002f8a57506001600160ff1b0383038212155b8062002fa8575060008312801562002fa85750600160ff1b83038213155b6200293f57600080fd5b600080831215801562002fce5750826001600160ff1b03038213155b8062002fec575060008312801562002fec575082600160ff1b038212155b62002ff657600080fd5b500190565b825160609060008167ffffffffffffffff811180156200301a57600080fd5b5060405190808252806020026020018201604052801562003045578160200160208202803683370190505b50905060005b82811015620030e7578681815181106200306157fe5b60200260200101518682815181106200307657fe5b6020026020010151866040516200308d906200324a565b6200309b9392919062003667565b604051809103906000f080158015620030b8573d6000803e3d6000fd5b50828281518110620030c657fe5b6001600160a01b03909216602092830291909101909101526001016200304b565b5095945050505050565b60405180606001604052806003906020820280368337509192915050565b826003810192821562003140579160200282015b828111156200314057825182559160200191906001019062003123565b506200314e92915062003258565b5090565b6040518060e0016040528060008152602001600081526020016000815260200160008152602001600060028111156200318757fe5b815260200160008152602001600081525090565b60405180610100016040528060006001600160a01b03168152602001606081526020016000815260200160006001600160a01b03168152602001600081526020016000815260200160008152602001600081525090565b82805482825590600052602060002090810192821562003140579160200282015b828111156200314057825182546001600160a01b0319166001600160a01b0390911617825560209092019160019091019062003213565b6111f38062003ba883390190565b5b808211156200314e576000815560010162003259565b80356001600160a01b03811681146200118e57600080fd5b60006020828403121562003299578081fd5b62001a71826200326f565b60008060408385031215620032b7578081fd5b620032c2836200326f565b91506020830135620032d48162003b98565b809150509250929050565b60008060408385031215620032f2578182fd5b823567ffffffffffffffff808211156200330a578384fd5b818501915085601f8301126200331e578384fd5b81356020828211156200332d57fe5b808202604051828282010181811086821117156200334757fe5b604052838152828101945085830182870184018b101562003366578889fd5b8896505b848710156200338a5780358652600196909601959483019483016200336a565b5096506200339c90508782016200326f565b9450505050509250929050565b600060208284031215620033bb578081fd5b815162001a718162003b98565b600060208284031215620033da578081fd5b5035919050565b600060208284031215620033f3578081fd5b5051919050565b600080604083850312156200340d578182fd5b823591506200341f602084016200326f565b90509250929050565b6000806000606084860312156200343d578081fd5b833592506020840135915062003456604085016200326f565b90509250925092565b6000806000806080858703121562003475578081fd5b5050823594602084013594506040840135936060013592509050565b600080600080600080600080610100898b031215620034ae578384fd5b883597506020890135965060408901359550606089013594506080890135935060a0890135925060c0890135620034e58162003b98565b915060e0890135620034f78162003b98565b809150509295985092959890939650565b6001600160a01b03169052565b600581106200352057fe5b9052565b600381106200352057fe5b60008151808452815b81811015620035565760208185018101518683018201520162003538565b81811115620035685782602083870101525b50601f01601f19169290920160200192915050565b6001600160a01b0391909116815260200190565b6001600160a01b039384168152919092166020820152604081019190915260600190565b6001600160a01b03929092168252602082015260400190565b60608101818360005b6003811015620035f8578151835260209283019290910190600101620035d7565b50505092915050565b6020808252825182820181905260009190848201906040850190845b818110156200363b578351835292840192918401916001016200361d565b50909695505050505050565b901515815260200190565b60006020825262001a7160208301846200352f565b6000606082526200367c60608301866200352f565b82810360208401526200369081866200352f565b91505060018060a01b0383166040830152949350505050565b6020808252602b908201527f43616e6e6f74207265736f6c7665206d61726b6574732074686174207765726560408201526a1b89dd0818dc99585d195960aa1b606082015260800190565b6020808252818101527f63616e6e6f74207265736f6c7665205343484544554c4544206d61726b657473604082015260600190565b60208082526024908201527f4f6e6c792070726f746f636f6c2063616e20636c61696d2070726f746f636f6c6040820152632066656560e01b606082015260800190565b60208082526046908201527f4f6e6c7920746865206c696e6b206e6f64652063616e207265736f6c7665207460408201527f6865206d61726b65742c207573696e6720747275737465645265736f6c76654d60608201526561726b65747360d01b608082015260a00190565b6020808252604b908201527f536861726573206d75737420626520626f74682067726561746572207468616e60408201527f20286f7220657175616c20746f2920616e6420646976697369626c652062792060608201526a39b430b932a330b1ba37b960a91b608082015260a00190565b60208082526021908201527f4f6e6c79206c696e6b206e6f64652063616e20637265617465206d61726b65746040820152607360f81b606082015260800190565b6020808252600e908201526d139bc81cdd58da081b585c9ad95d60921b604082015260600190565b60208082526022908201527f4f6e6c79206c696e6b206e6f64652063616e207265736f6c7665206d61726b65604082015261747360f01b606082015260800190565b60208082526026908201527f43616e6e6f74206d696e742073686172657320666f72207265736f6c766564206040820152651b585c9ad95d60d21b606082015260800190565b60208082526026908201527f43616e6e6f74206275726e2073686172657320666f72207265736f6c766564206040820152651b585c9ad95d60d21b606082015260800190565b600060e082019050825182526020830151602083015260408301516040830152606083015160608301526080830151620039bf608084018262003524565b5060a0830151620039d460a084018262003515565b5060c092830151919092015290565b602080825282516001600160a01b039081168383015283820151610100604085018190528151610120860181905260009493928401929185916101408801905b8084101562003a475785518516825294860194600193909301929086019062003a23565b50604089015160608901526060890151955062003a68608089018762003508565b608089015160a089015260a089015160c089015260c089015160e089015260e08901518289015280965050505050505092915050565b90815260200190565b9182526001600160a01b0316602082015260400190565b8881526001600160a01b038816602082015260408101879052610100810162003aeb606083018862003524565b8560808301528460a08301528360c08301528260e08301529998505050505050505050565b9485526001600160a01b0393909316602085015260408401919091526060830152608082015260a00190565b92835260208301919091526001600160a01b0316604082015260600190565b868152602081018690526040810185905260c0810162003b7f606083018662003515565b83608083015282151560a0830152979650505050505050565b80151581146200155e57600080fdfe60806040523480156200001157600080fd5b50604051620011f3380380620011f3833981810160405260608110156200003757600080fd5b81019080805160405193929190846401000000008211156200005857600080fd5b9083019060208201858111156200006e57600080fd5b82516401000000008111828201881017156200008957600080fd5b82525081516020918201929091019080838360005b83811015620000b85781810151838201526020016200009e565b50505050905090810190601f168015620000e65780820380516001836020036101000a031916815260200191505b50604052602001805160405193929190846401000000008211156200010a57600080fd5b9083019060208201858111156200012057600080fd5b82516401000000008111828201881017156200013b57600080fd5b82525081516020918201929091019080838360005b838110156200016a57818101518382015260200162000150565b50505050905090810190601f168015620001985780820380516001836020036101000a031916815260200191505b5060405260209081015185519093508592508491620001bd9160039185019062000219565b508051620001d390600490602084019062000219565b5050600580546001600160a01b039390931661010090810233909102610100600160a81b031960ff199095166012178516179093169290921790915550620002c5915050565b828054600181600116156101000203166002900490600052602060002090601f0160209004810192826200025157600085556200029c565b82601f106200026c57805160ff19168380011785556200029c565b828001600101855582156200029c579182015b828111156200029c5782518255916020019190600101906200027f565b50620002aa929150620002ae565b5090565b5b80821115620002aa5760008155600101620002af565b610f1e80620002d56000396000f3fe608060405234801561001057600080fd5b506004361061010b5760003560e01c806370a08231116100a2578063a457c2d711610071578063a457c2d714610343578063a9059cbb1461036f578063c024cd261461039b578063dd62ed3e146103c7578063f2fde38b146103f55761010b565b806370a08231146102cb57806371297784146102f1578063893d20e81461031757806395d89b411461033b5761010b565b806323b872dd116100de57806323b872dd1461021f578063313ce56714610255578063395093511461027357806342986e131461029f5761010b565b806306fdde0314610110578063095ea7b31461018d5780630fb66557146101cd57806318160ddd14610205575b600080fd5b61011861041b565b6040805160208082528351818301528351919283929083019185019080838360005b8381101561015257818101518382015260200161013a565b50505050905090810190601f16801561017f5780820380516001836020036101000a031916815260200191505b509250505060405180910390f35b6101b9600480360360408110156101a357600080fd5b506001600160a01b0381351690602001356104b1565b604080519115158252519081900360200190f35b610203600480360360608110156101e357600080fd5b506001600160a01b038135811691602081013590911690604001356104ce565b005b61020d6104fa565b60408051918252519081900360200190f35b6101b96004803603606081101561023557600080fd5b506001600160a01b03813581169160208101359091169060400135610500565b61025d610587565b6040805160ff9092168252519081900360200190f35b6101b96004803603604081101561028957600080fd5b506001600160a01b038135169060200135610590565b610203600480360360408110156102b557600080fd5b506001600160a01b0381351690602001356105de565b61020d600480360360208110156102e157600080fd5b50356001600160a01b0316610608565b61020d6004803603602081101561030757600080fd5b50356001600160a01b0316610623565b61031f61065f565b604080516001600160a01b039092168252519081900360200190f35b610118610673565b6101b96004803603604081101561035957600080fd5b506001600160a01b0381351690602001356106d4565b6101b96004803603604081101561038557600080fd5b506001600160a01b03813516906020013561073c565b610203600480360360408110156103b157600080fd5b506001600160a01b038135169060200135610750565b61020d600480360360408110156103dd57600080fd5b506001600160a01b0381358116916020013516610776565b6101b96004803603602081101561040b57600080fd5b50356001600160a01b03166107a1565b60038054604080516020601f60026000196101006001881615020190951694909404938401819004810282018101909252828152606093909290918301828280156104a75780601f1061047c576101008083540402835291602001916104a7565b820191906000526020600020905b81548152906001019060200180831161048a57829003601f168201915b5050505050905090565b60006104c56104be610818565b848461081c565b50600192915050565b60055461010090046001600160a01b031633146104ea57600080fd5b6104f5838383610908565b505050565b60025490565b600061050d848484610908565b61057d84610519610818565b61057885604051806060016040528060288152602001610e32602891396001600160a01b038a16600090815260016020526040812090610557610818565b6001600160a01b031681526020810191909152604001600020549190610a63565b61081c565b5060019392505050565b60055460ff1690565b60006104c561059d610818565b8461057885600160006105ae610818565b6001600160a01b03908116825260208083019390935260409182016000908120918c168152925290205490610afa565b60055461010090046001600160a01b031633146105fa57600080fd5b6106048282610b5b565b5050565b6001600160a01b031660009081526020819052604090205490565b60055460009061010090046001600160a01b0316331461064257600080fd5b600061064d83610608565b90506106598382610b5b565b92915050565b60055461010090046001600160a01b031690565b60048054604080516020601f60026000196101006001881615020190951694909404938401819004810282018101909252828152606093909290918301828280156104a75780601f1061047c576101008083540402835291602001916104a7565b60006104c56106e1610818565b8461057885604051806060016040528060258152602001610ec4602591396001600061070b610818565b6001600160a01b03908116825260208083019390935260409182016000908120918d16815292529020549190610a63565b60006104c5610749610818565b8484610908565b60055461010090046001600160a01b0316331461076c57600080fd5b6106048282610c57565b6001600160a01b03918216600090815260016020908152604080832093909416825291909152205490565b60055460009061010090046001600160a01b031633146107c057600080fd5b6001600160a01b0382166107d357600080fd5b6005546107ee9061010090046001600160a01b031683610604565b50600580546001600160a01b03831661010002610100600160a81b03199091161790556001919050565b3390565b6001600160a01b0383166108615760405162461bcd60e51b8152600401808060200182810382526024815260200180610ea06024913960400191505060405180910390fd5b6001600160a01b0382166108a65760405162461bcd60e51b8152600401808060200182810382526022815260200180610dea6022913960400191505060405180910390fd5b6001600160a01b03808416600081815260016020908152604080832094871680845294825291829020859055815185815291517f8c5be1e5ebec7d5bd14f71427d1e84f3dd0314c0f7b2291e5b200ac8c7c3b9259281900390910190a3505050565b6001600160a01b03831661094d5760405162461bcd60e51b8152600401808060200182810382526025815260200180610e7b6025913960400191505060405180910390fd5b6001600160a01b0382166109925760405162461bcd60e51b8152600401808060200182810382526023815260200180610da56023913960400191505060405180910390fd5b61099d8383836104f5565b6109da81604051806060016040528060268152602001610e0c602691396001600160a01b0386166000908152602081905260409020549190610a63565b6001600160a01b038085166000908152602081905260408082209390935590841681522054610a099082610afa565b6001600160a01b038084166000818152602081815260409182902094909455805185815290519193928716927fddf252ad1be2c89b69c2b068fc378daa952ba7f163c4a11628f55a4df523b3ef92918290030190a3505050565b60008184841115610af25760405162461bcd60e51b81526004018080602001828103825283818151815260200191508051906020019080838360005b83811015610ab7578181015183820152602001610a9f565b50505050905090810190601f168015610ae45780820380516001836020036101000a031916815260200191505b509250505060405180910390fd5b505050900390565b600082820183811015610b54576040805162461bcd60e51b815260206004820152601b60248201527f536166654d6174683a206164646974696f6e206f766572666c6f770000000000604482015290519081900360640190fd5b9392505050565b6001600160a01b038216610ba05760405162461bcd60e51b8152600401808060200182810382526021815260200180610e5a6021913960400191505060405180910390fd5b610bac826000836104f5565b610be981604051806060016040528060228152602001610dc8602291396001600160a01b0385166000908152602081905260409020549190610a63565b6001600160a01b038316600090815260208190526040902055600254610c0f9082610d47565b6002556040805182815290516000916001600160a01b038516917fddf252ad1be2c89b69c2b068fc378daa952ba7f163c4a11628f55a4df523b3ef9181900360200190a35050565b6001600160a01b038216610cb2576040805162461bcd60e51b815260206004820152601f60248201527f45524332303a206d696e7420746f20746865207a65726f206164647265737300604482015290519081900360640190fd5b610cbe600083836104f5565b600254610ccb9082610afa565b6002556001600160a01b038216600090815260208190526040902054610cf19082610afa565b6001600160a01b0383166000818152602081815260408083209490945583518581529351929391927fddf252ad1be2c89b69c2b068fc378daa952ba7f163c4a11628f55a4df523b3ef9281900390910190a35050565b600082821115610d9e576040805162461bcd60e51b815260206004820152601e60248201527f536166654d6174683a207375627472616374696f6e206f766572666c6f770000604482015290519081900360640190fd5b5090039056fe45524332303a207472616e7366657220746f20746865207a65726f206164647265737345524332303a206275726e20616d6f756e7420657863656564732062616c616e636545524332303a20617070726f766520746f20746865207a65726f206164647265737345524332303a207472616e7366657220616d6f756e7420657863656564732062616c616e636545524332303a207472616e7366657220616d6f756e74206578636565647320616c6c6f77616e636545524332303a206275726e2066726f6d20746865207a65726f206164647265737345524332303a207472616e736665722066726f6d20746865207a65726f206164647265737345524332303a20617070726f76652066726f6d20746865207a65726f206164647265737345524332303a2064656372656173656420616c6c6f77616e63652062656c6f77207a65726fa2646970667358221220c881513fca5a75d47e02fc1c04920461b43ce001b23b37bd2a0244cb5b4737ce64736f6c63430007060033a26469706673582212209642f4403eb20a9450078c2bd59a695e4ffa170d87c6a5919abf99879565273f64736f6c6343000706003360806040523480156200001157600080fd5b50604051620011f3380380620011f3833981810160405260608110156200003757600080fd5b81019080805160405193929190846401000000008211156200005857600080fd5b9083019060208201858111156200006e57600080fd5b82516401000000008111828201881017156200008957600080fd5b82525081516020918201929091019080838360005b83811015620000b85781810151838201526020016200009e565b50505050905090810190601f168015620000e65780820380516001836020036101000a031916815260200191505b50604052602001805160405193929190846401000000008211156200010a57600080fd5b9083019060208201858111156200012057600080fd5b82516401000000008111828201881017156200013b57600080fd5b82525081516020918201929091019080838360005b838110156200016a57818101518382015260200162000150565b50505050905090810190601f168015620001985780820380516001836020036101000a031916815260200191505b5060405260209081015185519093508592508491620001bd9160039185019062000219565b508051620001d390600490602084019062000219565b5050600580546001600160a01b039390931661010090810233909102610100600160a81b031960ff199095166012178516179093169290921790915550620002c5915050565b828054600181600116156101000203166002900490600052602060002090601f0160209004810192826200025157600085556200029c565b82601f106200026c57805160ff19168380011785556200029c565b828001600101855582156200029c579182015b828111156200029c5782518255916020019190600101906200027f565b50620002aa929150620002ae565b5090565b5b80821115620002aa5760008155600101620002af565b610f1e80620002d56000396000f3fe608060405234801561001057600080fd5b506004361061010b5760003560e01c806370a08231116100a2578063a457c2d711610071578063a457c2d714610343578063a9059cbb1461036f578063c024cd261461039b578063dd62ed3e146103c7578063f2fde38b146103f55761010b565b806370a08231146102cb57806371297784146102f1578063893d20e81461031757806395d89b411461033b5761010b565b806323b872dd116100de57806323b872dd1461021f578063313ce56714610255578063395093511461027357806342986e131461029f5761010b565b806306fdde0314610110578063095ea7b31461018d5780630fb66557146101cd57806318160ddd14610205575b600080fd5b61011861041b565b6040805160208082528351818301528351919283929083019185019080838360005b8381101561015257818101518382015260200161013a565b50505050905090810190601f16801561017f5780820380516001836020036101000a031916815260200191505b509250505060405180910390f35b6101b9600480360360408110156101a357600080fd5b506001600160a01b0381351690602001356104b1565b604080519115158252519081900360200190f35b610203600480360360608110156101e357600080fd5b506001600160a01b038135811691602081013590911690604001356104ce565b005b61020d6104fa565b60408051918252519081900360200190f35b6101b96004803603606081101561023557600080fd5b506001600160a01b03813581169160208101359091169060400135610500565b61025d610587565b6040805160ff9092168252519081900360200190f35b6101b96004803603604081101561028957600080fd5b506001600160a01b038135169060200135610590565b610203600480360360408110156102b557600080fd5b506001600160a01b0381351690602001356105de565b61020d600480360360208110156102e157600080fd5b50356001600160a01b0316610608565b61020d6004803603602081101561030757600080fd5b50356001600160a01b0316610623565b61031f61065f565b604080516001600160a01b039092168252519081900360200190f35b610118610673565b6101b96004803603604081101561035957600080fd5b506001600160a01b0381351690602001356106d4565b6101b96004803603604081101561038557600080fd5b506001600160a01b03813516906020013561073c565b610203600480360360408110156103b157600080fd5b506001600160a01b038135169060200135610750565b61020d600480360360408110156103dd57600080fd5b506001600160a01b0381358116916020013516610776565b6101b96004803603602081101561040b57600080fd5b50356001600160a01b03166107a1565b60038054604080516020601f60026000196101006001881615020190951694909404938401819004810282018101909252828152606093909290918301828280156104a75780601f1061047c576101008083540402835291602001916104a7565b820191906000526020600020905b81548152906001019060200180831161048a57829003601f168201915b5050505050905090565b60006104c56104be610818565b848461081c565b50600192915050565b60055461010090046001600160a01b031633146104ea57600080fd5b6104f5838383610908565b505050565b60025490565b600061050d848484610908565b61057d84610519610818565b61057885604051806060016040528060288152602001610e32602891396001600160a01b038a16600090815260016020526040812090610557610818565b6001600160a01b031681526020810191909152604001600020549190610a63565b61081c565b5060019392505050565b60055460ff1690565b60006104c561059d610818565b8461057885600160006105ae610818565b6001600160a01b03908116825260208083019390935260409182016000908120918c168152925290205490610afa565b60055461010090046001600160a01b031633146105fa57600080fd5b6106048282610b5b565b5050565b6001600160a01b031660009081526020819052604090205490565b60055460009061010090046001600160a01b0316331461064257600080fd5b600061064d83610608565b90506106598382610b5b565b92915050565b60055461010090046001600160a01b031690565b60048054604080516020601f60026000196101006001881615020190951694909404938401819004810282018101909252828152606093909290918301828280156104a75780601f1061047c576101008083540402835291602001916104a7565b60006104c56106e1610818565b8461057885604051806060016040528060258152602001610ec4602591396001600061070b610818565b6001600160a01b03908116825260208083019390935260409182016000908120918d16815292529020549190610a63565b60006104c5610749610818565b8484610908565b60055461010090046001600160a01b0316331461076c57600080fd5b6106048282610c57565b6001600160a01b03918216600090815260016020908152604080832093909416825291909152205490565b60055460009061010090046001600160a01b031633146107c057600080fd5b6001600160a01b0382166107d357600080fd5b6005546107ee9061010090046001600160a01b031683610604565b50600580546001600160a01b03831661010002610100600160a81b03199091161790556001919050565b3390565b6001600160a01b0383166108615760405162461bcd60e51b8152600401808060200182810382526024815260200180610ea06024913960400191505060405180910390fd5b6001600160a01b0382166108a65760405162461bcd60e51b8152600401808060200182810382526022815260200180610dea6022913960400191505060405180910390fd5b6001600160a01b03808416600081815260016020908152604080832094871680845294825291829020859055815185815291517f8c5be1e5ebec7d5bd14f71427d1e84f3dd0314c0f7b2291e5b200ac8c7c3b9259281900390910190a3505050565b6001600160a01b03831661094d5760405162461bcd60e51b8152600401808060200182810382526025815260200180610e7b6025913960400191505060405180910390fd5b6001600160a01b0382166109925760405162461bcd60e51b8152600401808060200182810382526023815260200180610da56023913960400191505060405180910390fd5b61099d8383836104f5565b6109da81604051806060016040528060268152602001610e0c602691396001600160a01b0386166000908152602081905260409020549190610a63565b6001600160a01b038085166000908152602081905260408082209390935590841681522054610a099082610afa565b6001600160a01b038084166000818152602081815260409182902094909455805185815290519193928716927fddf252ad1be2c89b69c2b068fc378daa952ba7f163c4a11628f55a4df523b3ef92918290030190a3505050565b60008184841115610af25760405162461bcd60e51b81526004018080602001828103825283818151815260200191508051906020019080838360005b83811015610ab7578181015183820152602001610a9f565b50505050905090810190601f168015610ae45780820380516001836020036101000a031916815260200191505b509250505060405180910390fd5b505050900390565b600082820183811015610b54576040805162461bcd60e51b815260206004820152601b60248201527f536166654d6174683a206164646974696f6e206f766572666c6f770000000000604482015290519081900360640190fd5b9392505050565b6001600160a01b038216610ba05760405162461bcd60e51b8152600401808060200182810382526021815260200180610e5a6021913960400191505060405180910390fd5b610bac826000836104f5565b610be981604051806060016040528060228152602001610dc8602291396001600160a01b0385166000908152602081905260409020549190610a63565b6001600160a01b038316600090815260208190526040902055600254610c0f9082610d47565b6002556040805182815290516000916001600160a01b038516917fddf252ad1be2c89b69c2b068fc378daa952ba7f163c4a11628f55a4df523b3ef9181900360200190a35050565b6001600160a01b038216610cb2576040805162461bcd60e51b815260206004820152601f60248201527f45524332303a206d696e7420746f20746865207a65726f206164647265737300604482015290519081900360640190fd5b610cbe600083836104f5565b600254610ccb9082610afa565b6002556001600160a01b038216600090815260208190526040902054610cf19082610afa565b6001600160a01b0383166000818152602081815260408083209490945583518581529351929391927fddf252ad1be2c89b69c2b068fc378daa952ba7f163c4a11628f55a4df523b3ef9281900390910190a35050565b600082821115610d9e576040805162461bcd60e51b815260206004820152601e60248201527f536166654d6174683a207375627472616374696f6e206f766572666c6f770000604482015290519081900360640190fd5b5090039056fe45524332303a207472616e7366657220746f20746865207a65726f206164647265737345524332303a206275726e20616d6f756e7420657863656564732062616c616e636545524332303a20617070726f766520746f20746865207a65726f206164647265737345524332303a207472616e7366657220616d6f756e7420657863656564732062616c616e636545524332303a207472616e7366657220616d6f756e74206578636565647320616c6c6f77616e636545524332303a206275726e2066726f6d20746865207a65726f206164647265737345524332303a207472616e736665722066726f6d20746865207a65726f206164647265737345524332303a20617070726f76652066726f6d20746865207a65726f206164647265737345524332303a2064656372656173656420616c6c6f77616e63652062656c6f77207a65726fa2646970667358221220c881513fca5a75d47e02fc1c04920461b43ce001b23b37bd2a0244cb5b4737ce64736f6c63430007060033",
  "devdoc": {
    "kind": "dev",
    "methods": {
      "transferOwnership(address)": {
        "details": "Allows the current owner to transfer control of the contract to a newOwner.",
        "params": {
          "_newOwner": "The address to transfer ownership to."
        }
      }
    },
    "version": 1
  },
  "userdoc": {
    "kind": "user",
    "methods": {},
    "version": 1
  },
  "storageLayout": {
    "storage": [
      {
        "astId": 5572,
        "contract": "contracts/turbo/SportsLinkMarketFactory.sol:SportsLinkMarketFactory",
        "label": "owner",
        "offset": 0,
        "slot": "0",
        "type": "t_address"
      },
      {
        "astId": 8094,
        "contract": "contracts/turbo/SportsLinkMarketFactory.sol:SportsLinkMarketFactory",
        "label": "version",
        "offset": 0,
        "slot": "1",
        "type": "t_string_storage"
      },
      {
        "astId": 8096,
        "contract": "contracts/turbo/SportsLinkMarketFactory.sol:SportsLinkMarketFactory",
        "label": "collateral",
        "offset": 0,
        "slot": "2",
        "type": "t_contract(IERC20Full)5549"
      },
      {
        "astId": 8098,
        "contract": "contracts/turbo/SportsLinkMarketFactory.sol:SportsLinkMarketFactory",
        "label": "feePot",
        "offset": 0,
        "slot": "3",
        "type": "t_contract(FeePot)10070"
      },
      {
        "astId": 8100,
        "contract": "contracts/turbo/SportsLinkMarketFactory.sol:SportsLinkMarketFactory",
        "label": "stakerFee",
        "offset": 0,
        "slot": "4",
        "type": "t_uint256"
      },
      {
        "astId": 8102,
        "contract": "contracts/turbo/SportsLinkMarketFactory.sol:SportsLinkMarketFactory",
        "label": "settlementFee",
        "offset": 0,
        "slot": "5",
        "type": "t_uint256"
      },
      {
        "astId": 8104,
        "contract": "contracts/turbo/SportsLinkMarketFactory.sol:SportsLinkMarketFactory",
        "label": "protocolFee",
        "offset": 0,
        "slot": "6",
        "type": "t_uint256"
      },
      {
        "astId": 8106,
        "contract": "contracts/turbo/SportsLinkMarketFactory.sol:SportsLinkMarketFactory",
        "label": "protocol",
        "offset": 0,
        "slot": "7",
        "type": "t_address"
      },
      {
        "astId": 8109,
        "contract": "contracts/turbo/SportsLinkMarketFactory.sol:SportsLinkMarketFactory",
        "label": "accumulatedProtocolFee",
        "offset": 0,
        "slot": "8",
        "type": "t_uint256"
      },
      {
        "astId": 8113,
        "contract": "contracts/turbo/SportsLinkMarketFactory.sol:SportsLinkMarketFactory",
        "label": "accumulatedSettlementFees",
        "offset": 0,
        "slot": "9",
        "type": "t_mapping(t_address,t_uint256)"
      },
      {
        "astId": 8115,
        "contract": "contracts/turbo/SportsLinkMarketFactory.sol:SportsLinkMarketFactory",
        "label": "shareFactor",
        "offset": 0,
        "slot": "10",
        "type": "t_uint256"
      },
      {
        "astId": 8136,
        "contract": "contracts/turbo/SportsLinkMarketFactory.sol:SportsLinkMarketFactory",
        "label": "markets",
        "offset": 0,
        "slot": "11",
        "type": "t_array(t_struct(Market)8133_storage)dyn_storage"
      },
      {
        "astId": 11147,
        "contract": "contracts/turbo/SportsLinkMarketFactory.sol:SportsLinkMarketFactory",
        "label": "marketDetails",
        "offset": 0,
        "slot": "12",
        "type": "t_mapping(t_uint256,t_struct(MarketDetails)11143_storage)"
      },
      {
        "astId": 11174,
        "contract": "contracts/turbo/SportsLinkMarketFactory.sol:SportsLinkMarketFactory",
        "label": "events",
        "offset": 0,
        "slot": "13",
        "type": "t_mapping(t_uint256,t_struct(EventDetails)11170_storage)"
      },
      {
        "astId": 11177,
        "contract": "contracts/turbo/SportsLinkMarketFactory.sol:SportsLinkMarketFactory",
        "label": "listOfEvents",
        "offset": 0,
        "slot": "14",
        "type": "t_array(t_uint256)dyn_storage"
      },
      {
        "astId": 11179,
        "contract": "contracts/turbo/SportsLinkMarketFactory.sol:SportsLinkMarketFactory",
        "label": "linkNode",
        "offset": 0,
        "slot": "15",
        "type": "t_address"
      },
      {
        "astId": 11182,
        "contract": "contracts/turbo/SportsLinkMarketFactory.sol:SportsLinkMarketFactory",
        "label": "sportId",
        "offset": 0,
        "slot": "16",
        "type": "t_uint256"
      }
    ],
    "types": {
      "t_address": {
        "encoding": "inplace",
        "label": "address",
        "numberOfBytes": "20"
      },
      "t_array(t_contract(OwnedERC20)11066)dyn_storage": {
        "base": "t_contract(OwnedERC20)11066",
        "encoding": "dynamic_array",
        "label": "contract OwnedERC20[]",
        "numberOfBytes": "32"
      },
      "t_array(t_struct(Market)8133_storage)dyn_storage": {
        "base": "t_struct(Market)8133_storage",
        "encoding": "dynamic_array",
        "label": "struct AbstractMarketFactory.Market[]",
        "numberOfBytes": "32"
      },
      "t_array(t_uint256)3_storage": {
        "base": "t_uint256",
        "encoding": "inplace",
        "label": "uint256[3]",
        "numberOfBytes": "96"
      },
      "t_array(t_uint256)dyn_storage": {
        "base": "t_uint256",
        "encoding": "dynamic_array",
        "label": "uint256[]",
        "numberOfBytes": "32"
      },
      "t_bool": {
        "encoding": "inplace",
        "label": "bool",
        "numberOfBytes": "1"
      },
      "t_contract(FeePot)10070": {
        "encoding": "inplace",
        "label": "contract FeePot",
        "numberOfBytes": "20"
      },
      "t_contract(IERC20Full)5549": {
        "encoding": "inplace",
        "label": "contract IERC20Full",
        "numberOfBytes": "20"
      },
      "t_contract(OwnedERC20)11066": {
        "encoding": "inplace",
        "label": "contract OwnedERC20",
        "numberOfBytes": "20"
      },
      "t_enum(EventStatus)11153": {
        "encoding": "inplace",
        "label": "enum SportsLinkMarketFactory.EventStatus",
        "numberOfBytes": "1"
      },
      "t_enum(MarketType)11116": {
        "encoding": "inplace",
        "label": "enum SportsLinkMarketFactory.MarketType",
        "numberOfBytes": "1"
      },
      "t_int256": {
        "encoding": "inplace",
        "label": "int256",
        "numberOfBytes": "32"
      },
      "t_mapping(t_address,t_uint256)": {
        "encoding": "mapping",
        "key": "t_address",
        "label": "mapping(address => uint256)",
        "numberOfBytes": "32",
        "value": "t_uint256"
      },
      "t_mapping(t_uint256,t_struct(EventDetails)11170_storage)": {
        "encoding": "mapping",
        "key": "t_uint256",
        "label": "mapping(uint256 => struct SportsLinkMarketFactory.EventDetails)",
        "numberOfBytes": "32",
        "value": "t_struct(EventDetails)11170_storage"
      },
      "t_mapping(t_uint256,t_struct(MarketDetails)11143_storage)": {
        "encoding": "mapping",
        "key": "t_uint256",
        "label": "mapping(uint256 => struct SportsLinkMarketFactory.MarketDetails)",
        "numberOfBytes": "32",
        "value": "t_struct(MarketDetails)11143_storage"
      },
      "t_string_storage": {
        "encoding": "bytes",
        "label": "string",
        "numberOfBytes": "32"
      },
      "t_struct(EventDetails)11170_storage": {
        "encoding": "inplace",
        "label": "struct SportsLinkMarketFactory.EventDetails",
        "members": [
          {
            "astId": 11157,
            "contract": "contracts/turbo/SportsLinkMarketFactory.sol:SportsLinkMarketFactory",
            "label": "markets",
            "offset": 0,
            "slot": "0",
            "type": "t_array(t_uint256)3_storage"
          },
          {
            "astId": 11159,
            "contract": "contracts/turbo/SportsLinkMarketFactory.sol:SportsLinkMarketFactory",
            "label": "startTime",
            "offset": 0,
            "slot": "3",
            "type": "t_uint256"
          },
          {
            "astId": 11161,
            "contract": "contracts/turbo/SportsLinkMarketFactory.sol:SportsLinkMarketFactory",
            "label": "homeScore",
            "offset": 0,
            "slot": "4",
            "type": "t_uint256"
          },
          {
            "astId": 11163,
            "contract": "contracts/turbo/SportsLinkMarketFactory.sol:SportsLinkMarketFactory",
            "label": "awayScore",
            "offset": 0,
            "slot": "5",
            "type": "t_uint256"
          },
          {
            "astId": 11165,
            "contract": "contracts/turbo/SportsLinkMarketFactory.sol:SportsLinkMarketFactory",
            "label": "status",
            "offset": 0,
            "slot": "6",
            "type": "t_enum(EventStatus)11153"
          },
          {
            "astId": 11167,
            "contract": "contracts/turbo/SportsLinkMarketFactory.sol:SportsLinkMarketFactory",
            "label": "resolutionTime",
            "offset": 0,
            "slot": "7",
            "type": "t_uint256"
          },
          {
            "astId": 11169,
            "contract": "contracts/turbo/SportsLinkMarketFactory.sol:SportsLinkMarketFactory",
            "label": "finalized",
            "offset": 0,
            "slot": "8",
            "type": "t_bool"
          }
        ],
        "numberOfBytes": "288"
      },
      "t_struct(Market)8133_storage": {
        "encoding": "inplace",
        "label": "struct AbstractMarketFactory.Market",
        "members": [
          {
            "astId": 8117,
            "contract": "contracts/turbo/SportsLinkMarketFactory.sol:SportsLinkMarketFactory",
            "label": "settlementAddress",
            "offset": 0,
            "slot": "0",
            "type": "t_address"
          },
          {
            "astId": 8120,
            "contract": "contracts/turbo/SportsLinkMarketFactory.sol:SportsLinkMarketFactory",
            "label": "shareTokens",
            "offset": 0,
            "slot": "1",
            "type": "t_array(t_contract(OwnedERC20)11066)dyn_storage"
          },
          {
            "astId": 8122,
            "contract": "contracts/turbo/SportsLinkMarketFactory.sol:SportsLinkMarketFactory",
            "label": "endTime",
            "offset": 0,
            "slot": "2",
            "type": "t_uint256"
          },
          {
            "astId": 8124,
            "contract": "contracts/turbo/SportsLinkMarketFactory.sol:SportsLinkMarketFactory",
            "label": "winner",
            "offset": 0,
            "slot": "3",
            "type": "t_contract(OwnedERC20)11066"
          },
          {
            "astId": 8126,
            "contract": "contracts/turbo/SportsLinkMarketFactory.sol:SportsLinkMarketFactory",
            "label": "settlementFee",
            "offset": 0,
            "slot": "4",
            "type": "t_uint256"
          },
          {
            "astId": 8128,
            "contract": "contracts/turbo/SportsLinkMarketFactory.sol:SportsLinkMarketFactory",
            "label": "protocolFee",
            "offset": 0,
            "slot": "5",
            "type": "t_uint256"
          },
          {
            "astId": 8130,
            "contract": "contracts/turbo/SportsLinkMarketFactory.sol:SportsLinkMarketFactory",
            "label": "stakerFee",
            "offset": 0,
            "slot": "6",
            "type": "t_uint256"
          },
          {
            "astId": 8132,
            "contract": "contracts/turbo/SportsLinkMarketFactory.sol:SportsLinkMarketFactory",
            "label": "creationTimestamp",
            "offset": 0,
            "slot": "7",
            "type": "t_uint256"
          }
        ],
        "numberOfBytes": "256"
      },
      "t_struct(MarketDetails)11143_storage": {
        "encoding": "inplace",
        "label": "struct SportsLinkMarketFactory.MarketDetails",
        "members": [
          {
            "astId": 11130,
            "contract": "contracts/turbo/SportsLinkMarketFactory.sol:SportsLinkMarketFactory",
            "label": "eventId",
            "offset": 0,
            "slot": "0",
            "type": "t_uint256"
          },
          {
            "astId": 11132,
            "contract": "contracts/turbo/SportsLinkMarketFactory.sol:SportsLinkMarketFactory",
            "label": "homeTeamId",
            "offset": 0,
            "slot": "1",
            "type": "t_uint256"
          },
          {
            "astId": 11134,
            "contract": "contracts/turbo/SportsLinkMarketFactory.sol:SportsLinkMarketFactory",
            "label": "awayTeamId",
            "offset": 0,
            "slot": "2",
            "type": "t_uint256"
          },
          {
            "astId": 11136,
            "contract": "contracts/turbo/SportsLinkMarketFactory.sol:SportsLinkMarketFactory",
            "label": "estimatedStartTime",
            "offset": 0,
            "slot": "3",
            "type": "t_uint256"
          },
          {
            "astId": 11138,
            "contract": "contracts/turbo/SportsLinkMarketFactory.sol:SportsLinkMarketFactory",
            "label": "marketType",
            "offset": 0,
            "slot": "4",
            "type": "t_enum(MarketType)11116"
          },
          {
            "astId": 11140,
            "contract": "contracts/turbo/SportsLinkMarketFactory.sol:SportsLinkMarketFactory",
            "label": "eventStatus",
            "offset": 1,
            "slot": "4",
            "type": "t_enum(EventStatus)11153"
          },
          {
            "astId": 11142,
            "contract": "contracts/turbo/SportsLinkMarketFactory.sol:SportsLinkMarketFactory",
            "label": "value0",
            "offset": 0,
            "slot": "5",
            "type": "t_int256"
          }
        ],
        "numberOfBytes": "192"
      },
      "t_uint256": {
        "encoding": "inplace",
        "label": "uint256",
        "numberOfBytes": "32"
      }
    }
  }
}