{
  "address": "0x6b0B5E33a3549c6a79061F76DeE1B631315219a3",
  "abi": [
    {
      "inputs": [
        {
          "internalType": "address",
          "name": "_owner",
          "type": "address"
        },
        {
          "internalType": "contract IERC20Full",
          "name": "_collateral",
          "type": "address"
        },
        {
          "internalType": "uint256",
          "name": "_shareFactor",
          "type": "uint256"
        },
        {
          "internalType": "contract FeePot",
          "name": "_feePot",
          "type": "address"
        },
        {
          "internalType": "uint256",
          "name": "_stakerFee",
          "type": "uint256"
        },
        {
          "internalType": "uint256",
          "name": "_settlementFee",
          "type": "uint256"
        },
        {
          "internalType": "address",
          "name": "_protocol",
          "type": "address"
        },
        {
          "internalType": "uint256",
          "name": "_protocolFee",
          "type": "uint256"
        }
      ],
      "stateMutability": "nonpayable",
      "type": "constructor"
    },
    {
      "anonymous": false,
      "inputs": [
        {
          "indexed": false,
          "internalType": "uint256",
          "name": "id",
          "type": "uint256"
        },
        {
          "indexed": false,
          "internalType": "address",
          "name": "creator",
          "type": "address"
        },
        {
          "indexed": false,
          "internalType": "uint256",
          "name": "_endTime",
          "type": "uint256"
        },
        {
          "indexed": false,
          "internalType": "string",
          "name": "description",
          "type": "string"
        },
        {
          "indexed": false,
          "internalType": "string[]",
          "name": "outcomes",
          "type": "string[]"
        }
      ],
      "name": "MarketCreated",
      "type": "event"
    },
    {
      "anonymous": false,
      "inputs": [
        {
          "indexed": false,
          "internalType": "uint256",
          "name": "id",
          "type": "uint256"
        },
        {
          "indexed": false,
          "internalType": "address",
          "name": "winner",
          "type": "address"
        }
      ],
      "name": "MarketResolved",
      "type": "event"
    },
    {
      "anonymous": false,
      "inputs": [
        {
          "indexed": false,
          "internalType": "address",
          "name": "protocol",
          "type": "address"
        }
      ],
      "name": "ProtocolChanged",
      "type": "event"
    },
    {
      "anonymous": false,
      "inputs": [
        {
          "indexed": false,
          "internalType": "uint256",
          "name": "fee",
          "type": "uint256"
        }
      ],
      "name": "ProtocolFeeChanged",
      "type": "event"
    },
    {
      "anonymous": false,
      "inputs": [
        {
          "indexed": false,
          "internalType": "address",
          "name": "protocol",
          "type": "address"
        },
        {
          "indexed": false,
          "internalType": "uint256",
          "name": "amount",
          "type": "uint256"
        }
      ],
      "name": "ProtocolFeeClaimed",
      "type": "event"
    },
    {
      "anonymous": false,
      "inputs": [
        {
          "indexed": false,
          "internalType": "uint256",
          "name": "fee",
          "type": "uint256"
        }
      ],
      "name": "SettlementFeeChanged",
      "type": "event"
    },
    {
      "anonymous": false,
      "inputs": [
        {
          "indexed": false,
          "internalType": "address",
          "name": "settlementAddress",
          "type": "address"
        },
        {
          "indexed": false,
          "internalType": "uint256",
          "name": "amount",
          "type": "uint256"
        },
        {
          "indexed": true,
          "internalType": "address",
          "name": "receiver",
          "type": "address"
        }
      ],
      "name": "SettlementFeeClaimed",
      "type": "event"
    },
    {
      "anonymous": false,
      "inputs": [
        {
          "indexed": false,
          "internalType": "uint256",
          "name": "id",
          "type": "uint256"
        },
        {
          "indexed": false,
          "internalType": "uint256",
          "name": "amount",
          "type": "uint256"
        },
        {
          "indexed": false,
          "internalType": "address",
          "name": "receiver",
          "type": "address"
        }
      ],
      "name": "SharesBurned",
      "type": "event"
    },
    {
      "anonymous": false,
      "inputs": [
        {
          "indexed": false,
          "internalType": "uint256",
          "name": "id",
          "type": "uint256"
        },
        {
          "indexed": false,
          "internalType": "uint256",
          "name": "amount",
          "type": "uint256"
        },
        {
          "indexed": false,
          "internalType": "address",
          "name": "receiver",
          "type": "address"
        }
      ],
      "name": "SharesMinted",
      "type": "event"
    },
    {
      "anonymous": false,
      "inputs": [
        {
          "indexed": false,
          "internalType": "uint256",
          "name": "fee",
          "type": "uint256"
        }
      ],
      "name": "StakerFeeChanged",
      "type": "event"
    },
    {
      "anonymous": false,
      "inputs": [
        {
          "indexed": false,
          "internalType": "uint256",
          "name": "id",
          "type": "uint256"
        },
        {
          "indexed": false,
          "internalType": "address",
          "name": "winningOutcome",
          "type": "address"
        },
        {
          "indexed": false,
          "internalType": "uint256",
          "name": "amount",
          "type": "uint256"
        },
        {
          "indexed": false,
          "internalType": "uint256",
          "name": "settlementFee",
          "type": "uint256"
        },
        {
          "indexed": false,
          "internalType": "uint256",
          "name": "payout",
          "type": "uint256"
        },
        {
          "indexed": true,
          "internalType": "address",
          "name": "receiver",
          "type": "address"
        }
      ],
      "name": "WinningsClaimed",
      "type": "event"
    },
    {
      "inputs": [],
      "name": "accumulatedProtocolFee",
      "outputs": [
        {
          "internalType": "uint256",
          "name": "",
          "type": "uint256"
        }
      ],
      "stateMutability": "view",
      "type": "function"
    },
    {
      "inputs": [
        {
          "internalType": "address",
          "name": "",
          "type": "address"
        }
      ],
      "name": "accumulatedSettlementFees",
      "outputs": [
        {
          "internalType": "uint256",
          "name": "",
          "type": "uint256"
        }
      ],
      "stateMutability": "view",
      "type": "function"
    },
    {
      "inputs": [
        {
          "internalType": "uint256",
          "name": "_id",
          "type": "uint256"
        },
        {
          "internalType": "uint256",
          "name": "_sharesToBurn",
          "type": "uint256"
        },
        {
          "internalType": "address",
          "name": "_receiver",
          "type": "address"
        }
      ],
      "name": "burnShares",
      "outputs": [
        {
          "internalType": "uint256",
          "name": "",
          "type": "uint256"
        }
      ],
      "stateMutability": "nonpayable",
      "type": "function"
    },
    {
      "inputs": [
        {
          "internalType": "uint256",
          "name": "_shares",
          "type": "uint256"
        }
      ],
      "name": "calcCost",
      "outputs": [
        {
          "internalType": "uint256",
          "name": "",
          "type": "uint256"
        }
      ],
      "stateMutability": "view",
      "type": "function"
    },
    {
      "inputs": [
        {
          "internalType": "uint256",
          "name": "_collateralIn",
          "type": "uint256"
        }
      ],
      "name": "calcShares",
      "outputs": [
        {
          "internalType": "uint256",
          "name": "",
          "type": "uint256"
        }
      ],
      "stateMutability": "view",
      "type": "function"
    },
    {
      "inputs": [
        {
          "internalType": "uint256[]",
          "name": "_ids",
          "type": "uint256[]"
        },
        {
          "internalType": "address",
          "name": "_receiver",
          "type": "address"
        }
      ],
      "name": "claimManyWinnings",
      "outputs": [
        {
          "internalType": "uint256",
          "name": "",
          "type": "uint256"
        }
      ],
      "stateMutability": "nonpayable",
      "type": "function"
    },
    {
      "inputs": [],
      "name": "claimProtocolFees",
      "outputs": [
        {
          "internalType": "uint256",
          "name": "",
          "type": "uint256"
        }
      ],
      "stateMutability": "nonpayable",
      "type": "function"
    },
    {
      "inputs": [
        {
          "internalType": "address",
          "name": "_receiver",
          "type": "address"
        }
      ],
      "name": "claimSettlementFees",
      "outputs": [
        {
          "internalType": "uint256",
          "name": "",
          "type": "uint256"
        }
      ],
      "stateMutability": "nonpayable",
      "type": "function"
    },
    {
      "inputs": [
        {
          "internalType": "uint256",
          "name": "_id",
          "type": "uint256"
        },
        {
          "internalType": "address",
          "name": "_receiver",
          "type": "address"
        }
      ],
      "name": "claimWinnings",
      "outputs": [
        {
          "internalType": "uint256",
          "name": "",
          "type": "uint256"
        }
      ],
      "stateMutability": "nonpayable",
      "type": "function"
    },
    {
      "inputs": [],
      "name": "collateral",
      "outputs": [
        {
          "internalType": "contract IERC20Full",
          "name": "",
          "type": "address"
        }
      ],
      "stateMutability": "view",
      "type": "function"
    },
    {
      "inputs": [
        {
          "internalType": "address",
          "name": "_creator",
          "type": "address"
        },
        {
          "internalType": "uint256",
          "name": "_endTime",
          "type": "uint256"
        },
        {
          "internalType": "string",
          "name": "_description",
          "type": "string"
        },
        {
          "internalType": "string[]",
          "name": "_names",
          "type": "string[]"
        },
        {
          "internalType": "string[]",
          "name": "_symbols",
          "type": "string[]"
        }
      ],
      "name": "createMarket",
      "outputs": [
        {
          "internalType": "uint256",
          "name": "",
          "type": "uint256"
        }
      ],
      "stateMutability": "nonpayable",
      "type": "function"
    },
    {
      "inputs": [],
      "name": "feePot",
      "outputs": [
        {
          "internalType": "contract FeePot",
          "name": "",
          "type": "address"
        }
      ],
      "stateMutability": "view",
      "type": "function"
    },
    {
      "inputs": [
        {
          "internalType": "uint256",
          "name": "_id",
          "type": "uint256"
        }
      ],
      "name": "getMarket",
      "outputs": [
        {
          "components": [
            {
              "internalType": "address",
              "name": "settlementAddress",
              "type": "address"
            },
            {
              "internalType": "contract OwnedERC20[]",
              "name": "shareTokens",
              "type": "address[]"
            },
            {
              "internalType": "uint256",
              "name": "endTime",
              "type": "uint256"
            },
            {
              "internalType": "contract OwnedERC20",
              "name": "winner",
              "type": "address"
            },
            {
              "internalType": "uint256",
              "name": "settlementFee",
              "type": "uint256"
            },
            {
              "internalType": "uint256",
              "name": "protocolFee",
              "type": "uint256"
            },
            {
              "internalType": "uint256",
              "name": "stakerFee",
              "type": "uint256"
            },
            {
              "internalType": "uint256",
              "name": "creationTimestamp",
              "type": "uint256"
            }
          ],
          "internalType": "struct AbstractMarketFactory.Market",
          "name": "",
          "type": "tuple"
        }
      ],
      "stateMutability": "view",
      "type": "function"
    },
    {
      "inputs": [
        {
          "internalType": "uint256",
          "name": "_id",
          "type": "uint256"
        }
      ],
      "name": "getMarketDetails",
      "outputs": [
        {
          "components": [
            {
              "internalType": "string",
              "name": "description",
              "type": "string"
            }
          ],
          "internalType": "struct TrustedMarketFactory.MarketDetails",
          "name": "",
          "type": "tuple"
        }
      ],
      "stateMutability": "view",
      "type": "function"
    },
    {
      "inputs": [],
      "name": "getOwner",
      "outputs": [
        {
          "internalType": "address",
          "name": "",
          "type": "address"
        }
      ],
      "stateMutability": "view",
      "type": "function"
    },
    {
      "inputs": [
        {
          "internalType": "uint256",
          "name": "_id",
          "type": "uint256"
        }
      ],
      "name": "isMarketResolved",
      "outputs": [
        {
          "internalType": "bool",
          "name": "",
          "type": "bool"
        }
      ],
      "stateMutability": "view",
      "type": "function"
    },
    {
      "inputs": [],
      "name": "listUnresolvedMarkets",
      "outputs": [
        {
          "internalType": "uint256[]",
          "name": "",
          "type": "uint256[]"
        }
      ],
      "stateMutability": "view",
      "type": "function"
    },
    {
      "inputs": [],
      "name": "marketCount",
      "outputs": [
        {
          "internalType": "uint256",
          "name": "",
          "type": "uint256"
        }
      ],
      "stateMutability": "view",
      "type": "function"
    },
    {
      "inputs": [
        {
          "internalType": "uint256",
          "name": "_id",
          "type": "uint256"
        },
        {
          "internalType": "uint256",
          "name": "_shareToMint",
          "type": "uint256"
        },
        {
          "internalType": "address",
          "name": "_receiver",
          "type": "address"
        }
      ],
      "name": "mintShares",
      "outputs": [],
      "stateMutability": "nonpayable",
      "type": "function"
    },
    {
      "inputs": [],
      "name": "protocol",
      "outputs": [
        {
          "internalType": "address",
          "name": "",
          "type": "address"
        }
      ],
      "stateMutability": "view",
      "type": "function"
    },
    {
      "inputs": [],
      "name": "protocolFee",
      "outputs": [
        {
          "internalType": "uint256",
          "name": "",
          "type": "uint256"
        }
      ],
      "stateMutability": "view",
      "type": "function"
    },
    {
      "inputs": [
        {
          "internalType": "uint256",
          "name": "",
          "type": "uint256"
        }
      ],
      "name": "resolveMarket",
      "outputs": [],
      "stateMutability": "pure",
      "type": "function"
    },
    {
      "inputs": [
        {
          "internalType": "address",
          "name": "_newProtocol",
          "type": "address"
        },
        {
          "internalType": "bool",
          "name": "_claimFirst",
          "type": "bool"
        }
      ],
      "name": "setProtocol",
      "outputs": [],
      "stateMutability": "nonpayable",
      "type": "function"
    },
    {
      "inputs": [
        {
          "internalType": "uint256",
          "name": "_newFee",
          "type": "uint256"
        }
      ],
      "name": "setProtocolFee",
      "outputs": [],
      "stateMutability": "nonpayable",
      "type": "function"
    },
    {
      "inputs": [
        {
          "internalType": "uint256",
          "name": "_newFee",
          "type": "uint256"
        }
      ],
      "name": "setSettlementFee",
      "outputs": [],
      "stateMutability": "nonpayable",
      "type": "function"
    },
    {
      "inputs": [
        {
          "internalType": "uint256",
          "name": "_newFee",
          "type": "uint256"
        }
      ],
      "name": "setStakerFee",
      "outputs": [],
      "stateMutability": "nonpayable",
      "type": "function"
    },
    {
      "inputs": [],
      "name": "settlementFee",
      "outputs": [
        {
          "internalType": "uint256",
          "name": "",
          "type": "uint256"
        }
      ],
      "stateMutability": "view",
      "type": "function"
    },
    {
      "inputs": [],
      "name": "shareFactor",
      "outputs": [
        {
          "internalType": "uint256",
          "name": "",
          "type": "uint256"
        }
      ],
      "stateMutability": "view",
      "type": "function"
    },
    {
      "inputs": [],
      "name": "stakerFee",
      "outputs": [
        {
          "internalType": "uint256",
          "name": "",
          "type": "uint256"
        }
      ],
      "stateMutability": "view",
      "type": "function"
    },
    {
      "inputs": [
        {
          "internalType": "address",
          "name": "_newOwner",
          "type": "address"
        }
      ],
      "name": "transferOwnership",
      "outputs": [
        {
          "internalType": "bool",
          "name": "",
          "type": "bool"
        }
      ],
      "stateMutability": "nonpayable",
      "type": "function"
    },
    {
      "inputs": [
        {
          "internalType": "uint256",
          "name": "_id",
          "type": "uint256"
        },
        {
          "internalType": "uint256",
          "name": "_winningOutcome",
          "type": "uint256"
        }
      ],
      "name": "trustedResolveMarket",
      "outputs": [],
      "stateMutability": "nonpayable",
      "type": "function"
    }
  ],
  "transactionHash": "0x0c2022c75d92610a039f5e415f2cfeff8dd7ceba15e03ba15aef3e5fc432ec37",
  "args": [
    "0x8C9c733eCd48426b9c53c38ccB60F3b307329bE1",
    "0x5799bFe361BEea69f808328FF4884DF92f1f66f0",
    "1000000000000",
    "0xEaAbF3E7C974f33354779232BC2d135B7C2CcAB7",
    0,
    "500000000000000",
    "0x8C9c733eCd48426b9c53c38ccB60F3b307329bE1",
    0
  ],
  "solcInputHash": "8bfc5ee5be07ba17153f6c76b6703c8d",
  "bytecode": "0x608060405260006007553480156200001657600080fd5b5060405162004f5838038062004f5883398101604081905262000039916200048a565b600080546001600160a01b03808b166001600160a01b0319928316331783161790925560018054838b169083168117909155600989905560028054848a1690841617905560038790556004868155600680549487169490931693909317909155600583905560405163095ea7b360e01b81528a928a928a928a928a928a928a928a929163095ea7b391620000d4918991600019910162000592565b602060405180830381600087803b158015620000ef57600080fd5b505af115801562000104573d6000803e3d6000fd5b505050506040513d601f19601f820116820180604052508101906200012a91906200051b565b50604080516000808252602082019092528162000158565b6060815260200190600190039081620001425790505b509050600a6200016c600083808262000236565b8154600180820184556000938452602093849020835160089093020180546001600160a01b0319166001600160a01b0390931692909217825582840151805193949293620001c393928501929190910190620003a4565b506040820151600282015560608201516003820180546001600160a01b0319166001600160a01b039092169190911790556080820151600482015560a0820151600582015560c0820151600682015560e09091015160079091015550620006069f50505050505050505050505050505050565b620002406200040e565b604051806101000160405280866001600160a01b031681526020016200026e868630620002af60201b60201c565b815260200183815260200160006001600160a01b03168152602001600454815260200160055481526020016003548152602001428152509050949350505050565b82516060906000816001600160401b0381118015620002cd57600080fd5b50604051908082528060200260200182016040528015620002f8578160200160208202803683370190505b50905060005b828110156200039a578681815181106200031457fe5b60200260200101518682815181106200032957fe5b602002602001015186604051620003409062000465565b6200034e93929190620005ab565b604051809103906000f0801580156200036b573d6000803e3d6000fd5b508282815181106200037957fe5b6001600160a01b0390921660209283029190910190910152600101620002fe565b5095945050505050565b828054828255906000526020600020908101928215620003fc579160200282015b82811115620003fc57825182546001600160a01b0319166001600160a01b03909116178255602090920191600190910190620003c5565b506200040a92915062000473565b5090565b60405180610100016040528060006001600160a01b03168152602001606081526020016000815260200160006001600160a01b03168152602001600081526020016000815260200160008152602001600081525090565b6111f38062003d6583390190565b5b808211156200040a576000815560010162000474565b600080600080600080600080610100898b031215620004a7578384fd5b8851620004b481620005ed565b60208a0151909850620004c781620005ed565b60408a015160608b01519198509650620004e181620005ed565b809550506080890151935060a0890151925060c08901516200050381620005ed565b8092505060e089015190509295985092959890939650565b6000602082840312156200052d578081fd5b815180151581146200053d578182fd5b9392505050565b60008151808452815b818110156200056b576020818501810151868301820152016200054d565b818111156200057d5782602083870101525b50601f01601f19169290920160200192915050565b6001600160a01b03929092168252602082015260400190565b600060608252620005c0606083018662000544565b8281036020840152620005d4818662000544565b91505060018060a01b0383166040830152949350505050565b6001600160a01b03811681146200060357600080fd5b50565b61374f80620006166000396000f3fe60806040523480156200001157600080fd5b5060043610620002145760003560e01c8063893d20e81162000129578063cc87adea11620000b1578063e5678dfa116200007b578063e5678dfa146200044d578063eb44fdd31462000464578063ec979082146200048a578063f2fde38b14620004945762000214565b8063cc87adea14620003fc578063d5da4f1d1462000413578063d8dfeb45146200042a578063d9113f0d14620004345762000214565b8063992c907911620000f3578063992c907914620003ab578063a544a62c14620003c2578063b06c1ba314620003cc578063b0e21e8a14620003f25762000214565b8063893d20e814620003695780638ce7442614620003735780638e0ed193146200037d57806397eef18714620003945762000214565b80634b2d9ffc11620001ad5780637641ab0111620001775780637641ab011462000327578063787dce3d14620003315780637cb9bc3a14620003485780637d1d7fb8146200035f5762000214565b80634b2d9ffc14620002c75780634c9f66c714620002d157806353ac55f514620002ea5780636399d03d14620003105762000214565b80633f8dd7aa11620001ef5780633f8dd7aa1462000278578063473a6d52146200028f57806349a4d93414620002a65780634a7d036914620002bd5762000214565b8063221fff81146200021957806332ecabe9146200023257806335a9cdad1462000249575b600080fd5b620002306200022a36600462001f18565b620004ab565b005b620002306200024336600462001ca1565b6200073a565b620002606200025a36600462001f18565b620007be565b6040516200026f9190620022f1565b60405180910390f35b620002306200028936600462001ef6565b62000a85565b62000260620002a036600462001e96565b62000b69565b62000260620002b736600462001c84565b62000bbc565b6200026062000bce565b6200026062000cef565b620002db62000cf5565b6040516200026f919062001fd4565b62000301620002fb36600462001e96565b62000d04565b6040516200026f91906200206b565b620002306200032136600462001e96565b62000dfe565b6200026062000e1b565b620002306200034236600462001e96565b62000e21565b620002606200035936600462001cdc565b62000e7b565b620002606200102e565b620002db62001034565b620002db62001043565b620002606200038e36600462001c84565b62001052565b62000230620003a536600462001e96565b6200113d565b62000260620003bc36600462001ec8565b6200118c565b62000260620014ac565b620003e3620003dd36600462001e96565b620014b2565b6040516200026f919062002211565b6200026062001576565b620002606200040d36600462001e96565b6200157c565b620002306200042436600462001e96565b62001583565b620002db620015d2565b6200043e620015e1565b6040516200026f919062002025565b620002606200045e36600462001dc4565b620016ba565b6200047b6200047536600462001e96565b62001708565b6040516200026f919062002236565b6200026062001856565b62000301620004a536600462001c84565b6200185c565b6000600a8481548110620004bb57fe5b60009182526020918290206040805161010081018252600890930290910180546001600160a01b031683526001810180548351818702810187019094528084529394919385830193928301828280156200053f57602002820191906000526020600020905b81546001600160a01b0316815260019091019060200180831162000520575b50505091835250506002820154602082015260038201546001600160a01b03166040808301919091526004830154606083015260058301546080830152600683015460a083015260079092015460c090910152810151909150620005c05760405162461bcd60e51b8152600401620005b790620021e9565b60405180910390fd5b6000620005cd8462000b69565b6001546040516323b872dd60e01b81529192506001600160a01b0316906323b872dd90620006049033903090869060040162001fe8565b602060405180830381600087803b1580156200061f57600080fd5b505af115801562000634573d6000803e3d6000fd5b505050506040513d601f19601f820116820180604052508101906200065a919062001e77565b5060005b826020015151811015620006f557826020015181815181106200067d57fe5b60200260200101516001600160a01b031663c024cd2685876040518363ffffffff1660e01b8152600401620006b49291906200200c565b600060405180830381600087803b158015620006cf57600080fd5b505af1158015620006e4573d6000803e3d6000fd5b5050600190920191506200065e9050565b507fd81c0442e10068a9818f3aa093c9ccb804584690df572d7df3da2d892a6973f28585856040516200072b939291906200240c565b60405180910390a15050505050565b6000546001600160a01b031633146200075257600080fd5b801562000765576200076362000bce565b505b600680546001600160a01b0319166001600160a01b0384161790556040517f15b84596b3c567ae2998116949ae5f2d47f3055c12d9053db4d6e50f4c794dd990620007b290849062001fd4565b60405180910390a15050565b600080600a8581548110620007cf57fe5b60009182526020918290206040805161010081018252600890930290910180546001600160a01b031683526001810180548351818702810187019094528084529394919385830193928301828280156200085357602002820191906000526020600020905b81546001600160a01b0316815260019091019060200180831162000834575b50505091835250506002820154602082015260038201546001600160a01b03166040808301919091526004830154606083015260058301546080830152600683015460a083015260079092015460c090910152810151909150620008cb5760405162461bcd60e51b8152600401620005b790620021e9565b60005b816020015151811015620009655781602001518181518110620008ed57fe5b60200260200101516001600160a01b03166342986e1333876040518363ffffffff1660e01b8152600401620009249291906200200c565b600060405180830381600087803b1580156200093f57600080fd5b505af115801562000954573d6000803e3d6000fd5b505060019092019150620008ce9050565b506000620009738562000b69565b90506000620009a4670de0b6b3a76400006200099d8560a0015185620018c690919063ffffffff16565b90620018f8565b9050620009b282826200190e565b60015460405163a9059cbb60e01b81529193506001600160a01b03169063a9059cbb90620009e790889086906004016200200c565b602060405180830381600087803b15801562000a0257600080fd5b505af115801562000a17573d6000803e3d6000fd5b505050506040513d601f19601f8201168201806040525081019062000a3d919062001e77565b507fb6fdb729b2ed801daf629f0ab713e4a7a73619505790f6f27fd92d6f2c9688d787873360405162000a73939291906200240c565b60405180910390a15095945050505050565b6000546001600160a01b0316331462000a9d57600080fd5b6000600a838154811062000aad57fe5b9060005260206000209060080201600101828154811062000aca57fe5b600091825260209091200154600a80546001600160a01b03909216925082918590811062000af457fe5b906000526020600020906008020160030160006101000a8154816001600160a01b0302191690836001600160a01b031602179055507fc68d106ea6e4bec784925cfd91767212c71ced92adbac107dc364435321113f6838260405162000b5c929190620022fa565b60405180910390a1505050565b6000600954821015801562000b885750600954828162000b8557fe5b06155b62000ba75760405162461bcd60e51b8152600401620005b79062002178565b600954828162000bb357fe5b0490505b919050565b60086020526000908152604090205481565b6006546000906001600160a01b031633148062000bea57503330145b62000c095760405162461bcd60e51b8152600401620005b790620020b8565b60078054600090915560015460065460405163a9059cbb60e01b81526001600160a01b039283169263a9059cbb9262000c4a9291169085906004016200200c565b602060405180830381600087803b15801562000c6557600080fd5b505af115801562000c7a573d6000803e3d6000fd5b505050506040513d601f19601f8201168201806040525081019062000ca0919062001e77565b506006546040517f0f7f5b155b0b0ac6890709a2c7bf1b8bb3f675fff1e7840b4dd3c9acde59048b9162000ce2916001600160a01b039091169084906200200c565b60405180910390a1905090565b60035481565b6002546001600160a01b031681565b600080600a838154811062000d1557fe5b60009182526020918290206040805161010081018252600890930290910180546001600160a01b0316835260018101805483518187028101870190945280845293949193858301939283018282801562000d9957602002820191906000526020600020905b81546001600160a01b0316815260019091019060200180831162000d7a575b50505091835250506002820154602082015260038201546001600160a01b039081166040830152600483015460608084019190915260058401546080840152600684015460a084015260079093015460c0909201919091529101511615159392505050565b60405162461bcd60e51b8152600401620005b790620020fc565b50565b60095481565b6000546001600160a01b0316331462000e3957600080fd5b60058190556040517fada2cde3c4a561f5c23e2fdbfb223e1f0d1ec7109b9811b32644e6e974d6631f9062000e70908390620022f1565b60405180910390a150565b600080546001600160a01b0316331462000e9457600080fd5b600a80549062000ebd8b62000eaa888a6200246f565b62000eb687896200246f565b8d62001924565b8154600180820184556000938452602093849020835160089093020180546001600160a01b0319166001600160a01b039093169290921782558284015180519394929362000f149392850192919091019062001aa4565b50604082810151600283015560608301516003830180546001600160a01b0319166001600160a01b039092169190911790556080830151600483015560a0830151600583015560c0830151600683015560e09092015160079091015580516020601f8a0181900481028201830183528101898152600b928291908c908c908190850183828082843760009201829052509390945250508354600181018555938152602090819020835180519495919091019362000fd993508492919091019062001b0e565b5050507fa1bb41461c32765a0cc838c35ce6b8e28985bb6a069dfe2af0873796438670d4818b8b8b8b898960405162001019979695949392919062002311565b60405180910390a19998505050505050505050565b60045481565b6000546001600160a01b031690565b6006546001600160a01b031681565b33600090815260086020526040808220805490839055600154915163a9059cbb60e01b815290916001600160a01b03169063a9059cbb906200109b90869085906004016200200c565b602060405180830381600087803b158015620010b657600080fd5b505af1158015620010cb573d6000803e3d6000fd5b505050506040513d601f19601f82011682018060405250810190620010f1919062001e77565b50826001600160a01b03167fc9985ad824d943d66367ce5feea26e18979b3e1c9273742926d87e2b0d74738733836040516200112f9291906200200c565b60405180910390a292915050565b6000546001600160a01b031633146200115557600080fd5b60038190556040517fcc4df50442ac32f0142ba4853f617661e0823be0e92148e7e5f36ce56c1398259062000e70908390620022f1565b6000620011998362000d04565b620011a957620011a98362000dfe565b6000600a8481548110620011b957fe5b60009182526020918290206040805161010081018252600890930290910180546001600160a01b031683526001810180548351818702810187019094528084529394919385830193928301828280156200123d57602002820191906000526020600020905b81546001600160a01b031681526001909101906020018083116200121e575b50505050508152602001600282015481526020016003820160009054906101000a90046001600160a01b03166001600160a01b03166001600160a01b031681526020016004820154815260200160058201548152602001600682015481526020016007820154815250509050600081606001516001600160a01b03166371297784336040518263ffffffff1660e01b8152600401620012dd919062001fd4565b602060405180830381600087803b158015620012f857600080fd5b505af11580156200130d573d6000803e3d6000fd5b505050506040513d601f19601f8201168201806040525081019062001333919062001eaf565b905060095460095482816200134457fe5b040290506000620013558262000b69565b905060006200137f670de0b6b3a76400006200099d866080015185620018c690919063ffffffff16565b90506000620013a9670de0b6b3a76400006200099d8760c0015186620018c690919063ffffffff16565b9050620013c381620013bc85856200190e565b906200190e565b60015460405163a9059cbb60e01b81529194506001600160a01b03169063a9059cbb90620013f8908a9087906004016200200c565b602060405180830381600087803b1580156200141357600080fd5b505af115801562001428573d6000803e3d6000fd5b505050506040513d601f19601f820116820180604052508101906200144e919062001e77565b50866001600160a01b03167fe67bd0100cd3289557430d36098901ba18161e6279c9711d8650b8af1055210489876060015187868860405162001496959493929190620023e0565b60405180910390a2509093505050505b92915050565b60075481565b620014bc62001b91565b600b8281548110620014ca57fe5b60009182526020918290206040805192909101805460026001821615610100026000190190911604601f8101859004850284018301835293830184815292939092849290918491840182828015620015665780601f106200153a5761010080835404028352916020019162001566565b820191906000526020600020905b8154815290600101906020018083116200154857829003601f168201915b5050505050815250509050919050565b60055481565b6009540290565b6000546001600160a01b031633146200159b57600080fd5b60048190556040517f92d395c429898992f8532ee7145901513e524c2085fd7fd1da39b8badcd6df319062000e70908390620022f1565b6001546001600160a01b031681565b60606000805b600a548110156200161257620015fd8162000d04565b62001609576001909101905b600101620015e7565b5060008167ffffffffffffffff811180156200162d57600080fd5b5060405190808252806020026020018201604052801562001658578160200160208202803683370190505b5090506000805b600a54811015620016b1578382106200167857620016b1565b620016838162000d04565b620016a857808383815181106200169657fe5b60209081029190910101526001909101905b6001016200165f565b50909250505090565b600080805b84518110156200170057620016f5620016ed868381518110620016de57fe5b6020026020010151866200118c565b839062001997565b9150600101620016bf565b509392505050565b6200171262001ba4565b600a548211156200176d575060408051610100810182526000808252825181815260208082018552830152918101829052606081018290526080810182905260a0810182905260c0810182905260e081019190915262000bb7565b600a82815481106200177b57fe5b60009182526020918290206040805161010081018252600890930290910180546001600160a01b03168352600181018054835181870281018701909452808452939491938583019392830182828015620017ff57602002820191906000526020600020905b81546001600160a01b03168152600190910190602001808311620017e0575b50505091835250506002820154602082015260038201546001600160a01b031660408201526004820154606082015260058201546080820152600682015460a082015260079091015460c090910152905062000bb7565b600a5490565b600080546001600160a01b031633146200187557600080fd5b6001600160a01b0382166200188957600080fd5b600054620018a1906001600160a01b031683620019aa565b50600080546001600160a01b0383166001600160a01b03199091161790556001919050565b600082620018d757506000620014a6565b82820282848281620018e557fe5b0414620018f157600080fd5b9392505050565b6000808284816200190557fe5b04949350505050565b6000828211156200191e57600080fd5b50900390565b6200192e62001ba4565b604051806101000160405280866001600160a01b0316815260200162001956868630620019ae565b815260200183815260200160006001600160a01b03168152602001600454815260200160055481526020016003548152602001428152509050949350505050565b600082820183811015620018f157600080fd5b5050565b825160609060008167ffffffffffffffff81118015620019cd57600080fd5b50604051908082528060200260200182016040528015620019f8578160200160208202803683370190505b50905060005b8281101562001a9a5786818151811062001a1457fe5b602002602001015186828151811062001a2957fe5b60200260200101518660405162001a409062001bfb565b62001a4e9392919062002076565b604051809103906000f08015801562001a6b573d6000803e3d6000fd5b5082828151811062001a7957fe5b6001600160a01b0390921660209283029190910190910152600101620019fe565b5095945050505050565b82805482825590600052602060002090810192821562001afc579160200282015b8281111562001afc57825182546001600160a01b0319166001600160a01b0390911617825560209092019160019091019062001ac5565b5062001b0a92915062001c09565b5090565b828054600181600116156101000203166002900490600052602060002090601f01602090048101928262001b46576000855562001afc565b82601f1062001b6157805160ff191683800117855562001afc565b8280016001018555821562001afc579182015b8281111562001afc57825182559160200191906001019062001b74565b6040518060200160405280606081525090565b60405180610100016040528060006001600160a01b03168152602001606081526020016000815260200160006001600160a01b03168152602001600081526020016000815260200160008152602001600081525090565b6111f3806200252783390190565b5b8082111562001b0a576000815560010162001c0a565b80356001600160a01b038116811462000bb757600080fd5b60008083601f84011262001c4a578182fd5b50813567ffffffffffffffff81111562001c62578182fd5b602083019150836020808302850101111562001c7d57600080fd5b9250929050565b60006020828403121562001c96578081fd5b620018f18262001c20565b6000806040838503121562001cb4578081fd5b62001cbf8362001c20565b9150602083013562001cd18162002517565b809150509250929050565b60008060008060008060008060a0898b03121562001cf8578384fd5b62001d038962001c20565b975060208901359650604089013567ffffffffffffffff8082111562001d27578586fd5b818b0191508b601f83011262001d3b578586fd5b81358181111562001d4a578687fd5b8c602082850101111562001d5c578687fd5b6020830198508097505060608b013591508082111562001d7a578586fd5b62001d888c838d0162001c38565b909650945060808b013591508082111562001da1578384fd5b5062001db08b828c0162001c38565b999c989b5096995094979396929594505050565b6000806040838503121562001dd7578182fd5b823567ffffffffffffffff81111562001dee578283fd5b8301601f8101851362001dff578283fd5b8035602062001e1862001e128362002450565b6200242b565b82815281810190848301838502860184018a101562001e35578788fd5b8795505b8486101562001e5957803583526001959095019491830191830162001e39565b50955062001e6b905086820162001c20565b93505050509250929050565b60006020828403121562001e89578081fd5b8151620018f18162002517565b60006020828403121562001ea8578081fd5b5035919050565b60006020828403121562001ec1578081fd5b5051919050565b6000806040838503121562001edb578182fd5b8235915062001eed6020840162001c20565b90509250929050565b6000806040838503121562001f09578182fd5b50508035926020909101359150565b60008060006060848603121562001f2d578283fd5b833592506020840135915062001f466040850162001c20565b90509250925092565b6001600160a01b03169052565b60008284528282602086013780602084860101526020601f19601f85011685010190509392505050565b60008151808452815b8181101562001fad5760208185018101518683018201520162001f8f565b8181111562001fbf5782602083870101525b50601f01601f19169290920160200192915050565b6001600160a01b0391909116815260200190565b6001600160a01b039384168152919092166020820152604081019190915260600190565b6001600160a01b03929092168252602082015260400190565b6020808252825182820181905260009190848201906040850190845b818110156200205f5783518352928401929184019160010162002041565b50909695505050505050565b901515815260200190565b6000606082526200208b606083018662001f86565b82810360208401526200209f818662001f86565b91505060018060a01b0383166040830152949350505050565b60208082526024908201527f4f6e6c792070726f746f636f6c2063616e20636c61696d2070726f746f636f6c6040820152632066656560e01b606082015260800190565b60208082526056908201527f4f6e6c792074686520547275737465644d61726b6574466163746f7279206f7760408201527f6e65722063616e207265736f6c766520746865206d61726b65742c207573696e60608201527519c81d1c9d5cdd195914995cdbdb1d9953585c9ad95d60521b608082015260a00190565b6020808252604b908201527f536861726573206d75737420626520626f74682067726561746572207468616e60408201527f20286f7220657175616c20746f2920616e6420646976697369626c652062792060608201526a39b430b932a330b1ba37b960a91b608082015260a00190565b6020808252600e908201526d139bc81cdd58da081b585c9ad95d60921b604082015260600190565b60006020825282516020808401526200222e604084018262001f86565b949350505050565b602080825282516001600160a01b039081168383015283820151610100604085018190528151610120860181905260009493928401929185916101408801905b808410156200229a5785518516825294860194600193909301929086019062002276565b506040890151606089015260608901519550620022bb608089018762001f4f565b608089015160a089015260a089015160c089015260c089015160e089015260e08901518289015280965050505050505092915050565b90815260200190565b9182526001600160a01b0316602082015260400190565b6000888252602060018060a01b0389168184015287604084015260a060608401526200234260a08401878962001f5c565b83810360808501528481528181018286028201830187855b88811015620023cd57848303601f190184528135368b9003601e1901811262002381578788fd5b8a01803567ffffffffffffffff8111156200239a578889fd5b8036038c1315620023a9578889fd5b620023b885828a850162001f5c565b9588019594505050908501906001016200235a565b50909d9c50505050505050505050505050565b9485526001600160a01b0393909316602085015260408401919091526060830152608082015260a00190565b92835260208301919091526001600160a01b0316604082015260600190565b60405181810167ffffffffffffffff811182821017156200244857fe5b604052919050565b600067ffffffffffffffff8211156200246557fe5b5060209081020190565b60006200248062001e128462002450565b8381526020808201919084845b878110156200250b5781358701601f3681830112620024aa578788fd5b813567ffffffffffffffff811115620024bf57fe5b620024d2818301601f191687016200242b565b91508082523686828501011115620024e8578889fd5b80868401878401378101850188905286525093820193908201906001016200248d565b50919695505050505050565b801515811462000e1857600080fdfe60806040523480156200001157600080fd5b50604051620011f3380380620011f3833981810160405260608110156200003757600080fd5b81019080805160405193929190846401000000008211156200005857600080fd5b9083019060208201858111156200006e57600080fd5b82516401000000008111828201881017156200008957600080fd5b82525081516020918201929091019080838360005b83811015620000b85781810151838201526020016200009e565b50505050905090810190601f168015620000e65780820380516001836020036101000a031916815260200191505b50604052602001805160405193929190846401000000008211156200010a57600080fd5b9083019060208201858111156200012057600080fd5b82516401000000008111828201881017156200013b57600080fd5b82525081516020918201929091019080838360005b838110156200016a57818101518382015260200162000150565b50505050905090810190601f168015620001985780820380516001836020036101000a031916815260200191505b5060405260209081015185519093508592508491620001bd9160039185019062000219565b508051620001d390600490602084019062000219565b5050600580546001600160a01b039390931661010090810233909102610100600160a81b031960ff199095166012178516179093169290921790915550620002c5915050565b828054600181600116156101000203166002900490600052602060002090601f0160209004810192826200025157600085556200029c565b82601f106200026c57805160ff19168380011785556200029c565b828001600101855582156200029c579182015b828111156200029c5782518255916020019190600101906200027f565b50620002aa929150620002ae565b5090565b5b80821115620002aa5760008155600101620002af565b610f1e80620002d56000396000f3fe608060405234801561001057600080fd5b506004361061010b5760003560e01c806370a08231116100a2578063a457c2d711610071578063a457c2d714610343578063a9059cbb1461036f578063c024cd261461039b578063dd62ed3e146103c7578063f2fde38b146103f55761010b565b806370a08231146102cb57806371297784146102f1578063893d20e81461031757806395d89b411461033b5761010b565b806323b872dd116100de57806323b872dd1461021f578063313ce56714610255578063395093511461027357806342986e131461029f5761010b565b806306fdde0314610110578063095ea7b31461018d5780630fb66557146101cd57806318160ddd14610205575b600080fd5b61011861041b565b6040805160208082528351818301528351919283929083019185019080838360005b8381101561015257818101518382015260200161013a565b50505050905090810190601f16801561017f5780820380516001836020036101000a031916815260200191505b509250505060405180910390f35b6101b9600480360360408110156101a357600080fd5b506001600160a01b0381351690602001356104b1565b604080519115158252519081900360200190f35b610203600480360360608110156101e357600080fd5b506001600160a01b038135811691602081013590911690604001356104ce565b005b61020d6104fa565b60408051918252519081900360200190f35b6101b96004803603606081101561023557600080fd5b506001600160a01b03813581169160208101359091169060400135610500565b61025d610587565b6040805160ff9092168252519081900360200190f35b6101b96004803603604081101561028957600080fd5b506001600160a01b038135169060200135610590565b610203600480360360408110156102b557600080fd5b506001600160a01b0381351690602001356105de565b61020d600480360360208110156102e157600080fd5b50356001600160a01b0316610608565b61020d6004803603602081101561030757600080fd5b50356001600160a01b0316610623565b61031f61065f565b604080516001600160a01b039092168252519081900360200190f35b610118610673565b6101b96004803603604081101561035957600080fd5b506001600160a01b0381351690602001356106d4565b6101b96004803603604081101561038557600080fd5b506001600160a01b03813516906020013561073c565b610203600480360360408110156103b157600080fd5b506001600160a01b038135169060200135610750565b61020d600480360360408110156103dd57600080fd5b506001600160a01b0381358116916020013516610776565b6101b96004803603602081101561040b57600080fd5b50356001600160a01b03166107a1565b60038054604080516020601f60026000196101006001881615020190951694909404938401819004810282018101909252828152606093909290918301828280156104a75780601f1061047c576101008083540402835291602001916104a7565b820191906000526020600020905b81548152906001019060200180831161048a57829003601f168201915b5050505050905090565b60006104c56104be610818565b848461081c565b50600192915050565b60055461010090046001600160a01b031633146104ea57600080fd5b6104f5838383610908565b505050565b60025490565b600061050d848484610908565b61057d84610519610818565b61057885604051806060016040528060288152602001610e32602891396001600160a01b038a16600090815260016020526040812090610557610818565b6001600160a01b031681526020810191909152604001600020549190610a63565b61081c565b5060019392505050565b60055460ff1690565b60006104c561059d610818565b8461057885600160006105ae610818565b6001600160a01b03908116825260208083019390935260409182016000908120918c168152925290205490610afa565b60055461010090046001600160a01b031633146105fa57600080fd5b6106048282610b5b565b5050565b6001600160a01b031660009081526020819052604090205490565b60055460009061010090046001600160a01b0316331461064257600080fd5b600061064d83610608565b90506106598382610b5b565b92915050565b60055461010090046001600160a01b031690565b60048054604080516020601f60026000196101006001881615020190951694909404938401819004810282018101909252828152606093909290918301828280156104a75780601f1061047c576101008083540402835291602001916104a7565b60006104c56106e1610818565b8461057885604051806060016040528060258152602001610ec4602591396001600061070b610818565b6001600160a01b03908116825260208083019390935260409182016000908120918d16815292529020549190610a63565b60006104c5610749610818565b8484610908565b60055461010090046001600160a01b0316331461076c57600080fd5b6106048282610c57565b6001600160a01b03918216600090815260016020908152604080832093909416825291909152205490565b60055460009061010090046001600160a01b031633146107c057600080fd5b6001600160a01b0382166107d357600080fd5b6005546107ee9061010090046001600160a01b031683610604565b50600580546001600160a01b03831661010002610100600160a81b03199091161790556001919050565b3390565b6001600160a01b0383166108615760405162461bcd60e51b8152600401808060200182810382526024815260200180610ea06024913960400191505060405180910390fd5b6001600160a01b0382166108a65760405162461bcd60e51b8152600401808060200182810382526022815260200180610dea6022913960400191505060405180910390fd5b6001600160a01b03808416600081815260016020908152604080832094871680845294825291829020859055815185815291517f8c5be1e5ebec7d5bd14f71427d1e84f3dd0314c0f7b2291e5b200ac8c7c3b9259281900390910190a3505050565b6001600160a01b03831661094d5760405162461bcd60e51b8152600401808060200182810382526025815260200180610e7b6025913960400191505060405180910390fd5b6001600160a01b0382166109925760405162461bcd60e51b8152600401808060200182810382526023815260200180610da56023913960400191505060405180910390fd5b61099d8383836104f5565b6109da81604051806060016040528060268152602001610e0c602691396001600160a01b0386166000908152602081905260409020549190610a63565b6001600160a01b038085166000908152602081905260408082209390935590841681522054610a099082610afa565b6001600160a01b038084166000818152602081815260409182902094909455805185815290519193928716927fddf252ad1be2c89b69c2b068fc378daa952ba7f163c4a11628f55a4df523b3ef92918290030190a3505050565b60008184841115610af25760405162461bcd60e51b81526004018080602001828103825283818151815260200191508051906020019080838360005b83811015610ab7578181015183820152602001610a9f565b50505050905090810190601f168015610ae45780820380516001836020036101000a031916815260200191505b509250505060405180910390fd5b505050900390565b600082820183811015610b54576040805162461bcd60e51b815260206004820152601b60248201527f536166654d6174683a206164646974696f6e206f766572666c6f770000000000604482015290519081900360640190fd5b9392505050565b6001600160a01b038216610ba05760405162461bcd60e51b8152600401808060200182810382526021815260200180610e5a6021913960400191505060405180910390fd5b610bac826000836104f5565b610be981604051806060016040528060228152602001610dc8602291396001600160a01b0385166000908152602081905260409020549190610a63565b6001600160a01b038316600090815260208190526040902055600254610c0f9082610d47565b6002556040805182815290516000916001600160a01b038516917fddf252ad1be2c89b69c2b068fc378daa952ba7f163c4a11628f55a4df523b3ef9181900360200190a35050565b6001600160a01b038216610cb2576040805162461bcd60e51b815260206004820152601f60248201527f45524332303a206d696e7420746f20746865207a65726f206164647265737300604482015290519081900360640190fd5b610cbe600083836104f5565b600254610ccb9082610afa565b6002556001600160a01b038216600090815260208190526040902054610cf19082610afa565b6001600160a01b0383166000818152602081815260408083209490945583518581529351929391927fddf252ad1be2c89b69c2b068fc378daa952ba7f163c4a11628f55a4df523b3ef9281900390910190a35050565b600082821115610d9e576040805162461bcd60e51b815260206004820152601e60248201527f536166654d6174683a207375627472616374696f6e206f766572666c6f770000604482015290519081900360640190fd5b5090039056fe45524332303a207472616e7366657220746f20746865207a65726f206164647265737345524332303a206275726e20616d6f756e7420657863656564732062616c616e636545524332303a20617070726f766520746f20746865207a65726f206164647265737345524332303a207472616e7366657220616d6f756e7420657863656564732062616c616e636545524332303a207472616e7366657220616d6f756e74206578636565647320616c6c6f77616e636545524332303a206275726e2066726f6d20746865207a65726f206164647265737345524332303a207472616e736665722066726f6d20746865207a65726f206164647265737345524332303a20617070726f76652066726f6d20746865207a65726f206164647265737345524332303a2064656372656173656420616c6c6f77616e63652062656c6f77207a65726fa2646970667358221220c881513fca5a75d47e02fc1c04920461b43ce001b23b37bd2a0244cb5b4737ce64736f6c63430007060033a2646970667358221220cfdb67a62cdd7ab51ef1b306fbc0e2ce1363ae237d962daaac1daab1f1932d5464736f6c6343000706003360806040523480156200001157600080fd5b50604051620011f3380380620011f3833981810160405260608110156200003757600080fd5b81019080805160405193929190846401000000008211156200005857600080fd5b9083019060208201858111156200006e57600080fd5b82516401000000008111828201881017156200008957600080fd5b82525081516020918201929091019080838360005b83811015620000b85781810151838201526020016200009e565b50505050905090810190601f168015620000e65780820380516001836020036101000a031916815260200191505b50604052602001805160405193929190846401000000008211156200010a57600080fd5b9083019060208201858111156200012057600080fd5b82516401000000008111828201881017156200013b57600080fd5b82525081516020918201929091019080838360005b838110156200016a57818101518382015260200162000150565b50505050905090810190601f168015620001985780820380516001836020036101000a031916815260200191505b5060405260209081015185519093508592508491620001bd9160039185019062000219565b508051620001d390600490602084019062000219565b5050600580546001600160a01b039390931661010090810233909102610100600160a81b031960ff199095166012178516179093169290921790915550620002c5915050565b828054600181600116156101000203166002900490600052602060002090601f0160209004810192826200025157600085556200029c565b82601f106200026c57805160ff19168380011785556200029c565b828001600101855582156200029c579182015b828111156200029c5782518255916020019190600101906200027f565b50620002aa929150620002ae565b5090565b5b80821115620002aa5760008155600101620002af565b610f1e80620002d56000396000f3fe608060405234801561001057600080fd5b506004361061010b5760003560e01c806370a08231116100a2578063a457c2d711610071578063a457c2d714610343578063a9059cbb1461036f578063c024cd261461039b578063dd62ed3e146103c7578063f2fde38b146103f55761010b565b806370a08231146102cb57806371297784146102f1578063893d20e81461031757806395d89b411461033b5761010b565b806323b872dd116100de57806323b872dd1461021f578063313ce56714610255578063395093511461027357806342986e131461029f5761010b565b806306fdde0314610110578063095ea7b31461018d5780630fb66557146101cd57806318160ddd14610205575b600080fd5b61011861041b565b6040805160208082528351818301528351919283929083019185019080838360005b8381101561015257818101518382015260200161013a565b50505050905090810190601f16801561017f5780820380516001836020036101000a031916815260200191505b509250505060405180910390f35b6101b9600480360360408110156101a357600080fd5b506001600160a01b0381351690602001356104b1565b604080519115158252519081900360200190f35b610203600480360360608110156101e357600080fd5b506001600160a01b038135811691602081013590911690604001356104ce565b005b61020d6104fa565b60408051918252519081900360200190f35b6101b96004803603606081101561023557600080fd5b506001600160a01b03813581169160208101359091169060400135610500565b61025d610587565b6040805160ff9092168252519081900360200190f35b6101b96004803603604081101561028957600080fd5b506001600160a01b038135169060200135610590565b610203600480360360408110156102b557600080fd5b506001600160a01b0381351690602001356105de565b61020d600480360360208110156102e157600080fd5b50356001600160a01b0316610608565b61020d6004803603602081101561030757600080fd5b50356001600160a01b0316610623565b61031f61065f565b604080516001600160a01b039092168252519081900360200190f35b610118610673565b6101b96004803603604081101561035957600080fd5b506001600160a01b0381351690602001356106d4565b6101b96004803603604081101561038557600080fd5b506001600160a01b03813516906020013561073c565b610203600480360360408110156103b157600080fd5b506001600160a01b038135169060200135610750565b61020d600480360360408110156103dd57600080fd5b506001600160a01b0381358116916020013516610776565b6101b96004803603602081101561040b57600080fd5b50356001600160a01b03166107a1565b60038054604080516020601f60026000196101006001881615020190951694909404938401819004810282018101909252828152606093909290918301828280156104a75780601f1061047c576101008083540402835291602001916104a7565b820191906000526020600020905b81548152906001019060200180831161048a57829003601f168201915b5050505050905090565b60006104c56104be610818565b848461081c565b50600192915050565b60055461010090046001600160a01b031633146104ea57600080fd5b6104f5838383610908565b505050565b60025490565b600061050d848484610908565b61057d84610519610818565b61057885604051806060016040528060288152602001610e32602891396001600160a01b038a16600090815260016020526040812090610557610818565b6001600160a01b031681526020810191909152604001600020549190610a63565b61081c565b5060019392505050565b60055460ff1690565b60006104c561059d610818565b8461057885600160006105ae610818565b6001600160a01b03908116825260208083019390935260409182016000908120918c168152925290205490610afa565b60055461010090046001600160a01b031633146105fa57600080fd5b6106048282610b5b565b5050565b6001600160a01b031660009081526020819052604090205490565b60055460009061010090046001600160a01b0316331461064257600080fd5b600061064d83610608565b90506106598382610b5b565b92915050565b60055461010090046001600160a01b031690565b60048054604080516020601f60026000196101006001881615020190951694909404938401819004810282018101909252828152606093909290918301828280156104a75780601f1061047c576101008083540402835291602001916104a7565b60006104c56106e1610818565b8461057885604051806060016040528060258152602001610ec4602591396001600061070b610818565b6001600160a01b03908116825260208083019390935260409182016000908120918d16815292529020549190610a63565b60006104c5610749610818565b8484610908565b60055461010090046001600160a01b0316331461076c57600080fd5b6106048282610c57565b6001600160a01b03918216600090815260016020908152604080832093909416825291909152205490565b60055460009061010090046001600160a01b031633146107c057600080fd5b6001600160a01b0382166107d357600080fd5b6005546107ee9061010090046001600160a01b031683610604565b50600580546001600160a01b03831661010002610100600160a81b03199091161790556001919050565b3390565b6001600160a01b0383166108615760405162461bcd60e51b8152600401808060200182810382526024815260200180610ea06024913960400191505060405180910390fd5b6001600160a01b0382166108a65760405162461bcd60e51b8152600401808060200182810382526022815260200180610dea6022913960400191505060405180910390fd5b6001600160a01b03808416600081815260016020908152604080832094871680845294825291829020859055815185815291517f8c5be1e5ebec7d5bd14f71427d1e84f3dd0314c0f7b2291e5b200ac8c7c3b9259281900390910190a3505050565b6001600160a01b03831661094d5760405162461bcd60e51b8152600401808060200182810382526025815260200180610e7b6025913960400191505060405180910390fd5b6001600160a01b0382166109925760405162461bcd60e51b8152600401808060200182810382526023815260200180610da56023913960400191505060405180910390fd5b61099d8383836104f5565b6109da81604051806060016040528060268152602001610e0c602691396001600160a01b0386166000908152602081905260409020549190610a63565b6001600160a01b038085166000908152602081905260408082209390935590841681522054610a099082610afa565b6001600160a01b038084166000818152602081815260409182902094909455805185815290519193928716927fddf252ad1be2c89b69c2b068fc378daa952ba7f163c4a11628f55a4df523b3ef92918290030190a3505050565b60008184841115610af25760405162461bcd60e51b81526004018080602001828103825283818151815260200191508051906020019080838360005b83811015610ab7578181015183820152602001610a9f565b50505050905090810190601f168015610ae45780820380516001836020036101000a031916815260200191505b509250505060405180910390fd5b505050900390565b600082820183811015610b54576040805162461bcd60e51b815260206004820152601b60248201527f536166654d6174683a206164646974696f6e206f766572666c6f770000000000604482015290519081900360640190fd5b9392505050565b6001600160a01b038216610ba05760405162461bcd60e51b8152600401808060200182810382526021815260200180610e5a6021913960400191505060405180910390fd5b610bac826000836104f5565b610be981604051806060016040528060228152602001610dc8602291396001600160a01b0385166000908152602081905260409020549190610a63565b6001600160a01b038316600090815260208190526040902055600254610c0f9082610d47565b6002556040805182815290516000916001600160a01b038516917fddf252ad1be2c89b69c2b068fc378daa952ba7f163c4a11628f55a4df523b3ef9181900360200190a35050565b6001600160a01b038216610cb2576040805162461bcd60e51b815260206004820152601f60248201527f45524332303a206d696e7420746f20746865207a65726f206164647265737300604482015290519081900360640190fd5b610cbe600083836104f5565b600254610ccb9082610afa565b6002556001600160a01b038216600090815260208190526040902054610cf19082610afa565b6001600160a01b0383166000818152602081815260408083209490945583518581529351929391927fddf252ad1be2c89b69c2b068fc378daa952ba7f163c4a11628f55a4df523b3ef9281900390910190a35050565b600082821115610d9e576040805162461bcd60e51b815260206004820152601e60248201527f536166654d6174683a207375627472616374696f6e206f766572666c6f770000604482015290519081900360640190fd5b5090039056fe45524332303a207472616e7366657220746f20746865207a65726f206164647265737345524332303a206275726e20616d6f756e7420657863656564732062616c616e636545524332303a20617070726f766520746f20746865207a65726f206164647265737345524332303a207472616e7366657220616d6f756e7420657863656564732062616c616e636545524332303a207472616e7366657220616d6f756e74206578636565647320616c6c6f77616e636545524332303a206275726e2066726f6d20746865207a65726f206164647265737345524332303a207472616e736665722066726f6d20746865207a65726f206164647265737345524332303a20617070726f76652066726f6d20746865207a65726f206164647265737345524332303a2064656372656173656420616c6c6f77616e63652062656c6f77207a65726fa2646970667358221220c881513fca5a75d47e02fc1c04920461b43ce001b23b37bd2a0244cb5b4737ce64736f6c63430007060033",
  "devdoc": {
    "kind": "dev",
    "methods": {
      "transferOwnership(address)": {
        "details": "Allows the current owner to transfer control of the contract to a newOwner.",
        "params": {
          "_newOwner": "The address to transfer ownership to."
        }
      }
    },
    "version": 1
  },
  "userdoc": {
    "kind": "user",
    "methods": {},
    "version": 1
  },
  "storageLayout": {
    "storage": [
      {
        "astId": 5351,
        "contract": "contracts/turbo/TrustedMarketFactory.sol:TrustedMarketFactory",
        "label": "owner",
        "offset": 0,
        "slot": "0",
        "type": "t_address"
      },
      {
        "astId": 7762,
        "contract": "contracts/turbo/TrustedMarketFactory.sol:TrustedMarketFactory",
        "label": "collateral",
        "offset": 0,
        "slot": "1",
        "type": "t_contract(IERC20Full)5328"
      },
      {
        "astId": 7764,
        "contract": "contracts/turbo/TrustedMarketFactory.sol:TrustedMarketFactory",
        "label": "feePot",
        "offset": 0,
        "slot": "2",
        "type": "t_contract(FeePot)9002"
      },
      {
        "astId": 7766,
        "contract": "contracts/turbo/TrustedMarketFactory.sol:TrustedMarketFactory",
        "label": "stakerFee",
        "offset": 0,
        "slot": "3",
        "type": "t_uint256"
      },
      {
        "astId": 7768,
        "contract": "contracts/turbo/TrustedMarketFactory.sol:TrustedMarketFactory",
        "label": "settlementFee",
        "offset": 0,
        "slot": "4",
        "type": "t_uint256"
      },
      {
        "astId": 7770,
        "contract": "contracts/turbo/TrustedMarketFactory.sol:TrustedMarketFactory",
        "label": "protocolFee",
        "offset": 0,
        "slot": "5",
        "type": "t_uint256"
      },
      {
        "astId": 7772,
        "contract": "contracts/turbo/TrustedMarketFactory.sol:TrustedMarketFactory",
        "label": "protocol",
        "offset": 0,
        "slot": "6",
        "type": "t_address"
      },
      {
        "astId": 7775,
        "contract": "contracts/turbo/TrustedMarketFactory.sol:TrustedMarketFactory",
        "label": "accumulatedProtocolFee",
        "offset": 0,
        "slot": "7",
        "type": "t_uint256"
      },
      {
        "astId": 7779,
        "contract": "contracts/turbo/TrustedMarketFactory.sol:TrustedMarketFactory",
        "label": "accumulatedSettlementFees",
        "offset": 0,
        "slot": "8",
        "type": "t_mapping(t_address,t_uint256)"
      },
      {
        "astId": 7781,
        "contract": "contracts/turbo/TrustedMarketFactory.sol:TrustedMarketFactory",
        "label": "shareFactor",
        "offset": 0,
        "slot": "9",
        "type": "t_uint256"
      },
      {
        "astId": 7802,
        "contract": "contracts/turbo/TrustedMarketFactory.sol:TrustedMarketFactory",
        "label": "markets",
        "offset": 0,
        "slot": "10",
        "type": "t_array(t_struct(Market)7799_storage)dyn_storage"
      },
      {
        "astId": 10849,
        "contract": "contracts/turbo/TrustedMarketFactory.sol:TrustedMarketFactory",
        "label": "marketDetails",
        "offset": 0,
        "slot": "11",
        "type": "t_array(t_struct(MarketDetails)10846_storage)dyn_storage"
      }
    ],
    "types": {
      "t_address": {
        "encoding": "inplace",
        "label": "address",
        "numberOfBytes": "20"
      },
      "t_array(t_contract(OwnedERC20)9109)dyn_storage": {
        "base": "t_contract(OwnedERC20)9109",
        "encoding": "dynamic_array",
        "label": "contract OwnedERC20[]",
        "numberOfBytes": "32"
      },
      "t_array(t_struct(Market)7799_storage)dyn_storage": {
        "base": "t_struct(Market)7799_storage",
        "encoding": "dynamic_array",
        "label": "struct AbstractMarketFactory.Market[]",
        "numberOfBytes": "32"
      },
      "t_array(t_struct(MarketDetails)10846_storage)dyn_storage": {
        "base": "t_struct(MarketDetails)10846_storage",
        "encoding": "dynamic_array",
        "label": "struct TrustedMarketFactory.MarketDetails[]",
        "numberOfBytes": "32"
      },
      "t_contract(FeePot)9002": {
        "encoding": "inplace",
        "label": "contract FeePot",
        "numberOfBytes": "20"
      },
      "t_contract(IERC20Full)5328": {
        "encoding": "inplace",
        "label": "contract IERC20Full",
        "numberOfBytes": "20"
      },
      "t_contract(OwnedERC20)9109": {
        "encoding": "inplace",
        "label": "contract OwnedERC20",
        "numberOfBytes": "20"
      },
      "t_mapping(t_address,t_uint256)": {
        "encoding": "mapping",
        "key": "t_address",
        "label": "mapping(address => uint256)",
        "numberOfBytes": "32",
        "value": "t_uint256"
      },
      "t_string_storage": {
        "encoding": "bytes",
        "label": "string",
        "numberOfBytes": "32"
      },
      "t_struct(Market)7799_storage": {
        "encoding": "inplace",
        "label": "struct AbstractMarketFactory.Market",
        "members": [
          {
            "astId": 7783,
            "contract": "contracts/turbo/TrustedMarketFactory.sol:TrustedMarketFactory",
            "label": "settlementAddress",
            "offset": 0,
            "slot": "0",
            "type": "t_address"
          },
          {
            "astId": 7786,
            "contract": "contracts/turbo/TrustedMarketFactory.sol:TrustedMarketFactory",
            "label": "shareTokens",
            "offset": 0,
            "slot": "1",
            "type": "t_array(t_contract(OwnedERC20)9109)dyn_storage"
          },
          {
            "astId": 7788,
            "contract": "contracts/turbo/TrustedMarketFactory.sol:TrustedMarketFactory",
            "label": "endTime",
            "offset": 0,
            "slot": "2",
            "type": "t_uint256"
          },
          {
            "astId": 7790,
            "contract": "contracts/turbo/TrustedMarketFactory.sol:TrustedMarketFactory",
            "label": "winner",
            "offset": 0,
            "slot": "3",
            "type": "t_contract(OwnedERC20)9109"
          },
          {
            "astId": 7792,
            "contract": "contracts/turbo/TrustedMarketFactory.sol:TrustedMarketFactory",
            "label": "settlementFee",
            "offset": 0,
            "slot": "4",
            "type": "t_uint256"
          },
          {
            "astId": 7794,
            "contract": "contracts/turbo/TrustedMarketFactory.sol:TrustedMarketFactory",
            "label": "protocolFee",
            "offset": 0,
            "slot": "5",
            "type": "t_uint256"
          },
          {
            "astId": 7796,
            "contract": "contracts/turbo/TrustedMarketFactory.sol:TrustedMarketFactory",
            "label": "stakerFee",
            "offset": 0,
            "slot": "6",
            "type": "t_uint256"
          },
          {
            "astId": 7798,
            "contract": "contracts/turbo/TrustedMarketFactory.sol:TrustedMarketFactory",
            "label": "creationTimestamp",
            "offset": 0,
            "slot": "7",
            "type": "t_uint256"
          }
        ],
        "numberOfBytes": "256"
      },
      "t_struct(MarketDetails)10846_storage": {
        "encoding": "inplace",
        "label": "struct TrustedMarketFactory.MarketDetails",
        "members": [
          {
            "astId": 10845,
            "contract": "contracts/turbo/TrustedMarketFactory.sol:TrustedMarketFactory",
            "label": "description",
            "offset": 0,
            "slot": "0",
            "type": "t_string_storage"
          }
        ],
        "numberOfBytes": "32"
      },
      "t_uint256": {
        "encoding": "inplace",
        "label": "uint256",
        "numberOfBytes": "32"
      }
    }
  }
}