{
  "_format": "hh-sol-artifact-1",
  "contractName": "BMath",
  "sourceName": "contracts/balancer/BMath.sol",
  "abi": [
    {
      "inputs": [],
      "name": "BONE",
      "outputs": [
        {
          "internalType": "uint256",
          "name": "",
          "type": "uint256"
        }
      ],
      "stateMutability": "view",
      "type": "function"
    },
    {
      "inputs": [],
      "name": "BPOW_PRECISION",
      "outputs": [
        {
          "internalType": "uint256",
          "name": "",
          "type": "uint256"
        }
      ],
      "stateMutability": "view",
      "type": "function"
    },
    {
      "inputs": [],
      "name": "EXIT_FEE",
      "outputs": [
        {
          "internalType": "uint256",
          "name": "",
          "type": "uint256"
        }
      ],
      "stateMutability": "view",
      "type": "function"
    },
    {
      "inputs": [],
      "name": "INIT_POOL_SUPPLY",
      "outputs": [
        {
          "internalType": "uint256",
          "name": "",
          "type": "uint256"
        }
      ],
      "stateMutability": "view",
      "type": "function"
    },
    {
      "inputs": [],
      "name": "MAX_BOUND_TOKENS",
      "outputs": [
        {
          "internalType": "uint256",
          "name": "",
          "type": "uint256"
        }
      ],
      "stateMutability": "view",
      "type": "function"
    },
    {
      "inputs": [],
      "name": "MAX_BPOW_BASE",
      "outputs": [
        {
          "internalType": "uint256",
          "name": "",
          "type": "uint256"
        }
      ],
      "stateMutability": "view",
      "type": "function"
    },
    {
      "inputs": [],
      "name": "MAX_FEE",
      "outputs": [
        {
          "internalType": "uint256",
          "name": "",
          "type": "uint256"
        }
      ],
      "stateMutability": "view",
      "type": "function"
    },
    {
      "inputs": [],
      "name": "MAX_IN_RATIO",
      "outputs": [
        {
          "internalType": "uint256",
          "name": "",
          "type": "uint256"
        }
      ],
      "stateMutability": "view",
      "type": "function"
    },
    {
      "inputs": [],
      "name": "MAX_OUT_RATIO",
      "outputs": [
        {
          "internalType": "uint256",
          "name": "",
          "type": "uint256"
        }
      ],
      "stateMutability": "view",
      "type": "function"
    },
    {
      "inputs": [],
      "name": "MAX_TOTAL_WEIGHT",
      "outputs": [
        {
          "internalType": "uint256",
          "name": "",
          "type": "uint256"
        }
      ],
      "stateMutability": "view",
      "type": "function"
    },
    {
      "inputs": [],
      "name": "MAX_WEIGHT",
      "outputs": [
        {
          "internalType": "uint256",
          "name": "",
          "type": "uint256"
        }
      ],
      "stateMutability": "view",
      "type": "function"
    },
    {
      "inputs": [],
      "name": "MIN_BALANCE",
      "outputs": [
        {
          "internalType": "uint256",
          "name": "",
          "type": "uint256"
        }
      ],
      "stateMutability": "view",
      "type": "function"
    },
    {
      "inputs": [],
      "name": "MIN_BOUND_TOKENS",
      "outputs": [
        {
          "internalType": "uint256",
          "name": "",
          "type": "uint256"
        }
      ],
      "stateMutability": "view",
      "type": "function"
    },
    {
      "inputs": [],
      "name": "MIN_BPOW_BASE",
      "outputs": [
        {
          "internalType": "uint256",
          "name": "",
          "type": "uint256"
        }
      ],
      "stateMutability": "view",
      "type": "function"
    },
    {
      "inputs": [],
      "name": "MIN_FEE",
      "outputs": [
        {
          "internalType": "uint256",
          "name": "",
          "type": "uint256"
        }
      ],
      "stateMutability": "view",
      "type": "function"
    },
    {
      "inputs": [],
      "name": "MIN_WEIGHT",
      "outputs": [
        {
          "internalType": "uint256",
          "name": "",
          "type": "uint256"
        }
      ],
      "stateMutability": "view",
      "type": "function"
    },
    {
      "inputs": [
        {
          "internalType": "uint256",
          "name": "tokenBalanceIn",
          "type": "uint256"
        },
        {
          "internalType": "uint256",
          "name": "tokenWeightIn",
          "type": "uint256"
        },
        {
          "internalType": "uint256",
          "name": "tokenBalanceOut",
          "type": "uint256"
        },
        {
          "internalType": "uint256",
          "name": "tokenWeightOut",
          "type": "uint256"
        },
        {
          "internalType": "uint256",
          "name": "tokenAmountOut",
          "type": "uint256"
        },
        {
          "internalType": "uint256",
          "name": "swapFee",
          "type": "uint256"
        }
      ],
      "name": "calcInGivenOut",
      "outputs": [
        {
          "internalType": "uint256",
          "name": "tokenAmountIn",
          "type": "uint256"
        }
      ],
      "stateMutability": "pure",
      "type": "function"
    },
    {
      "inputs": [
        {
          "internalType": "uint256",
          "name": "tokenBalanceIn",
          "type": "uint256"
        },
        {
          "internalType": "uint256",
          "name": "tokenWeightIn",
          "type": "uint256"
        },
        {
          "internalType": "uint256",
          "name": "tokenBalanceOut",
          "type": "uint256"
        },
        {
          "internalType": "uint256",
          "name": "tokenWeightOut",
          "type": "uint256"
        },
        {
          "internalType": "uint256",
          "name": "tokenAmountIn",
          "type": "uint256"
        },
        {
          "internalType": "uint256",
          "name": "swapFee",
          "type": "uint256"
        }
      ],
      "name": "calcOutGivenIn",
      "outputs": [
        {
          "internalType": "uint256",
          "name": "tokenAmountOut",
          "type": "uint256"
        }
      ],
      "stateMutability": "pure",
      "type": "function"
    },
    {
      "inputs": [
        {
          "internalType": "uint256",
          "name": "tokenBalanceOut",
          "type": "uint256"
        },
        {
          "internalType": "uint256",
          "name": "tokenWeightOut",
          "type": "uint256"
        },
        {
          "internalType": "uint256",
          "name": "poolSupply",
          "type": "uint256"
        },
        {
          "internalType": "uint256",
          "name": "totalWeight",
          "type": "uint256"
        },
        {
          "internalType": "uint256",
          "name": "tokenAmountOut",
          "type": "uint256"
        },
        {
          "internalType": "uint256",
          "name": "swapFee",
          "type": "uint256"
        }
      ],
      "name": "calcPoolInGivenSingleOut",
      "outputs": [
        {
          "internalType": "uint256",
          "name": "poolAmountIn",
          "type": "uint256"
        }
      ],
      "stateMutability": "pure",
      "type": "function"
    },
    {
      "inputs": [
        {
          "internalType": "uint256",
          "name": "tokenBalanceIn",
          "type": "uint256"
        },
        {
          "internalType": "uint256",
          "name": "tokenWeightIn",
          "type": "uint256"
        },
        {
          "internalType": "uint256",
          "name": "poolSupply",
          "type": "uint256"
        },
        {
          "internalType": "uint256",
          "name": "totalWeight",
          "type": "uint256"
        },
        {
          "internalType": "uint256",
          "name": "tokenAmountIn",
          "type": "uint256"
        },
        {
          "internalType": "uint256",
          "name": "swapFee",
          "type": "uint256"
        }
      ],
      "name": "calcPoolOutGivenSingleIn",
      "outputs": [
        {
          "internalType": "uint256",
          "name": "poolAmountOut",
          "type": "uint256"
        }
      ],
      "stateMutability": "pure",
      "type": "function"
    },
    {
      "inputs": [
        {
          "internalType": "uint256",
          "name": "tokenBalanceIn",
          "type": "uint256"
        },
        {
          "internalType": "uint256",
          "name": "tokenWeightIn",
          "type": "uint256"
        },
        {
          "internalType": "uint256",
          "name": "poolSupply",
          "type": "uint256"
        },
        {
          "internalType": "uint256",
          "name": "totalWeight",
          "type": "uint256"
        },
        {
          "internalType": "uint256",
          "name": "poolAmountOut",
          "type": "uint256"
        },
        {
          "internalType": "uint256",
          "name": "swapFee",
          "type": "uint256"
        }
      ],
      "name": "calcSingleInGivenPoolOut",
      "outputs": [
        {
          "internalType": "uint256",
          "name": "tokenAmountIn",
          "type": "uint256"
        }
      ],
      "stateMutability": "pure",
      "type": "function"
    },
    {
      "inputs": [
        {
          "internalType": "uint256",
          "name": "tokenBalanceOut",
          "type": "uint256"
        },
        {
          "internalType": "uint256",
          "name": "tokenWeightOut",
          "type": "uint256"
        },
        {
          "internalType": "uint256",
          "name": "poolSupply",
          "type": "uint256"
        },
        {
          "internalType": "uint256",
          "name": "totalWeight",
          "type": "uint256"
        },
        {
          "internalType": "uint256",
          "name": "poolAmountIn",
          "type": "uint256"
        },
        {
          "internalType": "uint256",
          "name": "swapFee",
          "type": "uint256"
        }
      ],
      "name": "calcSingleOutGivenPoolIn",
      "outputs": [
        {
          "internalType": "uint256",
          "name": "tokenAmountOut",
          "type": "uint256"
        }
      ],
      "stateMutability": "pure",
      "type": "function"
    },
    {
      "inputs": [
        {
          "internalType": "uint256",
          "name": "tokenBalanceIn",
          "type": "uint256"
        },
        {
          "internalType": "uint256",
          "name": "tokenWeightIn",
          "type": "uint256"
        },
        {
          "internalType": "uint256",
          "name": "tokenBalanceOut",
          "type": "uint256"
        },
        {
          "internalType": "uint256",
          "name": "tokenWeightOut",
          "type": "uint256"
        },
        {
          "internalType": "uint256",
          "name": "swapFee",
          "type": "uint256"
        }
      ],
      "name": "calcSpotPrice",
      "outputs": [
        {
          "internalType": "uint256",
          "name": "spotPrice",
          "type": "uint256"
        }
      ],
      "stateMutability": "pure",
      "type": "function"
    },
    {
      "inputs": [],
      "name": "getColor",
      "outputs": [
        {
          "internalType": "bytes32",
          "name": "",
          "type": "bytes32"
        }
      ],
      "stateMutability": "pure",
      "type": "function"
    }
  ],
  "bytecode": "0x60806040523480156100195760008061001661001f565b50505b5061008a565b632a2a7adb598160e01b8152600481016020815285602082015260005b8681101561005757808601518282016040015260200161003c565b506020828760640184336000905af158600e01573d6000803e3d6000fd5b3d6001141558600a015760016000f35b505050565b610e8a806100996000396000f3fe608060405234801561001957600080610016610e1f565b50505b50600436106101615760003560e01c8063a221ee49116100cc578063bc694ea211610085578063bc694ea214610373578063c36596a614610191578063c6580d121461037b578063e4a28a521461016f578063ec09302114610383578063f8d6aed41461038b57610161565b8063a221ee49146102d1578063b0e0d1361461030f578063b7b800a414610317578063ba019dab1461031f578063ba9530a614610327578063bc063e1a1461036b57610161565b80638656b6531161011e5780638656b65314610229578063867378c51461026d57806389298012146102755780639381cd2b146102b9578063992e2a92146102c15780639a86139b146102c957610161565b806309a3bbe41461016f578063189d00ca14610189578063218b5382146101915780635c1bbaf71461019957806376c7a3c7146101dd57806382f652ad146101e5575b60008061016c610e1f565b50505b6101776103cf565b60405190815260200160405180910390f35b6101776103dc565b6101776103f0565b610177600480360360c08110156101b8576000806101b5610e1f565b50505b5080359060208101359060408101359060608101359060808101359060a001356103fc565b6101776104b4565b610177600480360360c081101561020457600080610201610e1f565b50505b5080359060208101359060408101359060608101359060808101359060a001356104c6565b610177600480360360c081101561024857600080610245610e1f565b50505b5080359060208101359060408101359060608101359060808101359060a00135610585565b610177610626565b610177600480360360c081101561029457600080610291610e1f565b50505b5080359060208101359060408101359060608101359060808101359060a0013561063a565b6101776106ea565b6101776106f7565b610177610703565b610177600480360360a08110156102f0576000806102ed610e1f565b50505b5080359060208101359060408101359060608101359060800135610710565b610177610775565b61017761077a565b61017761077f565b610177600480360360c081101561034657600080610343610e1f565b50505b5080359060208101359060408101359060608101359060808101359060a00135610784565b610177610805565b610177610815565b610177610821565b610177610826565b610177600480360360c08110156103aa576000806103a7610e1f565b50505b5080359060208101359060408101359060608101359060808101359060a00135610836565b6802b5e3af16b188000081565b6402540be400670de0b6b3a76400005b0481565b670de0b6b3a764000081565b60008061040987866108b9565b9050600061041787866109e6565b9050600061042582896108b9565b9050600061043b670de0b6b3a7640000856108b9565b905060006104498383610a42565b90506000610457828e610b60565b90506000610465828f610c32565b9050600061048461047e670de0b6b3a76400008a610c32565b8b610b60565b90506104a18261049c670de0b6b3a764000084610c32565b6108b9565b9f9e505050505050505050505050505050565b620f4240670de0b6b3a76400006103ec565b6000806104d387866108b9565b905060006104e9670de0b6b3a764000083610c32565b905060006104f78286610b60565b905060006105118761049c670de0b6b3a764000085610c32565b9050600061051f8c83610c32565b9050600061052d828e6108b9565b9050600061053b8288610a42565b90506000610549828e610b60565b905060006105578e83610c32565b90506105708161049c670de0b6b3a76400006000610c32565b99505050505050505050509695505050505050565b60008061059287866108b9565b905060006105b16105ab670de0b6b3a764000084610c32565b85610b60565b905060006105d0866105cb670de0b6b3a764000085610c32565b610b60565b905060006105de8b836109e6565b905060006105ec828d6108b9565b905060006105fa8287610a42565b90506000610608828d610b60565b9050610614818d610c32565b9e9d5050505050505050505050505050565b64e8d4a51000670de0b6b3a76400006103ec565b60008061064787866108b9565b90506000610662856105cb670de0b6b3a76400006000610c32565b905060006106708883610c32565b9050600061067e828a6108b9565b9050600061069d82610698670de0b6b3a7640000886108b9565b610a42565b905060006106ab828e610b60565b905060006106b98e83610c32565b905060006106d261047e670de0b6b3a76400008a610c32565b90506104a1826105cb670de0b6b3a764000084610c32565b68056bc75e2d6310000081565b6704a03ce68d21555681565b6542524f4e5a4560d01b90565b60008061071d87876108b9565b9050600061072b86866108b9565b9050600061073983836108b9565b9050600061075b670de0b6b3a764000061049c670de0b6b3a764000089610c32565b90506107678282610b60565b9a9950505050505050505050565b600881565b600281565b600181565b60008061079187866108b9565b905060006107a7670de0b6b3a764000085610c32565b90506107b38582610b60565b905060006107c58a61049c8c856109e6565b905060006107d38285610a42565b905060006107e9670de0b6b3a764000083610c32565b90506107f58a82610b60565b9c9b505050505050505050505050565b600a670de0b6b3a76400006103ec565b671bc16d674ec7ffff81565b600081565b6002670de0b6b3a76400006103ec565b60008061084385886108b9565b905060006108518786610c32565b9050600061085f88836108b9565b9050600061086d8285610a42565b905061088181670de0b6b3a7640000610c32565b9050610895670de0b6b3a764000087610c32565b94506108aa6108a48c83610b60565b866108b9565b9b9a5050505050505050505050565b6000816109045760405162461bcd60e51b815260206004820152600c60248201526b4552525f4449565f5a45524f60a01b604482015260640160405180910390610901610e1f565b50505b670de0b6b3a7640000830283158061092c5750670de0b6b3a764000084828161092957fe5b04145b6109785760405162461bcd60e51b815260206004820152601060248201526f11549497d1125597d25395115493905360821b604482015260640160405180910390610975610e1f565b50505b600283048101818110156109ce5760405162461bcd60e51b815260206004820152601060248201526f11549497d1125597d25395115493905360821b6044820152606401604051809103906109cb610e1f565b50505b60008482816109d957fe5b0493505050505b92915050565b600082820183811015610a3b5760405162461bcd60e51b815260206004820152601060248201526f4552525f4144445f4f564552464c4f5760801b604482015260640160405180910390610a38610e1f565b50505b9392505050565b60006001831015610a9a5760405162461bcd60e51b81526020600482015260156024820152744552525f42504f575f424153455f544f4f5f4c4f5760581b604482015260640160405180910390610a97610e1f565b50505b671bc16d674ec7ffff831115610af85760405162461bcd60e51b815260206004820152601660248201527508aa4a4be84a09eaebe8482a68abea89e9ebe90928e960531b604482015260640160405180910390610af5610e1f565b50505b6000610b0383610c9c565b90506000610b118483610c32565b90506000610b2786610b2285610cb7565b610cc5565b905081610b385792506109e0915050565b6000610b4987846305f5e100610d1c565b9050610b558282610b60565b979650505050505050565b6000828202831580610b7a575082848281610b7757fe5b04145b610bc65760405162461bcd60e51b815260206004820152601060248201526f4552525f4d554c5f4f564552464c4f5760801b604482015260640160405180910390610bc3610e1f565b50505b6706f05b59d3b20000810181811015610c215760405162461bcd60e51b815260206004820152601060248201526f4552525f4d554c5f4f564552464c4f5760801b604482015260640160405180910390610c1e610e1f565b50505b6000670de0b6b3a7640000826109d9565b6000806000610c418585610dfa565b915091508015610c945760405162461bcd60e51b81526020600482015260116024820152704552525f5355425f554e444552464c4f5760781b604482015260640160405180910390610c91610e1f565b50505b509392505050565b6000670de0b6b3a7640000610cb083610cb7565b0292915050565b670de0b6b3a7640000900490565b60008060028306610cde57670de0b6b3a7640000610ce0565b835b90506002830492505b8215610a3b57610cf98485610b60565b93506002830615610d1157610d0e8185610b60565b90505b600283049250610ce9565b6000828180610d3387670de0b6b3a7640000610dfa565b9092509050670de0b6b3a764000080600060015b888410610deb576000670de0b6b3a764000082029050600080610d7b8a610d7685670de0b6b3a7640000610c32565b610dfa565b91509150610d8d876105cb848c610b60565b9650610d9987846108b9565b965086610da857505050610deb565b8715610db2579315935b8015610dbc579315935b8415610dd357610dcc8688610c32565b9550610de0565b610ddd86886109e6565b95505b505050600101610d47565b50909998505050505050505050565b600080828410610e105750508082036000610e18565b505081810360015b9250929050565b632a2a7adb598160e01b8152600481016020815285602082015260005b86811015610e57578086015182820160400152602001610e3c565b506020828760640184336000905af158600e01573d6000803e3d6000fd5b3d6001141558600a015760016000f35b50505056",
  "linkReferences": {},
  "deployedLinkReferences": {}
}