{
  "_format": "hh-sol-artifact-1",
  "contractName": "BMath",
  "sourceName": "contracts/balancer/BMath.sol",
  "abi": [
    {
      "inputs": [],
      "name": "BONE",
      "outputs": [
        {
          "internalType": "uint256",
          "name": "",
          "type": "uint256"
        }
      ],
      "stateMutability": "view",
      "type": "function"
    },
    {
      "inputs": [],
      "name": "BPOW_PRECISION",
      "outputs": [
        {
          "internalType": "uint256",
          "name": "",
          "type": "uint256"
        }
      ],
      "stateMutability": "view",
      "type": "function"
    },
    {
      "inputs": [],
      "name": "EXIT_FEE",
      "outputs": [
        {
          "internalType": "uint256",
          "name": "",
          "type": "uint256"
        }
      ],
      "stateMutability": "view",
      "type": "function"
    },
    {
      "inputs": [],
      "name": "INIT_POOL_SUPPLY",
      "outputs": [
        {
          "internalType": "uint256",
          "name": "",
          "type": "uint256"
        }
      ],
      "stateMutability": "view",
      "type": "function"
    },
    {
      "inputs": [],
      "name": "MAX_BOUND_TOKENS",
      "outputs": [
        {
          "internalType": "uint256",
          "name": "",
          "type": "uint256"
        }
      ],
      "stateMutability": "view",
      "type": "function"
    },
    {
      "inputs": [],
      "name": "MAX_BPOW_BASE",
      "outputs": [
        {
          "internalType": "uint256",
          "name": "",
          "type": "uint256"
        }
      ],
      "stateMutability": "view",
      "type": "function"
    },
    {
      "inputs": [],
      "name": "MAX_FEE",
      "outputs": [
        {
          "internalType": "uint256",
          "name": "",
          "type": "uint256"
        }
      ],
      "stateMutability": "view",
      "type": "function"
    },
    {
      "inputs": [],
      "name": "MAX_IN_RATIO",
      "outputs": [
        {
          "internalType": "uint256",
          "name": "",
          "type": "uint256"
        }
      ],
      "stateMutability": "view",
      "type": "function"
    },
    {
      "inputs": [],
      "name": "MAX_OUT_RATIO",
      "outputs": [
        {
          "internalType": "uint256",
          "name": "",
          "type": "uint256"
        }
      ],
      "stateMutability": "view",
      "type": "function"
    },
    {
      "inputs": [],
      "name": "MAX_TOTAL_WEIGHT",
      "outputs": [
        {
          "internalType": "uint256",
          "name": "",
          "type": "uint256"
        }
      ],
      "stateMutability": "view",
      "type": "function"
    },
    {
      "inputs": [],
      "name": "MAX_WEIGHT",
      "outputs": [
        {
          "internalType": "uint256",
          "name": "",
          "type": "uint256"
        }
      ],
      "stateMutability": "view",
      "type": "function"
    },
    {
      "inputs": [],
      "name": "MIN_BALANCE",
      "outputs": [
        {
          "internalType": "uint256",
          "name": "",
          "type": "uint256"
        }
      ],
      "stateMutability": "view",
      "type": "function"
    },
    {
      "inputs": [],
      "name": "MIN_BOUND_TOKENS",
      "outputs": [
        {
          "internalType": "uint256",
          "name": "",
          "type": "uint256"
        }
      ],
      "stateMutability": "view",
      "type": "function"
    },
    {
      "inputs": [],
      "name": "MIN_BPOW_BASE",
      "outputs": [
        {
          "internalType": "uint256",
          "name": "",
          "type": "uint256"
        }
      ],
      "stateMutability": "view",
      "type": "function"
    },
    {
      "inputs": [],
      "name": "MIN_FEE",
      "outputs": [
        {
          "internalType": "uint256",
          "name": "",
          "type": "uint256"
        }
      ],
      "stateMutability": "view",
      "type": "function"
    },
    {
      "inputs": [],
      "name": "MIN_WEIGHT",
      "outputs": [
        {
          "internalType": "uint256",
          "name": "",
          "type": "uint256"
        }
      ],
      "stateMutability": "view",
      "type": "function"
    },
    {
      "inputs": [
        {
          "internalType": "uint256",
          "name": "tokenBalanceIn",
          "type": "uint256"
        },
        {
          "internalType": "uint256",
          "name": "tokenWeightIn",
          "type": "uint256"
        },
        {
          "internalType": "uint256",
          "name": "tokenBalanceOut",
          "type": "uint256"
        },
        {
          "internalType": "uint256",
          "name": "tokenWeightOut",
          "type": "uint256"
        },
        {
          "internalType": "uint256",
          "name": "tokenAmountOut",
          "type": "uint256"
        },
        {
          "internalType": "uint256",
          "name": "swapFee",
          "type": "uint256"
        }
      ],
      "name": "calcInGivenOut",
      "outputs": [
        {
          "internalType": "uint256",
          "name": "tokenAmountIn",
          "type": "uint256"
        }
      ],
      "stateMutability": "pure",
      "type": "function"
    },
    {
      "inputs": [
        {
          "internalType": "uint256",
          "name": "tokenBalanceIn",
          "type": "uint256"
        },
        {
          "internalType": "uint256",
          "name": "tokenWeightIn",
          "type": "uint256"
        },
        {
          "internalType": "uint256",
          "name": "tokenBalanceOut",
          "type": "uint256"
        },
        {
          "internalType": "uint256",
          "name": "tokenWeightOut",
          "type": "uint256"
        },
        {
          "internalType": "uint256",
          "name": "tokenAmountIn",
          "type": "uint256"
        },
        {
          "internalType": "uint256",
          "name": "swapFee",
          "type": "uint256"
        }
      ],
      "name": "calcOutGivenIn",
      "outputs": [
        {
          "internalType": "uint256",
          "name": "tokenAmountOut",
          "type": "uint256"
        }
      ],
      "stateMutability": "pure",
      "type": "function"
    },
    {
      "inputs": [
        {
          "internalType": "uint256",
          "name": "tokenBalanceOut",
          "type": "uint256"
        },
        {
          "internalType": "uint256",
          "name": "tokenWeightOut",
          "type": "uint256"
        },
        {
          "internalType": "uint256",
          "name": "poolSupply",
          "type": "uint256"
        },
        {
          "internalType": "uint256",
          "name": "totalWeight",
          "type": "uint256"
        },
        {
          "internalType": "uint256",
          "name": "tokenAmountOut",
          "type": "uint256"
        },
        {
          "internalType": "uint256",
          "name": "swapFee",
          "type": "uint256"
        }
      ],
      "name": "calcPoolInGivenSingleOut",
      "outputs": [
        {
          "internalType": "uint256",
          "name": "poolAmountIn",
          "type": "uint256"
        }
      ],
      "stateMutability": "pure",
      "type": "function"
    },
    {
      "inputs": [
        {
          "internalType": "uint256",
          "name": "tokenBalanceIn",
          "type": "uint256"
        },
        {
          "internalType": "uint256",
          "name": "tokenWeightIn",
          "type": "uint256"
        },
        {
          "internalType": "uint256",
          "name": "poolSupply",
          "type": "uint256"
        },
        {
          "internalType": "uint256",
          "name": "totalWeight",
          "type": "uint256"
        },
        {
          "internalType": "uint256",
          "name": "tokenAmountIn",
          "type": "uint256"
        },
        {
          "internalType": "uint256",
          "name": "swapFee",
          "type": "uint256"
        }
      ],
      "name": "calcPoolOutGivenSingleIn",
      "outputs": [
        {
          "internalType": "uint256",
          "name": "poolAmountOut",
          "type": "uint256"
        }
      ],
      "stateMutability": "pure",
      "type": "function"
    },
    {
      "inputs": [
        {
          "internalType": "uint256",
          "name": "tokenBalanceIn",
          "type": "uint256"
        },
        {
          "internalType": "uint256",
          "name": "tokenWeightIn",
          "type": "uint256"
        },
        {
          "internalType": "uint256",
          "name": "poolSupply",
          "type": "uint256"
        },
        {
          "internalType": "uint256",
          "name": "totalWeight",
          "type": "uint256"
        },
        {
          "internalType": "uint256",
          "name": "poolAmountOut",
          "type": "uint256"
        },
        {
          "internalType": "uint256",
          "name": "swapFee",
          "type": "uint256"
        }
      ],
      "name": "calcSingleInGivenPoolOut",
      "outputs": [
        {
          "internalType": "uint256",
          "name": "tokenAmountIn",
          "type": "uint256"
        }
      ],
      "stateMutability": "pure",
      "type": "function"
    },
    {
      "inputs": [
        {
          "internalType": "uint256",
          "name": "tokenBalanceOut",
          "type": "uint256"
        },
        {
          "internalType": "uint256",
          "name": "tokenWeightOut",
          "type": "uint256"
        },
        {
          "internalType": "uint256",
          "name": "poolSupply",
          "type": "uint256"
        },
        {
          "internalType": "uint256",
          "name": "totalWeight",
          "type": "uint256"
        },
        {
          "internalType": "uint256",
          "name": "poolAmountIn",
          "type": "uint256"
        },
        {
          "internalType": "uint256",
          "name": "swapFee",
          "type": "uint256"
        }
      ],
      "name": "calcSingleOutGivenPoolIn",
      "outputs": [
        {
          "internalType": "uint256",
          "name": "tokenAmountOut",
          "type": "uint256"
        }
      ],
      "stateMutability": "pure",
      "type": "function"
    },
    {
      "inputs": [
        {
          "internalType": "uint256",
          "name": "tokenBalanceIn",
          "type": "uint256"
        },
        {
          "internalType": "uint256",
          "name": "tokenWeightIn",
          "type": "uint256"
        },
        {
          "internalType": "uint256",
          "name": "tokenBalanceOut",
          "type": "uint256"
        },
        {
          "internalType": "uint256",
          "name": "tokenWeightOut",
          "type": "uint256"
        },
        {
          "internalType": "uint256",
          "name": "swapFee",
          "type": "uint256"
        }
      ],
      "name": "calcSpotPrice",
      "outputs": [
        {
          "internalType": "uint256",
          "name": "spotPrice",
          "type": "uint256"
        }
      ],
      "stateMutability": "pure",
      "type": "function"
    },
    {
      "inputs": [],
      "name": "getColor",
      "outputs": [
        {
          "internalType": "bytes32",
          "name": "",
          "type": "bytes32"
        }
      ],
      "stateMutability": "pure",
      "type": "function"
    }
  ],
  "bytecode": "0x608060405234801561001057600080fd5b50610dbc806100206000396000f3fe608060405234801561001057600080fd5b50600436106101585760003560e01c8063a221ee49116100c3578063bc694ea21161007c578063bc694ea21461032b578063c36596a61461017f578063c6580d1214610333578063e4a28a521461015d578063ec0930211461033b578063f8d6aed41461034357610158565b8063a221ee491461029b578063b0e0d136146102d0578063b7b800a4146102d8578063ba019dab146102e0578063ba9530a6146102e8578063bc063e1a1461032357610158565b80638656b653116101155780638656b65314610205578063867378c51461024057806389298012146102485780639381cd2b14610283578063992e2a921461028b5780639a86139b1461029357610158565b806309a3bbe41461015d578063189d00ca14610177578063218b53821461017f5780635c1bbaf71461018757806376c7a3c7146101c257806382f652ad146101ca575b600080fd5b61016561037e565b60408051918252519081900360200190f35b61016561038b565b61016561039f565b610165600480360360c081101561019d57600080fd5b5080359060208101359060408101359060608101359060808101359060a001356103ab565b610165610463565b610165600480360360c08110156101e057600080fd5b5080359060208101359060408101359060608101359060808101359060a00135610475565b610165600480360360c081101561021b57600080fd5b5080359060208101359060408101359060608101359060808101359060a00135610534565b6101656105d5565b610165600480360360c081101561025e57600080fd5b5080359060208101359060408101359060608101359060808101359060a001356105e9565b610165610699565b6101656106a6565b6101656106b2565b610165600480360360a08110156102b157600080fd5b50803590602081013590604081013590606081013590608001356106bf565b610165610724565b610165610729565b61016561072e565b610165600480360360c08110156102fe57600080fd5b5080359060208101359060408101359060608101359060808101359060a00135610733565b6101656107b4565b6101656107c4565b6101656107d0565b6101656107d5565b610165600480360360c081101561035957600080fd5b5080359060208101359060408101359060608101359060808101359060a001356107e5565b6802b5e3af16b188000081565b6402540be400670de0b6b3a76400005b0481565b670de0b6b3a764000081565b6000806103b88786610868565b905060006103c6878661097d565b905060006103d48289610868565b905060006103ea670de0b6b3a764000085610868565b905060006103f883836109d1565b90506000610406828e610adf565b90506000610414828f610ba1565b9050600061043361042d670de0b6b3a76400008a610ba1565b8b610adf565b90506104508261044b670de0b6b3a764000084610ba1565b610868565b9f9e505050505050505050505050505050565b620f4240670de0b6b3a764000061039b565b6000806104828786610868565b90506000610498670de0b6b3a764000083610ba1565b905060006104a68286610adf565b905060006104c08761044b670de0b6b3a764000085610ba1565b905060006104ce8c83610ba1565b905060006104dc828e610868565b905060006104ea82886109d1565b905060006104f8828e610adf565b905060006105068e83610ba1565b905061051f8161044b670de0b6b3a76400006000610ba1565b99505050505050505050509695505050505050565b6000806105418786610868565b9050600061056061055a670de0b6b3a764000084610ba1565b85610adf565b9050600061057f8661057a670de0b6b3a764000085610ba1565b610adf565b9050600061058d8b8361097d565b9050600061059b828d610868565b905060006105a982876109d1565b905060006105b7828d610adf565b90506105c3818d610ba1565b9e9d5050505050505050505050505050565b64e8d4a51000670de0b6b3a764000061039b565b6000806105f68786610868565b905060006106118561057a670de0b6b3a76400006000610ba1565b9050600061061f8883610ba1565b9050600061062d828a610868565b9050600061064c82610647670de0b6b3a764000088610868565b6109d1565b9050600061065a828e610adf565b905060006106688e83610ba1565b9050600061068161042d670de0b6b3a76400008a610ba1565b90506104508261057a670de0b6b3a764000084610ba1565b68056bc75e2d6310000081565b6704a03ce68d21555681565b6542524f4e5a4560d01b90565b6000806106cc8787610868565b905060006106da8686610868565b905060006106e88383610868565b9050600061070a670de0b6b3a764000061044b670de0b6b3a764000089610ba1565b90506107168282610adf565b9a9950505050505050505050565b600881565b600281565b600181565b6000806107408786610868565b90506000610756670de0b6b3a764000085610ba1565b90506107628582610adf565b905060006107748a61044b8c8561097d565b9050600061078282856109d1565b90506000610798670de0b6b3a764000083610ba1565b90506107a48a82610adf565b9c9b505050505050505050505050565b600a670de0b6b3a764000061039b565b671bc16d674ec7ffff81565b600081565b6002670de0b6b3a764000061039b565b6000806107f28588610868565b905060006108008786610ba1565b9050600061080e8883610868565b9050600061081c82856109d1565b905061083081670de0b6b3a7640000610ba1565b9050610844670de0b6b3a764000087610ba1565b94506108596108538c83610adf565b86610868565b9b9a5050505050505050505050565b6000816108ab576040805162461bcd60e51b815260206004820152600c60248201526b4552525f4449565f5a45524f60a01b604482015290519081900360640190fd5b670de0b6b3a764000083028315806108d35750670de0b6b3a76400008482816108d057fe5b04145b610917576040805162461bcd60e51b815260206004820152601060248201526f11549497d1125597d25395115493905360821b604482015290519081900360640190fd5b60028304810181811015610965576040805162461bcd60e51b815260206004820152601060248201526f11549497d1125597d25395115493905360821b604482015290519081900360640190fd5b600084828161097057fe5b0493505050505b92915050565b6000828201838110156109ca576040805162461bcd60e51b815260206004820152601060248201526f4552525f4144445f4f564552464c4f5760801b604482015290519081900360640190fd5b9392505050565b60006001831015610a21576040805162461bcd60e51b81526020600482015260156024820152744552525f42504f575f424153455f544f4f5f4c4f5760581b604482015290519081900360640190fd5b671bc16d674ec7ffff831115610a77576040805162461bcd60e51b815260206004820152601660248201527508aa4a4be84a09eaebe8482a68abea89e9ebe90928e960531b604482015290519081900360640190fd5b6000610a8283610c03565b90506000610a908483610ba1565b90506000610aa686610aa185610c1e565b610c2c565b905081610ab7579250610977915050565b6000610ac887846305f5e100610c83565b9050610ad48282610adf565b979650505050505050565b6000828202831580610af9575082848281610af657fe5b04145b610b3d576040805162461bcd60e51b815260206004820152601060248201526f4552525f4d554c5f4f564552464c4f5760801b604482015290519081900360640190fd5b6706f05b59d3b20000810181811015610b90576040805162461bcd60e51b815260206004820152601060248201526f4552525f4d554c5f4f564552464c4f5760801b604482015290519081900360640190fd5b6000670de0b6b3a764000082610970565b6000806000610bb08585610d61565b915091508015610bfb576040805162461bcd60e51b81526020600482015260116024820152704552525f5355425f554e444552464c4f5760781b604482015290519081900360640190fd5b509392505050565b6000670de0b6b3a7640000610c1783610c1e565b0292915050565b670de0b6b3a7640000900490565b60008060028306610c4557670de0b6b3a7640000610c47565b835b90506002830492505b82156109ca57610c608485610adf565b93506002830615610c7857610c758185610adf565b90505b600283049250610c50565b6000828180610c9a87670de0b6b3a7640000610d61565b9092509050670de0b6b3a764000080600060015b888410610d52576000670de0b6b3a764000082029050600080610ce28a610cdd85670de0b6b3a7640000610ba1565b610d61565b91509150610cf48761057a848c610adf565b9650610d008784610868565b965086610d0f57505050610d52565b8715610d19579315935b8015610d23579315935b8415610d3a57610d338688610ba1565b9550610d47565b610d44868861097d565b95505b505050600101610cae565b50909998505050505050505050565b600080828410610d775750508082036000610d7f565b505081810360015b925092905056fea2646970667358221220dc4c07e6e538ad44abdacc842a0c0a4adde8d8a102770a0b164c84fb8937dd6f64736f6c63430007060033",
  "linkReferences": {},
  "deployedLinkReferences": {}
}