{
  "_format": "hh-sol-artifact-1",
  "contractName": "TrustedArbiter",
  "sourceName": "contracts/turbo/TrustedArbiter.sol",
  "abi": [
    {
      "inputs": [
        {
          "internalType": "address",
          "name": "_owner",
          "type": "address"
        },
        {
          "internalType": "contract ITurboHatchery",
          "name": "_hatchery",
          "type": "address"
        }
      ],
      "stateMutability": "nonpayable",
      "type": "constructor"
    },
    {
      "inputs": [
        {
          "internalType": "bytes",
          "name": "_arbiterConfiguration",
          "type": "bytes"
        }
      ],
      "name": "decodeConfiguration",
      "outputs": [
        {
          "components": [
            {
              "internalType": "uint256",
              "name": "startTime",
              "type": "uint256"
            },
            {
              "internalType": "uint256",
              "name": "duration",
              "type": "uint256"
            },
            {
              "internalType": "string",
              "name": "extraInfo",
              "type": "string"
            },
            {
              "internalType": "int256[]",
              "name": "prices",
              "type": "int256[]"
            },
            {
              "internalType": "enum TrustedArbiter.MarketType",
              "name": "marketType",
              "type": "uint8"
            }
          ],
          "internalType": "struct TrustedArbiter.TrustedConfiguration",
          "name": "",
          "type": "tuple"
        }
      ],
      "stateMutability": "pure",
      "type": "function"
    },
    {
      "inputs": [
        {
          "internalType": "uint256",
          "name": "_startTime",
          "type": "uint256"
        },
        {
          "internalType": "uint256",
          "name": "_duration",
          "type": "uint256"
        },
        {
          "internalType": "string",
          "name": "_extraInfo",
          "type": "string"
        },
        {
          "internalType": "int256[]",
          "name": "_prices",
          "type": "int256[]"
        },
        {
          "internalType": "enum TrustedArbiter.MarketType",
          "name": "_marketType",
          "type": "uint8"
        }
      ],
      "name": "encodeConfiguration",
      "outputs": [
        {
          "internalType": "bytes",
          "name": "",
          "type": "bytes"
        }
      ],
      "stateMutability": "pure",
      "type": "function"
    },
    {
      "inputs": [],
      "name": "getOwner",
      "outputs": [
        {
          "internalType": "address",
          "name": "",
          "type": "address"
        }
      ],
      "stateMutability": "view",
      "type": "function"
    },
    {
      "inputs": [
        {
          "internalType": "uint256[]",
          "name": "_payout",
          "type": "uint256[]"
        }
      ],
      "name": "getPayoutHash",
      "outputs": [
        {
          "internalType": "bytes32",
          "name": "",
          "type": "bytes32"
        }
      ],
      "stateMutability": "pure",
      "type": "function"
    },
    {
      "inputs": [
        {
          "internalType": "uint256",
          "name": "_id",
          "type": "uint256"
        }
      ],
      "name": "getTurbo",
      "outputs": [
        {
          "components": [
            {
              "internalType": "uint256",
              "name": "startTime",
              "type": "uint256"
            },
            {
              "internalType": "uint256",
              "name": "endTime",
              "type": "uint256"
            },
            {
              "internalType": "string",
              "name": "extraInfo",
              "type": "string"
            },
            {
              "internalType": "uint256",
              "name": "numTicks",
              "type": "uint256"
            },
            {
              "internalType": "bytes32[]",
              "name": "outcomeNames",
              "type": "bytes32[]"
            },
            {
              "internalType": "string[]",
              "name": "outcomeSymbols",
              "type": "string[]"
            },
            {
              "internalType": "int256[]",
              "name": "prices",
              "type": "int256[]"
            },
            {
              "internalType": "enum TrustedArbiter.MarketType",
              "name": "marketType",
              "type": "uint8"
            },
            {
              "internalType": "bytes32",
              "name": "winningPayoutHash",
              "type": "bytes32"
            },
            {
              "internalType": "uint256",
              "name": "totalStake",
              "type": "uint256"
            }
          ],
          "internalType": "struct TrustedArbiter.TurboData",
          "name": "_data",
          "type": "tuple"
        }
      ],
      "stateMutability": "view",
      "type": "function"
    },
    {
      "inputs": [
        {
          "internalType": "uint256",
          "name": "_id",
          "type": "uint256"
        }
      ],
      "name": "getTurboResolution",
      "outputs": [
        {
          "internalType": "uint256[]",
          "name": "",
          "type": "uint256[]"
        }
      ],
      "stateMutability": "view",
      "type": "function"
    },
    {
      "inputs": [],
      "name": "hatchery",
      "outputs": [
        {
          "internalType": "address",
          "name": "",
          "type": "address"
        }
      ],
      "stateMutability": "view",
      "type": "function"
    },
    {
      "inputs": [
        {
          "internalType": "uint256",
          "name": "_id",
          "type": "uint256"
        },
        {
          "internalType": "string[]",
          "name": "_outcomeSymbols",
          "type": "string[]"
        },
        {
          "internalType": "bytes32[]",
          "name": "_outcomeNames",
          "type": "bytes32[]"
        },
        {
          "internalType": "uint256",
          "name": "_numTicks",
          "type": "uint256"
        },
        {
          "internalType": "bytes",
          "name": "_arbiterConfiguration",
          "type": "bytes"
        }
      ],
      "name": "onTurboCreated",
      "outputs": [],
      "stateMutability": "nonpayable",
      "type": "function"
    },
    {
      "inputs": [
        {
          "internalType": "uint256",
          "name": "_id",
          "type": "uint256"
        },
        {
          "internalType": "uint256[]",
          "name": "_payout",
          "type": "uint256[]"
        }
      ],
      "name": "setTurboResolution",
      "outputs": [],
      "stateMutability": "nonpayable",
      "type": "function"
    },
    {
      "inputs": [
        {
          "internalType": "address",
          "name": "_newOwner",
          "type": "address"
        }
      ],
      "name": "transferOwnership",
      "outputs": [
        {
          "internalType": "bool",
          "name": "",
          "type": "bool"
        }
      ],
      "stateMutability": "nonpayable",
      "type": "function"
    },
    {
      "inputs": [
        {
          "internalType": "uint256",
          "name": "",
          "type": "uint256"
        }
      ],
      "name": "turboData",
      "outputs": [
        {
          "internalType": "uint256",
          "name": "startTime",
          "type": "uint256"
        },
        {
          "internalType": "uint256",
          "name": "endTime",
          "type": "uint256"
        },
        {
          "internalType": "string",
          "name": "extraInfo",
          "type": "string"
        },
        {
          "internalType": "uint256",
          "name": "numTicks",
          "type": "uint256"
        },
        {
          "internalType": "enum TrustedArbiter.MarketType",
          "name": "marketType",
          "type": "uint8"
        },
        {
          "internalType": "bytes32",
          "name": "winningPayoutHash",
          "type": "bytes32"
        },
        {
          "internalType": "uint256",
          "name": "totalStake",
          "type": "uint256"
        }
      ],
      "stateMutability": "view",
      "type": "function"
    },
    {
      "inputs": [
        {
          "internalType": "uint256",
          "name": "_id",
          "type": "uint256"
        },
        {
          "internalType": "uint256[]",
          "name": "_payout",
          "type": "uint256[]"
        }
      ],
      "name": "validatePayout",
      "outputs": [
        {
          "internalType": "bool",
          "name": "",
          "type": "bool"
        }
      ],
      "stateMutability": "view",
      "type": "function"
    }
  ],
  "bytecode": "0x60806040523480156200001157600080fd5b50604051620019593803806200195983398101604081905262000034916200006a565b600080546001600160a01b039384166001600160a01b0319918216331782161790915560018054929093169116179055620000c1565b600080604083850312156200007d578182fd5b82516200008a81620000a8565b60208401519092506200009d81620000a8565b809150509250929050565b6001600160a01b0381168114620000be57600080fd5b50565b61188880620000d16000396000f3fe608060405234801561001057600080fd5b50600436106100b45760003560e01c80638d395161116100715780638d395161146101545780639ebd245614610174578063b52f69791461019a578063bd99b063146101ad578063dcab0635146101cd578063f2fde38b146101ed576100b4565b80631f2e2ef6146100b9578063263f81f8146100e257806339f86c331461010257806348b164d2146101225780636302abb614610137578063893d20e81461014c575b600080fd5b6100cc6100c7366004610fe3565b610200565b6040516100d991906116a2565b60405180910390f35b6100f56100f0366004610fe3565b610494565b6040516100d9919061138f565b610115610110366004610eed565b6104f7565b6040516100d99190611638565b61012a61051c565b6040516100d9919061137b565b61014a610145366004610ffb565b61052b565b005b61012a6107a2565b610167610162366004610eba565b6107b1565b6040516100d991906113de565b610187610182366004610fe3565b6107e1565b6040516100d9979695949392919061176c565b61014a6101a83660046110e4565b6108a8565b6101c06101bb3660046111a2565b6108de565b6040516100d991906113e7565b6101e06101db36600461115d565b61093b565b6040516100d991906113d3565b6101e06101fb366004610e93565b610a3a565b610208610ab6565b6000828152600260208181526040928390208351610140810185528154815260018083015482850152828501805487519281161561010002600019011695909504601f810185900485028201850187528082529195929492860193909291908301828280156102b85780601f1061028d576101008083540402835291602001916102b8565b820191906000526020600020905b81548152906001019060200180831161029b57829003601f168201915b50505050508152602001600382015481526020016004820180548060200260200160405190810160405280929190818152602001828054801561031a57602002820191906000526020600020905b815481526020019060010190808311610306575b5050505050815260200160058201805480602002602001604051908101604052809291908181526020016000905b828210156103f35760008481526020908190208301805460408051601f60026000196101006001871615020190941693909304928301859004850281018501909152818152928301828280156103df5780601f106103b4576101008083540402835291602001916103df565b820191906000526020600020905b8154815290600101906020018083116103c257829003601f168201915b505050505081526020019060010190610348565b5050505081526020016006820180548060200260200160405190810160405280929190818152602001828054801561044a57602002820191906000526020600020905b815481526020019060010190808311610436575b5050509183525050600782015460209091019060ff16600281111561046b57fe5b600281111561047657fe5b81526008820154602082015260099091015460409091015292915050565b6000818152600360209081526040918290208054835181840281018401909452808452606093928301828280156104ea57602002820191906000526020600020905b8154815260200190600101908083116104d6575b505050505090505b919050565b6104ff610b14565b6000828060200190518101906105159190610f20565b9392505050565b6001546001600160a01b031681565b6001546001600160a01b0316331461055e5760405162461bcd60e51b8152600401610555906113fa565b60405180910390fd5b6000818060200190518101906105749190610f20565b9050428160000151116105995760405162461bcd60e51b815260040161055590611567565b806060015151600214806105b05750606081015151155b6105cc5760405162461bcd60e51b8152600401610555906115b2565b8060600151516002141561067a5780606001516001815181106105eb57fe5b6020026020010151816060015160008151811061060457fe5b6020026020010151126106295760405162461bcd60e51b8152600401610555906114c0565b82816060015160008151811061063b57fe5b6020026020010151826060015160018151811061065457fe5b6020026020010151031161067a5760405162461bcd60e51b815260040161055590611478565b60008160800151600281111561068c57fe5b14156106aa5760405162461bcd60e51b81526004016105559061144a565b80516000878152600260208181526040928390209384558085015185510160018501559184015180516106e294909201920190610b4d565b5060008681526002602090815260409091206003810185905560608301518051610716936006909301929190910190610bd9565b506000868152600260209081526040909120855161073c92600490920191870190610bd9565b506000868152600260209081526040909120865161076292600590920191880190610c13565b50608081015160008781526002602081905260409091206007018054909160ff1990911690600190849081111561079557fe5b0217905550505050505050565b6000546001600160a01b031690565b6000816040516020016107c49190611345565b604051602081830303815290604052805190602001209050919050565b6002602081815260009283526040928390208054600180830154838601805488519381161561010002600019011696909604601f8101869004860283018601909752868252919591949293909291908301828280156108815780601f1061085657610100808354040283529160200191610881565b820191906000526020600020905b81548152906001019060200180831161086457829003601f168201915b505050506003830154600784015460088501546009909501549394919360ff909116925087565b6000546001600160a01b031633146108bf57600080fd5b60008381526003602052604090206108d8908383610c6c565b50505050565b60606040518060a0016040528087815260200186815260200185815260200184815260200183600281111561090f57fe5b90526040516109219190602001611638565b604051602081830303815290604052905095945050505050565b6000828152600260205260408120600481015460039091015483516001909201918490849061096657fe5b60200260200101516000148061098f5750808460008151811061098557fe5b6020026020010151145b6109ab5760405162461bcd60e51b8152600401610555906114f7565b818451146109cb5760405162461bcd60e51b815260040161055590611601565b6000805b8551811015610a0e5760008682815181106109e657fe5b60200260200101519050610a038184610aa090919063ffffffff16565b9250506001016109cf565b50818114610a2e5760405162461bcd60e51b815260040161055590611539565b50600195945050505050565b600080546001600160a01b03163314610a5257600080fd5b6001600160a01b038216610a6557600080fd5b600054610a7b906001600160a01b031683610ab2565b50600080546001600160a01b0383166001600160a01b03199091161790556001919050565b60008282018381101561051557600080fd5b5050565b6040518061014001604052806000815260200160008152602001606081526020016000815260200160608152602001606081526020016060815260200160006002811115610b0057fe5b815260006020820181905260409091015290565b6040518060a001604052806000815260200160008152602001606081526020016060815260200160006002811115610b4857fe5b905290565b828054600181600116156101000203166002900490600052602060002090601f016020900481019282610b835760008555610bc9565b82601f10610b9c57805160ff1916838001178555610bc9565b82800160010185558215610bc9579182015b82811115610bc9578251825591602001919060010190610bae565b50610bd5929150610ca7565b5090565b828054828255906000526020600020908101928215610bc95791602002820182811115610bc9578251825591602001919060010190610bae565b828054828255906000526020600020908101928215610c60579160200282015b82811115610c605782518051610c50918491602090910190610b4d565b5091602001919060010190610c33565b50610bd5929150610cbc565b828054828255906000526020600020908101928215610bc9579160200282015b82811115610bc9578235825591602001919060010190610c8c565b5b80821115610bd55760008155600101610ca8565b80821115610bd5576000610cd08282610cd9565b50600101610cbc565b50805460018160011615610100020316600290046000825580601f10610cff5750610d1d565b601f016020900490600052602060002090810190610d1d9190610ca7565b50565b600082601f830112610d30578081fd5b81356020610d45610d40836117d9565b6117b5565b8281528181019085830183850287018401881015610d61578586fd5b855b85811015610d7f57813584529284019290840190600101610d63565b5090979650505050505050565b600082601f830112610d9c578081fd5b81516020610dac610d40836117d9565b8281528181019085830183850287018401881015610dc8578586fd5b855b85811015610d7f57815184529284019290840190600101610dca565b600082601f830112610df6578081fd5b8135610e04610d40826117f7565b818152846020838601011115610e18578283fd5b816020850160208301379081016020019190915292915050565b80356104f281611845565b80516104f281611845565b600082601f830112610e58578081fd5b8151610e66610d40826117f7565b818152846020838601011115610e7a578283fd5b610e8b826020830160208701611819565b949350505050565b600060208284031215610ea4578081fd5b81356001600160a01b0381168114610515578182fd5b600060208284031215610ecb578081fd5b813567ffffffffffffffff811115610ee1578182fd5b610e8b84828501610d20565b600060208284031215610efe578081fd5b813567ffffffffffffffff811115610f14578182fd5b610e8b84828501610de6565b600060208284031215610f31578081fd5b815167ffffffffffffffff80821115610f48578283fd5b9083019060a08286031215610f5b578283fd5b60405160a081018181108382111715610f7057fe5b80604052508251815260208301516020820152604083015182811115610f94578485fd5b610fa087828601610e48565b604083015250606083015182811115610fb7578485fd5b610fc387828601610d8c565b606083015250610fd560808401610e3d565b608082015295945050505050565b600060208284031215610ff4578081fd5b5035919050565b600080600080600060a08688031215611012578081fd5b8535945060208087013567ffffffffffffffff80821115611031578384fd5b818901915089601f830112611044578384fd5b8135611052610d40826117d9565b81815284810190848601875b84811015611087576110758f8984358a0101610de6565b8452928701929087019060010161105e565b5090995050505060408901359250808311156110a1578384fd5b6110ad8a848b01610d20565b95506060890135945060808901359250808311156110c9578384fd5b50506110d788828901610de6565b9150509295509295909350565b6000806000604084860312156110f8578081fd5b83359250602084013567ffffffffffffffff80821115611116578283fd5b818601915086601f830112611129578283fd5b813581811115611137578384fd5b876020808302850101111561114a578384fd5b6020830194508093505050509250925092565b6000806040838503121561116f578182fd5b82359150602083013567ffffffffffffffff81111561118c578182fd5b61119885828601610d20565b9150509250929050565b600080600080600060a086880312156111b9578283fd5b853594506020808701359450604087013567ffffffffffffffff808211156111df578586fd5b6111eb8a838b01610de6565b95506060890135915080821115611200578384fd5b508701601f81018913611211578283fd5b803561121f610d40826117d9565b81815283810190838501858402850186018d101561123b578687fd5b8694505b8385101561125d57803583526001949094019391850191850161123f565b50809650505050505061127260808701610e32565b90509295509295909350565b6000815180845260208085019450808401835b838110156112ad57815187529582019590820190600101611291565b509495945050505050565b6000815180845260208085018081965082840281019150828601855b858110156112fe5782840389526112ec84835161130b565b988501989350908401906001016112d4565b5091979650505050505050565b60008151808452611323816020860160208601611819565b601f01601f19169290920160200192915050565b6003811061134157fe5b9052565b815160009082906020808601845b8381101561136f57815185529382019390820190600101611353565b50929695505050505050565b6001600160a01b0391909116815260200190565b6020808252825182820181905260009190848201906040850190845b818110156113c7578351835292840192918401916001016113ab565b50909695505050505050565b901515815260200190565b90815260200190565b600060208252610515602083018461130b565b60208082526030908201527f43616e206f6e6c792063616c6c20606f6e547572626f4372656174656460206660408201526f726f6d2074686520686174636865727960801b606082015260800190565b602080825260149082015273165154cbd393c81b9bdd081c195c9b5a5d1d195960621b604082015260600190565b60208082526028908201527f50726963652072616e6765206d757374206265206c6172676572207468616e206040820152676e756d7469636b7360c01b606082015260800190565b6020808252601a908201527f466972737420707269636520697320746865206d696e696d756d000000000000604082015260600190565b60208082526022908201527f496e76616c6964207061796f7574206d75737420626520616c6c206f72206e6f6040820152616e6560f01b606082015260800190565b6020808252601490820152734d616c666f726d6564207061796f75742073756d60601b604082015260600190565b6020808252602b908201527f43616e6e6f74206372656174652061206d61726b65742074686174206973206160408201526a363932b0b23c9037bb32b960a91b606082015260800190565b6020808252602f908201527f5363616c6172206d61726b65747320686176652032207072696365732e20416c60408201526e06c206f74686572732068617665203608c1b606082015260800190565b60208082526017908201527f4d616c666f726d6564207061796f7574206c656e677468000000000000000000604082015260600190565b6000602082528251602083015260208301516040830152604083015160a0606084015261166860c084018261130b565b90506060840151601f19848303016080850152611685828261127e565b915050608084015161169a60a0850182611337565b509392505050565b600060208252825160208301526020830151604083015260408301516101408060608501526116d561016085018361130b565b9150606085015160808501526080850151601f19808685030160a08701526116fd848361127e565b935060a08701519150808685030160c087015261171a84836112b8565b935060c08701519150808685030160e087015250611738838261127e565b92505060e085015161010061174f81870183611337565b860151610120868101919091529095015193019290925250919050565b600088825287602083015260e0604083015261178b60e083018861130b565b90508560608301526117a06080830186611337565b60a082019390935260c0015295945050505050565b60405181810167ffffffffffffffff811182821017156117d157fe5b604052919050565b600067ffffffffffffffff8211156117ed57fe5b5060209081020190565b600067ffffffffffffffff82111561180b57fe5b50601f01601f191660200190565b60005b8381101561183457818101518382015260200161181c565b838111156108d85750506000910152565b60038110610d1d57600080fdfea2646970667358221220a1f371688ce23036efc4a366291eb92f1db1df5abe5a22decae1918b5d62e78a64736f6c63430007060033",
  "linkReferences": {},
  "deployedLinkReferences": {}
}