{
  "_format": "hh-sol-artifact-1",
  "contractName": "TrustedArbiter",
  "sourceName": "contracts/turbo/TrustedArbiter.sol",
  "abi": [
    {
      "inputs": [
        {
          "internalType": "address",
          "name": "_owner",
          "type": "address"
        },
        {
          "internalType": "contract ITurboHatchery",
          "name": "_hatchery",
          "type": "address"
        }
      ],
      "stateMutability": "nonpayable",
      "type": "constructor"
    },
    {
      "inputs": [
        {
          "internalType": "bytes",
          "name": "_arbiterConfiguration",
          "type": "bytes"
        }
      ],
      "name": "decodeConfiguration",
      "outputs": [
        {
          "components": [
            {
              "internalType": "uint256",
              "name": "startTime",
              "type": "uint256"
            },
            {
              "internalType": "uint256",
              "name": "duration",
              "type": "uint256"
            },
            {
              "internalType": "string",
              "name": "extraInfo",
              "type": "string"
            },
            {
              "internalType": "int256[]",
              "name": "prices",
              "type": "int256[]"
            },
            {
              "internalType": "enum TrustedArbiter.MarketType",
              "name": "marketType",
              "type": "uint8"
            }
          ],
          "internalType": "struct TrustedArbiter.TrustedConfiguration",
          "name": "",
          "type": "tuple"
        }
      ],
      "stateMutability": "pure",
      "type": "function"
    },
    {
      "inputs": [
        {
          "internalType": "uint256",
          "name": "_startTime",
          "type": "uint256"
        },
        {
          "internalType": "uint256",
          "name": "_duration",
          "type": "uint256"
        },
        {
          "internalType": "string",
          "name": "_extraInfo",
          "type": "string"
        },
        {
          "internalType": "int256[]",
          "name": "_prices",
          "type": "int256[]"
        },
        {
          "internalType": "enum TrustedArbiter.MarketType",
          "name": "_marketType",
          "type": "uint8"
        }
      ],
      "name": "encodeConfiguration",
      "outputs": [
        {
          "internalType": "bytes",
          "name": "",
          "type": "bytes"
        }
      ],
      "stateMutability": "pure",
      "type": "function"
    },
    {
      "inputs": [],
      "name": "getOwner",
      "outputs": [
        {
          "internalType": "address",
          "name": "",
          "type": "address"
        }
      ],
      "stateMutability": "view",
      "type": "function"
    },
    {
      "inputs": [
        {
          "internalType": "uint256[]",
          "name": "_payout",
          "type": "uint256[]"
        }
      ],
      "name": "getPayoutHash",
      "outputs": [
        {
          "internalType": "bytes32",
          "name": "",
          "type": "bytes32"
        }
      ],
      "stateMutability": "pure",
      "type": "function"
    },
    {
      "inputs": [
        {
          "internalType": "uint256",
          "name": "_id",
          "type": "uint256"
        }
      ],
      "name": "getTurbo",
      "outputs": [
        {
          "components": [
            {
              "internalType": "uint256",
              "name": "startTime",
              "type": "uint256"
            },
            {
              "internalType": "uint256",
              "name": "endTime",
              "type": "uint256"
            },
            {
              "internalType": "string",
              "name": "extraInfo",
              "type": "string"
            },
            {
              "internalType": "uint256",
              "name": "numTicks",
              "type": "uint256"
            },
            {
              "internalType": "bytes32[]",
              "name": "outcomeNames",
              "type": "bytes32[]"
            },
            {
              "internalType": "string[]",
              "name": "outcomeSymbols",
              "type": "string[]"
            },
            {
              "internalType": "int256[]",
              "name": "prices",
              "type": "int256[]"
            },
            {
              "internalType": "enum TrustedArbiter.MarketType",
              "name": "marketType",
              "type": "uint8"
            },
            {
              "internalType": "bytes32",
              "name": "winningPayoutHash",
              "type": "bytes32"
            },
            {
              "internalType": "uint256",
              "name": "totalStake",
              "type": "uint256"
            }
          ],
          "internalType": "struct TrustedArbiter.TurboData",
          "name": "_data",
          "type": "tuple"
        }
      ],
      "stateMutability": "view",
      "type": "function"
    },
    {
      "inputs": [
        {
          "internalType": "uint256",
          "name": "_id",
          "type": "uint256"
        }
      ],
      "name": "getTurboResolution",
      "outputs": [
        {
          "internalType": "uint256[]",
          "name": "",
          "type": "uint256[]"
        }
      ],
      "stateMutability": "view",
      "type": "function"
    },
    {
      "inputs": [],
      "name": "hatchery",
      "outputs": [
        {
          "internalType": "address",
          "name": "",
          "type": "address"
        }
      ],
      "stateMutability": "view",
      "type": "function"
    },
    {
      "inputs": [
        {
          "internalType": "uint256",
          "name": "_id",
          "type": "uint256"
        },
        {
          "internalType": "string[]",
          "name": "_outcomeSymbols",
          "type": "string[]"
        },
        {
          "internalType": "bytes32[]",
          "name": "_outcomeNames",
          "type": "bytes32[]"
        },
        {
          "internalType": "uint256",
          "name": "_numTicks",
          "type": "uint256"
        },
        {
          "internalType": "bytes",
          "name": "_arbiterConfiguration",
          "type": "bytes"
        }
      ],
      "name": "onTurboCreated",
      "outputs": [],
      "stateMutability": "nonpayable",
      "type": "function"
    },
    {
      "inputs": [
        {
          "internalType": "uint256",
          "name": "_id",
          "type": "uint256"
        },
        {
          "internalType": "uint256[]",
          "name": "_payout",
          "type": "uint256[]"
        }
      ],
      "name": "setTurboResolution",
      "outputs": [],
      "stateMutability": "nonpayable",
      "type": "function"
    },
    {
      "inputs": [
        {
          "internalType": "address",
          "name": "_newOwner",
          "type": "address"
        }
      ],
      "name": "transferOwnership",
      "outputs": [
        {
          "internalType": "bool",
          "name": "",
          "type": "bool"
        }
      ],
      "stateMutability": "nonpayable",
      "type": "function"
    },
    {
      "inputs": [
        {
          "internalType": "uint256",
          "name": "",
          "type": "uint256"
        }
      ],
      "name": "turboData",
      "outputs": [
        {
          "internalType": "uint256",
          "name": "startTime",
          "type": "uint256"
        },
        {
          "internalType": "uint256",
          "name": "endTime",
          "type": "uint256"
        },
        {
          "internalType": "string",
          "name": "extraInfo",
          "type": "string"
        },
        {
          "internalType": "uint256",
          "name": "numTicks",
          "type": "uint256"
        },
        {
          "internalType": "enum TrustedArbiter.MarketType",
          "name": "marketType",
          "type": "uint8"
        },
        {
          "internalType": "bytes32",
          "name": "winningPayoutHash",
          "type": "bytes32"
        },
        {
          "internalType": "uint256",
          "name": "totalStake",
          "type": "uint256"
        }
      ],
      "stateMutability": "view",
      "type": "function"
    },
    {
      "inputs": [
        {
          "internalType": "uint256",
          "name": "_id",
          "type": "uint256"
        },
        {
          "internalType": "uint256[]",
          "name": "_payout",
          "type": "uint256[]"
        }
      ],
      "name": "validatePayout",
      "outputs": [
        {
          "internalType": "bool",
          "name": "",
          "type": "bool"
        }
      ],
      "stateMutability": "view",
      "type": "function"
    }
  ],
  "bytecode": "0x60806040523480156200001c5760008062000019620000fd565b50505b5060405162002285380380620022858339810160408190526200003f9162000262565b5a6200004a6200016a565b600060018162000059620001c6565b816001600160a01b0302191690836001600160a01b03160217906200007d62000213565b505050816000806101000a8162000093620001c6565b816001600160a01b0302191690836001600160a01b0316021790620000b762000213565b50505080600160006101000a81620000ce620001c6565b816001600160a01b0302191690836001600160a01b0316021790620000f262000213565b5050505050620002cb565b632a2a7adb598160e01b8152600481016020815285602082015260005b86811015620001375780860151828201604001526020016200011a565b506020828760640184336000905af158600e01573d6000803e3d6000fd5b3d6001141558600a015760016000f35b505050565b6373509064598160e01b8152602081600483336000905af158600e01573d6000803e3d6000fd5b3d6001141558600a015760016000f35b8051935060005b6040811015620001c157600082820152602001620001a8565b505050565b6303daa959598160e01b8152836004820152602081602483336000905af158600e01573d6000803e3d6000fd5b3d6001141558600a015760016000f35b80516000825293506020620001a8565b6322bd64c0598160e01b8152836004820152846024820152600081604483336000905af158600e01573d6000803e3d6000fd5b3d6001141558600a015760016000f35b600081526020620001a8565b60008060408385031215620002805781826200027d620000fd565b50505b82516200028d81620002aa565b915060208301516200029f81620002aa565b809150509250929050565b6001600160a01b0381168114620002c857600080620001c1620000fd565b50565b611faa80620002db6000396000f3fe608060405234801561001957600080610016610de7565b50505b50600436106100bd5760003560e01c80638d3951611161007a5780638d395161146101665780639ebd245614610186578063b52f6979146101ac578063bd99b063146101bf578063dcab0635146101df578063f2fde38b146101ff576100bd565b80631f2e2ef6146100cb578063263f81f8146100f457806339f86c331461011457806348b164d2146101345780636302abb614610149578063893d20e81461015e575b6000806100c8610de7565b50505b6100de6100d936600461168b565b610212565b6040516100eb9190611dea565b60405180910390f35b61010761010236600461168b565b61055d565b6040516100eb9190611ad6565b610127610122366004611558565b6105d9565b6040516100eb9190611d80565b61013c6105fd565b6040516100eb9190611ac2565b61015c6101573660046116ac565b61061c565b005b61013c610975565b610179610174366004611513565b610996565b6040516100eb9190611b26565b61019961019436600461168b565b6109c5565b6040516100eb9796959493929190611eba565b61015c6101ba3660046117c2565b610ae9565b6101d26101cd3660046118bf565b610b55565b6040516100eb9190611b2f565b6101f26101ed366004611868565b610bb2565b6040516100eb9190611b1b565b6101f261020d3660046114dd565b610cfd565b61021a610e52565b6000828152600260205260409020604051610140810160405290818161023e610eb0565b81526020016001820161024f610eb0565b81526020016002820180610261610eb0565b600181600116156101000203166002900480601f01602080910402602001604051908101604052818152919060208301828061029b610eb0565b600181600116156101000203166002900480156103075780601f106102d55761010080836102c7610eb0565b040283529160200191610307565b820191906000526020600020905b816102ec610eb0565b815290600101906020018083116102e357829003601f168201915b505050505081526020016003820161031d610eb0565b8152602001600482018061032f610eb0565b806020026020016040519081016040528181529190602083018280610352610eb0565b801561038457602002820191906000526020600020905b81610372610eb0565b81526020019060010190808311610369575b50505050508152602001600582018061039b610eb0565b8060200260200160405190810160405281815291906000602084015b8282101561048e57838290600052602060002001806103d4610eb0565b600181600116156101000203166002900480601f01602080910402602001604051908101604052818152919060208301828061040e610eb0565b6001816001161561010002031660029004801561047a5780601f1061044857610100808361043a610eb0565b04028352916020019161047a565b820191906000526020600020905b8161045f610eb0565b8152906001019060200180831161045657829003601f168201915b5050505050815260200190600101906103b7565b50505050815260200160068201806104a4610eb0565b8060200260200160405190810160405281815291906020830182806104c7610eb0565b80156104f957602002820191906000526020600020905b816104e7610eb0565b815260200190600101908083116104de575b5050505050815260200160078201600090610512610eb0565b906101000a900460ff16600281111561052757fe5b600281111561053257fe5b815260200160088201610543610eb0565b815260200160098201610554610eb0565b90525092915050565b600081815260036020526060906040902080610577610eb0565b80602002602001604051908101604052818152919060208301828061059a610eb0565b80156105cc57602002820191906000526020600020905b816105ba610eb0565b815260200190600101908083116105b1575b505050505090505b919050565b6105e1610f10565b60006020830183518101906105f6919061159d565b9392505050565b60006001610609610eb0565b906101000a90046001600160a01b031681565b60006001610628610eb0565b906101000a90046001600160a01b03166001600160a01b03165a61064a610f49565b6001600160a01b0316146106825760405162461bcd60e51b815260040161067090611b42565b6040518091039061067f610de7565b50505b6000602082018251810190610697919061159d565b90505a6106a2610f8f565b8151116106d35760405162461bcd60e51b81526004016106c190611caf565b604051809103906106d0610de7565b50505b806060015151600214806106ea5750806060015151155b6107185760405162461bcd60e51b815260040161070690611cfa565b60405180910390610715610de7565b50505b806060015151600214156107ea57806060015160018151811061073757fe5b6020026020010151816060015160008151811061075057fe5b6020026020010151126107875760405162461bcd60e51b815260040161077590611c08565b60405180910390610784610de7565b50505b82816060015160008151811061079957fe5b602002602001015182606001516001815181106107b257fe5b602002602001015103116107ea5760405162461bcd60e51b81526004016107d890611bc0565b604051809103906107e7610de7565b50505b6000816080015160028111156107fc57fe5b141561082c5760405162461bcd60e51b815260040161081a90611b92565b60405180910390610829610de7565b50505b805160008781526002602052604090208190610846610fd5565b505050806020015181516000888152600260205291019060409020600101819061086e610fd5565b50505080604001516000878152600260205260409020600201908051610898929160200190611023565b506000868152600260205283906040902060030181906108b6610fd5565b505050806060015160008781526002602052604090206006019080516108e09291602001906110d3565b5060008681526002602052849060409020600401908051610905929160200190611133565b506000868152600260205285906040902060050190805161092a929160200190611193565b508060800151600087815260026020526040902060070160018161094c610eb0565b8160ff0219169083600281111561095f57fe5b02179061096a610fd5565b505050505050505050565b60008080610981610eb0565b906101000a90046001600160a01b0316905090565b6000816040516020016109a99190611a8b565b6040516020818303038152906040528051906020012092915050565b60026020528060005260406000209050806109de610eb0565b90806001016109eb610eb0565b9080600201806109f9610eb0565b600181600116156101000203166002900480601f016020809104026020016040519081016040528181529190602083018280610a33610eb0565b60018160011615610100020316600290048015610a9f5780601f10610a6d576101008083610a5f610eb0565b040283529160200191610a9f565b820191906000526020600020905b81610a84610eb0565b81529060010190602001808311610a7b57829003601f168201915b50505050509080600301610ab1610eb0565b90600060078201610ac0610eb0565b906101000a900460ff169080600801610ad7610eb0565b9080600901610ae4610eb0565b905087565b600080610af4610eb0565b906101000a90046001600160a01b03166001600160a01b03165a610b16610f49565b6001600160a01b031614610b3257600080610b2f610de7565b50505b600083815260036020528290829060409020610b4f9290916111fb565b50505050565b60606040518060a00160405280878152602001868152602001858152602001848152602001836002811115610b8657fe5b9052604051602001610b989190611d80565b604051602081830303815290604052905095945050505050565b60008281526002602052806040812060040180610bcd610eb0565b6000868152600260205260019091019250905060408120600301610bef610eb0565b905083600081518110610bfe57fe5b60200260200101511580610c2557508084600081518110610c1b57fe5b6020026020010151145b610c535760405162461bcd60e51b8152600401610c4190611c3f565b60405180910390610c50610de7565b50505b81845114610c855760405162461bcd60e51b8152600401610c7390611d49565b60405180910390610c82610de7565b50505b6000805b8551811015610cbf576000868281518110610ca057fe5b60200260200101519050610cb48382610dc2565b925050600101610c89565b50818114610cf15760405162461bcd60e51b8152600401610cdf90611c81565b60405180910390610cee610de7565b50505b50600195945050505050565b60008080610d09610eb0565b906101000a90046001600160a01b03166001600160a01b03165a610d2b610f49565b6001600160a01b031614610d4757600080610d44610de7565b50505b6001600160a01b038216610d6357600080610d60610de7565b50505b610d87600080610d71610eb0565b906101000a90046001600160a01b031683610de3565b816000600181610d95610eb0565b816001600160a01b0302191690836001600160a01b0316021790610db7610fd5565b506001949350505050565b6000828201838110156105f657600080610dda610de7565b50509392505050565b5050565b632a2a7adb598160e01b8152600481016020815285602082015260005b86811015610e1f578086015182820160400152602001610e04565b506020828760640184336000905af158600e01573d6000803e3d6000fd5b3d6001141558600a015760016000f35b505050565b6040518061014001604052806000815260200160008152602001606081526020016000815260200160608152602001606081526020016060815260200160006002811115610e9c57fe5b815260006020820181905260409091015290565b6303daa959598160e01b8152836004820152602081602483336000905af158600e01573d6000803e3d6000fd5b3d6001141558600a015760016000f35b8051935060005b6040811015610f0b57600082820152602001610ef4565b505050565b6040518060a001604052806000815260200160008152602001606081526020016060815260200160006002811115610f4457fe5b905290565b6373509064598160e01b8152602081600483336000905af158600e01573d6000803e3d6000fd5b3d6001141558600a015760016000f35b80516000825293506020610ef4565b63bdbf8c36598160e01b8152602081600483336000905af158600e01573d6000803e3d6000fd5b3d6001141558600a015760016000f35b80516000825293506020610ef4565b6322bd64c0598160e01b8152836004820152846024820152600081604483336000905af158600e01573d6000803e3d6000fd5b3d6001141558600a015760016000f35b600081526020610ef4565b828061102d610eb0565b600181600116156101000203166002900490600052602060002090601f01602090048101928261106957600085611062610fd5565b50506110c3565b82601f1061108457805160ff19168380011785611062610fd5565b82800160010185611093610fd5565b505082156110c3579182015b828111156110c3578251826110b2610fd5565b50509160200191906001019061109f565b506110cf92915061124f565b5090565b82806110dd610eb0565b82826110e7610fd5565b5050906000526020600020908101928215611127579160200282015b8281111561112757825182611116610fd5565b505091602001919060010190611103565b506110cf92915061126e565b828061113d610eb0565b8282611147610fd5565b5050906000526020600020908101928215611187579160200282015b8281111561118757825182611176610fd5565b505091602001919060010190611163565b506110cf92915061128d565b828061119d610eb0565b82826111a7610fd5565b50509060005260206000209081019282156111ef579160200282015b828111156111ef578251829080516111df929160200190611023565b50916020019190600101906111c3565b506110cf9291506112ac565b8280611205610eb0565b828261120f610fd5565b50509060005260206000209081019282156110c3579160200282015b828111156110c35782358261123e610fd5565b50509160200191906001019061122b565b808211156110cf5760008082611263610fd5565b50505060010161124f565b808211156110cf5760008082611282610fd5565b50505060010161126e565b808211156110cf57600080826112a1610fd5565b50505060010161128d565b808211156110cf5760006112c082826112c9565b506001016112ac565b50806112d3610eb0565b60018160011615610100020316600290046000826112ef610fd5565b505080601f106112ff575061131b565b601f016020900490600052602060002061131b9181019061124f565b50565b600082601f830112611337578081611334610de7565b50505b8135602061134c61134783611f2b565b611f03565b828152818101908583018385028701840188101561137157858661136e610de7565b50505b855b8581101561138f57813584529284019290840190600101611373565b5090979650505050505050565b600082601f8301126113b55780816113b2610de7565b50505b815160206113c561134783611f2b565b82815281810190858301838502870184018810156113ea5785866113e7610de7565b50505b855b8581101561138f578151845292840192908401906001016113ec565b600082601f83011261142157808161141e610de7565b50505b813561142f61134782611f49565b81815284602083860101111561144c578283611449610de7565b50505b816020850160208301379081016020019190915292915050565b80356105d481611f97565b6000815190506105d481611f97565b600082601f830112611499578081611496610de7565b50505b81516114a761134782611f49565b8181528460208386010111156114c45782836114c1610de7565b50505b6114d5826020830160208701611f6b565b949350505050565b6000602082840312156114f75780816114f4610de7565b50505b81356001600160a01b03811681146105f6578182610dda610de7565b60006020828403121561152d57808161152a610de7565b50505b813567ffffffffffffffff81111561154c578182611549610de7565b50505b6114d58482850161131e565b60006020828403121561157257808161156f610de7565b50505b813567ffffffffffffffff81111561159157818261158e610de7565b50505b6114d584828501611408565b6000602082840312156115b75780816115b4610de7565b50505b815167ffffffffffffffff808211156115d75782836115d4610de7565b50505b9083019060a082860312156115f35782836115f0610de7565b50505b60405160a08101818110838211171561160857fe5b6040528251815260208301516020820152604083015182811115611633578485611630610de7565b50505b61163f87828601611480565b60408301525060608301518281111561165f57848561165c610de7565b50505b61166b8782860161139c565b60608301525061167d60808401611471565b608082015295945050505050565b6000602082840312156116a55780816116a2610de7565b50505b5035919050565b600080600080600060a086880312156116cc5780816116c9610de7565b50505b8535945060208087013567ffffffffffffffff808211156116f45783846116f1610de7565b50505b818901915089601f83011261171057838461170d610de7565b50505b813561171e61134782611f2b565b81815284810190848601875b84811015611753576117418f8984358a0101611408565b8452928701929087019060010161172a565b509099505050506040890135925080831115611776578384611773610de7565b50505b6117828a848b0161131e565b95506060890135945060808901359250808311156117a75783846117a4610de7565b50505b50506117b588828901611408565b9150509295509295909350565b6000806000604084860312156117df5780816117dc610de7565b50505b83359250602084013567ffffffffffffffff80821115611806578283611803610de7565b50505b818601915086601f83011261182257828361181f610de7565b50505b813581811115611839578384611836610de7565b50505b8760208083028501011115611855578384611852610de7565b50505b6020830194508093505050509250925092565b60008060408385031215611883578182611880610de7565b50505b82359150602083013567ffffffffffffffff8111156118a95781826118a6610de7565b50505b6118b58582860161131e565b9150509250929050565b600080600080600060a086880312156118df5782836118dc610de7565b50505b853594506020808701359450604087013567ffffffffffffffff8082111561190e57858661190b610de7565b50505b61191a8a838b01611408565b95506060890135915080821115611938578384611935610de7565b50505b508701601f8101891361195257828361194f610de7565b50505b803561196061134782611f2b565b81815283810190838501858402850186018d1015611985578687611982610de7565b50505b8694505b838510156119a7578035835260019490940193918501918501611989565b5080965050505050506119bc60808701611466565b90509295509295909350565b60008151808452602093840193838101835b838110156119f6578151875295820195908201906001016119da565b509495945050505050565b6000815180845260208085019481830201810185858301855b85811015611a44578284038952611a32848351611a51565b98850198935090840190600101611a1a565b5091979650505050505050565b60008151808452611a69816020860160208601611f6b565b601f01601f19169290920160200192915050565b60038110611a8757fe5b9052565b60008183518391506020808601845b83811015611ab657815185529382019390820190600101611a9a565b50929695505050505050565b6001600160a01b0391909116815260200190565b600060208083018184528085518083526040860191508387019250845b81811015611b0f57835183529284019291840191600101611af3565b50909695505050505050565b901515815260200190565b90815260200190565b6000602082526105f66020830184611a51565b60208082526030908201527f43616e206f6e6c792063616c6c20606f6e547572626f4372656174656460206660408201526f726f6d2074686520686174636865727960801b606082015260800190565b602080825260149082015273165154cbd393c81b9bdd081c195c9b5a5d1d195960621b604082015260600190565b60208082526028908201527f50726963652072616e6765206d757374206265206c6172676572207468616e206040820152676e756d7469636b7360c01b606082015260800190565b6020808252601a908201527f466972737420707269636520697320746865206d696e696d756d000000000000604082015260600190565b60208082526022908201527f496e76616c6964207061796f7574206d75737420626520616c6c206f72206e6f6040820152616e6560f01b606082015260800190565b6020808252601490820152734d616c666f726d6564207061796f75742073756d60601b604082015260600190565b6020808252602b908201527f43616e6e6f74206372656174652061206d61726b65742074686174206973206160408201526a363932b0b23c9037bb32b960a91b606082015260800190565b6020808252602f908201527f5363616c6172206d61726b65747320686176652032207072696365732e20416c60408201526e06c206f74686572732068617665203608c1b606082015260800190565b60208082526017908201527f4d616c666f726d6564207061796f7574206c656e677468000000000000000000604082015260600190565b6000602082528251602083015260208301516040830152604083015160a06060840152611db060c0840182611a51565b90506060840151838203601f19016080850152611dcd82826119c8565b9150506080840151611de260a0850182611a7d565b509392505050565b60006020825282516020830152602083015160408301526040830151610140806060850152611e1d610160850183611a51565b9150606085015160808501526080850151601f19808685030160a0870152611e4584836119c8565b935060a08701519150808685030160c0870152611e628483611a01565b935060c08701519150808685030160e087015250611e8083826119c8565b92505060e0850151610100611e9781870183611a7d565b808701519150506101208181870152808701519590920194909452509392505050565b600088825287602083015260e06040830152611ed960e0830188611a51565b9050856060830152611eee6080830186611a7d565b60a082019390935260c0015295945050505050565b6000604051905081810181811067ffffffffffffffff82111715611f2357fe5b604052919050565b600067ffffffffffffffff821115611f3f57fe5b5060209081020190565b600067ffffffffffffffff821115611f5d57fe5b50601f01601f191660200190565b60005b83811015611f86578082015183820152602001611f6e565b83811115610b4f5750506000910152565b6003811061131b57600080610f0b610de756",
  "linkReferences": {},
  "deployedLinkReferences": {}
}