{
  "_format": "hh-sol-artifact-1",
  "contractName": "TurboHatchery",
  "sourceName": "contracts/turbo/TurboHatchery.sol",
  "abi": [
    {
      "inputs": [
        {
          "internalType": "contract ITurboShareTokenFactory",
          "name": "tokenFactory_",
          "type": "address"
        },
        {
          "internalType": "contract IFeePot",
          "name": "feePot_",
          "type": "address"
        }
      ],
      "stateMutability": "nonpayable",
      "type": "constructor"
    },
    {
      "anonymous": false,
      "inputs": [
        {
          "indexed": false,
          "internalType": "uint256",
          "name": "turboId",
          "type": "uint256"
        }
      ],
      "name": "Claim",
      "type": "event"
    },
    {
      "anonymous": false,
      "inputs": [
        {
          "indexed": false,
          "internalType": "uint256",
          "name": "turboId",
          "type": "uint256"
        },
        {
          "indexed": false,
          "internalType": "uint256",
          "name": "amount",
          "type": "uint256"
        },
        {
          "indexed": false,
          "internalType": "address",
          "name": "target",
          "type": "address"
        }
      ],
      "name": "CompleteSetsBurned",
      "type": "event"
    },
    {
      "anonymous": false,
      "inputs": [
        {
          "indexed": false,
          "internalType": "uint256",
          "name": "turboId",
          "type": "uint256"
        },
        {
          "indexed": false,
          "internalType": "uint256",
          "name": "amount",
          "type": "uint256"
        },
        {
          "indexed": false,
          "internalType": "address",
          "name": "target",
          "type": "address"
        }
      ],
      "name": "CompleteSetsMinted",
      "type": "event"
    },
    {
      "anonymous": false,
      "inputs": [
        {
          "indexed": false,
          "internalType": "uint256",
          "name": "id",
          "type": "uint256"
        },
        {
          "indexed": false,
          "internalType": "uint256",
          "name": "creatorFee",
          "type": "uint256"
        },
        {
          "indexed": false,
          "internalType": "string[]",
          "name": "outcomeSymbols",
          "type": "string[]"
        },
        {
          "indexed": false,
          "internalType": "bytes32[]",
          "name": "outcomeNames",
          "type": "bytes32[]"
        },
        {
          "indexed": false,
          "internalType": "uint256",
          "name": "numTicks",
          "type": "uint256"
        },
        {
          "indexed": false,
          "internalType": "contract IArbiter",
          "name": "arbiter",
          "type": "address"
        },
        {
          "indexed": false,
          "internalType": "bytes",
          "name": "arbiterConfiguration",
          "type": "bytes"
        },
        {
          "indexed": true,
          "internalType": "uint256",
          "name": "index",
          "type": "uint256"
        }
      ],
      "name": "TurboCreated",
      "type": "event"
    },
    {
      "inputs": [
        {
          "internalType": "uint256",
          "name": "_id",
          "type": "uint256"
        },
        {
          "internalType": "uint256",
          "name": "_amount",
          "type": "uint256"
        },
        {
          "internalType": "address",
          "name": "_receiver",
          "type": "address"
        }
      ],
      "name": "burnCompleteSets",
      "outputs": [
        {
          "internalType": "bool",
          "name": "",
          "type": "bool"
        }
      ],
      "stateMutability": "nonpayable",
      "type": "function"
    },
    {
      "inputs": [
        {
          "internalType": "uint256",
          "name": "_id",
          "type": "uint256"
        }
      ],
      "name": "claimWinnings",
      "outputs": [
        {
          "internalType": "bool",
          "name": "",
          "type": "bool"
        }
      ],
      "stateMutability": "nonpayable",
      "type": "function"
    },
    {
      "inputs": [],
      "name": "collateral",
      "outputs": [
        {
          "internalType": "contract IERC20",
          "name": "",
          "type": "address"
        }
      ],
      "stateMutability": "view",
      "type": "function"
    },
    {
      "inputs": [
        {
          "internalType": "uint256",
          "name": "_index",
          "type": "uint256"
        },
        {
          "internalType": "uint256",
          "name": "_creatorFee",
          "type": "uint256"
        },
        {
          "internalType": "string[]",
          "name": "_outcomeSymbols",
          "type": "string[]"
        },
        {
          "internalType": "bytes32[]",
          "name": "_outcomeNames",
          "type": "bytes32[]"
        },
        {
          "internalType": "uint256",
          "name": "_numTicks",
          "type": "uint256"
        },
        {
          "internalType": "contract IArbiter",
          "name": "_arbiter",
          "type": "address"
        },
        {
          "internalType": "bytes",
          "name": "_arbiterConfiguration",
          "type": "bytes"
        }
      ],
      "name": "createTurbo",
      "outputs": [
        {
          "internalType": "uint256",
          "name": "",
          "type": "uint256"
        }
      ],
      "stateMutability": "nonpayable",
      "type": "function"
    },
    {
      "inputs": [],
      "name": "feePot",
      "outputs": [
        {
          "internalType": "contract IFeePot",
          "name": "",
          "type": "address"
        }
      ],
      "stateMutability": "view",
      "type": "function"
    },
    {
      "inputs": [
        {
          "internalType": "uint256",
          "name": "_id",
          "type": "uint256"
        }
      ],
      "name": "getShareTokens",
      "outputs": [
        {
          "internalType": "contract ITurboShareToken[]",
          "name": "",
          "type": "address[]"
        }
      ],
      "stateMutability": "view",
      "type": "function"
    },
    {
      "inputs": [],
      "name": "getTurboLength",
      "outputs": [
        {
          "internalType": "uint256",
          "name": "",
          "type": "uint256"
        }
      ],
      "stateMutability": "view",
      "type": "function"
    },
    {
      "inputs": [
        {
          "internalType": "uint256",
          "name": "_id",
          "type": "uint256"
        },
        {
          "internalType": "uint256",
          "name": "_amount",
          "type": "uint256"
        },
        {
          "internalType": "address",
          "name": "_receiver",
          "type": "address"
        }
      ],
      "name": "mintCompleteSets",
      "outputs": [
        {
          "internalType": "bool",
          "name": "",
          "type": "bool"
        }
      ],
      "stateMutability": "nonpayable",
      "type": "function"
    },
    {
      "inputs": [],
      "name": "tokenFactory",
      "outputs": [
        {
          "internalType": "contract ITurboShareTokenFactory",
          "name": "",
          "type": "address"
        }
      ],
      "stateMutability": "view",
      "type": "function"
    },
    {
      "inputs": [
        {
          "internalType": "uint256",
          "name": "_turboId",
          "type": "uint256"
        }
      ],
      "name": "turbos",
      "outputs": [
        {
          "components": [
            {
              "internalType": "address",
              "name": "creator",
              "type": "address"
            },
            {
              "internalType": "uint256",
              "name": "creatorFee",
              "type": "uint256"
            },
            {
              "internalType": "uint256",
              "name": "numTicks",
              "type": "uint256"
            },
            {
              "internalType": "contract IArbiter",
              "name": "arbiter",
              "type": "address"
            },
            {
              "internalType": "contract ITurboShareToken[]",
              "name": "shareTokens",
              "type": "address[]"
            },
            {
              "internalType": "uint256",
              "name": "creatorFees",
              "type": "uint256"
            }
          ],
          "internalType": "struct HasTurboStruct.Turbo",
          "name": "",
          "type": "tuple"
        }
      ],
      "stateMutability": "view",
      "type": "function"
    },
    {
      "inputs": [
        {
          "internalType": "uint256",
          "name": "_id",
          "type": "uint256"
        }
      ],
      "name": "withdrawCreatorFees",
      "outputs": [
        {
          "internalType": "bool",
          "name": "",
          "type": "bool"
        }
      ],
      "stateMutability": "nonpayable",
      "type": "function"
    }
  ],
  "bytecode": "0x60806040523480156200001157600080fd5b5060405162001cf538038062001cf58339810160408190526200003491620001cf565b600180546001600160a01b038085166001600160a01b03199283161790925560028054848416921691909117908190556040805163d8dfeb4560e01b81529051919092169163d8dfeb45916004808301926020929190829003018186803b1580156200009f57600080fd5b505afa158015620000b4573d6000803e3d6000fd5b505050506040513d601f19601f82011682018060405250810190620000da9190620001b0565b600380546001600160a01b0319166001600160a01b03928316179081905560025460405163095ea7b360e01b81529183169263095ea7b392620001289290911690600019906004016200020d565b602060405180830381600087803b1580156200014357600080fd5b505af115801562000158573d6000803e3d6000fd5b505050506040513d601f19601f820116820180604052508101906200017e919062000187565b5050506200023f565b60006020828403121562000199578081fd5b81518015158114620001a9578182fd5b9392505050565b600060208284031215620001c2578081fd5b8151620001a98162000226565b60008060408385031215620001e2578081fd5b8251620001ef8162000226565b6020840151909250620002028162000226565b809150509250929050565b6001600160a01b03929092168252602082015260400190565b6001600160a01b03811681146200023c57600080fd5b50565b611aa6806200024f6000396000f3fe608060405234801561001057600080fd5b50600436106100a95760003560e01c806373962620116100715780637396262014610134578063758f779f14610147578063cabae98f1461015a578063d8dfeb451461017a578063defbde9514610182578063e77772fe14610195576100a9565b806331540160146100ae578063363bfc92146100cc5780634185c085146100df5780634c9f66c7146100ff578063677bd9ff14610114575b600080fd5b6100b661019d565b6040516100c39190611934565b60405180910390f35b6100b66100da3660046113a0565b6101a3565b6100f26100ed366004611338565b61046e565b6040516100c391906118ce565b61010761053f565b6040516100c391906115d2565b610127610122366004611338565b61054e565b6040516100c39190611664565b610127610142366004611338565b61078a565b610127610155366004611368565b610960565b61016d610168366004611338565b610b2d565b6040516100c39190611651565b610107610bad565b610127610190366004611368565b610bbc565b610107610d14565b60005490565b60006101b0846002610d23565b6101d55760405162461bcd60e51b81526004016101cc90611871565b60405180910390fd5b85518410156101f65760405162461bcd60e51b81526004016101cc906117b7565b855160021115801561020a57506007865111155b6102265760405162461bcd60e51b81526004016101cc90611814565b84518651146102475760405162461bcd60e51b81526004016101cc906116c5565b66470de4df82000087111561026e5760405162461bcd60e51b81526004016101cc9061166f565b600080546040805160c081018252338152602081018b90528082018890526001600160a01b0387811660608301526001549251632af0f45b60e11b8152939493919260808401929116906355e1e8b6906102ce908c908e90600401611623565b600060405180830381600087803b1580156102e857600080fd5b505af11580156102fc573d6000803e3d6000fd5b505050506040513d6000823e601f3d908101601f1916820160405261032491908101906111fb565b81526000602091820181905283546001818101865594825290829020835160069092020180546001600160a01b039283166001600160a01b03199182161782558484015195820195909555604084015160028201556060840151600382018054919093169516949094179055608082015180519293926103aa9260048501920190611051565b5060a0919091015160059091015560405163318155db60e11b81526001600160a01b03851690636302abb6906103ec9084908b908b908b908a9060040161193d565b600060405180830381600087803b15801561040657600080fd5b505af115801561041a573d6000803e3d6000fd5b50505050887f2c4d919a4805caed2e2fdd9bb8a122413c2a643b61e08b957445484bbbfd8f4f828a8a8a8a8a8a60405161045a97969594939291906119ad565b60405180910390a298975050505050505050565b6104766110b6565b6000828154811061048357fe5b60009182526020918290206040805160c081018252600690930290910180546001600160a01b03908116845260018201548486015260028201548484015260038201541660608401526004810180548351818702810187019094528084529394919360808601939283018282801561052457602002820191906000526020600020905b81546001600160a01b03168152600190910190602001808311610506575b5050505050815260200160058201548152505090505b919050565b6002546001600160a01b031690565b6000806000838154811061055e57fe5b60009182526020909120600360069092020101546040516304c7f03f60e31b81526001600160a01b039091169063263f81f89061059f908690600401611934565b600060405180830381600087803b1580156105b957600080fd5b505af11580156105cd573d6000803e3d6000fd5b505050506040513d6000823e601f3d908101601f191682016040526105f59190810190611294565b905060008151116106185760405162461bcd60e51b81526004016101cc9061178a565b6000805b6000858154811061062957fe5b9060005260206000209060060201600401805490508110156107225761071883828151811061065457fe5b60200260200101516000878154811061066957fe5b9060005260206000209060060201600401838154811061068557fe5b600091825260209091200154604051631c4a5de160e21b81526001600160a01b03909116906371297784906106be9033906004016115d2565b602060405180830381600087803b1580156106d857600080fd5b505af11580156106ec573d6000803e3d6000fd5b505050506040513d601f19601f820116820180604052508101906107109190611350565b849102610d39565b915060010161061c565b5061074984338360018660008151811061073857fe5b602002602001015160001415610d52565b7f7bb2b3c10797baccb6f8c4791f1edd6ca2f0d028ee0eda64b01a9a57e3a653f7846040516107789190611934565b60405180910390a15060019392505050565b6000806000838154811061079a57fe5b60009182526020909120600360069092020101546040516304c7f03f60e31b81526001600160a01b039091169063263f81f8906107db908690600401611934565b600060405180830381600087803b1580156107f557600080fd5b505af1158015610809573d6000803e3d6000fd5b505050506040513d6000823e601f3d908101601f191682016040526108319190810190611294565b905060008151116108545760405162461bcd60e51b81526004016101cc9061178a565b8060008151811061086157fe5b60200260200101516000146108885760405162461bcd60e51b81526004016101cc90611738565b600354600080546001600160a01b039092169163a9059cbb9190869081106108ac57fe5b6000918252602082206006909102015481546001600160a01b039091169190879081106108d557fe5b9060005260206000209060060201600501546040518363ffffffff1660e01b815260040161090492919061160a565b602060405180830381600087803b15801561091e57600080fd5b505af1158015610932573d6000803e3d6000fd5b505050506040513d601f19601f820116820180604052508101906109569190611318565b5060019392505050565b6000806000858154811061097057fe5b60009182526020822060026006909202010154915061098f8583611015565b6003546040516323b872dd60e01b81529192506001600160a01b0316906323b872dd906109c4903390309086906004016115e6565b602060405180830381600087803b1580156109de57600080fd5b505af11580156109f2573d6000803e3d6000fd5b505050506040513d601f19601f82011682018060405250810190610a169190611318565b5060005b60008781548110610a2757fe5b906000526020600020906006020160040180549050811015610ae55760008781548110610a5057fe5b90600052602060002090600602016004018181548110610a6c57fe5b600091825260209091200154604051636012669360e11b81526001600160a01b039091169063c024cd2690610aa79088908a9060040161160a565b600060405180830381600087803b158015610ac157600080fd5b505af1158015610ad5573d6000803e3d6000fd5b505060019092019150610a1a9050565b507f51b2bca5bb2f65b2670950591ce7b54cfc4d99b2db85abfea36b8b92d10ac380868686604051610b199392919061198e565b60405180910390a150600195945050505050565b606060008281548110610b3c57fe5b9060005260206000209060060201600401805480602002602001604051908101604052809291908181526020018280548015610ba157602002820191906000526020600020905b81546001600160a01b03168152600190910190602001808311610b83575b50505050509050919050565b6003546001600160a01b031690565b6000805b60008581548110610bcd57fe5b906000526020600020906006020160040180549050811015610c8b5760008581548110610bf657fe5b90600052602060002090600602016004018181548110610c1257fe5b6000918252602090912001546040516342986e1360e01b81526001600160a01b03909116906342986e1390610c4d903390889060040161160a565b600060405180830381600087803b158015610c6757600080fd5b505af1158015610c7b573d6000803e3d6000fd5b505060019092019150610bc09050565b506000808581548110610c9a57fe5b9060005260206000209060060201600201549050610cce8584610cc6848861101590919063ffffffff16565b600080610d52565b7f2df8f390c89a8c8e8b89875f61085269c64b16b81e7745b844ba42a40a3dde27858533604051610d019392919061198e565b60405180910390a1506001949350505050565b6001546001600160a01b031690565b6000818381610d2e57fe5b061590505b92915050565b600082820183811015610d4b57600080fd5b9392505050565b6000670de0b6b3a7640000610d8e8560008981548110610d6e57fe5b90600052602060002090600602016001015461101590919063ffffffff16565b81610d9557fe5b0490508215610f2d578115610e7357600254600080546001600160a01b039092169163ebdac090919089908110610dc857fe5b90600052602060002090600602016005015483016040518263ffffffff1660e01b8152600401610df89190611934565b602060405180830381600087803b158015610e1257600080fd5b505af1158015610e26573d6000803e3d6000fd5b505050506040513d601f19601f82011682018060405250810190610e4a9190611318565b506000808781548110610e5957fe5b906000526020600020906006020160050181905550610f28565b600354600080546001600160a01b039092169163a9059cbb919089908110610e9757fe5b60009182526020909120600690910201546040516001600160e01b031960e084901b168152610ed4916001600160a01b031690859060040161160a565b602060405180830381600087803b158015610eee57600080fd5b505af1158015610f02573d6000803e3d6000fd5b505050506040513d601f19601f82011682018060405250810190610f269190611318565b505b610f81565b610f5e8160008881548110610f3e57fe5b906000526020600020906006020160050154610d3990919063ffffffff16565b60008781548110610f6b57fe5b9060005260206000209060060201600501819055505b6003546001600160a01b031663a9059cbb86610f9d878561103c565b6040518363ffffffff1660e01b8152600401610fba92919061160a565b602060405180830381600087803b158015610fd457600080fd5b505af1158015610fe8573d6000803e3d6000fd5b505050506040513d601f19601f8201168201806040525081019061100c9190611318565b50505050505050565b60008261102457506000610d33565b8282028284828161103157fe5b0414610d4b57600080fd5b60008282111561104b57600080fd5b50900390565b8280548282559060005260206000209081019282156110a6579160200282015b828111156110a657825182546001600160a01b0319166001600160a01b03909116178255602090920191600190910190611071565b506110b29291506110fe565b5090565b6040518060c0016040528060006001600160a01b03168152602001600081526020016000815260200160006001600160a01b0316815260200160608152602001600081525090565b5b808211156110b257600081556001016110ff565b600067ffffffffffffffff83111561112757fe5b61113a601f8401601f1916602001611a16565b905082815283838301111561114e57600080fd5b828260208301376000602084830101529392505050565b600082601f830112611175578081fd5b8135602061118a61118583611a3a565b611a16565b82815281810190858301838502870184018810156111a6578586fd5b855b858110156111c4578135845292840192908401906001016111a8565b5090979650505050505050565b600082601f8301126111e1578081fd5b610d4b83833560208501611113565b803561053a81611a58565b6000602080838503121561120d578182fd5b825167ffffffffffffffff811115611223578283fd5b8301601f81018513611233578283fd5b805161124161118582611a3a565b818152838101908385018584028501860189101561125d578687fd5b8694505b8385101561128857805161127481611a58565b835260019490940193918501918501611261565b50979650505050505050565b600060208083850312156112a6578182fd5b825167ffffffffffffffff8111156112bc578283fd5b8301601f810185136112cc578283fd5b80516112da61118582611a3a565b81815283810190838501858402850186018910156112f6578687fd5b8694505b838510156112885780518352600194909401939185019185016112fa565b600060208284031215611329578081fd5b81518015158114610d4b578182fd5b600060208284031215611349578081fd5b5035919050565b600060208284031215611361578081fd5b5051919050565b60008060006060848603121561137c578182fd5b8335925060208401359150604084013561139581611a58565b809150509250925092565b600080600080600080600060e0888a0312156113ba578485fd5b873596506020880135955067ffffffffffffffff8060408a013511156113de578586fd5b604089013589018a601f8201126113f3578687fd5b6114006111858235611a3a565b81358152602080820191908301895b8435811015611454578e603f833587010112611429578a8bfd5b61143f8f83358701602081013590604001611113565b8452602093840193919091019060010161140f565b50508098505050508060608a0135111561146c578384fd5b61147c8a60608b01358b01611165565b94506080890135935061149160a08a016111f0565b92508060c08a013511156114a3578182fd5b506114b48960c08a01358a016111d1565b905092959891949750929550565b6000815180845260208085019450808401835b838110156114f1578151875295820195908201906001016114d5565b509495945050505050565b6000815180845260208085019450808401835b838110156114f15781516001600160a01b03168752958201959082019060010161150f565b6000815180845260208085018081965082840281019150828601855b8581101561157a578284038952611568848351611587565b98850198935090840190600101611550565b5091979650505050505050565b60008151808452815b818110156115ac57602081850181015186830182015201611590565b818111156115bd5782602083870101525b50601f01601f19169290920160200192915050565b6001600160a01b0391909116815260200190565b6001600160a01b039384168152919092166020820152604081019190915260600190565b6001600160a01b03929092168252602082015260400190565b60006040825261163660408301856114c2565b82810360208401526116488185611534565b95945050505050565b600060208252610d4b60208301846114fc565b901515815260200190565b60208082526036908201527f547572626f48617463686572792e637265617465547572626f3a206d61726b656040820152750e840c6e4cac2e8dee440cccaca40e8dede40d0d2ced60531b606082015260800190565b6020808252604d908201527f547572626f48617463686572792e637265617465547572626f3a206f7574636f60408201527f6d65206e616d657320616e64206f7574636f6d652073796d626f6c732064696660608201526c0cccae440d2dc40d8cadccee8d609b1b608082015260a00190565b60208082526032908201527f43616e206f6e6c792077697468647261772063726561746f72206665657320666040820152711c9bdb4818481d985b1a59081b585c9ad95d60721b606082015260800190565b6020808252601390820152721b585c9ad95d081b9bdd081c995cdbdb1d9959606a1b604082015260600190565b6020808252603a908201527f547572626f48617463686572792e637265617465547572626f3a206e756d546960408201527f636b73206c6f776572207468616e206e756d4f7574636f6d6573000000000000606082015260800190565b6020808252603f908201527f547572626f48617463686572792e637265617465547572626f3a204e756d626560408201527f72206f66206f7574636f6d6573206973206e6f742061636365707461626c6500606082015260800190565b60208082526039908201527f547572626f48617463686572792e637265617465547572626f3a206e756d546960408201527f636b73206d757374206265206d756c7469706c65206f66203200000000000000606082015260800190565b60006020825260018060a01b03808451166020840152602084015160408401526040840151606084015280606085015116608084015250608083015160c060a084015261191e60e08401826114fc565b905060a084015160c08401528091505092915050565b90815260200190565b600086825260a0602083015261195660a0830187611534565b828103604084015261196881876114c2565b905084606084015282810360808401526119828185611587565b98975050505050505050565b92835260208301919091526001600160a01b0316604082015260600190565b600088825287602083015260e060408301526119cc60e0830188611534565b82810360608401526119de81886114c2565b608084018790526001600160a01b03861660a085015283810360c08501529050611a088185611587565b9a9950505050505050505050565b60405181810167ffffffffffffffff81118282101715611a3257fe5b604052919050565b600067ffffffffffffffff821115611a4e57fe5b5060209081020190565b6001600160a01b0381168114611a6d57600080fd5b5056fea264697066735822122001cbfdd2495b7334f6b7e02f7b65cad3627c5355a17a699ffd3455fa789d1fcc64736f6c63430007060033",
  "linkReferences": {},
  "deployedLinkReferences": {}
}