{
  "_format": "hh-sol-artifact-1",
  "contractName": "TurboHatchery",
  "sourceName": "contracts/turbo/TurboHatchery.sol",
  "abi": [
    {
      "inputs": [
        {
          "internalType": "contract ITurboShareTokenFactory",
          "name": "tokenFactory_",
          "type": "address"
        },
        {
          "internalType": "contract IFeePot",
          "name": "feePot_",
          "type": "address"
        }
      ],
      "stateMutability": "nonpayable",
      "type": "constructor"
    },
    {
      "anonymous": false,
      "inputs": [
        {
          "indexed": false,
          "internalType": "uint256",
          "name": "turboId",
          "type": "uint256"
        }
      ],
      "name": "Claim",
      "type": "event"
    },
    {
      "anonymous": false,
      "inputs": [
        {
          "indexed": false,
          "internalType": "uint256",
          "name": "turboId",
          "type": "uint256"
        },
        {
          "indexed": false,
          "internalType": "uint256",
          "name": "amount",
          "type": "uint256"
        },
        {
          "indexed": false,
          "internalType": "address",
          "name": "target",
          "type": "address"
        }
      ],
      "name": "CompleteSetsBurned",
      "type": "event"
    },
    {
      "anonymous": false,
      "inputs": [
        {
          "indexed": false,
          "internalType": "uint256",
          "name": "turboId",
          "type": "uint256"
        },
        {
          "indexed": false,
          "internalType": "uint256",
          "name": "amount",
          "type": "uint256"
        },
        {
          "indexed": false,
          "internalType": "address",
          "name": "target",
          "type": "address"
        }
      ],
      "name": "CompleteSetsMinted",
      "type": "event"
    },
    {
      "anonymous": false,
      "inputs": [
        {
          "indexed": false,
          "internalType": "uint256",
          "name": "id",
          "type": "uint256"
        },
        {
          "indexed": false,
          "internalType": "uint256",
          "name": "creatorFee",
          "type": "uint256"
        },
        {
          "indexed": false,
          "internalType": "string[]",
          "name": "outcomeSymbols",
          "type": "string[]"
        },
        {
          "indexed": false,
          "internalType": "bytes32[]",
          "name": "outcomeNames",
          "type": "bytes32[]"
        },
        {
          "indexed": false,
          "internalType": "uint256",
          "name": "numTicks",
          "type": "uint256"
        },
        {
          "indexed": false,
          "internalType": "contract IArbiter",
          "name": "arbiter",
          "type": "address"
        },
        {
          "indexed": false,
          "internalType": "bytes",
          "name": "arbiterConfiguration",
          "type": "bytes"
        },
        {
          "indexed": true,
          "internalType": "uint256",
          "name": "index",
          "type": "uint256"
        }
      ],
      "name": "TurboCreated",
      "type": "event"
    },
    {
      "inputs": [
        {
          "internalType": "uint256",
          "name": "_id",
          "type": "uint256"
        },
        {
          "internalType": "uint256",
          "name": "_amount",
          "type": "uint256"
        },
        {
          "internalType": "address",
          "name": "_receiver",
          "type": "address"
        }
      ],
      "name": "burnCompleteSets",
      "outputs": [
        {
          "internalType": "bool",
          "name": "",
          "type": "bool"
        }
      ],
      "stateMutability": "nonpayable",
      "type": "function"
    },
    {
      "inputs": [
        {
          "internalType": "uint256",
          "name": "_id",
          "type": "uint256"
        }
      ],
      "name": "claimWinnings",
      "outputs": [
        {
          "internalType": "bool",
          "name": "",
          "type": "bool"
        }
      ],
      "stateMutability": "nonpayable",
      "type": "function"
    },
    {
      "inputs": [],
      "name": "collateral",
      "outputs": [
        {
          "internalType": "contract IERC20",
          "name": "",
          "type": "address"
        }
      ],
      "stateMutability": "view",
      "type": "function"
    },
    {
      "inputs": [
        {
          "internalType": "uint256",
          "name": "_index",
          "type": "uint256"
        },
        {
          "internalType": "uint256",
          "name": "_creatorFee",
          "type": "uint256"
        },
        {
          "internalType": "string[]",
          "name": "_outcomeSymbols",
          "type": "string[]"
        },
        {
          "internalType": "bytes32[]",
          "name": "_outcomeNames",
          "type": "bytes32[]"
        },
        {
          "internalType": "uint256",
          "name": "_numTicks",
          "type": "uint256"
        },
        {
          "internalType": "contract IArbiter",
          "name": "_arbiter",
          "type": "address"
        },
        {
          "internalType": "bytes",
          "name": "_arbiterConfiguration",
          "type": "bytes"
        }
      ],
      "name": "createTurbo",
      "outputs": [
        {
          "internalType": "uint256",
          "name": "",
          "type": "uint256"
        }
      ],
      "stateMutability": "nonpayable",
      "type": "function"
    },
    {
      "inputs": [],
      "name": "feePot",
      "outputs": [
        {
          "internalType": "contract IFeePot",
          "name": "",
          "type": "address"
        }
      ],
      "stateMutability": "view",
      "type": "function"
    },
    {
      "inputs": [
        {
          "internalType": "uint256",
          "name": "_id",
          "type": "uint256"
        }
      ],
      "name": "getShareTokens",
      "outputs": [
        {
          "internalType": "contract ITurboShareToken[]",
          "name": "",
          "type": "address[]"
        }
      ],
      "stateMutability": "view",
      "type": "function"
    },
    {
      "inputs": [],
      "name": "getTurboLength",
      "outputs": [
        {
          "internalType": "uint256",
          "name": "",
          "type": "uint256"
        }
      ],
      "stateMutability": "view",
      "type": "function"
    },
    {
      "inputs": [
        {
          "internalType": "uint256",
          "name": "_id",
          "type": "uint256"
        },
        {
          "internalType": "uint256",
          "name": "_amount",
          "type": "uint256"
        },
        {
          "internalType": "address",
          "name": "_receiver",
          "type": "address"
        }
      ],
      "name": "mintCompleteSets",
      "outputs": [
        {
          "internalType": "bool",
          "name": "",
          "type": "bool"
        }
      ],
      "stateMutability": "nonpayable",
      "type": "function"
    },
    {
      "inputs": [],
      "name": "tokenFactory",
      "outputs": [
        {
          "internalType": "contract ITurboShareTokenFactory",
          "name": "",
          "type": "address"
        }
      ],
      "stateMutability": "view",
      "type": "function"
    },
    {
      "inputs": [
        {
          "internalType": "uint256",
          "name": "_turboId",
          "type": "uint256"
        }
      ],
      "name": "turbos",
      "outputs": [
        {
          "components": [
            {
              "internalType": "address",
              "name": "creator",
              "type": "address"
            },
            {
              "internalType": "uint256",
              "name": "creatorFee",
              "type": "uint256"
            },
            {
              "internalType": "uint256",
              "name": "numTicks",
              "type": "uint256"
            },
            {
              "internalType": "contract IArbiter",
              "name": "arbiter",
              "type": "address"
            },
            {
              "internalType": "contract ITurboShareToken[]",
              "name": "shareTokens",
              "type": "address[]"
            },
            {
              "internalType": "uint256",
              "name": "creatorFees",
              "type": "uint256"
            }
          ],
          "internalType": "struct HasTurboStruct.Turbo",
          "name": "",
          "type": "tuple"
        }
      ],
      "stateMutability": "view",
      "type": "function"
    },
    {
      "inputs": [
        {
          "internalType": "uint256",
          "name": "_id",
          "type": "uint256"
        }
      ],
      "name": "withdrawCreatorFees",
      "outputs": [
        {
          "internalType": "bool",
          "name": "",
          "type": "bool"
        }
      ],
      "stateMutability": "nonpayable",
      "type": "function"
    }
  ],
  "bytecode": "0x60806040523480156200001c576000806200001962000297565b50505b5060405162002ab138038062002ab18339810160408190526200003f9162000631565b81600180806200004e62000304565b816001600160a01b0302191690836001600160a01b03160217906200007262000366565b50505080600260006101000a816200008962000304565b816001600160a01b0302191690836001600160a01b0316021790620000ad62000366565b5050506002600090620000bf62000304565b906101000a90046001600160a01b03166001600160a01b031663d8dfeb456040518163ffffffff1660e01b8152600401602060405180830381868062000104620003b5565b1580156200011c576000806200011962000297565b50505b505a6200012862000402565b50505050501580156200014a573d6000803e3d60006200014762000297565b50505b50505050604051601f3d908101601f191682016040526200016f919081019062000607565b60036001816200017e62000304565b816001600160a01b0302191690836001600160a01b0316021790620001a262000366565b5050506003600090620001b462000304565b6001600160a01b036101009290920a90041663095ea7b360006002620001d962000304565b906101000a90046001600160a01b03166000196040518363ffffffff1660e01b81526004016200020b92919062000679565b6020604051808303816000878062000222620003b5565b1580156200023a576000806200023762000297565b50505b505a62000246620004fa565b50505050505015801562000269573d6000803e3d60006200026662000297565b50505b50505050604051601f3d908101601f191682016040526200028e9190810190620005c8565b505050620006b3565b632a2a7adb598160e01b8152600481016020815285602082015260005b86811015620002d1578086015182820160400152602001620002b4565b506020828760640184336000905af158600e01573d6000803e3d6000fd5b3d6001141558600a015760016000f35b505050565b6303daa959598160e01b8152836004820152602081602483336000905af158600e01573d6000803e3d6000fd5b3d6001141558600a015760016000f35b8051935060005b6040811015620003615760008282015260200162000348565b505050565b6322bd64c0598160e01b8152836004820152846024820152600081604483336000905af158600e01573d6000803e3d6000fd5b3d6001141558600a015760016000f35b60008152602062000348565b638435035b598160e01b8152836004820152602081602483336000905af158600e01573d6000803e3d6000fd5b3d6001141558600a015760016000f35b8051600082529350602062000348565b638540661f598160e01b815262000438565b8080831115620004215750815b92915050565b808083101562000421575090919050565b836004820152846024820152606060448201528660648201526084810160005b888110156200047257808801518282015260200162000458565b506060828960a40184336000905af158600e01573d6000803e3d6000fd5b3d6001141558600a015760016000f35b815160408301513d6000853e8b8b82606087013350600060045af15059620004c98d3d62000427565b8c01620004d7818762000414565b5b82811015620004ee5760008152602001620004d8565b50929c50505050505050565b6385979f76598160e01b8152836004820152846024820152606060448201528760648201526084810160005b898110156200054057808901518282015260200162000526565b506060828a60a40184336000905af158600e01573d6000803e3d6000fd5b3d6001141558600a015760016000f35b815160408301513d6000853e8c8c82606087013350600060045af15059620005978e3d62000427565b8d01620005a5818762000414565b5b82811015620005bc5760008152602001620005a6565b50929d50505050505050565b600060208284031215620005e5578081620005e262000297565b50505b8151801515811462000600578182620005fd62000297565b50505b9392505050565b600060208284031215620006245780816200062162000297565b50505b8151620006008162000692565b600080604083850312156200064f5780816200064c62000297565b50505b82516200065c8162000692565b915060208301516200066e8162000692565b809150509250929050565b6001600160a01b03929092168252602082015260400190565b6001600160a01b0381168114620006b0576000806200036162000297565b50565b6123ee80620006c36000396000f3fe608060405234801561001957600080610016611648565b50505b50600436106100b25760003560e01c8063739626201161007a5780637396262014610146578063758f779f14610159578063cabae98f1461016c578063d8dfeb451461018c578063defbde9514610194578063e77772fe146101a7576100b2565b806331540160146100c0578063363bfc92146100de5780634185c085146100f15780634c9f66c714610111578063677bd9ff14610126575b6000806100bd611648565b50505b6100c86101af565b6040516100d591906122a8565b60405180910390f35b6100c86100ec366004611cdf565b6101c1565b6101046100ff366004611c5a565b6105c9565b6040516100d59190612241565b610119610706565b6040516100d59190611f45565b610139610134366004611c5a565b610728565b6040516100d59190611fd7565b610139610154366004611c5a565b610a1f565b610139610167366004611c9e565b610cb3565b61017f61017a366004611c5a565b610f85565b6040516100d59190611fc4565b610119611031565b6101396101a2366004611c9e565b61103e565b610119611204565b600080806101bb6116b3565b91505090565b60006101ce846002611211565b6101fc5760405162461bcd60e51b81526004016101ea906121e4565b604051809103906101f9611648565b50505b855184101561022f5760405162461bcd60e51b815260040161021d9061212a565b6040518091039061022c611648565b50505b855160021115801561024357506007865111155b6102715760405162461bcd60e51b815260040161025f90612187565b6040518091039061026e611648565b50505b84518651146102a45760405162461bcd60e51b815260040161029290612038565b604051809103906102a1611648565b50505b66470de4df8200008711156102dd5760405162461bcd60e51b81526004016102cb90611fe2565b604051809103906102da611648565b50505b600080806102e96116b3565b9050905060006040518060c001604052805a610303611713565b6001600160a01b031681526020018a8152602001878152602001866001600160a01b0316815260200160016000906103396116b3565b906101000a90046001600160a01b03166001600160a01b03166355e1e8b68a8c6040518363ffffffff1660e01b8152600401610376929190611f96565b6000604051808303816000878061038b611759565b1580156103a05760008061039d611648565b50505b505a6103aa6117a5565b5050505050501580156103ca573d6000803e3d60006103c7611648565b50505b505050506040513d6000823e601f3d908101601f191682016040526103f29190810190611ac6565b8152602001600081525090806001816104096116b3565b018082610414611890565b50506000928352600019019160209150206006909102018151816001816104396116b3565b816001600160a01b0302191690836001600160a01b031602179061045b611890565b50505060208201518160010161046f611890565b5050604082015181600201610482611890565b50506060820151600382016001816104986116b3565b816001600160a01b0302191690836001600160a01b03160217906104ba611890565b5050506080820151816004019080516104d79291602001906118de565b5060a0820151816005016104e9611890565b50505050836001600160a01b0316636302abb682898989886040518663ffffffff1660e01b81526004016105219594939291906122b1565b60006040518083038160008780610536611759565b15801561054b57600080610548611648565b50505b505a6105556117a5565b505050505050158015610575573d6000803e3d6000610572611648565b50505b50505050887f2c4d919a4805caed2e2fdd9bb8a122413c2a643b61e08b957445484bbbfd8f4f828a8a8a8a8a8a6040516105b59796959493929190612321565b60405180910390a298975050505050505050565b6105d1611968565b600082816105dd6116b3565b81106105e557fe5b906000526020600020906006020160405160c08101604052908160008261060a6116b3565b6001600160a01b036101009290920a90041681526020016001820161062d6116b3565b81526020016002820161063e6116b3565b81526020016000600383016106516116b3565b6001600160a01b036101009290920a900416815260200160048201806106756116b3565b8060200260200160405190810160405281815291906020830182806106986116b3565b80156106e557602002820191906000526020600020905b6000826106ba6116b3565b906101000a90046001600160a01b03166001600160a01b0316815260200190600101908083116106af575b50505050508152602001600582016106fb6116b3565b90525090505b919050565b60008060026107136116b3565b906101000a90046001600160a01b0316905090565b600080600083816107376116b3565b811061073f57fe5b906000526020600020906006020160030160009061075b6116b3565b906101000a90046001600160a01b03166001600160a01b031663263f81f8846040518263ffffffff1660e01b815260040161079691906122a8565b600060405180830381600087806107ab611759565b1580156107c0576000806107bd611648565b50505b505a6107ca6117a5565b5050505050501580156107ea573d6000803e3d60006107e7611648565b50505b505050506040513d6000823e601f3d908101601f191682016040526108129190810190611b83565b905060008151116108475760405162461bcd60e51b8152600401610835906120fd565b60405180910390610844611648565b50505b6000805b600085816108576116b3565b811061085f57fe5b9060005260206000209060060201600401806108796116b3565b90508110156109b1576109a783828151811061089157fe5b6020026020010151600087816108a56116b3565b81106108ad57fe5b906000526020600020906006020160040183816108c86116b3565b81106108d057fe5b906000526020600020016000906108e56116b3565b906101000a90046001600160a01b03166001600160a01b031663712977845a61090c611713565b6040518263ffffffff1660e01b81526004016109289190611f45565b6020604051808303816000878061093d611759565b1580156109525760008061094f611648565b50505b505a61095c6117a5565b50505050505015801561097c573d6000803e3d6000610979611648565b50505b50505050604051601f3d908101601f1916820160405261099f9190810190611c7b565b849102611227565b915060010161084b565b506109de845a6109bf611713565b836001866000815181106109cf57fe5b60200260200101511515611249565b7f7bb2b3c10797baccb6f8c4791f1edd6ca2f0d028ee0eda64b01a9a57e3a653f784604051610a0d91906122a8565b60405180910390a15060019392505050565b60008060008381610a2e6116b3565b8110610a3657fe5b9060005260206000209060060201600301600090610a526116b3565b906101000a90046001600160a01b03166001600160a01b031663263f81f8846040518263ffffffff1660e01b8152600401610a8d91906122a8565b60006040518083038160008780610aa2611759565b158015610ab757600080610ab4611648565b50505b505a610ac16117a5565b505050505050158015610ae1573d6000803e3d6000610ade611648565b50505b505050506040513d6000823e601f3d908101601f19168201604052610b099190810190611b83565b90506000815111610b3e5760405162461bcd60e51b8152600401610b2c906120fd565b60405180910390610b3b611648565b50505b80600081518110610b4b57fe5b602002602001015115610b825760405162461bcd60e51b8152600401610b70906120ab565b60405180910390610b7f611648565b50505b60006003610b8e6116b3565b906101000a90046001600160a01b03166001600160a01b031663a9059cbb60008581610bb86116b3565b8110610bc057fe5b90600052602060002060009160060201610bd86116b3565b906101000a90046001600160a01b031660008681610bf46116b3565b8110610bfc57fe5b9060005260206000209060060201600501610c156116b3565b6040518363ffffffff1660e01b8152600401610c32929190611f7d565b60206040518083038160008780610c47611759565b158015610c5c57600080610c59611648565b50505b505a610c666117a5565b505050505050158015610c86573d6000803e3d6000610c83611648565b50505b50505050604051601f3d908101601f19168201604052610ca99190810190611c2b565b5060019392505050565b60008060008581610cc26116b3565b8110610cca57fe5b9060005260206000209060060201600201610ce36116b3565b90506000610cf185836115fd565b905060006003610cff6116b3565b906101000a90046001600160a01b03166001600160a01b03166323b872dd5a610d26611713565b5a63996d79a5598160e01b8152602081600483336000905af158600e01573d6000803e3d6000fd5b3d6001141558600a015760016000f35b8051925060005b6040811015610d7c57600082820152602001610d65565b505050846040518463ffffffff1660e01b8152600401610d9e93929190611f59565b60206040518083038160008780610db3611759565b158015610dc857600080610dc5611648565b50505b505a610dd26117a5565b505050505050158015610df2573d6000803e3d6000610def611648565b50505b50505050604051601f3d908101601f19168201604052610e159190810190611c2b565b5060005b60008781610e256116b3565b8110610e2d57fe5b906000526020600020906006020160040180610e476116b3565b9050811015610f3d5760008781610e5c6116b3565b8110610e6457fe5b90600052602060002090600602016004018181610e7f6116b3565b8110610e8757fe5b90600052602060002001600090610e9c6116b3565b906101000a90046001600160a01b03166001600160a01b031663c024cd2686886040518363ffffffff1660e01b8152600401610ed9929190611f7d565b60006040518083038160008780610eee611759565b158015610f0357600080610f00611648565b50505b505a610f0d6117a5565b505050505050158015610f2d573d6000803e3d6000610f2a611648565b50505b505060019092019150610e199050565b507f51b2bca5bb2f65b2670950591ce7b54cfc4d99b2db85abfea36b8b92d10ac380868686604051610f7193929190612302565b60405180910390a150600195945050505050565b606060008281610f936116b3565b8110610f9b57fe5b906000526020600020906006020160040180610fb56116b3565b806020026020016040519081016040528181529190602083018280610fd86116b3565b801561102557602002820191906000526020600020905b600082610ffa6116b3565b906101000a90046001600160a01b03166001600160a01b031681526020019060010190808311610fef575b50505050509050919050565b60008060036107136116b3565b6000805b6000858161104e6116b3565b811061105657fe5b9060005260206000209060060201600401806110706116b3565b905081101561116e57600085816110856116b3565b811061108d57fe5b906000526020600020906006020160040181816110a86116b3565b81106110b057fe5b906000526020600020016000906110c56116b3565b906101000a90046001600160a01b03166001600160a01b03166342986e135a6110ec611713565b866040518363ffffffff1660e01b815260040161110a929190611f7d565b6000604051808303816000878061111f611759565b15801561113457600080611131611648565b50505b505a61113e6117a5565b50505050505015801561115e573d6000803e3d600061115b611648565b50505b5050600190920191506110429050565b50600080858161117c6116b3565b811061118457fe5b906000526020600020906006020160020161119d6116b3565b90506111b685846111ae87856115fd565b600080611249565b7f2df8f390c89a8c8e8b89875f61085269c64b16b81e7745b844ba42a40a3dde2785855a6111e2611713565b6040516111f193929190612302565b60405180910390a1506001949350505050565b60008060016107136116b3565b600081838161121c57fe5b061590505b92915050565b6000828201838110156112425760008061123f611648565b50505b9392505050565b6000670de0b6b3a764000061128b85600089816112646116b3565b811061126c57fe5b90600052602060002090600602016001016112856116b3565b906115fd565b8161129257fe5b04905082156114c85781156113c657600060026112ad6116b3565b906101000a90046001600160a01b03166001600160a01b031663ebdac090600088816112d76116b3565b81106112df57fe5b90600052602060002090600602016005016112f86116b3565b83016040518263ffffffff1660e01b815260040161131691906122a8565b6020604051808303816000878061132b611759565b1580156113405760008061133d611648565b50505b505a61134a6117a5565b50505050505015801561136a573d6000803e3d6000611367611648565b50505b50505050604051601f3d908101601f1916820160405261138d9190810190611c2b565b50600080878161139b6116b3565b81106113a357fe5b906000526020600020906006020160050181906113be611890565b5050506114c3565b600060036113d26116b3565b906101000a90046001600160a01b03166001600160a01b031663a9059cbb600088816113fc6116b3565b811061140457fe5b9060005260206000206000916006020161141c6116b3565b906101000a90046001600160a01b0316836040518363ffffffff1660e01b815260040161144a929190611f7d565b6020604051808303816000878061145f611759565b15801561147457600080611471611648565b50505b505a61147e6117a5565b50505050505015801561149e573d6000803e3d600061149b611648565b50505b50505050604051601f3d908101601f191682016040526114c19190810190611c2b565b505b611532565b6114ff81600088816114d86116b3565b81106114e057fe5b90600052602060002090600602016005016114f96116b3565b90611227565b6000878161150b6116b3565b811061151357fe5b9060005260206000209060060201600501819061152e611890565b5050505b6000600361153e6116b3565b6001600160a01b036101009290920a90041663a9059cbb86611560878561162a565b6040518363ffffffff1660e01b815260040161157d929190611f7d565b60206040518083038160008780611592611759565b1580156115a7576000806115a4611648565b50505b505a6115b16117a5565b5050505050501580156115d1573d6000803e3d60006115ce611648565b50505b50505050604051601f3d908101601f191682016040526115f49190810190611c2b565b50505050505050565b60008261160c57506000611221565b8282028284828161161957fe5b04146112425760008061123f611648565b6000828211156116425760008061163f611648565b50505b50900390565b632a2a7adb598160e01b8152600481016020815285602082015260005b86811015611680578086015182820160400152602001611665565b506020828760640184336000905af158600e01573d6000803e3d6000fd5b3d6001141558600a015760016000f35b505050565b6303daa959598160e01b8152836004820152602081602483336000905af158600e01573d6000803e3d6000fd5b3d6001141558600a015760016000f35b8051935060005b604081101561170e576000828201526020016116f7565b505050565b6373509064598160e01b8152602081600483336000905af158600e01573d6000803e3d6000fd5b3d6001141558600a015760016000f35b805160008252935060206116f7565b638435035b598160e01b8152836004820152602081602483336000905af158600e01573d6000803e3d6000fd5b3d6001141558600a015760016000f35b805160008252935060206116f7565b6385979f76598160e01b81526117d6565b8080831115611221575090919050565b8080831015611221575090919050565b836004820152846024820152606060448201528760648201526084810160005b8981101561180e5780890151828201526020016117f6565b506060828a60a40184336000905af158600e01573d6000803e3d6000fd5b3d6001141558600a015760016000f35b815160408301513d6000853e8c8c82606087013350600060045af150596118638e3d6117c6565b8d0161186f81876117b6565b5b828110156118845760008152602001611870565b50929d50505050505050565b6322bd64c0598160e01b8152836004820152846024820152600081604483336000905af158600e01573d6000803e3d6000fd5b3d6001141558600a015760016000f35b6000815260206116f7565b82806118e86116b3565b82826118f2611890565b5050906000526020600020908101928215611958579160200282015b82811115611958578251826001816119246116b3565b816001600160a01b0302191690836001600160a01b0316021790611946611890565b5050509160200191906001019061190e565b5061196492915061199b565b5090565b60405160c0810160409081526000808352602083018190529082018190526060808301829052608083015260a082015290565b8082111561196457600080826119af611890565b50505060010161199b565b600067ffffffffffffffff8311156119ce57fe5b6119e1601f8401601f191660200161238a565b90508281528383830111156119fe576000806119fb611648565b50505b828260208301376000602084830101529392505050565b600082601f830112611a2e578081611a2b611648565b50505b81356020611a43611a3e836123b2565b61238a565b8281528181019085830183850287018401881015611a68578586611a65611648565b50505b855b85811015611a8657813584529284019290840190600101611a6a565b5090979650505050505050565b600082601f830112611aac578081611aa9611648565b50505b611242838335602085016119ba565b8035610701816123d0565b60006020808385031215611ae1578182611ade611648565b50505b825167ffffffffffffffff811115611b00578283611afd611648565b50505b8301601f81018513611b19578283611b16611648565b50505b8051611b27611a3e826123b2565b8181528381019083850185840285018601891015611b4c578687611b49611648565b50505b8694505b83851015611b77578051611b63816123d0565b835260019490940193918501918501611b50565b50979650505050505050565b60006020808385031215611b9e578182611b9b611648565b50505b825167ffffffffffffffff811115611bbd578283611bba611648565b50505b8301601f81018513611bd6578283611bd3611648565b50505b8051611be4611a3e826123b2565b8181528381019083850185840285018601891015611c09578687611c06611648565b50505b8694505b83851015611b77578051835260019490940193918501918501611c0d565b600060208284031215611c45578081611c42611648565b50505b8151801515811461124257818261123f611648565b600060208284031215611c74578081611c71611648565b50505b5035919050565b600060208284031215611c95578081611c92611648565b50505b81519392505050565b600080600060608486031215611cbb578182611cb8611648565b50505b83359250602084013591506040840135611cd4816123d0565b809150509250925092565b600080600080600080600060e0888a031215611d02578485611cff611648565b50505b873596506020880135955067ffffffffffffffff8060408a01351115611d2f578586611d2c611648565b50505b604089013589018a601f820112611d4d578687611d4a611648565b50505b611d5a611a3e82356123b2565b81358152602080820191908301895b8435811015611db7578e603f833587010112611d8c578a8b611d89611648565b50505b611da28f833587016020810135906040016119ba565b84526020938401939190910190600101611d69565b50508098505050508060608a01351115611dd8578384611dd5611648565b50505b611de88a60608b01358b01611a15565b945060808901359350611dfd60a08a01611abb565b92508060c08a01351115611e18578182611e15611648565b50505b50611e298960c08a01358a01611a93565b905092959891949750929550565b60008151808452602093840193838101835b83811015611e6557815187529582019590820190600101611e49565b509495945050505050565b60008151808452602093840193838101835b83811015611e65576001600160a01b0382511687529582019590820190600101611e82565b6000815180845260208085019481830201810185858301855b85811015611eea578284038952611ed8848351611ef7565b98850198935090840190600101611ec0565b5091979650505050505050565b60008151808452815b81811015611f1f57602080828601015186830190910152602001611f00565b81811115611f305782602083870101525b50601f01601f19169290920160200192915050565b6001600160a01b0391909116815260200190565b6001600160a01b039384168152919092166020820152604081019190915260600190565b6001600160a01b03929092168252602082015260400190565b600060408252611fa96040830185611e37565b8281036020840152611fbb8185611ea7565b95945050505050565b6000602082526112426020830184611e70565b901515815260200190565b60208082526036908201527f547572626f48617463686572792e637265617465547572626f3a206d61726b656040820152750e840c6e4cac2e8dee440cccaca40e8dede40d0d2ced60531b606082015260800190565b6020808252604d908201527f547572626f48617463686572792e637265617465547572626f3a206f7574636f60408201527f6d65206e616d657320616e64206f7574636f6d652073796d626f6c732064696660608201526c0cccae440d2dc40d8cadccee8d609b1b608082015260a00190565b60208082526032908201527f43616e206f6e6c792077697468647261772063726561746f72206665657320666040820152711c9bdb4818481d985b1a59081b585c9ad95d60721b606082015260800190565b6020808252601390820152721b585c9ad95d081b9bdd081c995cdbdb1d9959606a1b604082015260600190565b6020808252603a908201527f547572626f48617463686572792e637265617465547572626f3a206e756d546960408201527f636b73206c6f776572207468616e206e756d4f7574636f6d6573000000000000606082015260800190565b6020808252603f908201527f547572626f48617463686572792e637265617465547572626f3a204e756d626560408201527f72206f66206f7574636f6d6573206973206e6f742061636365707461626c6500606082015260800190565b60208082526039908201527f547572626f48617463686572792e637265617465547572626f3a206e756d546960408201527f636b73206d757374206265206d756c7469706c65206f66203200000000000000606082015260800190565b6020815260006001600160a01b03808451166020840152602084015160408401526040840151606084015280606085015116608084015250608083015160c060a084015261229260e0840182611e70565b905060a084015160c08401528091505092915050565b90815260200190565b600086825260a060208301526122ca60a0830187611ea7565b82810360408401526122dc8187611e37565b905084606084015282810360808401526122f68185611ef7565b98975050505050505050565b92835260208301919091526001600160a01b0316604082015260600190565b600088825287602083015260e0604083015261234060e0830188611ea7565b82810360608401526123528188611e37565b608084018790526001600160a01b03861660a085015283810360c0850152905061237c8185611ef7565b9a9950505050505050505050565b6000604051905081810181811067ffffffffffffffff821117156123aa57fe5b604052919050565b600067ffffffffffffffff8211156123c657fe5b5060209081020190565b6001600160a01b03811681146123eb5760008061170e611648565b5056",
  "linkReferences": {},
  "deployedLinkReferences": {}
}